{
  "address": "0x11Ff32D3a9580644b04c5bada3A3Ad78BD62dDf5",
  "abi": [
    {
      "inputs": [
        {
          "internalType": "bytes32",
          "name": "role",
          "type": "bytes32"
        },
        {
          "internalType": "address",
          "name": "msgSender",
          "type": "address"
        }
      ],
      "name": "OnlyRoleError",
      "type": "error"
    },
    {
      "anonymous": false,
      "inputs": [
        {
          "indexed": false,
          "internalType": "uint8",
          "name": "version",
          "type": "uint8"
        }
      ],
      "name": "Initialized",
      "type": "event"
    },
    {
      "anonymous": false,
      "inputs": [
        {
          "indexed": true,
          "internalType": "bytes32",
          "name": "role",
          "type": "bytes32"
        },
        {
          "indexed": true,
          "internalType": "bytes32",
          "name": "previousAdminRole",
          "type": "bytes32"
        },
        {
          "indexed": true,
          "internalType": "bytes32",
          "name": "newAdminRole",
          "type": "bytes32"
        }
      ],
      "name": "RoleAdminChanged",
      "type": "event"
    },
    {
      "anonymous": false,
      "inputs": [
        {
          "indexed": true,
          "internalType": "bytes32",
          "name": "role",
          "type": "bytes32"
        },
        {
          "indexed": true,
          "internalType": "address",
          "name": "account",
          "type": "address"
        },
        {
          "indexed": true,
          "internalType": "address",
          "name": "sender",
          "type": "address"
        }
      ],
      "name": "RoleGranted",
      "type": "event"
    },
    {
      "anonymous": false,
      "inputs": [
        {
          "indexed": true,
          "internalType": "bytes32",
          "name": "role",
          "type": "bytes32"
        },
        {
          "indexed": true,
          "internalType": "address",
          "name": "account",
          "type": "address"
        },
        {
          "indexed": true,
          "internalType": "address",
          "name": "sender",
          "type": "address"
        }
      ],
      "name": "RoleRevoked",
      "type": "event"
    },
    {
      "inputs": [],
      "name": "ACCESS_CONTROL_SINGLETON",
      "outputs": [
        {
          "internalType": "contract IAccessControlUpgradeable",
          "name": "",
          "type": "address"
        }
      ],
      "stateMutability": "view",
      "type": "function"
    },
    {
      "inputs": [],
      "name": "ADMIN_ROLE",
      "outputs": [
        {
          "internalType": "bytes32",
          "name": "",
          "type": "bytes32"
        }
      ],
      "stateMutability": "view",
      "type": "function"
    },
    {
      "inputs": [],
      "name": "COMMUNITY_ADMIN_ROLE",
      "outputs": [
        {
          "internalType": "bytes32",
          "name": "",
          "type": "bytes32"
        }
      ],
      "stateMutability": "view",
      "type": "function"
    },
    {
      "inputs": [],
      "name": "DAO_ROLE",
      "outputs": [
        {
          "internalType": "bytes32",
          "name": "",
          "type": "bytes32"
        }
      ],
      "stateMutability": "view",
      "type": "function"
    },
    {
      "inputs": [],
      "name": "DEFAULT_ADMIN_ROLE",
      "outputs": [
        {
          "internalType": "bytes32",
          "name": "",
          "type": "bytes32"
        }
      ],
      "stateMutability": "view",
      "type": "function"
    },
    {
      "inputs": [
        {
          "internalType": "address",
          "name": "",
          "type": "address"
        }
      ],
      "name": "adminInfo",
      "outputs": [
        {
          "internalType": "bool",
          "name": "isAdmin",
          "type": "bool"
        }
      ],
      "stateMutability": "view",
      "type": "function"
    },
    {
      "inputs": [
        {
          "internalType": "address",
          "name": "",
          "type": "address"
        }
      ],
      "name": "communityAdminInfo",
      "outputs": [
        {
          "internalType": "uint256",
          "name": "xpLimit",
          "type": "uint256"
        },
        {
          "internalType": "uint16",
          "name": "levelLimit",
          "type": "uint16"
        }
      ],
      "stateMutability": "view",
      "type": "function"
    },
    {
      "inputs": [
        {
          "internalType": "address",
          "name": "user",
          "type": "address"
        },
        {
          "internalType": "uint256",
          "name": "xp",
          "type": "uint256"
        }
      ],
      "name": "distribute",
      "outputs": [],
      "stateMutability": "nonpayable",
      "type": "function"
    },
    {
      "inputs": [
        {
          "internalType": "address",
          "name": "user",
          "type": "address"
        }
      ],
      "name": "getAllocation",
      "outputs": [
        {
          "internalType": "uint256",
          "name": "",
          "type": "uint256"
        }
      ],
      "stateMutability": "view",
      "type": "function"
    },
    {
      "inputs": [
        {
          "internalType": "address",
          "name": "user",
          "type": "address"
        }
      ],
      "name": "getDiscount",
      "outputs": [
        {
          "internalType": "uint256",
          "name": "",
          "type": "uint256"
        }
      ],
      "stateMutability": "view",
      "type": "function"
    },
    {
      "inputs": [
        {
          "internalType": "address",
          "name": "user",
          "type": "address"
        }
      ],
      "name": "getLevel",
      "outputs": [
        {
          "internalType": "uint16",
          "name": "",
          "type": "uint16"
        }
      ],
      "stateMutability": "view",
      "type": "function"
    },
    {
      "inputs": [
        {
          "internalType": "bytes32",
          "name": "role",
          "type": "bytes32"
        }
      ],
      "name": "getRoleAdmin",
      "outputs": [
        {
          "internalType": "bytes32",
          "name": "",
          "type": "bytes32"
        }
      ],
      "stateMutability": "view",
      "type": "function"
    },
    {
      "inputs": [
        {
          "internalType": "bytes32",
          "name": "role",
          "type": "bytes32"
        },
        {
          "internalType": "address",
          "name": "account",
          "type": "address"
        }
      ],
      "name": "grantRole",
      "outputs": [],
      "stateMutability": "nonpayable",
      "type": "function"
    },
    {
      "inputs": [
        {
          "internalType": "bytes32",
          "name": "role",
          "type": "bytes32"
        },
        {
          "internalType": "address",
          "name": "account",
          "type": "address"
        }
      ],
      "name": "hasRole",
      "outputs": [
        {
          "internalType": "bool",
          "name": "",
          "type": "bool"
        }
      ],
      "stateMutability": "view",
      "type": "function"
    },
    {
      "inputs": [
        {
          "internalType": "address",
          "name": "_accessControlSingleton",
          "type": "address"
        }
      ],
      "name": "initialize",
      "outputs": [],
      "stateMutability": "nonpayable",
      "type": "function"
    },
    {
      "inputs": [
        {
          "internalType": "address",
          "name": "",
          "type": "address"
        }
      ],
      "name": "nftInfo",
      "outputs": [
        {
          "internalType": "uint256",
          "name": "allocation",
          "type": "uint256"
        },
        {
          "internalType": "uint256",
          "name": "discountRatioPresale",
          "type": "uint256"
        }
      ],
      "stateMutability": "view",
      "type": "function"
    },
    {
      "inputs": [
        {
          "internalType": "bytes32",
          "name": "role",
          "type": "bytes32"
        },
        {
          "internalType": "address",
          "name": "account",
          "type": "address"
        }
      ],
      "name": "renounceRole",
      "outputs": [],
      "stateMutability": "nonpayable",
      "type": "function"
    },
    {
      "inputs": [
        {
          "internalType": "bytes32",
          "name": "role",
          "type": "bytes32"
        },
        {
          "internalType": "address",
          "name": "account",
          "type": "address"
        }
      ],
      "name": "revokeRole",
      "outputs": [],
      "stateMutability": "nonpayable",
      "type": "function"
    },
    {
      "inputs": [
        {
          "internalType": "address",
          "name": "admin",
          "type": "address"
        },
        {
          "internalType": "bool",
          "name": "isAdmin",
          "type": "bool"
        }
      ],
      "name": "setAdmin",
      "outputs": [],
      "stateMutability": "nonpayable",
      "type": "function"
    },
    {
      "inputs": [
        {
          "internalType": "address",
          "name": "communityAdmin",
          "type": "address"
        },
        {
          "internalType": "uint256",
          "name": "xpLimit",
          "type": "uint256"
        },
        {
          "internalType": "uint16",
          "name": "levelLimit",
          "type": "uint16"
        }
      ],
      "name": "setCommunityAdmin",
      "outputs": [],
      "stateMutability": "nonpayable",
      "type": "function"
    },
    {
      "inputs": [
        {
          "internalType": "address",
          "name": "nft",
          "type": "address"
        },
        {
          "internalType": "uint256",
          "name": "allocation",
          "type": "uint256"
        },
        {
          "internalType": "uint256",
          "name": "discountRatioPresale",
          "type": "uint256"
        }
      ],
      "name": "setNftInfo",
      "outputs": [],
      "stateMutability": "nonpayable",
      "type": "function"
    },
    {
      "inputs": [
        {
          "internalType": "address",
          "name": "user",
          "type": "address"
        },
        {
          "internalType": "uint256",
          "name": "allocation",
          "type": "uint256"
        },
        {
          "internalType": "uint256",
          "name": "discountRatioPresale",
          "type": "uint256"
        }
      ],
      "name": "setUserInfo",
      "outputs": [],
      "stateMutability": "nonpayable",
      "type": "function"
    },
    {
      "inputs": [
        {
          "internalType": "bytes4",
          "name": "interfaceId",
          "type": "bytes4"
        }
      ],
      "name": "supportsInterface",
      "outputs": [
        {
          "internalType": "bool",
          "name": "",
          "type": "bool"
        }
      ],
      "stateMutability": "view",
      "type": "function"
    },
    {
      "inputs": [
        {
          "internalType": "address",
          "name": "newOwner",
          "type": "address"
        }
      ],
      "name": "transferOwnership",
      "outputs": [],
      "stateMutability": "nonpayable",
      "type": "function"
    },
    {
      "inputs": [
        {
          "internalType": "address",
          "name": "",
          "type": "address"
        }
      ],
      "name": "userInfo",
      "outputs": [
        {
          "internalType": "uint256",
          "name": "xp",
          "type": "uint256"
        },
        {
          "internalType": "uint256",
          "name": "allocation",
          "type": "uint256"
        },
        {
          "internalType": "uint256",
          "name": "discountRatioPresale",
          "type": "uint256"
        }
      ],
      "stateMutability": "view",
      "type": "function"
    }
  ],
  "numDeployments": 1,
  "solcInputHash": "174296126c5a96b07cac11a4ec4f4089",
  "bytecode": "0x608060405234801561001057600080fd5b50612768806100206000396000f3fe608060405234801561001057600080fd5b50600436106101735760003560e01c806395367f89116100de578063d547741f11610097578063e9c2651811610071578063e9c2651814610498578063f2fde38b146104b6578063f5c972ac146104d2578063fb932108146104ee57610173565b8063d547741f1461042f578063e3ac1e771461044b578063e9545b921461046757610173565b806395367f891461035a578063a217fddf14610378578063b68ce71c14610396578063bdab5331146103c6578063c3c41f87146103e2578063c4d66de81461041357610173565b80632f2ff15d116101305780632f2ff15d1461028857806336568abe146102a45780634b0bddd2146102c057806375b238fc146102dc578063817c8966146102fa57806391d148541461032a57610173565b806301ffc9a71461017857806303ee9f22146101a857806306f2791a146101c65780630e022923146101f65780631959a00214610226578063248a9ca314610258575b600080fd5b610192600480360381019061018d9190611cc3565b61050a565b60405161019f9190611d0b565b60405180910390f35b6101b0610574565b6040516101bd9190611da5565b60405180910390f35b6101e060048036038101906101db9190611dfe565b61059a565b6040516101ed9190611e44565b60405180910390f35b610210600480360381019061020b9190611dfe565b6105e6565b60405161021d9190611e44565b60405180910390f35b610240600480360381019061023b9190611dfe565b610632565b60405161024f93929190611e5f565b60405180910390f35b610272600480360381019061026d9190611ecc565b61065c565b60405161027f9190611f08565b60405180910390f35b6102a2600480360381019061029d9190611f23565b610700565b005b6102be60048036038101906102b99190611f23565b6107ea565b005b6102da60048036038101906102d59190611f8f565b61087d565b005b6102e461092d565b6040516102f19190611f08565b60405180910390f35b610314600480360381019061030f9190611dfe565b610951565b6040516103219190611fec565b60405180910390f35b610344600480360381019061033f9190611f23565b6109a5565b6040516103519190611d0b565b60405180910390f35b610362610a4c565b60405161036f9190611f08565b60405180910390f35b610380610a70565b60405161038d9190611f08565b60405180910390f35b6103b060048036038101906103ab9190611dfe565b610a77565b6040516103bd9190611d0b565b60405180910390f35b6103e060048036038101906103db9190612033565b610aa2565b005b6103fc60048036038101906103f79190611dfe565b610ba4565b60405161040a929190612086565b60405180910390f35b61042d60048036038101906104289190611dfe565b610bd6565b005b61044960048036038101906104449190611f23565b610d16565b005b610465600480360381019061046091906120db565b610e00565b005b610481600480360381019061047c9190611dfe565b610fa7565b60405161048f92919061212e565b60405180910390f35b6104a0610fcb565b6040516104ad9190611f08565b60405180910390f35b6104d060048036038101906104cb9190611dfe565b610fd2565b005b6104ec60048036038101906104e79190612033565b6111b2565b005b61050860048036038101906105039190612157565b6112b4565b005b60007f7965db0b000000000000000000000000000000000000000000000000000000007bffffffffffffffffffffffffffffffffffffffffffffffffffffffff1916827bffffffffffffffffffffffffffffffffffffffffffffffffffffffff1916149050919050565b600060029054906101000a900473ffffffffffffffffffffffffffffffffffffffff1681565b6000603360008373ffffffffffffffffffffffffffffffffffffffff1673ffffffffffffffffffffffffffffffffffffffff168152602001908152602001600020600201549050919050565b6000603360008373ffffffffffffffffffffffffffffffffffffffff1673ffffffffffffffffffffffffffffffffffffffff168152602001908152602001600020600101549050919050565b60336020528060005260406000206000915090508060000154908060010154908060020154905083565b60008060029054906101000a900473ffffffffffffffffffffffffffffffffffffffff1673ffffffffffffffffffffffffffffffffffffffff1663248a9ca3836040518263ffffffff1660e01b81526004016106b89190611f08565b602060405180830381865afa1580156106d5573d6000803e3d6000fd5b505050506040513d601f19601f820116820180604052508101906106f991906121ac565b9050919050565b6107098261065c565b61071381336109a5565b6107565780336040517f37c2e34300000000000000000000000000000000000000000000000000000000815260040161074d9291906121e8565b60405180910390fd5b600060029054906101000a900473ffffffffffffffffffffffffffffffffffffffff1673ffffffffffffffffffffffffffffffffffffffff16632f2ff15d84846040518363ffffffff1660e01b81526004016107b39291906121e8565b600060405180830381600087803b1580156107cd57600080fd5b505af11580156107e1573d6000803e3d6000fd5b50505050505050565b600060029054906101000a900473ffffffffffffffffffffffffffffffffffffffff1673ffffffffffffffffffffffffffffffffffffffff166336568abe83836040518363ffffffff1660e01b81526004016108479291906121e8565b600060405180830381600087803b15801561086157600080fd5b505af1158015610875573d6000803e3d6000fd5b505050505050565b6000801b61088b81336109a5565b6108ce5780336040517f37c2e3430000000000000000000000000000000000000000000000000000000081526004016108c59291906121e8565b60405180910390fd5b81603560008573ffffffffffffffffffffffffffffffffffffffff1673ffffffffffffffffffffffffffffffffffffffff16815260200190815260200160002060000160006101000a81548160ff021916908315150217905550505050565b7fa49807205ce4d355092ef5a8a18f56e8913cf4a201fbe287825b095693c2177581565b600061099e603360008473ffffffffffffffffffffffffffffffffffffffff1673ffffffffffffffffffffffffffffffffffffffff168152602001908152602001600020600001546115bf565b9050919050565b60008060029054906101000a900473ffffffffffffffffffffffffffffffffffffffff1673ffffffffffffffffffffffffffffffffffffffff166391d1485484846040518363ffffffff1660e01b8152600401610a039291906121e8565b602060405180830381865afa158015610a20573d6000803e3d6000fd5b505050506040513d601f19601f82011682018060405250810190610a449190612226565b905092915050565b7f0a7cc066f24e107ff77c42c8a1bdaf1a5f775fa4a74e45530aaf9c866368f65381565b6000801b81565b60356020528060005260406000206000915090508060000160009054906101000a900460ff16905081565b7fa49807205ce4d355092ef5a8a18f56e8913cf4a201fbe287825b095693c21775610acd81336109a5565b610b105780336040517f37c2e343000000000000000000000000000000000000000000000000000000008152600401610b079291906121e8565b60405180910390fd5b82603260008673ffffffffffffffffffffffffffffffffffffffff1673ffffffffffffffffffffffffffffffffffffffff1681526020019081526020016000206000018190555081603260008673ffffffffffffffffffffffffffffffffffffffff1673ffffffffffffffffffffffffffffffffffffffff1681526020019081526020016000206001018190555050505050565b60346020528060005260406000206000915090508060000154908060010160009054906101000a900461ffff16905082565b60008060019054906101000a900460ff16159050808015610c075750600160008054906101000a900460ff1660ff16105b80610c345750610c1630611bb0565b158015610c335750600160008054906101000a900460ff1660ff16145b5b610c73576040517f08c379a0000000000000000000000000000000000000000000000000000000008152600401610c6a906122d6565b60405180910390fd5b60016000806101000a81548160ff021916908360ff1602179055508015610cb0576001600060016101000a81548160ff0219169083151502179055505b610cb982611bd3565b8015610d125760008060016101000a81548160ff0219169083151502179055507f7f26b83ff96e1f2b6a682f133852f6798a09c465da95921460cefb38474024986001604051610d09919061233e565b60405180910390a15b5050565b610d1f8261065c565b610d2981336109a5565b610d6c5780336040517f37c2e343000000000000000000000000000000000000000000000000000000008152600401610d639291906121e8565b60405180910390fd5b600060029054906101000a900473ffffffffffffffffffffffffffffffffffffffff1673ffffffffffffffffffffffffffffffffffffffff1663d547741f84846040518363ffffffff1660e01b8152600401610dc99291906121e8565b600060405180830381600087803b158015610de357600080fd5b505af1158015610df7573d6000803e3d6000fd5b50505050505050565b7fa49807205ce4d355092ef5a8a18f56e8913cf4a201fbe287825b095693c21775610e2b81336109a5565b610e6e5780336040517f37c2e343000000000000000000000000000000000000000000000000000000008152600401610e659291906121e8565b60405180910390fd5b603560003373ffffffffffffffffffffffffffffffffffffffff1673ffffffffffffffffffffffffffffffffffffffff16815260200190815260200160002060000160009054906101000a900460ff16610efd576040517f08c379a0000000000000000000000000000000000000000000000000000000008152600401610ef4906123a5565b60405180910390fd5b82603460008673ffffffffffffffffffffffffffffffffffffffff1673ffffffffffffffffffffffffffffffffffffffff1681526020019081526020016000206000018190555081603460008673ffffffffffffffffffffffffffffffffffffffff1673ffffffffffffffffffffffffffffffffffffffff16815260200190815260200160002060010160006101000a81548161ffff021916908361ffff16021790555050505050565b60326020528060005260406000206000915090508060000154908060010154905082565b6000801b81565b600073ffffffffffffffffffffffffffffffffffffffff168173ffffffffffffffffffffffffffffffffffffffff1603611041576040517f08c379a000000000000000000000000000000000000000000000000000000000815260040161103890612437565b60405180910390fd5b61104e6000801b336109a5565b61108d576040517f08c379a0000000000000000000000000000000000000000000000000000000008152600401611084906124a3565b60405180910390fd5b6110b77fa49807205ce4d355092ef5a8a18f56e8913cf4a201fbe287825b095693c21775336109a5565b15611111576110e67fa49807205ce4d355092ef5a8a18f56e8913cf4a201fbe287825b095693c2177582610700565b6111107fa49807205ce4d355092ef5a8a18f56e8913cf4a201fbe287825b095693c2177533610d16565b5b61113b7f0a7cc066f24e107ff77c42c8a1bdaf1a5f775fa4a74e45530aaf9c866368f653336109a5565b156111955761116a7f0a7cc066f24e107ff77c42c8a1bdaf1a5f775fa4a74e45530aaf9c866368f65382610700565b6111947f0a7cc066f24e107ff77c42c8a1bdaf1a5f775fa4a74e45530aaf9c866368f65333610d16565b5b6111a26000801b82610700565b6111af6000801b33610d16565b50565b7fa49807205ce4d355092ef5a8a18f56e8913cf4a201fbe287825b095693c217756111dd81336109a5565b6112205780336040517f37c2e3430000000000000000000000000000000000000000000000000000000081526004016112179291906121e8565b60405180910390fd5b82603360008673ffffffffffffffffffffffffffffffffffffffff1673ffffffffffffffffffffffffffffffffffffffff1681526020019081526020016000206001018190555081603360008673ffffffffffffffffffffffffffffffffffffffff1673ffffffffffffffffffffffffffffffffffffffff1681526020019081526020016000206002018190555050505050565b7f0a7cc066f24e107ff77c42c8a1bdaf1a5f775fa4a74e45530aaf9c866368f6536112df81336109a5565b6113225780336040517f37c2e3430000000000000000000000000000000000000000000000000000000081526004016113199291906121e8565b60405180910390fd5b603460003373ffffffffffffffffffffffffffffffffffffffff1673ffffffffffffffffffffffffffffffffffffffff168152602001908152602001600020600001548211156113a7576040517f08c379a000000000000000000000000000000000000000000000000000000000815260040161139e90612535565b60405180910390fd5b81603460003373ffffffffffffffffffffffffffffffffffffffff1673ffffffffffffffffffffffffffffffffffffffff168152602001908152602001600020600001546113f59190612584565b603460003373ffffffffffffffffffffffffffffffffffffffff1673ffffffffffffffffffffffffffffffffffffffff1681526020019081526020016000206000018190555081603360008573ffffffffffffffffffffffffffffffffffffffff1673ffffffffffffffffffffffffffffffffffffffff1681526020019081526020016000206000015461148991906125b8565b603360008573ffffffffffffffffffffffffffffffffffffffff1673ffffffffffffffffffffffffffffffffffffffff16815260200190815260200160002060000181905550600061151c603360008673ffffffffffffffffffffffffffffffffffffffff1673ffffffffffffffffffffffffffffffffffffffff168152602001908152602001600020600001546115bf565b9050603460003373ffffffffffffffffffffffffffffffffffffffff1673ffffffffffffffffffffffffffffffffffffffff16815260200190815260200160002060010160009054906101000a900461ffff1661ffff168161ffff1611156115b9576040517f08c379a00000000000000000000000000000000000000000000000000000000081526004016115b090612680565b60405180910390fd5b50505050565b60006103e88210156115d45760019050611bab565b6107d08210156115e75760029050611bab565b610c808210156115fa5760039050611bab565b6111f882101561160d5760049050611bab565b6118388210156116205760059050611bab565b611f408210156116335760069050611bab565b6127108210156116465760079050611bab565b612fa88210156116595760089050611bab565b61396c82101561166c5760099050611bab565b61445c82101561167f57600a9050611bab565b61507882101561169257600b9050611bab565b615f008210156116a557600c9050611bab565b6170708210156116b857600d9050611bab565b61855c8210156116cb57600e9050611bab565b619e778210156116de57600f9050611bab565b61bc978210156116f15760109050611bab565b61e0bd8210156117045760119050611bab565b62010c1d8210156117185760129050611bab565b6201402982101561172c5760139050611bab565b62017e9d8210156117405760149050611bab565b6201c98e8210156117545760159050611bab565b6202237c8210156117685760169050611bab565b62028f6682101561177c5760179050611bab565b620310e58210156117905760189050611bab565b6203ac4a8210156117a45760199050611bab565b620466c38210156117b857601a9050611bab565b620546878210156117cc57601b9050611bab565b6206530b8210156117e057601c9050611bab565b620795438210156117f457601d9050611bab565b620917ec82101561180857601e9050611bab565b620ae7ea82101561181c57601f9050611bab565b620d14b48210156118305760209050611bab565b620fb0d98210156118445760219050611bab565b6212d29f8210156118585760229050611bab565b621694bf82101561186c5760239050611bab565b621b174b8210156118805760249050611bab565b622080bf8210156118945760259050611bab565b6226ff4a8210156118a85760269050611bab565b622eca578210156118bc5760279050611bab565b623824668210156118d05760289050611bab565b62435d448210156118e45760299050611bab565b6250d4b48210156118f857602a9050611bab565b6260fda082101561190c57602b9050611bab565b627461ee82101561192057602c9050611bab565b628ba71882101561193457602d9050611bab565b62a793b082101561194857602e9050611bab565b62c9160082101561195c57602f9050611bab565b62f14bf98210156119705760309050611bab565b6301218cbd8210156119855760319050611bab565b63015b740e82101561199a5760329050611bab565b6301a0f0088210156119af5760339050611bab565b6301f4519a8210156119c45760349050611bab565b63025860498210156119d95760359050611bab565b6302d071e78210156119ee5760369050611bab565b630360870b821015611a035760379050611bab565b63040d6d36821015611a185760389050611bab565b6304dce7d0821015611a2d5760399050611bab565b6305d5e155821015611a4257603a9050611bab565b630700a65b821015611a5757603b9050611bab565b6308672c62821015611a6c57603c9050611bab565b630a1566d0821015611a8157603d9050611bab565b630c19aced821015611a9657603e9050611bab565b630e853443821015611aab57603f9050611bab565b63116ca377821015611ac05760409050611bab565b6314e8c282821015611ad55760419050611bab565b6319174e28821015611aea5760429050611bab565b631e1bf5bc821015611aff5760439050611bab565b6324218ba0821015611b145760449050611bab565b632b5b72b1821015611b295760459050611bab565b63340754c5821015611b3e5760469050611bab565b633e6f30dd821015611b535760479050611bab565b634aebd293821015611b685760489050611bab565b6359e7c7d3821015611b7d5760499050611bab565b636be2ee1f821015611b9257604a9050611bab565b636be2ee1f8210611ba657604b9050611bab565b600190505b919050565b6000808273ffffffffffffffffffffffffffffffffffffffff163b119050919050565b600060019054906101000a900460ff16611c22576040517f08c379a0000000000000000000000000000000000000000000000000000000008152600401611c1990612712565b60405180910390fd5b80600060026101000a81548173ffffffffffffffffffffffffffffffffffffffff021916908373ffffffffffffffffffffffffffffffffffffffff16021790555050565b600080fd5b60007fffffffff0000000000000000000000000000000000000000000000000000000082169050919050565b611ca081611c6b565b8114611cab57600080fd5b50565b600081359050611cbd81611c97565b92915050565b600060208284031215611cd957611cd8611c66565b5b6000611ce784828501611cae565b91505092915050565b60008115159050919050565b611d0581611cf0565b82525050565b6000602082019050611d206000830184611cfc565b92915050565b600073ffffffffffffffffffffffffffffffffffffffff82169050919050565b6000819050919050565b6000611d6b611d66611d6184611d26565b611d46565b611d26565b9050919050565b6000611d7d82611d50565b9050919050565b6000611d8f82611d72565b9050919050565b611d9f81611d84565b82525050565b6000602082019050611dba6000830184611d96565b92915050565b6000611dcb82611d26565b9050919050565b611ddb81611dc0565b8114611de657600080fd5b50565b600081359050611df881611dd2565b92915050565b600060208284031215611e1457611e13611c66565b5b6000611e2284828501611de9565b91505092915050565b6000819050919050565b611e3e81611e2b565b82525050565b6000602082019050611e596000830184611e35565b92915050565b6000606082019050611e746000830186611e35565b611e816020830185611e35565b611e8e6040830184611e35565b949350505050565b6000819050919050565b611ea981611e96565b8114611eb457600080fd5b50565b600081359050611ec681611ea0565b92915050565b600060208284031215611ee257611ee1611c66565b5b6000611ef084828501611eb7565b91505092915050565b611f0281611e96565b82525050565b6000602082019050611f1d6000830184611ef9565b92915050565b60008060408385031215611f3a57611f39611c66565b5b6000611f4885828601611eb7565b9250506020611f5985828601611de9565b9150509250929050565b611f6c81611cf0565b8114611f7757600080fd5b50565b600081359050611f8981611f63565b92915050565b60008060408385031215611fa657611fa5611c66565b5b6000611fb485828601611de9565b9250506020611fc585828601611f7a565b9150509250929050565b600061ffff82169050919050565b611fe681611fcf565b82525050565b60006020820190506120016000830184611fdd565b92915050565b61201081611e2b565b811461201b57600080fd5b50565b60008135905061202d81612007565b92915050565b60008060006060848603121561204c5761204b611c66565b5b600061205a86828701611de9565b935050602061206b8682870161201e565b925050604061207c8682870161201e565b9150509250925092565b600060408201905061209b6000830185611e35565b6120a86020830184611fdd565b9392505050565b6120b881611fcf565b81146120c357600080fd5b50565b6000813590506120d5816120af565b92915050565b6000806000606084860312156120f4576120f3611c66565b5b600061210286828701611de9565b93505060206121138682870161201e565b9250506040612124868287016120c6565b9150509250925092565b60006040820190506121436000830185611e35565b6121506020830184611e35565b9392505050565b6000806040838503121561216e5761216d611c66565b5b600061217c85828601611de9565b925050602061218d8582860161201e565b9150509250929050565b6000815190506121a681611ea0565b92915050565b6000602082840312156121c2576121c1611c66565b5b60006121d084828501612197565b91505092915050565b6121e281611dc0565b82525050565b60006040820190506121fd6000830185611ef9565b61220a60208301846121d9565b9392505050565b60008151905061222081611f63565b92915050565b60006020828403121561223c5761223b611c66565b5b600061224a84828501612211565b91505092915050565b600082825260208201905092915050565b7f496e697469616c697a61626c653a20636f6e747261637420697320616c72656160008201527f647920696e697469616c697a6564000000000000000000000000000000000000602082015250565b60006122c0602e83612253565b91506122cb82612264565b604082019050919050565b600060208201905081810360008301526122ef816122b3565b9050919050565b6000819050919050565b600060ff82169050919050565b600061232861232361231e846122f6565b611d46565b612300565b9050919050565b6123388161230d565b82525050565b6000602082019050612353600083018461232f565b92915050565b7f4e6565642061646d696e20726967687473000000000000000000000000000000600082015250565b600061238f601183612253565b915061239a82612359565b602082019050919050565b600060208201905081810360008301526123be81612382565b9050919050565b7f4f776e61626c653a206e6577206f776e657220697320746865207a65726f206160008201527f6464726573730000000000000000000000000000000000000000000000000000602082015250565b6000612421602683612253565b915061242c826123c5565b604082019050919050565b6000602082019050818103600083015261245081612414565b9050919050565b7f4f776e61626c653a2063616c6c6572206973206e6f7420746865206f776e6572600082015250565b600061248d602083612253565b915061249882612457565b602082019050919050565b600060208201905081810360008301526124bc81612480565b9050919050565b7f585020746f20646973747269627574652073686f756c646e2774206265206d6f60008201527f7265207468616e2061646d696e2078704c696d69740000000000000000000000602082015250565b600061251f603583612253565b915061252a826124c3565b604082019050919050565b6000602082019050818103600083015261254e81612512565b9050919050565b7f4e487b7100000000000000000000000000000000000000000000000000000000600052601160045260246000fd5b600061258f82611e2b565b915061259a83611e2b565b9250828210156125ad576125ac612555565b5b828203905092915050565b60006125c382611e2b565b91506125ce83611e2b565b9250827fffffffffffffffffffffffffffffffffffffffffffffffffffffffffffffffff0382111561260357612602612555565b5b828201905092915050565b7f55736572206c6576656c2073686f756c64206265206c6573207468616e20616460008201527f6d696e206c6576656c4c696d6974000000000000000000000000000000000000602082015250565b600061266a602e83612253565b91506126758261260e565b604082019050919050565b600060208201905081810360008301526126998161265d565b9050919050565b7f496e697469616c697a61626c653a20636f6e7472616374206973206e6f74206960008201527f6e697469616c697a696e67000000000000000000000000000000000000000000602082015250565b60006126fc602b83612253565b9150612707826126a0565b604082019050919050565b6000602082019050818103600083015261272b816126ef565b905091905056fea264697066735822122082f27c71067c35a6aa194e967dd6fba04d1d2d8c251df0e50b9c54bc2520b60e64736f6c634300080f0033",
  "devdoc": {
    "kind": "dev",
    "methods": {
      "getRoleAdmin(bytes32)": {
        "details": "Returns the admin role that controls `role`. See {grantRole} and {revokeRole}. To change a role's admin, use {AccessControl-_setRoleAdmin}."
      },
      "grantRole(bytes32,address)": {
        "details": "Grants `role` to `account`. If `account` had not been already granted `role`, emits a {RoleGranted} event. Requirements: - the caller must have ``role``'s admin role."
      },
      "hasRole(bytes32,address)": {
        "details": "Returns `true` if `account` has been granted `role`."
      },
      "renounceRole(bytes32,address)": {
        "details": "Revokes `role` from the calling account. Roles are often managed via {grantRole} and {revokeRole}: this function's purpose is to provide a mechanism for accounts to lose their privileges if they are compromised (such as when a trusted device is misplaced). If the calling account had been granted `role`, emits a {RoleRevoked} event. Requirements: - the caller must be `account`."
      },
      "revokeRole(bytes32,address)": {
        "details": "Revokes `role` from `account`. If `account` had been granted `role`, emits a {RoleRevoked} event. Requirements: - the caller must have ``role``'s admin role."
      },
      "supportsInterface(bytes4)": {
        "details": "Returns true if this contract implements the interface defined by `interfaceId`. See the corresponding https://eips.ethereum.org/EIPS/eip-165#how-interfaces-are-identified[EIP section] to learn more about how these ids are created. This function call must use less than 30 000 gas."
      },
      "transferOwnership(address)": {
        "details": "Transfers ownership of the contract to a new account (`newOwner`). Can only be called by the current owner."
      }
    },
    "stateVariables": {
      "__gap": {
        "details": "This empty reserved space is put in place to allow future versions to add new variables without shifting down storage in the inheritance chain. See https://docs.openzeppelin.com/contracts/4.x/upgradeable#storage_gaps"
      }
    },
    "version": 1
  },
  "userdoc": {
    "kind": "user",
    "methods": {
      "distribute(address,uint256)": {
        "notice": "Admin can give xp points to user `user` Address of user `xp` The amount of XP that admin want to give user (xp <= admin.xpLimit && levelAfter(user) <= admin.levelLimit)*"
      },
      "getAllocation(address)": {
        "notice": "Get user allocation `user` Address of user*"
      },
      "getDiscount(address)": {
        "notice": "Get user discount ratio for presale `user` Address of user*"
      },
      "getLevel(address)": {
        "notice": "Get user level according to constant distribution. Max value: 65535 `user` Address of user*"
      },
      "setAdmin(address,bool)": {
        "notice": "Add or remove new admin `isAdmin` Address of admin*"
      },
      "setNftInfo(address,uint256,uint256)": {
        "notice": "Set allocation and discountRatioPresale for NFT `isAdmin` Address of admin*"
      },
      "setUserInfo(address,uint256,uint256)": {
        "notice": "Set allocation and discountRatioPresale for user `isAdmin` Address of admin*"
      }
    },
    "version": 1
  },
  "storageLayout": {
    "storage": [
      {
        "astId": 157,
        "contract": "contracts/Bonus.sol:Bonus",
        "label": "_initialized",
        "offset": 0,
        "slot": "0",
        "type": "t_uint8"
      },
      {
        "astId": 160,
        "contract": "contracts/Bonus.sol:Bonus",
        "label": "_initializing",
        "offset": 1,
        "slot": "0",
        "type": "t_bool"
      },
      {
        "astId": 8840,
        "contract": "contracts/Bonus.sol:Bonus",
        "label": "ACCESS_CONTROL_SINGLETON",
        "offset": 2,
        "slot": "0",
        "type": "t_contract(IAccessControlUpgradeable)72"
      },
      {
        "astId": 9063,
        "contract": "contracts/Bonus.sol:Bonus",
        "label": "__gap",
        "offset": 0,
        "slot": "1",
        "type": "t_array(t_uint256)49_storage"
      },
      {
        "astId": 7895,
        "contract": "contracts/Bonus.sol:Bonus",
        "label": "nftInfo",
        "offset": 0,
        "slot": "50",
        "type": "t_mapping(t_address,t_struct(NFTInfo)9939_storage)"
      },
      {
        "astId": 7900,
        "contract": "contracts/Bonus.sol:Bonus",
        "label": "userInfo",
        "offset": 0,
        "slot": "51",
        "type": "t_mapping(t_address,t_struct(UserInfo)9946_storage)"
      },
      {
        "astId": 7905,
        "contract": "contracts/Bonus.sol:Bonus",
        "label": "communityAdminInfo",
        "offset": 0,
        "slot": "52",
        "type": "t_mapping(t_address,t_struct(CommunityAdminInfo)9954_storage)"
      },
      {
        "astId": 7910,
        "contract": "contracts/Bonus.sol:Bonus",
        "label": "adminInfo",
        "offset": 0,
        "slot": "53",
        "type": "t_mapping(t_address,t_struct(AdminInfo)9949_storage)"
      },
      {
        "astId": 8612,
        "contract": "contracts/Bonus.sol:Bonus",
        "label": "__gap",
        "offset": 0,
        "slot": "54",
        "type": "t_array(t_uint256)45_storage"
      }
    ],
    "types": {
      "t_address": {
        "encoding": "inplace",
        "label": "address",
        "numberOfBytes": "20"
      },
      "t_array(t_uint256)45_storage": {
        "base": "t_uint256",
        "encoding": "inplace",
        "label": "uint256[45]",
        "numberOfBytes": "1440"
      },
      "t_array(t_uint256)49_storage": {
        "base": "t_uint256",
        "encoding": "inplace",
        "label": "uint256[49]",
        "numberOfBytes": "1568"
      },
      "t_bool": {
        "encoding": "inplace",
        "label": "bool",
        "numberOfBytes": "1"
      },
      "t_contract(IAccessControlUpgradeable)72": {
        "encoding": "inplace",
        "label": "contract IAccessControlUpgradeable",
        "numberOfBytes": "20"
      },
      "t_mapping(t_address,t_struct(AdminInfo)9949_storage)": {
        "encoding": "mapping",
        "key": "t_address",
        "label": "mapping(address => struct IBonus.AdminInfo)",
        "numberOfBytes": "32",
        "value": "t_struct(AdminInfo)9949_storage"
      },
      "t_mapping(t_address,t_struct(CommunityAdminInfo)9954_storage)": {
        "encoding": "mapping",
        "key": "t_address",
        "label": "mapping(address => struct IBonus.CommunityAdminInfo)",
        "numberOfBytes": "32",
        "value": "t_struct(CommunityAdminInfo)9954_storage"
      },
      "t_mapping(t_address,t_struct(NFTInfo)9939_storage)": {
        "encoding": "mapping",
        "key": "t_address",
        "label": "mapping(address => struct IBonus.NFTInfo)",
        "numberOfBytes": "32",
        "value": "t_struct(NFTInfo)9939_storage"
      },
      "t_mapping(t_address,t_struct(UserInfo)9946_storage)": {
        "encoding": "mapping",
        "key": "t_address",
        "label": "mapping(address => struct IBonus.UserInfo)",
        "numberOfBytes": "32",
        "value": "t_struct(UserInfo)9946_storage"
      },
      "t_struct(AdminInfo)9949_storage": {
        "encoding": "inplace",
        "label": "struct IBonus.AdminInfo",
        "members": [
          {
            "astId": 9948,
            "contract": "contracts/Bonus.sol:Bonus",
            "label": "isAdmin",
            "offset": 0,
            "slot": "0",
            "type": "t_bool"
          }
        ],
        "numberOfBytes": "32"
      },
      "t_struct(CommunityAdminInfo)9954_storage": {
        "encoding": "inplace",
        "label": "struct IBonus.CommunityAdminInfo",
        "members": [
          {
            "astId": 9951,
            "contract": "contracts/Bonus.sol:Bonus",
            "label": "xpLimit",
            "offset": 0,
            "slot": "0",
            "type": "t_uint256"
          },
          {
            "astId": 9953,
            "contract": "contracts/Bonus.sol:Bonus",
            "label": "levelLimit",
            "offset": 0,
            "slot": "1",
            "type": "t_uint16"
          }
        ],
        "numberOfBytes": "64"
      },
      "t_struct(NFTInfo)9939_storage": {
        "encoding": "inplace",
        "label": "struct IBonus.NFTInfo",
        "members": [
          {
            "astId": 9936,
            "contract": "contracts/Bonus.sol:Bonus",
            "label": "allocation",
            "offset": 0,
            "slot": "0",
            "type": "t_uint256"
          },
          {
            "astId": 9938,
            "contract": "contracts/Bonus.sol:Bonus",
            "label": "discountRatioPresale",
            "offset": 0,
            "slot": "1",
            "type": "t_uint256"
          }
        ],
        "numberOfBytes": "64"
      },
      "t_struct(UserInfo)9946_storage": {
        "encoding": "inplace",
        "label": "struct IBonus.UserInfo",
        "members": [
          {
            "astId": 9941,
            "contract": "contracts/Bonus.sol:Bonus",
            "label": "xp",
            "offset": 0,
            "slot": "0",
            "type": "t_uint256"
          },
          {
            "astId": 9943,
            "contract": "contracts/Bonus.sol:Bonus",
            "label": "allocation",
            "offset": 0,
            "slot": "1",
            "type": "t_uint256"
          },
          {
            "astId": 9945,
            "contract": "contracts/Bonus.sol:Bonus",
            "label": "discountRatioPresale",
            "offset": 0,
            "slot": "2",
            "type": "t_uint256"
          }
        ],
        "numberOfBytes": "96"
      },
      "t_uint16": {
        "encoding": "inplace",
        "label": "uint16",
        "numberOfBytes": "2"
      },
      "t_uint256": {
        "encoding": "inplace",
        "label": "uint256",
        "numberOfBytes": "32"
      },
      "t_uint8": {
        "encoding": "inplace",
        "label": "uint8",
        "numberOfBytes": "1"
      }
    }
  }
}