{
  "address": "0x214ce23Fb80c51F01F06059bad7ea7677FE5FE12",
  "abi": [
    {
      "inputs": [
        {
          "internalType": "bytes32",
          "name": "role",
          "type": "bytes32"
        },
        {
          "internalType": "address",
          "name": "msgSender",
          "type": "address"
        }
      ],
      "name": "OnlyRoleError",
      "type": "error"
    },
    {
      "anonymous": false,
      "inputs": [
        {
          "indexed": false,
          "internalType": "uint8",
          "name": "version",
          "type": "uint8"
        }
      ],
      "name": "Initialized",
      "type": "event"
    },
    {
      "inputs": [],
      "name": "ACCESS_CONTROL_SINGLETON",
      "outputs": [
        {
          "internalType": "contract ISuAccessControl",
          "name": "",
          "type": "address"
        }
      ],
      "stateMutability": "view",
      "type": "function"
    },
    {
      "inputs": [],
      "name": "ADMIN_ROLE",
      "outputs": [
        {
          "internalType": "bytes32",
          "name": "",
          "type": "bytes32"
        }
      ],
      "stateMutability": "view",
      "type": "function"
    },
    {
      "inputs": [],
      "name": "COMMUNITY_ADMIN_ROLE",
      "outputs": [
        {
          "internalType": "bytes32",
          "name": "",
          "type": "bytes32"
        }
      ],
      "stateMutability": "view",
      "type": "function"
    },
    {
      "inputs": [],
      "name": "DAO_ROLE",
      "outputs": [
        {
          "internalType": "bytes32",
          "name": "",
          "type": "bytes32"
        }
      ],
      "stateMutability": "view",
      "type": "function"
    },
    {
      "inputs": [],
      "name": "DEFAULT_ADMIN_ROLE",
      "outputs": [
        {
          "internalType": "bytes32",
          "name": "",
          "type": "bytes32"
        }
      ],
      "stateMutability": "view",
      "type": "function"
    },
    {
      "inputs": [
        {
          "internalType": "address",
          "name": "",
          "type": "address"
        }
      ],
      "name": "adminInfo",
      "outputs": [
        {
          "internalType": "bool",
          "name": "isAdmin",
          "type": "bool"
        }
      ],
      "stateMutability": "view",
      "type": "function"
    },
    {
      "inputs": [
        {
          "internalType": "address",
          "name": "",
          "type": "address"
        }
      ],
      "name": "communityAdminInfo",
      "outputs": [
        {
          "internalType": "uint256",
          "name": "xpLimit",
          "type": "uint256"
        },
        {
          "internalType": "uint16",
          "name": "levelLimit",
          "type": "uint16"
        }
      ],
      "stateMutability": "view",
      "type": "function"
    },
    {
      "inputs": [
        {
          "internalType": "address",
          "name": "user",
          "type": "address"
        },
        {
          "internalType": "uint256",
          "name": "xp",
          "type": "uint256"
        }
      ],
      "name": "distributeXp",
      "outputs": [],
      "stateMutability": "nonpayable",
      "type": "function"
    },
    {
      "inputs": [
        {
          "internalType": "address",
          "name": "user",
          "type": "address"
        }
      ],
      "name": "getAllocation",
      "outputs": [
        {
          "internalType": "uint256",
          "name": "",
          "type": "uint256"
        }
      ],
      "stateMutability": "view",
      "type": "function"
    },
    {
      "inputs": [
        {
          "internalType": "address",
          "name": "user",
          "type": "address"
        }
      ],
      "name": "getBonus",
      "outputs": [
        {
          "internalType": "uint256",
          "name": "",
          "type": "uint256"
        }
      ],
      "stateMutability": "view",
      "type": "function"
    },
    {
      "inputs": [
        {
          "internalType": "address",
          "name": "user",
          "type": "address"
        }
      ],
      "name": "getLevel",
      "outputs": [
        {
          "internalType": "uint16",
          "name": "",
          "type": "uint16"
        }
      ],
      "stateMutability": "view",
      "type": "function"
    },
    {
      "inputs": [
        {
          "internalType": "uint256",
          "name": "xp",
          "type": "uint256"
        }
      ],
      "name": "getLevelByXP",
      "outputs": [
        {
          "internalType": "uint16",
          "name": "",
          "type": "uint16"
        }
      ],
      "stateMutability": "view",
      "type": "function"
    },
    {
      "inputs": [
        {
          "internalType": "address",
          "name": "nft",
          "type": "address"
        }
      ],
      "name": "getNftAllocation",
      "outputs": [
        {
          "internalType": "uint256",
          "name": "",
          "type": "uint256"
        }
      ],
      "stateMutability": "view",
      "type": "function"
    },
    {
      "inputs": [
        {
          "internalType": "address",
          "name": "nft",
          "type": "address"
        }
      ],
      "name": "getNftBonus",
      "outputs": [
        {
          "internalType": "uint256",
          "name": "",
          "type": "uint256"
        }
      ],
      "stateMutability": "view",
      "type": "function"
    },
    {
      "inputs": [
        {
          "internalType": "bytes32",
          "name": "role",
          "type": "bytes32"
        }
      ],
      "name": "getRoleAdmin",
      "outputs": [
        {
          "internalType": "bytes32",
          "name": "",
          "type": "bytes32"
        }
      ],
      "stateMutability": "view",
      "type": "function"
    },
    {
      "inputs": [
        {
          "internalType": "bytes32",
          "name": "role",
          "type": "bytes32"
        },
        {
          "internalType": "address",
          "name": "account",
          "type": "address"
        }
      ],
      "name": "hasRole",
      "outputs": [
        {
          "internalType": "bool",
          "name": "",
          "type": "bool"
        }
      ],
      "stateMutability": "view",
      "type": "function"
    },
    {
      "inputs": [
        {
          "internalType": "address",
          "name": "_accessControlSingleton",
          "type": "address"
        },
        {
          "internalType": "address",
          "name": "defaultAdmin",
          "type": "address"
        }
      ],
      "name": "initialize",
      "outputs": [],
      "stateMutability": "nonpayable",
      "type": "function"
    },
    {
      "inputs": [
        {
          "internalType": "address",
          "name": "nft",
          "type": "address"
        },
        {
          "internalType": "uint256",
          "name": "tokenId",
          "type": "uint256"
        }
      ],
      "name": "isTokenTransferable",
      "outputs": [
        {
          "internalType": "bool",
          "name": "",
          "type": "bool"
        }
      ],
      "stateMutability": "view",
      "type": "function"
    },
    {
      "inputs": [
        {
          "internalType": "uint16",
          "name": "",
          "type": "uint16"
        }
      ],
      "name": "levelMap",
      "outputs": [
        {
          "internalType": "uint256",
          "name": "",
          "type": "uint256"
        }
      ],
      "stateMutability": "view",
      "type": "function"
    },
    {
      "inputs": [
        {
          "internalType": "address",
          "name": "",
          "type": "address"
        }
      ],
      "name": "nftInfo",
      "outputs": [
        {
          "internalType": "uint256",
          "name": "allocation",
          "type": "uint256"
        },
        {
          "internalType": "uint256",
          "name": "donationBonusRatio",
          "type": "uint256"
        }
      ],
      "stateMutability": "view",
      "type": "function"
    },
    {
      "inputs": [
        {
          "internalType": "address",
          "name": "admin",
          "type": "address"
        },
        {
          "internalType": "bool",
          "name": "isAdmin",
          "type": "bool"
        }
      ],
      "name": "setAdmin",
      "outputs": [],
      "stateMutability": "nonpayable",
      "type": "function"
    },
    {
      "inputs": [
        {
          "internalType": "address",
          "name": "communityAdmin",
          "type": "address"
        },
        {
          "internalType": "uint256",
          "name": "xpLimit",
          "type": "uint256"
        },
        {
          "internalType": "uint16",
          "name": "levelLimit",
          "type": "uint16"
        }
      ],
      "name": "setCommunityAdmin",
      "outputs": [],
      "stateMutability": "nonpayable",
      "type": "function"
    },
    {
      "inputs": [
        {
          "internalType": "address",
          "name": "nft",
          "type": "address"
        },
        {
          "internalType": "uint256",
          "name": "allocation",
          "type": "uint256"
        },
        {
          "internalType": "uint256",
          "name": "donationBonusRatio",
          "type": "uint256"
        }
      ],
      "name": "setNftInfo",
      "outputs": [],
      "stateMutability": "nonpayable",
      "type": "function"
    },
    {
      "inputs": [
        {
          "internalType": "address",
          "name": "user",
          "type": "address"
        },
        {
          "internalType": "uint256",
          "name": "allocation",
          "type": "uint256"
        },
        {
          "internalType": "uint256",
          "name": "donationBonusRatio",
          "type": "uint256"
        }
      ],
      "name": "setUserInfo",
      "outputs": [],
      "stateMutability": "nonpayable",
      "type": "function"
    },
    {
      "inputs": [
        {
          "internalType": "bytes4",
          "name": "interfaceId",
          "type": "bytes4"
        }
      ],
      "name": "supportsInterface",
      "outputs": [
        {
          "internalType": "bool",
          "name": "",
          "type": "bool"
        }
      ],
      "stateMutability": "view",
      "type": "function"
    },
    {
      "inputs": [
        {
          "internalType": "address",
          "name": "",
          "type": "address"
        }
      ],
      "name": "userInfo",
      "outputs": [
        {
          "internalType": "uint256",
          "name": "xp",
          "type": "uint256"
        },
        {
          "internalType": "uint256",
          "name": "allocation",
          "type": "uint256"
        },
        {
          "internalType": "uint256",
          "name": "donationBonusRatio",
          "type": "uint256"
        }
      ],
      "stateMutability": "view",
      "type": "function"
    }
  ],
  "numDeployments": 1,
  "solcInputHash": "3c688bbfec318686e56317072d22fab1",
  "bytecode": "0x608060405234801561001057600080fd5b50611993806100206000396000f3fe608060405234801561001057600080fd5b506004361061013e5760003560e01c806301ffc9a71461014357806303ee9f221461016b5780630e022923146101965780631959a002146101d0578063248a9ca31461021a5780633a740a631461022d578063485cc955146102595780634b0bddd21461026e57806375b238fc14610281578063817c8966146102a8578063894ab265146102ce5780638a52b2fa146102e4578063903ba689146102f757806391d1485414610317578063935920dd1461032a57806395367f891461033d578063a217fddf14610364578063b68ce71c1461036c578063bdab53311461038f578063c3c41f87146103a2578063dbcfb6bb146103e5578063de6851f814610411578063e3ac1e771461043a578063e9545b921461044d578063e9c2651814610364578063f5c972ac14610489575b600080fd5b6101566101513660046116a1565b61049c565b60405190151581526020015b60405180910390f35b60335461017e906001600160a01b031681565b6040516001600160a01b039091168152602001610162565b6101c26101a43660046116e7565b6001600160a01b031660009081526066602052604090206001015490565b604051908152602001610162565b6101ff6101de3660046116e7565b60666020526000908152604090208054600182015460029092015490919083565b60408051938452602084019290925290820152606001610162565b6101c2610228366004611702565b610519565b6101c261023b3660046116e7565b6001600160a01b031660009081526066602052604090206002015490565b61026c61026736600461171b565b610587565b005b61026c61027c36600461175f565b6111f7565b6101c27fa49807205ce4d355092ef5a8a18f56e8913cf4a201fbe287825b095693c2177581565b6102bb6102b63660046116e7565b611250565b60405161ffff9091168152602001610162565b6101566102dc366004611796565b600092915050565b6102bb6102f2366004611702565b61126e565b6101c26103053660046117d2565b60696020526000908152604090205481565b6101566103253660046117ed565b6112b9565b61026c610338366004611796565b611334565b6101c27f0a7cc066f24e107ff77c42c8a1bdaf1a5f775fa4a74e45530aaf9c866368f65381565b6101c2600081565b61015661037a3660046116e7565b60676020526000908152604090205460ff1681565b61026c61039d366004611810565b611509565b6103cd6103b03660046116e7565b6068602052600090815260409020805460019091015461ffff1682565b6040805192835261ffff909116602083015201610162565b6101c26103f33660046116e7565b6001600160a01b031660009081526065602052604090206001015490565b6101c261041f3660046116e7565b6001600160a01b031660009081526065602052604090205490565b61026c610448366004611843565b61155a565b61047461045b3660046116e7565b6065602052600090815260409020805460019091015482565b60408051928352602083019190915201610162565b61026c610497366004611810565b6115be565b6033546040516301ffc9a760e01b81526001600160e01b0319831660048201526000916001600160a01b0316906301ffc9a790602401602060405180830381865afa1580156104ef573d6000803e3d6000fd5b505050506040513d601f19601f82011682018060405250810190610513919061187f565b92915050565b60335460405163248a9ca360e01b8152600481018390526000916001600160a01b03169063248a9ca390602401602060405180830381865afa158015610563573d6000803e3d6000fd5b505050506040513d601f19601f82011682018060405250810190610513919061189c565b600054610100900460ff16158080156105a75750600054600160ff909116105b806105c15750303b1580156105c1575060005460ff166001145b6106295760405162461bcd60e51b815260206004820152602e60248201527f496e697469616c697a61626c653a20636f6e747261637420697320616c72656160448201526d191e481a5b9a5d1a585b1a5e995960921b60648201526084015b60405180910390fd5b6000805460ff19166001179055801561064c576000805461ff0019166101001790555b61065583611614565b6001600160a01b03821660009081526067602090815260408220805460ff19166001179055606990526103e87fc073f36c05b6a60b24c30a48974b549770d8fa354751fb3170c9dfd8ca536add556107d07f0e06b3a0ac1d519392f9d33f9b92cd5a527ceb8ad2859e7bfebef5dd54cfca9155610c807f56d594188730cd2db4f97166f7e9b0b9d5caa8ac32e0506fd5faeb5b224f8813556111f87f361dc51dab091026a1c79fd9b05565dd28a0361cae60a90e9f335322175f94eb556118387f58181d40e37140de35f3c83afb1757dd4cd983e09859bd6c5adeab622970d97955611f407fbca3f838d730ae2728eba81f5806986786f6f12f7baa90e2f78e0fabd83e6bfa556127107f880910d893c5e82a2d71e83422d2272290593214e6f6a6f31d7c1259f8f1bf3255612fa87f9960260aaa22d230a3b999f6243d727fef99faebfaa949c961ad27031f2529b85561396c7fd59adc5430ca4ad4d45faeae512b6e90e35d7c0c6967e4f84eaa44b3fe28f1345561445c7f9d9c791c65eec946a96f27e2cba142c68944ee11d8d5ec7c4fbac1de71b6a4f6556150787f244cb9069fbcb725e4397f5a720303b3689e621824aed89f7f5e99b2cca58e5955615f007f5b0c2d967fd44e417d85d0b77473b917da270d6a617cba15da43f2a4526eef3c556170707f87347c1f5c1139bb224ab27dcfe07a18cb516348e2572c7206727ab40103f5455561855c7f4f82bfaa5978cb61898b9e204c1f0b5ea55de2f7c6a0009acbb073d24fc4437b55619e777f89eb5f44a4dc6a7919471fadb15a9a28e04cf7710b29acf97cd7c2ede39ae8455561bc977f173736a2caf6a9b14f78d27f13a5386303c9608ee39f8b567fe78996fcfffab35561e0bd7f07f0ec94067ff61e1c386aa584e6f2d442e2a3c7920220af5c7b61fe33e94dc55562010c1d7ff6e99a294c459d63920c4000e94c86b81f9e68874f1759860a7b295e2268f0fa55620140297fe81dd57450e38d5d9592cd63f34b49464b5f70609c4b65a808fbcc91409fd9715562017e9d7fff0c76cd2fe6ea9745f9101b043d6a461ba37c5fdeb06db9198ae29f213689c5556201c98e7f23684f7e0ae1bbecbe5be8ae4673a5f4d2c07335881f11a34ba51263ca1600b3556202237c7f1fa0c10d259aaad2ebffc6f7907c0d5b7b228964b3281f3d92be217e31f1df5b5562028f667f80e3ec1a3b13a5445f027e444bd2f8391186118ad8811d8f3aba28175bcf79ab55620310e57f7053860f0e92bb14f2d3254a85f34cb20587fdfa85dc0f003f4beebe5e4a9997556203ac4a7fc2c2aa285b2628cac577c416f7536dbcacacd398c841af1a1cb6509c93605d0d55620466c37f697731bf2a05449312c1196a2f8efd08c96b8bf7d829d147f433928cb675536955620546877f2d93f843f7ba6e051d233b26b31d4267c0a8c43b9b1466e359d8942ac6991928556206530b7f9448a1e8c635cf05082bc299e0c152e5d0e3c2a9c2a58820a36bcd6ae1d3636855620795437f21fd17e2e989bdfaca314f28f91b1cb1aaa2defadd1de4fe0b14643ff5abdd0f55620917ec7f79e30baa56b10410fe8f65590b781960aad8bf40c5a49c82d705130f459ef4db55620ae7ea7fb0fd899876025dc8c24cbfce9a06e4bb9754325a213823fa6e9b191e2411015f55620d14b47ff8da5f587c92f16cbf3f9b6ee92f0538891219384fc4b7cb15206e5dfadab02d55620fb0d97fe069198880a7c13e3787b9e4d2ecc6b958a77820eef32abe2d743fb57c60b04f556212d29f7f56c0e29d9bcb11f9701c5c26a79d721921e53b74e7d567a30a1ffe483b3f503055621694bf7facf0d14e5c5622eda4bae4a10918de81f086072a43fdba3c4e3a0d03e39a32b755621b174b7f1f2a5a1c32b438be204d7439bf04309564f4e3475d916dac98066528b43d939155622080bf7fbceeb33f171d12c68f46aeef8a9333fd43d1d7a8957ac1f1d0f51757f6d2fd4b556226ff4a7f051b7af2a47db0adc6bc79b5c5fe812d506e961f59f19fe170a05e3f67fdc7d155622eca577f96ef85ad06443288e40cb962b35ba6d26b83aa40504d1f2f493356483c38915655623824667ffe2d86013d4d764bcd2241c7c1b5bd64137be1795c3b10bd0e2678c7763aa91e5562435d447ff508ee97c766efb8828e74fc5e1b1477e3b5e74619ddb93f101d1c172dc7fee2556250d4b47f7135572492c498f71f71e5ed19370167806f70cef7cba29713133e205d55a1e4556260fda07f98d8a6ff006bcf3c3fa7fe84dfebce4dc2a71e64e66c2f60c0f8f20af1f9f53555627461ee7f6047f7a71a1c63a6088dcc057b64015b45f65597e37da6081db487b61cdde9ae55628ba7187f8bfea47b66dc428dfb970f3de973c7f036c6caf724af46b0dd6591a445da878b5562a793b07fa1fd5e46828e6aa5113b3dae837facc035f87c2616ec0e15daba97fc38aaec765562c916007f83c8be171269008a12bebb79e267fe5f3a910ee62ec6a69cd7f5fc7929d7d05a5562f14bf97fa3c89584d723e9c73e80f325b5891ef0b7cb81b340e28bda4997fe2b1fccf0a7556301218cbd7f87d2439914cdc1fe7311abff4587d0e587fde6a27534d17382b1215cc17f17ea5563015b740e7f7178c8dc65184127f81a52f1023e03c6364a7bab296c8b7fb0017f4fd024656b556301a0f0087ffe6fe1e9304e7873f5f7b48919bc5e807b2e24e83f306888c3b49872481b2bc1556301f4519a7f4cae7989b00ecc6cbc0ede1596a47d699c3d4233449eb1fac91945f1aa5439325563025860497f320bf403bc3047e9e375e0aaa19f65ee2195e1b198ecef5cc7ed36f9aabb2730556302d071e77ff02103b4fc3c50afc31beb1eaebbb6d923df76e411e9ed203f2ee73ae43f255755630360870b7f69273a56457376e766647352827df4c4ba21de6257d791d1efa3d71d895b07885563040d6d367f2b2d6e97176389d3452e1e45eebb158e8d5bde8d2ae0187b04d4ffcacfa65c56556304dce7d07fb21ea589f1ee8d8f300e902dbb377636f4ab203be503d34b478b6465e216c4b8556305d5e1557fe5093b694a14d4a22f7b54717d1afd3e1b8cf2203f064a47d9b90da7d2b1ff0b55630700a65b7f36eaea52f1ccef4d4694b579f7901028d8290ad492331a94116d159660daf90f556308672c627f4d288cd041d5c6c4df52e2de81caf50132cf361728e9cc2688ec4abbd2a3271455630a1566d07f90f0e0ae010a8e89ade85d8005ca665ad359b66a10a91129594e2af299c8d8cf55630c19aced7fcd396c429f0573e7959ca5153ac909bc06a9babd9c320287edf9548393db362b55630e8534437f03e6dcd80301afcb4a8f7fcf67cd61730cb41860d3d34879558d65fbefd6c9125563116ca3777f0d89316c31929786f9a67664fb88d12f6eaa4ec23c3dcd34b08ed09eccb09961556314e8c2827f716babd5cb33b6e0e8e46cc42890503c48ae8cbb266c3c9b1b7ff3e0fd7aedf3556319174e287f89cd3611dd5abecb8c8c0877af30ea9b5a3bf3f2fe514eb989c5894df748d46a55631e1bf5bc7f9770d7f3f610d684108f0b7e0c6ce7df85f3c52995f513d02494544afe3504f8556324218ba07f6f8d2e2bf86818a68b1e091972824b379d94fa6bea504ba5ea7b47b6e9a6a73255632b5b72b17f4ec66f632ade49f416c7a88d5f3d837e3bec004437aace9c9573352376116c085563340754c57fd13f0be0ba920015439ca2cd324d475fb368a557d9f9ae8af5aafcef0d9229d655633e6f30dd7f60afd1d3fd857ca26b92a7c8f75695eb2fe09817fd15bd180158385cca84c83d55634aebd2937fd4949af822c1bfec569aec49d3e3c2d3e0b45b07a58048c94e2faa0a71be6111556359e7c7d37f3e8e60587252aae5da0359d99200c630b8c837c7bc5a3ac46c78c418ae6ec4a055636be2ee1f7f1cebad18d12d66dbddbe48f83a55e7813abb176b77415927d5338f90ec1aec16819055604b9091527f5a50e59335fb1937566da08eef7a9d045ba1e2e6d583c80c4ad4ba58f91bffa85580156111f2576000805461ff0019169055604051600181527f7f26b83ff96e1f2b6a682f133852f6798a09c465da95921460cefb38474024989060200160405180910390a15b505050565b600061120381336112b9565b6112245780336040516337c2e34360e01b81526004016106209291906118b5565b506001600160a01b03919091166000908152606760205260409020805460ff1916911515919091179055565b6001600160a01b038116600090815260666020526040812054610513905b600060015b604b8161ffff16116112b05761ffff81166000908152606960205260409020548310156112a05792915050565b6112a9816118e2565b9050611273565b50600192915050565b603354604051632474521560e21b81526000916001600160a01b0316906391d14854906112ec90869086906004016118b5565b602060405180830381865afa158015611309573d6000803e3d6000fd5b505050506040513d601f19601f8201168201806040525081019061132d919061187f565b9392505050565b3360009081526068602052604090206001015461ffff166113945760405162461bcd60e51b815260206004820152601a6024820152794e65656420636f6d6d756e69747941646d696e2072696768747360301b6044820152606401610620565b336000908152606860205260409020548111156114115760405162461bcd60e51b815260206004820152603560248201527f585020746f20646973747269627574652073686f756c646e2774206265206d6f6044820152741c99481d1a185b8818591b5a5b881e1c131a5b5a5d605a1b6064820152608401610620565b3360009081526068602052604090205461142c908290611903565b336000908152606860209081526040808320939093556001600160a01b038516825260669052205461145f90829061191a565b6001600160a01b0383166000908152606660205260408120829055906114849061126e565b3360009081526068602052604090206001015490915061ffff90811690821611156111f25760405162461bcd60e51b815260206004820152602f60248201527f55736572206c6576656c2073686f756c64206265206c657373207468616e206160448201526e191b5a5b881b195d995b131a5b5a5d608a1b6064820152608401610620565b3360009081526067602052604090205460ff166115385760405162461bcd60e51b815260040161062090611932565b6001600160a01b03909216600090815260656020526040902090815560010155565b3360009081526067602052604090205460ff166115895760405162461bcd60e51b815260040161062090611932565b6001600160a01b03929092166000908152606860205260409020908155600101805461ffff191661ffff909216919091179055565b3360009081526067602052604090205460ff166115ed5760405162461bcd60e51b815260040161062090611932565b6001600160a01b039092166000908152606660205260409020600181019190915560020155565b600054610100900460ff1661167f5760405162461bcd60e51b815260206004820152602b60248201527f496e697469616c697a61626c653a20636f6e7472616374206973206e6f74206960448201526a6e697469616c697a696e6760a81b6064820152608401610620565b603380546001600160a01b0319166001600160a01b0392909216919091179055565b6000602082840312156116b357600080fd5b81356001600160e01b03198116811461132d57600080fd5b80356001600160a01b03811681146116e257600080fd5b919050565b6000602082840312156116f957600080fd5b61132d826116cb565b60006020828403121561171457600080fd5b5035919050565b6000806040838503121561172e57600080fd5b611737836116cb565b9150611745602084016116cb565b90509250929050565b801515811461175c57600080fd5b50565b6000806040838503121561177257600080fd5b61177b836116cb565b9150602083013561178b8161174e565b809150509250929050565b600080604083850312156117a957600080fd5b6117b2836116cb565b946020939093013593505050565b803561ffff811681146116e257600080fd5b6000602082840312156117e457600080fd5b61132d826117c0565b6000806040838503121561180057600080fd5b82359150611745602084016116cb565b60008060006060848603121561182557600080fd5b61182e846116cb565b95602085013595506040909401359392505050565b60008060006060848603121561185857600080fd5b611861846116cb565b925060208401359150611876604085016117c0565b90509250925092565b60006020828403121561189157600080fd5b815161132d8161174e565b6000602082840312156118ae57600080fd5b5051919050565b9182526001600160a01b0316602082015260400190565b634e487b7160e01b600052601160045260246000fd5b600061ffff8083168181036118f9576118f96118cc565b6001019392505050565b600082821015611915576119156118cc565b500390565b6000821982111561192d5761192d6118cc565b500190565b6020808252601190820152704e6565642061646d696e2072696768747360781b60408201526060019056fea26469706673582212203f9b62d297ec083a09e4d8545759978edb3da900e0f3875e334b27646a80f94264736f6c634300080f0033",
  "devdoc": {
    "kind": "dev",
    "methods": {
      "isTokenTransferable(address,uint256)": {
        "details": "See {IBonus-isTokenTransferable}."
      }
    },
    "stateVariables": {
      "__gap": {
        "details": "This empty reserved space is put in place to allow future versions to add new variables without shifting down storage in the inheritance chain. See https://docs.openzeppelin.com/contracts/4.x/upgradeable#storage_gaps"
      }
    },
    "version": 1
  },
  "userdoc": {
    "kind": "user",
    "methods": {
      "distributeXp(address,uint256)": {
        "notice": "Admin can give xp points to user `user` Address of user `xp` The amount of XP that admin want to give user (xp <= admin.xpLimit && levelAfter(user) <= admin.levelLimit)"
      },
      "getAllocation(address)": {
        "notice": "Get user allocation `user` Address of user"
      },
      "getBonus(address)": {
        "notice": "Get user bonus reward for donation `user` Address of user"
      },
      "getLevel(address)": {
        "notice": "Get user level according to constant distribution. Max value: 65535 `user` Address of user"
      },
      "getNftAllocation(address)": {
        "notice": "Get nft allocation `user` Address of user"
      },
      "getNftBonus(address)": {
        "notice": "Get nft bonus reward for donation `user` Address of nft"
      },
      "setAdmin(address,bool)": {
        "notice": "Add or remove new admin `isAdmin` Address of admin"
      },
      "setNftInfo(address,uint256,uint256)": {
        "notice": "Set allocation and donationBonusRatio for NFT `isAdmin` Address of admin"
      },
      "setUserInfo(address,uint256,uint256)": {
        "notice": "Set allocation and donationBonusRatio for user `isAdmin` Address of admin"
      }
    },
    "version": 1
  },
  "storageLayout": {
    "storage": [
      {
        "astId": 1100,
        "contract": "contracts/Bonus.sol:Bonus",
        "label": "_initialized",
        "offset": 0,
        "slot": "0",
        "type": "t_uint8"
      },
      {
        "astId": 1103,
        "contract": "contracts/Bonus.sol:Bonus",
        "label": "_initializing",
        "offset": 1,
        "slot": "0",
        "type": "t_bool"
      },
      {
        "astId": 6571,
        "contract": "contracts/Bonus.sol:Bonus",
        "label": "__gap",
        "offset": 0,
        "slot": "1",
        "type": "t_array(t_uint256)50_storage"
      },
      {
        "astId": 26299,
        "contract": "contracts/Bonus.sol:Bonus",
        "label": "ACCESS_CONTROL_SINGLETON",
        "offset": 0,
        "slot": "51",
        "type": "t_contract(ISuAccessControl)27677"
      },
      {
        "astId": 26386,
        "contract": "contracts/Bonus.sol:Bonus",
        "label": "__gap",
        "offset": 0,
        "slot": "52",
        "type": "t_array(t_uint256)49_storage"
      },
      {
        "astId": 25267,
        "contract": "contracts/Bonus.sol:Bonus",
        "label": "nftInfo",
        "offset": 0,
        "slot": "101",
        "type": "t_mapping(t_address,t_struct(NFTInfo)27538_storage)"
      },
      {
        "astId": 25272,
        "contract": "contracts/Bonus.sol:Bonus",
        "label": "userInfo",
        "offset": 0,
        "slot": "102",
        "type": "t_mapping(t_address,t_struct(UserInfo)27545_storage)"
      },
      {
        "astId": 25277,
        "contract": "contracts/Bonus.sol:Bonus",
        "label": "adminInfo",
        "offset": 0,
        "slot": "103",
        "type": "t_mapping(t_address,t_struct(AdminInfo)27548_storage)"
      },
      {
        "astId": 25282,
        "contract": "contracts/Bonus.sol:Bonus",
        "label": "communityAdminInfo",
        "offset": 0,
        "slot": "104",
        "type": "t_mapping(t_address,t_struct(CommunityAdminInfo)27553_storage)"
      },
      {
        "astId": 25286,
        "contract": "contracts/Bonus.sol:Bonus",
        "label": "levelMap",
        "offset": 0,
        "slot": "105",
        "type": "t_mapping(t_uint16,t_uint256)"
      },
      {
        "astId": 26076,
        "contract": "contracts/Bonus.sol:Bonus",
        "label": "__gap",
        "offset": 0,
        "slot": "106",
        "type": "t_array(t_uint256)45_storage"
      }
    ],
    "types": {
      "t_address": {
        "encoding": "inplace",
        "label": "address",
        "numberOfBytes": "20"
      },
      "t_array(t_uint256)45_storage": {
        "base": "t_uint256",
        "encoding": "inplace",
        "label": "uint256[45]",
        "numberOfBytes": "1440"
      },
      "t_array(t_uint256)49_storage": {
        "base": "t_uint256",
        "encoding": "inplace",
        "label": "uint256[49]",
        "numberOfBytes": "1568"
      },
      "t_array(t_uint256)50_storage": {
        "base": "t_uint256",
        "encoding": "inplace",
        "label": "uint256[50]",
        "numberOfBytes": "1600"
      },
      "t_bool": {
        "encoding": "inplace",
        "label": "bool",
        "numberOfBytes": "1"
      },
      "t_contract(ISuAccessControl)27677": {
        "encoding": "inplace",
        "label": "contract ISuAccessControl",
        "numberOfBytes": "20"
      },
      "t_mapping(t_address,t_struct(AdminInfo)27548_storage)": {
        "encoding": "mapping",
        "key": "t_address",
        "label": "mapping(address => struct IBonus.AdminInfo)",
        "numberOfBytes": "32",
        "value": "t_struct(AdminInfo)27548_storage"
      },
      "t_mapping(t_address,t_struct(CommunityAdminInfo)27553_storage)": {
        "encoding": "mapping",
        "key": "t_address",
        "label": "mapping(address => struct IBonus.CommunityAdminInfo)",
        "numberOfBytes": "32",
        "value": "t_struct(CommunityAdminInfo)27553_storage"
      },
      "t_mapping(t_address,t_struct(NFTInfo)27538_storage)": {
        "encoding": "mapping",
        "key": "t_address",
        "label": "mapping(address => struct IBonus.NFTInfo)",
        "numberOfBytes": "32",
        "value": "t_struct(NFTInfo)27538_storage"
      },
      "t_mapping(t_address,t_struct(UserInfo)27545_storage)": {
        "encoding": "mapping",
        "key": "t_address",
        "label": "mapping(address => struct IBonus.UserInfo)",
        "numberOfBytes": "32",
        "value": "t_struct(UserInfo)27545_storage"
      },
      "t_mapping(t_uint16,t_uint256)": {
        "encoding": "mapping",
        "key": "t_uint16",
        "label": "mapping(uint16 => uint256)",
        "numberOfBytes": "32",
        "value": "t_uint256"
      },
      "t_struct(AdminInfo)27548_storage": {
        "encoding": "inplace",
        "label": "struct IBonus.AdminInfo",
        "members": [
          {
            "astId": 27547,
            "contract": "contracts/Bonus.sol:Bonus",
            "label": "isAdmin",
            "offset": 0,
            "slot": "0",
            "type": "t_bool"
          }
        ],
        "numberOfBytes": "32"
      },
      "t_struct(CommunityAdminInfo)27553_storage": {
        "encoding": "inplace",
        "label": "struct IBonus.CommunityAdminInfo",
        "members": [
          {
            "astId": 27550,
            "contract": "contracts/Bonus.sol:Bonus",
            "label": "xpLimit",
            "offset": 0,
            "slot": "0",
            "type": "t_uint256"
          },
          {
            "astId": 27552,
            "contract": "contracts/Bonus.sol:Bonus",
            "label": "levelLimit",
            "offset": 0,
            "slot": "1",
            "type": "t_uint16"
          }
        ],
        "numberOfBytes": "64"
      },
      "t_struct(NFTInfo)27538_storage": {
        "encoding": "inplace",
        "label": "struct IBonus.NFTInfo",
        "members": [
          {
            "astId": 27535,
            "contract": "contracts/Bonus.sol:Bonus",
            "label": "allocation",
            "offset": 0,
            "slot": "0",
            "type": "t_uint256"
          },
          {
            "astId": 27537,
            "contract": "contracts/Bonus.sol:Bonus",
            "label": "donationBonusRatio",
            "offset": 0,
            "slot": "1",
            "type": "t_uint256"
          }
        ],
        "numberOfBytes": "64"
      },
      "t_struct(UserInfo)27545_storage": {
        "encoding": "inplace",
        "label": "struct IBonus.UserInfo",
        "members": [
          {
            "astId": 27540,
            "contract": "contracts/Bonus.sol:Bonus",
            "label": "xp",
            "offset": 0,
            "slot": "0",
            "type": "t_uint256"
          },
          {
            "astId": 27542,
            "contract": "contracts/Bonus.sol:Bonus",
            "label": "allocation",
            "offset": 0,
            "slot": "1",
            "type": "t_uint256"
          },
          {
            "astId": 27544,
            "contract": "contracts/Bonus.sol:Bonus",
            "label": "donationBonusRatio",
            "offset": 0,
            "slot": "2",
            "type": "t_uint256"
          }
        ],
        "numberOfBytes": "96"
      },
      "t_uint16": {
        "encoding": "inplace",
        "label": "uint16",
        "numberOfBytes": "2"
      },
      "t_uint256": {
        "encoding": "inplace",
        "label": "uint256",
        "numberOfBytes": "32"
      },
      "t_uint8": {
        "encoding": "inplace",
        "label": "uint8",
        "numberOfBytes": "1"
      }
    }
  }
}