{
  "address": "0x5dA2E77a483dAbFd9988B6aa287034054d9259F0",
  "abi": [
    {
      "inputs": [
        {
          "internalType": "bytes32",
          "name": "role",
          "type": "bytes32"
        },
        {
          "internalType": "address",
          "name": "msgSender",
          "type": "address"
        }
      ],
      "name": "OnlyRoleError",
      "type": "error"
    },
    {
      "anonymous": false,
      "inputs": [
        {
          "indexed": false,
          "internalType": "uint8",
          "name": "version",
          "type": "uint8"
        }
      ],
      "name": "Initialized",
      "type": "event"
    },
    {
      "inputs": [],
      "name": "ACCESS_CONTROL_SINGLETON",
      "outputs": [
        {
          "internalType": "contract ISuAccessControl",
          "name": "",
          "type": "address"
        }
      ],
      "stateMutability": "view",
      "type": "function"
    },
    {
      "inputs": [],
      "name": "ADMIN_ROLE",
      "outputs": [
        {
          "internalType": "bytes32",
          "name": "",
          "type": "bytes32"
        }
      ],
      "stateMutability": "view",
      "type": "function"
    },
    {
      "inputs": [],
      "name": "COMMUNITY_ADMIN_ROLE",
      "outputs": [
        {
          "internalType": "bytes32",
          "name": "",
          "type": "bytes32"
        }
      ],
      "stateMutability": "view",
      "type": "function"
    },
    {
      "inputs": [],
      "name": "DAO_ROLE",
      "outputs": [
        {
          "internalType": "bytes32",
          "name": "",
          "type": "bytes32"
        }
      ],
      "stateMutability": "view",
      "type": "function"
    },
    {
      "inputs": [],
      "name": "DEFAULT_ADMIN_ROLE",
      "outputs": [
        {
          "internalType": "bytes32",
          "name": "",
          "type": "bytes32"
        }
      ],
      "stateMutability": "view",
      "type": "function"
    },
    {
      "inputs": [
        {
          "internalType": "address",
          "name": "",
          "type": "address"
        }
      ],
      "name": "adminInfo",
      "outputs": [
        {
          "internalType": "bool",
          "name": "isAdmin",
          "type": "bool"
        }
      ],
      "stateMutability": "view",
      "type": "function"
    },
    {
      "inputs": [
        {
          "internalType": "address",
          "name": "",
          "type": "address"
        }
      ],
      "name": "communityAdminInfo",
      "outputs": [
        {
          "internalType": "uint256",
          "name": "xpLimit",
          "type": "uint256"
        },
        {
          "internalType": "uint16",
          "name": "levelLimit",
          "type": "uint16"
        }
      ],
      "stateMutability": "view",
      "type": "function"
    },
    {
      "inputs": [
        {
          "internalType": "address",
          "name": "user",
          "type": "address"
        },
        {
          "internalType": "uint256",
          "name": "xp",
          "type": "uint256"
        }
      ],
      "name": "distributeXp",
      "outputs": [],
      "stateMutability": "nonpayable",
      "type": "function"
    },
    {
      "inputs": [
        {
          "internalType": "address",
          "name": "user",
          "type": "address"
        }
      ],
      "name": "getAllocation",
      "outputs": [
        {
          "internalType": "uint256",
          "name": "",
          "type": "uint256"
        }
      ],
      "stateMutability": "view",
      "type": "function"
    },
    {
      "inputs": [
        {
          "internalType": "address",
          "name": "user",
          "type": "address"
        }
      ],
      "name": "getBonus",
      "outputs": [
        {
          "internalType": "uint256",
          "name": "",
          "type": "uint256"
        }
      ],
      "stateMutability": "view",
      "type": "function"
    },
    {
      "inputs": [
        {
          "internalType": "address",
          "name": "user",
          "type": "address"
        }
      ],
      "name": "getLevel",
      "outputs": [
        {
          "internalType": "uint16",
          "name": "",
          "type": "uint16"
        }
      ],
      "stateMutability": "view",
      "type": "function"
    },
    {
      "inputs": [
        {
          "internalType": "address",
          "name": "nft",
          "type": "address"
        }
      ],
      "name": "getNftAllocation",
      "outputs": [
        {
          "internalType": "uint256",
          "name": "",
          "type": "uint256"
        }
      ],
      "stateMutability": "view",
      "type": "function"
    },
    {
      "inputs": [
        {
          "internalType": "address",
          "name": "nft",
          "type": "address"
        }
      ],
      "name": "getNftBonus",
      "outputs": [
        {
          "internalType": "uint256",
          "name": "",
          "type": "uint256"
        }
      ],
      "stateMutability": "view",
      "type": "function"
    },
    {
      "inputs": [
        {
          "internalType": "bytes32",
          "name": "role",
          "type": "bytes32"
        }
      ],
      "name": "getRoleAdmin",
      "outputs": [
        {
          "internalType": "bytes32",
          "name": "",
          "type": "bytes32"
        }
      ],
      "stateMutability": "view",
      "type": "function"
    },
    {
      "inputs": [
        {
          "internalType": "bytes32",
          "name": "role",
          "type": "bytes32"
        },
        {
          "internalType": "address",
          "name": "account",
          "type": "address"
        }
      ],
      "name": "hasRole",
      "outputs": [
        {
          "internalType": "bool",
          "name": "",
          "type": "bool"
        }
      ],
      "stateMutability": "view",
      "type": "function"
    },
    {
      "inputs": [
        {
          "internalType": "address",
          "name": "_accessControlSingleton",
          "type": "address"
        }
      ],
      "name": "initialize",
      "outputs": [],
      "stateMutability": "nonpayable",
      "type": "function"
    },
    {
      "inputs": [
        {
          "internalType": "address",
          "name": "nft",
          "type": "address"
        },
        {
          "internalType": "address",
          "name": "from",
          "type": "address"
        },
        {
          "internalType": "address",
          "name": "to",
          "type": "address"
        },
        {
          "internalType": "uint256",
          "name": "tokenId",
          "type": "uint256"
        }
      ],
      "name": "isTokenTransferable",
      "outputs": [
        {
          "internalType": "bool",
          "name": "",
          "type": "bool"
        }
      ],
      "stateMutability": "view",
      "type": "function"
    },
    {
      "inputs": [
        {
          "internalType": "address",
          "name": "",
          "type": "address"
        }
      ],
      "name": "nftInfo",
      "outputs": [
        {
          "internalType": "uint256",
          "name": "allocation",
          "type": "uint256"
        },
        {
          "internalType": "uint256",
          "name": "donationBonusRatio",
          "type": "uint256"
        }
      ],
      "stateMutability": "view",
      "type": "function"
    },
    {
      "inputs": [
        {
          "internalType": "address",
          "name": "admin",
          "type": "address"
        },
        {
          "internalType": "bool",
          "name": "isAdmin",
          "type": "bool"
        }
      ],
      "name": "setAdmin",
      "outputs": [],
      "stateMutability": "nonpayable",
      "type": "function"
    },
    {
      "inputs": [
        {
          "internalType": "address",
          "name": "communityAdmin",
          "type": "address"
        },
        {
          "internalType": "uint256",
          "name": "xpLimit",
          "type": "uint256"
        },
        {
          "internalType": "uint16",
          "name": "levelLimit",
          "type": "uint16"
        }
      ],
      "name": "setCommunityAdmin",
      "outputs": [],
      "stateMutability": "nonpayable",
      "type": "function"
    },
    {
      "inputs": [
        {
          "internalType": "address",
          "name": "nft",
          "type": "address"
        },
        {
          "internalType": "uint256",
          "name": "allocation",
          "type": "uint256"
        },
        {
          "internalType": "uint256",
          "name": "donationBonusRatio",
          "type": "uint256"
        }
      ],
      "name": "setNftInfo",
      "outputs": [],
      "stateMutability": "nonpayable",
      "type": "function"
    },
    {
      "inputs": [
        {
          "internalType": "address",
          "name": "user",
          "type": "address"
        },
        {
          "internalType": "uint256",
          "name": "allocation",
          "type": "uint256"
        },
        {
          "internalType": "uint256",
          "name": "donationBonusRatio",
          "type": "uint256"
        }
      ],
      "name": "setUserInfo",
      "outputs": [],
      "stateMutability": "nonpayable",
      "type": "function"
    },
    {
      "inputs": [
        {
          "internalType": "bytes4",
          "name": "interfaceId",
          "type": "bytes4"
        }
      ],
      "name": "supportsInterface",
      "outputs": [
        {
          "internalType": "bool",
          "name": "",
          "type": "bool"
        }
      ],
      "stateMutability": "view",
      "type": "function"
    },
    {
      "inputs": [
        {
          "internalType": "address",
          "name": "",
          "type": "address"
        }
      ],
      "name": "userInfo",
      "outputs": [
        {
          "internalType": "uint256",
          "name": "xp",
          "type": "uint256"
        },
        {
          "internalType": "uint256",
          "name": "allocation",
          "type": "uint256"
        },
        {
          "internalType": "uint256",
          "name": "donationBonusRatio",
          "type": "uint256"
        }
      ],
      "stateMutability": "view",
      "type": "function"
    }
  ],
  "numDeployments": 1,
  "solcInputHash": "f758b7a0534974279b090d6789581c7e",
  "bytecode": "0x608060405234801561001057600080fd5b506123fd806100206000396000f3fe608060405234801561001057600080fd5b50600436106101585760003560e01c806395367f89116100c3578063dbcfb6bb1161007c578063dbcfb6bb14610428578063de6851f814610458578063e3ac1e7714610488578063e9545b92146104a4578063e9c26518146104d5578063f5c972ac146104f357610158565b806395367f8914610353578063a217fddf14610371578063b68ce71c1461038f578063bdab5331146103bf578063c3c41f87146103db578063c4d66de81461040c57610158565b80633a740a63116101155780633a740a631461026d5780634b0bddd21461029d57806375b238fc146102b9578063817c8966146102d757806391d1485414610307578063935920dd1461033757610158565b806301ffc9a71461015d57806303ee9f221461018d5780630e022923146101ab5780631959a002146101db578063248a9ca31461020d5780632a3b4bfd1461023d575b600080fd5b61017760048036038101906101729190611959565b61050f565b60405161018491906119a1565b60405180910390f35b6101956105b4565b6040516101a29190611a3b565b60405180910390f35b6101c560048036038101906101c09190611a94565b6105da565b6040516101d29190611ada565b60405180910390f35b6101f560048036038101906101f09190611a94565b610626565b60405161020493929190611af5565b60405180910390f35b61022760048036038101906102229190611b62565b610650565b6040516102349190611b9e565b60405180910390f35b61025760048036038101906102529190611be5565b6106f5565b60405161026491906119a1565b60405180910390f35b61028760048036038101906102829190611a94565b6106ff565b6040516102949190611ada565b60405180910390f35b6102b760048036038101906102b29190611c78565b61074b565b005b6102c16107fb565b6040516102ce9190611b9e565b60405180910390f35b6102f160048036038101906102ec9190611a94565b61081f565b6040516102fe9190611cd5565b60405180910390f35b610321600480360381019061031c9190611cf0565b610873565b60405161032e91906119a1565b60405180910390f35b610351600480360381019061034c9190611d30565b61091b565b005b61035b610c4e565b6040516103689190611b9e565b60405180910390f35b610379610c72565b6040516103869190611b9e565b60405180910390f35b6103a960048036038101906103a49190611a94565b610c79565b6040516103b691906119a1565b60405180910390f35b6103d960048036038101906103d49190611d70565b610ca4565b005b6103f560048036038101906103f09190611a94565b610dc6565b604051610403929190611dc3565b60405180910390f35b61042660048036038101906104219190611a94565b610df8565b005b610442600480360381019061043d9190611a94565b610f38565b60405161044f9190611ada565b60405180910390f35b610472600480360381019061046d9190611a94565b610f84565b60405161047f9190611ada565b60405180910390f35b6104a2600480360381019061049d9190611e18565b610fd0565b005b6104be60048036038101906104b99190611a94565b611108565b6040516104cc929190611e6b565b60405180910390f35b6104dd61112c565b6040516104ea9190611b9e565b60405180910390f35b61050d60048036038101906105089190611d70565b611133565b005b6000603360009054906101000a900473ffffffffffffffffffffffffffffffffffffffff1673ffffffffffffffffffffffffffffffffffffffff166301ffc9a7836040518263ffffffff1660e01b815260040161056c9190611ea3565b602060405180830381865afa158015610589573d6000803e3d6000fd5b505050506040513d601f19601f820116820180604052508101906105ad9190611ed3565b9050919050565b603360009054906101000a900473ffffffffffffffffffffffffffffffffffffffff1681565b6000606660008373ffffffffffffffffffffffffffffffffffffffff1673ffffffffffffffffffffffffffffffffffffffff168152602001908152602001600020600101549050919050565b60666020528060005260406000206000915090508060000154908060010154908060020154905083565b6000603360009054906101000a900473ffffffffffffffffffffffffffffffffffffffff1673ffffffffffffffffffffffffffffffffffffffff1663248a9ca3836040518263ffffffff1660e01b81526004016106ad9190611b9e565b602060405180830381865afa1580156106ca573d6000803e3d6000fd5b505050506040513d601f19601f820116820180604052508101906106ee9190611f15565b9050919050565b6000949350505050565b6000606660008373ffffffffffffffffffffffffffffffffffffffff1673ffffffffffffffffffffffffffffffffffffffff168152602001908152602001600020600201549050919050565b6000801b6107598133610873565b61079c5780336040517f37c2e343000000000000000000000000000000000000000000000000000000008152600401610793929190611f51565b60405180910390fd5b81606860008573ffffffffffffffffffffffffffffffffffffffff1673ffffffffffffffffffffffffffffffffffffffff16815260200190815260200160002060000160006101000a81548160ff021916908315150217905550505050565b7fa49807205ce4d355092ef5a8a18f56e8913cf4a201fbe287825b095693c2177581565b600061086c606660008473ffffffffffffffffffffffffffffffffffffffff1673ffffffffffffffffffffffffffffffffffffffff16815260200190815260200160002060000154611255565b9050919050565b6000603360009054906101000a900473ffffffffffffffffffffffffffffffffffffffff1673ffffffffffffffffffffffffffffffffffffffff166391d1485484846040518363ffffffff1660e01b81526004016108d2929190611f51565b602060405180830381865afa1580156108ef573d6000803e3d6000fd5b505050506040513d601f19601f820116820180604052508101906109139190611ed3565b905092915050565b6000606760003373ffffffffffffffffffffffffffffffffffffffff1673ffffffffffffffffffffffffffffffffffffffff16815260200190815260200160002060010160009054906101000a900461ffff1661ffff16116109b2576040517f08c379a00000000000000000000000000000000000000000000000000000000081526004016109a990611fd7565b60405180910390fd5b606760003373ffffffffffffffffffffffffffffffffffffffff1673ffffffffffffffffffffffffffffffffffffffff16815260200190815260200160002060000154811115610a37576040517f08c379a0000000000000000000000000000000000000000000000000000000008152600401610a2e90612069565b60405180910390fd5b80606760003373ffffffffffffffffffffffffffffffffffffffff1673ffffffffffffffffffffffffffffffffffffffff16815260200190815260200160002060000154610a8591906120b8565b606760003373ffffffffffffffffffffffffffffffffffffffff1673ffffffffffffffffffffffffffffffffffffffff1681526020019081526020016000206000018190555080606660008473ffffffffffffffffffffffffffffffffffffffff1673ffffffffffffffffffffffffffffffffffffffff16815260200190815260200160002060000154610b1991906120ec565b606660008473ffffffffffffffffffffffffffffffffffffffff1673ffffffffffffffffffffffffffffffffffffffff168152602001908152602001600020600001819055506000610bac606660008573ffffffffffffffffffffffffffffffffffffffff1673ffffffffffffffffffffffffffffffffffffffff16815260200190815260200160002060000154611255565b9050606760003373ffffffffffffffffffffffffffffffffffffffff1673ffffffffffffffffffffffffffffffffffffffff16815260200190815260200160002060010160009054906101000a900461ffff1661ffff168161ffff161115610c49576040517f08c379a0000000000000000000000000000000000000000000000000000000008152600401610c40906121b4565b60405180910390fd5b505050565b7f0a7cc066f24e107ff77c42c8a1bdaf1a5f775fa4a74e45530aaf9c866368f65381565b6000801b81565b60686020528060005260406000206000915090508060000160009054906101000a900460ff16905081565b606860003373ffffffffffffffffffffffffffffffffffffffff1673ffffffffffffffffffffffffffffffffffffffff16815260200190815260200160002060000160009054906101000a900460ff16610d33576040517f08c379a0000000000000000000000000000000000000000000000000000000008152600401610d2a90612220565b60405180910390fd5b81606560008573ffffffffffffffffffffffffffffffffffffffff1673ffffffffffffffffffffffffffffffffffffffff1681526020019081526020016000206000018190555080606560008573ffffffffffffffffffffffffffffffffffffffff1673ffffffffffffffffffffffffffffffffffffffff16815260200190815260200160002060010181905550505050565b60676020528060005260406000206000915090508060000154908060010160009054906101000a900461ffff16905082565b60008060019054906101000a900460ff16159050808015610e295750600160008054906101000a900460ff1660ff16105b80610e565750610e3830611846565b158015610e555750600160008054906101000a900460ff1660ff16145b5b610e95576040517f08c379a0000000000000000000000000000000000000000000000000000000008152600401610e8c906122b2565b60405180910390fd5b60016000806101000a81548160ff021916908360ff1602179055508015610ed2576001600060016101000a81548160ff0219169083151502179055505b610edb82611869565b8015610f345760008060016101000a81548160ff0219169083151502179055507f7f26b83ff96e1f2b6a682f133852f6798a09c465da95921460cefb38474024986001604051610f2b919061231a565b60405180910390a15b5050565b6000606560008373ffffffffffffffffffffffffffffffffffffffff1673ffffffffffffffffffffffffffffffffffffffff168152602001908152602001600020600101549050919050565b6000606560008373ffffffffffffffffffffffffffffffffffffffff1673ffffffffffffffffffffffffffffffffffffffff168152602001908152602001600020600001549050919050565b606860003373ffffffffffffffffffffffffffffffffffffffff1673ffffffffffffffffffffffffffffffffffffffff16815260200190815260200160002060000160009054906101000a900460ff1661105f576040517f08c379a000000000000000000000000000000000000000000000000000000000815260040161105690612220565b60405180910390fd5b81606760008573ffffffffffffffffffffffffffffffffffffffff1673ffffffffffffffffffffffffffffffffffffffff1681526020019081526020016000206000018190555080606760008573ffffffffffffffffffffffffffffffffffffffff1673ffffffffffffffffffffffffffffffffffffffff16815260200190815260200160002060010160006101000a81548161ffff021916908361ffff160217905550505050565b60656020528060005260406000206000915090508060000154908060010154905082565b6000801b81565b606860003373ffffffffffffffffffffffffffffffffffffffff1673ffffffffffffffffffffffffffffffffffffffff16815260200190815260200160002060000160009054906101000a900460ff166111c2576040517f08c379a00000000000000000000000000000000000000000000000000000000081526004016111b990612220565b60405180910390fd5b81606660008573ffffffffffffffffffffffffffffffffffffffff1673ffffffffffffffffffffffffffffffffffffffff1681526020019081526020016000206001018190555080606660008573ffffffffffffffffffffffffffffffffffffffff1673ffffffffffffffffffffffffffffffffffffffff16815260200190815260200160002060020181905550505050565b60006103e882101561126a5760019050611841565b6107d082101561127d5760029050611841565b610c808210156112905760039050611841565b6111f88210156112a35760049050611841565b6118388210156112b65760059050611841565b611f408210156112c95760069050611841565b6127108210156112dc5760079050611841565b612fa88210156112ef5760089050611841565b61396c8210156113025760099050611841565b61445c82101561131557600a9050611841565b61507882101561132857600b9050611841565b615f0082101561133b57600c9050611841565b61707082101561134e57600d9050611841565b61855c82101561136157600e9050611841565b619e7782101561137457600f9050611841565b61bc978210156113875760109050611841565b61e0bd82101561139a5760119050611841565b62010c1d8210156113ae5760129050611841565b620140298210156113c25760139050611841565b62017e9d8210156113d65760149050611841565b6201c98e8210156113ea5760159050611841565b6202237c8210156113fe5760169050611841565b62028f668210156114125760179050611841565b620310e58210156114265760189050611841565b6203ac4a82101561143a5760199050611841565b620466c382101561144e57601a9050611841565b6205468782101561146257601b9050611841565b6206530b82101561147657601c9050611841565b6207954382101561148a57601d9050611841565b620917ec82101561149e57601e9050611841565b620ae7ea8210156114b257601f9050611841565b620d14b48210156114c65760209050611841565b620fb0d98210156114da5760219050611841565b6212d29f8210156114ee5760229050611841565b621694bf8210156115025760239050611841565b621b174b8210156115165760249050611841565b622080bf82101561152a5760259050611841565b6226ff4a82101561153e5760269050611841565b622eca578210156115525760279050611841565b623824668210156115665760289050611841565b62435d4482101561157a5760299050611841565b6250d4b482101561158e57602a9050611841565b6260fda08210156115a257602b9050611841565b627461ee8210156115b657602c9050611841565b628ba7188210156115ca57602d9050611841565b62a793b08210156115de57602e9050611841565b62c916008210156115f257602f9050611841565b62f14bf98210156116065760309050611841565b6301218cbd82101561161b5760319050611841565b63015b740e8210156116305760329050611841565b6301a0f0088210156116455760339050611841565b6301f4519a82101561165a5760349050611841565b630258604982101561166f5760359050611841565b6302d071e78210156116845760369050611841565b630360870b8210156116995760379050611841565b63040d6d368210156116ae5760389050611841565b6304dce7d08210156116c35760399050611841565b6305d5e1558210156116d857603a9050611841565b630700a65b8210156116ed57603b9050611841565b6308672c6282101561170257603c9050611841565b630a1566d082101561171757603d9050611841565b630c19aced82101561172c57603e9050611841565b630e85344382101561174157603f9050611841565b63116ca3778210156117565760409050611841565b6314e8c28282101561176b5760419050611841565b6319174e288210156117805760429050611841565b631e1bf5bc8210156117955760439050611841565b6324218ba08210156117aa5760449050611841565b632b5b72b18210156117bf5760459050611841565b63340754c58210156117d45760469050611841565b633e6f30dd8210156117e95760479050611841565b634aebd2938210156117fe5760489050611841565b6359e7c7d38210156118135760499050611841565b636be2ee1f82101561182857604a9050611841565b636be2ee1f821061183c57604b9050611841565b600190505b919050565b6000808273ffffffffffffffffffffffffffffffffffffffff163b119050919050565b600060019054906101000a900460ff166118b8576040517f08c379a00000000000000000000000000000000000000000000000000000000081526004016118af906123a7565b60405180910390fd5b80603360006101000a81548173ffffffffffffffffffffffffffffffffffffffff021916908373ffffffffffffffffffffffffffffffffffffffff16021790555050565b600080fd5b60007fffffffff0000000000000000000000000000000000000000000000000000000082169050919050565b61193681611901565b811461194157600080fd5b50565b6000813590506119538161192d565b92915050565b60006020828403121561196f5761196e6118fc565b5b600061197d84828501611944565b91505092915050565b60008115159050919050565b61199b81611986565b82525050565b60006020820190506119b66000830184611992565b92915050565b600073ffffffffffffffffffffffffffffffffffffffff82169050919050565b6000819050919050565b6000611a016119fc6119f7846119bc565b6119dc565b6119bc565b9050919050565b6000611a13826119e6565b9050919050565b6000611a2582611a08565b9050919050565b611a3581611a1a565b82525050565b6000602082019050611a506000830184611a2c565b92915050565b6000611a61826119bc565b9050919050565b611a7181611a56565b8114611a7c57600080fd5b50565b600081359050611a8e81611a68565b92915050565b600060208284031215611aaa57611aa96118fc565b5b6000611ab884828501611a7f565b91505092915050565b6000819050919050565b611ad481611ac1565b82525050565b6000602082019050611aef6000830184611acb565b92915050565b6000606082019050611b0a6000830186611acb565b611b176020830185611acb565b611b246040830184611acb565b949350505050565b6000819050919050565b611b3f81611b2c565b8114611b4a57600080fd5b50565b600081359050611b5c81611b36565b92915050565b600060208284031215611b7857611b776118fc565b5b6000611b8684828501611b4d565b91505092915050565b611b9881611b2c565b82525050565b6000602082019050611bb36000830184611b8f565b92915050565b611bc281611ac1565b8114611bcd57600080fd5b50565b600081359050611bdf81611bb9565b92915050565b60008060008060808587031215611bff57611bfe6118fc565b5b6000611c0d87828801611a7f565b9450506020611c1e87828801611a7f565b9350506040611c2f87828801611a7f565b9250506060611c4087828801611bd0565b91505092959194509250565b611c5581611986565b8114611c6057600080fd5b50565b600081359050611c7281611c4c565b92915050565b60008060408385031215611c8f57611c8e6118fc565b5b6000611c9d85828601611a7f565b9250506020611cae85828601611c63565b9150509250929050565b600061ffff82169050919050565b611ccf81611cb8565b82525050565b6000602082019050611cea6000830184611cc6565b92915050565b60008060408385031215611d0757611d066118fc565b5b6000611d1585828601611b4d565b9250506020611d2685828601611a7f565b9150509250929050565b60008060408385031215611d4757611d466118fc565b5b6000611d5585828601611a7f565b9250506020611d6685828601611bd0565b9150509250929050565b600080600060608486031215611d8957611d886118fc565b5b6000611d9786828701611a7f565b9350506020611da886828701611bd0565b9250506040611db986828701611bd0565b9150509250925092565b6000604082019050611dd86000830185611acb565b611de56020830184611cc6565b9392505050565b611df581611cb8565b8114611e0057600080fd5b50565b600081359050611e1281611dec565b92915050565b600080600060608486031215611e3157611e306118fc565b5b6000611e3f86828701611a7f565b9350506020611e5086828701611bd0565b9250506040611e6186828701611e03565b9150509250925092565b6000604082019050611e806000830185611acb565b611e8d6020830184611acb565b9392505050565b611e9d81611901565b82525050565b6000602082019050611eb86000830184611e94565b92915050565b600081519050611ecd81611c4c565b92915050565b600060208284031215611ee957611ee86118fc565b5b6000611ef784828501611ebe565b91505092915050565b600081519050611f0f81611b36565b92915050565b600060208284031215611f2b57611f2a6118fc565b5b6000611f3984828501611f00565b91505092915050565b611f4b81611a56565b82525050565b6000604082019050611f666000830185611b8f565b611f736020830184611f42565b9392505050565b600082825260208201905092915050565b7f4e65656420636f6d6d756e69747941646d696e20726967687473000000000000600082015250565b6000611fc1601a83611f7a565b9150611fcc82611f8b565b602082019050919050565b60006020820190508181036000830152611ff081611fb4565b9050919050565b7f585020746f20646973747269627574652073686f756c646e2774206265206d6f60008201527f7265207468616e2061646d696e2078704c696d69740000000000000000000000602082015250565b6000612053603583611f7a565b915061205e82611ff7565b604082019050919050565b6000602082019050818103600083015261208281612046565b9050919050565b7f4e487b7100000000000000000000000000000000000000000000000000000000600052601160045260246000fd5b60006120c382611ac1565b91506120ce83611ac1565b9250828210156120e1576120e0612089565b5b828203905092915050565b60006120f782611ac1565b915061210283611ac1565b9250827fffffffffffffffffffffffffffffffffffffffffffffffffffffffffffffffff0382111561213757612136612089565b5b828201905092915050565b7f55736572206c6576656c2073686f756c64206265206c657373207468616e206160008201527f646d696e206c6576656c4c696d69740000000000000000000000000000000000602082015250565b600061219e602f83611f7a565b91506121a982612142565b604082019050919050565b600060208201905081810360008301526121cd81612191565b9050919050565b7f4e6565642061646d696e20726967687473000000000000000000000000000000600082015250565b600061220a601183611f7a565b9150612215826121d4565b602082019050919050565b60006020820190508181036000830152612239816121fd565b9050919050565b7f496e697469616c697a61626c653a20636f6e747261637420697320616c72656160008201527f647920696e697469616c697a6564000000000000000000000000000000000000602082015250565b600061229c602e83611f7a565b91506122a782612240565b604082019050919050565b600060208201905081810360008301526122cb8161228f565b9050919050565b6000819050919050565b600060ff82169050919050565b60006123046122ff6122fa846122d2565b6119dc565b6122dc565b9050919050565b612314816122e9565b82525050565b600060208201905061232f600083018461230b565b92915050565b7f496e697469616c697a61626c653a20636f6e7472616374206973206e6f74206960008201527f6e697469616c697a696e67000000000000000000000000000000000000000000602082015250565b6000612391602b83611f7a565b915061239c82612335565b604082019050919050565b600060208201905081810360008301526123c081612384565b905091905056fea2646970667358221220f424cb9239a1a8e686bea889f966cb7038e138877a058be5d4a6a9cdab757af764736f6c634300080f0033",
  "devdoc": {
    "kind": "dev",
    "methods": {},
    "stateVariables": {
      "__gap": {
        "details": "This empty reserved space is put in place to allow future versions to add new variables without shifting down storage in the inheritance chain. See https://docs.openzeppelin.com/contracts/4.x/upgradeable#storage_gaps"
      }
    },
    "version": 1
  },
  "userdoc": {
    "kind": "user",
    "methods": {
      "distributeXp(address,uint256)": {
        "notice": "Admin can give xp points to user `user` Address of user `xp` The amount of XP that admin want to give user (xp <= admin.xpLimit && levelAfter(user) <= admin.levelLimit)*"
      },
      "getAllocation(address)": {
        "notice": "Get user allocation `user` Address of user*"
      },
      "getBonus(address)": {
        "notice": "Get user bonus reward for donation `user` Address of user*"
      },
      "getLevel(address)": {
        "notice": "Get user level according to constant distribution. Max value: 65535 `user` Address of user*"
      },
      "getNftAllocation(address)": {
        "notice": "Get nft allocation `user` Address of user*"
      },
      "getNftBonus(address)": {
        "notice": "Get nft bonus reward for donation `user` Address of nft*"
      },
      "isTokenTransferable(address,address,address,uint256)": {
        "notice": "Returns true/false whether this NFT with tokenId tokens can be transfer"
      },
      "setAdmin(address,bool)": {
        "notice": "Add or remove new admin `isAdmin` Address of admin*"
      },
      "setNftInfo(address,uint256,uint256)": {
        "notice": "Set allocation and donationBonusRatio for NFT `isAdmin` Address of admin*"
      },
      "setUserInfo(address,uint256,uint256)": {
        "notice": "Set allocation and donationBonusRatio for user `isAdmin` Address of admin*"
      }
    },
    "version": 1
  },
  "storageLayout": {
    "storage": [
      {
        "astId": 497,
        "contract": "contracts/Bonus.sol:Bonus",
        "label": "_initialized",
        "offset": 0,
        "slot": "0",
        "type": "t_uint8"
      },
      {
        "astId": 500,
        "contract": "contracts/Bonus.sol:Bonus",
        "label": "_initializing",
        "offset": 1,
        "slot": "0",
        "type": "t_bool"
      },
      {
        "astId": 4310,
        "contract": "contracts/Bonus.sol:Bonus",
        "label": "__gap",
        "offset": 0,
        "slot": "1",
        "type": "t_array(t_uint256)50_storage"
      },
      {
        "astId": 13374,
        "contract": "contracts/Bonus.sol:Bonus",
        "label": "ACCESS_CONTROL_SINGLETON",
        "offset": 0,
        "slot": "51",
        "type": "t_contract(ISuAccessControl)14743"
      },
      {
        "astId": 13461,
        "contract": "contracts/Bonus.sol:Bonus",
        "label": "__gap",
        "offset": 0,
        "slot": "52",
        "type": "t_array(t_uint256)49_storage"
      },
      {
        "astId": 12372,
        "contract": "contracts/Bonus.sol:Bonus",
        "label": "nftInfo",
        "offset": 0,
        "slot": "101",
        "type": "t_mapping(t_address,t_struct(NFTInfo)14601_storage)"
      },
      {
        "astId": 12377,
        "contract": "contracts/Bonus.sol:Bonus",
        "label": "userInfo",
        "offset": 0,
        "slot": "102",
        "type": "t_mapping(t_address,t_struct(UserInfo)14608_storage)"
      },
      {
        "astId": 12382,
        "contract": "contracts/Bonus.sol:Bonus",
        "label": "communityAdminInfo",
        "offset": 0,
        "slot": "103",
        "type": "t_mapping(t_address,t_struct(CommunityAdminInfo)14616_storage)"
      },
      {
        "astId": 12387,
        "contract": "contracts/Bonus.sol:Bonus",
        "label": "adminInfo",
        "offset": 0,
        "slot": "104",
        "type": "t_mapping(t_address,t_struct(AdminInfo)14611_storage)"
      },
      {
        "astId": 13151,
        "contract": "contracts/Bonus.sol:Bonus",
        "label": "__gap",
        "offset": 0,
        "slot": "105",
        "type": "t_array(t_uint256)45_storage"
      }
    ],
    "types": {
      "t_address": {
        "encoding": "inplace",
        "label": "address",
        "numberOfBytes": "20"
      },
      "t_array(t_uint256)45_storage": {
        "base": "t_uint256",
        "encoding": "inplace",
        "label": "uint256[45]",
        "numberOfBytes": "1440"
      },
      "t_array(t_uint256)49_storage": {
        "base": "t_uint256",
        "encoding": "inplace",
        "label": "uint256[49]",
        "numberOfBytes": "1568"
      },
      "t_array(t_uint256)50_storage": {
        "base": "t_uint256",
        "encoding": "inplace",
        "label": "uint256[50]",
        "numberOfBytes": "1600"
      },
      "t_bool": {
        "encoding": "inplace",
        "label": "bool",
        "numberOfBytes": "1"
      },
      "t_contract(ISuAccessControl)14743": {
        "encoding": "inplace",
        "label": "contract ISuAccessControl",
        "numberOfBytes": "20"
      },
      "t_mapping(t_address,t_struct(AdminInfo)14611_storage)": {
        "encoding": "mapping",
        "key": "t_address",
        "label": "mapping(address => struct IBonus.AdminInfo)",
        "numberOfBytes": "32",
        "value": "t_struct(AdminInfo)14611_storage"
      },
      "t_mapping(t_address,t_struct(CommunityAdminInfo)14616_storage)": {
        "encoding": "mapping",
        "key": "t_address",
        "label": "mapping(address => struct IBonus.CommunityAdminInfo)",
        "numberOfBytes": "32",
        "value": "t_struct(CommunityAdminInfo)14616_storage"
      },
      "t_mapping(t_address,t_struct(NFTInfo)14601_storage)": {
        "encoding": "mapping",
        "key": "t_address",
        "label": "mapping(address => struct IBonus.NFTInfo)",
        "numberOfBytes": "32",
        "value": "t_struct(NFTInfo)14601_storage"
      },
      "t_mapping(t_address,t_struct(UserInfo)14608_storage)": {
        "encoding": "mapping",
        "key": "t_address",
        "label": "mapping(address => struct IBonus.UserInfo)",
        "numberOfBytes": "32",
        "value": "t_struct(UserInfo)14608_storage"
      },
      "t_struct(AdminInfo)14611_storage": {
        "encoding": "inplace",
        "label": "struct IBonus.AdminInfo",
        "members": [
          {
            "astId": 14610,
            "contract": "contracts/Bonus.sol:Bonus",
            "label": "isAdmin",
            "offset": 0,
            "slot": "0",
            "type": "t_bool"
          }
        ],
        "numberOfBytes": "32"
      },
      "t_struct(CommunityAdminInfo)14616_storage": {
        "encoding": "inplace",
        "label": "struct IBonus.CommunityAdminInfo",
        "members": [
          {
            "astId": 14613,
            "contract": "contracts/Bonus.sol:Bonus",
            "label": "xpLimit",
            "offset": 0,
            "slot": "0",
            "type": "t_uint256"
          },
          {
            "astId": 14615,
            "contract": "contracts/Bonus.sol:Bonus",
            "label": "levelLimit",
            "offset": 0,
            "slot": "1",
            "type": "t_uint16"
          }
        ],
        "numberOfBytes": "64"
      },
      "t_struct(NFTInfo)14601_storage": {
        "encoding": "inplace",
        "label": "struct IBonus.NFTInfo",
        "members": [
          {
            "astId": 14598,
            "contract": "contracts/Bonus.sol:Bonus",
            "label": "allocation",
            "offset": 0,
            "slot": "0",
            "type": "t_uint256"
          },
          {
            "astId": 14600,
            "contract": "contracts/Bonus.sol:Bonus",
            "label": "donationBonusRatio",
            "offset": 0,
            "slot": "1",
            "type": "t_uint256"
          }
        ],
        "numberOfBytes": "64"
      },
      "t_struct(UserInfo)14608_storage": {
        "encoding": "inplace",
        "label": "struct IBonus.UserInfo",
        "members": [
          {
            "astId": 14603,
            "contract": "contracts/Bonus.sol:Bonus",
            "label": "xp",
            "offset": 0,
            "slot": "0",
            "type": "t_uint256"
          },
          {
            "astId": 14605,
            "contract": "contracts/Bonus.sol:Bonus",
            "label": "allocation",
            "offset": 0,
            "slot": "1",
            "type": "t_uint256"
          },
          {
            "astId": 14607,
            "contract": "contracts/Bonus.sol:Bonus",
            "label": "donationBonusRatio",
            "offset": 0,
            "slot": "2",
            "type": "t_uint256"
          }
        ],
        "numberOfBytes": "96"
      },
      "t_uint16": {
        "encoding": "inplace",
        "label": "uint16",
        "numberOfBytes": "2"
      },
      "t_uint256": {
        "encoding": "inplace",
        "label": "uint256",
        "numberOfBytes": "32"
      },
      "t_uint8": {
        "encoding": "inplace",
        "label": "uint8",
        "numberOfBytes": "1"
      }
    }
  }
}