{
  "address": "0x11141A573E5C1d4604456b96CA6b2f7f4f8Ad10E",
  "abi": [
    {
      "inputs": [
        {
          "internalType": "bytes32",
          "name": "role",
          "type": "bytes32"
        },
        {
          "internalType": "address",
          "name": "msgSender",
          "type": "address"
        }
      ],
      "name": "OnlyRoleError",
      "type": "error"
    },
    {
      "anonymous": false,
      "inputs": [
        {
          "indexed": false,
          "internalType": "uint8",
          "name": "version",
          "type": "uint8"
        }
      ],
      "name": "Initialized",
      "type": "event"
    },
    {
      "inputs": [],
      "name": "ACCESS_CONTROL_SINGLETON",
      "outputs": [
        {
          "internalType": "contract ISuAccessControl",
          "name": "",
          "type": "address"
        }
      ],
      "stateMutability": "view",
      "type": "function"
    },
    {
      "inputs": [],
      "name": "ADMIN_ROLE",
      "outputs": [
        {
          "internalType": "bytes32",
          "name": "",
          "type": "bytes32"
        }
      ],
      "stateMutability": "view",
      "type": "function"
    },
    {
      "inputs": [],
      "name": "COMMUNITY_ADMIN_ROLE",
      "outputs": [
        {
          "internalType": "bytes32",
          "name": "",
          "type": "bytes32"
        }
      ],
      "stateMutability": "view",
      "type": "function"
    },
    {
      "inputs": [],
      "name": "DAO_ROLE",
      "outputs": [
        {
          "internalType": "bytes32",
          "name": "",
          "type": "bytes32"
        }
      ],
      "stateMutability": "view",
      "type": "function"
    },
    {
      "inputs": [],
      "name": "DEFAULT_ADMIN_ROLE",
      "outputs": [
        {
          "internalType": "bytes32",
          "name": "",
          "type": "bytes32"
        }
      ],
      "stateMutability": "view",
      "type": "function"
    },
    {
      "inputs": [
        {
          "internalType": "address",
          "name": "",
          "type": "address"
        }
      ],
      "name": "adminInfo",
      "outputs": [
        {
          "internalType": "bool",
          "name": "isAdmin",
          "type": "bool"
        }
      ],
      "stateMutability": "view",
      "type": "function"
    },
    {
      "inputs": [
        {
          "internalType": "address",
          "name": "",
          "type": "address"
        }
      ],
      "name": "communityAdminInfo",
      "outputs": [
        {
          "internalType": "uint256",
          "name": "xpLimit",
          "type": "uint256"
        },
        {
          "internalType": "uint16",
          "name": "levelLimit",
          "type": "uint16"
        }
      ],
      "stateMutability": "view",
      "type": "function"
    },
    {
      "inputs": [
        {
          "internalType": "address",
          "name": "user",
          "type": "address"
        },
        {
          "internalType": "uint256",
          "name": "xp",
          "type": "uint256"
        }
      ],
      "name": "distributeXp",
      "outputs": [],
      "stateMutability": "nonpayable",
      "type": "function"
    },
    {
      "inputs": [
        {
          "internalType": "address",
          "name": "user",
          "type": "address"
        }
      ],
      "name": "getAllocation",
      "outputs": [
        {
          "internalType": "uint256",
          "name": "",
          "type": "uint256"
        }
      ],
      "stateMutability": "view",
      "type": "function"
    },
    {
      "inputs": [
        {
          "internalType": "address",
          "name": "user",
          "type": "address"
        }
      ],
      "name": "getBonus",
      "outputs": [
        {
          "internalType": "uint256",
          "name": "",
          "type": "uint256"
        }
      ],
      "stateMutability": "view",
      "type": "function"
    },
    {
      "inputs": [
        {
          "internalType": "address",
          "name": "user",
          "type": "address"
        }
      ],
      "name": "getLevel",
      "outputs": [
        {
          "internalType": "uint16",
          "name": "",
          "type": "uint16"
        }
      ],
      "stateMutability": "view",
      "type": "function"
    },
    {
      "inputs": [
        {
          "internalType": "address",
          "name": "nft",
          "type": "address"
        }
      ],
      "name": "getNftAllocation",
      "outputs": [
        {
          "internalType": "uint256",
          "name": "",
          "type": "uint256"
        }
      ],
      "stateMutability": "view",
      "type": "function"
    },
    {
      "inputs": [
        {
          "internalType": "address",
          "name": "nft",
          "type": "address"
        }
      ],
      "name": "getNftBonus",
      "outputs": [
        {
          "internalType": "uint256",
          "name": "",
          "type": "uint256"
        }
      ],
      "stateMutability": "view",
      "type": "function"
    },
    {
      "inputs": [
        {
          "internalType": "bytes32",
          "name": "role",
          "type": "bytes32"
        }
      ],
      "name": "getRoleAdmin",
      "outputs": [
        {
          "internalType": "bytes32",
          "name": "",
          "type": "bytes32"
        }
      ],
      "stateMutability": "view",
      "type": "function"
    },
    {
      "inputs": [
        {
          "internalType": "bytes32",
          "name": "role",
          "type": "bytes32"
        },
        {
          "internalType": "address",
          "name": "account",
          "type": "address"
        }
      ],
      "name": "hasRole",
      "outputs": [
        {
          "internalType": "bool",
          "name": "",
          "type": "bool"
        }
      ],
      "stateMutability": "view",
      "type": "function"
    },
    {
      "inputs": [
        {
          "internalType": "address",
          "name": "_accessControlSingleton",
          "type": "address"
        }
      ],
      "name": "initialize",
      "outputs": [],
      "stateMutability": "nonpayable",
      "type": "function"
    },
    {
      "inputs": [
        {
          "internalType": "address",
          "name": "",
          "type": "address"
        }
      ],
      "name": "nftInfo",
      "outputs": [
        {
          "internalType": "uint256",
          "name": "allocation",
          "type": "uint256"
        },
        {
          "internalType": "uint256",
          "name": "donationBonusRatio",
          "type": "uint256"
        }
      ],
      "stateMutability": "view",
      "type": "function"
    },
    {
      "inputs": [
        {
          "internalType": "address",
          "name": "admin",
          "type": "address"
        },
        {
          "internalType": "bool",
          "name": "isAdmin",
          "type": "bool"
        }
      ],
      "name": "setAdmin",
      "outputs": [],
      "stateMutability": "nonpayable",
      "type": "function"
    },
    {
      "inputs": [
        {
          "internalType": "address",
          "name": "communityAdmin",
          "type": "address"
        },
        {
          "internalType": "uint256",
          "name": "xpLimit",
          "type": "uint256"
        },
        {
          "internalType": "uint16",
          "name": "levelLimit",
          "type": "uint16"
        }
      ],
      "name": "setCommunityAdmin",
      "outputs": [],
      "stateMutability": "nonpayable",
      "type": "function"
    },
    {
      "inputs": [
        {
          "internalType": "address",
          "name": "nft",
          "type": "address"
        },
        {
          "internalType": "uint256",
          "name": "allocation",
          "type": "uint256"
        },
        {
          "internalType": "uint256",
          "name": "discountRatioPresale",
          "type": "uint256"
        }
      ],
      "name": "setNftInfo",
      "outputs": [],
      "stateMutability": "nonpayable",
      "type": "function"
    },
    {
      "inputs": [
        {
          "internalType": "address",
          "name": "user",
          "type": "address"
        },
        {
          "internalType": "uint256",
          "name": "allocation",
          "type": "uint256"
        },
        {
          "internalType": "uint256",
          "name": "discountRatioPresale",
          "type": "uint256"
        }
      ],
      "name": "setUserInfo",
      "outputs": [],
      "stateMutability": "nonpayable",
      "type": "function"
    },
    {
      "inputs": [
        {
          "internalType": "bytes4",
          "name": "interfaceId",
          "type": "bytes4"
        }
      ],
      "name": "supportsInterface",
      "outputs": [
        {
          "internalType": "bool",
          "name": "",
          "type": "bool"
        }
      ],
      "stateMutability": "view",
      "type": "function"
    },
    {
      "inputs": [
        {
          "internalType": "address",
          "name": "",
          "type": "address"
        }
      ],
      "name": "userInfo",
      "outputs": [
        {
          "internalType": "uint256",
          "name": "xp",
          "type": "uint256"
        },
        {
          "internalType": "uint256",
          "name": "allocation",
          "type": "uint256"
        },
        {
          "internalType": "uint256",
          "name": "donationBonusRatio",
          "type": "uint256"
        }
      ],
      "stateMutability": "view",
      "type": "function"
    }
  ],
  "numDeployments": 1,
  "solcInputHash": "e97f2c5d2d398fefa9f938d534248610",
  "bytecode": "0x608060405234801561001057600080fd5b50612351806100206000396000f3fe608060405234801561001057600080fd5b506004361061014d5760003560e01c806395367f89116100c3578063dbcfb6bb1161007c578063dbcfb6bb146103ed578063de6851f81461041d578063e3ac1e771461044d578063e9545b9214610469578063e9c265181461049a578063f5c972ac146104b85761014d565b806395367f8914610318578063a217fddf14610336578063b68ce71c14610354578063bdab533114610384578063c3c41f87146103a0578063c4d66de8146103d15761014d565b80633a740a63116101155780633a740a63146102325780634b0bddd21461026257806375b238fc1461027e578063817c89661461029c57806391d14854146102cc578063935920dd146102fc5761014d565b806301ffc9a71461015257806303ee9f22146101825780630e022923146101a05780631959a002146101d0578063248a9ca314610202575b600080fd5b61016c60048036038101906101679190611914565b6104d4565b604051610179919061195c565b60405180910390f35b61018a610579565b60405161019791906119f6565b60405180910390f35b6101ba60048036038101906101b59190611a4f565b61059f565b6040516101c79190611a95565b60405180910390f35b6101ea60048036038101906101e59190611a4f565b6105eb565b6040516101f993929190611ab0565b60405180910390f35b61021c60048036038101906102179190611b1d565b610615565b6040516102299190611b59565b60405180910390f35b61024c60048036038101906102479190611a4f565b6106ba565b6040516102599190611a95565b60405180910390f35b61027c60048036038101906102779190611ba0565b610706565b005b6102866107b6565b6040516102939190611b59565b60405180910390f35b6102b660048036038101906102b19190611a4f565b6107da565b6040516102c39190611bfd565b60405180910390f35b6102e660048036038101906102e19190611c18565b61082e565b6040516102f3919061195c565b60405180910390f35b61031660048036038101906103119190611c84565b6108d6565b005b610320610c09565b60405161032d9190611b59565b60405180910390f35b61033e610c2d565b60405161034b9190611b59565b60405180910390f35b61036e60048036038101906103699190611a4f565b610c34565b60405161037b919061195c565b60405180910390f35b61039e60048036038101906103999190611cc4565b610c5f565b005b6103ba60048036038101906103b59190611a4f565b610d81565b6040516103c8929190611d17565b60405180910390f35b6103eb60048036038101906103e69190611a4f565b610db3565b005b61040760048036038101906104029190611a4f565b610ef3565b6040516104149190611a95565b60405180910390f35b61043760048036038101906104329190611a4f565b610f3f565b6040516104449190611a95565b60405180910390f35b61046760048036038101906104629190611d6c565b610f8b565b005b610483600480360381019061047e9190611a4f565b6110c3565b604051610491929190611dbf565b60405180910390f35b6104a26110e7565b6040516104af9190611b59565b60405180910390f35b6104d260048036038101906104cd9190611cc4565b6110ee565b005b6000603360009054906101000a900473ffffffffffffffffffffffffffffffffffffffff1673ffffffffffffffffffffffffffffffffffffffff166301ffc9a7836040518263ffffffff1660e01b81526004016105319190611df7565b602060405180830381865afa15801561054e573d6000803e3d6000fd5b505050506040513d601f19601f820116820180604052508101906105729190611e27565b9050919050565b603360009054906101000a900473ffffffffffffffffffffffffffffffffffffffff1681565b6000606660008373ffffffffffffffffffffffffffffffffffffffff1673ffffffffffffffffffffffffffffffffffffffff168152602001908152602001600020600101549050919050565b60666020528060005260406000206000915090508060000154908060010154908060020154905083565b6000603360009054906101000a900473ffffffffffffffffffffffffffffffffffffffff1673ffffffffffffffffffffffffffffffffffffffff1663248a9ca3836040518263ffffffff1660e01b81526004016106729190611b59565b602060405180830381865afa15801561068f573d6000803e3d6000fd5b505050506040513d601f19601f820116820180604052508101906106b39190611e69565b9050919050565b6000606660008373ffffffffffffffffffffffffffffffffffffffff1673ffffffffffffffffffffffffffffffffffffffff168152602001908152602001600020600201549050919050565b6000801b610714813361082e565b6107575780336040517f37c2e34300000000000000000000000000000000000000000000000000000000815260040161074e929190611ea5565b60405180910390fd5b81606860008573ffffffffffffffffffffffffffffffffffffffff1673ffffffffffffffffffffffffffffffffffffffff16815260200190815260200160002060000160006101000a81548160ff021916908315150217905550505050565b7fa49807205ce4d355092ef5a8a18f56e8913cf4a201fbe287825b095693c2177581565b6000610827606660008473ffffffffffffffffffffffffffffffffffffffff1673ffffffffffffffffffffffffffffffffffffffff16815260200190815260200160002060000154611210565b9050919050565b6000603360009054906101000a900473ffffffffffffffffffffffffffffffffffffffff1673ffffffffffffffffffffffffffffffffffffffff166391d1485484846040518363ffffffff1660e01b815260040161088d929190611ea5565b602060405180830381865afa1580156108aa573d6000803e3d6000fd5b505050506040513d601f19601f820116820180604052508101906108ce9190611e27565b905092915050565b6000606760003373ffffffffffffffffffffffffffffffffffffffff1673ffffffffffffffffffffffffffffffffffffffff16815260200190815260200160002060010160009054906101000a900461ffff1661ffff161161096d576040517f08c379a000000000000000000000000000000000000000000000000000000000815260040161096490611f2b565b60405180910390fd5b606760003373ffffffffffffffffffffffffffffffffffffffff1673ffffffffffffffffffffffffffffffffffffffff168152602001908152602001600020600001548111156109f2576040517f08c379a00000000000000000000000000000000000000000000000000000000081526004016109e990611fbd565b60405180910390fd5b80606760003373ffffffffffffffffffffffffffffffffffffffff1673ffffffffffffffffffffffffffffffffffffffff16815260200190815260200160002060000154610a40919061200c565b606760003373ffffffffffffffffffffffffffffffffffffffff1673ffffffffffffffffffffffffffffffffffffffff1681526020019081526020016000206000018190555080606660008473ffffffffffffffffffffffffffffffffffffffff1673ffffffffffffffffffffffffffffffffffffffff16815260200190815260200160002060000154610ad49190612040565b606660008473ffffffffffffffffffffffffffffffffffffffff1673ffffffffffffffffffffffffffffffffffffffff168152602001908152602001600020600001819055506000610b67606660008573ffffffffffffffffffffffffffffffffffffffff1673ffffffffffffffffffffffffffffffffffffffff16815260200190815260200160002060000154611210565b9050606760003373ffffffffffffffffffffffffffffffffffffffff1673ffffffffffffffffffffffffffffffffffffffff16815260200190815260200160002060010160009054906101000a900461ffff1661ffff168161ffff161115610c04576040517f08c379a0000000000000000000000000000000000000000000000000000000008152600401610bfb90612108565b60405180910390fd5b505050565b7f0a7cc066f24e107ff77c42c8a1bdaf1a5f775fa4a74e45530aaf9c866368f65381565b6000801b81565b60686020528060005260406000206000915090508060000160009054906101000a900460ff16905081565b606860003373ffffffffffffffffffffffffffffffffffffffff1673ffffffffffffffffffffffffffffffffffffffff16815260200190815260200160002060000160009054906101000a900460ff16610cee576040517f08c379a0000000000000000000000000000000000000000000000000000000008152600401610ce590612174565b60405180910390fd5b81606560008573ffffffffffffffffffffffffffffffffffffffff1673ffffffffffffffffffffffffffffffffffffffff1681526020019081526020016000206000018190555080606560008573ffffffffffffffffffffffffffffffffffffffff1673ffffffffffffffffffffffffffffffffffffffff16815260200190815260200160002060010181905550505050565b60676020528060005260406000206000915090508060000154908060010160009054906101000a900461ffff16905082565b60008060019054906101000a900460ff16159050808015610de45750600160008054906101000a900460ff1660ff16105b80610e115750610df330611801565b158015610e105750600160008054906101000a900460ff1660ff16145b5b610e50576040517f08c379a0000000000000000000000000000000000000000000000000000000008152600401610e4790612206565b60405180910390fd5b60016000806101000a81548160ff021916908360ff1602179055508015610e8d576001600060016101000a81548160ff0219169083151502179055505b610e9682611824565b8015610eef5760008060016101000a81548160ff0219169083151502179055507f7f26b83ff96e1f2b6a682f133852f6798a09c465da95921460cefb38474024986001604051610ee6919061226e565b60405180910390a15b5050565b6000606560008373ffffffffffffffffffffffffffffffffffffffff1673ffffffffffffffffffffffffffffffffffffffff168152602001908152602001600020600101549050919050565b6000606560008373ffffffffffffffffffffffffffffffffffffffff1673ffffffffffffffffffffffffffffffffffffffff168152602001908152602001600020600001549050919050565b606860003373ffffffffffffffffffffffffffffffffffffffff1673ffffffffffffffffffffffffffffffffffffffff16815260200190815260200160002060000160009054906101000a900460ff1661101a576040517f08c379a000000000000000000000000000000000000000000000000000000000815260040161101190612174565b60405180910390fd5b81606760008573ffffffffffffffffffffffffffffffffffffffff1673ffffffffffffffffffffffffffffffffffffffff1681526020019081526020016000206000018190555080606760008573ffffffffffffffffffffffffffffffffffffffff1673ffffffffffffffffffffffffffffffffffffffff16815260200190815260200160002060010160006101000a81548161ffff021916908361ffff160217905550505050565b60656020528060005260406000206000915090508060000154908060010154905082565b6000801b81565b606860003373ffffffffffffffffffffffffffffffffffffffff1673ffffffffffffffffffffffffffffffffffffffff16815260200190815260200160002060000160009054906101000a900460ff1661117d576040517f08c379a000000000000000000000000000000000000000000000000000000000815260040161117490612174565b60405180910390fd5b81606660008573ffffffffffffffffffffffffffffffffffffffff1673ffffffffffffffffffffffffffffffffffffffff1681526020019081526020016000206001018190555080606660008573ffffffffffffffffffffffffffffffffffffffff1673ffffffffffffffffffffffffffffffffffffffff16815260200190815260200160002060020181905550505050565b60006103e882101561122557600190506117fc565b6107d082101561123857600290506117fc565b610c8082101561124b57600390506117fc565b6111f882101561125e57600490506117fc565b61183882101561127157600590506117fc565b611f4082101561128457600690506117fc565b61271082101561129757600790506117fc565b612fa88210156112aa57600890506117fc565b61396c8210156112bd57600990506117fc565b61445c8210156112d057600a90506117fc565b6150788210156112e357600b90506117fc565b615f008210156112f657600c90506117fc565b61707082101561130957600d90506117fc565b61855c82101561131c57600e90506117fc565b619e7782101561132f57600f90506117fc565b61bc9782101561134257601090506117fc565b61e0bd82101561135557601190506117fc565b62010c1d82101561136957601290506117fc565b6201402982101561137d57601390506117fc565b62017e9d82101561139157601490506117fc565b6201c98e8210156113a557601590506117fc565b6202237c8210156113b957601690506117fc565b62028f668210156113cd57601790506117fc565b620310e58210156113e157601890506117fc565b6203ac4a8210156113f557601990506117fc565b620466c382101561140957601a90506117fc565b6205468782101561141d57601b90506117fc565b6206530b82101561143157601c90506117fc565b6207954382101561144557601d90506117fc565b620917ec82101561145957601e90506117fc565b620ae7ea82101561146d57601f90506117fc565b620d14b482101561148157602090506117fc565b620fb0d982101561149557602190506117fc565b6212d29f8210156114a957602290506117fc565b621694bf8210156114bd57602390506117fc565b621b174b8210156114d157602490506117fc565b622080bf8210156114e557602590506117fc565b6226ff4a8210156114f957602690506117fc565b622eca5782101561150d57602790506117fc565b6238246682101561152157602890506117fc565b62435d4482101561153557602990506117fc565b6250d4b482101561154957602a90506117fc565b6260fda082101561155d57602b90506117fc565b627461ee82101561157157602c90506117fc565b628ba71882101561158557602d90506117fc565b62a793b082101561159957602e90506117fc565b62c916008210156115ad57602f90506117fc565b62f14bf98210156115c157603090506117fc565b6301218cbd8210156115d657603190506117fc565b63015b740e8210156115eb57603290506117fc565b6301a0f00882101561160057603390506117fc565b6301f4519a82101561161557603490506117fc565b630258604982101561162a57603590506117fc565b6302d071e782101561163f57603690506117fc565b630360870b82101561165457603790506117fc565b63040d6d3682101561166957603890506117fc565b6304dce7d082101561167e57603990506117fc565b6305d5e15582101561169357603a90506117fc565b630700a65b8210156116a857603b90506117fc565b6308672c628210156116bd57603c90506117fc565b630a1566d08210156116d257603d90506117fc565b630c19aced8210156116e757603e90506117fc565b630e8534438210156116fc57603f90506117fc565b63116ca37782101561171157604090506117fc565b6314e8c28282101561172657604190506117fc565b6319174e2882101561173b57604290506117fc565b631e1bf5bc82101561175057604390506117fc565b6324218ba082101561176557604490506117fc565b632b5b72b182101561177a57604590506117fc565b63340754c582101561178f57604690506117fc565b633e6f30dd8210156117a457604790506117fc565b634aebd2938210156117b957604890506117fc565b6359e7c7d38210156117ce57604990506117fc565b636be2ee1f8210156117e357604a90506117fc565b636be2ee1f82106117f757604b90506117fc565b600190505b919050565b6000808273ffffffffffffffffffffffffffffffffffffffff163b119050919050565b600060019054906101000a900460ff16611873576040517f08c379a000000000000000000000000000000000000000000000000000000000815260040161186a906122fb565b60405180910390fd5b80603360006101000a81548173ffffffffffffffffffffffffffffffffffffffff021916908373ffffffffffffffffffffffffffffffffffffffff16021790555050565b600080fd5b60007fffffffff0000000000000000000000000000000000000000000000000000000082169050919050565b6118f1816118bc565b81146118fc57600080fd5b50565b60008135905061190e816118e8565b92915050565b60006020828403121561192a576119296118b7565b5b6000611938848285016118ff565b91505092915050565b60008115159050919050565b61195681611941565b82525050565b6000602082019050611971600083018461194d565b92915050565b600073ffffffffffffffffffffffffffffffffffffffff82169050919050565b6000819050919050565b60006119bc6119b76119b284611977565b611997565b611977565b9050919050565b60006119ce826119a1565b9050919050565b60006119e0826119c3565b9050919050565b6119f0816119d5565b82525050565b6000602082019050611a0b60008301846119e7565b92915050565b6000611a1c82611977565b9050919050565b611a2c81611a11565b8114611a3757600080fd5b50565b600081359050611a4981611a23565b92915050565b600060208284031215611a6557611a646118b7565b5b6000611a7384828501611a3a565b91505092915050565b6000819050919050565b611a8f81611a7c565b82525050565b6000602082019050611aaa6000830184611a86565b92915050565b6000606082019050611ac56000830186611a86565b611ad26020830185611a86565b611adf6040830184611a86565b949350505050565b6000819050919050565b611afa81611ae7565b8114611b0557600080fd5b50565b600081359050611b1781611af1565b92915050565b600060208284031215611b3357611b326118b7565b5b6000611b4184828501611b08565b91505092915050565b611b5381611ae7565b82525050565b6000602082019050611b6e6000830184611b4a565b92915050565b611b7d81611941565b8114611b8857600080fd5b50565b600081359050611b9a81611b74565b92915050565b60008060408385031215611bb757611bb66118b7565b5b6000611bc585828601611a3a565b9250506020611bd685828601611b8b565b9150509250929050565b600061ffff82169050919050565b611bf781611be0565b82525050565b6000602082019050611c126000830184611bee565b92915050565b60008060408385031215611c2f57611c2e6118b7565b5b6000611c3d85828601611b08565b9250506020611c4e85828601611a3a565b9150509250929050565b611c6181611a7c565b8114611c6c57600080fd5b50565b600081359050611c7e81611c58565b92915050565b60008060408385031215611c9b57611c9a6118b7565b5b6000611ca985828601611a3a565b9250506020611cba85828601611c6f565b9150509250929050565b600080600060608486031215611cdd57611cdc6118b7565b5b6000611ceb86828701611a3a565b9350506020611cfc86828701611c6f565b9250506040611d0d86828701611c6f565b9150509250925092565b6000604082019050611d2c6000830185611a86565b611d396020830184611bee565b9392505050565b611d4981611be0565b8114611d5457600080fd5b50565b600081359050611d6681611d40565b92915050565b600080600060608486031215611d8557611d846118b7565b5b6000611d9386828701611a3a565b9350506020611da486828701611c6f565b9250506040611db586828701611d57565b9150509250925092565b6000604082019050611dd46000830185611a86565b611de16020830184611a86565b9392505050565b611df1816118bc565b82525050565b6000602082019050611e0c6000830184611de8565b92915050565b600081519050611e2181611b74565b92915050565b600060208284031215611e3d57611e3c6118b7565b5b6000611e4b84828501611e12565b91505092915050565b600081519050611e6381611af1565b92915050565b600060208284031215611e7f57611e7e6118b7565b5b6000611e8d84828501611e54565b91505092915050565b611e9f81611a11565b82525050565b6000604082019050611eba6000830185611b4a565b611ec76020830184611e96565b9392505050565b600082825260208201905092915050565b7f4e65656420636f6d6d756e69747941646d696e20726967687473000000000000600082015250565b6000611f15601a83611ece565b9150611f2082611edf565b602082019050919050565b60006020820190508181036000830152611f4481611f08565b9050919050565b7f585020746f20646973747269627574652073686f756c646e2774206265206d6f60008201527f7265207468616e2061646d696e2078704c696d69740000000000000000000000602082015250565b6000611fa7603583611ece565b9150611fb282611f4b565b604082019050919050565b60006020820190508181036000830152611fd681611f9a565b9050919050565b7f4e487b7100000000000000000000000000000000000000000000000000000000600052601160045260246000fd5b600061201782611a7c565b915061202283611a7c565b92508282101561203557612034611fdd565b5b828203905092915050565b600061204b82611a7c565b915061205683611a7c565b9250827fffffffffffffffffffffffffffffffffffffffffffffffffffffffffffffffff0382111561208b5761208a611fdd565b5b828201905092915050565b7f55736572206c6576656c2073686f756c64206265206c657373207468616e206160008201527f646d696e206c6576656c4c696d69740000000000000000000000000000000000602082015250565b60006120f2602f83611ece565b91506120fd82612096565b604082019050919050565b60006020820190508181036000830152612121816120e5565b9050919050565b7f4e6565642061646d696e20726967687473000000000000000000000000000000600082015250565b600061215e601183611ece565b915061216982612128565b602082019050919050565b6000602082019050818103600083015261218d81612151565b9050919050565b7f496e697469616c697a61626c653a20636f6e747261637420697320616c72656160008201527f647920696e697469616c697a6564000000000000000000000000000000000000602082015250565b60006121f0602e83611ece565b91506121fb82612194565b604082019050919050565b6000602082019050818103600083015261221f816121e3565b9050919050565b6000819050919050565b600060ff82169050919050565b600061225861225361224e84612226565b611997565b612230565b9050919050565b6122688161223d565b82525050565b6000602082019050612283600083018461225f565b92915050565b7f496e697469616c697a61626c653a20636f6e7472616374206973206e6f74206960008201527f6e697469616c697a696e67000000000000000000000000000000000000000000602082015250565b60006122e5602b83611ece565b91506122f082612289565b604082019050919050565b60006020820190508181036000830152612314816122d8565b905091905056fea2646970667358221220199ad0f392ee0e96e9d6e3288dbdfc638e4462244766aeeb4585044e9997fd0464736f6c634300080f0033",
  "devdoc": {
    "kind": "dev",
    "methods": {},
    "stateVariables": {
      "__gap": {
        "details": "This empty reserved space is put in place to allow future versions to add new variables without shifting down storage in the inheritance chain. See https://docs.openzeppelin.com/contracts/4.x/upgradeable#storage_gaps"
      }
    },
    "version": 1
  },
  "userdoc": {
    "kind": "user",
    "methods": {
      "distributeXp(address,uint256)": {
        "notice": "Admin can give xp points to user `user` Address of user `xp` The amount of XP that admin want to give user (xp <= admin.xpLimit && levelAfter(user) <= admin.levelLimit)*"
      },
      "getAllocation(address)": {
        "notice": "Get user allocation `user` Address of user*"
      },
      "getBonus(address)": {
        "notice": "Get user bonus reward for donation `user` Address of user*"
      },
      "getLevel(address)": {
        "notice": "Get user level according to constant distribution. Max value: 65535 `user` Address of user*"
      },
      "getNftAllocation(address)": {
        "notice": "Get nft allocation `user` Address of user*"
      },
      "getNftBonus(address)": {
        "notice": "Get nft bonus reward for donation `user` Address of nft*"
      },
      "setAdmin(address,bool)": {
        "notice": "Add or remove new admin `isAdmin` Address of admin*"
      },
      "setNftInfo(address,uint256,uint256)": {
        "notice": "Set allocation and discountRatioPresale for NFT `isAdmin` Address of admin*"
      },
      "setUserInfo(address,uint256,uint256)": {
        "notice": "Set allocation and discountRatioPresale for user `isAdmin` Address of admin*"
      }
    },
    "version": 1
  },
  "storageLayout": {
    "storage": [
      {
        "astId": 497,
        "contract": "contracts/Bonus.sol:Bonus",
        "label": "_initialized",
        "offset": 0,
        "slot": "0",
        "type": "t_uint8"
      },
      {
        "astId": 500,
        "contract": "contracts/Bonus.sol:Bonus",
        "label": "_initializing",
        "offset": 1,
        "slot": "0",
        "type": "t_bool"
      },
      {
        "astId": 4310,
        "contract": "contracts/Bonus.sol:Bonus",
        "label": "__gap",
        "offset": 0,
        "slot": "1",
        "type": "t_array(t_uint256)50_storage"
      },
      {
        "astId": 11612,
        "contract": "contracts/Bonus.sol:Bonus",
        "label": "ACCESS_CONTROL_SINGLETON",
        "offset": 0,
        "slot": "51",
        "type": "t_contract(ISuAccessControl)12922"
      },
      {
        "astId": 11699,
        "contract": "contracts/Bonus.sol:Bonus",
        "label": "__gap",
        "offset": 0,
        "slot": "52",
        "type": "t_array(t_uint256)49_storage"
      },
      {
        "astId": 10623,
        "contract": "contracts/Bonus.sol:Bonus",
        "label": "nftInfo",
        "offset": 0,
        "slot": "101",
        "type": "t_mapping(t_address,t_struct(NFTInfo)12793_storage)"
      },
      {
        "astId": 10628,
        "contract": "contracts/Bonus.sol:Bonus",
        "label": "userInfo",
        "offset": 0,
        "slot": "102",
        "type": "t_mapping(t_address,t_struct(UserInfo)12800_storage)"
      },
      {
        "astId": 10633,
        "contract": "contracts/Bonus.sol:Bonus",
        "label": "communityAdminInfo",
        "offset": 0,
        "slot": "103",
        "type": "t_mapping(t_address,t_struct(CommunityAdminInfo)12808_storage)"
      },
      {
        "astId": 10638,
        "contract": "contracts/Bonus.sol:Bonus",
        "label": "adminInfo",
        "offset": 0,
        "slot": "104",
        "type": "t_mapping(t_address,t_struct(AdminInfo)12803_storage)"
      },
      {
        "astId": 11385,
        "contract": "contracts/Bonus.sol:Bonus",
        "label": "__gap",
        "offset": 0,
        "slot": "105",
        "type": "t_array(t_uint256)45_storage"
      }
    ],
    "types": {
      "t_address": {
        "encoding": "inplace",
        "label": "address",
        "numberOfBytes": "20"
      },
      "t_array(t_uint256)45_storage": {
        "base": "t_uint256",
        "encoding": "inplace",
        "label": "uint256[45]",
        "numberOfBytes": "1440"
      },
      "t_array(t_uint256)49_storage": {
        "base": "t_uint256",
        "encoding": "inplace",
        "label": "uint256[49]",
        "numberOfBytes": "1568"
      },
      "t_array(t_uint256)50_storage": {
        "base": "t_uint256",
        "encoding": "inplace",
        "label": "uint256[50]",
        "numberOfBytes": "1600"
      },
      "t_bool": {
        "encoding": "inplace",
        "label": "bool",
        "numberOfBytes": "1"
      },
      "t_contract(ISuAccessControl)12922": {
        "encoding": "inplace",
        "label": "contract ISuAccessControl",
        "numberOfBytes": "20"
      },
      "t_mapping(t_address,t_struct(AdminInfo)12803_storage)": {
        "encoding": "mapping",
        "key": "t_address",
        "label": "mapping(address => struct IBonus.AdminInfo)",
        "numberOfBytes": "32",
        "value": "t_struct(AdminInfo)12803_storage"
      },
      "t_mapping(t_address,t_struct(CommunityAdminInfo)12808_storage)": {
        "encoding": "mapping",
        "key": "t_address",
        "label": "mapping(address => struct IBonus.CommunityAdminInfo)",
        "numberOfBytes": "32",
        "value": "t_struct(CommunityAdminInfo)12808_storage"
      },
      "t_mapping(t_address,t_struct(NFTInfo)12793_storage)": {
        "encoding": "mapping",
        "key": "t_address",
        "label": "mapping(address => struct IBonus.NFTInfo)",
        "numberOfBytes": "32",
        "value": "t_struct(NFTInfo)12793_storage"
      },
      "t_mapping(t_address,t_struct(UserInfo)12800_storage)": {
        "encoding": "mapping",
        "key": "t_address",
        "label": "mapping(address => struct IBonus.UserInfo)",
        "numberOfBytes": "32",
        "value": "t_struct(UserInfo)12800_storage"
      },
      "t_struct(AdminInfo)12803_storage": {
        "encoding": "inplace",
        "label": "struct IBonus.AdminInfo",
        "members": [
          {
            "astId": 12802,
            "contract": "contracts/Bonus.sol:Bonus",
            "label": "isAdmin",
            "offset": 0,
            "slot": "0",
            "type": "t_bool"
          }
        ],
        "numberOfBytes": "32"
      },
      "t_struct(CommunityAdminInfo)12808_storage": {
        "encoding": "inplace",
        "label": "struct IBonus.CommunityAdminInfo",
        "members": [
          {
            "astId": 12805,
            "contract": "contracts/Bonus.sol:Bonus",
            "label": "xpLimit",
            "offset": 0,
            "slot": "0",
            "type": "t_uint256"
          },
          {
            "astId": 12807,
            "contract": "contracts/Bonus.sol:Bonus",
            "label": "levelLimit",
            "offset": 0,
            "slot": "1",
            "type": "t_uint16"
          }
        ],
        "numberOfBytes": "64"
      },
      "t_struct(NFTInfo)12793_storage": {
        "encoding": "inplace",
        "label": "struct IBonus.NFTInfo",
        "members": [
          {
            "astId": 12790,
            "contract": "contracts/Bonus.sol:Bonus",
            "label": "allocation",
            "offset": 0,
            "slot": "0",
            "type": "t_uint256"
          },
          {
            "astId": 12792,
            "contract": "contracts/Bonus.sol:Bonus",
            "label": "donationBonusRatio",
            "offset": 0,
            "slot": "1",
            "type": "t_uint256"
          }
        ],
        "numberOfBytes": "64"
      },
      "t_struct(UserInfo)12800_storage": {
        "encoding": "inplace",
        "label": "struct IBonus.UserInfo",
        "members": [
          {
            "astId": 12795,
            "contract": "contracts/Bonus.sol:Bonus",
            "label": "xp",
            "offset": 0,
            "slot": "0",
            "type": "t_uint256"
          },
          {
            "astId": 12797,
            "contract": "contracts/Bonus.sol:Bonus",
            "label": "allocation",
            "offset": 0,
            "slot": "1",
            "type": "t_uint256"
          },
          {
            "astId": 12799,
            "contract": "contracts/Bonus.sol:Bonus",
            "label": "donationBonusRatio",
            "offset": 0,
            "slot": "2",
            "type": "t_uint256"
          }
        ],
        "numberOfBytes": "96"
      },
      "t_uint16": {
        "encoding": "inplace",
        "label": "uint16",
        "numberOfBytes": "2"
      },
      "t_uint256": {
        "encoding": "inplace",
        "label": "uint256",
        "numberOfBytes": "32"
      },
      "t_uint8": {
        "encoding": "inplace",
        "label": "uint8",
        "numberOfBytes": "1"
      }
    }
  }
}