{
  "address": "0x09A4728A55b69fF1651eC116722473BdaDE829ce",
  "abi": [
    {
      "inputs": [
        {
          "internalType": "string",
          "name": "name",
          "type": "string"
        },
        {
          "internalType": "string",
          "name": "symbol",
          "type": "string"
        }
      ],
      "stateMutability": "nonpayable",
      "type": "constructor"
    },
    {
      "anonymous": false,
      "inputs": [
        {
          "indexed": true,
          "internalType": "address",
          "name": "owner",
          "type": "address"
        },
        {
          "indexed": true,
          "internalType": "address",
          "name": "approved",
          "type": "address"
        },
        {
          "indexed": true,
          "internalType": "uint256",
          "name": "tokenId",
          "type": "uint256"
        }
      ],
      "name": "Approval",
      "type": "event"
    },
    {
      "anonymous": false,
      "inputs": [
        {
          "indexed": true,
          "internalType": "address",
          "name": "owner",
          "type": "address"
        },
        {
          "indexed": true,
          "internalType": "address",
          "name": "operator",
          "type": "address"
        },
        {
          "indexed": false,
          "internalType": "bool",
          "name": "approved",
          "type": "bool"
        }
      ],
      "name": "ApprovalForAll",
      "type": "event"
    },
    {
      "anonymous": false,
      "inputs": [
        {
          "indexed": true,
          "internalType": "address",
          "name": "from",
          "type": "address"
        },
        {
          "indexed": true,
          "internalType": "address",
          "name": "to",
          "type": "address"
        },
        {
          "indexed": true,
          "internalType": "uint256",
          "name": "tokenId",
          "type": "uint256"
        }
      ],
      "name": "Transfer",
      "type": "event"
    },
    {
      "inputs": [
        {
          "internalType": "address",
          "name": "to",
          "type": "address"
        },
        {
          "internalType": "uint256",
          "name": "tokenId",
          "type": "uint256"
        }
      ],
      "name": "approve",
      "outputs": [],
      "stateMutability": "nonpayable",
      "type": "function"
    },
    {
      "inputs": [
        {
          "internalType": "address",
          "name": "owner",
          "type": "address"
        }
      ],
      "name": "balanceOf",
      "outputs": [
        {
          "internalType": "uint256",
          "name": "",
          "type": "uint256"
        }
      ],
      "stateMutability": "view",
      "type": "function"
    },
    {
      "inputs": [
        {
          "internalType": "uint256",
          "name": "tokenId",
          "type": "uint256"
        }
      ],
      "name": "getApproved",
      "outputs": [
        {
          "internalType": "address",
          "name": "",
          "type": "address"
        }
      ],
      "stateMutability": "view",
      "type": "function"
    },
    {
      "inputs": [
        {
          "internalType": "address",
          "name": "owner",
          "type": "address"
        },
        {
          "internalType": "address",
          "name": "operator",
          "type": "address"
        }
      ],
      "name": "isApprovedForAll",
      "outputs": [
        {
          "internalType": "bool",
          "name": "",
          "type": "bool"
        }
      ],
      "stateMutability": "view",
      "type": "function"
    },
    {
      "inputs": [
        {
          "internalType": "address",
          "name": "to",
          "type": "address"
        }
      ],
      "name": "mint",
      "outputs": [],
      "stateMutability": "nonpayable",
      "type": "function"
    },
    {
      "inputs": [],
      "name": "name",
      "outputs": [
        {
          "internalType": "string",
          "name": "",
          "type": "string"
        }
      ],
      "stateMutability": "view",
      "type": "function"
    },
    {
      "inputs": [
        {
          "internalType": "uint256",
          "name": "tokenId",
          "type": "uint256"
        }
      ],
      "name": "ownerOf",
      "outputs": [
        {
          "internalType": "address",
          "name": "",
          "type": "address"
        }
      ],
      "stateMutability": "view",
      "type": "function"
    },
    {
      "inputs": [
        {
          "internalType": "address",
          "name": "from",
          "type": "address"
        },
        {
          "internalType": "address",
          "name": "to",
          "type": "address"
        },
        {
          "internalType": "uint256",
          "name": "tokenId",
          "type": "uint256"
        }
      ],
      "name": "safeTransferFrom",
      "outputs": [],
      "stateMutability": "nonpayable",
      "type": "function"
    },
    {
      "inputs": [
        {
          "internalType": "address",
          "name": "from",
          "type": "address"
        },
        {
          "internalType": "address",
          "name": "to",
          "type": "address"
        },
        {
          "internalType": "uint256",
          "name": "tokenId",
          "type": "uint256"
        },
        {
          "internalType": "bytes",
          "name": "_data",
          "type": "bytes"
        }
      ],
      "name": "safeTransferFrom",
      "outputs": [],
      "stateMutability": "nonpayable",
      "type": "function"
    },
    {
      "inputs": [
        {
          "internalType": "address",
          "name": "operator",
          "type": "address"
        },
        {
          "internalType": "bool",
          "name": "approved",
          "type": "bool"
        }
      ],
      "name": "setApprovalForAll",
      "outputs": [],
      "stateMutability": "nonpayable",
      "type": "function"
    },
    {
      "inputs": [
        {
          "internalType": "string",
          "name": "uri",
          "type": "string"
        }
      ],
      "name": "setBaseURI",
      "outputs": [],
      "stateMutability": "nonpayable",
      "type": "function"
    },
    {
      "inputs": [
        {
          "internalType": "bytes4",
          "name": "interfaceId",
          "type": "bytes4"
        }
      ],
      "name": "supportsInterface",
      "outputs": [
        {
          "internalType": "bool",
          "name": "",
          "type": "bool"
        }
      ],
      "stateMutability": "view",
      "type": "function"
    },
    {
      "inputs": [],
      "name": "symbol",
      "outputs": [
        {
          "internalType": "string",
          "name": "",
          "type": "string"
        }
      ],
      "stateMutability": "view",
      "type": "function"
    },
    {
      "inputs": [
        {
          "internalType": "uint256",
          "name": "index",
          "type": "uint256"
        }
      ],
      "name": "tokenByIndex",
      "outputs": [
        {
          "internalType": "uint256",
          "name": "",
          "type": "uint256"
        }
      ],
      "stateMutability": "view",
      "type": "function"
    },
    {
      "inputs": [
        {
          "internalType": "address",
          "name": "owner",
          "type": "address"
        },
        {
          "internalType": "uint256",
          "name": "index",
          "type": "uint256"
        }
      ],
      "name": "tokenOfOwnerByIndex",
      "outputs": [
        {
          "internalType": "uint256",
          "name": "",
          "type": "uint256"
        }
      ],
      "stateMutability": "view",
      "type": "function"
    },
    {
      "inputs": [
        {
          "internalType": "uint256",
          "name": "tokenId",
          "type": "uint256"
        }
      ],
      "name": "tokenURI",
      "outputs": [
        {
          "internalType": "string",
          "name": "",
          "type": "string"
        }
      ],
      "stateMutability": "view",
      "type": "function"
    },
    {
      "inputs": [],
      "name": "totalSupply",
      "outputs": [
        {
          "internalType": "uint256",
          "name": "",
          "type": "uint256"
        }
      ],
      "stateMutability": "view",
      "type": "function"
    },
    {
      "inputs": [
        {
          "internalType": "address",
          "name": "from",
          "type": "address"
        },
        {
          "internalType": "address",
          "name": "to",
          "type": "address"
        },
        {
          "internalType": "uint256",
          "name": "tokenId",
          "type": "uint256"
        }
      ],
      "name": "transferFrom",
      "outputs": [],
      "stateMutability": "nonpayable",
      "type": "function"
    }
  ],
  "transactionHash": "0x59b20053e96e554eed084fe557431807bc564cb85fb01231a12e3704d6133ff1",
  "args": [
    "Mock StableUnit NFT",
    "SuNFTPro"
  ],
  "numDeployments": 1,
  "solcInputHash": "8c0e91458c761ea63816868d7935b60f",
  "bytecode": "0x60806040526040518060600160405280603681526020016200367160369139600b90816200002e91906200030c565b503480156200003c57600080fd5b50604051620036a7380380620036a7833981810160405281019062000062919062000561565b818181600090816200007591906200030c565b5080600190816200008791906200030c565b5050505050620005e6565b600081519050919050565b7f4e487b7100000000000000000000000000000000000000000000000000000000600052604160045260246000fd5b7f4e487b7100000000000000000000000000000000000000000000000000000000600052602260045260246000fd5b600060028204905060018216806200011457607f821691505b6020821081036200012a5762000129620000cc565b5b50919050565b60008190508160005260206000209050919050565b60006020601f8301049050919050565b600082821b905092915050565b600060088302620001947fffffffffffffffffffffffffffffffffffffffffffffffffffffffffffffffff8262000155565b620001a0868362000155565b95508019841693508086168417925050509392505050565b6000819050919050565b6000819050919050565b6000620001ed620001e7620001e184620001b8565b620001c2565b620001b8565b9050919050565b6000819050919050565b6200020983620001cc565b620002216200021882620001f4565b84845462000162565b825550505050565b600090565b6200023862000229565b62000245818484620001fe565b505050565b5b818110156200026d57620002616000826200022e565b6001810190506200024b565b5050565b601f821115620002bc57620002868162000130565b620002918462000145565b81016020851015620002a1578190505b620002b9620002b08562000145565b8301826200024a565b50505b505050565b600082821c905092915050565b6000620002e160001984600802620002c1565b1980831691505092915050565b6000620002fc8383620002ce565b9150826002028217905092915050565b620003178262000092565b67ffffffffffffffff8111156200033357620003326200009d565b5b6200033f8254620000fb565b6200034c82828562000271565b600060209050601f8311600181146200038457600084156200036f578287015190505b6200037b8582620002ee565b865550620003eb565b601f198416620003948662000130565b60005b82811015620003be5784890151825560018201915060208501945060208101905062000397565b86831015620003de5784890151620003da601f891682620002ce565b8355505b6001600288020188555050505b505050505050565b6000604051905090565b600080fd5b600080fd5b600080fd5b600080fd5b6000601f19601f8301169050919050565b6200042d8262000411565b810181811067ffffffffffffffff821117156200044f576200044e6200009d565b5b80604052505050565b600062000464620003f3565b905062000472828262000422565b919050565b600067ffffffffffffffff8211156200049557620004946200009d565b5b620004a08262000411565b9050602081019050919050565b60005b83811015620004cd578082015181840152602081019050620004b0565b83811115620004dd576000848401525b50505050565b6000620004fa620004f48462000477565b62000458565b9050828152602081018484840111156200051957620005186200040c565b5b62000526848285620004ad565b509392505050565b600082601f83011262000546576200054562000407565b5b815162000558848260208601620004e3565b91505092915050565b600080604083850312156200057b576200057a620003fd565b5b600083015167ffffffffffffffff8111156200059c576200059b62000402565b5b620005aa858286016200052e565b925050602083015167ffffffffffffffff811115620005ce57620005cd62000402565b5b620005dc858286016200052e565b9150509250929050565b61307b80620005f66000396000f3fe608060405234801561001057600080fd5b50600436106101165760003560e01c806355f804b3116100a257806395d89b411161007157806395d89b4114610303578063a22cb46514610321578063b88d4fde1461033d578063c87b56dd14610359578063e985e9c51461038957610116565b806355f804b31461026b5780636352211e146102875780636a627842146102b757806370a08231146102d357610116565b806318160ddd116100e957806318160ddd146101b557806323b872dd146101d35780632f745c59146101ef57806342842e0e1461021f5780634f6ccce71461023b57610116565b806301ffc9a71461011b57806306fdde031461014b578063081812fc14610169578063095ea7b314610199575b600080fd5b61013560048036038101906101309190611bdb565b6103b9565b6040516101429190611c23565b60405180910390f35b6101536103cb565b6040516101609190611cd7565b60405180910390f35b610183600480360381019061017e9190611d2f565b61045d565b6040516101909190611d9d565b60405180910390f35b6101b360048036038101906101ae9190611de4565b6104e2565b005b6101bd6105f9565b6040516101ca9190611e33565b60405180910390f35b6101ed60048036038101906101e89190611e4e565b610606565b005b61020960048036038101906102049190611de4565b610666565b6040516102169190611e33565b60405180910390f35b61023960048036038101906102349190611e4e565b61070b565b005b61025560048036038101906102509190611d2f565b61072b565b6040516102629190611e33565b60405180910390f35b61028560048036038101906102809190611f06565b61079c565b005b6102a1600480360381019061029c9190611d2f565b6107b2565b6040516102ae9190611d9d565b60405180910390f35b6102d160048036038101906102cc9190611f53565b610863565b005b6102ed60048036038101906102e89190611f53565b610883565b6040516102fa9190611e33565b60405180910390f35b61030b61093a565b6040516103189190611cd7565b60405180910390f35b61033b60048036038101906103369190611fac565b6109cc565b005b6103576004803603810190610352919061211c565b610b4c565b005b610373600480360381019061036e9190611d2f565b610bae565b6040516103809190611cd7565b60405180910390f35b6103a3600480360381019061039e919061219f565b610c22565b6040516103b09190611c23565b60405180910390f35b60006103c482610cb6565b9050919050565b6060600080546103da9061220e565b80601f01602080910402602001604051908101604052809291908181526020018280546104069061220e565b80156104535780601f1061042857610100808354040283529160200191610453565b820191906000526020600020905b81548152906001019060200180831161043657829003601f168201915b5050505050905090565b600061046882610d30565b6104a7576040517f08c379a000000000000000000000000000000000000000000000000000000000815260040161049e906122b1565b60405180910390fd5b6004600083815260200190815260200160002060009054906101000a900473ffffffffffffffffffffffffffffffffffffffff169050919050565b60006104ed826107b2565b90508073ffffffffffffffffffffffffffffffffffffffff168373ffffffffffffffffffffffffffffffffffffffff160361055d576040517f08c379a000000000000000000000000000000000000000000000000000000000815260040161055490612343565b60405180910390fd5b8073ffffffffffffffffffffffffffffffffffffffff1661057c610d9c565b73ffffffffffffffffffffffffffffffffffffffff1614806105ab57506105aa816105a5610d9c565b610c22565b5b6105ea576040517f08c379a00000000000000000000000000000000000000000000000000000000081526004016105e1906123d5565b60405180910390fd5b6105f48383610da4565b505050565b6000600880549050905090565b610617610611610d9c565b82610e5d565b610656576040517f08c379a000000000000000000000000000000000000000000000000000000000815260040161064d90612467565b60405180910390fd5b610661838383610f3b565b505050565b600061067183610883565b82106106b2576040517f08c379a00000000000000000000000000000000000000000000000000000000081526004016106a9906124f9565b60405180910390fd5b600660008473ffffffffffffffffffffffffffffffffffffffff1673ffffffffffffffffffffffffffffffffffffffff168152602001908152602001600020600083815260200190815260200160002054905092915050565b61072683838360405180602001604052806000815250610b4c565b505050565b60006107356105f9565b8210610776576040517f08c379a000000000000000000000000000000000000000000000000000000000815260040161076d9061258b565b60405180910390fd5b6008828154811061078a576107896125ab565b5b90600052602060002001549050919050565b8181600b91826107ad929190612791565b505050565b6000806002600084815260200190815260200160002060009054906101000a900473ffffffffffffffffffffffffffffffffffffffff169050600073ffffffffffffffffffffffffffffffffffffffff168173ffffffffffffffffffffffffffffffffffffffff160361085a576040517f08c379a0000000000000000000000000000000000000000000000000000000008152600401610851906128d3565b60405180910390fd5b80915050919050565b61087681610871600a611196565b6111a4565b610880600a6111c2565b50565b60008073ffffffffffffffffffffffffffffffffffffffff168273ffffffffffffffffffffffffffffffffffffffff16036108f3576040517f08c379a00000000000000000000000000000000000000000000000000000000081526004016108ea90612965565b60405180910390fd5b600360008373ffffffffffffffffffffffffffffffffffffffff1673ffffffffffffffffffffffffffffffffffffffff168152602001908152602001600020549050919050565b6060600180546109499061220e565b80601f01602080910402602001604051908101604052809291908181526020018280546109759061220e565b80156109c25780601f10610997576101008083540402835291602001916109c2565b820191906000526020600020905b8154815290600101906020018083116109a557829003601f168201915b5050505050905090565b6109d4610d9c565b73ffffffffffffffffffffffffffffffffffffffff168273ffffffffffffffffffffffffffffffffffffffff1603610a41576040517f08c379a0000000000000000000000000000000000000000000000000000000008152600401610a38906129d1565b60405180910390fd5b8060056000610a4e610d9c565b73ffffffffffffffffffffffffffffffffffffffff1673ffffffffffffffffffffffffffffffffffffffff16815260200190815260200160002060008473ffffffffffffffffffffffffffffffffffffffff1673ffffffffffffffffffffffffffffffffffffffff16815260200190815260200160002060006101000a81548160ff0219169083151502179055508173ffffffffffffffffffffffffffffffffffffffff16610afb610d9c565b73ffffffffffffffffffffffffffffffffffffffff167f17307eab39ab6107e8899845ad3d59bd9653f200f220920489ca2b5937696c3183604051610b409190611c23565b60405180910390a35050565b610b5d610b57610d9c565b83610e5d565b610b9c576040517f08c379a0000000000000000000000000000000000000000000000000000000008152600401610b9390612467565b60405180910390fd5b610ba8848484846111d8565b50505050565b6060610bb982610d30565b610bf8576040517f08c379a0000000000000000000000000000000000000000000000000000000008152600401610bef90612a63565b60405180910390fd5b600b82604051602001610c0c929190612b32565b6040516020818303038152906040529050919050565b6000600560008473ffffffffffffffffffffffffffffffffffffffff1673ffffffffffffffffffffffffffffffffffffffff16815260200190815260200160002060008373ffffffffffffffffffffffffffffffffffffffff1673ffffffffffffffffffffffffffffffffffffffff16815260200190815260200160002060009054906101000a900460ff16905092915050565b60007f780e9d63000000000000000000000000000000000000000000000000000000007bffffffffffffffffffffffffffffffffffffffffffffffffffffffff1916827bffffffffffffffffffffffffffffffffffffffffffffffffffffffff19161480610d295750610d2882611234565b5b9050919050565b60008073ffffffffffffffffffffffffffffffffffffffff166002600084815260200190815260200160002060009054906101000a900473ffffffffffffffffffffffffffffffffffffffff1673ffffffffffffffffffffffffffffffffffffffff1614159050919050565b600033905090565b816004600083815260200190815260200160002060006101000a81548173ffffffffffffffffffffffffffffffffffffffff021916908373ffffffffffffffffffffffffffffffffffffffff160217905550808273ffffffffffffffffffffffffffffffffffffffff16610e17836107b2565b73ffffffffffffffffffffffffffffffffffffffff167f8c5be1e5ebec7d5bd14f71427d1e84f3dd0314c0f7b2291e5b200ac8c7c3b92560405160405180910390a45050565b6000610e6882610d30565b610ea7576040517f08c379a0000000000000000000000000000000000000000000000000000000008152600401610e9e90612bcc565b60405180910390fd5b6000610eb2836107b2565b90508073ffffffffffffffffffffffffffffffffffffffff168473ffffffffffffffffffffffffffffffffffffffff161480610f2157508373ffffffffffffffffffffffffffffffffffffffff16610f098461045d565b73ffffffffffffffffffffffffffffffffffffffff16145b80610f325750610f318185610c22565b5b91505092915050565b8273ffffffffffffffffffffffffffffffffffffffff16610f5b826107b2565b73ffffffffffffffffffffffffffffffffffffffff1614610fb1576040517f08c379a0000000000000000000000000000000000000000000000000000000008152600401610fa890612c5e565b60405180910390fd5b600073ffffffffffffffffffffffffffffffffffffffff168273ffffffffffffffffffffffffffffffffffffffff1603611020576040517f08c379a000000000000000000000000000000000000000000000000000000000815260040161101790612cf0565b60405180910390fd5b61102b838383611316565b611036600082610da4565b6001600360008573ffffffffffffffffffffffffffffffffffffffff1673ffffffffffffffffffffffffffffffffffffffff16815260200190815260200160002060008282546110869190612d3f565b925050819055506001600360008473ffffffffffffffffffffffffffffffffffffffff1673ffffffffffffffffffffffffffffffffffffffff16815260200190815260200160002060008282546110dd9190612d73565b92505081905550816002600083815260200190815260200160002060006101000a81548173ffffffffffffffffffffffffffffffffffffffff021916908373ffffffffffffffffffffffffffffffffffffffff160217905550808273ffffffffffffffffffffffffffffffffffffffff168473ffffffffffffffffffffffffffffffffffffffff167fddf252ad1be2c89b69c2b068fc378daa952ba7f163c4a11628f55a4df523b3ef60405160405180910390a4505050565b600081600001549050919050565b6111be828260405180602001604052806000815250611326565b5050565b6001816000016000828254019250508190555050565b6111e3848484610f3b565b6111ef84848484611381565b61122e576040517f08c379a000000000000000000000000000000000000000000000000000000000815260040161122590612e3b565b60405180910390fd5b50505050565b60007f80ac58cd000000000000000000000000000000000000000000000000000000007bffffffffffffffffffffffffffffffffffffffffffffffffffffffff1916827bffffffffffffffffffffffffffffffffffffffffffffffffffffffff191614806112ff57507f5b5e139f000000000000000000000000000000000000000000000000000000007bffffffffffffffffffffffffffffffffffffffffffffffffffffffff1916827bffffffffffffffffffffffffffffffffffffffffffffffffffffffff1916145b8061130f575061130e82611508565b5b9050919050565b611321838383611572565b505050565b6113308383611684565b61133d6000848484611381565b61137c576040517f08c379a000000000000000000000000000000000000000000000000000000000815260040161137390612e3b565b60405180910390fd5b505050565b60006113a28473ffffffffffffffffffffffffffffffffffffffff16611851565b156114fb578373ffffffffffffffffffffffffffffffffffffffff1663150b7a026113cb610d9c565b8786866040518563ffffffff1660e01b81526004016113ed9493929190612eb0565b6020604051808303816000875af192505050801561142957506040513d601f19601f820116820180604052508101906114269190612f11565b60015b6114ab573d8060008114611459576040519150601f19603f3d011682016040523d82523d6000602084013e61145e565b606091505b5060008151036114a3576040517f08c379a000000000000000000000000000000000000000000000000000000000815260040161149a90612e3b565b60405180910390fd5b805181602001fd5b63150b7a0260e01b7bffffffffffffffffffffffffffffffffffffffffffffffffffffffff1916817bffffffffffffffffffffffffffffffffffffffffffffffffffffffff191614915050611500565b600190505b949350505050565b60007f01ffc9a7000000000000000000000000000000000000000000000000000000007bffffffffffffffffffffffffffffffffffffffffffffffffffffffff1916827bffffffffffffffffffffffffffffffffffffffffffffffffffffffff1916149050919050565b61157d838383611864565b600073ffffffffffffffffffffffffffffffffffffffff168373ffffffffffffffffffffffffffffffffffffffff16036115bf576115ba81611869565b6115fe565b8173ffffffffffffffffffffffffffffffffffffffff168373ffffffffffffffffffffffffffffffffffffffff16146115fd576115fc83826118b2565b5b5b600073ffffffffffffffffffffffffffffffffffffffff168273ffffffffffffffffffffffffffffffffffffffff16036116405761163b81611a1f565b61167f565b8273ffffffffffffffffffffffffffffffffffffffff168273ffffffffffffffffffffffffffffffffffffffff161461167e5761167d8282611af0565b5b5b505050565b600073ffffffffffffffffffffffffffffffffffffffff168273ffffffffffffffffffffffffffffffffffffffff16036116f3576040517f08c379a00000000000000000000000000000000000000000000000000000000081526004016116ea90612f8a565b60405180910390fd5b6116fc81610d30565b1561173c576040517f08c379a000000000000000000000000000000000000000000000000000000000815260040161173390612ff6565b60405180910390fd5b61174860008383611316565b6001600360008473ffffffffffffffffffffffffffffffffffffffff1673ffffffffffffffffffffffffffffffffffffffff16815260200190815260200160002060008282546117989190612d73565b92505081905550816002600083815260200190815260200160002060006101000a81548173ffffffffffffffffffffffffffffffffffffffff021916908373ffffffffffffffffffffffffffffffffffffffff160217905550808273ffffffffffffffffffffffffffffffffffffffff16600073ffffffffffffffffffffffffffffffffffffffff167fddf252ad1be2c89b69c2b068fc378daa952ba7f163c4a11628f55a4df523b3ef60405160405180910390a45050565b600080823b905060008111915050919050565b505050565b6008805490506009600083815260200190815260200160002081905550600881908060018154018082558091505060019003906000526020600020016000909190919091505550565b600060016118bf84610883565b6118c99190612d3f565b90506000600760008481526020019081526020016000205490508181146119ae576000600660008673ffffffffffffffffffffffffffffffffffffffff1673ffffffffffffffffffffffffffffffffffffffff168152602001908152602001600020600084815260200190815260200160002054905080600660008773ffffffffffffffffffffffffffffffffffffffff1673ffffffffffffffffffffffffffffffffffffffff168152602001908152602001600020600084815260200190815260200160002081905550816007600083815260200190815260200160002081905550505b6007600084815260200190815260200160002060009055600660008573ffffffffffffffffffffffffffffffffffffffff1673ffffffffffffffffffffffffffffffffffffffff16815260200190815260200160002060008381526020019081526020016000206000905550505050565b60006001600880549050611a339190612d3f565b9050600060096000848152602001908152602001600020549050600060088381548110611a6357611a626125ab565b5b906000526020600020015490508060088381548110611a8557611a846125ab565b5b906000526020600020018190555081600960008381526020019081526020016000208190555060096000858152602001908152602001600020600090556008805480611ad457611ad3613016565b5b6001900381819060005260206000200160009055905550505050565b6000611afb83610883565b905081600660008573ffffffffffffffffffffffffffffffffffffffff1673ffffffffffffffffffffffffffffffffffffffff168152602001908152602001600020600083815260200190815260200160002081905550806007600084815260200190815260200160002081905550505050565b6000604051905090565b600080fd5b600080fd5b60007fffffffff0000000000000000000000000000000000000000000000000000000082169050919050565b611bb881611b83565b8114611bc357600080fd5b50565b600081359050611bd581611baf565b92915050565b600060208284031215611bf157611bf0611b79565b5b6000611bff84828501611bc6565b91505092915050565b60008115159050919050565b611c1d81611c08565b82525050565b6000602082019050611c386000830184611c14565b92915050565b600081519050919050565b600082825260208201905092915050565b60005b83811015611c78578082015181840152602081019050611c5d565b83811115611c87576000848401525b50505050565b6000601f19601f8301169050919050565b6000611ca982611c3e565b611cb38185611c49565b9350611cc3818560208601611c5a565b611ccc81611c8d565b840191505092915050565b60006020820190508181036000830152611cf18184611c9e565b905092915050565b6000819050919050565b611d0c81611cf9565b8114611d1757600080fd5b50565b600081359050611d2981611d03565b92915050565b600060208284031215611d4557611d44611b79565b5b6000611d5384828501611d1a565b91505092915050565b600073ffffffffffffffffffffffffffffffffffffffff82169050919050565b6000611d8782611d5c565b9050919050565b611d9781611d7c565b82525050565b6000602082019050611db26000830184611d8e565b92915050565b611dc181611d7c565b8114611dcc57600080fd5b50565b600081359050611dde81611db8565b92915050565b60008060408385031215611dfb57611dfa611b79565b5b6000611e0985828601611dcf565b9250506020611e1a85828601611d1a565b9150509250929050565b611e2d81611cf9565b82525050565b6000602082019050611e486000830184611e24565b92915050565b600080600060608486031215611e6757611e66611b79565b5b6000611e7586828701611dcf565b9350506020611e8686828701611dcf565b9250506040611e9786828701611d1a565b9150509250925092565b600080fd5b600080fd5b600080fd5b60008083601f840112611ec657611ec5611ea1565b5b8235905067ffffffffffffffff811115611ee357611ee2611ea6565b5b602083019150836001820283011115611eff57611efe611eab565b5b9250929050565b60008060208385031215611f1d57611f1c611b79565b5b600083013567ffffffffffffffff811115611f3b57611f3a611b7e565b5b611f4785828601611eb0565b92509250509250929050565b600060208284031215611f6957611f68611b79565b5b6000611f7784828501611dcf565b91505092915050565b611f8981611c08565b8114611f9457600080fd5b50565b600081359050611fa681611f80565b92915050565b60008060408385031215611fc357611fc2611b79565b5b6000611fd185828601611dcf565b9250506020611fe285828601611f97565b9150509250929050565b600080fd5b7f4e487b7100000000000000000000000000000000000000000000000000000000600052604160045260246000fd5b61202982611c8d565b810181811067ffffffffffffffff8211171561204857612047611ff1565b5b80604052505050565b600061205b611b6f565b90506120678282612020565b919050565b600067ffffffffffffffff82111561208757612086611ff1565b5b61209082611c8d565b9050602081019050919050565b82818337600083830152505050565b60006120bf6120ba8461206c565b612051565b9050828152602081018484840111156120db576120da611fec565b5b6120e684828561209d565b509392505050565b600082601f83011261210357612102611ea1565b5b81356121138482602086016120ac565b91505092915050565b6000806000806080858703121561213657612135611b79565b5b600061214487828801611dcf565b945050602061215587828801611dcf565b935050604061216687828801611d1a565b925050606085013567ffffffffffffffff81111561218757612186611b7e565b5b612193878288016120ee565b91505092959194509250565b600080604083850312156121b6576121b5611b79565b5b60006121c485828601611dcf565b92505060206121d585828601611dcf565b9150509250929050565b7f4e487b7100000000000000000000000000000000000000000000000000000000600052602260045260246000fd5b6000600282049050600182168061222657607f821691505b602082108103612239576122386121df565b5b50919050565b7f4552433732313a20617070726f76656420717565727920666f72206e6f6e657860008201527f697374656e7420746f6b656e0000000000000000000000000000000000000000602082015250565b600061229b602c83611c49565b91506122a68261223f565b604082019050919050565b600060208201905081810360008301526122ca8161228e565b9050919050565b7f4552433732313a20617070726f76616c20746f2063757272656e74206f776e6560008201527f7200000000000000000000000000000000000000000000000000000000000000602082015250565b600061232d602183611c49565b9150612338826122d1565b604082019050919050565b6000602082019050818103600083015261235c81612320565b9050919050565b7f4552433732313a20617070726f76652063616c6c6572206973206e6f74206f7760008201527f6e6572206e6f7220617070726f76656420666f7220616c6c0000000000000000602082015250565b60006123bf603883611c49565b91506123ca82612363565b604082019050919050565b600060208201905081810360008301526123ee816123b2565b9050919050565b7f4552433732313a207472616e736665722063616c6c6572206973206e6f74206f60008201527f776e6572206e6f7220617070726f766564000000000000000000000000000000602082015250565b6000612451603183611c49565b915061245c826123f5565b604082019050919050565b6000602082019050818103600083015261248081612444565b9050919050565b7f455243373231456e756d657261626c653a206f776e657220696e646578206f7560008201527f74206f6620626f756e6473000000000000000000000000000000000000000000602082015250565b60006124e3602b83611c49565b91506124ee82612487565b604082019050919050565b60006020820190508181036000830152612512816124d6565b9050919050565b7f455243373231456e756d657261626c653a20676c6f62616c20696e646578206f60008201527f7574206f6620626f756e64730000000000000000000000000000000000000000602082015250565b6000612575602c83611c49565b915061258082612519565b604082019050919050565b600060208201905081810360008301526125a481612568565b9050919050565b7f4e487b7100000000000000000000000000000000000000000000000000000000600052603260045260246000fd5b600082905092915050565b60008190508160005260206000209050919050565b60006020601f8301049050919050565b600082821b905092915050565b6000600883026126477fffffffffffffffffffffffffffffffffffffffffffffffffffffffffffffffff8261260a565b612651868361260a565b95508019841693508086168417925050509392505050565b6000819050919050565b600061268e61268961268484611cf9565b612669565b611cf9565b9050919050565b6000819050919050565b6126a883612673565b6126bc6126b482612695565b848454612617565b825550505050565b600090565b6126d16126c4565b6126dc81848461269f565b505050565b5b81811015612700576126f56000826126c9565b6001810190506126e2565b5050565b601f82111561274557612716816125e5565b61271f846125fa565b8101602085101561272e578190505b61274261273a856125fa565b8301826126e1565b50505b505050565b600082821c905092915050565b60006127686000198460080261274a565b1980831691505092915050565b60006127818383612757565b9150826002028217905092915050565b61279b83836125da565b67ffffffffffffffff8111156127b4576127b3611ff1565b5b6127be825461220e565b6127c9828285612704565b6000601f8311600181146127f857600084156127e6578287013590505b6127f08582612775565b865550612858565b601f198416612806866125e5565b60005b8281101561282e57848901358255600182019150602085019450602081019050612809565b8683101561284b5784890135612847601f891682612757565b8355505b6001600288020188555050505b50505050505050565b7f4552433732313a206f776e657220717565727920666f72206e6f6e657869737460008201527f656e7420746f6b656e0000000000000000000000000000000000000000000000602082015250565b60006128bd602983611c49565b91506128c882612861565b604082019050919050565b600060208201905081810360008301526128ec816128b0565b9050919050565b7f4552433732313a2062616c616e636520717565727920666f7220746865207a6560008201527f726f206164647265737300000000000000000000000000000000000000000000602082015250565b600061294f602a83611c49565b915061295a826128f3565b604082019050919050565b6000602082019050818103600083015261297e81612942565b9050919050565b7f4552433732313a20617070726f766520746f2063616c6c657200000000000000600082015250565b60006129bb601983611c49565b91506129c682612985565b602082019050919050565b600060208201905081810360008301526129ea816129ae565b9050919050565b7f4552433732314d657461646174613a2055524920717565727920666f72206e6f60008201527f6e6578697374656e7420746f6b656e0000000000000000000000000000000000602082015250565b6000612a4d602f83611c49565b9150612a58826129f1565b604082019050919050565b60006020820190508181036000830152612a7c81612a40565b9050919050565b600081905092915050565b60008154612a9b8161220e565b612aa58186612a83565b94506001821660008114612ac05760018114612ad557612b08565b60ff1983168652811515820286019350612b08565b612ade856125e5565b60005b83811015612b0057815481890152600182019150602081019050612ae1565b838801955050505b50505092915050565b6000819050919050565b612b2c612b2782611cf9565b612b11565b82525050565b6000612b3e8285612a8e565b9150612b4a8284612b1b565b6020820191508190509392505050565b7f4552433732313a206f70657261746f7220717565727920666f72206e6f6e657860008201527f697374656e7420746f6b656e0000000000000000000000000000000000000000602082015250565b6000612bb6602c83611c49565b9150612bc182612b5a565b604082019050919050565b60006020820190508181036000830152612be581612ba9565b9050919050565b7f4552433732313a207472616e73666572206f6620746f6b656e2074686174206960008201527f73206e6f74206f776e0000000000000000000000000000000000000000000000602082015250565b6000612c48602983611c49565b9150612c5382612bec565b604082019050919050565b60006020820190508181036000830152612c7781612c3b565b9050919050565b7f4552433732313a207472616e7366657220746f20746865207a65726f2061646460008201527f7265737300000000000000000000000000000000000000000000000000000000602082015250565b6000612cda602483611c49565b9150612ce582612c7e565b604082019050919050565b60006020820190508181036000830152612d0981612ccd565b9050919050565b7f4e487b7100000000000000000000000000000000000000000000000000000000600052601160045260246000fd5b6000612d4a82611cf9565b9150612d5583611cf9565b925082821015612d6857612d67612d10565b5b828203905092915050565b6000612d7e82611cf9565b9150612d8983611cf9565b9250827fffffffffffffffffffffffffffffffffffffffffffffffffffffffffffffffff03821115612dbe57612dbd612d10565b5b828201905092915050565b7f4552433732313a207472616e7366657220746f206e6f6e20455243373231526560008201527f63656976657220696d706c656d656e7465720000000000000000000000000000602082015250565b6000612e25603283611c49565b9150612e3082612dc9565b604082019050919050565b60006020820190508181036000830152612e5481612e18565b9050919050565b600081519050919050565b600082825260208201905092915050565b6000612e8282612e5b565b612e8c8185612e66565b9350612e9c818560208601611c5a565b612ea581611c8d565b840191505092915050565b6000608082019050612ec56000830187611d8e565b612ed26020830186611d8e565b612edf6040830185611e24565b8181036060830152612ef18184612e77565b905095945050505050565b600081519050612f0b81611baf565b92915050565b600060208284031215612f2757612f26611b79565b5b6000612f3584828501612efc565b91505092915050565b7f4552433732313a206d696e7420746f20746865207a65726f2061646472657373600082015250565b6000612f74602083611c49565b9150612f7f82612f3e565b602082019050919050565b60006020820190508181036000830152612fa381612f67565b9050919050565b7f4552433732313a20746f6b656e20616c7265616479206d696e74656400000000600082015250565b6000612fe0601c83611c49565b9150612feb82612faa565b602082019050919050565b6000602082019050818103600083015261300f81612fd3565b9050919050565b7f4e487b7100000000000000000000000000000000000000000000000000000000600052603160045260246000fdfea26469706673582212209d923bdcb99acb7a978fe1162dbd6b1ea0dc646ba936a86125c759fdb8b7591864736f6c634300080f0033697066733a2f2f516d65536a53696e4870506e6d586d73704d6a776958794e367a533445397a63636172694752336a7863615774712f",
  "devdoc": {
    "kind": "dev",
    "methods": {
      "approve(address,uint256)": {
        "details": "See {IERC721-approve}."
      },
      "balanceOf(address)": {
        "details": "See {IERC721-balanceOf}."
      },
      "getApproved(uint256)": {
        "details": "See {IERC721-getApproved}."
      },
      "isApprovedForAll(address,address)": {
        "details": "See {IERC721-isApprovedForAll}."
      },
      "name()": {
        "details": "See {IERC721Metadata-name}."
      },
      "ownerOf(uint256)": {
        "details": "See {IERC721-ownerOf}."
      },
      "safeTransferFrom(address,address,uint256)": {
        "details": "See {IERC721-safeTransferFrom}."
      },
      "safeTransferFrom(address,address,uint256,bytes)": {
        "details": "See {IERC721-safeTransferFrom}."
      },
      "setApprovalForAll(address,bool)": {
        "details": "See {IERC721-setApprovalForAll}."
      },
      "symbol()": {
        "details": "See {IERC721Metadata-symbol}."
      },
      "tokenByIndex(uint256)": {
        "details": "See {IERC721Enumerable-tokenByIndex}."
      },
      "tokenOfOwnerByIndex(address,uint256)": {
        "details": "See {IERC721Enumerable-tokenOfOwnerByIndex}."
      },
      "tokenURI(uint256)": {
        "details": "See {IERC721Metadata-tokenURI}."
      },
      "totalSupply()": {
        "details": "See {IERC721Enumerable-totalSupply}."
      },
      "transferFrom(address,address,uint256)": {
        "details": "See {IERC721-transferFrom}."
      }
    },
    "version": 1
  },
  "userdoc": {
    "kind": "user",
    "methods": {},
    "version": 1
  },
  "storageLayout": {
    "storage": [
      {
        "astId": 25,
        "contract": "contracts/mocks/MockErc721.sol:MockErc721",
        "label": "_name",
        "offset": 0,
        "slot": "0",
        "type": "t_string_storage"
      },
      {
        "astId": 27,
        "contract": "contracts/mocks/MockErc721.sol:MockErc721",
        "label": "_symbol",
        "offset": 0,
        "slot": "1",
        "type": "t_string_storage"
      },
      {
        "astId": 31,
        "contract": "contracts/mocks/MockErc721.sol:MockErc721",
        "label": "_owners",
        "offset": 0,
        "slot": "2",
        "type": "t_mapping(t_uint256,t_address)"
      },
      {
        "astId": 35,
        "contract": "contracts/mocks/MockErc721.sol:MockErc721",
        "label": "_balances",
        "offset": 0,
        "slot": "3",
        "type": "t_mapping(t_address,t_uint256)"
      },
      {
        "astId": 39,
        "contract": "contracts/mocks/MockErc721.sol:MockErc721",
        "label": "_tokenApprovals",
        "offset": 0,
        "slot": "4",
        "type": "t_mapping(t_uint256,t_address)"
      },
      {
        "astId": 45,
        "contract": "contracts/mocks/MockErc721.sol:MockErc721",
        "label": "_operatorApprovals",
        "offset": 0,
        "slot": "5",
        "type": "t_mapping(t_address,t_mapping(t_address,t_bool))"
      },
      {
        "astId": 964,
        "contract": "contracts/mocks/MockErc721.sol:MockErc721",
        "label": "_ownedTokens",
        "offset": 0,
        "slot": "6",
        "type": "t_mapping(t_address,t_mapping(t_uint256,t_uint256))"
      },
      {
        "astId": 968,
        "contract": "contracts/mocks/MockErc721.sol:MockErc721",
        "label": "_ownedTokensIndex",
        "offset": 0,
        "slot": "7",
        "type": "t_mapping(t_uint256,t_uint256)"
      },
      {
        "astId": 971,
        "contract": "contracts/mocks/MockErc721.sol:MockErc721",
        "label": "_allTokens",
        "offset": 0,
        "slot": "8",
        "type": "t_array(t_uint256)dyn_storage"
      },
      {
        "astId": 975,
        "contract": "contracts/mocks/MockErc721.sol:MockErc721",
        "label": "_allTokensIndex",
        "offset": 0,
        "slot": "9",
        "type": "t_mapping(t_uint256,t_uint256)"
      },
      {
        "astId": 1993,
        "contract": "contracts/mocks/MockErc721.sol:MockErc721",
        "label": "_tokenIdCounter",
        "offset": 0,
        "slot": "10",
        "type": "t_struct(Counter)1670_storage"
      },
      {
        "astId": 1996,
        "contract": "contracts/mocks/MockErc721.sol:MockErc721",
        "label": "baseURI",
        "offset": 0,
        "slot": "11",
        "type": "t_string_storage"
      }
    ],
    "types": {
      "t_address": {
        "encoding": "inplace",
        "label": "address",
        "numberOfBytes": "20"
      },
      "t_array(t_uint256)dyn_storage": {
        "base": "t_uint256",
        "encoding": "dynamic_array",
        "label": "uint256[]",
        "numberOfBytes": "32"
      },
      "t_bool": {
        "encoding": "inplace",
        "label": "bool",
        "numberOfBytes": "1"
      },
      "t_mapping(t_address,t_bool)": {
        "encoding": "mapping",
        "key": "t_address",
        "label": "mapping(address => bool)",
        "numberOfBytes": "32",
        "value": "t_bool"
      },
      "t_mapping(t_address,t_mapping(t_address,t_bool))": {
        "encoding": "mapping",
        "key": "t_address",
        "label": "mapping(address => mapping(address => bool))",
        "numberOfBytes": "32",
        "value": "t_mapping(t_address,t_bool)"
      },
      "t_mapping(t_address,t_mapping(t_uint256,t_uint256))": {
        "encoding": "mapping",
        "key": "t_address",
        "label": "mapping(address => mapping(uint256 => uint256))",
        "numberOfBytes": "32",
        "value": "t_mapping(t_uint256,t_uint256)"
      },
      "t_mapping(t_address,t_uint256)": {
        "encoding": "mapping",
        "key": "t_address",
        "label": "mapping(address => uint256)",
        "numberOfBytes": "32",
        "value": "t_uint256"
      },
      "t_mapping(t_uint256,t_address)": {
        "encoding": "mapping",
        "key": "t_uint256",
        "label": "mapping(uint256 => address)",
        "numberOfBytes": "32",
        "value": "t_address"
      },
      "t_mapping(t_uint256,t_uint256)": {
        "encoding": "mapping",
        "key": "t_uint256",
        "label": "mapping(uint256 => uint256)",
        "numberOfBytes": "32",
        "value": "t_uint256"
      },
      "t_string_storage": {
        "encoding": "bytes",
        "label": "string",
        "numberOfBytes": "32"
      },
      "t_struct(Counter)1670_storage": {
        "encoding": "inplace",
        "label": "struct Counters.Counter",
        "members": [
          {
            "astId": 1669,
            "contract": "contracts/mocks/MockErc721.sol:MockErc721",
            "label": "_value",
            "offset": 0,
            "slot": "0",
            "type": "t_uint256"
          }
        ],
        "numberOfBytes": "32"
      },
      "t_uint256": {
        "encoding": "inplace",
        "label": "uint256",
        "numberOfBytes": "32"
      }
    }
  }
}