{
  "address": "0xfAE441271d9B4113f06A6B015c176261d3ED449C",
  "abi": [
    {
      "anonymous": false,
      "inputs": [
        {
          "indexed": true,
          "internalType": "address",
          "name": "owner",
          "type": "address"
        },
        {
          "indexed": true,
          "internalType": "address",
          "name": "approved",
          "type": "address"
        },
        {
          "indexed": true,
          "internalType": "uint256",
          "name": "tokenId",
          "type": "uint256"
        }
      ],
      "name": "Approval",
      "type": "event"
    },
    {
      "anonymous": false,
      "inputs": [
        {
          "indexed": true,
          "internalType": "address",
          "name": "owner",
          "type": "address"
        },
        {
          "indexed": true,
          "internalType": "address",
          "name": "operator",
          "type": "address"
        },
        {
          "indexed": false,
          "internalType": "bool",
          "name": "approved",
          "type": "bool"
        }
      ],
      "name": "ApprovalForAll",
      "type": "event"
    },
    {
      "anonymous": false,
      "inputs": [
        {
          "indexed": false,
          "internalType": "uint8",
          "name": "version",
          "type": "uint8"
        }
      ],
      "name": "Initialized",
      "type": "event"
    },
    {
      "anonymous": false,
      "inputs": [
        {
          "indexed": true,
          "internalType": "address",
          "name": "from",
          "type": "address"
        },
        {
          "indexed": true,
          "internalType": "address",
          "name": "to",
          "type": "address"
        },
        {
          "indexed": true,
          "internalType": "uint256",
          "name": "tokenId",
          "type": "uint256"
        }
      ],
      "name": "Transfer",
      "type": "event"
    },
    {
      "inputs": [
        {
          "internalType": "address",
          "name": "to",
          "type": "address"
        },
        {
          "internalType": "uint256",
          "name": "tokenId",
          "type": "uint256"
        }
      ],
      "name": "approve",
      "outputs": [],
      "stateMutability": "nonpayable",
      "type": "function"
    },
    {
      "inputs": [
        {
          "internalType": "address",
          "name": "owner",
          "type": "address"
        }
      ],
      "name": "balanceOf",
      "outputs": [
        {
          "internalType": "uint256",
          "name": "",
          "type": "uint256"
        }
      ],
      "stateMutability": "view",
      "type": "function"
    },
    {
      "inputs": [
        {
          "internalType": "uint256",
          "name": "tokenId",
          "type": "uint256"
        }
      ],
      "name": "getApproved",
      "outputs": [
        {
          "internalType": "address",
          "name": "",
          "type": "address"
        }
      ],
      "stateMutability": "view",
      "type": "function"
    },
    {
      "inputs": [
        {
          "internalType": "string",
          "name": "name",
          "type": "string"
        },
        {
          "internalType": "string",
          "name": "symbol",
          "type": "string"
        }
      ],
      "name": "initialize",
      "outputs": [],
      "stateMutability": "nonpayable",
      "type": "function"
    },
    {
      "inputs": [
        {
          "internalType": "address",
          "name": "owner",
          "type": "address"
        },
        {
          "internalType": "address",
          "name": "operator",
          "type": "address"
        }
      ],
      "name": "isApprovedForAll",
      "outputs": [
        {
          "internalType": "bool",
          "name": "",
          "type": "bool"
        }
      ],
      "stateMutability": "view",
      "type": "function"
    },
    {
      "inputs": [
        {
          "internalType": "address",
          "name": "to",
          "type": "address"
        }
      ],
      "name": "mint",
      "outputs": [],
      "stateMutability": "nonpayable",
      "type": "function"
    },
    {
      "inputs": [],
      "name": "name",
      "outputs": [
        {
          "internalType": "string",
          "name": "",
          "type": "string"
        }
      ],
      "stateMutability": "view",
      "type": "function"
    },
    {
      "inputs": [
        {
          "internalType": "uint256",
          "name": "tokenId",
          "type": "uint256"
        }
      ],
      "name": "ownerOf",
      "outputs": [
        {
          "internalType": "address",
          "name": "",
          "type": "address"
        }
      ],
      "stateMutability": "view",
      "type": "function"
    },
    {
      "inputs": [
        {
          "internalType": "address",
          "name": "from",
          "type": "address"
        },
        {
          "internalType": "address",
          "name": "to",
          "type": "address"
        },
        {
          "internalType": "uint256",
          "name": "tokenId",
          "type": "uint256"
        }
      ],
      "name": "safeTransferFrom",
      "outputs": [],
      "stateMutability": "nonpayable",
      "type": "function"
    },
    {
      "inputs": [
        {
          "internalType": "address",
          "name": "from",
          "type": "address"
        },
        {
          "internalType": "address",
          "name": "to",
          "type": "address"
        },
        {
          "internalType": "uint256",
          "name": "tokenId",
          "type": "uint256"
        },
        {
          "internalType": "bytes",
          "name": "data",
          "type": "bytes"
        }
      ],
      "name": "safeTransferFrom",
      "outputs": [],
      "stateMutability": "nonpayable",
      "type": "function"
    },
    {
      "inputs": [
        {
          "internalType": "address",
          "name": "operator",
          "type": "address"
        },
        {
          "internalType": "bool",
          "name": "approved",
          "type": "bool"
        }
      ],
      "name": "setApprovalForAll",
      "outputs": [],
      "stateMutability": "nonpayable",
      "type": "function"
    },
    {
      "inputs": [
        {
          "internalType": "bytes4",
          "name": "interfaceId",
          "type": "bytes4"
        }
      ],
      "name": "supportsInterface",
      "outputs": [
        {
          "internalType": "bool",
          "name": "",
          "type": "bool"
        }
      ],
      "stateMutability": "view",
      "type": "function"
    },
    {
      "inputs": [],
      "name": "symbol",
      "outputs": [
        {
          "internalType": "string",
          "name": "",
          "type": "string"
        }
      ],
      "stateMutability": "view",
      "type": "function"
    },
    {
      "inputs": [
        {
          "internalType": "uint256",
          "name": "index",
          "type": "uint256"
        }
      ],
      "name": "tokenByIndex",
      "outputs": [
        {
          "internalType": "uint256",
          "name": "",
          "type": "uint256"
        }
      ],
      "stateMutability": "view",
      "type": "function"
    },
    {
      "inputs": [
        {
          "internalType": "address",
          "name": "owner",
          "type": "address"
        },
        {
          "internalType": "uint256",
          "name": "index",
          "type": "uint256"
        }
      ],
      "name": "tokenOfOwnerByIndex",
      "outputs": [
        {
          "internalType": "uint256",
          "name": "",
          "type": "uint256"
        }
      ],
      "stateMutability": "view",
      "type": "function"
    },
    {
      "inputs": [
        {
          "internalType": "uint256",
          "name": "tokenId",
          "type": "uint256"
        }
      ],
      "name": "tokenURI",
      "outputs": [
        {
          "internalType": "string",
          "name": "",
          "type": "string"
        }
      ],
      "stateMutability": "view",
      "type": "function"
    },
    {
      "inputs": [],
      "name": "totalSupply",
      "outputs": [
        {
          "internalType": "uint256",
          "name": "",
          "type": "uint256"
        }
      ],
      "stateMutability": "view",
      "type": "function"
    },
    {
      "inputs": [
        {
          "internalType": "address",
          "name": "from",
          "type": "address"
        },
        {
          "internalType": "address",
          "name": "to",
          "type": "address"
        },
        {
          "internalType": "uint256",
          "name": "tokenId",
          "type": "uint256"
        }
      ],
      "name": "transferFrom",
      "outputs": [],
      "stateMutability": "nonpayable",
      "type": "function"
    }
  ],
  "numDeployments": 1,
  "solcInputHash": "f758b7a0534974279b090d6789581c7e",
  "bytecode": "0x608060405234801561001057600080fd5b50613366806100206000396000f3fe608060405234801561001057600080fd5b50600436106101165760003560e01c80634f6ccce7116100a257806395d89b411161007157806395d89b4114610303578063a22cb46514610321578063b88d4fde1461033d578063c87b56dd14610359578063e985e9c51461038957610116565b80634f6ccce7146102575780636352211e146102875780636a627842146102b757806370a08231146102d357610116565b806318160ddd116100e957806318160ddd146101b557806323b872dd146101d35780632f745c59146101ef57806342842e0e1461021f5780634cd88b761461023b57610116565b806301ffc9a71461011b57806306fdde031461014b578063081812fc14610169578063095ea7b314610199575b600080fd5b61013560048036038101906101309190611df0565b6103b9565b6040516101429190611e38565b60405180910390f35b6101536103cb565b6040516101609190611eec565b60405180910390f35b610183600480360381019061017e9190611f44565b61045d565b6040516101909190611fb2565b60405180910390f35b6101b360048036038101906101ae9190611ff9565b6104a3565b005b6101bd6105ba565b6040516101ca9190612048565b60405180910390f35b6101ed60048036038101906101e89190612063565b6105c7565b005b61020960048036038101906102049190611ff9565b610627565b6040516102169190612048565b60405180910390f35b61023960048036038101906102349190612063565b6106cc565b005b610255600480360381019061025091906121eb565b6106ec565b005b610271600480360381019061026c9190611f44565b610856565b60405161027e9190612048565b60405180910390f35b6102a1600480360381019061029c9190611f44565b6108c7565b6040516102ae9190611fb2565b60405180910390f35b6102d160048036038101906102cc9190612263565b610978565b005b6102ed60048036038101906102e89190612263565b610998565b6040516102fa9190612048565b60405180910390f35b61030b610a4f565b6040516103189190611eec565b60405180910390f35b61033b600480360381019061033691906122bc565b610ae1565b005b6103576004803603810190610352919061239d565b610af7565b005b610373600480360381019061036e9190611f44565b610b59565b6040516103809190611eec565b60405180910390f35b6103a3600480360381019061039e9190612420565b610bcd565b6040516103b09190611e38565b60405180910390f35b60006103c482610c61565b9050919050565b6060606580546103da9061248f565b80601f01602080910402602001604051908101604052809291908181526020018280546104069061248f565b80156104535780601f1061042857610100808354040283529160200191610453565b820191906000526020600020905b81548152906001019060200180831161043657829003601f168201915b5050505050905090565b600061046882610cdb565b6069600083815260200190815260200160002060009054906101000a900473ffffffffffffffffffffffffffffffffffffffff169050919050565b60006104ae826108c7565b90508073ffffffffffffffffffffffffffffffffffffffff168373ffffffffffffffffffffffffffffffffffffffff160361051e576040517f08c379a000000000000000000000000000000000000000000000000000000000815260040161051590612532565b60405180910390fd5b8073ffffffffffffffffffffffffffffffffffffffff1661053d610d26565b73ffffffffffffffffffffffffffffffffffffffff16148061056c575061056b81610566610d26565b610bcd565b5b6105ab576040517f08c379a00000000000000000000000000000000000000000000000000000000081526004016105a2906125c4565b60405180910390fd5b6105b58383610d2e565b505050565b6000609980549050905090565b6105d86105d2610d26565b82610de7565b610617576040517f08c379a000000000000000000000000000000000000000000000000000000000815260040161060e90612656565b60405180910390fd5b610622838383610e7c565b505050565b600061063283610998565b8210610673576040517f08c379a000000000000000000000000000000000000000000000000000000000815260040161066a906126e8565b60405180910390fd5b609760008473ffffffffffffffffffffffffffffffffffffffff1673ffffffffffffffffffffffffffffffffffffffff168152602001908152602001600020600083815260200190815260200160002054905092915050565b6106e783838360405180602001604052806000815250610af7565b505050565b60008060019054906101000a900460ff1615905080801561071d5750600160008054906101000a900460ff1660ff16105b8061074a575061072c306110e2565b1580156107495750600160008054906101000a900460ff1660ff16145b5b610789576040517f08c379a00000000000000000000000000000000000000000000000000000000081526004016107809061277a565b60405180910390fd5b60016000806101000a81548160ff021916908360ff16021790555080156107c6576001600060016101000a81548160ff0219169083151502179055505b6107d08383611105565b6040518060600160405280603681526020016132fb6036913960ca90816107f79190612946565b5080156108515760008060016101000a81548160ff0219169083151502179055507f7f26b83ff96e1f2b6a682f133852f6798a09c465da95921460cefb384740249860016040516108489190612a60565b60405180910390a15b505050565b60006108606105ba565b82106108a1576040517f08c379a000000000000000000000000000000000000000000000000000000000815260040161089890612aed565b60405180910390fd5b609982815481106108b5576108b4612b0d565b5b90600052602060002001549050919050565b6000806067600084815260200190815260200160002060009054906101000a900473ffffffffffffffffffffffffffffffffffffffff169050600073ffffffffffffffffffffffffffffffffffffffff168173ffffffffffffffffffffffffffffffffffffffff160361096f576040517f08c379a000000000000000000000000000000000000000000000000000000000815260040161096690612b88565b60405180910390fd5b80915050919050565b61098b8161098660c9611162565b611170565b61099560c961118e565b50565b60008073ffffffffffffffffffffffffffffffffffffffff168273ffffffffffffffffffffffffffffffffffffffff1603610a08576040517f08c379a00000000000000000000000000000000000000000000000000000000081526004016109ff90612c1a565b60405180910390fd5b606860008373ffffffffffffffffffffffffffffffffffffffff1673ffffffffffffffffffffffffffffffffffffffff168152602001908152602001600020549050919050565b606060668054610a5e9061248f565b80601f0160208091040260200160405190810160405280929190818152602001828054610a8a9061248f565b8015610ad75780601f10610aac57610100808354040283529160200191610ad7565b820191906000526020600020905b815481529060010190602001808311610aba57829003601f168201915b5050505050905090565b610af3610aec610d26565b83836111a4565b5050565b610b08610b02610d26565b83610de7565b610b47576040517f08c379a0000000000000000000000000000000000000000000000000000000008152600401610b3e90612656565b60405180910390fd5b610b5384848484611310565b50505050565b6060610b648261136c565b610ba3576040517f08c379a0000000000000000000000000000000000000000000000000000000008152600401610b9a90612cac565b60405180910390fd5b60ca82604051602001610bb7929190612d7b565b6040516020818303038152906040529050919050565b6000606a60008473ffffffffffffffffffffffffffffffffffffffff1673ffffffffffffffffffffffffffffffffffffffff16815260200190815260200160002060008373ffffffffffffffffffffffffffffffffffffffff1673ffffffffffffffffffffffffffffffffffffffff16815260200190815260200160002060009054906101000a900460ff16905092915050565b60007f780e9d63000000000000000000000000000000000000000000000000000000007bffffffffffffffffffffffffffffffffffffffffffffffffffffffff1916827bffffffffffffffffffffffffffffffffffffffffffffffffffffffff19161480610cd45750610cd3826113d8565b5b9050919050565b610ce48161136c565b610d23576040517f08c379a0000000000000000000000000000000000000000000000000000000008152600401610d1a90612b88565b60405180910390fd5b50565b600033905090565b816069600083815260200190815260200160002060006101000a81548173ffffffffffffffffffffffffffffffffffffffff021916908373ffffffffffffffffffffffffffffffffffffffff160217905550808273ffffffffffffffffffffffffffffffffffffffff16610da1836108c7565b73ffffffffffffffffffffffffffffffffffffffff167f8c5be1e5ebec7d5bd14f71427d1e84f3dd0314c0f7b2291e5b200ac8c7c3b92560405160405180910390a45050565b600080610df3836108c7565b90508073ffffffffffffffffffffffffffffffffffffffff168473ffffffffffffffffffffffffffffffffffffffff161480610e355750610e348185610bcd565b5b80610e7357508373ffffffffffffffffffffffffffffffffffffffff16610e5b8461045d565b73ffffffffffffffffffffffffffffffffffffffff16145b91505092915050565b8273ffffffffffffffffffffffffffffffffffffffff16610e9c826108c7565b73ffffffffffffffffffffffffffffffffffffffff1614610ef2576040517f08c379a0000000000000000000000000000000000000000000000000000000008152600401610ee990612e15565b60405180910390fd5b600073ffffffffffffffffffffffffffffffffffffffff168273ffffffffffffffffffffffffffffffffffffffff1603610f61576040517f08c379a0000000000000000000000000000000000000000000000000000000008152600401610f5890612ea7565b60405180910390fd5b610f6c8383836114ba565b610f77600082610d2e565b6001606860008573ffffffffffffffffffffffffffffffffffffffff1673ffffffffffffffffffffffffffffffffffffffff1681526020019081526020016000206000828254610fc79190612ef6565b925050819055506001606860008473ffffffffffffffffffffffffffffffffffffffff1673ffffffffffffffffffffffffffffffffffffffff168152602001908152602001600020600082825461101e9190612f2a565b92505081905550816067600083815260200190815260200160002060006101000a81548173ffffffffffffffffffffffffffffffffffffffff021916908373ffffffffffffffffffffffffffffffffffffffff160217905550808273ffffffffffffffffffffffffffffffffffffffff168473ffffffffffffffffffffffffffffffffffffffff167fddf252ad1be2c89b69c2b068fc378daa952ba7f163c4a11628f55a4df523b3ef60405160405180910390a46110dd8383836114ca565b505050565b6000808273ffffffffffffffffffffffffffffffffffffffff163b119050919050565b600060019054906101000a900460ff16611154576040517f08c379a000000000000000000000000000000000000000000000000000000000815260040161114b90612ff2565b60405180910390fd5b61115e82826114cf565b5050565b600081600001549050919050565b61118a828260405180602001604052806000815250611542565b5050565b6001816000016000828254019250508190555050565b8173ffffffffffffffffffffffffffffffffffffffff168373ffffffffffffffffffffffffffffffffffffffff1603611212576040517f08c379a00000000000000000000000000000000000000000000000000000000081526004016112099061305e565b60405180910390fd5b80606a60008573ffffffffffffffffffffffffffffffffffffffff1673ffffffffffffffffffffffffffffffffffffffff16815260200190815260200160002060008473ffffffffffffffffffffffffffffffffffffffff1673ffffffffffffffffffffffffffffffffffffffff16815260200190815260200160002060006101000a81548160ff0219169083151502179055508173ffffffffffffffffffffffffffffffffffffffff168373ffffffffffffffffffffffffffffffffffffffff167f17307eab39ab6107e8899845ad3d59bd9653f200f220920489ca2b5937696c31836040516113039190611e38565b60405180910390a3505050565b61131b848484610e7c565b6113278484848461159d565b611366576040517f08c379a000000000000000000000000000000000000000000000000000000000815260040161135d906130f0565b60405180910390fd5b50505050565b60008073ffffffffffffffffffffffffffffffffffffffff166067600084815260200190815260200160002060009054906101000a900473ffffffffffffffffffffffffffffffffffffffff1673ffffffffffffffffffffffffffffffffffffffff1614159050919050565b60007f80ac58cd000000000000000000000000000000000000000000000000000000007bffffffffffffffffffffffffffffffffffffffffffffffffffffffff1916827bffffffffffffffffffffffffffffffffffffffffffffffffffffffff191614806114a357507f5b5e139f000000000000000000000000000000000000000000000000000000007bffffffffffffffffffffffffffffffffffffffffffffffffffffffff1916827bffffffffffffffffffffffffffffffffffffffffffffffffffffffff1916145b806114b357506114b282611724565b5b9050919050565b6114c583838361178e565b505050565b505050565b600060019054906101000a900460ff1661151e576040517f08c379a000000000000000000000000000000000000000000000000000000000815260040161151590612ff2565b60405180910390fd5b816065908161152d9190612946565b50806066908161153d9190612946565b505050565b61154c83836118a0565b611559600084848461159d565b611598576040517f08c379a000000000000000000000000000000000000000000000000000000000815260040161158f906130f0565b60405180910390fd5b505050565b60006115be8473ffffffffffffffffffffffffffffffffffffffff166110e2565b15611717578373ffffffffffffffffffffffffffffffffffffffff1663150b7a026115e7610d26565b8786866040518563ffffffff1660e01b81526004016116099493929190613165565b6020604051808303816000875af192505050801561164557506040513d601f19601f8201168201806040525081019061164291906131c6565b60015b6116c7573d8060008114611675576040519150601f19603f3d011682016040523d82523d6000602084013e61167a565b606091505b5060008151036116bf576040517f08c379a00000000000000000000000000000000000000000000000000000000081526004016116b6906130f0565b60405180910390fd5b805181602001fd5b63150b7a0260e01b7bffffffffffffffffffffffffffffffffffffffffffffffffffffffff1916817bffffffffffffffffffffffffffffffffffffffffffffffffffffffff19161491505061171c565b600190505b949350505050565b60007f01ffc9a7000000000000000000000000000000000000000000000000000000007bffffffffffffffffffffffffffffffffffffffffffffffffffffffff1916827bffffffffffffffffffffffffffffffffffffffffffffffffffffffff1916149050919050565b611799838383611a79565b600073ffffffffffffffffffffffffffffffffffffffff168373ffffffffffffffffffffffffffffffffffffffff16036117db576117d681611a7e565b61181a565b8173ffffffffffffffffffffffffffffffffffffffff168373ffffffffffffffffffffffffffffffffffffffff1614611819576118188382611ac7565b5b5b600073ffffffffffffffffffffffffffffffffffffffff168273ffffffffffffffffffffffffffffffffffffffff160361185c5761185781611c34565b61189b565b8273ffffffffffffffffffffffffffffffffffffffff168273ffffffffffffffffffffffffffffffffffffffff161461189a576118998282611d05565b5b5b505050565b600073ffffffffffffffffffffffffffffffffffffffff168273ffffffffffffffffffffffffffffffffffffffff160361190f576040517f08c379a00000000000000000000000000000000000000000000000000000000081526004016119069061323f565b60405180910390fd5b6119188161136c565b15611958576040517f08c379a000000000000000000000000000000000000000000000000000000000815260040161194f906132ab565b60405180910390fd5b611964600083836114ba565b6001606860008473ffffffffffffffffffffffffffffffffffffffff1673ffffffffffffffffffffffffffffffffffffffff16815260200190815260200160002060008282546119b49190612f2a565b92505081905550816067600083815260200190815260200160002060006101000a81548173ffffffffffffffffffffffffffffffffffffffff021916908373ffffffffffffffffffffffffffffffffffffffff160217905550808273ffffffffffffffffffffffffffffffffffffffff16600073ffffffffffffffffffffffffffffffffffffffff167fddf252ad1be2c89b69c2b068fc378daa952ba7f163c4a11628f55a4df523b3ef60405160405180910390a4611a75600083836114ca565b5050565b505050565b609980549050609a600083815260200190815260200160002081905550609981908060018154018082558091505060019003906000526020600020016000909190919091505550565b60006001611ad484610998565b611ade9190612ef6565b9050600060986000848152602001908152602001600020549050818114611bc3576000609760008673ffffffffffffffffffffffffffffffffffffffff1673ffffffffffffffffffffffffffffffffffffffff168152602001908152602001600020600084815260200190815260200160002054905080609760008773ffffffffffffffffffffffffffffffffffffffff1673ffffffffffffffffffffffffffffffffffffffff168152602001908152602001600020600084815260200190815260200160002081905550816098600083815260200190815260200160002081905550505b6098600084815260200190815260200160002060009055609760008573ffffffffffffffffffffffffffffffffffffffff1673ffffffffffffffffffffffffffffffffffffffff16815260200190815260200160002060008381526020019081526020016000206000905550505050565b60006001609980549050611c489190612ef6565b90506000609a6000848152602001908152602001600020549050600060998381548110611c7857611c77612b0d565b5b906000526020600020015490508060998381548110611c9a57611c99612b0d565b5b906000526020600020018190555081609a600083815260200190815260200160002081905550609a6000858152602001908152602001600020600090556099805480611ce957611ce86132cb565b5b6001900381819060005260206000200160009055905550505050565b6000611d1083610998565b905081609760008573ffffffffffffffffffffffffffffffffffffffff1673ffffffffffffffffffffffffffffffffffffffff168152602001908152602001600020600083815260200190815260200160002081905550806098600084815260200190815260200160002081905550505050565b6000604051905090565b600080fd5b600080fd5b60007fffffffff0000000000000000000000000000000000000000000000000000000082169050919050565b611dcd81611d98565b8114611dd857600080fd5b50565b600081359050611dea81611dc4565b92915050565b600060208284031215611e0657611e05611d8e565b5b6000611e1484828501611ddb565b91505092915050565b60008115159050919050565b611e3281611e1d565b82525050565b6000602082019050611e4d6000830184611e29565b92915050565b600081519050919050565b600082825260208201905092915050565b60005b83811015611e8d578082015181840152602081019050611e72565b83811115611e9c576000848401525b50505050565b6000601f19601f8301169050919050565b6000611ebe82611e53565b611ec88185611e5e565b9350611ed8818560208601611e6f565b611ee181611ea2565b840191505092915050565b60006020820190508181036000830152611f068184611eb3565b905092915050565b6000819050919050565b611f2181611f0e565b8114611f2c57600080fd5b50565b600081359050611f3e81611f18565b92915050565b600060208284031215611f5a57611f59611d8e565b5b6000611f6884828501611f2f565b91505092915050565b600073ffffffffffffffffffffffffffffffffffffffff82169050919050565b6000611f9c82611f71565b9050919050565b611fac81611f91565b82525050565b6000602082019050611fc76000830184611fa3565b92915050565b611fd681611f91565b8114611fe157600080fd5b50565b600081359050611ff381611fcd565b92915050565b600080604083850312156120105761200f611d8e565b5b600061201e85828601611fe4565b925050602061202f85828601611f2f565b9150509250929050565b61204281611f0e565b82525050565b600060208201905061205d6000830184612039565b92915050565b60008060006060848603121561207c5761207b611d8e565b5b600061208a86828701611fe4565b935050602061209b86828701611fe4565b92505060406120ac86828701611f2f565b9150509250925092565b600080fd5b600080fd5b7f4e487b7100000000000000000000000000000000000000000000000000000000600052604160045260246000fd5b6120f882611ea2565b810181811067ffffffffffffffff82111715612117576121166120c0565b5b80604052505050565b600061212a611d84565b905061213682826120ef565b919050565b600067ffffffffffffffff821115612156576121556120c0565b5b61215f82611ea2565b9050602081019050919050565b82818337600083830152505050565b600061218e6121898461213b565b612120565b9050828152602081018484840111156121aa576121a96120bb565b5b6121b584828561216c565b509392505050565b600082601f8301126121d2576121d16120b6565b5b81356121e284826020860161217b565b91505092915050565b6000806040838503121561220257612201611d8e565b5b600083013567ffffffffffffffff8111156122205761221f611d93565b5b61222c858286016121bd565b925050602083013567ffffffffffffffff81111561224d5761224c611d93565b5b612259858286016121bd565b9150509250929050565b60006020828403121561227957612278611d8e565b5b600061228784828501611fe4565b91505092915050565b61229981611e1d565b81146122a457600080fd5b50565b6000813590506122b681612290565b92915050565b600080604083850312156122d3576122d2611d8e565b5b60006122e185828601611fe4565b92505060206122f2858286016122a7565b9150509250929050565b600067ffffffffffffffff821115612317576123166120c0565b5b61232082611ea2565b9050602081019050919050565b600061234061233b846122fc565b612120565b90508281526020810184848401111561235c5761235b6120bb565b5b61236784828561216c565b509392505050565b600082601f830112612384576123836120b6565b5b813561239484826020860161232d565b91505092915050565b600080600080608085870312156123b7576123b6611d8e565b5b60006123c587828801611fe4565b94505060206123d687828801611fe4565b93505060406123e787828801611f2f565b925050606085013567ffffffffffffffff81111561240857612407611d93565b5b6124148782880161236f565b91505092959194509250565b6000806040838503121561243757612436611d8e565b5b600061244585828601611fe4565b925050602061245685828601611fe4565b9150509250929050565b7f4e487b7100000000000000000000000000000000000000000000000000000000600052602260045260246000fd5b600060028204905060018216806124a757607f821691505b6020821081036124ba576124b9612460565b5b50919050565b7f4552433732313a20617070726f76616c20746f2063757272656e74206f776e6560008201527f7200000000000000000000000000000000000000000000000000000000000000602082015250565b600061251c602183611e5e565b9150612527826124c0565b604082019050919050565b6000602082019050818103600083015261254b8161250f565b9050919050565b7f4552433732313a20617070726f76652063616c6c6572206973206e6f7420746f60008201527f6b656e206f776e6572206e6f7220617070726f76656420666f7220616c6c0000602082015250565b60006125ae603e83611e5e565b91506125b982612552565b604082019050919050565b600060208201905081810360008301526125dd816125a1565b9050919050565b7f4552433732313a2063616c6c6572206973206e6f7420746f6b656e206f776e6560008201527f72206e6f7220617070726f766564000000000000000000000000000000000000602082015250565b6000612640602e83611e5e565b915061264b826125e4565b604082019050919050565b6000602082019050818103600083015261266f81612633565b9050919050565b7f455243373231456e756d657261626c653a206f776e657220696e646578206f7560008201527f74206f6620626f756e6473000000000000000000000000000000000000000000602082015250565b60006126d2602b83611e5e565b91506126dd82612676565b604082019050919050565b60006020820190508181036000830152612701816126c5565b9050919050565b7f496e697469616c697a61626c653a20636f6e747261637420697320616c72656160008201527f647920696e697469616c697a6564000000000000000000000000000000000000602082015250565b6000612764602e83611e5e565b915061276f82612708565b604082019050919050565b6000602082019050818103600083015261279381612757565b9050919050565b60008190508160005260206000209050919050565b60006020601f8301049050919050565b600082821b905092915050565b6000600883026127fc7fffffffffffffffffffffffffffffffffffffffffffffffffffffffffffffffff826127bf565b61280686836127bf565b95508019841693508086168417925050509392505050565b6000819050919050565b600061284361283e61283984611f0e565b61281e565b611f0e565b9050919050565b6000819050919050565b61285d83612828565b6128716128698261284a565b8484546127cc565b825550505050565b600090565b612886612879565b612891818484612854565b505050565b5b818110156128b5576128aa60008261287e565b600181019050612897565b5050565b601f8211156128fa576128cb8161279a565b6128d4846127af565b810160208510156128e3578190505b6128f76128ef856127af565b830182612896565b50505b505050565b600082821c905092915050565b600061291d600019846008026128ff565b1980831691505092915050565b6000612936838361290c565b9150826002028217905092915050565b61294f82611e53565b67ffffffffffffffff811115612968576129676120c0565b5b612972825461248f565b61297d8282856128b9565b600060209050601f8311600181146129b0576000841561299e578287015190505b6129a8858261292a565b865550612a10565b601f1984166129be8661279a565b60005b828110156129e6578489015182556001820191506020850194506020810190506129c1565b86831015612a0357848901516129ff601f89168261290c565b8355505b6001600288020188555050505b505050505050565b6000819050919050565b600060ff82169050919050565b6000612a4a612a45612a4084612a18565b61281e565b612a22565b9050919050565b612a5a81612a2f565b82525050565b6000602082019050612a756000830184612a51565b92915050565b7f455243373231456e756d657261626c653a20676c6f62616c20696e646578206f60008201527f7574206f6620626f756e64730000000000000000000000000000000000000000602082015250565b6000612ad7602c83611e5e565b9150612ae282612a7b565b604082019050919050565b60006020820190508181036000830152612b0681612aca565b9050919050565b7f4e487b7100000000000000000000000000000000000000000000000000000000600052603260045260246000fd5b7f4552433732313a20696e76616c696420746f6b656e2049440000000000000000600082015250565b6000612b72601883611e5e565b9150612b7d82612b3c565b602082019050919050565b60006020820190508181036000830152612ba181612b65565b9050919050565b7f4552433732313a2061646472657373207a65726f206973206e6f74206120766160008201527f6c6964206f776e65720000000000000000000000000000000000000000000000602082015250565b6000612c04602983611e5e565b9150612c0f82612ba8565b604082019050919050565b60006020820190508181036000830152612c3381612bf7565b9050919050565b7f4552433732314d657461646174613a2055524920717565727920666f72206e6f60008201527f6e6578697374656e7420746f6b656e0000000000000000000000000000000000602082015250565b6000612c96602f83611e5e565b9150612ca182612c3a565b604082019050919050565b60006020820190508181036000830152612cc581612c89565b9050919050565b600081905092915050565b60008154612ce48161248f565b612cee8186612ccc565b94506001821660008114612d095760018114612d1e57612d51565b60ff1983168652811515820286019350612d51565b612d278561279a565b60005b83811015612d4957815481890152600182019150602081019050612d2a565b838801955050505b50505092915050565b6000819050919050565b612d75612d7082611f0e565b612d5a565b82525050565b6000612d878285612cd7565b9150612d938284612d64565b6020820191508190509392505050565b7f4552433732313a207472616e736665722066726f6d20696e636f72726563742060008201527f6f776e6572000000000000000000000000000000000000000000000000000000602082015250565b6000612dff602583611e5e565b9150612e0a82612da3565b604082019050919050565b60006020820190508181036000830152612e2e81612df2565b9050919050565b7f4552433732313a207472616e7366657220746f20746865207a65726f2061646460008201527f7265737300000000000000000000000000000000000000000000000000000000602082015250565b6000612e91602483611e5e565b9150612e9c82612e35565b604082019050919050565b60006020820190508181036000830152612ec081612e84565b9050919050565b7f4e487b7100000000000000000000000000000000000000000000000000000000600052601160045260246000fd5b6000612f0182611f0e565b9150612f0c83611f0e565b925082821015612f1f57612f1e612ec7565b5b828203905092915050565b6000612f3582611f0e565b9150612f4083611f0e565b9250827fffffffffffffffffffffffffffffffffffffffffffffffffffffffffffffffff03821115612f7557612f74612ec7565b5b828201905092915050565b7f496e697469616c697a61626c653a20636f6e7472616374206973206e6f74206960008201527f6e697469616c697a696e67000000000000000000000000000000000000000000602082015250565b6000612fdc602b83611e5e565b9150612fe782612f80565b604082019050919050565b6000602082019050818103600083015261300b81612fcf565b9050919050565b7f4552433732313a20617070726f766520746f2063616c6c657200000000000000600082015250565b6000613048601983611e5e565b915061305382613012565b602082019050919050565b600060208201905081810360008301526130778161303b565b9050919050565b7f4552433732313a207472616e7366657220746f206e6f6e20455243373231526560008201527f63656976657220696d706c656d656e7465720000000000000000000000000000602082015250565b60006130da603283611e5e565b91506130e58261307e565b604082019050919050565b60006020820190508181036000830152613109816130cd565b9050919050565b600081519050919050565b600082825260208201905092915050565b600061313782613110565b613141818561311b565b9350613151818560208601611e6f565b61315a81611ea2565b840191505092915050565b600060808201905061317a6000830187611fa3565b6131876020830186611fa3565b6131946040830185612039565b81810360608301526131a6818461312c565b905095945050505050565b6000815190506131c081611dc4565b92915050565b6000602082840312156131dc576131db611d8e565b5b60006131ea848285016131b1565b91505092915050565b7f4552433732313a206d696e7420746f20746865207a65726f2061646472657373600082015250565b6000613229602083611e5e565b9150613234826131f3565b602082019050919050565b600060208201905081810360008301526132588161321c565b9050919050565b7f4552433732313a20746f6b656e20616c7265616479206d696e74656400000000600082015250565b6000613295601c83611e5e565b91506132a08261325f565b602082019050919050565b600060208201905081810360008301526132c481613288565b9050919050565b7f4e487b7100000000000000000000000000000000000000000000000000000000600052603160045260246000fdfe697066733a2f2f516d65536a53696e4870506e6d586d73704d6a776958794e367a533445397a63636172694752336a7863615774712fa2646970667358221220ee9617f4d7278026e143a38edbc96bbc1d9b1d9263ff688ca9b7b278b89130bc64736f6c634300080f0033",
  "devdoc": {
    "kind": "dev",
    "methods": {
      "approve(address,uint256)": {
        "details": "See {IERC721-approve}."
      },
      "balanceOf(address)": {
        "details": "See {IERC721-balanceOf}."
      },
      "getApproved(uint256)": {
        "details": "See {IERC721-getApproved}."
      },
      "isApprovedForAll(address,address)": {
        "details": "See {IERC721-isApprovedForAll}."
      },
      "name()": {
        "details": "See {IERC721Metadata-name}."
      },
      "ownerOf(uint256)": {
        "details": "See {IERC721-ownerOf}."
      },
      "safeTransferFrom(address,address,uint256)": {
        "details": "See {IERC721-safeTransferFrom}."
      },
      "safeTransferFrom(address,address,uint256,bytes)": {
        "details": "See {IERC721-safeTransferFrom}."
      },
      "setApprovalForAll(address,bool)": {
        "details": "See {IERC721-setApprovalForAll}."
      },
      "supportsInterface(bytes4)": {
        "details": "See {IERC165-supportsInterface}."
      },
      "symbol()": {
        "details": "See {IERC721Metadata-symbol}."
      },
      "tokenByIndex(uint256)": {
        "details": "See {IERC721Enumerable-tokenByIndex}."
      },
      "tokenOfOwnerByIndex(address,uint256)": {
        "details": "See {IERC721Enumerable-tokenOfOwnerByIndex}."
      },
      "tokenURI(uint256)": {
        "details": "See {IERC721Metadata-tokenURI}."
      },
      "totalSupply()": {
        "details": "See {IERC721Enumerable-totalSupply}."
      },
      "transferFrom(address,address,uint256)": {
        "details": "See {IERC721-transferFrom}."
      }
    },
    "version": 1
  },
  "userdoc": {
    "kind": "user",
    "methods": {},
    "version": 1
  },
  "storageLayout": {
    "storage": [
      {
        "astId": 497,
        "contract": "contracts/mocks/MockErc721.sol:MockErc721",
        "label": "_initialized",
        "offset": 0,
        "slot": "0",
        "type": "t_uint8"
      },
      {
        "astId": 500,
        "contract": "contracts/mocks/MockErc721.sol:MockErc721",
        "label": "_initializing",
        "offset": 1,
        "slot": "0",
        "type": "t_bool"
      },
      {
        "astId": 4310,
        "contract": "contracts/mocks/MockErc721.sol:MockErc721",
        "label": "__gap",
        "offset": 0,
        "slot": "1",
        "type": "t_array(t_uint256)50_storage"
      },
      {
        "astId": 5192,
        "contract": "contracts/mocks/MockErc721.sol:MockErc721",
        "label": "__gap",
        "offset": 0,
        "slot": "51",
        "type": "t_array(t_uint256)50_storage"
      },
      {
        "astId": 2613,
        "contract": "contracts/mocks/MockErc721.sol:MockErc721",
        "label": "_name",
        "offset": 0,
        "slot": "101",
        "type": "t_string_storage"
      },
      {
        "astId": 2615,
        "contract": "contracts/mocks/MockErc721.sol:MockErc721",
        "label": "_symbol",
        "offset": 0,
        "slot": "102",
        "type": "t_string_storage"
      },
      {
        "astId": 2619,
        "contract": "contracts/mocks/MockErc721.sol:MockErc721",
        "label": "_owners",
        "offset": 0,
        "slot": "103",
        "type": "t_mapping(t_uint256,t_address)"
      },
      {
        "astId": 2623,
        "contract": "contracts/mocks/MockErc721.sol:MockErc721",
        "label": "_balances",
        "offset": 0,
        "slot": "104",
        "type": "t_mapping(t_address,t_uint256)"
      },
      {
        "astId": 2627,
        "contract": "contracts/mocks/MockErc721.sol:MockErc721",
        "label": "_tokenApprovals",
        "offset": 0,
        "slot": "105",
        "type": "t_mapping(t_uint256,t_address)"
      },
      {
        "astId": 2633,
        "contract": "contracts/mocks/MockErc721.sol:MockErc721",
        "label": "_operatorApprovals",
        "offset": 0,
        "slot": "106",
        "type": "t_mapping(t_address,t_mapping(t_address,t_bool))"
      },
      {
        "astId": 3475,
        "contract": "contracts/mocks/MockErc721.sol:MockErc721",
        "label": "__gap",
        "offset": 0,
        "slot": "107",
        "type": "t_array(t_uint256)44_storage"
      },
      {
        "astId": 3640,
        "contract": "contracts/mocks/MockErc721.sol:MockErc721",
        "label": "_ownedTokens",
        "offset": 0,
        "slot": "151",
        "type": "t_mapping(t_address,t_mapping(t_uint256,t_uint256))"
      },
      {
        "astId": 3644,
        "contract": "contracts/mocks/MockErc721.sol:MockErc721",
        "label": "_ownedTokensIndex",
        "offset": 0,
        "slot": "152",
        "type": "t_mapping(t_uint256,t_uint256)"
      },
      {
        "astId": 3647,
        "contract": "contracts/mocks/MockErc721.sol:MockErc721",
        "label": "_allTokens",
        "offset": 0,
        "slot": "153",
        "type": "t_array(t_uint256)dyn_storage"
      },
      {
        "astId": 3651,
        "contract": "contracts/mocks/MockErc721.sol:MockErc721",
        "label": "_allTokensIndex",
        "offset": 0,
        "slot": "154",
        "type": "t_mapping(t_uint256,t_uint256)"
      },
      {
        "astId": 3967,
        "contract": "contracts/mocks/MockErc721.sol:MockErc721",
        "label": "__gap",
        "offset": 0,
        "slot": "155",
        "type": "t_array(t_uint256)46_storage"
      },
      {
        "astId": 15042,
        "contract": "contracts/mocks/MockErc721.sol:MockErc721",
        "label": "_tokenIdCounter",
        "offset": 0,
        "slot": "201",
        "type": "t_struct(Counter)10466_storage"
      },
      {
        "astId": 15044,
        "contract": "contracts/mocks/MockErc721.sol:MockErc721",
        "label": "baseURI",
        "offset": 0,
        "slot": "202",
        "type": "t_string_storage"
      }
    ],
    "types": {
      "t_address": {
        "encoding": "inplace",
        "label": "address",
        "numberOfBytes": "20"
      },
      "t_array(t_uint256)44_storage": {
        "base": "t_uint256",
        "encoding": "inplace",
        "label": "uint256[44]",
        "numberOfBytes": "1408"
      },
      "t_array(t_uint256)46_storage": {
        "base": "t_uint256",
        "encoding": "inplace",
        "label": "uint256[46]",
        "numberOfBytes": "1472"
      },
      "t_array(t_uint256)50_storage": {
        "base": "t_uint256",
        "encoding": "inplace",
        "label": "uint256[50]",
        "numberOfBytes": "1600"
      },
      "t_array(t_uint256)dyn_storage": {
        "base": "t_uint256",
        "encoding": "dynamic_array",
        "label": "uint256[]",
        "numberOfBytes": "32"
      },
      "t_bool": {
        "encoding": "inplace",
        "label": "bool",
        "numberOfBytes": "1"
      },
      "t_mapping(t_address,t_bool)": {
        "encoding": "mapping",
        "key": "t_address",
        "label": "mapping(address => bool)",
        "numberOfBytes": "32",
        "value": "t_bool"
      },
      "t_mapping(t_address,t_mapping(t_address,t_bool))": {
        "encoding": "mapping",
        "key": "t_address",
        "label": "mapping(address => mapping(address => bool))",
        "numberOfBytes": "32",
        "value": "t_mapping(t_address,t_bool)"
      },
      "t_mapping(t_address,t_mapping(t_uint256,t_uint256))": {
        "encoding": "mapping",
        "key": "t_address",
        "label": "mapping(address => mapping(uint256 => uint256))",
        "numberOfBytes": "32",
        "value": "t_mapping(t_uint256,t_uint256)"
      },
      "t_mapping(t_address,t_uint256)": {
        "encoding": "mapping",
        "key": "t_address",
        "label": "mapping(address => uint256)",
        "numberOfBytes": "32",
        "value": "t_uint256"
      },
      "t_mapping(t_uint256,t_address)": {
        "encoding": "mapping",
        "key": "t_uint256",
        "label": "mapping(uint256 => address)",
        "numberOfBytes": "32",
        "value": "t_address"
      },
      "t_mapping(t_uint256,t_uint256)": {
        "encoding": "mapping",
        "key": "t_uint256",
        "label": "mapping(uint256 => uint256)",
        "numberOfBytes": "32",
        "value": "t_uint256"
      },
      "t_string_storage": {
        "encoding": "bytes",
        "label": "string",
        "numberOfBytes": "32"
      },
      "t_struct(Counter)10466_storage": {
        "encoding": "inplace",
        "label": "struct Counters.Counter",
        "members": [
          {
            "astId": 10465,
            "contract": "contracts/mocks/MockErc721.sol:MockErc721",
            "label": "_value",
            "offset": 0,
            "slot": "0",
            "type": "t_uint256"
          }
        ],
        "numberOfBytes": "32"
      },
      "t_uint256": {
        "encoding": "inplace",
        "label": "uint256",
        "numberOfBytes": "32"
      },
      "t_uint8": {
        "encoding": "inplace",
        "label": "uint8",
        "numberOfBytes": "1"
      }
    }
  }
}