{
  "address": "0x7F6e68021C3f74Bfd64302ad033d04D096CAA05A",
  "abi": [
    {
      "anonymous": false,
      "inputs": [
        {
          "indexed": false,
          "internalType": "uint8",
          "name": "version",
          "type": "uint8"
        }
      ],
      "name": "Initialized",
      "type": "event"
    },
    {
      "anonymous": false,
      "inputs": [
        {
          "indexed": true,
          "internalType": "bytes32",
          "name": "role",
          "type": "bytes32"
        },
        {
          "indexed": true,
          "internalType": "bytes32",
          "name": "previousAdminRole",
          "type": "bytes32"
        },
        {
          "indexed": true,
          "internalType": "bytes32",
          "name": "newAdminRole",
          "type": "bytes32"
        }
      ],
      "name": "RoleAdminChanged",
      "type": "event"
    },
    {
      "anonymous": false,
      "inputs": [
        {
          "indexed": true,
          "internalType": "bytes32",
          "name": "role",
          "type": "bytes32"
        },
        {
          "indexed": true,
          "internalType": "address",
          "name": "account",
          "type": "address"
        },
        {
          "indexed": true,
          "internalType": "address",
          "name": "sender",
          "type": "address"
        }
      ],
      "name": "RoleGranted",
      "type": "event"
    },
    {
      "anonymous": false,
      "inputs": [
        {
          "indexed": true,
          "internalType": "bytes32",
          "name": "role",
          "type": "bytes32"
        },
        {
          "indexed": true,
          "internalType": "address",
          "name": "account",
          "type": "address"
        },
        {
          "indexed": true,
          "internalType": "address",
          "name": "sender",
          "type": "address"
        }
      ],
      "name": "RoleRevoked",
      "type": "event"
    },
    {
      "inputs": [],
      "name": "DEFAULT_ADMIN_ROLE",
      "outputs": [
        {
          "internalType": "bytes32",
          "name": "",
          "type": "bytes32"
        }
      ],
      "stateMutability": "view",
      "type": "function"
    },
    {
      "inputs": [
        {
          "internalType": "bytes32",
          "name": "role",
          "type": "bytes32"
        }
      ],
      "name": "getRoleAdmin",
      "outputs": [
        {
          "internalType": "bytes32",
          "name": "",
          "type": "bytes32"
        }
      ],
      "stateMutability": "view",
      "type": "function"
    },
    {
      "inputs": [
        {
          "internalType": "bytes32",
          "name": "role",
          "type": "bytes32"
        },
        {
          "internalType": "address",
          "name": "account",
          "type": "address"
        }
      ],
      "name": "grantRole",
      "outputs": [],
      "stateMutability": "nonpayable",
      "type": "function"
    },
    {
      "inputs": [
        {
          "internalType": "bytes32",
          "name": "role",
          "type": "bytes32"
        },
        {
          "internalType": "address",
          "name": "account",
          "type": "address"
        }
      ],
      "name": "hasRole",
      "outputs": [
        {
          "internalType": "bool",
          "name": "",
          "type": "bool"
        }
      ],
      "stateMutability": "view",
      "type": "function"
    },
    {
      "inputs": [],
      "name": "initialize",
      "outputs": [],
      "stateMutability": "nonpayable",
      "type": "function"
    },
    {
      "inputs": [
        {
          "internalType": "bytes32",
          "name": "role",
          "type": "bytes32"
        },
        {
          "internalType": "address",
          "name": "account",
          "type": "address"
        }
      ],
      "name": "renounceRole",
      "outputs": [],
      "stateMutability": "nonpayable",
      "type": "function"
    },
    {
      "inputs": [
        {
          "internalType": "bytes32",
          "name": "role",
          "type": "bytes32"
        },
        {
          "internalType": "address",
          "name": "account",
          "type": "address"
        }
      ],
      "name": "revokeRole",
      "outputs": [],
      "stateMutability": "nonpayable",
      "type": "function"
    },
    {
      "inputs": [
        {
          "internalType": "bytes4",
          "name": "interfaceId",
          "type": "bytes4"
        }
      ],
      "name": "supportsInterface",
      "outputs": [
        {
          "internalType": "bool",
          "name": "",
          "type": "bool"
        }
      ],
      "stateMutability": "view",
      "type": "function"
    }
  ],
  "numDeployments": 1,
  "solcInputHash": "1f6ace66b8f5291bca922bf889722c82",
  "bytecode": "0x608060405234801561001057600080fd5b50611242806100206000396000f3fe608060405234801561001057600080fd5b50600436106100885760003560e01c80638129fc1c1161005b5780638129fc1c1461012557806391d148541461012f578063a217fddf1461015f578063d547741f1461017d57610088565b806301ffc9a71461008d578063248a9ca3146100bd5780632f2ff15d146100ed57806336568abe14610109575b600080fd5b6100a760048036038101906100a29190610ab6565b610199565b6040516100b49190610afe565b60405180910390f35b6100d760048036038101906100d29190610b4f565b610213565b6040516100e49190610b8b565b60405180910390f35b61010760048036038101906101029190610c04565b610233565b005b610123600480360381019061011e9190610c04565b610254565b005b61012d6102d7565b005b61014960048036038101906101449190610c04565b610422565b6040516101569190610afe565b60405180910390f35b61016761048d565b6040516101749190610b8b565b60405180910390f35b61019760048036038101906101929190610c04565b610494565b005b60007f7965db0b000000000000000000000000000000000000000000000000000000007bffffffffffffffffffffffffffffffffffffffffffffffffffffffff1916827bffffffffffffffffffffffffffffffffffffffffffffffffffffffff1916148061020c575061020b826104b5565b5b9050919050565b600060656000838152602001908152602001600020600101549050919050565b61023c82610213565b6102458161051f565b61024f8383610533565b505050565b61025c610614565b73ffffffffffffffffffffffffffffffffffffffff168173ffffffffffffffffffffffffffffffffffffffff16146102c9576040517f08c379a00000000000000000000000000000000000000000000000000000000081526004016102c090610cc7565b60405180910390fd5b6102d3828261061c565b5050565b60008060019054906101000a900460ff161590508080156103085750600160008054906101000a900460ff1660ff16105b806103355750610317306106fe565b1580156103345750600160008054906101000a900460ff1660ff16145b5b610374576040517f08c379a000000000000000000000000000000000000000000000000000000000815260040161036b90610d59565b60405180910390fd5b60016000806101000a81548160ff021916908360ff16021790555080156103b1576001600060016101000a81548160ff0219169083151502179055505b6103b9610721565b6103c66000801b33610772565b801561041f5760008060016101000a81548160ff0219169083151502179055507f7f26b83ff96e1f2b6a682f133852f6798a09c465da95921460cefb384740249860016040516104169190610dcb565b60405180910390a15b50565b60006065600084815260200190815260200160002060000160008373ffffffffffffffffffffffffffffffffffffffff1673ffffffffffffffffffffffffffffffffffffffff16815260200190815260200160002060009054906101000a900460ff16905092915050565b6000801b81565b61049d82610213565b6104a68161051f565b6104b0838361061c565b505050565b60007f01ffc9a7000000000000000000000000000000000000000000000000000000007bffffffffffffffffffffffffffffffffffffffffffffffffffffffff1916827bffffffffffffffffffffffffffffffffffffffffffffffffffffffff1916149050919050565b6105308161052b610614565b610780565b50565b61053d8282610422565b6106105760016065600084815260200190815260200160002060000160008373ffffffffffffffffffffffffffffffffffffffff1673ffffffffffffffffffffffffffffffffffffffff16815260200190815260200160002060006101000a81548160ff0219169083151502179055506105b5610614565b73ffffffffffffffffffffffffffffffffffffffff168173ffffffffffffffffffffffffffffffffffffffff16837f2f8788117e7eff1d82e926ec794901d17c78024a50270940304540a733656f0d60405160405180910390a45b5050565b600033905090565b6106268282610422565b156106fa5760006065600084815260200190815260200160002060000160008373ffffffffffffffffffffffffffffffffffffffff1673ffffffffffffffffffffffffffffffffffffffff16815260200190815260200160002060006101000a81548160ff02191690831515021790555061069f610614565b73ffffffffffffffffffffffffffffffffffffffff168173ffffffffffffffffffffffffffffffffffffffff16837ff6391f5c32d9c69d2a47ea670b442974b53935d1edc7fd64eb21e047a839171b60405160405180910390a45b5050565b6000808273ffffffffffffffffffffffffffffffffffffffff163b119050919050565b600060019054906101000a900460ff16610770576040517f08c379a000000000000000000000000000000000000000000000000000000000815260040161076790610e58565b60405180910390fd5b565b61077c8282610533565b5050565b61078a8282610422565b610819576107af8173ffffffffffffffffffffffffffffffffffffffff16601461081d565b6107bd8360001c602061081d565b6040516020016107ce929190610f8a565b6040516020818303038152906040526040517f08c379a0000000000000000000000000000000000000000000000000000000008152600401610810919061100e565b60405180910390fd5b5050565b6060600060028360026108309190611069565b61083a91906110c3565b67ffffffffffffffff81111561085357610852611119565b5b6040519080825280601f01601f1916602001820160405280156108855781602001600182028036833780820191505090505b5090507f3000000000000000000000000000000000000000000000000000000000000000816000815181106108bd576108bc611148565b5b60200101907effffffffffffffffffffffffffffffffffffffffffffffffffffffffffffff1916908160001a9053507f78000000000000000000000000000000000000000000000000000000000000008160018151811061092157610920611148565b5b60200101907effffffffffffffffffffffffffffffffffffffffffffffffffffffffffffff1916908160001a905350600060018460026109619190611069565b61096b91906110c3565b90505b6001811115610a0b577f3031323334353637383961626364656600000000000000000000000000000000600f8616601081106109ad576109ac611148565b5b1a60f81b8282815181106109c4576109c3611148565b5b60200101907effffffffffffffffffffffffffffffffffffffffffffffffffffffffffffff1916908160001a905350600485901c945080610a0490611177565b905061096e565b5060008414610a4f576040517f08c379a0000000000000000000000000000000000000000000000000000000008152600401610a46906111ec565b60405180910390fd5b8091505092915050565b600080fd5b60007fffffffff0000000000000000000000000000000000000000000000000000000082169050919050565b610a9381610a5e565b8114610a9e57600080fd5b50565b600081359050610ab081610a8a565b92915050565b600060208284031215610acc57610acb610a59565b5b6000610ada84828501610aa1565b91505092915050565b60008115159050919050565b610af881610ae3565b82525050565b6000602082019050610b136000830184610aef565b92915050565b6000819050919050565b610b2c81610b19565b8114610b3757600080fd5b50565b600081359050610b4981610b23565b92915050565b600060208284031215610b6557610b64610a59565b5b6000610b7384828501610b3a565b91505092915050565b610b8581610b19565b82525050565b6000602082019050610ba06000830184610b7c565b92915050565b600073ffffffffffffffffffffffffffffffffffffffff82169050919050565b6000610bd182610ba6565b9050919050565b610be181610bc6565b8114610bec57600080fd5b50565b600081359050610bfe81610bd8565b92915050565b60008060408385031215610c1b57610c1a610a59565b5b6000610c2985828601610b3a565b9250506020610c3a85828601610bef565b9150509250929050565b600082825260208201905092915050565b7f416363657373436f6e74726f6c3a2063616e206f6e6c792072656e6f756e636560008201527f20726f6c657320666f722073656c660000000000000000000000000000000000602082015250565b6000610cb1602f83610c44565b9150610cbc82610c55565b604082019050919050565b60006020820190508181036000830152610ce081610ca4565b9050919050565b7f496e697469616c697a61626c653a20636f6e747261637420697320616c72656160008201527f647920696e697469616c697a6564000000000000000000000000000000000000602082015250565b6000610d43602e83610c44565b9150610d4e82610ce7565b604082019050919050565b60006020820190508181036000830152610d7281610d36565b9050919050565b6000819050919050565b600060ff82169050919050565b6000819050919050565b6000610db5610db0610dab84610d79565b610d90565b610d83565b9050919050565b610dc581610d9a565b82525050565b6000602082019050610de06000830184610dbc565b92915050565b7f496e697469616c697a61626c653a20636f6e7472616374206973206e6f74206960008201527f6e697469616c697a696e67000000000000000000000000000000000000000000602082015250565b6000610e42602b83610c44565b9150610e4d82610de6565b604082019050919050565b60006020820190508181036000830152610e7181610e35565b9050919050565b600081905092915050565b7f416363657373436f6e74726f6c3a206163636f756e7420000000000000000000600082015250565b6000610eb9601783610e78565b9150610ec482610e83565b601782019050919050565b600081519050919050565b60005b83811015610ef8578082015181840152602081019050610edd565b83811115610f07576000848401525b50505050565b6000610f1882610ecf565b610f228185610e78565b9350610f32818560208601610eda565b80840191505092915050565b7f206973206d697373696e6720726f6c6520000000000000000000000000000000600082015250565b6000610f74601183610e78565b9150610f7f82610f3e565b601182019050919050565b6000610f9582610eac565b9150610fa18285610f0d565b9150610fac82610f67565b9150610fb88284610f0d565b91508190509392505050565b6000601f19601f8301169050919050565b6000610fe082610ecf565b610fea8185610c44565b9350610ffa818560208601610eda565b61100381610fc4565b840191505092915050565b600060208201905081810360008301526110288184610fd5565b905092915050565b6000819050919050565b7f4e487b7100000000000000000000000000000000000000000000000000000000600052601160045260246000fd5b600061107482611030565b915061107f83611030565b9250817fffffffffffffffffffffffffffffffffffffffffffffffffffffffffffffffff04831182151516156110b8576110b761103a565b5b828202905092915050565b60006110ce82611030565b91506110d983611030565b9250827fffffffffffffffffffffffffffffffffffffffffffffffffffffffffffffffff0382111561110e5761110d61103a565b5b828201905092915050565b7f4e487b7100000000000000000000000000000000000000000000000000000000600052604160045260246000fd5b7f4e487b7100000000000000000000000000000000000000000000000000000000600052603260045260246000fd5b600061118282611030565b9150600082036111955761119461103a565b5b600182039050919050565b7f537472696e67733a20686578206c656e67746820696e73756666696369656e74600082015250565b60006111d6602083610c44565b91506111e1826111a0565b602082019050919050565b60006020820190508181036000830152611205816111c9565b905091905056fea26469706673582212203792607146bd13c7870fec2668ae6901db32e7f863ab5887a44938d7615b5c6a64736f6c634300080f0033",
  "devdoc": {
    "details": "Access control for contracts. SuVaultParameters can be inherited from it.",
    "kind": "dev",
    "methods": {
      "getRoleAdmin(bytes32)": {
        "details": "Returns the admin role that controls `role`. See {grantRole} and {revokeRole}. To change a role's admin, use {_setRoleAdmin}."
      },
      "grantRole(bytes32,address)": {
        "details": "Grants `role` to `account`. If `account` had not been already granted `role`, emits a {RoleGranted} event. Requirements: - the caller must have ``role``'s admin role. May emit a {RoleGranted} event."
      },
      "hasRole(bytes32,address)": {
        "details": "Returns `true` if `account` has been granted `role`."
      },
      "initialize()": {
        "details": "Initialize the contract with initial owner to be deployer"
      },
      "renounceRole(bytes32,address)": {
        "details": "Revokes `role` from the calling account. Roles are often managed via {grantRole} and {revokeRole}: this function's purpose is to provide a mechanism for accounts to lose their privileges if they are compromised (such as when a trusted device is misplaced). If the calling account had been revoked `role`, emits a {RoleRevoked} event. Requirements: - the caller must be `account`. May emit a {RoleRevoked} event."
      },
      "revokeRole(bytes32,address)": {
        "details": "Revokes `role` from `account`. If `account` had been granted `role`, emits a {RoleRevoked} event. Requirements: - the caller must have ``role``'s admin role. May emit a {RoleRevoked} event."
      },
      "supportsInterface(bytes4)": {
        "details": "See {IERC165-supportsInterface}."
      }
    },
    "title": "SuAccessControl",
    "version": 1
  },
  "userdoc": {
    "kind": "user",
    "methods": {},
    "version": 1
  },
  "storageLayout": {
    "storage": [
      {
        "astId": 419,
        "contract": "contracts/access-control/SuAccessControlSingleton.sol:SuAccessControlSingleton",
        "label": "_initialized",
        "offset": 0,
        "slot": "0",
        "type": "t_uint8"
      },
      {
        "astId": 422,
        "contract": "contracts/access-control/SuAccessControlSingleton.sol:SuAccessControlSingleton",
        "label": "_initializing",
        "offset": 1,
        "slot": "0",
        "type": "t_bool"
      },
      {
        "astId": 1878,
        "contract": "contracts/access-control/SuAccessControlSingleton.sol:SuAccessControlSingleton",
        "label": "__gap",
        "offset": 0,
        "slot": "1",
        "type": "t_array(t_uint256)50_storage"
      },
      {
        "astId": 2148,
        "contract": "contracts/access-control/SuAccessControlSingleton.sol:SuAccessControlSingleton",
        "label": "__gap",
        "offset": 0,
        "slot": "51",
        "type": "t_array(t_uint256)50_storage"
      },
      {
        "astId": 39,
        "contract": "contracts/access-control/SuAccessControlSingleton.sol:SuAccessControlSingleton",
        "label": "_roles",
        "offset": 0,
        "slot": "101",
        "type": "t_mapping(t_bytes32,t_struct(RoleData)34_storage)"
      },
      {
        "astId": 338,
        "contract": "contracts/access-control/SuAccessControlSingleton.sol:SuAccessControlSingleton",
        "label": "__gap",
        "offset": 0,
        "slot": "102",
        "type": "t_array(t_uint256)49_storage"
      }
    ],
    "types": {
      "t_address": {
        "encoding": "inplace",
        "label": "address",
        "numberOfBytes": "20"
      },
      "t_array(t_uint256)49_storage": {
        "base": "t_uint256",
        "encoding": "inplace",
        "label": "uint256[49]",
        "numberOfBytes": "1568"
      },
      "t_array(t_uint256)50_storage": {
        "base": "t_uint256",
        "encoding": "inplace",
        "label": "uint256[50]",
        "numberOfBytes": "1600"
      },
      "t_bool": {
        "encoding": "inplace",
        "label": "bool",
        "numberOfBytes": "1"
      },
      "t_bytes32": {
        "encoding": "inplace",
        "label": "bytes32",
        "numberOfBytes": "32"
      },
      "t_mapping(t_address,t_bool)": {
        "encoding": "mapping",
        "key": "t_address",
        "label": "mapping(address => bool)",
        "numberOfBytes": "32",
        "value": "t_bool"
      },
      "t_mapping(t_bytes32,t_struct(RoleData)34_storage)": {
        "encoding": "mapping",
        "key": "t_bytes32",
        "label": "mapping(bytes32 => struct AccessControlUpgradeable.RoleData)",
        "numberOfBytes": "32",
        "value": "t_struct(RoleData)34_storage"
      },
      "t_struct(RoleData)34_storage": {
        "encoding": "inplace",
        "label": "struct AccessControlUpgradeable.RoleData",
        "members": [
          {
            "astId": 31,
            "contract": "contracts/access-control/SuAccessControlSingleton.sol:SuAccessControlSingleton",
            "label": "members",
            "offset": 0,
            "slot": "0",
            "type": "t_mapping(t_address,t_bool)"
          },
          {
            "astId": 33,
            "contract": "contracts/access-control/SuAccessControlSingleton.sol:SuAccessControlSingleton",
            "label": "adminRole",
            "offset": 0,
            "slot": "1",
            "type": "t_bytes32"
          }
        ],
        "numberOfBytes": "64"
      },
      "t_uint256": {
        "encoding": "inplace",
        "label": "uint256",
        "numberOfBytes": "32"
      },
      "t_uint8": {
        "encoding": "inplace",
        "label": "uint8",
        "numberOfBytes": "1"
      }
    }
  }
}