{
  "address": "0x348B365DFc2eD53Cdd4A5e3C15C0F3C1ef7c2fD3",
  "abi": [
    {
      "inputs": [],
      "name": "NoContractRewardLeft",
      "type": "error"
    },
    {
      "inputs": [
        {
          "internalType": "bytes32",
          "name": "role",
          "type": "bytes32"
        },
        {
          "internalType": "address",
          "name": "msgSender",
          "type": "address"
        }
      ],
      "name": "OnlyRoleError",
      "type": "error"
    },
    {
      "anonymous": false,
      "inputs": [
        {
          "indexed": false,
          "internalType": "uint8",
          "name": "version",
          "type": "uint8"
        }
      ],
      "name": "Initialized",
      "type": "event"
    },
    {
      "anonymous": false,
      "inputs": [
        {
          "indexed": false,
          "internalType": "address",
          "name": "account",
          "type": "address"
        },
        {
          "indexed": false,
          "internalType": "uint256",
          "name": "donationAmount",
          "type": "uint256"
        }
      ],
      "name": "Participated",
      "type": "event"
    },
    {
      "inputs": [],
      "name": "ACCESS_CONTROL_SINGLETON",
      "outputs": [
        {
          "internalType": "contract ISuAccessControl",
          "name": "",
          "type": "address"
        }
      ],
      "stateMutability": "view",
      "type": "function"
    },
    {
      "inputs": [],
      "name": "ADMIN_ROLE",
      "outputs": [
        {
          "internalType": "bytes32",
          "name": "",
          "type": "bytes32"
        }
      ],
      "stateMutability": "view",
      "type": "function"
    },
    {
      "inputs": [],
      "name": "DAO_ROLE",
      "outputs": [
        {
          "internalType": "bytes32",
          "name": "",
          "type": "bytes32"
        }
      ],
      "stateMutability": "view",
      "type": "function"
    },
    {
      "inputs": [],
      "name": "DEFAULT_ADMIN_ROLE",
      "outputs": [
        {
          "internalType": "bytes32",
          "name": "",
          "type": "bytes32"
        }
      ],
      "stateMutability": "view",
      "type": "function"
    },
    {
      "inputs": [],
      "name": "SU_DAO",
      "outputs": [
        {
          "internalType": "contract IERC20Upgradeable",
          "name": "",
          "type": "address"
        }
      ],
      "stateMutability": "view",
      "type": "function"
    },
    {
      "inputs": [],
      "name": "SU_DAO_OLD",
      "outputs": [
        {
          "internalType": "contract IERC20Upgradeable",
          "name": "",
          "type": "address"
        }
      ],
      "stateMutability": "view",
      "type": "function"
    },
    {
      "inputs": [],
      "name": "SYSTEM_ROLE",
      "outputs": [
        {
          "internalType": "bytes32",
          "name": "",
          "type": "bytes32"
        }
      ],
      "stateMutability": "view",
      "type": "function"
    },
    {
      "inputs": [],
      "name": "VE_ERC_20",
      "outputs": [
        {
          "internalType": "contract IveERC20v2",
          "name": "",
          "type": "address"
        }
      ],
      "stateMutability": "view",
      "type": "function"
    },
    {
      "inputs": [
        {
          "internalType": "contract IERC20Upgradeable",
          "name": "token",
          "type": "address"
        }
      ],
      "name": "adminWithdraw",
      "outputs": [],
      "stateMutability": "nonpayable",
      "type": "function"
    },
    {
      "inputs": [
        {
          "internalType": "bytes32",
          "name": "role",
          "type": "bytes32"
        }
      ],
      "name": "getRoleAdmin",
      "outputs": [
        {
          "internalType": "bytes32",
          "name": "",
          "type": "bytes32"
        }
      ],
      "stateMutability": "view",
      "type": "function"
    },
    {
      "inputs": [
        {
          "internalType": "bytes32",
          "name": "role",
          "type": "bytes32"
        },
        {
          "internalType": "address",
          "name": "account",
          "type": "address"
        }
      ],
      "name": "hasRole",
      "outputs": [
        {
          "internalType": "bool",
          "name": "",
          "type": "bool"
        }
      ],
      "stateMutability": "view",
      "type": "function"
    },
    {
      "inputs": [
        {
          "internalType": "address",
          "name": "_accessControlSingleton",
          "type": "address"
        },
        {
          "internalType": "address",
          "name": "_suDAOOld",
          "type": "address"
        },
        {
          "internalType": "address",
          "name": "_suDAONew",
          "type": "address"
        },
        {
          "internalType": "address",
          "name": "_veErc20",
          "type": "address"
        }
      ],
      "name": "initialize",
      "outputs": [],
      "stateMutability": "nonpayable",
      "type": "function"
    },
    {
      "inputs": [
        {
          "internalType": "uint256",
          "name": "donationAmount",
          "type": "uint256"
        }
      ],
      "name": "participate",
      "outputs": [],
      "stateMutability": "payable",
      "type": "function"
    },
    {
      "inputs": [
        {
          "internalType": "bytes4",
          "name": "interfaceId",
          "type": "bytes4"
        }
      ],
      "name": "supportsInterface",
      "outputs": [
        {
          "internalType": "bool",
          "name": "",
          "type": "bool"
        }
      ],
      "stateMutability": "view",
      "type": "function"
    },
    {
      "stateMutability": "payable",
      "type": "receive"
    }
  ],
  "numDeployments": 1,
  "solcInputHash": "681b3f41ca0160b856386fa3e1aab09c",
  "bytecode": "0x608060405234801561001057600080fd5b50610e43806100206000396000f3fe6080604052600436106100b15760003560e01c806301ffc9a7146100bd57806303ee9f22146100f257806320dd25d21461011f578063248a9ca31461013f57806375071d2a1461016d57806375b238fc146101a1578063845c9306146101d557806391d14854146101ea578063a217fddf1461020a578063a28835b61461021f578063b5b8a68a1461023f578063dc4eff7e1461025f578063e9c265181461020a578063f8c8765e1461027f57600080fd5b366100b857005b600080fd5b3480156100c957600080fd5b506100dd6100d8366004610bc0565b61029f565b60405190151581526020015b60405180910390f35b3480156100fe57600080fd5b50603354610112906001600160a01b031681565b6040516100e99190610bea565b34801561012b57600080fd5b50606754610112906001600160a01b031681565b34801561014b57600080fd5b5061015f61015a366004610bfe565b61031c565b6040519081526020016100e9565b34801561017957600080fd5b5061015f7f5719df9ef2c4678b547f89e4f5ae410dbf400fc51cf3ded434c55f6adea2c43f81565b3480156101ad57600080fd5b5061015f7fa49807205ce4d355092ef5a8a18f56e8913cf4a201fbe287825b095693c2177581565b6101e86101e3366004610bfe565b61038a565b005b3480156101f657600080fd5b506100dd610205366004610c2f565b6104f9565b34801561021657600080fd5b5061015f600081565b34801561022b57600080fd5b506101e861023a366004610c5f565b610574565b34801561024b57600080fd5b50606554610112906001600160a01b031681565b34801561026b57600080fd5b50606654610112906001600160a01b031681565b34801561028b57600080fd5b506101e861029a366004610c7c565b61066f565b6033546040516301ffc9a760e01b81526001600160e01b0319831660048201526000916001600160a01b0316906301ffc9a790602401602060405180830381865afa1580156102f2573d6000803e3d6000fd5b505050506040513d601f19601f820116820180604052508101906103169190610cd8565b92915050565b60335460405163248a9ca360e01b8152600481018390526000916001600160a01b03169063248a9ca390602401602060405180830381865afa158015610366573d6000803e3d6000fd5b505050506040513d601f19601f820116820180604052508101906103169190610cfa565b60006015610399836064610d13565b6103a4906010610d13565b6103ae9190610d40565b6067549091506103c9906001600160a01b0316333085610834565b6066546040516370a0823160e01b815282916001600160a01b0316906370a08231906103f9903090600401610bea565b602060405180830381865afa158015610416573d6000803e3d6000fd5b505050506040513d601f19601f8201168201806040525081019061043a9190610cfa565b101561045857604051620da27160e61b815260040160405180910390fd5b606554604051633c14516d60e01b81526001600160a01b0390911690633c14516d9061048a9033908590600401610d62565b600060405180830381600087803b1580156104a457600080fd5b505af11580156104b8573d6000803e3d6000fd5b505050507fb198f199c43cc078ad46e5a5fabe03eba401f7417816c86af0bd2e7345c9950633836040516104ed929190610d62565b60405180910390a15050565b603354604051632474521560e21b81526000916001600160a01b0316906391d148549061052c9086908690600401610d7b565b602060405180830381865afa158015610549573d6000803e3d6000fd5b505050506040513d601f19601f8201168201806040525081019061056d9190610cd8565b9392505050565b600061058081336104f9565b6105aa5780336040516337c2e34360e01b81526004016105a1929190610d7b565b60405180910390fd5b6001600160a01b0382166105e95760405133904780156108fc02916000818181858888f193505050501580156105e4573d6000803e3d6000fd5b505050565b61066b33836001600160a01b03166370a08231306040518263ffffffff1660e01b81526004016106199190610bea565b602060405180830381865afa158015610636573d6000803e3d6000fd5b505050506040513d601f19601f8201168201806040525081019061065a9190610cfa565b6001600160a01b03851691906108a5565b5050565b600054610100900460ff161580801561068f5750600054600160ff909116105b806106b0575061069e306108c4565b1580156106b0575060005460ff166001145b6107135760405162461bcd60e51b815260206004820152602e60248201527f496e697469616c697a61626c653a20636f6e747261637420697320616c72656160448201526d191e481a5b9a5d1a585b1a5e995960921b60648201526084016105a1565b6000805460ff191660011790558015610736576000805461ff0019166101001790555b61073f856108d3565b606780546001600160a01b038087166001600160a01b031992831617909255606680548684169083168117909155606580549386169390921692909217905560405163095ea7b360e01b815263095ea7b3906107a390859060001990600401610d62565b6020604051808303816000875af11580156107c2573d6000803e3d6000fd5b505050506040513d601f19601f820116820180604052508101906107e69190610cd8565b50801561082d576000805461ff0019169055604051600181527f7f26b83ff96e1f2b6a682f133852f6798a09c465da95921460cefb38474024989060200160405180910390a15b5050505050565b6040516001600160a01b038085166024830152831660448201526064810182905261089f9085906323b872dd60e01b906084015b60408051601f198184030181529190526020810180516001600160e01b03166001600160e01b031990931692909217909152610960565b50505050565b6105e48363a9059cbb60e01b8484604051602401610868929190610d62565b6001600160a01b03163b151590565b600054610100900460ff1661093e5760405162461bcd60e51b815260206004820152602b60248201527f496e697469616c697a61626c653a20636f6e7472616374206973206e6f74206960448201526a6e697469616c697a696e6760a81b60648201526084016105a1565b603380546001600160a01b0319166001600160a01b0392909216919091179055565b60006109b5826040518060400160405280602081526020017f5361666545524332303a206c6f772d6c6576656c2063616c6c206661696c6564815250856001600160a01b0316610a329092919063ffffffff16565b8051909150156105e457808060200190518101906109d39190610cd8565b6105e45760405162461bcd60e51b815260206004820152602a60248201527f5361666545524332303a204552433230206f7065726174696f6e20646964206e6044820152691bdd081cdd58d8d9595960b21b60648201526084016105a1565b6060610a418484600085610a49565b949350505050565b606082471015610aaa5760405162461bcd60e51b815260206004820152602660248201527f416464726573733a20696e73756666696369656e742062616c616e636520666f6044820152651c8818d85b1b60d21b60648201526084016105a1565b600080866001600160a01b03168587604051610ac69190610dbe565b60006040518083038185875af1925050503d8060008114610b03576040519150601f19603f3d011682016040523d82523d6000602084013e610b08565b606091505b5091509150610b1987838387610b24565b979650505050505050565b60608315610b91578251600003610b8a57610b3e856108c4565b610b8a5760405162461bcd60e51b815260206004820152601d60248201527f416464726573733a2063616c6c20746f206e6f6e2d636f6e747261637400000060448201526064016105a1565b5081610a41565b610a418383815115610ba65781518083602001fd5b8060405162461bcd60e51b81526004016105a19190610dda565b600060208284031215610bd257600080fd5b81356001600160e01b03198116811461056d57600080fd5b6001600160a01b0391909116815260200190565b600060208284031215610c1057600080fd5b5035919050565b6001600160a01b0381168114610c2c57600080fd5b50565b60008060408385031215610c4257600080fd5b823591506020830135610c5481610c17565b809150509250929050565b600060208284031215610c7157600080fd5b813561056d81610c17565b60008060008060808587031215610c9257600080fd5b8435610c9d81610c17565b93506020850135610cad81610c17565b92506040850135610cbd81610c17565b91506060850135610ccd81610c17565b939692955090935050565b600060208284031215610cea57600080fd5b8151801515811461056d57600080fd5b600060208284031215610d0c57600080fd5b5051919050565b6000816000190483118215151615610d3b57634e487b7160e01b600052601160045260246000fd5b500290565b600082610d5d57634e487b7160e01b600052601260045260246000fd5b500490565b6001600160a01b03929092168252602082015260400190565b9182526001600160a01b0316602082015260400190565b60005b83811015610dad578181015183820152602001610d95565b8381111561089f5750506000910152565b60008251610dd0818460208701610d92565b9190910192915050565b6020815260008251806020840152610df9816040850160208701610d92565b601f01601f1916919091016040019291505056fea26469706673582212209c599be576cad1bdc1b08a8ac5811fada43559d415eb63cab587127847cc9af864736f6c634300080f0033",
  "devdoc": {
    "kind": "dev",
    "methods": {
      "adminWithdraw(address)": {
        "details": "The owner can't take away SuDAO token already distributed to users, because they are stored on timelockVault"
      },
      "participate(uint256)": {
        "params": {
          "donationAmount": "The amount of SU_DAO tokens"
        }
      }
    },
    "title": "The contract that distribute suDAO tokens for community based on NFT membership",
    "version": 1
  },
  "userdoc": {
    "kind": "user",
    "methods": {
      "adminWithdraw(address)": {
        "notice": "The owner of the contact can take away tokens sent to the contract."
      },
      "participate(uint256)": {
        "notice": "Allows to participate for users with required NFT"
      }
    },
    "version": 1
  },
  "storageLayout": {
    "storage": [
      {
        "astId": 1102,
        "contract": "contracts/distributions/SuDAOUpgrader.sol:SuDAOUpgrader",
        "label": "_initialized",
        "offset": 0,
        "slot": "0",
        "type": "t_uint8"
      },
      {
        "astId": 1105,
        "contract": "contracts/distributions/SuDAOUpgrader.sol:SuDAOUpgrader",
        "label": "_initializing",
        "offset": 1,
        "slot": "0",
        "type": "t_bool"
      },
      {
        "astId": 6497,
        "contract": "contracts/distributions/SuDAOUpgrader.sol:SuDAOUpgrader",
        "label": "__gap",
        "offset": 0,
        "slot": "1",
        "type": "t_array(t_uint256)50_storage"
      },
      {
        "astId": 24060,
        "contract": "contracts/distributions/SuDAOUpgrader.sol:SuDAOUpgrader",
        "label": "ACCESS_CONTROL_SINGLETON",
        "offset": 0,
        "slot": "51",
        "type": "t_contract(ISuAccessControl)25627"
      },
      {
        "astId": 24147,
        "contract": "contracts/distributions/SuDAOUpgrader.sol:SuDAOUpgrader",
        "label": "__gap",
        "offset": 0,
        "slot": "52",
        "type": "t_array(t_uint256)49_storage"
      },
      {
        "astId": 24205,
        "contract": "contracts/distributions/SuDAOUpgrader.sol:SuDAOUpgrader",
        "label": "VE_ERC_20",
        "offset": 0,
        "slot": "101",
        "type": "t_contract(IveERC20v2)25925"
      },
      {
        "astId": 24208,
        "contract": "contracts/distributions/SuDAOUpgrader.sol:SuDAOUpgrader",
        "label": "SU_DAO",
        "offset": 0,
        "slot": "102",
        "type": "t_contract(IERC20Upgradeable)1954"
      },
      {
        "astId": 24211,
        "contract": "contracts/distributions/SuDAOUpgrader.sol:SuDAOUpgrader",
        "label": "SU_DAO_OLD",
        "offset": 0,
        "slot": "103",
        "type": "t_contract(IERC20Upgradeable)1954"
      },
      {
        "astId": 24374,
        "contract": "contracts/distributions/SuDAOUpgrader.sol:SuDAOUpgrader",
        "label": "__gap",
        "offset": 0,
        "slot": "104",
        "type": "t_array(t_uint256)48_storage"
      }
    ],
    "types": {
      "t_array(t_uint256)48_storage": {
        "base": "t_uint256",
        "encoding": "inplace",
        "label": "uint256[48]",
        "numberOfBytes": "1536"
      },
      "t_array(t_uint256)49_storage": {
        "base": "t_uint256",
        "encoding": "inplace",
        "label": "uint256[49]",
        "numberOfBytes": "1568"
      },
      "t_array(t_uint256)50_storage": {
        "base": "t_uint256",
        "encoding": "inplace",
        "label": "uint256[50]",
        "numberOfBytes": "1600"
      },
      "t_bool": {
        "encoding": "inplace",
        "label": "bool",
        "numberOfBytes": "1"
      },
      "t_contract(IERC20Upgradeable)1954": {
        "encoding": "inplace",
        "label": "contract IERC20Upgradeable",
        "numberOfBytes": "20"
      },
      "t_contract(ISuAccessControl)25627": {
        "encoding": "inplace",
        "label": "contract ISuAccessControl",
        "numberOfBytes": "20"
      },
      "t_contract(IveERC20v2)25925": {
        "encoding": "inplace",
        "label": "contract IveERC20v2",
        "numberOfBytes": "20"
      },
      "t_uint256": {
        "encoding": "inplace",
        "label": "uint256",
        "numberOfBytes": "32"
      },
      "t_uint8": {
        "encoding": "inplace",
        "label": "uint8",
        "numberOfBytes": "1"
      }
    }
  }
}