{
  "address": "0x4B1F15600f21B8863C8642608559144986212C43",
  "abi": [
    {
      "inputs": [
        {
          "internalType": "address",
          "name": "_accessControlSingleton",
          "type": "address"
        },
        {
          "internalType": "uint256",
          "name": "_initMint",
          "type": "uint256"
        }
      ],
      "stateMutability": "nonpayable",
      "type": "constructor"
    },
    {
      "inputs": [
        {
          "internalType": "bytes32",
          "name": "role",
          "type": "bytes32"
        },
        {
          "internalType": "address",
          "name": "msgSender",
          "type": "address"
        }
      ],
      "name": "OnlyRoleError",
      "type": "error"
    },
    {
      "anonymous": false,
      "inputs": [
        {
          "indexed": true,
          "internalType": "address",
          "name": "owner",
          "type": "address"
        },
        {
          "indexed": true,
          "internalType": "address",
          "name": "spender",
          "type": "address"
        },
        {
          "indexed": false,
          "internalType": "uint256",
          "name": "value",
          "type": "uint256"
        }
      ],
      "name": "Approval",
      "type": "event"
    },
    {
      "anonymous": false,
      "inputs": [
        {
          "indexed": true,
          "internalType": "address",
          "name": "delegator",
          "type": "address"
        },
        {
          "indexed": true,
          "internalType": "address",
          "name": "fromDelegate",
          "type": "address"
        },
        {
          "indexed": true,
          "internalType": "address",
          "name": "toDelegate",
          "type": "address"
        }
      ],
      "name": "DelegateChanged",
      "type": "event"
    },
    {
      "anonymous": false,
      "inputs": [
        {
          "indexed": true,
          "internalType": "address",
          "name": "delegate",
          "type": "address"
        },
        {
          "indexed": false,
          "internalType": "uint256",
          "name": "previousBalance",
          "type": "uint256"
        },
        {
          "indexed": false,
          "internalType": "uint256",
          "name": "newBalance",
          "type": "uint256"
        }
      ],
      "name": "DelegateVotesChanged",
      "type": "event"
    },
    {
      "anonymous": false,
      "inputs": [
        {
          "indexed": true,
          "internalType": "address",
          "name": "from",
          "type": "address"
        },
        {
          "indexed": true,
          "internalType": "address",
          "name": "to",
          "type": "address"
        },
        {
          "indexed": false,
          "internalType": "uint256",
          "name": "value",
          "type": "uint256"
        }
      ],
      "name": "Transfer",
      "type": "event"
    },
    {
      "inputs": [],
      "name": "ACCESS_CONTROL_SINGLETON",
      "outputs": [
        {
          "internalType": "contract ISuAccessControl",
          "name": "",
          "type": "address"
        }
      ],
      "stateMutability": "view",
      "type": "function"
    },
    {
      "inputs": [],
      "name": "ADMIN_ROLE",
      "outputs": [
        {
          "internalType": "bytes32",
          "name": "",
          "type": "bytes32"
        }
      ],
      "stateMutability": "view",
      "type": "function"
    },
    {
      "inputs": [],
      "name": "COMMUNITY_ADMIN_ROLE",
      "outputs": [
        {
          "internalType": "bytes32",
          "name": "",
          "type": "bytes32"
        }
      ],
      "stateMutability": "view",
      "type": "function"
    },
    {
      "inputs": [],
      "name": "DAO_ROLE",
      "outputs": [
        {
          "internalType": "bytes32",
          "name": "",
          "type": "bytes32"
        }
      ],
      "stateMutability": "view",
      "type": "function"
    },
    {
      "inputs": [],
      "name": "DEFAULT_ADMIN_ROLE",
      "outputs": [
        {
          "internalType": "bytes32",
          "name": "",
          "type": "bytes32"
        }
      ],
      "stateMutability": "view",
      "type": "function"
    },
    {
      "inputs": [],
      "name": "DOMAIN_SEPARATOR",
      "outputs": [
        {
          "internalType": "bytes32",
          "name": "",
          "type": "bytes32"
        }
      ],
      "stateMutability": "view",
      "type": "function"
    },
    {
      "inputs": [],
      "name": "MAX_SUPPLY",
      "outputs": [
        {
          "internalType": "uint256",
          "name": "",
          "type": "uint256"
        }
      ],
      "stateMutability": "view",
      "type": "function"
    },
    {
      "inputs": [
        {
          "internalType": "address",
          "name": "owner",
          "type": "address"
        },
        {
          "internalType": "address",
          "name": "spender",
          "type": "address"
        }
      ],
      "name": "allowance",
      "outputs": [
        {
          "internalType": "uint256",
          "name": "",
          "type": "uint256"
        }
      ],
      "stateMutability": "view",
      "type": "function"
    },
    {
      "inputs": [
        {
          "internalType": "address",
          "name": "spender",
          "type": "address"
        },
        {
          "internalType": "uint256",
          "name": "amount",
          "type": "uint256"
        }
      ],
      "name": "approve",
      "outputs": [
        {
          "internalType": "bool",
          "name": "",
          "type": "bool"
        }
      ],
      "stateMutability": "nonpayable",
      "type": "function"
    },
    {
      "inputs": [
        {
          "internalType": "address",
          "name": "account",
          "type": "address"
        }
      ],
      "name": "balanceOf",
      "outputs": [
        {
          "internalType": "uint256",
          "name": "",
          "type": "uint256"
        }
      ],
      "stateMutability": "view",
      "type": "function"
    },
    {
      "inputs": [
        {
          "internalType": "uint256",
          "name": "amount",
          "type": "uint256"
        }
      ],
      "name": "burn",
      "outputs": [],
      "stateMutability": "nonpayable",
      "type": "function"
    },
    {
      "inputs": [
        {
          "internalType": "address",
          "name": "account",
          "type": "address"
        },
        {
          "internalType": "uint256",
          "name": "amount",
          "type": "uint256"
        }
      ],
      "name": "burnFrom",
      "outputs": [],
      "stateMutability": "nonpayable",
      "type": "function"
    },
    {
      "inputs": [
        {
          "internalType": "address",
          "name": "account",
          "type": "address"
        },
        {
          "internalType": "uint32",
          "name": "pos",
          "type": "uint32"
        }
      ],
      "name": "checkpoints",
      "outputs": [
        {
          "components": [
            {
              "internalType": "uint32",
              "name": "fromBlock",
              "type": "uint32"
            },
            {
              "internalType": "uint224",
              "name": "votes",
              "type": "uint224"
            }
          ],
          "internalType": "struct ERC20Votes.Checkpoint",
          "name": "",
          "type": "tuple"
        }
      ],
      "stateMutability": "view",
      "type": "function"
    },
    {
      "inputs": [],
      "name": "decimals",
      "outputs": [
        {
          "internalType": "uint8",
          "name": "",
          "type": "uint8"
        }
      ],
      "stateMutability": "view",
      "type": "function"
    },
    {
      "inputs": [
        {
          "internalType": "address",
          "name": "spender",
          "type": "address"
        },
        {
          "internalType": "uint256",
          "name": "subtractedValue",
          "type": "uint256"
        }
      ],
      "name": "decreaseAllowance",
      "outputs": [
        {
          "internalType": "bool",
          "name": "",
          "type": "bool"
        }
      ],
      "stateMutability": "nonpayable",
      "type": "function"
    },
    {
      "inputs": [
        {
          "internalType": "address",
          "name": "delegatee",
          "type": "address"
        }
      ],
      "name": "delegate",
      "outputs": [],
      "stateMutability": "nonpayable",
      "type": "function"
    },
    {
      "inputs": [
        {
          "internalType": "address",
          "name": "delegatee",
          "type": "address"
        },
        {
          "internalType": "uint256",
          "name": "nonce",
          "type": "uint256"
        },
        {
          "internalType": "uint256",
          "name": "expiry",
          "type": "uint256"
        },
        {
          "internalType": "uint8",
          "name": "v",
          "type": "uint8"
        },
        {
          "internalType": "bytes32",
          "name": "r",
          "type": "bytes32"
        },
        {
          "internalType": "bytes32",
          "name": "s",
          "type": "bytes32"
        }
      ],
      "name": "delegateBySig",
      "outputs": [],
      "stateMutability": "nonpayable",
      "type": "function"
    },
    {
      "inputs": [
        {
          "internalType": "address",
          "name": "account",
          "type": "address"
        }
      ],
      "name": "delegates",
      "outputs": [
        {
          "internalType": "address",
          "name": "",
          "type": "address"
        }
      ],
      "stateMutability": "view",
      "type": "function"
    },
    {
      "inputs": [
        {
          "internalType": "uint256",
          "name": "blockNumber",
          "type": "uint256"
        }
      ],
      "name": "getPastTotalSupply",
      "outputs": [
        {
          "internalType": "uint256",
          "name": "",
          "type": "uint256"
        }
      ],
      "stateMutability": "view",
      "type": "function"
    },
    {
      "inputs": [
        {
          "internalType": "address",
          "name": "account",
          "type": "address"
        },
        {
          "internalType": "uint256",
          "name": "blockNumber",
          "type": "uint256"
        }
      ],
      "name": "getPastVotes",
      "outputs": [
        {
          "internalType": "uint256",
          "name": "",
          "type": "uint256"
        }
      ],
      "stateMutability": "view",
      "type": "function"
    },
    {
      "inputs": [
        {
          "internalType": "bytes32",
          "name": "role",
          "type": "bytes32"
        }
      ],
      "name": "getRoleAdmin",
      "outputs": [
        {
          "internalType": "bytes32",
          "name": "",
          "type": "bytes32"
        }
      ],
      "stateMutability": "view",
      "type": "function"
    },
    {
      "inputs": [
        {
          "internalType": "address",
          "name": "account",
          "type": "address"
        }
      ],
      "name": "getVotes",
      "outputs": [
        {
          "internalType": "uint256",
          "name": "",
          "type": "uint256"
        }
      ],
      "stateMutability": "view",
      "type": "function"
    },
    {
      "inputs": [
        {
          "internalType": "bytes32",
          "name": "role",
          "type": "bytes32"
        },
        {
          "internalType": "address",
          "name": "account",
          "type": "address"
        }
      ],
      "name": "hasRole",
      "outputs": [
        {
          "internalType": "bool",
          "name": "",
          "type": "bool"
        }
      ],
      "stateMutability": "view",
      "type": "function"
    },
    {
      "inputs": [
        {
          "internalType": "address",
          "name": "spender",
          "type": "address"
        },
        {
          "internalType": "uint256",
          "name": "addedValue",
          "type": "uint256"
        }
      ],
      "name": "increaseAllowance",
      "outputs": [
        {
          "internalType": "bool",
          "name": "",
          "type": "bool"
        }
      ],
      "stateMutability": "nonpayable",
      "type": "function"
    },
    {
      "inputs": [
        {
          "internalType": "address",
          "name": "account",
          "type": "address"
        },
        {
          "internalType": "uint256",
          "name": "amount",
          "type": "uint256"
        }
      ],
      "name": "mint",
      "outputs": [],
      "stateMutability": "nonpayable",
      "type": "function"
    },
    {
      "inputs": [],
      "name": "name",
      "outputs": [
        {
          "internalType": "string",
          "name": "",
          "type": "string"
        }
      ],
      "stateMutability": "view",
      "type": "function"
    },
    {
      "inputs": [
        {
          "internalType": "address",
          "name": "owner",
          "type": "address"
        }
      ],
      "name": "nonces",
      "outputs": [
        {
          "internalType": "uint256",
          "name": "",
          "type": "uint256"
        }
      ],
      "stateMutability": "view",
      "type": "function"
    },
    {
      "inputs": [
        {
          "internalType": "address",
          "name": "account",
          "type": "address"
        }
      ],
      "name": "numCheckpoints",
      "outputs": [
        {
          "internalType": "uint32",
          "name": "",
          "type": "uint32"
        }
      ],
      "stateMutability": "view",
      "type": "function"
    },
    {
      "inputs": [
        {
          "internalType": "address",
          "name": "owner",
          "type": "address"
        },
        {
          "internalType": "address",
          "name": "spender",
          "type": "address"
        },
        {
          "internalType": "uint256",
          "name": "value",
          "type": "uint256"
        },
        {
          "internalType": "uint256",
          "name": "deadline",
          "type": "uint256"
        },
        {
          "internalType": "uint8",
          "name": "v",
          "type": "uint8"
        },
        {
          "internalType": "bytes32",
          "name": "r",
          "type": "bytes32"
        },
        {
          "internalType": "bytes32",
          "name": "s",
          "type": "bytes32"
        }
      ],
      "name": "permit",
      "outputs": [],
      "stateMutability": "nonpayable",
      "type": "function"
    },
    {
      "inputs": [
        {
          "internalType": "contract ERC20",
          "name": "token",
          "type": "address"
        }
      ],
      "name": "rescueTokens",
      "outputs": [],
      "stateMutability": "nonpayable",
      "type": "function"
    },
    {
      "inputs": [
        {
          "internalType": "bytes4",
          "name": "interfaceId",
          "type": "bytes4"
        }
      ],
      "name": "supportsInterface",
      "outputs": [
        {
          "internalType": "bool",
          "name": "",
          "type": "bool"
        }
      ],
      "stateMutability": "view",
      "type": "function"
    },
    {
      "inputs": [],
      "name": "symbol",
      "outputs": [
        {
          "internalType": "string",
          "name": "",
          "type": "string"
        }
      ],
      "stateMutability": "view",
      "type": "function"
    },
    {
      "inputs": [],
      "name": "totalSupply",
      "outputs": [
        {
          "internalType": "uint256",
          "name": "",
          "type": "uint256"
        }
      ],
      "stateMutability": "view",
      "type": "function"
    },
    {
      "inputs": [
        {
          "internalType": "address",
          "name": "recipient",
          "type": "address"
        },
        {
          "internalType": "uint256",
          "name": "amount",
          "type": "uint256"
        }
      ],
      "name": "transfer",
      "outputs": [
        {
          "internalType": "bool",
          "name": "",
          "type": "bool"
        }
      ],
      "stateMutability": "nonpayable",
      "type": "function"
    },
    {
      "inputs": [
        {
          "internalType": "address",
          "name": "sender",
          "type": "address"
        },
        {
          "internalType": "address",
          "name": "recipient",
          "type": "address"
        },
        {
          "internalType": "uint256",
          "name": "amount",
          "type": "uint256"
        }
      ],
      "name": "transferFrom",
      "outputs": [
        {
          "internalType": "bool",
          "name": "",
          "type": "bool"
        }
      ],
      "stateMutability": "nonpayable",
      "type": "function"
    },
    {
      "stateMutability": "payable",
      "type": "receive"
    }
  ],
  "transactionHash": "0x33a9ff721b1c7b5b41c2b2611576d380bb54fb7c1b917f56af8b6b29be85539e",
  "args": [
    "0x657c358D196d4009CC81b722a489DeaF52214119",
    10000
  ],
  "numDeployments": 1,
  "solcInputHash": "d20c42d9e30e37c98bc070f359fc13a6",
  "bytecode": "0x6101406040527f6e71edae12b1b97f4d1f60370fef10105fa2faae0126114a169c64845d6126c9610120908152503480156200003a57600080fd5b506040516200622e3803806200622e833981810160405281019062000060919062000c42565b816040518060400160405280600e81526020017f537461626c65556e69742044414f000000000000000000000000000000000000815250806040518060400160405280600181526020017f31000000000000000000000000000000000000000000000000000000000000008152506040518060400160405280600e81526020017f537461626c65556e69742044414f0000000000000000000000000000000000008152506040518060400160405280600581526020017f537544414f00000000000000000000000000000000000000000000000000000081525081600390816200014b919062000ef9565b5080600490816200015d919062000ef9565b50505060008280519060200120905060008280519060200120905060007f8b73c3c69bb8fe3d512ecc4cf759cc79239f7b179b0ffacaa9a75d522b39400f90508260c081815250508160e081815250504660a08181525050620001c88184846200023a60201b60201c565b6080818152505080610100818152505050505050505080600960006101000a81548173ffffffffffffffffffffffffffffffffffffffff021916908373ffffffffffffffffffffffffffffffffffffffff160217905550506200023233826200027660201b60201c565b505062001405565b60008383834630604051602001620002579594939291906200101d565b6040516020818303038152906040528051906020012090509392505050565b6200028d82826200029160201b620019b01760201c565b5050565b620002a882826200034f60201b62001a3d1760201c565b620002b8620004c760201b60201c565b7bffffffffffffffffffffffffffffffffffffffffffffffffffffffff16620002e6620004eb60201b60201c565b11156200032a576040517f08c379a0000000000000000000000000000000000000000000000000000000008152600401620003219062001101565b60405180910390fd5b620003496008620004f560201b62001b9c17836200050d60201b60201c565b50505050565b600073ffffffffffffffffffffffffffffffffffffffff168273ffffffffffffffffffffffffffffffffffffffff1603620003c1576040517f08c379a0000000000000000000000000000000000000000000000000000000008152600401620003b89062001173565b60405180910390fd5b620003d560008383620007be60201b60201c565b8060026000828254620003e99190620011c4565b92505081905550806000808473ffffffffffffffffffffffffffffffffffffffff1673ffffffffffffffffffffffffffffffffffffffff1681526020019081526020016000206000828254620004409190620011c4565b925050819055508173ffffffffffffffffffffffffffffffffffffffff16600073ffffffffffffffffffffffffffffffffffffffff167fddf252ad1be2c89b69c2b068fc378daa952ba7f163c4a11628f55a4df523b3ef83604051620004a7919062001221565b60405180910390a3620004c360008383620007c360201b60201c565b5050565b60007bffffffffffffffffffffffffffffffffffffffffffffffffffffffff905090565b6000600254905090565b60008183620005059190620011c4565b905092915050565b600080600085805490509050600081146200058257856001826200053291906200123e565b8154811062000546576200054562001279565b5b9060005260206000200160000160049054906101000a90047bffffffffffffffffffffffffffffffffffffffffffffffffffffffff1662000585565b60005b7bffffffffffffffffffffffffffffffffffffffffffffffffffffffff169250620005b183858760201c565b91506000811180156200060a57504386600183620005d091906200123e565b81548110620005e457620005e362001279565b5b9060005260206000200160000160009054906101000a900463ffffffff1663ffffffff16145b15620006ab576200062682620007e060201b62001bb21760201c565b866001836200063691906200123e565b815481106200064a576200064962001279565b5b9060005260206000200160000160046101000a8154817bffffffffffffffffffffffffffffffffffffffffffffffffffffffff02191690837bffffffffffffffffffffffffffffffffffffffffffffffffffffffff160217905550620007b5565b856040518060400160405280620006cd436200084e60201b62001c1d1760201c565b63ffffffff168152602001620006ee85620007e060201b62001bb21760201c565b7bffffffffffffffffffffffffffffffffffffffffffffffffffffffff168152509080600181540180825580915050600190039060005260206000200160009091909190915060008201518160000160006101000a81548163ffffffff021916908363ffffffff16021790555060208201518160000160046101000a8154817bffffffffffffffffffffffffffffffffffffffffffffffffffffffff02191690837bffffffffffffffffffffffffffffffffffffffffffffffffffffffff16021790555050505b50935093915050565b505050565b620007db838383620008a460201b62001c701760201c565b505050565b60007bffffffffffffffffffffffffffffffffffffffffffffffffffffffff801682111562000846576040517f08c379a00000000000000000000000000000000000000000000000000000000081526004016200083d906200131e565b60405180910390fd5b819050919050565b600063ffffffff80168211156200089c576040517f08c379a00000000000000000000000000000000000000000000000000000000081526004016200089390620013b6565b60405180910390fd5b819050919050565b620008bc838383620008f460201b62001c9b1760201c565b620008ef620008d184620008f960201b60201c565b620008e284620008f960201b60201c565b836200096260201b60201c565b505050565b505050565b6000600660008373ffffffffffffffffffffffffffffffffffffffff1673ffffffffffffffffffffffffffffffffffffffff16815260200190815260200160002060009054906101000a900473ffffffffffffffffffffffffffffffffffffffff169050919050565b8173ffffffffffffffffffffffffffffffffffffffff168373ffffffffffffffffffffffffffffffffffffffff16141580156200099f5750600081115b1562000b8057600073ffffffffffffffffffffffffffffffffffffffff168373ffffffffffffffffffffffffffffffffffffffff161462000a925760008062000a39600760008773ffffffffffffffffffffffffffffffffffffffff1673ffffffffffffffffffffffffffffffffffffffff16815260200190815260200160002062000b8560201b62001ca017856200050d60201b60201c565b915091508473ffffffffffffffffffffffffffffffffffffffff167fdec2bacdd2f05b59de34da9b523dff8be42e5e38e818c82fdb0bae774387a724838360405162000a87929190620013d8565b60405180910390a250505b600073ffffffffffffffffffffffffffffffffffffffff168273ffffffffffffffffffffffffffffffffffffffff161462000b7f5760008062000b26600760008673ffffffffffffffffffffffffffffffffffffffff1673ffffffffffffffffffffffffffffffffffffffff168152602001908152602001600020620004f560201b62001b9c17856200050d60201b60201c565b915091508373ffffffffffffffffffffffffffffffffffffffff167fdec2bacdd2f05b59de34da9b523dff8be42e5e38e818c82fdb0bae774387a724838360405162000b74929190620013d8565b60405180910390a250505b5b505050565b6000818362000b9591906200123e565b905092915050565b600080fd5b600073ffffffffffffffffffffffffffffffffffffffff82169050919050565b600062000bcf8262000ba2565b9050919050565b62000be18162000bc2565b811462000bed57600080fd5b50565b60008151905062000c018162000bd6565b92915050565b6000819050919050565b62000c1c8162000c07565b811462000c2857600080fd5b50565b60008151905062000c3c8162000c11565b92915050565b6000806040838503121562000c5c5762000c5b62000b9d565b5b600062000c6c8582860162000bf0565b925050602062000c7f8582860162000c2b565b9150509250929050565b600081519050919050565b7f4e487b7100000000000000000000000000000000000000000000000000000000600052604160045260246000fd5b7f4e487b7100000000000000000000000000000000000000000000000000000000600052602260045260246000fd5b6000600282049050600182168062000d0b57607f821691505b60208210810362000d215762000d2062000cc3565b5b50919050565b60008190508160005260206000209050919050565b60006020601f8301049050919050565b600082821b905092915050565b60006008830262000d8b7fffffffffffffffffffffffffffffffffffffffffffffffffffffffffffffffff8262000d4c565b62000d97868362000d4c565b95508019841693508086168417925050509392505050565b6000819050919050565b600062000dda62000dd462000dce8462000c07565b62000daf565b62000c07565b9050919050565b6000819050919050565b62000df68362000db9565b62000e0e62000e058262000de1565b84845462000d59565b825550505050565b600090565b62000e2562000e16565b62000e3281848462000deb565b505050565b5b8181101562000e5a5762000e4e60008262000e1b565b60018101905062000e38565b5050565b601f82111562000ea95762000e738162000d27565b62000e7e8462000d3c565b8101602085101562000e8e578190505b62000ea662000e9d8562000d3c565b83018262000e37565b50505b505050565b600082821c905092915050565b600062000ece6000198460080262000eae565b1980831691505092915050565b600062000ee9838362000ebb565b9150826002028217905092915050565b62000f048262000c89565b67ffffffffffffffff81111562000f205762000f1f62000c94565b5b62000f2c825462000cf2565b62000f3982828562000e5e565b600060209050601f83116001811462000f71576000841562000f5c578287015190505b62000f68858262000edb565b86555062000fd8565b601f19841662000f818662000d27565b60005b8281101562000fab5784890151825560018201915060208501945060208101905062000f84565b8683101562000fcb578489015162000fc7601f89168262000ebb565b8355505b6001600288020188555050505b505050505050565b6000819050919050565b62000ff58162000fe0565b82525050565b620010068162000c07565b82525050565b620010178162000bc2565b82525050565b600060a08201905062001034600083018862000fea565b62001043602083018762000fea565b62001052604083018662000fea565b62001061606083018562000ffb565b6200107060808301846200100c565b9695505050505050565b600082825260208201905092915050565b7f4552433230566f7465733a20746f74616c20737570706c79207269736b73206f60008201527f766572666c6f77696e6720766f74657300000000000000000000000000000000602082015250565b6000620010e96030836200107a565b9150620010f6826200108b565b604082019050919050565b600060208201905081810360008301526200111c81620010da565b9050919050565b7f45524332303a206d696e7420746f20746865207a65726f206164647265737300600082015250565b60006200115b601f836200107a565b9150620011688262001123565b602082019050919050565b600060208201905081810360008301526200118e816200114c565b9050919050565b7f4e487b7100000000000000000000000000000000000000000000000000000000600052601160045260246000fd5b6000620011d18262000c07565b9150620011de8362000c07565b9250827fffffffffffffffffffffffffffffffffffffffffffffffffffffffffffffffff0382111562001216576200121562001195565b5b828201905092915050565b600060208201905062001238600083018462000ffb565b92915050565b60006200124b8262000c07565b9150620012588362000c07565b9250828210156200126e576200126d62001195565b5b828203905092915050565b7f4e487b7100000000000000000000000000000000000000000000000000000000600052603260045260246000fd5b7f53616665436173743a2076616c756520646f65736e27742066697420696e203260008201527f3234206269747300000000000000000000000000000000000000000000000000602082015250565b6000620013066027836200107a565b91506200131382620012a8565b604082019050919050565b600060208201905081810360008301526200133981620012f7565b9050919050565b7f53616665436173743a2076616c756520646f65736e27742066697420696e203360008201527f3220626974730000000000000000000000000000000000000000000000000000602082015250565b60006200139e6026836200107a565b9150620013ab8262001340565b604082019050919050565b60006020820190508181036000830152620013d1816200138f565b9050919050565b6000604082019050620013ef600083018562000ffb565b620013fe602083018462000ffb565b9392505050565b60805160a05160c05160e0516101005161012051614dd9620014556000396000611717015260006121e2015260006122240152600061220301526000612190015260006121b70152614dd96000f3fe6080604052600436106102075760003560e01c80636fcfff45116101185780639ab24eb0116100a0578063c3cda5201161006f578063c3cda52014610821578063d505accf1461084a578063dd62ed3e14610873578063e9c26518146108b0578063f1127ed8146108db5761020e565b80639ab24eb01461073f578063a217fddf1461077c578063a457c2d7146107a7578063a9059cbb146107e45761020e565b80637ecebe00116100e75780637ecebe00146106325780638e539e8c1461066f57806391d14854146106ac57806395367f89146106e957806395d89b41146107145761020e565b80636fcfff451461056457806370a08231146105a157806375b238fc146105de57806379cc6790146106095761020e565b8063313ce5671161019b5780633a46b1a81161016a5780633a46b1a81461046f57806340c10f19146104ac57806342966c68146104d5578063587cde1e146104fe5780635c19a95c1461053b5761020e565b8063313ce567146103b157806332cb6b0c146103dc5780633644e5151461040757806339509351146104325761020e565b8063095ea7b3116101d7578063095ea7b3146102cf57806318160ddd1461030c57806323b872dd14610337578063248a9ca3146103745761020e565b8062ae3bf81461021357806301ffc9a71461023c57806303ee9f221461027957806306fdde03146102a45761020e565b3661020e57005b600080fd5b34801561021f57600080fd5b5061023a60048036038101906102359190613280565b610918565b005b34801561024857600080fd5b50610263600480360381019061025e9190613305565b610a92565b604051610270919061334d565b60405180910390f35b34801561028557600080fd5b5061028e610b37565b60405161029b91906133c7565b60405180910390f35b3480156102b057600080fd5b506102b9610b5d565b6040516102c6919061347b565b60405180910390f35b3480156102db57600080fd5b506102f660048036038101906102f191906134ff565b610bef565b604051610303919061334d565b60405180910390f35b34801561031857600080fd5b50610321610c0d565b60405161032e919061354e565b60405180910390f35b34801561034357600080fd5b5061035e60048036038101906103599190613569565b610c17565b60405161036b919061334d565b60405180910390f35b34801561038057600080fd5b5061039b600480360381019061039691906135f2565b610d0f565b6040516103a8919061362e565b60405180910390f35b3480156103bd57600080fd5b506103c6610db4565b6040516103d39190613665565b60405180910390f35b3480156103e857600080fd5b506103f1610dbd565b6040516103fe919061354e565b60405180910390f35b34801561041357600080fd5b5061041c610dcc565b604051610429919061362e565b60405180910390f35b34801561043e57600080fd5b50610459600480360381019061045491906134ff565b610ddb565b604051610466919061334d565b60405180910390f35b34801561047b57600080fd5b50610496600480360381019061049191906134ff565b610e87565b6040516104a3919061354e565b60405180910390f35b3480156104b857600080fd5b506104d360048036038101906104ce91906134ff565b610f1b565b005b3480156104e157600080fd5b506104fc60048036038101906104f79190613680565b610fdb565b005b34801561050a57600080fd5b50610525600480360381019061052091906136ad565b610fef565b60405161053291906136e9565b60405180910390f35b34801561054757600080fd5b50610562600480360381019061055d91906136ad565b611058565b005b34801561057057600080fd5b5061058b600480360381019061058691906136ad565b61106c565b6040516105989190613723565b60405180910390f35b3480156105ad57600080fd5b506105c860048036038101906105c391906136ad565b6110c0565b6040516105d5919061354e565b60405180910390f35b3480156105ea57600080fd5b506105f3611108565b604051610600919061362e565b60405180910390f35b34801561061557600080fd5b50610630600480360381019061062b91906134ff565b61112c565b005b34801561063e57600080fd5b50610659600480360381019061065491906136ad565b6111a7565b604051610666919061354e565b60405180910390f35b34801561067b57600080fd5b5061069660048036038101906106919190613680565b6111f7565b6040516106a3919061354e565b60405180910390f35b3480156106b857600080fd5b506106d360048036038101906106ce919061373e565b61124d565b6040516106e0919061334d565b60405180910390f35b3480156106f557600080fd5b506106fe6112f5565b60405161070b919061362e565b60405180910390f35b34801561072057600080fd5b50610729611319565b604051610736919061347b565b60405180910390f35b34801561074b57600080fd5b50610766600480360381019061076191906136ad565b6113ab565b604051610773919061354e565b60405180910390f35b34801561078857600080fd5b506107916114bc565b60405161079e919061362e565b60405180910390f35b3480156107b357600080fd5b506107ce60048036038101906107c991906134ff565b6114c3565b6040516107db919061334d565b60405180910390f35b3480156107f057600080fd5b5061080b600480360381019061080691906134ff565b6115ae565b604051610818919061334d565b60405180910390f35b34801561082d57600080fd5b50610848600480360381019061084391906137aa565b6115cc565b005b34801561085657600080fd5b50610871600480360381019061086c9190613837565b6116d0565b005b34801561087f57600080fd5b5061089a600480360381019061089591906138d9565b611812565b6040516108a7919061354e565b60405180910390f35b3480156108bc57600080fd5b506108c5611899565b6040516108d2919061362e565b60405180910390f35b3480156108e757600080fd5b5061090260048036038101906108fd9190613945565b6118a0565b60405161090f91906139fa565b60405180910390f35b6000801b610926813361124d565b6109695780336040517f37c2e343000000000000000000000000000000000000000000000000000000008152600401610960929190613a15565b60405180910390fd5b600073ffffffffffffffffffffffffffffffffffffffff168273ffffffffffffffffffffffffffffffffffffffff16036109e9573373ffffffffffffffffffffffffffffffffffffffff166108fc479081150290604051600060405180830381858888f193505050501580156109e3573d6000803e3d6000fd5b50610a8e565b610a8d338373ffffffffffffffffffffffffffffffffffffffff166370a08231306040518263ffffffff1660e01b8152600401610a2691906136e9565b602060405180830381865afa158015610a43573d6000803e3d6000fd5b505050506040513d601f19601f82011682018060405250810190610a679190613a53565b8473ffffffffffffffffffffffffffffffffffffffff16611cb69092919063ffffffff16565b5b5050565b6000600960009054906101000a900473ffffffffffffffffffffffffffffffffffffffff1673ffffffffffffffffffffffffffffffffffffffff166301ffc9a7836040518263ffffffff1660e01b8152600401610aef9190613a8f565b602060405180830381865afa158015610b0c573d6000803e3d6000fd5b505050506040513d601f19601f82011682018060405250810190610b309190613ad6565b9050919050565b600960009054906101000a900473ffffffffffffffffffffffffffffffffffffffff1681565b606060038054610b6c90613b32565b80601f0160208091040260200160405190810160405280929190818152602001828054610b9890613b32565b8015610be55780601f10610bba57610100808354040283529160200191610be5565b820191906000526020600020905b815481529060010190602001808311610bc857829003601f168201915b5050505050905090565b6000610c03610bfc611d3c565b8484611d44565b6001905092915050565b6000600254905090565b6000610c24848484611f0d565b6000600160008673ffffffffffffffffffffffffffffffffffffffff1673ffffffffffffffffffffffffffffffffffffffff1681526020019081526020016000206000610c6f611d3c565b73ffffffffffffffffffffffffffffffffffffffff1673ffffffffffffffffffffffffffffffffffffffff16815260200190815260200160002054905082811015610cef576040517f08c379a0000000000000000000000000000000000000000000000000000000008152600401610ce690613bd5565b60405180910390fd5b610d0385610cfb611d3c565b858403611d44565b60019150509392505050565b6000600960009054906101000a900473ffffffffffffffffffffffffffffffffffffffff1673ffffffffffffffffffffffffffffffffffffffff1663248a9ca3836040518263ffffffff1660e01b8152600401610d6c919061362e565b602060405180830381865afa158015610d89573d6000803e3d6000fd5b505050506040513d601f19601f82011682018060405250810190610dad9190613c0a565b9050919050565b60006012905090565b6a115eec47f6cf7e3500000081565b6000610dd661218c565b905090565b6000610e7d610de8611d3c565b848460016000610df6611d3c565b73ffffffffffffffffffffffffffffffffffffffff1673ffffffffffffffffffffffffffffffffffffffff16815260200190815260200160002060008873ffffffffffffffffffffffffffffffffffffffff1673ffffffffffffffffffffffffffffffffffffffff16815260200190815260200160002054610e789190613c66565b611d44565b6001905092915050565b6000438210610ecb576040517f08c379a0000000000000000000000000000000000000000000000000000000008152600401610ec290613d08565b60405180910390fd5b610f13600760008573ffffffffffffffffffffffffffffffffffffffff1673ffffffffffffffffffffffffffffffffffffffff1681526020019081526020016000208361224e565b905092915050565b6000801b610f29813361124d565b610f6c5780336040517f37c2e343000000000000000000000000000000000000000000000000000000008152600401610f63929190613a15565b60405180910390fd5b6a115eec47f6cf7e3500000082610f81610c0d565b610f8b9190613c66565b1115610fcc576040517f08c379a0000000000000000000000000000000000000000000000000000000008152600401610fc390613d74565b60405180910390fd5b610fd6838361235a565b505050565b610fec610fe6611d3c565b82612368565b50565b6000600660008373ffffffffffffffffffffffffffffffffffffffff1673ffffffffffffffffffffffffffffffffffffffff16815260200190815260200160002060009054906101000a900473ffffffffffffffffffffffffffffffffffffffff169050919050565b611069611063611d3c565b82612376565b50565b60006110b9600760008473ffffffffffffffffffffffffffffffffffffffff1673ffffffffffffffffffffffffffffffffffffffff16815260200190815260200160002080549050611c1d565b9050919050565b60008060008373ffffffffffffffffffffffffffffffffffffffff1673ffffffffffffffffffffffffffffffffffffffff168152602001908152602001600020549050919050565b7fa49807205ce4d355092ef5a8a18f56e8913cf4a201fbe287825b095693c2177581565b600061113f8361113a611d3c565b611812565b905081811015611184576040517f08c379a000000000000000000000000000000000000000000000000000000000815260040161117b90613e06565b60405180910390fd5b61119883611190611d3c565b848403611d44565b6111a28383612368565b505050565b60006111f0600560008473ffffffffffffffffffffffffffffffffffffffff1673ffffffffffffffffffffffffffffffffffffffff168152602001908152602001600020612490565b9050919050565b600043821061123b576040517f08c379a000000000000000000000000000000000000000000000000000000000815260040161123290613d08565b60405180910390fd5b61124660088361224e565b9050919050565b6000600960009054906101000a900473ffffffffffffffffffffffffffffffffffffffff1673ffffffffffffffffffffffffffffffffffffffff166391d1485484846040518363ffffffff1660e01b81526004016112ac929190613a15565b602060405180830381865afa1580156112c9573d6000803e3d6000fd5b505050506040513d601f19601f820116820180604052508101906112ed9190613ad6565b905092915050565b7f0a7cc066f24e107ff77c42c8a1bdaf1a5f775fa4a74e45530aaf9c866368f65381565b60606004805461132890613b32565b80601f016020809104026020016040519081016040528092919081815260200182805461135490613b32565b80156113a15780601f10611376576101008083540402835291602001916113a1565b820191906000526020600020905b81548152906001019060200180831161138457829003601f168201915b5050505050905090565b600080600760008473ffffffffffffffffffffffffffffffffffffffff1673ffffffffffffffffffffffffffffffffffffffff1681526020019081526020016000208054905090506000811461149357600760008473ffffffffffffffffffffffffffffffffffffffff1673ffffffffffffffffffffffffffffffffffffffff1681526020019081526020016000206001826114479190613e26565b8154811061145857611457613e5a565b5b9060005260206000200160000160049054906101000a90047bffffffffffffffffffffffffffffffffffffffffffffffffffffffff16611496565b60005b7bffffffffffffffffffffffffffffffffffffffffffffffffffffffff16915050919050565b6000801b81565b600080600160006114d2611d3c565b73ffffffffffffffffffffffffffffffffffffffff1673ffffffffffffffffffffffffffffffffffffffff16815260200190815260200160002060008573ffffffffffffffffffffffffffffffffffffffff1673ffffffffffffffffffffffffffffffffffffffff1681526020019081526020016000205490508281101561158f576040517f08c379a000000000000000000000000000000000000000000000000000000000815260040161158690613efb565b60405180910390fd5b6115a361159a611d3c565b85858403611d44565b600191505092915050565b60006115c26115bb611d3c565b8484611f0d565b6001905092915050565b8342111561160f576040517f08c379a000000000000000000000000000000000000000000000000000000000815260040161160690613f67565b60405180910390fd5b60006116716116697fe48329057bfd03d55e49b547132e39cffd9c1820ad7b9d4c5307691425d15adf89898960405160200161164e9493929190613f87565b6040516020818303038152906040528051906020012061249e565b8585856124b8565b905061167c816124e3565b86146116bd576040517f08c379a00000000000000000000000000000000000000000000000000000000081526004016116b490614018565b60405180910390fd5b6116c78188612376565b50505050505050565b83421115611713576040517f08c379a000000000000000000000000000000000000000000000000000000000815260040161170a90614084565b60405180910390fd5b60007f00000000000000000000000000000000000000000000000000000000000000008888886117428c6124e3565b89604051602001611758969594939291906140a4565b604051602081830303815290604052805190602001209050600061177b8261249e565b9050600061178b828787876124b8565b90508973ffffffffffffffffffffffffffffffffffffffff168173ffffffffffffffffffffffffffffffffffffffff16146117fb576040517f08c379a00000000000000000000000000000000000000000000000000000000081526004016117f290614151565b60405180910390fd5b6118068a8a8a611d44565b50505050505050505050565b6000600160008473ffffffffffffffffffffffffffffffffffffffff1673ffffffffffffffffffffffffffffffffffffffff16815260200190815260200160002060008373ffffffffffffffffffffffffffffffffffffffff1673ffffffffffffffffffffffffffffffffffffffff16815260200190815260200160002054905092915050565b6000801b81565b6118a86131cd565b600760008473ffffffffffffffffffffffffffffffffffffffff1673ffffffffffffffffffffffffffffffffffffffff1681526020019081526020016000208263ffffffff16815481106118ff576118fe613e5a565b5b906000526020600020016040518060400160405290816000820160009054906101000a900463ffffffff1663ffffffff1663ffffffff1681526020016000820160049054906101000a90047bffffffffffffffffffffffffffffffffffffffffffffffffffffffff167bffffffffffffffffffffffffffffffffffffffffffffffffffffffff167bffffffffffffffffffffffffffffffffffffffffffffffffffffffff1681525050905092915050565b6119ba8282611a3d565b6119c2612541565b7bffffffffffffffffffffffffffffffffffffffffffffffffffffffff166119e8610c0d565b1115611a29576040517f08c379a0000000000000000000000000000000000000000000000000000000008152600401611a20906141e3565b60405180910390fd5b611a376008611b9c83612565565b50505050565b600073ffffffffffffffffffffffffffffffffffffffff168273ffffffffffffffffffffffffffffffffffffffff1603611aac576040517f08c379a0000000000000000000000000000000000000000000000000000000008152600401611aa39061424f565b60405180910390fd5b611ab8600083836127dd565b8060026000828254611aca9190613c66565b92505081905550806000808473ffffffffffffffffffffffffffffffffffffffff1673ffffffffffffffffffffffffffffffffffffffff1681526020019081526020016000206000828254611b1f9190613c66565b925050819055508173ffffffffffffffffffffffffffffffffffffffff16600073ffffffffffffffffffffffffffffffffffffffff167fddf252ad1be2c89b69c2b068fc378daa952ba7f163c4a11628f55a4df523b3ef83604051611b84919061354e565b60405180910390a3611b98600083836127e2565b5050565b60008183611baa9190613c66565b905092915050565b60007bffffffffffffffffffffffffffffffffffffffffffffffffffffffff8016821115611c15576040517f08c379a0000000000000000000000000000000000000000000000000000000008152600401611c0c906142e1565b60405180910390fd5b819050919050565b600063ffffffff8016821115611c68576040517f08c379a0000000000000000000000000000000000000000000000000000000008152600401611c5f90614373565b60405180910390fd5b819050919050565b611c7b838383611c9b565b611c96611c8784610fef565b611c9084610fef565b836127f2565b505050565b505050565b60008183611cae9190613e26565b905092915050565b611d378363a9059cbb60e01b8484604051602401611cd5929190614393565b604051602081830303815290604052907bffffffffffffffffffffffffffffffffffffffffffffffffffffffff19166020820180517bffffffffffffffffffffffffffffffffffffffffffffffffffffffff83818316178352505050506129eb565b505050565b600033905090565b600073ffffffffffffffffffffffffffffffffffffffff168373ffffffffffffffffffffffffffffffffffffffff1603611db3576040517f08c379a0000000000000000000000000000000000000000000000000000000008152600401611daa9061442e565b60405180910390fd5b600073ffffffffffffffffffffffffffffffffffffffff168273ffffffffffffffffffffffffffffffffffffffff1603611e22576040517f08c379a0000000000000000000000000000000000000000000000000000000008152600401611e19906144c0565b60405180910390fd5b80600160008573ffffffffffffffffffffffffffffffffffffffff1673ffffffffffffffffffffffffffffffffffffffff16815260200190815260200160002060008473ffffffffffffffffffffffffffffffffffffffff1673ffffffffffffffffffffffffffffffffffffffff168152602001908152602001600020819055508173ffffffffffffffffffffffffffffffffffffffff168373ffffffffffffffffffffffffffffffffffffffff167f8c5be1e5ebec7d5bd14f71427d1e84f3dd0314c0f7b2291e5b200ac8c7c3b92583604051611f00919061354e565b60405180910390a3505050565b600073ffffffffffffffffffffffffffffffffffffffff168373ffffffffffffffffffffffffffffffffffffffff1603611f7c576040517f08c379a0000000000000000000000000000000000000000000000000000000008152600401611f7390614552565b60405180910390fd5b600073ffffffffffffffffffffffffffffffffffffffff168273ffffffffffffffffffffffffffffffffffffffff1603611feb576040517f08c379a0000000000000000000000000000000000000000000000000000000008152600401611fe2906145e4565b60405180910390fd5b611ff68383836127dd565b60008060008573ffffffffffffffffffffffffffffffffffffffff1673ffffffffffffffffffffffffffffffffffffffff1681526020019081526020016000205490508181101561207c576040517f08c379a000000000000000000000000000000000000000000000000000000000815260040161207390614676565b60405180910390fd5b8181036000808673ffffffffffffffffffffffffffffffffffffffff1673ffffffffffffffffffffffffffffffffffffffff16815260200190815260200160002081905550816000808573ffffffffffffffffffffffffffffffffffffffff1673ffffffffffffffffffffffffffffffffffffffff168152602001908152602001600020600082825461210f9190613c66565b925050819055508273ffffffffffffffffffffffffffffffffffffffff168473ffffffffffffffffffffffffffffffffffffffff167fddf252ad1be2c89b69c2b068fc378daa952ba7f163c4a11628f55a4df523b3ef84604051612173919061354e565b60405180910390a36121868484846127e2565b50505050565b60007f000000000000000000000000000000000000000000000000000000000000000046036121dd577f0000000000000000000000000000000000000000000000000000000000000000905061224b565b6122487f00000000000000000000000000000000000000000000000000000000000000007f00000000000000000000000000000000000000000000000000000000000000007f0000000000000000000000000000000000000000000000000000000000000000612ab2565b90505b90565b6000808380549050905060005b818110156122cd57600061226f8284612aec565b90508486828154811061228557612284613e5a565b5b9060005260206000200160000160009054906101000a900463ffffffff1663ffffffff1611156122b7578092506122c7565b6001816122c49190613c66565b91505b5061225b565b6000821461232f57846001836122e39190613e26565b815481106122f4576122f3613e5a565b5b9060005260206000200160000160049054906101000a90047bffffffffffffffffffffffffffffffffffffffffffffffffffffffff16612332565b60005b7bffffffffffffffffffffffffffffffffffffffffffffffffffffffff169250505092915050565b61236482826119b0565b5050565b6123728282612b12565b5050565b600061238183610fef565b9050600061238e846110c0565b905082600660008673ffffffffffffffffffffffffffffffffffffffff1673ffffffffffffffffffffffffffffffffffffffff16815260200190815260200160002060006101000a81548173ffffffffffffffffffffffffffffffffffffffff021916908373ffffffffffffffffffffffffffffffffffffffff1602179055508273ffffffffffffffffffffffffffffffffffffffff168273ffffffffffffffffffffffffffffffffffffffff168573ffffffffffffffffffffffffffffffffffffffff167f3134e8a2e6d97e929a7e54011ea5485d7d196dd5f0ba4d4ef95803e8e3fc257f60405160405180910390a461248a8284836127f2565b50505050565b600081600001549050919050565b60006124b16124ab61218c565b83612b30565b9050919050565b60008060006124c987878787612b63565b915091506124d681612c6f565b8192505050949350505050565b600080600560008473ffffffffffffffffffffffffffffffffffffffff1673ffffffffffffffffffffffffffffffffffffffff168152602001908152602001600020905061253081612490565b915061253b81612e3b565b50919050565b60007bffffffffffffffffffffffffffffffffffffffffffffffffffffffff905090565b600080600085805490509050600081146125d357856001826125879190613e26565b8154811061259857612597613e5a565b5b9060005260206000200160000160049054906101000a90047bffffffffffffffffffffffffffffffffffffffffffffffffffffffff166125d6565b60005b7bffffffffffffffffffffffffffffffffffffffffffffffffffffffff16925061260483858763ffffffff16565b9150600081118015612657575043866001836126209190613e26565b8154811061263157612630613e5a565b5b9060005260206000200160000160009054906101000a900463ffffffff1663ffffffff16145b156126e45761266582611bb2565b866001836126739190613e26565b8154811061268457612683613e5a565b5b9060005260206000200160000160046101000a8154817bffffffffffffffffffffffffffffffffffffffffffffffffffffffff02191690837bffffffffffffffffffffffffffffffffffffffffffffffffffffffff1602179055506127d4565b8560405180604001604052806126f943611c1d565b63ffffffff16815260200161270d85611bb2565b7bffffffffffffffffffffffffffffffffffffffffffffffffffffffff168152509080600181540180825580915050600190039060005260206000200160009091909190915060008201518160000160006101000a81548163ffffffff021916908363ffffffff16021790555060208201518160000160046101000a8154817bffffffffffffffffffffffffffffffffffffffffffffffffffffffff02191690837bffffffffffffffffffffffffffffffffffffffffffffffffffffffff16021790555050505b50935093915050565b505050565b6127ed838383611c70565b505050565b8173ffffffffffffffffffffffffffffffffffffffff168373ffffffffffffffffffffffffffffffffffffffff161415801561282e5750600081115b156129e657600073ffffffffffffffffffffffffffffffffffffffff168373ffffffffffffffffffffffffffffffffffffffff161461290c576000806128b5600760008773ffffffffffffffffffffffffffffffffffffffff1673ffffffffffffffffffffffffffffffffffffffff168152602001908152602001600020611ca085612565565b915091508473ffffffffffffffffffffffffffffffffffffffff167fdec2bacdd2f05b59de34da9b523dff8be42e5e38e818c82fdb0bae774387a7248383604051612901929190614696565b60405180910390a250505b600073ffffffffffffffffffffffffffffffffffffffff168273ffffffffffffffffffffffffffffffffffffffff16146129e55760008061298e600760008673ffffffffffffffffffffffffffffffffffffffff1673ffffffffffffffffffffffffffffffffffffffff168152602001908152602001600020611b9c85612565565b915091508373ffffffffffffffffffffffffffffffffffffffff167fdec2bacdd2f05b59de34da9b523dff8be42e5e38e818c82fdb0bae774387a72483836040516129da929190614696565b60405180910390a250505b5b505050565b6000612a4d826040518060400160405280602081526020017f5361666545524332303a206c6f772d6c6576656c2063616c6c206661696c65648152508573ffffffffffffffffffffffffffffffffffffffff16612e519092919063ffffffff16565b9050600081511115612aad5780806020019051810190612a6d9190613ad6565b612aac576040517f08c379a0000000000000000000000000000000000000000000000000000000008152600401612aa390614731565b60405180910390fd5b5b505050565b60008383834630604051602001612acd959493929190614751565b6040516020818303038152906040528051906020012090509392505050565b60006002828418612afd91906147d3565b828416612b0a9190613c66565b905092915050565b612b1c8282612e69565b612b2a6008611ca083612565565b50505050565b60008282604051602001612b4592919061487c565b60405160208183030381529060405280519060200120905092915050565b6000807f7fffffffffffffffffffffffffffffff5d576e7357a4501ddfe92f46681b20a08360001c1115612b9e576000600391509150612c66565b601b8560ff1614158015612bb65750601c8560ff1614155b15612bc8576000600491509150612c66565b600060018787878760405160008152602001604052604051612bed94939291906148b3565b6020604051602081039080840390855afa158015612c0f573d6000803e3d6000fd5b505050602060405103519050600073ffffffffffffffffffffffffffffffffffffffff168173ffffffffffffffffffffffffffffffffffffffff1603612c5d57600060019250925050612c66565b80600092509250505b94509492505050565b60006004811115612c8357612c826148f8565b5b816004811115612c9657612c956148f8565b5b0315612e385760016004811115612cb057612caf6148f8565b5b816004811115612cc357612cc26148f8565b5b03612d03576040517f08c379a0000000000000000000000000000000000000000000000000000000008152600401612cfa90614973565b60405180910390fd5b60026004811115612d1757612d166148f8565b5b816004811115612d2a57612d296148f8565b5b03612d6a576040517f08c379a0000000000000000000000000000000000000000000000000000000008152600401612d61906149df565b60405180910390fd5b60036004811115612d7e57612d7d6148f8565b5b816004811115612d9157612d906148f8565b5b03612dd1576040517f08c379a0000000000000000000000000000000000000000000000000000000008152600401612dc890614a71565b60405180910390fd5b600480811115612de457612de36148f8565b5b816004811115612df757612df66148f8565b5b03612e37576040517f08c379a0000000000000000000000000000000000000000000000000000000008152600401612e2e90614b03565b60405180910390fd5b5b50565b6001816000016000828254019250508190555050565b6060612e60848460008561303f565b90509392505050565b600073ffffffffffffffffffffffffffffffffffffffff168273ffffffffffffffffffffffffffffffffffffffff1603612ed8576040517f08c379a0000000000000000000000000000000000000000000000000000000008152600401612ecf90614b95565b60405180910390fd5b612ee4826000836127dd565b60008060008473ffffffffffffffffffffffffffffffffffffffff1673ffffffffffffffffffffffffffffffffffffffff16815260200190815260200160002054905081811015612f6a576040517f08c379a0000000000000000000000000000000000000000000000000000000008152600401612f6190614c27565b60405180910390fd5b8181036000808573ffffffffffffffffffffffffffffffffffffffff1673ffffffffffffffffffffffffffffffffffffffff168152602001908152602001600020819055508160026000828254612fc19190613e26565b92505081905550600073ffffffffffffffffffffffffffffffffffffffff168373ffffffffffffffffffffffffffffffffffffffff167fddf252ad1be2c89b69c2b068fc378daa952ba7f163c4a11628f55a4df523b3ef84604051613026919061354e565b60405180910390a361303a836000846127e2565b505050565b606082471015613084576040517f08c379a000000000000000000000000000000000000000000000000000000000815260040161307b90614cb9565b60405180910390fd5b61308d85613153565b6130cc576040517f08c379a00000000000000000000000000000000000000000000000000000000081526004016130c390614d25565b60405180910390fd5b6000808673ffffffffffffffffffffffffffffffffffffffff1685876040516130f59190614d8c565b60006040518083038185875af1925050503d8060008114613132576040519150601f19603f3d011682016040523d82523d6000602084013e613137565b606091505b5091509150613147828286613166565b92505050949350505050565b600080823b905060008111915050919050565b60608315613176578290506131c6565b6000835111156131895782518084602001fd5b816040517f08c379a00000000000000000000000000000000000000000000000000000000081526004016131bd919061347b565b60405180910390fd5b9392505050565b6040518060400160405280600063ffffffff16815260200160007bffffffffffffffffffffffffffffffffffffffffffffffffffffffff1681525090565b600080fd5b600073ffffffffffffffffffffffffffffffffffffffff82169050919050565b600061323b82613210565b9050919050565b600061324d82613230565b9050919050565b61325d81613242565b811461326857600080fd5b50565b60008135905061327a81613254565b92915050565b6000602082840312156132965761329561320b565b5b60006132a48482850161326b565b91505092915050565b60007fffffffff0000000000000000000000000000000000000000000000000000000082169050919050565b6132e2816132ad565b81146132ed57600080fd5b50565b6000813590506132ff816132d9565b92915050565b60006020828403121561331b5761331a61320b565b5b6000613329848285016132f0565b91505092915050565b60008115159050919050565b61334781613332565b82525050565b6000602082019050613362600083018461333e565b92915050565b6000819050919050565b600061338d61338861338384613210565b613368565b613210565b9050919050565b600061339f82613372565b9050919050565b60006133b182613394565b9050919050565b6133c1816133a6565b82525050565b60006020820190506133dc60008301846133b8565b92915050565b600081519050919050565b600082825260208201905092915050565b60005b8381101561341c578082015181840152602081019050613401565b8381111561342b576000848401525b50505050565b6000601f19601f8301169050919050565b600061344d826133e2565b61345781856133ed565b93506134678185602086016133fe565b61347081613431565b840191505092915050565b600060208201905081810360008301526134958184613442565b905092915050565b6134a681613230565b81146134b157600080fd5b50565b6000813590506134c38161349d565b92915050565b6000819050919050565b6134dc816134c9565b81146134e757600080fd5b50565b6000813590506134f9816134d3565b92915050565b600080604083850312156135165761351561320b565b5b6000613524858286016134b4565b9250506020613535858286016134ea565b9150509250929050565b613548816134c9565b82525050565b6000602082019050613563600083018461353f565b92915050565b6000806000606084860312156135825761358161320b565b5b6000613590868287016134b4565b93505060206135a1868287016134b4565b92505060406135b2868287016134ea565b9150509250925092565b6000819050919050565b6135cf816135bc565b81146135da57600080fd5b50565b6000813590506135ec816135c6565b92915050565b6000602082840312156136085761360761320b565b5b6000613616848285016135dd565b91505092915050565b613628816135bc565b82525050565b6000602082019050613643600083018461361f565b92915050565b600060ff82169050919050565b61365f81613649565b82525050565b600060208201905061367a6000830184613656565b92915050565b6000602082840312156136965761369561320b565b5b60006136a4848285016134ea565b91505092915050565b6000602082840312156136c3576136c261320b565b5b60006136d1848285016134b4565b91505092915050565b6136e381613230565b82525050565b60006020820190506136fe60008301846136da565b92915050565b600063ffffffff82169050919050565b61371d81613704565b82525050565b60006020820190506137386000830184613714565b92915050565b600080604083850312156137555761375461320b565b5b6000613763858286016135dd565b9250506020613774858286016134b4565b9150509250929050565b61378781613649565b811461379257600080fd5b50565b6000813590506137a48161377e565b92915050565b60008060008060008060c087890312156137c7576137c661320b565b5b60006137d589828a016134b4565b96505060206137e689828a016134ea565b95505060406137f789828a016134ea565b945050606061380889828a01613795565b935050608061381989828a016135dd565b92505060a061382a89828a016135dd565b9150509295509295509295565b600080600080600080600060e0888a0312156138565761385561320b565b5b60006138648a828b016134b4565b97505060206138758a828b016134b4565b96505060406138868a828b016134ea565b95505060606138978a828b016134ea565b94505060806138a88a828b01613795565b93505060a06138b98a828b016135dd565b92505060c06138ca8a828b016135dd565b91505092959891949750929550565b600080604083850312156138f0576138ef61320b565b5b60006138fe858286016134b4565b925050602061390f858286016134b4565b9150509250929050565b61392281613704565b811461392d57600080fd5b50565b60008135905061393f81613919565b92915050565b6000806040838503121561395c5761395b61320b565b5b600061396a858286016134b4565b925050602061397b85828601613930565b9150509250929050565b61398e81613704565b82525050565b60007bffffffffffffffffffffffffffffffffffffffffffffffffffffffff82169050919050565b6139c581613994565b82525050565b6040820160008201516139e16000850182613985565b5060208201516139f460208501826139bc565b50505050565b6000604082019050613a0f60008301846139cb565b92915050565b6000604082019050613a2a600083018561361f565b613a3760208301846136da565b9392505050565b600081519050613a4d816134d3565b92915050565b600060208284031215613a6957613a6861320b565b5b6000613a7784828501613a3e565b91505092915050565b613a89816132ad565b82525050565b6000602082019050613aa46000830184613a80565b92915050565b613ab381613332565b8114613abe57600080fd5b50565b600081519050613ad081613aaa565b92915050565b600060208284031215613aec57613aeb61320b565b5b6000613afa84828501613ac1565b91505092915050565b7f4e487b7100000000000000000000000000000000000000000000000000000000600052602260045260246000fd5b60006002820490506001821680613b4a57607f821691505b602082108103613b5d57613b5c613b03565b5b50919050565b7f45524332303a207472616e7366657220616d6f756e742065786365656473206160008201527f6c6c6f77616e6365000000000000000000000000000000000000000000000000602082015250565b6000613bbf6028836133ed565b9150613bca82613b63565b604082019050919050565b60006020820190508181036000830152613bee81613bb2565b9050919050565b600081519050613c04816135c6565b92915050565b600060208284031215613c2057613c1f61320b565b5b6000613c2e84828501613bf5565b91505092915050565b7f4e487b7100000000000000000000000000000000000000000000000000000000600052601160045260246000fd5b6000613c71826134c9565b9150613c7c836134c9565b9250827fffffffffffffffffffffffffffffffffffffffffffffffffffffffffffffffff03821115613cb157613cb0613c37565b5b828201905092915050565b7f4552433230566f7465733a20626c6f636b206e6f7420796574206d696e656400600082015250565b6000613cf2601f836133ed565b9150613cfd82613cbc565b602082019050919050565b60006020820190508181036000830152613d2181613ce5565b9050919050565b7f6d617820737570706c7920697320657863656564656400000000000000000000600082015250565b6000613d5e6016836133ed565b9150613d6982613d28565b602082019050919050565b60006020820190508181036000830152613d8d81613d51565b9050919050565b7f45524332303a206275726e20616d6f756e74206578636565647320616c6c6f7760008201527f616e636500000000000000000000000000000000000000000000000000000000602082015250565b6000613df06024836133ed565b9150613dfb82613d94565b604082019050919050565b60006020820190508181036000830152613e1f81613de3565b9050919050565b6000613e31826134c9565b9150613e3c836134c9565b925082821015613e4f57613e4e613c37565b5b828203905092915050565b7f4e487b7100000000000000000000000000000000000000000000000000000000600052603260045260246000fd5b7f45524332303a2064656372656173656420616c6c6f77616e63652062656c6f7760008201527f207a65726f000000000000000000000000000000000000000000000000000000602082015250565b6000613ee56025836133ed565b9150613ef082613e89565b604082019050919050565b60006020820190508181036000830152613f1481613ed8565b9050919050565b7f4552433230566f7465733a207369676e61747572652065787069726564000000600082015250565b6000613f51601d836133ed565b9150613f5c82613f1b565b602082019050919050565b60006020820190508181036000830152613f8081613f44565b9050919050565b6000608082019050613f9c600083018761361f565b613fa960208301866136da565b613fb6604083018561353f565b613fc3606083018461353f565b95945050505050565b7f4552433230566f7465733a20696e76616c6964206e6f6e636500000000000000600082015250565b60006140026019836133ed565b915061400d82613fcc565b602082019050919050565b6000602082019050818103600083015261403181613ff5565b9050919050565b7f45524332305065726d69743a206578706972656420646561646c696e65000000600082015250565b600061406e601d836133ed565b915061407982614038565b602082019050919050565b6000602082019050818103600083015261409d81614061565b9050919050565b600060c0820190506140b9600083018961361f565b6140c660208301886136da565b6140d360408301876136da565b6140e0606083018661353f565b6140ed608083018561353f565b6140fa60a083018461353f565b979650505050505050565b7f45524332305065726d69743a20696e76616c6964207369676e61747572650000600082015250565b600061413b601e836133ed565b915061414682614105565b602082019050919050565b6000602082019050818103600083015261416a8161412e565b9050919050565b7f4552433230566f7465733a20746f74616c20737570706c79207269736b73206f60008201527f766572666c6f77696e6720766f74657300000000000000000000000000000000602082015250565b60006141cd6030836133ed565b91506141d882614171565b604082019050919050565b600060208201905081810360008301526141fc816141c0565b9050919050565b7f45524332303a206d696e7420746f20746865207a65726f206164647265737300600082015250565b6000614239601f836133ed565b915061424482614203565b602082019050919050565b600060208201905081810360008301526142688161422c565b9050919050565b7f53616665436173743a2076616c756520646f65736e27742066697420696e203260008201527f3234206269747300000000000000000000000000000000000000000000000000602082015250565b60006142cb6027836133ed565b91506142d68261426f565b604082019050919050565b600060208201905081810360008301526142fa816142be565b9050919050565b7f53616665436173743a2076616c756520646f65736e27742066697420696e203360008201527f3220626974730000000000000000000000000000000000000000000000000000602082015250565b600061435d6026836133ed565b915061436882614301565b604082019050919050565b6000602082019050818103600083015261438c81614350565b9050919050565b60006040820190506143a860008301856136da565b6143b5602083018461353f565b9392505050565b7f45524332303a20617070726f76652066726f6d20746865207a65726f2061646460008201527f7265737300000000000000000000000000000000000000000000000000000000602082015250565b60006144186024836133ed565b9150614423826143bc565b604082019050919050565b600060208201905081810360008301526144478161440b565b9050919050565b7f45524332303a20617070726f766520746f20746865207a65726f20616464726560008201527f7373000000000000000000000000000000000000000000000000000000000000602082015250565b60006144aa6022836133ed565b91506144b58261444e565b604082019050919050565b600060208201905081810360008301526144d98161449d565b9050919050565b7f45524332303a207472616e736665722066726f6d20746865207a65726f20616460008201527f6472657373000000000000000000000000000000000000000000000000000000602082015250565b600061453c6025836133ed565b9150614547826144e0565b604082019050919050565b6000602082019050818103600083015261456b8161452f565b9050919050565b7f45524332303a207472616e7366657220746f20746865207a65726f206164647260008201527f6573730000000000000000000000000000000000000000000000000000000000602082015250565b60006145ce6023836133ed565b91506145d982614572565b604082019050919050565b600060208201905081810360008301526145fd816145c1565b9050919050565b7f45524332303a207472616e7366657220616d6f756e742065786365656473206260008201527f616c616e63650000000000000000000000000000000000000000000000000000602082015250565b60006146606026836133ed565b915061466b82614604565b604082019050919050565b6000602082019050818103600083015261468f81614653565b9050919050565b60006040820190506146ab600083018561353f565b6146b8602083018461353f565b9392505050565b7f5361666545524332303a204552433230206f7065726174696f6e20646964206e60008201527f6f74207375636365656400000000000000000000000000000000000000000000602082015250565b600061471b602a836133ed565b9150614726826146bf565b604082019050919050565b6000602082019050818103600083015261474a8161470e565b9050919050565b600060a082019050614766600083018861361f565b614773602083018761361f565b614780604083018661361f565b61478d606083018561353f565b61479a60808301846136da565b9695505050505050565b7f4e487b7100000000000000000000000000000000000000000000000000000000600052601260045260246000fd5b60006147de826134c9565b91506147e9836134c9565b9250826147f9576147f86147a4565b5b828204905092915050565b600081905092915050565b7f1901000000000000000000000000000000000000000000000000000000000000600082015250565b6000614845600283614804565b91506148508261480f565b600282019050919050565b6000819050919050565b614876614871826135bc565b61485b565b82525050565b600061488782614838565b91506148938285614865565b6020820191506148a38284614865565b6020820191508190509392505050565b60006080820190506148c8600083018761361f565b6148d56020830186613656565b6148e2604083018561361f565b6148ef606083018461361f565b95945050505050565b7f4e487b7100000000000000000000000000000000000000000000000000000000600052602160045260246000fd5b7f45434453413a20696e76616c6964207369676e61747572650000000000000000600082015250565b600061495d6018836133ed565b915061496882614927565b602082019050919050565b6000602082019050818103600083015261498c81614950565b9050919050565b7f45434453413a20696e76616c6964207369676e6174757265206c656e67746800600082015250565b60006149c9601f836133ed565b91506149d482614993565b602082019050919050565b600060208201905081810360008301526149f8816149bc565b9050919050565b7f45434453413a20696e76616c6964207369676e6174757265202773272076616c60008201527f7565000000000000000000000000000000000000000000000000000000000000602082015250565b6000614a5b6022836133ed565b9150614a66826149ff565b604082019050919050565b60006020820190508181036000830152614a8a81614a4e565b9050919050565b7f45434453413a20696e76616c6964207369676e6174757265202776272076616c60008201527f7565000000000000000000000000000000000000000000000000000000000000602082015250565b6000614aed6022836133ed565b9150614af882614a91565b604082019050919050565b60006020820190508181036000830152614b1c81614ae0565b9050919050565b7f45524332303a206275726e2066726f6d20746865207a65726f2061646472657360008201527f7300000000000000000000000000000000000000000000000000000000000000602082015250565b6000614b7f6021836133ed565b9150614b8a82614b23565b604082019050919050565b60006020820190508181036000830152614bae81614b72565b9050919050565b7f45524332303a206275726e20616d6f756e7420657863656564732062616c616e60008201527f6365000000000000000000000000000000000000000000000000000000000000602082015250565b6000614c116022836133ed565b9150614c1c82614bb5565b604082019050919050565b60006020820190508181036000830152614c4081614c04565b9050919050565b7f416464726573733a20696e73756666696369656e742062616c616e636520666f60008201527f722063616c6c0000000000000000000000000000000000000000000000000000602082015250565b6000614ca36026836133ed565b9150614cae82614c47565b604082019050919050565b60006020820190508181036000830152614cd281614c96565b9050919050565b7f416464726573733a2063616c6c20746f206e6f6e2d636f6e7472616374000000600082015250565b6000614d0f601d836133ed565b9150614d1a82614cd9565b602082019050919050565b60006020820190508181036000830152614d3e81614d02565b9050919050565b600081519050919050565b600081905092915050565b6000614d6682614d45565b614d708185614d50565b9350614d808185602086016133fe565b80840191505092915050565b6000614d988284614d5b565b91508190509291505056fea2646970667358221220b365ffa99a9e12c5716f6d2befcb71e3a0469a69408f32100ec31c32b0ffc13c64736f6c634300080f0033",
  "devdoc": {
    "kind": "dev",
    "methods": {
      "DOMAIN_SEPARATOR()": {
        "details": "See {IERC20Permit-DOMAIN_SEPARATOR}."
      },
      "allowance(address,address)": {
        "details": "See {IERC20-allowance}."
      },
      "approve(address,uint256)": {
        "details": "See {IERC20-approve}. Requirements: - `spender` cannot be the zero address."
      },
      "balanceOf(address)": {
        "details": "See {IERC20-balanceOf}."
      },
      "burn(uint256)": {
        "details": "Destroys `amount` tokens from the caller. See {ERC20-_burn}."
      },
      "burnFrom(address,uint256)": {
        "details": "Destroys `amount` tokens from `account`, deducting from the caller's allowance. See {ERC20-_burn} and {ERC20-allowance}. Requirements: - the caller must have allowance for ``accounts``'s tokens of at least `amount`."
      },
      "checkpoints(address,uint32)": {
        "details": "Get the `pos`-th checkpoint for `account`."
      },
      "decimals()": {
        "details": "Returns the number of decimals used to get its user representation. For example, if `decimals` equals `2`, a balance of `505` tokens should be displayed to a user as `5.05` (`505 / 10 ** 2`). Tokens usually opt for a value of 18, imitating the relationship between Ether and Wei. This is the value {ERC20} uses, unless this function is overridden; NOTE: This information is only used for _display_ purposes: it in no way affects any of the arithmetic of the contract, including {IERC20-balanceOf} and {IERC20-transfer}."
      },
      "decreaseAllowance(address,uint256)": {
        "details": "Atomically decreases the allowance granted to `spender` by the caller. This is an alternative to {approve} that can be used as a mitigation for problems described in {IERC20-approve}. Emits an {Approval} event indicating the updated allowance. Requirements: - `spender` cannot be the zero address. - `spender` must have allowance for the caller of at least `subtractedValue`."
      },
      "delegate(address)": {
        "details": "Delegate votes from the sender to `delegatee`."
      },
      "delegateBySig(address,uint256,uint256,uint8,bytes32,bytes32)": {
        "details": "Delegates votes from signer to `delegatee`"
      },
      "delegates(address)": {
        "details": "Get the address `account` is currently delegating to."
      },
      "getPastTotalSupply(uint256)": {
        "details": "Retrieve the `totalSupply` at the end of `blockNumber`. Note, this value is the sum of all balances. It is but NOT the sum of all the delegated votes! Requirements: - `blockNumber` must have been already mined"
      },
      "getPastVotes(address,uint256)": {
        "details": "Retrieve the number of votes for `account` at the end of `blockNumber`. Requirements: - `blockNumber` must have been already mined"
      },
      "getVotes(address)": {
        "details": "Gets the current votes balance for `account`"
      },
      "increaseAllowance(address,uint256)": {
        "details": "Atomically increases the allowance granted to `spender` by the caller. This is an alternative to {approve} that can be used as a mitigation for problems described in {IERC20-approve}. Emits an {Approval} event indicating the updated allowance. Requirements: - `spender` cannot be the zero address."
      },
      "name()": {
        "details": "Returns the name of the token."
      },
      "nonces(address)": {
        "details": "See {IERC20Permit-nonces}."
      },
      "numCheckpoints(address)": {
        "details": "Get number of checkpoints for `account`."
      },
      "permit(address,address,uint256,uint256,uint8,bytes32,bytes32)": {
        "details": "See {IERC20Permit-permit}."
      },
      "symbol()": {
        "details": "Returns the symbol of the token, usually a shorter version of the name."
      },
      "totalSupply()": {
        "details": "See {IERC20-totalSupply}."
      },
      "transfer(address,uint256)": {
        "details": "See {IERC20-transfer}. Requirements: - `recipient` cannot be the zero address. - the caller must have a balance of at least `amount`."
      },
      "transferFrom(address,address,uint256)": {
        "details": "See {IERC20-transferFrom}. Emits an {Approval} event indicating the updated allowance. This is not required by the EIP. See the note at the beginning of {ERC20}. Requirements: - `sender` and `recipient` cannot be the zero address. - `sender` must have a balance of at least `amount`. - the caller must have allowance for ``sender``'s tokens of at least `amount`."
      }
    },
    "title": "Governance token for StableUnit Decentralized Autonomous Organisation",
    "version": 1
  },
  "userdoc": {
    "kind": "user",
    "methods": {
      "rescueTokens(address)": {
        "notice": "The owner of the contact can take away tokens accidentally sent to the contract."
      }
    },
    "version": 1
  },
  "storageLayout": {
    "storage": [
      {
        "astId": 8060,
        "contract": "contracts/SuDAO.sol:SuDAO",
        "label": "_balances",
        "offset": 0,
        "slot": "0",
        "type": "t_mapping(t_address,t_uint256)"
      },
      {
        "astId": 8066,
        "contract": "contracts/SuDAO.sol:SuDAO",
        "label": "_allowances",
        "offset": 0,
        "slot": "1",
        "type": "t_mapping(t_address,t_mapping(t_address,t_uint256))"
      },
      {
        "astId": 8068,
        "contract": "contracts/SuDAO.sol:SuDAO",
        "label": "_totalSupply",
        "offset": 0,
        "slot": "2",
        "type": "t_uint256"
      },
      {
        "astId": 8070,
        "contract": "contracts/SuDAO.sol:SuDAO",
        "label": "_name",
        "offset": 0,
        "slot": "3",
        "type": "t_string_storage"
      },
      {
        "astId": 8072,
        "contract": "contracts/SuDAO.sol:SuDAO",
        "label": "_symbol",
        "offset": 0,
        "slot": "4",
        "type": "t_string_storage"
      },
      {
        "astId": 9424,
        "contract": "contracts/SuDAO.sol:SuDAO",
        "label": "_nonces",
        "offset": 0,
        "slot": "5",
        "type": "t_mapping(t_address,t_struct(Counter)11132_storage)"
      },
      {
        "astId": 8753,
        "contract": "contracts/SuDAO.sol:SuDAO",
        "label": "_delegates",
        "offset": 0,
        "slot": "6",
        "type": "t_mapping(t_address,t_address)"
      },
      {
        "astId": 8759,
        "contract": "contracts/SuDAO.sol:SuDAO",
        "label": "_checkpoints",
        "offset": 0,
        "slot": "7",
        "type": "t_mapping(t_address,t_array(t_struct(Checkpoint)8744_storage)dyn_storage)"
      },
      {
        "astId": 8763,
        "contract": "contracts/SuDAO.sol:SuDAO",
        "label": "_totalSupplyCheckpoints",
        "offset": 0,
        "slot": "8",
        "type": "t_array(t_struct(Checkpoint)8744_storage)dyn_storage"
      },
      {
        "astId": 14213,
        "contract": "contracts/SuDAO.sol:SuDAO",
        "label": "ACCESS_CONTROL_SINGLETON",
        "offset": 0,
        "slot": "9",
        "type": "t_contract(ISuAccessControl)15657"
      }
    ],
    "types": {
      "t_address": {
        "encoding": "inplace",
        "label": "address",
        "numberOfBytes": "20"
      },
      "t_array(t_struct(Checkpoint)8744_storage)dyn_storage": {
        "base": "t_struct(Checkpoint)8744_storage",
        "encoding": "dynamic_array",
        "label": "struct ERC20Votes.Checkpoint[]",
        "numberOfBytes": "32"
      },
      "t_contract(ISuAccessControl)15657": {
        "encoding": "inplace",
        "label": "contract ISuAccessControl",
        "numberOfBytes": "20"
      },
      "t_mapping(t_address,t_address)": {
        "encoding": "mapping",
        "key": "t_address",
        "label": "mapping(address => address)",
        "numberOfBytes": "32",
        "value": "t_address"
      },
      "t_mapping(t_address,t_array(t_struct(Checkpoint)8744_storage)dyn_storage)": {
        "encoding": "mapping",
        "key": "t_address",
        "label": "mapping(address => struct ERC20Votes.Checkpoint[])",
        "numberOfBytes": "32",
        "value": "t_array(t_struct(Checkpoint)8744_storage)dyn_storage"
      },
      "t_mapping(t_address,t_mapping(t_address,t_uint256))": {
        "encoding": "mapping",
        "key": "t_address",
        "label": "mapping(address => mapping(address => uint256))",
        "numberOfBytes": "32",
        "value": "t_mapping(t_address,t_uint256)"
      },
      "t_mapping(t_address,t_struct(Counter)11132_storage)": {
        "encoding": "mapping",
        "key": "t_address",
        "label": "mapping(address => struct Counters.Counter)",
        "numberOfBytes": "32",
        "value": "t_struct(Counter)11132_storage"
      },
      "t_mapping(t_address,t_uint256)": {
        "encoding": "mapping",
        "key": "t_address",
        "label": "mapping(address => uint256)",
        "numberOfBytes": "32",
        "value": "t_uint256"
      },
      "t_string_storage": {
        "encoding": "bytes",
        "label": "string",
        "numberOfBytes": "32"
      },
      "t_struct(Checkpoint)8744_storage": {
        "encoding": "inplace",
        "label": "struct ERC20Votes.Checkpoint",
        "members": [
          {
            "astId": 8741,
            "contract": "contracts/SuDAO.sol:SuDAO",
            "label": "fromBlock",
            "offset": 0,
            "slot": "0",
            "type": "t_uint32"
          },
          {
            "astId": 8743,
            "contract": "contracts/SuDAO.sol:SuDAO",
            "label": "votes",
            "offset": 4,
            "slot": "0",
            "type": "t_uint224"
          }
        ],
        "numberOfBytes": "32"
      },
      "t_struct(Counter)11132_storage": {
        "encoding": "inplace",
        "label": "struct Counters.Counter",
        "members": [
          {
            "astId": 11131,
            "contract": "contracts/SuDAO.sol:SuDAO",
            "label": "_value",
            "offset": 0,
            "slot": "0",
            "type": "t_uint256"
          }
        ],
        "numberOfBytes": "32"
      },
      "t_uint224": {
        "encoding": "inplace",
        "label": "uint224",
        "numberOfBytes": "28"
      },
      "t_uint256": {
        "encoding": "inplace",
        "label": "uint256",
        "numberOfBytes": "32"
      },
      "t_uint32": {
        "encoding": "inplace",
        "label": "uint32",
        "numberOfBytes": "4"
      }
    }
  }
}