{
  "address": "0xF6197003Bf64F4f3038C04d5b86f37DcDE73b1CC",
  "abi": [
    {
      "inputs": [
        {
          "internalType": "bytes32",
          "name": "role",
          "type": "bytes32"
        },
        {
          "internalType": "address",
          "name": "msgSender",
          "type": "address"
        }
      ],
      "name": "OnlyRoleError",
      "type": "error"
    },
    {
      "anonymous": false,
      "inputs": [
        {
          "indexed": true,
          "internalType": "address",
          "name": "owner",
          "type": "address"
        },
        {
          "indexed": true,
          "internalType": "address",
          "name": "spender",
          "type": "address"
        },
        {
          "indexed": false,
          "internalType": "uint256",
          "name": "value",
          "type": "uint256"
        }
      ],
      "name": "Approval",
      "type": "event"
    },
    {
      "anonymous": false,
      "inputs": [
        {
          "indexed": true,
          "internalType": "address",
          "name": "delegator",
          "type": "address"
        },
        {
          "indexed": true,
          "internalType": "address",
          "name": "fromDelegate",
          "type": "address"
        },
        {
          "indexed": true,
          "internalType": "address",
          "name": "toDelegate",
          "type": "address"
        }
      ],
      "name": "DelegateChanged",
      "type": "event"
    },
    {
      "anonymous": false,
      "inputs": [
        {
          "indexed": true,
          "internalType": "address",
          "name": "delegate",
          "type": "address"
        },
        {
          "indexed": false,
          "internalType": "uint256",
          "name": "previousBalance",
          "type": "uint256"
        },
        {
          "indexed": false,
          "internalType": "uint256",
          "name": "newBalance",
          "type": "uint256"
        }
      ],
      "name": "DelegateVotesChanged",
      "type": "event"
    },
    {
      "anonymous": false,
      "inputs": [
        {
          "indexed": false,
          "internalType": "uint8",
          "name": "version",
          "type": "uint8"
        }
      ],
      "name": "Initialized",
      "type": "event"
    },
    {
      "anonymous": false,
      "inputs": [
        {
          "indexed": true,
          "internalType": "address",
          "name": "from",
          "type": "address"
        },
        {
          "indexed": true,
          "internalType": "address",
          "name": "to",
          "type": "address"
        },
        {
          "indexed": false,
          "internalType": "uint256",
          "name": "value",
          "type": "uint256"
        }
      ],
      "name": "Transfer",
      "type": "event"
    },
    {
      "inputs": [],
      "name": "ACCESS_CONTROL_SINGLETON",
      "outputs": [
        {
          "internalType": "contract ISuAccessControl",
          "name": "",
          "type": "address"
        }
      ],
      "stateMutability": "view",
      "type": "function"
    },
    {
      "inputs": [],
      "name": "ADMIN_ROLE",
      "outputs": [
        {
          "internalType": "bytes32",
          "name": "",
          "type": "bytes32"
        }
      ],
      "stateMutability": "view",
      "type": "function"
    },
    {
      "inputs": [],
      "name": "COMMUNITY_ADMIN_ROLE",
      "outputs": [
        {
          "internalType": "bytes32",
          "name": "",
          "type": "bytes32"
        }
      ],
      "stateMutability": "view",
      "type": "function"
    },
    {
      "inputs": [],
      "name": "DAO_ROLE",
      "outputs": [
        {
          "internalType": "bytes32",
          "name": "",
          "type": "bytes32"
        }
      ],
      "stateMutability": "view",
      "type": "function"
    },
    {
      "inputs": [],
      "name": "DEFAULT_ADMIN_ROLE",
      "outputs": [
        {
          "internalType": "bytes32",
          "name": "",
          "type": "bytes32"
        }
      ],
      "stateMutability": "view",
      "type": "function"
    },
    {
      "inputs": [],
      "name": "DOMAIN_SEPARATOR",
      "outputs": [
        {
          "internalType": "bytes32",
          "name": "",
          "type": "bytes32"
        }
      ],
      "stateMutability": "view",
      "type": "function"
    },
    {
      "inputs": [],
      "name": "MAX_SUPPLY",
      "outputs": [
        {
          "internalType": "uint256",
          "name": "",
          "type": "uint256"
        }
      ],
      "stateMutability": "view",
      "type": "function"
    },
    {
      "inputs": [
        {
          "internalType": "address",
          "name": "owner",
          "type": "address"
        },
        {
          "internalType": "address",
          "name": "spender",
          "type": "address"
        }
      ],
      "name": "allowance",
      "outputs": [
        {
          "internalType": "uint256",
          "name": "",
          "type": "uint256"
        }
      ],
      "stateMutability": "view",
      "type": "function"
    },
    {
      "inputs": [
        {
          "internalType": "address",
          "name": "spender",
          "type": "address"
        },
        {
          "internalType": "uint256",
          "name": "amount",
          "type": "uint256"
        }
      ],
      "name": "approve",
      "outputs": [
        {
          "internalType": "bool",
          "name": "",
          "type": "bool"
        }
      ],
      "stateMutability": "nonpayable",
      "type": "function"
    },
    {
      "inputs": [
        {
          "internalType": "address",
          "name": "account",
          "type": "address"
        }
      ],
      "name": "balanceOf",
      "outputs": [
        {
          "internalType": "uint256",
          "name": "",
          "type": "uint256"
        }
      ],
      "stateMutability": "view",
      "type": "function"
    },
    {
      "inputs": [
        {
          "internalType": "uint256",
          "name": "amount",
          "type": "uint256"
        }
      ],
      "name": "burn",
      "outputs": [],
      "stateMutability": "nonpayable",
      "type": "function"
    },
    {
      "inputs": [
        {
          "internalType": "address",
          "name": "account",
          "type": "address"
        },
        {
          "internalType": "uint256",
          "name": "amount",
          "type": "uint256"
        }
      ],
      "name": "burnFrom",
      "outputs": [],
      "stateMutability": "nonpayable",
      "type": "function"
    },
    {
      "inputs": [
        {
          "internalType": "address",
          "name": "account",
          "type": "address"
        },
        {
          "internalType": "uint32",
          "name": "pos",
          "type": "uint32"
        }
      ],
      "name": "checkpoints",
      "outputs": [
        {
          "components": [
            {
              "internalType": "uint32",
              "name": "fromBlock",
              "type": "uint32"
            },
            {
              "internalType": "uint224",
              "name": "votes",
              "type": "uint224"
            }
          ],
          "internalType": "struct ERC20VotesUpgradeable.Checkpoint",
          "name": "",
          "type": "tuple"
        }
      ],
      "stateMutability": "view",
      "type": "function"
    },
    {
      "inputs": [],
      "name": "decimals",
      "outputs": [
        {
          "internalType": "uint8",
          "name": "",
          "type": "uint8"
        }
      ],
      "stateMutability": "view",
      "type": "function"
    },
    {
      "inputs": [
        {
          "internalType": "address",
          "name": "spender",
          "type": "address"
        },
        {
          "internalType": "uint256",
          "name": "subtractedValue",
          "type": "uint256"
        }
      ],
      "name": "decreaseAllowance",
      "outputs": [
        {
          "internalType": "bool",
          "name": "",
          "type": "bool"
        }
      ],
      "stateMutability": "nonpayable",
      "type": "function"
    },
    {
      "inputs": [
        {
          "internalType": "address",
          "name": "delegatee",
          "type": "address"
        }
      ],
      "name": "delegate",
      "outputs": [],
      "stateMutability": "nonpayable",
      "type": "function"
    },
    {
      "inputs": [
        {
          "internalType": "address",
          "name": "delegatee",
          "type": "address"
        },
        {
          "internalType": "uint256",
          "name": "nonce",
          "type": "uint256"
        },
        {
          "internalType": "uint256",
          "name": "expiry",
          "type": "uint256"
        },
        {
          "internalType": "uint8",
          "name": "v",
          "type": "uint8"
        },
        {
          "internalType": "bytes32",
          "name": "r",
          "type": "bytes32"
        },
        {
          "internalType": "bytes32",
          "name": "s",
          "type": "bytes32"
        }
      ],
      "name": "delegateBySig",
      "outputs": [],
      "stateMutability": "nonpayable",
      "type": "function"
    },
    {
      "inputs": [
        {
          "internalType": "address",
          "name": "account",
          "type": "address"
        }
      ],
      "name": "delegates",
      "outputs": [
        {
          "internalType": "address",
          "name": "",
          "type": "address"
        }
      ],
      "stateMutability": "view",
      "type": "function"
    },
    {
      "inputs": [
        {
          "internalType": "uint256",
          "name": "blockNumber",
          "type": "uint256"
        }
      ],
      "name": "getPastTotalSupply",
      "outputs": [
        {
          "internalType": "uint256",
          "name": "",
          "type": "uint256"
        }
      ],
      "stateMutability": "view",
      "type": "function"
    },
    {
      "inputs": [
        {
          "internalType": "address",
          "name": "account",
          "type": "address"
        },
        {
          "internalType": "uint256",
          "name": "blockNumber",
          "type": "uint256"
        }
      ],
      "name": "getPastVotes",
      "outputs": [
        {
          "internalType": "uint256",
          "name": "",
          "type": "uint256"
        }
      ],
      "stateMutability": "view",
      "type": "function"
    },
    {
      "inputs": [
        {
          "internalType": "bytes32",
          "name": "role",
          "type": "bytes32"
        }
      ],
      "name": "getRoleAdmin",
      "outputs": [
        {
          "internalType": "bytes32",
          "name": "",
          "type": "bytes32"
        }
      ],
      "stateMutability": "view",
      "type": "function"
    },
    {
      "inputs": [
        {
          "internalType": "address",
          "name": "account",
          "type": "address"
        }
      ],
      "name": "getVotes",
      "outputs": [
        {
          "internalType": "uint256",
          "name": "",
          "type": "uint256"
        }
      ],
      "stateMutability": "view",
      "type": "function"
    },
    {
      "inputs": [
        {
          "internalType": "bytes32",
          "name": "role",
          "type": "bytes32"
        },
        {
          "internalType": "address",
          "name": "account",
          "type": "address"
        }
      ],
      "name": "hasRole",
      "outputs": [
        {
          "internalType": "bool",
          "name": "",
          "type": "bool"
        }
      ],
      "stateMutability": "view",
      "type": "function"
    },
    {
      "inputs": [
        {
          "internalType": "address",
          "name": "spender",
          "type": "address"
        },
        {
          "internalType": "uint256",
          "name": "addedValue",
          "type": "uint256"
        }
      ],
      "name": "increaseAllowance",
      "outputs": [
        {
          "internalType": "bool",
          "name": "",
          "type": "bool"
        }
      ],
      "stateMutability": "nonpayable",
      "type": "function"
    },
    {
      "inputs": [
        {
          "internalType": "address",
          "name": "_accessControlSingleton",
          "type": "address"
        },
        {
          "internalType": "uint256",
          "name": "_initMint",
          "type": "uint256"
        }
      ],
      "name": "initialize",
      "outputs": [],
      "stateMutability": "nonpayable",
      "type": "function"
    },
    {
      "inputs": [
        {
          "internalType": "address",
          "name": "account",
          "type": "address"
        },
        {
          "internalType": "uint256",
          "name": "amount",
          "type": "uint256"
        }
      ],
      "name": "mint",
      "outputs": [],
      "stateMutability": "nonpayable",
      "type": "function"
    },
    {
      "inputs": [],
      "name": "name",
      "outputs": [
        {
          "internalType": "string",
          "name": "",
          "type": "string"
        }
      ],
      "stateMutability": "view",
      "type": "function"
    },
    {
      "inputs": [
        {
          "internalType": "address",
          "name": "owner",
          "type": "address"
        }
      ],
      "name": "nonces",
      "outputs": [
        {
          "internalType": "uint256",
          "name": "",
          "type": "uint256"
        }
      ],
      "stateMutability": "view",
      "type": "function"
    },
    {
      "inputs": [
        {
          "internalType": "address",
          "name": "account",
          "type": "address"
        }
      ],
      "name": "numCheckpoints",
      "outputs": [
        {
          "internalType": "uint32",
          "name": "",
          "type": "uint32"
        }
      ],
      "stateMutability": "view",
      "type": "function"
    },
    {
      "inputs": [
        {
          "internalType": "address",
          "name": "owner",
          "type": "address"
        },
        {
          "internalType": "address",
          "name": "spender",
          "type": "address"
        },
        {
          "internalType": "uint256",
          "name": "value",
          "type": "uint256"
        },
        {
          "internalType": "uint256",
          "name": "deadline",
          "type": "uint256"
        },
        {
          "internalType": "uint8",
          "name": "v",
          "type": "uint8"
        },
        {
          "internalType": "bytes32",
          "name": "r",
          "type": "bytes32"
        },
        {
          "internalType": "bytes32",
          "name": "s",
          "type": "bytes32"
        }
      ],
      "name": "permit",
      "outputs": [],
      "stateMutability": "nonpayable",
      "type": "function"
    },
    {
      "inputs": [
        {
          "internalType": "contract ERC20Upgradeable",
          "name": "token",
          "type": "address"
        }
      ],
      "name": "rescueTokens",
      "outputs": [],
      "stateMutability": "nonpayable",
      "type": "function"
    },
    {
      "inputs": [
        {
          "internalType": "bytes4",
          "name": "interfaceId",
          "type": "bytes4"
        }
      ],
      "name": "supportsInterface",
      "outputs": [
        {
          "internalType": "bool",
          "name": "",
          "type": "bool"
        }
      ],
      "stateMutability": "view",
      "type": "function"
    },
    {
      "inputs": [],
      "name": "symbol",
      "outputs": [
        {
          "internalType": "string",
          "name": "",
          "type": "string"
        }
      ],
      "stateMutability": "view",
      "type": "function"
    },
    {
      "inputs": [],
      "name": "totalSupply",
      "outputs": [
        {
          "internalType": "uint256",
          "name": "",
          "type": "uint256"
        }
      ],
      "stateMutability": "view",
      "type": "function"
    },
    {
      "inputs": [
        {
          "internalType": "address",
          "name": "to",
          "type": "address"
        },
        {
          "internalType": "uint256",
          "name": "amount",
          "type": "uint256"
        }
      ],
      "name": "transfer",
      "outputs": [
        {
          "internalType": "bool",
          "name": "",
          "type": "bool"
        }
      ],
      "stateMutability": "nonpayable",
      "type": "function"
    },
    {
      "inputs": [
        {
          "internalType": "address",
          "name": "from",
          "type": "address"
        },
        {
          "internalType": "address",
          "name": "to",
          "type": "address"
        },
        {
          "internalType": "uint256",
          "name": "amount",
          "type": "uint256"
        }
      ],
      "name": "transferFrom",
      "outputs": [
        {
          "internalType": "bool",
          "name": "",
          "type": "bool"
        }
      ],
      "stateMutability": "nonpayable",
      "type": "function"
    },
    {
      "stateMutability": "payable",
      "type": "receive"
    }
  ],
  "numDeployments": 1,
  "solcInputHash": "e97f2c5d2d398fefa9f938d534248610",
  "bytecode": "0x608060405234801561001057600080fd5b506152cb806100206000396000f3fe6080604052600436106102125760003560e01c806370a0823111610118578063a217fddf116100a0578063cd6dc6871161006f578063cd6dc68714610855578063d505accf1461087e578063dd62ed3e146108a7578063e9c26518146108e4578063f1127ed81461090f57610219565b8063a217fddf14610787578063a457c2d7146107b2578063a9059cbb146107ef578063c3cda5201461082c57610219565b80638e539e8c116100e75780638e539e8c1461067a57806391d14854146106b757806395367f89146106f457806395d89b411461071f5780639ab24eb01461074a57610219565b806370a08231146105ac57806375b238fc146105e957806379cc6790146106145780637ecebe001461063d57610219565b806332cb6b0c1161019b57806340c10f191161016a57806340c10f19146104b757806342966c68146104e0578063587cde1e146105095780635c19a95c146105465780636fcfff451461056f57610219565b806332cb6b0c146103e75780633644e51514610412578063395093511461043d5780633a46b1a81461047a57610219565b8063095ea7b3116101e2578063095ea7b3146102da57806318160ddd1461031757806323b872dd14610342578063248a9ca31461037f578063313ce567146103bc57610219565b8062ae3bf81461021e57806301ffc9a71461024757806303ee9f221461028457806306fdde03146102af57610219565b3661021957005b600080fd5b34801561022a57600080fd5b506102456004803603810190610240919061340d565b61094c565b005b34801561025357600080fd5b5061026e60048036038101906102699190613492565b610ac6565b60405161027b91906134da565b60405180910390f35b34801561029057600080fd5b50610299610b6c565b6040516102a69190613554565b60405180910390f35b3480156102bb57600080fd5b506102c4610b93565b6040516102d19190613608565b60405180910390f35b3480156102e657600080fd5b5061030160048036038101906102fc919061368c565b610c25565b60405161030e91906134da565b60405180910390f35b34801561032357600080fd5b5061032c610c48565b60405161033991906136db565b60405180910390f35b34801561034e57600080fd5b50610369600480360381019061036491906136f6565b610c52565b60405161037691906134da565b60405180910390f35b34801561038b57600080fd5b506103a660048036038101906103a1919061377f565b610c81565b6040516103b391906137bb565b60405180910390f35b3480156103c857600080fd5b506103d1610d27565b6040516103de91906137f2565b60405180910390f35b3480156103f357600080fd5b506103fc610d30565b60405161040991906136db565b60405180910390f35b34801561041e57600080fd5b50610427610d3f565b60405161043491906137bb565b60405180910390f35b34801561044957600080fd5b50610464600480360381019061045f919061368c565b610d4e565b60405161047191906134da565b60405180910390f35b34801561048657600080fd5b506104a1600480360381019061049c919061368c565b610d85565b6040516104ae91906136db565b60405180910390f35b3480156104c357600080fd5b506104de60048036038101906104d9919061368c565b610e19565b005b3480156104ec57600080fd5b506105076004803603810190610502919061380d565b610ed9565b005b34801561051557600080fd5b50610530600480360381019061052b919061383a565b610eed565b60405161053d9190613876565b60405180910390f35b34801561055257600080fd5b5061056d6004803603810190610568919061383a565b610f56565b005b34801561057b57600080fd5b506105966004803603810190610591919061383a565b610f6a565b6040516105a391906138b0565b60405180910390f35b3480156105b857600080fd5b506105d360048036038101906105ce919061383a565b610fbe565b6040516105e091906136db565b60405180910390f35b3480156105f557600080fd5b506105fe611007565b60405161060b91906137bb565b60405180910390f35b34801561062057600080fd5b5061063b6004803603810190610636919061368c565b61102b565b005b34801561064957600080fd5b50610664600480360381019061065f919061383a565b61104b565b60405161067191906136db565b60405180910390f35b34801561068657600080fd5b506106a1600480360381019061069c919061380d565b61109b565b6040516106ae91906136db565b60405180910390f35b3480156106c357600080fd5b506106de60048036038101906106d991906138cb565b6110f1565b6040516106eb91906134da565b60405180910390f35b34801561070057600080fd5b5061070961119a565b60405161071691906137bb565b60405180910390f35b34801561072b57600080fd5b506107346111be565b6040516107419190613608565b60405180910390f35b34801561075657600080fd5b50610771600480360381019061076c919061383a565b611250565b60405161077e91906136db565b60405180910390f35b34801561079357600080fd5b5061079c611361565b6040516107a991906137bb565b60405180910390f35b3480156107be57600080fd5b506107d960048036038101906107d4919061368c565b611368565b6040516107e691906134da565b60405180910390f35b3480156107fb57600080fd5b506108166004803603810190610811919061368c565b6113df565b60405161082391906134da565b60405180910390f35b34801561083857600080fd5b50610853600480360381019061084e9190613937565b611402565b005b34801561086157600080fd5b5061087c6004803603810190610877919061368c565b611506565b005b34801561088a57600080fd5b506108a560048036038101906108a091906139c4565b6116c5565b005b3480156108b357600080fd5b506108ce60048036038101906108c99190613a66565b611807565b6040516108db91906136db565b60405180910390f35b3480156108f057600080fd5b506108f961188e565b60405161090691906137bb565b60405180910390f35b34801561091b57600080fd5b5061093660048036038101906109319190613ad2565b611895565b6040516109439190613b87565b60405180910390f35b6000801b61095a81336110f1565b61099d5780336040517f37c2e343000000000000000000000000000000000000000000000000000000008152600401610994929190613ba2565b60405180910390fd5b600073ffffffffffffffffffffffffffffffffffffffff168273ffffffffffffffffffffffffffffffffffffffff1603610a1d573373ffffffffffffffffffffffffffffffffffffffff166108fc479081150290604051600060405180830381858888f19350505050158015610a17573d6000803e3d6000fd5b50610ac2565b610ac1338373ffffffffffffffffffffffffffffffffffffffff166370a08231306040518263ffffffff1660e01b8152600401610a5a9190613876565b602060405180830381865afa158015610a77573d6000803e3d6000fd5b505050506040513d601f19601f82011682018060405250810190610a9b9190613be0565b8473ffffffffffffffffffffffffffffffffffffffff166119a59092919063ffffffff16565b5b5050565b600061013060009054906101000a900473ffffffffffffffffffffffffffffffffffffffff1673ffffffffffffffffffffffffffffffffffffffff166301ffc9a7836040518263ffffffff1660e01b8152600401610b249190613c1c565b602060405180830381865afa158015610b41573d6000803e3d6000fd5b505050506040513d601f19601f82011682018060405250810190610b659190613c63565b9050919050565b61013060009054906101000a900473ffffffffffffffffffffffffffffffffffffffff1681565b606060368054610ba290613cbf565b80601f0160208091040260200160405190810160405280929190818152602001828054610bce90613cbf565b8015610c1b5780601f10610bf057610100808354040283529160200191610c1b565b820191906000526020600020905b815481529060010190602001808311610bfe57829003601f168201915b5050505050905090565b600080610c30611a2b565b9050610c3d818585611a33565b600191505092915050565b6000603554905090565b600080610c5d611a2b565b9050610c6a858285611bfc565b610c75858585611c88565b60019150509392505050565b600061013060009054906101000a900473ffffffffffffffffffffffffffffffffffffffff1673ffffffffffffffffffffffffffffffffffffffff1663248a9ca3836040518263ffffffff1660e01b8152600401610cdf91906137bb565b602060405180830381865afa158015610cfc573d6000803e3d6000fd5b505050506040513d601f19601f82011682018060405250810190610d209190613d05565b9050919050565b60006012905090565b6a115eec47f6cf7e3500000081565b6000610d49611f0a565b905090565b600080610d59611a2b565b9050610d7a818585610d6b8589611807565b610d759190613d61565b611a33565b600191505092915050565b6000438210610dc9576040517f08c379a0000000000000000000000000000000000000000000000000000000008152600401610dc090613e03565b60405180910390fd5b610e1160cd60008573ffffffffffffffffffffffffffffffffffffffff1673ffffffffffffffffffffffffffffffffffffffff16815260200190815260200160002083611f4a565b905092915050565b6000801b610e2781336110f1565b610e6a5780336040517f37c2e343000000000000000000000000000000000000000000000000000000008152600401610e61929190613ba2565b60405180910390fd5b6a115eec47f6cf7e3500000082610e7f610c48565b610e899190613d61565b1115610eca576040517f08c379a0000000000000000000000000000000000000000000000000000000008152600401610ec190613e6f565b60405180910390fd5b610ed48383612056565b505050565b610eea610ee4611a2b565b82612064565b50565b600060cc60008373ffffffffffffffffffffffffffffffffffffffff1673ffffffffffffffffffffffffffffffffffffffff16815260200190815260200160002060009054906101000a900473ffffffffffffffffffffffffffffffffffffffff169050919050565b610f67610f61611a2b565b82612072565b50565b6000610fb760cd60008473ffffffffffffffffffffffffffffffffffffffff1673ffffffffffffffffffffffffffffffffffffffff1681526020019081526020016000208054905061218c565b9050919050565b6000603360008373ffffffffffffffffffffffffffffffffffffffff1673ffffffffffffffffffffffffffffffffffffffff168152602001908152602001600020549050919050565b7fa49807205ce4d355092ef5a8a18f56e8913cf4a201fbe287825b095693c2177581565b61103d82611037611a2b565b83611bfc565b6110478282612064565b5050565b6000611094609960008473ffffffffffffffffffffffffffffffffffffffff1673ffffffffffffffffffffffffffffffffffffffff1681526020019081526020016000206121df565b9050919050565b60004382106110df576040517f08c379a00000000000000000000000000000000000000000000000000000000081526004016110d690613e03565b60405180910390fd5b6110ea60ce83611f4a565b9050919050565b600061013060009054906101000a900473ffffffffffffffffffffffffffffffffffffffff1673ffffffffffffffffffffffffffffffffffffffff166391d1485484846040518363ffffffff1660e01b8152600401611151929190613ba2565b602060405180830381865afa15801561116e573d6000803e3d6000fd5b505050506040513d601f19601f820116820180604052508101906111929190613c63565b905092915050565b7f0a7cc066f24e107ff77c42c8a1bdaf1a5f775fa4a74e45530aaf9c866368f65381565b6060603780546111cd90613cbf565b80601f01602080910402602001604051908101604052809291908181526020018280546111f990613cbf565b80156112465780601f1061121b57610100808354040283529160200191611246565b820191906000526020600020905b81548152906001019060200180831161122957829003601f168201915b5050505050905090565b60008060cd60008473ffffffffffffffffffffffffffffffffffffffff1673ffffffffffffffffffffffffffffffffffffffff168152602001908152602001600020805490509050600081146113385760cd60008473ffffffffffffffffffffffffffffffffffffffff1673ffffffffffffffffffffffffffffffffffffffff1681526020019081526020016000206001826112ec9190613e8f565b815481106112fd576112fc613ec3565b5b9060005260206000200160000160049054906101000a90047bffffffffffffffffffffffffffffffffffffffffffffffffffffffff1661133b565b60005b7bffffffffffffffffffffffffffffffffffffffffffffffffffffffff16915050919050565b6000801b81565b600080611373611a2b565b905060006113818286611807565b9050838110156113c6576040517f08c379a00000000000000000000000000000000000000000000000000000000081526004016113bd90613f64565b60405180910390fd5b6113d38286868403611a33565b60019250505092915050565b6000806113ea611a2b565b90506113f7818585611c88565b600191505092915050565b83421115611445576040517f08c379a000000000000000000000000000000000000000000000000000000000815260040161143c90613fd0565b60405180910390fd5b60006114a761149f7fe48329057bfd03d55e49b547132e39cffd9c1820ad7b9d4c5307691425d15adf8989896040516020016114849493929190613ff0565b604051602081830303815290604052805190602001206121ed565b858585612207565b90506114b281612232565b86146114f3576040517f08c379a00000000000000000000000000000000000000000000000000000000081526004016114ea90614081565b60405180910390fd5b6114fd8188612072565b50505050505050565b60008060019054906101000a900460ff161590508080156115375750600160008054906101000a900460ff1660ff16105b80611564575061154630612290565b1580156115635750600160008054906101000a900460ff1660ff16145b5b6115a3576040517f08c379a000000000000000000000000000000000000000000000000000000000815260040161159a90614113565b60405180910390fd5b60016000806101000a81548160ff021916908360ff16021790555080156115e0576001600060016101000a81548160ff0219169083151502179055505b6115e9836122b3565b61165d6040518060400160405280600e81526020017f537461626c65556e69742044414f0000000000000000000000000000000000008152506040518060400160405280600581526020017f537544414f000000000000000000000000000000000000000000000000000000815250612347565b6116673383612056565b80156116c05760008060016101000a81548160ff0219169083151502179055507f7f26b83ff96e1f2b6a682f133852f6798a09c465da95921460cefb384740249860016040516116b7919061416e565b60405180910390a15b505050565b83421115611708576040517f08c379a00000000000000000000000000000000000000000000000000000000081526004016116ff906141d5565b60405180910390fd5b60007f6e71edae12b1b97f4d1f60370fef10105fa2faae0126114a169c64845d6126c98888886117378c612232565b8960405160200161174d969594939291906141f5565b6040516020818303038152906040528051906020012090506000611770826121ed565b9050600061178082878787612207565b90508973ffffffffffffffffffffffffffffffffffffffff168173ffffffffffffffffffffffffffffffffffffffff16146117f0576040517f08c379a00000000000000000000000000000000000000000000000000000000081526004016117e7906142a2565b60405180910390fd5b6117fb8a8a8a611a33565b50505050505050505050565b6000603460008473ffffffffffffffffffffffffffffffffffffffff1673ffffffffffffffffffffffffffffffffffffffff16815260200190815260200160002060008373ffffffffffffffffffffffffffffffffffffffff1673ffffffffffffffffffffffffffffffffffffffff16815260200190815260200160002054905092915050565b6000801b81565b61189d61335a565b60cd60008473ffffffffffffffffffffffffffffffffffffffff1673ffffffffffffffffffffffffffffffffffffffff1681526020019081526020016000208263ffffffff16815481106118f4576118f3613ec3565b5b906000526020600020016040518060400160405290816000820160009054906101000a900463ffffffff1663ffffffff1663ffffffff1681526020016000820160049054906101000a90047bffffffffffffffffffffffffffffffffffffffffffffffffffffffff167bffffffffffffffffffffffffffffffffffffffffffffffffffffffff167bffffffffffffffffffffffffffffffffffffffffffffffffffffffff1681525050905092915050565b611a268363a9059cbb60e01b84846040516024016119c49291906142c2565b604051602081830303815290604052907bffffffffffffffffffffffffffffffffffffffffffffffffffffffff19166020820180517bffffffffffffffffffffffffffffffffffffffffffffffffffffffff83818316178352505050506123a4565b505050565b600033905090565b600073ffffffffffffffffffffffffffffffffffffffff168373ffffffffffffffffffffffffffffffffffffffff1603611aa2576040517f08c379a0000000000000000000000000000000000000000000000000000000008152600401611a999061435d565b60405180910390fd5b600073ffffffffffffffffffffffffffffffffffffffff168273ffffffffffffffffffffffffffffffffffffffff1603611b11576040517f08c379a0000000000000000000000000000000000000000000000000000000008152600401611b08906143ef565b60405180910390fd5b80603460008573ffffffffffffffffffffffffffffffffffffffff1673ffffffffffffffffffffffffffffffffffffffff16815260200190815260200160002060008473ffffffffffffffffffffffffffffffffffffffff1673ffffffffffffffffffffffffffffffffffffffff168152602001908152602001600020819055508173ffffffffffffffffffffffffffffffffffffffff168373ffffffffffffffffffffffffffffffffffffffff167f8c5be1e5ebec7d5bd14f71427d1e84f3dd0314c0f7b2291e5b200ac8c7c3b92583604051611bef91906136db565b60405180910390a3505050565b6000611c088484611807565b90507fffffffffffffffffffffffffffffffffffffffffffffffffffffffffffffffff8114611c825781811015611c74576040517f08c379a0000000000000000000000000000000000000000000000000000000008152600401611c6b9061445b565b60405180910390fd5b611c818484848403611a33565b5b50505050565b600073ffffffffffffffffffffffffffffffffffffffff168373ffffffffffffffffffffffffffffffffffffffff1603611cf7576040517f08c379a0000000000000000000000000000000000000000000000000000000008152600401611cee906144ed565b60405180910390fd5b600073ffffffffffffffffffffffffffffffffffffffff168273ffffffffffffffffffffffffffffffffffffffff1603611d66576040517f08c379a0000000000000000000000000000000000000000000000000000000008152600401611d5d9061457f565b60405180910390fd5b611d7183838361246b565b6000603360008573ffffffffffffffffffffffffffffffffffffffff1673ffffffffffffffffffffffffffffffffffffffff16815260200190815260200160002054905081811015611df8576040517f08c379a0000000000000000000000000000000000000000000000000000000008152600401611def90614611565b60405180910390fd5b818103603360008673ffffffffffffffffffffffffffffffffffffffff1673ffffffffffffffffffffffffffffffffffffffff1681526020019081526020016000208190555081603360008573ffffffffffffffffffffffffffffffffffffffff1673ffffffffffffffffffffffffffffffffffffffff1681526020019081526020016000206000828254611e8d9190613d61565b925050819055508273ffffffffffffffffffffffffffffffffffffffff168473ffffffffffffffffffffffffffffffffffffffff167fddf252ad1be2c89b69c2b068fc378daa952ba7f163c4a11628f55a4df523b3ef84604051611ef191906136db565b60405180910390a3611f04848484612470565b50505050565b6000611f457f8b73c3c69bb8fe3d512ecc4cf759cc79239f7b179b0ffacaa9a75d522b39400f611f38612480565b611f4061248a565b612494565b905090565b6000808380549050905060005b81811015611fc9576000611f6b82846124ce565b905084868281548110611f8157611f80613ec3565b5b9060005260206000200160000160009054906101000a900463ffffffff1663ffffffff161115611fb357809250611fc3565b600181611fc09190613d61565b91505b50611f57565b6000821461202b5784600183611fdf9190613e8f565b81548110611ff057611fef613ec3565b5b9060005260206000200160000160049054906101000a90047bffffffffffffffffffffffffffffffffffffffffffffffffffffffff1661202e565b60005b7bffffffffffffffffffffffffffffffffffffffffffffffffffffffff169250505092915050565b61206082826124f4565b5050565b61206e8282612581565b5050565b600061207d83610eed565b9050600061208a84610fbe565b90508260cc60008673ffffffffffffffffffffffffffffffffffffffff1673ffffffffffffffffffffffffffffffffffffffff16815260200190815260200160002060006101000a81548173ffffffffffffffffffffffffffffffffffffffff021916908373ffffffffffffffffffffffffffffffffffffffff1602179055508273ffffffffffffffffffffffffffffffffffffffff168273ffffffffffffffffffffffffffffffffffffffff168573ffffffffffffffffffffffffffffffffffffffff167f3134e8a2e6d97e929a7e54011ea5485d7d196dd5f0ba4d4ef95803e8e3fc257f60405160405180910390a461218682848361259f565b50505050565b600063ffffffff80168211156121d7576040517f08c379a00000000000000000000000000000000000000000000000000000000081526004016121ce906146a3565b60405180910390fd5b819050919050565b600081600001549050919050565b60006122006121fa611f0a565b83612798565b9050919050565b6000806000612218878787876127cb565b91509150612225816128d7565b8192505050949350505050565b600080609960008473ffffffffffffffffffffffffffffffffffffffff1673ffffffffffffffffffffffffffffffffffffffff168152602001908152602001600020905061227f816121df565b915061228a81612aa3565b50919050565b6000808273ffffffffffffffffffffffffffffffffffffffff163b119050919050565b600060019054906101000a900460ff16612302576040517f08c379a00000000000000000000000000000000000000000000000000000000081526004016122f990614735565b60405180910390fd5b8061013060006101000a81548173ffffffffffffffffffffffffffffffffffffffff021916908373ffffffffffffffffffffffffffffffffffffffff16021790555050565b600060019054906101000a900460ff16612396576040517f08c379a000000000000000000000000000000000000000000000000000000000815260040161238d90614735565b60405180910390fd5b6123a08282612ab9565b5050565b6000612406826040518060400160405280602081526020017f5361666545524332303a206c6f772d6c6576656c2063616c6c206661696c65648152508573ffffffffffffffffffffffffffffffffffffffff16612b2c9092919063ffffffff16565b905060008151111561246657808060200190518101906124269190613c63565b612465576040517f08c379a000000000000000000000000000000000000000000000000000000000815260040161245c906147c7565b60405180910390fd5b5b505050565b505050565b61247b838383612b44565b505050565b6000606554905090565b6000606654905090565b600083838346306040516020016124af9594939291906147e7565b6040516020818303038152906040528051906020012090509392505050565b600060028284186124df9190614869565b8284166124ec9190613d61565b905092915050565b6124fe8282612b6f565b612506612ccf565b7bffffffffffffffffffffffffffffffffffffffffffffffffffffffff1661252c610c48565b111561256d576040517f08c379a00000000000000000000000000000000000000000000000000000000081526004016125649061490c565b60405180910390fd5b61257b60ce612cf383612d09565b50505050565b61258b8282612f81565b61259960ce61315983612d09565b50505050565b8173ffffffffffffffffffffffffffffffffffffffff168373ffffffffffffffffffffffffffffffffffffffff16141580156125db5750600081115b1561279357600073ffffffffffffffffffffffffffffffffffffffff168373ffffffffffffffffffffffffffffffffffffffff16146126b95760008061266260cd60008773ffffffffffffffffffffffffffffffffffffffff1673ffffffffffffffffffffffffffffffffffffffff16815260200190815260200160002061315985612d09565b915091508473ffffffffffffffffffffffffffffffffffffffff167fdec2bacdd2f05b59de34da9b523dff8be42e5e38e818c82fdb0bae774387a72483836040516126ae92919061492c565b60405180910390a250505b600073ffffffffffffffffffffffffffffffffffffffff168273ffffffffffffffffffffffffffffffffffffffff16146127925760008061273b60cd60008673ffffffffffffffffffffffffffffffffffffffff1673ffffffffffffffffffffffffffffffffffffffff168152602001908152602001600020612cf385612d09565b915091508373ffffffffffffffffffffffffffffffffffffffff167fdec2bacdd2f05b59de34da9b523dff8be42e5e38e818c82fdb0bae774387a724838360405161278792919061492c565b60405180910390a250505b5b505050565b600082826040516020016127ad9291906149cd565b60405160208183030381529060405280519060200120905092915050565b6000807f7fffffffffffffffffffffffffffffff5d576e7357a4501ddfe92f46681b20a08360001c11156128065760006003915091506128ce565b601b8560ff161415801561281e5750601c8560ff1614155b156128305760006004915091506128ce565b6000600187878787604051600081526020016040526040516128559493929190614a04565b6020604051602081039080840390855afa158015612877573d6000803e3d6000fd5b505050602060405103519050600073ffffffffffffffffffffffffffffffffffffffff168173ffffffffffffffffffffffffffffffffffffffff16036128c5576000600192509250506128ce565b80600092509250505b94509492505050565b600060048111156128eb576128ea614a49565b5b8160048111156128fe576128fd614a49565b5b0315612aa0576001600481111561291857612917614a49565b5b81600481111561292b5761292a614a49565b5b0361296b576040517f08c379a000000000000000000000000000000000000000000000000000000000815260040161296290614ac4565b60405180910390fd5b6002600481111561297f5761297e614a49565b5b81600481111561299257612991614a49565b5b036129d2576040517f08c379a00000000000000000000000000000000000000000000000000000000081526004016129c990614b30565b60405180910390fd5b600360048111156129e6576129e5614a49565b5b8160048111156129f9576129f8614a49565b5b03612a39576040517f08c379a0000000000000000000000000000000000000000000000000000000008152600401612a3090614bc2565b60405180910390fd5b600480811115612a4c57612a4b614a49565b5b816004811115612a5f57612a5e614a49565b5b03612a9f576040517f08c379a0000000000000000000000000000000000000000000000000000000008152600401612a9690614c54565b60405180910390fd5b5b50565b6001816000016000828254019250508190555050565b600060019054906101000a900460ff16612b08576040517f08c379a0000000000000000000000000000000000000000000000000000000008152600401612aff90614735565b60405180910390fd5b8160369081612b179190614e45565b508060379081612b279190614e45565b505050565b6060612b3b848460008561316f565b90509392505050565b612b4f838383613283565b612b6a612b5b84610eed565b612b6484610eed565b8361259f565b505050565b600073ffffffffffffffffffffffffffffffffffffffff168273ffffffffffffffffffffffffffffffffffffffff1603612bde576040517f08c379a0000000000000000000000000000000000000000000000000000000008152600401612bd590614f63565b60405180910390fd5b612bea6000838361246b565b8060356000828254612bfc9190613d61565b9250508190555080603360008473ffffffffffffffffffffffffffffffffffffffff1673ffffffffffffffffffffffffffffffffffffffff1681526020019081526020016000206000828254612c529190613d61565b925050819055508173ffffffffffffffffffffffffffffffffffffffff16600073ffffffffffffffffffffffffffffffffffffffff167fddf252ad1be2c89b69c2b068fc378daa952ba7f163c4a11628f55a4df523b3ef83604051612cb791906136db565b60405180910390a3612ccb60008383612470565b5050565b60007bffffffffffffffffffffffffffffffffffffffffffffffffffffffff905090565b60008183612d019190613d61565b905092915050565b60008060008580549050905060008114612d775785600182612d2b9190613e8f565b81548110612d3c57612d3b613ec3565b5b9060005260206000200160000160049054906101000a90047bffffffffffffffffffffffffffffffffffffffffffffffffffffffff16612d7a565b60005b7bffffffffffffffffffffffffffffffffffffffffffffffffffffffff169250612da883858763ffffffff16565b9150600081118015612dfb57504386600183612dc49190613e8f565b81548110612dd557612dd4613ec3565b5b9060005260206000200160000160009054906101000a900463ffffffff1663ffffffff16145b15612e8857612e0982613288565b86600183612e179190613e8f565b81548110612e2857612e27613ec3565b5b9060005260206000200160000160046101000a8154817bffffffffffffffffffffffffffffffffffffffffffffffffffffffff02191690837bffffffffffffffffffffffffffffffffffffffffffffffffffffffff160217905550612f78565b856040518060400160405280612e9d4361218c565b63ffffffff168152602001612eb185613288565b7bffffffffffffffffffffffffffffffffffffffffffffffffffffffff168152509080600181540180825580915050600190039060005260206000200160009091909190915060008201518160000160006101000a81548163ffffffff021916908363ffffffff16021790555060208201518160000160046101000a8154817bffffffffffffffffffffffffffffffffffffffffffffffffffffffff02191690837bffffffffffffffffffffffffffffffffffffffffffffffffffffffff16021790555050505b50935093915050565b600073ffffffffffffffffffffffffffffffffffffffff168273ffffffffffffffffffffffffffffffffffffffff1603612ff0576040517f08c379a0000000000000000000000000000000000000000000000000000000008152600401612fe790614ff5565b60405180910390fd5b612ffc8260008361246b565b6000603360008473ffffffffffffffffffffffffffffffffffffffff1673ffffffffffffffffffffffffffffffffffffffff16815260200190815260200160002054905081811015613083576040517f08c379a000000000000000000000000000000000000000000000000000000000815260040161307a90615087565b60405180910390fd5b818103603360008573ffffffffffffffffffffffffffffffffffffffff1673ffffffffffffffffffffffffffffffffffffffff1681526020019081526020016000208190555081603560008282546130db9190613e8f565b92505081905550600073ffffffffffffffffffffffffffffffffffffffff168373ffffffffffffffffffffffffffffffffffffffff167fddf252ad1be2c89b69c2b068fc378daa952ba7f163c4a11628f55a4df523b3ef8460405161314091906136db565b60405180910390a361315483600084612470565b505050565b600081836131679190613e8f565b905092915050565b6060824710156131b4576040517f08c379a00000000000000000000000000000000000000000000000000000000081526004016131ab90615119565b60405180910390fd5b6131bd85612290565b6131fc576040517f08c379a00000000000000000000000000000000000000000000000000000000081526004016131f390615185565b60405180910390fd5b6000808673ffffffffffffffffffffffffffffffffffffffff16858760405161322591906151ec565b60006040518083038185875af1925050503d8060008114613262576040519150601f19603f3d011682016040523d82523d6000602084013e613267565b606091505b50915091506132778282866132f3565b92505050949350505050565b505050565b60007bffffffffffffffffffffffffffffffffffffffffffffffffffffffff80168211156132eb576040517f08c379a00000000000000000000000000000000000000000000000000000000081526004016132e290615275565b60405180910390fd5b819050919050565b6060831561330357829050613353565b6000835111156133165782518084602001fd5b816040517f08c379a000000000000000000000000000000000000000000000000000000000815260040161334a9190613608565b60405180910390fd5b9392505050565b6040518060400160405280600063ffffffff16815260200160007bffffffffffffffffffffffffffffffffffffffffffffffffffffffff1681525090565b600080fd5b600073ffffffffffffffffffffffffffffffffffffffff82169050919050565b60006133c88261339d565b9050919050565b60006133da826133bd565b9050919050565b6133ea816133cf565b81146133f557600080fd5b50565b600081359050613407816133e1565b92915050565b60006020828403121561342357613422613398565b5b6000613431848285016133f8565b91505092915050565b60007fffffffff0000000000000000000000000000000000000000000000000000000082169050919050565b61346f8161343a565b811461347a57600080fd5b50565b60008135905061348c81613466565b92915050565b6000602082840312156134a8576134a7613398565b5b60006134b68482850161347d565b91505092915050565b60008115159050919050565b6134d4816134bf565b82525050565b60006020820190506134ef60008301846134cb565b92915050565b6000819050919050565b600061351a6135156135108461339d565b6134f5565b61339d565b9050919050565b600061352c826134ff565b9050919050565b600061353e82613521565b9050919050565b61354e81613533565b82525050565b60006020820190506135696000830184613545565b92915050565b600081519050919050565b600082825260208201905092915050565b60005b838110156135a957808201518184015260208101905061358e565b838111156135b8576000848401525b50505050565b6000601f19601f8301169050919050565b60006135da8261356f565b6135e4818561357a565b93506135f481856020860161358b565b6135fd816135be565b840191505092915050565b6000602082019050818103600083015261362281846135cf565b905092915050565b613633816133bd565b811461363e57600080fd5b50565b6000813590506136508161362a565b92915050565b6000819050919050565b61366981613656565b811461367457600080fd5b50565b60008135905061368681613660565b92915050565b600080604083850312156136a3576136a2613398565b5b60006136b185828601613641565b92505060206136c285828601613677565b9150509250929050565b6136d581613656565b82525050565b60006020820190506136f060008301846136cc565b92915050565b60008060006060848603121561370f5761370e613398565b5b600061371d86828701613641565b935050602061372e86828701613641565b925050604061373f86828701613677565b9150509250925092565b6000819050919050565b61375c81613749565b811461376757600080fd5b50565b60008135905061377981613753565b92915050565b60006020828403121561379557613794613398565b5b60006137a38482850161376a565b91505092915050565b6137b581613749565b82525050565b60006020820190506137d060008301846137ac565b92915050565b600060ff82169050919050565b6137ec816137d6565b82525050565b600060208201905061380760008301846137e3565b92915050565b60006020828403121561382357613822613398565b5b600061383184828501613677565b91505092915050565b6000602082840312156138505761384f613398565b5b600061385e84828501613641565b91505092915050565b613870816133bd565b82525050565b600060208201905061388b6000830184613867565b92915050565b600063ffffffff82169050919050565b6138aa81613891565b82525050565b60006020820190506138c560008301846138a1565b92915050565b600080604083850312156138e2576138e1613398565b5b60006138f08582860161376a565b925050602061390185828601613641565b9150509250929050565b613914816137d6565b811461391f57600080fd5b50565b6000813590506139318161390b565b92915050565b60008060008060008060c0878903121561395457613953613398565b5b600061396289828a01613641565b965050602061397389828a01613677565b955050604061398489828a01613677565b945050606061399589828a01613922565b93505060806139a689828a0161376a565b92505060a06139b789828a0161376a565b9150509295509295509295565b600080600080600080600060e0888a0312156139e3576139e2613398565b5b60006139f18a828b01613641565b9750506020613a028a828b01613641565b9650506040613a138a828b01613677565b9550506060613a248a828b01613677565b9450506080613a358a828b01613922565b93505060a0613a468a828b0161376a565b92505060c0613a578a828b0161376a565b91505092959891949750929550565b60008060408385031215613a7d57613a7c613398565b5b6000613a8b85828601613641565b9250506020613a9c85828601613641565b9150509250929050565b613aaf81613891565b8114613aba57600080fd5b50565b600081359050613acc81613aa6565b92915050565b60008060408385031215613ae957613ae8613398565b5b6000613af785828601613641565b9250506020613b0885828601613abd565b9150509250929050565b613b1b81613891565b82525050565b60007bffffffffffffffffffffffffffffffffffffffffffffffffffffffff82169050919050565b613b5281613b21565b82525050565b604082016000820151613b6e6000850182613b12565b506020820151613b816020850182613b49565b50505050565b6000604082019050613b9c6000830184613b58565b92915050565b6000604082019050613bb760008301856137ac565b613bc46020830184613867565b9392505050565b600081519050613bda81613660565b92915050565b600060208284031215613bf657613bf5613398565b5b6000613c0484828501613bcb565b91505092915050565b613c168161343a565b82525050565b6000602082019050613c316000830184613c0d565b92915050565b613c40816134bf565b8114613c4b57600080fd5b50565b600081519050613c5d81613c37565b92915050565b600060208284031215613c7957613c78613398565b5b6000613c8784828501613c4e565b91505092915050565b7f4e487b7100000000000000000000000000000000000000000000000000000000600052602260045260246000fd5b60006002820490506001821680613cd757607f821691505b602082108103613cea57613ce9613c90565b5b50919050565b600081519050613cff81613753565b92915050565b600060208284031215613d1b57613d1a613398565b5b6000613d2984828501613cf0565b91505092915050565b7f4e487b7100000000000000000000000000000000000000000000000000000000600052601160045260246000fd5b6000613d6c82613656565b9150613d7783613656565b9250827fffffffffffffffffffffffffffffffffffffffffffffffffffffffffffffffff03821115613dac57613dab613d32565b5b828201905092915050565b7f4552433230566f7465733a20626c6f636b206e6f7420796574206d696e656400600082015250565b6000613ded601f8361357a565b9150613df882613db7565b602082019050919050565b60006020820190508181036000830152613e1c81613de0565b9050919050565b7f6d617820737570706c7920697320657863656564656400000000000000000000600082015250565b6000613e5960168361357a565b9150613e6482613e23565b602082019050919050565b60006020820190508181036000830152613e8881613e4c565b9050919050565b6000613e9a82613656565b9150613ea583613656565b925082821015613eb857613eb7613d32565b5b828203905092915050565b7f4e487b7100000000000000000000000000000000000000000000000000000000600052603260045260246000fd5b7f45524332303a2064656372656173656420616c6c6f77616e63652062656c6f7760008201527f207a65726f000000000000000000000000000000000000000000000000000000602082015250565b6000613f4e60258361357a565b9150613f5982613ef2565b604082019050919050565b60006020820190508181036000830152613f7d81613f41565b9050919050565b7f4552433230566f7465733a207369676e61747572652065787069726564000000600082015250565b6000613fba601d8361357a565b9150613fc582613f84565b602082019050919050565b60006020820190508181036000830152613fe981613fad565b9050919050565b600060808201905061400560008301876137ac565b6140126020830186613867565b61401f60408301856136cc565b61402c60608301846136cc565b95945050505050565b7f4552433230566f7465733a20696e76616c6964206e6f6e636500000000000000600082015250565b600061406b60198361357a565b915061407682614035565b602082019050919050565b6000602082019050818103600083015261409a8161405e565b9050919050565b7f496e697469616c697a61626c653a20636f6e747261637420697320616c72656160008201527f647920696e697469616c697a6564000000000000000000000000000000000000602082015250565b60006140fd602e8361357a565b9150614108826140a1565b604082019050919050565b6000602082019050818103600083015261412c816140f0565b9050919050565b6000819050919050565b600061415861415361414e84614133565b6134f5565b6137d6565b9050919050565b6141688161413d565b82525050565b6000602082019050614183600083018461415f565b92915050565b7f45524332305065726d69743a206578706972656420646561646c696e65000000600082015250565b60006141bf601d8361357a565b91506141ca82614189565b602082019050919050565b600060208201905081810360008301526141ee816141b2565b9050919050565b600060c08201905061420a60008301896137ac565b6142176020830188613867565b6142246040830187613867565b61423160608301866136cc565b61423e60808301856136cc565b61424b60a08301846136cc565b979650505050505050565b7f45524332305065726d69743a20696e76616c6964207369676e61747572650000600082015250565b600061428c601e8361357a565b915061429782614256565b602082019050919050565b600060208201905081810360008301526142bb8161427f565b9050919050565b60006040820190506142d76000830185613867565b6142e460208301846136cc565b9392505050565b7f45524332303a20617070726f76652066726f6d20746865207a65726f2061646460008201527f7265737300000000000000000000000000000000000000000000000000000000602082015250565b600061434760248361357a565b9150614352826142eb565b604082019050919050565b600060208201905081810360008301526143768161433a565b9050919050565b7f45524332303a20617070726f766520746f20746865207a65726f20616464726560008201527f7373000000000000000000000000000000000000000000000000000000000000602082015250565b60006143d960228361357a565b91506143e48261437d565b604082019050919050565b60006020820190508181036000830152614408816143cc565b9050919050565b7f45524332303a20696e73756666696369656e7420616c6c6f77616e6365000000600082015250565b6000614445601d8361357a565b91506144508261440f565b602082019050919050565b6000602082019050818103600083015261447481614438565b9050919050565b7f45524332303a207472616e736665722066726f6d20746865207a65726f20616460008201527f6472657373000000000000000000000000000000000000000000000000000000602082015250565b60006144d760258361357a565b91506144e28261447b565b604082019050919050565b60006020820190508181036000830152614506816144ca565b9050919050565b7f45524332303a207472616e7366657220746f20746865207a65726f206164647260008201527f6573730000000000000000000000000000000000000000000000000000000000602082015250565b600061456960238361357a565b91506145748261450d565b604082019050919050565b600060208201905081810360008301526145988161455c565b9050919050565b7f45524332303a207472616e7366657220616d6f756e742065786365656473206260008201527f616c616e63650000000000000000000000000000000000000000000000000000602082015250565b60006145fb60268361357a565b91506146068261459f565b604082019050919050565b6000602082019050818103600083015261462a816145ee565b9050919050565b7f53616665436173743a2076616c756520646f65736e27742066697420696e203360008201527f3220626974730000000000000000000000000000000000000000000000000000602082015250565b600061468d60268361357a565b915061469882614631565b604082019050919050565b600060208201905081810360008301526146bc81614680565b9050919050565b7f496e697469616c697a61626c653a20636f6e7472616374206973206e6f74206960008201527f6e697469616c697a696e67000000000000000000000000000000000000000000602082015250565b600061471f602b8361357a565b915061472a826146c3565b604082019050919050565b6000602082019050818103600083015261474e81614712565b9050919050565b7f5361666545524332303a204552433230206f7065726174696f6e20646964206e60008201527f6f74207375636365656400000000000000000000000000000000000000000000602082015250565b60006147b1602a8361357a565b91506147bc82614755565b604082019050919050565b600060208201905081810360008301526147e0816147a4565b9050919050565b600060a0820190506147fc60008301886137ac565b61480960208301876137ac565b61481660408301866137ac565b61482360608301856136cc565b6148306080830184613867565b9695505050505050565b7f4e487b7100000000000000000000000000000000000000000000000000000000600052601260045260246000fd5b600061487482613656565b915061487f83613656565b92508261488f5761488e61483a565b5b828204905092915050565b7f4552433230566f7465733a20746f74616c20737570706c79207269736b73206f60008201527f766572666c6f77696e6720766f74657300000000000000000000000000000000602082015250565b60006148f660308361357a565b91506149018261489a565b604082019050919050565b60006020820190508181036000830152614925816148e9565b9050919050565b600060408201905061494160008301856136cc565b61494e60208301846136cc565b9392505050565b600081905092915050565b7f1901000000000000000000000000000000000000000000000000000000000000600082015250565b6000614996600283614955565b91506149a182614960565b600282019050919050565b6000819050919050565b6149c76149c282613749565b6149ac565b82525050565b60006149d882614989565b91506149e482856149b6565b6020820191506149f482846149b6565b6020820191508190509392505050565b6000608082019050614a1960008301876137ac565b614a2660208301866137e3565b614a3360408301856137ac565b614a4060608301846137ac565b95945050505050565b7f4e487b7100000000000000000000000000000000000000000000000000000000600052602160045260246000fd5b7f45434453413a20696e76616c6964207369676e61747572650000000000000000600082015250565b6000614aae60188361357a565b9150614ab982614a78565b602082019050919050565b60006020820190508181036000830152614add81614aa1565b9050919050565b7f45434453413a20696e76616c6964207369676e6174757265206c656e67746800600082015250565b6000614b1a601f8361357a565b9150614b2582614ae4565b602082019050919050565b60006020820190508181036000830152614b4981614b0d565b9050919050565b7f45434453413a20696e76616c6964207369676e6174757265202773272076616c60008201527f7565000000000000000000000000000000000000000000000000000000000000602082015250565b6000614bac60228361357a565b9150614bb782614b50565b604082019050919050565b60006020820190508181036000830152614bdb81614b9f565b9050919050565b7f45434453413a20696e76616c6964207369676e6174757265202776272076616c60008201527f7565000000000000000000000000000000000000000000000000000000000000602082015250565b6000614c3e60228361357a565b9150614c4982614be2565b604082019050919050565b60006020820190508181036000830152614c6d81614c31565b9050919050565b7f4e487b7100000000000000000000000000000000000000000000000000000000600052604160045260246000fd5b60008190508160005260206000209050919050565b60006020601f8301049050919050565b600082821b905092915050565b600060088302614d057fffffffffffffffffffffffffffffffffffffffffffffffffffffffffffffffff82614cc8565b614d0f8683614cc8565b95508019841693508086168417925050509392505050565b6000614d42614d3d614d3884613656565b6134f5565b613656565b9050919050565b6000819050919050565b614d5c83614d27565b614d70614d6882614d49565b848454614cd5565b825550505050565b600090565b614d85614d78565b614d90818484614d53565b505050565b5b81811015614db457614da9600082614d7d565b600181019050614d96565b5050565b601f821115614df957614dca81614ca3565b614dd384614cb8565b81016020851015614de2578190505b614df6614dee85614cb8565b830182614d95565b50505b505050565b600082821c905092915050565b6000614e1c60001984600802614dfe565b1980831691505092915050565b6000614e358383614e0b565b9150826002028217905092915050565b614e4e8261356f565b67ffffffffffffffff811115614e6757614e66614c74565b5b614e718254613cbf565b614e7c828285614db8565b600060209050601f831160018114614eaf5760008415614e9d578287015190505b614ea78582614e29565b865550614f0f565b601f198416614ebd86614ca3565b60005b82811015614ee557848901518255600182019150602085019450602081019050614ec0565b86831015614f025784890151614efe601f891682614e0b565b8355505b6001600288020188555050505b505050505050565b7f45524332303a206d696e7420746f20746865207a65726f206164647265737300600082015250565b6000614f4d601f8361357a565b9150614f5882614f17565b602082019050919050565b60006020820190508181036000830152614f7c81614f40565b9050919050565b7f45524332303a206275726e2066726f6d20746865207a65726f2061646472657360008201527f7300000000000000000000000000000000000000000000000000000000000000602082015250565b6000614fdf60218361357a565b9150614fea82614f83565b604082019050919050565b6000602082019050818103600083015261500e81614fd2565b9050919050565b7f45524332303a206275726e20616d6f756e7420657863656564732062616c616e60008201527f6365000000000000000000000000000000000000000000000000000000000000602082015250565b600061507160228361357a565b915061507c82615015565b604082019050919050565b600060208201905081810360008301526150a081615064565b9050919050565b7f416464726573733a20696e73756666696369656e742062616c616e636520666f60008201527f722063616c6c0000000000000000000000000000000000000000000000000000602082015250565b600061510360268361357a565b915061510e826150a7565b604082019050919050565b60006020820190508181036000830152615132816150f6565b9050919050565b7f416464726573733a2063616c6c20746f206e6f6e2d636f6e7472616374000000600082015250565b600061516f601d8361357a565b915061517a82615139565b602082019050919050565b6000602082019050818103600083015261519e81615162565b9050919050565b600081519050919050565b600081905092915050565b60006151c6826151a5565b6151d081856151b0565b93506151e081856020860161358b565b80840191505092915050565b60006151f882846151bb565b915081905092915050565b7f53616665436173743a2076616c756520646f65736e27742066697420696e203260008201527f3234206269747300000000000000000000000000000000000000000000000000602082015250565b600061525f60278361357a565b915061526a82615203565b604082019050919050565b6000602082019050818103600083015261528e81615252565b905091905056fea2646970667358221220387cb21e914d8136904addfdb1afe91166703d4121654718c45a43893cd14e0564736f6c634300080f0033",
  "devdoc": {
    "kind": "dev",
    "methods": {
      "DOMAIN_SEPARATOR()": {
        "details": "See {IERC20Permit-DOMAIN_SEPARATOR}."
      },
      "allowance(address,address)": {
        "details": "See {IERC20-allowance}."
      },
      "approve(address,uint256)": {
        "details": "See {IERC20-approve}. NOTE: If `amount` is the maximum `uint256`, the allowance is not updated on `transferFrom`. This is semantically equivalent to an infinite approval. Requirements: - `spender` cannot be the zero address."
      },
      "balanceOf(address)": {
        "details": "See {IERC20-balanceOf}."
      },
      "burn(uint256)": {
        "details": "Destroys `amount` tokens from the caller. See {ERC20-_burn}."
      },
      "burnFrom(address,uint256)": {
        "details": "Destroys `amount` tokens from `account`, deducting from the caller's allowance. See {ERC20-_burn} and {ERC20-allowance}. Requirements: - the caller must have allowance for ``accounts``'s tokens of at least `amount`."
      },
      "checkpoints(address,uint32)": {
        "details": "Get the `pos`-th checkpoint for `account`."
      },
      "decimals()": {
        "details": "Returns the number of decimals used to get its user representation. For example, if `decimals` equals `2`, a balance of `505` tokens should be displayed to a user as `5.05` (`505 / 10 ** 2`). Tokens usually opt for a value of 18, imitating the relationship between Ether and Wei. This is the value {ERC20} uses, unless this function is overridden; NOTE: This information is only used for _display_ purposes: it in no way affects any of the arithmetic of the contract, including {IERC20-balanceOf} and {IERC20-transfer}."
      },
      "decreaseAllowance(address,uint256)": {
        "details": "Atomically decreases the allowance granted to `spender` by the caller. This is an alternative to {approve} that can be used as a mitigation for problems described in {IERC20-approve}. Emits an {Approval} event indicating the updated allowance. Requirements: - `spender` cannot be the zero address. - `spender` must have allowance for the caller of at least `subtractedValue`."
      },
      "delegate(address)": {
        "details": "Delegate votes from the sender to `delegatee`."
      },
      "delegateBySig(address,uint256,uint256,uint8,bytes32,bytes32)": {
        "details": "Delegates votes from signer to `delegatee`"
      },
      "delegates(address)": {
        "details": "Get the address `account` is currently delegating to."
      },
      "getPastTotalSupply(uint256)": {
        "details": "Retrieve the `totalSupply` at the end of `blockNumber`. Note, this value is the sum of all balances. It is but NOT the sum of all the delegated votes! Requirements: - `blockNumber` must have been already mined"
      },
      "getPastVotes(address,uint256)": {
        "details": "Retrieve the number of votes for `account` at the end of `blockNumber`. Requirements: - `blockNumber` must have been already mined"
      },
      "getVotes(address)": {
        "details": "Gets the current votes balance for `account`"
      },
      "increaseAllowance(address,uint256)": {
        "details": "Atomically increases the allowance granted to `spender` by the caller. This is an alternative to {approve} that can be used as a mitigation for problems described in {IERC20-approve}. Emits an {Approval} event indicating the updated allowance. Requirements: - `spender` cannot be the zero address."
      },
      "name()": {
        "details": "Returns the name of the token."
      },
      "nonces(address)": {
        "details": "See {IERC20Permit-nonces}."
      },
      "numCheckpoints(address)": {
        "details": "Get number of checkpoints for `account`."
      },
      "permit(address,address,uint256,uint256,uint8,bytes32,bytes32)": {
        "details": "See {IERC20Permit-permit}."
      },
      "symbol()": {
        "details": "Returns the symbol of the token, usually a shorter version of the name."
      },
      "totalSupply()": {
        "details": "See {IERC20-totalSupply}."
      },
      "transfer(address,uint256)": {
        "details": "See {IERC20-transfer}. Requirements: - `to` cannot be the zero address. - the caller must have a balance of at least `amount`."
      },
      "transferFrom(address,address,uint256)": {
        "details": "See {IERC20-transferFrom}. Emits an {Approval} event indicating the updated allowance. This is not required by the EIP. See the note at the beginning of {ERC20}. NOTE: Does not update the allowance if the current allowance is the maximum `uint256`. Requirements: - `from` and `to` cannot be the zero address. - `from` must have a balance of at least `amount`. - the caller must have allowance for ``from``'s tokens of at least `amount`."
      }
    },
    "stateVariables": {
      "__gap": {
        "details": "This empty reserved space is put in place to allow future versions to add new variables without shifting down storage in the inheritance chain. See https://docs.openzeppelin.com/contracts/4.x/upgradeable#storage_gaps"
      }
    },
    "title": "Governance token for StableUnit Decentralized Autonomous Organisation",
    "version": 1
  },
  "userdoc": {
    "kind": "user",
    "methods": {
      "rescueTokens(address)": {
        "notice": "The owner of the contact can take away tokens accidentally sent to the contract."
      }
    },
    "version": 1
  },
  "storageLayout": {
    "storage": [
      {
        "astId": 497,
        "contract": "contracts/SuDAO.sol:SuDAO",
        "label": "_initialized",
        "offset": 0,
        "slot": "0",
        "type": "t_uint8"
      },
      {
        "astId": 500,
        "contract": "contracts/SuDAO.sol:SuDAO",
        "label": "_initializing",
        "offset": 1,
        "slot": "0",
        "type": "t_bool"
      },
      {
        "astId": 4310,
        "contract": "contracts/SuDAO.sol:SuDAO",
        "label": "__gap",
        "offset": 0,
        "slot": "1",
        "type": "t_array(t_uint256)50_storage"
      },
      {
        "astId": 660,
        "contract": "contracts/SuDAO.sol:SuDAO",
        "label": "_balances",
        "offset": 0,
        "slot": "51",
        "type": "t_mapping(t_address,t_uint256)"
      },
      {
        "astId": 666,
        "contract": "contracts/SuDAO.sol:SuDAO",
        "label": "_allowances",
        "offset": 0,
        "slot": "52",
        "type": "t_mapping(t_address,t_mapping(t_address,t_uint256))"
      },
      {
        "astId": 668,
        "contract": "contracts/SuDAO.sol:SuDAO",
        "label": "_totalSupply",
        "offset": 0,
        "slot": "53",
        "type": "t_uint256"
      },
      {
        "astId": 670,
        "contract": "contracts/SuDAO.sol:SuDAO",
        "label": "_name",
        "offset": 0,
        "slot": "54",
        "type": "t_string_storage"
      },
      {
        "astId": 672,
        "contract": "contracts/SuDAO.sol:SuDAO",
        "label": "_symbol",
        "offset": 0,
        "slot": "55",
        "type": "t_string_storage"
      },
      {
        "astId": 1251,
        "contract": "contracts/SuDAO.sol:SuDAO",
        "label": "__gap",
        "offset": 0,
        "slot": "56",
        "type": "t_array(t_uint256)45_storage"
      },
      {
        "astId": 5008,
        "contract": "contracts/SuDAO.sol:SuDAO",
        "label": "_HASHED_NAME",
        "offset": 0,
        "slot": "101",
        "type": "t_bytes32"
      },
      {
        "astId": 5010,
        "contract": "contracts/SuDAO.sol:SuDAO",
        "label": "_HASHED_VERSION",
        "offset": 0,
        "slot": "102",
        "type": "t_bytes32"
      },
      {
        "astId": 5148,
        "contract": "contracts/SuDAO.sol:SuDAO",
        "label": "__gap",
        "offset": 0,
        "slot": "103",
        "type": "t_array(t_uint256)50_storage"
      },
      {
        "astId": 2102,
        "contract": "contracts/SuDAO.sol:SuDAO",
        "label": "_nonces",
        "offset": 0,
        "slot": "153",
        "type": "t_mapping(t_address,t_struct(Counter)4317_storage)"
      },
      {
        "astId": 2110,
        "contract": "contracts/SuDAO.sol:SuDAO",
        "label": "_PERMIT_TYPEHASH_DEPRECATED_SLOT",
        "offset": 0,
        "slot": "154",
        "type": "t_bytes32"
      },
      {
        "astId": 2266,
        "contract": "contracts/SuDAO.sol:SuDAO",
        "label": "__gap",
        "offset": 0,
        "slot": "155",
        "type": "t_array(t_uint256)49_storage"
      },
      {
        "astId": 1435,
        "contract": "contracts/SuDAO.sol:SuDAO",
        "label": "_delegates",
        "offset": 0,
        "slot": "204",
        "type": "t_mapping(t_address,t_address)"
      },
      {
        "astId": 1441,
        "contract": "contracts/SuDAO.sol:SuDAO",
        "label": "_checkpoints",
        "offset": 0,
        "slot": "205",
        "type": "t_mapping(t_address,t_array(t_struct(Checkpoint)1426_storage)dyn_storage)"
      },
      {
        "astId": 1445,
        "contract": "contracts/SuDAO.sol:SuDAO",
        "label": "_totalSupplyCheckpoints",
        "offset": 0,
        "slot": "206",
        "type": "t_array(t_struct(Checkpoint)1426_storage)dyn_storage"
      },
      {
        "astId": 2050,
        "contract": "contracts/SuDAO.sol:SuDAO",
        "label": "__gap",
        "offset": 0,
        "slot": "207",
        "type": "t_array(t_uint256)47_storage"
      },
      {
        "astId": 1393,
        "contract": "contracts/SuDAO.sol:SuDAO",
        "label": "__gap",
        "offset": 0,
        "slot": "254",
        "type": "t_array(t_uint256)50_storage"
      },
      {
        "astId": 11612,
        "contract": "contracts/SuDAO.sol:SuDAO",
        "label": "ACCESS_CONTROL_SINGLETON",
        "offset": 0,
        "slot": "304",
        "type": "t_contract(ISuAccessControl)12922"
      },
      {
        "astId": 11699,
        "contract": "contracts/SuDAO.sol:SuDAO",
        "label": "__gap",
        "offset": 0,
        "slot": "305",
        "type": "t_array(t_uint256)49_storage"
      },
      {
        "astId": 11579,
        "contract": "contracts/SuDAO.sol:SuDAO",
        "label": "__gap",
        "offset": 0,
        "slot": "354",
        "type": "t_array(t_uint256)49_storage"
      }
    ],
    "types": {
      "t_address": {
        "encoding": "inplace",
        "label": "address",
        "numberOfBytes": "20"
      },
      "t_array(t_struct(Checkpoint)1426_storage)dyn_storage": {
        "base": "t_struct(Checkpoint)1426_storage",
        "encoding": "dynamic_array",
        "label": "struct ERC20VotesUpgradeable.Checkpoint[]",
        "numberOfBytes": "32"
      },
      "t_array(t_uint256)45_storage": {
        "base": "t_uint256",
        "encoding": "inplace",
        "label": "uint256[45]",
        "numberOfBytes": "1440"
      },
      "t_array(t_uint256)47_storage": {
        "base": "t_uint256",
        "encoding": "inplace",
        "label": "uint256[47]",
        "numberOfBytes": "1504"
      },
      "t_array(t_uint256)49_storage": {
        "base": "t_uint256",
        "encoding": "inplace",
        "label": "uint256[49]",
        "numberOfBytes": "1568"
      },
      "t_array(t_uint256)50_storage": {
        "base": "t_uint256",
        "encoding": "inplace",
        "label": "uint256[50]",
        "numberOfBytes": "1600"
      },
      "t_bool": {
        "encoding": "inplace",
        "label": "bool",
        "numberOfBytes": "1"
      },
      "t_bytes32": {
        "encoding": "inplace",
        "label": "bytes32",
        "numberOfBytes": "32"
      },
      "t_contract(ISuAccessControl)12922": {
        "encoding": "inplace",
        "label": "contract ISuAccessControl",
        "numberOfBytes": "20"
      },
      "t_mapping(t_address,t_address)": {
        "encoding": "mapping",
        "key": "t_address",
        "label": "mapping(address => address)",
        "numberOfBytes": "32",
        "value": "t_address"
      },
      "t_mapping(t_address,t_array(t_struct(Checkpoint)1426_storage)dyn_storage)": {
        "encoding": "mapping",
        "key": "t_address",
        "label": "mapping(address => struct ERC20VotesUpgradeable.Checkpoint[])",
        "numberOfBytes": "32",
        "value": "t_array(t_struct(Checkpoint)1426_storage)dyn_storage"
      },
      "t_mapping(t_address,t_mapping(t_address,t_uint256))": {
        "encoding": "mapping",
        "key": "t_address",
        "label": "mapping(address => mapping(address => uint256))",
        "numberOfBytes": "32",
        "value": "t_mapping(t_address,t_uint256)"
      },
      "t_mapping(t_address,t_struct(Counter)4317_storage)": {
        "encoding": "mapping",
        "key": "t_address",
        "label": "mapping(address => struct CountersUpgradeable.Counter)",
        "numberOfBytes": "32",
        "value": "t_struct(Counter)4317_storage"
      },
      "t_mapping(t_address,t_uint256)": {
        "encoding": "mapping",
        "key": "t_address",
        "label": "mapping(address => uint256)",
        "numberOfBytes": "32",
        "value": "t_uint256"
      },
      "t_string_storage": {
        "encoding": "bytes",
        "label": "string",
        "numberOfBytes": "32"
      },
      "t_struct(Checkpoint)1426_storage": {
        "encoding": "inplace",
        "label": "struct ERC20VotesUpgradeable.Checkpoint",
        "members": [
          {
            "astId": 1423,
            "contract": "contracts/SuDAO.sol:SuDAO",
            "label": "fromBlock",
            "offset": 0,
            "slot": "0",
            "type": "t_uint32"
          },
          {
            "astId": 1425,
            "contract": "contracts/SuDAO.sol:SuDAO",
            "label": "votes",
            "offset": 4,
            "slot": "0",
            "type": "t_uint224"
          }
        ],
        "numberOfBytes": "32"
      },
      "t_struct(Counter)4317_storage": {
        "encoding": "inplace",
        "label": "struct CountersUpgradeable.Counter",
        "members": [
          {
            "astId": 4316,
            "contract": "contracts/SuDAO.sol:SuDAO",
            "label": "_value",
            "offset": 0,
            "slot": "0",
            "type": "t_uint256"
          }
        ],
        "numberOfBytes": "32"
      },
      "t_uint224": {
        "encoding": "inplace",
        "label": "uint224",
        "numberOfBytes": "28"
      },
      "t_uint256": {
        "encoding": "inplace",
        "label": "uint256",
        "numberOfBytes": "32"
      },
      "t_uint32": {
        "encoding": "inplace",
        "label": "uint32",
        "numberOfBytes": "4"
      },
      "t_uint8": {
        "encoding": "inplace",
        "label": "uint8",
        "numberOfBytes": "1"
      }
    }
  }
}