{
  "address": "0x360077EB3221F5646fF46D407A5ec5563F9227cd",
  "abi": [
    {
      "inputs": [
        {
          "internalType": "bytes32",
          "name": "role",
          "type": "bytes32"
        },
        {
          "internalType": "address",
          "name": "msgSender",
          "type": "address"
        }
      ],
      "name": "OnlyRoleError",
      "type": "error"
    },
    {
      "anonymous": false,
      "inputs": [
        {
          "indexed": true,
          "internalType": "address",
          "name": "owner",
          "type": "address"
        },
        {
          "indexed": true,
          "internalType": "address",
          "name": "spender",
          "type": "address"
        },
        {
          "indexed": false,
          "internalType": "uint256",
          "name": "value",
          "type": "uint256"
        }
      ],
      "name": "Approval",
      "type": "event"
    },
    {
      "anonymous": false,
      "inputs": [
        {
          "indexed": true,
          "internalType": "address",
          "name": "delegator",
          "type": "address"
        },
        {
          "indexed": true,
          "internalType": "address",
          "name": "fromDelegate",
          "type": "address"
        },
        {
          "indexed": true,
          "internalType": "address",
          "name": "toDelegate",
          "type": "address"
        }
      ],
      "name": "DelegateChanged",
      "type": "event"
    },
    {
      "anonymous": false,
      "inputs": [
        {
          "indexed": true,
          "internalType": "address",
          "name": "delegate",
          "type": "address"
        },
        {
          "indexed": false,
          "internalType": "uint256",
          "name": "previousBalance",
          "type": "uint256"
        },
        {
          "indexed": false,
          "internalType": "uint256",
          "name": "newBalance",
          "type": "uint256"
        }
      ],
      "name": "DelegateVotesChanged",
      "type": "event"
    },
    {
      "anonymous": false,
      "inputs": [
        {
          "indexed": false,
          "internalType": "uint8",
          "name": "version",
          "type": "uint8"
        }
      ],
      "name": "Initialized",
      "type": "event"
    },
    {
      "anonymous": false,
      "inputs": [
        {
          "indexed": true,
          "internalType": "address",
          "name": "from",
          "type": "address"
        },
        {
          "indexed": true,
          "internalType": "address",
          "name": "to",
          "type": "address"
        },
        {
          "indexed": false,
          "internalType": "uint256",
          "name": "value",
          "type": "uint256"
        }
      ],
      "name": "Transfer",
      "type": "event"
    },
    {
      "inputs": [],
      "name": "ACCESS_CONTROL_SINGLETON",
      "outputs": [
        {
          "internalType": "contract ISuAccessControl",
          "name": "",
          "type": "address"
        }
      ],
      "stateMutability": "view",
      "type": "function"
    },
    {
      "inputs": [],
      "name": "ADMIN_ROLE",
      "outputs": [
        {
          "internalType": "bytes32",
          "name": "",
          "type": "bytes32"
        }
      ],
      "stateMutability": "view",
      "type": "function"
    },
    {
      "inputs": [],
      "name": "COMMUNITY_ADMIN_ROLE",
      "outputs": [
        {
          "internalType": "bytes32",
          "name": "",
          "type": "bytes32"
        }
      ],
      "stateMutability": "view",
      "type": "function"
    },
    {
      "inputs": [],
      "name": "DAO_ROLE",
      "outputs": [
        {
          "internalType": "bytes32",
          "name": "",
          "type": "bytes32"
        }
      ],
      "stateMutability": "view",
      "type": "function"
    },
    {
      "inputs": [],
      "name": "DEFAULT_ADMIN_ROLE",
      "outputs": [
        {
          "internalType": "bytes32",
          "name": "",
          "type": "bytes32"
        }
      ],
      "stateMutability": "view",
      "type": "function"
    },
    {
      "inputs": [],
      "name": "DOMAIN_SEPARATOR",
      "outputs": [
        {
          "internalType": "bytes32",
          "name": "",
          "type": "bytes32"
        }
      ],
      "stateMutability": "view",
      "type": "function"
    },
    {
      "inputs": [],
      "name": "MAX_SUPPLY",
      "outputs": [
        {
          "internalType": "uint256",
          "name": "",
          "type": "uint256"
        }
      ],
      "stateMutability": "view",
      "type": "function"
    },
    {
      "inputs": [
        {
          "internalType": "address",
          "name": "owner",
          "type": "address"
        },
        {
          "internalType": "address",
          "name": "spender",
          "type": "address"
        }
      ],
      "name": "allowance",
      "outputs": [
        {
          "internalType": "uint256",
          "name": "",
          "type": "uint256"
        }
      ],
      "stateMutability": "view",
      "type": "function"
    },
    {
      "inputs": [
        {
          "internalType": "address",
          "name": "spender",
          "type": "address"
        },
        {
          "internalType": "uint256",
          "name": "amount",
          "type": "uint256"
        }
      ],
      "name": "approve",
      "outputs": [
        {
          "internalType": "bool",
          "name": "",
          "type": "bool"
        }
      ],
      "stateMutability": "nonpayable",
      "type": "function"
    },
    {
      "inputs": [
        {
          "internalType": "address",
          "name": "account",
          "type": "address"
        }
      ],
      "name": "balanceOf",
      "outputs": [
        {
          "internalType": "uint256",
          "name": "",
          "type": "uint256"
        }
      ],
      "stateMutability": "view",
      "type": "function"
    },
    {
      "inputs": [
        {
          "internalType": "uint256",
          "name": "amount",
          "type": "uint256"
        }
      ],
      "name": "burn",
      "outputs": [],
      "stateMutability": "nonpayable",
      "type": "function"
    },
    {
      "inputs": [
        {
          "internalType": "address",
          "name": "account",
          "type": "address"
        },
        {
          "internalType": "uint256",
          "name": "amount",
          "type": "uint256"
        }
      ],
      "name": "burnFrom",
      "outputs": [],
      "stateMutability": "nonpayable",
      "type": "function"
    },
    {
      "inputs": [
        {
          "internalType": "address",
          "name": "account",
          "type": "address"
        },
        {
          "internalType": "uint32",
          "name": "pos",
          "type": "uint32"
        }
      ],
      "name": "checkpoints",
      "outputs": [
        {
          "components": [
            {
              "internalType": "uint32",
              "name": "fromBlock",
              "type": "uint32"
            },
            {
              "internalType": "uint224",
              "name": "votes",
              "type": "uint224"
            }
          ],
          "internalType": "struct ERC20VotesUpgradeable.Checkpoint",
          "name": "",
          "type": "tuple"
        }
      ],
      "stateMutability": "view",
      "type": "function"
    },
    {
      "inputs": [],
      "name": "decimals",
      "outputs": [
        {
          "internalType": "uint8",
          "name": "",
          "type": "uint8"
        }
      ],
      "stateMutability": "view",
      "type": "function"
    },
    {
      "inputs": [
        {
          "internalType": "address",
          "name": "spender",
          "type": "address"
        },
        {
          "internalType": "uint256",
          "name": "subtractedValue",
          "type": "uint256"
        }
      ],
      "name": "decreaseAllowance",
      "outputs": [
        {
          "internalType": "bool",
          "name": "",
          "type": "bool"
        }
      ],
      "stateMutability": "nonpayable",
      "type": "function"
    },
    {
      "inputs": [
        {
          "internalType": "address",
          "name": "delegatee",
          "type": "address"
        }
      ],
      "name": "delegate",
      "outputs": [],
      "stateMutability": "nonpayable",
      "type": "function"
    },
    {
      "inputs": [
        {
          "internalType": "address",
          "name": "delegatee",
          "type": "address"
        },
        {
          "internalType": "uint256",
          "name": "nonce",
          "type": "uint256"
        },
        {
          "internalType": "uint256",
          "name": "expiry",
          "type": "uint256"
        },
        {
          "internalType": "uint8",
          "name": "v",
          "type": "uint8"
        },
        {
          "internalType": "bytes32",
          "name": "r",
          "type": "bytes32"
        },
        {
          "internalType": "bytes32",
          "name": "s",
          "type": "bytes32"
        }
      ],
      "name": "delegateBySig",
      "outputs": [],
      "stateMutability": "nonpayable",
      "type": "function"
    },
    {
      "inputs": [
        {
          "internalType": "address",
          "name": "account",
          "type": "address"
        }
      ],
      "name": "delegates",
      "outputs": [
        {
          "internalType": "address",
          "name": "",
          "type": "address"
        }
      ],
      "stateMutability": "view",
      "type": "function"
    },
    {
      "inputs": [
        {
          "internalType": "uint256",
          "name": "blockNumber",
          "type": "uint256"
        }
      ],
      "name": "getPastTotalSupply",
      "outputs": [
        {
          "internalType": "uint256",
          "name": "",
          "type": "uint256"
        }
      ],
      "stateMutability": "view",
      "type": "function"
    },
    {
      "inputs": [
        {
          "internalType": "address",
          "name": "account",
          "type": "address"
        },
        {
          "internalType": "uint256",
          "name": "blockNumber",
          "type": "uint256"
        }
      ],
      "name": "getPastVotes",
      "outputs": [
        {
          "internalType": "uint256",
          "name": "",
          "type": "uint256"
        }
      ],
      "stateMutability": "view",
      "type": "function"
    },
    {
      "inputs": [
        {
          "internalType": "bytes32",
          "name": "role",
          "type": "bytes32"
        }
      ],
      "name": "getRoleAdmin",
      "outputs": [
        {
          "internalType": "bytes32",
          "name": "",
          "type": "bytes32"
        }
      ],
      "stateMutability": "view",
      "type": "function"
    },
    {
      "inputs": [
        {
          "internalType": "address",
          "name": "account",
          "type": "address"
        }
      ],
      "name": "getVotes",
      "outputs": [
        {
          "internalType": "uint256",
          "name": "",
          "type": "uint256"
        }
      ],
      "stateMutability": "view",
      "type": "function"
    },
    {
      "inputs": [
        {
          "internalType": "bytes32",
          "name": "role",
          "type": "bytes32"
        },
        {
          "internalType": "address",
          "name": "account",
          "type": "address"
        }
      ],
      "name": "hasRole",
      "outputs": [
        {
          "internalType": "bool",
          "name": "",
          "type": "bool"
        }
      ],
      "stateMutability": "view",
      "type": "function"
    },
    {
      "inputs": [
        {
          "internalType": "address",
          "name": "spender",
          "type": "address"
        },
        {
          "internalType": "uint256",
          "name": "addedValue",
          "type": "uint256"
        }
      ],
      "name": "increaseAllowance",
      "outputs": [
        {
          "internalType": "bool",
          "name": "",
          "type": "bool"
        }
      ],
      "stateMutability": "nonpayable",
      "type": "function"
    },
    {
      "inputs": [
        {
          "internalType": "address",
          "name": "_accessControlSingleton",
          "type": "address"
        }
      ],
      "name": "initialize",
      "outputs": [],
      "stateMutability": "nonpayable",
      "type": "function"
    },
    {
      "inputs": [
        {
          "internalType": "address",
          "name": "account",
          "type": "address"
        },
        {
          "internalType": "uint256",
          "name": "amount",
          "type": "uint256"
        }
      ],
      "name": "mint",
      "outputs": [],
      "stateMutability": "nonpayable",
      "type": "function"
    },
    {
      "inputs": [],
      "name": "name",
      "outputs": [
        {
          "internalType": "string",
          "name": "",
          "type": "string"
        }
      ],
      "stateMutability": "view",
      "type": "function"
    },
    {
      "inputs": [
        {
          "internalType": "address",
          "name": "owner",
          "type": "address"
        }
      ],
      "name": "nonces",
      "outputs": [
        {
          "internalType": "uint256",
          "name": "",
          "type": "uint256"
        }
      ],
      "stateMutability": "view",
      "type": "function"
    },
    {
      "inputs": [
        {
          "internalType": "address",
          "name": "account",
          "type": "address"
        }
      ],
      "name": "numCheckpoints",
      "outputs": [
        {
          "internalType": "uint32",
          "name": "",
          "type": "uint32"
        }
      ],
      "stateMutability": "view",
      "type": "function"
    },
    {
      "inputs": [
        {
          "internalType": "address",
          "name": "owner",
          "type": "address"
        },
        {
          "internalType": "address",
          "name": "spender",
          "type": "address"
        },
        {
          "internalType": "uint256",
          "name": "value",
          "type": "uint256"
        },
        {
          "internalType": "uint256",
          "name": "deadline",
          "type": "uint256"
        },
        {
          "internalType": "uint8",
          "name": "v",
          "type": "uint8"
        },
        {
          "internalType": "bytes32",
          "name": "r",
          "type": "bytes32"
        },
        {
          "internalType": "bytes32",
          "name": "s",
          "type": "bytes32"
        }
      ],
      "name": "permit",
      "outputs": [],
      "stateMutability": "nonpayable",
      "type": "function"
    },
    {
      "inputs": [
        {
          "internalType": "contract ERC20Upgradeable",
          "name": "token",
          "type": "address"
        }
      ],
      "name": "rescueTokens",
      "outputs": [],
      "stateMutability": "nonpayable",
      "type": "function"
    },
    {
      "inputs": [
        {
          "internalType": "bytes4",
          "name": "interfaceId",
          "type": "bytes4"
        }
      ],
      "name": "supportsInterface",
      "outputs": [
        {
          "internalType": "bool",
          "name": "",
          "type": "bool"
        }
      ],
      "stateMutability": "view",
      "type": "function"
    },
    {
      "inputs": [],
      "name": "symbol",
      "outputs": [
        {
          "internalType": "string",
          "name": "",
          "type": "string"
        }
      ],
      "stateMutability": "view",
      "type": "function"
    },
    {
      "inputs": [],
      "name": "totalSupply",
      "outputs": [
        {
          "internalType": "uint256",
          "name": "",
          "type": "uint256"
        }
      ],
      "stateMutability": "view",
      "type": "function"
    },
    {
      "inputs": [
        {
          "internalType": "address",
          "name": "to",
          "type": "address"
        },
        {
          "internalType": "uint256",
          "name": "amount",
          "type": "uint256"
        }
      ],
      "name": "transfer",
      "outputs": [
        {
          "internalType": "bool",
          "name": "",
          "type": "bool"
        }
      ],
      "stateMutability": "nonpayable",
      "type": "function"
    },
    {
      "inputs": [
        {
          "internalType": "address",
          "name": "from",
          "type": "address"
        },
        {
          "internalType": "address",
          "name": "to",
          "type": "address"
        },
        {
          "internalType": "uint256",
          "name": "amount",
          "type": "uint256"
        }
      ],
      "name": "transferFrom",
      "outputs": [
        {
          "internalType": "bool",
          "name": "",
          "type": "bool"
        }
      ],
      "stateMutability": "nonpayable",
      "type": "function"
    },
    {
      "stateMutability": "payable",
      "type": "receive"
    }
  ],
  "numDeployments": 1,
  "solcInputHash": "f758b7a0534974279b090d6789581c7e",
  "bytecode": "0x608060405234801561001057600080fd5b506152c0806100206000396000f3fe6080604052600436106102125760003560e01c806370a0823111610118578063a217fddf116100a0578063c4d66de81161006f578063c4d66de814610855578063d505accf1461087e578063dd62ed3e146108a7578063e9c26518146108e4578063f1127ed81461090f57610219565b8063a217fddf14610787578063a457c2d7146107b2578063a9059cbb146107ef578063c3cda5201461082c57610219565b80638e539e8c116100e75780638e539e8c1461067a57806391d14854146106b757806395367f89146106f457806395d89b411461071f5780639ab24eb01461074a57610219565b806370a08231146105ac57806375b238fc146105e957806379cc6790146106145780637ecebe001461063d57610219565b806332cb6b0c1161019b57806340c10f191161016a57806340c10f19146104b757806342966c68146104e0578063587cde1e146105095780635c19a95c146105465780636fcfff451461056f57610219565b806332cb6b0c146103e75780633644e51514610412578063395093511461043d5780633a46b1a81461047a57610219565b8063095ea7b3116101e2578063095ea7b3146102da57806318160ddd1461031757806323b872dd14610342578063248a9ca31461037f578063313ce567146103bc57610219565b8062ae3bf81461021e57806301ffc9a71461024757806303ee9f221461028457806306fdde03146102af57610219565b3661021957005b600080fd5b34801561022a57600080fd5b5061024560048036038101906102409190613402565b61094c565b005b34801561025357600080fd5b5061026e60048036038101906102699190613487565b610ac6565b60405161027b91906134cf565b60405180910390f35b34801561029057600080fd5b50610299610b6c565b6040516102a69190613549565b60405180910390f35b3480156102bb57600080fd5b506102c4610b93565b6040516102d191906135fd565b60405180910390f35b3480156102e657600080fd5b5061030160048036038101906102fc9190613681565b610c25565b60405161030e91906134cf565b60405180910390f35b34801561032357600080fd5b5061032c610c48565b60405161033991906136d0565b60405180910390f35b34801561034e57600080fd5b50610369600480360381019061036491906136eb565b610c52565b60405161037691906134cf565b60405180910390f35b34801561038b57600080fd5b506103a660048036038101906103a19190613774565b610c81565b6040516103b391906137b0565b60405180910390f35b3480156103c857600080fd5b506103d1610d27565b6040516103de91906137e7565b60405180910390f35b3480156103f357600080fd5b506103fc610d30565b60405161040991906136d0565b60405180910390f35b34801561041e57600080fd5b50610427610d3f565b60405161043491906137b0565b60405180910390f35b34801561044957600080fd5b50610464600480360381019061045f9190613681565b610d4e565b60405161047191906134cf565b60405180910390f35b34801561048657600080fd5b506104a1600480360381019061049c9190613681565b610d85565b6040516104ae91906136d0565b60405180910390f35b3480156104c357600080fd5b506104de60048036038101906104d99190613681565b610e19565b005b3480156104ec57600080fd5b5061050760048036038101906105029190613802565b610ed9565b005b34801561051557600080fd5b50610530600480360381019061052b919061382f565b610eed565b60405161053d919061386b565b60405180910390f35b34801561055257600080fd5b5061056d6004803603810190610568919061382f565b610f56565b005b34801561057b57600080fd5b506105966004803603810190610591919061382f565b610f6a565b6040516105a391906138a5565b60405180910390f35b3480156105b857600080fd5b506105d360048036038101906105ce919061382f565b610fbe565b6040516105e091906136d0565b60405180910390f35b3480156105f557600080fd5b506105fe611007565b60405161060b91906137b0565b60405180910390f35b34801561062057600080fd5b5061063b60048036038101906106369190613681565b61102b565b005b34801561064957600080fd5b50610664600480360381019061065f919061382f565b61104b565b60405161067191906136d0565b60405180910390f35b34801561068657600080fd5b506106a1600480360381019061069c9190613802565b61109b565b6040516106ae91906136d0565b60405180910390f35b3480156106c357600080fd5b506106de60048036038101906106d991906138c0565b6110f1565b6040516106eb91906134cf565b60405180910390f35b34801561070057600080fd5b5061070961119a565b60405161071691906137b0565b60405180910390f35b34801561072b57600080fd5b506107346111be565b60405161074191906135fd565b60405180910390f35b34801561075657600080fd5b50610771600480360381019061076c919061382f565b611250565b60405161077e91906136d0565b60405180910390f35b34801561079357600080fd5b5061079c611361565b6040516107a991906137b0565b60405180910390f35b3480156107be57600080fd5b506107d960048036038101906107d49190613681565b611368565b6040516107e691906134cf565b60405180910390f35b3480156107fb57600080fd5b5061081660048036038101906108119190613681565b6113df565b60405161082391906134cf565b60405180910390f35b34801561083857600080fd5b50610853600480360381019061084e919061392c565b611402565b005b34801561086157600080fd5b5061087c6004803603810190610877919061382f565b611506565b005b34801561088a57600080fd5b506108a560048036038101906108a091906139b9565b6116ba565b005b3480156108b357600080fd5b506108ce60048036038101906108c99190613a5b565b6117fc565b6040516108db91906136d0565b60405180910390f35b3480156108f057600080fd5b506108f9611883565b60405161090691906137b0565b60405180910390f35b34801561091b57600080fd5b5061093660048036038101906109319190613ac7565b61188a565b6040516109439190613b7c565b60405180910390f35b6000801b61095a81336110f1565b61099d5780336040517f37c2e343000000000000000000000000000000000000000000000000000000008152600401610994929190613b97565b60405180910390fd5b600073ffffffffffffffffffffffffffffffffffffffff168273ffffffffffffffffffffffffffffffffffffffff1603610a1d573373ffffffffffffffffffffffffffffffffffffffff166108fc479081150290604051600060405180830381858888f19350505050158015610a17573d6000803e3d6000fd5b50610ac2565b610ac1338373ffffffffffffffffffffffffffffffffffffffff166370a08231306040518263ffffffff1660e01b8152600401610a5a919061386b565b602060405180830381865afa158015610a77573d6000803e3d6000fd5b505050506040513d601f19601f82011682018060405250810190610a9b9190613bd5565b8473ffffffffffffffffffffffffffffffffffffffff1661199a9092919063ffffffff16565b5b5050565b600061013060009054906101000a900473ffffffffffffffffffffffffffffffffffffffff1673ffffffffffffffffffffffffffffffffffffffff166301ffc9a7836040518263ffffffff1660e01b8152600401610b249190613c11565b602060405180830381865afa158015610b41573d6000803e3d6000fd5b505050506040513d601f19601f82011682018060405250810190610b659190613c58565b9050919050565b61013060009054906101000a900473ffffffffffffffffffffffffffffffffffffffff1681565b606060368054610ba290613cb4565b80601f0160208091040260200160405190810160405280929190818152602001828054610bce90613cb4565b8015610c1b5780601f10610bf057610100808354040283529160200191610c1b565b820191906000526020600020905b815481529060010190602001808311610bfe57829003601f168201915b5050505050905090565b600080610c30611a20565b9050610c3d818585611a28565b600191505092915050565b6000603554905090565b600080610c5d611a20565b9050610c6a858285611bf1565b610c75858585611c7d565b60019150509392505050565b600061013060009054906101000a900473ffffffffffffffffffffffffffffffffffffffff1673ffffffffffffffffffffffffffffffffffffffff1663248a9ca3836040518263ffffffff1660e01b8152600401610cdf91906137b0565b602060405180830381865afa158015610cfc573d6000803e3d6000fd5b505050506040513d601f19601f82011682018060405250810190610d209190613cfa565b9050919050565b60006012905090565b6a115eec47f6cf7e3500000081565b6000610d49611eff565b905090565b600080610d59611a20565b9050610d7a818585610d6b85896117fc565b610d759190613d56565b611a28565b600191505092915050565b6000438210610dc9576040517f08c379a0000000000000000000000000000000000000000000000000000000008152600401610dc090613df8565b60405180910390fd5b610e1160cd60008573ffffffffffffffffffffffffffffffffffffffff1673ffffffffffffffffffffffffffffffffffffffff16815260200190815260200160002083611f3f565b905092915050565b6000801b610e2781336110f1565b610e6a5780336040517f37c2e343000000000000000000000000000000000000000000000000000000008152600401610e61929190613b97565b60405180910390fd5b6a115eec47f6cf7e3500000082610e7f610c48565b610e899190613d56565b1115610eca576040517f08c379a0000000000000000000000000000000000000000000000000000000008152600401610ec190613e64565b60405180910390fd5b610ed4838361204b565b505050565b610eea610ee4611a20565b82612059565b50565b600060cc60008373ffffffffffffffffffffffffffffffffffffffff1673ffffffffffffffffffffffffffffffffffffffff16815260200190815260200160002060009054906101000a900473ffffffffffffffffffffffffffffffffffffffff169050919050565b610f67610f61611a20565b82612067565b50565b6000610fb760cd60008473ffffffffffffffffffffffffffffffffffffffff1673ffffffffffffffffffffffffffffffffffffffff16815260200190815260200160002080549050612181565b9050919050565b6000603360008373ffffffffffffffffffffffffffffffffffffffff1673ffffffffffffffffffffffffffffffffffffffff168152602001908152602001600020549050919050565b7fa49807205ce4d355092ef5a8a18f56e8913cf4a201fbe287825b095693c2177581565b61103d82611037611a20565b83611bf1565b6110478282612059565b5050565b6000611094609960008473ffffffffffffffffffffffffffffffffffffffff1673ffffffffffffffffffffffffffffffffffffffff1681526020019081526020016000206121d4565b9050919050565b60004382106110df576040517f08c379a00000000000000000000000000000000000000000000000000000000081526004016110d690613df8565b60405180910390fd5b6110ea60ce83611f3f565b9050919050565b600061013060009054906101000a900473ffffffffffffffffffffffffffffffffffffffff1673ffffffffffffffffffffffffffffffffffffffff166391d1485484846040518363ffffffff1660e01b8152600401611151929190613b97565b602060405180830381865afa15801561116e573d6000803e3d6000fd5b505050506040513d601f19601f820116820180604052508101906111929190613c58565b905092915050565b7f0a7cc066f24e107ff77c42c8a1bdaf1a5f775fa4a74e45530aaf9c866368f65381565b6060603780546111cd90613cb4565b80601f01602080910402602001604051908101604052809291908181526020018280546111f990613cb4565b80156112465780601f1061121b57610100808354040283529160200191611246565b820191906000526020600020905b81548152906001019060200180831161122957829003601f168201915b5050505050905090565b60008060cd60008473ffffffffffffffffffffffffffffffffffffffff1673ffffffffffffffffffffffffffffffffffffffff168152602001908152602001600020805490509050600081146113385760cd60008473ffffffffffffffffffffffffffffffffffffffff1673ffffffffffffffffffffffffffffffffffffffff1681526020019081526020016000206001826112ec9190613e84565b815481106112fd576112fc613eb8565b5b9060005260206000200160000160049054906101000a90047bffffffffffffffffffffffffffffffffffffffffffffffffffffffff1661133b565b60005b7bffffffffffffffffffffffffffffffffffffffffffffffffffffffff16915050919050565b6000801b81565b600080611373611a20565b9050600061138182866117fc565b9050838110156113c6576040517f08c379a00000000000000000000000000000000000000000000000000000000081526004016113bd90613f59565b60405180910390fd5b6113d38286868403611a28565b60019250505092915050565b6000806113ea611a20565b90506113f7818585611c7d565b600191505092915050565b83421115611445576040517f08c379a000000000000000000000000000000000000000000000000000000000815260040161143c90613fc5565b60405180910390fd5b60006114a761149f7fe48329057bfd03d55e49b547132e39cffd9c1820ad7b9d4c5307691425d15adf8989896040516020016114849493929190613fe5565b604051602081830303815290604052805190602001206121e2565b8585856121fc565b90506114b281612227565b86146114f3576040517f08c379a00000000000000000000000000000000000000000000000000000000081526004016114ea90614076565b60405180910390fd5b6114fd8188612067565b50505050505050565b60008060019054906101000a900460ff161590508080156115375750600160008054906101000a900460ff1660ff16105b80611564575061154630612285565b1580156115635750600160008054906101000a900460ff1660ff16145b5b6115a3576040517f08c379a000000000000000000000000000000000000000000000000000000000815260040161159a90614108565b60405180910390fd5b60016000806101000a81548160ff021916908360ff16021790555080156115e0576001600060016101000a81548160ff0219169083151502179055505b6115e9826122a8565b61165d6040518060400160405280600e81526020017f537461626c65556e69742044414f0000000000000000000000000000000000008152506040518060400160405280600581526020017f537544414f00000000000000000000000000000000000000000000000000000081525061233c565b80156116b65760008060016101000a81548160ff0219169083151502179055507f7f26b83ff96e1f2b6a682f133852f6798a09c465da95921460cefb384740249860016040516116ad9190614163565b60405180910390a15b5050565b834211156116fd576040517f08c379a00000000000000000000000000000000000000000000000000000000081526004016116f4906141ca565b60405180910390fd5b60007f6e71edae12b1b97f4d1f60370fef10105fa2faae0126114a169c64845d6126c988888861172c8c612227565b89604051602001611742969594939291906141ea565b6040516020818303038152906040528051906020012090506000611765826121e2565b90506000611775828787876121fc565b90508973ffffffffffffffffffffffffffffffffffffffff168173ffffffffffffffffffffffffffffffffffffffff16146117e5576040517f08c379a00000000000000000000000000000000000000000000000000000000081526004016117dc90614297565b60405180910390fd5b6117f08a8a8a611a28565b50505050505050505050565b6000603460008473ffffffffffffffffffffffffffffffffffffffff1673ffffffffffffffffffffffffffffffffffffffff16815260200190815260200160002060008373ffffffffffffffffffffffffffffffffffffffff1673ffffffffffffffffffffffffffffffffffffffff16815260200190815260200160002054905092915050565b6000801b81565b61189261334f565b60cd60008473ffffffffffffffffffffffffffffffffffffffff1673ffffffffffffffffffffffffffffffffffffffff1681526020019081526020016000208263ffffffff16815481106118e9576118e8613eb8565b5b906000526020600020016040518060400160405290816000820160009054906101000a900463ffffffff1663ffffffff1663ffffffff1681526020016000820160049054906101000a90047bffffffffffffffffffffffffffffffffffffffffffffffffffffffff167bffffffffffffffffffffffffffffffffffffffffffffffffffffffff167bffffffffffffffffffffffffffffffffffffffffffffffffffffffff1681525050905092915050565b611a1b8363a9059cbb60e01b84846040516024016119b99291906142b7565b604051602081830303815290604052907bffffffffffffffffffffffffffffffffffffffffffffffffffffffff19166020820180517bffffffffffffffffffffffffffffffffffffffffffffffffffffffff8381831617835250505050612399565b505050565b600033905090565b600073ffffffffffffffffffffffffffffffffffffffff168373ffffffffffffffffffffffffffffffffffffffff1603611a97576040517f08c379a0000000000000000000000000000000000000000000000000000000008152600401611a8e90614352565b60405180910390fd5b600073ffffffffffffffffffffffffffffffffffffffff168273ffffffffffffffffffffffffffffffffffffffff1603611b06576040517f08c379a0000000000000000000000000000000000000000000000000000000008152600401611afd906143e4565b60405180910390fd5b80603460008573ffffffffffffffffffffffffffffffffffffffff1673ffffffffffffffffffffffffffffffffffffffff16815260200190815260200160002060008473ffffffffffffffffffffffffffffffffffffffff1673ffffffffffffffffffffffffffffffffffffffff168152602001908152602001600020819055508173ffffffffffffffffffffffffffffffffffffffff168373ffffffffffffffffffffffffffffffffffffffff167f8c5be1e5ebec7d5bd14f71427d1e84f3dd0314c0f7b2291e5b200ac8c7c3b92583604051611be491906136d0565b60405180910390a3505050565b6000611bfd84846117fc565b90507fffffffffffffffffffffffffffffffffffffffffffffffffffffffffffffffff8114611c775781811015611c69576040517f08c379a0000000000000000000000000000000000000000000000000000000008152600401611c6090614450565b60405180910390fd5b611c768484848403611a28565b5b50505050565b600073ffffffffffffffffffffffffffffffffffffffff168373ffffffffffffffffffffffffffffffffffffffff1603611cec576040517f08c379a0000000000000000000000000000000000000000000000000000000008152600401611ce3906144e2565b60405180910390fd5b600073ffffffffffffffffffffffffffffffffffffffff168273ffffffffffffffffffffffffffffffffffffffff1603611d5b576040517f08c379a0000000000000000000000000000000000000000000000000000000008152600401611d5290614574565b60405180910390fd5b611d66838383612460565b6000603360008573ffffffffffffffffffffffffffffffffffffffff1673ffffffffffffffffffffffffffffffffffffffff16815260200190815260200160002054905081811015611ded576040517f08c379a0000000000000000000000000000000000000000000000000000000008152600401611de490614606565b60405180910390fd5b818103603360008673ffffffffffffffffffffffffffffffffffffffff1673ffffffffffffffffffffffffffffffffffffffff1681526020019081526020016000208190555081603360008573ffffffffffffffffffffffffffffffffffffffff1673ffffffffffffffffffffffffffffffffffffffff1681526020019081526020016000206000828254611e829190613d56565b925050819055508273ffffffffffffffffffffffffffffffffffffffff168473ffffffffffffffffffffffffffffffffffffffff167fddf252ad1be2c89b69c2b068fc378daa952ba7f163c4a11628f55a4df523b3ef84604051611ee691906136d0565b60405180910390a3611ef9848484612465565b50505050565b6000611f3a7f8b73c3c69bb8fe3d512ecc4cf759cc79239f7b179b0ffacaa9a75d522b39400f611f2d612475565b611f3561247f565b612489565b905090565b6000808380549050905060005b81811015611fbe576000611f6082846124c3565b905084868281548110611f7657611f75613eb8565b5b9060005260206000200160000160009054906101000a900463ffffffff1663ffffffff161115611fa857809250611fb8565b600181611fb59190613d56565b91505b50611f4c565b600082146120205784600183611fd49190613e84565b81548110611fe557611fe4613eb8565b5b9060005260206000200160000160049054906101000a90047bffffffffffffffffffffffffffffffffffffffffffffffffffffffff16612023565b60005b7bffffffffffffffffffffffffffffffffffffffffffffffffffffffff169250505092915050565b61205582826124e9565b5050565b6120638282612576565b5050565b600061207283610eed565b9050600061207f84610fbe565b90508260cc60008673ffffffffffffffffffffffffffffffffffffffff1673ffffffffffffffffffffffffffffffffffffffff16815260200190815260200160002060006101000a81548173ffffffffffffffffffffffffffffffffffffffff021916908373ffffffffffffffffffffffffffffffffffffffff1602179055508273ffffffffffffffffffffffffffffffffffffffff168273ffffffffffffffffffffffffffffffffffffffff168573ffffffffffffffffffffffffffffffffffffffff167f3134e8a2e6d97e929a7e54011ea5485d7d196dd5f0ba4d4ef95803e8e3fc257f60405160405180910390a461217b828483612594565b50505050565b600063ffffffff80168211156121cc576040517f08c379a00000000000000000000000000000000000000000000000000000000081526004016121c390614698565b60405180910390fd5b819050919050565b600081600001549050919050565b60006121f56121ef611eff565b8361278d565b9050919050565b600080600061220d878787876127c0565b9150915061221a816128cc565b8192505050949350505050565b600080609960008473ffffffffffffffffffffffffffffffffffffffff1673ffffffffffffffffffffffffffffffffffffffff1681526020019081526020016000209050612274816121d4565b915061227f81612a98565b50919050565b6000808273ffffffffffffffffffffffffffffffffffffffff163b119050919050565b600060019054906101000a900460ff166122f7576040517f08c379a00000000000000000000000000000000000000000000000000000000081526004016122ee9061472a565b60405180910390fd5b8061013060006101000a81548173ffffffffffffffffffffffffffffffffffffffff021916908373ffffffffffffffffffffffffffffffffffffffff16021790555050565b600060019054906101000a900460ff1661238b576040517f08c379a00000000000000000000000000000000000000000000000000000000081526004016123829061472a565b60405180910390fd5b6123958282612aae565b5050565b60006123fb826040518060400160405280602081526020017f5361666545524332303a206c6f772d6c6576656c2063616c6c206661696c65648152508573ffffffffffffffffffffffffffffffffffffffff16612b219092919063ffffffff16565b905060008151111561245b578080602001905181019061241b9190613c58565b61245a576040517f08c379a0000000000000000000000000000000000000000000000000000000008152600401612451906147bc565b60405180910390fd5b5b505050565b505050565b612470838383612b39565b505050565b6000606554905090565b6000606654905090565b600083838346306040516020016124a49594939291906147dc565b6040516020818303038152906040528051906020012090509392505050565b600060028284186124d4919061485e565b8284166124e19190613d56565b905092915050565b6124f38282612b64565b6124fb612cc4565b7bffffffffffffffffffffffffffffffffffffffffffffffffffffffff16612521610c48565b1115612562576040517f08c379a000000000000000000000000000000000000000000000000000000000815260040161255990614901565b60405180910390fd5b61257060ce612ce883612cfe565b50505050565b6125808282612f76565b61258e60ce61314e83612cfe565b50505050565b8173ffffffffffffffffffffffffffffffffffffffff168373ffffffffffffffffffffffffffffffffffffffff16141580156125d05750600081115b1561278857600073ffffffffffffffffffffffffffffffffffffffff168373ffffffffffffffffffffffffffffffffffffffff16146126ae5760008061265760cd60008773ffffffffffffffffffffffffffffffffffffffff1673ffffffffffffffffffffffffffffffffffffffff16815260200190815260200160002061314e85612cfe565b915091508473ffffffffffffffffffffffffffffffffffffffff167fdec2bacdd2f05b59de34da9b523dff8be42e5e38e818c82fdb0bae774387a72483836040516126a3929190614921565b60405180910390a250505b600073ffffffffffffffffffffffffffffffffffffffff168273ffffffffffffffffffffffffffffffffffffffff16146127875760008061273060cd60008673ffffffffffffffffffffffffffffffffffffffff1673ffffffffffffffffffffffffffffffffffffffff168152602001908152602001600020612ce885612cfe565b915091508373ffffffffffffffffffffffffffffffffffffffff167fdec2bacdd2f05b59de34da9b523dff8be42e5e38e818c82fdb0bae774387a724838360405161277c929190614921565b60405180910390a250505b5b505050565b600082826040516020016127a29291906149c2565b60405160208183030381529060405280519060200120905092915050565b6000807f7fffffffffffffffffffffffffffffff5d576e7357a4501ddfe92f46681b20a08360001c11156127fb5760006003915091506128c3565b601b8560ff16141580156128135750601c8560ff1614155b156128255760006004915091506128c3565b60006001878787876040516000815260200160405260405161284a94939291906149f9565b6020604051602081039080840390855afa15801561286c573d6000803e3d6000fd5b505050602060405103519050600073ffffffffffffffffffffffffffffffffffffffff168173ffffffffffffffffffffffffffffffffffffffff16036128ba576000600192509250506128c3565b80600092509250505b94509492505050565b600060048111156128e0576128df614a3e565b5b8160048111156128f3576128f2614a3e565b5b0315612a95576001600481111561290d5761290c614a3e565b5b8160048111156129205761291f614a3e565b5b03612960576040517f08c379a000000000000000000000000000000000000000000000000000000000815260040161295790614ab9565b60405180910390fd5b6002600481111561297457612973614a3e565b5b81600481111561298757612986614a3e565b5b036129c7576040517f08c379a00000000000000000000000000000000000000000000000000000000081526004016129be90614b25565b60405180910390fd5b600360048111156129db576129da614a3e565b5b8160048111156129ee576129ed614a3e565b5b03612a2e576040517f08c379a0000000000000000000000000000000000000000000000000000000008152600401612a2590614bb7565b60405180910390fd5b600480811115612a4157612a40614a3e565b5b816004811115612a5457612a53614a3e565b5b03612a94576040517f08c379a0000000000000000000000000000000000000000000000000000000008152600401612a8b90614c49565b60405180910390fd5b5b50565b6001816000016000828254019250508190555050565b600060019054906101000a900460ff16612afd576040517f08c379a0000000000000000000000000000000000000000000000000000000008152600401612af49061472a565b60405180910390fd5b8160369081612b0c9190614e3a565b508060379081612b1c9190614e3a565b505050565b6060612b308484600085613164565b90509392505050565b612b44838383613278565b612b5f612b5084610eed565b612b5984610eed565b83612594565b505050565b600073ffffffffffffffffffffffffffffffffffffffff168273ffffffffffffffffffffffffffffffffffffffff1603612bd3576040517f08c379a0000000000000000000000000000000000000000000000000000000008152600401612bca90614f58565b60405180910390fd5b612bdf60008383612460565b8060356000828254612bf19190613d56565b9250508190555080603360008473ffffffffffffffffffffffffffffffffffffffff1673ffffffffffffffffffffffffffffffffffffffff1681526020019081526020016000206000828254612c479190613d56565b925050819055508173ffffffffffffffffffffffffffffffffffffffff16600073ffffffffffffffffffffffffffffffffffffffff167fddf252ad1be2c89b69c2b068fc378daa952ba7f163c4a11628f55a4df523b3ef83604051612cac91906136d0565b60405180910390a3612cc060008383612465565b5050565b60007bffffffffffffffffffffffffffffffffffffffffffffffffffffffff905090565b60008183612cf69190613d56565b905092915050565b60008060008580549050905060008114612d6c5785600182612d209190613e84565b81548110612d3157612d30613eb8565b5b9060005260206000200160000160049054906101000a90047bffffffffffffffffffffffffffffffffffffffffffffffffffffffff16612d6f565b60005b7bffffffffffffffffffffffffffffffffffffffffffffffffffffffff169250612d9d83858763ffffffff16565b9150600081118015612df057504386600183612db99190613e84565b81548110612dca57612dc9613eb8565b5b9060005260206000200160000160009054906101000a900463ffffffff1663ffffffff16145b15612e7d57612dfe8261327d565b86600183612e0c9190613e84565b81548110612e1d57612e1c613eb8565b5b9060005260206000200160000160046101000a8154817bffffffffffffffffffffffffffffffffffffffffffffffffffffffff02191690837bffffffffffffffffffffffffffffffffffffffffffffffffffffffff160217905550612f6d565b856040518060400160405280612e9243612181565b63ffffffff168152602001612ea68561327d565b7bffffffffffffffffffffffffffffffffffffffffffffffffffffffff168152509080600181540180825580915050600190039060005260206000200160009091909190915060008201518160000160006101000a81548163ffffffff021916908363ffffffff16021790555060208201518160000160046101000a8154817bffffffffffffffffffffffffffffffffffffffffffffffffffffffff02191690837bffffffffffffffffffffffffffffffffffffffffffffffffffffffff16021790555050505b50935093915050565b600073ffffffffffffffffffffffffffffffffffffffff168273ffffffffffffffffffffffffffffffffffffffff1603612fe5576040517f08c379a0000000000000000000000000000000000000000000000000000000008152600401612fdc90614fea565b60405180910390fd5b612ff182600083612460565b6000603360008473ffffffffffffffffffffffffffffffffffffffff1673ffffffffffffffffffffffffffffffffffffffff16815260200190815260200160002054905081811015613078576040517f08c379a000000000000000000000000000000000000000000000000000000000815260040161306f9061507c565b60405180910390fd5b818103603360008573ffffffffffffffffffffffffffffffffffffffff1673ffffffffffffffffffffffffffffffffffffffff1681526020019081526020016000208190555081603560008282546130d09190613e84565b92505081905550600073ffffffffffffffffffffffffffffffffffffffff168373ffffffffffffffffffffffffffffffffffffffff167fddf252ad1be2c89b69c2b068fc378daa952ba7f163c4a11628f55a4df523b3ef8460405161313591906136d0565b60405180910390a361314983600084612465565b505050565b6000818361315c9190613e84565b905092915050565b6060824710156131a9576040517f08c379a00000000000000000000000000000000000000000000000000000000081526004016131a09061510e565b60405180910390fd5b6131b285612285565b6131f1576040517f08c379a00000000000000000000000000000000000000000000000000000000081526004016131e89061517a565b60405180910390fd5b6000808673ffffffffffffffffffffffffffffffffffffffff16858760405161321a91906151e1565b60006040518083038185875af1925050503d8060008114613257576040519150601f19603f3d011682016040523d82523d6000602084013e61325c565b606091505b509150915061326c8282866132e8565b92505050949350505050565b505050565b60007bffffffffffffffffffffffffffffffffffffffffffffffffffffffff80168211156132e0576040517f08c379a00000000000000000000000000000000000000000000000000000000081526004016132d79061526a565b60405180910390fd5b819050919050565b606083156132f857829050613348565b60008351111561330b5782518084602001fd5b816040517f08c379a000000000000000000000000000000000000000000000000000000000815260040161333f91906135fd565b60405180910390fd5b9392505050565b6040518060400160405280600063ffffffff16815260200160007bffffffffffffffffffffffffffffffffffffffffffffffffffffffff1681525090565b600080fd5b600073ffffffffffffffffffffffffffffffffffffffff82169050919050565b60006133bd82613392565b9050919050565b60006133cf826133b2565b9050919050565b6133df816133c4565b81146133ea57600080fd5b50565b6000813590506133fc816133d6565b92915050565b6000602082840312156134185761341761338d565b5b6000613426848285016133ed565b91505092915050565b60007fffffffff0000000000000000000000000000000000000000000000000000000082169050919050565b6134648161342f565b811461346f57600080fd5b50565b6000813590506134818161345b565b92915050565b60006020828403121561349d5761349c61338d565b5b60006134ab84828501613472565b91505092915050565b60008115159050919050565b6134c9816134b4565b82525050565b60006020820190506134e460008301846134c0565b92915050565b6000819050919050565b600061350f61350a61350584613392565b6134ea565b613392565b9050919050565b6000613521826134f4565b9050919050565b600061353382613516565b9050919050565b61354381613528565b82525050565b600060208201905061355e600083018461353a565b92915050565b600081519050919050565b600082825260208201905092915050565b60005b8381101561359e578082015181840152602081019050613583565b838111156135ad576000848401525b50505050565b6000601f19601f8301169050919050565b60006135cf82613564565b6135d9818561356f565b93506135e9818560208601613580565b6135f2816135b3565b840191505092915050565b6000602082019050818103600083015261361781846135c4565b905092915050565b613628816133b2565b811461363357600080fd5b50565b6000813590506136458161361f565b92915050565b6000819050919050565b61365e8161364b565b811461366957600080fd5b50565b60008135905061367b81613655565b92915050565b600080604083850312156136985761369761338d565b5b60006136a685828601613636565b92505060206136b78582860161366c565b9150509250929050565b6136ca8161364b565b82525050565b60006020820190506136e560008301846136c1565b92915050565b6000806000606084860312156137045761370361338d565b5b600061371286828701613636565b935050602061372386828701613636565b92505060406137348682870161366c565b9150509250925092565b6000819050919050565b6137518161373e565b811461375c57600080fd5b50565b60008135905061376e81613748565b92915050565b60006020828403121561378a5761378961338d565b5b60006137988482850161375f565b91505092915050565b6137aa8161373e565b82525050565b60006020820190506137c560008301846137a1565b92915050565b600060ff82169050919050565b6137e1816137cb565b82525050565b60006020820190506137fc60008301846137d8565b92915050565b6000602082840312156138185761381761338d565b5b60006138268482850161366c565b91505092915050565b6000602082840312156138455761384461338d565b5b600061385384828501613636565b91505092915050565b613865816133b2565b82525050565b6000602082019050613880600083018461385c565b92915050565b600063ffffffff82169050919050565b61389f81613886565b82525050565b60006020820190506138ba6000830184613896565b92915050565b600080604083850312156138d7576138d661338d565b5b60006138e58582860161375f565b92505060206138f685828601613636565b9150509250929050565b613909816137cb565b811461391457600080fd5b50565b60008135905061392681613900565b92915050565b60008060008060008060c087890312156139495761394861338d565b5b600061395789828a01613636565b965050602061396889828a0161366c565b955050604061397989828a0161366c565b945050606061398a89828a01613917565b935050608061399b89828a0161375f565b92505060a06139ac89828a0161375f565b9150509295509295509295565b600080600080600080600060e0888a0312156139d8576139d761338d565b5b60006139e68a828b01613636565b97505060206139f78a828b01613636565b9650506040613a088a828b0161366c565b9550506060613a198a828b0161366c565b9450506080613a2a8a828b01613917565b93505060a0613a3b8a828b0161375f565b92505060c0613a4c8a828b0161375f565b91505092959891949750929550565b60008060408385031215613a7257613a7161338d565b5b6000613a8085828601613636565b9250506020613a9185828601613636565b9150509250929050565b613aa481613886565b8114613aaf57600080fd5b50565b600081359050613ac181613a9b565b92915050565b60008060408385031215613ade57613add61338d565b5b6000613aec85828601613636565b9250506020613afd85828601613ab2565b9150509250929050565b613b1081613886565b82525050565b60007bffffffffffffffffffffffffffffffffffffffffffffffffffffffff82169050919050565b613b4781613b16565b82525050565b604082016000820151613b636000850182613b07565b506020820151613b766020850182613b3e565b50505050565b6000604082019050613b916000830184613b4d565b92915050565b6000604082019050613bac60008301856137a1565b613bb9602083018461385c565b9392505050565b600081519050613bcf81613655565b92915050565b600060208284031215613beb57613bea61338d565b5b6000613bf984828501613bc0565b91505092915050565b613c0b8161342f565b82525050565b6000602082019050613c266000830184613c02565b92915050565b613c35816134b4565b8114613c4057600080fd5b50565b600081519050613c5281613c2c565b92915050565b600060208284031215613c6e57613c6d61338d565b5b6000613c7c84828501613c43565b91505092915050565b7f4e487b7100000000000000000000000000000000000000000000000000000000600052602260045260246000fd5b60006002820490506001821680613ccc57607f821691505b602082108103613cdf57613cde613c85565b5b50919050565b600081519050613cf481613748565b92915050565b600060208284031215613d1057613d0f61338d565b5b6000613d1e84828501613ce5565b91505092915050565b7f4e487b7100000000000000000000000000000000000000000000000000000000600052601160045260246000fd5b6000613d618261364b565b9150613d6c8361364b565b9250827fffffffffffffffffffffffffffffffffffffffffffffffffffffffffffffffff03821115613da157613da0613d27565b5b828201905092915050565b7f4552433230566f7465733a20626c6f636b206e6f7420796574206d696e656400600082015250565b6000613de2601f8361356f565b9150613ded82613dac565b602082019050919050565b60006020820190508181036000830152613e1181613dd5565b9050919050565b7f6d617820737570706c7920697320657863656564656400000000000000000000600082015250565b6000613e4e60168361356f565b9150613e5982613e18565b602082019050919050565b60006020820190508181036000830152613e7d81613e41565b9050919050565b6000613e8f8261364b565b9150613e9a8361364b565b925082821015613ead57613eac613d27565b5b828203905092915050565b7f4e487b7100000000000000000000000000000000000000000000000000000000600052603260045260246000fd5b7f45524332303a2064656372656173656420616c6c6f77616e63652062656c6f7760008201527f207a65726f000000000000000000000000000000000000000000000000000000602082015250565b6000613f4360258361356f565b9150613f4e82613ee7565b604082019050919050565b60006020820190508181036000830152613f7281613f36565b9050919050565b7f4552433230566f7465733a207369676e61747572652065787069726564000000600082015250565b6000613faf601d8361356f565b9150613fba82613f79565b602082019050919050565b60006020820190508181036000830152613fde81613fa2565b9050919050565b6000608082019050613ffa60008301876137a1565b614007602083018661385c565b61401460408301856136c1565b61402160608301846136c1565b95945050505050565b7f4552433230566f7465733a20696e76616c6964206e6f6e636500000000000000600082015250565b600061406060198361356f565b915061406b8261402a565b602082019050919050565b6000602082019050818103600083015261408f81614053565b9050919050565b7f496e697469616c697a61626c653a20636f6e747261637420697320616c72656160008201527f647920696e697469616c697a6564000000000000000000000000000000000000602082015250565b60006140f2602e8361356f565b91506140fd82614096565b604082019050919050565b60006020820190508181036000830152614121816140e5565b9050919050565b6000819050919050565b600061414d61414861414384614128565b6134ea565b6137cb565b9050919050565b61415d81614132565b82525050565b60006020820190506141786000830184614154565b92915050565b7f45524332305065726d69743a206578706972656420646561646c696e65000000600082015250565b60006141b4601d8361356f565b91506141bf8261417e565b602082019050919050565b600060208201905081810360008301526141e3816141a7565b9050919050565b600060c0820190506141ff60008301896137a1565b61420c602083018861385c565b614219604083018761385c565b61422660608301866136c1565b61423360808301856136c1565b61424060a08301846136c1565b979650505050505050565b7f45524332305065726d69743a20696e76616c6964207369676e61747572650000600082015250565b6000614281601e8361356f565b915061428c8261424b565b602082019050919050565b600060208201905081810360008301526142b081614274565b9050919050565b60006040820190506142cc600083018561385c565b6142d960208301846136c1565b9392505050565b7f45524332303a20617070726f76652066726f6d20746865207a65726f2061646460008201527f7265737300000000000000000000000000000000000000000000000000000000602082015250565b600061433c60248361356f565b9150614347826142e0565b604082019050919050565b6000602082019050818103600083015261436b8161432f565b9050919050565b7f45524332303a20617070726f766520746f20746865207a65726f20616464726560008201527f7373000000000000000000000000000000000000000000000000000000000000602082015250565b60006143ce60228361356f565b91506143d982614372565b604082019050919050565b600060208201905081810360008301526143fd816143c1565b9050919050565b7f45524332303a20696e73756666696369656e7420616c6c6f77616e6365000000600082015250565b600061443a601d8361356f565b915061444582614404565b602082019050919050565b600060208201905081810360008301526144698161442d565b9050919050565b7f45524332303a207472616e736665722066726f6d20746865207a65726f20616460008201527f6472657373000000000000000000000000000000000000000000000000000000602082015250565b60006144cc60258361356f565b91506144d782614470565b604082019050919050565b600060208201905081810360008301526144fb816144bf565b9050919050565b7f45524332303a207472616e7366657220746f20746865207a65726f206164647260008201527f6573730000000000000000000000000000000000000000000000000000000000602082015250565b600061455e60238361356f565b915061456982614502565b604082019050919050565b6000602082019050818103600083015261458d81614551565b9050919050565b7f45524332303a207472616e7366657220616d6f756e742065786365656473206260008201527f616c616e63650000000000000000000000000000000000000000000000000000602082015250565b60006145f060268361356f565b91506145fb82614594565b604082019050919050565b6000602082019050818103600083015261461f816145e3565b9050919050565b7f53616665436173743a2076616c756520646f65736e27742066697420696e203360008201527f3220626974730000000000000000000000000000000000000000000000000000602082015250565b600061468260268361356f565b915061468d82614626565b604082019050919050565b600060208201905081810360008301526146b181614675565b9050919050565b7f496e697469616c697a61626c653a20636f6e7472616374206973206e6f74206960008201527f6e697469616c697a696e67000000000000000000000000000000000000000000602082015250565b6000614714602b8361356f565b915061471f826146b8565b604082019050919050565b6000602082019050818103600083015261474381614707565b9050919050565b7f5361666545524332303a204552433230206f7065726174696f6e20646964206e60008201527f6f74207375636365656400000000000000000000000000000000000000000000602082015250565b60006147a6602a8361356f565b91506147b18261474a565b604082019050919050565b600060208201905081810360008301526147d581614799565b9050919050565b600060a0820190506147f160008301886137a1565b6147fe60208301876137a1565b61480b60408301866137a1565b61481860608301856136c1565b614825608083018461385c565b9695505050505050565b7f4e487b7100000000000000000000000000000000000000000000000000000000600052601260045260246000fd5b60006148698261364b565b91506148748361364b565b9250826148845761488361482f565b5b828204905092915050565b7f4552433230566f7465733a20746f74616c20737570706c79207269736b73206f60008201527f766572666c6f77696e6720766f74657300000000000000000000000000000000602082015250565b60006148eb60308361356f565b91506148f68261488f565b604082019050919050565b6000602082019050818103600083015261491a816148de565b9050919050565b600060408201905061493660008301856136c1565b61494360208301846136c1565b9392505050565b600081905092915050565b7f1901000000000000000000000000000000000000000000000000000000000000600082015250565b600061498b60028361494a565b915061499682614955565b600282019050919050565b6000819050919050565b6149bc6149b78261373e565b6149a1565b82525050565b60006149cd8261497e565b91506149d982856149ab565b6020820191506149e982846149ab565b6020820191508190509392505050565b6000608082019050614a0e60008301876137a1565b614a1b60208301866137d8565b614a2860408301856137a1565b614a3560608301846137a1565b95945050505050565b7f4e487b7100000000000000000000000000000000000000000000000000000000600052602160045260246000fd5b7f45434453413a20696e76616c6964207369676e61747572650000000000000000600082015250565b6000614aa360188361356f565b9150614aae82614a6d565b602082019050919050565b60006020820190508181036000830152614ad281614a96565b9050919050565b7f45434453413a20696e76616c6964207369676e6174757265206c656e67746800600082015250565b6000614b0f601f8361356f565b9150614b1a82614ad9565b602082019050919050565b60006020820190508181036000830152614b3e81614b02565b9050919050565b7f45434453413a20696e76616c6964207369676e6174757265202773272076616c60008201527f7565000000000000000000000000000000000000000000000000000000000000602082015250565b6000614ba160228361356f565b9150614bac82614b45565b604082019050919050565b60006020820190508181036000830152614bd081614b94565b9050919050565b7f45434453413a20696e76616c6964207369676e6174757265202776272076616c60008201527f7565000000000000000000000000000000000000000000000000000000000000602082015250565b6000614c3360228361356f565b9150614c3e82614bd7565b604082019050919050565b60006020820190508181036000830152614c6281614c26565b9050919050565b7f4e487b7100000000000000000000000000000000000000000000000000000000600052604160045260246000fd5b60008190508160005260206000209050919050565b60006020601f8301049050919050565b600082821b905092915050565b600060088302614cfa7fffffffffffffffffffffffffffffffffffffffffffffffffffffffffffffffff82614cbd565b614d048683614cbd565b95508019841693508086168417925050509392505050565b6000614d37614d32614d2d8461364b565b6134ea565b61364b565b9050919050565b6000819050919050565b614d5183614d1c565b614d65614d5d82614d3e565b848454614cca565b825550505050565b600090565b614d7a614d6d565b614d85818484614d48565b505050565b5b81811015614da957614d9e600082614d72565b600181019050614d8b565b5050565b601f821115614dee57614dbf81614c98565b614dc884614cad565b81016020851015614dd7578190505b614deb614de385614cad565b830182614d8a565b50505b505050565b600082821c905092915050565b6000614e1160001984600802614df3565b1980831691505092915050565b6000614e2a8383614e00565b9150826002028217905092915050565b614e4382613564565b67ffffffffffffffff811115614e5c57614e5b614c69565b5b614e668254613cb4565b614e71828285614dad565b600060209050601f831160018114614ea45760008415614e92578287015190505b614e9c8582614e1e565b865550614f04565b601f198416614eb286614c98565b60005b82811015614eda57848901518255600182019150602085019450602081019050614eb5565b86831015614ef75784890151614ef3601f891682614e00565b8355505b6001600288020188555050505b505050505050565b7f45524332303a206d696e7420746f20746865207a65726f206164647265737300600082015250565b6000614f42601f8361356f565b9150614f4d82614f0c565b602082019050919050565b60006020820190508181036000830152614f7181614f35565b9050919050565b7f45524332303a206275726e2066726f6d20746865207a65726f2061646472657360008201527f7300000000000000000000000000000000000000000000000000000000000000602082015250565b6000614fd460218361356f565b9150614fdf82614f78565b604082019050919050565b6000602082019050818103600083015261500381614fc7565b9050919050565b7f45524332303a206275726e20616d6f756e7420657863656564732062616c616e60008201527f6365000000000000000000000000000000000000000000000000000000000000602082015250565b600061506660228361356f565b91506150718261500a565b604082019050919050565b6000602082019050818103600083015261509581615059565b9050919050565b7f416464726573733a20696e73756666696369656e742062616c616e636520666f60008201527f722063616c6c0000000000000000000000000000000000000000000000000000602082015250565b60006150f860268361356f565b91506151038261509c565b604082019050919050565b60006020820190508181036000830152615127816150eb565b9050919050565b7f416464726573733a2063616c6c20746f206e6f6e2d636f6e7472616374000000600082015250565b6000615164601d8361356f565b915061516f8261512e565b602082019050919050565b6000602082019050818103600083015261519381615157565b9050919050565b600081519050919050565b600081905092915050565b60006151bb8261519a565b6151c581856151a5565b93506151d5818560208601613580565b80840191505092915050565b60006151ed82846151b0565b915081905092915050565b7f53616665436173743a2076616c756520646f65736e27742066697420696e203260008201527f3234206269747300000000000000000000000000000000000000000000000000602082015250565b600061525460278361356f565b915061525f826151f8565b604082019050919050565b6000602082019050818103600083015261528381615247565b905091905056fea26469706673582212202a6a767916f1f2e54b9b2a7c300ff7930653aa25aa4218465d089912bc1fe40c64736f6c634300080f0033",
  "devdoc": {
    "kind": "dev",
    "methods": {
      "DOMAIN_SEPARATOR()": {
        "details": "See {IERC20Permit-DOMAIN_SEPARATOR}."
      },
      "allowance(address,address)": {
        "details": "See {IERC20-allowance}."
      },
      "approve(address,uint256)": {
        "details": "See {IERC20-approve}. NOTE: If `amount` is the maximum `uint256`, the allowance is not updated on `transferFrom`. This is semantically equivalent to an infinite approval. Requirements: - `spender` cannot be the zero address."
      },
      "balanceOf(address)": {
        "details": "See {IERC20-balanceOf}."
      },
      "burn(uint256)": {
        "details": "Destroys `amount` tokens from the caller. See {ERC20-_burn}."
      },
      "burnFrom(address,uint256)": {
        "details": "Destroys `amount` tokens from `account`, deducting from the caller's allowance. See {ERC20-_burn} and {ERC20-allowance}. Requirements: - the caller must have allowance for ``accounts``'s tokens of at least `amount`."
      },
      "checkpoints(address,uint32)": {
        "details": "Get the `pos`-th checkpoint for `account`."
      },
      "decimals()": {
        "details": "Returns the number of decimals used to get its user representation. For example, if `decimals` equals `2`, a balance of `505` tokens should be displayed to a user as `5.05` (`505 / 10 ** 2`). Tokens usually opt for a value of 18, imitating the relationship between Ether and Wei. This is the value {ERC20} uses, unless this function is overridden; NOTE: This information is only used for _display_ purposes: it in no way affects any of the arithmetic of the contract, including {IERC20-balanceOf} and {IERC20-transfer}."
      },
      "decreaseAllowance(address,uint256)": {
        "details": "Atomically decreases the allowance granted to `spender` by the caller. This is an alternative to {approve} that can be used as a mitigation for problems described in {IERC20-approve}. Emits an {Approval} event indicating the updated allowance. Requirements: - `spender` cannot be the zero address. - `spender` must have allowance for the caller of at least `subtractedValue`."
      },
      "delegate(address)": {
        "details": "Delegate votes from the sender to `delegatee`."
      },
      "delegateBySig(address,uint256,uint256,uint8,bytes32,bytes32)": {
        "details": "Delegates votes from signer to `delegatee`"
      },
      "delegates(address)": {
        "details": "Get the address `account` is currently delegating to."
      },
      "getPastTotalSupply(uint256)": {
        "details": "Retrieve the `totalSupply` at the end of `blockNumber`. Note, this value is the sum of all balances. It is but NOT the sum of all the delegated votes! Requirements: - `blockNumber` must have been already mined"
      },
      "getPastVotes(address,uint256)": {
        "details": "Retrieve the number of votes for `account` at the end of `blockNumber`. Requirements: - `blockNumber` must have been already mined"
      },
      "getVotes(address)": {
        "details": "Gets the current votes balance for `account`"
      },
      "increaseAllowance(address,uint256)": {
        "details": "Atomically increases the allowance granted to `spender` by the caller. This is an alternative to {approve} that can be used as a mitigation for problems described in {IERC20-approve}. Emits an {Approval} event indicating the updated allowance. Requirements: - `spender` cannot be the zero address."
      },
      "name()": {
        "details": "Returns the name of the token."
      },
      "nonces(address)": {
        "details": "See {IERC20Permit-nonces}."
      },
      "numCheckpoints(address)": {
        "details": "Get number of checkpoints for `account`."
      },
      "permit(address,address,uint256,uint256,uint8,bytes32,bytes32)": {
        "details": "See {IERC20Permit-permit}."
      },
      "symbol()": {
        "details": "Returns the symbol of the token, usually a shorter version of the name."
      },
      "totalSupply()": {
        "details": "See {IERC20-totalSupply}."
      },
      "transfer(address,uint256)": {
        "details": "See {IERC20-transfer}. Requirements: - `to` cannot be the zero address. - the caller must have a balance of at least `amount`."
      },
      "transferFrom(address,address,uint256)": {
        "details": "See {IERC20-transferFrom}. Emits an {Approval} event indicating the updated allowance. This is not required by the EIP. See the note at the beginning of {ERC20}. NOTE: Does not update the allowance if the current allowance is the maximum `uint256`. Requirements: - `from` and `to` cannot be the zero address. - `from` must have a balance of at least `amount`. - the caller must have allowance for ``from``'s tokens of at least `amount`."
      }
    },
    "stateVariables": {
      "__gap": {
        "details": "This empty reserved space is put in place to allow future versions to add new variables without shifting down storage in the inheritance chain. See https://docs.openzeppelin.com/contracts/4.x/upgradeable#storage_gaps"
      }
    },
    "title": "Governance token for StableUnit Decentralized Autonomous Organisation",
    "version": 1
  },
  "userdoc": {
    "kind": "user",
    "methods": {
      "rescueTokens(address)": {
        "notice": "The DAO can take away tokens accidentally sent to the contract."
      }
    },
    "version": 1
  },
  "storageLayout": {
    "storage": [
      {
        "astId": 497,
        "contract": "contracts/SuDAO.sol:SuDAO",
        "label": "_initialized",
        "offset": 0,
        "slot": "0",
        "type": "t_uint8"
      },
      {
        "astId": 500,
        "contract": "contracts/SuDAO.sol:SuDAO",
        "label": "_initializing",
        "offset": 1,
        "slot": "0",
        "type": "t_bool"
      },
      {
        "astId": 4310,
        "contract": "contracts/SuDAO.sol:SuDAO",
        "label": "__gap",
        "offset": 0,
        "slot": "1",
        "type": "t_array(t_uint256)50_storage"
      },
      {
        "astId": 660,
        "contract": "contracts/SuDAO.sol:SuDAO",
        "label": "_balances",
        "offset": 0,
        "slot": "51",
        "type": "t_mapping(t_address,t_uint256)"
      },
      {
        "astId": 666,
        "contract": "contracts/SuDAO.sol:SuDAO",
        "label": "_allowances",
        "offset": 0,
        "slot": "52",
        "type": "t_mapping(t_address,t_mapping(t_address,t_uint256))"
      },
      {
        "astId": 668,
        "contract": "contracts/SuDAO.sol:SuDAO",
        "label": "_totalSupply",
        "offset": 0,
        "slot": "53",
        "type": "t_uint256"
      },
      {
        "astId": 670,
        "contract": "contracts/SuDAO.sol:SuDAO",
        "label": "_name",
        "offset": 0,
        "slot": "54",
        "type": "t_string_storage"
      },
      {
        "astId": 672,
        "contract": "contracts/SuDAO.sol:SuDAO",
        "label": "_symbol",
        "offset": 0,
        "slot": "55",
        "type": "t_string_storage"
      },
      {
        "astId": 1251,
        "contract": "contracts/SuDAO.sol:SuDAO",
        "label": "__gap",
        "offset": 0,
        "slot": "56",
        "type": "t_array(t_uint256)45_storage"
      },
      {
        "astId": 5008,
        "contract": "contracts/SuDAO.sol:SuDAO",
        "label": "_HASHED_NAME",
        "offset": 0,
        "slot": "101",
        "type": "t_bytes32"
      },
      {
        "astId": 5010,
        "contract": "contracts/SuDAO.sol:SuDAO",
        "label": "_HASHED_VERSION",
        "offset": 0,
        "slot": "102",
        "type": "t_bytes32"
      },
      {
        "astId": 5148,
        "contract": "contracts/SuDAO.sol:SuDAO",
        "label": "__gap",
        "offset": 0,
        "slot": "103",
        "type": "t_array(t_uint256)50_storage"
      },
      {
        "astId": 2102,
        "contract": "contracts/SuDAO.sol:SuDAO",
        "label": "_nonces",
        "offset": 0,
        "slot": "153",
        "type": "t_mapping(t_address,t_struct(Counter)4317_storage)"
      },
      {
        "astId": 2110,
        "contract": "contracts/SuDAO.sol:SuDAO",
        "label": "_PERMIT_TYPEHASH_DEPRECATED_SLOT",
        "offset": 0,
        "slot": "154",
        "type": "t_bytes32"
      },
      {
        "astId": 2266,
        "contract": "contracts/SuDAO.sol:SuDAO",
        "label": "__gap",
        "offset": 0,
        "slot": "155",
        "type": "t_array(t_uint256)49_storage"
      },
      {
        "astId": 1435,
        "contract": "contracts/SuDAO.sol:SuDAO",
        "label": "_delegates",
        "offset": 0,
        "slot": "204",
        "type": "t_mapping(t_address,t_address)"
      },
      {
        "astId": 1441,
        "contract": "contracts/SuDAO.sol:SuDAO",
        "label": "_checkpoints",
        "offset": 0,
        "slot": "205",
        "type": "t_mapping(t_address,t_array(t_struct(Checkpoint)1426_storage)dyn_storage)"
      },
      {
        "astId": 1445,
        "contract": "contracts/SuDAO.sol:SuDAO",
        "label": "_totalSupplyCheckpoints",
        "offset": 0,
        "slot": "206",
        "type": "t_array(t_struct(Checkpoint)1426_storage)dyn_storage"
      },
      {
        "astId": 2050,
        "contract": "contracts/SuDAO.sol:SuDAO",
        "label": "__gap",
        "offset": 0,
        "slot": "207",
        "type": "t_array(t_uint256)47_storage"
      },
      {
        "astId": 1393,
        "contract": "contracts/SuDAO.sol:SuDAO",
        "label": "__gap",
        "offset": 0,
        "slot": "254",
        "type": "t_array(t_uint256)50_storage"
      },
      {
        "astId": 13374,
        "contract": "contracts/SuDAO.sol:SuDAO",
        "label": "ACCESS_CONTROL_SINGLETON",
        "offset": 0,
        "slot": "304",
        "type": "t_contract(ISuAccessControl)14743"
      },
      {
        "astId": 13461,
        "contract": "contracts/SuDAO.sol:SuDAO",
        "label": "__gap",
        "offset": 0,
        "slot": "305",
        "type": "t_array(t_uint256)49_storage"
      },
      {
        "astId": 13337,
        "contract": "contracts/SuDAO.sol:SuDAO",
        "label": "__gap",
        "offset": 0,
        "slot": "354",
        "type": "t_array(t_uint256)49_storage"
      }
    ],
    "types": {
      "t_address": {
        "encoding": "inplace",
        "label": "address",
        "numberOfBytes": "20"
      },
      "t_array(t_struct(Checkpoint)1426_storage)dyn_storage": {
        "base": "t_struct(Checkpoint)1426_storage",
        "encoding": "dynamic_array",
        "label": "struct ERC20VotesUpgradeable.Checkpoint[]",
        "numberOfBytes": "32"
      },
      "t_array(t_uint256)45_storage": {
        "base": "t_uint256",
        "encoding": "inplace",
        "label": "uint256[45]",
        "numberOfBytes": "1440"
      },
      "t_array(t_uint256)47_storage": {
        "base": "t_uint256",
        "encoding": "inplace",
        "label": "uint256[47]",
        "numberOfBytes": "1504"
      },
      "t_array(t_uint256)49_storage": {
        "base": "t_uint256",
        "encoding": "inplace",
        "label": "uint256[49]",
        "numberOfBytes": "1568"
      },
      "t_array(t_uint256)50_storage": {
        "base": "t_uint256",
        "encoding": "inplace",
        "label": "uint256[50]",
        "numberOfBytes": "1600"
      },
      "t_bool": {
        "encoding": "inplace",
        "label": "bool",
        "numberOfBytes": "1"
      },
      "t_bytes32": {
        "encoding": "inplace",
        "label": "bytes32",
        "numberOfBytes": "32"
      },
      "t_contract(ISuAccessControl)14743": {
        "encoding": "inplace",
        "label": "contract ISuAccessControl",
        "numberOfBytes": "20"
      },
      "t_mapping(t_address,t_address)": {
        "encoding": "mapping",
        "key": "t_address",
        "label": "mapping(address => address)",
        "numberOfBytes": "32",
        "value": "t_address"
      },
      "t_mapping(t_address,t_array(t_struct(Checkpoint)1426_storage)dyn_storage)": {
        "encoding": "mapping",
        "key": "t_address",
        "label": "mapping(address => struct ERC20VotesUpgradeable.Checkpoint[])",
        "numberOfBytes": "32",
        "value": "t_array(t_struct(Checkpoint)1426_storage)dyn_storage"
      },
      "t_mapping(t_address,t_mapping(t_address,t_uint256))": {
        "encoding": "mapping",
        "key": "t_address",
        "label": "mapping(address => mapping(address => uint256))",
        "numberOfBytes": "32",
        "value": "t_mapping(t_address,t_uint256)"
      },
      "t_mapping(t_address,t_struct(Counter)4317_storage)": {
        "encoding": "mapping",
        "key": "t_address",
        "label": "mapping(address => struct CountersUpgradeable.Counter)",
        "numberOfBytes": "32",
        "value": "t_struct(Counter)4317_storage"
      },
      "t_mapping(t_address,t_uint256)": {
        "encoding": "mapping",
        "key": "t_address",
        "label": "mapping(address => uint256)",
        "numberOfBytes": "32",
        "value": "t_uint256"
      },
      "t_string_storage": {
        "encoding": "bytes",
        "label": "string",
        "numberOfBytes": "32"
      },
      "t_struct(Checkpoint)1426_storage": {
        "encoding": "inplace",
        "label": "struct ERC20VotesUpgradeable.Checkpoint",
        "members": [
          {
            "astId": 1423,
            "contract": "contracts/SuDAO.sol:SuDAO",
            "label": "fromBlock",
            "offset": 0,
            "slot": "0",
            "type": "t_uint32"
          },
          {
            "astId": 1425,
            "contract": "contracts/SuDAO.sol:SuDAO",
            "label": "votes",
            "offset": 4,
            "slot": "0",
            "type": "t_uint224"
          }
        ],
        "numberOfBytes": "32"
      },
      "t_struct(Counter)4317_storage": {
        "encoding": "inplace",
        "label": "struct CountersUpgradeable.Counter",
        "members": [
          {
            "astId": 4316,
            "contract": "contracts/SuDAO.sol:SuDAO",
            "label": "_value",
            "offset": 0,
            "slot": "0",
            "type": "t_uint256"
          }
        ],
        "numberOfBytes": "32"
      },
      "t_uint224": {
        "encoding": "inplace",
        "label": "uint224",
        "numberOfBytes": "28"
      },
      "t_uint256": {
        "encoding": "inplace",
        "label": "uint256",
        "numberOfBytes": "32"
      },
      "t_uint32": {
        "encoding": "inplace",
        "label": "uint32",
        "numberOfBytes": "4"
      },
      "t_uint8": {
        "encoding": "inplace",
        "label": "uint8",
        "numberOfBytes": "1"
      }
    }
  }
}