{
  "address": "0x209d23AED76d91bE8E238A8dB349c8De9F59067C",
  "abi": [
    {
      "inputs": [
        {
          "internalType": "address",
          "name": "_accessControlSingleton",
          "type": "address"
        }
      ],
      "stateMutability": "nonpayable",
      "type": "constructor"
    },
    {
      "inputs": [],
      "name": "InvalidShortString",
      "type": "error"
    },
    {
      "inputs": [],
      "name": "MaxSupplyExceeded",
      "type": "error"
    },
    {
      "inputs": [
        {
          "internalType": "bytes32",
          "name": "role",
          "type": "bytes32"
        },
        {
          "internalType": "address",
          "name": "msgSender",
          "type": "address"
        }
      ],
      "name": "OnlyRoleError",
      "type": "error"
    },
    {
      "inputs": [
        {
          "internalType": "string",
          "name": "str",
          "type": "string"
        }
      ],
      "name": "StringTooLong",
      "type": "error"
    },
    {
      "anonymous": false,
      "inputs": [
        {
          "indexed": true,
          "internalType": "address",
          "name": "owner",
          "type": "address"
        },
        {
          "indexed": true,
          "internalType": "address",
          "name": "spender",
          "type": "address"
        },
        {
          "indexed": false,
          "internalType": "uint256",
          "name": "value",
          "type": "uint256"
        }
      ],
      "name": "Approval",
      "type": "event"
    },
    {
      "anonymous": false,
      "inputs": [
        {
          "indexed": true,
          "internalType": "address",
          "name": "delegator",
          "type": "address"
        },
        {
          "indexed": true,
          "internalType": "address",
          "name": "fromDelegate",
          "type": "address"
        },
        {
          "indexed": true,
          "internalType": "address",
          "name": "toDelegate",
          "type": "address"
        }
      ],
      "name": "DelegateChanged",
      "type": "event"
    },
    {
      "anonymous": false,
      "inputs": [
        {
          "indexed": true,
          "internalType": "address",
          "name": "delegate",
          "type": "address"
        },
        {
          "indexed": false,
          "internalType": "uint256",
          "name": "previousBalance",
          "type": "uint256"
        },
        {
          "indexed": false,
          "internalType": "uint256",
          "name": "newBalance",
          "type": "uint256"
        }
      ],
      "name": "DelegateVotesChanged",
      "type": "event"
    },
    {
      "anonymous": false,
      "inputs": [],
      "name": "EIP712DomainChanged",
      "type": "event"
    },
    {
      "anonymous": false,
      "inputs": [
        {
          "indexed": true,
          "internalType": "address",
          "name": "from",
          "type": "address"
        },
        {
          "indexed": true,
          "internalType": "address",
          "name": "to",
          "type": "address"
        },
        {
          "indexed": false,
          "internalType": "uint256",
          "name": "value",
          "type": "uint256"
        }
      ],
      "name": "Transfer",
      "type": "event"
    },
    {
      "inputs": [],
      "name": "ACCESS_CONTROL_SINGLETON",
      "outputs": [
        {
          "internalType": "contract ISuAccessControl",
          "name": "",
          "type": "address"
        }
      ],
      "stateMutability": "view",
      "type": "function"
    },
    {
      "inputs": [],
      "name": "ADMIN_ROLE",
      "outputs": [
        {
          "internalType": "bytes32",
          "name": "",
          "type": "bytes32"
        }
      ],
      "stateMutability": "view",
      "type": "function"
    },
    {
      "inputs": [],
      "name": "CLOCK_MODE",
      "outputs": [
        {
          "internalType": "string",
          "name": "",
          "type": "string"
        }
      ],
      "stateMutability": "view",
      "type": "function"
    },
    {
      "inputs": [],
      "name": "DAO_ROLE",
      "outputs": [
        {
          "internalType": "bytes32",
          "name": "",
          "type": "bytes32"
        }
      ],
      "stateMutability": "view",
      "type": "function"
    },
    {
      "inputs": [],
      "name": "DEFAULT_ADMIN_ROLE",
      "outputs": [
        {
          "internalType": "bytes32",
          "name": "",
          "type": "bytes32"
        }
      ],
      "stateMutability": "view",
      "type": "function"
    },
    {
      "inputs": [],
      "name": "DEPLOY_TIME",
      "outputs": [
        {
          "internalType": "uint32",
          "name": "",
          "type": "uint32"
        }
      ],
      "stateMutability": "view",
      "type": "function"
    },
    {
      "inputs": [],
      "name": "DOMAIN_SEPARATOR",
      "outputs": [
        {
          "internalType": "bytes32",
          "name": "",
          "type": "bytes32"
        }
      ],
      "stateMutability": "view",
      "type": "function"
    },
    {
      "inputs": [],
      "name": "MAX_POST_VESTING_INFLATION",
      "outputs": [
        {
          "internalType": "uint256",
          "name": "",
          "type": "uint256"
        }
      ],
      "stateMutability": "view",
      "type": "function"
    },
    {
      "inputs": [],
      "name": "MAX_SUPPLY",
      "outputs": [
        {
          "internalType": "uint256",
          "name": "",
          "type": "uint256"
        }
      ],
      "stateMutability": "view",
      "type": "function"
    },
    {
      "inputs": [],
      "name": "MIN_FULLY_DILUTED_VESTING",
      "outputs": [
        {
          "internalType": "uint32",
          "name": "",
          "type": "uint32"
        }
      ],
      "stateMutability": "view",
      "type": "function"
    },
    {
      "inputs": [],
      "name": "SYSTEM_ROLE",
      "outputs": [
        {
          "internalType": "bytes32",
          "name": "",
          "type": "bytes32"
        }
      ],
      "stateMutability": "view",
      "type": "function"
    },
    {
      "inputs": [
        {
          "internalType": "address",
          "name": "owner",
          "type": "address"
        },
        {
          "internalType": "address",
          "name": "spender",
          "type": "address"
        }
      ],
      "name": "allowance",
      "outputs": [
        {
          "internalType": "uint256",
          "name": "",
          "type": "uint256"
        }
      ],
      "stateMutability": "view",
      "type": "function"
    },
    {
      "inputs": [
        {
          "internalType": "address",
          "name": "spender",
          "type": "address"
        },
        {
          "internalType": "uint256",
          "name": "amount",
          "type": "uint256"
        }
      ],
      "name": "approve",
      "outputs": [
        {
          "internalType": "bool",
          "name": "",
          "type": "bool"
        }
      ],
      "stateMutability": "nonpayable",
      "type": "function"
    },
    {
      "inputs": [
        {
          "internalType": "address",
          "name": "account",
          "type": "address"
        }
      ],
      "name": "balanceOf",
      "outputs": [
        {
          "internalType": "uint256",
          "name": "",
          "type": "uint256"
        }
      ],
      "stateMutability": "view",
      "type": "function"
    },
    {
      "inputs": [
        {
          "internalType": "uint256",
          "name": "amount",
          "type": "uint256"
        }
      ],
      "name": "burn",
      "outputs": [],
      "stateMutability": "nonpayable",
      "type": "function"
    },
    {
      "inputs": [
        {
          "internalType": "address",
          "name": "account",
          "type": "address"
        },
        {
          "internalType": "uint256",
          "name": "amount",
          "type": "uint256"
        }
      ],
      "name": "burnFrom",
      "outputs": [],
      "stateMutability": "nonpayable",
      "type": "function"
    },
    {
      "inputs": [
        {
          "internalType": "address",
          "name": "account",
          "type": "address"
        },
        {
          "internalType": "uint32",
          "name": "pos",
          "type": "uint32"
        }
      ],
      "name": "checkpoints",
      "outputs": [
        {
          "components": [
            {
              "internalType": "uint32",
              "name": "fromBlock",
              "type": "uint32"
            },
            {
              "internalType": "uint224",
              "name": "votes",
              "type": "uint224"
            }
          ],
          "internalType": "struct ERC20Votes.Checkpoint",
          "name": "",
          "type": "tuple"
        }
      ],
      "stateMutability": "view",
      "type": "function"
    },
    {
      "inputs": [],
      "name": "clock",
      "outputs": [
        {
          "internalType": "uint48",
          "name": "",
          "type": "uint48"
        }
      ],
      "stateMutability": "view",
      "type": "function"
    },
    {
      "inputs": [],
      "name": "decimals",
      "outputs": [
        {
          "internalType": "uint8",
          "name": "",
          "type": "uint8"
        }
      ],
      "stateMutability": "view",
      "type": "function"
    },
    {
      "inputs": [
        {
          "internalType": "address",
          "name": "spender",
          "type": "address"
        },
        {
          "internalType": "uint256",
          "name": "subtractedValue",
          "type": "uint256"
        }
      ],
      "name": "decreaseAllowance",
      "outputs": [
        {
          "internalType": "bool",
          "name": "",
          "type": "bool"
        }
      ],
      "stateMutability": "nonpayable",
      "type": "function"
    },
    {
      "inputs": [
        {
          "internalType": "address",
          "name": "delegatee",
          "type": "address"
        }
      ],
      "name": "delegate",
      "outputs": [],
      "stateMutability": "nonpayable",
      "type": "function"
    },
    {
      "inputs": [
        {
          "internalType": "address",
          "name": "delegatee",
          "type": "address"
        },
        {
          "internalType": "uint256",
          "name": "nonce",
          "type": "uint256"
        },
        {
          "internalType": "uint256",
          "name": "expiry",
          "type": "uint256"
        },
        {
          "internalType": "uint8",
          "name": "v",
          "type": "uint8"
        },
        {
          "internalType": "bytes32",
          "name": "r",
          "type": "bytes32"
        },
        {
          "internalType": "bytes32",
          "name": "s",
          "type": "bytes32"
        }
      ],
      "name": "delegateBySig",
      "outputs": [],
      "stateMutability": "nonpayable",
      "type": "function"
    },
    {
      "inputs": [
        {
          "internalType": "address",
          "name": "account",
          "type": "address"
        }
      ],
      "name": "delegates",
      "outputs": [
        {
          "internalType": "address",
          "name": "",
          "type": "address"
        }
      ],
      "stateMutability": "view",
      "type": "function"
    },
    {
      "inputs": [],
      "name": "eip712Domain",
      "outputs": [
        {
          "internalType": "bytes1",
          "name": "fields",
          "type": "bytes1"
        },
        {
          "internalType": "string",
          "name": "name",
          "type": "string"
        },
        {
          "internalType": "string",
          "name": "version",
          "type": "string"
        },
        {
          "internalType": "uint256",
          "name": "chainId",
          "type": "uint256"
        },
        {
          "internalType": "address",
          "name": "verifyingContract",
          "type": "address"
        },
        {
          "internalType": "bytes32",
          "name": "salt",
          "type": "bytes32"
        },
        {
          "internalType": "uint256[]",
          "name": "extensions",
          "type": "uint256[]"
        }
      ],
      "stateMutability": "view",
      "type": "function"
    },
    {
      "inputs": [
        {
          "internalType": "uint256",
          "name": "timepoint",
          "type": "uint256"
        }
      ],
      "name": "getPastTotalSupply",
      "outputs": [
        {
          "internalType": "uint256",
          "name": "",
          "type": "uint256"
        }
      ],
      "stateMutability": "view",
      "type": "function"
    },
    {
      "inputs": [
        {
          "internalType": "address",
          "name": "account",
          "type": "address"
        },
        {
          "internalType": "uint256",
          "name": "timepoint",
          "type": "uint256"
        }
      ],
      "name": "getPastVotes",
      "outputs": [
        {
          "internalType": "uint256",
          "name": "",
          "type": "uint256"
        }
      ],
      "stateMutability": "view",
      "type": "function"
    },
    {
      "inputs": [
        {
          "internalType": "bytes32",
          "name": "role",
          "type": "bytes32"
        }
      ],
      "name": "getRoleAdmin",
      "outputs": [
        {
          "internalType": "bytes32",
          "name": "",
          "type": "bytes32"
        }
      ],
      "stateMutability": "view",
      "type": "function"
    },
    {
      "inputs": [
        {
          "internalType": "address",
          "name": "account",
          "type": "address"
        }
      ],
      "name": "getVotes",
      "outputs": [
        {
          "internalType": "uint256",
          "name": "",
          "type": "uint256"
        }
      ],
      "stateMutability": "view",
      "type": "function"
    },
    {
      "inputs": [
        {
          "internalType": "bytes32",
          "name": "role",
          "type": "bytes32"
        },
        {
          "internalType": "address",
          "name": "account",
          "type": "address"
        }
      ],
      "name": "hasRole",
      "outputs": [
        {
          "internalType": "bool",
          "name": "",
          "type": "bool"
        }
      ],
      "stateMutability": "view",
      "type": "function"
    },
    {
      "inputs": [
        {
          "internalType": "address",
          "name": "spender",
          "type": "address"
        },
        {
          "internalType": "uint256",
          "name": "addedValue",
          "type": "uint256"
        }
      ],
      "name": "increaseAllowance",
      "outputs": [
        {
          "internalType": "bool",
          "name": "",
          "type": "bool"
        }
      ],
      "stateMutability": "nonpayable",
      "type": "function"
    },
    {
      "inputs": [
        {
          "internalType": "address",
          "name": "account",
          "type": "address"
        },
        {
          "internalType": "uint256",
          "name": "amount",
          "type": "uint256"
        }
      ],
      "name": "mint",
      "outputs": [],
      "stateMutability": "nonpayable",
      "type": "function"
    },
    {
      "inputs": [],
      "name": "name",
      "outputs": [
        {
          "internalType": "string",
          "name": "",
          "type": "string"
        }
      ],
      "stateMutability": "view",
      "type": "function"
    },
    {
      "inputs": [
        {
          "internalType": "address",
          "name": "owner",
          "type": "address"
        }
      ],
      "name": "nonces",
      "outputs": [
        {
          "internalType": "uint256",
          "name": "",
          "type": "uint256"
        }
      ],
      "stateMutability": "view",
      "type": "function"
    },
    {
      "inputs": [
        {
          "internalType": "address",
          "name": "account",
          "type": "address"
        }
      ],
      "name": "numCheckpoints",
      "outputs": [
        {
          "internalType": "uint32",
          "name": "",
          "type": "uint32"
        }
      ],
      "stateMutability": "view",
      "type": "function"
    },
    {
      "inputs": [
        {
          "internalType": "address",
          "name": "owner",
          "type": "address"
        },
        {
          "internalType": "address",
          "name": "spender",
          "type": "address"
        },
        {
          "internalType": "uint256",
          "name": "value",
          "type": "uint256"
        },
        {
          "internalType": "uint256",
          "name": "deadline",
          "type": "uint256"
        },
        {
          "internalType": "uint8",
          "name": "v",
          "type": "uint8"
        },
        {
          "internalType": "bytes32",
          "name": "r",
          "type": "bytes32"
        },
        {
          "internalType": "bytes32",
          "name": "s",
          "type": "bytes32"
        }
      ],
      "name": "permit",
      "outputs": [],
      "stateMutability": "nonpayable",
      "type": "function"
    },
    {
      "inputs": [
        {
          "internalType": "contract ERC20",
          "name": "token",
          "type": "address"
        }
      ],
      "name": "rescueTokens",
      "outputs": [],
      "stateMutability": "nonpayable",
      "type": "function"
    },
    {
      "inputs": [
        {
          "internalType": "bytes4",
          "name": "interfaceId",
          "type": "bytes4"
        }
      ],
      "name": "supportsInterface",
      "outputs": [
        {
          "internalType": "bool",
          "name": "",
          "type": "bool"
        }
      ],
      "stateMutability": "view",
      "type": "function"
    },
    {
      "inputs": [],
      "name": "symbol",
      "outputs": [
        {
          "internalType": "string",
          "name": "",
          "type": "string"
        }
      ],
      "stateMutability": "view",
      "type": "function"
    },
    {
      "inputs": [],
      "name": "totalSupply",
      "outputs": [
        {
          "internalType": "uint256",
          "name": "",
          "type": "uint256"
        }
      ],
      "stateMutability": "view",
      "type": "function"
    },
    {
      "inputs": [
        {
          "internalType": "address",
          "name": "to",
          "type": "address"
        },
        {
          "internalType": "uint256",
          "name": "amount",
          "type": "uint256"
        }
      ],
      "name": "transfer",
      "outputs": [
        {
          "internalType": "bool",
          "name": "",
          "type": "bool"
        }
      ],
      "stateMutability": "nonpayable",
      "type": "function"
    },
    {
      "inputs": [
        {
          "internalType": "address",
          "name": "from",
          "type": "address"
        },
        {
          "internalType": "address",
          "name": "to",
          "type": "address"
        },
        {
          "internalType": "uint256",
          "name": "amount",
          "type": "uint256"
        }
      ],
      "name": "transferFrom",
      "outputs": [
        {
          "internalType": "bool",
          "name": "",
          "type": "bool"
        }
      ],
      "stateMutability": "nonpayable",
      "type": "function"
    },
    {
      "stateMutability": "payable",
      "type": "receive"
    }
  ],
  "transactionHash": "0xc1c71aa9bd81dd6b848da4e15bba650e4ade8ff2903dfced17c7daa22a2d5f24",
  "args": [
    "0xD85F0faeb7C0e7e03abB5BC3Dc147eF870160747"
  ],
  "numDeployments": 2,
  "solcInputHash": "d773e9a5bddc4ec9c0311e536215e947",
  "bytecode": "0x6101606040523480156200001257600080fd5b50604051620032c4380380620032c4833981016040819052620000359162000291565b806040518060400160405280601181526020017029ba30b13632aab734ba102220a7903b1960791b81525080604051806040016040528060018152602001603160f81b8152506040518060400160405280601181526020017029ba30b13632aab734ba102220a7903b1960791b81525060405180604001604052806005815260200164537544414f60d81b8152508160039081620000d4919062000368565b506004620000e3828262000368565b50505062000101600583620001f260201b620012381790919060201c565b610120526200011e816006620001f2602090811b6200123817901c565b61014052815160208084019190912060e052815190820120610100524660a052620001ac60e05161010051604080517f8b73c3c69bb8fe3d512ecc4cf759cc79239f7b179b0ffacaa9a75d522b39400f60208201529081019290925260608201524660808201523060a082015260009060c00160405160208183030381529060405280519060200120905090565b60805250503060c05250600c80546001600160a01b0319166001600160a01b039290921691909117905550603e805463ffffffff19164263ffffffff16179055620004b1565b600060208351101562000212576200020a8362000242565b90506200023c565b8262000229836200028e60201b620012691760201c565b9062000236908262000368565b5060ff90505b92915050565b600080829050601f8151111562000279578260405163305a27a960e01b815260040162000270919062000434565b60405180910390fd5b805162000286826200048c565b179392505050565b90565b600060208284031215620002a457600080fd5b81516001600160a01b0381168114620002bc57600080fd5b9392505050565b634e487b7160e01b600052604160045260246000fd5b600181811c90821680620002ee57607f821691505b6020821081036200030f57634e487b7160e01b600052602260045260246000fd5b50919050565b601f8211156200036357600081815260208120601f850160051c810160208610156200033e5750805b601f850160051c820191505b818110156200035f578281556001016200034a565b5050505b505050565b81516001600160401b03811115620003845762000384620002c3565b6200039c81620003958454620002d9565b8462000315565b602080601f831160018114620003d45760008415620003bb5750858301515b600019600386901b1c1916600185901b1785556200035f565b600085815260208120601f198616915b828110156200040557888601518255948401946001909101908401620003e4565b5085821015620004245787850151600019600388901b60f8161c191681555b5050505050600190811b01905550565b600060208083528351808285015260005b81811015620004635785810183015185820160400152820162000445565b8181111562000476576000604083870101525b50601f01601f1916929092016040019392505050565b805160208083015191908110156200030f5760001960209190910360031b1b16919050565b60805160a05160c05160e051610100516101205161014051612db86200050c6000396000610cd101526000610ca6015260006116ce015260006116a6015260006116010152600061162b015260006116550152612db86000f3fe6080604052600436106101d95760003560e01c8062ae3bf8146101e557806301ffc9a71461020757806303ee9f221461023c57806306fdde0314610269578063095ea7b31461028b57806314626b9d146102ab57806318160ddd146102d857806323b872dd146102ed578063248a9ca31461030d578063313ce5671461032d57806332cb6b0c146103495780633644e51514610368578063395093511461037d5780633a46b1a81461039d57806340c10f19146103bd57806342966c68146103dd5780634bf5d7e9146103fd578063587cde1e146104125780635c19a95c14610432578063671f7ae2146104525780636fcfff451461047f57806370a082311461049f57806375071d2a146104bf57806375b238fc146104f357806379cc6790146105275780637ecebe001461054757806384b0196e146105675780638e539e8c1461058f57806390d92e76146105af57806391d14854146105cc57806391ddadf4146105ec57806395d89b41146106185780639ab24eb01461062d578063a217fddf1461064d578063a457c2d714610662578063a9059cbb14610682578063c3cda520146106a2578063d505accf146106c2578063dd62ed3e146106e2578063e9c265181461064d578063f1127ed81461070257600080fd5b366101e057005b600080fd5b3480156101f157600080fd5b50610205610200366004612703565b61074c565b005b34801561021357600080fd5b50610227610222366004612720565b610847565b60405190151581526020015b60405180910390f35b34801561024857600080fd5b50600c5461025c906001600160a01b031681565b604051610233919061274a565b34801561027557600080fd5b5061027e6108c4565b60405161023391906127b6565b34801561029757600080fd5b506102276102a63660046127c9565b610956565b3480156102b757600080fd5b506102ca676765c793fa10079d601a1b81565b604051908152602001610233565b3480156102e457600080fd5b506002546102ca565b3480156102f957600080fd5b506102276103083660046127f5565b61096e565b34801561031957600080fd5b506102ca610328366004612836565b610992565b34801561033957600080fd5b5060405160128152602001610233565b34801561035557600080fd5b506102ca6714adf4b7320334b9601e1b81565b34801561037457600080fd5b506102ca610a00565b34801561038957600080fd5b506102276103983660046127c9565b610a0f565b3480156103a957600080fd5b506102ca6103b83660046127c9565b610a31565b3480156103c957600080fd5b506102056103d83660046127c9565b610a8a565b3480156103e957600080fd5b506102056103f8366004612836565b610b5b565b34801561040957600080fd5b5061027e610b68565b34801561041e57600080fd5b5061025c61042d366004612703565b610c00565b34801561043e57600080fd5b5061020561044d366004612703565b610c1e565b34801561045e57600080fd5b5061046a630784ce0081565b60405163ffffffff9091168152602001610233565b34801561048b57600080fd5b5061046a61049a366004612703565b610c28565b3480156104ab57600080fd5b506102ca6104ba366004612703565b610c4a565b3480156104cb57600080fd5b506102ca7f5719df9ef2c4678b547f89e4f5ae410dbf400fc51cf3ded434c55f6adea2c43f81565b3480156104ff57600080fd5b506102ca7fa49807205ce4d355092ef5a8a18f56e8913cf4a201fbe287825b095693c2177581565b34801561053357600080fd5b506102056105423660046127c9565b610c65565b34801561055357600080fd5b506102ca610562366004612703565b610c7a565b34801561057357600080fd5b5061057c610c98565b604051610233979695949392919061284f565b34801561059b57600080fd5b506102ca6105aa366004612836565b610d21565b3480156105bb57600080fd5b50603e5461046a9063ffffffff1681565b3480156105d857600080fd5b506102276105e73660046128e5565b610d5c565b3480156105f857600080fd5b50610601610dd0565b60405165ffffffffffff9091168152602001610233565b34801561062457600080fd5b5061027e610ddb565b34801561063957600080fd5b506102ca610648366004612703565b610dea565b34801561065957600080fd5b506102ca600081565b34801561066e57600080fd5b5061022761067d3660046127c9565b610e6b565b34801561068e57600080fd5b5061022761069d3660046127c9565b610ee6565b3480156106ae57600080fd5b506102056106bd36600461292b565b610ef4565b3480156106ce57600080fd5b506102056106dd366004612985565b611026565b3480156106ee57600080fd5b506102ca6106fd3660046129f3565b61118a565b34801561070e57600080fd5b5061072261071d366004612a21565b6111b5565b60408051825163ffffffff1681526020928301516001600160e01b03169281019290925201610233565b60006107588133610d5c565b6107825780336040516337c2e34360e01b8152600401610779929190612a58565b60405180910390fd5b6001600160a01b0382166107c15760405133904780156108fc02916000818181858888f193505050501580156107bc573d6000803e3d6000fd5b505050565b61084333836001600160a01b03166370a08231306040518263ffffffff1660e01b81526004016107f1919061274a565b602060405180830381865afa15801561080e573d6000803e3d6000fd5b505050506040513d601f19601f820116820180604052508101906108329190612a6f565b6001600160a01b038516919061126c565b5050565b600c546040516301ffc9a760e01b81526001600160e01b0319831660048201526000916001600160a01b0316906301ffc9a790602401602060405180830381865afa15801561089a573d6000803e3d6000fd5b505050506040513d601f19601f820116820180604052508101906108be9190612a88565b92915050565b6060600380546108d390612aaa565b80601f01602080910402602001604051908101604052809291908181526020018280546108ff90612aaa565b801561094c5780601f106109215761010080835404028352916020019161094c565b820191906000526020600020905b81548152906001019060200180831161092f57829003601f168201915b5050505050905090565b6000336109648185856112be565b5060019392505050565b60003361097c8582856113e2565b61098785858561145c565b506001949350505050565b600c5460405163248a9ca360e01b8152600481018390526000916001600160a01b03169063248a9ca390602401602060405180830381865afa1580156109dc573d6000803e3d6000fd5b505050506040513d601f19601f820116820180604052508101906108be9190612a6f565b6000610a0a6115f4565b905090565b600033610964818585610a22838361118a565b610a2c9190612af4565b6112be565b6000610a3b610dd0565b65ffffffffffff168210610a615760405162461bcd60e51b815260040161077990612b0c565b6001600160a01b0383166000908152600a60205260409020610a83908361171f565b9392505050565b6000610a968133610d5c565b610ab75780336040516337c2e34360e01b8152600401610779929190612a58565b603e54600090610acd9063ffffffff1642612b3f565b90506000630784ce0063ffffffff831610610b0757610b02676765c793fa10079d601a1b6714adf4b7320334b9601e1b612af4565b610b14565b6714adf4b7320334b9601e1b5b90508084610b2160025490565b610b2b9190612af4565b1115610b4a57604051638a164f6360e01b815260040160405180910390fd5b610b5485856117ff565b5050505050565b610b653382611809565b50565b606043610b73610dd0565b65ffffffffffff1614610bc85760405162461bcd60e51b815260206004820152601d60248201527f4552433230566f7465733a2062726f6b656e20636c6f636b206d6f64650000006044820152606401610779565b5060408051808201909152601d81527f6d6f64653d626c6f636b6e756d6265722666726f6d3d64656661756c74000000602082015290565b6001600160a01b039081166000908152600960205260409020541690565b610b653382611813565b6001600160a01b0381166000908152600a60205260408120546108be90611893565b6001600160a01b031660009081526020819052604090205490565b610c708233836113e2565b6108438282611809565b6001600160a01b0381166000908152600760205260408120546108be565b600060608082808083610ccc7f000000000000000000000000000000000000000000000000000000000000000060056118fc565b610cf77f000000000000000000000000000000000000000000000000000000000000000060066118fc565b60408051600080825260208201909252600f60f81b9b939a50919850469750309650945092509050565b6000610d2b610dd0565b65ffffffffffff168210610d515760405162461bcd60e51b815260040161077990612b0c565b6108be600b8361171f565b600c54604051632474521560e21b81526000916001600160a01b0316906391d1485490610d8f9086908690600401612a58565b602060405180830381865afa158015610dac573d6000803e3d6000fd5b505050506040513d601f19601f82011682018060405250810190610a839190612a88565b6000610a0a436119a0565b6060600480546108d390612aaa565b6001600160a01b0381166000908152600a60205260408120548015610e58576001600160a01b0383166000908152600a6020526040902080546000198301908110610e3757610e37612b7a565b600091825260209091200154600160201b90046001600160e01b0316610e5b565b60005b6001600160e01b03169392505050565b60003381610e79828661118a565b905083811015610ed95760405162461bcd60e51b815260206004820152602560248201527f45524332303a2064656372656173656420616c6c6f77616e63652062656c6f77604482015264207a65726f60d81b6064820152608401610779565b61098782868684036112be565b60003361096481858561145c565b83421115610f445760405162461bcd60e51b815260206004820152601d60248201527f4552433230566f7465733a207369676e617475726520657870697265640000006044820152606401610779565b604080517fe48329057bfd03d55e49b547132e39cffd9c1820ad7b9d4c5307691425d15adf60208201526001600160a01b038816918101919091526060810186905260808101859052600090610fbe90610fb69060a00160405160208183030381529060405280519060200120611a07565b858585611a34565b9050610fc981611a5e565b86146110135760405162461bcd60e51b81526020600482015260196024820152784552433230566f7465733a20696e76616c6964206e6f6e636560381b6044820152606401610779565b61101d8188611813565b50505050505050565b834211156110765760405162461bcd60e51b815260206004820152601d60248201527f45524332305065726d69743a206578706972656420646561646c696e650000006044820152606401610779565b60007f6e71edae12b1b97f4d1f60370fef10105fa2faae0126114a169c64845d6126c98888886110a58c611a5e565b6040805160208101969096526001600160a01b0394851690860152929091166060840152608083015260a082015260c0810186905260e001604051602081830303815290604052805190602001209050600061110082611a07565b9050600061111082878787611a34565b9050896001600160a01b0316816001600160a01b0316146111735760405162461bcd60e51b815260206004820152601e60248201527f45524332305065726d69743a20696e76616c6964207369676e617475726500006044820152606401610779565b61117e8a8a8a6112be565b50505050505050505050565b6001600160a01b03918216600090815260016020908152604080832093909416825291909152205490565b60408051808201909152600080825260208201526001600160a01b0383166000908152600a60205260409020805463ffffffff84169081106111f9576111f9612b7a565b60009182526020918290206040805180820190915291015463ffffffff81168252600160201b90046001600160e01b0316918101919091529392505050565b60006020835110156112545761124d83611a86565b90506108be565b8161125f8482612bde565b5060ff90506108be565b90565b604080516001600160a01b038416602482015260448082018490528251808303909101815260649091019091526020810180516001600160e01b031663a9059cbb60e01b1790526107bc908490611ac4565b6001600160a01b0383166113205760405162461bcd60e51b8152602060048201526024808201527f45524332303a20617070726f76652066726f6d20746865207a65726f206164646044820152637265737360e01b6064820152608401610779565b6001600160a01b0382166113815760405162461bcd60e51b815260206004820152602260248201527f45524332303a20617070726f766520746f20746865207a65726f206164647265604482015261737360f01b6064820152608401610779565b6001600160a01b0383811660008181526001602090815260408083209487168084529482529182902085905590518481527f8c5be1e5ebec7d5bd14f71427d1e84f3dd0314c0f7b2291e5b200ac8c7c3b925910160405180910390a3505050565b60006113ee848461118a565b9050600019811461145657818110156114495760405162461bcd60e51b815260206004820152601d60248201527f45524332303a20696e73756666696369656e7420616c6c6f77616e63650000006044820152606401610779565b61145684848484036112be565b50505050565b6001600160a01b0383166114c05760405162461bcd60e51b815260206004820152602560248201527f45524332303a207472616e736665722066726f6d20746865207a65726f206164604482015264647265737360d81b6064820152608401610779565b6001600160a01b0382166115225760405162461bcd60e51b815260206004820152602360248201527f45524332303a207472616e7366657220746f20746865207a65726f206164647260448201526265737360e81b6064820152608401610779565b6001600160a01b0383166000908152602081905260409020548181101561159a5760405162461bcd60e51b815260206004820152602660248201527f45524332303a207472616e7366657220616d6f756e7420657863656564732062604482015265616c616e636560d01b6064820152608401610779565b6001600160a01b0384811660008181526020818152604080832087870390559387168083529184902080548701905592518581529092600080516020612d43833981519152910160405180910390a3611456848484611b99565b6000306001600160a01b037f00000000000000000000000000000000000000000000000000000000000000001614801561164d57507f000000000000000000000000000000000000000000000000000000000000000046145b1561167757507f000000000000000000000000000000000000000000000000000000000000000090565b610a0a604080517f8b73c3c69bb8fe3d512ecc4cf759cc79239f7b179b0ffacaa9a75d522b39400f60208201527f0000000000000000000000000000000000000000000000000000000000000000918101919091527f000000000000000000000000000000000000000000000000000000000000000060608201524660808201523060a082015260009060c00160405160208183030381529060405280519060200120905090565b81546000908181600581111561177657600061173a84611ba4565b6117449085612c9d565b9050856117518883611c8c565b5463ffffffff16111561176657809150611774565b611771816001612af4565b92505b505b808210156117c057600061178a8383611c9a565b9050856117978883611c8c565b5463ffffffff1611156117ac578091506117ba565b6117b7816001612af4565b92505b50611776565b80156117e9576117d38660018303611c8c565b54600160201b90046001600160e01b03166117ec565b60005b6001600160e01b03169695505050505050565b6108438282611cb5565b6108438282611d3f565b600061181e83610c00565b9050600061182b84610c4a565b6001600160a01b0385811660008181526009602052604080822080546001600160a01b031916898616908117909155905194955093928616927f3134e8a2e6d97e929a7e54011ea5485d7d196dd5f0ba4d4ef95803e8e3fc257f9190a4611456828483611d57565b600063ffffffff8211156118f85760405162461bcd60e51b815260206004820152602660248201527f53616665436173743a2076616c756520646f65736e27742066697420696e203360448201526532206269747360d01b6064820152608401610779565b5090565b606060ff831461190f5761124d83611e70565b81805461191b90612aaa565b80601f016020809104026020016040519081016040528092919081815260200182805461194790612aaa565b80156119945780601f1061196957610100808354040283529160200191611994565b820191906000526020600020905b81548152906001019060200180831161197757829003601f168201915b505050505090506108be565b600065ffffffffffff8211156118f85760405162461bcd60e51b815260206004820152602660248201527f53616665436173743a2076616c756520646f65736e27742066697420696e203460448201526538206269747360d01b6064820152608401610779565b60006108be611a146115f4565b8360405161190160f01b8152600281019290925260228201526042902090565b6000806000611a4587878787611eaf565b91509150611a5281611f69565b5090505b949350505050565b6001600160a01b03811660009081526007602052604090208054600181018255905b50919050565b600080829050601f81511115611ab1578260405163305a27a960e01b815260040161077991906127b6565b8051611abc82612cb4565b179392505050565b6000611b19826040518060400160405280602081526020017f5361666545524332303a206c6f772d6c6576656c2063616c6c206661696c6564815250856001600160a01b03166120ae9092919063ffffffff16565b9050805160001480611b3a575080806020019051810190611b3a9190612a88565b6107bc5760405162461bcd60e51b815260206004820152602a60248201527f5361666545524332303a204552433230206f7065726174696f6e20646964206e6044820152691bdd081cdd58d8d9595960b21b6064820152608401610779565b6107bc8383836120bd565b600081600003611bb657506000919050565b60006001611bc3846120d8565b901c6001901b90506001818481611bdc57611bdc612cd8565b048201901c90506001818481611bf457611bf4612cd8565b048201901c90506001818481611c0c57611c0c612cd8565b048201901c90506001818481611c2457611c24612cd8565b048201901c90506001818481611c3c57611c3c612cd8565b048201901c90506001818481611c5457611c54612cd8565b048201901c90506001818481611c6c57611c6c612cd8565b048201901c9050610a8381828581611c8657611c86612cd8565b0461216c565b600091825260209091200190565b6000611ca96002848418612cee565b610a8390848416612af4565b611cbf8282612182565b6002546001600160e01b031015611d315760405162461bcd60e51b815260206004820152603060248201527f4552433230566f7465733a20746f74616c20737570706c79207269736b73206f60448201526f766572666c6f77696e6720766f74657360801b6064820152608401610779565b611456600b61223783612243565b611d4982826123b1565b611456600b6124d883612243565b816001600160a01b0316836001600160a01b031614158015611d795750600081115b156107bc576001600160a01b03831615611df5576001600160a01b0383166000908152600a602052604081208190611db4906124d885612243565b91509150846001600160a01b0316600080516020612d638339815191528383604051611dea929190918252602082015260400190565b60405180910390a250505b6001600160a01b038216156107bc576001600160a01b0382166000908152600a602052604081208190611e2b9061223785612243565b91509150836001600160a01b0316600080516020612d638339815191528383604051611e61929190918252602082015260400190565b60405180910390a25050505050565b60606000611e7d836124e4565b604080516020808252818301909252919250600091906020820181803683375050509182525060208101929092525090565b6000806fa2a8918ca85bafe22016d0b997e4df60600160ff1b03831115611edc5750600090506003611f60565b6040805160008082526020820180845289905260ff881692820192909252606081018690526080810185905260019060a0016020604051602081039080840390855afa158015611f30573d6000803e3d6000fd5b5050604051601f1901519150506001600160a01b038116611f5957600060019250925050611f60565b9150600090505b94509492505050565b6000816004811115611f7d57611f7d612d10565b03611f855750565b6001816004811115611f9957611f99612d10565b03611fe15760405162461bcd60e51b815260206004820152601860248201527745434453413a20696e76616c6964207369676e617475726560401b6044820152606401610779565b6002816004811115611ff557611ff5612d10565b036120425760405162461bcd60e51b815260206004820152601f60248201527f45434453413a20696e76616c6964207369676e6174757265206c656e677468006044820152606401610779565b600381600481111561205657612056612d10565b03610b655760405162461bcd60e51b815260206004820152602260248201527f45434453413a20696e76616c6964207369676e6174757265202773272076616c604482015261756560f01b6064820152608401610779565b6060611a56848460008561250c565b6107bc6120c984610c00565b6120d284610c00565b83611d57565b600080608083901c156120ed57608092831c92015b604083901c156120ff57604092831c92015b602083901c1561211157602092831c92015b601083901c1561212357601092831c92015b600883901c1561213557600892831c92015b600483901c1561214757600492831c92015b600283901c1561215957600292831c92015b600183901c156108be5760010192915050565b600081831061217b5781610a83565b5090919050565b6001600160a01b0382166121d85760405162461bcd60e51b815260206004820152601f60248201527f45524332303a206d696e7420746f20746865207a65726f2061646472657373006044820152606401610779565b80600260008282546121ea9190612af4565b90915550506001600160a01b03821660008181526020818152604080832080548601905551848152600080516020612d43833981519152910160405180910390a361084360008383611b99565b6000610a838284612af4565b8254600090819081811561228d5761225e8760018403611c8c565b60408051808201909152905463ffffffff81168252600160201b90046001600160e01b031660208201526122a2565b60408051808201909152600080825260208201525b905080602001516001600160e01b031693506122c284868863ffffffff16565b92506000821180156122ec57506122d7610dd0565b65ffffffffffff16816000015163ffffffff16145b1561232e576122fa836125e7565b6123078860018503611c8c565b80546001600160e01b0392909216600160201b0263ffffffff9092169190911790556123a7565b866040518060400160405280612352612345610dd0565b65ffffffffffff16611893565b63ffffffff168152602001612366866125e7565b6001600160e01b039081169091528254600181018455600093845260209384902083519490930151909116600160201b0263ffffffff909316929092179101555b5050935093915050565b6001600160a01b0382166124115760405162461bcd60e51b815260206004820152602160248201527f45524332303a206275726e2066726f6d20746865207a65726f206164647265736044820152607360f81b6064820152608401610779565b6001600160a01b038216600090815260208190526040902054818110156124855760405162461bcd60e51b815260206004820152602260248201527f45524332303a206275726e20616d6f756e7420657863656564732062616c616e604482015261636560f01b6064820152608401610779565b6001600160a01b038316600081815260208181526040808320868603905560028054879003905551858152919291600080516020612d43833981519152910160405180910390a36107bc83600084611b99565b6000610a838284612c9d565b600060ff8216601f8111156108be57604051632cd44ac360e21b815260040160405180910390fd5b60608247101561256d5760405162461bcd60e51b815260206004820152602660248201527f416464726573733a20696e73756666696369656e742062616c616e636520666f6044820152651c8818d85b1b60d21b6064820152608401610779565b600080866001600160a01b031685876040516125899190612d26565b60006040518083038185875af1925050503d80600081146125c6576040519150601f19603f3d011682016040523d82523d6000602084013e6125cb565b606091505b50915091506125dc87838387612650565b979650505050505050565b60006001600160e01b038211156118f85760405162461bcd60e51b815260206004820152602760248201527f53616665436173743a2076616c756520646f65736e27742066697420696e20326044820152663234206269747360c81b6064820152608401610779565b606083156126bf5782516000036126b8576001600160a01b0385163b6126b85760405162461bcd60e51b815260206004820152601d60248201527f416464726573733a2063616c6c20746f206e6f6e2d636f6e74726163740000006044820152606401610779565b5081611a56565b611a5683838151156126d45781518083602001fd5b8060405162461bcd60e51b815260040161077991906127b6565b6001600160a01b0381168114610b6557600080fd5b60006020828403121561271557600080fd5b8135610a83816126ee565b60006020828403121561273257600080fd5b81356001600160e01b031981168114610a8357600080fd5b6001600160a01b0391909116815260200190565b60005b83811015612779578181015183820152602001612761565b838111156114565750506000910152565b600081518084526127a281602086016020860161275e565b601f01601f19169290920160200192915050565b602081526000610a83602083018461278a565b600080604083850312156127dc57600080fd5b82356127e7816126ee565b946020939093013593505050565b60008060006060848603121561280a57600080fd5b8335612815816126ee565b92506020840135612825816126ee565b929592945050506040919091013590565b60006020828403121561284857600080fd5b5035919050565b60ff60f81b881681526000602060e08184015261286f60e084018a61278a565b8381036040850152612881818a61278a565b606085018990526001600160a01b038816608086015260a0850187905284810360c0860152855180825283870192509083019060005b818110156128d3578351835292840192918401916001016128b7565b50909c9b505050505050505050505050565b600080604083850312156128f857600080fd5b82359150602083013561290a816126ee565b809150509250929050565b803560ff8116811461292657600080fd5b919050565b60008060008060008060c0878903121561294457600080fd5b863561294f816126ee565b9550602087013594506040870135935061296b60608801612915565b92506080870135915060a087013590509295509295509295565b600080600080600080600060e0888a0312156129a057600080fd5b87356129ab816126ee565b965060208801356129bb816126ee565b955060408801359450606088013593506129d760808901612915565b925060a0880135915060c0880135905092959891949750929550565b60008060408385031215612a0657600080fd5b8235612a11816126ee565b9150602083013561290a816126ee565b60008060408385031215612a3457600080fd5b8235612a3f816126ee565b9150602083013563ffffffff8116811461290a57600080fd5b9182526001600160a01b0316602082015260400190565b600060208284031215612a8157600080fd5b5051919050565b600060208284031215612a9a57600080fd5b81518015158114610a8357600080fd5b600181811c90821680612abe57607f821691505b602082108103611a8057634e487b7160e01b600052602260045260246000fd5b634e487b7160e01b600052601160045260246000fd5b60008219821115612b0757612b07612ade565b500190565b60208082526019908201527804552433230566f7465733a20667574757265206c6f6f6b757603c1b604082015260600190565b600063ffffffff83811690831681811015612b5c57612b5c612ade565b039392505050565b634e487b7160e01b600052604160045260246000fd5b634e487b7160e01b600052603260045260246000fd5b601f8211156107bc57600081815260208120601f850160051c81016020861015612bb75750805b601f850160051c820191505b81811015612bd657828155600101612bc3565b505050505050565b81516001600160401b03811115612bf757612bf7612b64565b612c0b81612c058454612aaa565b84612b90565b602080601f831160018114612c405760008415612c285750858301515b600019600386901b1c1916600185901b178555612bd6565b600085815260208120601f198616915b82811015612c6f57888601518255948401946001909101908401612c50565b5085821015612c8d5787850151600019600388901b60f8161c191681555b5050505050600190811b01905550565b600082821015612caf57612caf612ade565b500390565b80516020808301519190811015611a805760001960209190910360031b1b16919050565b634e487b7160e01b600052601260045260246000fd5b600082612d0b57634e487b7160e01b600052601260045260246000fd5b500490565b634e487b7160e01b600052602160045260246000fd5b60008251612d3881846020870161275e565b919091019291505056feddf252ad1be2c89b69c2b068fc378daa952ba7f163c4a11628f55a4df523b3efdec2bacdd2f05b59de34da9b523dff8be42e5e38e818c82fdb0bae774387a724a26469706673582212205c61dc4cb12c98e8ca837a7aac776732b8c93bb733adba9b3d951e7d0d28aba464736f6c634300080f0033",
  "devdoc": {
    "kind": "dev",
    "methods": {
      "CLOCK_MODE()": {
        "details": "Description of the clock"
      },
      "DOMAIN_SEPARATOR()": {
        "details": "See {IERC20Permit-DOMAIN_SEPARATOR}."
      },
      "allowance(address,address)": {
        "details": "See {IERC20-allowance}."
      },
      "approve(address,uint256)": {
        "details": "See {IERC20-approve}. NOTE: If `amount` is the maximum `uint256`, the allowance is not updated on `transferFrom`. This is semantically equivalent to an infinite approval. Requirements: - `spender` cannot be the zero address."
      },
      "balanceOf(address)": {
        "details": "See {IERC20-balanceOf}."
      },
      "burn(uint256)": {
        "details": "Destroys `amount` tokens from the caller. See {ERC20-_burn}."
      },
      "burnFrom(address,uint256)": {
        "details": "Destroys `amount` tokens from `account`, deducting from the caller's allowance. See {ERC20-_burn} and {ERC20-allowance}. Requirements: - the caller must have allowance for ``accounts``'s tokens of at least `amount`."
      },
      "checkpoints(address,uint32)": {
        "details": "Get the `pos`-th checkpoint for `account`."
      },
      "clock()": {
        "details": "Clock used for flagging checkpoints. Can be overridden to implement timestamp based checkpoints (and voting)."
      },
      "decimals()": {
        "details": "Returns the number of decimals used to get its user representation. For example, if `decimals` equals `2`, a balance of `505` tokens should be displayed to a user as `5.05` (`505 / 10 ** 2`). Tokens usually opt for a value of 18, imitating the relationship between Ether and Wei. This is the default value returned by this function, unless it's overridden. NOTE: This information is only used for _display_ purposes: it in no way affects any of the arithmetic of the contract, including {IERC20-balanceOf} and {IERC20-transfer}."
      },
      "decreaseAllowance(address,uint256)": {
        "details": "Atomically decreases the allowance granted to `spender` by the caller. This is an alternative to {approve} that can be used as a mitigation for problems described in {IERC20-approve}. Emits an {Approval} event indicating the updated allowance. Requirements: - `spender` cannot be the zero address. - `spender` must have allowance for the caller of at least `subtractedValue`."
      },
      "delegate(address)": {
        "details": "Delegate votes from the sender to `delegatee`."
      },
      "delegateBySig(address,uint256,uint256,uint8,bytes32,bytes32)": {
        "details": "Delegates votes from signer to `delegatee`"
      },
      "delegates(address)": {
        "details": "Get the address `account` is currently delegating to."
      },
      "eip712Domain()": {
        "details": "See {EIP-5267}. _Available since v4.9._"
      },
      "getPastTotalSupply(uint256)": {
        "details": "Retrieve the `totalSupply` at the end of `timepoint`. Note, this value is the sum of all balances. It is NOT the sum of all the delegated votes! Requirements: - `timepoint` must be in the past"
      },
      "getPastVotes(address,uint256)": {
        "details": "Retrieve the number of votes for `account` at the end of `timepoint`. Requirements: - `timepoint` must be in the past"
      },
      "getVotes(address)": {
        "details": "Gets the current votes balance for `account`"
      },
      "increaseAllowance(address,uint256)": {
        "details": "Atomically increases the allowance granted to `spender` by the caller. This is an alternative to {approve} that can be used as a mitigation for problems described in {IERC20-approve}. Emits an {Approval} event indicating the updated allowance. Requirements: - `spender` cannot be the zero address."
      },
      "name()": {
        "details": "Returns the name of the token."
      },
      "nonces(address)": {
        "details": "See {IERC20Permit-nonces}."
      },
      "numCheckpoints(address)": {
        "details": "Get number of checkpoints for `account`."
      },
      "permit(address,address,uint256,uint256,uint8,bytes32,bytes32)": {
        "details": "See {IERC20Permit-permit}."
      },
      "symbol()": {
        "details": "Returns the symbol of the token, usually a shorter version of the name."
      },
      "totalSupply()": {
        "details": "See {IERC20-totalSupply}."
      },
      "transfer(address,uint256)": {
        "details": "See {IERC20-transfer}. Requirements: - `to` cannot be the zero address. - the caller must have a balance of at least `amount`."
      },
      "transferFrom(address,address,uint256)": {
        "details": "See {IERC20-transferFrom}. Emits an {Approval} event indicating the updated allowance. This is not required by the EIP. See the note at the beginning of {ERC20}. NOTE: Does not update the allowance if the current allowance is the maximum `uint256`. Requirements: - `from` and `to` cannot be the zero address. - `from` must have a balance of at least `amount`. - the caller must have allowance for ``from``'s tokens of at least `amount`."
      }
    },
    "title": "Governance token for StableUnit Decentralized Autonomous Organisation",
    "version": 1
  },
  "userdoc": {
    "kind": "user",
    "methods": {
      "rescueTokens(address)": {
        "notice": "The DAO can take away tokens accidentally sent to the contract."
      }
    },
    "version": 1
  },
  "storageLayout": {
    "storage": [
      {
        "astId": 12155,
        "contract": "contracts/SuDAOv2.sol:SuDAOv2",
        "label": "_balances",
        "offset": 0,
        "slot": "0",
        "type": "t_mapping(t_address,t_uint256)"
      },
      {
        "astId": 12161,
        "contract": "contracts/SuDAOv2.sol:SuDAOv2",
        "label": "_allowances",
        "offset": 0,
        "slot": "1",
        "type": "t_mapping(t_address,t_mapping(t_address,t_uint256))"
      },
      {
        "astId": 12163,
        "contract": "contracts/SuDAOv2.sol:SuDAOv2",
        "label": "_totalSupply",
        "offset": 0,
        "slot": "2",
        "type": "t_uint256"
      },
      {
        "astId": 12165,
        "contract": "contracts/SuDAOv2.sol:SuDAOv2",
        "label": "_name",
        "offset": 0,
        "slot": "3",
        "type": "t_string_storage"
      },
      {
        "astId": 12167,
        "contract": "contracts/SuDAOv2.sol:SuDAOv2",
        "label": "_symbol",
        "offset": 0,
        "slot": "4",
        "type": "t_string_storage"
      },
      {
        "astId": 17044,
        "contract": "contracts/SuDAOv2.sol:SuDAOv2",
        "label": "_nameFallback",
        "offset": 0,
        "slot": "5",
        "type": "t_string_storage"
      },
      {
        "astId": 17046,
        "contract": "contracts/SuDAOv2.sol:SuDAOv2",
        "label": "_versionFallback",
        "offset": 0,
        "slot": "6",
        "type": "t_string_storage"
      },
      {
        "astId": 12871,
        "contract": "contracts/SuDAOv2.sol:SuDAOv2",
        "label": "_nonces",
        "offset": 0,
        "slot": "7",
        "type": "t_mapping(t_address,t_struct(Counter)16022_storage)"
      },
      {
        "astId": 12879,
        "contract": "contracts/SuDAOv2.sol:SuDAOv2",
        "label": "_PERMIT_TYPEHASH_DEPRECATED_SLOT",
        "offset": 0,
        "slot": "8",
        "type": "t_bytes32"
      },
      {
        "astId": 13046,
        "contract": "contracts/SuDAOv2.sol:SuDAOv2",
        "label": "_delegates",
        "offset": 0,
        "slot": "9",
        "type": "t_mapping(t_address,t_address)"
      },
      {
        "astId": 13052,
        "contract": "contracts/SuDAOv2.sol:SuDAOv2",
        "label": "_checkpoints",
        "offset": 0,
        "slot": "10",
        "type": "t_mapping(t_address,t_array(t_struct(Checkpoint)13037_storage)dyn_storage)"
      },
      {
        "astId": 13056,
        "contract": "contracts/SuDAOv2.sol:SuDAOv2",
        "label": "_totalSupplyCheckpoints",
        "offset": 0,
        "slot": "11",
        "type": "t_array(t_struct(Checkpoint)13037_storage)dyn_storage"
      },
      {
        "astId": 29014,
        "contract": "contracts/SuDAOv2.sol:SuDAOv2",
        "label": "ACCESS_CONTROL_SINGLETON",
        "offset": 0,
        "slot": "12",
        "type": "t_contract(ISuAccessControl)30579"
      },
      {
        "astId": 29099,
        "contract": "contracts/SuDAOv2.sol:SuDAOv2",
        "label": "__gap",
        "offset": 0,
        "slot": "13",
        "type": "t_array(t_uint256)49_storage"
      },
      {
        "astId": 28035,
        "contract": "contracts/SuDAOv2.sol:SuDAOv2",
        "label": "DEPLOY_TIME",
        "offset": 0,
        "slot": "62",
        "type": "t_uint32"
      }
    ],
    "types": {
      "t_address": {
        "encoding": "inplace",
        "label": "address",
        "numberOfBytes": "20"
      },
      "t_array(t_struct(Checkpoint)13037_storage)dyn_storage": {
        "base": "t_struct(Checkpoint)13037_storage",
        "encoding": "dynamic_array",
        "label": "struct ERC20Votes.Checkpoint[]",
        "numberOfBytes": "32"
      },
      "t_array(t_uint256)49_storage": {
        "base": "t_uint256",
        "encoding": "inplace",
        "label": "uint256[49]",
        "numberOfBytes": "1568"
      },
      "t_bytes32": {
        "encoding": "inplace",
        "label": "bytes32",
        "numberOfBytes": "32"
      },
      "t_contract(ISuAccessControl)30579": {
        "encoding": "inplace",
        "label": "contract ISuAccessControl",
        "numberOfBytes": "20"
      },
      "t_mapping(t_address,t_address)": {
        "encoding": "mapping",
        "key": "t_address",
        "label": "mapping(address => address)",
        "numberOfBytes": "32",
        "value": "t_address"
      },
      "t_mapping(t_address,t_array(t_struct(Checkpoint)13037_storage)dyn_storage)": {
        "encoding": "mapping",
        "key": "t_address",
        "label": "mapping(address => struct ERC20Votes.Checkpoint[])",
        "numberOfBytes": "32",
        "value": "t_array(t_struct(Checkpoint)13037_storage)dyn_storage"
      },
      "t_mapping(t_address,t_mapping(t_address,t_uint256))": {
        "encoding": "mapping",
        "key": "t_address",
        "label": "mapping(address => mapping(address => uint256))",
        "numberOfBytes": "32",
        "value": "t_mapping(t_address,t_uint256)"
      },
      "t_mapping(t_address,t_struct(Counter)16022_storage)": {
        "encoding": "mapping",
        "key": "t_address",
        "label": "mapping(address => struct Counters.Counter)",
        "numberOfBytes": "32",
        "value": "t_struct(Counter)16022_storage"
      },
      "t_mapping(t_address,t_uint256)": {
        "encoding": "mapping",
        "key": "t_address",
        "label": "mapping(address => uint256)",
        "numberOfBytes": "32",
        "value": "t_uint256"
      },
      "t_string_storage": {
        "encoding": "bytes",
        "label": "string",
        "numberOfBytes": "32"
      },
      "t_struct(Checkpoint)13037_storage": {
        "encoding": "inplace",
        "label": "struct ERC20Votes.Checkpoint",
        "members": [
          {
            "astId": 13034,
            "contract": "contracts/SuDAOv2.sol:SuDAOv2",
            "label": "fromBlock",
            "offset": 0,
            "slot": "0",
            "type": "t_uint32"
          },
          {
            "astId": 13036,
            "contract": "contracts/SuDAOv2.sol:SuDAOv2",
            "label": "votes",
            "offset": 4,
            "slot": "0",
            "type": "t_uint224"
          }
        ],
        "numberOfBytes": "32"
      },
      "t_struct(Counter)16022_storage": {
        "encoding": "inplace",
        "label": "struct Counters.Counter",
        "members": [
          {
            "astId": 16021,
            "contract": "contracts/SuDAOv2.sol:SuDAOv2",
            "label": "_value",
            "offset": 0,
            "slot": "0",
            "type": "t_uint256"
          }
        ],
        "numberOfBytes": "32"
      },
      "t_uint224": {
        "encoding": "inplace",
        "label": "uint224",
        "numberOfBytes": "28"
      },
      "t_uint256": {
        "encoding": "inplace",
        "label": "uint256",
        "numberOfBytes": "32"
      },
      "t_uint32": {
        "encoding": "inplace",
        "label": "uint32",
        "numberOfBytes": "4"
      }
    }
  }
}