{
  "address": "0xf611b90Ad791a82777452002251Da7a8E349Ef9d",
  "abi": [
    {
      "inputs": [
        {
          "internalType": "bytes32",
          "name": "role",
          "type": "bytes32"
        },
        {
          "internalType": "address",
          "name": "msgSender",
          "type": "address"
        }
      ],
      "name": "OnlyRoleError",
      "type": "error"
    },
    {
      "anonymous": false,
      "inputs": [
        {
          "indexed": true,
          "internalType": "address",
          "name": "owner",
          "type": "address"
        },
        {
          "indexed": true,
          "internalType": "address",
          "name": "spender",
          "type": "address"
        },
        {
          "indexed": false,
          "internalType": "uint256",
          "name": "value",
          "type": "uint256"
        }
      ],
      "name": "Approval",
      "type": "event"
    },
    {
      "anonymous": false,
      "inputs": [
        {
          "indexed": true,
          "internalType": "address",
          "name": "delegator",
          "type": "address"
        },
        {
          "indexed": true,
          "internalType": "address",
          "name": "fromDelegate",
          "type": "address"
        },
        {
          "indexed": true,
          "internalType": "address",
          "name": "toDelegate",
          "type": "address"
        }
      ],
      "name": "DelegateChanged",
      "type": "event"
    },
    {
      "anonymous": false,
      "inputs": [
        {
          "indexed": true,
          "internalType": "address",
          "name": "delegate",
          "type": "address"
        },
        {
          "indexed": false,
          "internalType": "uint256",
          "name": "previousBalance",
          "type": "uint256"
        },
        {
          "indexed": false,
          "internalType": "uint256",
          "name": "newBalance",
          "type": "uint256"
        }
      ],
      "name": "DelegateVotesChanged",
      "type": "event"
    },
    {
      "anonymous": false,
      "inputs": [
        {
          "indexed": false,
          "internalType": "uint8",
          "name": "version",
          "type": "uint8"
        }
      ],
      "name": "Initialized",
      "type": "event"
    },
    {
      "anonymous": false,
      "inputs": [
        {
          "indexed": true,
          "internalType": "address",
          "name": "from",
          "type": "address"
        },
        {
          "indexed": true,
          "internalType": "address",
          "name": "to",
          "type": "address"
        },
        {
          "indexed": false,
          "internalType": "uint256",
          "name": "value",
          "type": "uint256"
        }
      ],
      "name": "Transfer",
      "type": "event"
    },
    {
      "inputs": [],
      "name": "ACCESS_CONTROL_SINGLETON",
      "outputs": [
        {
          "internalType": "contract ISuAccessControl",
          "name": "",
          "type": "address"
        }
      ],
      "stateMutability": "view",
      "type": "function"
    },
    {
      "inputs": [],
      "name": "ADMIN_ROLE",
      "outputs": [
        {
          "internalType": "bytes32",
          "name": "",
          "type": "bytes32"
        }
      ],
      "stateMutability": "view",
      "type": "function"
    },
    {
      "inputs": [],
      "name": "COMMUNITY_ADMIN_ROLE",
      "outputs": [
        {
          "internalType": "bytes32",
          "name": "",
          "type": "bytes32"
        }
      ],
      "stateMutability": "view",
      "type": "function"
    },
    {
      "inputs": [],
      "name": "DAO_ROLE",
      "outputs": [
        {
          "internalType": "bytes32",
          "name": "",
          "type": "bytes32"
        }
      ],
      "stateMutability": "view",
      "type": "function"
    },
    {
      "inputs": [],
      "name": "DEFAULT_ADMIN_ROLE",
      "outputs": [
        {
          "internalType": "bytes32",
          "name": "",
          "type": "bytes32"
        }
      ],
      "stateMutability": "view",
      "type": "function"
    },
    {
      "inputs": [],
      "name": "DOMAIN_SEPARATOR",
      "outputs": [
        {
          "internalType": "bytes32",
          "name": "",
          "type": "bytes32"
        }
      ],
      "stateMutability": "view",
      "type": "function"
    },
    {
      "inputs": [],
      "name": "MAX_SUPPLY",
      "outputs": [
        {
          "internalType": "uint256",
          "name": "",
          "type": "uint256"
        }
      ],
      "stateMutability": "view",
      "type": "function"
    },
    {
      "inputs": [
        {
          "internalType": "address",
          "name": "owner",
          "type": "address"
        },
        {
          "internalType": "address",
          "name": "spender",
          "type": "address"
        }
      ],
      "name": "allowance",
      "outputs": [
        {
          "internalType": "uint256",
          "name": "",
          "type": "uint256"
        }
      ],
      "stateMutability": "view",
      "type": "function"
    },
    {
      "inputs": [
        {
          "internalType": "address",
          "name": "spender",
          "type": "address"
        },
        {
          "internalType": "uint256",
          "name": "amount",
          "type": "uint256"
        }
      ],
      "name": "approve",
      "outputs": [
        {
          "internalType": "bool",
          "name": "",
          "type": "bool"
        }
      ],
      "stateMutability": "nonpayable",
      "type": "function"
    },
    {
      "inputs": [
        {
          "internalType": "address",
          "name": "account",
          "type": "address"
        }
      ],
      "name": "balanceOf",
      "outputs": [
        {
          "internalType": "uint256",
          "name": "",
          "type": "uint256"
        }
      ],
      "stateMutability": "view",
      "type": "function"
    },
    {
      "inputs": [
        {
          "internalType": "uint256",
          "name": "amount",
          "type": "uint256"
        }
      ],
      "name": "burn",
      "outputs": [],
      "stateMutability": "nonpayable",
      "type": "function"
    },
    {
      "inputs": [
        {
          "internalType": "address",
          "name": "account",
          "type": "address"
        },
        {
          "internalType": "uint256",
          "name": "amount",
          "type": "uint256"
        }
      ],
      "name": "burnFrom",
      "outputs": [],
      "stateMutability": "nonpayable",
      "type": "function"
    },
    {
      "inputs": [
        {
          "internalType": "address",
          "name": "account",
          "type": "address"
        },
        {
          "internalType": "uint32",
          "name": "pos",
          "type": "uint32"
        }
      ],
      "name": "checkpoints",
      "outputs": [
        {
          "components": [
            {
              "internalType": "uint32",
              "name": "fromBlock",
              "type": "uint32"
            },
            {
              "internalType": "uint224",
              "name": "votes",
              "type": "uint224"
            }
          ],
          "internalType": "struct ERC20VotesUpgradeable.Checkpoint",
          "name": "",
          "type": "tuple"
        }
      ],
      "stateMutability": "view",
      "type": "function"
    },
    {
      "inputs": [],
      "name": "decimals",
      "outputs": [
        {
          "internalType": "uint8",
          "name": "",
          "type": "uint8"
        }
      ],
      "stateMutability": "view",
      "type": "function"
    },
    {
      "inputs": [
        {
          "internalType": "address",
          "name": "spender",
          "type": "address"
        },
        {
          "internalType": "uint256",
          "name": "subtractedValue",
          "type": "uint256"
        }
      ],
      "name": "decreaseAllowance",
      "outputs": [
        {
          "internalType": "bool",
          "name": "",
          "type": "bool"
        }
      ],
      "stateMutability": "nonpayable",
      "type": "function"
    },
    {
      "inputs": [
        {
          "internalType": "address",
          "name": "delegatee",
          "type": "address"
        }
      ],
      "name": "delegate",
      "outputs": [],
      "stateMutability": "nonpayable",
      "type": "function"
    },
    {
      "inputs": [
        {
          "internalType": "address",
          "name": "delegatee",
          "type": "address"
        },
        {
          "internalType": "uint256",
          "name": "nonce",
          "type": "uint256"
        },
        {
          "internalType": "uint256",
          "name": "expiry",
          "type": "uint256"
        },
        {
          "internalType": "uint8",
          "name": "v",
          "type": "uint8"
        },
        {
          "internalType": "bytes32",
          "name": "r",
          "type": "bytes32"
        },
        {
          "internalType": "bytes32",
          "name": "s",
          "type": "bytes32"
        }
      ],
      "name": "delegateBySig",
      "outputs": [],
      "stateMutability": "nonpayable",
      "type": "function"
    },
    {
      "inputs": [
        {
          "internalType": "address",
          "name": "account",
          "type": "address"
        }
      ],
      "name": "delegates",
      "outputs": [
        {
          "internalType": "address",
          "name": "",
          "type": "address"
        }
      ],
      "stateMutability": "view",
      "type": "function"
    },
    {
      "inputs": [
        {
          "internalType": "uint256",
          "name": "blockNumber",
          "type": "uint256"
        }
      ],
      "name": "getPastTotalSupply",
      "outputs": [
        {
          "internalType": "uint256",
          "name": "",
          "type": "uint256"
        }
      ],
      "stateMutability": "view",
      "type": "function"
    },
    {
      "inputs": [
        {
          "internalType": "address",
          "name": "account",
          "type": "address"
        },
        {
          "internalType": "uint256",
          "name": "blockNumber",
          "type": "uint256"
        }
      ],
      "name": "getPastVotes",
      "outputs": [
        {
          "internalType": "uint256",
          "name": "",
          "type": "uint256"
        }
      ],
      "stateMutability": "view",
      "type": "function"
    },
    {
      "inputs": [
        {
          "internalType": "bytes32",
          "name": "role",
          "type": "bytes32"
        }
      ],
      "name": "getRoleAdmin",
      "outputs": [
        {
          "internalType": "bytes32",
          "name": "",
          "type": "bytes32"
        }
      ],
      "stateMutability": "view",
      "type": "function"
    },
    {
      "inputs": [
        {
          "internalType": "address",
          "name": "account",
          "type": "address"
        }
      ],
      "name": "getVotes",
      "outputs": [
        {
          "internalType": "uint256",
          "name": "",
          "type": "uint256"
        }
      ],
      "stateMutability": "view",
      "type": "function"
    },
    {
      "inputs": [
        {
          "internalType": "bytes32",
          "name": "role",
          "type": "bytes32"
        },
        {
          "internalType": "address",
          "name": "account",
          "type": "address"
        }
      ],
      "name": "hasRole",
      "outputs": [
        {
          "internalType": "bool",
          "name": "",
          "type": "bool"
        }
      ],
      "stateMutability": "view",
      "type": "function"
    },
    {
      "inputs": [
        {
          "internalType": "address",
          "name": "spender",
          "type": "address"
        },
        {
          "internalType": "uint256",
          "name": "addedValue",
          "type": "uint256"
        }
      ],
      "name": "increaseAllowance",
      "outputs": [
        {
          "internalType": "bool",
          "name": "",
          "type": "bool"
        }
      ],
      "stateMutability": "nonpayable",
      "type": "function"
    },
    {
      "inputs": [
        {
          "internalType": "address",
          "name": "_accessControlSingleton",
          "type": "address"
        },
        {
          "internalType": "uint256",
          "name": "_initMint",
          "type": "uint256"
        }
      ],
      "name": "initialize",
      "outputs": [],
      "stateMutability": "nonpayable",
      "type": "function"
    },
    {
      "inputs": [
        {
          "internalType": "address",
          "name": "account",
          "type": "address"
        },
        {
          "internalType": "uint256",
          "name": "amount",
          "type": "uint256"
        }
      ],
      "name": "mint",
      "outputs": [],
      "stateMutability": "nonpayable",
      "type": "function"
    },
    {
      "inputs": [],
      "name": "name",
      "outputs": [
        {
          "internalType": "string",
          "name": "",
          "type": "string"
        }
      ],
      "stateMutability": "view",
      "type": "function"
    },
    {
      "inputs": [
        {
          "internalType": "address",
          "name": "owner",
          "type": "address"
        }
      ],
      "name": "nonces",
      "outputs": [
        {
          "internalType": "uint256",
          "name": "",
          "type": "uint256"
        }
      ],
      "stateMutability": "view",
      "type": "function"
    },
    {
      "inputs": [
        {
          "internalType": "address",
          "name": "account",
          "type": "address"
        }
      ],
      "name": "numCheckpoints",
      "outputs": [
        {
          "internalType": "uint32",
          "name": "",
          "type": "uint32"
        }
      ],
      "stateMutability": "view",
      "type": "function"
    },
    {
      "inputs": [
        {
          "internalType": "address",
          "name": "owner",
          "type": "address"
        },
        {
          "internalType": "address",
          "name": "spender",
          "type": "address"
        },
        {
          "internalType": "uint256",
          "name": "value",
          "type": "uint256"
        },
        {
          "internalType": "uint256",
          "name": "deadline",
          "type": "uint256"
        },
        {
          "internalType": "uint8",
          "name": "v",
          "type": "uint8"
        },
        {
          "internalType": "bytes32",
          "name": "r",
          "type": "bytes32"
        },
        {
          "internalType": "bytes32",
          "name": "s",
          "type": "bytes32"
        }
      ],
      "name": "permit",
      "outputs": [],
      "stateMutability": "nonpayable",
      "type": "function"
    },
    {
      "inputs": [
        {
          "internalType": "contract ERC20Upgradeable",
          "name": "token",
          "type": "address"
        }
      ],
      "name": "rescueTokens",
      "outputs": [],
      "stateMutability": "nonpayable",
      "type": "function"
    },
    {
      "inputs": [
        {
          "internalType": "bytes4",
          "name": "interfaceId",
          "type": "bytes4"
        }
      ],
      "name": "supportsInterface",
      "outputs": [
        {
          "internalType": "bool",
          "name": "",
          "type": "bool"
        }
      ],
      "stateMutability": "view",
      "type": "function"
    },
    {
      "inputs": [],
      "name": "symbol",
      "outputs": [
        {
          "internalType": "string",
          "name": "",
          "type": "string"
        }
      ],
      "stateMutability": "view",
      "type": "function"
    },
    {
      "inputs": [],
      "name": "totalSupply",
      "outputs": [
        {
          "internalType": "uint256",
          "name": "",
          "type": "uint256"
        }
      ],
      "stateMutability": "view",
      "type": "function"
    },
    {
      "inputs": [
        {
          "internalType": "address",
          "name": "to",
          "type": "address"
        },
        {
          "internalType": "uint256",
          "name": "amount",
          "type": "uint256"
        }
      ],
      "name": "transfer",
      "outputs": [
        {
          "internalType": "bool",
          "name": "",
          "type": "bool"
        }
      ],
      "stateMutability": "nonpayable",
      "type": "function"
    },
    {
      "inputs": [
        {
          "internalType": "address",
          "name": "from",
          "type": "address"
        },
        {
          "internalType": "address",
          "name": "to",
          "type": "address"
        },
        {
          "internalType": "uint256",
          "name": "amount",
          "type": "uint256"
        }
      ],
      "name": "transferFrom",
      "outputs": [
        {
          "internalType": "bool",
          "name": "",
          "type": "bool"
        }
      ],
      "stateMutability": "nonpayable",
      "type": "function"
    },
    {
      "stateMutability": "payable",
      "type": "receive"
    }
  ],
  "numDeployments": 1,
  "solcInputHash": "f7ea498ab8c47a60e64e4e9fbd9b2f67",
  "bytecode": "0x608060405234801561001057600080fd5b50615459806100206000396000f3fe6080604052600436106102125760003560e01c806370a0823111610118578063a217fddf116100a0578063cd6dc6871161006f578063cd6dc68714610855578063d505accf1461087e578063dd62ed3e146108a7578063e9c26518146108e4578063f1127ed81461090f57610219565b8063a217fddf14610787578063a457c2d7146107b2578063a9059cbb146107ef578063c3cda5201461082c57610219565b80638e539e8c116100e75780638e539e8c1461067a57806391d14854146106b757806395367f89146106f457806395d89b411461071f5780639ab24eb01461074a57610219565b806370a08231146105ac57806375b238fc146105e957806379cc6790146106145780637ecebe001461063d57610219565b806332cb6b0c1161019b57806340c10f191161016a57806340c10f19146104b757806342966c68146104e0578063587cde1e146105095780635c19a95c146105465780636fcfff451461056f57610219565b806332cb6b0c146103e75780633644e51514610412578063395093511461043d5780633a46b1a81461047a57610219565b8063095ea7b3116101e2578063095ea7b3146102da57806318160ddd1461031757806323b872dd14610342578063248a9ca31461037f578063313ce567146103bc57610219565b8062ae3bf81461021e57806301ffc9a71461024757806303ee9f221461028457806306fdde03146102af57610219565b3661021957005b600080fd5b34801561022a57600080fd5b506102456004803603810190610240919061352f565b61094c565b005b34801561025357600080fd5b5061026e600480360381019061026991906135b4565b610b57565b60405161027b91906135fc565b60405180910390f35b34801561029057600080fd5b50610299610bfd565b6040516102a69190613676565b60405180910390f35b3480156102bb57600080fd5b506102c4610c24565b6040516102d1919061372a565b60405180910390f35b3480156102e657600080fd5b5061030160048036038101906102fc91906137ae565b610cb6565b60405161030e91906135fc565b60405180910390f35b34801561032357600080fd5b5061032c610cd9565b60405161033991906137fd565b60405180910390f35b34801561034e57600080fd5b5061036960048036038101906103649190613818565b610ce3565b60405161037691906135fc565b60405180910390f35b34801561038b57600080fd5b506103a660048036038101906103a191906138a1565b610d12565b6040516103b391906138dd565b60405180910390f35b3480156103c857600080fd5b506103d1610db8565b6040516103de9190613914565b60405180910390f35b3480156103f357600080fd5b506103fc610dc1565b60405161040991906137fd565b60405180910390f35b34801561041e57600080fd5b50610427610dd0565b60405161043491906138dd565b60405180910390f35b34801561044957600080fd5b50610464600480360381019061045f91906137ae565b610ddf565b60405161047191906135fc565b60405180910390f35b34801561048657600080fd5b506104a1600480360381019061049c91906137ae565b610e16565b6040516104ae91906137fd565b60405180910390f35b3480156104c357600080fd5b506104de60048036038101906104d991906137ae565b610eaa565b005b3480156104ec57600080fd5b506105076004803603810190610502919061392f565b610ffb565b005b34801561051557600080fd5b50610530600480360381019061052b919061395c565b61100f565b60405161053d9190613998565b60405180910390f35b34801561055257600080fd5b5061056d6004803603810190610568919061395c565b611078565b005b34801561057b57600080fd5b506105966004803603810190610591919061395c565b61108c565b6040516105a391906139d2565b60405180910390f35b3480156105b857600080fd5b506105d360048036038101906105ce919061395c565b6110e0565b6040516105e091906137fd565b60405180910390f35b3480156105f557600080fd5b506105fe611129565b60405161060b91906138dd565b60405180910390f35b34801561062057600080fd5b5061063b600480360381019061063691906137ae565b61114d565b005b34801561064957600080fd5b50610664600480360381019061065f919061395c565b61116d565b60405161067191906137fd565b60405180910390f35b34801561068657600080fd5b506106a1600480360381019061069c919061392f565b6111bd565b6040516106ae91906137fd565b60405180910390f35b3480156106c357600080fd5b506106de60048036038101906106d991906139ed565b611213565b6040516106eb91906135fc565b60405180910390f35b34801561070057600080fd5b506107096112bc565b60405161071691906138dd565b60405180910390f35b34801561072b57600080fd5b506107346112e0565b604051610741919061372a565b60405180910390f35b34801561075657600080fd5b50610771600480360381019061076c919061395c565b611372565b60405161077e91906137fd565b60405180910390f35b34801561079357600080fd5b5061079c611483565b6040516107a991906138dd565b60405180910390f35b3480156107be57600080fd5b506107d960048036038101906107d491906137ae565b61148a565b6040516107e691906135fc565b60405180910390f35b3480156107fb57600080fd5b50610816600480360381019061081191906137ae565b611501565b60405161082391906135fc565b60405180910390f35b34801561083857600080fd5b50610853600480360381019061084e9190613a59565b611524565b005b34801561086157600080fd5b5061087c600480360381019061087791906137ae565b611628565b005b34801561088a57600080fd5b506108a560048036038101906108a09190613ae6565b6117e7565b005b3480156108b357600080fd5b506108ce60048036038101906108c99190613b88565b611929565b6040516108db91906137fd565b60405180910390f35b3480156108f057600080fd5b506108f96119b0565b60405161090691906138dd565b60405180910390f35b34801561091b57600080fd5b5061093660048036038101906109319190613bf4565b6119b7565b6040516109439190613ca9565b60405180910390f35b6000801b61013060009054906101000a900473ffffffffffffffffffffffffffffffffffffffff1673ffffffffffffffffffffffffffffffffffffffff166391d1485482336040518363ffffffff1660e01b81526004016109ae929190613cc4565b602060405180830381865afa1580156109cb573d6000803e3d6000fd5b505050506040513d601f19601f820116820180604052508101906109ef9190613d19565b610a2e576040517f08c379a0000000000000000000000000000000000000000000000000000000008152600401610a2590613d92565b60405180910390fd5b600073ffffffffffffffffffffffffffffffffffffffff168273ffffffffffffffffffffffffffffffffffffffff1603610aae573373ffffffffffffffffffffffffffffffffffffffff166108fc479081150290604051600060405180830381858888f19350505050158015610aa8573d6000803e3d6000fd5b50610b53565b610b52338373ffffffffffffffffffffffffffffffffffffffff166370a08231306040518263ffffffff1660e01b8152600401610aeb9190613998565b602060405180830381865afa158015610b08573d6000803e3d6000fd5b505050506040513d601f19601f82011682018060405250810190610b2c9190613dc7565b8473ffffffffffffffffffffffffffffffffffffffff16611ac79092919063ffffffff16565b5b5050565b600061013060009054906101000a900473ffffffffffffffffffffffffffffffffffffffff1673ffffffffffffffffffffffffffffffffffffffff166301ffc9a7836040518263ffffffff1660e01b8152600401610bb59190613e03565b602060405180830381865afa158015610bd2573d6000803e3d6000fd5b505050506040513d601f19601f82011682018060405250810190610bf69190613d19565b9050919050565b61013060009054906101000a900473ffffffffffffffffffffffffffffffffffffffff1681565b606060368054610c3390613e4d565b80601f0160208091040260200160405190810160405280929190818152602001828054610c5f90613e4d565b8015610cac5780601f10610c8157610100808354040283529160200191610cac565b820191906000526020600020905b815481529060010190602001808311610c8f57829003601f168201915b5050505050905090565b600080610cc1611b4d565b9050610cce818585611b55565b600191505092915050565b6000603554905090565b600080610cee611b4d565b9050610cfb858285611d1e565b610d06858585611daa565b60019150509392505050565b600061013060009054906101000a900473ffffffffffffffffffffffffffffffffffffffff1673ffffffffffffffffffffffffffffffffffffffff1663248a9ca3836040518263ffffffff1660e01b8152600401610d7091906138dd565b602060405180830381865afa158015610d8d573d6000803e3d6000fd5b505050506040513d601f19601f82011682018060405250810190610db19190613e93565b9050919050565b60006012905090565b6a115eec47f6cf7e3500000081565b6000610dda61202c565b905090565b600080610dea611b4d565b9050610e0b818585610dfc8589611929565b610e069190613eef565b611b55565b600191505092915050565b6000438210610e5a576040517f08c379a0000000000000000000000000000000000000000000000000000000008152600401610e5190613f91565b60405180910390fd5b610ea260cd60008573ffffffffffffffffffffffffffffffffffffffff1673ffffffffffffffffffffffffffffffffffffffff1681526020019081526020016000208361206c565b905092915050565b6000801b61013060009054906101000a900473ffffffffffffffffffffffffffffffffffffffff1673ffffffffffffffffffffffffffffffffffffffff166391d1485482336040518363ffffffff1660e01b8152600401610f0c929190613cc4565b602060405180830381865afa158015610f29573d6000803e3d6000fd5b505050506040513d601f19601f82011682018060405250810190610f4d9190613d19565b610f8c576040517f08c379a0000000000000000000000000000000000000000000000000000000008152600401610f8390613d92565b60405180910390fd5b6a115eec47f6cf7e3500000082610fa1610cd9565b610fab9190613eef565b1115610fec576040517f08c379a0000000000000000000000000000000000000000000000000000000008152600401610fe390613ffd565b60405180910390fd5b610ff68383612178565b505050565b61100c611006611b4d565b82612186565b50565b600060cc60008373ffffffffffffffffffffffffffffffffffffffff1673ffffffffffffffffffffffffffffffffffffffff16815260200190815260200160002060009054906101000a900473ffffffffffffffffffffffffffffffffffffffff169050919050565b611089611083611b4d565b82612194565b50565b60006110d960cd60008473ffffffffffffffffffffffffffffffffffffffff1673ffffffffffffffffffffffffffffffffffffffff168152602001908152602001600020805490506122ae565b9050919050565b6000603360008373ffffffffffffffffffffffffffffffffffffffff1673ffffffffffffffffffffffffffffffffffffffff168152602001908152602001600020549050919050565b7fa49807205ce4d355092ef5a8a18f56e8913cf4a201fbe287825b095693c2177581565b61115f82611159611b4d565b83611d1e565b6111698282612186565b5050565b60006111b6609960008473ffffffffffffffffffffffffffffffffffffffff1673ffffffffffffffffffffffffffffffffffffffff168152602001908152602001600020612301565b9050919050565b6000438210611201576040517f08c379a00000000000000000000000000000000000000000000000000000000081526004016111f890613f91565b60405180910390fd5b61120c60ce8361206c565b9050919050565b600061013060009054906101000a900473ffffffffffffffffffffffffffffffffffffffff1673ffffffffffffffffffffffffffffffffffffffff166391d1485484846040518363ffffffff1660e01b8152600401611273929190613cc4565b602060405180830381865afa158015611290573d6000803e3d6000fd5b505050506040513d601f19601f820116820180604052508101906112b49190613d19565b905092915050565b7f0a7cc066f24e107ff77c42c8a1bdaf1a5f775fa4a74e45530aaf9c866368f65381565b6060603780546112ef90613e4d565b80601f016020809104026020016040519081016040528092919081815260200182805461131b90613e4d565b80156113685780601f1061133d57610100808354040283529160200191611368565b820191906000526020600020905b81548152906001019060200180831161134b57829003601f168201915b5050505050905090565b60008060cd60008473ffffffffffffffffffffffffffffffffffffffff1673ffffffffffffffffffffffffffffffffffffffff1681526020019081526020016000208054905090506000811461145a5760cd60008473ffffffffffffffffffffffffffffffffffffffff1673ffffffffffffffffffffffffffffffffffffffff16815260200190815260200160002060018261140e919061401d565b8154811061141f5761141e614051565b5b9060005260206000200160000160049054906101000a90047bffffffffffffffffffffffffffffffffffffffffffffffffffffffff1661145d565b60005b7bffffffffffffffffffffffffffffffffffffffffffffffffffffffff16915050919050565b6000801b81565b600080611495611b4d565b905060006114a38286611929565b9050838110156114e8576040517f08c379a00000000000000000000000000000000000000000000000000000000081526004016114df906140f2565b60405180910390fd5b6114f58286868403611b55565b60019250505092915050565b60008061150c611b4d565b9050611519818585611daa565b600191505092915050565b83421115611567576040517f08c379a000000000000000000000000000000000000000000000000000000000815260040161155e9061415e565b60405180910390fd5b60006115c96115c17fe48329057bfd03d55e49b547132e39cffd9c1820ad7b9d4c5307691425d15adf8989896040516020016115a6949392919061417e565b6040516020818303038152906040528051906020012061230f565b858585612329565b90506115d481612354565b8614611615576040517f08c379a000000000000000000000000000000000000000000000000000000000815260040161160c9061420f565b60405180910390fd5b61161f8188612194565b50505050505050565b60008060019054906101000a900460ff161590508080156116595750600160008054906101000a900460ff1660ff16105b806116865750611668306123b2565b1580156116855750600160008054906101000a900460ff1660ff16145b5b6116c5576040517f08c379a00000000000000000000000000000000000000000000000000000000081526004016116bc906142a1565b60405180910390fd5b60016000806101000a81548160ff021916908360ff1602179055508015611702576001600060016101000a81548160ff0219169083151502179055505b61170b836123d5565b61177f6040518060400160405280600e81526020017f537461626c65556e69742044414f0000000000000000000000000000000000008152506040518060400160405280600581526020017f537544414f000000000000000000000000000000000000000000000000000000815250612469565b6117893383612178565b80156117e25760008060016101000a81548160ff0219169083151502179055507f7f26b83ff96e1f2b6a682f133852f6798a09c465da95921460cefb384740249860016040516117d991906142fc565b60405180910390a15b505050565b8342111561182a576040517f08c379a000000000000000000000000000000000000000000000000000000000815260040161182190614363565b60405180910390fd5b60007f6e71edae12b1b97f4d1f60370fef10105fa2faae0126114a169c64845d6126c98888886118598c612354565b8960405160200161186f96959493929190614383565b60405160208183030381529060405280519060200120905060006118928261230f565b905060006118a282878787612329565b90508973ffffffffffffffffffffffffffffffffffffffff168173ffffffffffffffffffffffffffffffffffffffff1614611912576040517f08c379a000000000000000000000000000000000000000000000000000000000815260040161190990614430565b60405180910390fd5b61191d8a8a8a611b55565b50505050505050505050565b6000603460008473ffffffffffffffffffffffffffffffffffffffff1673ffffffffffffffffffffffffffffffffffffffff16815260200190815260200160002060008373ffffffffffffffffffffffffffffffffffffffff1673ffffffffffffffffffffffffffffffffffffffff16815260200190815260200160002054905092915050565b6000801b81565b6119bf61347c565b60cd60008473ffffffffffffffffffffffffffffffffffffffff1673ffffffffffffffffffffffffffffffffffffffff1681526020019081526020016000208263ffffffff1681548110611a1657611a15614051565b5b906000526020600020016040518060400160405290816000820160009054906101000a900463ffffffff1663ffffffff1663ffffffff1681526020016000820160049054906101000a90047bffffffffffffffffffffffffffffffffffffffffffffffffffffffff167bffffffffffffffffffffffffffffffffffffffffffffffffffffffff167bffffffffffffffffffffffffffffffffffffffffffffffffffffffff1681525050905092915050565b611b488363a9059cbb60e01b8484604051602401611ae6929190614450565b604051602081830303815290604052907bffffffffffffffffffffffffffffffffffffffffffffffffffffffff19166020820180517bffffffffffffffffffffffffffffffffffffffffffffffffffffffff83818316178352505050506124c6565b505050565b600033905090565b600073ffffffffffffffffffffffffffffffffffffffff168373ffffffffffffffffffffffffffffffffffffffff1603611bc4576040517f08c379a0000000000000000000000000000000000000000000000000000000008152600401611bbb906144eb565b60405180910390fd5b600073ffffffffffffffffffffffffffffffffffffffff168273ffffffffffffffffffffffffffffffffffffffff1603611c33576040517f08c379a0000000000000000000000000000000000000000000000000000000008152600401611c2a9061457d565b60405180910390fd5b80603460008573ffffffffffffffffffffffffffffffffffffffff1673ffffffffffffffffffffffffffffffffffffffff16815260200190815260200160002060008473ffffffffffffffffffffffffffffffffffffffff1673ffffffffffffffffffffffffffffffffffffffff168152602001908152602001600020819055508173ffffffffffffffffffffffffffffffffffffffff168373ffffffffffffffffffffffffffffffffffffffff167f8c5be1e5ebec7d5bd14f71427d1e84f3dd0314c0f7b2291e5b200ac8c7c3b92583604051611d1191906137fd565b60405180910390a3505050565b6000611d2a8484611929565b90507fffffffffffffffffffffffffffffffffffffffffffffffffffffffffffffffff8114611da45781811015611d96576040517f08c379a0000000000000000000000000000000000000000000000000000000008152600401611d8d906145e9565b60405180910390fd5b611da38484848403611b55565b5b50505050565b600073ffffffffffffffffffffffffffffffffffffffff168373ffffffffffffffffffffffffffffffffffffffff1603611e19576040517f08c379a0000000000000000000000000000000000000000000000000000000008152600401611e109061467b565b60405180910390fd5b600073ffffffffffffffffffffffffffffffffffffffff168273ffffffffffffffffffffffffffffffffffffffff1603611e88576040517f08c379a0000000000000000000000000000000000000000000000000000000008152600401611e7f9061470d565b60405180910390fd5b611e9383838361258d565b6000603360008573ffffffffffffffffffffffffffffffffffffffff1673ffffffffffffffffffffffffffffffffffffffff16815260200190815260200160002054905081811015611f1a576040517f08c379a0000000000000000000000000000000000000000000000000000000008152600401611f119061479f565b60405180910390fd5b818103603360008673ffffffffffffffffffffffffffffffffffffffff1673ffffffffffffffffffffffffffffffffffffffff1681526020019081526020016000208190555081603360008573ffffffffffffffffffffffffffffffffffffffff1673ffffffffffffffffffffffffffffffffffffffff1681526020019081526020016000206000828254611faf9190613eef565b925050819055508273ffffffffffffffffffffffffffffffffffffffff168473ffffffffffffffffffffffffffffffffffffffff167fddf252ad1be2c89b69c2b068fc378daa952ba7f163c4a11628f55a4df523b3ef8460405161201391906137fd565b60405180910390a3612026848484612592565b50505050565b60006120677f8b73c3c69bb8fe3d512ecc4cf759cc79239f7b179b0ffacaa9a75d522b39400f61205a6125a2565b6120626125ac565b6125b6565b905090565b6000808380549050905060005b818110156120eb57600061208d82846125f0565b9050848682815481106120a3576120a2614051565b5b9060005260206000200160000160009054906101000a900463ffffffff1663ffffffff1611156120d5578092506120e5565b6001816120e29190613eef565b91505b50612079565b6000821461214d5784600183612101919061401d565b8154811061211257612111614051565b5b9060005260206000200160000160049054906101000a90047bffffffffffffffffffffffffffffffffffffffffffffffffffffffff16612150565b60005b7bffffffffffffffffffffffffffffffffffffffffffffffffffffffff169250505092915050565b6121828282612616565b5050565b61219082826126a3565b5050565b600061219f8361100f565b905060006121ac846110e0565b90508260cc60008673ffffffffffffffffffffffffffffffffffffffff1673ffffffffffffffffffffffffffffffffffffffff16815260200190815260200160002060006101000a81548173ffffffffffffffffffffffffffffffffffffffff021916908373ffffffffffffffffffffffffffffffffffffffff1602179055508273ffffffffffffffffffffffffffffffffffffffff168273ffffffffffffffffffffffffffffffffffffffff168573ffffffffffffffffffffffffffffffffffffffff167f3134e8a2e6d97e929a7e54011ea5485d7d196dd5f0ba4d4ef95803e8e3fc257f60405160405180910390a46122a88284836126c1565b50505050565b600063ffffffff80168211156122f9576040517f08c379a00000000000000000000000000000000000000000000000000000000081526004016122f090614831565b60405180910390fd5b819050919050565b600081600001549050919050565b600061232261231c61202c565b836128ba565b9050919050565b600080600061233a878787876128ed565b91509150612347816129f9565b8192505050949350505050565b600080609960008473ffffffffffffffffffffffffffffffffffffffff1673ffffffffffffffffffffffffffffffffffffffff16815260200190815260200160002090506123a181612301565b91506123ac81612bc5565b50919050565b6000808273ffffffffffffffffffffffffffffffffffffffff163b119050919050565b600060019054906101000a900460ff16612424576040517f08c379a000000000000000000000000000000000000000000000000000000000815260040161241b906148c3565b60405180910390fd5b8061013060006101000a81548173ffffffffffffffffffffffffffffffffffffffff021916908373ffffffffffffffffffffffffffffffffffffffff16021790555050565b600060019054906101000a900460ff166124b8576040517f08c379a00000000000000000000000000000000000000000000000000000000081526004016124af906148c3565b60405180910390fd5b6124c28282612bdb565b5050565b6000612528826040518060400160405280602081526020017f5361666545524332303a206c6f772d6c6576656c2063616c6c206661696c65648152508573ffffffffffffffffffffffffffffffffffffffff16612c4e9092919063ffffffff16565b905060008151111561258857808060200190518101906125489190613d19565b612587576040517f08c379a000000000000000000000000000000000000000000000000000000000815260040161257e90614955565b60405180910390fd5b5b505050565b505050565b61259d838383612c66565b505050565b6000606554905090565b6000606654905090565b600083838346306040516020016125d1959493929190614975565b6040516020818303038152906040528051906020012090509392505050565b6000600282841861260191906149f7565b82841661260e9190613eef565b905092915050565b6126208282612c91565b612628612df1565b7bffffffffffffffffffffffffffffffffffffffffffffffffffffffff1661264e610cd9565b111561268f576040517f08c379a000000000000000000000000000000000000000000000000000000000815260040161268690614a9a565b60405180910390fd5b61269d60ce612e1583612e2b565b50505050565b6126ad82826130a3565b6126bb60ce61327b83612e2b565b50505050565b8173ffffffffffffffffffffffffffffffffffffffff168373ffffffffffffffffffffffffffffffffffffffff16141580156126fd5750600081115b156128b557600073ffffffffffffffffffffffffffffffffffffffff168373ffffffffffffffffffffffffffffffffffffffff16146127db5760008061278460cd60008773ffffffffffffffffffffffffffffffffffffffff1673ffffffffffffffffffffffffffffffffffffffff16815260200190815260200160002061327b85612e2b565b915091508473ffffffffffffffffffffffffffffffffffffffff167fdec2bacdd2f05b59de34da9b523dff8be42e5e38e818c82fdb0bae774387a72483836040516127d0929190614aba565b60405180910390a250505b600073ffffffffffffffffffffffffffffffffffffffff168273ffffffffffffffffffffffffffffffffffffffff16146128b45760008061285d60cd60008673ffffffffffffffffffffffffffffffffffffffff1673ffffffffffffffffffffffffffffffffffffffff168152602001908152602001600020612e1585612e2b565b915091508373ffffffffffffffffffffffffffffffffffffffff167fdec2bacdd2f05b59de34da9b523dff8be42e5e38e818c82fdb0bae774387a72483836040516128a9929190614aba565b60405180910390a250505b5b505050565b600082826040516020016128cf929190614b5b565b60405160208183030381529060405280519060200120905092915050565b6000807f7fffffffffffffffffffffffffffffff5d576e7357a4501ddfe92f46681b20a08360001c11156129285760006003915091506129f0565b601b8560ff16141580156129405750601c8560ff1614155b156129525760006004915091506129f0565b6000600187878787604051600081526020016040526040516129779493929190614b92565b6020604051602081039080840390855afa158015612999573d6000803e3d6000fd5b505050602060405103519050600073ffffffffffffffffffffffffffffffffffffffff168173ffffffffffffffffffffffffffffffffffffffff16036129e7576000600192509250506129f0565b80600092509250505b94509492505050565b60006004811115612a0d57612a0c614bd7565b5b816004811115612a2057612a1f614bd7565b5b0315612bc25760016004811115612a3a57612a39614bd7565b5b816004811115612a4d57612a4c614bd7565b5b03612a8d576040517f08c379a0000000000000000000000000000000000000000000000000000000008152600401612a8490614c52565b60405180910390fd5b60026004811115612aa157612aa0614bd7565b5b816004811115612ab457612ab3614bd7565b5b03612af4576040517f08c379a0000000000000000000000000000000000000000000000000000000008152600401612aeb90614cbe565b60405180910390fd5b60036004811115612b0857612b07614bd7565b5b816004811115612b1b57612b1a614bd7565b5b03612b5b576040517f08c379a0000000000000000000000000000000000000000000000000000000008152600401612b5290614d50565b60405180910390fd5b600480811115612b6e57612b6d614bd7565b5b816004811115612b8157612b80614bd7565b5b03612bc1576040517f08c379a0000000000000000000000000000000000000000000000000000000008152600401612bb890614de2565b60405180910390fd5b5b50565b6001816000016000828254019250508190555050565b600060019054906101000a900460ff16612c2a576040517f08c379a0000000000000000000000000000000000000000000000000000000008152600401612c21906148c3565b60405180910390fd5b8160369081612c399190614fd3565b508060379081612c499190614fd3565b505050565b6060612c5d8484600085613291565b90509392505050565b612c718383836133a5565b612c8c612c7d8461100f565b612c868461100f565b836126c1565b505050565b600073ffffffffffffffffffffffffffffffffffffffff168273ffffffffffffffffffffffffffffffffffffffff1603612d00576040517f08c379a0000000000000000000000000000000000000000000000000000000008152600401612cf7906150f1565b60405180910390fd5b612d0c6000838361258d565b8060356000828254612d1e9190613eef565b9250508190555080603360008473ffffffffffffffffffffffffffffffffffffffff1673ffffffffffffffffffffffffffffffffffffffff1681526020019081526020016000206000828254612d749190613eef565b925050819055508173ffffffffffffffffffffffffffffffffffffffff16600073ffffffffffffffffffffffffffffffffffffffff167fddf252ad1be2c89b69c2b068fc378daa952ba7f163c4a11628f55a4df523b3ef83604051612dd991906137fd565b60405180910390a3612ded60008383612592565b5050565b60007bffffffffffffffffffffffffffffffffffffffffffffffffffffffff905090565b60008183612e239190613eef565b905092915050565b60008060008580549050905060008114612e995785600182612e4d919061401d565b81548110612e5e57612e5d614051565b5b9060005260206000200160000160049054906101000a90047bffffffffffffffffffffffffffffffffffffffffffffffffffffffff16612e9c565b60005b7bffffffffffffffffffffffffffffffffffffffffffffffffffffffff169250612eca83858763ffffffff16565b9150600081118015612f1d57504386600183612ee6919061401d565b81548110612ef757612ef6614051565b5b9060005260206000200160000160009054906101000a900463ffffffff1663ffffffff16145b15612faa57612f2b826133aa565b86600183612f39919061401d565b81548110612f4a57612f49614051565b5b9060005260206000200160000160046101000a8154817bffffffffffffffffffffffffffffffffffffffffffffffffffffffff02191690837bffffffffffffffffffffffffffffffffffffffffffffffffffffffff16021790555061309a565b856040518060400160405280612fbf436122ae565b63ffffffff168152602001612fd3856133aa565b7bffffffffffffffffffffffffffffffffffffffffffffffffffffffff168152509080600181540180825580915050600190039060005260206000200160009091909190915060008201518160000160006101000a81548163ffffffff021916908363ffffffff16021790555060208201518160000160046101000a8154817bffffffffffffffffffffffffffffffffffffffffffffffffffffffff02191690837bffffffffffffffffffffffffffffffffffffffffffffffffffffffff16021790555050505b50935093915050565b600073ffffffffffffffffffffffffffffffffffffffff168273ffffffffffffffffffffffffffffffffffffffff1603613112576040517f08c379a000000000000000000000000000000000000000000000000000000000815260040161310990615183565b60405180910390fd5b61311e8260008361258d565b6000603360008473ffffffffffffffffffffffffffffffffffffffff1673ffffffffffffffffffffffffffffffffffffffff168152602001908152602001600020549050818110156131a5576040517f08c379a000000000000000000000000000000000000000000000000000000000815260040161319c90615215565b60405180910390fd5b818103603360008573ffffffffffffffffffffffffffffffffffffffff1673ffffffffffffffffffffffffffffffffffffffff1681526020019081526020016000208190555081603560008282546131fd919061401d565b92505081905550600073ffffffffffffffffffffffffffffffffffffffff168373ffffffffffffffffffffffffffffffffffffffff167fddf252ad1be2c89b69c2b068fc378daa952ba7f163c4a11628f55a4df523b3ef8460405161326291906137fd565b60405180910390a361327683600084612592565b505050565b60008183613289919061401d565b905092915050565b6060824710156132d6576040517f08c379a00000000000000000000000000000000000000000000000000000000081526004016132cd906152a7565b60405180910390fd5b6132df856123b2565b61331e576040517f08c379a000000000000000000000000000000000000000000000000000000000815260040161331590615313565b60405180910390fd5b6000808673ffffffffffffffffffffffffffffffffffffffff168587604051613347919061537a565b60006040518083038185875af1925050503d8060008114613384576040519150601f19603f3d011682016040523d82523d6000602084013e613389565b606091505b5091509150613399828286613415565b92505050949350505050565b505050565b60007bffffffffffffffffffffffffffffffffffffffffffffffffffffffff801682111561340d576040517f08c379a000000000000000000000000000000000000000000000000000000000815260040161340490615403565b60405180910390fd5b819050919050565b6060831561342557829050613475565b6000835111156134385782518084602001fd5b816040517f08c379a000000000000000000000000000000000000000000000000000000000815260040161346c919061372a565b60405180910390fd5b9392505050565b6040518060400160405280600063ffffffff16815260200160007bffffffffffffffffffffffffffffffffffffffffffffffffffffffff1681525090565b600080fd5b600073ffffffffffffffffffffffffffffffffffffffff82169050919050565b60006134ea826134bf565b9050919050565b60006134fc826134df565b9050919050565b61350c816134f1565b811461351757600080fd5b50565b60008135905061352981613503565b92915050565b600060208284031215613545576135446134ba565b5b60006135538482850161351a565b91505092915050565b60007fffffffff0000000000000000000000000000000000000000000000000000000082169050919050565b6135918161355c565b811461359c57600080fd5b50565b6000813590506135ae81613588565b92915050565b6000602082840312156135ca576135c96134ba565b5b60006135d88482850161359f565b91505092915050565b60008115159050919050565b6135f6816135e1565b82525050565b600060208201905061361160008301846135ed565b92915050565b6000819050919050565b600061363c613637613632846134bf565b613617565b6134bf565b9050919050565b600061364e82613621565b9050919050565b600061366082613643565b9050919050565b61367081613655565b82525050565b600060208201905061368b6000830184613667565b92915050565b600081519050919050565b600082825260208201905092915050565b60005b838110156136cb5780820151818401526020810190506136b0565b838111156136da576000848401525b50505050565b6000601f19601f8301169050919050565b60006136fc82613691565b613706818561369c565b93506137168185602086016136ad565b61371f816136e0565b840191505092915050565b6000602082019050818103600083015261374481846136f1565b905092915050565b613755816134df565b811461376057600080fd5b50565b6000813590506137728161374c565b92915050565b6000819050919050565b61378b81613778565b811461379657600080fd5b50565b6000813590506137a881613782565b92915050565b600080604083850312156137c5576137c46134ba565b5b60006137d385828601613763565b92505060206137e485828601613799565b9150509250929050565b6137f781613778565b82525050565b600060208201905061381260008301846137ee565b92915050565b600080600060608486031215613831576138306134ba565b5b600061383f86828701613763565b935050602061385086828701613763565b925050604061386186828701613799565b9150509250925092565b6000819050919050565b61387e8161386b565b811461388957600080fd5b50565b60008135905061389b81613875565b92915050565b6000602082840312156138b7576138b66134ba565b5b60006138c58482850161388c565b91505092915050565b6138d78161386b565b82525050565b60006020820190506138f260008301846138ce565b92915050565b600060ff82169050919050565b61390e816138f8565b82525050565b60006020820190506139296000830184613905565b92915050565b600060208284031215613945576139446134ba565b5b600061395384828501613799565b91505092915050565b600060208284031215613972576139716134ba565b5b600061398084828501613763565b91505092915050565b613992816134df565b82525050565b60006020820190506139ad6000830184613989565b92915050565b600063ffffffff82169050919050565b6139cc816139b3565b82525050565b60006020820190506139e760008301846139c3565b92915050565b60008060408385031215613a0457613a036134ba565b5b6000613a128582860161388c565b9250506020613a2385828601613763565b9150509250929050565b613a36816138f8565b8114613a4157600080fd5b50565b600081359050613a5381613a2d565b92915050565b60008060008060008060c08789031215613a7657613a756134ba565b5b6000613a8489828a01613763565b9650506020613a9589828a01613799565b9550506040613aa689828a01613799565b9450506060613ab789828a01613a44565b9350506080613ac889828a0161388c565b92505060a0613ad989828a0161388c565b9150509295509295509295565b600080600080600080600060e0888a031215613b0557613b046134ba565b5b6000613b138a828b01613763565b9750506020613b248a828b01613763565b9650506040613b358a828b01613799565b9550506060613b468a828b01613799565b9450506080613b578a828b01613a44565b93505060a0613b688a828b0161388c565b92505060c0613b798a828b0161388c565b91505092959891949750929550565b60008060408385031215613b9f57613b9e6134ba565b5b6000613bad85828601613763565b9250506020613bbe85828601613763565b9150509250929050565b613bd1816139b3565b8114613bdc57600080fd5b50565b600081359050613bee81613bc8565b92915050565b60008060408385031215613c0b57613c0a6134ba565b5b6000613c1985828601613763565b9250506020613c2a85828601613bdf565b9150509250929050565b613c3d816139b3565b82525050565b60007bffffffffffffffffffffffffffffffffffffffffffffffffffffffff82169050919050565b613c7481613c43565b82525050565b604082016000820151613c906000850182613c34565b506020820151613ca36020850182613c6b565b50505050565b6000604082019050613cbe6000830184613c7a565b92915050565b6000604082019050613cd960008301856138ce565b613ce66020830184613989565b9392505050565b613cf6816135e1565b8114613d0157600080fd5b50565b600081519050613d1381613ced565b92915050565b600060208284031215613d2f57613d2e6134ba565b5b6000613d3d84828501613d04565b91505092915050565b7f4f6e6c79526f6c654572726f7200000000000000000000000000000000000000600082015250565b6000613d7c600d8361369c565b9150613d8782613d46565b602082019050919050565b60006020820190508181036000830152613dab81613d6f565b9050919050565b600081519050613dc181613782565b92915050565b600060208284031215613ddd57613ddc6134ba565b5b6000613deb84828501613db2565b91505092915050565b613dfd8161355c565b82525050565b6000602082019050613e186000830184613df4565b92915050565b7f4e487b7100000000000000000000000000000000000000000000000000000000600052602260045260246000fd5b60006002820490506001821680613e6557607f821691505b602082108103613e7857613e77613e1e565b5b50919050565b600081519050613e8d81613875565b92915050565b600060208284031215613ea957613ea86134ba565b5b6000613eb784828501613e7e565b91505092915050565b7f4e487b7100000000000000000000000000000000000000000000000000000000600052601160045260246000fd5b6000613efa82613778565b9150613f0583613778565b9250827fffffffffffffffffffffffffffffffffffffffffffffffffffffffffffffffff03821115613f3a57613f39613ec0565b5b828201905092915050565b7f4552433230566f7465733a20626c6f636b206e6f7420796574206d696e656400600082015250565b6000613f7b601f8361369c565b9150613f8682613f45565b602082019050919050565b60006020820190508181036000830152613faa81613f6e565b9050919050565b7f6d617820737570706c7920697320657863656564656400000000000000000000600082015250565b6000613fe760168361369c565b9150613ff282613fb1565b602082019050919050565b6000602082019050818103600083015261401681613fda565b9050919050565b600061402882613778565b915061403383613778565b92508282101561404657614045613ec0565b5b828203905092915050565b7f4e487b7100000000000000000000000000000000000000000000000000000000600052603260045260246000fd5b7f45524332303a2064656372656173656420616c6c6f77616e63652062656c6f7760008201527f207a65726f000000000000000000000000000000000000000000000000000000602082015250565b60006140dc60258361369c565b91506140e782614080565b604082019050919050565b6000602082019050818103600083015261410b816140cf565b9050919050565b7f4552433230566f7465733a207369676e61747572652065787069726564000000600082015250565b6000614148601d8361369c565b915061415382614112565b602082019050919050565b600060208201905081810360008301526141778161413b565b9050919050565b600060808201905061419360008301876138ce565b6141a06020830186613989565b6141ad60408301856137ee565b6141ba60608301846137ee565b95945050505050565b7f4552433230566f7465733a20696e76616c6964206e6f6e636500000000000000600082015250565b60006141f960198361369c565b9150614204826141c3565b602082019050919050565b60006020820190508181036000830152614228816141ec565b9050919050565b7f496e697469616c697a61626c653a20636f6e747261637420697320616c72656160008201527f647920696e697469616c697a6564000000000000000000000000000000000000602082015250565b600061428b602e8361369c565b91506142968261422f565b604082019050919050565b600060208201905081810360008301526142ba8161427e565b9050919050565b6000819050919050565b60006142e66142e16142dc846142c1565b613617565b6138f8565b9050919050565b6142f6816142cb565b82525050565b600060208201905061431160008301846142ed565b92915050565b7f45524332305065726d69743a206578706972656420646561646c696e65000000600082015250565b600061434d601d8361369c565b915061435882614317565b602082019050919050565b6000602082019050818103600083015261437c81614340565b9050919050565b600060c08201905061439860008301896138ce565b6143a56020830188613989565b6143b26040830187613989565b6143bf60608301866137ee565b6143cc60808301856137ee565b6143d960a08301846137ee565b979650505050505050565b7f45524332305065726d69743a20696e76616c6964207369676e61747572650000600082015250565b600061441a601e8361369c565b9150614425826143e4565b602082019050919050565b600060208201905081810360008301526144498161440d565b9050919050565b60006040820190506144656000830185613989565b61447260208301846137ee565b9392505050565b7f45524332303a20617070726f76652066726f6d20746865207a65726f2061646460008201527f7265737300000000000000000000000000000000000000000000000000000000602082015250565b60006144d560248361369c565b91506144e082614479565b604082019050919050565b60006020820190508181036000830152614504816144c8565b9050919050565b7f45524332303a20617070726f766520746f20746865207a65726f20616464726560008201527f7373000000000000000000000000000000000000000000000000000000000000602082015250565b600061456760228361369c565b91506145728261450b565b604082019050919050565b600060208201905081810360008301526145968161455a565b9050919050565b7f45524332303a20696e73756666696369656e7420616c6c6f77616e6365000000600082015250565b60006145d3601d8361369c565b91506145de8261459d565b602082019050919050565b60006020820190508181036000830152614602816145c6565b9050919050565b7f45524332303a207472616e736665722066726f6d20746865207a65726f20616460008201527f6472657373000000000000000000000000000000000000000000000000000000602082015250565b600061466560258361369c565b915061467082614609565b604082019050919050565b6000602082019050818103600083015261469481614658565b9050919050565b7f45524332303a207472616e7366657220746f20746865207a65726f206164647260008201527f6573730000000000000000000000000000000000000000000000000000000000602082015250565b60006146f760238361369c565b91506147028261469b565b604082019050919050565b60006020820190508181036000830152614726816146ea565b9050919050565b7f45524332303a207472616e7366657220616d6f756e742065786365656473206260008201527f616c616e63650000000000000000000000000000000000000000000000000000602082015250565b600061478960268361369c565b91506147948261472d565b604082019050919050565b600060208201905081810360008301526147b88161477c565b9050919050565b7f53616665436173743a2076616c756520646f65736e27742066697420696e203360008201527f3220626974730000000000000000000000000000000000000000000000000000602082015250565b600061481b60268361369c565b9150614826826147bf565b604082019050919050565b6000602082019050818103600083015261484a8161480e565b9050919050565b7f496e697469616c697a61626c653a20636f6e7472616374206973206e6f74206960008201527f6e697469616c697a696e67000000000000000000000000000000000000000000602082015250565b60006148ad602b8361369c565b91506148b882614851565b604082019050919050565b600060208201905081810360008301526148dc816148a0565b9050919050565b7f5361666545524332303a204552433230206f7065726174696f6e20646964206e60008201527f6f74207375636365656400000000000000000000000000000000000000000000602082015250565b600061493f602a8361369c565b915061494a826148e3565b604082019050919050565b6000602082019050818103600083015261496e81614932565b9050919050565b600060a08201905061498a60008301886138ce565b61499760208301876138ce565b6149a460408301866138ce565b6149b160608301856137ee565b6149be6080830184613989565b9695505050505050565b7f4e487b7100000000000000000000000000000000000000000000000000000000600052601260045260246000fd5b6000614a0282613778565b9150614a0d83613778565b925082614a1d57614a1c6149c8565b5b828204905092915050565b7f4552433230566f7465733a20746f74616c20737570706c79207269736b73206f60008201527f766572666c6f77696e6720766f74657300000000000000000000000000000000602082015250565b6000614a8460308361369c565b9150614a8f82614a28565b604082019050919050565b60006020820190508181036000830152614ab381614a77565b9050919050565b6000604082019050614acf60008301856137ee565b614adc60208301846137ee565b9392505050565b600081905092915050565b7f1901000000000000000000000000000000000000000000000000000000000000600082015250565b6000614b24600283614ae3565b9150614b2f82614aee565b600282019050919050565b6000819050919050565b614b55614b508261386b565b614b3a565b82525050565b6000614b6682614b17565b9150614b728285614b44565b602082019150614b828284614b44565b6020820191508190509392505050565b6000608082019050614ba760008301876138ce565b614bb46020830186613905565b614bc160408301856138ce565b614bce60608301846138ce565b95945050505050565b7f4e487b7100000000000000000000000000000000000000000000000000000000600052602160045260246000fd5b7f45434453413a20696e76616c6964207369676e61747572650000000000000000600082015250565b6000614c3c60188361369c565b9150614c4782614c06565b602082019050919050565b60006020820190508181036000830152614c6b81614c2f565b9050919050565b7f45434453413a20696e76616c6964207369676e6174757265206c656e67746800600082015250565b6000614ca8601f8361369c565b9150614cb382614c72565b602082019050919050565b60006020820190508181036000830152614cd781614c9b565b9050919050565b7f45434453413a20696e76616c6964207369676e6174757265202773272076616c60008201527f7565000000000000000000000000000000000000000000000000000000000000602082015250565b6000614d3a60228361369c565b9150614d4582614cde565b604082019050919050565b60006020820190508181036000830152614d6981614d2d565b9050919050565b7f45434453413a20696e76616c6964207369676e6174757265202776272076616c60008201527f7565000000000000000000000000000000000000000000000000000000000000602082015250565b6000614dcc60228361369c565b9150614dd782614d70565b604082019050919050565b60006020820190508181036000830152614dfb81614dbf565b9050919050565b7f4e487b7100000000000000000000000000000000000000000000000000000000600052604160045260246000fd5b60008190508160005260206000209050919050565b60006020601f8301049050919050565b600082821b905092915050565b600060088302614e937fffffffffffffffffffffffffffffffffffffffffffffffffffffffffffffffff82614e56565b614e9d8683614e56565b95508019841693508086168417925050509392505050565b6000614ed0614ecb614ec684613778565b613617565b613778565b9050919050565b6000819050919050565b614eea83614eb5565b614efe614ef682614ed7565b848454614e63565b825550505050565b600090565b614f13614f06565b614f1e818484614ee1565b505050565b5b81811015614f4257614f37600082614f0b565b600181019050614f24565b5050565b601f821115614f8757614f5881614e31565b614f6184614e46565b81016020851015614f70578190505b614f84614f7c85614e46565b830182614f23565b50505b505050565b600082821c905092915050565b6000614faa60001984600802614f8c565b1980831691505092915050565b6000614fc38383614f99565b9150826002028217905092915050565b614fdc82613691565b67ffffffffffffffff811115614ff557614ff4614e02565b5b614fff8254613e4d565b61500a828285614f46565b600060209050601f83116001811461503d576000841561502b578287015190505b6150358582614fb7565b86555061509d565b601f19841661504b86614e31565b60005b828110156150735784890151825560018201915060208501945060208101905061504e565b86831015615090578489015161508c601f891682614f99565b8355505b6001600288020188555050505b505050505050565b7f45524332303a206d696e7420746f20746865207a65726f206164647265737300600082015250565b60006150db601f8361369c565b91506150e6826150a5565b602082019050919050565b6000602082019050818103600083015261510a816150ce565b9050919050565b7f45524332303a206275726e2066726f6d20746865207a65726f2061646472657360008201527f7300000000000000000000000000000000000000000000000000000000000000602082015250565b600061516d60218361369c565b915061517882615111565b604082019050919050565b6000602082019050818103600083015261519c81615160565b9050919050565b7f45524332303a206275726e20616d6f756e7420657863656564732062616c616e60008201527f6365000000000000000000000000000000000000000000000000000000000000602082015250565b60006151ff60228361369c565b915061520a826151a3565b604082019050919050565b6000602082019050818103600083015261522e816151f2565b9050919050565b7f416464726573733a20696e73756666696369656e742062616c616e636520666f60008201527f722063616c6c0000000000000000000000000000000000000000000000000000602082015250565b600061529160268361369c565b915061529c82615235565b604082019050919050565b600060208201905081810360008301526152c081615284565b9050919050565b7f416464726573733a2063616c6c20746f206e6f6e2d636f6e7472616374000000600082015250565b60006152fd601d8361369c565b9150615308826152c7565b602082019050919050565b6000602082019050818103600083015261532c816152f0565b9050919050565b600081519050919050565b600081905092915050565b600061535482615333565b61535e818561533e565b935061536e8185602086016136ad565b80840191505092915050565b60006153868284615349565b915081905092915050565b7f53616665436173743a2076616c756520646f65736e27742066697420696e203260008201527f3234206269747300000000000000000000000000000000000000000000000000602082015250565b60006153ed60278361369c565b91506153f882615391565b604082019050919050565b6000602082019050818103600083015261541c816153e0565b905091905056fea26469706673582212207bdeb2b857388118e06f39139cfc55f3f857791240bf096b0f1bfa6fe553402364736f6c634300080f0033",
  "devdoc": {
    "kind": "dev",
    "methods": {
      "DOMAIN_SEPARATOR()": {
        "details": "See {IERC20Permit-DOMAIN_SEPARATOR}."
      },
      "allowance(address,address)": {
        "details": "See {IERC20-allowance}."
      },
      "approve(address,uint256)": {
        "details": "See {IERC20-approve}. NOTE: If `amount` is the maximum `uint256`, the allowance is not updated on `transferFrom`. This is semantically equivalent to an infinite approval. Requirements: - `spender` cannot be the zero address."
      },
      "balanceOf(address)": {
        "details": "See {IERC20-balanceOf}."
      },
      "burn(uint256)": {
        "details": "Destroys `amount` tokens from the caller. See {ERC20-_burn}."
      },
      "burnFrom(address,uint256)": {
        "details": "Destroys `amount` tokens from `account`, deducting from the caller's allowance. See {ERC20-_burn} and {ERC20-allowance}. Requirements: - the caller must have allowance for ``accounts``'s tokens of at least `amount`."
      },
      "checkpoints(address,uint32)": {
        "details": "Get the `pos`-th checkpoint for `account`."
      },
      "decimals()": {
        "details": "Returns the number of decimals used to get its user representation. For example, if `decimals` equals `2`, a balance of `505` tokens should be displayed to a user as `5.05` (`505 / 10 ** 2`). Tokens usually opt for a value of 18, imitating the relationship between Ether and Wei. This is the value {ERC20} uses, unless this function is overridden; NOTE: This information is only used for _display_ purposes: it in no way affects any of the arithmetic of the contract, including {IERC20-balanceOf} and {IERC20-transfer}."
      },
      "decreaseAllowance(address,uint256)": {
        "details": "Atomically decreases the allowance granted to `spender` by the caller. This is an alternative to {approve} that can be used as a mitigation for problems described in {IERC20-approve}. Emits an {Approval} event indicating the updated allowance. Requirements: - `spender` cannot be the zero address. - `spender` must have allowance for the caller of at least `subtractedValue`."
      },
      "delegate(address)": {
        "details": "Delegate votes from the sender to `delegatee`."
      },
      "delegateBySig(address,uint256,uint256,uint8,bytes32,bytes32)": {
        "details": "Delegates votes from signer to `delegatee`"
      },
      "delegates(address)": {
        "details": "Get the address `account` is currently delegating to."
      },
      "getPastTotalSupply(uint256)": {
        "details": "Retrieve the `totalSupply` at the end of `blockNumber`. Note, this value is the sum of all balances. It is but NOT the sum of all the delegated votes! Requirements: - `blockNumber` must have been already mined"
      },
      "getPastVotes(address,uint256)": {
        "details": "Retrieve the number of votes for `account` at the end of `blockNumber`. Requirements: - `blockNumber` must have been already mined"
      },
      "getVotes(address)": {
        "details": "Gets the current votes balance for `account`"
      },
      "increaseAllowance(address,uint256)": {
        "details": "Atomically increases the allowance granted to `spender` by the caller. This is an alternative to {approve} that can be used as a mitigation for problems described in {IERC20-approve}. Emits an {Approval} event indicating the updated allowance. Requirements: - `spender` cannot be the zero address."
      },
      "name()": {
        "details": "Returns the name of the token."
      },
      "nonces(address)": {
        "details": "See {IERC20Permit-nonces}."
      },
      "numCheckpoints(address)": {
        "details": "Get number of checkpoints for `account`."
      },
      "permit(address,address,uint256,uint256,uint8,bytes32,bytes32)": {
        "details": "See {IERC20Permit-permit}."
      },
      "symbol()": {
        "details": "Returns the symbol of the token, usually a shorter version of the name."
      },
      "totalSupply()": {
        "details": "See {IERC20-totalSupply}."
      },
      "transfer(address,uint256)": {
        "details": "See {IERC20-transfer}. Requirements: - `to` cannot be the zero address. - the caller must have a balance of at least `amount`."
      },
      "transferFrom(address,address,uint256)": {
        "details": "See {IERC20-transferFrom}. Emits an {Approval} event indicating the updated allowance. This is not required by the EIP. See the note at the beginning of {ERC20}. NOTE: Does not update the allowance if the current allowance is the maximum `uint256`. Requirements: - `from` and `to` cannot be the zero address. - `from` must have a balance of at least `amount`. - the caller must have allowance for ``from``'s tokens of at least `amount`."
      }
    },
    "stateVariables": {
      "__gap": {
        "details": "This empty reserved space is put in place to allow future versions to add new variables without shifting down storage in the inheritance chain. See https://docs.openzeppelin.com/contracts/4.x/upgradeable#storage_gaps"
      }
    },
    "title": "Governance token for StableUnit Decentralized Autonomous Organisation",
    "version": 1
  },
  "userdoc": {
    "kind": "user",
    "methods": {
      "rescueTokens(address)": {
        "notice": "The owner of the contact can take away tokens accidentally sent to the contract."
      }
    },
    "version": 1
  },
  "storageLayout": {
    "storage": [
      {
        "astId": 497,
        "contract": "contracts/SuDAO.sol:SuDAO",
        "label": "_initialized",
        "offset": 0,
        "slot": "0",
        "type": "t_uint8"
      },
      {
        "astId": 500,
        "contract": "contracts/SuDAO.sol:SuDAO",
        "label": "_initializing",
        "offset": 1,
        "slot": "0",
        "type": "t_bool"
      },
      {
        "astId": 2868,
        "contract": "contracts/SuDAO.sol:SuDAO",
        "label": "__gap",
        "offset": 0,
        "slot": "1",
        "type": "t_array(t_uint256)50_storage"
      },
      {
        "astId": 660,
        "contract": "contracts/SuDAO.sol:SuDAO",
        "label": "_balances",
        "offset": 0,
        "slot": "51",
        "type": "t_mapping(t_address,t_uint256)"
      },
      {
        "astId": 666,
        "contract": "contracts/SuDAO.sol:SuDAO",
        "label": "_allowances",
        "offset": 0,
        "slot": "52",
        "type": "t_mapping(t_address,t_mapping(t_address,t_uint256))"
      },
      {
        "astId": 668,
        "contract": "contracts/SuDAO.sol:SuDAO",
        "label": "_totalSupply",
        "offset": 0,
        "slot": "53",
        "type": "t_uint256"
      },
      {
        "astId": 670,
        "contract": "contracts/SuDAO.sol:SuDAO",
        "label": "_name",
        "offset": 0,
        "slot": "54",
        "type": "t_string_storage"
      },
      {
        "astId": 672,
        "contract": "contracts/SuDAO.sol:SuDAO",
        "label": "_symbol",
        "offset": 0,
        "slot": "55",
        "type": "t_string_storage"
      },
      {
        "astId": 1251,
        "contract": "contracts/SuDAO.sol:SuDAO",
        "label": "__gap",
        "offset": 0,
        "slot": "56",
        "type": "t_array(t_uint256)45_storage"
      },
      {
        "astId": 3566,
        "contract": "contracts/SuDAO.sol:SuDAO",
        "label": "_HASHED_NAME",
        "offset": 0,
        "slot": "101",
        "type": "t_bytes32"
      },
      {
        "astId": 3568,
        "contract": "contracts/SuDAO.sol:SuDAO",
        "label": "_HASHED_VERSION",
        "offset": 0,
        "slot": "102",
        "type": "t_bytes32"
      },
      {
        "astId": 3706,
        "contract": "contracts/SuDAO.sol:SuDAO",
        "label": "__gap",
        "offset": 0,
        "slot": "103",
        "type": "t_array(t_uint256)50_storage"
      },
      {
        "astId": 2102,
        "contract": "contracts/SuDAO.sol:SuDAO",
        "label": "_nonces",
        "offset": 0,
        "slot": "153",
        "type": "t_mapping(t_address,t_struct(Counter)2875_storage)"
      },
      {
        "astId": 2110,
        "contract": "contracts/SuDAO.sol:SuDAO",
        "label": "_PERMIT_TYPEHASH_DEPRECATED_SLOT",
        "offset": 0,
        "slot": "154",
        "type": "t_bytes32"
      },
      {
        "astId": 2266,
        "contract": "contracts/SuDAO.sol:SuDAO",
        "label": "__gap",
        "offset": 0,
        "slot": "155",
        "type": "t_array(t_uint256)49_storage"
      },
      {
        "astId": 1435,
        "contract": "contracts/SuDAO.sol:SuDAO",
        "label": "_delegates",
        "offset": 0,
        "slot": "204",
        "type": "t_mapping(t_address,t_address)"
      },
      {
        "astId": 1441,
        "contract": "contracts/SuDAO.sol:SuDAO",
        "label": "_checkpoints",
        "offset": 0,
        "slot": "205",
        "type": "t_mapping(t_address,t_array(t_struct(Checkpoint)1426_storage)dyn_storage)"
      },
      {
        "astId": 1445,
        "contract": "contracts/SuDAO.sol:SuDAO",
        "label": "_totalSupplyCheckpoints",
        "offset": 0,
        "slot": "206",
        "type": "t_array(t_struct(Checkpoint)1426_storage)dyn_storage"
      },
      {
        "astId": 2050,
        "contract": "contracts/SuDAO.sol:SuDAO",
        "label": "__gap",
        "offset": 0,
        "slot": "207",
        "type": "t_array(t_uint256)47_storage"
      },
      {
        "astId": 1393,
        "contract": "contracts/SuDAO.sol:SuDAO",
        "label": "__gap",
        "offset": 0,
        "slot": "254",
        "type": "t_array(t_uint256)50_storage"
      },
      {
        "astId": 10494,
        "contract": "contracts/SuDAO.sol:SuDAO",
        "label": "ACCESS_CONTROL_SINGLETON",
        "offset": 0,
        "slot": "304",
        "type": "t_contract(ISuAccessControl)11645"
      },
      {
        "astId": 10578,
        "contract": "contracts/SuDAO.sol:SuDAO",
        "label": "__gap",
        "offset": 0,
        "slot": "305",
        "type": "t_array(t_uint256)49_storage"
      },
      {
        "astId": 10461,
        "contract": "contracts/SuDAO.sol:SuDAO",
        "label": "__gap",
        "offset": 0,
        "slot": "354",
        "type": "t_array(t_uint256)49_storage"
      }
    ],
    "types": {
      "t_address": {
        "encoding": "inplace",
        "label": "address",
        "numberOfBytes": "20"
      },
      "t_array(t_struct(Checkpoint)1426_storage)dyn_storage": {
        "base": "t_struct(Checkpoint)1426_storage",
        "encoding": "dynamic_array",
        "label": "struct ERC20VotesUpgradeable.Checkpoint[]",
        "numberOfBytes": "32"
      },
      "t_array(t_uint256)45_storage": {
        "base": "t_uint256",
        "encoding": "inplace",
        "label": "uint256[45]",
        "numberOfBytes": "1440"
      },
      "t_array(t_uint256)47_storage": {
        "base": "t_uint256",
        "encoding": "inplace",
        "label": "uint256[47]",
        "numberOfBytes": "1504"
      },
      "t_array(t_uint256)49_storage": {
        "base": "t_uint256",
        "encoding": "inplace",
        "label": "uint256[49]",
        "numberOfBytes": "1568"
      },
      "t_array(t_uint256)50_storage": {
        "base": "t_uint256",
        "encoding": "inplace",
        "label": "uint256[50]",
        "numberOfBytes": "1600"
      },
      "t_bool": {
        "encoding": "inplace",
        "label": "bool",
        "numberOfBytes": "1"
      },
      "t_bytes32": {
        "encoding": "inplace",
        "label": "bytes32",
        "numberOfBytes": "32"
      },
      "t_contract(ISuAccessControl)11645": {
        "encoding": "inplace",
        "label": "contract ISuAccessControl",
        "numberOfBytes": "20"
      },
      "t_mapping(t_address,t_address)": {
        "encoding": "mapping",
        "key": "t_address",
        "label": "mapping(address => address)",
        "numberOfBytes": "32",
        "value": "t_address"
      },
      "t_mapping(t_address,t_array(t_struct(Checkpoint)1426_storage)dyn_storage)": {
        "encoding": "mapping",
        "key": "t_address",
        "label": "mapping(address => struct ERC20VotesUpgradeable.Checkpoint[])",
        "numberOfBytes": "32",
        "value": "t_array(t_struct(Checkpoint)1426_storage)dyn_storage"
      },
      "t_mapping(t_address,t_mapping(t_address,t_uint256))": {
        "encoding": "mapping",
        "key": "t_address",
        "label": "mapping(address => mapping(address => uint256))",
        "numberOfBytes": "32",
        "value": "t_mapping(t_address,t_uint256)"
      },
      "t_mapping(t_address,t_struct(Counter)2875_storage)": {
        "encoding": "mapping",
        "key": "t_address",
        "label": "mapping(address => struct CountersUpgradeable.Counter)",
        "numberOfBytes": "32",
        "value": "t_struct(Counter)2875_storage"
      },
      "t_mapping(t_address,t_uint256)": {
        "encoding": "mapping",
        "key": "t_address",
        "label": "mapping(address => uint256)",
        "numberOfBytes": "32",
        "value": "t_uint256"
      },
      "t_string_storage": {
        "encoding": "bytes",
        "label": "string",
        "numberOfBytes": "32"
      },
      "t_struct(Checkpoint)1426_storage": {
        "encoding": "inplace",
        "label": "struct ERC20VotesUpgradeable.Checkpoint",
        "members": [
          {
            "astId": 1423,
            "contract": "contracts/SuDAO.sol:SuDAO",
            "label": "fromBlock",
            "offset": 0,
            "slot": "0",
            "type": "t_uint32"
          },
          {
            "astId": 1425,
            "contract": "contracts/SuDAO.sol:SuDAO",
            "label": "votes",
            "offset": 4,
            "slot": "0",
            "type": "t_uint224"
          }
        ],
        "numberOfBytes": "32"
      },
      "t_struct(Counter)2875_storage": {
        "encoding": "inplace",
        "label": "struct CountersUpgradeable.Counter",
        "members": [
          {
            "astId": 2874,
            "contract": "contracts/SuDAO.sol:SuDAO",
            "label": "_value",
            "offset": 0,
            "slot": "0",
            "type": "t_uint256"
          }
        ],
        "numberOfBytes": "32"
      },
      "t_uint224": {
        "encoding": "inplace",
        "label": "uint224",
        "numberOfBytes": "28"
      },
      "t_uint256": {
        "encoding": "inplace",
        "label": "uint256",
        "numberOfBytes": "32"
      },
      "t_uint32": {
        "encoding": "inplace",
        "label": "uint32",
        "numberOfBytes": "4"
      },
      "t_uint8": {
        "encoding": "inplace",
        "label": "uint8",
        "numberOfBytes": "1"
      }
    }
  }
}