{
  "address": "0x95A7D13eb343F55357ed46D272F9923243056Ff6",
  "abi": [
    {
      "inputs": [],
      "name": "MaxSupplyExceeded",
      "type": "error"
    },
    {
      "inputs": [
        {
          "internalType": "bytes32",
          "name": "role",
          "type": "bytes32"
        },
        {
          "internalType": "address",
          "name": "msgSender",
          "type": "address"
        }
      ],
      "name": "OnlyRoleError",
      "type": "error"
    },
    {
      "anonymous": false,
      "inputs": [
        {
          "indexed": true,
          "internalType": "address",
          "name": "owner",
          "type": "address"
        },
        {
          "indexed": true,
          "internalType": "address",
          "name": "spender",
          "type": "address"
        },
        {
          "indexed": false,
          "internalType": "uint256",
          "name": "value",
          "type": "uint256"
        }
      ],
      "name": "Approval",
      "type": "event"
    },
    {
      "anonymous": false,
      "inputs": [
        {
          "indexed": true,
          "internalType": "address",
          "name": "delegator",
          "type": "address"
        },
        {
          "indexed": true,
          "internalType": "address",
          "name": "fromDelegate",
          "type": "address"
        },
        {
          "indexed": true,
          "internalType": "address",
          "name": "toDelegate",
          "type": "address"
        }
      ],
      "name": "DelegateChanged",
      "type": "event"
    },
    {
      "anonymous": false,
      "inputs": [
        {
          "indexed": true,
          "internalType": "address",
          "name": "delegate",
          "type": "address"
        },
        {
          "indexed": false,
          "internalType": "uint256",
          "name": "previousBalance",
          "type": "uint256"
        },
        {
          "indexed": false,
          "internalType": "uint256",
          "name": "newBalance",
          "type": "uint256"
        }
      ],
      "name": "DelegateVotesChanged",
      "type": "event"
    },
    {
      "anonymous": false,
      "inputs": [
        {
          "indexed": false,
          "internalType": "uint8",
          "name": "version",
          "type": "uint8"
        }
      ],
      "name": "Initialized",
      "type": "event"
    },
    {
      "anonymous": false,
      "inputs": [
        {
          "indexed": true,
          "internalType": "address",
          "name": "from",
          "type": "address"
        },
        {
          "indexed": true,
          "internalType": "address",
          "name": "to",
          "type": "address"
        },
        {
          "indexed": false,
          "internalType": "uint256",
          "name": "value",
          "type": "uint256"
        }
      ],
      "name": "Transfer",
      "type": "event"
    },
    {
      "inputs": [],
      "name": "ACCESS_CONTROL_SINGLETON",
      "outputs": [
        {
          "internalType": "contract ISuAccessControl",
          "name": "",
          "type": "address"
        }
      ],
      "stateMutability": "view",
      "type": "function"
    },
    {
      "inputs": [],
      "name": "ADMIN_ROLE",
      "outputs": [
        {
          "internalType": "bytes32",
          "name": "",
          "type": "bytes32"
        }
      ],
      "stateMutability": "view",
      "type": "function"
    },
    {
      "inputs": [],
      "name": "DAO_ROLE",
      "outputs": [
        {
          "internalType": "bytes32",
          "name": "",
          "type": "bytes32"
        }
      ],
      "stateMutability": "view",
      "type": "function"
    },
    {
      "inputs": [],
      "name": "DEFAULT_ADMIN_ROLE",
      "outputs": [
        {
          "internalType": "bytes32",
          "name": "",
          "type": "bytes32"
        }
      ],
      "stateMutability": "view",
      "type": "function"
    },
    {
      "inputs": [],
      "name": "DEPLOY_TIME",
      "outputs": [
        {
          "internalType": "uint32",
          "name": "",
          "type": "uint32"
        }
      ],
      "stateMutability": "view",
      "type": "function"
    },
    {
      "inputs": [],
      "name": "DOMAIN_SEPARATOR",
      "outputs": [
        {
          "internalType": "bytes32",
          "name": "",
          "type": "bytes32"
        }
      ],
      "stateMutability": "view",
      "type": "function"
    },
    {
      "inputs": [],
      "name": "MAX_POST_VESTING_INFLATION",
      "outputs": [
        {
          "internalType": "uint256",
          "name": "",
          "type": "uint256"
        }
      ],
      "stateMutability": "view",
      "type": "function"
    },
    {
      "inputs": [],
      "name": "MAX_SUPPLY",
      "outputs": [
        {
          "internalType": "uint256",
          "name": "",
          "type": "uint256"
        }
      ],
      "stateMutability": "view",
      "type": "function"
    },
    {
      "inputs": [],
      "name": "MIN_FULLY_DILUTED_VESTING",
      "outputs": [
        {
          "internalType": "uint32",
          "name": "",
          "type": "uint32"
        }
      ],
      "stateMutability": "view",
      "type": "function"
    },
    {
      "inputs": [],
      "name": "SYSTEM_ROLE",
      "outputs": [
        {
          "internalType": "bytes32",
          "name": "",
          "type": "bytes32"
        }
      ],
      "stateMutability": "view",
      "type": "function"
    },
    {
      "inputs": [
        {
          "internalType": "address",
          "name": "owner",
          "type": "address"
        },
        {
          "internalType": "address",
          "name": "spender",
          "type": "address"
        }
      ],
      "name": "allowance",
      "outputs": [
        {
          "internalType": "uint256",
          "name": "",
          "type": "uint256"
        }
      ],
      "stateMutability": "view",
      "type": "function"
    },
    {
      "inputs": [
        {
          "internalType": "address",
          "name": "spender",
          "type": "address"
        },
        {
          "internalType": "uint256",
          "name": "amount",
          "type": "uint256"
        }
      ],
      "name": "approve",
      "outputs": [
        {
          "internalType": "bool",
          "name": "",
          "type": "bool"
        }
      ],
      "stateMutability": "nonpayable",
      "type": "function"
    },
    {
      "inputs": [
        {
          "internalType": "address",
          "name": "account",
          "type": "address"
        }
      ],
      "name": "balanceOf",
      "outputs": [
        {
          "internalType": "uint256",
          "name": "",
          "type": "uint256"
        }
      ],
      "stateMutability": "view",
      "type": "function"
    },
    {
      "inputs": [
        {
          "internalType": "uint256",
          "name": "amount",
          "type": "uint256"
        }
      ],
      "name": "burn",
      "outputs": [],
      "stateMutability": "nonpayable",
      "type": "function"
    },
    {
      "inputs": [
        {
          "internalType": "address",
          "name": "account",
          "type": "address"
        },
        {
          "internalType": "uint256",
          "name": "amount",
          "type": "uint256"
        }
      ],
      "name": "burnFrom",
      "outputs": [],
      "stateMutability": "nonpayable",
      "type": "function"
    },
    {
      "inputs": [
        {
          "internalType": "address",
          "name": "account",
          "type": "address"
        },
        {
          "internalType": "uint32",
          "name": "pos",
          "type": "uint32"
        }
      ],
      "name": "checkpoints",
      "outputs": [
        {
          "components": [
            {
              "internalType": "uint32",
              "name": "fromBlock",
              "type": "uint32"
            },
            {
              "internalType": "uint224",
              "name": "votes",
              "type": "uint224"
            }
          ],
          "internalType": "struct ERC20VotesUpgradeable.Checkpoint",
          "name": "",
          "type": "tuple"
        }
      ],
      "stateMutability": "view",
      "type": "function"
    },
    {
      "inputs": [],
      "name": "decimals",
      "outputs": [
        {
          "internalType": "uint8",
          "name": "",
          "type": "uint8"
        }
      ],
      "stateMutability": "view",
      "type": "function"
    },
    {
      "inputs": [
        {
          "internalType": "address",
          "name": "spender",
          "type": "address"
        },
        {
          "internalType": "uint256",
          "name": "subtractedValue",
          "type": "uint256"
        }
      ],
      "name": "decreaseAllowance",
      "outputs": [
        {
          "internalType": "bool",
          "name": "",
          "type": "bool"
        }
      ],
      "stateMutability": "nonpayable",
      "type": "function"
    },
    {
      "inputs": [
        {
          "internalType": "address",
          "name": "delegatee",
          "type": "address"
        }
      ],
      "name": "delegate",
      "outputs": [],
      "stateMutability": "nonpayable",
      "type": "function"
    },
    {
      "inputs": [
        {
          "internalType": "address",
          "name": "delegatee",
          "type": "address"
        },
        {
          "internalType": "uint256",
          "name": "nonce",
          "type": "uint256"
        },
        {
          "internalType": "uint256",
          "name": "expiry",
          "type": "uint256"
        },
        {
          "internalType": "uint8",
          "name": "v",
          "type": "uint8"
        },
        {
          "internalType": "bytes32",
          "name": "r",
          "type": "bytes32"
        },
        {
          "internalType": "bytes32",
          "name": "s",
          "type": "bytes32"
        }
      ],
      "name": "delegateBySig",
      "outputs": [],
      "stateMutability": "nonpayable",
      "type": "function"
    },
    {
      "inputs": [
        {
          "internalType": "address",
          "name": "account",
          "type": "address"
        }
      ],
      "name": "delegates",
      "outputs": [
        {
          "internalType": "address",
          "name": "",
          "type": "address"
        }
      ],
      "stateMutability": "view",
      "type": "function"
    },
    {
      "inputs": [
        {
          "internalType": "uint256",
          "name": "blockNumber",
          "type": "uint256"
        }
      ],
      "name": "getPastTotalSupply",
      "outputs": [
        {
          "internalType": "uint256",
          "name": "",
          "type": "uint256"
        }
      ],
      "stateMutability": "view",
      "type": "function"
    },
    {
      "inputs": [
        {
          "internalType": "address",
          "name": "account",
          "type": "address"
        },
        {
          "internalType": "uint256",
          "name": "blockNumber",
          "type": "uint256"
        }
      ],
      "name": "getPastVotes",
      "outputs": [
        {
          "internalType": "uint256",
          "name": "",
          "type": "uint256"
        }
      ],
      "stateMutability": "view",
      "type": "function"
    },
    {
      "inputs": [
        {
          "internalType": "bytes32",
          "name": "role",
          "type": "bytes32"
        }
      ],
      "name": "getRoleAdmin",
      "outputs": [
        {
          "internalType": "bytes32",
          "name": "",
          "type": "bytes32"
        }
      ],
      "stateMutability": "view",
      "type": "function"
    },
    {
      "inputs": [
        {
          "internalType": "address",
          "name": "account",
          "type": "address"
        }
      ],
      "name": "getVotes",
      "outputs": [
        {
          "internalType": "uint256",
          "name": "",
          "type": "uint256"
        }
      ],
      "stateMutability": "view",
      "type": "function"
    },
    {
      "inputs": [
        {
          "internalType": "bytes32",
          "name": "role",
          "type": "bytes32"
        },
        {
          "internalType": "address",
          "name": "account",
          "type": "address"
        }
      ],
      "name": "hasRole",
      "outputs": [
        {
          "internalType": "bool",
          "name": "",
          "type": "bool"
        }
      ],
      "stateMutability": "view",
      "type": "function"
    },
    {
      "inputs": [
        {
          "internalType": "address",
          "name": "spender",
          "type": "address"
        },
        {
          "internalType": "uint256",
          "name": "addedValue",
          "type": "uint256"
        }
      ],
      "name": "increaseAllowance",
      "outputs": [
        {
          "internalType": "bool",
          "name": "",
          "type": "bool"
        }
      ],
      "stateMutability": "nonpayable",
      "type": "function"
    },
    {
      "inputs": [
        {
          "internalType": "address",
          "name": "_accessControlSingleton",
          "type": "address"
        }
      ],
      "name": "initialize",
      "outputs": [],
      "stateMutability": "nonpayable",
      "type": "function"
    },
    {
      "inputs": [
        {
          "internalType": "address",
          "name": "account",
          "type": "address"
        },
        {
          "internalType": "uint256",
          "name": "amount",
          "type": "uint256"
        }
      ],
      "name": "mint",
      "outputs": [],
      "stateMutability": "nonpayable",
      "type": "function"
    },
    {
      "inputs": [],
      "name": "name",
      "outputs": [
        {
          "internalType": "string",
          "name": "",
          "type": "string"
        }
      ],
      "stateMutability": "view",
      "type": "function"
    },
    {
      "inputs": [
        {
          "internalType": "address",
          "name": "owner",
          "type": "address"
        }
      ],
      "name": "nonces",
      "outputs": [
        {
          "internalType": "uint256",
          "name": "",
          "type": "uint256"
        }
      ],
      "stateMutability": "view",
      "type": "function"
    },
    {
      "inputs": [
        {
          "internalType": "address",
          "name": "account",
          "type": "address"
        }
      ],
      "name": "numCheckpoints",
      "outputs": [
        {
          "internalType": "uint32",
          "name": "",
          "type": "uint32"
        }
      ],
      "stateMutability": "view",
      "type": "function"
    },
    {
      "inputs": [
        {
          "internalType": "address",
          "name": "owner",
          "type": "address"
        },
        {
          "internalType": "address",
          "name": "spender",
          "type": "address"
        },
        {
          "internalType": "uint256",
          "name": "value",
          "type": "uint256"
        },
        {
          "internalType": "uint256",
          "name": "deadline",
          "type": "uint256"
        },
        {
          "internalType": "uint8",
          "name": "v",
          "type": "uint8"
        },
        {
          "internalType": "bytes32",
          "name": "r",
          "type": "bytes32"
        },
        {
          "internalType": "bytes32",
          "name": "s",
          "type": "bytes32"
        }
      ],
      "name": "permit",
      "outputs": [],
      "stateMutability": "nonpayable",
      "type": "function"
    },
    {
      "inputs": [
        {
          "internalType": "contract ERC20Upgradeable",
          "name": "token",
          "type": "address"
        }
      ],
      "name": "rescueTokens",
      "outputs": [],
      "stateMutability": "nonpayable",
      "type": "function"
    },
    {
      "inputs": [
        {
          "internalType": "bytes4",
          "name": "interfaceId",
          "type": "bytes4"
        }
      ],
      "name": "supportsInterface",
      "outputs": [
        {
          "internalType": "bool",
          "name": "",
          "type": "bool"
        }
      ],
      "stateMutability": "view",
      "type": "function"
    },
    {
      "inputs": [],
      "name": "symbol",
      "outputs": [
        {
          "internalType": "string",
          "name": "",
          "type": "string"
        }
      ],
      "stateMutability": "view",
      "type": "function"
    },
    {
      "inputs": [],
      "name": "totalSupply",
      "outputs": [
        {
          "internalType": "uint256",
          "name": "",
          "type": "uint256"
        }
      ],
      "stateMutability": "view",
      "type": "function"
    },
    {
      "inputs": [
        {
          "internalType": "address",
          "name": "to",
          "type": "address"
        },
        {
          "internalType": "uint256",
          "name": "amount",
          "type": "uint256"
        }
      ],
      "name": "transfer",
      "outputs": [
        {
          "internalType": "bool",
          "name": "",
          "type": "bool"
        }
      ],
      "stateMutability": "nonpayable",
      "type": "function"
    },
    {
      "inputs": [
        {
          "internalType": "address",
          "name": "from",
          "type": "address"
        },
        {
          "internalType": "address",
          "name": "to",
          "type": "address"
        },
        {
          "internalType": "uint256",
          "name": "amount",
          "type": "uint256"
        }
      ],
      "name": "transferFrom",
      "outputs": [
        {
          "internalType": "bool",
          "name": "",
          "type": "bool"
        }
      ],
      "stateMutability": "nonpayable",
      "type": "function"
    },
    {
      "stateMutability": "payable",
      "type": "receive"
    }
  ],
  "numDeployments": 1,
  "solcInputHash": "681b3f41ca0160b856386fa3e1aab09c",
  "bytecode": "0x608060405234801561001057600080fd5b50612b6a806100206000396000f3fe6080604052600436106101c35760003560e01c8062ae3bf8146101cf57806301ffc9a7146101f157806303ee9f221461022657806306fdde0314610254578063095ea7b31461027657806314626b9d1461029657806318160ddd146102c357806323b872dd146102d8578063248a9ca3146102f8578063313ce5671461031857806332cb6b0c146103345780633644e5151461035357806339509351146103685780633a46b1a81461038857806340c10f19146103a857806342966c68146103c8578063587cde1e146103e85780635c19a95c14610408578063671f7ae2146104285780636fcfff451461045557806370a082311461047557806375071d2a1461049557806375b238fc146104c957806379cc6790146104fd5780637ecebe001461051d5780638e539e8c1461053d57806390d92e761461055d57806391d148541461057b57806395d89b411461059b5780639ab24eb0146105b0578063a217fddf146105d0578063a457c2d7146105e5578063a9059cbb14610605578063c3cda52014610625578063c4d66de814610645578063d505accf14610665578063dd62ed3e14610685578063e9c26518146105d0578063f1127ed8146106a557600080fd5b366101ca57005b600080fd5b3480156101db57600080fd5b506101ef6101ea36600461252c565b6106ef565b005b3480156101fd57600080fd5b5061021161020c366004612549565b6107ea565b60405190151581526020015b60405180910390f35b34801561023257600080fd5b5061013054610247906001600160a01b031681565b60405161021d9190612573565b34801561026057600080fd5b50610269610868565b60405161021d91906125b3565b34801561028257600080fd5b506102116102913660046125e6565b6108fa565b3480156102a257600080fd5b506102b5676765c793fa10079d601a1b81565b60405190815260200161021d565b3480156102cf57600080fd5b506035546102b5565b3480156102e457600080fd5b506102116102f3366004612612565b610912565b34801561030457600080fd5b506102b5610313366004612653565b610936565b34801561032457600080fd5b506040516012815260200161021d565b34801561034057600080fd5b506102b56714adf4b7320334b9601e1b81565b34801561035f57600080fd5b506102b56109a5565b34801561037457600080fd5b506102116103833660046125e6565b6109b4565b34801561039457600080fd5b506102b56103a33660046125e6565b6109d6565b3480156103b457600080fd5b506101ef6103c33660046125e6565b610a20565b3480156103d457600080fd5b506101ef6103e3366004612653565b610af2565b3480156103f457600080fd5b5061024761040336600461252c565b610aff565b34801561041457600080fd5b506101ef61042336600461252c565b610b1d565b34801561043457600080fd5b50610440630784ce0081565b60405163ffffffff909116815260200161021d565b34801561046157600080fd5b5061044061047036600461252c565b610b27565b34801561048157600080fd5b506102b561049036600461252c565b610b49565b3480156104a157600080fd5b506102b57f5719df9ef2c4678b547f89e4f5ae410dbf400fc51cf3ded434c55f6adea2c43f81565b3480156104d557600080fd5b506102b57fa49807205ce4d355092ef5a8a18f56e8913cf4a201fbe287825b095693c2177581565b34801561050957600080fd5b506101ef6105183660046125e6565b610b64565b34801561052957600080fd5b506102b561053836600461252c565b610b79565b34801561054957600080fd5b506102b5610558366004612653565b610b97565b34801561056957600080fd5b50610162546104409063ffffffff1681565b34801561058757600080fd5b5061021161059636600461266c565b610bc3565b3480156105a757600080fd5b50610269610c38565b3480156105bc57600080fd5b506102b56105cb36600461252c565b610c47565b3480156105dc57600080fd5b506102b5600081565b3480156105f157600080fd5b506102116106003660046125e6565b610ccd565b34801561061157600080fd5b506102116106203660046125e6565b610d48565b34801561063157600080fd5b506101ef6106403660046126b2565b610d56565b34801561065157600080fd5b506101ef61066036600461252c565b610e88565b34801561067157600080fd5b506101ef61068036600461270c565b611007565b34801561069157600080fd5b506102b56106a036600461277a565b61116b565b3480156106b157600080fd5b506106c56106c03660046127a8565b611196565b60408051825163ffffffff1681526020928301516001600160e01b0316928101929092520161021d565b60006106fb8133610bc3565b6107255780336040516337c2e34360e01b815260040161071c9291906127df565b60405180910390fd5b6001600160a01b0382166107645760405133904780156108fc02916000818181858888f1935050505015801561075f573d6000803e3d6000fd5b505050565b6107e633836001600160a01b03166370a08231306040518263ffffffff1660e01b81526004016107949190612573565b602060405180830381865afa1580156107b1573d6000803e3d6000fd5b505050506040513d601f19601f820116820180604052508101906107d591906127f6565b6001600160a01b0385169190611219565b5050565b610130546040516301ffc9a760e01b81526001600160e01b0319831660048201526000916001600160a01b0316906301ffc9a790602401602060405180830381865afa15801561083e573d6000803e3d6000fd5b505050506040513d601f19601f82011682018060405250810190610862919061280f565b92915050565b60606036805461087790612831565b80601f01602080910402602001604051908101604052809291908181526020018280546108a390612831565b80156108f05780601f106108c5576101008083540402835291602001916108f0565b820191906000526020600020905b8154815290600101906020018083116108d357829003601f168201915b5050505050905090565b60003361090881858561126b565b5060019392505050565b60003361092085828561138f565b61092b858585611409565b506001949350505050565b6101305460405163248a9ca360e01b8152600481018390526000916001600160a01b03169063248a9ca390602401602060405180830381865afa158015610981573d6000803e3d6000fd5b505050506040513d601f19601f8201168201806040525081019061086291906127f6565b60006109af6115a8565b905090565b6000336109088185856109c7838361116b565b6109d1919061287b565b61126b565b60004382106109f75760405162461bcd60e51b815260040161071c90612893565b6001600160a01b038316600090815260cd60205260409020610a199083611623565b9392505050565b6000610a2c8133610bc3565b610a4d5780336040516337c2e34360e01b815260040161071c9291906127df565b61016254600090610a649063ffffffff16426128ca565b90506000630784ce0063ffffffff831610610a9e57610a99676765c793fa10079d601a1b6714adf4b7320334b9601e1b61287b565b610aab565b6714adf4b7320334b9601e1b5b90508084610ab860355490565b610ac2919061287b565b1115610ae157604051638a164f6360e01b815260040160405180910390fd5b610aeb8585611719565b5050505050565b610afc3382611723565b50565b6001600160a01b03908116600090815260cc60205260409020541690565b610afc338261172d565b6001600160a01b038116600090815260cd6020526040812054610862906117ad565b6001600160a01b031660009081526033602052604090205490565b610b6f82338361138f565b6107e68282611723565b6001600160a01b038116600090815260996020526040812054610862565b6000438210610bb85760405162461bcd60e51b815260040161071c90612893565b61086260ce83611623565b61013054604051632474521560e21b81526000916001600160a01b0316906391d1485490610bf790869086906004016127df565b602060405180830381865afa158015610c14573d6000803e3d6000fd5b505050506040513d601f19601f82011682018060405250810190610a19919061280f565b60606037805461087790612831565b6001600160a01b038116600090815260cd60205260408120548015610cba576001600160a01b038316600090815260cd60205260409020610c896001836128ef565b81548110610c9957610c99612906565b600091825260209091200154600160201b90046001600160e01b0316610cbd565b60005b6001600160e01b03169392505050565b60003381610cdb828661116b565b905083811015610d3b5760405162461bcd60e51b815260206004820152602560248201527f45524332303a2064656372656173656420616c6c6f77616e63652062656c6f77604482015264207a65726f60d81b606482015260840161071c565b61092b828686840361126b565b600033610908818585611409565b83421115610da65760405162461bcd60e51b815260206004820152601d60248201527f4552433230566f7465733a207369676e61747572652065787069726564000000604482015260640161071c565b604080517fe48329057bfd03d55e49b547132e39cffd9c1820ad7b9d4c5307691425d15adf60208201526001600160a01b038816918101919091526060810186905260808101859052600090610e2090610e189060a00160405160208183030381529060405280519060200120611816565b858585611864565b9050610e2b8161188e565b8614610e755760405162461bcd60e51b81526020600482015260196024820152784552433230566f7465733a20696e76616c6964206e6f6e636560381b604482015260640161071c565b610e7f818861172d565b50505050505050565b600054610100900460ff1615808015610ea85750600054600160ff909116105b80610ec95750610eb7306118b6565b158015610ec9575060005460ff166001145b610f2c5760405162461bcd60e51b815260206004820152602e60248201527f496e697469616c697a61626c653a20636f6e747261637420697320616c72656160448201526d191e481a5b9a5d1a585b1a5e995960921b606482015260840161071c565b6000805460ff191660011790558015610f4f576000805461ff0019166101001790555b610f58826118c5565b610fa86040518060400160405280601181526020017029ba30b13632aab734ba102220a7903b1960791b81525060405180604001604052806005815260200164537544414f60d81b81525061190f565b610162805463ffffffff19164263ffffffff1617905580156107e6576000805461ff0019169055604051600181527f7f26b83ff96e1f2b6a682f133852f6798a09c465da95921460cefb38474024989060200160405180910390a15050565b834211156110575760405162461bcd60e51b815260206004820152601d60248201527f45524332305065726d69743a206578706972656420646561646c696e65000000604482015260640161071c565b60007f6e71edae12b1b97f4d1f60370fef10105fa2faae0126114a169c64845d6126c98888886110868c61188e565b6040805160208101969096526001600160a01b0394851690860152929091166060840152608083015260a082015260c0810186905260e00160405160208183030381529060405280519060200120905060006110e182611816565b905060006110f182878787611864565b9050896001600160a01b0316816001600160a01b0316146111545760405162461bcd60e51b815260206004820152601e60248201527f45524332305065726d69743a20696e76616c6964207369676e61747572650000604482015260640161071c565b61115f8a8a8a61126b565b50505050505050505050565b6001600160a01b03918216600090815260346020908152604080832093909416825291909152205490565b60408051808201909152600080825260208201526001600160a01b038316600090815260cd60205260409020805463ffffffff84169081106111da576111da612906565b60009182526020918290206040805180820190915291015463ffffffff81168252600160201b90046001600160e01b0316918101919091529392505050565b604080516001600160a01b038416602482015260448082018490528251808303909101815260649091019091526020810180516001600160e01b031663a9059cbb60e01b17905261075f908490611940565b6001600160a01b0383166112cd5760405162461bcd60e51b8152602060048201526024808201527f45524332303a20617070726f76652066726f6d20746865207a65726f206164646044820152637265737360e01b606482015260840161071c565b6001600160a01b03821661132e5760405162461bcd60e51b815260206004820152602260248201527f45524332303a20617070726f766520746f20746865207a65726f206164647265604482015261737360f01b606482015260840161071c565b6001600160a01b0383811660008181526034602090815260408083209487168084529482529182902085905590518481527f8c5be1e5ebec7d5bd14f71427d1e84f3dd0314c0f7b2291e5b200ac8c7c3b925910160405180910390a3505050565b600061139b848461116b565b9050600019811461140357818110156113f65760405162461bcd60e51b815260206004820152601d60248201527f45524332303a20696e73756666696369656e7420616c6c6f77616e6365000000604482015260640161071c565b611403848484840361126b565b50505050565b6001600160a01b03831661146d5760405162461bcd60e51b815260206004820152602560248201527f45524332303a207472616e736665722066726f6d20746865207a65726f206164604482015264647265737360d81b606482015260840161071c565b6001600160a01b0382166114cf5760405162461bcd60e51b815260206004820152602360248201527f45524332303a207472616e7366657220746f20746865207a65726f206164647260448201526265737360e81b606482015260840161071c565b6001600160a01b038316600090815260336020526040902054818110156115475760405162461bcd60e51b815260206004820152602660248201527f45524332303a207472616e7366657220616d6f756e7420657863656564732062604482015265616c616e636560d01b606482015260840161071c565b6001600160a01b038085166000818152603360205260408082208686039055928616808252908390208054860190559151600080516020612af5833981519152906115959086815260200190565b60405180910390a3611403848484611a12565b60006109af7f8b73c3c69bb8fe3d512ecc4cf759cc79239f7b179b0ffacaa9a75d522b39400f6115d760655490565b6066546040805160208101859052908101839052606081018290524660808201523060a082015260009060c0016040516020818303038152906040528051906020012090509392505050565b81546000908181600581111561167d57600061163e84611a1d565b61164890856128ef565b600088815260209020909150869082015463ffffffff16111561166d5780915061167b565b61167881600161287b565b92505b505b808210156116ca5760006116918383611b05565b600088815260209020909150869082015463ffffffff1611156116b6578091506116c4565b6116c181600161287b565b92505b5061167d565b8015611703576116ed866116df6001846128ef565b600091825260209091200190565b54600160201b90046001600160e01b0316611706565b60005b6001600160e01b03169695505050505050565b6107e68282611b20565b6107e68282611baa565b600061173883610aff565b9050600061174584610b49565b6001600160a01b03858116600081815260cc602052604080822080546001600160a01b031916898616908117909155905194955093928616927f3134e8a2e6d97e929a7e54011ea5485d7d196dd5f0ba4d4ef95803e8e3fc257f9190a4611403828483611bc2565b600063ffffffff8211156118125760405162461bcd60e51b815260206004820152602660248201527f53616665436173743a2076616c756520646f65736e27742066697420696e203360448201526532206269747360d01b606482015260840161071c565b5090565b60006108626118236115a8565b8360405161190160f01b6020820152602281018390526042810182905260009060620160405160208183030381529060405280519060200120905092915050565b600080600061187587878787611cdb565b9150915061188281611d95565b5090505b949350505050565b6001600160a01b03811660009081526099602052604090208054600181018255905b50919050565b6001600160a01b03163b151590565b600054610100900460ff166118ec5760405162461bcd60e51b815260040161071c9061291c565b61013080546001600160a01b0319166001600160a01b0392909216919091179055565b600054610100900460ff166119365760405162461bcd60e51b815260040161071c9061291c565b6107e68282611eda565b6000611995826040518060400160405280602081526020017f5361666545524332303a206c6f772d6c6576656c2063616c6c206661696c6564815250856001600160a01b0316611f1a9092919063ffffffff16565b80519091501561075f57808060200190518101906119b3919061280f565b61075f5760405162461bcd60e51b815260206004820152602a60248201527f5361666545524332303a204552433230206f7065726174696f6e20646964206e6044820152691bdd081cdd58d8d9595960b21b606482015260840161071c565b61075f838383611f29565b600081600003611a2f57506000919050565b60006001611a3c84611f44565b901c6001901b90506001818481611a5557611a55612967565b048201901c90506001818481611a6d57611a6d612967565b048201901c90506001818481611a8557611a85612967565b048201901c90506001818481611a9d57611a9d612967565b048201901c90506001818481611ab557611ab5612967565b048201901c90506001818481611acd57611acd612967565b048201901c90506001818481611ae557611ae5612967565b048201901c9050610a1981828581611aff57611aff612967565b04611fd8565b6000611b14600284841861297d565b610a199084841661287b565b611b2a8282611fee565b6035546001600160e01b031015611b9c5760405162461bcd60e51b815260206004820152603060248201527f4552433230566f7465733a20746f74616c20737570706c79207269736b73206f60448201526f766572666c6f77696e6720766f74657360801b606482015260840161071c565b61140360ce6120a5836120b1565b611bb48282612202565b61140360ce61232b836120b1565b816001600160a01b0316836001600160a01b031614158015611be45750600081115b1561075f576001600160a01b03831615611c60576001600160a01b038316600090815260cd602052604081208190611c1f9061232b856120b1565b91509150846001600160a01b0316600080516020612b158339815191528383604051611c55929190918252602082015260400190565b60405180910390a250505b6001600160a01b0382161561075f576001600160a01b038216600090815260cd602052604081208190611c96906120a5856120b1565b91509150836001600160a01b0316600080516020612b158339815191528383604051611ccc929190918252602082015260400190565b60405180910390a25050505050565b6000806fa2a8918ca85bafe22016d0b997e4df60600160ff1b03831115611d085750600090506003611d8c565b6040805160008082526020820180845289905260ff881692820192909252606081018690526080810185905260019060a0016020604051602081039080840390855afa158015611d5c573d6000803e3d6000fd5b5050604051601f1901519150506001600160a01b038116611d8557600060019250925050611d8c565b9150600090505b94509492505050565b6000816004811115611da957611da961299f565b03611db15750565b6001816004811115611dc557611dc561299f565b03611e0d5760405162461bcd60e51b815260206004820152601860248201527745434453413a20696e76616c6964207369676e617475726560401b604482015260640161071c565b6002816004811115611e2157611e2161299f565b03611e6e5760405162461bcd60e51b815260206004820152601f60248201527f45434453413a20696e76616c6964207369676e6174757265206c656e67746800604482015260640161071c565b6003816004811115611e8257611e8261299f565b03610afc5760405162461bcd60e51b815260206004820152602260248201527f45434453413a20696e76616c6964207369676e6174757265202773272076616c604482015261756560f01b606482015260840161071c565b600054610100900460ff16611f015760405162461bcd60e51b815260040161071c9061291c565b6036611f0d8382612a19565b50603761075f8282612a19565b60606118868484600085612337565b61075f611f3584610aff565b611f3e84610aff565b83611bc2565b600080608083901c15611f5957608092831c92015b604083901c15611f6b57604092831c92015b602083901c15611f7d57602092831c92015b601083901c15611f8f57601092831c92015b600883901c15611fa157600892831c92015b600483901c15611fb357600492831c92015b600283901c15611fc557600292831c92015b600183901c156108625760010192915050565b6000818310611fe75781610a19565b5090919050565b6001600160a01b0382166120445760405162461bcd60e51b815260206004820152601f60248201527f45524332303a206d696e7420746f20746865207a65726f206164647265737300604482015260640161071c565b8060356000828254612056919061287b565b90915550506001600160a01b038216600081815260336020908152604080832080548601905551848152600080516020612af5833981519152910160405180910390a36107e660008383611a12565b6000610a19828461287b565b825460009081908181156120fd576120ce876116df6001856128ef565b60408051808201909152905463ffffffff81168252600160201b90046001600160e01b03166020820152612112565b60408051808201909152600080825260208201525b905080602001516001600160e01b0316935061213284868863ffffffff16565b925060008211801561214a5750805163ffffffff1643145b1561218e5761215883612412565b612167886116df6001866128ef565b80546001600160e01b0392909216600160201b0263ffffffff9092169190911790556121f8565b8660405180604001604052806121a3436117ad565b63ffffffff1681526020016121b786612412565b6001600160e01b039081169091528254600181018455600093845260209384902083519490930151909116600160201b0263ffffffff909316929092179101555b5050935093915050565b6001600160a01b0382166122625760405162461bcd60e51b815260206004820152602160248201527f45524332303a206275726e2066726f6d20746865207a65726f206164647265736044820152607360f81b606482015260840161071c565b6001600160a01b038216600090815260336020526040902054818110156122d65760405162461bcd60e51b815260206004820152602260248201527f45524332303a206275726e20616d6f756e7420657863656564732062616c616e604482015261636560f01b606482015260840161071c565b6001600160a01b0383166000818152603360209081526040808320868603905560358054879003905551858152919291600080516020612af5833981519152910160405180910390a361075f83600084611a12565b6000610a1982846128ef565b6060824710156123985760405162461bcd60e51b815260206004820152602660248201527f416464726573733a20696e73756666696369656e742062616c616e636520666f6044820152651c8818d85b1b60d21b606482015260840161071c565b600080866001600160a01b031685876040516123b49190612ad8565b60006040518083038185875af1925050503d80600081146123f1576040519150601f19603f3d011682016040523d82523d6000602084013e6123f6565b606091505b50915091506124078783838761247b565b979650505050505050565b60006001600160e01b038211156118125760405162461bcd60e51b815260206004820152602760248201527f53616665436173743a2076616c756520646f65736e27742066697420696e20326044820152663234206269747360c81b606482015260840161071c565b606083156124e85782516000036124e157612495856118b6565b6124e15760405162461bcd60e51b815260206004820152601d60248201527f416464726573733a2063616c6c20746f206e6f6e2d636f6e7472616374000000604482015260640161071c565b5081611886565b61188683838151156124fd5781518083602001fd5b8060405162461bcd60e51b815260040161071c91906125b3565b6001600160a01b0381168114610afc57600080fd5b60006020828403121561253e57600080fd5b8135610a1981612517565b60006020828403121561255b57600080fd5b81356001600160e01b031981168114610a1957600080fd5b6001600160a01b0391909116815260200190565b60005b838110156125a257818101518382015260200161258a565b838111156114035750506000910152565b60208152600082518060208401526125d2816040850160208701612587565b601f01601f19169190910160400192915050565b600080604083850312156125f957600080fd5b823561260481612517565b946020939093013593505050565b60008060006060848603121561262757600080fd5b833561263281612517565b9250602084013561264281612517565b929592945050506040919091013590565b60006020828403121561266557600080fd5b5035919050565b6000806040838503121561267f57600080fd5b82359150602083013561269181612517565b809150509250929050565b803560ff811681146126ad57600080fd5b919050565b60008060008060008060c087890312156126cb57600080fd5b86356126d681612517565b955060208701359450604087013593506126f26060880161269c565b92506080870135915060a087013590509295509295509295565b600080600080600080600060e0888a03121561272757600080fd5b873561273281612517565b9650602088013561274281612517565b9550604088013594506060880135935061275e6080890161269c565b925060a0880135915060c0880135905092959891949750929550565b6000806040838503121561278d57600080fd5b823561279881612517565b9150602083013561269181612517565b600080604083850312156127bb57600080fd5b82356127c681612517565b9150602083013563ffffffff8116811461269157600080fd5b9182526001600160a01b0316602082015260400190565b60006020828403121561280857600080fd5b5051919050565b60006020828403121561282157600080fd5b81518015158114610a1957600080fd5b600181811c9082168061284557607f821691505b6020821081036118b057634e487b7160e01b600052602260045260246000fd5b634e487b7160e01b600052601160045260246000fd5b6000821982111561288e5761288e612865565b500190565b6020808252601f908201527f4552433230566f7465733a20626c6f636b206e6f7420796574206d696e656400604082015260600190565b600063ffffffff838116908316818110156128e7576128e7612865565b039392505050565b60008282101561290157612901612865565b500390565b634e487b7160e01b600052603260045260246000fd5b6020808252602b908201527f496e697469616c697a61626c653a20636f6e7472616374206973206e6f74206960408201526a6e697469616c697a696e6760a81b606082015260800190565b634e487b7160e01b600052601260045260246000fd5b60008261299a57634e487b7160e01b600052601260045260246000fd5b500490565b634e487b7160e01b600052602160045260246000fd5b634e487b7160e01b600052604160045260246000fd5b601f82111561075f57600081815260208120601f850160051c810160208610156129f25750805b601f850160051c820191505b81811015612a11578281556001016129fe565b505050505050565b81516001600160401b03811115612a3257612a326129b5565b612a4681612a408454612831565b846129cb565b602080601f831160018114612a7b5760008415612a635750858301515b600019600386901b1c1916600185901b178555612a11565b600085815260208120601f198616915b82811015612aaa57888601518255948401946001909101908401612a8b565b5085821015612ac85787850151600019600388901b60f8161c191681555b5050505050600190811b01905550565b60008251612aea818460208701612587565b919091019291505056feddf252ad1be2c89b69c2b068fc378daa952ba7f163c4a11628f55a4df523b3efdec2bacdd2f05b59de34da9b523dff8be42e5e38e818c82fdb0bae774387a724a2646970667358221220857ee68193ee27ad5f4dd14114a8974cd71ce589880802b7696189cd8e2f6db864736f6c634300080f0033",
  "devdoc": {
    "kind": "dev",
    "methods": {
      "DOMAIN_SEPARATOR()": {
        "details": "See {IERC20Permit-DOMAIN_SEPARATOR}."
      },
      "allowance(address,address)": {
        "details": "See {IERC20-allowance}."
      },
      "approve(address,uint256)": {
        "details": "See {IERC20-approve}. NOTE: If `amount` is the maximum `uint256`, the allowance is not updated on `transferFrom`. This is semantically equivalent to an infinite approval. Requirements: - `spender` cannot be the zero address."
      },
      "balanceOf(address)": {
        "details": "See {IERC20-balanceOf}."
      },
      "burn(uint256)": {
        "details": "Destroys `amount` tokens from the caller. See {ERC20-_burn}."
      },
      "burnFrom(address,uint256)": {
        "details": "Destroys `amount` tokens from `account`, deducting from the caller's allowance. See {ERC20-_burn} and {ERC20-allowance}. Requirements: - the caller must have allowance for ``accounts``'s tokens of at least `amount`."
      },
      "checkpoints(address,uint32)": {
        "details": "Get the `pos`-th checkpoint for `account`."
      },
      "decimals()": {
        "details": "Returns the number of decimals used to get its user representation. For example, if `decimals` equals `2`, a balance of `505` tokens should be displayed to a user as `5.05` (`505 / 10 ** 2`). Tokens usually opt for a value of 18, imitating the relationship between Ether and Wei. This is the value {ERC20} uses, unless this function is overridden; NOTE: This information is only used for _display_ purposes: it in no way affects any of the arithmetic of the contract, including {IERC20-balanceOf} and {IERC20-transfer}."
      },
      "decreaseAllowance(address,uint256)": {
        "details": "Atomically decreases the allowance granted to `spender` by the caller. This is an alternative to {approve} that can be used as a mitigation for problems described in {IERC20-approve}. Emits an {Approval} event indicating the updated allowance. Requirements: - `spender` cannot be the zero address. - `spender` must have allowance for the caller of at least `subtractedValue`."
      },
      "delegate(address)": {
        "details": "Delegate votes from the sender to `delegatee`."
      },
      "delegateBySig(address,uint256,uint256,uint8,bytes32,bytes32)": {
        "details": "Delegates votes from signer to `delegatee`"
      },
      "delegates(address)": {
        "details": "Get the address `account` is currently delegating to."
      },
      "getPastTotalSupply(uint256)": {
        "details": "Retrieve the `totalSupply` at the end of `blockNumber`. Note, this value is the sum of all balances. It is but NOT the sum of all the delegated votes! Requirements: - `blockNumber` must have been already mined"
      },
      "getPastVotes(address,uint256)": {
        "details": "Retrieve the number of votes for `account` at the end of `blockNumber`. Requirements: - `blockNumber` must have been already mined"
      },
      "getVotes(address)": {
        "details": "Gets the current votes balance for `account`"
      },
      "increaseAllowance(address,uint256)": {
        "details": "Atomically increases the allowance granted to `spender` by the caller. This is an alternative to {approve} that can be used as a mitigation for problems described in {IERC20-approve}. Emits an {Approval} event indicating the updated allowance. Requirements: - `spender` cannot be the zero address."
      },
      "name()": {
        "details": "Returns the name of the token."
      },
      "nonces(address)": {
        "details": "See {IERC20Permit-nonces}."
      },
      "numCheckpoints(address)": {
        "details": "Get number of checkpoints for `account`."
      },
      "permit(address,address,uint256,uint256,uint8,bytes32,bytes32)": {
        "details": "See {IERC20Permit-permit}."
      },
      "symbol()": {
        "details": "Returns the symbol of the token, usually a shorter version of the name."
      },
      "totalSupply()": {
        "details": "See {IERC20-totalSupply}."
      },
      "transfer(address,uint256)": {
        "details": "See {IERC20-transfer}. Requirements: - `to` cannot be the zero address. - the caller must have a balance of at least `amount`."
      },
      "transferFrom(address,address,uint256)": {
        "details": "See {IERC20-transferFrom}. Emits an {Approval} event indicating the updated allowance. This is not required by the EIP. See the note at the beginning of {ERC20}. NOTE: Does not update the allowance if the current allowance is the maximum `uint256`. Requirements: - `from` and `to` cannot be the zero address. - `from` must have a balance of at least `amount`. - the caller must have allowance for ``from``'s tokens of at least `amount`."
      }
    },
    "stateVariables": {
      "__gap": {
        "details": "This empty reserved space is put in place to allow future versions to add new variables without shifting down storage in the inheritance chain. See https://docs.openzeppelin.com/contracts/4.x/upgradeable#storage_gaps"
      }
    },
    "title": "Governance token for StableUnit Decentralized Autonomous Organisation",
    "version": 1
  },
  "userdoc": {
    "kind": "user",
    "methods": {
      "rescueTokens(address)": {
        "notice": "The DAO can take away tokens accidentally sent to the contract."
      }
    },
    "version": 1
  },
  "storageLayout": {
    "storage": [
      {
        "astId": 1102,
        "contract": "contracts/SuDAOv2.sol:SuDAOv2",
        "label": "_initialized",
        "offset": 0,
        "slot": "0",
        "type": "t_uint8"
      },
      {
        "astId": 1105,
        "contract": "contracts/SuDAOv2.sol:SuDAOv2",
        "label": "_initializing",
        "offset": 1,
        "slot": "0",
        "type": "t_bool"
      },
      {
        "astId": 6497,
        "contract": "contracts/SuDAOv2.sol:SuDAOv2",
        "label": "__gap",
        "offset": 0,
        "slot": "1",
        "type": "t_array(t_uint256)50_storage"
      },
      {
        "astId": 1283,
        "contract": "contracts/SuDAOv2.sol:SuDAOv2",
        "label": "_balances",
        "offset": 0,
        "slot": "51",
        "type": "t_mapping(t_address,t_uint256)"
      },
      {
        "astId": 1289,
        "contract": "contracts/SuDAOv2.sol:SuDAOv2",
        "label": "_allowances",
        "offset": 0,
        "slot": "52",
        "type": "t_mapping(t_address,t_mapping(t_address,t_uint256))"
      },
      {
        "astId": 1291,
        "contract": "contracts/SuDAOv2.sol:SuDAOv2",
        "label": "_totalSupply",
        "offset": 0,
        "slot": "53",
        "type": "t_uint256"
      },
      {
        "astId": 1293,
        "contract": "contracts/SuDAOv2.sol:SuDAOv2",
        "label": "_name",
        "offset": 0,
        "slot": "54",
        "type": "t_string_storage"
      },
      {
        "astId": 1295,
        "contract": "contracts/SuDAOv2.sol:SuDAOv2",
        "label": "_symbol",
        "offset": 0,
        "slot": "55",
        "type": "t_string_storage"
      },
      {
        "astId": 1875,
        "contract": "contracts/SuDAOv2.sol:SuDAOv2",
        "label": "__gap",
        "offset": 0,
        "slot": "56",
        "type": "t_array(t_uint256)45_storage"
      },
      {
        "astId": 7117,
        "contract": "contracts/SuDAOv2.sol:SuDAOv2",
        "label": "_HASHED_NAME",
        "offset": 0,
        "slot": "101",
        "type": "t_bytes32"
      },
      {
        "astId": 7119,
        "contract": "contracts/SuDAOv2.sol:SuDAOv2",
        "label": "_HASHED_VERSION",
        "offset": 0,
        "slot": "102",
        "type": "t_bytes32"
      },
      {
        "astId": 7257,
        "contract": "contracts/SuDAOv2.sol:SuDAOv2",
        "label": "__gap",
        "offset": 0,
        "slot": "103",
        "type": "t_array(t_uint256)50_storage"
      },
      {
        "astId": 2786,
        "contract": "contracts/SuDAOv2.sol:SuDAOv2",
        "label": "_nonces",
        "offset": 0,
        "slot": "153",
        "type": "t_mapping(t_address,t_struct(Counter)6504_storage)"
      },
      {
        "astId": 2794,
        "contract": "contracts/SuDAOv2.sol:SuDAOv2",
        "label": "_PERMIT_TYPEHASH_DEPRECATED_SLOT",
        "offset": 0,
        "slot": "154",
        "type": "t_bytes32"
      },
      {
        "astId": 2950,
        "contract": "contracts/SuDAOv2.sol:SuDAOv2",
        "label": "__gap",
        "offset": 0,
        "slot": "155",
        "type": "t_array(t_uint256)49_storage"
      },
      {
        "astId": 2059,
        "contract": "contracts/SuDAOv2.sol:SuDAOv2",
        "label": "_delegates",
        "offset": 0,
        "slot": "204",
        "type": "t_mapping(t_address,t_address)"
      },
      {
        "astId": 2065,
        "contract": "contracts/SuDAOv2.sol:SuDAOv2",
        "label": "_checkpoints",
        "offset": 0,
        "slot": "205",
        "type": "t_mapping(t_address,t_array(t_struct(Checkpoint)2050_storage)dyn_storage)"
      },
      {
        "astId": 2069,
        "contract": "contracts/SuDAOv2.sol:SuDAOv2",
        "label": "_totalSupplyCheckpoints",
        "offset": 0,
        "slot": "206",
        "type": "t_array(t_struct(Checkpoint)2050_storage)dyn_storage"
      },
      {
        "astId": 2734,
        "contract": "contracts/SuDAOv2.sol:SuDAOv2",
        "label": "__gap",
        "offset": 0,
        "slot": "207",
        "type": "t_array(t_uint256)47_storage"
      },
      {
        "astId": 2017,
        "contract": "contracts/SuDAOv2.sol:SuDAOv2",
        "label": "__gap",
        "offset": 0,
        "slot": "254",
        "type": "t_array(t_uint256)50_storage"
      },
      {
        "astId": 24060,
        "contract": "contracts/SuDAOv2.sol:SuDAOv2",
        "label": "ACCESS_CONTROL_SINGLETON",
        "offset": 0,
        "slot": "304",
        "type": "t_contract(ISuAccessControl)25627"
      },
      {
        "astId": 24147,
        "contract": "contracts/SuDAOv2.sol:SuDAOv2",
        "label": "__gap",
        "offset": 0,
        "slot": "305",
        "type": "t_array(t_uint256)49_storage"
      },
      {
        "astId": 23189,
        "contract": "contracts/SuDAOv2.sol:SuDAOv2",
        "label": "DEPLOY_TIME",
        "offset": 0,
        "slot": "354",
        "type": "t_uint32"
      },
      {
        "astId": 23382,
        "contract": "contracts/SuDAOv2.sol:SuDAOv2",
        "label": "__gap",
        "offset": 0,
        "slot": "355",
        "type": "t_array(t_uint256)49_storage"
      }
    ],
    "types": {
      "t_address": {
        "encoding": "inplace",
        "label": "address",
        "numberOfBytes": "20"
      },
      "t_array(t_struct(Checkpoint)2050_storage)dyn_storage": {
        "base": "t_struct(Checkpoint)2050_storage",
        "encoding": "dynamic_array",
        "label": "struct ERC20VotesUpgradeable.Checkpoint[]",
        "numberOfBytes": "32"
      },
      "t_array(t_uint256)45_storage": {
        "base": "t_uint256",
        "encoding": "inplace",
        "label": "uint256[45]",
        "numberOfBytes": "1440"
      },
      "t_array(t_uint256)47_storage": {
        "base": "t_uint256",
        "encoding": "inplace",
        "label": "uint256[47]",
        "numberOfBytes": "1504"
      },
      "t_array(t_uint256)49_storage": {
        "base": "t_uint256",
        "encoding": "inplace",
        "label": "uint256[49]",
        "numberOfBytes": "1568"
      },
      "t_array(t_uint256)50_storage": {
        "base": "t_uint256",
        "encoding": "inplace",
        "label": "uint256[50]",
        "numberOfBytes": "1600"
      },
      "t_bool": {
        "encoding": "inplace",
        "label": "bool",
        "numberOfBytes": "1"
      },
      "t_bytes32": {
        "encoding": "inplace",
        "label": "bytes32",
        "numberOfBytes": "32"
      },
      "t_contract(ISuAccessControl)25627": {
        "encoding": "inplace",
        "label": "contract ISuAccessControl",
        "numberOfBytes": "20"
      },
      "t_mapping(t_address,t_address)": {
        "encoding": "mapping",
        "key": "t_address",
        "label": "mapping(address => address)",
        "numberOfBytes": "32",
        "value": "t_address"
      },
      "t_mapping(t_address,t_array(t_struct(Checkpoint)2050_storage)dyn_storage)": {
        "encoding": "mapping",
        "key": "t_address",
        "label": "mapping(address => struct ERC20VotesUpgradeable.Checkpoint[])",
        "numberOfBytes": "32",
        "value": "t_array(t_struct(Checkpoint)2050_storage)dyn_storage"
      },
      "t_mapping(t_address,t_mapping(t_address,t_uint256))": {
        "encoding": "mapping",
        "key": "t_address",
        "label": "mapping(address => mapping(address => uint256))",
        "numberOfBytes": "32",
        "value": "t_mapping(t_address,t_uint256)"
      },
      "t_mapping(t_address,t_struct(Counter)6504_storage)": {
        "encoding": "mapping",
        "key": "t_address",
        "label": "mapping(address => struct CountersUpgradeable.Counter)",
        "numberOfBytes": "32",
        "value": "t_struct(Counter)6504_storage"
      },
      "t_mapping(t_address,t_uint256)": {
        "encoding": "mapping",
        "key": "t_address",
        "label": "mapping(address => uint256)",
        "numberOfBytes": "32",
        "value": "t_uint256"
      },
      "t_string_storage": {
        "encoding": "bytes",
        "label": "string",
        "numberOfBytes": "32"
      },
      "t_struct(Checkpoint)2050_storage": {
        "encoding": "inplace",
        "label": "struct ERC20VotesUpgradeable.Checkpoint",
        "members": [
          {
            "astId": 2047,
            "contract": "contracts/SuDAOv2.sol:SuDAOv2",
            "label": "fromBlock",
            "offset": 0,
            "slot": "0",
            "type": "t_uint32"
          },
          {
            "astId": 2049,
            "contract": "contracts/SuDAOv2.sol:SuDAOv2",
            "label": "votes",
            "offset": 4,
            "slot": "0",
            "type": "t_uint224"
          }
        ],
        "numberOfBytes": "32"
      },
      "t_struct(Counter)6504_storage": {
        "encoding": "inplace",
        "label": "struct CountersUpgradeable.Counter",
        "members": [
          {
            "astId": 6503,
            "contract": "contracts/SuDAOv2.sol:SuDAOv2",
            "label": "_value",
            "offset": 0,
            "slot": "0",
            "type": "t_uint256"
          }
        ],
        "numberOfBytes": "32"
      },
      "t_uint224": {
        "encoding": "inplace",
        "label": "uint224",
        "numberOfBytes": "28"
      },
      "t_uint256": {
        "encoding": "inplace",
        "label": "uint256",
        "numberOfBytes": "32"
      },
      "t_uint32": {
        "encoding": "inplace",
        "label": "uint32",
        "numberOfBytes": "4"
      },
      "t_uint8": {
        "encoding": "inplace",
        "label": "uint8",
        "numberOfBytes": "1"
      }
    }
  }
}