{
  "address": "0x2B8ee3e5A8ed8FbFba0e0d307eC3825dC8a2f68b",
  "abi": [
    {
      "inputs": [
        {
          "internalType": "bytes32",
          "name": "role",
          "type": "bytes32"
        },
        {
          "internalType": "address",
          "name": "msgSender",
          "type": "address"
        }
      ],
      "name": "OnlyRoleError",
      "type": "error"
    },
    {
      "anonymous": false,
      "inputs": [
        {
          "indexed": true,
          "internalType": "address",
          "name": "owner",
          "type": "address"
        },
        {
          "indexed": true,
          "internalType": "address",
          "name": "spender",
          "type": "address"
        },
        {
          "indexed": false,
          "internalType": "uint256",
          "name": "value",
          "type": "uint256"
        }
      ],
      "name": "Approval",
      "type": "event"
    },
    {
      "anonymous": false,
      "inputs": [
        {
          "indexed": true,
          "internalType": "address",
          "name": "delegator",
          "type": "address"
        },
        {
          "indexed": true,
          "internalType": "address",
          "name": "fromDelegate",
          "type": "address"
        },
        {
          "indexed": true,
          "internalType": "address",
          "name": "toDelegate",
          "type": "address"
        }
      ],
      "name": "DelegateChanged",
      "type": "event"
    },
    {
      "anonymous": false,
      "inputs": [
        {
          "indexed": true,
          "internalType": "address",
          "name": "delegate",
          "type": "address"
        },
        {
          "indexed": false,
          "internalType": "uint256",
          "name": "previousBalance",
          "type": "uint256"
        },
        {
          "indexed": false,
          "internalType": "uint256",
          "name": "newBalance",
          "type": "uint256"
        }
      ],
      "name": "DelegateVotesChanged",
      "type": "event"
    },
    {
      "anonymous": false,
      "inputs": [
        {
          "indexed": false,
          "internalType": "uint8",
          "name": "version",
          "type": "uint8"
        }
      ],
      "name": "Initialized",
      "type": "event"
    },
    {
      "anonymous": false,
      "inputs": [
        {
          "indexed": true,
          "internalType": "bytes32",
          "name": "role",
          "type": "bytes32"
        },
        {
          "indexed": true,
          "internalType": "bytes32",
          "name": "previousAdminRole",
          "type": "bytes32"
        },
        {
          "indexed": true,
          "internalType": "bytes32",
          "name": "newAdminRole",
          "type": "bytes32"
        }
      ],
      "name": "RoleAdminChanged",
      "type": "event"
    },
    {
      "anonymous": false,
      "inputs": [
        {
          "indexed": true,
          "internalType": "bytes32",
          "name": "role",
          "type": "bytes32"
        },
        {
          "indexed": true,
          "internalType": "address",
          "name": "account",
          "type": "address"
        },
        {
          "indexed": true,
          "internalType": "address",
          "name": "sender",
          "type": "address"
        }
      ],
      "name": "RoleGranted",
      "type": "event"
    },
    {
      "anonymous": false,
      "inputs": [
        {
          "indexed": true,
          "internalType": "bytes32",
          "name": "role",
          "type": "bytes32"
        },
        {
          "indexed": true,
          "internalType": "address",
          "name": "account",
          "type": "address"
        },
        {
          "indexed": true,
          "internalType": "address",
          "name": "sender",
          "type": "address"
        }
      ],
      "name": "RoleRevoked",
      "type": "event"
    },
    {
      "anonymous": false,
      "inputs": [
        {
          "indexed": true,
          "internalType": "address",
          "name": "from",
          "type": "address"
        },
        {
          "indexed": true,
          "internalType": "address",
          "name": "to",
          "type": "address"
        },
        {
          "indexed": false,
          "internalType": "uint256",
          "name": "value",
          "type": "uint256"
        }
      ],
      "name": "Transfer",
      "type": "event"
    },
    {
      "inputs": [],
      "name": "ACCESS_CONTROL_SINGLETON",
      "outputs": [
        {
          "internalType": "contract IAccessControlUpgradeable",
          "name": "",
          "type": "address"
        }
      ],
      "stateMutability": "view",
      "type": "function"
    },
    {
      "inputs": [],
      "name": "ADMIN_ROLE",
      "outputs": [
        {
          "internalType": "bytes32",
          "name": "",
          "type": "bytes32"
        }
      ],
      "stateMutability": "view",
      "type": "function"
    },
    {
      "inputs": [],
      "name": "COMMUNITY_ADMIN_ROLE",
      "outputs": [
        {
          "internalType": "bytes32",
          "name": "",
          "type": "bytes32"
        }
      ],
      "stateMutability": "view",
      "type": "function"
    },
    {
      "inputs": [],
      "name": "DAO_ROLE",
      "outputs": [
        {
          "internalType": "bytes32",
          "name": "",
          "type": "bytes32"
        }
      ],
      "stateMutability": "view",
      "type": "function"
    },
    {
      "inputs": [],
      "name": "DEFAULT_ADMIN_ROLE",
      "outputs": [
        {
          "internalType": "bytes32",
          "name": "",
          "type": "bytes32"
        }
      ],
      "stateMutability": "view",
      "type": "function"
    },
    {
      "inputs": [],
      "name": "DOMAIN_SEPARATOR",
      "outputs": [
        {
          "internalType": "bytes32",
          "name": "",
          "type": "bytes32"
        }
      ],
      "stateMutability": "view",
      "type": "function"
    },
    {
      "inputs": [],
      "name": "MAX_SUPPLY",
      "outputs": [
        {
          "internalType": "uint256",
          "name": "",
          "type": "uint256"
        }
      ],
      "stateMutability": "view",
      "type": "function"
    },
    {
      "inputs": [
        {
          "internalType": "address",
          "name": "owner",
          "type": "address"
        },
        {
          "internalType": "address",
          "name": "spender",
          "type": "address"
        }
      ],
      "name": "allowance",
      "outputs": [
        {
          "internalType": "uint256",
          "name": "",
          "type": "uint256"
        }
      ],
      "stateMutability": "view",
      "type": "function"
    },
    {
      "inputs": [
        {
          "internalType": "address",
          "name": "spender",
          "type": "address"
        },
        {
          "internalType": "uint256",
          "name": "amount",
          "type": "uint256"
        }
      ],
      "name": "approve",
      "outputs": [
        {
          "internalType": "bool",
          "name": "",
          "type": "bool"
        }
      ],
      "stateMutability": "nonpayable",
      "type": "function"
    },
    {
      "inputs": [
        {
          "internalType": "address",
          "name": "account",
          "type": "address"
        }
      ],
      "name": "balanceOf",
      "outputs": [
        {
          "internalType": "uint256",
          "name": "",
          "type": "uint256"
        }
      ],
      "stateMutability": "view",
      "type": "function"
    },
    {
      "inputs": [
        {
          "internalType": "uint256",
          "name": "amount",
          "type": "uint256"
        }
      ],
      "name": "burn",
      "outputs": [],
      "stateMutability": "nonpayable",
      "type": "function"
    },
    {
      "inputs": [
        {
          "internalType": "address",
          "name": "account",
          "type": "address"
        },
        {
          "internalType": "uint256",
          "name": "amount",
          "type": "uint256"
        }
      ],
      "name": "burnFrom",
      "outputs": [],
      "stateMutability": "nonpayable",
      "type": "function"
    },
    {
      "inputs": [
        {
          "internalType": "address",
          "name": "account",
          "type": "address"
        },
        {
          "internalType": "uint32",
          "name": "pos",
          "type": "uint32"
        }
      ],
      "name": "checkpoints",
      "outputs": [
        {
          "components": [
            {
              "internalType": "uint32",
              "name": "fromBlock",
              "type": "uint32"
            },
            {
              "internalType": "uint224",
              "name": "votes",
              "type": "uint224"
            }
          ],
          "internalType": "struct ERC20VotesUpgradeable.Checkpoint",
          "name": "",
          "type": "tuple"
        }
      ],
      "stateMutability": "view",
      "type": "function"
    },
    {
      "inputs": [],
      "name": "decimals",
      "outputs": [
        {
          "internalType": "uint8",
          "name": "",
          "type": "uint8"
        }
      ],
      "stateMutability": "view",
      "type": "function"
    },
    {
      "inputs": [
        {
          "internalType": "address",
          "name": "spender",
          "type": "address"
        },
        {
          "internalType": "uint256",
          "name": "subtractedValue",
          "type": "uint256"
        }
      ],
      "name": "decreaseAllowance",
      "outputs": [
        {
          "internalType": "bool",
          "name": "",
          "type": "bool"
        }
      ],
      "stateMutability": "nonpayable",
      "type": "function"
    },
    {
      "inputs": [
        {
          "internalType": "address",
          "name": "delegatee",
          "type": "address"
        }
      ],
      "name": "delegate",
      "outputs": [],
      "stateMutability": "nonpayable",
      "type": "function"
    },
    {
      "inputs": [
        {
          "internalType": "address",
          "name": "delegatee",
          "type": "address"
        },
        {
          "internalType": "uint256",
          "name": "nonce",
          "type": "uint256"
        },
        {
          "internalType": "uint256",
          "name": "expiry",
          "type": "uint256"
        },
        {
          "internalType": "uint8",
          "name": "v",
          "type": "uint8"
        },
        {
          "internalType": "bytes32",
          "name": "r",
          "type": "bytes32"
        },
        {
          "internalType": "bytes32",
          "name": "s",
          "type": "bytes32"
        }
      ],
      "name": "delegateBySig",
      "outputs": [],
      "stateMutability": "nonpayable",
      "type": "function"
    },
    {
      "inputs": [
        {
          "internalType": "address",
          "name": "account",
          "type": "address"
        }
      ],
      "name": "delegates",
      "outputs": [
        {
          "internalType": "address",
          "name": "",
          "type": "address"
        }
      ],
      "stateMutability": "view",
      "type": "function"
    },
    {
      "inputs": [
        {
          "internalType": "uint256",
          "name": "blockNumber",
          "type": "uint256"
        }
      ],
      "name": "getPastTotalSupply",
      "outputs": [
        {
          "internalType": "uint256",
          "name": "",
          "type": "uint256"
        }
      ],
      "stateMutability": "view",
      "type": "function"
    },
    {
      "inputs": [
        {
          "internalType": "address",
          "name": "account",
          "type": "address"
        },
        {
          "internalType": "uint256",
          "name": "blockNumber",
          "type": "uint256"
        }
      ],
      "name": "getPastVotes",
      "outputs": [
        {
          "internalType": "uint256",
          "name": "",
          "type": "uint256"
        }
      ],
      "stateMutability": "view",
      "type": "function"
    },
    {
      "inputs": [
        {
          "internalType": "bytes32",
          "name": "role",
          "type": "bytes32"
        }
      ],
      "name": "getRoleAdmin",
      "outputs": [
        {
          "internalType": "bytes32",
          "name": "",
          "type": "bytes32"
        }
      ],
      "stateMutability": "view",
      "type": "function"
    },
    {
      "inputs": [
        {
          "internalType": "address",
          "name": "account",
          "type": "address"
        }
      ],
      "name": "getVotes",
      "outputs": [
        {
          "internalType": "uint256",
          "name": "",
          "type": "uint256"
        }
      ],
      "stateMutability": "view",
      "type": "function"
    },
    {
      "inputs": [
        {
          "internalType": "bytes32",
          "name": "role",
          "type": "bytes32"
        },
        {
          "internalType": "address",
          "name": "account",
          "type": "address"
        }
      ],
      "name": "grantRole",
      "outputs": [],
      "stateMutability": "nonpayable",
      "type": "function"
    },
    {
      "inputs": [
        {
          "internalType": "bytes32",
          "name": "role",
          "type": "bytes32"
        },
        {
          "internalType": "address",
          "name": "account",
          "type": "address"
        }
      ],
      "name": "hasRole",
      "outputs": [
        {
          "internalType": "bool",
          "name": "",
          "type": "bool"
        }
      ],
      "stateMutability": "view",
      "type": "function"
    },
    {
      "inputs": [
        {
          "internalType": "address",
          "name": "spender",
          "type": "address"
        },
        {
          "internalType": "uint256",
          "name": "addedValue",
          "type": "uint256"
        }
      ],
      "name": "increaseAllowance",
      "outputs": [
        {
          "internalType": "bool",
          "name": "",
          "type": "bool"
        }
      ],
      "stateMutability": "nonpayable",
      "type": "function"
    },
    {
      "inputs": [
        {
          "internalType": "address",
          "name": "_accessControlSingleton",
          "type": "address"
        },
        {
          "internalType": "uint256",
          "name": "_initMint",
          "type": "uint256"
        }
      ],
      "name": "initialize",
      "outputs": [],
      "stateMutability": "nonpayable",
      "type": "function"
    },
    {
      "inputs": [
        {
          "internalType": "address",
          "name": "account",
          "type": "address"
        },
        {
          "internalType": "uint256",
          "name": "amount",
          "type": "uint256"
        }
      ],
      "name": "mint",
      "outputs": [],
      "stateMutability": "nonpayable",
      "type": "function"
    },
    {
      "inputs": [],
      "name": "name",
      "outputs": [
        {
          "internalType": "string",
          "name": "",
          "type": "string"
        }
      ],
      "stateMutability": "view",
      "type": "function"
    },
    {
      "inputs": [
        {
          "internalType": "address",
          "name": "owner",
          "type": "address"
        }
      ],
      "name": "nonces",
      "outputs": [
        {
          "internalType": "uint256",
          "name": "",
          "type": "uint256"
        }
      ],
      "stateMutability": "view",
      "type": "function"
    },
    {
      "inputs": [
        {
          "internalType": "address",
          "name": "account",
          "type": "address"
        }
      ],
      "name": "numCheckpoints",
      "outputs": [
        {
          "internalType": "uint32",
          "name": "",
          "type": "uint32"
        }
      ],
      "stateMutability": "view",
      "type": "function"
    },
    {
      "inputs": [
        {
          "internalType": "address",
          "name": "owner",
          "type": "address"
        },
        {
          "internalType": "address",
          "name": "spender",
          "type": "address"
        },
        {
          "internalType": "uint256",
          "name": "value",
          "type": "uint256"
        },
        {
          "internalType": "uint256",
          "name": "deadline",
          "type": "uint256"
        },
        {
          "internalType": "uint8",
          "name": "v",
          "type": "uint8"
        },
        {
          "internalType": "bytes32",
          "name": "r",
          "type": "bytes32"
        },
        {
          "internalType": "bytes32",
          "name": "s",
          "type": "bytes32"
        }
      ],
      "name": "permit",
      "outputs": [],
      "stateMutability": "nonpayable",
      "type": "function"
    },
    {
      "inputs": [
        {
          "internalType": "bytes32",
          "name": "role",
          "type": "bytes32"
        },
        {
          "internalType": "address",
          "name": "account",
          "type": "address"
        }
      ],
      "name": "renounceRole",
      "outputs": [],
      "stateMutability": "nonpayable",
      "type": "function"
    },
    {
      "inputs": [
        {
          "internalType": "contract ERC20Upgradeable",
          "name": "token",
          "type": "address"
        }
      ],
      "name": "rescueTokens",
      "outputs": [],
      "stateMutability": "nonpayable",
      "type": "function"
    },
    {
      "inputs": [
        {
          "internalType": "bytes32",
          "name": "role",
          "type": "bytes32"
        },
        {
          "internalType": "address",
          "name": "account",
          "type": "address"
        }
      ],
      "name": "revokeRole",
      "outputs": [],
      "stateMutability": "nonpayable",
      "type": "function"
    },
    {
      "inputs": [
        {
          "internalType": "bytes4",
          "name": "interfaceId",
          "type": "bytes4"
        }
      ],
      "name": "supportsInterface",
      "outputs": [
        {
          "internalType": "bool",
          "name": "",
          "type": "bool"
        }
      ],
      "stateMutability": "view",
      "type": "function"
    },
    {
      "inputs": [],
      "name": "symbol",
      "outputs": [
        {
          "internalType": "string",
          "name": "",
          "type": "string"
        }
      ],
      "stateMutability": "view",
      "type": "function"
    },
    {
      "inputs": [],
      "name": "totalSupply",
      "outputs": [
        {
          "internalType": "uint256",
          "name": "",
          "type": "uint256"
        }
      ],
      "stateMutability": "view",
      "type": "function"
    },
    {
      "inputs": [
        {
          "internalType": "address",
          "name": "to",
          "type": "address"
        },
        {
          "internalType": "uint256",
          "name": "amount",
          "type": "uint256"
        }
      ],
      "name": "transfer",
      "outputs": [
        {
          "internalType": "bool",
          "name": "",
          "type": "bool"
        }
      ],
      "stateMutability": "nonpayable",
      "type": "function"
    },
    {
      "inputs": [
        {
          "internalType": "address",
          "name": "from",
          "type": "address"
        },
        {
          "internalType": "address",
          "name": "to",
          "type": "address"
        },
        {
          "internalType": "uint256",
          "name": "amount",
          "type": "uint256"
        }
      ],
      "name": "transferFrom",
      "outputs": [
        {
          "internalType": "bool",
          "name": "",
          "type": "bool"
        }
      ],
      "stateMutability": "nonpayable",
      "type": "function"
    },
    {
      "inputs": [
        {
          "internalType": "address",
          "name": "newOwner",
          "type": "address"
        }
      ],
      "name": "transferOwnership",
      "outputs": [],
      "stateMutability": "nonpayable",
      "type": "function"
    },
    {
      "stateMutability": "payable",
      "type": "receive"
    }
  ],
  "numDeployments": 1,
  "solcInputHash": "174296126c5a96b07cac11a4ec4f4089",
  "bytecode": "0x608060405234801561001057600080fd5b5061587d80620000216000396000f3fe60806040526004361061023e5760003560e01c806370a082311161012e578063a457c2d7116100ab578063d547741f1161006f578063d547741f14610925578063dd62ed3e1461094e578063e9c265181461098b578063f1127ed8146109b6578063f2fde38b146109f357610245565b8063a457c2d714610830578063a9059cbb1461086d578063c3cda520146108aa578063cd6dc687146108d3578063d505accf146108fc57610245565b806391d14854116100f257806391d148541461073557806395367f891461077257806395d89b411461079d5780639ab24eb0146107c8578063a217fddf1461080557610245565b806370a082311461062a57806375b238fc1461066757806379cc6790146106925780637ecebe00146106bb5780638e539e8c146106f857610245565b806332cb6b0c116101bc57806340c10f191161018057806340c10f191461053557806342966c681461055e578063587cde1e146105875780635c19a95c146105c45780636fcfff45146105ed57610245565b806332cb6b0c1461043c5780633644e5151461046757806336568abe1461049257806339509351146104bb5780633a46b1a8146104f857610245565b806318160ddd1161020357806318160ddd1461034357806323b872dd1461036e578063248a9ca3146103ab5780632f2ff15d146103e8578063313ce5671461041157610245565b8062ae3bf81461024a57806301ffc9a71461027357806303ee9f22146102b057806306fdde03146102db578063095ea7b31461030657610245565b3661024557005b600080fd5b34801561025657600080fd5b50610271600480360381019061026c91906138eb565b610a1c565b005b34801561027f57600080fd5b5061029a60048036038101906102959190613970565b610b96565b6040516102a791906139b8565b60405180910390f35b3480156102bc57600080fd5b506102c5610c00565b6040516102d29190613a32565b60405180910390f35b3480156102e757600080fd5b506102f0610c27565b6040516102fd9190613ae6565b60405180910390f35b34801561031257600080fd5b5061032d60048036038101906103289190613b6a565b610cb9565b60405161033a91906139b8565b60405180910390f35b34801561034f57600080fd5b50610358610cdc565b6040516103659190613bb9565b60405180910390f35b34801561037a57600080fd5b5061039560048036038101906103909190613bd4565b610ce6565b6040516103a291906139b8565b60405180910390f35b3480156103b757600080fd5b506103d260048036038101906103cd9190613c5d565b610d15565b6040516103df9190613c99565b60405180910390f35b3480156103f457600080fd5b5061040f600480360381019061040a9190613cb4565b610dbb565b005b34801561041d57600080fd5b50610426610ea6565b6040516104339190613d10565b60405180910390f35b34801561044857600080fd5b50610451610eaf565b60405161045e9190613bb9565b60405180910390f35b34801561047357600080fd5b5061047c610ebe565b6040516104899190613c99565b60405180910390f35b34801561049e57600080fd5b506104b960048036038101906104b49190613cb4565b610ecd565b005b3480156104c757600080fd5b506104e260048036038101906104dd9190613b6a565b610f61565b6040516104ef91906139b8565b60405180910390f35b34801561050457600080fd5b5061051f600480360381019061051a9190613b6a565b610f98565b60405161052c9190613bb9565b60405180910390f35b34801561054157600080fd5b5061055c60048036038101906105579190613b6a565b61102c565b005b34801561056a57600080fd5b5061058560048036038101906105809190613d2b565b6110ec565b005b34801561059357600080fd5b506105ae60048036038101906105a99190613d58565b611100565b6040516105bb9190613d94565b60405180910390f35b3480156105d057600080fd5b506105eb60048036038101906105e69190613d58565b611169565b005b3480156105f957600080fd5b50610614600480360381019061060f9190613d58565b61117d565b6040516106219190613dce565b60405180910390f35b34801561063657600080fd5b50610651600480360381019061064c9190613d58565b6111d1565b60405161065e9190613bb9565b60405180910390f35b34801561067357600080fd5b5061067c61121a565b6040516106899190613c99565b60405180910390f35b34801561069e57600080fd5b506106b960048036038101906106b49190613b6a565b61123e565b005b3480156106c757600080fd5b506106e260048036038101906106dd9190613d58565b61125e565b6040516106ef9190613bb9565b60405180910390f35b34801561070457600080fd5b5061071f600480360381019061071a9190613d2b565b6112ae565b60405161072c9190613bb9565b60405180910390f35b34801561074157600080fd5b5061075c60048036038101906107579190613cb4565b611304565b60405161076991906139b8565b60405180910390f35b34801561077e57600080fd5b506107876113ad565b6040516107949190613c99565b60405180910390f35b3480156107a957600080fd5b506107b26113d1565b6040516107bf9190613ae6565b60405180910390f35b3480156107d457600080fd5b506107ef60048036038101906107ea9190613d58565b611463565b6040516107fc9190613bb9565b60405180910390f35b34801561081157600080fd5b5061081a611574565b6040516108279190613c99565b60405180910390f35b34801561083c57600080fd5b5061085760048036038101906108529190613b6a565b61157b565b60405161086491906139b8565b60405180910390f35b34801561087957600080fd5b50610894600480360381019061088f9190613b6a565b6115f2565b6040516108a191906139b8565b60405180910390f35b3480156108b657600080fd5b506108d160048036038101906108cc9190613e15565b611615565b005b3480156108df57600080fd5b506108fa60048036038101906108f59190613b6a565b611719565b005b34801561090857600080fd5b50610923600480360381019061091e9190613ea2565b6118d8565b005b34801561093157600080fd5b5061094c60048036038101906109479190613cb4565b611a1a565b005b34801561095a57600080fd5b5061097560048036038101906109709190613f44565b611b05565b6040516109829190613bb9565b60405180910390f35b34801561099757600080fd5b506109a0611b8c565b6040516109ad9190613c99565b60405180910390f35b3480156109c257600080fd5b506109dd60048036038101906109d89190613fb0565b611b93565b6040516109ea9190614065565b60405180910390f35b3480156109ff57600080fd5b50610a1a6004803603810190610a159190613d58565b611ca3565b005b6000801b610a2a8133611304565b610a6d5780336040517f37c2e343000000000000000000000000000000000000000000000000000000008152600401610a64929190614080565b60405180910390fd5b600073ffffffffffffffffffffffffffffffffffffffff168273ffffffffffffffffffffffffffffffffffffffff1603610aed573373ffffffffffffffffffffffffffffffffffffffff166108fc479081150290604051600060405180830381858888f19350505050158015610ae7573d6000803e3d6000fd5b50610b92565b610b91338373ffffffffffffffffffffffffffffffffffffffff166370a08231306040518263ffffffff1660e01b8152600401610b2a9190613d94565b602060405180830381865afa158015610b47573d6000803e3d6000fd5b505050506040513d601f19601f82011682018060405250810190610b6b91906140be565b8473ffffffffffffffffffffffffffffffffffffffff16611e839092919063ffffffff16565b5b5050565b60007f7965db0b000000000000000000000000000000000000000000000000000000007bffffffffffffffffffffffffffffffffffffffffffffffffffffffff1916827bffffffffffffffffffffffffffffffffffffffffffffffffffffffff1916149050919050565b61013060009054906101000a900473ffffffffffffffffffffffffffffffffffffffff1681565b606060368054610c369061411a565b80601f0160208091040260200160405190810160405280929190818152602001828054610c629061411a565b8015610caf5780601f10610c8457610100808354040283529160200191610caf565b820191906000526020600020905b815481529060010190602001808311610c9257829003601f168201915b5050505050905090565b600080610cc4611f09565b9050610cd1818585611f11565b600191505092915050565b6000603554905090565b600080610cf1611f09565b9050610cfe8582856120da565b610d09858585612166565b60019150509392505050565b600061013060009054906101000a900473ffffffffffffffffffffffffffffffffffffffff1673ffffffffffffffffffffffffffffffffffffffff1663248a9ca3836040518263ffffffff1660e01b8152600401610d739190613c99565b602060405180830381865afa158015610d90573d6000803e3d6000fd5b505050506040513d601f19601f82011682018060405250810190610db49190614160565b9050919050565b610dc482610d15565b610dce8133611304565b610e115780336040517f37c2e343000000000000000000000000000000000000000000000000000000008152600401610e08929190614080565b60405180910390fd5b61013060009054906101000a900473ffffffffffffffffffffffffffffffffffffffff1673ffffffffffffffffffffffffffffffffffffffff16632f2ff15d84846040518363ffffffff1660e01b8152600401610e6f929190614080565b600060405180830381600087803b158015610e8957600080fd5b505af1158015610e9d573d6000803e3d6000fd5b50505050505050565b60006012905090565b6a115eec47f6cf7e3500000081565b6000610ec86123e8565b905090565b61013060009054906101000a900473ffffffffffffffffffffffffffffffffffffffff1673ffffffffffffffffffffffffffffffffffffffff166336568abe83836040518363ffffffff1660e01b8152600401610f2b929190614080565b600060405180830381600087803b158015610f4557600080fd5b505af1158015610f59573d6000803e3d6000fd5b505050505050565b600080610f6c611f09565b9050610f8d818585610f7e8589611b05565b610f8891906141bc565b611f11565b600191505092915050565b6000438210610fdc576040517f08c379a0000000000000000000000000000000000000000000000000000000008152600401610fd39061425e565b60405180910390fd5b61102460cd60008573ffffffffffffffffffffffffffffffffffffffff1673ffffffffffffffffffffffffffffffffffffffff16815260200190815260200160002083612428565b905092915050565b6000801b61103a8133611304565b61107d5780336040517f37c2e343000000000000000000000000000000000000000000000000000000008152600401611074929190614080565b60405180910390fd5b6a115eec47f6cf7e3500000082611092610cdc565b61109c91906141bc565b11156110dd576040517f08c379a00000000000000000000000000000000000000000000000000000000081526004016110d4906142ca565b60405180910390fd5b6110e78383612534565b505050565b6110fd6110f7611f09565b82612542565b50565b600060cc60008373ffffffffffffffffffffffffffffffffffffffff1673ffffffffffffffffffffffffffffffffffffffff16815260200190815260200160002060009054906101000a900473ffffffffffffffffffffffffffffffffffffffff169050919050565b61117a611174611f09565b82612550565b50565b60006111ca60cd60008473ffffffffffffffffffffffffffffffffffffffff1673ffffffffffffffffffffffffffffffffffffffff1681526020019081526020016000208054905061266a565b9050919050565b6000603360008373ffffffffffffffffffffffffffffffffffffffff1673ffffffffffffffffffffffffffffffffffffffff168152602001908152602001600020549050919050565b7fa49807205ce4d355092ef5a8a18f56e8913cf4a201fbe287825b095693c2177581565b6112508261124a611f09565b836120da565b61125a8282612542565b5050565b60006112a7609960008473ffffffffffffffffffffffffffffffffffffffff1673ffffffffffffffffffffffffffffffffffffffff1681526020019081526020016000206126bd565b9050919050565b60004382106112f2576040517f08c379a00000000000000000000000000000000000000000000000000000000081526004016112e99061425e565b60405180910390fd5b6112fd60ce83612428565b9050919050565b600061013060009054906101000a900473ffffffffffffffffffffffffffffffffffffffff1673ffffffffffffffffffffffffffffffffffffffff166391d1485484846040518363ffffffff1660e01b8152600401611364929190614080565b602060405180830381865afa158015611381573d6000803e3d6000fd5b505050506040513d601f19601f820116820180604052508101906113a59190614316565b905092915050565b7f0a7cc066f24e107ff77c42c8a1bdaf1a5f775fa4a74e45530aaf9c866368f65381565b6060603780546113e09061411a565b80601f016020809104026020016040519081016040528092919081815260200182805461140c9061411a565b80156114595780601f1061142e57610100808354040283529160200191611459565b820191906000526020600020905b81548152906001019060200180831161143c57829003601f168201915b5050505050905090565b60008060cd60008473ffffffffffffffffffffffffffffffffffffffff1673ffffffffffffffffffffffffffffffffffffffff1681526020019081526020016000208054905090506000811461154b5760cd60008473ffffffffffffffffffffffffffffffffffffffff1673ffffffffffffffffffffffffffffffffffffffff1681526020019081526020016000206001826114ff9190614343565b815481106115105761150f614377565b5b9060005260206000200160000160049054906101000a90047bffffffffffffffffffffffffffffffffffffffffffffffffffffffff1661154e565b60005b7bffffffffffffffffffffffffffffffffffffffffffffffffffffffff16915050919050565b6000801b81565b600080611586611f09565b905060006115948286611b05565b9050838110156115d9576040517f08c379a00000000000000000000000000000000000000000000000000000000081526004016115d090614418565b60405180910390fd5b6115e68286868403611f11565b60019250505092915050565b6000806115fd611f09565b905061160a818585612166565b600191505092915050565b83421115611658576040517f08c379a000000000000000000000000000000000000000000000000000000000815260040161164f90614484565b60405180910390fd5b60006116ba6116b27fe48329057bfd03d55e49b547132e39cffd9c1820ad7b9d4c5307691425d15adf89898960405160200161169794939291906144a4565b604051602081830303815290604052805190602001206126cb565b8585856126e5565b90506116c581612710565b8614611706576040517f08c379a00000000000000000000000000000000000000000000000000000000081526004016116fd90614535565b60405180910390fd5b6117108188612550565b50505050505050565b60008060019054906101000a900460ff1615905080801561174a5750600160008054906101000a900460ff1660ff16105b8061177757506117593061276e565b1580156117765750600160008054906101000a900460ff1660ff16145b5b6117b6576040517f08c379a00000000000000000000000000000000000000000000000000000000081526004016117ad906145c7565b60405180910390fd5b60016000806101000a81548160ff021916908360ff16021790555080156117f3576001600060016101000a81548160ff0219169083151502179055505b6117fc83612791565b6118706040518060400160405280600e81526020017f537461626c65556e69742044414f0000000000000000000000000000000000008152506040518060400160405280600581526020017f537544414f000000000000000000000000000000000000000000000000000000815250612825565b61187a3383612534565b80156118d35760008060016101000a81548160ff0219169083151502179055507f7f26b83ff96e1f2b6a682f133852f6798a09c465da95921460cefb384740249860016040516118ca9190614622565b60405180910390a15b505050565b8342111561191b576040517f08c379a000000000000000000000000000000000000000000000000000000000815260040161191290614689565b60405180910390fd5b60007f6e71edae12b1b97f4d1f60370fef10105fa2faae0126114a169c64845d6126c988888861194a8c612710565b89604051602001611960969594939291906146a9565b6040516020818303038152906040528051906020012090506000611983826126cb565b90506000611993828787876126e5565b90508973ffffffffffffffffffffffffffffffffffffffff168173ffffffffffffffffffffffffffffffffffffffff1614611a03576040517f08c379a00000000000000000000000000000000000000000000000000000000081526004016119fa90614756565b60405180910390fd5b611a0e8a8a8a611f11565b50505050505050505050565b611a2382610d15565b611a2d8133611304565b611a705780336040517f37c2e343000000000000000000000000000000000000000000000000000000008152600401611a67929190614080565b60405180910390fd5b61013060009054906101000a900473ffffffffffffffffffffffffffffffffffffffff1673ffffffffffffffffffffffffffffffffffffffff1663d547741f84846040518363ffffffff1660e01b8152600401611ace929190614080565b600060405180830381600087803b158015611ae857600080fd5b505af1158015611afc573d6000803e3d6000fd5b50505050505050565b6000603460008473ffffffffffffffffffffffffffffffffffffffff1673ffffffffffffffffffffffffffffffffffffffff16815260200190815260200160002060008373ffffffffffffffffffffffffffffffffffffffff1673ffffffffffffffffffffffffffffffffffffffff16815260200190815260200160002054905092915050565b6000801b81565b611b9b613838565b60cd60008473ffffffffffffffffffffffffffffffffffffffff1673ffffffffffffffffffffffffffffffffffffffff1681526020019081526020016000208263ffffffff1681548110611bf257611bf1614377565b5b906000526020600020016040518060400160405290816000820160009054906101000a900463ffffffff1663ffffffff1663ffffffff1681526020016000820160049054906101000a90047bffffffffffffffffffffffffffffffffffffffffffffffffffffffff167bffffffffffffffffffffffffffffffffffffffffffffffffffffffff167bffffffffffffffffffffffffffffffffffffffffffffffffffffffff1681525050905092915050565b600073ffffffffffffffffffffffffffffffffffffffff168173ffffffffffffffffffffffffffffffffffffffff1603611d12576040517f08c379a0000000000000000000000000000000000000000000000000000000008152600401611d09906147e8565b60405180910390fd5b611d1f6000801b33611304565b611d5e576040517f08c379a0000000000000000000000000000000000000000000000000000000008152600401611d5590614854565b60405180910390fd5b611d887fa49807205ce4d355092ef5a8a18f56e8913cf4a201fbe287825b095693c2177533611304565b15611de257611db77fa49807205ce4d355092ef5a8a18f56e8913cf4a201fbe287825b095693c2177582610dbb565b611de17fa49807205ce4d355092ef5a8a18f56e8913cf4a201fbe287825b095693c2177533611a1a565b5b611e0c7f0a7cc066f24e107ff77c42c8a1bdaf1a5f775fa4a74e45530aaf9c866368f65333611304565b15611e6657611e3b7f0a7cc066f24e107ff77c42c8a1bdaf1a5f775fa4a74e45530aaf9c866368f65382610dbb565b611e657f0a7cc066f24e107ff77c42c8a1bdaf1a5f775fa4a74e45530aaf9c866368f65333611a1a565b5b611e736000801b82610dbb565b611e806000801b33611a1a565b50565b611f048363a9059cbb60e01b8484604051602401611ea2929190614874565b604051602081830303815290604052907bffffffffffffffffffffffffffffffffffffffffffffffffffffffff19166020820180517bffffffffffffffffffffffffffffffffffffffffffffffffffffffff8381831617835250505050612882565b505050565b600033905090565b600073ffffffffffffffffffffffffffffffffffffffff168373ffffffffffffffffffffffffffffffffffffffff1603611f80576040517f08c379a0000000000000000000000000000000000000000000000000000000008152600401611f779061490f565b60405180910390fd5b600073ffffffffffffffffffffffffffffffffffffffff168273ffffffffffffffffffffffffffffffffffffffff1603611fef576040517f08c379a0000000000000000000000000000000000000000000000000000000008152600401611fe6906149a1565b60405180910390fd5b80603460008573ffffffffffffffffffffffffffffffffffffffff1673ffffffffffffffffffffffffffffffffffffffff16815260200190815260200160002060008473ffffffffffffffffffffffffffffffffffffffff1673ffffffffffffffffffffffffffffffffffffffff168152602001908152602001600020819055508173ffffffffffffffffffffffffffffffffffffffff168373ffffffffffffffffffffffffffffffffffffffff167f8c5be1e5ebec7d5bd14f71427d1e84f3dd0314c0f7b2291e5b200ac8c7c3b925836040516120cd9190613bb9565b60405180910390a3505050565b60006120e68484611b05565b90507fffffffffffffffffffffffffffffffffffffffffffffffffffffffffffffffff81146121605781811015612152576040517f08c379a000000000000000000000000000000000000000000000000000000000815260040161214990614a0d565b60405180910390fd5b61215f8484848403611f11565b5b50505050565b600073ffffffffffffffffffffffffffffffffffffffff168373ffffffffffffffffffffffffffffffffffffffff16036121d5576040517f08c379a00000000000000000000000000000000000000000000000000000000081526004016121cc90614a9f565b60405180910390fd5b600073ffffffffffffffffffffffffffffffffffffffff168273ffffffffffffffffffffffffffffffffffffffff1603612244576040517f08c379a000000000000000000000000000000000000000000000000000000000815260040161223b90614b31565b60405180910390fd5b61224f838383612949565b6000603360008573ffffffffffffffffffffffffffffffffffffffff1673ffffffffffffffffffffffffffffffffffffffff168152602001908152602001600020549050818110156122d6576040517f08c379a00000000000000000000000000000000000000000000000000000000081526004016122cd90614bc3565b60405180910390fd5b818103603360008673ffffffffffffffffffffffffffffffffffffffff1673ffffffffffffffffffffffffffffffffffffffff1681526020019081526020016000208190555081603360008573ffffffffffffffffffffffffffffffffffffffff1673ffffffffffffffffffffffffffffffffffffffff168152602001908152602001600020600082825461236b91906141bc565b925050819055508273ffffffffffffffffffffffffffffffffffffffff168473ffffffffffffffffffffffffffffffffffffffff167fddf252ad1be2c89b69c2b068fc378daa952ba7f163c4a11628f55a4df523b3ef846040516123cf9190613bb9565b60405180910390a36123e284848461294e565b50505050565b60006124237f8b73c3c69bb8fe3d512ecc4cf759cc79239f7b179b0ffacaa9a75d522b39400f61241661295e565b61241e612968565b612972565b905090565b6000808380549050905060005b818110156124a757600061244982846129ac565b90508486828154811061245f5761245e614377565b5b9060005260206000200160000160009054906101000a900463ffffffff1663ffffffff161115612491578092506124a1565b60018161249e91906141bc565b91505b50612435565b6000821461250957846001836124bd9190614343565b815481106124ce576124cd614377565b5b9060005260206000200160000160049054906101000a90047bffffffffffffffffffffffffffffffffffffffffffffffffffffffff1661250c565b60005b7bffffffffffffffffffffffffffffffffffffffffffffffffffffffff169250505092915050565b61253e82826129d2565b5050565b61254c8282612a5f565b5050565b600061255b83611100565b90506000612568846111d1565b90508260cc60008673ffffffffffffffffffffffffffffffffffffffff1673ffffffffffffffffffffffffffffffffffffffff16815260200190815260200160002060006101000a81548173ffffffffffffffffffffffffffffffffffffffff021916908373ffffffffffffffffffffffffffffffffffffffff1602179055508273ffffffffffffffffffffffffffffffffffffffff168273ffffffffffffffffffffffffffffffffffffffff168573ffffffffffffffffffffffffffffffffffffffff167f3134e8a2e6d97e929a7e54011ea5485d7d196dd5f0ba4d4ef95803e8e3fc257f60405160405180910390a4612664828483612a7d565b50505050565b600063ffffffff80168211156126b5576040517f08c379a00000000000000000000000000000000000000000000000000000000081526004016126ac90614c55565b60405180910390fd5b819050919050565b600081600001549050919050565b60006126de6126d86123e8565b83612c76565b9050919050565b60008060006126f687878787612ca9565b9150915061270381612db5565b8192505050949350505050565b600080609960008473ffffffffffffffffffffffffffffffffffffffff1673ffffffffffffffffffffffffffffffffffffffff168152602001908152602001600020905061275d816126bd565b915061276881612f81565b50919050565b6000808273ffffffffffffffffffffffffffffffffffffffff163b119050919050565b600060019054906101000a900460ff166127e0576040517f08c379a00000000000000000000000000000000000000000000000000000000081526004016127d790614ce7565b60405180910390fd5b8061013060006101000a81548173ffffffffffffffffffffffffffffffffffffffff021916908373ffffffffffffffffffffffffffffffffffffffff16021790555050565b600060019054906101000a900460ff16612874576040517f08c379a000000000000000000000000000000000000000000000000000000000815260040161286b90614ce7565b60405180910390fd5b61287e8282612f97565b5050565b60006128e4826040518060400160405280602081526020017f5361666545524332303a206c6f772d6c6576656c2063616c6c206661696c65648152508573ffffffffffffffffffffffffffffffffffffffff1661300a9092919063ffffffff16565b905060008151111561294457808060200190518101906129049190614316565b612943576040517f08c379a000000000000000000000000000000000000000000000000000000000815260040161293a90614d79565b60405180910390fd5b5b505050565b505050565b612959838383613022565b505050565b6000606554905090565b6000606654905090565b6000838383463060405160200161298d959493929190614d99565b6040516020818303038152906040528051906020012090509392505050565b600060028284186129bd9190614e1b565b8284166129ca91906141bc565b905092915050565b6129dc828261304d565b6129e46131ad565b7bffffffffffffffffffffffffffffffffffffffffffffffffffffffff16612a0a610cdc565b1115612a4b576040517f08c379a0000000000000000000000000000000000000000000000000000000008152600401612a4290614ebe565b60405180910390fd5b612a5960ce6131d1836131e7565b50505050565b612a69828261345f565b612a7760ce613637836131e7565b50505050565b8173ffffffffffffffffffffffffffffffffffffffff168373ffffffffffffffffffffffffffffffffffffffff1614158015612ab95750600081115b15612c7157600073ffffffffffffffffffffffffffffffffffffffff168373ffffffffffffffffffffffffffffffffffffffff1614612b9757600080612b4060cd60008773ffffffffffffffffffffffffffffffffffffffff1673ffffffffffffffffffffffffffffffffffffffff168152602001908152602001600020613637856131e7565b915091508473ffffffffffffffffffffffffffffffffffffffff167fdec2bacdd2f05b59de34da9b523dff8be42e5e38e818c82fdb0bae774387a7248383604051612b8c929190614ede565b60405180910390a250505b600073ffffffffffffffffffffffffffffffffffffffff168273ffffffffffffffffffffffffffffffffffffffff1614612c7057600080612c1960cd60008673ffffffffffffffffffffffffffffffffffffffff1673ffffffffffffffffffffffffffffffffffffffff1681526020019081526020016000206131d1856131e7565b915091508373ffffffffffffffffffffffffffffffffffffffff167fdec2bacdd2f05b59de34da9b523dff8be42e5e38e818c82fdb0bae774387a7248383604051612c65929190614ede565b60405180910390a250505b5b505050565b60008282604051602001612c8b929190614f7f565b60405160208183030381529060405280519060200120905092915050565b6000807f7fffffffffffffffffffffffffffffff5d576e7357a4501ddfe92f46681b20a08360001c1115612ce4576000600391509150612dac565b601b8560ff1614158015612cfc5750601c8560ff1614155b15612d0e576000600491509150612dac565b600060018787878760405160008152602001604052604051612d339493929190614fb6565b6020604051602081039080840390855afa158015612d55573d6000803e3d6000fd5b505050602060405103519050600073ffffffffffffffffffffffffffffffffffffffff168173ffffffffffffffffffffffffffffffffffffffff1603612da357600060019250925050612dac565b80600092509250505b94509492505050565b60006004811115612dc957612dc8614ffb565b5b816004811115612ddc57612ddb614ffb565b5b0315612f7e5760016004811115612df657612df5614ffb565b5b816004811115612e0957612e08614ffb565b5b03612e49576040517f08c379a0000000000000000000000000000000000000000000000000000000008152600401612e4090615076565b60405180910390fd5b60026004811115612e5d57612e5c614ffb565b5b816004811115612e7057612e6f614ffb565b5b03612eb0576040517f08c379a0000000000000000000000000000000000000000000000000000000008152600401612ea7906150e2565b60405180910390fd5b60036004811115612ec457612ec3614ffb565b5b816004811115612ed757612ed6614ffb565b5b03612f17576040517f08c379a0000000000000000000000000000000000000000000000000000000008152600401612f0e90615174565b60405180910390fd5b600480811115612f2a57612f29614ffb565b5b816004811115612f3d57612f3c614ffb565b5b03612f7d576040517f08c379a0000000000000000000000000000000000000000000000000000000008152600401612f7490615206565b60405180910390fd5b5b50565b6001816000016000828254019250508190555050565b600060019054906101000a900460ff16612fe6576040517f08c379a0000000000000000000000000000000000000000000000000000000008152600401612fdd90614ce7565b60405180910390fd5b8160369081612ff591906153f7565b50806037908161300591906153f7565b505050565b6060613019848460008561364d565b90509392505050565b61302d838383613761565b61304861303984611100565b61304284611100565b83612a7d565b505050565b600073ffffffffffffffffffffffffffffffffffffffff168273ffffffffffffffffffffffffffffffffffffffff16036130bc576040517f08c379a00000000000000000000000000000000000000000000000000000000081526004016130b390615515565b60405180910390fd5b6130c860008383612949565b80603560008282546130da91906141bc565b9250508190555080603360008473ffffffffffffffffffffffffffffffffffffffff1673ffffffffffffffffffffffffffffffffffffffff168152602001908152602001600020600082825461313091906141bc565b925050819055508173ffffffffffffffffffffffffffffffffffffffff16600073ffffffffffffffffffffffffffffffffffffffff167fddf252ad1be2c89b69c2b068fc378daa952ba7f163c4a11628f55a4df523b3ef836040516131959190613bb9565b60405180910390a36131a96000838361294e565b5050565b60007bffffffffffffffffffffffffffffffffffffffffffffffffffffffff905090565b600081836131df91906141bc565b905092915050565b6000806000858054905090506000811461325557856001826132099190614343565b8154811061321a57613219614377565b5b9060005260206000200160000160049054906101000a90047bffffffffffffffffffffffffffffffffffffffffffffffffffffffff16613258565b60005b7bffffffffffffffffffffffffffffffffffffffffffffffffffffffff16925061328683858763ffffffff16565b91506000811180156132d9575043866001836132a29190614343565b815481106132b3576132b2614377565b5b9060005260206000200160000160009054906101000a900463ffffffff1663ffffffff16145b15613366576132e782613766565b866001836132f59190614343565b8154811061330657613305614377565b5b9060005260206000200160000160046101000a8154817bffffffffffffffffffffffffffffffffffffffffffffffffffffffff02191690837bffffffffffffffffffffffffffffffffffffffffffffffffffffffff160217905550613456565b85604051806040016040528061337b4361266a565b63ffffffff16815260200161338f85613766565b7bffffffffffffffffffffffffffffffffffffffffffffffffffffffff168152509080600181540180825580915050600190039060005260206000200160009091909190915060008201518160000160006101000a81548163ffffffff021916908363ffffffff16021790555060208201518160000160046101000a8154817bffffffffffffffffffffffffffffffffffffffffffffffffffffffff02191690837bffffffffffffffffffffffffffffffffffffffffffffffffffffffff16021790555050505b50935093915050565b600073ffffffffffffffffffffffffffffffffffffffff168273ffffffffffffffffffffffffffffffffffffffff16036134ce576040517f08c379a00000000000000000000000000000000000000000000000000000000081526004016134c5906155a7565b60405180910390fd5b6134da82600083612949565b6000603360008473ffffffffffffffffffffffffffffffffffffffff1673ffffffffffffffffffffffffffffffffffffffff16815260200190815260200160002054905081811015613561576040517f08c379a000000000000000000000000000000000000000000000000000000000815260040161355890615639565b60405180910390fd5b818103603360008573ffffffffffffffffffffffffffffffffffffffff1673ffffffffffffffffffffffffffffffffffffffff1681526020019081526020016000208190555081603560008282546135b99190614343565b92505081905550600073ffffffffffffffffffffffffffffffffffffffff168373ffffffffffffffffffffffffffffffffffffffff167fddf252ad1be2c89b69c2b068fc378daa952ba7f163c4a11628f55a4df523b3ef8460405161361e9190613bb9565b60405180910390a36136328360008461294e565b505050565b600081836136459190614343565b905092915050565b606082471015613692576040517f08c379a0000000000000000000000000000000000000000000000000000000008152600401613689906156cb565b60405180910390fd5b61369b8561276e565b6136da576040517f08c379a00000000000000000000000000000000000000000000000000000000081526004016136d190615737565b60405180910390fd5b6000808673ffffffffffffffffffffffffffffffffffffffff168587604051613703919061579e565b60006040518083038185875af1925050503d8060008114613740576040519150601f19603f3d011682016040523d82523d6000602084013e613745565b606091505b50915091506137558282866137d1565b92505050949350505050565b505050565b60007bffffffffffffffffffffffffffffffffffffffffffffffffffffffff80168211156137c9576040517f08c379a00000000000000000000000000000000000000000000000000000000081526004016137c090615827565b60405180910390fd5b819050919050565b606083156137e157829050613831565b6000835111156137f45782518084602001fd5b816040517f08c379a00000000000000000000000000000000000000000000000000000000081526004016138289190613ae6565b60405180910390fd5b9392505050565b6040518060400160405280600063ffffffff16815260200160007bffffffffffffffffffffffffffffffffffffffffffffffffffffffff1681525090565b600080fd5b600073ffffffffffffffffffffffffffffffffffffffff82169050919050565b60006138a68261387b565b9050919050565b60006138b88261389b565b9050919050565b6138c8816138ad565b81146138d357600080fd5b50565b6000813590506138e5816138bf565b92915050565b60006020828403121561390157613900613876565b5b600061390f848285016138d6565b91505092915050565b60007fffffffff0000000000000000000000000000000000000000000000000000000082169050919050565b61394d81613918565b811461395857600080fd5b50565b60008135905061396a81613944565b92915050565b60006020828403121561398657613985613876565b5b60006139948482850161395b565b91505092915050565b60008115159050919050565b6139b28161399d565b82525050565b60006020820190506139cd60008301846139a9565b92915050565b6000819050919050565b60006139f86139f36139ee8461387b565b6139d3565b61387b565b9050919050565b6000613a0a826139dd565b9050919050565b6000613a1c826139ff565b9050919050565b613a2c81613a11565b82525050565b6000602082019050613a476000830184613a23565b92915050565b600081519050919050565b600082825260208201905092915050565b60005b83811015613a87578082015181840152602081019050613a6c565b83811115613a96576000848401525b50505050565b6000601f19601f8301169050919050565b6000613ab882613a4d565b613ac28185613a58565b9350613ad2818560208601613a69565b613adb81613a9c565b840191505092915050565b60006020820190508181036000830152613b008184613aad565b905092915050565b613b118161389b565b8114613b1c57600080fd5b50565b600081359050613b2e81613b08565b92915050565b6000819050919050565b613b4781613b34565b8114613b5257600080fd5b50565b600081359050613b6481613b3e565b92915050565b60008060408385031215613b8157613b80613876565b5b6000613b8f85828601613b1f565b9250506020613ba085828601613b55565b9150509250929050565b613bb381613b34565b82525050565b6000602082019050613bce6000830184613baa565b92915050565b600080600060608486031215613bed57613bec613876565b5b6000613bfb86828701613b1f565b9350506020613c0c86828701613b1f565b9250506040613c1d86828701613b55565b9150509250925092565b6000819050919050565b613c3a81613c27565b8114613c4557600080fd5b50565b600081359050613c5781613c31565b92915050565b600060208284031215613c7357613c72613876565b5b6000613c8184828501613c48565b91505092915050565b613c9381613c27565b82525050565b6000602082019050613cae6000830184613c8a565b92915050565b60008060408385031215613ccb57613cca613876565b5b6000613cd985828601613c48565b9250506020613cea85828601613b1f565b9150509250929050565b600060ff82169050919050565b613d0a81613cf4565b82525050565b6000602082019050613d256000830184613d01565b92915050565b600060208284031215613d4157613d40613876565b5b6000613d4f84828501613b55565b91505092915050565b600060208284031215613d6e57613d6d613876565b5b6000613d7c84828501613b1f565b91505092915050565b613d8e8161389b565b82525050565b6000602082019050613da96000830184613d85565b92915050565b600063ffffffff82169050919050565b613dc881613daf565b82525050565b6000602082019050613de36000830184613dbf565b92915050565b613df281613cf4565b8114613dfd57600080fd5b50565b600081359050613e0f81613de9565b92915050565b60008060008060008060c08789031215613e3257613e31613876565b5b6000613e4089828a01613b1f565b9650506020613e5189828a01613b55565b9550506040613e6289828a01613b55565b9450506060613e7389828a01613e00565b9350506080613e8489828a01613c48565b92505060a0613e9589828a01613c48565b9150509295509295509295565b600080600080600080600060e0888a031215613ec157613ec0613876565b5b6000613ecf8a828b01613b1f565b9750506020613ee08a828b01613b1f565b9650506040613ef18a828b01613b55565b9550506060613f028a828b01613b55565b9450506080613f138a828b01613e00565b93505060a0613f248a828b01613c48565b92505060c0613f358a828b01613c48565b91505092959891949750929550565b60008060408385031215613f5b57613f5a613876565b5b6000613f6985828601613b1f565b9250506020613f7a85828601613b1f565b9150509250929050565b613f8d81613daf565b8114613f9857600080fd5b50565b600081359050613faa81613f84565b92915050565b60008060408385031215613fc757613fc6613876565b5b6000613fd585828601613b1f565b9250506020613fe685828601613f9b565b9150509250929050565b613ff981613daf565b82525050565b60007bffffffffffffffffffffffffffffffffffffffffffffffffffffffff82169050919050565b61403081613fff565b82525050565b60408201600082015161404c6000850182613ff0565b50602082015161405f6020850182614027565b50505050565b600060408201905061407a6000830184614036565b92915050565b60006040820190506140956000830185613c8a565b6140a26020830184613d85565b9392505050565b6000815190506140b881613b3e565b92915050565b6000602082840312156140d4576140d3613876565b5b60006140e2848285016140a9565b91505092915050565b7f4e487b7100000000000000000000000000000000000000000000000000000000600052602260045260246000fd5b6000600282049050600182168061413257607f821691505b602082108103614145576141446140eb565b5b50919050565b60008151905061415a81613c31565b92915050565b60006020828403121561417657614175613876565b5b60006141848482850161414b565b91505092915050565b7f4e487b7100000000000000000000000000000000000000000000000000000000600052601160045260246000fd5b60006141c782613b34565b91506141d283613b34565b9250827fffffffffffffffffffffffffffffffffffffffffffffffffffffffffffffffff038211156142075761420661418d565b5b828201905092915050565b7f4552433230566f7465733a20626c6f636b206e6f7420796574206d696e656400600082015250565b6000614248601f83613a58565b915061425382614212565b602082019050919050565b600060208201905081810360008301526142778161423b565b9050919050565b7f6d617820737570706c7920697320657863656564656400000000000000000000600082015250565b60006142b4601683613a58565b91506142bf8261427e565b602082019050919050565b600060208201905081810360008301526142e3816142a7565b9050919050565b6142f38161399d565b81146142fe57600080fd5b50565b600081519050614310816142ea565b92915050565b60006020828403121561432c5761432b613876565b5b600061433a84828501614301565b91505092915050565b600061434e82613b34565b915061435983613b34565b92508282101561436c5761436b61418d565b5b828203905092915050565b7f4e487b7100000000000000000000000000000000000000000000000000000000600052603260045260246000fd5b7f45524332303a2064656372656173656420616c6c6f77616e63652062656c6f7760008201527f207a65726f000000000000000000000000000000000000000000000000000000602082015250565b6000614402602583613a58565b915061440d826143a6565b604082019050919050565b60006020820190508181036000830152614431816143f5565b9050919050565b7f4552433230566f7465733a207369676e61747572652065787069726564000000600082015250565b600061446e601d83613a58565b915061447982614438565b602082019050919050565b6000602082019050818103600083015261449d81614461565b9050919050565b60006080820190506144b96000830187613c8a565b6144c66020830186613d85565b6144d36040830185613baa565b6144e06060830184613baa565b95945050505050565b7f4552433230566f7465733a20696e76616c6964206e6f6e636500000000000000600082015250565b600061451f601983613a58565b915061452a826144e9565b602082019050919050565b6000602082019050818103600083015261454e81614512565b9050919050565b7f496e697469616c697a61626c653a20636f6e747261637420697320616c72656160008201527f647920696e697469616c697a6564000000000000000000000000000000000000602082015250565b60006145b1602e83613a58565b91506145bc82614555565b604082019050919050565b600060208201905081810360008301526145e0816145a4565b9050919050565b6000819050919050565b600061460c614607614602846145e7565b6139d3565b613cf4565b9050919050565b61461c816145f1565b82525050565b60006020820190506146376000830184614613565b92915050565b7f45524332305065726d69743a206578706972656420646561646c696e65000000600082015250565b6000614673601d83613a58565b915061467e8261463d565b602082019050919050565b600060208201905081810360008301526146a281614666565b9050919050565b600060c0820190506146be6000830189613c8a565b6146cb6020830188613d85565b6146d86040830187613d85565b6146e56060830186613baa565b6146f26080830185613baa565b6146ff60a0830184613baa565b979650505050505050565b7f45524332305065726d69743a20696e76616c6964207369676e61747572650000600082015250565b6000614740601e83613a58565b915061474b8261470a565b602082019050919050565b6000602082019050818103600083015261476f81614733565b9050919050565b7f4f776e61626c653a206e6577206f776e657220697320746865207a65726f206160008201527f6464726573730000000000000000000000000000000000000000000000000000602082015250565b60006147d2602683613a58565b91506147dd82614776565b604082019050919050565b60006020820190508181036000830152614801816147c5565b9050919050565b7f4f776e61626c653a2063616c6c6572206973206e6f7420746865206f776e6572600082015250565b600061483e602083613a58565b915061484982614808565b602082019050919050565b6000602082019050818103600083015261486d81614831565b9050919050565b60006040820190506148896000830185613d85565b6148966020830184613baa565b9392505050565b7f45524332303a20617070726f76652066726f6d20746865207a65726f2061646460008201527f7265737300000000000000000000000000000000000000000000000000000000602082015250565b60006148f9602483613a58565b91506149048261489d565b604082019050919050565b60006020820190508181036000830152614928816148ec565b9050919050565b7f45524332303a20617070726f766520746f20746865207a65726f20616464726560008201527f7373000000000000000000000000000000000000000000000000000000000000602082015250565b600061498b602283613a58565b91506149968261492f565b604082019050919050565b600060208201905081810360008301526149ba8161497e565b9050919050565b7f45524332303a20696e73756666696369656e7420616c6c6f77616e6365000000600082015250565b60006149f7601d83613a58565b9150614a02826149c1565b602082019050919050565b60006020820190508181036000830152614a26816149ea565b9050919050565b7f45524332303a207472616e736665722066726f6d20746865207a65726f20616460008201527f6472657373000000000000000000000000000000000000000000000000000000602082015250565b6000614a89602583613a58565b9150614a9482614a2d565b604082019050919050565b60006020820190508181036000830152614ab881614a7c565b9050919050565b7f45524332303a207472616e7366657220746f20746865207a65726f206164647260008201527f6573730000000000000000000000000000000000000000000000000000000000602082015250565b6000614b1b602383613a58565b9150614b2682614abf565b604082019050919050565b60006020820190508181036000830152614b4a81614b0e565b9050919050565b7f45524332303a207472616e7366657220616d6f756e742065786365656473206260008201527f616c616e63650000000000000000000000000000000000000000000000000000602082015250565b6000614bad602683613a58565b9150614bb882614b51565b604082019050919050565b60006020820190508181036000830152614bdc81614ba0565b9050919050565b7f53616665436173743a2076616c756520646f65736e27742066697420696e203360008201527f3220626974730000000000000000000000000000000000000000000000000000602082015250565b6000614c3f602683613a58565b9150614c4a82614be3565b604082019050919050565b60006020820190508181036000830152614c6e81614c32565b9050919050565b7f496e697469616c697a61626c653a20636f6e7472616374206973206e6f74206960008201527f6e697469616c697a696e67000000000000000000000000000000000000000000602082015250565b6000614cd1602b83613a58565b9150614cdc82614c75565b604082019050919050565b60006020820190508181036000830152614d0081614cc4565b9050919050565b7f5361666545524332303a204552433230206f7065726174696f6e20646964206e60008201527f6f74207375636365656400000000000000000000000000000000000000000000602082015250565b6000614d63602a83613a58565b9150614d6e82614d07565b604082019050919050565b60006020820190508181036000830152614d9281614d56565b9050919050565b600060a082019050614dae6000830188613c8a565b614dbb6020830187613c8a565b614dc86040830186613c8a565b614dd56060830185613baa565b614de26080830184613d85565b9695505050505050565b7f4e487b7100000000000000000000000000000000000000000000000000000000600052601260045260246000fd5b6000614e2682613b34565b9150614e3183613b34565b925082614e4157614e40614dec565b5b828204905092915050565b7f4552433230566f7465733a20746f74616c20737570706c79207269736b73206f60008201527f766572666c6f77696e6720766f74657300000000000000000000000000000000602082015250565b6000614ea8603083613a58565b9150614eb382614e4c565b604082019050919050565b60006020820190508181036000830152614ed781614e9b565b9050919050565b6000604082019050614ef36000830185613baa565b614f006020830184613baa565b9392505050565b600081905092915050565b7f1901000000000000000000000000000000000000000000000000000000000000600082015250565b6000614f48600283614f07565b9150614f5382614f12565b600282019050919050565b6000819050919050565b614f79614f7482613c27565b614f5e565b82525050565b6000614f8a82614f3b565b9150614f968285614f68565b602082019150614fa68284614f68565b6020820191508190509392505050565b6000608082019050614fcb6000830187613c8a565b614fd86020830186613d01565b614fe56040830185613c8a565b614ff26060830184613c8a565b95945050505050565b7f4e487b7100000000000000000000000000000000000000000000000000000000600052602160045260246000fd5b7f45434453413a20696e76616c6964207369676e61747572650000000000000000600082015250565b6000615060601883613a58565b915061506b8261502a565b602082019050919050565b6000602082019050818103600083015261508f81615053565b9050919050565b7f45434453413a20696e76616c6964207369676e6174757265206c656e67746800600082015250565b60006150cc601f83613a58565b91506150d782615096565b602082019050919050565b600060208201905081810360008301526150fb816150bf565b9050919050565b7f45434453413a20696e76616c6964207369676e6174757265202773272076616c60008201527f7565000000000000000000000000000000000000000000000000000000000000602082015250565b600061515e602283613a58565b915061516982615102565b604082019050919050565b6000602082019050818103600083015261518d81615151565b9050919050565b7f45434453413a20696e76616c6964207369676e6174757265202776272076616c60008201527f7565000000000000000000000000000000000000000000000000000000000000602082015250565b60006151f0602283613a58565b91506151fb82615194565b604082019050919050565b6000602082019050818103600083015261521f816151e3565b9050919050565b7f4e487b7100000000000000000000000000000000000000000000000000000000600052604160045260246000fd5b60008190508160005260206000209050919050565b60006020601f8301049050919050565b600082821b905092915050565b6000600883026152b77fffffffffffffffffffffffffffffffffffffffffffffffffffffffffffffffff8261527a565b6152c1868361527a565b95508019841693508086168417925050509392505050565b60006152f46152ef6152ea84613b34565b6139d3565b613b34565b9050919050565b6000819050919050565b61530e836152d9565b61532261531a826152fb565b848454615287565b825550505050565b600090565b61533761532a565b615342818484615305565b505050565b5b818110156153665761535b60008261532f565b600181019050615348565b5050565b601f8211156153ab5761537c81615255565b6153858461526a565b81016020851015615394578190505b6153a86153a08561526a565b830182615347565b50505b505050565b600082821c905092915050565b60006153ce600019846008026153b0565b1980831691505092915050565b60006153e783836153bd565b9150826002028217905092915050565b61540082613a4d565b67ffffffffffffffff81111561541957615418615226565b5b615423825461411a565b61542e82828561536a565b600060209050601f831160018114615461576000841561544f578287015190505b61545985826153db565b8655506154c1565b601f19841661546f86615255565b60005b8281101561549757848901518255600182019150602085019450602081019050615472565b868310156154b457848901516154b0601f8916826153bd565b8355505b6001600288020188555050505b505050505050565b7f45524332303a206d696e7420746f20746865207a65726f206164647265737300600082015250565b60006154ff601f83613a58565b915061550a826154c9565b602082019050919050565b6000602082019050818103600083015261552e816154f2565b9050919050565b7f45524332303a206275726e2066726f6d20746865207a65726f2061646472657360008201527f7300000000000000000000000000000000000000000000000000000000000000602082015250565b6000615591602183613a58565b915061559c82615535565b604082019050919050565b600060208201905081810360008301526155c081615584565b9050919050565b7f45524332303a206275726e20616d6f756e7420657863656564732062616c616e60008201527f6365000000000000000000000000000000000000000000000000000000000000602082015250565b6000615623602283613a58565b915061562e826155c7565b604082019050919050565b6000602082019050818103600083015261565281615616565b9050919050565b7f416464726573733a20696e73756666696369656e742062616c616e636520666f60008201527f722063616c6c0000000000000000000000000000000000000000000000000000602082015250565b60006156b5602683613a58565b91506156c082615659565b604082019050919050565b600060208201905081810360008301526156e4816156a8565b9050919050565b7f416464726573733a2063616c6c20746f206e6f6e2d636f6e7472616374000000600082015250565b6000615721601d83613a58565b915061572c826156eb565b602082019050919050565b6000602082019050818103600083015261575081615714565b9050919050565b600081519050919050565b600081905092915050565b600061577882615757565b6157828185615762565b9350615792818560208601613a69565b80840191505092915050565b60006157aa828461576d565b915081905092915050565b7f53616665436173743a2076616c756520646f65736e27742066697420696e203260008201527f3234206269747300000000000000000000000000000000000000000000000000602082015250565b6000615811602783613a58565b915061581c826157b5565b604082019050919050565b6000602082019050818103600083015261584081615804565b905091905056fea264697066735822122071ef91468b3154191cb74f967c5f9e255f4ceb025830e50f76c8ac616caf0bb564736f6c634300080f0033",
  "devdoc": {
    "kind": "dev",
    "methods": {
      "DOMAIN_SEPARATOR()": {
        "details": "See {IERC20Permit-DOMAIN_SEPARATOR}."
      },
      "allowance(address,address)": {
        "details": "See {IERC20-allowance}."
      },
      "approve(address,uint256)": {
        "details": "See {IERC20-approve}. NOTE: If `amount` is the maximum `uint256`, the allowance is not updated on `transferFrom`. This is semantically equivalent to an infinite approval. Requirements: - `spender` cannot be the zero address."
      },
      "balanceOf(address)": {
        "details": "See {IERC20-balanceOf}."
      },
      "burn(uint256)": {
        "details": "Destroys `amount` tokens from the caller. See {ERC20-_burn}."
      },
      "burnFrom(address,uint256)": {
        "details": "Destroys `amount` tokens from `account`, deducting from the caller's allowance. See {ERC20-_burn} and {ERC20-allowance}. Requirements: - the caller must have allowance for ``accounts``'s tokens of at least `amount`."
      },
      "checkpoints(address,uint32)": {
        "details": "Get the `pos`-th checkpoint for `account`."
      },
      "decimals()": {
        "details": "Returns the number of decimals used to get its user representation. For example, if `decimals` equals `2`, a balance of `505` tokens should be displayed to a user as `5.05` (`505 / 10 ** 2`). Tokens usually opt for a value of 18, imitating the relationship between Ether and Wei. This is the value {ERC20} uses, unless this function is overridden; NOTE: This information is only used for _display_ purposes: it in no way affects any of the arithmetic of the contract, including {IERC20-balanceOf} and {IERC20-transfer}."
      },
      "decreaseAllowance(address,uint256)": {
        "details": "Atomically decreases the allowance granted to `spender` by the caller. This is an alternative to {approve} that can be used as a mitigation for problems described in {IERC20-approve}. Emits an {Approval} event indicating the updated allowance. Requirements: - `spender` cannot be the zero address. - `spender` must have allowance for the caller of at least `subtractedValue`."
      },
      "delegate(address)": {
        "details": "Delegate votes from the sender to `delegatee`."
      },
      "delegateBySig(address,uint256,uint256,uint8,bytes32,bytes32)": {
        "details": "Delegates votes from signer to `delegatee`"
      },
      "delegates(address)": {
        "details": "Get the address `account` is currently delegating to."
      },
      "getPastTotalSupply(uint256)": {
        "details": "Retrieve the `totalSupply` at the end of `blockNumber`. Note, this value is the sum of all balances. It is but NOT the sum of all the delegated votes! Requirements: - `blockNumber` must have been already mined"
      },
      "getPastVotes(address,uint256)": {
        "details": "Retrieve the number of votes for `account` at the end of `blockNumber`. Requirements: - `blockNumber` must have been already mined"
      },
      "getRoleAdmin(bytes32)": {
        "details": "Returns the admin role that controls `role`. See {grantRole} and {revokeRole}. To change a role's admin, use {AccessControl-_setRoleAdmin}."
      },
      "getVotes(address)": {
        "details": "Gets the current votes balance for `account`"
      },
      "grantRole(bytes32,address)": {
        "details": "Grants `role` to `account`. If `account` had not been already granted `role`, emits a {RoleGranted} event. Requirements: - the caller must have ``role``'s admin role."
      },
      "hasRole(bytes32,address)": {
        "details": "Returns `true` if `account` has been granted `role`."
      },
      "increaseAllowance(address,uint256)": {
        "details": "Atomically increases the allowance granted to `spender` by the caller. This is an alternative to {approve} that can be used as a mitigation for problems described in {IERC20-approve}. Emits an {Approval} event indicating the updated allowance. Requirements: - `spender` cannot be the zero address."
      },
      "name()": {
        "details": "Returns the name of the token."
      },
      "nonces(address)": {
        "details": "See {IERC20Permit-nonces}."
      },
      "numCheckpoints(address)": {
        "details": "Get number of checkpoints for `account`."
      },
      "permit(address,address,uint256,uint256,uint8,bytes32,bytes32)": {
        "details": "See {IERC20Permit-permit}."
      },
      "renounceRole(bytes32,address)": {
        "details": "Revokes `role` from the calling account. Roles are often managed via {grantRole} and {revokeRole}: this function's purpose is to provide a mechanism for accounts to lose their privileges if they are compromised (such as when a trusted device is misplaced). If the calling account had been granted `role`, emits a {RoleRevoked} event. Requirements: - the caller must be `account`."
      },
      "revokeRole(bytes32,address)": {
        "details": "Revokes `role` from `account`. If `account` had been granted `role`, emits a {RoleRevoked} event. Requirements: - the caller must have ``role``'s admin role."
      },
      "supportsInterface(bytes4)": {
        "details": "Returns true if this contract implements the interface defined by `interfaceId`. See the corresponding https://eips.ethereum.org/EIPS/eip-165#how-interfaces-are-identified[EIP section] to learn more about how these ids are created. This function call must use less than 30 000 gas."
      },
      "symbol()": {
        "details": "Returns the symbol of the token, usually a shorter version of the name."
      },
      "totalSupply()": {
        "details": "See {IERC20-totalSupply}."
      },
      "transfer(address,uint256)": {
        "details": "See {IERC20-transfer}. Requirements: - `to` cannot be the zero address. - the caller must have a balance of at least `amount`."
      },
      "transferFrom(address,address,uint256)": {
        "details": "See {IERC20-transferFrom}. Emits an {Approval} event indicating the updated allowance. This is not required by the EIP. See the note at the beginning of {ERC20}. NOTE: Does not update the allowance if the current allowance is the maximum `uint256`. Requirements: - `from` and `to` cannot be the zero address. - `from` must have a balance of at least `amount`. - the caller must have allowance for ``from``'s tokens of at least `amount`."
      },
      "transferOwnership(address)": {
        "details": "Transfers ownership of the contract to a new account (`newOwner`). Can only be called by the current owner."
      }
    },
    "stateVariables": {
      "__gap": {
        "details": "This empty reserved space is put in place to allow future versions to add new variables without shifting down storage in the inheritance chain. See https://docs.openzeppelin.com/contracts/4.x/upgradeable#storage_gaps"
      }
    },
    "title": "Governance token for StableUnit Decentralized Autonomous Organisation",
    "version": 1
  },
  "userdoc": {
    "kind": "user",
    "methods": {
      "rescueTokens(address)": {
        "notice": "The owner of the contact can take away tokens accidentally sent to the contract."
      }
    },
    "version": 1
  },
  "storageLayout": {
    "storage": [
      {
        "astId": 157,
        "contract": "contracts/SuDAO.sol:SuDAO",
        "label": "_initialized",
        "offset": 0,
        "slot": "0",
        "type": "t_uint8"
      },
      {
        "astId": 160,
        "contract": "contracts/SuDAO.sol:SuDAO",
        "label": "_initializing",
        "offset": 1,
        "slot": "0",
        "type": "t_bool"
      },
      {
        "astId": 2528,
        "contract": "contracts/SuDAO.sol:SuDAO",
        "label": "__gap",
        "offset": 0,
        "slot": "1",
        "type": "t_array(t_uint256)50_storage"
      },
      {
        "astId": 320,
        "contract": "contracts/SuDAO.sol:SuDAO",
        "label": "_balances",
        "offset": 0,
        "slot": "51",
        "type": "t_mapping(t_address,t_uint256)"
      },
      {
        "astId": 326,
        "contract": "contracts/SuDAO.sol:SuDAO",
        "label": "_allowances",
        "offset": 0,
        "slot": "52",
        "type": "t_mapping(t_address,t_mapping(t_address,t_uint256))"
      },
      {
        "astId": 328,
        "contract": "contracts/SuDAO.sol:SuDAO",
        "label": "_totalSupply",
        "offset": 0,
        "slot": "53",
        "type": "t_uint256"
      },
      {
        "astId": 330,
        "contract": "contracts/SuDAO.sol:SuDAO",
        "label": "_name",
        "offset": 0,
        "slot": "54",
        "type": "t_string_storage"
      },
      {
        "astId": 332,
        "contract": "contracts/SuDAO.sol:SuDAO",
        "label": "_symbol",
        "offset": 0,
        "slot": "55",
        "type": "t_string_storage"
      },
      {
        "astId": 911,
        "contract": "contracts/SuDAO.sol:SuDAO",
        "label": "__gap",
        "offset": 0,
        "slot": "56",
        "type": "t_array(t_uint256)45_storage"
      },
      {
        "astId": 3226,
        "contract": "contracts/SuDAO.sol:SuDAO",
        "label": "_HASHED_NAME",
        "offset": 0,
        "slot": "101",
        "type": "t_bytes32"
      },
      {
        "astId": 3228,
        "contract": "contracts/SuDAO.sol:SuDAO",
        "label": "_HASHED_VERSION",
        "offset": 0,
        "slot": "102",
        "type": "t_bytes32"
      },
      {
        "astId": 3366,
        "contract": "contracts/SuDAO.sol:SuDAO",
        "label": "__gap",
        "offset": 0,
        "slot": "103",
        "type": "t_array(t_uint256)50_storage"
      },
      {
        "astId": 1762,
        "contract": "contracts/SuDAO.sol:SuDAO",
        "label": "_nonces",
        "offset": 0,
        "slot": "153",
        "type": "t_mapping(t_address,t_struct(Counter)2535_storage)"
      },
      {
        "astId": 1770,
        "contract": "contracts/SuDAO.sol:SuDAO",
        "label": "_PERMIT_TYPEHASH_DEPRECATED_SLOT",
        "offset": 0,
        "slot": "154",
        "type": "t_bytes32"
      },
      {
        "astId": 1926,
        "contract": "contracts/SuDAO.sol:SuDAO",
        "label": "__gap",
        "offset": 0,
        "slot": "155",
        "type": "t_array(t_uint256)49_storage"
      },
      {
        "astId": 1095,
        "contract": "contracts/SuDAO.sol:SuDAO",
        "label": "_delegates",
        "offset": 0,
        "slot": "204",
        "type": "t_mapping(t_address,t_address)"
      },
      {
        "astId": 1101,
        "contract": "contracts/SuDAO.sol:SuDAO",
        "label": "_checkpoints",
        "offset": 0,
        "slot": "205",
        "type": "t_mapping(t_address,t_array(t_struct(Checkpoint)1086_storage)dyn_storage)"
      },
      {
        "astId": 1105,
        "contract": "contracts/SuDAO.sol:SuDAO",
        "label": "_totalSupplyCheckpoints",
        "offset": 0,
        "slot": "206",
        "type": "t_array(t_struct(Checkpoint)1086_storage)dyn_storage"
      },
      {
        "astId": 1710,
        "contract": "contracts/SuDAO.sol:SuDAO",
        "label": "__gap",
        "offset": 0,
        "slot": "207",
        "type": "t_array(t_uint256)47_storage"
      },
      {
        "astId": 1053,
        "contract": "contracts/SuDAO.sol:SuDAO",
        "label": "__gap",
        "offset": 0,
        "slot": "254",
        "type": "t_array(t_uint256)50_storage"
      },
      {
        "astId": 8840,
        "contract": "contracts/SuDAO.sol:SuDAO",
        "label": "ACCESS_CONTROL_SINGLETON",
        "offset": 0,
        "slot": "304",
        "type": "t_contract(IAccessControlUpgradeable)72"
      },
      {
        "astId": 9063,
        "contract": "contracts/SuDAO.sol:SuDAO",
        "label": "__gap",
        "offset": 0,
        "slot": "305",
        "type": "t_array(t_uint256)49_storage"
      },
      {
        "astId": 8806,
        "contract": "contracts/SuDAO.sol:SuDAO",
        "label": "__gap",
        "offset": 0,
        "slot": "354",
        "type": "t_array(t_uint256)49_storage"
      }
    ],
    "types": {
      "t_address": {
        "encoding": "inplace",
        "label": "address",
        "numberOfBytes": "20"
      },
      "t_array(t_struct(Checkpoint)1086_storage)dyn_storage": {
        "base": "t_struct(Checkpoint)1086_storage",
        "encoding": "dynamic_array",
        "label": "struct ERC20VotesUpgradeable.Checkpoint[]",
        "numberOfBytes": "32"
      },
      "t_array(t_uint256)45_storage": {
        "base": "t_uint256",
        "encoding": "inplace",
        "label": "uint256[45]",
        "numberOfBytes": "1440"
      },
      "t_array(t_uint256)47_storage": {
        "base": "t_uint256",
        "encoding": "inplace",
        "label": "uint256[47]",
        "numberOfBytes": "1504"
      },
      "t_array(t_uint256)49_storage": {
        "base": "t_uint256",
        "encoding": "inplace",
        "label": "uint256[49]",
        "numberOfBytes": "1568"
      },
      "t_array(t_uint256)50_storage": {
        "base": "t_uint256",
        "encoding": "inplace",
        "label": "uint256[50]",
        "numberOfBytes": "1600"
      },
      "t_bool": {
        "encoding": "inplace",
        "label": "bool",
        "numberOfBytes": "1"
      },
      "t_bytes32": {
        "encoding": "inplace",
        "label": "bytes32",
        "numberOfBytes": "32"
      },
      "t_contract(IAccessControlUpgradeable)72": {
        "encoding": "inplace",
        "label": "contract IAccessControlUpgradeable",
        "numberOfBytes": "20"
      },
      "t_mapping(t_address,t_address)": {
        "encoding": "mapping",
        "key": "t_address",
        "label": "mapping(address => address)",
        "numberOfBytes": "32",
        "value": "t_address"
      },
      "t_mapping(t_address,t_array(t_struct(Checkpoint)1086_storage)dyn_storage)": {
        "encoding": "mapping",
        "key": "t_address",
        "label": "mapping(address => struct ERC20VotesUpgradeable.Checkpoint[])",
        "numberOfBytes": "32",
        "value": "t_array(t_struct(Checkpoint)1086_storage)dyn_storage"
      },
      "t_mapping(t_address,t_mapping(t_address,t_uint256))": {
        "encoding": "mapping",
        "key": "t_address",
        "label": "mapping(address => mapping(address => uint256))",
        "numberOfBytes": "32",
        "value": "t_mapping(t_address,t_uint256)"
      },
      "t_mapping(t_address,t_struct(Counter)2535_storage)": {
        "encoding": "mapping",
        "key": "t_address",
        "label": "mapping(address => struct CountersUpgradeable.Counter)",
        "numberOfBytes": "32",
        "value": "t_struct(Counter)2535_storage"
      },
      "t_mapping(t_address,t_uint256)": {
        "encoding": "mapping",
        "key": "t_address",
        "label": "mapping(address => uint256)",
        "numberOfBytes": "32",
        "value": "t_uint256"
      },
      "t_string_storage": {
        "encoding": "bytes",
        "label": "string",
        "numberOfBytes": "32"
      },
      "t_struct(Checkpoint)1086_storage": {
        "encoding": "inplace",
        "label": "struct ERC20VotesUpgradeable.Checkpoint",
        "members": [
          {
            "astId": 1083,
            "contract": "contracts/SuDAO.sol:SuDAO",
            "label": "fromBlock",
            "offset": 0,
            "slot": "0",
            "type": "t_uint32"
          },
          {
            "astId": 1085,
            "contract": "contracts/SuDAO.sol:SuDAO",
            "label": "votes",
            "offset": 4,
            "slot": "0",
            "type": "t_uint224"
          }
        ],
        "numberOfBytes": "32"
      },
      "t_struct(Counter)2535_storage": {
        "encoding": "inplace",
        "label": "struct CountersUpgradeable.Counter",
        "members": [
          {
            "astId": 2534,
            "contract": "contracts/SuDAO.sol:SuDAO",
            "label": "_value",
            "offset": 0,
            "slot": "0",
            "type": "t_uint256"
          }
        ],
        "numberOfBytes": "32"
      },
      "t_uint224": {
        "encoding": "inplace",
        "label": "uint224",
        "numberOfBytes": "28"
      },
      "t_uint256": {
        "encoding": "inplace",
        "label": "uint256",
        "numberOfBytes": "32"
      },
      "t_uint32": {
        "encoding": "inplace",
        "label": "uint32",
        "numberOfBytes": "4"
      },
      "t_uint8": {
        "encoding": "inplace",
        "label": "uint8",
        "numberOfBytes": "1"
      }
    }
  }
}