{
  "address": "0x7c723A81f7A4aEa904e3fA89090ae47EC21Ab055",
  "abi": [
    {
      "inputs": [
        {
          "internalType": "address",
          "name": "accessNft",
          "type": "address"
        }
      ],
      "name": "AccessNftNotValidError",
      "type": "error"
    },
    {
      "inputs": [],
      "name": "DistributionTimeframeError",
      "type": "error"
    },
    {
      "inputs": [
        {
          "internalType": "address",
          "name": "account",
          "type": "address"
        },
        {
          "internalType": "address",
          "name": "accessNft",
          "type": "address"
        }
      ],
      "name": "NoAccessNftError",
      "type": "error"
    },
    {
      "inputs": [],
      "name": "NoActiveDistributionError",
      "type": "error"
    },
    {
      "inputs": [
        {
          "internalType": "uint256",
          "name": "donationAmountUsd1e18",
          "type": "uint256"
        }
      ],
      "name": "NotEnoughRewardLeft",
      "type": "error"
    },
    {
      "inputs": [
        {
          "internalType": "bytes32",
          "name": "role",
          "type": "bytes32"
        },
        {
          "internalType": "address",
          "name": "msgSender",
          "type": "address"
        }
      ],
      "name": "OnlyRoleError",
      "type": "error"
    },
    {
      "anonymous": false,
      "inputs": [
        {
          "indexed": false,
          "internalType": "uint8",
          "name": "version",
          "type": "uint8"
        }
      ],
      "name": "Initialized",
      "type": "event"
    },
    {
      "anonymous": false,
      "inputs": [
        {
          "indexed": false,
          "internalType": "address",
          "name": "msg_sender",
          "type": "address"
        },
        {
          "indexed": false,
          "internalType": "uint256",
          "name": "donationAmount",
          "type": "uint256"
        }
      ],
      "name": "Participated",
      "type": "event"
    },
    {
      "anonymous": false,
      "inputs": [
        {
          "indexed": false,
          "internalType": "uint64",
          "name": "_startTimestamp",
          "type": "uint64"
        },
        {
          "indexed": false,
          "internalType": "uint64",
          "name": "_deadlineTimestamp",
          "type": "uint64"
        },
        {
          "indexed": false,
          "internalType": "uint256",
          "name": "_donationGoalMin",
          "type": "uint256"
        },
        {
          "indexed": false,
          "internalType": "uint256",
          "name": "_donationGoalMax",
          "type": "uint256"
        },
        {
          "indexed": false,
          "internalType": "uint256",
          "name": "_minimumDonation",
          "type": "uint256"
        },
        {
          "indexed": false,
          "internalType": "uint256",
          "name": "_maximumDonation",
          "type": "uint256"
        },
        {
          "indexed": false,
          "internalType": "address",
          "name": "_donationToken",
          "type": "address"
        },
        {
          "indexed": false,
          "internalType": "uint64",
          "name": "_fullVestingSeconds",
          "type": "uint64"
        },
        {
          "indexed": false,
          "internalType": "uint64",
          "name": "_cliffSeconds",
          "type": "uint64"
        },
        {
          "indexed": false,
          "internalType": "uint64",
          "name": "_tgeUnlockRatio1e18",
          "type": "uint64"
        },
        {
          "indexed": false,
          "internalType": "uint64",
          "name": "_vestingFrequencySeconds",
          "type": "uint64"
        }
      ],
      "name": "SetDistribution",
      "type": "event"
    },
    {
      "inputs": [],
      "name": "ACCESS_CONTROL_SINGLETON",
      "outputs": [
        {
          "internalType": "contract ISuAccessControl",
          "name": "",
          "type": "address"
        }
      ],
      "stateMutability": "view",
      "type": "function"
    },
    {
      "inputs": [],
      "name": "ADMIN_ROLE",
      "outputs": [
        {
          "internalType": "bytes32",
          "name": "",
          "type": "bytes32"
        }
      ],
      "stateMutability": "view",
      "type": "function"
    },
    {
      "inputs": [],
      "name": "BONUS_CONTRACT",
      "outputs": [
        {
          "internalType": "address",
          "name": "",
          "type": "address"
        }
      ],
      "stateMutability": "view",
      "type": "function"
    },
    {
      "inputs": [],
      "name": "COMMUNITY_ADMIN_ROLE",
      "outputs": [
        {
          "internalType": "bytes32",
          "name": "",
          "type": "bytes32"
        }
      ],
      "stateMutability": "view",
      "type": "function"
    },
    {
      "inputs": [],
      "name": "DAO_ROLE",
      "outputs": [
        {
          "internalType": "bytes32",
          "name": "",
          "type": "bytes32"
        }
      ],
      "stateMutability": "view",
      "type": "function"
    },
    {
      "inputs": [],
      "name": "DEFAULT_ADMIN_ROLE",
      "outputs": [
        {
          "internalType": "bytes32",
          "name": "",
          "type": "bytes32"
        }
      ],
      "stateMutability": "view",
      "type": "function"
    },
    {
      "inputs": [],
      "name": "SU_DAO",
      "outputs": [
        {
          "internalType": "address",
          "name": "",
          "type": "address"
        }
      ],
      "stateMutability": "view",
      "type": "function"
    },
    {
      "inputs": [],
      "name": "VE_ERC_20",
      "outputs": [
        {
          "internalType": "address",
          "name": "",
          "type": "address"
        }
      ],
      "stateMutability": "view",
      "type": "function"
    },
    {
      "inputs": [
        {
          "internalType": "contract IERC20Upgradeable",
          "name": "token",
          "type": "address"
        }
      ],
      "name": "adminWithdraw",
      "outputs": [],
      "stateMutability": "nonpayable",
      "type": "function"
    },
    {
      "inputs": [
        {
          "internalType": "uint256",
          "name": "x",
          "type": "uint256"
        }
      ],
      "name": "antiderivativeOfBondingCurvePolynomial1e18At",
      "outputs": [
        {
          "internalType": "uint256",
          "name": "",
          "type": "uint256"
        }
      ],
      "stateMutability": "view",
      "type": "function"
    },
    {
      "inputs": [
        {
          "internalType": "uint256",
          "name": "",
          "type": "uint256"
        }
      ],
      "name": "bondingCurvePolynomial1e18",
      "outputs": [
        {
          "internalType": "uint256",
          "name": "",
          "type": "uint256"
        }
      ],
      "stateMutability": "view",
      "type": "function"
    },
    {
      "inputs": [
        {
          "internalType": "uint256",
          "name": "x",
          "type": "uint256"
        }
      ],
      "name": "bondingCurvePolynomial1e18At",
      "outputs": [
        {
          "internalType": "uint256",
          "name": "",
          "type": "uint256"
        }
      ],
      "stateMutability": "view",
      "type": "function"
    },
    {
      "inputs": [],
      "name": "cliffSeconds",
      "outputs": [
        {
          "internalType": "uint64",
          "name": "",
          "type": "uint64"
        }
      ],
      "stateMutability": "view",
      "type": "function"
    },
    {
      "inputs": [],
      "name": "deadlineTimestamp",
      "outputs": [
        {
          "internalType": "uint64",
          "name": "",
          "type": "uint64"
        }
      ],
      "stateMutability": "view",
      "type": "function"
    },
    {
      "inputs": [],
      "name": "donationGoalMax",
      "outputs": [
        {
          "internalType": "uint256",
          "name": "",
          "type": "uint256"
        }
      ],
      "stateMutability": "view",
      "type": "function"
    },
    {
      "inputs": [],
      "name": "donationGoalMin",
      "outputs": [
        {
          "internalType": "uint256",
          "name": "",
          "type": "uint256"
        }
      ],
      "stateMutability": "view",
      "type": "function"
    },
    {
      "inputs": [],
      "name": "donationToken",
      "outputs": [
        {
          "internalType": "address",
          "name": "",
          "type": "address"
        }
      ],
      "stateMutability": "view",
      "type": "function"
    },
    {
      "inputs": [],
      "name": "donationTokenToUSD1e18",
      "outputs": [
        {
          "internalType": "uint256",
          "name": "",
          "type": "uint256"
        }
      ],
      "stateMutability": "view",
      "type": "function"
    },
    {
      "inputs": [
        {
          "internalType": "address",
          "name": "",
          "type": "address"
        }
      ],
      "name": "donations",
      "outputs": [
        {
          "internalType": "uint256",
          "name": "",
          "type": "uint256"
        }
      ],
      "stateMutability": "view",
      "type": "function"
    },
    {
      "inputs": [],
      "name": "fullVestingSeconds",
      "outputs": [
        {
          "internalType": "uint64",
          "name": "",
          "type": "uint64"
        }
      ],
      "stateMutability": "view",
      "type": "function"
    },
    {
      "inputs": [
        {
          "internalType": "address",
          "name": "account",
          "type": "address"
        }
      ],
      "name": "getAccessNftsForUser",
      "outputs": [
        {
          "internalType": "address[]",
          "name": "",
          "type": "address[]"
        }
      ],
      "stateMutability": "view",
      "type": "function"
    },
    {
      "inputs": [
        {
          "internalType": "uint256",
          "name": "donationAmountUSD1e18",
          "type": "uint256"
        }
      ],
      "name": "getBondingCurveRewardAmountFromDonationUSD",
      "outputs": [
        {
          "internalType": "uint256",
          "name": "",
          "type": "uint256"
        }
      ],
      "stateMutability": "view",
      "type": "function"
    },
    {
      "inputs": [],
      "name": "getDistributorStaticData",
      "outputs": [
        {
          "internalType": "uint64",
          "name": "",
          "type": "uint64"
        },
        {
          "internalType": "uint64",
          "name": "",
          "type": "uint64"
        },
        {
          "internalType": "uint256",
          "name": "",
          "type": "uint256"
        },
        {
          "internalType": "uint256",
          "name": "",
          "type": "uint256"
        },
        {
          "internalType": "uint256",
          "name": "",
          "type": "uint256"
        },
        {
          "internalType": "uint256",
          "name": "",
          "type": "uint256"
        },
        {
          "internalType": "address",
          "name": "",
          "type": "address"
        },
        {
          "internalType": "uint64",
          "name": "",
          "type": "uint64"
        },
        {
          "internalType": "uint64",
          "name": "",
          "type": "uint64"
        },
        {
          "internalType": "uint64",
          "name": "",
          "type": "uint64"
        },
        {
          "internalType": "uint64",
          "name": "",
          "type": "uint64"
        }
      ],
      "stateMutability": "view",
      "type": "function"
    },
    {
      "inputs": [
        {
          "internalType": "address",
          "name": "user",
          "type": "address"
        },
        {
          "internalType": "address",
          "name": "accessNft",
          "type": "address"
        }
      ],
      "name": "getMaximumDonationAmount",
      "outputs": [
        {
          "internalType": "uint256",
          "name": "",
          "type": "uint256"
        }
      ],
      "stateMutability": "view",
      "type": "function"
    },
    {
      "inputs": [
        {
          "internalType": "bytes32",
          "name": "role",
          "type": "bytes32"
        }
      ],
      "name": "getRoleAdmin",
      "outputs": [
        {
          "internalType": "bytes32",
          "name": "",
          "type": "bytes32"
        }
      ],
      "stateMutability": "view",
      "type": "function"
    },
    {
      "inputs": [
        {
          "internalType": "bytes32",
          "name": "role",
          "type": "bytes32"
        },
        {
          "internalType": "address",
          "name": "account",
          "type": "address"
        }
      ],
      "name": "hasRole",
      "outputs": [
        {
          "internalType": "bool",
          "name": "",
          "type": "bool"
        }
      ],
      "stateMutability": "view",
      "type": "function"
    },
    {
      "inputs": [
        {
          "internalType": "address",
          "name": "_accessControlSingleton",
          "type": "address"
        },
        {
          "internalType": "address",
          "name": "_suDAO",
          "type": "address"
        },
        {
          "internalType": "address",
          "name": "_veErc20",
          "type": "address"
        },
        {
          "internalType": "address",
          "name": "_bonusContract",
          "type": "address"
        }
      ],
      "name": "initialize",
      "outputs": [],
      "stateMutability": "nonpayable",
      "type": "function"
    },
    {
      "inputs": [],
      "name": "maximumDonation",
      "outputs": [
        {
          "internalType": "uint256",
          "name": "",
          "type": "uint256"
        }
      ],
      "stateMutability": "view",
      "type": "function"
    },
    {
      "inputs": [],
      "name": "minimumDonation",
      "outputs": [
        {
          "internalType": "uint256",
          "name": "",
          "type": "uint256"
        }
      ],
      "stateMutability": "view",
      "type": "function"
    },
    {
      "inputs": [
        {
          "internalType": "uint256",
          "name": "donationAmount",
          "type": "uint256"
        },
        {
          "internalType": "address",
          "name": "accessNft",
          "type": "address"
        }
      ],
      "name": "participate",
      "outputs": [],
      "stateMutability": "payable",
      "type": "function"
    },
    {
      "inputs": [
        {
          "internalType": "uint256",
          "name": "_baseRewardRatio",
          "type": "uint256"
        }
      ],
      "name": "setBaseRewardRatio",
      "outputs": [],
      "stateMutability": "nonpayable",
      "type": "function"
    },
    {
      "inputs": [
        {
          "internalType": "uint256[]",
          "name": "_bondingCurvePolynomial1e18",
          "type": "uint256[]"
        }
      ],
      "name": "setBondingCurve",
      "outputs": [],
      "stateMutability": "nonpayable",
      "type": "function"
    },
    {
      "inputs": [
        {
          "internalType": "uint64",
          "name": "_startTimestamp",
          "type": "uint64"
        },
        {
          "internalType": "uint64",
          "name": "_deadlineTimestamp",
          "type": "uint64"
        },
        {
          "internalType": "uint256",
          "name": "_donationGoalMin",
          "type": "uint256"
        },
        {
          "internalType": "uint256",
          "name": "_donationGoalMax",
          "type": "uint256"
        },
        {
          "internalType": "uint256",
          "name": "_minimumDonation",
          "type": "uint256"
        },
        {
          "internalType": "uint256",
          "name": "_maximumDonation",
          "type": "uint256"
        },
        {
          "internalType": "address",
          "name": "_donationToken",
          "type": "address"
        },
        {
          "internalType": "uint64",
          "name": "_fullVestingSeconds",
          "type": "uint64"
        },
        {
          "internalType": "uint64",
          "name": "_cliffSeconds",
          "type": "uint64"
        },
        {
          "internalType": "uint64",
          "name": "_tgeUnlockRatio1e18",
          "type": "uint64"
        },
        {
          "internalType": "uint64",
          "name": "_vestingFrequencySeconds",
          "type": "uint64"
        }
      ],
      "name": "setDistributionInfo",
      "outputs": [],
      "stateMutability": "nonpayable",
      "type": "function"
    },
    {
      "inputs": [
        {
          "internalType": "address",
          "name": "accessNft",
          "type": "address"
        },
        {
          "internalType": "bool",
          "name": "valid",
          "type": "bool"
        }
      ],
      "name": "setNftAccess",
      "outputs": [],
      "stateMutability": "nonpayable",
      "type": "function"
    },
    {
      "inputs": [],
      "name": "startTimestamp",
      "outputs": [
        {
          "internalType": "uint64",
          "name": "",
          "type": "uint64"
        }
      ],
      "stateMutability": "view",
      "type": "function"
    },
    {
      "inputs": [
        {
          "internalType": "bytes4",
          "name": "interfaceId",
          "type": "bytes4"
        }
      ],
      "name": "supportsInterface",
      "outputs": [
        {
          "internalType": "bool",
          "name": "",
          "type": "bool"
        }
      ],
      "stateMutability": "view",
      "type": "function"
    },
    {
      "inputs": [],
      "name": "takeDonationBack",
      "outputs": [],
      "stateMutability": "nonpayable",
      "type": "function"
    },
    {
      "inputs": [],
      "name": "tgeUnlockRatio1e18",
      "outputs": [
        {
          "internalType": "uint64",
          "name": "",
          "type": "uint64"
        }
      ],
      "stateMutability": "view",
      "type": "function"
    },
    {
      "inputs": [],
      "name": "totalDonations",
      "outputs": [
        {
          "internalType": "uint256",
          "name": "",
          "type": "uint256"
        }
      ],
      "stateMutability": "view",
      "type": "function"
    },
    {
      "inputs": [],
      "name": "vestingFrequencySeconds",
      "outputs": [
        {
          "internalType": "uint64",
          "name": "",
          "type": "uint64"
        }
      ],
      "stateMutability": "view",
      "type": "function"
    },
    {
      "stateMutability": "payable",
      "type": "receive"
    }
  ],
  "numDeployments": 1,
  "solcInputHash": "2f5cafe94f7820e257db8b8525424f74",
  "bytecode": "0x608060405234801561001057600080fd5b506146d1806100206000396000f3fe60806040526004361061023f5760003560e01c806395367f891161012e578063d2051aa3116100ab578063efb8f4fd1161006f578063efb8f4fd146108bf578063f365642a146108d6578063f498446014610901578063f6d8414f1461093e578063f8c8765e1461096957610246565b8063d2051aa3146107d6578063dc4eff7e14610813578063de2ed8931461083e578063e6fd48bc14610869578063e9c265181461089457610246565b8063a217fddf116100f2578063a217fddf146106ef578063a28835b61461071a578063b5b8a68a14610743578063c7ad6fc51461076e578063cc6cb19a1461079957610246565b806395367f89146105f657806396d8f4f3146106215780639954a9bc1461064c5780639d0c6846146106755780639dbf7935146106b257610246565b806347b8ce3f116101bc5780636c5a5428116101805780636c5a5428146104fb57806375b238fc146105385780637b9fa8bd146105635780638341ee721461058e57806391d14854146105b957610246565b806347b8ce3f1461040a5780634a591c6d146104475780635deb395b146104725780635e10448b146104a757806363215aee146104d257610246565b80631a7b8831116102035780631a7b883114610325578063248a9ca31461034e578063303c1c8d1461038b57806335864cdc146103b4578063445c4c8d146103df57610246565b806301ffc9a71461024b57806303ee9f22146102885780630afcdef5146102b35780630df72159146102de57806313b186401461030957610246565b3661024657005b600080fd5b34801561025757600080fd5b50610272600480360381019061026d9190612ee0565b610992565b60405161027f9190612f28565b60405180910390f35b34801561029457600080fd5b5061029d610a37565b6040516102aa9190612fc2565b60405180910390f35b3480156102bf57600080fd5b506102c8610a5d565b6040516102d59190613000565b60405180910390f35b3480156102ea57600080fd5b506102f3610a77565b604051610300919061303c565b60405180910390f35b610323600480360381019061031e91906130b9565b610a9d565b005b34801561033157600080fd5b5061034c60048036038101906103479190613252565b6111e1565b005b34801561035a57600080fd5b50610375600480360381019061037091906132d1565b61126a565b604051610382919061330d565b60405180910390f35b34801561039757600080fd5b506103b260048036038101906103ad9190613354565b61130f565b005b3480156103c057600080fd5b506103c961171f565b6040516103d69190613000565b60405180910390f35b3480156103eb57600080fd5b506103f4611739565b604051610401919061303c565b60405180910390f35b34801561041657600080fd5b50610431600480360381019061042c9190613448565b61175f565b60405161043e9190613484565b60405180910390f35b34801561045357600080fd5b5061045c6117e0565b6040516104699190613484565b60405180910390f35b34801561047e57600080fd5b506104876117e6565b60405161049e9b9a9998979695949392919061349f565b60405180910390f35b3480156104b357600080fd5b506104bc6118d3565b6040516104c99190613000565b60405180910390f35b3480156104de57600080fd5b506104f960048036038101906104f49190613448565b6118ed565b005b34801561050757600080fd5b50610522600480360381019061051d9190613448565b611966565b60405161052f9190613484565b60405180910390f35b34801561054457600080fd5b5061054d61198a565b60405161055a919061330d565b60405180910390f35b34801561056f57600080fd5b506105786119ae565b6040516105859190613484565b60405180910390f35b34801561059a57600080fd5b506105a36119b4565b6040516105b09190613000565b60405180910390f35b3480156105c557600080fd5b506105e060048036038101906105db919061354a565b6119ce565b6040516105ed9190612f28565b60405180910390f35b34801561060257600080fd5b5061060b611a76565b604051610618919061330d565b60405180910390f35b34801561062d57600080fd5b50610636611a9a565b6040516106439190613484565b60405180910390f35b34801561065857600080fd5b50610673600480360381019061066e91906135b6565b611aa0565b005b34801561068157600080fd5b5061069c600480360381019061069791906135f6565b611b49565b6040516106a99190613484565b60405180910390f35b3480156106be57600080fd5b506106d960048036038101906106d49190613636565b611c43565b6040516106e69190613721565b60405180910390f35b3480156106fb57600080fd5b50610704611dd5565b604051610711919061330d565b60405180910390f35b34801561072657600080fd5b50610741600480360381019061073c9190613781565b611ddc565b005b34801561074f57600080fd5b50610758611f56565b604051610765919061303c565b60405180910390f35b34801561077a57600080fd5b50610783611f7c565b6040516107909190613484565b60405180910390f35b3480156107a557600080fd5b506107c060048036038101906107bb9190613636565b611f82565b6040516107cd9190613484565b60405180910390f35b3480156107e257600080fd5b506107fd60048036038101906107f89190613448565b611f9a565b60405161080a9190613484565b60405180910390f35b34801561081f57600080fd5b506108286120ff565b604051610835919061303c565b60405180910390f35b34801561084a57600080fd5b50610853612125565b6040516108609190613484565b60405180910390f35b34801561087557600080fd5b5061087e61212b565b60405161088b9190613000565b60405180910390f35b3480156108a057600080fd5b506108a9612145565b6040516108b6919061330d565b60405180910390f35b3480156108cb57600080fd5b506108d461214c565b005b3480156108e257600080fd5b506108eb6123c2565b6040516108f89190613484565b60405180910390f35b34801561090d57600080fd5b5061092860048036038101906109239190613448565b6123c8565b6040516109359190613484565b60405180910390f35b34801561094a57600080fd5b5061095361245f565b6040516109609190613000565b60405180910390f35b34801561097557600080fd5b50610990600480360381019061098b91906137ae565b612479565b005b6000603360009054906101000a900473ffffffffffffffffffffffffffffffffffffffff1673ffffffffffffffffffffffffffffffffffffffff166301ffc9a7836040518263ffffffff1660e01b81526004016109ef9190613824565b602060405180830381865afa158015610a0c573d6000803e3d6000fd5b505050506040513d601f19601f82011682018060405250810190610a309190613854565b9050919050565b603360009054906101000a900473ffffffffffffffffffffffffffffffffffffffff1681565b607160109054906101000a900467ffffffffffffffff1681565b607060009054906101000a900473ffffffffffffffffffffffffffffffffffffffff1681565b6000606d5403610ad9576040517f76d9f52e00000000000000000000000000000000000000000000000000000000815260040160405180910390fd5b606760149054906101000a900467ffffffffffffffff1667ffffffffffffffff16421080610b26575042606860009054906101000a900467ffffffffffffffff1667ffffffffffffffff16105b15610b5d576040517fd3af728300000000000000000000000000000000000000000000000000000000815260040160405180910390fd5b610b7181607261271e90919063ffffffff16565b610bb257806040517f7f2e188c000000000000000000000000000000000000000000000000000000008152600401610ba9919061303c565b60405180910390fd5b60008173ffffffffffffffffffffffffffffffffffffffff166370a08231336040518263ffffffff1660e01b8152600401610bed919061303c565b602060405180830381865afa158015610c0a573d6000803e3d6000fd5b505050506040513d601f19601f82011682018060405250810190610c2e9190613896565b03610c725733816040517f8afa396a000000000000000000000000000000000000000000000000000000008152600401610c699291906138c3565b60405180910390fd5b6069548211610cb6576040517f08c379a0000000000000000000000000000000000000000000000000000000008152600401610cad9061396f565b60405180910390fd5b6000606760009054906101000a900473ffffffffffffffffffffffffffffffffffffffff1673ffffffffffffffffffffffffffffffffffffffff16630e022923336040518263ffffffff1660e01b8152600401610d13919061303c565b602060405180830381865afa158015610d30573d6000803e3d6000fd5b505050506040513d601f19601f82011682018060405250810190610d549190613896565b90506000808214610d655781610d69565b606a545b90508084606e60003373ffffffffffffffffffffffffffffffffffffffff1673ffffffffffffffffffffffffffffffffffffffff16815260200190815260200160002054610db791906139be565b10610df7576040517f08c379a0000000000000000000000000000000000000000000000000000000008152600401610dee90613a86565b60405180910390fd5b6000606760009054906101000a900473ffffffffffffffffffffffffffffffffffffffff1673ffffffffffffffffffffffffffffffffffffffff166306f2791a336040518263ffffffff1660e01b8152600401610e54919061303c565b602060405180830381865afa158015610e71573d6000803e3d6000fd5b505050506040513d601f19601f82011682018060405250810190610e959190613896565b90506000670de0b6b3a764000082670de0b6b3a7640000610eb691906139be565b610ecc60745489610ec79190613aa6565b611f9a565b610ed69190613aa6565b610ee09190613b2f565b9050610f31333088607060009054906101000a900473ffffffffffffffffffffffffffffffffffffffff1673ffffffffffffffffffffffffffffffffffffffff1661274e909392919063ffffffff16565b85606f54610f3f91906139be565b606f8190555085606e60003373ffffffffffffffffffffffffffffffffffffffff1673ffffffffffffffffffffffffffffffffffffffff16815260200190815260200160002054610f9091906139be565b606e60003373ffffffffffffffffffffffffffffffffffffffff1673ffffffffffffffffffffffffffffffffffffffff1681526020019081526020016000208190555080606660009054906101000a900473ffffffffffffffffffffffffffffffffffffffff1673ffffffffffffffffffffffffffffffffffffffff166370a08231306040518263ffffffff1660e01b815260040161102f919061303c565b602060405180830381865afa15801561104c573d6000803e3d6000fd5b505050506040513d601f19601f820116820180604052508101906110709190613896565b10156110b1576040517f08c379a00000000000000000000000000000000000000000000000000000000081526004016110a890613bac565b60405180910390fd5b606560009054906101000a900473ffffffffffffffffffffffffffffffffffffffff1673ffffffffffffffffffffffffffffffffffffffff166393a56edc3383607060149054906101000a900467ffffffffffffffff16607160009054906101000a900467ffffffffffffffff16607160089054906101000a900467ffffffffffffffff16607160109054906101000a900467ffffffffffffffff166040518763ffffffff1660e01b815260040161116e96959493929190613bfd565b600060405180830381600087803b15801561118857600080fd5b505af115801561119c573d6000803e3d6000fd5b505050507fb198f199c43cc078ad46e5a5fabe03eba401f7417816c86af0bd2e7345c9950633876040516111d1929190613c5e565b60405180910390a1505050505050565b7fa49807205ce4d355092ef5a8a18f56e8913cf4a201fbe287825b095693c2177561120c81336119ce565b61124f5780336040517f37c2e343000000000000000000000000000000000000000000000000000000008152600401611246929190613c87565b60405180910390fd5b81606b9080519060200190611265929190612e0a565b505050565b6000603360009054906101000a900473ffffffffffffffffffffffffffffffffffffffff1673ffffffffffffffffffffffffffffffffffffffff1663248a9ca3836040518263ffffffff1660e01b81526004016112c7919061330d565b602060405180830381865afa1580156112e4573d6000803e3d6000fd5b505050506040513d601f19601f820116820180604052508101906113089190613cc5565b9050919050565b7fa49807205ce4d355092ef5a8a18f56e8913cf4a201fbe287825b095693c2177561133a81336119ce565b61137d5780336040517f37c2e343000000000000000000000000000000000000000000000000000000008152600401611374929190613c87565b60405180910390fd5b8a67ffffffffffffffff168c67ffffffffffffffff16106113d3576040517f08c379a00000000000000000000000000000000000000000000000000000000081526004016113ca90613d64565b60405180910390fd5b888a1115611416576040517f08c379a000000000000000000000000000000000000000000000000000000000815260040161140d90613df6565b60405180910390fd5b86881115611459576040517f08c379a000000000000000000000000000000000000000000000000000000000815260040161145090613e88565b60405180910390fd5b600073ffffffffffffffffffffffffffffffffffffffff168673ffffffffffffffffffffffffffffffffffffffff16036114c8576040517f08c379a00000000000000000000000000000000000000000000000000000000081526004016114bf90613ef4565b60405180910390fd5b8467ffffffffffffffff168467ffffffffffffffff161061151e576040517f08c379a000000000000000000000000000000000000000000000000000000000815260040161151590613f60565b60405180910390fd5b670de0b6b3a76400008367ffffffffffffffff161115611573576040517f08c379a000000000000000000000000000000000000000000000000000000000815260040161156a90613ff2565b60405180910390fd5b8b606760146101000a81548167ffffffffffffffff021916908367ffffffffffffffff1602179055508a606860006101000a81548167ffffffffffffffff021916908367ffffffffffffffff16021790555089606c8190555088606d819055508760698190555086606a8190555085607060006101000a81548173ffffffffffffffffffffffffffffffffffffffff021916908373ffffffffffffffffffffffffffffffffffffffff16021790555084607060146101000a81548167ffffffffffffffff021916908367ffffffffffffffff16021790555083607160006101000a81548167ffffffffffffffff021916908367ffffffffffffffff16021790555082607160086101000a81548167ffffffffffffffff021916908367ffffffffffffffff16021790555081607160106101000a81548167ffffffffffffffff021916908367ffffffffffffffff1602179055507fe81f01d972e8c23fba63a5e8b84c850255cc5b3427763906e1346ad28f1556a38c8c8c8c8c8c8c8c8c8c8c6040516117099b9a9998979695949392919061349f565b60405180910390a1505050505050505050505050565b607060149054906101000a900467ffffffffffffffff1681565b606760009054906101000a900473ffffffffffffffffffffffffffffffffffffffff1681565b600080606b8054905090506000600190506000805b838110156117d45782606b828154811061179157611790614012565b5b90600052602060002001546117a69190613aa6565b826117b191906139be565b915085836117bf9190613aa6565b925080806117cc90614041565b915050611774565b50809350505050919050565b606a5481565b6000806000806000806000806000806000606760149054906101000a900467ffffffffffffffff16606860009054906101000a900467ffffffffffffffff16606954606a54606c54606d54607060009054906101000a900473ffffffffffffffffffffffffffffffffffffffff16607060149054906101000a900467ffffffffffffffff16607160009054906101000a900467ffffffffffffffff16607160089054906101000a900467ffffffffffffffff16607160109054906101000a900467ffffffffffffffff169a509a509a509a509a509a509a509a509a509a509a50909192939495969798999a565b607160089054906101000a900467ffffffffffffffff1681565b7fa49807205ce4d355092ef5a8a18f56e8913cf4a201fbe287825b095693c2177561191881336119ce565b61195b5780336040517f37c2e343000000000000000000000000000000000000000000000000000000008152600401611952929190613c87565b60405180910390fd5b816074819055505050565b606b818154811061197657600080fd5b906000526020600020016000915090505481565b7fa49807205ce4d355092ef5a8a18f56e8913cf4a201fbe287825b095693c2177581565b606c5481565b607160009054906101000a900467ffffffffffffffff1681565b6000603360009054906101000a900473ffffffffffffffffffffffffffffffffffffffff1673ffffffffffffffffffffffffffffffffffffffff166391d1485484846040518363ffffffff1660e01b8152600401611a2d929190613c87565b602060405180830381865afa158015611a4a573d6000803e3d6000fd5b505050506040513d601f19601f82011682018060405250810190611a6e9190613854565b905092915050565b7f0a7cc066f24e107ff77c42c8a1bdaf1a5f775fa4a74e45530aaf9c866368f65381565b60695481565b7fa49807205ce4d355092ef5a8a18f56e8913cf4a201fbe287825b095693c21775611acb81336119ce565b611b0e5780336040517f37c2e343000000000000000000000000000000000000000000000000000000008152600401611b05929190613c87565b60405180910390fd5b8115611b2e57611b288360726127d790919063ffffffff16565b50611b44565b611b4283607261280790919063ffffffff16565b505b505050565b6000808273ffffffffffffffffffffffffffffffffffffffff166370a08231856040518263ffffffff1660e01b8152600401611b85919061303c565b602060405180830381865afa158015611ba2573d6000803e3d6000fd5b505050506040513d601f19601f82011682018060405250810190611bc69190613896565b1115611c3857611c31606e60008573ffffffffffffffffffffffffffffffffffffffff1673ffffffffffffffffffffffffffffffffffffffff16815260200190815260200160002054606a54611c1c9190614089565b606f54606d54611c2c9190614089565b612837565b9050611c3d565b600090505b92915050565b60606000611c516072612850565b905060008151905060008167ffffffffffffffff811115611c7557611c7461310f565b5b604051908082528060200260200182016040528015611ca35781602001602082028036833780820191505090505b50905060005b82811015611dc9576000848281518110611cc657611cc5614012565b5b602002602001015173ffffffffffffffffffffffffffffffffffffffff166370a08231886040518263ffffffff1660e01b8152600401611d06919061303c565b602060405180830381865afa158015611d23573d6000803e3d6000fd5b505050506040513d601f19601f82011682018060405250810190611d479190613896565b1115611db657838181518110611d6057611d5f614012565b5b6020026020010151828281518110611d7b57611d7a614012565b5b602002602001019073ffffffffffffffffffffffffffffffffffffffff16908173ffffffffffffffffffffffffffffffffffffffff16815250505b8080611dc190614041565b915050611ca9565b50809350505050919050565b6000801b81565b6000801b611dea81336119ce565b611e2d5780336040517f37c2e343000000000000000000000000000000000000000000000000000000008152600401611e24929190613c87565b60405180910390fd5b600073ffffffffffffffffffffffffffffffffffffffff168273ffffffffffffffffffffffffffffffffffffffff1603611ead573373ffffffffffffffffffffffffffffffffffffffff166108fc479081150290604051600060405180830381858888f19350505050158015611ea7573d6000803e3d6000fd5b50611f52565b611f51338373ffffffffffffffffffffffffffffffffffffffff166370a08231306040518263ffffffff1660e01b8152600401611eea919061303c565b602060405180830381865afa158015611f07573d6000803e3d6000fd5b505050506040513d601f19601f82011682018060405250810190611f2b9190613896565b8473ffffffffffffffffffffffffffffffffffffffff166128719092919063ffffffff16565b5b5050565b606560009054906101000a900473ffffffffffffffffffffffffffffffffffffffff1681565b60745481565b606e6020528060005260406000206000915090505481565b600080611fc8670de0b6b3a7640000607454606f54611fb99190613aa6565b611fc39190613b2f565b6123c8565b90506000612002670de0b6b3a764000085607454606f54611fe99190613aa6565b611ff391906139be565b611ffd9190613b2f565b6123c8565b9050600082826120129190614089565b9050606660009054906101000a900473ffffffffffffffffffffffffffffffffffffffff1673ffffffffffffffffffffffffffffffffffffffff166370a08231306040518263ffffffff1660e01b815260040161206f919061303c565b602060405180830381865afa15801561208c573d6000803e3d6000fd5b505050506040513d601f19601f820116820180604052508101906120b09190613896565b8111156120f457846040517fb766b56f0000000000000000000000000000000000000000000000000000000081526004016120eb9190613484565b60405180910390fd5b809350505050919050565b606660009054906101000a900473ffffffffffffffffffffffffffffffffffffffff1681565b606f5481565b606760149054906101000a900467ffffffffffffffff1681565b6000801b81565b606860009054906101000a900467ffffffffffffffff1667ffffffffffffffff164210156121af576040517f08c379a00000000000000000000000000000000000000000000000000000000081526004016121a690614109565b60405180910390fd5b606c54606f54106121f5576040517f08c379a00000000000000000000000000000000000000000000000000000000081526004016121ec90614175565b60405180910390fd5b6000606560009054906101000a900473ffffffffffffffffffffffffffffffffffffffff1673ffffffffffffffffffffffffffffffffffffffff166370a08231336040518263ffffffff1660e01b8152600401612252919061303c565b602060405180830381865afa15801561226f573d6000803e3d6000fd5b505050506040513d601f19601f820116820180604052508101906122939190613896565b146122d3576040517f08c379a00000000000000000000000000000000000000000000000000000000081526004016122ca90614207565b60405180910390fd5b6000606e60003373ffffffffffffffffffffffffffffffffffffffff1673ffffffffffffffffffffffffffffffffffffffff1681526020019081526020016000205490506000606e60003373ffffffffffffffffffffffffffffffffffffffff1673ffffffffffffffffffffffffffffffffffffffff1681526020019081526020016000208190555080606f5461236a9190614089565b606f819055506123bf303383607060009054906101000a900473ffffffffffffffffffffffffffffffffffffffff1673ffffffffffffffffffffffffffffffffffffffff1661274e909392919063ffffffff16565b50565b606d5481565b600080606b80549050905060008390506000805b83811015612453576001816123f191906139be565b83606b838154811061240657612405614012565b5b906000526020600020015461241b9190613aa6565b6124259190613b2f565b8261243091906139be565b9150858361243e9190613aa6565b9250808061244b90614041565b9150506123dc565b50809350505050919050565b606860009054906101000a900467ffffffffffffffff1681565b60008060019054906101000a900460ff161590508080156124aa5750600160008054906101000a900460ff1660ff16105b806124d757506124b9306128f7565b1580156124d65750600160008054906101000a900460ff1660ff16145b5b612516576040517f08c379a000000000000000000000000000000000000000000000000000000000815260040161250d90614299565b60405180910390fd5b60016000806101000a81548160ff021916908360ff1602179055508015612553576001600060016101000a81548160ff0219169083151502179055505b61255c8561291a565b83606660006101000a81548173ffffffffffffffffffffffffffffffffffffffff021916908373ffffffffffffffffffffffffffffffffffffffff16021790555082606560006101000a81548173ffffffffffffffffffffffffffffffffffffffff021916908373ffffffffffffffffffffffffffffffffffffffff16021790555081606760006101000a81548173ffffffffffffffffffffffffffffffffffffffff021916908373ffffffffffffffffffffffffffffffffffffffff1602179055508373ffffffffffffffffffffffffffffffffffffffff1663095ea7b3847fffffffffffffffffffffffffffffffffffffffffffffffffffffffffffffffff6040518363ffffffff1660e01b815260040161267a929190613c5e565b6020604051808303816000875af1158015612699573d6000803e3d6000fd5b505050506040513d601f19601f820116820180604052508101906126bd9190613854565b5080156127175760008060016101000a81548160ff0219169083151502179055507f7f26b83ff96e1f2b6a682f133852f6798a09c465da95921460cefb3847402498600160405161270e9190614301565b60405180910390a15b5050505050565b6000612746836000018373ffffffffffffffffffffffffffffffffffffffff1660001b6129ad565b905092915050565b6127d1846323b872dd60e01b85858560405160240161276f9392919061431c565b604051602081830303815290604052907bffffffffffffffffffffffffffffffffffffffffffffffffffffffff19166020820180517bffffffffffffffffffffffffffffffffffffffffffffffffffffffff83818316178352505050506129d0565b50505050565b60006127ff836000018373ffffffffffffffffffffffffffffffffffffffff1660001b612a97565b905092915050565b600061282f836000018373ffffffffffffffffffffffffffffffffffffffff1660001b612b07565b905092915050565b60008183106128465781612848565b825b905092915050565b6060600061286083600001612c1b565b905060608190508092505050919050565b6128f28363a9059cbb60e01b8484604051602401612890929190613c5e565b604051602081830303815290604052907bffffffffffffffffffffffffffffffffffffffffffffffffffffffff19166020820180517bffffffffffffffffffffffffffffffffffffffffffffffffffffffff83818316178352505050506129d0565b505050565b6000808273ffffffffffffffffffffffffffffffffffffffff163b119050919050565b600060019054906101000a900460ff16612969576040517f08c379a0000000000000000000000000000000000000000000000000000000008152600401612960906143c5565b60405180910390fd5b80603360006101000a81548173ffffffffffffffffffffffffffffffffffffffff021916908373ffffffffffffffffffffffffffffffffffffffff16021790555050565b600080836001016000848152602001908152602001600020541415905092915050565b6000612a32826040518060400160405280602081526020017f5361666545524332303a206c6f772d6c6576656c2063616c6c206661696c65648152508573ffffffffffffffffffffffffffffffffffffffff16612c779092919063ffffffff16565b9050600081511115612a925780806020019051810190612a529190613854565b612a91576040517f08c379a0000000000000000000000000000000000000000000000000000000008152600401612a8890614457565b60405180910390fd5b5b505050565b6000612aa383836129ad565b612afc578260000182908060018154018082558091505060019003906000526020600020016000909190919091505582600001805490508360010160008481526020019081526020016000208190555060019050612b01565b600090505b92915050565b60008083600101600084815260200190815260200160002054905060008114612c0f576000600182612b399190614089565b9050600060018660000180549050612b519190614089565b9050818114612bc0576000866000018281548110612b7257612b71614012565b5b9060005260206000200154905080876000018481548110612b9657612b95614012565b5b90600052602060002001819055508387600101600083815260200190815260200160002081905550505b85600001805480612bd457612bd3614477565b5b600190038181906000526020600020016000905590558560010160008681526020019081526020016000206000905560019350505050612c15565b60009150505b92915050565b606081600001805480602002602001604051908101604052809291908181526020018280548015612c6b57602002820191906000526020600020905b815481526020019060010190808311612c57575b50505050509050919050565b6060612c868484600085612c8f565b90509392505050565b606082471015612cd4576040517f08c379a0000000000000000000000000000000000000000000000000000000008152600401612ccb90614518565b60405180910390fd5b612cdd856128f7565b612d1c576040517f08c379a0000000000000000000000000000000000000000000000000000000008152600401612d1390614584565b60405180910390fd5b6000808673ffffffffffffffffffffffffffffffffffffffff168587604051612d45919061461e565b60006040518083038185875af1925050503d8060008114612d82576040519150601f19603f3d011682016040523d82523d6000602084013e612d87565b606091505b5091509150612d97828286612da3565b92505050949350505050565b60608315612db357829050612e03565b600083511115612dc65782518084602001fd5b816040517f08c379a0000000000000000000000000000000000000000000000000000000008152600401612dfa9190614679565b60405180910390fd5b9392505050565b828054828255906000526020600020908101928215612e46579160200282015b82811115612e45578251825591602001919060010190612e2a565b5b509050612e539190612e57565b5090565b5b80821115612e70576000816000905550600101612e58565b5090565b6000604051905090565b600080fd5b600080fd5b60007fffffffff0000000000000000000000000000000000000000000000000000000082169050919050565b612ebd81612e88565b8114612ec857600080fd5b50565b600081359050612eda81612eb4565b92915050565b600060208284031215612ef657612ef5612e7e565b5b6000612f0484828501612ecb565b91505092915050565b60008115159050919050565b612f2281612f0d565b82525050565b6000602082019050612f3d6000830184612f19565b92915050565b600073ffffffffffffffffffffffffffffffffffffffff82169050919050565b6000819050919050565b6000612f88612f83612f7e84612f43565b612f63565b612f43565b9050919050565b6000612f9a82612f6d565b9050919050565b6000612fac82612f8f565b9050919050565b612fbc81612fa1565b82525050565b6000602082019050612fd76000830184612fb3565b92915050565b600067ffffffffffffffff82169050919050565b612ffa81612fdd565b82525050565b60006020820190506130156000830184612ff1565b92915050565b600061302682612f43565b9050919050565b6130368161301b565b82525050565b6000602082019050613051600083018461302d565b92915050565b6000819050919050565b61306a81613057565b811461307557600080fd5b50565b60008135905061308781613061565b92915050565b6130968161301b565b81146130a157600080fd5b50565b6000813590506130b38161308d565b92915050565b600080604083850312156130d0576130cf612e7e565b5b60006130de85828601613078565b92505060206130ef858286016130a4565b9150509250929050565b600080fd5b6000601f19601f8301169050919050565b7f4e487b7100000000000000000000000000000000000000000000000000000000600052604160045260246000fd5b613147826130fe565b810181811067ffffffffffffffff821117156131665761316561310f565b5b80604052505050565b6000613179612e74565b9050613185828261313e565b919050565b600067ffffffffffffffff8211156131a5576131a461310f565b5b602082029050602081019050919050565b600080fd5b60006131ce6131c98461318a565b61316f565b905080838252602082019050602084028301858111156131f1576131f06131b6565b5b835b8181101561321a57806132068882613078565b8452602084019350506020810190506131f3565b5050509392505050565b600082601f830112613239576132386130f9565b5b81356132498482602086016131bb565b91505092915050565b60006020828403121561326857613267612e7e565b5b600082013567ffffffffffffffff81111561328657613285612e83565b5b61329284828501613224565b91505092915050565b6000819050919050565b6132ae8161329b565b81146132b957600080fd5b50565b6000813590506132cb816132a5565b92915050565b6000602082840312156132e7576132e6612e7e565b5b60006132f5848285016132bc565b91505092915050565b6133078161329b565b82525050565b600060208201905061332260008301846132fe565b92915050565b61333181612fdd565b811461333c57600080fd5b50565b60008135905061334e81613328565b92915050565b60008060008060008060008060008060006101608c8e03121561337a57613379612e7e565b5b60006133888e828f0161333f565b9b505060206133998e828f0161333f565b9a505060406133aa8e828f01613078565b99505060606133bb8e828f01613078565b98505060806133cc8e828f01613078565b97505060a06133dd8e828f01613078565b96505060c06133ee8e828f016130a4565b95505060e06133ff8e828f0161333f565b9450506101006134118e828f0161333f565b9350506101206134238e828f0161333f565b9250506101406134358e828f0161333f565b9150509295989b509295989b9093969950565b60006020828403121561345e5761345d612e7e565b5b600061346c84828501613078565b91505092915050565b61347e81613057565b82525050565b60006020820190506134996000830184613475565b92915050565b6000610160820190506134b5600083018e612ff1565b6134c2602083018d612ff1565b6134cf604083018c613475565b6134dc606083018b613475565b6134e9608083018a613475565b6134f660a0830189613475565b61350360c083018861302d565b61351060e0830187612ff1565b61351e610100830186612ff1565b61352c610120830185612ff1565b61353a610140830184612ff1565b9c9b505050505050505050505050565b6000806040838503121561356157613560612e7e565b5b600061356f858286016132bc565b9250506020613580858286016130a4565b9150509250929050565b61359381612f0d565b811461359e57600080fd5b50565b6000813590506135b08161358a565b92915050565b600080604083850312156135cd576135cc612e7e565b5b60006135db858286016130a4565b92505060206135ec858286016135a1565b9150509250929050565b6000806040838503121561360d5761360c612e7e565b5b600061361b858286016130a4565b925050602061362c858286016130a4565b9150509250929050565b60006020828403121561364c5761364b612e7e565b5b600061365a848285016130a4565b91505092915050565b600081519050919050565b600082825260208201905092915050565b6000819050602082019050919050565b6136988161301b565b82525050565b60006136aa838361368f565b60208301905092915050565b6000602082019050919050565b60006136ce82613663565b6136d8818561366e565b93506136e38361367f565b8060005b838110156137145781516136fb888261369e565b9750613706836136b6565b9250506001810190506136e7565b5085935050505092915050565b6000602082019050818103600083015261373b81846136c3565b905092915050565b600061374e8261301b565b9050919050565b61375e81613743565b811461376957600080fd5b50565b60008135905061377b81613755565b92915050565b60006020828403121561379757613796612e7e565b5b60006137a58482850161376c565b91505092915050565b600080600080608085870312156137c8576137c7612e7e565b5b60006137d6878288016130a4565b94505060206137e7878288016130a4565b93505060406137f8878288016130a4565b9250506060613809878288016130a4565b91505092959194509250565b61381e81612e88565b82525050565b60006020820190506138396000830184613815565b92915050565b60008151905061384e8161358a565b92915050565b60006020828403121561386a57613869612e7e565b5b60006138788482850161383f565b91505092915050565b60008151905061389081613061565b92915050565b6000602082840312156138ac576138ab612e7e565b5b60006138ba84828501613881565b91505092915050565b60006040820190506138d8600083018561302d565b6138e5602083018461302d565b9392505050565b600082825260208201905092915050565b7f596f757220646f6e6174696f6e2073686f756c6420626520677265617465722060008201527f7468616e206d696e696d756d20646f6e6174696f6e0000000000000000000000602082015250565b60006139596035836138ec565b9150613964826138fd565b604082019050919050565b600060208201905081810360008301526139888161394c565b9050919050565b7f4e487b7100000000000000000000000000000000000000000000000000000000600052601160045260246000fd5b60006139c982613057565b91506139d483613057565b9250827fffffffffffffffffffffffffffffffffffffffffffffffffffffffffffffffff03821115613a0957613a0861398f565b5b828201905092915050565b7f596f757220646f6e6174696f6e732073686f756c64206265206c65737320746860008201527f616e206d617820646f6e6174696f6e0000000000000000000000000000000000602082015250565b6000613a70602f836138ec565b9150613a7b82613a14565b604082019050919050565b60006020820190508181036000830152613a9f81613a63565b9050919050565b6000613ab182613057565b9150613abc83613057565b9250817fffffffffffffffffffffffffffffffffffffffffffffffffffffffffffffffff0483118215151615613af557613af461398f565b5b828202905092915050565b7f4e487b7100000000000000000000000000000000000000000000000000000000600052601260045260246000fd5b6000613b3a82613057565b9150613b4583613057565b925082613b5557613b54613b00565b5b828204905092915050565b7f6e6f7420656e6f75676820726577617264206c65667400000000000000000000600082015250565b6000613b966016836138ec565b9150613ba182613b60565b602082019050919050565b60006020820190508181036000830152613bc581613b89565b9050919050565b6000613be7613be2613bdd84612fdd565b612f63565b613057565b9050919050565b613bf781613bcc565b82525050565b600060c082019050613c12600083018961302d565b613c1f6020830188613475565b613c2c6040830187613bee565b613c396060830186613bee565b613c466080830185613bee565b613c5360a0830184613bee565b979650505050505050565b6000604082019050613c73600083018561302d565b613c806020830184613475565b9392505050565b6000604082019050613c9c60008301856132fe565b613ca9602083018461302d565b9392505050565b600081519050613cbf816132a5565b92915050565b600060208284031215613cdb57613cda612e7e565b5b6000613ce984828501613cb0565b91505092915050565b7f215f737461727454696d657374616d70203c205f646561646c696e6554696d6560008201527f7374616d70000000000000000000000000000000000000000000000000000000602082015250565b6000613d4e6025836138ec565b9150613d5982613cf2565b604082019050919050565b60006020820190508181036000830152613d7d81613d41565b9050919050565b7f21646f6e6174696f6e476f616c4d696e203c3d20646f6e6174696f6e476f616c60008201527f4d61780000000000000000000000000000000000000000000000000000000000602082015250565b6000613de06023836138ec565b9150613deb82613d84565b604082019050919050565b60006020820190508181036000830152613e0f81613dd3565b9050919050565b7f216d696e696d756d446f6e6174696f6e557364203c3d206d6178696d756d446f60008201527f6e6174696f6e5573640000000000000000000000000000000000000000000000602082015250565b6000613e726029836138ec565b9150613e7d82613e16565b604082019050919050565b60006020820190508181036000830152613ea181613e65565b9050919050565b7f646f6e6174696f6e546f6b656e206973206e756c6c0000000000000000000000600082015250565b6000613ede6015836138ec565b9150613ee982613ea8565b602082019050919050565b60006020820190508181036000830152613f0d81613ed1565b9050919050565b7f21636c696666207365636f6e6473203c2076657374696e67207365636f6e6473600082015250565b6000613f4a6020836138ec565b9150613f5582613f14565b602082019050919050565b60006020820190508181036000830152613f7981613f3d565b9050919050565b7f746765556e6c6f636b526174696f2073686f756c64206265206c65737320746860008201527f616e203100000000000000000000000000000000000000000000000000000000602082015250565b6000613fdc6024836138ec565b9150613fe782613f80565b604082019050919050565b6000602082019050818103600083015261400b81613fcf565b9050919050565b7f4e487b7100000000000000000000000000000000000000000000000000000000600052603260045260246000fd5b600061404c82613057565b91507fffffffffffffffffffffffffffffffffffffffffffffffffffffffffffffffff820361407e5761407d61398f565b5b600182019050919050565b600061409482613057565b915061409f83613057565b9250828210156140b2576140b161398f565b5b828203905092915050565b7f50617274696369706174696f6e20686173206e6f742079657420656e64656400600082015250565b60006140f3601f836138ec565b91506140fe826140bd565b602082019050919050565b60006020820190508181036000830152614122816140e6565b9050919050565b7f4d696e20676f616c207265616368656400000000000000000000000000000000600082015250565b600061415f6010836138ec565b915061416a82614129565b602082019050919050565b6000602082019050818103600083015261418e81614152565b9050919050565b7f596f752073686f756c6420646f6e61746520616c6c20796f757220746f6b656e60008201527f7320696e20766545524332300000000000000000000000000000000000000000602082015250565b60006141f1602c836138ec565b91506141fc82614195565b604082019050919050565b60006020820190508181036000830152614220816141e4565b9050919050565b7f496e697469616c697a61626c653a20636f6e747261637420697320616c72656160008201527f647920696e697469616c697a6564000000000000000000000000000000000000602082015250565b6000614283602e836138ec565b915061428e82614227565b604082019050919050565b600060208201905081810360008301526142b281614276565b9050919050565b6000819050919050565b600060ff82169050919050565b60006142eb6142e66142e1846142b9565b612f63565b6142c3565b9050919050565b6142fb816142d0565b82525050565b600060208201905061431660008301846142f2565b92915050565b6000606082019050614331600083018661302d565b61433e602083018561302d565b61434b6040830184613475565b949350505050565b7f496e697469616c697a61626c653a20636f6e7472616374206973206e6f74206960008201527f6e697469616c697a696e67000000000000000000000000000000000000000000602082015250565b60006143af602b836138ec565b91506143ba82614353565b604082019050919050565b600060208201905081810360008301526143de816143a2565b9050919050565b7f5361666545524332303a204552433230206f7065726174696f6e20646964206e60008201527f6f74207375636365656400000000000000000000000000000000000000000000602082015250565b6000614441602a836138ec565b915061444c826143e5565b604082019050919050565b6000602082019050818103600083015261447081614434565b9050919050565b7f4e487b7100000000000000000000000000000000000000000000000000000000600052603160045260246000fd5b7f416464726573733a20696e73756666696369656e742062616c616e636520666f60008201527f722063616c6c0000000000000000000000000000000000000000000000000000602082015250565b60006145026026836138ec565b915061450d826144a6565b604082019050919050565b60006020820190508181036000830152614531816144f5565b9050919050565b7f416464726573733a2063616c6c20746f206e6f6e2d636f6e7472616374000000600082015250565b600061456e601d836138ec565b915061457982614538565b602082019050919050565b6000602082019050818103600083015261459d81614561565b9050919050565b600081519050919050565b600081905092915050565b60005b838110156145d85780820151818401526020810190506145bd565b838111156145e7576000848401525b50505050565b60006145f8826145a4565b61460281856145af565b93506146128185602086016145ba565b80840191505092915050565b600061462a82846145ed565b915081905092915050565b600081519050919050565b600061464b82614635565b61465581856138ec565b93506146658185602086016145ba565b61466e816130fe565b840191505092915050565b600060208201905081810360008301526146938184614640565b90509291505056fea2646970667358221220c961a60134a40a57c69046d46cee571666d547885d48e4a80fab324de366047864736f6c634300080f0033",
  "devdoc": {
    "kind": "dev",
    "methods": {
      "adminWithdraw(address)": {
        "details": "The owner can't take away SuDAO token already distributed to users, because they are stored on timelockVault"
      }
    },
    "stateVariables": {
      "__gap": {
        "details": "This empty reserved space is put in place to allow future versions to add new variables without shifting down storage in the inheritance chain. See https://docs.openzeppelin.com/contracts/4.x/upgradeable#storage_gaps"
      }
    },
    "title": "The contract that distribute suDAO tokens for community based on NFT membership",
    "version": 1
  },
  "userdoc": {
    "kind": "user",
    "methods": {
      "adminWithdraw(address)": {
        "notice": "The owner of the contact can take away tokens sent to the contract."
      },
      "getMaximumDonationAmount(address,address)": {
        "notice": "Get the max donation that user can do"
      },
      "participate(uint256,address)": {
        "notice": "notice Allows to participate for users with required NFT param donationAmount The amount of tokens specified in donationToken"
      },
      "setDistributionInfo(uint64,uint64,uint256,uint256,uint256,uint256,address,uint64,uint64,uint64,uint64)": {
        "notice": "The owner can set new or edit existing token distribution with no restrictions"
      }
    },
    "version": 1
  },
  "storageLayout": {
    "storage": [
      {
        "astId": 497,
        "contract": "contracts/distributions/TokenDistributorV4.sol:TokenDistributorV4",
        "label": "_initialized",
        "offset": 0,
        "slot": "0",
        "type": "t_uint8"
      },
      {
        "astId": 500,
        "contract": "contracts/distributions/TokenDistributorV4.sol:TokenDistributorV4",
        "label": "_initializing",
        "offset": 1,
        "slot": "0",
        "type": "t_bool"
      },
      {
        "astId": 4310,
        "contract": "contracts/distributions/TokenDistributorV4.sol:TokenDistributorV4",
        "label": "__gap",
        "offset": 0,
        "slot": "1",
        "type": "t_array(t_uint256)50_storage"
      },
      {
        "astId": 11595,
        "contract": "contracts/distributions/TokenDistributorV4.sol:TokenDistributorV4",
        "label": "ACCESS_CONTROL_SINGLETON",
        "offset": 0,
        "slot": "51",
        "type": "t_contract(ISuAccessControl)12807"
      },
      {
        "astId": 11682,
        "contract": "contracts/distributions/TokenDistributorV4.sol:TokenDistributorV4",
        "label": "__gap",
        "offset": 0,
        "slot": "52",
        "type": "t_array(t_uint256)49_storage"
      },
      {
        "astId": 11730,
        "contract": "contracts/distributions/TokenDistributorV4.sol:TokenDistributorV4",
        "label": "VE_ERC_20",
        "offset": 0,
        "slot": "101",
        "type": "t_address"
      },
      {
        "astId": 11732,
        "contract": "contracts/distributions/TokenDistributorV4.sol:TokenDistributorV4",
        "label": "SU_DAO",
        "offset": 0,
        "slot": "102",
        "type": "t_address"
      },
      {
        "astId": 11734,
        "contract": "contracts/distributions/TokenDistributorV4.sol:TokenDistributorV4",
        "label": "BONUS_CONTRACT",
        "offset": 0,
        "slot": "103",
        "type": "t_address"
      },
      {
        "astId": 11736,
        "contract": "contracts/distributions/TokenDistributorV4.sol:TokenDistributorV4",
        "label": "startTimestamp",
        "offset": 20,
        "slot": "103",
        "type": "t_uint64"
      },
      {
        "astId": 11738,
        "contract": "contracts/distributions/TokenDistributorV4.sol:TokenDistributorV4",
        "label": "deadlineTimestamp",
        "offset": 0,
        "slot": "104",
        "type": "t_uint64"
      },
      {
        "astId": 11740,
        "contract": "contracts/distributions/TokenDistributorV4.sol:TokenDistributorV4",
        "label": "minimumDonation",
        "offset": 0,
        "slot": "105",
        "type": "t_uint256"
      },
      {
        "astId": 11742,
        "contract": "contracts/distributions/TokenDistributorV4.sol:TokenDistributorV4",
        "label": "maximumDonation",
        "offset": 0,
        "slot": "106",
        "type": "t_uint256"
      },
      {
        "astId": 11745,
        "contract": "contracts/distributions/TokenDistributorV4.sol:TokenDistributorV4",
        "label": "bondingCurvePolynomial1e18",
        "offset": 0,
        "slot": "107",
        "type": "t_array(t_uint256)dyn_storage"
      },
      {
        "astId": 11747,
        "contract": "contracts/distributions/TokenDistributorV4.sol:TokenDistributorV4",
        "label": "donationGoalMin",
        "offset": 0,
        "slot": "108",
        "type": "t_uint256"
      },
      {
        "astId": 11749,
        "contract": "contracts/distributions/TokenDistributorV4.sol:TokenDistributorV4",
        "label": "donationGoalMax",
        "offset": 0,
        "slot": "109",
        "type": "t_uint256"
      },
      {
        "astId": 11753,
        "contract": "contracts/distributions/TokenDistributorV4.sol:TokenDistributorV4",
        "label": "donations",
        "offset": 0,
        "slot": "110",
        "type": "t_mapping(t_address,t_uint256)"
      },
      {
        "astId": 11755,
        "contract": "contracts/distributions/TokenDistributorV4.sol:TokenDistributorV4",
        "label": "totalDonations",
        "offset": 0,
        "slot": "111",
        "type": "t_uint256"
      },
      {
        "astId": 11757,
        "contract": "contracts/distributions/TokenDistributorV4.sol:TokenDistributorV4",
        "label": "donationToken",
        "offset": 0,
        "slot": "112",
        "type": "t_address"
      },
      {
        "astId": 11759,
        "contract": "contracts/distributions/TokenDistributorV4.sol:TokenDistributorV4",
        "label": "fullVestingSeconds",
        "offset": 20,
        "slot": "112",
        "type": "t_uint64"
      },
      {
        "astId": 11761,
        "contract": "contracts/distributions/TokenDistributorV4.sol:TokenDistributorV4",
        "label": "cliffSeconds",
        "offset": 0,
        "slot": "113",
        "type": "t_uint64"
      },
      {
        "astId": 11763,
        "contract": "contracts/distributions/TokenDistributorV4.sol:TokenDistributorV4",
        "label": "tgeUnlockRatio1e18",
        "offset": 8,
        "slot": "113",
        "type": "t_uint64"
      },
      {
        "astId": 11765,
        "contract": "contracts/distributions/TokenDistributorV4.sol:TokenDistributorV4",
        "label": "vestingFrequencySeconds",
        "offset": 16,
        "slot": "113",
        "type": "t_uint64"
      },
      {
        "astId": 11772,
        "contract": "contracts/distributions/TokenDistributorV4.sol:TokenDistributorV4",
        "label": "nftRequirement",
        "offset": 0,
        "slot": "114",
        "type": "t_struct(AddressSet)10322_storage"
      },
      {
        "astId": 11774,
        "contract": "contracts/distributions/TokenDistributorV4.sol:TokenDistributorV4",
        "label": "donationTokenToUSD1e18",
        "offset": 0,
        "slot": "116",
        "type": "t_uint256"
      },
      {
        "astId": 12669,
        "contract": "contracts/distributions/TokenDistributorV4.sol:TokenDistributorV4",
        "label": "__gap",
        "offset": 0,
        "slot": "117",
        "type": "t_array(t_uint256)48_storage"
      }
    ],
    "types": {
      "t_address": {
        "encoding": "inplace",
        "label": "address",
        "numberOfBytes": "20"
      },
      "t_array(t_bytes32)dyn_storage": {
        "base": "t_bytes32",
        "encoding": "dynamic_array",
        "label": "bytes32[]",
        "numberOfBytes": "32"
      },
      "t_array(t_uint256)48_storage": {
        "base": "t_uint256",
        "encoding": "inplace",
        "label": "uint256[48]",
        "numberOfBytes": "1536"
      },
      "t_array(t_uint256)49_storage": {
        "base": "t_uint256",
        "encoding": "inplace",
        "label": "uint256[49]",
        "numberOfBytes": "1568"
      },
      "t_array(t_uint256)50_storage": {
        "base": "t_uint256",
        "encoding": "inplace",
        "label": "uint256[50]",
        "numberOfBytes": "1600"
      },
      "t_array(t_uint256)dyn_storage": {
        "base": "t_uint256",
        "encoding": "dynamic_array",
        "label": "uint256[]",
        "numberOfBytes": "32"
      },
      "t_bool": {
        "encoding": "inplace",
        "label": "bool",
        "numberOfBytes": "1"
      },
      "t_bytes32": {
        "encoding": "inplace",
        "label": "bytes32",
        "numberOfBytes": "32"
      },
      "t_contract(ISuAccessControl)12807": {
        "encoding": "inplace",
        "label": "contract ISuAccessControl",
        "numberOfBytes": "20"
      },
      "t_mapping(t_address,t_uint256)": {
        "encoding": "mapping",
        "key": "t_address",
        "label": "mapping(address => uint256)",
        "numberOfBytes": "32",
        "value": "t_uint256"
      },
      "t_mapping(t_bytes32,t_uint256)": {
        "encoding": "mapping",
        "key": "t_bytes32",
        "label": "mapping(bytes32 => uint256)",
        "numberOfBytes": "32",
        "value": "t_uint256"
      },
      "t_struct(AddressSet)10322_storage": {
        "encoding": "inplace",
        "label": "struct EnumerableSet.AddressSet",
        "members": [
          {
            "astId": 10321,
            "contract": "contracts/distributions/TokenDistributorV4.sol:TokenDistributorV4",
            "label": "_inner",
            "offset": 0,
            "slot": "0",
            "type": "t_struct(Set)10021_storage"
          }
        ],
        "numberOfBytes": "64"
      },
      "t_struct(Set)10021_storage": {
        "encoding": "inplace",
        "label": "struct EnumerableSet.Set",
        "members": [
          {
            "astId": 10016,
            "contract": "contracts/distributions/TokenDistributorV4.sol:TokenDistributorV4",
            "label": "_values",
            "offset": 0,
            "slot": "0",
            "type": "t_array(t_bytes32)dyn_storage"
          },
          {
            "astId": 10020,
            "contract": "contracts/distributions/TokenDistributorV4.sol:TokenDistributorV4",
            "label": "_indexes",
            "offset": 0,
            "slot": "1",
            "type": "t_mapping(t_bytes32,t_uint256)"
          }
        ],
        "numberOfBytes": "64"
      },
      "t_uint256": {
        "encoding": "inplace",
        "label": "uint256",
        "numberOfBytes": "32"
      },
      "t_uint64": {
        "encoding": "inplace",
        "label": "uint64",
        "numberOfBytes": "8"
      },
      "t_uint8": {
        "encoding": "inplace",
        "label": "uint8",
        "numberOfBytes": "1"
      }
    }
  }
}