{
  "address": "0xE9fb2E3426cC5512FcF40F6683E6936A36510494",
  "abi": [
    {
      "inputs": [
        {
          "internalType": "address",
          "name": "accessNft",
          "type": "address"
        }
      ],
      "name": "AccessNftNotValidError",
      "type": "error"
    },
    {
      "inputs": [],
      "name": "DistributionTimeframeError",
      "type": "error"
    },
    {
      "inputs": [],
      "name": "DonationAmountError",
      "type": "error"
    },
    {
      "inputs": [
        {
          "internalType": "uint256",
          "name": "minGaol",
          "type": "uint256"
        },
        {
          "internalType": "uint256",
          "name": "maxGoal",
          "type": "uint256"
        },
        {
          "internalType": "uint256",
          "name": "totalDonations",
          "type": "uint256"
        }
      ],
      "name": "DonationGoalError",
      "type": "error"
    },
    {
      "inputs": [],
      "name": "DonationTokenError",
      "type": "error"
    },
    {
      "inputs": [
        {
          "internalType": "uint256",
          "name": "x",
          "type": "uint256"
        }
      ],
      "name": "NegativeAntiderivative",
      "type": "error"
    },
    {
      "inputs": [
        {
          "internalType": "address",
          "name": "account",
          "type": "address"
        },
        {
          "internalType": "address",
          "name": "accessNft",
          "type": "address"
        }
      ],
      "name": "NoAccessNftError",
      "type": "error"
    },
    {
      "inputs": [],
      "name": "NoActiveDistributionError",
      "type": "error"
    },
    {
      "inputs": [
        {
          "internalType": "uint256",
          "name": "donationAmountUsd1e18",
          "type": "uint256"
        }
      ],
      "name": "NotEnoughRewardLeft",
      "type": "error"
    },
    {
      "inputs": [
        {
          "internalType": "bytes32",
          "name": "role",
          "type": "bytes32"
        },
        {
          "internalType": "address",
          "name": "msgSender",
          "type": "address"
        }
      ],
      "name": "OnlyRoleError",
      "type": "error"
    },
    {
      "inputs": [],
      "name": "VestingError",
      "type": "error"
    },
    {
      "anonymous": false,
      "inputs": [
        {
          "indexed": false,
          "internalType": "uint8",
          "name": "version",
          "type": "uint8"
        }
      ],
      "name": "Initialized",
      "type": "event"
    },
    {
      "anonymous": false,
      "inputs": [
        {
          "indexed": false,
          "internalType": "address",
          "name": "msg_sender",
          "type": "address"
        },
        {
          "indexed": false,
          "internalType": "uint256",
          "name": "donationAmount",
          "type": "uint256"
        }
      ],
      "name": "Participated",
      "type": "event"
    },
    {
      "inputs": [],
      "name": "ACCESS_CONTROL_SINGLETON",
      "outputs": [
        {
          "internalType": "contract ISuAccessControl",
          "name": "",
          "type": "address"
        }
      ],
      "stateMutability": "view",
      "type": "function"
    },
    {
      "inputs": [],
      "name": "ADMIN_ROLE",
      "outputs": [
        {
          "internalType": "bytes32",
          "name": "",
          "type": "bytes32"
        }
      ],
      "stateMutability": "view",
      "type": "function"
    },
    {
      "inputs": [],
      "name": "BONUS_CONTRACT",
      "outputs": [
        {
          "internalType": "contract IBonus",
          "name": "",
          "type": "address"
        }
      ],
      "stateMutability": "view",
      "type": "function"
    },
    {
      "inputs": [],
      "name": "COMMUNITY_ADMIN_ROLE",
      "outputs": [
        {
          "internalType": "bytes32",
          "name": "",
          "type": "bytes32"
        }
      ],
      "stateMutability": "view",
      "type": "function"
    },
    {
      "inputs": [],
      "name": "DAO_ROLE",
      "outputs": [
        {
          "internalType": "bytes32",
          "name": "",
          "type": "bytes32"
        }
      ],
      "stateMutability": "view",
      "type": "function"
    },
    {
      "inputs": [],
      "name": "DEFAULT_ADMIN_ROLE",
      "outputs": [
        {
          "internalType": "bytes32",
          "name": "",
          "type": "bytes32"
        }
      ],
      "stateMutability": "view",
      "type": "function"
    },
    {
      "inputs": [],
      "name": "SU_DAO",
      "outputs": [
        {
          "internalType": "address",
          "name": "",
          "type": "address"
        }
      ],
      "stateMutability": "view",
      "type": "function"
    },
    {
      "inputs": [],
      "name": "VE_ERC_20",
      "outputs": [
        {
          "internalType": "address",
          "name": "",
          "type": "address"
        }
      ],
      "stateMutability": "view",
      "type": "function"
    },
    {
      "inputs": [
        {
          "internalType": "uint256",
          "name": "x",
          "type": "uint256"
        }
      ],
      "name": "antiderivativeOfBondingCurvePolynomial1e18At",
      "outputs": [
        {
          "internalType": "uint256",
          "name": "",
          "type": "uint256"
        }
      ],
      "stateMutability": "view",
      "type": "function"
    },
    {
      "inputs": [
        {
          "internalType": "uint256",
          "name": "",
          "type": "uint256"
        }
      ],
      "name": "bondingCurvePolynomial1e18",
      "outputs": [
        {
          "internalType": "int256",
          "name": "",
          "type": "int256"
        }
      ],
      "stateMutability": "view",
      "type": "function"
    },
    {
      "inputs": [
        {
          "internalType": "uint256",
          "name": "x",
          "type": "uint256"
        }
      ],
      "name": "bondingCurvePolynomial1e18At",
      "outputs": [
        {
          "internalType": "int256",
          "name": "",
          "type": "int256"
        }
      ],
      "stateMutability": "view",
      "type": "function"
    },
    {
      "inputs": [],
      "name": "bonusStats",
      "outputs": [
        {
          "internalType": "uint256",
          "name": "bonusRewarded",
          "type": "uint256"
        }
      ],
      "stateMutability": "view",
      "type": "function"
    },
    {
      "inputs": [],
      "name": "cliffSeconds",
      "outputs": [
        {
          "internalType": "uint64",
          "name": "",
          "type": "uint64"
        }
      ],
      "stateMutability": "view",
      "type": "function"
    },
    {
      "inputs": [
        {
          "internalType": "contract IERC20Upgradeable",
          "name": "token",
          "type": "address"
        },
        {
          "internalType": "address",
          "name": "to",
          "type": "address"
        },
        {
          "internalType": "uint256",
          "name": "amount",
          "type": "uint256"
        }
      ],
      "name": "daoWithdraw",
      "outputs": [],
      "stateMutability": "nonpayable",
      "type": "function"
    },
    {
      "inputs": [],
      "name": "deadlineTimestamp",
      "outputs": [
        {
          "internalType": "uint64",
          "name": "",
          "type": "uint64"
        }
      ],
      "stateMutability": "view",
      "type": "function"
    },
    {
      "inputs": [],
      "name": "donationGoalMax",
      "outputs": [
        {
          "internalType": "uint256",
          "name": "",
          "type": "uint256"
        }
      ],
      "stateMutability": "view",
      "type": "function"
    },
    {
      "inputs": [],
      "name": "donationGoalMin",
      "outputs": [
        {
          "internalType": "uint256",
          "name": "",
          "type": "uint256"
        }
      ],
      "stateMutability": "view",
      "type": "function"
    },
    {
      "inputs": [],
      "name": "donationToken",
      "outputs": [
        {
          "internalType": "address",
          "name": "",
          "type": "address"
        }
      ],
      "stateMutability": "view",
      "type": "function"
    },
    {
      "inputs": [],
      "name": "donationTokenToUSD1e18",
      "outputs": [
        {
          "internalType": "uint256",
          "name": "",
          "type": "uint256"
        }
      ],
      "stateMutability": "view",
      "type": "function"
    },
    {
      "inputs": [
        {
          "internalType": "address",
          "name": "",
          "type": "address"
        }
      ],
      "name": "donations",
      "outputs": [
        {
          "internalType": "uint256",
          "name": "",
          "type": "uint256"
        }
      ],
      "stateMutability": "view",
      "type": "function"
    },
    {
      "inputs": [],
      "name": "fullVestingSeconds",
      "outputs": [
        {
          "internalType": "uint64",
          "name": "",
          "type": "uint64"
        }
      ],
      "stateMutability": "view",
      "type": "function"
    },
    {
      "inputs": [],
      "name": "getAccessNfts",
      "outputs": [
        {
          "internalType": "address[]",
          "name": "",
          "type": "address[]"
        }
      ],
      "stateMutability": "view",
      "type": "function"
    },
    {
      "inputs": [
        {
          "internalType": "address",
          "name": "account",
          "type": "address"
        }
      ],
      "name": "getAccessNftsForUser",
      "outputs": [
        {
          "internalType": "address[]",
          "name": "",
          "type": "address[]"
        }
      ],
      "stateMutability": "view",
      "type": "function"
    },
    {
      "inputs": [
        {
          "internalType": "uint256",
          "name": "donationAmountUSD1e18",
          "type": "uint256"
        }
      ],
      "name": "getBondingCurveRewardAmountFromDonationUSD",
      "outputs": [
        {
          "internalType": "uint256",
          "name": "",
          "type": "uint256"
        }
      ],
      "stateMutability": "view",
      "type": "function"
    },
    {
      "inputs": [],
      "name": "getDistributorStaticData",
      "outputs": [
        {
          "internalType": "uint64",
          "name": "startTimestamp_",
          "type": "uint64"
        },
        {
          "internalType": "uint64",
          "name": "deadlineTimestamp_",
          "type": "uint64"
        },
        {
          "internalType": "uint256",
          "name": "minimumDonation_",
          "type": "uint256"
        },
        {
          "internalType": "uint256",
          "name": "maximumDonation_",
          "type": "uint256"
        },
        {
          "internalType": "uint256",
          "name": "donationGoalMin_",
          "type": "uint256"
        },
        {
          "internalType": "uint256",
          "name": "donationGoalMax_",
          "type": "uint256"
        },
        {
          "internalType": "address",
          "name": "donationToken_",
          "type": "address"
        },
        {
          "internalType": "uint64",
          "name": "fullVestingSeconds_",
          "type": "uint64"
        },
        {
          "internalType": "uint64",
          "name": "cliffSeconds_",
          "type": "uint64"
        },
        {
          "internalType": "uint64",
          "name": "tgeUnlockRatio1e18_",
          "type": "uint64"
        },
        {
          "internalType": "uint64",
          "name": "vestingFrequencySeconds_",
          "type": "uint64"
        }
      ],
      "stateMutability": "view",
      "type": "function"
    },
    {
      "inputs": [
        {
          "internalType": "address",
          "name": "user",
          "type": "address"
        },
        {
          "internalType": "address",
          "name": "accessNft",
          "type": "address"
        }
      ],
      "name": "getMaximumDonationAmount",
      "outputs": [
        {
          "internalType": "uint256",
          "name": "",
          "type": "uint256"
        }
      ],
      "stateMutability": "view",
      "type": "function"
    },
    {
      "inputs": [
        {
          "internalType": "bytes32",
          "name": "role",
          "type": "bytes32"
        }
      ],
      "name": "getRoleAdmin",
      "outputs": [
        {
          "internalType": "bytes32",
          "name": "",
          "type": "bytes32"
        }
      ],
      "stateMutability": "view",
      "type": "function"
    },
    {
      "inputs": [
        {
          "internalType": "bytes32",
          "name": "role",
          "type": "bytes32"
        },
        {
          "internalType": "address",
          "name": "account",
          "type": "address"
        }
      ],
      "name": "hasRole",
      "outputs": [
        {
          "internalType": "bool",
          "name": "",
          "type": "bool"
        }
      ],
      "stateMutability": "view",
      "type": "function"
    },
    {
      "inputs": [
        {
          "internalType": "address",
          "name": "_accessControlSingleton",
          "type": "address"
        },
        {
          "internalType": "address",
          "name": "_suDAO",
          "type": "address"
        },
        {
          "internalType": "address",
          "name": "_veErc20",
          "type": "address"
        },
        {
          "internalType": "address",
          "name": "_bonusContract",
          "type": "address"
        }
      ],
      "name": "initialize",
      "outputs": [],
      "stateMutability": "nonpayable",
      "type": "function"
    },
    {
      "inputs": [],
      "name": "maximumDonation",
      "outputs": [
        {
          "internalType": "uint256",
          "name": "",
          "type": "uint256"
        }
      ],
      "stateMutability": "view",
      "type": "function"
    },
    {
      "inputs": [],
      "name": "minimumDonation",
      "outputs": [
        {
          "internalType": "uint256",
          "name": "",
          "type": "uint256"
        }
      ],
      "stateMutability": "view",
      "type": "function"
    },
    {
      "inputs": [
        {
          "internalType": "uint256",
          "name": "donationAmount",
          "type": "uint256"
        },
        {
          "internalType": "address",
          "name": "accessNft",
          "type": "address"
        }
      ],
      "name": "participate",
      "outputs": [],
      "stateMutability": "payable",
      "type": "function"
    },
    {
      "inputs": [
        {
          "internalType": "int256[]",
          "name": "_bondingCurvePolynomial1e18",
          "type": "int256[]"
        }
      ],
      "name": "setBondingCurve",
      "outputs": [],
      "stateMutability": "nonpayable",
      "type": "function"
    },
    {
      "inputs": [
        {
          "internalType": "uint64",
          "name": "_startTimestamp",
          "type": "uint64"
        },
        {
          "internalType": "uint64",
          "name": "_deadlineTimestamp",
          "type": "uint64"
        },
        {
          "internalType": "uint256",
          "name": "_donationGoalMin",
          "type": "uint256"
        },
        {
          "internalType": "uint256",
          "name": "_donationGoalMax",
          "type": "uint256"
        },
        {
          "internalType": "uint256",
          "name": "_minimumDonation",
          "type": "uint256"
        },
        {
          "internalType": "uint256",
          "name": "_maximumDonation",
          "type": "uint256"
        },
        {
          "internalType": "address",
          "name": "_donationToken",
          "type": "address"
        },
        {
          "internalType": "uint256",
          "name": "_donationTokenToUSD1e18",
          "type": "uint256"
        }
      ],
      "name": "setDistributionInfo",
      "outputs": [],
      "stateMutability": "nonpayable",
      "type": "function"
    },
    {
      "inputs": [
        {
          "internalType": "uint64",
          "name": "_fullVestingSeconds",
          "type": "uint64"
        },
        {
          "internalType": "uint64",
          "name": "_cliffSeconds",
          "type": "uint64"
        },
        {
          "internalType": "uint64",
          "name": "_tgeUnlockRatio1e18",
          "type": "uint64"
        },
        {
          "internalType": "uint64",
          "name": "_vestingFrequencySeconds",
          "type": "uint64"
        }
      ],
      "name": "setDistributionVesting",
      "outputs": [],
      "stateMutability": "nonpayable",
      "type": "function"
    },
    {
      "inputs": [
        {
          "internalType": "address",
          "name": "accessNft",
          "type": "address"
        },
        {
          "internalType": "bool",
          "name": "valid",
          "type": "bool"
        }
      ],
      "name": "setNftAccess",
      "outputs": [],
      "stateMutability": "nonpayable",
      "type": "function"
    },
    {
      "inputs": [],
      "name": "startTimestamp",
      "outputs": [
        {
          "internalType": "uint64",
          "name": "",
          "type": "uint64"
        }
      ],
      "stateMutability": "view",
      "type": "function"
    },
    {
      "inputs": [
        {
          "internalType": "bytes4",
          "name": "interfaceId",
          "type": "bytes4"
        }
      ],
      "name": "supportsInterface",
      "outputs": [
        {
          "internalType": "bool",
          "name": "",
          "type": "bool"
        }
      ],
      "stateMutability": "view",
      "type": "function"
    },
    {
      "inputs": [],
      "name": "takeDonationBack",
      "outputs": [],
      "stateMutability": "nonpayable",
      "type": "function"
    },
    {
      "inputs": [],
      "name": "tgeUnlockRatio1e18",
      "outputs": [
        {
          "internalType": "uint64",
          "name": "",
          "type": "uint64"
        }
      ],
      "stateMutability": "view",
      "type": "function"
    },
    {
      "inputs": [],
      "name": "totalDonations",
      "outputs": [
        {
          "internalType": "uint256",
          "name": "",
          "type": "uint256"
        }
      ],
      "stateMutability": "view",
      "type": "function"
    },
    {
      "inputs": [],
      "name": "vestingFrequencySeconds",
      "outputs": [
        {
          "internalType": "uint64",
          "name": "",
          "type": "uint64"
        }
      ],
      "stateMutability": "view",
      "type": "function"
    },
    {
      "stateMutability": "payable",
      "type": "receive"
    }
  ],
  "numDeployments": 1,
  "solcInputHash": "e97f2c5d2d398fefa9f938d534248610",
  "bytecode": "0x608060405234801561001057600080fd5b5061490f806100206000396000f3fe6080604052600436106102555760003560e01c806395367f8911610139578063d1deda6a116100b6578063e9c265181161007a578063e9c2651814610900578063efb8f4fd1461092b578063f365642a14610942578063f49844601461096d578063f6d8414f146109aa578063f8c8765e146109d55761025c565b8063d1deda6a14610819578063d2051aa314610842578063dc4eff7e1461087f578063de2ed893146108aa578063e6fd48bc146108d55761025c565b8063a217fddf116100fd578063a217fddf14610732578063b51043111461075d578063b5b8a68a14610786578063c7ad6fc5146107b1578063cc6cb19a146107dc5761025c565b806395367f891461063957806396d8f4f3146106645780639954a9bc1461068f5780639d0c6846146106b85780639dbf7935146106f55761025c565b806347b8ce3f116101d257806375b238fc1161019657806375b238fc14610527578063770d2b12146105525780637b9fa8bd1461057d5780638341ee72146105a85780638821fd89146105d357806391d14854146105fc5761025c565b806347b8ce3f146104225780634a591c6d1461045f5780635deb395b1461048a5780635e10448b146104bf5780636c5a5428146104ea5761025c565b806313b186401161021957806313b1864014610348578063248a9ca31461036457806335864cdc146103a15780634369994c146103cc578063445c4c8d146103f75761025c565b806301ffc9a71461026157806303ee9f221461029e5780630afcdef5146102c95780630c277b96146102f45780630df721591461031d5761025c565b3661025c57005b600080fd5b34801561026d57600080fd5b5061028860048036038101906102839190613185565b6109fe565b60405161029591906131cd565b60405180910390f35b3480156102aa57600080fd5b506102b3610aa3565b6040516102c09190613267565b60405180910390f35b3480156102d557600080fd5b506102de610ac9565b6040516102eb91906132a5565b60405180910390f35b34801561030057600080fd5b5061031b6004803603810190610316919061344f565b610ae3565b005b34801561032957600080fd5b50610332610b6c565b60405161033f91906134b9565b60405180910390f35b610362600480360381019061035d9190613536565b610b92565b005b34801561037057600080fd5b5061038b600480360381019061038691906135ac565b611439565b60405161039891906135e8565b60405180910390f35b3480156103ad57600080fd5b506103b66114de565b6040516103c391906132a5565b60405180910390f35b3480156103d857600080fd5b506103e16114f8565b6040516103ee91906136c1565b60405180910390f35b34801561040357600080fd5b5061040c611509565b6040516104199190613704565b60405180910390f35b34801561042e57600080fd5b506104496004803603810190610444919061371f565b61152f565b604051610456919061375b565b60405180910390f35b34801561046b57600080fd5b506104746115e4565b6040516104819190613785565b60405180910390f35b34801561049657600080fd5b5061049f6115ea565b6040516104b69b9a999897969594939291906137a0565b60405180910390f35b3480156104cb57600080fd5b506104d46116d7565b6040516104e191906132a5565b60405180910390f35b3480156104f657600080fd5b50610511600480360381019061050c919061371f565b6116f1565b60405161051e919061375b565b60405180910390f35b34801561053357600080fd5b5061053c611715565b60405161054991906135e8565b60405180910390f35b34801561055e57600080fd5b50610567611739565b6040516105749190613785565b60405180910390f35b34801561058957600080fd5b50610592611745565b60405161059f9190613785565b60405180910390f35b3480156105b457600080fd5b506105bd61174b565b6040516105ca91906132a5565b60405180910390f35b3480156105df57600080fd5b506105fa60048036038101906105f59190613877565b611765565b005b34801561060857600080fd5b50610623600480360381019061061e91906138de565b61197b565b60405161063091906131cd565b60405180910390f35b34801561064557600080fd5b5061064e611a23565b60405161065b91906135e8565b60405180910390f35b34801561067057600080fd5b50610679611a47565b6040516106869190613785565b60405180910390f35b34801561069b57600080fd5b506106b660048036038101906106b1919061394a565b611a4d565b005b3480156106c457600080fd5b506106df60048036038101906106da919061398a565b611af6565b6040516106ec9190613785565b60405180910390f35b34801561070157600080fd5b5061071c600480360381019061071791906139ca565b611bf0565b60405161072991906136c1565b60405180910390f35b34801561073e57600080fd5b50610747611d82565b60405161075491906135e8565b60405180910390f35b34801561076957600080fd5b50610784600480360381019061077f9190613a35565b611d89565b005b34801561079257600080fd5b5061079b611eb8565b6040516107a891906134b9565b60405180910390f35b3480156107bd57600080fd5b506107c6611ede565b6040516107d39190613785565b60405180910390f35b3480156107e857600080fd5b5061080360048036038101906107fe91906139ca565b611ee4565b6040516108109190613785565b60405180910390f35b34801561082557600080fd5b50610840600480360381019061083b9190613a88565b611efc565b005b34801561084e57600080fd5b506108696004803603810190610864919061371f565b612163565b6040516108769190613785565b60405180910390f35b34801561088b57600080fd5b506108946122c8565b6040516108a191906134b9565b60405180910390f35b3480156108b657600080fd5b506108bf6122ee565b6040516108cc9190613785565b60405180910390f35b3480156108e157600080fd5b506108ea6122f4565b6040516108f791906132a5565b60405180910390f35b34801561090c57600080fd5b5061091561230e565b60405161092291906135e8565b60405180910390f35b34801561093757600080fd5b50610940612315565b005b34801561094e57600080fd5b50610957612584565b6040516109649190613785565b60405180910390f35b34801561097957600080fd5b50610994600480360381019061098f919061371f565b61258a565b6040516109a19190613785565b60405180910390f35b3480156109b657600080fd5b506109bf61267d565b6040516109cc91906132a5565b60405180910390f35b3480156109e157600080fd5b506109fc60048036038101906109f79190613b3e565b612697565b005b6000603360009054906101000a900473ffffffffffffffffffffffffffffffffffffffff1673ffffffffffffffffffffffffffffffffffffffff166301ffc9a7836040518263ffffffff1660e01b8152600401610a5b9190613bb4565b602060405180830381865afa158015610a78573d6000803e3d6000fd5b505050506040513d601f19601f82011682018060405250810190610a9c9190613be4565b9050919050565b603360009054906101000a900473ffffffffffffffffffffffffffffffffffffffff1681565b606f60189054906101000a900467ffffffffffffffff1681565b7fa49807205ce4d355092ef5a8a18f56e8913cf4a201fbe287825b095693c21775610b0e813361197b565b610b515780336040517f37c2e343000000000000000000000000000000000000000000000000000000008152600401610b48929190613c11565b60405180910390fd5b81606a9080519060200190610b679291906130af565b505050565b606860089054906101000a900473ffffffffffffffffffffffffffffffffffffffff1681565b6000606e5403610bce576040517f76d9f52e00000000000000000000000000000000000000000000000000000000815260040160405180910390fd5b606760149054906101000a900467ffffffffffffffff1667ffffffffffffffff16421080610c1b575042606860009054906101000a900467ffffffffffffffff1667ffffffffffffffff16105b15610c52576040517fd3af728300000000000000000000000000000000000000000000000000000000815260040160405180910390fd5b610c6681607061293c90919063ffffffff16565b610ca757806040517f7f2e188c000000000000000000000000000000000000000000000000000000008152600401610c9e91906134b9565b60405180910390fd5b60008173ffffffffffffffffffffffffffffffffffffffff166370a08231336040518263ffffffff1660e01b8152600401610ce291906134b9565b602060405180830381865afa158015610cff573d6000803e3d6000fd5b505050506040513d601f19601f82011682018060405250810190610d239190613c4f565b03610d675733816040517f8afa396a000000000000000000000000000000000000000000000000000000008152600401610d5e929190613c7c565b60405180910390fd5b606b54821015610da3576040517f9e977e7b00000000000000000000000000000000000000000000000000000000815260040160405180910390fd5b6000610ee5606760009054906101000a900473ffffffffffffffffffffffffffffffffffffffff1673ffffffffffffffffffffffffffffffffffffffff16630e022923336040518263ffffffff1660e01b8152600401610e0391906134b9565b602060405180830381865afa158015610e20573d6000803e3d6000fd5b505050506040513d601f19601f82011682018060405250810190610e449190613c4f565b606760009054906101000a900473ffffffffffffffffffffffffffffffffffffffff1673ffffffffffffffffffffffffffffffffffffffff1663de6851f8856040518263ffffffff1660e01b8152600401610e9f91906134b9565b602060405180830381865afa158015610ebc573d6000803e3d6000fd5b505050506040513d601f19601f82011682018060405250810190610ee09190613c4f565b61296c565b90506000808214610ef65781610efa565b606c545b90508084607360003373ffffffffffffffffffffffffffffffffffffffff1673ffffffffffffffffffffffffffffffffffffffff16815260200190815260200160002054610f489190613cd4565b1115610f80576040517f9e977e7b00000000000000000000000000000000000000000000000000000000815260040160405180910390fd5b6000610f9860695486610f939190613d2a565b612163565b905060006110dc606760009054906101000a900473ffffffffffffffffffffffffffffffffffffffff1673ffffffffffffffffffffffffffffffffffffffff16633a740a63336040518263ffffffff1660e01b8152600401610ffa91906134b9565b602060405180830381865afa158015611017573d6000803e3d6000fd5b505050506040513d601f19601f8201168201806040525081019061103b9190613c4f565b606760009054906101000a900473ffffffffffffffffffffffffffffffffffffffff1673ffffffffffffffffffffffffffffffffffffffff1663dbcfb6bb886040518263ffffffff1660e01b815260040161109691906134b9565b602060405180830381865afa1580156110b3573d6000803e3d6000fd5b505050506040513d601f19601f820116820180604052508101906110d79190613c4f565b61296c565b9050670de0b6b3a764000081836110f39190613d2a565b6110fd9190613db3565b607260000181905550670de0b6b3a764000081670de0b6b3a76400006111239190613cd4565b8361112e9190613d2a565b6111389190613db3565b9150611189333088606860089054906101000a900473ffffffffffffffffffffffffffffffffffffffff1673ffffffffffffffffffffffffffffffffffffffff16612986909392919063ffffffff16565b856074546111979190613cd4565b60748190555085607360003373ffffffffffffffffffffffffffffffffffffffff1673ffffffffffffffffffffffffffffffffffffffff168152602001908152602001600020546111e89190613cd4565b607360003373ffffffffffffffffffffffffffffffffffffffff1673ffffffffffffffffffffffffffffffffffffffff1681526020019081526020016000208190555081606660009054906101000a900473ffffffffffffffffffffffffffffffffffffffff1673ffffffffffffffffffffffffffffffffffffffff166370a08231306040518263ffffffff1660e01b815260040161128791906134b9565b602060405180830381865afa1580156112a4573d6000803e3d6000fd5b505050506040513d601f19601f820116820180604052508101906112c89190613c4f565b1015611309576040517f08c379a000000000000000000000000000000000000000000000000000000000815260040161130090613e41565b60405180910390fd5b606560009054906101000a900473ffffffffffffffffffffffffffffffffffffffff1673ffffffffffffffffffffffffffffffffffffffff166393a56edc3384606f60009054906101000a900467ffffffffffffffff16606f60089054906101000a900467ffffffffffffffff16606f60109054906101000a900467ffffffffffffffff16606f60189054906101000a900467ffffffffffffffff166040518763ffffffff1660e01b81526004016113c696959493929190613e92565b600060405180830381600087803b1580156113e057600080fd5b505af11580156113f4573d6000803e3d6000fd5b505050507fb198f199c43cc078ad46e5a5fabe03eba401f7417816c86af0bd2e7345c995063387604051611429929190613ef3565b60405180910390a1505050505050565b6000603360009054906101000a900473ffffffffffffffffffffffffffffffffffffffff1673ffffffffffffffffffffffffffffffffffffffff1663248a9ca3836040518263ffffffff1660e01b815260040161149691906135e8565b602060405180830381865afa1580156114b3573d6000803e3d6000fd5b505050506040513d601f19601f820116820180604052508101906114d79190613f31565b9050919050565b606f60009054906101000a900467ffffffffffffffff1681565b60606115046070612a0f565b905090565b606760009054906101000a900473ffffffffffffffffffffffffffffffffffffffff1681565b60008061153b83612a30565b90506000606a8054905090506000600190506000805b838110156115d75761157581670de0b6b3a76400006115709190614091565b612a30565b83606a838154811061158a576115896140dc565b5b906000526020600020015461159f919061410b565b6115a99190614222565b826115b4919061428c565b915084836115c2919061410b565b925080806115cf90614320565b915050611551565b5080945050505050919050565b606c5481565b6000806000806000806000806000806000606760149054906101000a900467ffffffffffffffff169a50606860009054906101000a900467ffffffffffffffff169950606b549850606c549750606d549650606e549550606860089054906101000a900473ffffffffffffffffffffffffffffffffffffffff169450606f60009054906101000a900467ffffffffffffffff169350606f60089054906101000a900467ffffffffffffffff169250606f60109054906101000a900467ffffffffffffffff169150606f60189054906101000a900467ffffffffffffffff169050909192939495969798999a565b606f60109054906101000a900467ffffffffffffffff1681565b606a818154811061170157600080fd5b906000526020600020016000915090505481565b7fa49807205ce4d355092ef5a8a18f56e8913cf4a201fbe287825b095693c2177581565b60728060000154905081565b606d5481565b606f60089054906101000a900467ffffffffffffffff1681565b7fa49807205ce4d355092ef5a8a18f56e8913cf4a201fbe287825b095693c21775611790813361197b565b6117d35780336040517f37c2e3430000000000000000000000000000000000000000000000000000000081526004016117ca929190613c11565b60405180910390fd5b8467ffffffffffffffff168467ffffffffffffffff161115611821576040517ff7e1224400000000000000000000000000000000000000000000000000000000815260040160405180910390fd5b670de0b6b3a76400008367ffffffffffffffff16111561186d576040517ff7e1224400000000000000000000000000000000000000000000000000000000815260040160405180910390fd5b60008267ffffffffffffffff16148061189957508467ffffffffffffffff168267ffffffffffffffff16115b156118d0576040517ff7e1224400000000000000000000000000000000000000000000000000000000815260040160405180910390fd5b84606f60006101000a81548167ffffffffffffffff021916908367ffffffffffffffff16021790555083606f60086101000a81548167ffffffffffffffff021916908367ffffffffffffffff16021790555082606f60106101000a81548167ffffffffffffffff021916908367ffffffffffffffff16021790555081606f60186101000a81548167ffffffffffffffff021916908367ffffffffffffffff1602179055505050505050565b6000603360009054906101000a900473ffffffffffffffffffffffffffffffffffffffff1673ffffffffffffffffffffffffffffffffffffffff166391d1485484846040518363ffffffff1660e01b81526004016119da929190613c11565b602060405180830381865afa1580156119f7573d6000803e3d6000fd5b505050506040513d601f19601f82011682018060405250810190611a1b9190613be4565b905092915050565b7f0a7cc066f24e107ff77c42c8a1bdaf1a5f775fa4a74e45530aaf9c866368f65381565b606b5481565b7fa49807205ce4d355092ef5a8a18f56e8913cf4a201fbe287825b095693c21775611a78813361197b565b611abb5780336040517f37c2e343000000000000000000000000000000000000000000000000000000008152600401611ab2929190613c11565b60405180910390fd5b8115611adb57611ad5836070612a9d90919063ffffffff16565b50611af1565b611aef836070612acd90919063ffffffff16565b505b505050565b6000808273ffffffffffffffffffffffffffffffffffffffff166370a08231856040518263ffffffff1660e01b8152600401611b3291906134b9565b602060405180830381865afa158015611b4f573d6000803e3d6000fd5b505050506040513d601f19601f82011682018060405250810190611b739190613c4f565b1115611be557611bde607360008573ffffffffffffffffffffffffffffffffffffffff1673ffffffffffffffffffffffffffffffffffffffff16815260200190815260200160002054606c54611bc99190614368565b607454606e54611bd99190614368565b612afd565b9050611bea565b600090505b92915050565b60606000611bfe6070612a0f565b905060008151905060008167ffffffffffffffff811115611c2257611c216132d6565b5b604051908082528060200260200182016040528015611c505781602001602082028036833780820191505090505b50905060005b82811015611d76576000848281518110611c7357611c726140dc565b5b602002602001015173ffffffffffffffffffffffffffffffffffffffff166370a08231886040518263ffffffff1660e01b8152600401611cb391906134b9565b602060405180830381865afa158015611cd0573d6000803e3d6000fd5b505050506040513d601f19601f82011682018060405250810190611cf49190613c4f565b1115611d6357838181518110611d0d57611d0c6140dc565b5b6020026020010151828281518110611d2857611d276140dc565b5b602002602001019073ffffffffffffffffffffffffffffffffffffffff16908173ffffffffffffffffffffffffffffffffffffffff16815250505b8080611d6e90614320565b915050611c56565b50809350505050919050565b6000801b81565b6000801b611d97813361197b565b611dda5780336040517f37c2e343000000000000000000000000000000000000000000000000000000008152600401611dd1929190613c11565b60405180910390fd5b606860009054906101000a900467ffffffffffffffff1667ffffffffffffffff16421015611e34576040517fd3af728300000000000000000000000000000000000000000000000000000000815260040160405180910390fd5b606d546074541015611e8757606d54606e546074546040517f2dc17330000000000000000000000000000000000000000000000000000000008152600401611e7e9392919061439c565b60405180910390fd5b611eb283838673ffffffffffffffffffffffffffffffffffffffff16612b169092919063ffffffff16565b50505050565b606560009054906101000a900473ffffffffffffffffffffffffffffffffffffffff1681565b60695481565b60736020528060005260406000206000915090505481565b7fa49807205ce4d355092ef5a8a18f56e8913cf4a201fbe287825b095693c21775611f27813361197b565b611f6a5780336040517f37c2e343000000000000000000000000000000000000000000000000000000008152600401611f61929190613c11565b60405180910390fd5b8767ffffffffffffffff168967ffffffffffffffff1610611fb7576040517fd3af728300000000000000000000000000000000000000000000000000000000815260040160405180910390fd5b858711156120025786866074546040517f2dc17330000000000000000000000000000000000000000000000000000000008152600401611ff99392919061439c565b60405180910390fd5b8385111561203c576040517f9e977e7b00000000000000000000000000000000000000000000000000000000815260040160405180910390fd5b600073ffffffffffffffffffffffffffffffffffffffff168373ffffffffffffffffffffffffffffffffffffffff16036120a2576040517fe99064c300000000000000000000000000000000000000000000000000000000815260040160405180910390fd5b88606760146101000a81548167ffffffffffffffff021916908367ffffffffffffffff16021790555087606860006101000a81548167ffffffffffffffff021916908367ffffffffffffffff16021790555086606d8190555085606e8190555084606b8190555083606c8190555082606860086101000a81548173ffffffffffffffffffffffffffffffffffffffff021916908373ffffffffffffffffffffffffffffffffffffffff16021790555081606981905550505050505050505050565b600080612191670de0b6b3a76400006069546074546121829190613d2a565b61218c9190613db3565b61258a565b905060006121cb670de0b6b3a7640000856069546074546121b29190613d2a565b6121bc9190613cd4565b6121c69190613db3565b61258a565b9050600082826121db9190614368565b9050606660009054906101000a900473ffffffffffffffffffffffffffffffffffffffff1673ffffffffffffffffffffffffffffffffffffffff166370a08231306040518263ffffffff1660e01b815260040161223891906134b9565b602060405180830381865afa158015612255573d6000803e3d6000fd5b505050506040513d601f19601f820116820180604052508101906122799190613c4f565b8111156122bd57846040517fb766b56f0000000000000000000000000000000000000000000000000000000081526004016122b49190613785565b60405180910390fd5b809350505050919050565b606660009054906101000a900473ffffffffffffffffffffffffffffffffffffffff1681565b60745481565b606760149054906101000a900467ffffffffffffffff1681565b6000801b81565b606860009054906101000a900467ffffffffffffffff1667ffffffffffffffff1642101561236f576040517fd3af728300000000000000000000000000000000000000000000000000000000815260040160405180910390fd5b606d54607454106123c157606d54606e546074546040517f2dc173300000000000000000000000000000000000000000000000000000000081526004016123b89392919061439c565b60405180910390fd5b6000606560009054906101000a900473ffffffffffffffffffffffffffffffffffffffff1673ffffffffffffffffffffffffffffffffffffffff166370a08231336040518263ffffffff1660e01b815260040161241e91906134b9565b602060405180830381865afa15801561243b573d6000803e3d6000fd5b505050506040513d601f19601f8201168201806040525081019061245f9190613c4f565b1115612497576040517f9e977e7b00000000000000000000000000000000000000000000000000000000815260040160405180910390fd5b6000607360003373ffffffffffffffffffffffffffffffffffffffff1673ffffffffffffffffffffffffffffffffffffffff1681526020019081526020016000205490506000607360003373ffffffffffffffffffffffffffffffffffffffff1673ffffffffffffffffffffffffffffffffffffffff168152602001908152602001600020819055508060745461252e9190614368565b6074819055506125813382606860089054906101000a900473ffffffffffffffffffffffffffffffffffffffff1673ffffffffffffffffffffffffffffffffffffffff16612b169092919063ffffffff16565b50565b606e5481565b60008061259683612a30565b90506000606a80549050905060008290506000805b8381101561262a5760016125be82612a30565b6125c8919061428c565b83606a83815481106125dd576125dc6140dc565b5b90600052602060002001546125f2919061410b565b6125fc9190614222565b82612607919061428c565b91508483612615919061410b565b9250808061262290614320565b9150506125ab565b50600081121561267157856040517f68a667450000000000000000000000000000000000000000000000000000000081526004016126689190613785565b60405180910390fd5b80945050505050919050565b606860009054906101000a900467ffffffffffffffff1681565b60008060019054906101000a900460ff161590508080156126c85750600160008054906101000a900460ff1660ff16105b806126f557506126d730612b9c565b1580156126f45750600160008054906101000a900460ff1660ff16145b5b612734576040517f08c379a000000000000000000000000000000000000000000000000000000000815260040161272b90614445565b60405180910390fd5b60016000806101000a81548160ff021916908360ff1602179055508015612771576001600060016101000a81548160ff0219169083151502179055505b61277a85612bbf565b83606660006101000a81548173ffffffffffffffffffffffffffffffffffffffff021916908373ffffffffffffffffffffffffffffffffffffffff16021790555082606560006101000a81548173ffffffffffffffffffffffffffffffffffffffff021916908373ffffffffffffffffffffffffffffffffffffffff16021790555081606760006101000a81548173ffffffffffffffffffffffffffffffffffffffff021916908373ffffffffffffffffffffffffffffffffffffffff1602179055508373ffffffffffffffffffffffffffffffffffffffff1663095ea7b3847fffffffffffffffffffffffffffffffffffffffffffffffffffffffffffffffff6040518363ffffffff1660e01b8152600401612898929190613ef3565b6020604051808303816000875af11580156128b7573d6000803e3d6000fd5b505050506040513d601f19601f820116820180604052508101906128db9190613be4565b5080156129355760008060016101000a81548160ff0219169083151502179055507f7f26b83ff96e1f2b6a682f133852f6798a09c465da95921460cefb3847402498600160405161292c91906144ad565b60405180910390a15b5050505050565b6000612964836000018373ffffffffffffffffffffffffffffffffffffffff1660001b612c52565b905092915050565b60008183101561297c578161297e565b825b905092915050565b612a09846323b872dd60e01b8585856040516024016129a7939291906144c8565b604051602081830303815290604052907bffffffffffffffffffffffffffffffffffffffffffffffffffffffff19166020820180517bffffffffffffffffffffffffffffffffffffffffffffffffffffffff8381831617835250505050612c75565b50505050565b60606000612a1f83600001612d3c565b905060608190508092505050919050565b60007f7fffffffffffffffffffffffffffffffffffffffffffffffffffffffffffffff821115612a95576040517f08c379a0000000000000000000000000000000000000000000000000000000008152600401612a8c90614571565b60405180910390fd5b819050919050565b6000612ac5836000018373ffffffffffffffffffffffffffffffffffffffff1660001b612d98565b905092915050565b6000612af5836000018373ffffffffffffffffffffffffffffffffffffffff1660001b612e08565b905092915050565b6000818310612b0c5781612b0e565b825b905092915050565b612b978363a9059cbb60e01b8484604051602401612b35929190613ef3565b604051602081830303815290604052907bffffffffffffffffffffffffffffffffffffffffffffffffffffffff19166020820180517bffffffffffffffffffffffffffffffffffffffffffffffffffffffff8381831617835250505050612c75565b505050565b6000808273ffffffffffffffffffffffffffffffffffffffff163b119050919050565b600060019054906101000a900460ff16612c0e576040517f08c379a0000000000000000000000000000000000000000000000000000000008152600401612c0590614603565b60405180910390fd5b80603360006101000a81548173ffffffffffffffffffffffffffffffffffffffff021916908373ffffffffffffffffffffffffffffffffffffffff16021790555050565b600080836001016000848152602001908152602001600020541415905092915050565b6000612cd7826040518060400160405280602081526020017f5361666545524332303a206c6f772d6c6576656c2063616c6c206661696c65648152508573ffffffffffffffffffffffffffffffffffffffff16612f1c9092919063ffffffff16565b9050600081511115612d375780806020019051810190612cf79190613be4565b612d36576040517f08c379a0000000000000000000000000000000000000000000000000000000008152600401612d2d90614695565b60405180910390fd5b5b505050565b606081600001805480602002602001604051908101604052809291908181526020018280548015612d8c57602002820191906000526020600020905b815481526020019060010190808311612d78575b50505050509050919050565b6000612da48383612c52565b612dfd578260000182908060018154018082558091505060019003906000526020600020016000909190919091505582600001805490508360010160008481526020019081526020016000208190555060019050612e02565b600090505b92915050565b60008083600101600084815260200190815260200160002054905060008114612f10576000600182612e3a9190614368565b9050600060018660000180549050612e529190614368565b9050818114612ec1576000866000018281548110612e7357612e726140dc565b5b9060005260206000200154905080876000018481548110612e9757612e966140dc565b5b90600052602060002001819055508387600101600083815260200190815260200160002081905550505b85600001805480612ed557612ed46146b5565b5b600190038181906000526020600020016000905590558560010160008681526020019081526020016000206000905560019350505050612f16565b60009150505b92915050565b6060612f2b8484600085612f34565b90509392505050565b606082471015612f79576040517f08c379a0000000000000000000000000000000000000000000000000000000008152600401612f7090614756565b60405180910390fd5b612f8285612b9c565b612fc1576040517f08c379a0000000000000000000000000000000000000000000000000000000008152600401612fb8906147c2565b60405180910390fd5b6000808673ffffffffffffffffffffffffffffffffffffffff168587604051612fea919061485c565b60006040518083038185875af1925050503d8060008114613027576040519150601f19603f3d011682016040523d82523d6000602084013e61302c565b606091505b509150915061303c828286613048565b92505050949350505050565b60608315613058578290506130a8565b60008351111561306b5782518084602001fd5b816040517f08c379a000000000000000000000000000000000000000000000000000000000815260040161309f91906148b7565b60405180910390fd5b9392505050565b8280548282559060005260206000209081019282156130eb579160200282015b828111156130ea5782518255916020019190600101906130cf565b5b5090506130f891906130fc565b5090565b5b808211156131155760008160009055506001016130fd565b5090565b6000604051905090565b600080fd5b600080fd5b60007fffffffff0000000000000000000000000000000000000000000000000000000082169050919050565b6131628161312d565b811461316d57600080fd5b50565b60008135905061317f81613159565b92915050565b60006020828403121561319b5761319a613123565b5b60006131a984828501613170565b91505092915050565b60008115159050919050565b6131c7816131b2565b82525050565b60006020820190506131e260008301846131be565b92915050565b600073ffffffffffffffffffffffffffffffffffffffff82169050919050565b6000819050919050565b600061322d613228613223846131e8565b613208565b6131e8565b9050919050565b600061323f82613212565b9050919050565b600061325182613234565b9050919050565b61326181613246565b82525050565b600060208201905061327c6000830184613258565b92915050565b600067ffffffffffffffff82169050919050565b61329f81613282565b82525050565b60006020820190506132ba6000830184613296565b92915050565b600080fd5b6000601f19601f8301169050919050565b7f4e487b7100000000000000000000000000000000000000000000000000000000600052604160045260246000fd5b61330e826132c5565b810181811067ffffffffffffffff8211171561332d5761332c6132d6565b5b80604052505050565b6000613340613119565b905061334c8282613305565b919050565b600067ffffffffffffffff82111561336c5761336b6132d6565b5b602082029050602081019050919050565b600080fd5b6000819050919050565b61339581613382565b81146133a057600080fd5b50565b6000813590506133b28161338c565b92915050565b60006133cb6133c684613351565b613336565b905080838252602082019050602084028301858111156133ee576133ed61337d565b5b835b81811015613417578061340388826133a3565b8452602084019350506020810190506133f0565b5050509392505050565b600082601f830112613436576134356132c0565b5b81356134468482602086016133b8565b91505092915050565b60006020828403121561346557613464613123565b5b600082013567ffffffffffffffff81111561348357613482613128565b5b61348f84828501613421565b91505092915050565b60006134a3826131e8565b9050919050565b6134b381613498565b82525050565b60006020820190506134ce60008301846134aa565b92915050565b6000819050919050565b6134e7816134d4565b81146134f257600080fd5b50565b600081359050613504816134de565b92915050565b61351381613498565b811461351e57600080fd5b50565b6000813590506135308161350a565b92915050565b6000806040838503121561354d5761354c613123565b5b600061355b858286016134f5565b925050602061356c85828601613521565b9150509250929050565b6000819050919050565b61358981613576565b811461359457600080fd5b50565b6000813590506135a681613580565b92915050565b6000602082840312156135c2576135c1613123565b5b60006135d084828501613597565b91505092915050565b6135e281613576565b82525050565b60006020820190506135fd60008301846135d9565b92915050565b600081519050919050565b600082825260208201905092915050565b6000819050602082019050919050565b61363881613498565b82525050565b600061364a838361362f565b60208301905092915050565b6000602082019050919050565b600061366e82613603565b613678818561360e565b93506136838361361f565b8060005b838110156136b457815161369b888261363e565b97506136a683613656565b925050600181019050613687565b5085935050505092915050565b600060208201905081810360008301526136db8184613663565b905092915050565b60006136ee82613234565b9050919050565b6136fe816136e3565b82525050565b600060208201905061371960008301846136f5565b92915050565b60006020828403121561373557613734613123565b5b6000613743848285016134f5565b91505092915050565b61375581613382565b82525050565b6000602082019050613770600083018461374c565b92915050565b61377f816134d4565b82525050565b600060208201905061379a6000830184613776565b92915050565b6000610160820190506137b6600083018e613296565b6137c3602083018d613296565b6137d0604083018c613776565b6137dd606083018b613776565b6137ea608083018a613776565b6137f760a0830189613776565b61380460c08301886134aa565b61381160e0830187613296565b61381f610100830186613296565b61382d610120830185613296565b61383b610140830184613296565b9c9b505050505050505050505050565b61385481613282565b811461385f57600080fd5b50565b6000813590506138718161384b565b92915050565b6000806000806080858703121561389157613890613123565b5b600061389f87828801613862565b94505060206138b087828801613862565b93505060406138c187828801613862565b92505060606138d287828801613862565b91505092959194509250565b600080604083850312156138f5576138f4613123565b5b600061390385828601613597565b925050602061391485828601613521565b9150509250929050565b613927816131b2565b811461393257600080fd5b50565b6000813590506139448161391e565b92915050565b6000806040838503121561396157613960613123565b5b600061396f85828601613521565b925050602061398085828601613935565b9150509250929050565b600080604083850312156139a1576139a0613123565b5b60006139af85828601613521565b92505060206139c085828601613521565b9150509250929050565b6000602082840312156139e0576139df613123565b5b60006139ee84828501613521565b91505092915050565b6000613a0282613498565b9050919050565b613a12816139f7565b8114613a1d57600080fd5b50565b600081359050613a2f81613a09565b92915050565b600080600060608486031215613a4e57613a4d613123565b5b6000613a5c86828701613a20565b9350506020613a6d86828701613521565b9250506040613a7e868287016134f5565b9150509250925092565b600080600080600080600080610100898b031215613aa957613aa8613123565b5b6000613ab78b828c01613862565b9850506020613ac88b828c01613862565b9750506040613ad98b828c016134f5565b9650506060613aea8b828c016134f5565b9550506080613afb8b828c016134f5565b94505060a0613b0c8b828c016134f5565b93505060c0613b1d8b828c01613521565b92505060e0613b2e8b828c016134f5565b9150509295985092959890939650565b60008060008060808587031215613b5857613b57613123565b5b6000613b6687828801613521565b9450506020613b7787828801613521565b9350506040613b8887828801613521565b9250506060613b9987828801613521565b91505092959194509250565b613bae8161312d565b82525050565b6000602082019050613bc96000830184613ba5565b92915050565b600081519050613bde8161391e565b92915050565b600060208284031215613bfa57613bf9613123565b5b6000613c0884828501613bcf565b91505092915050565b6000604082019050613c2660008301856135d9565b613c3360208301846134aa565b9392505050565b600081519050613c49816134de565b92915050565b600060208284031215613c6557613c64613123565b5b6000613c7384828501613c3a565b91505092915050565b6000604082019050613c9160008301856134aa565b613c9e60208301846134aa565b9392505050565b7f4e487b7100000000000000000000000000000000000000000000000000000000600052601160045260246000fd5b6000613cdf826134d4565b9150613cea836134d4565b9250827fffffffffffffffffffffffffffffffffffffffffffffffffffffffffffffffff03821115613d1f57613d1e613ca5565b5b828201905092915050565b6000613d35826134d4565b9150613d40836134d4565b9250817fffffffffffffffffffffffffffffffffffffffffffffffffffffffffffffffff0483118215151615613d7957613d78613ca5565b5b828202905092915050565b7f4e487b7100000000000000000000000000000000000000000000000000000000600052601260045260246000fd5b6000613dbe826134d4565b9150613dc9836134d4565b925082613dd957613dd8613d84565b5b828204905092915050565b600082825260208201905092915050565b7f6e6f7420656e6f75676820726577617264206c65667400000000000000000000600082015250565b6000613e2b601683613de4565b9150613e3682613df5565b602082019050919050565b60006020820190508181036000830152613e5a81613e1e565b9050919050565b6000613e7c613e77613e7284613282565b613208565b6134d4565b9050919050565b613e8c81613e61565b82525050565b600060c082019050613ea760008301896134aa565b613eb46020830188613776565b613ec16040830187613e83565b613ece6060830186613e83565b613edb6080830185613e83565b613ee860a0830184613e83565b979650505050505050565b6000604082019050613f0860008301856134aa565b613f156020830184613776565b9392505050565b600081519050613f2b81613580565b92915050565b600060208284031215613f4757613f46613123565b5b6000613f5584828501613f1c565b91505092915050565b60008160011c9050919050565b6000808291508390505b6001851115613fb557808604811115613f9157613f90613ca5565b5b6001851615613fa05780820291505b8081029050613fae85613f5e565b9450613f75565b94509492505050565b600082613fce576001905061408a565b81613fdc576000905061408a565b8160018114613ff25760028114613ffc5761402b565b600191505061408a565b60ff84111561400e5761400d613ca5565b5b8360020a91508482111561402557614024613ca5565b5b5061408a565b5060208310610133831016604e8410600b84101617156140605782820a90508381111561405b5761405a613ca5565b5b61408a565b61406d8484846001613f6b565b9250905081840481111561408457614083613ca5565b5b81810290505b9392505050565b600061409c826134d4565b91506140a7836134d4565b92506140d47fffffffffffffffffffffffffffffffffffffffffffffffffffffffffffffffff8484613fbe565b905092915050565b7f4e487b7100000000000000000000000000000000000000000000000000000000600052603260045260246000fd5b600061411682613382565b915061412183613382565b9250827f7fffffffffffffffffffffffffffffffffffffffffffffffffffffffffffffff04821160008413600084131616156141605761415f613ca5565b5b817f8000000000000000000000000000000000000000000000000000000000000000058312600084126000841316161561419d5761419c613ca5565b5b827f800000000000000000000000000000000000000000000000000000000000000005821260008413600084121616156141da576141d9613ca5565b5b827f7fffffffffffffffffffffffffffffffffffffffffffffffffffffffffffffff058212600084126000841216161561421757614216613ca5565b5b828202905092915050565b600061422d82613382565b915061423883613382565b92508261424857614247613d84565b5b600160000383147f80000000000000000000000000000000000000000000000000000000000000008314161561428157614280613ca5565b5b828205905092915050565b600061429782613382565b91506142a283613382565b9250817f7fffffffffffffffffffffffffffffffffffffffffffffffffffffffffffffff038313600083121516156142dd576142dc613ca5565b5b817f800000000000000000000000000000000000000000000000000000000000000003831260008312161561431557614314613ca5565b5b828201905092915050565b600061432b826134d4565b91507fffffffffffffffffffffffffffffffffffffffffffffffffffffffffffffffff820361435d5761435c613ca5565b5b600182019050919050565b6000614373826134d4565b915061437e836134d4565b92508282101561439157614390613ca5565b5b828203905092915050565b60006060820190506143b16000830186613776565b6143be6020830185613776565b6143cb6040830184613776565b949350505050565b7f496e697469616c697a61626c653a20636f6e747261637420697320616c72656160008201527f647920696e697469616c697a6564000000000000000000000000000000000000602082015250565b600061442f602e83613de4565b915061443a826143d3565b604082019050919050565b6000602082019050818103600083015261445e81614422565b9050919050565b6000819050919050565b600060ff82169050919050565b600061449761449261448d84614465565b613208565b61446f565b9050919050565b6144a78161447c565b82525050565b60006020820190506144c2600083018461449e565b92915050565b60006060820190506144dd60008301866134aa565b6144ea60208301856134aa565b6144f76040830184613776565b949350505050565b7f53616665436173743a2076616c756520646f65736e27742066697420696e206160008201527f6e20696e74323536000000000000000000000000000000000000000000000000602082015250565b600061455b602883613de4565b9150614566826144ff565b604082019050919050565b6000602082019050818103600083015261458a8161454e565b9050919050565b7f496e697469616c697a61626c653a20636f6e7472616374206973206e6f74206960008201527f6e697469616c697a696e67000000000000000000000000000000000000000000602082015250565b60006145ed602b83613de4565b91506145f882614591565b604082019050919050565b6000602082019050818103600083015261461c816145e0565b9050919050565b7f5361666545524332303a204552433230206f7065726174696f6e20646964206e60008201527f6f74207375636365656400000000000000000000000000000000000000000000602082015250565b600061467f602a83613de4565b915061468a82614623565b604082019050919050565b600060208201905081810360008301526146ae81614672565b9050919050565b7f4e487b7100000000000000000000000000000000000000000000000000000000600052603160045260246000fd5b7f416464726573733a20696e73756666696369656e742062616c616e636520666f60008201527f722063616c6c0000000000000000000000000000000000000000000000000000602082015250565b6000614740602683613de4565b915061474b826146e4565b604082019050919050565b6000602082019050818103600083015261476f81614733565b9050919050565b7f416464726573733a2063616c6c20746f206e6f6e2d636f6e7472616374000000600082015250565b60006147ac601d83613de4565b91506147b782614776565b602082019050919050565b600060208201905081810360008301526147db8161479f565b9050919050565b600081519050919050565b600081905092915050565b60005b838110156148165780820151818401526020810190506147fb565b83811115614825576000848401525b50505050565b6000614836826147e2565b61484081856147ed565b93506148508185602086016147f8565b80840191505092915050565b6000614868828461482b565b915081905092915050565b600081519050919050565b600061488982614873565b6148938185613de4565b93506148a38185602086016147f8565b6148ac816132c5565b840191505092915050565b600060208201905081810360008301526148d1818461487e565b90509291505056fea264697066735822122012be8ef8c969a6dcc5172587937386888b66455093a5aca341ccdaaa39df184064736f6c634300080f0033",
  "devdoc": {
    "kind": "dev",
    "methods": {
      "daoWithdraw(address,address,uint256)": {
        "details": "The DAO can't take away SuDAO token already distributed to users,      because they are stored on different contract"
      }
    },
    "stateVariables": {
      "__gap": {
        "details": "This empty reserved space is put in place to allow future versions to add new variables without shifting down storage in the inheritance chain. See https://docs.openzeppelin.com/contracts/4.x/upgradeable#storage_gaps"
      }
    },
    "title": "The contract that distribute suDAO tokens for community based on NFT membership",
    "version": 1
  },
  "userdoc": {
    "kind": "user",
    "methods": {
      "daoWithdraw(address,address,uint256)": {
        "notice": "The DAO can take away donations."
      },
      "getMaximumDonationAmount(address,address)": {
        "notice": "Get the max donation that user can do"
      },
      "participate(uint256,address)": {
        "notice": "notice Allows to participate for users with required NFT param donationAmount The amount of tokens specified in donationToken"
      },
      "setDistributionInfo(uint64,uint64,uint256,uint256,uint256,uint256,address,uint256)": {
        "notice": "The owner can set new or edit existing token distribution with no restrictions"
      },
      "setDistributionVesting(uint64,uint64,uint64,uint64)": {
        "notice": "The admin can set new or edit existing token vesting details"
      }
    },
    "version": 1
  },
  "storageLayout": {
    "storage": [
      {
        "astId": 497,
        "contract": "contracts/distributions/TokenDistributorV4.sol:TokenDistributorV4",
        "label": "_initialized",
        "offset": 0,
        "slot": "0",
        "type": "t_uint8"
      },
      {
        "astId": 500,
        "contract": "contracts/distributions/TokenDistributorV4.sol:TokenDistributorV4",
        "label": "_initializing",
        "offset": 1,
        "slot": "0",
        "type": "t_bool"
      },
      {
        "astId": 4310,
        "contract": "contracts/distributions/TokenDistributorV4.sol:TokenDistributorV4",
        "label": "__gap",
        "offset": 0,
        "slot": "1",
        "type": "t_array(t_uint256)50_storage"
      },
      {
        "astId": 11612,
        "contract": "contracts/distributions/TokenDistributorV4.sol:TokenDistributorV4",
        "label": "ACCESS_CONTROL_SINGLETON",
        "offset": 0,
        "slot": "51",
        "type": "t_contract(ISuAccessControl)12922"
      },
      {
        "astId": 11699,
        "contract": "contracts/distributions/TokenDistributorV4.sol:TokenDistributorV4",
        "label": "__gap",
        "offset": 0,
        "slot": "52",
        "type": "t_array(t_uint256)49_storage"
      },
      {
        "astId": 11754,
        "contract": "contracts/distributions/TokenDistributorV4.sol:TokenDistributorV4",
        "label": "VE_ERC_20",
        "offset": 0,
        "slot": "101",
        "type": "t_address"
      },
      {
        "astId": 11756,
        "contract": "contracts/distributions/TokenDistributorV4.sol:TokenDistributorV4",
        "label": "SU_DAO",
        "offset": 0,
        "slot": "102",
        "type": "t_address"
      },
      {
        "astId": 11759,
        "contract": "contracts/distributions/TokenDistributorV4.sol:TokenDistributorV4",
        "label": "BONUS_CONTRACT",
        "offset": 0,
        "slot": "103",
        "type": "t_contract(IBonus)12895"
      },
      {
        "astId": 11761,
        "contract": "contracts/distributions/TokenDistributorV4.sol:TokenDistributorV4",
        "label": "startTimestamp",
        "offset": 20,
        "slot": "103",
        "type": "t_uint64"
      },
      {
        "astId": 11763,
        "contract": "contracts/distributions/TokenDistributorV4.sol:TokenDistributorV4",
        "label": "deadlineTimestamp",
        "offset": 0,
        "slot": "104",
        "type": "t_uint64"
      },
      {
        "astId": 11765,
        "contract": "contracts/distributions/TokenDistributorV4.sol:TokenDistributorV4",
        "label": "donationToken",
        "offset": 8,
        "slot": "104",
        "type": "t_address"
      },
      {
        "astId": 11767,
        "contract": "contracts/distributions/TokenDistributorV4.sol:TokenDistributorV4",
        "label": "donationTokenToUSD1e18",
        "offset": 0,
        "slot": "105",
        "type": "t_uint256"
      },
      {
        "astId": 11770,
        "contract": "contracts/distributions/TokenDistributorV4.sol:TokenDistributorV4",
        "label": "bondingCurvePolynomial1e18",
        "offset": 0,
        "slot": "106",
        "type": "t_array(t_int256)dyn_storage"
      },
      {
        "astId": 11772,
        "contract": "contracts/distributions/TokenDistributorV4.sol:TokenDistributorV4",
        "label": "minimumDonation",
        "offset": 0,
        "slot": "107",
        "type": "t_uint256"
      },
      {
        "astId": 11774,
        "contract": "contracts/distributions/TokenDistributorV4.sol:TokenDistributorV4",
        "label": "maximumDonation",
        "offset": 0,
        "slot": "108",
        "type": "t_uint256"
      },
      {
        "astId": 11776,
        "contract": "contracts/distributions/TokenDistributorV4.sol:TokenDistributorV4",
        "label": "donationGoalMin",
        "offset": 0,
        "slot": "109",
        "type": "t_uint256"
      },
      {
        "astId": 11778,
        "contract": "contracts/distributions/TokenDistributorV4.sol:TokenDistributorV4",
        "label": "donationGoalMax",
        "offset": 0,
        "slot": "110",
        "type": "t_uint256"
      },
      {
        "astId": 11780,
        "contract": "contracts/distributions/TokenDistributorV4.sol:TokenDistributorV4",
        "label": "fullVestingSeconds",
        "offset": 0,
        "slot": "111",
        "type": "t_uint64"
      },
      {
        "astId": 11782,
        "contract": "contracts/distributions/TokenDistributorV4.sol:TokenDistributorV4",
        "label": "cliffSeconds",
        "offset": 8,
        "slot": "111",
        "type": "t_uint64"
      },
      {
        "astId": 11784,
        "contract": "contracts/distributions/TokenDistributorV4.sol:TokenDistributorV4",
        "label": "tgeUnlockRatio1e18",
        "offset": 16,
        "slot": "111",
        "type": "t_uint64"
      },
      {
        "astId": 11786,
        "contract": "contracts/distributions/TokenDistributorV4.sol:TokenDistributorV4",
        "label": "vestingFrequencySeconds",
        "offset": 24,
        "slot": "111",
        "type": "t_uint64"
      },
      {
        "astId": 11793,
        "contract": "contracts/distributions/TokenDistributorV4.sol:TokenDistributorV4",
        "label": "nftRequirement",
        "offset": 0,
        "slot": "112",
        "type": "t_struct(AddressSet)10322_storage"
      },
      {
        "astId": 11799,
        "contract": "contracts/distributions/TokenDistributorV4.sol:TokenDistributorV4",
        "label": "bonusStats",
        "offset": 0,
        "slot": "114",
        "type": "t_struct(BonusStats)11796_storage"
      },
      {
        "astId": 11803,
        "contract": "contracts/distributions/TokenDistributorV4.sol:TokenDistributorV4",
        "label": "donations",
        "offset": 0,
        "slot": "115",
        "type": "t_mapping(t_address,t_uint256)"
      },
      {
        "astId": 11805,
        "contract": "contracts/distributions/TokenDistributorV4.sol:TokenDistributorV4",
        "label": "totalDonations",
        "offset": 0,
        "slot": "116",
        "type": "t_uint256"
      },
      {
        "astId": 12784,
        "contract": "contracts/distributions/TokenDistributorV4.sol:TokenDistributorV4",
        "label": "__gap",
        "offset": 0,
        "slot": "117",
        "type": "t_array(t_uint256)48_storage"
      }
    ],
    "types": {
      "t_address": {
        "encoding": "inplace",
        "label": "address",
        "numberOfBytes": "20"
      },
      "t_array(t_bytes32)dyn_storage": {
        "base": "t_bytes32",
        "encoding": "dynamic_array",
        "label": "bytes32[]",
        "numberOfBytes": "32"
      },
      "t_array(t_int256)dyn_storage": {
        "base": "t_int256",
        "encoding": "dynamic_array",
        "label": "int256[]",
        "numberOfBytes": "32"
      },
      "t_array(t_uint256)48_storage": {
        "base": "t_uint256",
        "encoding": "inplace",
        "label": "uint256[48]",
        "numberOfBytes": "1536"
      },
      "t_array(t_uint256)49_storage": {
        "base": "t_uint256",
        "encoding": "inplace",
        "label": "uint256[49]",
        "numberOfBytes": "1568"
      },
      "t_array(t_uint256)50_storage": {
        "base": "t_uint256",
        "encoding": "inplace",
        "label": "uint256[50]",
        "numberOfBytes": "1600"
      },
      "t_bool": {
        "encoding": "inplace",
        "label": "bool",
        "numberOfBytes": "1"
      },
      "t_bytes32": {
        "encoding": "inplace",
        "label": "bytes32",
        "numberOfBytes": "32"
      },
      "t_contract(IBonus)12895": {
        "encoding": "inplace",
        "label": "contract IBonus",
        "numberOfBytes": "20"
      },
      "t_contract(ISuAccessControl)12922": {
        "encoding": "inplace",
        "label": "contract ISuAccessControl",
        "numberOfBytes": "20"
      },
      "t_int256": {
        "encoding": "inplace",
        "label": "int256",
        "numberOfBytes": "32"
      },
      "t_mapping(t_address,t_uint256)": {
        "encoding": "mapping",
        "key": "t_address",
        "label": "mapping(address => uint256)",
        "numberOfBytes": "32",
        "value": "t_uint256"
      },
      "t_mapping(t_bytes32,t_uint256)": {
        "encoding": "mapping",
        "key": "t_bytes32",
        "label": "mapping(bytes32 => uint256)",
        "numberOfBytes": "32",
        "value": "t_uint256"
      },
      "t_struct(AddressSet)10322_storage": {
        "encoding": "inplace",
        "label": "struct EnumerableSet.AddressSet",
        "members": [
          {
            "astId": 10321,
            "contract": "contracts/distributions/TokenDistributorV4.sol:TokenDistributorV4",
            "label": "_inner",
            "offset": 0,
            "slot": "0",
            "type": "t_struct(Set)10021_storage"
          }
        ],
        "numberOfBytes": "64"
      },
      "t_struct(BonusStats)11796_storage": {
        "encoding": "inplace",
        "label": "struct TokenDistributorV4.BonusStats",
        "members": [
          {
            "astId": 11795,
            "contract": "contracts/distributions/TokenDistributorV4.sol:TokenDistributorV4",
            "label": "bonusRewarded",
            "offset": 0,
            "slot": "0",
            "type": "t_uint256"
          }
        ],
        "numberOfBytes": "32"
      },
      "t_struct(Set)10021_storage": {
        "encoding": "inplace",
        "label": "struct EnumerableSet.Set",
        "members": [
          {
            "astId": 10016,
            "contract": "contracts/distributions/TokenDistributorV4.sol:TokenDistributorV4",
            "label": "_values",
            "offset": 0,
            "slot": "0",
            "type": "t_array(t_bytes32)dyn_storage"
          },
          {
            "astId": 10020,
            "contract": "contracts/distributions/TokenDistributorV4.sol:TokenDistributorV4",
            "label": "_indexes",
            "offset": 0,
            "slot": "1",
            "type": "t_mapping(t_bytes32,t_uint256)"
          }
        ],
        "numberOfBytes": "64"
      },
      "t_uint256": {
        "encoding": "inplace",
        "label": "uint256",
        "numberOfBytes": "32"
      },
      "t_uint64": {
        "encoding": "inplace",
        "label": "uint64",
        "numberOfBytes": "8"
      },
      "t_uint8": {
        "encoding": "inplace",
        "label": "uint8",
        "numberOfBytes": "1"
      }
    }
  }
}