{
  "address": "0x38fD6198f222c63c5D4773adFFDA0163b37321a5",
  "abi": [
    {
      "inputs": [
        {
          "internalType": "address",
          "name": "accessNft",
          "type": "address"
        }
      ],
      "name": "AccessNftNotValidError",
      "type": "error"
    },
    {
      "inputs": [],
      "name": "DistributionTimeframeError",
      "type": "error"
    },
    {
      "inputs": [
        {
          "internalType": "address",
          "name": "account",
          "type": "address"
        },
        {
          "internalType": "address",
          "name": "accessNft",
          "type": "address"
        }
      ],
      "name": "NoAccessNftError",
      "type": "error"
    },
    {
      "inputs": [],
      "name": "NoActiveDistributionError",
      "type": "error"
    },
    {
      "inputs": [
        {
          "internalType": "bytes32",
          "name": "role",
          "type": "bytes32"
        },
        {
          "internalType": "address",
          "name": "msgSender",
          "type": "address"
        }
      ],
      "name": "OnlyRoleError",
      "type": "error"
    },
    {
      "anonymous": false,
      "inputs": [
        {
          "indexed": false,
          "internalType": "uint8",
          "name": "version",
          "type": "uint8"
        }
      ],
      "name": "Initialized",
      "type": "event"
    },
    {
      "anonymous": false,
      "inputs": [
        {
          "indexed": false,
          "internalType": "address",
          "name": "msg_sender",
          "type": "address"
        },
        {
          "indexed": false,
          "internalType": "uint256",
          "name": "donationAmount",
          "type": "uint256"
        }
      ],
      "name": "Participated",
      "type": "event"
    },
    {
      "anonymous": false,
      "inputs": [
        {
          "indexed": false,
          "internalType": "uint64",
          "name": "_startTimestamp",
          "type": "uint64"
        },
        {
          "indexed": false,
          "internalType": "uint64",
          "name": "_deadlineTimestamp",
          "type": "uint64"
        },
        {
          "indexed": false,
          "internalType": "uint256",
          "name": "_donationGoalMin",
          "type": "uint256"
        },
        {
          "indexed": false,
          "internalType": "uint256",
          "name": "_donationGoalMax",
          "type": "uint256"
        },
        {
          "indexed": false,
          "internalType": "uint256",
          "name": "_minimumDonation",
          "type": "uint256"
        },
        {
          "indexed": false,
          "internalType": "uint256",
          "name": "_maximumDonation",
          "type": "uint256"
        },
        {
          "indexed": false,
          "internalType": "address",
          "name": "_donationToken",
          "type": "address"
        },
        {
          "indexed": false,
          "internalType": "uint64",
          "name": "_fullVestingSeconds",
          "type": "uint64"
        },
        {
          "indexed": false,
          "internalType": "uint64",
          "name": "_cliffSeconds",
          "type": "uint64"
        },
        {
          "indexed": false,
          "internalType": "uint64",
          "name": "_tgeUnlockRatio1e18",
          "type": "uint64"
        },
        {
          "indexed": false,
          "internalType": "uint64",
          "name": "_vestingFrequencySeconds",
          "type": "uint64"
        }
      ],
      "name": "SetDistribution",
      "type": "event"
    },
    {
      "inputs": [],
      "name": "ACCESS_CONTROL_SINGLETON",
      "outputs": [
        {
          "internalType": "contract ISuAccessControl",
          "name": "",
          "type": "address"
        }
      ],
      "stateMutability": "view",
      "type": "function"
    },
    {
      "inputs": [],
      "name": "ADMIN_ROLE",
      "outputs": [
        {
          "internalType": "bytes32",
          "name": "",
          "type": "bytes32"
        }
      ],
      "stateMutability": "view",
      "type": "function"
    },
    {
      "inputs": [],
      "name": "BONUS_CONTRACT",
      "outputs": [
        {
          "internalType": "address",
          "name": "",
          "type": "address"
        }
      ],
      "stateMutability": "view",
      "type": "function"
    },
    {
      "inputs": [],
      "name": "COMMUNITY_ADMIN_ROLE",
      "outputs": [
        {
          "internalType": "bytes32",
          "name": "",
          "type": "bytes32"
        }
      ],
      "stateMutability": "view",
      "type": "function"
    },
    {
      "inputs": [],
      "name": "DAO_ROLE",
      "outputs": [
        {
          "internalType": "bytes32",
          "name": "",
          "type": "bytes32"
        }
      ],
      "stateMutability": "view",
      "type": "function"
    },
    {
      "inputs": [],
      "name": "DEFAULT_ADMIN_ROLE",
      "outputs": [
        {
          "internalType": "bytes32",
          "name": "",
          "type": "bytes32"
        }
      ],
      "stateMutability": "view",
      "type": "function"
    },
    {
      "inputs": [],
      "name": "SU_DAO",
      "outputs": [
        {
          "internalType": "address",
          "name": "",
          "type": "address"
        }
      ],
      "stateMutability": "view",
      "type": "function"
    },
    {
      "inputs": [],
      "name": "VE_ERC_20",
      "outputs": [
        {
          "internalType": "address",
          "name": "",
          "type": "address"
        }
      ],
      "stateMutability": "view",
      "type": "function"
    },
    {
      "inputs": [
        {
          "internalType": "contract IERC20Upgradeable",
          "name": "token",
          "type": "address"
        }
      ],
      "name": "adminWithdraw",
      "outputs": [],
      "stateMutability": "nonpayable",
      "type": "function"
    },
    {
      "inputs": [
        {
          "internalType": "uint256",
          "name": "x",
          "type": "uint256"
        }
      ],
      "name": "antiderivativeOfBondingCurvePolynomial1e18At",
      "outputs": [
        {
          "internalType": "uint256",
          "name": "",
          "type": "uint256"
        }
      ],
      "stateMutability": "view",
      "type": "function"
    },
    {
      "inputs": [
        {
          "internalType": "uint256",
          "name": "",
          "type": "uint256"
        }
      ],
      "name": "bondingCurvePolynomial1e18",
      "outputs": [
        {
          "internalType": "uint256",
          "name": "",
          "type": "uint256"
        }
      ],
      "stateMutability": "view",
      "type": "function"
    },
    {
      "inputs": [
        {
          "internalType": "uint256",
          "name": "x",
          "type": "uint256"
        }
      ],
      "name": "bondingCurvePolynomial1e18At",
      "outputs": [
        {
          "internalType": "uint256",
          "name": "",
          "type": "uint256"
        }
      ],
      "stateMutability": "view",
      "type": "function"
    },
    {
      "inputs": [],
      "name": "cliffSeconds",
      "outputs": [
        {
          "internalType": "uint64",
          "name": "",
          "type": "uint64"
        }
      ],
      "stateMutability": "view",
      "type": "function"
    },
    {
      "inputs": [],
      "name": "deadlineTimestamp",
      "outputs": [
        {
          "internalType": "uint64",
          "name": "",
          "type": "uint64"
        }
      ],
      "stateMutability": "view",
      "type": "function"
    },
    {
      "inputs": [],
      "name": "donationGoalMax",
      "outputs": [
        {
          "internalType": "uint256",
          "name": "",
          "type": "uint256"
        }
      ],
      "stateMutability": "view",
      "type": "function"
    },
    {
      "inputs": [],
      "name": "donationGoalMin",
      "outputs": [
        {
          "internalType": "uint256",
          "name": "",
          "type": "uint256"
        }
      ],
      "stateMutability": "view",
      "type": "function"
    },
    {
      "inputs": [],
      "name": "donationToken",
      "outputs": [
        {
          "internalType": "address",
          "name": "",
          "type": "address"
        }
      ],
      "stateMutability": "view",
      "type": "function"
    },
    {
      "inputs": [
        {
          "internalType": "address",
          "name": "",
          "type": "address"
        }
      ],
      "name": "donations",
      "outputs": [
        {
          "internalType": "uint256",
          "name": "",
          "type": "uint256"
        }
      ],
      "stateMutability": "view",
      "type": "function"
    },
    {
      "inputs": [],
      "name": "fullVestingSeconds",
      "outputs": [
        {
          "internalType": "uint64",
          "name": "",
          "type": "uint64"
        }
      ],
      "stateMutability": "view",
      "type": "function"
    },
    {
      "inputs": [
        {
          "internalType": "address",
          "name": "account",
          "type": "address"
        }
      ],
      "name": "getAccessNftsForUser",
      "outputs": [
        {
          "internalType": "address[]",
          "name": "",
          "type": "address[]"
        }
      ],
      "stateMutability": "nonpayable",
      "type": "function"
    },
    {
      "inputs": [
        {
          "internalType": "uint256",
          "name": "donationAmount",
          "type": "uint256"
        }
      ],
      "name": "getBondingCurveRewardAmountFromDonation",
      "outputs": [
        {
          "internalType": "uint256",
          "name": "",
          "type": "uint256"
        }
      ],
      "stateMutability": "view",
      "type": "function"
    },
    {
      "inputs": [],
      "name": "getDistributorStaticData",
      "outputs": [
        {
          "internalType": "uint64",
          "name": "startTimestamp",
          "type": "uint64"
        },
        {
          "internalType": "uint64",
          "name": "deadlineTimestamp",
          "type": "uint64"
        },
        {
          "internalType": "uint256",
          "name": "minimumDonation",
          "type": "uint256"
        },
        {
          "internalType": "uint256",
          "name": "maximumDonation",
          "type": "uint256"
        },
        {
          "internalType": "uint256",
          "name": "donationGoalMin",
          "type": "uint256"
        },
        {
          "internalType": "uint256",
          "name": "donationGoalMax",
          "type": "uint256"
        },
        {
          "internalType": "address",
          "name": "donationToken",
          "type": "address"
        },
        {
          "internalType": "uint64",
          "name": "fullVestingSeconds",
          "type": "uint64"
        },
        {
          "internalType": "uint64",
          "name": "cliffSeconds",
          "type": "uint64"
        },
        {
          "internalType": "uint64",
          "name": "tgeUnlockRatio1e18",
          "type": "uint64"
        },
        {
          "internalType": "uint64",
          "name": "vestingFrequencySeconds",
          "type": "uint64"
        }
      ],
      "stateMutability": "view",
      "type": "function"
    },
    {
      "inputs": [
        {
          "internalType": "address",
          "name": "user",
          "type": "address"
        },
        {
          "internalType": "address",
          "name": "accessNft",
          "type": "address"
        }
      ],
      "name": "getMaximumDonationAmount",
      "outputs": [
        {
          "internalType": "uint256",
          "name": "",
          "type": "uint256"
        }
      ],
      "stateMutability": "view",
      "type": "function"
    },
    {
      "inputs": [
        {
          "internalType": "bytes32",
          "name": "role",
          "type": "bytes32"
        }
      ],
      "name": "getRoleAdmin",
      "outputs": [
        {
          "internalType": "bytes32",
          "name": "",
          "type": "bytes32"
        }
      ],
      "stateMutability": "view",
      "type": "function"
    },
    {
      "inputs": [
        {
          "internalType": "bytes32",
          "name": "role",
          "type": "bytes32"
        },
        {
          "internalType": "address",
          "name": "account",
          "type": "address"
        }
      ],
      "name": "hasRole",
      "outputs": [
        {
          "internalType": "bool",
          "name": "",
          "type": "bool"
        }
      ],
      "stateMutability": "view",
      "type": "function"
    },
    {
      "inputs": [
        {
          "internalType": "address",
          "name": "_accessControlSingleton",
          "type": "address"
        },
        {
          "internalType": "address",
          "name": "_suDAO",
          "type": "address"
        },
        {
          "internalType": "address",
          "name": "_veErc20",
          "type": "address"
        },
        {
          "internalType": "address",
          "name": "_bonusContract",
          "type": "address"
        }
      ],
      "name": "initialize",
      "outputs": [],
      "stateMutability": "nonpayable",
      "type": "function"
    },
    {
      "inputs": [],
      "name": "maximumDonation",
      "outputs": [
        {
          "internalType": "uint256",
          "name": "",
          "type": "uint256"
        }
      ],
      "stateMutability": "view",
      "type": "function"
    },
    {
      "inputs": [],
      "name": "minimumDonation",
      "outputs": [
        {
          "internalType": "uint256",
          "name": "",
          "type": "uint256"
        }
      ],
      "stateMutability": "view",
      "type": "function"
    },
    {
      "inputs": [
        {
          "internalType": "uint256",
          "name": "donationAmount",
          "type": "uint256"
        },
        {
          "internalType": "address",
          "name": "accessNft",
          "type": "address"
        }
      ],
      "name": "participate",
      "outputs": [],
      "stateMutability": "payable",
      "type": "function"
    },
    {
      "inputs": [
        {
          "internalType": "uint64",
          "name": "_startTimestamp",
          "type": "uint64"
        },
        {
          "internalType": "uint64",
          "name": "_deadlineTimestamp",
          "type": "uint64"
        },
        {
          "internalType": "uint256",
          "name": "_donationGoalMin",
          "type": "uint256"
        },
        {
          "internalType": "uint256",
          "name": "_donationGoalMax",
          "type": "uint256"
        },
        {
          "internalType": "uint256",
          "name": "_minimumDonation",
          "type": "uint256"
        },
        {
          "internalType": "uint256",
          "name": "_maximumDonation",
          "type": "uint256"
        },
        {
          "internalType": "address",
          "name": "_donationToken",
          "type": "address"
        },
        {
          "internalType": "uint64",
          "name": "_fullVestingSeconds",
          "type": "uint64"
        },
        {
          "internalType": "uint64",
          "name": "_cliffSeconds",
          "type": "uint64"
        },
        {
          "internalType": "uint64",
          "name": "_tgeUnlockRatio1e18",
          "type": "uint64"
        },
        {
          "internalType": "uint64",
          "name": "_vestingFrequencySeconds",
          "type": "uint64"
        }
      ],
      "name": "setDistributionInfo",
      "outputs": [],
      "stateMutability": "nonpayable",
      "type": "function"
    },
    {
      "inputs": [
        {
          "internalType": "address",
          "name": "accessNft",
          "type": "address"
        },
        {
          "internalType": "bool",
          "name": "valid",
          "type": "bool"
        }
      ],
      "name": "setNftAccess",
      "outputs": [],
      "stateMutability": "nonpayable",
      "type": "function"
    },
    {
      "inputs": [],
      "name": "startTimestamp",
      "outputs": [
        {
          "internalType": "uint64",
          "name": "",
          "type": "uint64"
        }
      ],
      "stateMutability": "view",
      "type": "function"
    },
    {
      "inputs": [
        {
          "internalType": "bytes4",
          "name": "interfaceId",
          "type": "bytes4"
        }
      ],
      "name": "supportsInterface",
      "outputs": [
        {
          "internalType": "bool",
          "name": "",
          "type": "bool"
        }
      ],
      "stateMutability": "view",
      "type": "function"
    },
    {
      "inputs": [],
      "name": "takeDonationBack",
      "outputs": [],
      "stateMutability": "nonpayable",
      "type": "function"
    },
    {
      "inputs": [],
      "name": "tgeUnlockRatio1e18",
      "outputs": [
        {
          "internalType": "uint64",
          "name": "",
          "type": "uint64"
        }
      ],
      "stateMutability": "view",
      "type": "function"
    },
    {
      "inputs": [],
      "name": "totalDonations",
      "outputs": [
        {
          "internalType": "uint256",
          "name": "",
          "type": "uint256"
        }
      ],
      "stateMutability": "view",
      "type": "function"
    },
    {
      "inputs": [],
      "name": "vestingFrequencySeconds",
      "outputs": [
        {
          "internalType": "uint64",
          "name": "",
          "type": "uint64"
        }
      ],
      "stateMutability": "view",
      "type": "function"
    },
    {
      "stateMutability": "payable",
      "type": "receive"
    }
  ],
  "numDeployments": 1,
  "solcInputHash": "837ab385f55625d39d66d118a88b0ce6",
  "bytecode": "0x608060405234801561001057600080fd5b50614205806100206000396000f3fe60806040526004361061021e5760003560e01c806395367f8911610123578063dc4eff7e116100ab578063f365642a1161006f578063f365642a146107fb578063f498446014610826578063f6d8414f14610863578063f8c8765e1461088e578063fee1d57c146108b757610225565b8063dc4eff7e14610738578063de2ed89314610763578063e6fd48bc1461078e578063e9c26518146107b9578063efb8f4fd146107e457610225565b80639dbf7935116100f25780639dbf79351461063f578063a217fddf1461067c578063a28835b6146106a7578063b5b8a68a146106d0578063cc6cb19a146106fb57610225565b806395367f891461058357806396d8f4f3146105ae5780639954a9bc146105d95780639d0c68461461060257610225565b806347b8ce3f116101a65780636c5a5428116101755780636c5a54281461048857806375b238fc146104c55780637b9fa8bd146104f05780638341ee721461051b57806391d148541461054657610225565b806347b8ce3f146103c05780634a591c6d146103fd5780635deb395b146104285780635e10448b1461045d57610225565b806313b18640116101ed57806313b18640146102e8578063248a9ca314610304578063303c1c8d1461034157806335864cdc1461036a578063445c4c8d1461039557610225565b806301ffc9a71461022a57806303ee9f22146102675780630afcdef5146102925780630df72159146102bd57610225565b3661022557005b600080fd5b34801561023657600080fd5b50610251600480360381019061024c9190612b76565b6108f4565b60405161025e9190612bbe565b60405180910390f35b34801561027357600080fd5b5061027c610999565b6040516102899190612c58565b60405180910390f35b34801561029e57600080fd5b506102a76109bf565b6040516102b49190612c96565b60405180910390f35b3480156102c957600080fd5b506102d26109d9565b6040516102df9190612cd2565b60405180910390f35b61030260048036038101906102fd9190612d4f565b6109ff565b005b34801561031057600080fd5b5061032b60048036038101906103269190612dc5565b611136565b6040516103389190612e01565b60405180910390f35b34801561034d57600080fd5b5061036860048036038101906103639190612e48565b6111db565b005b34801561037657600080fd5b5061037f6115eb565b60405161038c9190612c96565b60405180910390f35b3480156103a157600080fd5b506103aa611605565b6040516103b79190612cd2565b60405180910390f35b3480156103cc57600080fd5b506103e760048036038101906103e29190612f3c565b61162b565b6040516103f49190612f78565b60405180910390f35b34801561040957600080fd5b506104126116bf565b60405161041f9190612f78565b60405180910390f35b34801561043457600080fd5b5061043d6116c5565b6040516104549b9a99989796959493929190612f93565b60405180910390f35b34801561046957600080fd5b506104726116e3565b60405161047f9190612c96565b60405180910390f35b34801561049457600080fd5b506104af60048036038101906104aa9190612f3c565b6116fd565b6040516104bc9190612f78565b60405180910390f35b3480156104d157600080fd5b506104da611721565b6040516104e79190612e01565b60405180910390f35b3480156104fc57600080fd5b50610505611745565b6040516105129190612f78565b60405180910390f35b34801561052757600080fd5b5061053061174b565b60405161053d9190612c96565b60405180910390f35b34801561055257600080fd5b5061056d6004803603810190610568919061303e565b611765565b60405161057a9190612bbe565b60405180910390f35b34801561058f57600080fd5b5061059861180d565b6040516105a59190612e01565b60405180910390f35b3480156105ba57600080fd5b506105c3611831565b6040516105d09190612f78565b60405180910390f35b3480156105e557600080fd5b5061060060048036038101906105fb91906130aa565b611837565b005b34801561060e57600080fd5b50610629600480360381019061062491906130ea565b6118e0565b6040516106369190612f78565b60405180910390f35b34801561064b57600080fd5b506106666004803603810190610661919061312a565b6119da565b6040516106739190613215565b60405180910390f35b34801561068857600080fd5b50610691611b6c565b60405161069e9190612e01565b60405180910390f35b3480156106b357600080fd5b506106ce60048036038101906106c99190613275565b611b73565b005b3480156106dc57600080fd5b506106e5611ced565b6040516106f29190612cd2565b60405180910390f35b34801561070757600080fd5b50610722600480360381019061071d919061312a565b611d13565b60405161072f9190612f78565b60405180910390f35b34801561074457600080fd5b5061074d611d2b565b60405161075a9190612cd2565b60405180910390f35b34801561076f57600080fd5b50610778611d51565b6040516107859190612f78565b60405180910390f35b34801561079a57600080fd5b506107a3611d57565b6040516107b09190612c96565b60405180910390f35b3480156107c557600080fd5b506107ce611d71565b6040516107db9190612e01565b60405180910390f35b3480156107f057600080fd5b506107f9611d78565b005b34801561080757600080fd5b50610810611fee565b60405161081d9190612f78565b60405180910390f35b34801561083257600080fd5b5061084d60048036038101906108489190612f3c565b611ff4565b60405161085a9190612f78565b60405180910390f35b34801561086f57600080fd5b5061087861208b565b6040516108859190612c96565b60405180910390f35b34801561089a57600080fd5b506108b560048036038101906108b091906132a2565b6120a5565b005b3480156108c357600080fd5b506108de60048036038101906108d99190612f3c565b61234a565b6040516108eb9190612f78565b60405180910390f35b6000603360009054906101000a900473ffffffffffffffffffffffffffffffffffffffff1673ffffffffffffffffffffffffffffffffffffffff166301ffc9a7836040518263ffffffff1660e01b81526004016109519190613318565b602060405180830381865afa15801561096e573d6000803e3d6000fd5b505050506040513d601f19601f820116820180604052508101906109929190613348565b9050919050565b603360009054906101000a900473ffffffffffffffffffffffffffffffffffffffff1681565b607160109054906101000a900467ffffffffffffffff1681565b607060009054906101000a900473ffffffffffffffffffffffffffffffffffffffff1681565b6000606d5403610a3b576040517f76d9f52e00000000000000000000000000000000000000000000000000000000815260040160405180910390fd5b606760149054906101000a900467ffffffffffffffff1667ffffffffffffffff16421080610a88575042606860009054906101000a900467ffffffffffffffff1667ffffffffffffffff16105b15610abf576040517fd3af728300000000000000000000000000000000000000000000000000000000815260040160405180910390fd5b610ad381607261242d90919063ffffffff16565b610b1457806040517f7f2e188c000000000000000000000000000000000000000000000000000000008152600401610b0b9190612cd2565b60405180910390fd5b60008173ffffffffffffffffffffffffffffffffffffffff166370a08231336040518263ffffffff1660e01b8152600401610b4f9190612cd2565b602060405180830381865afa158015610b6c573d6000803e3d6000fd5b505050506040513d601f19601f82011682018060405250810190610b90919061338a565b03610bd45733816040517f8afa396a000000000000000000000000000000000000000000000000000000008152600401610bcb9291906133b7565b60405180910390fd5b6069548211610c18576040517f08c379a0000000000000000000000000000000000000000000000000000000008152600401610c0f90613463565b60405180910390fd5b6000606760009054906101000a900473ffffffffffffffffffffffffffffffffffffffff1673ffffffffffffffffffffffffffffffffffffffff16630e022923336040518263ffffffff1660e01b8152600401610c759190612cd2565b602060405180830381865afa158015610c92573d6000803e3d6000fd5b505050506040513d601f19601f82011682018060405250810190610cb6919061338a565b90506000808214610cc75781610ccb565b606a545b90508084606e60003373ffffffffffffffffffffffffffffffffffffffff1673ffffffffffffffffffffffffffffffffffffffff16815260200190815260200160002054610d1991906134b2565b10610d59576040517f08c379a0000000000000000000000000000000000000000000000000000000008152600401610d509061357a565b60405180910390fd5b6000606760009054906101000a900473ffffffffffffffffffffffffffffffffffffffff1673ffffffffffffffffffffffffffffffffffffffff166306f2791a336040518263ffffffff1660e01b8152600401610db69190612cd2565b602060405180830381865afa158015610dd3573d6000803e3d6000fd5b505050506040513d601f19601f82011682018060405250810190610df7919061338a565b90506000670de0b6b3a764000082670de0b6b3a7640000610e1891906134b2565b610e218861234a565b610e2b919061359a565b610e359190613623565b9050610e86333088607060009054906101000a900473ffffffffffffffffffffffffffffffffffffffff1673ffffffffffffffffffffffffffffffffffffffff1661245d909392919063ffffffff16565b85606f54610e9491906134b2565b606f8190555085606e60003373ffffffffffffffffffffffffffffffffffffffff1673ffffffffffffffffffffffffffffffffffffffff16815260200190815260200160002054610ee591906134b2565b606e60003373ffffffffffffffffffffffffffffffffffffffff1673ffffffffffffffffffffffffffffffffffffffff1681526020019081526020016000208190555080606660009054906101000a900473ffffffffffffffffffffffffffffffffffffffff1673ffffffffffffffffffffffffffffffffffffffff166370a08231306040518263ffffffff1660e01b8152600401610f849190612cd2565b602060405180830381865afa158015610fa1573d6000803e3d6000fd5b505050506040513d601f19601f82011682018060405250810190610fc5919061338a565b1015611006576040517f08c379a0000000000000000000000000000000000000000000000000000000008152600401610ffd906136a0565b60405180910390fd5b606560009054906101000a900473ffffffffffffffffffffffffffffffffffffffff1673ffffffffffffffffffffffffffffffffffffffff166393a56edc3383607060149054906101000a900467ffffffffffffffff16607160009054906101000a900467ffffffffffffffff16607160089054906101000a900467ffffffffffffffff16607160109054906101000a900467ffffffffffffffff166040518763ffffffff1660e01b81526004016110c3969594939291906136f1565b600060405180830381600087803b1580156110dd57600080fd5b505af11580156110f1573d6000803e3d6000fd5b505050507fb198f199c43cc078ad46e5a5fabe03eba401f7417816c86af0bd2e7345c995063387604051611126929190613752565b60405180910390a1505050505050565b6000603360009054906101000a900473ffffffffffffffffffffffffffffffffffffffff1673ffffffffffffffffffffffffffffffffffffffff1663248a9ca3836040518263ffffffff1660e01b81526004016111939190612e01565b602060405180830381865afa1580156111b0573d6000803e3d6000fd5b505050506040513d601f19601f820116820180604052508101906111d49190613790565b9050919050565b7fa49807205ce4d355092ef5a8a18f56e8913cf4a201fbe287825b095693c217756112068133611765565b6112495780336040517f37c2e3430000000000000000000000000000000000000000000000000000000081526004016112409291906137bd565b60405180910390fd5b8a67ffffffffffffffff168c67ffffffffffffffff161061129f576040517f08c379a000000000000000000000000000000000000000000000000000000000815260040161129690613858565b60405180910390fd5b888a11156112e2576040517f08c379a00000000000000000000000000000000000000000000000000000000081526004016112d9906138ea565b60405180910390fd5b86881115611325576040517f08c379a000000000000000000000000000000000000000000000000000000000815260040161131c9061397c565b60405180910390fd5b600073ffffffffffffffffffffffffffffffffffffffff168673ffffffffffffffffffffffffffffffffffffffff1603611394576040517f08c379a000000000000000000000000000000000000000000000000000000000815260040161138b906139e8565b60405180910390fd5b8467ffffffffffffffff168467ffffffffffffffff16106113ea576040517f08c379a00000000000000000000000000000000000000000000000000000000081526004016113e190613a54565b60405180910390fd5b670de0b6b3a76400008367ffffffffffffffff16111561143f576040517f08c379a000000000000000000000000000000000000000000000000000000000815260040161143690613ae6565b60405180910390fd5b8b606760146101000a81548167ffffffffffffffff021916908367ffffffffffffffff1602179055508a606860006101000a81548167ffffffffffffffff021916908367ffffffffffffffff16021790555089606c8190555088606d819055508760698190555086606a8190555085607060006101000a81548173ffffffffffffffffffffffffffffffffffffffff021916908373ffffffffffffffffffffffffffffffffffffffff16021790555084607060146101000a81548167ffffffffffffffff021916908367ffffffffffffffff16021790555083607160006101000a81548167ffffffffffffffff021916908367ffffffffffffffff16021790555082607160086101000a81548167ffffffffffffffff021916908367ffffffffffffffff16021790555081607160106101000a81548167ffffffffffffffff021916908367ffffffffffffffff1602179055507fe81f01d972e8c23fba63a5e8b84c850255cc5b3427763906e1346ad28f1556a38c8c8c8c8c8c8c8c8c8c8c6040516115d59b9a99989796959493929190612f93565b60405180910390a1505050505050505050505050565b607060149054906101000a900467ffffffffffffffff1681565b606760009054906101000a900473ffffffffffffffffffffffffffffffffffffffff1681565b600080606b8054905090506000600190506000805b838110156116b357670de0b6b3a764000083606b838154811061166657611665613b06565b5b906000526020600020015461167b919061359a565b6116859190613623565b8261169091906134b2565b9150858361169e919061359a565b925080806116ab90613b35565b915050611640565b50809350505050919050565b606a5481565b6000806000806000806000806000806000909192939495969798999a565b607160089054906101000a900467ffffffffffffffff1681565b606b818154811061170d57600080fd5b906000526020600020016000915090505481565b7fa49807205ce4d355092ef5a8a18f56e8913cf4a201fbe287825b095693c2177581565b606c5481565b607160009054906101000a900467ffffffffffffffff1681565b6000603360009054906101000a900473ffffffffffffffffffffffffffffffffffffffff1673ffffffffffffffffffffffffffffffffffffffff166391d1485484846040518363ffffffff1660e01b81526004016117c49291906137bd565b602060405180830381865afa1580156117e1573d6000803e3d6000fd5b505050506040513d601f19601f820116820180604052508101906118059190613348565b905092915050565b7f0a7cc066f24e107ff77c42c8a1bdaf1a5f775fa4a74e45530aaf9c866368f65381565b60695481565b7fa49807205ce4d355092ef5a8a18f56e8913cf4a201fbe287825b095693c217756118628133611765565b6118a55780336040517f37c2e34300000000000000000000000000000000000000000000000000000000815260040161189c9291906137bd565b60405180910390fd5b81156118c5576118bf8360726124e690919063ffffffff16565b506118db565b6118d983607261251690919063ffffffff16565b505b505050565b6000808273ffffffffffffffffffffffffffffffffffffffff166370a08231336040518263ffffffff1660e01b815260040161191c9190612cd2565b602060405180830381865afa158015611939573d6000803e3d6000fd5b505050506040513d601f19601f8201168201806040525081019061195d919061338a565b11156119cf576119c8606e60008573ffffffffffffffffffffffffffffffffffffffff1673ffffffffffffffffffffffffffffffffffffffff16815260200190815260200160002054606a546119b39190613b7d565b606f54606d546119c39190613b7d565b612546565b90506119d4565b600090505b92915050565b606060006119e8607261255f565b905060008151905060008167ffffffffffffffff811115611a0c57611a0b613bb1565b5b604051908082528060200260200182016040528015611a3a5781602001602082028036833780820191505090505b50905060005b82811015611b60576000848281518110611a5d57611a5c613b06565b5b602002602001015173ffffffffffffffffffffffffffffffffffffffff166370a08231336040518263ffffffff1660e01b8152600401611a9d9190612cd2565b602060405180830381865afa158015611aba573d6000803e3d6000fd5b505050506040513d601f19601f82011682018060405250810190611ade919061338a565b1115611b4d57838181518110611af757611af6613b06565b5b6020026020010151828281518110611b1257611b11613b06565b5b602002602001019073ffffffffffffffffffffffffffffffffffffffff16908173ffffffffffffffffffffffffffffffffffffffff16815250505b8080611b5890613b35565b915050611a40565b50809350505050919050565b6000801b81565b6000801b611b818133611765565b611bc45780336040517f37c2e343000000000000000000000000000000000000000000000000000000008152600401611bbb9291906137bd565b60405180910390fd5b600073ffffffffffffffffffffffffffffffffffffffff168273ffffffffffffffffffffffffffffffffffffffff1603611c44573373ffffffffffffffffffffffffffffffffffffffff166108fc479081150290604051600060405180830381858888f19350505050158015611c3e573d6000803e3d6000fd5b50611ce9565b611ce8338373ffffffffffffffffffffffffffffffffffffffff166370a08231306040518263ffffffff1660e01b8152600401611c819190612cd2565b602060405180830381865afa158015611c9e573d6000803e3d6000fd5b505050506040513d601f19601f82011682018060405250810190611cc2919061338a565b8473ffffffffffffffffffffffffffffffffffffffff166125809092919063ffffffff16565b5b5050565b606560009054906101000a900473ffffffffffffffffffffffffffffffffffffffff1681565b606e6020528060005260406000206000915090505481565b606660009054906101000a900473ffffffffffffffffffffffffffffffffffffffff1681565b606f5481565b606760149054906101000a900467ffffffffffffffff1681565b6000801b81565b606860009054906101000a900467ffffffffffffffff1667ffffffffffffffff16421015611ddb576040517f08c379a0000000000000000000000000000000000000000000000000000000008152600401611dd290613c2c565b60405180910390fd5b606c54606f5410611e21576040517f08c379a0000000000000000000000000000000000000000000000000000000008152600401611e1890613c98565b60405180910390fd5b6000606560009054906101000a900473ffffffffffffffffffffffffffffffffffffffff1673ffffffffffffffffffffffffffffffffffffffff166370a08231336040518263ffffffff1660e01b8152600401611e7e9190612cd2565b602060405180830381865afa158015611e9b573d6000803e3d6000fd5b505050506040513d601f19601f82011682018060405250810190611ebf919061338a565b14611eff576040517f08c379a0000000000000000000000000000000000000000000000000000000008152600401611ef690613d2a565b60405180910390fd5b6000606e60003373ffffffffffffffffffffffffffffffffffffffff1673ffffffffffffffffffffffffffffffffffffffff1681526020019081526020016000205490506000606e60003373ffffffffffffffffffffffffffffffffffffffff1673ffffffffffffffffffffffffffffffffffffffff1681526020019081526020016000208190555080606f54611f969190613b7d565b606f81905550611feb303383607060009054906101000a900473ffffffffffffffffffffffffffffffffffffffff1673ffffffffffffffffffffffffffffffffffffffff1661245d909392919063ffffffff16565b50565b606d5481565b600080606b80549050905060008390506000805b8381101561207f5760018161201d91906134b2565b83606b838154811061203257612031613b06565b5b9060005260206000200154612047919061359a565b6120519190613623565b8261205c91906134b2565b9150858361206a919061359a565b9250808061207790613b35565b915050612008565b50809350505050919050565b606860009054906101000a900467ffffffffffffffff1681565b60008060019054906101000a900460ff161590508080156120d65750600160008054906101000a900460ff1660ff16105b8061210357506120e530612606565b1580156121025750600160008054906101000a900460ff1660ff16145b5b612142576040517f08c379a000000000000000000000000000000000000000000000000000000000815260040161213990613dbc565b60405180910390fd5b60016000806101000a81548160ff021916908360ff160217905550801561217f576001600060016101000a81548160ff0219169083151502179055505b61218885612629565b83606660006101000a81548173ffffffffffffffffffffffffffffffffffffffff021916908373ffffffffffffffffffffffffffffffffffffffff16021790555082606560006101000a81548173ffffffffffffffffffffffffffffffffffffffff021916908373ffffffffffffffffffffffffffffffffffffffff16021790555081606760006101000a81548173ffffffffffffffffffffffffffffffffffffffff021916908373ffffffffffffffffffffffffffffffffffffffff1602179055508373ffffffffffffffffffffffffffffffffffffffff1663095ea7b3847fffffffffffffffffffffffffffffffffffffffffffffffffffffffffffffffff6040518363ffffffff1660e01b81526004016122a6929190613752565b6020604051808303816000875af11580156122c5573d6000803e3d6000fd5b505050506040513d601f19601f820116820180604052508101906122e99190613348565b5080156123435760008060016101000a81548160ff0219169083151502179055507f7f26b83ff96e1f2b6a682f133852f6798a09c465da95921460cefb3847402498600160405161233a9190613e24565b60405180910390a15b5050505050565b600080612358606f54611ff4565b9050600061237284606f5461236d91906134b2565b611ff4565b9050612424606660009054906101000a900473ffffffffffffffffffffffffffffffffffffffff1673ffffffffffffffffffffffffffffffffffffffff166370a08231306040518263ffffffff1660e01b81526004016123d29190612cd2565b602060405180830381865afa1580156123ef573d6000803e3d6000fd5b505050506040513d601f19601f82011682018060405250810190612413919061338a565b838361241f9190613b7d565b612546565b92505050919050565b6000612455836000018373ffffffffffffffffffffffffffffffffffffffff1660001b6126bc565b905092915050565b6124e0846323b872dd60e01b85858560405160240161247e93929190613e3f565b604051602081830303815290604052907bffffffffffffffffffffffffffffffffffffffffffffffffffffffff19166020820180517bffffffffffffffffffffffffffffffffffffffffffffffffffffffff83818316178352505050506126df565b50505050565b600061250e836000018373ffffffffffffffffffffffffffffffffffffffff1660001b6127a6565b905092915050565b600061253e836000018373ffffffffffffffffffffffffffffffffffffffff1660001b612816565b905092915050565b60008183106125555781612557565b825b905092915050565b6060600061256f8360000161292a565b905060608190508092505050919050565b6126018363a9059cbb60e01b848460405160240161259f929190613752565b604051602081830303815290604052907bffffffffffffffffffffffffffffffffffffffffffffffffffffffff19166020820180517bffffffffffffffffffffffffffffffffffffffffffffffffffffffff83818316178352505050506126df565b505050565b6000808273ffffffffffffffffffffffffffffffffffffffff163b119050919050565b600060019054906101000a900460ff16612678576040517f08c379a000000000000000000000000000000000000000000000000000000000815260040161266f90613ee8565b60405180910390fd5b80603360006101000a81548173ffffffffffffffffffffffffffffffffffffffff021916908373ffffffffffffffffffffffffffffffffffffffff16021790555050565b600080836001016000848152602001908152602001600020541415905092915050565b6000612741826040518060400160405280602081526020017f5361666545524332303a206c6f772d6c6576656c2063616c6c206661696c65648152508573ffffffffffffffffffffffffffffffffffffffff166129869092919063ffffffff16565b90506000815111156127a157808060200190518101906127619190613348565b6127a0576040517f08c379a000000000000000000000000000000000000000000000000000000000815260040161279790613f7a565b60405180910390fd5b5b505050565b60006127b283836126bc565b61280b578260000182908060018154018082558091505060019003906000526020600020016000909190919091505582600001805490508360010160008481526020019081526020016000208190555060019050612810565b600090505b92915050565b6000808360010160008481526020019081526020016000205490506000811461291e5760006001826128489190613b7d565b90506000600186600001805490506128609190613b7d565b90508181146128cf57600086600001828154811061288157612880613b06565b5b90600052602060002001549050808760000184815481106128a5576128a4613b06565b5b90600052602060002001819055508387600101600083815260200190815260200160002081905550505b856000018054806128e3576128e2613f9a565b5b600190038181906000526020600020016000905590558560010160008681526020019081526020016000206000905560019350505050612924565b60009150505b92915050565b60608160000180548060200260200160405190810160405280929190818152602001828054801561297a57602002820191906000526020600020905b815481526020019060010190808311612966575b50505050509050919050565b6060612995848460008561299e565b90509392505050565b6060824710156129e3576040517f08c379a00000000000000000000000000000000000000000000000000000000081526004016129da9061403b565b60405180910390fd5b6129ec85612606565b612a2b576040517f08c379a0000000000000000000000000000000000000000000000000000000008152600401612a22906140a7565b60405180910390fd5b6000808673ffffffffffffffffffffffffffffffffffffffff168587604051612a549190614141565b60006040518083038185875af1925050503d8060008114612a91576040519150601f19603f3d011682016040523d82523d6000602084013e612a96565b606091505b5091509150612aa6828286612ab2565b92505050949350505050565b60608315612ac257829050612b12565b600083511115612ad55782518084602001fd5b816040517f08c379a0000000000000000000000000000000000000000000000000000000008152600401612b0991906141ad565b60405180910390fd5b9392505050565b600080fd5b60007fffffffff0000000000000000000000000000000000000000000000000000000082169050919050565b612b5381612b1e565b8114612b5e57600080fd5b50565b600081359050612b7081612b4a565b92915050565b600060208284031215612b8c57612b8b612b19565b5b6000612b9a84828501612b61565b91505092915050565b60008115159050919050565b612bb881612ba3565b82525050565b6000602082019050612bd36000830184612baf565b92915050565b600073ffffffffffffffffffffffffffffffffffffffff82169050919050565b6000819050919050565b6000612c1e612c19612c1484612bd9565b612bf9565b612bd9565b9050919050565b6000612c3082612c03565b9050919050565b6000612c4282612c25565b9050919050565b612c5281612c37565b82525050565b6000602082019050612c6d6000830184612c49565b92915050565b600067ffffffffffffffff82169050919050565b612c9081612c73565b82525050565b6000602082019050612cab6000830184612c87565b92915050565b6000612cbc82612bd9565b9050919050565b612ccc81612cb1565b82525050565b6000602082019050612ce76000830184612cc3565b92915050565b6000819050919050565b612d0081612ced565b8114612d0b57600080fd5b50565b600081359050612d1d81612cf7565b92915050565b612d2c81612cb1565b8114612d3757600080fd5b50565b600081359050612d4981612d23565b92915050565b60008060408385031215612d6657612d65612b19565b5b6000612d7485828601612d0e565b9250506020612d8585828601612d3a565b9150509250929050565b6000819050919050565b612da281612d8f565b8114612dad57600080fd5b50565b600081359050612dbf81612d99565b92915050565b600060208284031215612ddb57612dda612b19565b5b6000612de984828501612db0565b91505092915050565b612dfb81612d8f565b82525050565b6000602082019050612e166000830184612df2565b92915050565b612e2581612c73565b8114612e3057600080fd5b50565b600081359050612e4281612e1c565b92915050565b60008060008060008060008060008060006101608c8e031215612e6e57612e6d612b19565b5b6000612e7c8e828f01612e33565b9b50506020612e8d8e828f01612e33565b9a50506040612e9e8e828f01612d0e565b9950506060612eaf8e828f01612d0e565b9850506080612ec08e828f01612d0e565b97505060a0612ed18e828f01612d0e565b96505060c0612ee28e828f01612d3a565b95505060e0612ef38e828f01612e33565b945050610100612f058e828f01612e33565b935050610120612f178e828f01612e33565b925050610140612f298e828f01612e33565b9150509295989b509295989b9093969950565b600060208284031215612f5257612f51612b19565b5b6000612f6084828501612d0e565b91505092915050565b612f7281612ced565b82525050565b6000602082019050612f8d6000830184612f69565b92915050565b600061016082019050612fa9600083018e612c87565b612fb6602083018d612c87565b612fc3604083018c612f69565b612fd0606083018b612f69565b612fdd608083018a612f69565b612fea60a0830189612f69565b612ff760c0830188612cc3565b61300460e0830187612c87565b613012610100830186612c87565b613020610120830185612c87565b61302e610140830184612c87565b9c9b505050505050505050505050565b6000806040838503121561305557613054612b19565b5b600061306385828601612db0565b925050602061307485828601612d3a565b9150509250929050565b61308781612ba3565b811461309257600080fd5b50565b6000813590506130a48161307e565b92915050565b600080604083850312156130c1576130c0612b19565b5b60006130cf85828601612d3a565b92505060206130e085828601613095565b9150509250929050565b6000806040838503121561310157613100612b19565b5b600061310f85828601612d3a565b925050602061312085828601612d3a565b9150509250929050565b6000602082840312156131405761313f612b19565b5b600061314e84828501612d3a565b91505092915050565b600081519050919050565b600082825260208201905092915050565b6000819050602082019050919050565b61318c81612cb1565b82525050565b600061319e8383613183565b60208301905092915050565b6000602082019050919050565b60006131c282613157565b6131cc8185613162565b93506131d783613173565b8060005b838110156132085781516131ef8882613192565b97506131fa836131aa565b9250506001810190506131db565b5085935050505092915050565b6000602082019050818103600083015261322f81846131b7565b905092915050565b600061324282612cb1565b9050919050565b61325281613237565b811461325d57600080fd5b50565b60008135905061326f81613249565b92915050565b60006020828403121561328b5761328a612b19565b5b600061329984828501613260565b91505092915050565b600080600080608085870312156132bc576132bb612b19565b5b60006132ca87828801612d3a565b94505060206132db87828801612d3a565b93505060406132ec87828801612d3a565b92505060606132fd87828801612d3a565b91505092959194509250565b61331281612b1e565b82525050565b600060208201905061332d6000830184613309565b92915050565b6000815190506133428161307e565b92915050565b60006020828403121561335e5761335d612b19565b5b600061336c84828501613333565b91505092915050565b60008151905061338481612cf7565b92915050565b6000602082840312156133a05761339f612b19565b5b60006133ae84828501613375565b91505092915050565b60006040820190506133cc6000830185612cc3565b6133d96020830184612cc3565b9392505050565b600082825260208201905092915050565b7f596f757220646f6e6174696f6e2073686f756c6420626520677265617465722060008201527f7468616e206d696e696d756d20646f6e6174696f6e0000000000000000000000602082015250565b600061344d6035836133e0565b9150613458826133f1565b604082019050919050565b6000602082019050818103600083015261347c81613440565b9050919050565b7f4e487b7100000000000000000000000000000000000000000000000000000000600052601160045260246000fd5b60006134bd82612ced565b91506134c883612ced565b9250827fffffffffffffffffffffffffffffffffffffffffffffffffffffffffffffffff038211156134fd576134fc613483565b5b828201905092915050565b7f596f757220646f6e6174696f6e732073686f756c64206265206c65737320746860008201527f616e206d617820646f6e6174696f6e0000000000000000000000000000000000602082015250565b6000613564602f836133e0565b915061356f82613508565b604082019050919050565b6000602082019050818103600083015261359381613557565b9050919050565b60006135a582612ced565b91506135b083612ced565b9250817fffffffffffffffffffffffffffffffffffffffffffffffffffffffffffffffff04831182151516156135e9576135e8613483565b5b828202905092915050565b7f4e487b7100000000000000000000000000000000000000000000000000000000600052601260045260246000fd5b600061362e82612ced565b915061363983612ced565b925082613649576136486135f4565b5b828204905092915050565b7f6e6f7420656e6f75676820726577617264206c65667400000000000000000000600082015250565b600061368a6016836133e0565b915061369582613654565b602082019050919050565b600060208201905081810360008301526136b98161367d565b9050919050565b60006136db6136d66136d184612c73565b612bf9565b612ced565b9050919050565b6136eb816136c0565b82525050565b600060c0820190506137066000830189612cc3565b6137136020830188612f69565b61372060408301876136e2565b61372d60608301866136e2565b61373a60808301856136e2565b61374760a08301846136e2565b979650505050505050565b60006040820190506137676000830185612cc3565b6137746020830184612f69565b9392505050565b60008151905061378a81612d99565b92915050565b6000602082840312156137a6576137a5612b19565b5b60006137b48482850161377b565b91505092915050565b60006040820190506137d26000830185612df2565b6137df6020830184612cc3565b9392505050565b7f215f737461727454696d657374616d70203c205f646561646c696e6554696d6560008201527f7374616d70000000000000000000000000000000000000000000000000000000602082015250565b60006138426025836133e0565b915061384d826137e6565b604082019050919050565b6000602082019050818103600083015261387181613835565b9050919050565b7f21646f6e6174696f6e476f616c4d696e203c3d20646f6e6174696f6e476f616c60008201527f4d61780000000000000000000000000000000000000000000000000000000000602082015250565b60006138d46023836133e0565b91506138df82613878565b604082019050919050565b60006020820190508181036000830152613903816138c7565b9050919050565b7f216d696e696d756d446f6e6174696f6e557364203c3d206d6178696d756d446f60008201527f6e6174696f6e5573640000000000000000000000000000000000000000000000602082015250565b60006139666029836133e0565b91506139718261390a565b604082019050919050565b6000602082019050818103600083015261399581613959565b9050919050565b7f646f6e6174696f6e546f6b656e206973206e756c6c0000000000000000000000600082015250565b60006139d26015836133e0565b91506139dd8261399c565b602082019050919050565b60006020820190508181036000830152613a01816139c5565b9050919050565b7f21636c696666207365636f6e6473203c2076657374696e67207365636f6e6473600082015250565b6000613a3e6020836133e0565b9150613a4982613a08565b602082019050919050565b60006020820190508181036000830152613a6d81613a31565b9050919050565b7f746765556e6c6f636b526174696f2073686f756c64206265206c65737320746860008201527f616e203100000000000000000000000000000000000000000000000000000000602082015250565b6000613ad06024836133e0565b9150613adb82613a74565b604082019050919050565b60006020820190508181036000830152613aff81613ac3565b9050919050565b7f4e487b7100000000000000000000000000000000000000000000000000000000600052603260045260246000fd5b6000613b4082612ced565b91507fffffffffffffffffffffffffffffffffffffffffffffffffffffffffffffffff8203613b7257613b71613483565b5b600182019050919050565b6000613b8882612ced565b9150613b9383612ced565b925082821015613ba657613ba5613483565b5b828203905092915050565b7f4e487b7100000000000000000000000000000000000000000000000000000000600052604160045260246000fd5b7f50617274696369706174696f6e20686173206e6f742079657420656e64656400600082015250565b6000613c16601f836133e0565b9150613c2182613be0565b602082019050919050565b60006020820190508181036000830152613c4581613c09565b9050919050565b7f4d696e20676f616c207265616368656400000000000000000000000000000000600082015250565b6000613c826010836133e0565b9150613c8d82613c4c565b602082019050919050565b60006020820190508181036000830152613cb181613c75565b9050919050565b7f596f752073686f756c6420646f6e61746520616c6c20796f757220746f6b656e60008201527f7320696e20766545524332300000000000000000000000000000000000000000602082015250565b6000613d14602c836133e0565b9150613d1f82613cb8565b604082019050919050565b60006020820190508181036000830152613d4381613d07565b9050919050565b7f496e697469616c697a61626c653a20636f6e747261637420697320616c72656160008201527f647920696e697469616c697a6564000000000000000000000000000000000000602082015250565b6000613da6602e836133e0565b9150613db182613d4a565b604082019050919050565b60006020820190508181036000830152613dd581613d99565b9050919050565b6000819050919050565b600060ff82169050919050565b6000613e0e613e09613e0484613ddc565b612bf9565b613de6565b9050919050565b613e1e81613df3565b82525050565b6000602082019050613e396000830184613e15565b92915050565b6000606082019050613e546000830186612cc3565b613e616020830185612cc3565b613e6e6040830184612f69565b949350505050565b7f496e697469616c697a61626c653a20636f6e7472616374206973206e6f74206960008201527f6e697469616c697a696e67000000000000000000000000000000000000000000602082015250565b6000613ed2602b836133e0565b9150613edd82613e76565b604082019050919050565b60006020820190508181036000830152613f0181613ec5565b9050919050565b7f5361666545524332303a204552433230206f7065726174696f6e20646964206e60008201527f6f74207375636365656400000000000000000000000000000000000000000000602082015250565b6000613f64602a836133e0565b9150613f6f82613f08565b604082019050919050565b60006020820190508181036000830152613f9381613f57565b9050919050565b7f4e487b7100000000000000000000000000000000000000000000000000000000600052603160045260246000fd5b7f416464726573733a20696e73756666696369656e742062616c616e636520666f60008201527f722063616c6c0000000000000000000000000000000000000000000000000000602082015250565b60006140256026836133e0565b915061403082613fc9565b604082019050919050565b6000602082019050818103600083015261405481614018565b9050919050565b7f416464726573733a2063616c6c20746f206e6f6e2d636f6e7472616374000000600082015250565b6000614091601d836133e0565b915061409c8261405b565b602082019050919050565b600060208201905081810360008301526140c081614084565b9050919050565b600081519050919050565b600081905092915050565b60005b838110156140fb5780820151818401526020810190506140e0565b8381111561410a576000848401525b50505050565b600061411b826140c7565b61412581856140d2565b93506141358185602086016140dd565b80840191505092915050565b600061414d8284614110565b915081905092915050565b600081519050919050565b6000601f19601f8301169050919050565b600061417f82614158565b61418981856133e0565b93506141998185602086016140dd565b6141a281614163565b840191505092915050565b600060208201905081810360008301526141c78184614174565b90509291505056fea2646970667358221220cdc6dc03e0ee67faa61f66e2cfd13854ad64d44047d2f413f90706dd771a111c64736f6c634300080f0033",
  "devdoc": {
    "kind": "dev",
    "methods": {
      "adminWithdraw(address)": {
        "details": "The owner can't take away SuDAO token already distributed to users, because they are stored on timelockVault"
      }
    },
    "stateVariables": {
      "__gap": {
        "details": "This empty reserved space is put in place to allow future versions to add new variables without shifting down storage in the inheritance chain. See https://docs.openzeppelin.com/contracts/4.x/upgradeable#storage_gaps"
      }
    },
    "title": "The contract that distribute suDAO tokens for community based on NFT membership",
    "version": 1
  },
  "userdoc": {
    "kind": "user",
    "methods": {
      "adminWithdraw(address)": {
        "notice": "The owner of the contact can take away tokens sent to the contract."
      },
      "getMaximumDonationAmount(address,address)": {
        "notice": "Get the max donation that user can do"
      },
      "participate(uint256,address)": {
        "notice": "notice Allows to participate for users with required NFT param donationAmount The amount of tokens specified in donationToken"
      },
      "setDistributionInfo(uint64,uint64,uint256,uint256,uint256,uint256,address,uint64,uint64,uint64,uint64)": {
        "notice": "The owner can set new or edit existing token distribution with no restrictions"
      }
    },
    "version": 1
  },
  "storageLayout": {
    "storage": [
      {
        "astId": 497,
        "contract": "contracts/distributions/TokenDistributorV4.sol:TokenDistributorV4",
        "label": "_initialized",
        "offset": 0,
        "slot": "0",
        "type": "t_uint8"
      },
      {
        "astId": 500,
        "contract": "contracts/distributions/TokenDistributorV4.sol:TokenDistributorV4",
        "label": "_initializing",
        "offset": 1,
        "slot": "0",
        "type": "t_bool"
      },
      {
        "astId": 2868,
        "contract": "contracts/distributions/TokenDistributorV4.sol:TokenDistributorV4",
        "label": "__gap",
        "offset": 0,
        "slot": "1",
        "type": "t_array(t_uint256)50_storage"
      },
      {
        "astId": 10494,
        "contract": "contracts/distributions/TokenDistributorV4.sol:TokenDistributorV4",
        "label": "ACCESS_CONTROL_SINGLETON",
        "offset": 0,
        "slot": "51",
        "type": "t_contract(ISuAccessControl)11648"
      },
      {
        "astId": 10581,
        "contract": "contracts/distributions/TokenDistributorV4.sol:TokenDistributorV4",
        "label": "__gap",
        "offset": 0,
        "slot": "52",
        "type": "t_array(t_uint256)49_storage"
      },
      {
        "astId": 10637,
        "contract": "contracts/distributions/TokenDistributorV4.sol:TokenDistributorV4",
        "label": "VE_ERC_20",
        "offset": 0,
        "slot": "101",
        "type": "t_address"
      },
      {
        "astId": 10639,
        "contract": "contracts/distributions/TokenDistributorV4.sol:TokenDistributorV4",
        "label": "SU_DAO",
        "offset": 0,
        "slot": "102",
        "type": "t_address"
      },
      {
        "astId": 10641,
        "contract": "contracts/distributions/TokenDistributorV4.sol:TokenDistributorV4",
        "label": "BONUS_CONTRACT",
        "offset": 0,
        "slot": "103",
        "type": "t_address"
      },
      {
        "astId": 10643,
        "contract": "contracts/distributions/TokenDistributorV4.sol:TokenDistributorV4",
        "label": "startTimestamp",
        "offset": 20,
        "slot": "103",
        "type": "t_uint64"
      },
      {
        "astId": 10645,
        "contract": "contracts/distributions/TokenDistributorV4.sol:TokenDistributorV4",
        "label": "deadlineTimestamp",
        "offset": 0,
        "slot": "104",
        "type": "t_uint64"
      },
      {
        "astId": 10647,
        "contract": "contracts/distributions/TokenDistributorV4.sol:TokenDistributorV4",
        "label": "minimumDonation",
        "offset": 0,
        "slot": "105",
        "type": "t_uint256"
      },
      {
        "astId": 10649,
        "contract": "contracts/distributions/TokenDistributorV4.sol:TokenDistributorV4",
        "label": "maximumDonation",
        "offset": 0,
        "slot": "106",
        "type": "t_uint256"
      },
      {
        "astId": 10652,
        "contract": "contracts/distributions/TokenDistributorV4.sol:TokenDistributorV4",
        "label": "bondingCurvePolynomial1e18",
        "offset": 0,
        "slot": "107",
        "type": "t_array(t_uint256)dyn_storage"
      },
      {
        "astId": 10654,
        "contract": "contracts/distributions/TokenDistributorV4.sol:TokenDistributorV4",
        "label": "donationGoalMin",
        "offset": 0,
        "slot": "108",
        "type": "t_uint256"
      },
      {
        "astId": 10656,
        "contract": "contracts/distributions/TokenDistributorV4.sol:TokenDistributorV4",
        "label": "donationGoalMax",
        "offset": 0,
        "slot": "109",
        "type": "t_uint256"
      },
      {
        "astId": 10660,
        "contract": "contracts/distributions/TokenDistributorV4.sol:TokenDistributorV4",
        "label": "donations",
        "offset": 0,
        "slot": "110",
        "type": "t_mapping(t_address,t_uint256)"
      },
      {
        "astId": 10662,
        "contract": "contracts/distributions/TokenDistributorV4.sol:TokenDistributorV4",
        "label": "totalDonations",
        "offset": 0,
        "slot": "111",
        "type": "t_uint256"
      },
      {
        "astId": 10664,
        "contract": "contracts/distributions/TokenDistributorV4.sol:TokenDistributorV4",
        "label": "donationToken",
        "offset": 0,
        "slot": "112",
        "type": "t_address"
      },
      {
        "astId": 10666,
        "contract": "contracts/distributions/TokenDistributorV4.sol:TokenDistributorV4",
        "label": "fullVestingSeconds",
        "offset": 20,
        "slot": "112",
        "type": "t_uint64"
      },
      {
        "astId": 10668,
        "contract": "contracts/distributions/TokenDistributorV4.sol:TokenDistributorV4",
        "label": "cliffSeconds",
        "offset": 0,
        "slot": "113",
        "type": "t_uint64"
      },
      {
        "astId": 10670,
        "contract": "contracts/distributions/TokenDistributorV4.sol:TokenDistributorV4",
        "label": "tgeUnlockRatio1e18",
        "offset": 8,
        "slot": "113",
        "type": "t_uint64"
      },
      {
        "astId": 10672,
        "contract": "contracts/distributions/TokenDistributorV4.sol:TokenDistributorV4",
        "label": "vestingFrequencySeconds",
        "offset": 16,
        "slot": "113",
        "type": "t_uint64"
      },
      {
        "astId": 10679,
        "contract": "contracts/distributions/TokenDistributorV4.sol:TokenDistributorV4",
        "label": "nftRequirement",
        "offset": 0,
        "slot": "114",
        "type": "t_struct(AddressSet)9249_storage"
      },
      {
        "astId": 11526,
        "contract": "contracts/distributions/TokenDistributorV4.sol:TokenDistributorV4",
        "label": "__gap",
        "offset": 0,
        "slot": "116",
        "type": "t_array(t_uint256)49_storage"
      }
    ],
    "types": {
      "t_address": {
        "encoding": "inplace",
        "label": "address",
        "numberOfBytes": "20"
      },
      "t_array(t_bytes32)dyn_storage": {
        "base": "t_bytes32",
        "encoding": "dynamic_array",
        "label": "bytes32[]",
        "numberOfBytes": "32"
      },
      "t_array(t_uint256)49_storage": {
        "base": "t_uint256",
        "encoding": "inplace",
        "label": "uint256[49]",
        "numberOfBytes": "1568"
      },
      "t_array(t_uint256)50_storage": {
        "base": "t_uint256",
        "encoding": "inplace",
        "label": "uint256[50]",
        "numberOfBytes": "1600"
      },
      "t_array(t_uint256)dyn_storage": {
        "base": "t_uint256",
        "encoding": "dynamic_array",
        "label": "uint256[]",
        "numberOfBytes": "32"
      },
      "t_bool": {
        "encoding": "inplace",
        "label": "bool",
        "numberOfBytes": "1"
      },
      "t_bytes32": {
        "encoding": "inplace",
        "label": "bytes32",
        "numberOfBytes": "32"
      },
      "t_contract(ISuAccessControl)11648": {
        "encoding": "inplace",
        "label": "contract ISuAccessControl",
        "numberOfBytes": "20"
      },
      "t_mapping(t_address,t_uint256)": {
        "encoding": "mapping",
        "key": "t_address",
        "label": "mapping(address => uint256)",
        "numberOfBytes": "32",
        "value": "t_uint256"
      },
      "t_mapping(t_bytes32,t_uint256)": {
        "encoding": "mapping",
        "key": "t_bytes32",
        "label": "mapping(bytes32 => uint256)",
        "numberOfBytes": "32",
        "value": "t_uint256"
      },
      "t_struct(AddressSet)9249_storage": {
        "encoding": "inplace",
        "label": "struct EnumerableSet.AddressSet",
        "members": [
          {
            "astId": 9248,
            "contract": "contracts/distributions/TokenDistributorV4.sol:TokenDistributorV4",
            "label": "_inner",
            "offset": 0,
            "slot": "0",
            "type": "t_struct(Set)8948_storage"
          }
        ],
        "numberOfBytes": "64"
      },
      "t_struct(Set)8948_storage": {
        "encoding": "inplace",
        "label": "struct EnumerableSet.Set",
        "members": [
          {
            "astId": 8943,
            "contract": "contracts/distributions/TokenDistributorV4.sol:TokenDistributorV4",
            "label": "_values",
            "offset": 0,
            "slot": "0",
            "type": "t_array(t_bytes32)dyn_storage"
          },
          {
            "astId": 8947,
            "contract": "contracts/distributions/TokenDistributorV4.sol:TokenDistributorV4",
            "label": "_indexes",
            "offset": 0,
            "slot": "1",
            "type": "t_mapping(t_bytes32,t_uint256)"
          }
        ],
        "numberOfBytes": "64"
      },
      "t_uint256": {
        "encoding": "inplace",
        "label": "uint256",
        "numberOfBytes": "32"
      },
      "t_uint64": {
        "encoding": "inplace",
        "label": "uint64",
        "numberOfBytes": "8"
      },
      "t_uint8": {
        "encoding": "inplace",
        "label": "uint8",
        "numberOfBytes": "1"
      }
    }
  }
}