{
  "address": "0xb96e4de6704eAee5245391E66f7392496eDcb8Ae",
  "abi": [
    {
      "inputs": [
        {
          "internalType": "address",
          "name": "accessNft",
          "type": "address"
        }
      ],
      "name": "AccessNftNotValidError",
      "type": "error"
    },
    {
      "inputs": [],
      "name": "DistributionTimeframeError",
      "type": "error"
    },
    {
      "inputs": [
        {
          "internalType": "address",
          "name": "account",
          "type": "address"
        },
        {
          "internalType": "address",
          "name": "accessNft",
          "type": "address"
        }
      ],
      "name": "NoAccessNftError",
      "type": "error"
    },
    {
      "inputs": [],
      "name": "NoActiveDistributionError",
      "type": "error"
    },
    {
      "inputs": [
        {
          "internalType": "bytes32",
          "name": "role",
          "type": "bytes32"
        },
        {
          "internalType": "address",
          "name": "msgSender",
          "type": "address"
        }
      ],
      "name": "OnlyRoleError",
      "type": "error"
    },
    {
      "anonymous": false,
      "inputs": [
        {
          "indexed": false,
          "internalType": "uint8",
          "name": "version",
          "type": "uint8"
        }
      ],
      "name": "Initialized",
      "type": "event"
    },
    {
      "anonymous": false,
      "inputs": [
        {
          "indexed": false,
          "internalType": "address",
          "name": "msg_sender",
          "type": "address"
        },
        {
          "indexed": false,
          "internalType": "uint256",
          "name": "donationAmount",
          "type": "uint256"
        }
      ],
      "name": "Participated",
      "type": "event"
    },
    {
      "anonymous": false,
      "inputs": [
        {
          "indexed": true,
          "internalType": "bytes32",
          "name": "role",
          "type": "bytes32"
        },
        {
          "indexed": true,
          "internalType": "bytes32",
          "name": "previousAdminRole",
          "type": "bytes32"
        },
        {
          "indexed": true,
          "internalType": "bytes32",
          "name": "newAdminRole",
          "type": "bytes32"
        }
      ],
      "name": "RoleAdminChanged",
      "type": "event"
    },
    {
      "anonymous": false,
      "inputs": [
        {
          "indexed": true,
          "internalType": "bytes32",
          "name": "role",
          "type": "bytes32"
        },
        {
          "indexed": true,
          "internalType": "address",
          "name": "account",
          "type": "address"
        },
        {
          "indexed": true,
          "internalType": "address",
          "name": "sender",
          "type": "address"
        }
      ],
      "name": "RoleGranted",
      "type": "event"
    },
    {
      "anonymous": false,
      "inputs": [
        {
          "indexed": true,
          "internalType": "bytes32",
          "name": "role",
          "type": "bytes32"
        },
        {
          "indexed": true,
          "internalType": "address",
          "name": "account",
          "type": "address"
        },
        {
          "indexed": true,
          "internalType": "address",
          "name": "sender",
          "type": "address"
        }
      ],
      "name": "RoleRevoked",
      "type": "event"
    },
    {
      "anonymous": false,
      "inputs": [
        {
          "indexed": false,
          "internalType": "uint64",
          "name": "_startTimestamp",
          "type": "uint64"
        },
        {
          "indexed": false,
          "internalType": "uint64",
          "name": "_deadlineTimestamp",
          "type": "uint64"
        },
        {
          "indexed": false,
          "internalType": "uint256",
          "name": "_donationGoalMin",
          "type": "uint256"
        },
        {
          "indexed": false,
          "internalType": "uint256",
          "name": "_donationGoalMax",
          "type": "uint256"
        },
        {
          "indexed": false,
          "internalType": "uint256",
          "name": "_minimumDonationUsd",
          "type": "uint256"
        },
        {
          "indexed": false,
          "internalType": "uint256",
          "name": "_maximumDonationUsd",
          "type": "uint256"
        },
        {
          "indexed": false,
          "internalType": "address",
          "name": "_donationToken",
          "type": "address"
        },
        {
          "indexed": false,
          "internalType": "uint64",
          "name": "_fullVestingSeconds",
          "type": "uint64"
        },
        {
          "indexed": false,
          "internalType": "uint64",
          "name": "_cliffSeconds",
          "type": "uint64"
        },
        {
          "indexed": false,
          "internalType": "uint64",
          "name": "_tgeUnlockRatio1e18",
          "type": "uint64"
        },
        {
          "indexed": false,
          "internalType": "uint64",
          "name": "_vestingFrequencySeconds",
          "type": "uint64"
        }
      ],
      "name": "SetDistribution",
      "type": "event"
    },
    {
      "inputs": [],
      "name": "ACCESS_CONTROL_SINGLETON",
      "outputs": [
        {
          "internalType": "contract IAccessControlUpgradeable",
          "name": "",
          "type": "address"
        }
      ],
      "stateMutability": "view",
      "type": "function"
    },
    {
      "inputs": [],
      "name": "ADMIN_ROLE",
      "outputs": [
        {
          "internalType": "bytes32",
          "name": "",
          "type": "bytes32"
        }
      ],
      "stateMutability": "view",
      "type": "function"
    },
    {
      "inputs": [],
      "name": "BONUS_CONTRACT",
      "outputs": [
        {
          "internalType": "address",
          "name": "",
          "type": "address"
        }
      ],
      "stateMutability": "view",
      "type": "function"
    },
    {
      "inputs": [],
      "name": "COMMUNITY_ADMIN_ROLE",
      "outputs": [
        {
          "internalType": "bytes32",
          "name": "",
          "type": "bytes32"
        }
      ],
      "stateMutability": "view",
      "type": "function"
    },
    {
      "inputs": [],
      "name": "DAO_ROLE",
      "outputs": [
        {
          "internalType": "bytes32",
          "name": "",
          "type": "bytes32"
        }
      ],
      "stateMutability": "view",
      "type": "function"
    },
    {
      "inputs": [],
      "name": "DEFAULT_ADMIN_ROLE",
      "outputs": [
        {
          "internalType": "bytes32",
          "name": "",
          "type": "bytes32"
        }
      ],
      "stateMutability": "view",
      "type": "function"
    },
    {
      "inputs": [],
      "name": "SU_DAO",
      "outputs": [
        {
          "internalType": "address",
          "name": "",
          "type": "address"
        }
      ],
      "stateMutability": "view",
      "type": "function"
    },
    {
      "inputs": [],
      "name": "VE_ERC_20",
      "outputs": [
        {
          "internalType": "address",
          "name": "",
          "type": "address"
        }
      ],
      "stateMutability": "view",
      "type": "function"
    },
    {
      "inputs": [
        {
          "internalType": "contract IERC20Upgradeable",
          "name": "token",
          "type": "address"
        }
      ],
      "name": "adminWithdraw",
      "outputs": [],
      "stateMutability": "nonpayable",
      "type": "function"
    },
    {
      "inputs": [
        {
          "internalType": "uint256",
          "name": "x",
          "type": "uint256"
        }
      ],
      "name": "antiderivativeOfBondingCurvePolynomial1e18At",
      "outputs": [
        {
          "internalType": "uint256",
          "name": "",
          "type": "uint256"
        }
      ],
      "stateMutability": "view",
      "type": "function"
    },
    {
      "inputs": [
        {
          "internalType": "uint256",
          "name": "",
          "type": "uint256"
        }
      ],
      "name": "bondingCurvePolynomial1e18",
      "outputs": [
        {
          "internalType": "uint256",
          "name": "",
          "type": "uint256"
        }
      ],
      "stateMutability": "view",
      "type": "function"
    },
    {
      "inputs": [
        {
          "internalType": "uint256",
          "name": "x",
          "type": "uint256"
        }
      ],
      "name": "bondingCurvePolynomial1e18At",
      "outputs": [
        {
          "internalType": "uint256",
          "name": "",
          "type": "uint256"
        }
      ],
      "stateMutability": "view",
      "type": "function"
    },
    {
      "inputs": [],
      "name": "cliffSeconds",
      "outputs": [
        {
          "internalType": "uint64",
          "name": "",
          "type": "uint64"
        }
      ],
      "stateMutability": "view",
      "type": "function"
    },
    {
      "inputs": [],
      "name": "deadlineTimestamp",
      "outputs": [
        {
          "internalType": "uint64",
          "name": "",
          "type": "uint64"
        }
      ],
      "stateMutability": "view",
      "type": "function"
    },
    {
      "inputs": [],
      "name": "donationGoalMax",
      "outputs": [
        {
          "internalType": "uint256",
          "name": "",
          "type": "uint256"
        }
      ],
      "stateMutability": "view",
      "type": "function"
    },
    {
      "inputs": [],
      "name": "donationGoalMin",
      "outputs": [
        {
          "internalType": "uint256",
          "name": "",
          "type": "uint256"
        }
      ],
      "stateMutability": "view",
      "type": "function"
    },
    {
      "inputs": [],
      "name": "donationToken",
      "outputs": [
        {
          "internalType": "address",
          "name": "",
          "type": "address"
        }
      ],
      "stateMutability": "view",
      "type": "function"
    },
    {
      "inputs": [
        {
          "internalType": "address",
          "name": "",
          "type": "address"
        }
      ],
      "name": "donations",
      "outputs": [
        {
          "internalType": "uint256",
          "name": "",
          "type": "uint256"
        }
      ],
      "stateMutability": "view",
      "type": "function"
    },
    {
      "inputs": [],
      "name": "fullVestingSeconds",
      "outputs": [
        {
          "internalType": "uint64",
          "name": "",
          "type": "uint64"
        }
      ],
      "stateMutability": "view",
      "type": "function"
    },
    {
      "inputs": [
        {
          "internalType": "address",
          "name": "account",
          "type": "address"
        }
      ],
      "name": "getAccessNftsForUser",
      "outputs": [
        {
          "internalType": "address[]",
          "name": "",
          "type": "address[]"
        }
      ],
      "stateMutability": "nonpayable",
      "type": "function"
    },
    {
      "inputs": [
        {
          "internalType": "uint256",
          "name": "donationAmount",
          "type": "uint256"
        }
      ],
      "name": "getBondingCurveRewardAmountFromDonation",
      "outputs": [
        {
          "internalType": "uint256",
          "name": "",
          "type": "uint256"
        }
      ],
      "stateMutability": "view",
      "type": "function"
    },
    {
      "inputs": [],
      "name": "getDistributorStaticData",
      "outputs": [
        {
          "internalType": "uint64",
          "name": "startTimestamp",
          "type": "uint64"
        },
        {
          "internalType": "uint64",
          "name": "deadlineTimestamp",
          "type": "uint64"
        },
        {
          "internalType": "uint256",
          "name": "minimumDonationUsd",
          "type": "uint256"
        },
        {
          "internalType": "uint256",
          "name": "maximumDonationUsd",
          "type": "uint256"
        },
        {
          "internalType": "uint256",
          "name": "donationGoalMin",
          "type": "uint256"
        },
        {
          "internalType": "uint256",
          "name": "donationGoalMax",
          "type": "uint256"
        },
        {
          "internalType": "address",
          "name": "donationToken",
          "type": "address"
        },
        {
          "internalType": "uint64",
          "name": "fullVestingSeconds",
          "type": "uint64"
        },
        {
          "internalType": "uint64",
          "name": "cliffSeconds",
          "type": "uint64"
        },
        {
          "internalType": "uint64",
          "name": "tgeUnlockRatio1e18",
          "type": "uint64"
        },
        {
          "internalType": "uint64",
          "name": "vestingFrequencySeconds",
          "type": "uint64"
        }
      ],
      "stateMutability": "nonpayable",
      "type": "function"
    },
    {
      "inputs": [
        {
          "internalType": "address",
          "name": "user",
          "type": "address"
        },
        {
          "internalType": "address",
          "name": "accessNft",
          "type": "address"
        }
      ],
      "name": "getMaximumDonationAmount",
      "outputs": [
        {
          "internalType": "uint256",
          "name": "",
          "type": "uint256"
        }
      ],
      "stateMutability": "view",
      "type": "function"
    },
    {
      "inputs": [
        {
          "internalType": "bytes32",
          "name": "role",
          "type": "bytes32"
        }
      ],
      "name": "getRoleAdmin",
      "outputs": [
        {
          "internalType": "bytes32",
          "name": "",
          "type": "bytes32"
        }
      ],
      "stateMutability": "view",
      "type": "function"
    },
    {
      "inputs": [
        {
          "internalType": "bytes32",
          "name": "role",
          "type": "bytes32"
        },
        {
          "internalType": "address",
          "name": "account",
          "type": "address"
        }
      ],
      "name": "grantRole",
      "outputs": [],
      "stateMutability": "nonpayable",
      "type": "function"
    },
    {
      "inputs": [
        {
          "internalType": "bytes32",
          "name": "role",
          "type": "bytes32"
        },
        {
          "internalType": "address",
          "name": "account",
          "type": "address"
        }
      ],
      "name": "hasRole",
      "outputs": [
        {
          "internalType": "bool",
          "name": "",
          "type": "bool"
        }
      ],
      "stateMutability": "view",
      "type": "function"
    },
    {
      "inputs": [
        {
          "internalType": "address",
          "name": "_accessControlSingleton",
          "type": "address"
        },
        {
          "internalType": "address",
          "name": "_suDAO",
          "type": "address"
        },
        {
          "internalType": "address",
          "name": "_veErc20",
          "type": "address"
        },
        {
          "internalType": "address",
          "name": "_bonusContract",
          "type": "address"
        }
      ],
      "name": "initialize",
      "outputs": [],
      "stateMutability": "nonpayable",
      "type": "function"
    },
    {
      "inputs": [],
      "name": "maximumDonationUsd",
      "outputs": [
        {
          "internalType": "uint256",
          "name": "",
          "type": "uint256"
        }
      ],
      "stateMutability": "view",
      "type": "function"
    },
    {
      "inputs": [],
      "name": "minimumDonationUsd",
      "outputs": [
        {
          "internalType": "uint256",
          "name": "",
          "type": "uint256"
        }
      ],
      "stateMutability": "view",
      "type": "function"
    },
    {
      "inputs": [
        {
          "internalType": "uint256",
          "name": "donationAmount",
          "type": "uint256"
        },
        {
          "internalType": "address",
          "name": "accessNft",
          "type": "address"
        }
      ],
      "name": "participate",
      "outputs": [],
      "stateMutability": "payable",
      "type": "function"
    },
    {
      "inputs": [
        {
          "internalType": "bytes32",
          "name": "role",
          "type": "bytes32"
        },
        {
          "internalType": "address",
          "name": "account",
          "type": "address"
        }
      ],
      "name": "renounceRole",
      "outputs": [],
      "stateMutability": "nonpayable",
      "type": "function"
    },
    {
      "inputs": [
        {
          "internalType": "bytes32",
          "name": "role",
          "type": "bytes32"
        },
        {
          "internalType": "address",
          "name": "account",
          "type": "address"
        }
      ],
      "name": "revokeRole",
      "outputs": [],
      "stateMutability": "nonpayable",
      "type": "function"
    },
    {
      "inputs": [
        {
          "internalType": "uint64",
          "name": "_startTimestamp",
          "type": "uint64"
        },
        {
          "internalType": "uint64",
          "name": "_deadlineTimestamp",
          "type": "uint64"
        },
        {
          "internalType": "uint256",
          "name": "_donationGoalMin",
          "type": "uint256"
        },
        {
          "internalType": "uint256",
          "name": "_donationGoalMax",
          "type": "uint256"
        },
        {
          "internalType": "uint256",
          "name": "_minimumDonationUsd",
          "type": "uint256"
        },
        {
          "internalType": "uint256",
          "name": "_maximumDonationUsd",
          "type": "uint256"
        },
        {
          "internalType": "address",
          "name": "_donationToken",
          "type": "address"
        },
        {
          "internalType": "uint64",
          "name": "_fullVestingSeconds",
          "type": "uint64"
        },
        {
          "internalType": "uint64",
          "name": "_cliffSeconds",
          "type": "uint64"
        },
        {
          "internalType": "uint64",
          "name": "_tgeUnlockRatio1e18",
          "type": "uint64"
        },
        {
          "internalType": "uint64",
          "name": "_vestingFrequencySeconds",
          "type": "uint64"
        }
      ],
      "name": "setDistributionInfo",
      "outputs": [],
      "stateMutability": "nonpayable",
      "type": "function"
    },
    {
      "inputs": [
        {
          "internalType": "address",
          "name": "accessNft",
          "type": "address"
        },
        {
          "internalType": "bool",
          "name": "valid",
          "type": "bool"
        }
      ],
      "name": "setNftAccess",
      "outputs": [],
      "stateMutability": "nonpayable",
      "type": "function"
    },
    {
      "inputs": [],
      "name": "startTimestamp",
      "outputs": [
        {
          "internalType": "uint64",
          "name": "",
          "type": "uint64"
        }
      ],
      "stateMutability": "view",
      "type": "function"
    },
    {
      "inputs": [
        {
          "internalType": "bytes4",
          "name": "interfaceId",
          "type": "bytes4"
        }
      ],
      "name": "supportsInterface",
      "outputs": [
        {
          "internalType": "bool",
          "name": "",
          "type": "bool"
        }
      ],
      "stateMutability": "view",
      "type": "function"
    },
    {
      "inputs": [],
      "name": "takeDonationBack",
      "outputs": [],
      "stateMutability": "nonpayable",
      "type": "function"
    },
    {
      "inputs": [],
      "name": "tgeUnlockRatio1e18",
      "outputs": [
        {
          "internalType": "uint64",
          "name": "",
          "type": "uint64"
        }
      ],
      "stateMutability": "view",
      "type": "function"
    },
    {
      "inputs": [],
      "name": "totalDonations",
      "outputs": [
        {
          "internalType": "uint256",
          "name": "",
          "type": "uint256"
        }
      ],
      "stateMutability": "view",
      "type": "function"
    },
    {
      "inputs": [
        {
          "internalType": "address",
          "name": "newOwner",
          "type": "address"
        }
      ],
      "name": "transferOwnership",
      "outputs": [],
      "stateMutability": "nonpayable",
      "type": "function"
    },
    {
      "inputs": [],
      "name": "vestingFrequencySeconds",
      "outputs": [
        {
          "internalType": "uint64",
          "name": "",
          "type": "uint64"
        }
      ],
      "stateMutability": "view",
      "type": "function"
    },
    {
      "stateMutability": "payable",
      "type": "receive"
    }
  ],
  "numDeployments": 1,
  "solcInputHash": "7233df0fc36ff8136da4a4a9ef79c3a2",
  "bytecode": "0x608060405234801561001057600080fd5b506147b3806100206000396000f3fe60806040526004361061024a5760003560e01c806395367f8911610139578063dc4eff7e116100b6578063f2fde38b1161007a578063f2fde38b146108a2578063f365642a146108cb578063f4984460146108f6578063f6d8414f14610933578063f8c8765e1461095e578063fee1d57c1461098757610251565b8063dc4eff7e146107df578063de2ed8931461080a578063e6fd48bc14610835578063e9c2651814610860578063efb8f4fd1461088b57610251565b8063a28835b6116100fd578063a28835b6146106fa578063b5b8a68a14610723578063c057be331461074e578063cc6cb19a14610779578063d547741f146107b657610251565b806395367f89146106015780639954a9bc1461062c5780639d0c6846146106555780639dbf793514610692578063a217fddf146106cf57610251565b80633ecf8ffd116101c75780636c5a54281161018b5780636c5a54281461050657806375b238fc146105435780637b9fa8bd1461056e5780638341ee721461059957806391d14854146105c457610251565b80633ecf8ffd14610413578063445c4c8d1461043e57806347b8ce3f146104695780635deb395b146104a65780635e10448b146104db57610251565b8063248a9ca31161020e578063248a9ca3146103305780632f2ff15d1461036d578063303c1c8d1461039657806335864cdc146103bf57806336568abe146103ea57610251565b806301ffc9a71461025657806303ee9f22146102935780630afcdef5146102be5780630df72159146102e957806313b186401461031457610251565b3661025157005b600080fd5b34801561026257600080fd5b5061027d60048036038101906102789190613050565b6109c4565b60405161028a9190613098565b60405180910390f35b34801561029f57600080fd5b506102a8610a2e565b6040516102b59190613132565b60405180910390f35b3480156102ca57600080fd5b506102d3610a54565b6040516102e09190613170565b60405180910390f35b3480156102f557600080fd5b506102fe610a6e565b60405161030b91906131ac565b60405180910390f35b61032e60048036038101906103299190613229565b610a94565b005b34801561033c57600080fd5b506103576004803603810190610352919061329f565b6111cb565b60405161036491906132db565b60405180910390f35b34801561037957600080fd5b50610394600480360381019061038f91906132f6565b61126f565b005b3480156103a257600080fd5b506103bd60048036038101906103b89190613362565b611359565b005b3480156103cb57600080fd5b506103d4611769565b6040516103e19190613170565b60405180910390f35b3480156103f657600080fd5b50610411600480360381019061040c91906132f6565b611783565b005b34801561041f57600080fd5b50610428611816565b6040516104359190613465565b60405180910390f35b34801561044a57600080fd5b5061045361181c565b60405161046091906131ac565b60405180910390f35b34801561047557600080fd5b50610490600480360381019061048b9190613480565b611842565b60405161049d9190613465565b60405180910390f35b3480156104b257600080fd5b506104bb6118d6565b6040516104d29b9a999897969594939291906134ad565b60405180910390f35b3480156104e757600080fd5b506104f06118f4565b6040516104fd9190613170565b60405180910390f35b34801561051257600080fd5b5061052d60048036038101906105289190613480565b61190e565b60405161053a9190613465565b60405180910390f35b34801561054f57600080fd5b50610558611932565b60405161056591906132db565b60405180910390f35b34801561057a57600080fd5b50610583611956565b6040516105909190613465565b60405180910390f35b3480156105a557600080fd5b506105ae61195c565b6040516105bb9190613170565b60405180910390f35b3480156105d057600080fd5b506105eb60048036038101906105e691906132f6565b611976565b6040516105f89190613098565b60405180910390f35b34801561060d57600080fd5b50610616611a1d565b60405161062391906132db565b60405180910390f35b34801561063857600080fd5b50610653600480360381019061064e9190613584565b611a41565b005b34801561066157600080fd5b5061067c600480360381019061067791906135c4565b611aea565b6040516106899190613465565b60405180910390f35b34801561069e57600080fd5b506106b960048036038101906106b49190613604565b611be4565b6040516106c691906136ef565b60405180910390f35b3480156106db57600080fd5b506106e4611d76565b6040516106f191906132db565b60405180910390f35b34801561070657600080fd5b50610721600480360381019061071c919061374f565b611d7d565b005b34801561072f57600080fd5b50610738611ef7565b60405161074591906131ac565b60405180910390f35b34801561075a57600080fd5b50610763611f1d565b6040516107709190613465565b60405180910390f35b34801561078557600080fd5b506107a0600480360381019061079b9190613604565b611f23565b6040516107ad9190613465565b60405180910390f35b3480156107c257600080fd5b506107dd60048036038101906107d891906132f6565b611f3b565b005b3480156107eb57600080fd5b506107f4612025565b60405161080191906131ac565b60405180910390f35b34801561081657600080fd5b5061081f61204b565b60405161082c9190613465565b60405180910390f35b34801561084157600080fd5b5061084a612051565b6040516108579190613170565b60405180910390f35b34801561086c57600080fd5b5061087561206b565b60405161088291906132db565b60405180910390f35b34801561089757600080fd5b506108a0612072565b005b3480156108ae57600080fd5b506108c960048036038101906108c49190613604565b6122e8565b005b3480156108d757600080fd5b506108e06124c8565b6040516108ed9190613465565b60405180910390f35b34801561090257600080fd5b5061091d60048036038101906109189190613480565b6124ce565b60405161092a9190613465565b60405180910390f35b34801561093f57600080fd5b50610948612565565b6040516109559190613170565b60405180910390f35b34801561096a57600080fd5b506109856004803603810190610980919061377c565b61257f565b005b34801561099357600080fd5b506109ae60048036038101906109a99190613480565b612824565b6040516109bb9190613465565b60405180910390f35b60007f7965db0b000000000000000000000000000000000000000000000000000000007bffffffffffffffffffffffffffffffffffffffffffffffffffffffff1916827bffffffffffffffffffffffffffffffffffffffffffffffffffffffff1916149050919050565b600060029054906101000a900473ffffffffffffffffffffffffffffffffffffffff1681565b603e60109054906101000a900467ffffffffffffffff1681565b603d60009054906101000a900473ffffffffffffffffffffffffffffffffffffffff1681565b6000603a5403610ad0576040517f76d9f52e00000000000000000000000000000000000000000000000000000000815260040160405180910390fd5b603460149054906101000a900467ffffffffffffffff1667ffffffffffffffff16421080610b1d575042603560009054906101000a900467ffffffffffffffff1667ffffffffffffffff16105b15610b54576040517fd3af728300000000000000000000000000000000000000000000000000000000815260040160405180910390fd5b610b6881603f61290790919063ffffffff16565b610ba957806040517f7f2e188c000000000000000000000000000000000000000000000000000000008152600401610ba091906131ac565b60405180910390fd5b60008173ffffffffffffffffffffffffffffffffffffffff166370a08231336040518263ffffffff1660e01b8152600401610be491906131ac565b602060405180830381865afa158015610c01573d6000803e3d6000fd5b505050506040513d601f19601f82011682018060405250810190610c2591906137f8565b03610c695733816040517f8afa396a000000000000000000000000000000000000000000000000000000008152600401610c60929190613825565b60405180910390fd5b6036548211610cad576040517f08c379a0000000000000000000000000000000000000000000000000000000008152600401610ca4906138d1565b60405180910390fd5b6000603460009054906101000a900473ffffffffffffffffffffffffffffffffffffffff1673ffffffffffffffffffffffffffffffffffffffff16630e022923336040518263ffffffff1660e01b8152600401610d0a91906131ac565b602060405180830381865afa158015610d27573d6000803e3d6000fd5b505050506040513d601f19601f82011682018060405250810190610d4b91906137f8565b90506000808214610d5c5781610d60565b6037545b90508084603b60003373ffffffffffffffffffffffffffffffffffffffff1673ffffffffffffffffffffffffffffffffffffffff16815260200190815260200160002054610dae9190613920565b10610dee576040517f08c379a0000000000000000000000000000000000000000000000000000000008152600401610de5906139e8565b60405180910390fd5b6000603460009054906101000a900473ffffffffffffffffffffffffffffffffffffffff1673ffffffffffffffffffffffffffffffffffffffff166306f2791a336040518263ffffffff1660e01b8152600401610e4b91906131ac565b602060405180830381865afa158015610e68573d6000803e3d6000fd5b505050506040513d601f19601f82011682018060405250810190610e8c91906137f8565b90506000670de0b6b3a764000082670de0b6b3a7640000610ead9190613920565b610eb688612824565b610ec09190613a08565b610eca9190613a91565b9050610f1b333088603d60009054906101000a900473ffffffffffffffffffffffffffffffffffffffff1673ffffffffffffffffffffffffffffffffffffffff16612937909392919063ffffffff16565b85603c54610f299190613920565b603c8190555085603b60003373ffffffffffffffffffffffffffffffffffffffff1673ffffffffffffffffffffffffffffffffffffffff16815260200190815260200160002054610f7a9190613920565b603b60003373ffffffffffffffffffffffffffffffffffffffff1673ffffffffffffffffffffffffffffffffffffffff1681526020019081526020016000208190555080603360009054906101000a900473ffffffffffffffffffffffffffffffffffffffff1673ffffffffffffffffffffffffffffffffffffffff166370a08231306040518263ffffffff1660e01b815260040161101991906131ac565b602060405180830381865afa158015611036573d6000803e3d6000fd5b505050506040513d601f19601f8201168201806040525081019061105a91906137f8565b101561109b576040517f08c379a000000000000000000000000000000000000000000000000000000000815260040161109290613b0e565b60405180910390fd5b603260009054906101000a900473ffffffffffffffffffffffffffffffffffffffff1673ffffffffffffffffffffffffffffffffffffffff166393a56edc3383603d60149054906101000a900467ffffffffffffffff16603e60009054906101000a900467ffffffffffffffff16603e60089054906101000a900467ffffffffffffffff16603e60109054906101000a900467ffffffffffffffff166040518763ffffffff1660e01b815260040161115896959493929190613b5f565b600060405180830381600087803b15801561117257600080fd5b505af1158015611186573d6000803e3d6000fd5b505050507fb198f199c43cc078ad46e5a5fabe03eba401f7417816c86af0bd2e7345c9950633876040516111bb929190613bc0565b60405180910390a1505050505050565b60008060029054906101000a900473ffffffffffffffffffffffffffffffffffffffff1673ffffffffffffffffffffffffffffffffffffffff1663248a9ca3836040518263ffffffff1660e01b815260040161122791906132db565b602060405180830381865afa158015611244573d6000803e3d6000fd5b505050506040513d601f19601f820116820180604052508101906112689190613bfe565b9050919050565b611278826111cb565b6112828133611976565b6112c55780336040517f37c2e3430000000000000000000000000000000000000000000000000000000081526004016112bc929190613c2b565b60405180910390fd5b600060029054906101000a900473ffffffffffffffffffffffffffffffffffffffff1673ffffffffffffffffffffffffffffffffffffffff16632f2ff15d84846040518363ffffffff1660e01b8152600401611322929190613c2b565b600060405180830381600087803b15801561133c57600080fd5b505af1158015611350573d6000803e3d6000fd5b50505050505050565b7fa49807205ce4d355092ef5a8a18f56e8913cf4a201fbe287825b095693c217756113848133611976565b6113c75780336040517f37c2e3430000000000000000000000000000000000000000000000000000000081526004016113be929190613c2b565b60405180910390fd5b8a67ffffffffffffffff168c67ffffffffffffffff161061141d576040517f08c379a000000000000000000000000000000000000000000000000000000000815260040161141490613cc6565b60405180910390fd5b888a1115611460576040517f08c379a000000000000000000000000000000000000000000000000000000000815260040161145790613d58565b60405180910390fd5b868811156114a3576040517f08c379a000000000000000000000000000000000000000000000000000000000815260040161149a90613dea565b60405180910390fd5b600073ffffffffffffffffffffffffffffffffffffffff168673ffffffffffffffffffffffffffffffffffffffff1603611512576040517f08c379a000000000000000000000000000000000000000000000000000000000815260040161150990613e56565b60405180910390fd5b8467ffffffffffffffff168467ffffffffffffffff1610611568576040517f08c379a000000000000000000000000000000000000000000000000000000000815260040161155f90613ec2565b60405180910390fd5b670de0b6b3a76400008367ffffffffffffffff1611156115bd576040517f08c379a00000000000000000000000000000000000000000000000000000000081526004016115b490613f54565b60405180910390fd5b8b603460146101000a81548167ffffffffffffffff021916908367ffffffffffffffff1602179055508a603560006101000a81548167ffffffffffffffff021916908367ffffffffffffffff1602179055508960398190555088603a81905550876036819055508660378190555085603d60006101000a81548173ffffffffffffffffffffffffffffffffffffffff021916908373ffffffffffffffffffffffffffffffffffffffff16021790555084603d60146101000a81548167ffffffffffffffff021916908367ffffffffffffffff16021790555083603e60006101000a81548167ffffffffffffffff021916908367ffffffffffffffff16021790555082603e60086101000a81548167ffffffffffffffff021916908367ffffffffffffffff16021790555081603e60106101000a81548167ffffffffffffffff021916908367ffffffffffffffff1602179055507fe81f01d972e8c23fba63a5e8b84c850255cc5b3427763906e1346ad28f1556a38c8c8c8c8c8c8c8c8c8c8c6040516117539b9a999897969594939291906134ad565b60405180910390a1505050505050505050505050565b603d60149054906101000a900467ffffffffffffffff1681565b600060029054906101000a900473ffffffffffffffffffffffffffffffffffffffff1673ffffffffffffffffffffffffffffffffffffffff166336568abe83836040518363ffffffff1660e01b81526004016117e0929190613c2b565b600060405180830381600087803b1580156117fa57600080fd5b505af115801561180e573d6000803e3d6000fd5b505050505050565b60365481565b603460009054906101000a900473ffffffffffffffffffffffffffffffffffffffff1681565b60008060388054905090506000600190506000805b838110156118ca57670de0b6b3a7640000836038838154811061187d5761187c613f74565b5b90600052602060002001546118929190613a08565b61189c9190613a91565b826118a79190613920565b915085836118b59190613a08565b925080806118c290613fa3565b915050611857565b50809350505050919050565b6000806000806000806000806000806000909192939495969798999a565b603e60089054906101000a900467ffffffffffffffff1681565b6038818154811061191e57600080fd5b906000526020600020016000915090505481565b7fa49807205ce4d355092ef5a8a18f56e8913cf4a201fbe287825b095693c2177581565b60395481565b603e60009054906101000a900467ffffffffffffffff1681565b60008060029054906101000a900473ffffffffffffffffffffffffffffffffffffffff1673ffffffffffffffffffffffffffffffffffffffff166391d1485484846040518363ffffffff1660e01b81526004016119d4929190613c2b565b602060405180830381865afa1580156119f1573d6000803e3d6000fd5b505050506040513d601f19601f82011682018060405250810190611a159190614000565b905092915050565b7f0a7cc066f24e107ff77c42c8a1bdaf1a5f775fa4a74e45530aaf9c866368f65381565b7fa49807205ce4d355092ef5a8a18f56e8913cf4a201fbe287825b095693c21775611a6c8133611976565b611aaf5780336040517f37c2e343000000000000000000000000000000000000000000000000000000008152600401611aa6929190613c2b565b60405180910390fd5b8115611acf57611ac983603f6129c090919063ffffffff16565b50611ae5565b611ae383603f6129f090919063ffffffff16565b505b505050565b6000808273ffffffffffffffffffffffffffffffffffffffff166370a08231336040518263ffffffff1660e01b8152600401611b2691906131ac565b602060405180830381865afa158015611b43573d6000803e3d6000fd5b505050506040513d601f19601f82011682018060405250810190611b6791906137f8565b1115611bd957611bd2603b60008573ffffffffffffffffffffffffffffffffffffffff1673ffffffffffffffffffffffffffffffffffffffff16815260200190815260200160002054603754611bbd919061402d565b603c54603a54611bcd919061402d565b612a20565b9050611bde565b600090505b92915050565b60606000611bf2603f612a39565b905060008151905060008167ffffffffffffffff811115611c1657611c15614061565b5b604051908082528060200260200182016040528015611c445781602001602082028036833780820191505090505b50905060005b82811015611d6a576000848281518110611c6757611c66613f74565b5b602002602001015173ffffffffffffffffffffffffffffffffffffffff166370a08231336040518263ffffffff1660e01b8152600401611ca791906131ac565b602060405180830381865afa158015611cc4573d6000803e3d6000fd5b505050506040513d601f19601f82011682018060405250810190611ce891906137f8565b1115611d5757838181518110611d0157611d00613f74565b5b6020026020010151828281518110611d1c57611d1b613f74565b5b602002602001019073ffffffffffffffffffffffffffffffffffffffff16908173ffffffffffffffffffffffffffffffffffffffff16815250505b8080611d6290613fa3565b915050611c4a565b50809350505050919050565b6000801b81565b6000801b611d8b8133611976565b611dce5780336040517f37c2e343000000000000000000000000000000000000000000000000000000008152600401611dc5929190613c2b565b60405180910390fd5b600073ffffffffffffffffffffffffffffffffffffffff168273ffffffffffffffffffffffffffffffffffffffff1603611e4e573373ffffffffffffffffffffffffffffffffffffffff166108fc479081150290604051600060405180830381858888f19350505050158015611e48573d6000803e3d6000fd5b50611ef3565b611ef2338373ffffffffffffffffffffffffffffffffffffffff166370a08231306040518263ffffffff1660e01b8152600401611e8b91906131ac565b602060405180830381865afa158015611ea8573d6000803e3d6000fd5b505050506040513d601f19601f82011682018060405250810190611ecc91906137f8565b8473ffffffffffffffffffffffffffffffffffffffff16612a5a9092919063ffffffff16565b5b5050565b603260009054906101000a900473ffffffffffffffffffffffffffffffffffffffff1681565b60375481565b603b6020528060005260406000206000915090505481565b611f44826111cb565b611f4e8133611976565b611f915780336040517f37c2e343000000000000000000000000000000000000000000000000000000008152600401611f88929190613c2b565b60405180910390fd5b600060029054906101000a900473ffffffffffffffffffffffffffffffffffffffff1673ffffffffffffffffffffffffffffffffffffffff1663d547741f84846040518363ffffffff1660e01b8152600401611fee929190613c2b565b600060405180830381600087803b15801561200857600080fd5b505af115801561201c573d6000803e3d6000fd5b50505050505050565b603360009054906101000a900473ffffffffffffffffffffffffffffffffffffffff1681565b603c5481565b603460149054906101000a900467ffffffffffffffff1681565b6000801b81565b603560009054906101000a900467ffffffffffffffff1667ffffffffffffffff164210156120d5576040517f08c379a00000000000000000000000000000000000000000000000000000000081526004016120cc906140dc565b60405180910390fd5b603954603c541061211b576040517f08c379a000000000000000000000000000000000000000000000000000000000815260040161211290614148565b60405180910390fd5b6000603260009054906101000a900473ffffffffffffffffffffffffffffffffffffffff1673ffffffffffffffffffffffffffffffffffffffff166370a08231336040518263ffffffff1660e01b815260040161217891906131ac565b602060405180830381865afa158015612195573d6000803e3d6000fd5b505050506040513d601f19601f820116820180604052508101906121b991906137f8565b146121f9576040517f08c379a00000000000000000000000000000000000000000000000000000000081526004016121f0906141da565b60405180910390fd5b6000603b60003373ffffffffffffffffffffffffffffffffffffffff1673ffffffffffffffffffffffffffffffffffffffff1681526020019081526020016000205490506000603b60003373ffffffffffffffffffffffffffffffffffffffff1673ffffffffffffffffffffffffffffffffffffffff1681526020019081526020016000208190555080603c54612290919061402d565b603c819055506122e5303383603d60009054906101000a900473ffffffffffffffffffffffffffffffffffffffff1673ffffffffffffffffffffffffffffffffffffffff16612937909392919063ffffffff16565b50565b600073ffffffffffffffffffffffffffffffffffffffff168173ffffffffffffffffffffffffffffffffffffffff1603612357576040517f08c379a000000000000000000000000000000000000000000000000000000000815260040161234e9061426c565b60405180910390fd5b6123646000801b33611976565b6123a3576040517f08c379a000000000000000000000000000000000000000000000000000000000815260040161239a906142d8565b60405180910390fd5b6123cd7fa49807205ce4d355092ef5a8a18f56e8913cf4a201fbe287825b095693c2177533611976565b15612427576123fc7fa49807205ce4d355092ef5a8a18f56e8913cf4a201fbe287825b095693c217758261126f565b6124267fa49807205ce4d355092ef5a8a18f56e8913cf4a201fbe287825b095693c2177533611f3b565b5b6124517f0a7cc066f24e107ff77c42c8a1bdaf1a5f775fa4a74e45530aaf9c866368f65333611976565b156124ab576124807f0a7cc066f24e107ff77c42c8a1bdaf1a5f775fa4a74e45530aaf9c866368f6538261126f565b6124aa7f0a7cc066f24e107ff77c42c8a1bdaf1a5f775fa4a74e45530aaf9c866368f65333611f3b565b5b6124b86000801b8261126f565b6124c56000801b33611f3b565b50565b603a5481565b600080603880549050905060008390506000805b83811015612559576001816124f79190613920565b836038838154811061250c5761250b613f74565b5b90600052602060002001546125219190613a08565b61252b9190613a91565b826125369190613920565b915085836125449190613a08565b9250808061255190613fa3565b9150506124e2565b50809350505050919050565b603560009054906101000a900467ffffffffffffffff1681565b60008060019054906101000a900460ff161590508080156125b05750600160008054906101000a900460ff1660ff16105b806125dd57506125bf30612ae0565b1580156125dc5750600160008054906101000a900460ff1660ff16145b5b61261c576040517f08c379a00000000000000000000000000000000000000000000000000000000081526004016126139061436a565b60405180910390fd5b60016000806101000a81548160ff021916908360ff1602179055508015612659576001600060016101000a81548160ff0219169083151502179055505b61266285612b03565b83603360006101000a81548173ffffffffffffffffffffffffffffffffffffffff021916908373ffffffffffffffffffffffffffffffffffffffff16021790555082603260006101000a81548173ffffffffffffffffffffffffffffffffffffffff021916908373ffffffffffffffffffffffffffffffffffffffff16021790555081603460006101000a81548173ffffffffffffffffffffffffffffffffffffffff021916908373ffffffffffffffffffffffffffffffffffffffff1602179055508373ffffffffffffffffffffffffffffffffffffffff1663095ea7b3847fffffffffffffffffffffffffffffffffffffffffffffffffffffffffffffffff6040518363ffffffff1660e01b8152600401612780929190613bc0565b6020604051808303816000875af115801561279f573d6000803e3d6000fd5b505050506040513d601f19601f820116820180604052508101906127c39190614000565b50801561281d5760008060016101000a81548160ff0219169083151502179055507f7f26b83ff96e1f2b6a682f133852f6798a09c465da95921460cefb3847402498600160405161281491906143d2565b60405180910390a15b5050505050565b600080612832603c546124ce565b9050600061284c84603c546128479190613920565b6124ce565b90506128fe603360009054906101000a900473ffffffffffffffffffffffffffffffffffffffff1673ffffffffffffffffffffffffffffffffffffffff166370a08231306040518263ffffffff1660e01b81526004016128ac91906131ac565b602060405180830381865afa1580156128c9573d6000803e3d6000fd5b505050506040513d601f19601f820116820180604052508101906128ed91906137f8565b83836128f9919061402d565b612a20565b92505050919050565b600061292f836000018373ffffffffffffffffffffffffffffffffffffffff1660001b612b96565b905092915050565b6129ba846323b872dd60e01b858585604051602401612958939291906143ed565b604051602081830303815290604052907bffffffffffffffffffffffffffffffffffffffffffffffffffffffff19166020820180517bffffffffffffffffffffffffffffffffffffffffffffffffffffffff8381831617835250505050612bb9565b50505050565b60006129e8836000018373ffffffffffffffffffffffffffffffffffffffff1660001b612c80565b905092915050565b6000612a18836000018373ffffffffffffffffffffffffffffffffffffffff1660001b612cf0565b905092915050565b6000818310612a2f5781612a31565b825b905092915050565b60606000612a4983600001612e04565b905060608190508092505050919050565b612adb8363a9059cbb60e01b8484604051602401612a79929190613bc0565b604051602081830303815290604052907bffffffffffffffffffffffffffffffffffffffffffffffffffffffff19166020820180517bffffffffffffffffffffffffffffffffffffffffffffffffffffffff8381831617835250505050612bb9565b505050565b6000808273ffffffffffffffffffffffffffffffffffffffff163b119050919050565b600060019054906101000a900460ff16612b52576040517f08c379a0000000000000000000000000000000000000000000000000000000008152600401612b4990614496565b60405180910390fd5b80600060026101000a81548173ffffffffffffffffffffffffffffffffffffffff021916908373ffffffffffffffffffffffffffffffffffffffff16021790555050565b600080836001016000848152602001908152602001600020541415905092915050565b6000612c1b826040518060400160405280602081526020017f5361666545524332303a206c6f772d6c6576656c2063616c6c206661696c65648152508573ffffffffffffffffffffffffffffffffffffffff16612e609092919063ffffffff16565b9050600081511115612c7b5780806020019051810190612c3b9190614000565b612c7a576040517f08c379a0000000000000000000000000000000000000000000000000000000008152600401612c7190614528565b60405180910390fd5b5b505050565b6000612c8c8383612b96565b612ce5578260000182908060018154018082558091505060019003906000526020600020016000909190919091505582600001805490508360010160008481526020019081526020016000208190555060019050612cea565b600090505b92915050565b60008083600101600084815260200190815260200160002054905060008114612df8576000600182612d22919061402d565b9050600060018660000180549050612d3a919061402d565b9050818114612da9576000866000018281548110612d5b57612d5a613f74565b5b9060005260206000200154905080876000018481548110612d7f57612d7e613f74565b5b90600052602060002001819055508387600101600083815260200190815260200160002081905550505b85600001805480612dbd57612dbc614548565b5b600190038181906000526020600020016000905590558560010160008681526020019081526020016000206000905560019350505050612dfe565b60009150505b92915050565b606081600001805480602002602001604051908101604052809291908181526020018280548015612e5457602002820191906000526020600020905b815481526020019060010190808311612e40575b50505050509050919050565b6060612e6f8484600085612e78565b90509392505050565b606082471015612ebd576040517f08c379a0000000000000000000000000000000000000000000000000000000008152600401612eb4906145e9565b60405180910390fd5b612ec685612ae0565b612f05576040517f08c379a0000000000000000000000000000000000000000000000000000000008152600401612efc90614655565b60405180910390fd5b6000808673ffffffffffffffffffffffffffffffffffffffff168587604051612f2e91906146ef565b60006040518083038185875af1925050503d8060008114612f6b576040519150601f19603f3d011682016040523d82523d6000602084013e612f70565b606091505b5091509150612f80828286612f8c565b92505050949350505050565b60608315612f9c57829050612fec565b600083511115612faf5782518084602001fd5b816040517f08c379a0000000000000000000000000000000000000000000000000000000008152600401612fe3919061475b565b60405180910390fd5b9392505050565b600080fd5b60007fffffffff0000000000000000000000000000000000000000000000000000000082169050919050565b61302d81612ff8565b811461303857600080fd5b50565b60008135905061304a81613024565b92915050565b60006020828403121561306657613065612ff3565b5b60006130748482850161303b565b91505092915050565b60008115159050919050565b6130928161307d565b82525050565b60006020820190506130ad6000830184613089565b92915050565b600073ffffffffffffffffffffffffffffffffffffffff82169050919050565b6000819050919050565b60006130f86130f36130ee846130b3565b6130d3565b6130b3565b9050919050565b600061310a826130dd565b9050919050565b600061311c826130ff565b9050919050565b61312c81613111565b82525050565b60006020820190506131476000830184613123565b92915050565b600067ffffffffffffffff82169050919050565b61316a8161314d565b82525050565b60006020820190506131856000830184613161565b92915050565b6000613196826130b3565b9050919050565b6131a68161318b565b82525050565b60006020820190506131c1600083018461319d565b92915050565b6000819050919050565b6131da816131c7565b81146131e557600080fd5b50565b6000813590506131f7816131d1565b92915050565b6132068161318b565b811461321157600080fd5b50565b600081359050613223816131fd565b92915050565b600080604083850312156132405761323f612ff3565b5b600061324e858286016131e8565b925050602061325f85828601613214565b9150509250929050565b6000819050919050565b61327c81613269565b811461328757600080fd5b50565b60008135905061329981613273565b92915050565b6000602082840312156132b5576132b4612ff3565b5b60006132c38482850161328a565b91505092915050565b6132d581613269565b82525050565b60006020820190506132f060008301846132cc565b92915050565b6000806040838503121561330d5761330c612ff3565b5b600061331b8582860161328a565b925050602061332c85828601613214565b9150509250929050565b61333f8161314d565b811461334a57600080fd5b50565b60008135905061335c81613336565b92915050565b60008060008060008060008060008060006101608c8e03121561338857613387612ff3565b5b60006133968e828f0161334d565b9b505060206133a78e828f0161334d565b9a505060406133b88e828f016131e8565b99505060606133c98e828f016131e8565b98505060806133da8e828f016131e8565b97505060a06133eb8e828f016131e8565b96505060c06133fc8e828f01613214565b95505060e061340d8e828f0161334d565b94505061010061341f8e828f0161334d565b9350506101206134318e828f0161334d565b9250506101406134438e828f0161334d565b9150509295989b509295989b9093969950565b61345f816131c7565b82525050565b600060208201905061347a6000830184613456565b92915050565b60006020828403121561349657613495612ff3565b5b60006134a4848285016131e8565b91505092915050565b6000610160820190506134c3600083018e613161565b6134d0602083018d613161565b6134dd604083018c613456565b6134ea606083018b613456565b6134f7608083018a613456565b61350460a0830189613456565b61351160c083018861319d565b61351e60e0830187613161565b61352c610100830186613161565b61353a610120830185613161565b613548610140830184613161565b9c9b505050505050505050505050565b6135618161307d565b811461356c57600080fd5b50565b60008135905061357e81613558565b92915050565b6000806040838503121561359b5761359a612ff3565b5b60006135a985828601613214565b92505060206135ba8582860161356f565b9150509250929050565b600080604083850312156135db576135da612ff3565b5b60006135e985828601613214565b92505060206135fa85828601613214565b9150509250929050565b60006020828403121561361a57613619612ff3565b5b600061362884828501613214565b91505092915050565b600081519050919050565b600082825260208201905092915050565b6000819050602082019050919050565b6136668161318b565b82525050565b6000613678838361365d565b60208301905092915050565b6000602082019050919050565b600061369c82613631565b6136a6818561363c565b93506136b18361364d565b8060005b838110156136e25781516136c9888261366c565b97506136d483613684565b9250506001810190506136b5565b5085935050505092915050565b600060208201905081810360008301526137098184613691565b905092915050565b600061371c8261318b565b9050919050565b61372c81613711565b811461373757600080fd5b50565b60008135905061374981613723565b92915050565b60006020828403121561376557613764612ff3565b5b60006137738482850161373a565b91505092915050565b6000806000806080858703121561379657613795612ff3565b5b60006137a487828801613214565b94505060206137b587828801613214565b93505060406137c687828801613214565b92505060606137d787828801613214565b91505092959194509250565b6000815190506137f2816131d1565b92915050565b60006020828403121561380e5761380d612ff3565b5b600061381c848285016137e3565b91505092915050565b600060408201905061383a600083018561319d565b613847602083018461319d565b9392505050565b600082825260208201905092915050565b7f596f757220646f6e6174696f6e2073686f756c6420626520677265617465722060008201527f7468616e206d696e696d756d20646f6e6174696f6e0000000000000000000000602082015250565b60006138bb60358361384e565b91506138c68261385f565b604082019050919050565b600060208201905081810360008301526138ea816138ae565b9050919050565b7f4e487b7100000000000000000000000000000000000000000000000000000000600052601160045260246000fd5b600061392b826131c7565b9150613936836131c7565b9250827fffffffffffffffffffffffffffffffffffffffffffffffffffffffffffffffff0382111561396b5761396a6138f1565b5b828201905092915050565b7f596f757220646f6e6174696f6e732073686f756c64206265206c65737320746860008201527f616e206d617820646f6e6174696f6e0000000000000000000000000000000000602082015250565b60006139d2602f8361384e565b91506139dd82613976565b604082019050919050565b60006020820190508181036000830152613a01816139c5565b9050919050565b6000613a13826131c7565b9150613a1e836131c7565b9250817fffffffffffffffffffffffffffffffffffffffffffffffffffffffffffffffff0483118215151615613a5757613a566138f1565b5b828202905092915050565b7f4e487b7100000000000000000000000000000000000000000000000000000000600052601260045260246000fd5b6000613a9c826131c7565b9150613aa7836131c7565b925082613ab757613ab6613a62565b5b828204905092915050565b7f6e6f7420656e6f75676820726577617264206c65667400000000000000000000600082015250565b6000613af860168361384e565b9150613b0382613ac2565b602082019050919050565b60006020820190508181036000830152613b2781613aeb565b9050919050565b6000613b49613b44613b3f8461314d565b6130d3565b6131c7565b9050919050565b613b5981613b2e565b82525050565b600060c082019050613b74600083018961319d565b613b816020830188613456565b613b8e6040830187613b50565b613b9b6060830186613b50565b613ba86080830185613b50565b613bb560a0830184613b50565b979650505050505050565b6000604082019050613bd5600083018561319d565b613be26020830184613456565b9392505050565b600081519050613bf881613273565b92915050565b600060208284031215613c1457613c13612ff3565b5b6000613c2284828501613be9565b91505092915050565b6000604082019050613c4060008301856132cc565b613c4d602083018461319d565b9392505050565b7f215f737461727454696d657374616d70203c205f646561646c696e6554696d6560008201527f7374616d70000000000000000000000000000000000000000000000000000000602082015250565b6000613cb060258361384e565b9150613cbb82613c54565b604082019050919050565b60006020820190508181036000830152613cdf81613ca3565b9050919050565b7f21646f6e6174696f6e476f616c4d696e203c3d20646f6e6174696f6e476f616c60008201527f4d61780000000000000000000000000000000000000000000000000000000000602082015250565b6000613d4260238361384e565b9150613d4d82613ce6565b604082019050919050565b60006020820190508181036000830152613d7181613d35565b9050919050565b7f216d696e696d756d446f6e6174696f6e557364203c3d206d6178696d756d446f60008201527f6e6174696f6e5573640000000000000000000000000000000000000000000000602082015250565b6000613dd460298361384e565b9150613ddf82613d78565b604082019050919050565b60006020820190508181036000830152613e0381613dc7565b9050919050565b7f646f6e6174696f6e546f6b656e206973206e756c6c0000000000000000000000600082015250565b6000613e4060158361384e565b9150613e4b82613e0a565b602082019050919050565b60006020820190508181036000830152613e6f81613e33565b9050919050565b7f21636c696666207365636f6e6473203c2076657374696e67207365636f6e6473600082015250565b6000613eac60208361384e565b9150613eb782613e76565b602082019050919050565b60006020820190508181036000830152613edb81613e9f565b9050919050565b7f746765556e6c6f636b526174696f2073686f756c64206265206c65737320746860008201527f616e203100000000000000000000000000000000000000000000000000000000602082015250565b6000613f3e60248361384e565b9150613f4982613ee2565b604082019050919050565b60006020820190508181036000830152613f6d81613f31565b9050919050565b7f4e487b7100000000000000000000000000000000000000000000000000000000600052603260045260246000fd5b6000613fae826131c7565b91507fffffffffffffffffffffffffffffffffffffffffffffffffffffffffffffffff8203613fe057613fdf6138f1565b5b600182019050919050565b600081519050613ffa81613558565b92915050565b60006020828403121561401657614015612ff3565b5b600061402484828501613feb565b91505092915050565b6000614038826131c7565b9150614043836131c7565b925082821015614056576140556138f1565b5b828203905092915050565b7f4e487b7100000000000000000000000000000000000000000000000000000000600052604160045260246000fd5b7f50617274696369706174696f6e20686173206e6f742079657420656e64656400600082015250565b60006140c6601f8361384e565b91506140d182614090565b602082019050919050565b600060208201905081810360008301526140f5816140b9565b9050919050565b7f4d696e20676f616c207265616368656400000000000000000000000000000000600082015250565b600061413260108361384e565b915061413d826140fc565b602082019050919050565b6000602082019050818103600083015261416181614125565b9050919050565b7f596f752073686f756c6420646f6e61746520616c6c20796f757220746f6b656e60008201527f7320696e20766545524332300000000000000000000000000000000000000000602082015250565b60006141c4602c8361384e565b91506141cf82614168565b604082019050919050565b600060208201905081810360008301526141f3816141b7565b9050919050565b7f4f776e61626c653a206e6577206f776e657220697320746865207a65726f206160008201527f6464726573730000000000000000000000000000000000000000000000000000602082015250565b600061425660268361384e565b9150614261826141fa565b604082019050919050565b6000602082019050818103600083015261428581614249565b9050919050565b7f4f776e61626c653a2063616c6c6572206973206e6f7420746865206f776e6572600082015250565b60006142c260208361384e565b91506142cd8261428c565b602082019050919050565b600060208201905081810360008301526142f1816142b5565b9050919050565b7f496e697469616c697a61626c653a20636f6e747261637420697320616c72656160008201527f647920696e697469616c697a6564000000000000000000000000000000000000602082015250565b6000614354602e8361384e565b915061435f826142f8565b604082019050919050565b6000602082019050818103600083015261438381614347565b9050919050565b6000819050919050565b600060ff82169050919050565b60006143bc6143b76143b28461438a565b6130d3565b614394565b9050919050565b6143cc816143a1565b82525050565b60006020820190506143e760008301846143c3565b92915050565b6000606082019050614402600083018661319d565b61440f602083018561319d565b61441c6040830184613456565b949350505050565b7f496e697469616c697a61626c653a20636f6e7472616374206973206e6f74206960008201527f6e697469616c697a696e67000000000000000000000000000000000000000000602082015250565b6000614480602b8361384e565b915061448b82614424565b604082019050919050565b600060208201905081810360008301526144af81614473565b9050919050565b7f5361666545524332303a204552433230206f7065726174696f6e20646964206e60008201527f6f74207375636365656400000000000000000000000000000000000000000000602082015250565b6000614512602a8361384e565b915061451d826144b6565b604082019050919050565b6000602082019050818103600083015261454181614505565b9050919050565b7f4e487b7100000000000000000000000000000000000000000000000000000000600052603160045260246000fd5b7f416464726573733a20696e73756666696369656e742062616c616e636520666f60008201527f722063616c6c0000000000000000000000000000000000000000000000000000602082015250565b60006145d360268361384e565b91506145de82614577565b604082019050919050565b60006020820190508181036000830152614602816145c6565b9050919050565b7f416464726573733a2063616c6c20746f206e6f6e2d636f6e7472616374000000600082015250565b600061463f601d8361384e565b915061464a82614609565b602082019050919050565b6000602082019050818103600083015261466e81614632565b9050919050565b600081519050919050565b600081905092915050565b60005b838110156146a957808201518184015260208101905061468e565b838111156146b8576000848401525b50505050565b60006146c982614675565b6146d38185614680565b93506146e381856020860161468b565b80840191505092915050565b60006146fb82846146be565b915081905092915050565b600081519050919050565b6000601f19601f8301169050919050565b600061472d82614706565b614737818561384e565b935061474781856020860161468b565b61475081614711565b840191505092915050565b600060208201905081810360008301526147758184614722565b90509291505056fea264697066735822122099faa7055dcb0195cc68723e4fdd0ffc65ba7cb108913f3bf9967d05e4d5ec0064736f6c634300080f0033",
  "devdoc": {
    "kind": "dev",
    "methods": {
      "adminWithdraw(address)": {
        "details": "The owner can't take away SuDAO token already distributed to users, because they are stored on timelockVault"
      },
      "getRoleAdmin(bytes32)": {
        "details": "Returns the admin role that controls `role`. See {grantRole} and {revokeRole}. To change a role's admin, use {AccessControl-_setRoleAdmin}."
      },
      "grantRole(bytes32,address)": {
        "details": "Grants `role` to `account`. If `account` had not been already granted `role`, emits a {RoleGranted} event. Requirements: - the caller must have ``role``'s admin role."
      },
      "hasRole(bytes32,address)": {
        "details": "Returns `true` if `account` has been granted `role`."
      },
      "renounceRole(bytes32,address)": {
        "details": "Revokes `role` from the calling account. Roles are often managed via {grantRole} and {revokeRole}: this function's purpose is to provide a mechanism for accounts to lose their privileges if they are compromised (such as when a trusted device is misplaced). If the calling account had been granted `role`, emits a {RoleRevoked} event. Requirements: - the caller must be `account`."
      },
      "revokeRole(bytes32,address)": {
        "details": "Revokes `role` from `account`. If `account` had been granted `role`, emits a {RoleRevoked} event. Requirements: - the caller must have ``role``'s admin role."
      },
      "supportsInterface(bytes4)": {
        "details": "Returns true if this contract implements the interface defined by `interfaceId`. See the corresponding https://eips.ethereum.org/EIPS/eip-165#how-interfaces-are-identified[EIP section] to learn more about how these ids are created. This function call must use less than 30 000 gas."
      },
      "transferOwnership(address)": {
        "details": "Transfers ownership of the contract to a new account (`newOwner`). Can only be called by the current owner."
      }
    },
    "stateVariables": {
      "__gap": {
        "details": "This empty reserved space is put in place to allow future versions to add new variables without shifting down storage in the inheritance chain. See https://docs.openzeppelin.com/contracts/4.x/upgradeable#storage_gaps"
      }
    },
    "title": "The contract that distribute suDAO tokens for community based on NFT membership",
    "version": 1
  },
  "userdoc": {
    "kind": "user",
    "methods": {
      "adminWithdraw(address)": {
        "notice": "The owner of the contact can take away tokens sent to the contract."
      },
      "getMaximumDonationAmount(address,address)": {
        "notice": "Get the max donation that user can do"
      },
      "participate(uint256,address)": {
        "notice": "notice Allows to participate for users with required NFT param donationAmount The amount of tokens specified in donationToken"
      },
      "setDistributionInfo(uint64,uint64,uint256,uint256,uint256,uint256,address,uint64,uint64,uint64,uint64)": {
        "notice": "The owner can set new or edit existing token distribution with no restrictions"
      }
    },
    "version": 1
  },
  "storageLayout": {
    "storage": [
      {
        "astId": 79,
        "contract": "contracts/distributions/TokenDistributor_v4.sol:TokenDistributor_v4",
        "label": "_initialized",
        "offset": 0,
        "slot": "0",
        "type": "t_uint8"
      },
      {
        "astId": 82,
        "contract": "contracts/distributions/TokenDistributor_v4.sol:TokenDistributor_v4",
        "label": "_initializing",
        "offset": 1,
        "slot": "0",
        "type": "t_bool"
      },
      {
        "astId": 2477,
        "contract": "contracts/distributions/TokenDistributor_v4.sol:TokenDistributor_v4",
        "label": "ACCESS_CONTROL_SINGLETON",
        "offset": 2,
        "slot": "0",
        "type": "t_contract(IAccessControlUpgradeable)72"
      },
      {
        "astId": 2700,
        "contract": "contracts/distributions/TokenDistributor_v4.sol:TokenDistributor_v4",
        "label": "__gap",
        "offset": 0,
        "slot": "1",
        "type": "t_array(t_uint256)49_storage"
      },
      {
        "astId": 2723,
        "contract": "contracts/distributions/TokenDistributor_v4.sol:TokenDistributor_v4",
        "label": "VE_ERC_20",
        "offset": 0,
        "slot": "50",
        "type": "t_address"
      },
      {
        "astId": 2725,
        "contract": "contracts/distributions/TokenDistributor_v4.sol:TokenDistributor_v4",
        "label": "SU_DAO",
        "offset": 0,
        "slot": "51",
        "type": "t_address"
      },
      {
        "astId": 2727,
        "contract": "contracts/distributions/TokenDistributor_v4.sol:TokenDistributor_v4",
        "label": "BONUS_CONTRACT",
        "offset": 0,
        "slot": "52",
        "type": "t_address"
      },
      {
        "astId": 2729,
        "contract": "contracts/distributions/TokenDistributor_v4.sol:TokenDistributor_v4",
        "label": "startTimestamp",
        "offset": 20,
        "slot": "52",
        "type": "t_uint64"
      },
      {
        "astId": 2731,
        "contract": "contracts/distributions/TokenDistributor_v4.sol:TokenDistributor_v4",
        "label": "deadlineTimestamp",
        "offset": 0,
        "slot": "53",
        "type": "t_uint64"
      },
      {
        "astId": 2733,
        "contract": "contracts/distributions/TokenDistributor_v4.sol:TokenDistributor_v4",
        "label": "minimumDonationUsd",
        "offset": 0,
        "slot": "54",
        "type": "t_uint256"
      },
      {
        "astId": 2735,
        "contract": "contracts/distributions/TokenDistributor_v4.sol:TokenDistributor_v4",
        "label": "maximumDonationUsd",
        "offset": 0,
        "slot": "55",
        "type": "t_uint256"
      },
      {
        "astId": 2738,
        "contract": "contracts/distributions/TokenDistributor_v4.sol:TokenDistributor_v4",
        "label": "bondingCurvePolynomial1e18",
        "offset": 0,
        "slot": "56",
        "type": "t_array(t_uint256)dyn_storage"
      },
      {
        "astId": 2740,
        "contract": "contracts/distributions/TokenDistributor_v4.sol:TokenDistributor_v4",
        "label": "donationGoalMin",
        "offset": 0,
        "slot": "57",
        "type": "t_uint256"
      },
      {
        "astId": 2742,
        "contract": "contracts/distributions/TokenDistributor_v4.sol:TokenDistributor_v4",
        "label": "donationGoalMax",
        "offset": 0,
        "slot": "58",
        "type": "t_uint256"
      },
      {
        "astId": 2746,
        "contract": "contracts/distributions/TokenDistributor_v4.sol:TokenDistributor_v4",
        "label": "donations",
        "offset": 0,
        "slot": "59",
        "type": "t_mapping(t_address,t_uint256)"
      },
      {
        "astId": 2748,
        "contract": "contracts/distributions/TokenDistributor_v4.sol:TokenDistributor_v4",
        "label": "totalDonations",
        "offset": 0,
        "slot": "60",
        "type": "t_uint256"
      },
      {
        "astId": 2750,
        "contract": "contracts/distributions/TokenDistributor_v4.sol:TokenDistributor_v4",
        "label": "donationToken",
        "offset": 0,
        "slot": "61",
        "type": "t_address"
      },
      {
        "astId": 2752,
        "contract": "contracts/distributions/TokenDistributor_v4.sol:TokenDistributor_v4",
        "label": "fullVestingSeconds",
        "offset": 20,
        "slot": "61",
        "type": "t_uint64"
      },
      {
        "astId": 2754,
        "contract": "contracts/distributions/TokenDistributor_v4.sol:TokenDistributor_v4",
        "label": "cliffSeconds",
        "offset": 0,
        "slot": "62",
        "type": "t_uint64"
      },
      {
        "astId": 2756,
        "contract": "contracts/distributions/TokenDistributor_v4.sol:TokenDistributor_v4",
        "label": "tgeUnlockRatio1e18",
        "offset": 8,
        "slot": "62",
        "type": "t_uint64"
      },
      {
        "astId": 2758,
        "contract": "contracts/distributions/TokenDistributor_v4.sol:TokenDistributor_v4",
        "label": "vestingFrequencySeconds",
        "offset": 16,
        "slot": "62",
        "type": "t_uint64"
      },
      {
        "astId": 2765,
        "contract": "contracts/distributions/TokenDistributor_v4.sol:TokenDistributor_v4",
        "label": "nftRequirement",
        "offset": 0,
        "slot": "63",
        "type": "t_struct(AddressSet)2157_storage"
      },
      {
        "astId": 3612,
        "contract": "contracts/distributions/TokenDistributor_v4.sol:TokenDistributor_v4",
        "label": "__gap",
        "offset": 0,
        "slot": "65",
        "type": "t_array(t_uint256)49_storage"
      }
    ],
    "types": {
      "t_address": {
        "encoding": "inplace",
        "label": "address",
        "numberOfBytes": "20"
      },
      "t_array(t_bytes32)dyn_storage": {
        "base": "t_bytes32",
        "encoding": "dynamic_array",
        "label": "bytes32[]",
        "numberOfBytes": "32"
      },
      "t_array(t_uint256)49_storage": {
        "base": "t_uint256",
        "encoding": "inplace",
        "label": "uint256[49]",
        "numberOfBytes": "1568"
      },
      "t_array(t_uint256)dyn_storage": {
        "base": "t_uint256",
        "encoding": "dynamic_array",
        "label": "uint256[]",
        "numberOfBytes": "32"
      },
      "t_bool": {
        "encoding": "inplace",
        "label": "bool",
        "numberOfBytes": "1"
      },
      "t_bytes32": {
        "encoding": "inplace",
        "label": "bytes32",
        "numberOfBytes": "32"
      },
      "t_contract(IAccessControlUpgradeable)72": {
        "encoding": "inplace",
        "label": "contract IAccessControlUpgradeable",
        "numberOfBytes": "20"
      },
      "t_mapping(t_address,t_uint256)": {
        "encoding": "mapping",
        "key": "t_address",
        "label": "mapping(address => uint256)",
        "numberOfBytes": "32",
        "value": "t_uint256"
      },
      "t_mapping(t_bytes32,t_uint256)": {
        "encoding": "mapping",
        "key": "t_bytes32",
        "label": "mapping(bytes32 => uint256)",
        "numberOfBytes": "32",
        "value": "t_uint256"
      },
      "t_struct(AddressSet)2157_storage": {
        "encoding": "inplace",
        "label": "struct EnumerableSet.AddressSet",
        "members": [
          {
            "astId": 2156,
            "contract": "contracts/distributions/TokenDistributor_v4.sol:TokenDistributor_v4",
            "label": "_inner",
            "offset": 0,
            "slot": "0",
            "type": "t_struct(Set)1856_storage"
          }
        ],
        "numberOfBytes": "64"
      },
      "t_struct(Set)1856_storage": {
        "encoding": "inplace",
        "label": "struct EnumerableSet.Set",
        "members": [
          {
            "astId": 1851,
            "contract": "contracts/distributions/TokenDistributor_v4.sol:TokenDistributor_v4",
            "label": "_values",
            "offset": 0,
            "slot": "0",
            "type": "t_array(t_bytes32)dyn_storage"
          },
          {
            "astId": 1855,
            "contract": "contracts/distributions/TokenDistributor_v4.sol:TokenDistributor_v4",
            "label": "_indexes",
            "offset": 0,
            "slot": "1",
            "type": "t_mapping(t_bytes32,t_uint256)"
          }
        ],
        "numberOfBytes": "64"
      },
      "t_uint256": {
        "encoding": "inplace",
        "label": "uint256",
        "numberOfBytes": "32"
      },
      "t_uint64": {
        "encoding": "inplace",
        "label": "uint64",
        "numberOfBytes": "8"
      },
      "t_uint8": {
        "encoding": "inplace",
        "label": "uint8",
        "numberOfBytes": "1"
      }
    }
  }
}