{
  "address": "0xb96570D591B300E0Ac12e0edBf0BecC5F5E5762F",
  "abi": [
    {
      "inputs": [
        {
          "internalType": "address",
          "name": "accessNft",
          "type": "address"
        }
      ],
      "name": "AccessNftNotValidError",
      "type": "error"
    },
    {
      "inputs": [],
      "name": "DistributionTimeframeError",
      "type": "error"
    },
    {
      "inputs": [
        {
          "internalType": "address",
          "name": "account",
          "type": "address"
        },
        {
          "internalType": "address",
          "name": "accessNft",
          "type": "address"
        }
      ],
      "name": "NoAccessNftError",
      "type": "error"
    },
    {
      "inputs": [],
      "name": "NoActiveDistributionError",
      "type": "error"
    },
    {
      "inputs": [
        {
          "internalType": "bytes32",
          "name": "role",
          "type": "bytes32"
        },
        {
          "internalType": "address",
          "name": "msgSender",
          "type": "address"
        }
      ],
      "name": "OnlyRoleError",
      "type": "error"
    },
    {
      "anonymous": false,
      "inputs": [
        {
          "indexed": false,
          "internalType": "uint8",
          "name": "version",
          "type": "uint8"
        }
      ],
      "name": "Initialized",
      "type": "event"
    },
    {
      "anonymous": false,
      "inputs": [
        {
          "indexed": false,
          "internalType": "address",
          "name": "msg_sender",
          "type": "address"
        },
        {
          "indexed": false,
          "internalType": "uint256",
          "name": "donationAmount",
          "type": "uint256"
        }
      ],
      "name": "Participated",
      "type": "event"
    },
    {
      "anonymous": false,
      "inputs": [
        {
          "indexed": false,
          "internalType": "uint64",
          "name": "_startTimestamp",
          "type": "uint64"
        },
        {
          "indexed": false,
          "internalType": "uint64",
          "name": "_deadlineTimestamp",
          "type": "uint64"
        },
        {
          "indexed": false,
          "internalType": "uint256",
          "name": "_donationGoalMin",
          "type": "uint256"
        },
        {
          "indexed": false,
          "internalType": "uint256",
          "name": "_donationGoalMax",
          "type": "uint256"
        },
        {
          "indexed": false,
          "internalType": "uint256",
          "name": "_minimumDonation",
          "type": "uint256"
        },
        {
          "indexed": false,
          "internalType": "uint256",
          "name": "_maximumDonation",
          "type": "uint256"
        },
        {
          "indexed": false,
          "internalType": "address",
          "name": "_donationToken",
          "type": "address"
        },
        {
          "indexed": false,
          "internalType": "uint64",
          "name": "_fullVestingSeconds",
          "type": "uint64"
        },
        {
          "indexed": false,
          "internalType": "uint64",
          "name": "_cliffSeconds",
          "type": "uint64"
        },
        {
          "indexed": false,
          "internalType": "uint64",
          "name": "_tgeUnlockRatio1e18",
          "type": "uint64"
        },
        {
          "indexed": false,
          "internalType": "uint64",
          "name": "_vestingFrequencySeconds",
          "type": "uint64"
        }
      ],
      "name": "SetDistribution",
      "type": "event"
    },
    {
      "inputs": [],
      "name": "ACCESS_CONTROL_SINGLETON",
      "outputs": [
        {
          "internalType": "contract ISuAccessControl",
          "name": "",
          "type": "address"
        }
      ],
      "stateMutability": "view",
      "type": "function"
    },
    {
      "inputs": [],
      "name": "ADMIN_ROLE",
      "outputs": [
        {
          "internalType": "bytes32",
          "name": "",
          "type": "bytes32"
        }
      ],
      "stateMutability": "view",
      "type": "function"
    },
    {
      "inputs": [],
      "name": "BONUS_CONTRACT",
      "outputs": [
        {
          "internalType": "address",
          "name": "",
          "type": "address"
        }
      ],
      "stateMutability": "view",
      "type": "function"
    },
    {
      "inputs": [],
      "name": "COMMUNITY_ADMIN_ROLE",
      "outputs": [
        {
          "internalType": "bytes32",
          "name": "",
          "type": "bytes32"
        }
      ],
      "stateMutability": "view",
      "type": "function"
    },
    {
      "inputs": [],
      "name": "DAO_ROLE",
      "outputs": [
        {
          "internalType": "bytes32",
          "name": "",
          "type": "bytes32"
        }
      ],
      "stateMutability": "view",
      "type": "function"
    },
    {
      "inputs": [],
      "name": "DEFAULT_ADMIN_ROLE",
      "outputs": [
        {
          "internalType": "bytes32",
          "name": "",
          "type": "bytes32"
        }
      ],
      "stateMutability": "view",
      "type": "function"
    },
    {
      "inputs": [],
      "name": "SU_DAO",
      "outputs": [
        {
          "internalType": "address",
          "name": "",
          "type": "address"
        }
      ],
      "stateMutability": "view",
      "type": "function"
    },
    {
      "inputs": [],
      "name": "VE_ERC_20",
      "outputs": [
        {
          "internalType": "address",
          "name": "",
          "type": "address"
        }
      ],
      "stateMutability": "view",
      "type": "function"
    },
    {
      "inputs": [
        {
          "internalType": "contract IERC20Upgradeable",
          "name": "token",
          "type": "address"
        }
      ],
      "name": "adminWithdraw",
      "outputs": [],
      "stateMutability": "nonpayable",
      "type": "function"
    },
    {
      "inputs": [
        {
          "internalType": "uint256",
          "name": "x",
          "type": "uint256"
        }
      ],
      "name": "antiderivativeOfBondingCurvePolynomial1e18At",
      "outputs": [
        {
          "internalType": "uint256",
          "name": "",
          "type": "uint256"
        }
      ],
      "stateMutability": "view",
      "type": "function"
    },
    {
      "inputs": [
        {
          "internalType": "uint256",
          "name": "",
          "type": "uint256"
        }
      ],
      "name": "bondingCurvePolynomial1e18",
      "outputs": [
        {
          "internalType": "uint256",
          "name": "",
          "type": "uint256"
        }
      ],
      "stateMutability": "view",
      "type": "function"
    },
    {
      "inputs": [
        {
          "internalType": "uint256",
          "name": "x",
          "type": "uint256"
        }
      ],
      "name": "bondingCurvePolynomial1e18At",
      "outputs": [
        {
          "internalType": "uint256",
          "name": "",
          "type": "uint256"
        }
      ],
      "stateMutability": "view",
      "type": "function"
    },
    {
      "inputs": [],
      "name": "cliffSeconds",
      "outputs": [
        {
          "internalType": "uint64",
          "name": "",
          "type": "uint64"
        }
      ],
      "stateMutability": "view",
      "type": "function"
    },
    {
      "inputs": [],
      "name": "deadlineTimestamp",
      "outputs": [
        {
          "internalType": "uint64",
          "name": "",
          "type": "uint64"
        }
      ],
      "stateMutability": "view",
      "type": "function"
    },
    {
      "inputs": [],
      "name": "donationGoalMax",
      "outputs": [
        {
          "internalType": "uint256",
          "name": "",
          "type": "uint256"
        }
      ],
      "stateMutability": "view",
      "type": "function"
    },
    {
      "inputs": [],
      "name": "donationGoalMin",
      "outputs": [
        {
          "internalType": "uint256",
          "name": "",
          "type": "uint256"
        }
      ],
      "stateMutability": "view",
      "type": "function"
    },
    {
      "inputs": [],
      "name": "donationToken",
      "outputs": [
        {
          "internalType": "address",
          "name": "",
          "type": "address"
        }
      ],
      "stateMutability": "view",
      "type": "function"
    },
    {
      "inputs": [
        {
          "internalType": "address",
          "name": "",
          "type": "address"
        }
      ],
      "name": "donations",
      "outputs": [
        {
          "internalType": "uint256",
          "name": "",
          "type": "uint256"
        }
      ],
      "stateMutability": "view",
      "type": "function"
    },
    {
      "inputs": [],
      "name": "fullVestingSeconds",
      "outputs": [
        {
          "internalType": "uint64",
          "name": "",
          "type": "uint64"
        }
      ],
      "stateMutability": "view",
      "type": "function"
    },
    {
      "inputs": [
        {
          "internalType": "address",
          "name": "account",
          "type": "address"
        }
      ],
      "name": "getAccessNftsForUser",
      "outputs": [
        {
          "internalType": "address[]",
          "name": "",
          "type": "address[]"
        }
      ],
      "stateMutability": "nonpayable",
      "type": "function"
    },
    {
      "inputs": [
        {
          "internalType": "uint256",
          "name": "donationAmount",
          "type": "uint256"
        }
      ],
      "name": "getBondingCurveRewardAmountFromDonation",
      "outputs": [
        {
          "internalType": "uint256",
          "name": "",
          "type": "uint256"
        }
      ],
      "stateMutability": "view",
      "type": "function"
    },
    {
      "inputs": [],
      "name": "getDistributorStaticData",
      "outputs": [
        {
          "internalType": "uint64",
          "name": "startTimestamp",
          "type": "uint64"
        },
        {
          "internalType": "uint64",
          "name": "deadlineTimestamp",
          "type": "uint64"
        },
        {
          "internalType": "uint256",
          "name": "minimumDonation",
          "type": "uint256"
        },
        {
          "internalType": "uint256",
          "name": "maximumDonation",
          "type": "uint256"
        },
        {
          "internalType": "uint256",
          "name": "donationGoalMin",
          "type": "uint256"
        },
        {
          "internalType": "uint256",
          "name": "donationGoalMax",
          "type": "uint256"
        },
        {
          "internalType": "address",
          "name": "donationToken",
          "type": "address"
        },
        {
          "internalType": "uint64",
          "name": "fullVestingSeconds",
          "type": "uint64"
        },
        {
          "internalType": "uint64",
          "name": "cliffSeconds",
          "type": "uint64"
        },
        {
          "internalType": "uint64",
          "name": "tgeUnlockRatio1e18",
          "type": "uint64"
        },
        {
          "internalType": "uint64",
          "name": "vestingFrequencySeconds",
          "type": "uint64"
        }
      ],
      "stateMutability": "nonpayable",
      "type": "function"
    },
    {
      "inputs": [
        {
          "internalType": "address",
          "name": "user",
          "type": "address"
        },
        {
          "internalType": "address",
          "name": "accessNft",
          "type": "address"
        }
      ],
      "name": "getMaximumDonationAmount",
      "outputs": [
        {
          "internalType": "uint256",
          "name": "",
          "type": "uint256"
        }
      ],
      "stateMutability": "view",
      "type": "function"
    },
    {
      "inputs": [
        {
          "internalType": "bytes32",
          "name": "role",
          "type": "bytes32"
        }
      ],
      "name": "getRoleAdmin",
      "outputs": [
        {
          "internalType": "bytes32",
          "name": "",
          "type": "bytes32"
        }
      ],
      "stateMutability": "view",
      "type": "function"
    },
    {
      "inputs": [
        {
          "internalType": "bytes32",
          "name": "role",
          "type": "bytes32"
        },
        {
          "internalType": "address",
          "name": "account",
          "type": "address"
        }
      ],
      "name": "hasRole",
      "outputs": [
        {
          "internalType": "bool",
          "name": "",
          "type": "bool"
        }
      ],
      "stateMutability": "view",
      "type": "function"
    },
    {
      "inputs": [
        {
          "internalType": "address",
          "name": "_accessControlSingleton",
          "type": "address"
        },
        {
          "internalType": "address",
          "name": "_suDAO",
          "type": "address"
        },
        {
          "internalType": "address",
          "name": "_veErc20",
          "type": "address"
        },
        {
          "internalType": "address",
          "name": "_bonusContract",
          "type": "address"
        }
      ],
      "name": "initialize",
      "outputs": [],
      "stateMutability": "nonpayable",
      "type": "function"
    },
    {
      "inputs": [],
      "name": "maximumDonation",
      "outputs": [
        {
          "internalType": "uint256",
          "name": "",
          "type": "uint256"
        }
      ],
      "stateMutability": "view",
      "type": "function"
    },
    {
      "inputs": [],
      "name": "minimumDonation",
      "outputs": [
        {
          "internalType": "uint256",
          "name": "",
          "type": "uint256"
        }
      ],
      "stateMutability": "view",
      "type": "function"
    },
    {
      "inputs": [
        {
          "internalType": "uint256",
          "name": "donationAmount",
          "type": "uint256"
        },
        {
          "internalType": "address",
          "name": "accessNft",
          "type": "address"
        }
      ],
      "name": "participate",
      "outputs": [],
      "stateMutability": "payable",
      "type": "function"
    },
    {
      "inputs": [
        {
          "internalType": "uint64",
          "name": "_startTimestamp",
          "type": "uint64"
        },
        {
          "internalType": "uint64",
          "name": "_deadlineTimestamp",
          "type": "uint64"
        },
        {
          "internalType": "uint256",
          "name": "_donationGoalMin",
          "type": "uint256"
        },
        {
          "internalType": "uint256",
          "name": "_donationGoalMax",
          "type": "uint256"
        },
        {
          "internalType": "uint256",
          "name": "_minimumDonation",
          "type": "uint256"
        },
        {
          "internalType": "uint256",
          "name": "_maximumDonation",
          "type": "uint256"
        },
        {
          "internalType": "address",
          "name": "_donationToken",
          "type": "address"
        },
        {
          "internalType": "uint64",
          "name": "_fullVestingSeconds",
          "type": "uint64"
        },
        {
          "internalType": "uint64",
          "name": "_cliffSeconds",
          "type": "uint64"
        },
        {
          "internalType": "uint64",
          "name": "_tgeUnlockRatio1e18",
          "type": "uint64"
        },
        {
          "internalType": "uint64",
          "name": "_vestingFrequencySeconds",
          "type": "uint64"
        }
      ],
      "name": "setDistributionInfo",
      "outputs": [],
      "stateMutability": "nonpayable",
      "type": "function"
    },
    {
      "inputs": [
        {
          "internalType": "address",
          "name": "accessNft",
          "type": "address"
        },
        {
          "internalType": "bool",
          "name": "valid",
          "type": "bool"
        }
      ],
      "name": "setNftAccess",
      "outputs": [],
      "stateMutability": "nonpayable",
      "type": "function"
    },
    {
      "inputs": [],
      "name": "startTimestamp",
      "outputs": [
        {
          "internalType": "uint64",
          "name": "",
          "type": "uint64"
        }
      ],
      "stateMutability": "view",
      "type": "function"
    },
    {
      "inputs": [
        {
          "internalType": "bytes4",
          "name": "interfaceId",
          "type": "bytes4"
        }
      ],
      "name": "supportsInterface",
      "outputs": [
        {
          "internalType": "bool",
          "name": "",
          "type": "bool"
        }
      ],
      "stateMutability": "view",
      "type": "function"
    },
    {
      "inputs": [],
      "name": "takeDonationBack",
      "outputs": [],
      "stateMutability": "nonpayable",
      "type": "function"
    },
    {
      "inputs": [],
      "name": "tgeUnlockRatio1e18",
      "outputs": [
        {
          "internalType": "uint64",
          "name": "",
          "type": "uint64"
        }
      ],
      "stateMutability": "view",
      "type": "function"
    },
    {
      "inputs": [],
      "name": "totalDonations",
      "outputs": [
        {
          "internalType": "uint256",
          "name": "",
          "type": "uint256"
        }
      ],
      "stateMutability": "view",
      "type": "function"
    },
    {
      "inputs": [],
      "name": "vestingFrequencySeconds",
      "outputs": [
        {
          "internalType": "uint64",
          "name": "",
          "type": "uint64"
        }
      ],
      "stateMutability": "view",
      "type": "function"
    },
    {
      "stateMutability": "payable",
      "type": "receive"
    }
  ],
  "numDeployments": 1,
  "solcInputHash": "f7ea498ab8c47a60e64e4e9fbd9b2f67",
  "bytecode": "0x608060405234801561001057600080fd5b50614421806100206000396000f3fe60806040526004361061021e5760003560e01c806395367f8911610123578063dc4eff7e116100ab578063f365642a1161006f578063f365642a146107fb578063f498446014610826578063f6d8414f14610863578063f8c8765e1461088e578063fee1d57c146108b757610225565b8063dc4eff7e14610738578063de2ed89314610763578063e6fd48bc1461078e578063e9c26518146107b9578063efb8f4fd146107e457610225565b80639dbf7935116100f25780639dbf79351461063f578063a217fddf1461067c578063a28835b6146106a7578063b5b8a68a146106d0578063cc6cb19a146106fb57610225565b806395367f891461058357806396d8f4f3146105ae5780639954a9bc146105d95780639d0c68461461060257610225565b806347b8ce3f116101a65780636c5a5428116101755780636c5a54281461048857806375b238fc146104c55780637b9fa8bd146104f05780638341ee721461051b57806391d148541461054657610225565b806347b8ce3f146103c05780634a591c6d146103fd5780635deb395b146104285780635e10448b1461045d57610225565b806313b18640116101ed57806313b18640146102e8578063248a9ca314610304578063303c1c8d1461034157806335864cdc1461036a578063445c4c8d1461039557610225565b806301ffc9a71461022a57806303ee9f22146102675780630afcdef5146102925780630df72159146102bd57610225565b3661022557005b600080fd5b34801561023657600080fd5b50610251600480360381019061024c9190612d26565b6108f4565b60405161025e9190612d6e565b60405180910390f35b34801561027357600080fd5b5061027c610999565b6040516102899190612e08565b60405180910390f35b34801561029e57600080fd5b506102a76109bf565b6040516102b49190612e46565b60405180910390f35b3480156102c957600080fd5b506102d26109d9565b6040516102df9190612e82565b60405180910390f35b61030260048036038101906102fd9190612eff565b6109ff565b005b34801561031057600080fd5b5061032b60048036038101906103269190612f75565b611136565b6040516103389190612fb1565b60405180910390f35b34801561034d57600080fd5b5061036860048036038101906103639190612ff8565b6111db565b005b34801561037657600080fd5b5061037f61167b565b60405161038c9190612e46565b60405180910390f35b3480156103a157600080fd5b506103aa611695565b6040516103b79190612e82565b60405180910390f35b3480156103cc57600080fd5b506103e760048036038101906103e291906130ec565b6116bb565b6040516103f49190613128565b60405180910390f35b34801561040957600080fd5b5061041261174f565b60405161041f9190613128565b60405180910390f35b34801561043457600080fd5b5061043d611755565b6040516104549b9a99989796959493929190613143565b60405180910390f35b34801561046957600080fd5b50610472611773565b60405161047f9190612e46565b60405180910390f35b34801561049457600080fd5b506104af60048036038101906104aa91906130ec565b61178d565b6040516104bc9190613128565b60405180910390f35b3480156104d157600080fd5b506104da6117b1565b6040516104e79190612fb1565b60405180910390f35b3480156104fc57600080fd5b506105056117d5565b6040516105129190613128565b60405180910390f35b34801561052757600080fd5b506105306117db565b60405161053d9190612e46565b60405180910390f35b34801561055257600080fd5b5061056d600480360381019061056891906131ee565b6117f5565b60405161057a9190612d6e565b60405180910390f35b34801561058f57600080fd5b5061059861189d565b6040516105a59190612fb1565b60405180910390f35b3480156105ba57600080fd5b506105c36118c1565b6040516105d09190613128565b60405180910390f35b3480156105e557600080fd5b5061060060048036038101906105fb919061325a565b6118c7565b005b34801561060e57600080fd5b506106296004803603810190610624919061329a565b611a00565b6040516106369190613128565b60405180910390f35b34801561064b57600080fd5b50610666600480360381019061066191906132da565b611afa565b60405161067391906133c5565b60405180910390f35b34801561068857600080fd5b50610691611c8c565b60405161069e9190612fb1565b60405180910390f35b3480156106b357600080fd5b506106ce60048036038101906106c99190613425565b611c93565b005b3480156106dc57600080fd5b506106e5611e9d565b6040516106f29190612e82565b60405180910390f35b34801561070757600080fd5b50610722600480360381019061071d91906132da565b611ec3565b60405161072f9190613128565b60405180910390f35b34801561074457600080fd5b5061074d611edb565b60405161075a9190612e82565b60405180910390f35b34801561076f57600080fd5b50610778611f01565b6040516107859190613128565b60405180910390f35b34801561079a57600080fd5b506107a3611f07565b6040516107b09190612e46565b60405180910390f35b3480156107c557600080fd5b506107ce611f21565b6040516107db9190612fb1565b60405180910390f35b3480156107f057600080fd5b506107f9611f28565b005b34801561080757600080fd5b5061081061219e565b60405161081d9190613128565b60405180910390f35b34801561083257600080fd5b5061084d600480360381019061084891906130ec565b6121a4565b60405161085a9190613128565b60405180910390f35b34801561086f57600080fd5b5061087861223b565b6040516108859190612e46565b60405180910390f35b34801561089a57600080fd5b506108b560048036038101906108b09190613452565b612255565b005b3480156108c357600080fd5b506108de60048036038101906108d991906130ec565b6124fa565b6040516108eb9190613128565b60405180910390f35b6000603360009054906101000a900473ffffffffffffffffffffffffffffffffffffffff1673ffffffffffffffffffffffffffffffffffffffff166301ffc9a7836040518263ffffffff1660e01b815260040161095191906134c8565b602060405180830381865afa15801561096e573d6000803e3d6000fd5b505050506040513d601f19601f8201168201806040525081019061099291906134f8565b9050919050565b603360009054906101000a900473ffffffffffffffffffffffffffffffffffffffff1681565b607160109054906101000a900467ffffffffffffffff1681565b607060009054906101000a900473ffffffffffffffffffffffffffffffffffffffff1681565b6000606d5403610a3b576040517f76d9f52e00000000000000000000000000000000000000000000000000000000815260040160405180910390fd5b606760149054906101000a900467ffffffffffffffff1667ffffffffffffffff16421080610a88575042606860009054906101000a900467ffffffffffffffff1667ffffffffffffffff16105b15610abf576040517fd3af728300000000000000000000000000000000000000000000000000000000815260040160405180910390fd5b610ad38160726125dd90919063ffffffff16565b610b1457806040517f7f2e188c000000000000000000000000000000000000000000000000000000008152600401610b0b9190612e82565b60405180910390fd5b60008173ffffffffffffffffffffffffffffffffffffffff166370a08231336040518263ffffffff1660e01b8152600401610b4f9190612e82565b602060405180830381865afa158015610b6c573d6000803e3d6000fd5b505050506040513d601f19601f82011682018060405250810190610b90919061353a565b03610bd45733816040517f8afa396a000000000000000000000000000000000000000000000000000000008152600401610bcb929190613567565b60405180910390fd5b6069548211610c18576040517f08c379a0000000000000000000000000000000000000000000000000000000008152600401610c0f90613613565b60405180910390fd5b6000606760009054906101000a900473ffffffffffffffffffffffffffffffffffffffff1673ffffffffffffffffffffffffffffffffffffffff16630e022923336040518263ffffffff1660e01b8152600401610c759190612e82565b602060405180830381865afa158015610c92573d6000803e3d6000fd5b505050506040513d601f19601f82011682018060405250810190610cb6919061353a565b90506000808214610cc75781610ccb565b606a545b90508084606e60003373ffffffffffffffffffffffffffffffffffffffff1673ffffffffffffffffffffffffffffffffffffffff16815260200190815260200160002054610d199190613662565b10610d59576040517f08c379a0000000000000000000000000000000000000000000000000000000008152600401610d509061372a565b60405180910390fd5b6000606760009054906101000a900473ffffffffffffffffffffffffffffffffffffffff1673ffffffffffffffffffffffffffffffffffffffff166306f2791a336040518263ffffffff1660e01b8152600401610db69190612e82565b602060405180830381865afa158015610dd3573d6000803e3d6000fd5b505050506040513d601f19601f82011682018060405250810190610df7919061353a565b90506000670de0b6b3a764000082670de0b6b3a7640000610e189190613662565b610e21886124fa565b610e2b919061374a565b610e3591906137d3565b9050610e86333088607060009054906101000a900473ffffffffffffffffffffffffffffffffffffffff1673ffffffffffffffffffffffffffffffffffffffff1661260d909392919063ffffffff16565b85606f54610e949190613662565b606f8190555085606e60003373ffffffffffffffffffffffffffffffffffffffff1673ffffffffffffffffffffffffffffffffffffffff16815260200190815260200160002054610ee59190613662565b606e60003373ffffffffffffffffffffffffffffffffffffffff1673ffffffffffffffffffffffffffffffffffffffff1681526020019081526020016000208190555080606660009054906101000a900473ffffffffffffffffffffffffffffffffffffffff1673ffffffffffffffffffffffffffffffffffffffff166370a08231306040518263ffffffff1660e01b8152600401610f849190612e82565b602060405180830381865afa158015610fa1573d6000803e3d6000fd5b505050506040513d601f19601f82011682018060405250810190610fc5919061353a565b1015611006576040517f08c379a0000000000000000000000000000000000000000000000000000000008152600401610ffd90613850565b60405180910390fd5b606560009054906101000a900473ffffffffffffffffffffffffffffffffffffffff1673ffffffffffffffffffffffffffffffffffffffff166393a56edc3383607060149054906101000a900467ffffffffffffffff16607160009054906101000a900467ffffffffffffffff16607160089054906101000a900467ffffffffffffffff16607160109054906101000a900467ffffffffffffffff166040518763ffffffff1660e01b81526004016110c3969594939291906138a1565b600060405180830381600087803b1580156110dd57600080fd5b505af11580156110f1573d6000803e3d6000fd5b505050507fb198f199c43cc078ad46e5a5fabe03eba401f7417816c86af0bd2e7345c995063387604051611126929190613902565b60405180910390a1505050505050565b6000603360009054906101000a900473ffffffffffffffffffffffffffffffffffffffff1673ffffffffffffffffffffffffffffffffffffffff1663248a9ca3836040518263ffffffff1660e01b81526004016111939190612fb1565b602060405180830381865afa1580156111b0573d6000803e3d6000fd5b505050506040513d601f19601f820116820180604052508101906111d49190613940565b9050919050565b7fa49807205ce4d355092ef5a8a18f56e8913cf4a201fbe287825b095693c21775603360009054906101000a900473ffffffffffffffffffffffffffffffffffffffff1673ffffffffffffffffffffffffffffffffffffffff166391d1485482336040518363ffffffff1660e01b815260040161125992919061396d565b602060405180830381865afa158015611276573d6000803e3d6000fd5b505050506040513d601f19601f8201168201806040525081019061129a91906134f8565b6112d9576040517f08c379a00000000000000000000000000000000000000000000000000000000081526004016112d0906139e2565b60405180910390fd5b8a67ffffffffffffffff168c67ffffffffffffffff161061132f576040517f08c379a000000000000000000000000000000000000000000000000000000000815260040161132690613a74565b60405180910390fd5b888a1115611372576040517f08c379a000000000000000000000000000000000000000000000000000000000815260040161136990613b06565b60405180910390fd5b868811156113b5576040517f08c379a00000000000000000000000000000000000000000000000000000000081526004016113ac90613b98565b60405180910390fd5b600073ffffffffffffffffffffffffffffffffffffffff168673ffffffffffffffffffffffffffffffffffffffff1603611424576040517f08c379a000000000000000000000000000000000000000000000000000000000815260040161141b90613c04565b60405180910390fd5b8467ffffffffffffffff168467ffffffffffffffff161061147a576040517f08c379a000000000000000000000000000000000000000000000000000000000815260040161147190613c70565b60405180910390fd5b670de0b6b3a76400008367ffffffffffffffff1611156114cf576040517f08c379a00000000000000000000000000000000000000000000000000000000081526004016114c690613d02565b60405180910390fd5b8b606760146101000a81548167ffffffffffffffff021916908367ffffffffffffffff1602179055508a606860006101000a81548167ffffffffffffffff021916908367ffffffffffffffff16021790555089606c8190555088606d819055508760698190555086606a8190555085607060006101000a81548173ffffffffffffffffffffffffffffffffffffffff021916908373ffffffffffffffffffffffffffffffffffffffff16021790555084607060146101000a81548167ffffffffffffffff021916908367ffffffffffffffff16021790555083607160006101000a81548167ffffffffffffffff021916908367ffffffffffffffff16021790555082607160086101000a81548167ffffffffffffffff021916908367ffffffffffffffff16021790555081607160106101000a81548167ffffffffffffffff021916908367ffffffffffffffff1602179055507fe81f01d972e8c23fba63a5e8b84c850255cc5b3427763906e1346ad28f1556a38c8c8c8c8c8c8c8c8c8c8c6040516116659b9a99989796959493929190613143565b60405180910390a1505050505050505050505050565b607060149054906101000a900467ffffffffffffffff1681565b606760009054906101000a900473ffffffffffffffffffffffffffffffffffffffff1681565b600080606b8054905090506000600190506000805b8381101561174357670de0b6b3a764000083606b83815481106116f6576116f5613d22565b5b906000526020600020015461170b919061374a565b61171591906137d3565b826117209190613662565b9150858361172e919061374a565b9250808061173b90613d51565b9150506116d0565b50809350505050919050565b606a5481565b6000806000806000806000806000806000909192939495969798999a565b607160089054906101000a900467ffffffffffffffff1681565b606b818154811061179d57600080fd5b906000526020600020016000915090505481565b7fa49807205ce4d355092ef5a8a18f56e8913cf4a201fbe287825b095693c2177581565b606c5481565b607160009054906101000a900467ffffffffffffffff1681565b6000603360009054906101000a900473ffffffffffffffffffffffffffffffffffffffff1673ffffffffffffffffffffffffffffffffffffffff166391d1485484846040518363ffffffff1660e01b815260040161185492919061396d565b602060405180830381865afa158015611871573d6000803e3d6000fd5b505050506040513d601f19601f8201168201806040525081019061189591906134f8565b905092915050565b7f0a7cc066f24e107ff77c42c8a1bdaf1a5f775fa4a74e45530aaf9c866368f65381565b60695481565b7fa49807205ce4d355092ef5a8a18f56e8913cf4a201fbe287825b095693c21775603360009054906101000a900473ffffffffffffffffffffffffffffffffffffffff1673ffffffffffffffffffffffffffffffffffffffff166391d1485482336040518363ffffffff1660e01b815260040161194592919061396d565b602060405180830381865afa158015611962573d6000803e3d6000fd5b505050506040513d601f19601f8201168201806040525081019061198691906134f8565b6119c5576040517f08c379a00000000000000000000000000000000000000000000000000000000081526004016119bc906139e2565b60405180910390fd5b81156119e5576119df83607261269690919063ffffffff16565b506119fb565b6119f98360726126c690919063ffffffff16565b505b505050565b6000808273ffffffffffffffffffffffffffffffffffffffff166370a08231336040518263ffffffff1660e01b8152600401611a3c9190612e82565b602060405180830381865afa158015611a59573d6000803e3d6000fd5b505050506040513d601f19601f82011682018060405250810190611a7d919061353a565b1115611aef57611ae8606e60008573ffffffffffffffffffffffffffffffffffffffff1673ffffffffffffffffffffffffffffffffffffffff16815260200190815260200160002054606a54611ad39190613d99565b606f54606d54611ae39190613d99565b6126f6565b9050611af4565b600090505b92915050565b60606000611b08607261270f565b905060008151905060008167ffffffffffffffff811115611b2c57611b2b613dcd565b5b604051908082528060200260200182016040528015611b5a5781602001602082028036833780820191505090505b50905060005b82811015611c80576000848281518110611b7d57611b7c613d22565b5b602002602001015173ffffffffffffffffffffffffffffffffffffffff166370a08231336040518263ffffffff1660e01b8152600401611bbd9190612e82565b602060405180830381865afa158015611bda573d6000803e3d6000fd5b505050506040513d601f19601f82011682018060405250810190611bfe919061353a565b1115611c6d57838181518110611c1757611c16613d22565b5b6020026020010151828281518110611c3257611c31613d22565b5b602002602001019073ffffffffffffffffffffffffffffffffffffffff16908173ffffffffffffffffffffffffffffffffffffffff16815250505b8080611c7890613d51565b915050611b60565b50809350505050919050565b6000801b81565b6000801b603360009054906101000a900473ffffffffffffffffffffffffffffffffffffffff1673ffffffffffffffffffffffffffffffffffffffff166391d1485482336040518363ffffffff1660e01b8152600401611cf492919061396d565b602060405180830381865afa158015611d11573d6000803e3d6000fd5b505050506040513d601f19601f82011682018060405250810190611d3591906134f8565b611d74576040517f08c379a0000000000000000000000000000000000000000000000000000000008152600401611d6b906139e2565b60405180910390fd5b600073ffffffffffffffffffffffffffffffffffffffff168273ffffffffffffffffffffffffffffffffffffffff1603611df4573373ffffffffffffffffffffffffffffffffffffffff166108fc479081150290604051600060405180830381858888f19350505050158015611dee573d6000803e3d6000fd5b50611e99565b611e98338373ffffffffffffffffffffffffffffffffffffffff166370a08231306040518263ffffffff1660e01b8152600401611e319190612e82565b602060405180830381865afa158015611e4e573d6000803e3d6000fd5b505050506040513d601f19601f82011682018060405250810190611e72919061353a565b8473ffffffffffffffffffffffffffffffffffffffff166127309092919063ffffffff16565b5b5050565b606560009054906101000a900473ffffffffffffffffffffffffffffffffffffffff1681565b606e6020528060005260406000206000915090505481565b606660009054906101000a900473ffffffffffffffffffffffffffffffffffffffff1681565b606f5481565b606760149054906101000a900467ffffffffffffffff1681565b6000801b81565b606860009054906101000a900467ffffffffffffffff1667ffffffffffffffff16421015611f8b576040517f08c379a0000000000000000000000000000000000000000000000000000000008152600401611f8290613e48565b60405180910390fd5b606c54606f5410611fd1576040517f08c379a0000000000000000000000000000000000000000000000000000000008152600401611fc890613eb4565b60405180910390fd5b6000606560009054906101000a900473ffffffffffffffffffffffffffffffffffffffff1673ffffffffffffffffffffffffffffffffffffffff166370a08231336040518263ffffffff1660e01b815260040161202e9190612e82565b602060405180830381865afa15801561204b573d6000803e3d6000fd5b505050506040513d601f19601f8201168201806040525081019061206f919061353a565b146120af576040517f08c379a00000000000000000000000000000000000000000000000000000000081526004016120a690613f46565b60405180910390fd5b6000606e60003373ffffffffffffffffffffffffffffffffffffffff1673ffffffffffffffffffffffffffffffffffffffff1681526020019081526020016000205490506000606e60003373ffffffffffffffffffffffffffffffffffffffff1673ffffffffffffffffffffffffffffffffffffffff1681526020019081526020016000208190555080606f546121469190613d99565b606f8190555061219b303383607060009054906101000a900473ffffffffffffffffffffffffffffffffffffffff1673ffffffffffffffffffffffffffffffffffffffff1661260d909392919063ffffffff16565b50565b606d5481565b600080606b80549050905060008390506000805b8381101561222f576001816121cd9190613662565b83606b83815481106121e2576121e1613d22565b5b90600052602060002001546121f7919061374a565b61220191906137d3565b8261220c9190613662565b9150858361221a919061374a565b9250808061222790613d51565b9150506121b8565b50809350505050919050565b606860009054906101000a900467ffffffffffffffff1681565b60008060019054906101000a900460ff161590508080156122865750600160008054906101000a900460ff1660ff16105b806122b35750612295306127b6565b1580156122b25750600160008054906101000a900460ff1660ff16145b5b6122f2576040517f08c379a00000000000000000000000000000000000000000000000000000000081526004016122e990613fd8565b60405180910390fd5b60016000806101000a81548160ff021916908360ff160217905550801561232f576001600060016101000a81548160ff0219169083151502179055505b612338856127d9565b83606660006101000a81548173ffffffffffffffffffffffffffffffffffffffff021916908373ffffffffffffffffffffffffffffffffffffffff16021790555082606560006101000a81548173ffffffffffffffffffffffffffffffffffffffff021916908373ffffffffffffffffffffffffffffffffffffffff16021790555081606760006101000a81548173ffffffffffffffffffffffffffffffffffffffff021916908373ffffffffffffffffffffffffffffffffffffffff1602179055508373ffffffffffffffffffffffffffffffffffffffff1663095ea7b3847fffffffffffffffffffffffffffffffffffffffffffffffffffffffffffffffff6040518363ffffffff1660e01b8152600401612456929190613902565b6020604051808303816000875af1158015612475573d6000803e3d6000fd5b505050506040513d601f19601f8201168201806040525081019061249991906134f8565b5080156124f35760008060016101000a81548160ff0219169083151502179055507f7f26b83ff96e1f2b6a682f133852f6798a09c465da95921460cefb384740249860016040516124ea9190614040565b60405180910390a15b5050505050565b600080612508606f546121a4565b9050600061252284606f5461251d9190613662565b6121a4565b90506125d4606660009054906101000a900473ffffffffffffffffffffffffffffffffffffffff1673ffffffffffffffffffffffffffffffffffffffff166370a08231306040518263ffffffff1660e01b81526004016125829190612e82565b602060405180830381865afa15801561259f573d6000803e3d6000fd5b505050506040513d601f19601f820116820180604052508101906125c3919061353a565b83836125cf9190613d99565b6126f6565b92505050919050565b6000612605836000018373ffffffffffffffffffffffffffffffffffffffff1660001b61286c565b905092915050565b612690846323b872dd60e01b85858560405160240161262e9392919061405b565b604051602081830303815290604052907bffffffffffffffffffffffffffffffffffffffffffffffffffffffff19166020820180517bffffffffffffffffffffffffffffffffffffffffffffffffffffffff838183161783525050505061288f565b50505050565b60006126be836000018373ffffffffffffffffffffffffffffffffffffffff1660001b612956565b905092915050565b60006126ee836000018373ffffffffffffffffffffffffffffffffffffffff1660001b6129c6565b905092915050565b60008183106127055781612707565b825b905092915050565b6060600061271f83600001612ada565b905060608190508092505050919050565b6127b18363a9059cbb60e01b848460405160240161274f929190613902565b604051602081830303815290604052907bffffffffffffffffffffffffffffffffffffffffffffffffffffffff19166020820180517bffffffffffffffffffffffffffffffffffffffffffffffffffffffff838183161783525050505061288f565b505050565b6000808273ffffffffffffffffffffffffffffffffffffffff163b119050919050565b600060019054906101000a900460ff16612828576040517f08c379a000000000000000000000000000000000000000000000000000000000815260040161281f90614104565b60405180910390fd5b80603360006101000a81548173ffffffffffffffffffffffffffffffffffffffff021916908373ffffffffffffffffffffffffffffffffffffffff16021790555050565b600080836001016000848152602001908152602001600020541415905092915050565b60006128f1826040518060400160405280602081526020017f5361666545524332303a206c6f772d6c6576656c2063616c6c206661696c65648152508573ffffffffffffffffffffffffffffffffffffffff16612b369092919063ffffffff16565b9050600081511115612951578080602001905181019061291191906134f8565b612950576040517f08c379a000000000000000000000000000000000000000000000000000000000815260040161294790614196565b60405180910390fd5b5b505050565b6000612962838361286c565b6129bb5782600001829080600181540180825580915050600190039060005260206000200160009091909190915055826000018054905083600101600084815260200190815260200160002081905550600190506129c0565b600090505b92915050565b60008083600101600084815260200190815260200160002054905060008114612ace5760006001826129f89190613d99565b9050600060018660000180549050612a109190613d99565b9050818114612a7f576000866000018281548110612a3157612a30613d22565b5b9060005260206000200154905080876000018481548110612a5557612a54613d22565b5b90600052602060002001819055508387600101600083815260200190815260200160002081905550505b85600001805480612a9357612a926141b6565b5b600190038181906000526020600020016000905590558560010160008681526020019081526020016000206000905560019350505050612ad4565b60009150505b92915050565b606081600001805480602002602001604051908101604052809291908181526020018280548015612b2a57602002820191906000526020600020905b815481526020019060010190808311612b16575b50505050509050919050565b6060612b458484600085612b4e565b90509392505050565b606082471015612b93576040517f08c379a0000000000000000000000000000000000000000000000000000000008152600401612b8a90614257565b60405180910390fd5b612b9c856127b6565b612bdb576040517f08c379a0000000000000000000000000000000000000000000000000000000008152600401612bd2906142c3565b60405180910390fd5b6000808673ffffffffffffffffffffffffffffffffffffffff168587604051612c04919061435d565b60006040518083038185875af1925050503d8060008114612c41576040519150601f19603f3d011682016040523d82523d6000602084013e612c46565b606091505b5091509150612c56828286612c62565b92505050949350505050565b60608315612c7257829050612cc2565b600083511115612c855782518084602001fd5b816040517f08c379a0000000000000000000000000000000000000000000000000000000008152600401612cb991906143c9565b60405180910390fd5b9392505050565b600080fd5b60007fffffffff0000000000000000000000000000000000000000000000000000000082169050919050565b612d0381612cce565b8114612d0e57600080fd5b50565b600081359050612d2081612cfa565b92915050565b600060208284031215612d3c57612d3b612cc9565b5b6000612d4a84828501612d11565b91505092915050565b60008115159050919050565b612d6881612d53565b82525050565b6000602082019050612d836000830184612d5f565b92915050565b600073ffffffffffffffffffffffffffffffffffffffff82169050919050565b6000819050919050565b6000612dce612dc9612dc484612d89565b612da9565b612d89565b9050919050565b6000612de082612db3565b9050919050565b6000612df282612dd5565b9050919050565b612e0281612de7565b82525050565b6000602082019050612e1d6000830184612df9565b92915050565b600067ffffffffffffffff82169050919050565b612e4081612e23565b82525050565b6000602082019050612e5b6000830184612e37565b92915050565b6000612e6c82612d89565b9050919050565b612e7c81612e61565b82525050565b6000602082019050612e976000830184612e73565b92915050565b6000819050919050565b612eb081612e9d565b8114612ebb57600080fd5b50565b600081359050612ecd81612ea7565b92915050565b612edc81612e61565b8114612ee757600080fd5b50565b600081359050612ef981612ed3565b92915050565b60008060408385031215612f1657612f15612cc9565b5b6000612f2485828601612ebe565b9250506020612f3585828601612eea565b9150509250929050565b6000819050919050565b612f5281612f3f565b8114612f5d57600080fd5b50565b600081359050612f6f81612f49565b92915050565b600060208284031215612f8b57612f8a612cc9565b5b6000612f9984828501612f60565b91505092915050565b612fab81612f3f565b82525050565b6000602082019050612fc66000830184612fa2565b92915050565b612fd581612e23565b8114612fe057600080fd5b50565b600081359050612ff281612fcc565b92915050565b60008060008060008060008060008060006101608c8e03121561301e5761301d612cc9565b5b600061302c8e828f01612fe3565b9b5050602061303d8e828f01612fe3565b9a5050604061304e8e828f01612ebe565b995050606061305f8e828f01612ebe565b98505060806130708e828f01612ebe565b97505060a06130818e828f01612ebe565b96505060c06130928e828f01612eea565b95505060e06130a38e828f01612fe3565b9450506101006130b58e828f01612fe3565b9350506101206130c78e828f01612fe3565b9250506101406130d98e828f01612fe3565b9150509295989b509295989b9093969950565b60006020828403121561310257613101612cc9565b5b600061311084828501612ebe565b91505092915050565b61312281612e9d565b82525050565b600060208201905061313d6000830184613119565b92915050565b600061016082019050613159600083018e612e37565b613166602083018d612e37565b613173604083018c613119565b613180606083018b613119565b61318d608083018a613119565b61319a60a0830189613119565b6131a760c0830188612e73565b6131b460e0830187612e37565b6131c2610100830186612e37565b6131d0610120830185612e37565b6131de610140830184612e37565b9c9b505050505050505050505050565b6000806040838503121561320557613204612cc9565b5b600061321385828601612f60565b925050602061322485828601612eea565b9150509250929050565b61323781612d53565b811461324257600080fd5b50565b6000813590506132548161322e565b92915050565b6000806040838503121561327157613270612cc9565b5b600061327f85828601612eea565b925050602061329085828601613245565b9150509250929050565b600080604083850312156132b1576132b0612cc9565b5b60006132bf85828601612eea565b92505060206132d085828601612eea565b9150509250929050565b6000602082840312156132f0576132ef612cc9565b5b60006132fe84828501612eea565b91505092915050565b600081519050919050565b600082825260208201905092915050565b6000819050602082019050919050565b61333c81612e61565b82525050565b600061334e8383613333565b60208301905092915050565b6000602082019050919050565b600061337282613307565b61337c8185613312565b935061338783613323565b8060005b838110156133b857815161339f8882613342565b97506133aa8361335a565b92505060018101905061338b565b5085935050505092915050565b600060208201905081810360008301526133df8184613367565b905092915050565b60006133f282612e61565b9050919050565b613402816133e7565b811461340d57600080fd5b50565b60008135905061341f816133f9565b92915050565b60006020828403121561343b5761343a612cc9565b5b600061344984828501613410565b91505092915050565b6000806000806080858703121561346c5761346b612cc9565b5b600061347a87828801612eea565b945050602061348b87828801612eea565b935050604061349c87828801612eea565b92505060606134ad87828801612eea565b91505092959194509250565b6134c281612cce565b82525050565b60006020820190506134dd60008301846134b9565b92915050565b6000815190506134f28161322e565b92915050565b60006020828403121561350e5761350d612cc9565b5b600061351c848285016134e3565b91505092915050565b60008151905061353481612ea7565b92915050565b6000602082840312156135505761354f612cc9565b5b600061355e84828501613525565b91505092915050565b600060408201905061357c6000830185612e73565b6135896020830184612e73565b9392505050565b600082825260208201905092915050565b7f596f757220646f6e6174696f6e2073686f756c6420626520677265617465722060008201527f7468616e206d696e696d756d20646f6e6174696f6e0000000000000000000000602082015250565b60006135fd603583613590565b9150613608826135a1565b604082019050919050565b6000602082019050818103600083015261362c816135f0565b9050919050565b7f4e487b7100000000000000000000000000000000000000000000000000000000600052601160045260246000fd5b600061366d82612e9d565b915061367883612e9d565b9250827fffffffffffffffffffffffffffffffffffffffffffffffffffffffffffffffff038211156136ad576136ac613633565b5b828201905092915050565b7f596f757220646f6e6174696f6e732073686f756c64206265206c65737320746860008201527f616e206d617820646f6e6174696f6e0000000000000000000000000000000000602082015250565b6000613714602f83613590565b915061371f826136b8565b604082019050919050565b6000602082019050818103600083015261374381613707565b9050919050565b600061375582612e9d565b915061376083612e9d565b9250817fffffffffffffffffffffffffffffffffffffffffffffffffffffffffffffffff048311821515161561379957613798613633565b5b828202905092915050565b7f4e487b7100000000000000000000000000000000000000000000000000000000600052601260045260246000fd5b60006137de82612e9d565b91506137e983612e9d565b9250826137f9576137f86137a4565b5b828204905092915050565b7f6e6f7420656e6f75676820726577617264206c65667400000000000000000000600082015250565b600061383a601683613590565b915061384582613804565b602082019050919050565b600060208201905081810360008301526138698161382d565b9050919050565b600061388b61388661388184612e23565b612da9565b612e9d565b9050919050565b61389b81613870565b82525050565b600060c0820190506138b66000830189612e73565b6138c36020830188613119565b6138d06040830187613892565b6138dd6060830186613892565b6138ea6080830185613892565b6138f760a0830184613892565b979650505050505050565b60006040820190506139176000830185612e73565b6139246020830184613119565b9392505050565b60008151905061393a81612f49565b92915050565b60006020828403121561395657613955612cc9565b5b60006139648482850161392b565b91505092915050565b60006040820190506139826000830185612fa2565b61398f6020830184612e73565b9392505050565b7f4f6e6c79526f6c654572726f7200000000000000000000000000000000000000600082015250565b60006139cc600d83613590565b91506139d782613996565b602082019050919050565b600060208201905081810360008301526139fb816139bf565b9050919050565b7f215f737461727454696d657374616d70203c205f646561646c696e6554696d6560008201527f7374616d70000000000000000000000000000000000000000000000000000000602082015250565b6000613a5e602583613590565b9150613a6982613a02565b604082019050919050565b60006020820190508181036000830152613a8d81613a51565b9050919050565b7f21646f6e6174696f6e476f616c4d696e203c3d20646f6e6174696f6e476f616c60008201527f4d61780000000000000000000000000000000000000000000000000000000000602082015250565b6000613af0602383613590565b9150613afb82613a94565b604082019050919050565b60006020820190508181036000830152613b1f81613ae3565b9050919050565b7f216d696e696d756d446f6e6174696f6e557364203c3d206d6178696d756d446f60008201527f6e6174696f6e5573640000000000000000000000000000000000000000000000602082015250565b6000613b82602983613590565b9150613b8d82613b26565b604082019050919050565b60006020820190508181036000830152613bb181613b75565b9050919050565b7f646f6e6174696f6e546f6b656e206973206e756c6c0000000000000000000000600082015250565b6000613bee601583613590565b9150613bf982613bb8565b602082019050919050565b60006020820190508181036000830152613c1d81613be1565b9050919050565b7f21636c696666207365636f6e6473203c2076657374696e67207365636f6e6473600082015250565b6000613c5a602083613590565b9150613c6582613c24565b602082019050919050565b60006020820190508181036000830152613c8981613c4d565b9050919050565b7f746765556e6c6f636b526174696f2073686f756c64206265206c65737320746860008201527f616e203100000000000000000000000000000000000000000000000000000000602082015250565b6000613cec602483613590565b9150613cf782613c90565b604082019050919050565b60006020820190508181036000830152613d1b81613cdf565b9050919050565b7f4e487b7100000000000000000000000000000000000000000000000000000000600052603260045260246000fd5b6000613d5c82612e9d565b91507fffffffffffffffffffffffffffffffffffffffffffffffffffffffffffffffff8203613d8e57613d8d613633565b5b600182019050919050565b6000613da482612e9d565b9150613daf83612e9d565b925082821015613dc257613dc1613633565b5b828203905092915050565b7f4e487b7100000000000000000000000000000000000000000000000000000000600052604160045260246000fd5b7f50617274696369706174696f6e20686173206e6f742079657420656e64656400600082015250565b6000613e32601f83613590565b9150613e3d82613dfc565b602082019050919050565b60006020820190508181036000830152613e6181613e25565b9050919050565b7f4d696e20676f616c207265616368656400000000000000000000000000000000600082015250565b6000613e9e601083613590565b9150613ea982613e68565b602082019050919050565b60006020820190508181036000830152613ecd81613e91565b9050919050565b7f596f752073686f756c6420646f6e61746520616c6c20796f757220746f6b656e60008201527f7320696e20766545524332300000000000000000000000000000000000000000602082015250565b6000613f30602c83613590565b9150613f3b82613ed4565b604082019050919050565b60006020820190508181036000830152613f5f81613f23565b9050919050565b7f496e697469616c697a61626c653a20636f6e747261637420697320616c72656160008201527f647920696e697469616c697a6564000000000000000000000000000000000000602082015250565b6000613fc2602e83613590565b9150613fcd82613f66565b604082019050919050565b60006020820190508181036000830152613ff181613fb5565b9050919050565b6000819050919050565b600060ff82169050919050565b600061402a61402561402084613ff8565b612da9565b614002565b9050919050565b61403a8161400f565b82525050565b60006020820190506140556000830184614031565b92915050565b60006060820190506140706000830186612e73565b61407d6020830185612e73565b61408a6040830184613119565b949350505050565b7f496e697469616c697a61626c653a20636f6e7472616374206973206e6f74206960008201527f6e697469616c697a696e67000000000000000000000000000000000000000000602082015250565b60006140ee602b83613590565b91506140f982614092565b604082019050919050565b6000602082019050818103600083015261411d816140e1565b9050919050565b7f5361666545524332303a204552433230206f7065726174696f6e20646964206e60008201527f6f74207375636365656400000000000000000000000000000000000000000000602082015250565b6000614180602a83613590565b915061418b82614124565b604082019050919050565b600060208201905081810360008301526141af81614173565b9050919050565b7f4e487b7100000000000000000000000000000000000000000000000000000000600052603160045260246000fd5b7f416464726573733a20696e73756666696369656e742062616c616e636520666f60008201527f722063616c6c0000000000000000000000000000000000000000000000000000602082015250565b6000614241602683613590565b915061424c826141e5565b604082019050919050565b6000602082019050818103600083015261427081614234565b9050919050565b7f416464726573733a2063616c6c20746f206e6f6e2d636f6e7472616374000000600082015250565b60006142ad601d83613590565b91506142b882614277565b602082019050919050565b600060208201905081810360008301526142dc816142a0565b9050919050565b600081519050919050565b600081905092915050565b60005b838110156143175780820151818401526020810190506142fc565b83811115614326576000848401525b50505050565b6000614337826142e3565b61434181856142ee565b93506143518185602086016142f9565b80840191505092915050565b6000614369828461432c565b915081905092915050565b600081519050919050565b6000601f19601f8301169050919050565b600061439b82614374565b6143a58185613590565b93506143b58185602086016142f9565b6143be8161437f565b840191505092915050565b600060208201905081810360008301526143e38184614390565b90509291505056fea2646970667358221220335be328b29f2c5b50346e58ddc49947778ca16e969bb6287ae4b692336dc42b64736f6c634300080f0033",
  "devdoc": {
    "kind": "dev",
    "methods": {
      "adminWithdraw(address)": {
        "details": "The owner can't take away SuDAO token already distributed to users, because they are stored on timelockVault"
      }
    },
    "stateVariables": {
      "__gap": {
        "details": "This empty reserved space is put in place to allow future versions to add new variables without shifting down storage in the inheritance chain. See https://docs.openzeppelin.com/contracts/4.x/upgradeable#storage_gaps"
      }
    },
    "title": "The contract that distribute suDAO tokens for community based on NFT membership",
    "version": 1
  },
  "userdoc": {
    "kind": "user",
    "methods": {
      "adminWithdraw(address)": {
        "notice": "The owner of the contact can take away tokens sent to the contract."
      },
      "getMaximumDonationAmount(address,address)": {
        "notice": "Get the max donation that user can do"
      },
      "participate(uint256,address)": {
        "notice": "notice Allows to participate for users with required NFT param donationAmount The amount of tokens specified in donationToken"
      },
      "setDistributionInfo(uint64,uint64,uint256,uint256,uint256,uint256,address,uint64,uint64,uint64,uint64)": {
        "notice": "The owner can set new or edit existing token distribution with no restrictions"
      }
    },
    "version": 1
  },
  "storageLayout": {
    "storage": [
      {
        "astId": 497,
        "contract": "contracts/distributions/TokenDistributorV4.sol:TokenDistributorV4",
        "label": "_initialized",
        "offset": 0,
        "slot": "0",
        "type": "t_uint8"
      },
      {
        "astId": 500,
        "contract": "contracts/distributions/TokenDistributorV4.sol:TokenDistributorV4",
        "label": "_initializing",
        "offset": 1,
        "slot": "0",
        "type": "t_bool"
      },
      {
        "astId": 2868,
        "contract": "contracts/distributions/TokenDistributorV4.sol:TokenDistributorV4",
        "label": "__gap",
        "offset": 0,
        "slot": "1",
        "type": "t_array(t_uint256)50_storage"
      },
      {
        "astId": 10494,
        "contract": "contracts/distributions/TokenDistributorV4.sol:TokenDistributorV4",
        "label": "ACCESS_CONTROL_SINGLETON",
        "offset": 0,
        "slot": "51",
        "type": "t_contract(ISuAccessControl)11645"
      },
      {
        "astId": 10578,
        "contract": "contracts/distributions/TokenDistributorV4.sol:TokenDistributorV4",
        "label": "__gap",
        "offset": 0,
        "slot": "52",
        "type": "t_array(t_uint256)49_storage"
      },
      {
        "astId": 10634,
        "contract": "contracts/distributions/TokenDistributorV4.sol:TokenDistributorV4",
        "label": "VE_ERC_20",
        "offset": 0,
        "slot": "101",
        "type": "t_address"
      },
      {
        "astId": 10636,
        "contract": "contracts/distributions/TokenDistributorV4.sol:TokenDistributorV4",
        "label": "SU_DAO",
        "offset": 0,
        "slot": "102",
        "type": "t_address"
      },
      {
        "astId": 10638,
        "contract": "contracts/distributions/TokenDistributorV4.sol:TokenDistributorV4",
        "label": "BONUS_CONTRACT",
        "offset": 0,
        "slot": "103",
        "type": "t_address"
      },
      {
        "astId": 10640,
        "contract": "contracts/distributions/TokenDistributorV4.sol:TokenDistributorV4",
        "label": "startTimestamp",
        "offset": 20,
        "slot": "103",
        "type": "t_uint64"
      },
      {
        "astId": 10642,
        "contract": "contracts/distributions/TokenDistributorV4.sol:TokenDistributorV4",
        "label": "deadlineTimestamp",
        "offset": 0,
        "slot": "104",
        "type": "t_uint64"
      },
      {
        "astId": 10644,
        "contract": "contracts/distributions/TokenDistributorV4.sol:TokenDistributorV4",
        "label": "minimumDonation",
        "offset": 0,
        "slot": "105",
        "type": "t_uint256"
      },
      {
        "astId": 10646,
        "contract": "contracts/distributions/TokenDistributorV4.sol:TokenDistributorV4",
        "label": "maximumDonation",
        "offset": 0,
        "slot": "106",
        "type": "t_uint256"
      },
      {
        "astId": 10649,
        "contract": "contracts/distributions/TokenDistributorV4.sol:TokenDistributorV4",
        "label": "bondingCurvePolynomial1e18",
        "offset": 0,
        "slot": "107",
        "type": "t_array(t_uint256)dyn_storage"
      },
      {
        "astId": 10651,
        "contract": "contracts/distributions/TokenDistributorV4.sol:TokenDistributorV4",
        "label": "donationGoalMin",
        "offset": 0,
        "slot": "108",
        "type": "t_uint256"
      },
      {
        "astId": 10653,
        "contract": "contracts/distributions/TokenDistributorV4.sol:TokenDistributorV4",
        "label": "donationGoalMax",
        "offset": 0,
        "slot": "109",
        "type": "t_uint256"
      },
      {
        "astId": 10657,
        "contract": "contracts/distributions/TokenDistributorV4.sol:TokenDistributorV4",
        "label": "donations",
        "offset": 0,
        "slot": "110",
        "type": "t_mapping(t_address,t_uint256)"
      },
      {
        "astId": 10659,
        "contract": "contracts/distributions/TokenDistributorV4.sol:TokenDistributorV4",
        "label": "totalDonations",
        "offset": 0,
        "slot": "111",
        "type": "t_uint256"
      },
      {
        "astId": 10661,
        "contract": "contracts/distributions/TokenDistributorV4.sol:TokenDistributorV4",
        "label": "donationToken",
        "offset": 0,
        "slot": "112",
        "type": "t_address"
      },
      {
        "astId": 10663,
        "contract": "contracts/distributions/TokenDistributorV4.sol:TokenDistributorV4",
        "label": "fullVestingSeconds",
        "offset": 20,
        "slot": "112",
        "type": "t_uint64"
      },
      {
        "astId": 10665,
        "contract": "contracts/distributions/TokenDistributorV4.sol:TokenDistributorV4",
        "label": "cliffSeconds",
        "offset": 0,
        "slot": "113",
        "type": "t_uint64"
      },
      {
        "astId": 10667,
        "contract": "contracts/distributions/TokenDistributorV4.sol:TokenDistributorV4",
        "label": "tgeUnlockRatio1e18",
        "offset": 8,
        "slot": "113",
        "type": "t_uint64"
      },
      {
        "astId": 10669,
        "contract": "contracts/distributions/TokenDistributorV4.sol:TokenDistributorV4",
        "label": "vestingFrequencySeconds",
        "offset": 16,
        "slot": "113",
        "type": "t_uint64"
      },
      {
        "astId": 10676,
        "contract": "contracts/distributions/TokenDistributorV4.sol:TokenDistributorV4",
        "label": "nftRequirement",
        "offset": 0,
        "slot": "114",
        "type": "t_struct(AddressSet)9249_storage"
      },
      {
        "astId": 11523,
        "contract": "contracts/distributions/TokenDistributorV4.sol:TokenDistributorV4",
        "label": "__gap",
        "offset": 0,
        "slot": "116",
        "type": "t_array(t_uint256)49_storage"
      }
    ],
    "types": {
      "t_address": {
        "encoding": "inplace",
        "label": "address",
        "numberOfBytes": "20"
      },
      "t_array(t_bytes32)dyn_storage": {
        "base": "t_bytes32",
        "encoding": "dynamic_array",
        "label": "bytes32[]",
        "numberOfBytes": "32"
      },
      "t_array(t_uint256)49_storage": {
        "base": "t_uint256",
        "encoding": "inplace",
        "label": "uint256[49]",
        "numberOfBytes": "1568"
      },
      "t_array(t_uint256)50_storage": {
        "base": "t_uint256",
        "encoding": "inplace",
        "label": "uint256[50]",
        "numberOfBytes": "1600"
      },
      "t_array(t_uint256)dyn_storage": {
        "base": "t_uint256",
        "encoding": "dynamic_array",
        "label": "uint256[]",
        "numberOfBytes": "32"
      },
      "t_bool": {
        "encoding": "inplace",
        "label": "bool",
        "numberOfBytes": "1"
      },
      "t_bytes32": {
        "encoding": "inplace",
        "label": "bytes32",
        "numberOfBytes": "32"
      },
      "t_contract(ISuAccessControl)11645": {
        "encoding": "inplace",
        "label": "contract ISuAccessControl",
        "numberOfBytes": "20"
      },
      "t_mapping(t_address,t_uint256)": {
        "encoding": "mapping",
        "key": "t_address",
        "label": "mapping(address => uint256)",
        "numberOfBytes": "32",
        "value": "t_uint256"
      },
      "t_mapping(t_bytes32,t_uint256)": {
        "encoding": "mapping",
        "key": "t_bytes32",
        "label": "mapping(bytes32 => uint256)",
        "numberOfBytes": "32",
        "value": "t_uint256"
      },
      "t_struct(AddressSet)9249_storage": {
        "encoding": "inplace",
        "label": "struct EnumerableSet.AddressSet",
        "members": [
          {
            "astId": 9248,
            "contract": "contracts/distributions/TokenDistributorV4.sol:TokenDistributorV4",
            "label": "_inner",
            "offset": 0,
            "slot": "0",
            "type": "t_struct(Set)8948_storage"
          }
        ],
        "numberOfBytes": "64"
      },
      "t_struct(Set)8948_storage": {
        "encoding": "inplace",
        "label": "struct EnumerableSet.Set",
        "members": [
          {
            "astId": 8943,
            "contract": "contracts/distributions/TokenDistributorV4.sol:TokenDistributorV4",
            "label": "_values",
            "offset": 0,
            "slot": "0",
            "type": "t_array(t_bytes32)dyn_storage"
          },
          {
            "astId": 8947,
            "contract": "contracts/distributions/TokenDistributorV4.sol:TokenDistributorV4",
            "label": "_indexes",
            "offset": 0,
            "slot": "1",
            "type": "t_mapping(t_bytes32,t_uint256)"
          }
        ],
        "numberOfBytes": "64"
      },
      "t_uint256": {
        "encoding": "inplace",
        "label": "uint256",
        "numberOfBytes": "32"
      },
      "t_uint64": {
        "encoding": "inplace",
        "label": "uint64",
        "numberOfBytes": "8"
      },
      "t_uint8": {
        "encoding": "inplace",
        "label": "uint8",
        "numberOfBytes": "1"
      }
    }
  }
}