{
  "address": "0x86c6b7374cda28344A2c0B81A1911B38A4F53Cd6",
  "abi": [
    {
      "inputs": [
        {
          "internalType": "address",
          "name": "accessNft",
          "type": "address"
        }
      ],
      "name": "AccessNftNotValidError",
      "type": "error"
    },
    {
      "inputs": [],
      "name": "DistributionTimeframeError",
      "type": "error"
    },
    {
      "inputs": [],
      "name": "DonationAmountError",
      "type": "error"
    },
    {
      "inputs": [
        {
          "internalType": "uint256",
          "name": "minGaol",
          "type": "uint256"
        },
        {
          "internalType": "uint256",
          "name": "maxGoal",
          "type": "uint256"
        },
        {
          "internalType": "uint256",
          "name": "totalDonations",
          "type": "uint256"
        }
      ],
      "name": "DonationGoalError",
      "type": "error"
    },
    {
      "inputs": [],
      "name": "DonationTokenError",
      "type": "error"
    },
    {
      "inputs": [
        {
          "internalType": "uint256",
          "name": "x",
          "type": "uint256"
        }
      ],
      "name": "NegativeAntiderivative",
      "type": "error"
    },
    {
      "inputs": [
        {
          "internalType": "address",
          "name": "account",
          "type": "address"
        },
        {
          "internalType": "address",
          "name": "accessNft",
          "type": "address"
        }
      ],
      "name": "NoAccessNftError",
      "type": "error"
    },
    {
      "inputs": [],
      "name": "NoActiveDistributionError",
      "type": "error"
    },
    {
      "inputs": [
        {
          "internalType": "uint256",
          "name": "donationAmountUsd1e18",
          "type": "uint256"
        }
      ],
      "name": "NotEnoughRewardLeft",
      "type": "error"
    },
    {
      "inputs": [
        {
          "internalType": "bytes32",
          "name": "role",
          "type": "bytes32"
        },
        {
          "internalType": "address",
          "name": "msgSender",
          "type": "address"
        }
      ],
      "name": "OnlyRoleError",
      "type": "error"
    },
    {
      "inputs": [],
      "name": "VestingError",
      "type": "error"
    },
    {
      "anonymous": false,
      "inputs": [
        {
          "indexed": false,
          "internalType": "uint8",
          "name": "version",
          "type": "uint8"
        }
      ],
      "name": "Initialized",
      "type": "event"
    },
    {
      "anonymous": false,
      "inputs": [
        {
          "indexed": false,
          "internalType": "address",
          "name": "msg_sender",
          "type": "address"
        },
        {
          "indexed": false,
          "internalType": "uint256",
          "name": "donationAmount",
          "type": "uint256"
        }
      ],
      "name": "Participated",
      "type": "event"
    },
    {
      "inputs": [],
      "name": "ACCESS_CONTROL_SINGLETON",
      "outputs": [
        {
          "internalType": "contract ISuAccessControl",
          "name": "",
          "type": "address"
        }
      ],
      "stateMutability": "view",
      "type": "function"
    },
    {
      "inputs": [],
      "name": "ADMIN_ROLE",
      "outputs": [
        {
          "internalType": "bytes32",
          "name": "",
          "type": "bytes32"
        }
      ],
      "stateMutability": "view",
      "type": "function"
    },
    {
      "inputs": [],
      "name": "BONUS_CONTRACT",
      "outputs": [
        {
          "internalType": "contract IBonus",
          "name": "",
          "type": "address"
        }
      ],
      "stateMutability": "view",
      "type": "function"
    },
    {
      "inputs": [],
      "name": "COMMUNITY_ADMIN_ROLE",
      "outputs": [
        {
          "internalType": "bytes32",
          "name": "",
          "type": "bytes32"
        }
      ],
      "stateMutability": "view",
      "type": "function"
    },
    {
      "inputs": [],
      "name": "DAO_ROLE",
      "outputs": [
        {
          "internalType": "bytes32",
          "name": "",
          "type": "bytes32"
        }
      ],
      "stateMutability": "view",
      "type": "function"
    },
    {
      "inputs": [],
      "name": "DEFAULT_ADMIN_ROLE",
      "outputs": [
        {
          "internalType": "bytes32",
          "name": "",
          "type": "bytes32"
        }
      ],
      "stateMutability": "view",
      "type": "function"
    },
    {
      "inputs": [],
      "name": "SU_DAO",
      "outputs": [
        {
          "internalType": "address",
          "name": "",
          "type": "address"
        }
      ],
      "stateMutability": "view",
      "type": "function"
    },
    {
      "inputs": [],
      "name": "VE_ERC_20",
      "outputs": [
        {
          "internalType": "address",
          "name": "",
          "type": "address"
        }
      ],
      "stateMutability": "view",
      "type": "function"
    },
    {
      "inputs": [
        {
          "internalType": "uint256",
          "name": "x",
          "type": "uint256"
        }
      ],
      "name": "antiderivativeOfBondingCurvePolynomial1e18At",
      "outputs": [
        {
          "internalType": "uint256",
          "name": "",
          "type": "uint256"
        }
      ],
      "stateMutability": "view",
      "type": "function"
    },
    {
      "inputs": [
        {
          "internalType": "uint256",
          "name": "",
          "type": "uint256"
        }
      ],
      "name": "bondingCurvePolynomial1e18",
      "outputs": [
        {
          "internalType": "int256",
          "name": "",
          "type": "int256"
        }
      ],
      "stateMutability": "view",
      "type": "function"
    },
    {
      "inputs": [
        {
          "internalType": "uint256",
          "name": "x",
          "type": "uint256"
        }
      ],
      "name": "bondingCurvePolynomial1e18At",
      "outputs": [
        {
          "internalType": "int256",
          "name": "",
          "type": "int256"
        }
      ],
      "stateMutability": "view",
      "type": "function"
    },
    {
      "inputs": [],
      "name": "bonusStats",
      "outputs": [
        {
          "internalType": "uint256",
          "name": "bonusRewarded",
          "type": "uint256"
        }
      ],
      "stateMutability": "view",
      "type": "function"
    },
    {
      "inputs": [],
      "name": "cliffSeconds",
      "outputs": [
        {
          "internalType": "uint64",
          "name": "",
          "type": "uint64"
        }
      ],
      "stateMutability": "view",
      "type": "function"
    },
    {
      "inputs": [
        {
          "internalType": "contract IERC20Upgradeable",
          "name": "token",
          "type": "address"
        },
        {
          "internalType": "address",
          "name": "to",
          "type": "address"
        },
        {
          "internalType": "uint256",
          "name": "amount",
          "type": "uint256"
        }
      ],
      "name": "daoWithdraw",
      "outputs": [],
      "stateMutability": "nonpayable",
      "type": "function"
    },
    {
      "inputs": [],
      "name": "deadlineTimestamp",
      "outputs": [
        {
          "internalType": "uint64",
          "name": "",
          "type": "uint64"
        }
      ],
      "stateMutability": "view",
      "type": "function"
    },
    {
      "inputs": [],
      "name": "donationGoalMax",
      "outputs": [
        {
          "internalType": "uint256",
          "name": "",
          "type": "uint256"
        }
      ],
      "stateMutability": "view",
      "type": "function"
    },
    {
      "inputs": [],
      "name": "donationGoalMin",
      "outputs": [
        {
          "internalType": "uint256",
          "name": "",
          "type": "uint256"
        }
      ],
      "stateMutability": "view",
      "type": "function"
    },
    {
      "inputs": [],
      "name": "donationToken",
      "outputs": [
        {
          "internalType": "address",
          "name": "",
          "type": "address"
        }
      ],
      "stateMutability": "view",
      "type": "function"
    },
    {
      "inputs": [],
      "name": "donationTokenToUSD1e18",
      "outputs": [
        {
          "internalType": "uint256",
          "name": "",
          "type": "uint256"
        }
      ],
      "stateMutability": "view",
      "type": "function"
    },
    {
      "inputs": [
        {
          "internalType": "address",
          "name": "",
          "type": "address"
        }
      ],
      "name": "donations",
      "outputs": [
        {
          "internalType": "uint256",
          "name": "",
          "type": "uint256"
        }
      ],
      "stateMutability": "view",
      "type": "function"
    },
    {
      "inputs": [],
      "name": "fullVestingSeconds",
      "outputs": [
        {
          "internalType": "uint64",
          "name": "",
          "type": "uint64"
        }
      ],
      "stateMutability": "view",
      "type": "function"
    },
    {
      "inputs": [],
      "name": "getAccessNfts",
      "outputs": [
        {
          "internalType": "address[]",
          "name": "",
          "type": "address[]"
        }
      ],
      "stateMutability": "view",
      "type": "function"
    },
    {
      "inputs": [
        {
          "internalType": "address",
          "name": "account",
          "type": "address"
        }
      ],
      "name": "getAccessNftsForUser",
      "outputs": [
        {
          "internalType": "address[]",
          "name": "",
          "type": "address[]"
        }
      ],
      "stateMutability": "view",
      "type": "function"
    },
    {
      "inputs": [
        {
          "internalType": "uint256",
          "name": "donationAmountUSD1e18",
          "type": "uint256"
        }
      ],
      "name": "getBondingCurveRewardAmountFromDonationUSD",
      "outputs": [
        {
          "internalType": "uint256",
          "name": "",
          "type": "uint256"
        }
      ],
      "stateMutability": "view",
      "type": "function"
    },
    {
      "inputs": [],
      "name": "getDistributorStaticData",
      "outputs": [
        {
          "internalType": "uint64",
          "name": "startTimestamp_",
          "type": "uint64"
        },
        {
          "internalType": "uint64",
          "name": "deadlineTimestamp_",
          "type": "uint64"
        },
        {
          "internalType": "uint256",
          "name": "minimumDonation_",
          "type": "uint256"
        },
        {
          "internalType": "uint256",
          "name": "maximumDonation_",
          "type": "uint256"
        },
        {
          "internalType": "uint256",
          "name": "donationGoalMin_",
          "type": "uint256"
        },
        {
          "internalType": "uint256",
          "name": "donationGoalMax_",
          "type": "uint256"
        },
        {
          "internalType": "address",
          "name": "donationToken_",
          "type": "address"
        },
        {
          "internalType": "uint64",
          "name": "fullVestingSeconds_",
          "type": "uint64"
        },
        {
          "internalType": "uint64",
          "name": "cliffSeconds_",
          "type": "uint64"
        },
        {
          "internalType": "uint64",
          "name": "tgeUnlockRatio1e18_",
          "type": "uint64"
        },
        {
          "internalType": "uint64",
          "name": "vestingFrequencySeconds_",
          "type": "uint64"
        }
      ],
      "stateMutability": "view",
      "type": "function"
    },
    {
      "inputs": [
        {
          "internalType": "address",
          "name": "user",
          "type": "address"
        },
        {
          "internalType": "address",
          "name": "accessNft",
          "type": "address"
        }
      ],
      "name": "getMaximumDonationAmount",
      "outputs": [
        {
          "internalType": "uint256",
          "name": "",
          "type": "uint256"
        }
      ],
      "stateMutability": "view",
      "type": "function"
    },
    {
      "inputs": [
        {
          "internalType": "bytes32",
          "name": "role",
          "type": "bytes32"
        }
      ],
      "name": "getRoleAdmin",
      "outputs": [
        {
          "internalType": "bytes32",
          "name": "",
          "type": "bytes32"
        }
      ],
      "stateMutability": "view",
      "type": "function"
    },
    {
      "inputs": [
        {
          "internalType": "bytes32",
          "name": "role",
          "type": "bytes32"
        },
        {
          "internalType": "address",
          "name": "account",
          "type": "address"
        }
      ],
      "name": "hasRole",
      "outputs": [
        {
          "internalType": "bool",
          "name": "",
          "type": "bool"
        }
      ],
      "stateMutability": "view",
      "type": "function"
    },
    {
      "inputs": [
        {
          "internalType": "address",
          "name": "_accessControlSingleton",
          "type": "address"
        },
        {
          "internalType": "address",
          "name": "_suDAO",
          "type": "address"
        },
        {
          "internalType": "address",
          "name": "_veErc20",
          "type": "address"
        },
        {
          "internalType": "address",
          "name": "_bonusContract",
          "type": "address"
        }
      ],
      "name": "initialize",
      "outputs": [],
      "stateMutability": "nonpayable",
      "type": "function"
    },
    {
      "inputs": [],
      "name": "maximumDonation",
      "outputs": [
        {
          "internalType": "uint256",
          "name": "",
          "type": "uint256"
        }
      ],
      "stateMutability": "view",
      "type": "function"
    },
    {
      "inputs": [],
      "name": "minimumDonation",
      "outputs": [
        {
          "internalType": "uint256",
          "name": "",
          "type": "uint256"
        }
      ],
      "stateMutability": "view",
      "type": "function"
    },
    {
      "inputs": [
        {
          "internalType": "uint256",
          "name": "donationAmount",
          "type": "uint256"
        },
        {
          "internalType": "address",
          "name": "accessNft",
          "type": "address"
        }
      ],
      "name": "participate",
      "outputs": [],
      "stateMutability": "payable",
      "type": "function"
    },
    {
      "inputs": [
        {
          "internalType": "int256[]",
          "name": "_bondingCurvePolynomial1e18",
          "type": "int256[]"
        }
      ],
      "name": "setBondingCurve",
      "outputs": [],
      "stateMutability": "nonpayable",
      "type": "function"
    },
    {
      "inputs": [
        {
          "internalType": "uint256",
          "name": "amountTreasuryUSD",
          "type": "uint256"
        }
      ],
      "name": "setCurrentTreasuryValue",
      "outputs": [],
      "stateMutability": "nonpayable",
      "type": "function"
    },
    {
      "inputs": [
        {
          "internalType": "uint64",
          "name": "_startTimestamp",
          "type": "uint64"
        },
        {
          "internalType": "uint64",
          "name": "_deadlineTimestamp",
          "type": "uint64"
        },
        {
          "internalType": "uint256",
          "name": "_donationGoalMin",
          "type": "uint256"
        },
        {
          "internalType": "uint256",
          "name": "_donationGoalMax",
          "type": "uint256"
        },
        {
          "internalType": "uint256",
          "name": "_minimumDonation",
          "type": "uint256"
        },
        {
          "internalType": "uint256",
          "name": "_maximumDonation",
          "type": "uint256"
        },
        {
          "internalType": "address",
          "name": "_donationToken",
          "type": "address"
        },
        {
          "internalType": "uint256",
          "name": "_donationTokenToUSD1e18",
          "type": "uint256"
        }
      ],
      "name": "setDistributionInfo",
      "outputs": [],
      "stateMutability": "nonpayable",
      "type": "function"
    },
    {
      "inputs": [
        {
          "internalType": "uint64",
          "name": "_fullVestingSeconds",
          "type": "uint64"
        },
        {
          "internalType": "uint64",
          "name": "_cliffSeconds",
          "type": "uint64"
        },
        {
          "internalType": "uint64",
          "name": "_tgeUnlockRatio1e18",
          "type": "uint64"
        },
        {
          "internalType": "uint64",
          "name": "_vestingFrequencySeconds",
          "type": "uint64"
        }
      ],
      "name": "setDistributionVesting",
      "outputs": [],
      "stateMutability": "nonpayable",
      "type": "function"
    },
    {
      "inputs": [
        {
          "internalType": "address",
          "name": "accessNft",
          "type": "address"
        },
        {
          "internalType": "bool",
          "name": "valid",
          "type": "bool"
        }
      ],
      "name": "setNftAccess",
      "outputs": [],
      "stateMutability": "nonpayable",
      "type": "function"
    },
    {
      "inputs": [],
      "name": "startTimestamp",
      "outputs": [
        {
          "internalType": "uint64",
          "name": "",
          "type": "uint64"
        }
      ],
      "stateMutability": "view",
      "type": "function"
    },
    {
      "inputs": [
        {
          "internalType": "bytes4",
          "name": "interfaceId",
          "type": "bytes4"
        }
      ],
      "name": "supportsInterface",
      "outputs": [
        {
          "internalType": "bool",
          "name": "",
          "type": "bool"
        }
      ],
      "stateMutability": "view",
      "type": "function"
    },
    {
      "inputs": [],
      "name": "takeDonationBack",
      "outputs": [],
      "stateMutability": "nonpayable",
      "type": "function"
    },
    {
      "inputs": [],
      "name": "tgeUnlockRatio1e18",
      "outputs": [
        {
          "internalType": "uint64",
          "name": "",
          "type": "uint64"
        }
      ],
      "stateMutability": "view",
      "type": "function"
    },
    {
      "inputs": [],
      "name": "totalDonations",
      "outputs": [
        {
          "internalType": "uint256",
          "name": "",
          "type": "uint256"
        }
      ],
      "stateMutability": "view",
      "type": "function"
    },
    {
      "inputs": [],
      "name": "vestingFrequencySeconds",
      "outputs": [
        {
          "internalType": "uint64",
          "name": "",
          "type": "uint64"
        }
      ],
      "stateMutability": "view",
      "type": "function"
    },
    {
      "stateMutability": "payable",
      "type": "receive"
    }
  ],
  "numDeployments": 1,
  "solcInputHash": "e018f7e07100cd069c9df1459dc944fe",
  "bytecode": "0x608060405234801561001057600080fd5b50614b22806100206000396000f3fe6080604052600436106102605760003560e01c806391d1485411610144578063d1deda6a116100b6578063e9c265181161007a578063e9c2651814610934578063efb8f4fd1461095f578063f365642a14610976578063f4984460146109a1578063f6d8414f146109de578063f8c8765e14610a0957610267565b8063d1deda6a1461084d578063d2051aa314610876578063dc4eff7e146108b3578063de2ed893146108de578063e6fd48bc1461090957610267565b80639dbf7935116101085780639dbf793514610729578063a217fddf14610766578063b510431114610791578063b5b8a68a146107ba578063c7ad6fc5146107e5578063cc6cb19a1461081057610267565b806391d148541461063057806395367f891461066d57806396d8f4f3146106985780639954a9bc146106c35780639d0c6846146106ec57610267565b8063445c4c8d116101dd5780636c5a5428116101a15780636c5a54281461051e57806375b238fc1461055b578063770d2b12146105865780637b9fa8bd146105b15780638341ee72146105dc5780638821fd891461060757610267565b8063445c4c8d1461042b57806347b8ce3f146104565780634a591c6d146104935780635deb395b146104be5780635e10448b146104f357610267565b806313b186401161022457806313b1864014610353578063248a9ca31461036f57806335864cdc146103ac578063382ec24e146103d75780634369994c1461040057610267565b806301ffc9a71461026c57806303ee9f22146102a95780630afcdef5146102d45780630c277b96146102ff5780630df721591461032857610267565b3661026757005b600080fd5b34801561027857600080fd5b50610293600480360381019061028e9190613398565b610a32565b6040516102a091906133e0565b60405180910390f35b3480156102b557600080fd5b506102be610ad7565b6040516102cb919061347a565b60405180910390f35b3480156102e057600080fd5b506102e9610afd565b6040516102f691906134b8565b60405180910390f35b34801561030b57600080fd5b5061032660048036038101906103219190613662565b610b17565b005b34801561033457600080fd5b5061033d610ba0565b60405161034a91906136cc565b60405180910390f35b61036d60048036038101906103689190613749565b610bc6565b005b34801561037b57600080fd5b50610396600480360381019061039191906137bf565b61147d565b6040516103a391906137fb565b60405180910390f35b3480156103b857600080fd5b506103c1611522565b6040516103ce91906134b8565b60405180910390f35b3480156103e357600080fd5b506103fe60048036038101906103f99190613816565b61153c565b005b34801561040c57600080fd5b506104156115b2565b6040516104229190613901565b60405180910390f35b34801561043757600080fd5b506104406115c3565b60405161044d9190613944565b60405180910390f35b34801561046257600080fd5b5061047d60048036038101906104789190613816565b6115e9565b60405161048a919061396e565b60405180910390f35b34801561049f57600080fd5b506104a861169e565b6040516104b59190613998565b60405180910390f35b3480156104ca57600080fd5b506104d36116a4565b6040516104ea9b9a999897969594939291906139b3565b60405180910390f35b3480156104ff57600080fd5b50610508611791565b60405161051591906134b8565b60405180910390f35b34801561052a57600080fd5b5061054560048036038101906105409190613816565b6117ab565b604051610552919061396e565b60405180910390f35b34801561056757600080fd5b506105706117cf565b60405161057d91906137fb565b60405180910390f35b34801561059257600080fd5b5061059b6117f3565b6040516105a89190613998565b60405180910390f35b3480156105bd57600080fd5b506105c66117ff565b6040516105d39190613998565b60405180910390f35b3480156105e857600080fd5b506105f1611805565b6040516105fe91906134b8565b60405180910390f35b34801561061357600080fd5b5061062e60048036038101906106299190613a8a565b61181f565b005b34801561063c57600080fd5b5061065760048036038101906106529190613af1565b611a35565b60405161066491906133e0565b60405180910390f35b34801561067957600080fd5b50610682611add565b60405161068f91906137fb565b60405180910390f35b3480156106a457600080fd5b506106ad611b01565b6040516106ba9190613998565b60405180910390f35b3480156106cf57600080fd5b506106ea60048036038101906106e59190613b5d565b611b07565b005b3480156106f857600080fd5b50610713600480360381019061070e9190613b9d565b611bb0565b6040516107209190613998565b60405180910390f35b34801561073557600080fd5b50610750600480360381019061074b9190613bdd565b611e03565b60405161075d9190613901565b60405180910390f35b34801561077257600080fd5b5061077b611f95565b60405161078891906137fb565b60405180910390f35b34801561079d57600080fd5b506107b860048036038101906107b39190613c48565b611f9c565b005b3480156107c657600080fd5b506107cf6120cb565b6040516107dc91906136cc565b60405180910390f35b3480156107f157600080fd5b506107fa6120f1565b6040516108079190613998565b60405180910390f35b34801561081c57600080fd5b5061083760048036038101906108329190613bdd565b6120f7565b6040516108449190613998565b60405180910390f35b34801561085957600080fd5b50610874600480360381019061086f9190613c9b565b61210f565b005b34801561088257600080fd5b5061089d60048036038101906108989190613816565b612376565b6040516108aa9190613998565b60405180910390f35b3480156108bf57600080fd5b506108c86124db565b6040516108d591906136cc565b60405180910390f35b3480156108ea57600080fd5b506108f3612501565b6040516109009190613998565b60405180910390f35b34801561091557600080fd5b5061091e612507565b60405161092b91906134b8565b60405180910390f35b34801561094057600080fd5b50610949612521565b60405161095691906137fb565b60405180910390f35b34801561096b57600080fd5b50610974612528565b005b34801561098257600080fd5b5061098b612797565b6040516109989190613998565b60405180910390f35b3480156109ad57600080fd5b506109c860048036038101906109c39190613816565b61279d565b6040516109d59190613998565b60405180910390f35b3480156109ea57600080fd5b506109f3612890565b604051610a0091906134b8565b60405180910390f35b348015610a1557600080fd5b50610a306004803603810190610a2b9190613d51565b6128aa565b005b6000603360009054906101000a900473ffffffffffffffffffffffffffffffffffffffff1673ffffffffffffffffffffffffffffffffffffffff166301ffc9a7836040518263ffffffff1660e01b8152600401610a8f9190613dc7565b602060405180830381865afa158015610aac573d6000803e3d6000fd5b505050506040513d601f19601f82011682018060405250810190610ad09190613df7565b9050919050565b603360009054906101000a900473ffffffffffffffffffffffffffffffffffffffff1681565b606f60189054906101000a900467ffffffffffffffff1681565b7fa49807205ce4d355092ef5a8a18f56e8913cf4a201fbe287825b095693c21775610b428133611a35565b610b855780336040517f37c2e343000000000000000000000000000000000000000000000000000000008152600401610b7c929190613e24565b60405180910390fd5b81606a9080519060200190610b9b9291906132c2565b505050565b606860089054906101000a900473ffffffffffffffffffffffffffffffffffffffff1681565b6000606e5403610c02576040517f76d9f52e00000000000000000000000000000000000000000000000000000000815260040160405180910390fd5b606760149054906101000a900467ffffffffffffffff1667ffffffffffffffff16421080610c4f575042606860009054906101000a900467ffffffffffffffff1667ffffffffffffffff16105b15610c86576040517fd3af728300000000000000000000000000000000000000000000000000000000815260040160405180910390fd5b610c9a816070612b4f90919063ffffffff16565b610cdb57806040517f7f2e188c000000000000000000000000000000000000000000000000000000008152600401610cd291906136cc565b60405180910390fd5b60008173ffffffffffffffffffffffffffffffffffffffff166370a08231336040518263ffffffff1660e01b8152600401610d1691906136cc565b602060405180830381865afa158015610d33573d6000803e3d6000fd5b505050506040513d601f19601f82011682018060405250810190610d579190613e62565b03610d9b5733816040517f8afa396a000000000000000000000000000000000000000000000000000000008152600401610d92929190613e8f565b60405180910390fd5b606b54821015610dd7576040517f9e977e7b00000000000000000000000000000000000000000000000000000000815260040160405180910390fd5b6000610f19606760009054906101000a900473ffffffffffffffffffffffffffffffffffffffff1673ffffffffffffffffffffffffffffffffffffffff16630e022923336040518263ffffffff1660e01b8152600401610e3791906136cc565b602060405180830381865afa158015610e54573d6000803e3d6000fd5b505050506040513d601f19601f82011682018060405250810190610e789190613e62565b606760009054906101000a900473ffffffffffffffffffffffffffffffffffffffff1673ffffffffffffffffffffffffffffffffffffffff1663de6851f8856040518263ffffffff1660e01b8152600401610ed391906136cc565b602060405180830381865afa158015610ef0573d6000803e3d6000fd5b505050506040513d601f19601f82011682018060405250810190610f149190613e62565b612b7f565b90506000808214610f2a5781610f2e565b606c545b90508084607360003373ffffffffffffffffffffffffffffffffffffffff1673ffffffffffffffffffffffffffffffffffffffff16815260200190815260200160002054610f7c9190613ee7565b1115610fb4576040517f9e977e7b00000000000000000000000000000000000000000000000000000000815260040160405180910390fd5b6000610fcc60695486610fc79190613f3d565b612376565b90506000611110606760009054906101000a900473ffffffffffffffffffffffffffffffffffffffff1673ffffffffffffffffffffffffffffffffffffffff16633a740a63336040518263ffffffff1660e01b815260040161102e91906136cc565b602060405180830381865afa15801561104b573d6000803e3d6000fd5b505050506040513d601f19601f8201168201806040525081019061106f9190613e62565b606760009054906101000a900473ffffffffffffffffffffffffffffffffffffffff1673ffffffffffffffffffffffffffffffffffffffff1663dbcfb6bb886040518263ffffffff1660e01b81526004016110ca91906136cc565b602060405180830381865afa1580156110e7573d6000803e3d6000fd5b505050506040513d601f19601f8201168201806040525081019061110b9190613e62565b612b7f565b9050670de0b6b3a764000081836111279190613f3d565b6111319190613fc6565b6072600001546111419190613ee7565b607260000181905550670de0b6b3a764000081670de0b6b3a76400006111679190613ee7565b836111729190613f3d565b61117c9190613fc6565b91506111cd333088606860089054906101000a900473ffffffffffffffffffffffffffffffffffffffff1673ffffffffffffffffffffffffffffffffffffffff16612b99909392919063ffffffff16565b856074546111db9190613ee7565b60748190555085607360003373ffffffffffffffffffffffffffffffffffffffff1673ffffffffffffffffffffffffffffffffffffffff1681526020019081526020016000205461122c9190613ee7565b607360003373ffffffffffffffffffffffffffffffffffffffff1673ffffffffffffffffffffffffffffffffffffffff1681526020019081526020016000208190555081606660009054906101000a900473ffffffffffffffffffffffffffffffffffffffff1673ffffffffffffffffffffffffffffffffffffffff166370a08231306040518263ffffffff1660e01b81526004016112cb91906136cc565b602060405180830381865afa1580156112e8573d6000803e3d6000fd5b505050506040513d601f19601f8201168201806040525081019061130c9190613e62565b101561134d576040517f08c379a000000000000000000000000000000000000000000000000000000000815260040161134490614054565b60405180910390fd5b606560009054906101000a900473ffffffffffffffffffffffffffffffffffffffff1673ffffffffffffffffffffffffffffffffffffffff166393a56edc3384606f60009054906101000a900467ffffffffffffffff16606f60089054906101000a900467ffffffffffffffff16606f60109054906101000a900467ffffffffffffffff16606f60189054906101000a900467ffffffffffffffff166040518763ffffffff1660e01b815260040161140a969594939291906140a5565b600060405180830381600087803b15801561142457600080fd5b505af1158015611438573d6000803e3d6000fd5b505050507fb198f199c43cc078ad46e5a5fabe03eba401f7417816c86af0bd2e7345c99506338760405161146d929190614106565b60405180910390a1505050505050565b6000603360009054906101000a900473ffffffffffffffffffffffffffffffffffffffff1673ffffffffffffffffffffffffffffffffffffffff1663248a9ca3836040518263ffffffff1660e01b81526004016114da91906137fb565b602060405180830381865afa1580156114f7573d6000803e3d6000fd5b505050506040513d601f19601f8201168201806040525081019061151b9190614144565b9050919050565b606f60009054906101000a900467ffffffffffffffff1681565b6000801b61154a8133611a35565b61158d5780336040517f37c2e343000000000000000000000000000000000000000000000000000000008152600401611584929190613e24565b60405180910390fd5b6074546069548361159e9190613fc6565b6115a89190613ee7565b6074819055505050565b60606115be6070612c22565b905090565b606760009054906101000a900473ffffffffffffffffffffffffffffffffffffffff1681565b6000806115f583612c43565b90506000606a8054905090506000600190506000805b838110156116915761162f81670de0b6b3a764000061162a91906142a4565b612c43565b83606a8381548110611644576116436142ef565b5b9060005260206000200154611659919061431e565b6116639190614435565b8261166e919061449f565b9150848361167c919061431e565b9250808061168990614533565b91505061160b565b5080945050505050919050565b606c5481565b6000806000806000806000806000806000606760149054906101000a900467ffffffffffffffff169a50606860009054906101000a900467ffffffffffffffff169950606b549850606c549750606d549650606e549550606860089054906101000a900473ffffffffffffffffffffffffffffffffffffffff169450606f60009054906101000a900467ffffffffffffffff169350606f60089054906101000a900467ffffffffffffffff169250606f60109054906101000a900467ffffffffffffffff169150606f60189054906101000a900467ffffffffffffffff169050909192939495969798999a565b606f60109054906101000a900467ffffffffffffffff1681565b606a81815481106117bb57600080fd5b906000526020600020016000915090505481565b7fa49807205ce4d355092ef5a8a18f56e8913cf4a201fbe287825b095693c2177581565b60728060000154905081565b606d5481565b606f60089054906101000a900467ffffffffffffffff1681565b7fa49807205ce4d355092ef5a8a18f56e8913cf4a201fbe287825b095693c2177561184a8133611a35565b61188d5780336040517f37c2e343000000000000000000000000000000000000000000000000000000008152600401611884929190613e24565b60405180910390fd5b8467ffffffffffffffff168467ffffffffffffffff1611156118db576040517ff7e1224400000000000000000000000000000000000000000000000000000000815260040160405180910390fd5b670de0b6b3a76400008367ffffffffffffffff161115611927576040517ff7e1224400000000000000000000000000000000000000000000000000000000815260040160405180910390fd5b60008267ffffffffffffffff16148061195357508467ffffffffffffffff168267ffffffffffffffff16115b1561198a576040517ff7e1224400000000000000000000000000000000000000000000000000000000815260040160405180910390fd5b84606f60006101000a81548167ffffffffffffffff021916908367ffffffffffffffff16021790555083606f60086101000a81548167ffffffffffffffff021916908367ffffffffffffffff16021790555082606f60106101000a81548167ffffffffffffffff021916908367ffffffffffffffff16021790555081606f60186101000a81548167ffffffffffffffff021916908367ffffffffffffffff1602179055505050505050565b6000603360009054906101000a900473ffffffffffffffffffffffffffffffffffffffff1673ffffffffffffffffffffffffffffffffffffffff166391d1485484846040518363ffffffff1660e01b8152600401611a94929190613e24565b602060405180830381865afa158015611ab1573d6000803e3d6000fd5b505050506040513d601f19601f82011682018060405250810190611ad59190613df7565b905092915050565b7f0a7cc066f24e107ff77c42c8a1bdaf1a5f775fa4a74e45530aaf9c866368f65381565b606b5481565b7fa49807205ce4d355092ef5a8a18f56e8913cf4a201fbe287825b095693c21775611b328133611a35565b611b755780336040517f37c2e343000000000000000000000000000000000000000000000000000000008152600401611b6c929190613e24565b60405180910390fd5b8115611b9557611b8f836070612cb090919063ffffffff16565b50611bab565b611ba9836070612ce090919063ffffffff16565b505b505050565b6000808273ffffffffffffffffffffffffffffffffffffffff166370a08231856040518263ffffffff1660e01b8152600401611bec91906136cc565b602060405180830381865afa158015611c09573d6000803e3d6000fd5b505050506040513d601f19601f82011682018060405250810190611c2d9190613e62565b1115611df8576000611d75606760009054906101000a900473ffffffffffffffffffffffffffffffffffffffff1673ffffffffffffffffffffffffffffffffffffffff16630e022923336040518263ffffffff1660e01b8152600401611c9391906136cc565b602060405180830381865afa158015611cb0573d6000803e3d6000fd5b505050506040513d601f19601f82011682018060405250810190611cd49190613e62565b606760009054906101000a900473ffffffffffffffffffffffffffffffffffffffff1673ffffffffffffffffffffffffffffffffffffffff1663de6851f8866040518263ffffffff1660e01b8152600401611d2f91906136cc565b602060405180830381865afa158015611d4c573d6000803e3d6000fd5b505050506040513d601f19601f82011682018060405250810190611d709190613e62565b612b7f565b90506000808214611d865781611d8a565b606c545b9050611def607360008773ffffffffffffffffffffffffffffffffffffffff1673ffffffffffffffffffffffffffffffffffffffff1681526020019081526020016000205482611dda919061457b565b607454606e54611dea919061457b565b612d10565b92505050611dfd565b600090505b92915050565b60606000611e116070612c22565b905060008151905060008167ffffffffffffffff811115611e3557611e346134e9565b5b604051908082528060200260200182016040528015611e635781602001602082028036833780820191505090505b50905060005b82811015611f89576000848281518110611e8657611e856142ef565b5b602002602001015173ffffffffffffffffffffffffffffffffffffffff166370a08231886040518263ffffffff1660e01b8152600401611ec691906136cc565b602060405180830381865afa158015611ee3573d6000803e3d6000fd5b505050506040513d601f19601f82011682018060405250810190611f079190613e62565b1115611f7657838181518110611f2057611f1f6142ef565b5b6020026020010151828281518110611f3b57611f3a6142ef565b5b602002602001019073ffffffffffffffffffffffffffffffffffffffff16908173ffffffffffffffffffffffffffffffffffffffff16815250505b8080611f8190614533565b915050611e69565b50809350505050919050565b6000801b81565b6000801b611faa8133611a35565b611fed5780336040517f37c2e343000000000000000000000000000000000000000000000000000000008152600401611fe4929190613e24565b60405180910390fd5b606860009054906101000a900467ffffffffffffffff1667ffffffffffffffff16421015612047576040517fd3af728300000000000000000000000000000000000000000000000000000000815260040160405180910390fd5b606d54607454101561209a57606d54606e546074546040517f2dc17330000000000000000000000000000000000000000000000000000000008152600401612091939291906145af565b60405180910390fd5b6120c583838673ffffffffffffffffffffffffffffffffffffffff16612d299092919063ffffffff16565b50505050565b606560009054906101000a900473ffffffffffffffffffffffffffffffffffffffff1681565b60695481565b60736020528060005260406000206000915090505481565b7fa49807205ce4d355092ef5a8a18f56e8913cf4a201fbe287825b095693c2177561213a8133611a35565b61217d5780336040517f37c2e343000000000000000000000000000000000000000000000000000000008152600401612174929190613e24565b60405180910390fd5b8767ffffffffffffffff168967ffffffffffffffff16106121ca576040517fd3af728300000000000000000000000000000000000000000000000000000000815260040160405180910390fd5b858711156122155786866074546040517f2dc1733000000000000000000000000000000000000000000000000000000000815260040161220c939291906145af565b60405180910390fd5b8385111561224f576040517f9e977e7b00000000000000000000000000000000000000000000000000000000815260040160405180910390fd5b600073ffffffffffffffffffffffffffffffffffffffff168373ffffffffffffffffffffffffffffffffffffffff16036122b5576040517fe99064c300000000000000000000000000000000000000000000000000000000815260040160405180910390fd5b88606760146101000a81548167ffffffffffffffff021916908367ffffffffffffffff16021790555087606860006101000a81548167ffffffffffffffff021916908367ffffffffffffffff16021790555086606d8190555085606e8190555084606b8190555083606c8190555082606860086101000a81548173ffffffffffffffffffffffffffffffffffffffff021916908373ffffffffffffffffffffffffffffffffffffffff16021790555081606981905550505050505050505050565b6000806123a4670de0b6b3a76400006069546074546123959190613f3d565b61239f9190613fc6565b61279d565b905060006123de670de0b6b3a7640000856069546074546123c59190613f3d565b6123cf9190613ee7565b6123d99190613fc6565b61279d565b9050600082826123ee919061457b565b9050606660009054906101000a900473ffffffffffffffffffffffffffffffffffffffff1673ffffffffffffffffffffffffffffffffffffffff166370a08231306040518263ffffffff1660e01b815260040161244b91906136cc565b602060405180830381865afa158015612468573d6000803e3d6000fd5b505050506040513d601f19601f8201168201806040525081019061248c9190613e62565b8111156124d057846040517fb766b56f0000000000000000000000000000000000000000000000000000000081526004016124c79190613998565b60405180910390fd5b809350505050919050565b606660009054906101000a900473ffffffffffffffffffffffffffffffffffffffff1681565b60745481565b606760149054906101000a900467ffffffffffffffff1681565b6000801b81565b606860009054906101000a900467ffffffffffffffff1667ffffffffffffffff16421015612582576040517fd3af728300000000000000000000000000000000000000000000000000000000815260040160405180910390fd5b606d54607454106125d457606d54606e546074546040517f2dc173300000000000000000000000000000000000000000000000000000000081526004016125cb939291906145af565b60405180910390fd5b6000606560009054906101000a900473ffffffffffffffffffffffffffffffffffffffff1673ffffffffffffffffffffffffffffffffffffffff166370a08231336040518263ffffffff1660e01b815260040161263191906136cc565b602060405180830381865afa15801561264e573d6000803e3d6000fd5b505050506040513d601f19601f820116820180604052508101906126729190613e62565b11156126aa576040517f9e977e7b00000000000000000000000000000000000000000000000000000000815260040160405180910390fd5b6000607360003373ffffffffffffffffffffffffffffffffffffffff1673ffffffffffffffffffffffffffffffffffffffff1681526020019081526020016000205490506000607360003373ffffffffffffffffffffffffffffffffffffffff1673ffffffffffffffffffffffffffffffffffffffff1681526020019081526020016000208190555080607454612741919061457b565b6074819055506127943382606860089054906101000a900473ffffffffffffffffffffffffffffffffffffffff1673ffffffffffffffffffffffffffffffffffffffff16612d299092919063ffffffff16565b50565b606e5481565b6000806127a983612c43565b90506000606a80549050905060008290506000805b8381101561283d5760016127d182612c43565b6127db919061449f565b83606a83815481106127f0576127ef6142ef565b5b9060005260206000200154612805919061431e565b61280f9190614435565b8261281a919061449f565b91508483612828919061431e565b9250808061283590614533565b9150506127be565b50600081121561288457856040517f68a6674500000000000000000000000000000000000000000000000000000000815260040161287b9190613998565b60405180910390fd5b80945050505050919050565b606860009054906101000a900467ffffffffffffffff1681565b60008060019054906101000a900460ff161590508080156128db5750600160008054906101000a900460ff1660ff16105b8061290857506128ea30612daf565b1580156129075750600160008054906101000a900460ff1660ff16145b5b612947576040517f08c379a000000000000000000000000000000000000000000000000000000000815260040161293e90614658565b60405180910390fd5b60016000806101000a81548160ff021916908360ff1602179055508015612984576001600060016101000a81548160ff0219169083151502179055505b61298d85612dd2565b83606660006101000a81548173ffffffffffffffffffffffffffffffffffffffff021916908373ffffffffffffffffffffffffffffffffffffffff16021790555082606560006101000a81548173ffffffffffffffffffffffffffffffffffffffff021916908373ffffffffffffffffffffffffffffffffffffffff16021790555081606760006101000a81548173ffffffffffffffffffffffffffffffffffffffff021916908373ffffffffffffffffffffffffffffffffffffffff1602179055508373ffffffffffffffffffffffffffffffffffffffff1663095ea7b3847fffffffffffffffffffffffffffffffffffffffffffffffffffffffffffffffff6040518363ffffffff1660e01b8152600401612aab929190614106565b6020604051808303816000875af1158015612aca573d6000803e3d6000fd5b505050506040513d601f19601f82011682018060405250810190612aee9190613df7565b508015612b485760008060016101000a81548160ff0219169083151502179055507f7f26b83ff96e1f2b6a682f133852f6798a09c465da95921460cefb38474024986001604051612b3f91906146c0565b60405180910390a15b5050505050565b6000612b77836000018373ffffffffffffffffffffffffffffffffffffffff1660001b612e65565b905092915050565b600081831015612b8f5781612b91565b825b905092915050565b612c1c846323b872dd60e01b858585604051602401612bba939291906146db565b604051602081830303815290604052907bffffffffffffffffffffffffffffffffffffffffffffffffffffffff19166020820180517bffffffffffffffffffffffffffffffffffffffffffffffffffffffff8381831617835250505050612e88565b50505050565b60606000612c3283600001612f4f565b905060608190508092505050919050565b60007f7fffffffffffffffffffffffffffffffffffffffffffffffffffffffffffffff821115612ca8576040517f08c379a0000000000000000000000000000000000000000000000000000000008152600401612c9f90614784565b60405180910390fd5b819050919050565b6000612cd8836000018373ffffffffffffffffffffffffffffffffffffffff1660001b612fab565b905092915050565b6000612d08836000018373ffffffffffffffffffffffffffffffffffffffff1660001b61301b565b905092915050565b6000818310612d1f5781612d21565b825b905092915050565b612daa8363a9059cbb60e01b8484604051602401612d48929190614106565b604051602081830303815290604052907bffffffffffffffffffffffffffffffffffffffffffffffffffffffff19166020820180517bffffffffffffffffffffffffffffffffffffffffffffffffffffffff8381831617835250505050612e88565b505050565b6000808273ffffffffffffffffffffffffffffffffffffffff163b119050919050565b600060019054906101000a900460ff16612e21576040517f08c379a0000000000000000000000000000000000000000000000000000000008152600401612e1890614816565b60405180910390fd5b80603360006101000a81548173ffffffffffffffffffffffffffffffffffffffff021916908373ffffffffffffffffffffffffffffffffffffffff16021790555050565b600080836001016000848152602001908152602001600020541415905092915050565b6000612eea826040518060400160405280602081526020017f5361666545524332303a206c6f772d6c6576656c2063616c6c206661696c65648152508573ffffffffffffffffffffffffffffffffffffffff1661312f9092919063ffffffff16565b9050600081511115612f4a5780806020019051810190612f0a9190613df7565b612f49576040517f08c379a0000000000000000000000000000000000000000000000000000000008152600401612f40906148a8565b60405180910390fd5b5b505050565b606081600001805480602002602001604051908101604052809291908181526020018280548015612f9f57602002820191906000526020600020905b815481526020019060010190808311612f8b575b50505050509050919050565b6000612fb78383612e65565b613010578260000182908060018154018082558091505060019003906000526020600020016000909190919091505582600001805490508360010160008481526020019081526020016000208190555060019050613015565b600090505b92915050565b6000808360010160008481526020019081526020016000205490506000811461312357600060018261304d919061457b565b9050600060018660000180549050613065919061457b565b90508181146130d4576000866000018281548110613086576130856142ef565b5b90600052602060002001549050808760000184815481106130aa576130a96142ef565b5b90600052602060002001819055508387600101600083815260200190815260200160002081905550505b856000018054806130e8576130e76148c8565b5b600190038181906000526020600020016000905590558560010160008681526020019081526020016000206000905560019350505050613129565b60009150505b92915050565b606061313e8484600085613147565b90509392505050565b60608247101561318c576040517f08c379a000000000000000000000000000000000000000000000000000000000815260040161318390614969565b60405180910390fd5b61319585612daf565b6131d4576040517f08c379a00000000000000000000000000000000000000000000000000000000081526004016131cb906149d5565b60405180910390fd5b6000808673ffffffffffffffffffffffffffffffffffffffff1685876040516131fd9190614a6f565b60006040518083038185875af1925050503d806000811461323a576040519150601f19603f3d011682016040523d82523d6000602084013e61323f565b606091505b509150915061324f82828661325b565b92505050949350505050565b6060831561326b578290506132bb565b60008351111561327e5782518084602001fd5b816040517f08c379a00000000000000000000000000000000000000000000000000000000081526004016132b29190614aca565b60405180910390fd5b9392505050565b8280548282559060005260206000209081019282156132fe579160200282015b828111156132fd5782518255916020019190600101906132e2565b5b50905061330b919061330f565b5090565b5b80821115613328576000816000905550600101613310565b5090565b6000604051905090565b600080fd5b600080fd5b60007fffffffff0000000000000000000000000000000000000000000000000000000082169050919050565b61337581613340565b811461338057600080fd5b50565b6000813590506133928161336c565b92915050565b6000602082840312156133ae576133ad613336565b5b60006133bc84828501613383565b91505092915050565b60008115159050919050565b6133da816133c5565b82525050565b60006020820190506133f560008301846133d1565b92915050565b600073ffffffffffffffffffffffffffffffffffffffff82169050919050565b6000819050919050565b600061344061343b613436846133fb565b61341b565b6133fb565b9050919050565b600061345282613425565b9050919050565b600061346482613447565b9050919050565b61347481613459565b82525050565b600060208201905061348f600083018461346b565b92915050565b600067ffffffffffffffff82169050919050565b6134b281613495565b82525050565b60006020820190506134cd60008301846134a9565b92915050565b600080fd5b6000601f19601f8301169050919050565b7f4e487b7100000000000000000000000000000000000000000000000000000000600052604160045260246000fd5b613521826134d8565b810181811067ffffffffffffffff821117156135405761353f6134e9565b5b80604052505050565b600061355361332c565b905061355f8282613518565b919050565b600067ffffffffffffffff82111561357f5761357e6134e9565b5b602082029050602081019050919050565b600080fd5b6000819050919050565b6135a881613595565b81146135b357600080fd5b50565b6000813590506135c58161359f565b92915050565b60006135de6135d984613564565b613549565b9050808382526020820190506020840283018581111561360157613600613590565b5b835b8181101561362a578061361688826135b6565b845260208401935050602081019050613603565b5050509392505050565b600082601f830112613649576136486134d3565b5b81356136598482602086016135cb565b91505092915050565b60006020828403121561367857613677613336565b5b600082013567ffffffffffffffff8111156136965761369561333b565b5b6136a284828501613634565b91505092915050565b60006136b6826133fb565b9050919050565b6136c6816136ab565b82525050565b60006020820190506136e160008301846136bd565b92915050565b6000819050919050565b6136fa816136e7565b811461370557600080fd5b50565b600081359050613717816136f1565b92915050565b613726816136ab565b811461373157600080fd5b50565b6000813590506137438161371d565b92915050565b600080604083850312156137605761375f613336565b5b600061376e85828601613708565b925050602061377f85828601613734565b9150509250929050565b6000819050919050565b61379c81613789565b81146137a757600080fd5b50565b6000813590506137b981613793565b92915050565b6000602082840312156137d5576137d4613336565b5b60006137e3848285016137aa565b91505092915050565b6137f581613789565b82525050565b600060208201905061381060008301846137ec565b92915050565b60006020828403121561382c5761382b613336565b5b600061383a84828501613708565b91505092915050565b600081519050919050565b600082825260208201905092915050565b6000819050602082019050919050565b613878816136ab565b82525050565b600061388a838361386f565b60208301905092915050565b6000602082019050919050565b60006138ae82613843565b6138b8818561384e565b93506138c38361385f565b8060005b838110156138f45781516138db888261387e565b97506138e683613896565b9250506001810190506138c7565b5085935050505092915050565b6000602082019050818103600083015261391b81846138a3565b905092915050565b600061392e82613447565b9050919050565b61393e81613923565b82525050565b60006020820190506139596000830184613935565b92915050565b61396881613595565b82525050565b6000602082019050613983600083018461395f565b92915050565b613992816136e7565b82525050565b60006020820190506139ad6000830184613989565b92915050565b6000610160820190506139c9600083018e6134a9565b6139d6602083018d6134a9565b6139e3604083018c613989565b6139f0606083018b613989565b6139fd608083018a613989565b613a0a60a0830189613989565b613a1760c08301886136bd565b613a2460e08301876134a9565b613a326101008301866134a9565b613a406101208301856134a9565b613a4e6101408301846134a9565b9c9b505050505050505050505050565b613a6781613495565b8114613a7257600080fd5b50565b600081359050613a8481613a5e565b92915050565b60008060008060808587031215613aa457613aa3613336565b5b6000613ab287828801613a75565b9450506020613ac387828801613a75565b9350506040613ad487828801613a75565b9250506060613ae587828801613a75565b91505092959194509250565b60008060408385031215613b0857613b07613336565b5b6000613b16858286016137aa565b9250506020613b2785828601613734565b9150509250929050565b613b3a816133c5565b8114613b4557600080fd5b50565b600081359050613b5781613b31565b92915050565b60008060408385031215613b7457613b73613336565b5b6000613b8285828601613734565b9250506020613b9385828601613b48565b9150509250929050565b60008060408385031215613bb457613bb3613336565b5b6000613bc285828601613734565b9250506020613bd385828601613734565b9150509250929050565b600060208284031215613bf357613bf2613336565b5b6000613c0184828501613734565b91505092915050565b6000613c15826136ab565b9050919050565b613c2581613c0a565b8114613c3057600080fd5b50565b600081359050613c4281613c1c565b92915050565b600080600060608486031215613c6157613c60613336565b5b6000613c6f86828701613c33565b9350506020613c8086828701613734565b9250506040613c9186828701613708565b9150509250925092565b600080600080600080600080610100898b031215613cbc57613cbb613336565b5b6000613cca8b828c01613a75565b9850506020613cdb8b828c01613a75565b9750506040613cec8b828c01613708565b9650506060613cfd8b828c01613708565b9550506080613d0e8b828c01613708565b94505060a0613d1f8b828c01613708565b93505060c0613d308b828c01613734565b92505060e0613d418b828c01613708565b9150509295985092959890939650565b60008060008060808587031215613d6b57613d6a613336565b5b6000613d7987828801613734565b9450506020613d8a87828801613734565b9350506040613d9b87828801613734565b9250506060613dac87828801613734565b91505092959194509250565b613dc181613340565b82525050565b6000602082019050613ddc6000830184613db8565b92915050565b600081519050613df181613b31565b92915050565b600060208284031215613e0d57613e0c613336565b5b6000613e1b84828501613de2565b91505092915050565b6000604082019050613e3960008301856137ec565b613e4660208301846136bd565b9392505050565b600081519050613e5c816136f1565b92915050565b600060208284031215613e7857613e77613336565b5b6000613e8684828501613e4d565b91505092915050565b6000604082019050613ea460008301856136bd565b613eb160208301846136bd565b9392505050565b7f4e487b7100000000000000000000000000000000000000000000000000000000600052601160045260246000fd5b6000613ef2826136e7565b9150613efd836136e7565b9250827fffffffffffffffffffffffffffffffffffffffffffffffffffffffffffffffff03821115613f3257613f31613eb8565b5b828201905092915050565b6000613f48826136e7565b9150613f53836136e7565b9250817fffffffffffffffffffffffffffffffffffffffffffffffffffffffffffffffff0483118215151615613f8c57613f8b613eb8565b5b828202905092915050565b7f4e487b7100000000000000000000000000000000000000000000000000000000600052601260045260246000fd5b6000613fd1826136e7565b9150613fdc836136e7565b925082613fec57613feb613f97565b5b828204905092915050565b600082825260208201905092915050565b7f6e6f7420656e6f75676820726577617264206c65667400000000000000000000600082015250565b600061403e601683613ff7565b915061404982614008565b602082019050919050565b6000602082019050818103600083015261406d81614031565b9050919050565b600061408f61408a61408584613495565b61341b565b6136e7565b9050919050565b61409f81614074565b82525050565b600060c0820190506140ba60008301896136bd565b6140c76020830188613989565b6140d46040830187614096565b6140e16060830186614096565b6140ee6080830185614096565b6140fb60a0830184614096565b979650505050505050565b600060408201905061411b60008301856136bd565b6141286020830184613989565b9392505050565b60008151905061413e81613793565b92915050565b60006020828403121561415a57614159613336565b5b60006141688482850161412f565b91505092915050565b60008160011c9050919050565b6000808291508390505b60018511156141c8578086048111156141a4576141a3613eb8565b5b60018516156141b35780820291505b80810290506141c185614171565b9450614188565b94509492505050565b6000826141e1576001905061429d565b816141ef576000905061429d565b8160018114614205576002811461420f5761423e565b600191505061429d565b60ff84111561422157614220613eb8565b5b8360020a91508482111561423857614237613eb8565b5b5061429d565b5060208310610133831016604e8410600b84101617156142735782820a90508381111561426e5761426d613eb8565b5b61429d565b614280848484600161417e565b9250905081840481111561429757614296613eb8565b5b81810290505b9392505050565b60006142af826136e7565b91506142ba836136e7565b92506142e77fffffffffffffffffffffffffffffffffffffffffffffffffffffffffffffffff84846141d1565b905092915050565b7f4e487b7100000000000000000000000000000000000000000000000000000000600052603260045260246000fd5b600061432982613595565b915061433483613595565b9250827f7fffffffffffffffffffffffffffffffffffffffffffffffffffffffffffffff048211600084136000841316161561437357614372613eb8565b5b817f800000000000000000000000000000000000000000000000000000000000000005831260008412600084131616156143b0576143af613eb8565b5b827f800000000000000000000000000000000000000000000000000000000000000005821260008413600084121616156143ed576143ec613eb8565b5b827f7fffffffffffffffffffffffffffffffffffffffffffffffffffffffffffffff058212600084126000841216161561442a57614429613eb8565b5b828202905092915050565b600061444082613595565b915061444b83613595565b92508261445b5761445a613f97565b5b600160000383147f80000000000000000000000000000000000000000000000000000000000000008314161561449457614493613eb8565b5b828205905092915050565b60006144aa82613595565b91506144b583613595565b9250817f7fffffffffffffffffffffffffffffffffffffffffffffffffffffffffffffff038313600083121516156144f0576144ef613eb8565b5b817f800000000000000000000000000000000000000000000000000000000000000003831260008312161561452857614527613eb8565b5b828201905092915050565b600061453e826136e7565b91507fffffffffffffffffffffffffffffffffffffffffffffffffffffffffffffffff82036145705761456f613eb8565b5b600182019050919050565b6000614586826136e7565b9150614591836136e7565b9250828210156145a4576145a3613eb8565b5b828203905092915050565b60006060820190506145c46000830186613989565b6145d16020830185613989565b6145de6040830184613989565b949350505050565b7f496e697469616c697a61626c653a20636f6e747261637420697320616c72656160008201527f647920696e697469616c697a6564000000000000000000000000000000000000602082015250565b6000614642602e83613ff7565b915061464d826145e6565b604082019050919050565b6000602082019050818103600083015261467181614635565b9050919050565b6000819050919050565b600060ff82169050919050565b60006146aa6146a56146a084614678565b61341b565b614682565b9050919050565b6146ba8161468f565b82525050565b60006020820190506146d560008301846146b1565b92915050565b60006060820190506146f060008301866136bd565b6146fd60208301856136bd565b61470a6040830184613989565b949350505050565b7f53616665436173743a2076616c756520646f65736e27742066697420696e206160008201527f6e20696e74323536000000000000000000000000000000000000000000000000602082015250565b600061476e602883613ff7565b915061477982614712565b604082019050919050565b6000602082019050818103600083015261479d81614761565b9050919050565b7f496e697469616c697a61626c653a20636f6e7472616374206973206e6f74206960008201527f6e697469616c697a696e67000000000000000000000000000000000000000000602082015250565b6000614800602b83613ff7565b915061480b826147a4565b604082019050919050565b6000602082019050818103600083015261482f816147f3565b9050919050565b7f5361666545524332303a204552433230206f7065726174696f6e20646964206e60008201527f6f74207375636365656400000000000000000000000000000000000000000000602082015250565b6000614892602a83613ff7565b915061489d82614836565b604082019050919050565b600060208201905081810360008301526148c181614885565b9050919050565b7f4e487b7100000000000000000000000000000000000000000000000000000000600052603160045260246000fd5b7f416464726573733a20696e73756666696369656e742062616c616e636520666f60008201527f722063616c6c0000000000000000000000000000000000000000000000000000602082015250565b6000614953602683613ff7565b915061495e826148f7565b604082019050919050565b6000602082019050818103600083015261498281614946565b9050919050565b7f416464726573733a2063616c6c20746f206e6f6e2d636f6e7472616374000000600082015250565b60006149bf601d83613ff7565b91506149ca82614989565b602082019050919050565b600060208201905081810360008301526149ee816149b2565b9050919050565b600081519050919050565b600081905092915050565b60005b83811015614a29578082015181840152602081019050614a0e565b83811115614a38576000848401525b50505050565b6000614a49826149f5565b614a538185614a00565b9350614a63818560208601614a0b565b80840191505092915050565b6000614a7b8284614a3e565b915081905092915050565b600081519050919050565b6000614a9c82614a86565b614aa68185613ff7565b9350614ab6818560208601614a0b565b614abf816134d8565b840191505092915050565b60006020820190508181036000830152614ae48184614a91565b90509291505056fea26469706673582212204f8e6eecc790dbaee52a26d90fe1be15358156935de53c2b914268686a472b4764736f6c634300080f0033",
  "devdoc": {
    "kind": "dev",
    "methods": {
      "daoWithdraw(address,address,uint256)": {
        "details": "The DAO can't take away SuDAO token already distributed to users,      because they are stored on different contract"
      }
    },
    "stateVariables": {
      "__gap": {
        "details": "This empty reserved space is put in place to allow future versions to add new variables without shifting down storage in the inheritance chain. See https://docs.openzeppelin.com/contracts/4.x/upgradeable#storage_gaps"
      }
    },
    "title": "The contract that distribute suDAO tokens for community based on NFT membership",
    "version": 1
  },
  "userdoc": {
    "kind": "user",
    "methods": {
      "daoWithdraw(address,address,uint256)": {
        "notice": "The DAO can take away donations."
      },
      "getMaximumDonationAmount(address,address)": {
        "notice": "Get the max donation that user can do"
      },
      "participate(uint256,address)": {
        "notice": "notice Allows to participate for users with required NFT param donationAmount The amount of tokens specified in donationToken"
      },
      "setCurrentTreasuryValue(uint256)": {
        "notice": "Be sure you call it before donation campaign takes place"
      },
      "setDistributionInfo(uint64,uint64,uint256,uint256,uint256,uint256,address,uint256)": {
        "notice": "The owner can set new or edit existing token distribution with no restrictions"
      },
      "setDistributionVesting(uint64,uint64,uint64,uint64)": {
        "notice": "The DAO can set new or edit existing token vesting details"
      }
    },
    "version": 1
  },
  "storageLayout": {
    "storage": [
      {
        "astId": 497,
        "contract": "contracts/distributions/TokenDistributorV4.sol:TokenDistributorV4",
        "label": "_initialized",
        "offset": 0,
        "slot": "0",
        "type": "t_uint8"
      },
      {
        "astId": 500,
        "contract": "contracts/distributions/TokenDistributorV4.sol:TokenDistributorV4",
        "label": "_initializing",
        "offset": 1,
        "slot": "0",
        "type": "t_bool"
      },
      {
        "astId": 4310,
        "contract": "contracts/distributions/TokenDistributorV4.sol:TokenDistributorV4",
        "label": "__gap",
        "offset": 0,
        "slot": "1",
        "type": "t_array(t_uint256)50_storage"
      },
      {
        "astId": 13383,
        "contract": "contracts/distributions/TokenDistributorV4.sol:TokenDistributorV4",
        "label": "ACCESS_CONTROL_SINGLETON",
        "offset": 0,
        "slot": "51",
        "type": "t_contract(ISuAccessControl)14764"
      },
      {
        "astId": 13470,
        "contract": "contracts/distributions/TokenDistributorV4.sol:TokenDistributorV4",
        "label": "__gap",
        "offset": 0,
        "slot": "52",
        "type": "t_array(t_uint256)49_storage"
      },
      {
        "astId": 13538,
        "contract": "contracts/distributions/TokenDistributorV4.sol:TokenDistributorV4",
        "label": "VE_ERC_20",
        "offset": 0,
        "slot": "101",
        "type": "t_address"
      },
      {
        "astId": 13540,
        "contract": "contracts/distributions/TokenDistributorV4.sol:TokenDistributorV4",
        "label": "SU_DAO",
        "offset": 0,
        "slot": "102",
        "type": "t_address"
      },
      {
        "astId": 13543,
        "contract": "contracts/distributions/TokenDistributorV4.sol:TokenDistributorV4",
        "label": "BONUS_CONTRACT",
        "offset": 0,
        "slot": "103",
        "type": "t_contract(IBonus)14737"
      },
      {
        "astId": 13545,
        "contract": "contracts/distributions/TokenDistributorV4.sol:TokenDistributorV4",
        "label": "startTimestamp",
        "offset": 20,
        "slot": "103",
        "type": "t_uint64"
      },
      {
        "astId": 13547,
        "contract": "contracts/distributions/TokenDistributorV4.sol:TokenDistributorV4",
        "label": "deadlineTimestamp",
        "offset": 0,
        "slot": "104",
        "type": "t_uint64"
      },
      {
        "astId": 13549,
        "contract": "contracts/distributions/TokenDistributorV4.sol:TokenDistributorV4",
        "label": "donationToken",
        "offset": 8,
        "slot": "104",
        "type": "t_address"
      },
      {
        "astId": 13551,
        "contract": "contracts/distributions/TokenDistributorV4.sol:TokenDistributorV4",
        "label": "donationTokenToUSD1e18",
        "offset": 0,
        "slot": "105",
        "type": "t_uint256"
      },
      {
        "astId": 13554,
        "contract": "contracts/distributions/TokenDistributorV4.sol:TokenDistributorV4",
        "label": "bondingCurvePolynomial1e18",
        "offset": 0,
        "slot": "106",
        "type": "t_array(t_int256)dyn_storage"
      },
      {
        "astId": 13556,
        "contract": "contracts/distributions/TokenDistributorV4.sol:TokenDistributorV4",
        "label": "minimumDonation",
        "offset": 0,
        "slot": "107",
        "type": "t_uint256"
      },
      {
        "astId": 13558,
        "contract": "contracts/distributions/TokenDistributorV4.sol:TokenDistributorV4",
        "label": "maximumDonation",
        "offset": 0,
        "slot": "108",
        "type": "t_uint256"
      },
      {
        "astId": 13560,
        "contract": "contracts/distributions/TokenDistributorV4.sol:TokenDistributorV4",
        "label": "donationGoalMin",
        "offset": 0,
        "slot": "109",
        "type": "t_uint256"
      },
      {
        "astId": 13562,
        "contract": "contracts/distributions/TokenDistributorV4.sol:TokenDistributorV4",
        "label": "donationGoalMax",
        "offset": 0,
        "slot": "110",
        "type": "t_uint256"
      },
      {
        "astId": 13564,
        "contract": "contracts/distributions/TokenDistributorV4.sol:TokenDistributorV4",
        "label": "fullVestingSeconds",
        "offset": 0,
        "slot": "111",
        "type": "t_uint64"
      },
      {
        "astId": 13566,
        "contract": "contracts/distributions/TokenDistributorV4.sol:TokenDistributorV4",
        "label": "cliffSeconds",
        "offset": 8,
        "slot": "111",
        "type": "t_uint64"
      },
      {
        "astId": 13568,
        "contract": "contracts/distributions/TokenDistributorV4.sol:TokenDistributorV4",
        "label": "tgeUnlockRatio1e18",
        "offset": 16,
        "slot": "111",
        "type": "t_uint64"
      },
      {
        "astId": 13570,
        "contract": "contracts/distributions/TokenDistributorV4.sol:TokenDistributorV4",
        "label": "vestingFrequencySeconds",
        "offset": 24,
        "slot": "111",
        "type": "t_uint64"
      },
      {
        "astId": 13577,
        "contract": "contracts/distributions/TokenDistributorV4.sol:TokenDistributorV4",
        "label": "nftRequirement",
        "offset": 0,
        "slot": "112",
        "type": "t_struct(AddressSet)12071_storage"
      },
      {
        "astId": 13583,
        "contract": "contracts/distributions/TokenDistributorV4.sol:TokenDistributorV4",
        "label": "bonusStats",
        "offset": 0,
        "slot": "114",
        "type": "t_struct(BonusStats)13580_storage"
      },
      {
        "astId": 13587,
        "contract": "contracts/distributions/TokenDistributorV4.sol:TokenDistributorV4",
        "label": "donations",
        "offset": 0,
        "slot": "115",
        "type": "t_mapping(t_address,t_uint256)"
      },
      {
        "astId": 13589,
        "contract": "contracts/distributions/TokenDistributorV4.sol:TokenDistributorV4",
        "label": "totalDonations",
        "offset": 0,
        "slot": "116",
        "type": "t_uint256"
      },
      {
        "astId": 14613,
        "contract": "contracts/distributions/TokenDistributorV4.sol:TokenDistributorV4",
        "label": "__gap",
        "offset": 0,
        "slot": "117",
        "type": "t_array(t_uint256)48_storage"
      }
    ],
    "types": {
      "t_address": {
        "encoding": "inplace",
        "label": "address",
        "numberOfBytes": "20"
      },
      "t_array(t_bytes32)dyn_storage": {
        "base": "t_bytes32",
        "encoding": "dynamic_array",
        "label": "bytes32[]",
        "numberOfBytes": "32"
      },
      "t_array(t_int256)dyn_storage": {
        "base": "t_int256",
        "encoding": "dynamic_array",
        "label": "int256[]",
        "numberOfBytes": "32"
      },
      "t_array(t_uint256)48_storage": {
        "base": "t_uint256",
        "encoding": "inplace",
        "label": "uint256[48]",
        "numberOfBytes": "1536"
      },
      "t_array(t_uint256)49_storage": {
        "base": "t_uint256",
        "encoding": "inplace",
        "label": "uint256[49]",
        "numberOfBytes": "1568"
      },
      "t_array(t_uint256)50_storage": {
        "base": "t_uint256",
        "encoding": "inplace",
        "label": "uint256[50]",
        "numberOfBytes": "1600"
      },
      "t_bool": {
        "encoding": "inplace",
        "label": "bool",
        "numberOfBytes": "1"
      },
      "t_bytes32": {
        "encoding": "inplace",
        "label": "bytes32",
        "numberOfBytes": "32"
      },
      "t_contract(IBonus)14737": {
        "encoding": "inplace",
        "label": "contract IBonus",
        "numberOfBytes": "20"
      },
      "t_contract(ISuAccessControl)14764": {
        "encoding": "inplace",
        "label": "contract ISuAccessControl",
        "numberOfBytes": "20"
      },
      "t_int256": {
        "encoding": "inplace",
        "label": "int256",
        "numberOfBytes": "32"
      },
      "t_mapping(t_address,t_uint256)": {
        "encoding": "mapping",
        "key": "t_address",
        "label": "mapping(address => uint256)",
        "numberOfBytes": "32",
        "value": "t_uint256"
      },
      "t_mapping(t_bytes32,t_uint256)": {
        "encoding": "mapping",
        "key": "t_bytes32",
        "label": "mapping(bytes32 => uint256)",
        "numberOfBytes": "32",
        "value": "t_uint256"
      },
      "t_struct(AddressSet)12071_storage": {
        "encoding": "inplace",
        "label": "struct EnumerableSet.AddressSet",
        "members": [
          {
            "astId": 12070,
            "contract": "contracts/distributions/TokenDistributorV4.sol:TokenDistributorV4",
            "label": "_inner",
            "offset": 0,
            "slot": "0",
            "type": "t_struct(Set)11770_storage"
          }
        ],
        "numberOfBytes": "64"
      },
      "t_struct(BonusStats)13580_storage": {
        "encoding": "inplace",
        "label": "struct TokenDistributorV4.BonusStats",
        "members": [
          {
            "astId": 13579,
            "contract": "contracts/distributions/TokenDistributorV4.sol:TokenDistributorV4",
            "label": "bonusRewarded",
            "offset": 0,
            "slot": "0",
            "type": "t_uint256"
          }
        ],
        "numberOfBytes": "32"
      },
      "t_struct(Set)11770_storage": {
        "encoding": "inplace",
        "label": "struct EnumerableSet.Set",
        "members": [
          {
            "astId": 11765,
            "contract": "contracts/distributions/TokenDistributorV4.sol:TokenDistributorV4",
            "label": "_values",
            "offset": 0,
            "slot": "0",
            "type": "t_array(t_bytes32)dyn_storage"
          },
          {
            "astId": 11769,
            "contract": "contracts/distributions/TokenDistributorV4.sol:TokenDistributorV4",
            "label": "_indexes",
            "offset": 0,
            "slot": "1",
            "type": "t_mapping(t_bytes32,t_uint256)"
          }
        ],
        "numberOfBytes": "64"
      },
      "t_uint256": {
        "encoding": "inplace",
        "label": "uint256",
        "numberOfBytes": "32"
      },
      "t_uint64": {
        "encoding": "inplace",
        "label": "uint64",
        "numberOfBytes": "8"
      },
      "t_uint8": {
        "encoding": "inplace",
        "label": "uint8",
        "numberOfBytes": "1"
      }
    }
  }
}