{
  "address": "0x1e17D32e27bcC238c57813Df6A2c52f7797Dc9F0",
  "abi": [
    {
      "inputs": [
        {
          "internalType": "bytes32",
          "name": "role",
          "type": "bytes32"
        },
        {
          "internalType": "address",
          "name": "msgSender",
          "type": "address"
        }
      ],
      "name": "OnlyRoleError",
      "type": "error"
    },
    {
      "anonymous": false,
      "inputs": [
        {
          "indexed": true,
          "internalType": "address",
          "name": "owner",
          "type": "address"
        },
        {
          "indexed": true,
          "internalType": "address",
          "name": "spender",
          "type": "address"
        },
        {
          "indexed": false,
          "internalType": "uint256",
          "name": "value",
          "type": "uint256"
        }
      ],
      "name": "Approval",
      "type": "event"
    },
    {
      "anonymous": false,
      "inputs": [
        {
          "indexed": false,
          "internalType": "uint8",
          "name": "version",
          "type": "uint8"
        }
      ],
      "name": "Initialized",
      "type": "event"
    },
    {
      "anonymous": false,
      "inputs": [
        {
          "indexed": true,
          "internalType": "address",
          "name": "from",
          "type": "address"
        },
        {
          "indexed": true,
          "internalType": "address",
          "name": "to",
          "type": "address"
        },
        {
          "indexed": false,
          "internalType": "uint256",
          "name": "value",
          "type": "uint256"
        }
      ],
      "name": "Transfer",
      "type": "event"
    },
    {
      "inputs": [],
      "name": "ACCESS_CONTROL_SINGLETON",
      "outputs": [
        {
          "internalType": "contract ISuAccessControl",
          "name": "",
          "type": "address"
        }
      ],
      "stateMutability": "view",
      "type": "function"
    },
    {
      "inputs": [],
      "name": "ADMIN_ROLE",
      "outputs": [
        {
          "internalType": "bytes32",
          "name": "",
          "type": "bytes32"
        }
      ],
      "stateMutability": "view",
      "type": "function"
    },
    {
      "inputs": [],
      "name": "COMMUNITY_ADMIN_ROLE",
      "outputs": [
        {
          "internalType": "bytes32",
          "name": "",
          "type": "bytes32"
        }
      ],
      "stateMutability": "view",
      "type": "function"
    },
    {
      "inputs": [],
      "name": "DAO_ROLE",
      "outputs": [
        {
          "internalType": "bytes32",
          "name": "",
          "type": "bytes32"
        }
      ],
      "stateMutability": "view",
      "type": "function"
    },
    {
      "inputs": [],
      "name": "DEFAULT_ADMIN_ROLE",
      "outputs": [
        {
          "internalType": "bytes32",
          "name": "",
          "type": "bytes32"
        }
      ],
      "stateMutability": "view",
      "type": "function"
    },
    {
      "inputs": [],
      "name": "LOCKED_TOKEN",
      "outputs": [
        {
          "internalType": "contract ERC20Upgradeable",
          "name": "",
          "type": "address"
        }
      ],
      "stateMutability": "view",
      "type": "function"
    },
    {
      "inputs": [],
      "name": "TGE_MAX_TIMESTAMP",
      "outputs": [
        {
          "internalType": "uint32",
          "name": "",
          "type": "uint32"
        }
      ],
      "stateMutability": "view",
      "type": "function"
    },
    {
      "inputs": [
        {
          "internalType": "address",
          "name": "account",
          "type": "address"
        },
        {
          "internalType": "uint256",
          "name": "amount",
          "type": "uint256"
        }
      ],
      "name": "addBalance",
      "outputs": [],
      "stateMutability": "nonpayable",
      "type": "function"
    },
    {
      "inputs": [
        {
          "internalType": "address",
          "name": "owner",
          "type": "address"
        },
        {
          "internalType": "address",
          "name": "spender",
          "type": "address"
        }
      ],
      "name": "allowance",
      "outputs": [
        {
          "internalType": "uint256",
          "name": "",
          "type": "uint256"
        }
      ],
      "stateMutability": "view",
      "type": "function"
    },
    {
      "inputs": [
        {
          "internalType": "address",
          "name": "spender",
          "type": "address"
        },
        {
          "internalType": "uint256",
          "name": "amount",
          "type": "uint256"
        }
      ],
      "name": "approve",
      "outputs": [
        {
          "internalType": "bool",
          "name": "",
          "type": "bool"
        }
      ],
      "stateMutability": "nonpayable",
      "type": "function"
    },
    {
      "inputs": [
        {
          "internalType": "address",
          "name": "user",
          "type": "address"
        }
      ],
      "name": "availableToClaim",
      "outputs": [
        {
          "internalType": "uint256",
          "name": "",
          "type": "uint256"
        }
      ],
      "stateMutability": "view",
      "type": "function"
    },
    {
      "inputs": [
        {
          "internalType": "address",
          "name": "account",
          "type": "address"
        }
      ],
      "name": "balanceOf",
      "outputs": [
        {
          "internalType": "uint256",
          "name": "",
          "type": "uint256"
        }
      ],
      "stateMutability": "view",
      "type": "function"
    },
    {
      "inputs": [],
      "name": "claim",
      "outputs": [],
      "stateMutability": "nonpayable",
      "type": "function"
    },
    {
      "inputs": [],
      "name": "decimals",
      "outputs": [
        {
          "internalType": "uint8",
          "name": "",
          "type": "uint8"
        }
      ],
      "stateMutability": "view",
      "type": "function"
    },
    {
      "inputs": [
        {
          "internalType": "address",
          "name": "spender",
          "type": "address"
        },
        {
          "internalType": "uint256",
          "name": "subtractedValue",
          "type": "uint256"
        }
      ],
      "name": "decreaseAllowance",
      "outputs": [
        {
          "internalType": "bool",
          "name": "",
          "type": "bool"
        }
      ],
      "stateMutability": "nonpayable",
      "type": "function"
    },
    {
      "inputs": [
        {
          "internalType": "address",
          "name": "toAdmin",
          "type": "address"
        }
      ],
      "name": "donateTokens",
      "outputs": [],
      "stateMutability": "nonpayable",
      "type": "function"
    },
    {
      "inputs": [
        {
          "internalType": "bytes32",
          "name": "role",
          "type": "bytes32"
        }
      ],
      "name": "getRoleAdmin",
      "outputs": [
        {
          "internalType": "bytes32",
          "name": "",
          "type": "bytes32"
        }
      ],
      "stateMutability": "view",
      "type": "function"
    },
    {
      "inputs": [
        {
          "internalType": "bytes32",
          "name": "role",
          "type": "bytes32"
        },
        {
          "internalType": "address",
          "name": "account",
          "type": "address"
        }
      ],
      "name": "hasRole",
      "outputs": [
        {
          "internalType": "bool",
          "name": "",
          "type": "bool"
        }
      ],
      "stateMutability": "view",
      "type": "function"
    },
    {
      "inputs": [
        {
          "internalType": "address",
          "name": "spender",
          "type": "address"
        },
        {
          "internalType": "uint256",
          "name": "addedValue",
          "type": "uint256"
        }
      ],
      "name": "increaseAllowance",
      "outputs": [
        {
          "internalType": "bool",
          "name": "",
          "type": "bool"
        }
      ],
      "stateMutability": "nonpayable",
      "type": "function"
    },
    {
      "inputs": [
        {
          "internalType": "address",
          "name": "_accessControlSingleton",
          "type": "address"
        },
        {
          "internalType": "contract ERC20Upgradeable",
          "name": "_lockedToken",
          "type": "address"
        }
      ],
      "name": "initialize",
      "outputs": [],
      "stateMutability": "nonpayable",
      "type": "function"
    },
    {
      "inputs": [
        {
          "internalType": "address",
          "name": "account",
          "type": "address"
        },
        {
          "internalType": "uint256",
          "name": "amount",
          "type": "uint256"
        },
        {
          "internalType": "uint256",
          "name": "vestingSeconds",
          "type": "uint256"
        },
        {
          "internalType": "uint256",
          "name": "cliffSeconds",
          "type": "uint256"
        },
        {
          "internalType": "uint256",
          "name": "tgeUnlockRatio1e18",
          "type": "uint256"
        },
        {
          "internalType": "uint256",
          "name": "vestingFrequencySeconds",
          "type": "uint256"
        }
      ],
      "name": "lockUnderVesting",
      "outputs": [],
      "stateMutability": "nonpayable",
      "type": "function"
    },
    {
      "inputs": [],
      "name": "name",
      "outputs": [
        {
          "internalType": "string",
          "name": "",
          "type": "string"
        }
      ],
      "stateMutability": "view",
      "type": "function"
    },
    {
      "inputs": [
        {
          "internalType": "contract ERC20Upgradeable",
          "name": "token",
          "type": "address"
        }
      ],
      "name": "rescue",
      "outputs": [],
      "stateMutability": "nonpayable",
      "type": "function"
    },
    {
      "inputs": [
        {
          "internalType": "bytes4",
          "name": "interfaceId",
          "type": "bytes4"
        }
      ],
      "name": "supportsInterface",
      "outputs": [
        {
          "internalType": "bool",
          "name": "",
          "type": "bool"
        }
      ],
      "stateMutability": "view",
      "type": "function"
    },
    {
      "inputs": [],
      "name": "symbol",
      "outputs": [
        {
          "internalType": "string",
          "name": "",
          "type": "string"
        }
      ],
      "stateMutability": "view",
      "type": "function"
    },
    {
      "inputs": [],
      "name": "tgeTimestamp",
      "outputs": [
        {
          "internalType": "uint32",
          "name": "",
          "type": "uint32"
        }
      ],
      "stateMutability": "view",
      "type": "function"
    },
    {
      "inputs": [
        {
          "internalType": "address",
          "name": "user",
          "type": "address"
        }
      ],
      "name": "totalClaimed",
      "outputs": [
        {
          "internalType": "uint256",
          "name": "",
          "type": "uint256"
        }
      ],
      "stateMutability": "view",
      "type": "function"
    },
    {
      "inputs": [
        {
          "internalType": "address",
          "name": "user",
          "type": "address"
        }
      ],
      "name": "totalDeposited",
      "outputs": [
        {
          "internalType": "uint256",
          "name": "",
          "type": "uint256"
        }
      ],
      "stateMutability": "view",
      "type": "function"
    },
    {
      "inputs": [],
      "name": "totalSupply",
      "outputs": [
        {
          "internalType": "uint256",
          "name": "",
          "type": "uint256"
        }
      ],
      "stateMutability": "view",
      "type": "function"
    },
    {
      "inputs": [
        {
          "internalType": "address",
          "name": "to",
          "type": "address"
        },
        {
          "internalType": "uint256",
          "name": "amount",
          "type": "uint256"
        }
      ],
      "name": "transfer",
      "outputs": [
        {
          "internalType": "bool",
          "name": "",
          "type": "bool"
        }
      ],
      "stateMutability": "nonpayable",
      "type": "function"
    },
    {
      "inputs": [
        {
          "internalType": "address",
          "name": "from",
          "type": "address"
        },
        {
          "internalType": "address",
          "name": "to",
          "type": "address"
        },
        {
          "internalType": "uint256",
          "name": "amount",
          "type": "uint256"
        }
      ],
      "name": "transferFrom",
      "outputs": [
        {
          "internalType": "bool",
          "name": "",
          "type": "bool"
        }
      ],
      "stateMutability": "nonpayable",
      "type": "function"
    },
    {
      "inputs": [
        {
          "internalType": "uint32",
          "name": "newTgeTimestamp",
          "type": "uint32"
        }
      ],
      "name": "updateTgeTimestamp",
      "outputs": [],
      "stateMutability": "nonpayable",
      "type": "function"
    },
    {
      "inputs": [
        {
          "internalType": "address",
          "name": "",
          "type": "address"
        }
      ],
      "name": "vestingInfo",
      "outputs": [
        {
          "internalType": "uint256",
          "name": "amountAlreadyWithdrawn",
          "type": "uint256"
        },
        {
          "internalType": "uint256",
          "name": "cliffSeconds",
          "type": "uint256"
        },
        {
          "internalType": "uint256",
          "name": "vestingSeconds",
          "type": "uint256"
        },
        {
          "internalType": "uint256",
          "name": "tgeUnlockRatio1e18",
          "type": "uint256"
        },
        {
          "internalType": "uint256",
          "name": "vestingFrequencySeconds",
          "type": "uint256"
        }
      ],
      "stateMutability": "view",
      "type": "function"
    },
    {
      "stateMutability": "payable",
      "type": "receive"
    }
  ],
  "numDeployments": 1,
  "solcInputHash": "f7ea498ab8c47a60e64e4e9fbd9b2f67",
  "bytecode": "0x608060405234801561001057600080fd5b50614732806100206000396000f3fe6080604052600436106101f25760003560e01c806370a082311161010d578063a217fddf116100a0578063dd62ed3e1161006f578063dd62ed3e14610758578063e9c2651814610795578063ea9e9a81146107c0578063ef5d9ae8146107eb578063f78e633d14610828576101f9565b8063a217fddf14610688578063a4317ef4146106b3578063a457c2d7146106de578063a9059cbb1461071b576101f9565b8063925bf5d4116100dc578063925bf5d4146105e057806393a56edc1461060957806395367f891461063257806395d89b411461065d576101f9565b806370a082311461051257806375b238fc1461054f578063839006f21461057a57806391d14854146105a3576101f9565b806323b872dd11610185578063485cc95511610154578063485cc9551461046a5780634e71d92d1461049357806353055481146104aa57806369287862146104e7576101f9565b806323b872dd14610388578063248a9ca3146103c5578063313ce56714610402578063395093511461042d576101f9565b8063095ea7b3116101c1578063095ea7b3146102ba5780630da45188146102f757806318160ddd1461033457806321e5383a1461035f576101f9565b806301ffc9a7146101fe57806303ee9f221461023b57806306fdde03146102665780630861436214610291576101f9565b366101f957005b600080fd5b34801561020a57600080fd5b5061022560048036038101906102209190612bf4565b610869565b6040516102329190612c3c565b60405180910390f35b34801561024757600080fd5b5061025061090e565b60405161025d9190612cd6565b60405180910390f35b34801561027257600080fd5b5061027b610934565b6040516102889190612d8a565b60405180910390f35b34801561029d57600080fd5b506102b860048036038101906102b39190612dea565b6109c6565b005b3480156102c657600080fd5b506102e160048036038101906102dc9190612e4d565b610b75565b6040516102ee9190612c3c565b60405180910390f35b34801561030357600080fd5b5061031e60048036038101906103199190612dea565b610b98565b60405161032b9190612e9c565b60405180910390f35b34801561034057600080fd5b50610349610d9e565b6040516103569190612e9c565b60405180910390f35b34801561036b57600080fd5b5061038660048036038101906103819190612e4d565b610da8565b005b34801561039457600080fd5b506103af60048036038101906103aa9190612eb7565b610e05565b6040516103bc9190612c3c565b60405180910390f35b3480156103d157600080fd5b506103ec60048036038101906103e79190612f40565b610e34565b6040516103f99190612f7c565b60405180910390f35b34801561040e57600080fd5b50610417610ed9565b6040516104249190612fb3565b60405180910390f35b34801561043957600080fd5b50610454600480360381019061044f9190612e4d565b610ee2565b6040516104619190612c3c565b60405180910390f35b34801561047657600080fd5b50610491600480360381019061048c919061300c565b610f19565b005b34801561049f57600080fd5b506104a8611221565b005b3480156104b657600080fd5b506104d160048036038101906104cc9190612dea565b611355565b6040516104de9190612e9c565b60405180910390f35b3480156104f357600080fd5b506104fc6113d8565b604051610509919061306d565b60405180910390f35b34801561051e57600080fd5b5061053960048036038101906105349190612dea565b6113fe565b6040516105469190612e9c565b60405180910390f35b34801561055b57600080fd5b5061056461145d565b6040516105719190612f7c565b60405180910390f35b34801561058657600080fd5b506105a1600480360381019061059c9190613088565b611481565b005b3480156105af57600080fd5b506105ca60048036038101906105c591906130b5565b61171b565b6040516105d79190612c3c565b60405180910390f35b3480156105ec57600080fd5b5061060760048036038101906106029190613131565b6117c3565b005b34801561061557600080fd5b50610630600480360381019061062b919061315e565b611979565b005b34801561063e57600080fd5b50610647611a97565b6040516106549190612f7c565b60405180910390f35b34801561066957600080fd5b50610672611abb565b60405161067f9190612d8a565b60405180910390f35b34801561069457600080fd5b5061069d611b4d565b6040516106aa9190612f7c565b60405180910390f35b3480156106bf57600080fd5b506106c8611b54565b6040516106d591906131fa565b60405180910390f35b3480156106ea57600080fd5b5061070560048036038101906107009190612e4d565b611b6a565b6040516107129190612c3c565b60405180910390f35b34801561072757600080fd5b50610742600480360381019061073d9190612e4d565b611be1565b60405161074f9190612c3c565b60405180910390f35b34801561076457600080fd5b5061077f600480360381019061077a9190613215565b611c04565b60405161078c9190612e9c565b60405180910390f35b3480156107a157600080fd5b506107aa611c8b565b6040516107b79190612f7c565b60405180910390f35b3480156107cc57600080fd5b506107d5611c92565b6040516107e291906131fa565b60405180910390f35b3480156107f757600080fd5b50610812600480360381019061080d9190612dea565b611ca8565b60405161081f9190612e9c565b60405180910390f35b34801561083457600080fd5b5061084f600480360381019061084a9190612dea565b611cf4565b604051610860959493929190613255565b60405180910390f35b6000606560009054906101000a900473ffffffffffffffffffffffffffffffffffffffff1673ffffffffffffffffffffffffffffffffffffffff166301ffc9a7836040518263ffffffff1660e01b81526004016108c691906132b7565b602060405180830381865afa1580156108e3573d6000803e3d6000fd5b505050506040513d601f19601f8201168201806040525081019061090791906132fe565b9050919050565b606560009054906101000a900473ffffffffffffffffffffffffffffffffffffffff1681565b6060603680546109439061335a565b80601f016020809104026020016040519081016040528092919081815260200182805461096f9061335a565b80156109bc5780601f10610991576101008083540402835291602001916109bc565b820191906000526020600020905b81548152906001019060200180831161099f57829003601f168201915b5050505050905090565b600115156109f47fa49807205ce4d355092ef5a8a18f56e8913cf4a201fbe287825b095693c217758361171b565b151514610a36576040517f08c379a0000000000000000000000000000000000000000000000000000000008152600401610a2d906133d7565b60405180910390fd5b6000610a41336113fe565b905060008111610a86576040517f08c379a0000000000000000000000000000000000000000000000000000000008152600401610a7d90613443565b60405180910390fd5b8067ffffffffffffffff16609860003373ffffffffffffffffffffffffffffffffffffffff1673ffffffffffffffffffffffffffffffffffffffff16815260200190815260200160002060000154610ade9190613492565b609860003373ffffffffffffffffffffffffffffffffffffffff1673ffffffffffffffffffffffffffffffffffffffff16815260200190815260200160002060000181905550610b718282609760009054906101000a900473ffffffffffffffffffffffffffffffffffffffff1673ffffffffffffffffffffffffffffffffffffffff16611d2a9092919063ffffffff16565b5050565b600080610b80611db0565b9050610b8d818585611db8565b600191505092915050565b600080609860008473ffffffffffffffffffffffffffffffffffffffff1673ffffffffffffffffffffffffffffffffffffffff1681526020019081526020016000206040518060a00160405290816000820154815260200160018201548152602001600282015481526020016003820154815260200160048201548152505090506000429050609760189054906101000a900463ffffffff1663ffffffff16811015610c4957600092505050610d99565b6000670de0b6b3a76400008360600151610c6287611f81565b610c6c91906134e8565b610c769190613571565b90508260200151609760189054906101000a900463ffffffff1663ffffffff16610ca09190613492565b8210610d8357818360400151609760189054906101000a900463ffffffff1663ffffffff16610ccf9190613492565b1015610ce557610cde85611f81565b9050610d82565b6000610cf086611f81565b905060008460200151609760189054906101000a900463ffffffff1663ffffffff16610d1c9190613492565b84610d2791906135a2565b9050600085602001518660400151610d3f91906135a2565b905060008660800151876080015184610d589190613571565b610d6291906134e8565b9050818185610d7191906134e8565b610d7b9190613571565b9450505050505b5b826000015181610d9391906135a2565b93505050505b919050565b6000603554905090565b610df7333083609760009054906101000a900473ffffffffffffffffffffffffffffffffffffffff1673ffffffffffffffffffffffffffffffffffffffff16611fca909392919063ffffffff16565b610e018282612053565b5050565b600080610e10611db0565b9050610e1d8582856121b3565b610e2885858561223f565b60019150509392505050565b6000606560009054906101000a900473ffffffffffffffffffffffffffffffffffffffff1673ffffffffffffffffffffffffffffffffffffffff1663248a9ca3836040518263ffffffff1660e01b8152600401610e919190612f7c565b602060405180830381865afa158015610eae573d6000803e3d6000fd5b505050506040513d601f19601f82011682018060405250810190610ed291906135eb565b9050919050565b60006012905090565b600080610eed611db0565b9050610f0e818585610eff8589611c04565b610f099190613492565b611db8565b600191505092915050565b60008060019054906101000a900460ff16159050808015610f4a5750600160008054906101000a900460ff1660ff16105b80610f775750610f59306124c1565b158015610f765750600160008054906101000a900460ff1660ff16145b5b610fb6576040517f08c379a0000000000000000000000000000000000000000000000000000000008152600401610fad9061368a565b60405180910390fd5b60016000806101000a81548160ff021916908360ff1602179055508015610ff3576001600060016101000a81548160ff0219169083151502179055505b610ffc836124e4565b61112a8273ffffffffffffffffffffffffffffffffffffffff166306fdde036040518163ffffffff1660e01b8152600401600060405180830381865afa15801561104a573d6000803e3d6000fd5b505050506040513d6000823e3d601f19601f8201168201806040525081019061107391906137d0565b604051602001611083919061387b565b6040516020818303038152906040528373ffffffffffffffffffffffffffffffffffffffff166395d89b416040518163ffffffff1660e01b8152600401600060405180830381865afa1580156110dd573d6000803e3d6000fd5b505050506040513d6000823e3d601f19601f8201168201806040525081019061110691906137d0565b60405160200161111691906138c7565b604051602081830303815290604052612577565b81609760006101000a81548173ffffffffffffffffffffffffffffffffffffffff021916908373ffffffffffffffffffffffffffffffffffffffff160217905550636477df80609760146101000a81548163ffffffff021916908363ffffffff160217905550609760149054906101000a900463ffffffff16609760186101000a81548163ffffffff021916908363ffffffff160217905550801561121c5760008060016101000a81548160ff0219169083151502179055507f7f26b83ff96e1f2b6a682f133852f6798a09c465da95921460cefb384740249860016040516112139190613928565b60405180910390a15b505050565b600061122c33610b98565b905060008111611271576040517f08c379a00000000000000000000000000000000000000000000000000000000081526004016112689061398f565b60405180910390fd5b80609860003373ffffffffffffffffffffffffffffffffffffffff1673ffffffffffffffffffffffffffffffffffffffff168152602001908152602001600020600001546112bf9190613492565b609860003373ffffffffffffffffffffffffffffffffffffffff1673ffffffffffffffffffffffffffffffffffffffff168152602001908152602001600020600001819055506113523382609760009054906101000a900473ffffffffffffffffffffffffffffffffffffffff1673ffffffffffffffffffffffffffffffffffffffff16611d2a9092919063ffffffff16565b50565b60003073ffffffffffffffffffffffffffffffffffffffff166370a08231836040518263ffffffff1660e01b815260040161139091906139be565b602060405180830381865afa1580156113ad573d6000803e3d6000fd5b505050506040513d601f19601f820116820180604052508101906113d191906139ee565b9050919050565b609760009054906101000a900473ffffffffffffffffffffffffffffffffffffffff1681565b6000609860008373ffffffffffffffffffffffffffffffffffffffff1673ffffffffffffffffffffffffffffffffffffffff1681526020019081526020016000206000015461144c83611f81565b61145691906135a2565b9050919050565b7fa49807205ce4d355092ef5a8a18f56e8913cf4a201fbe287825b095693c2177581565b6000801b606560009054906101000a900473ffffffffffffffffffffffffffffffffffffffff1673ffffffffffffffffffffffffffffffffffffffff166391d1485482336040518363ffffffff1660e01b81526004016114e2929190613a1b565b602060405180830381865afa1580156114ff573d6000803e3d6000fd5b505050506040513d601f19601f8201168201806040525081019061152391906132fe565b611562576040517f08c379a000000000000000000000000000000000000000000000000000000000815260040161155990613a90565b60405180910390fd5b609760009054906101000a900473ffffffffffffffffffffffffffffffffffffffff1673ffffffffffffffffffffffffffffffffffffffff168273ffffffffffffffffffffffffffffffffffffffff16036115f2576040517f08c379a00000000000000000000000000000000000000000000000000000000081526004016115e990613afc565b60405180910390fd5b600073ffffffffffffffffffffffffffffffffffffffff168273ffffffffffffffffffffffffffffffffffffffff1603611672573373ffffffffffffffffffffffffffffffffffffffff166108fc479081150290604051600060405180830381858888f1935050505015801561166c573d6000803e3d6000fd5b50611717565b611716338373ffffffffffffffffffffffffffffffffffffffff166370a08231306040518263ffffffff1660e01b81526004016116af91906139be565b602060405180830381865afa1580156116cc573d6000803e3d6000fd5b505050506040513d601f19601f820116820180604052508101906116f091906139ee565b8473ffffffffffffffffffffffffffffffffffffffff16611d2a9092919063ffffffff16565b5b5050565b6000606560009054906101000a900473ffffffffffffffffffffffffffffffffffffffff1673ffffffffffffffffffffffffffffffffffffffff166391d1485484846040518363ffffffff1660e01b815260040161177a929190613a1b565b602060405180830381865afa158015611797573d6000803e3d6000fd5b505050506040513d601f19601f820116820180604052508101906117bb91906132fe565b905092915050565b6000801b606560009054906101000a900473ffffffffffffffffffffffffffffffffffffffff1673ffffffffffffffffffffffffffffffffffffffff166391d1485482336040518363ffffffff1660e01b8152600401611824929190613a1b565b602060405180830381865afa158015611841573d6000803e3d6000fd5b505050506040513d601f19601f8201168201806040525081019061186591906132fe565b6118a4576040517f08c379a000000000000000000000000000000000000000000000000000000000815260040161189b90613a90565b60405180910390fd5b8163ffffffff164263ffffffff1611156118f3576040517f08c379a00000000000000000000000000000000000000000000000000000000081526004016118ea90613b8e565b60405180910390fd5b609760149054906101000a900463ffffffff1663ffffffff168263ffffffff161115611954576040517f08c379a000000000000000000000000000000000000000000000000000000000815260040161194b90613c20565b60405180910390fd5b81609760186101000a81548163ffffffff021916908363ffffffff1602179055505050565b7fa49807205ce4d355092ef5a8a18f56e8913cf4a201fbe287825b095693c21775606560009054906101000a900473ffffffffffffffffffffffffffffffffffffffff1673ffffffffffffffffffffffffffffffffffffffff166391d1485482336040518363ffffffff1660e01b81526004016119f7929190613a1b565b602060405180830381865afa158015611a14573d6000803e3d6000fd5b505050506040513d601f19601f82011682018060405250810190611a3891906132fe565b611a77576040517f08c379a0000000000000000000000000000000000000000000000000000000008152600401611a6e90613a90565b60405180910390fd5b611a8487868686866125d4565b611a8e8787610da8565b50505050505050565b7f0a7cc066f24e107ff77c42c8a1bdaf1a5f775fa4a74e45530aaf9c866368f65381565b606060378054611aca9061335a565b80601f0160208091040260200160405190810160405280929190818152602001828054611af69061335a565b8015611b435780601f10611b1857610100808354040283529160200191611b43565b820191906000526020600020905b815481529060010190602001808311611b2657829003601f168201915b5050505050905090565b6000801b81565b609760189054906101000a900463ffffffff1681565b600080611b75611db0565b90506000611b838286611c04565b905083811015611bc8576040517f08c379a0000000000000000000000000000000000000000000000000000000008152600401611bbf90613cb2565b60405180910390fd5b611bd58286868403611db8565b60019250505092915050565b600080611bec611db0565b9050611bf981858561223f565b600191505092915050565b6000603460008473ffffffffffffffffffffffffffffffffffffffff1673ffffffffffffffffffffffffffffffffffffffff16815260200190815260200160002060008373ffffffffffffffffffffffffffffffffffffffff1673ffffffffffffffffffffffffffffffffffffffff16815260200190815260200160002054905092915050565b6000801b81565b609760149054906101000a900463ffffffff1681565b6000609860008373ffffffffffffffffffffffffffffffffffffffff1673ffffffffffffffffffffffffffffffffffffffff168152602001908152602001600020600001549050919050565b60986020528060005260406000206000915090508060000154908060010154908060020154908060030154908060040154905085565b611dab8363a9059cbb60e01b8484604051602401611d49929190613cd2565b604051602081830303815290604052907bffffffffffffffffffffffffffffffffffffffffffffffffffffffff19166020820180517bffffffffffffffffffffffffffffffffffffffffffffffffffffffff83818316178352505050506128b1565b505050565b600033905090565b600073ffffffffffffffffffffffffffffffffffffffff168373ffffffffffffffffffffffffffffffffffffffff1603611e27576040517f08c379a0000000000000000000000000000000000000000000000000000000008152600401611e1e90613d6d565b60405180910390fd5b600073ffffffffffffffffffffffffffffffffffffffff168273ffffffffffffffffffffffffffffffffffffffff1603611e96576040517f08c379a0000000000000000000000000000000000000000000000000000000008152600401611e8d90613dff565b60405180910390fd5b80603460008573ffffffffffffffffffffffffffffffffffffffff1673ffffffffffffffffffffffffffffffffffffffff16815260200190815260200160002060008473ffffffffffffffffffffffffffffffffffffffff1673ffffffffffffffffffffffffffffffffffffffff168152602001908152602001600020819055508173ffffffffffffffffffffffffffffffffffffffff168373ffffffffffffffffffffffffffffffffffffffff167f8c5be1e5ebec7d5bd14f71427d1e84f3dd0314c0f7b2291e5b200ac8c7c3b92583604051611f749190612e9c565b60405180910390a3505050565b6000603360008373ffffffffffffffffffffffffffffffffffffffff1673ffffffffffffffffffffffffffffffffffffffff168152602001908152602001600020549050919050565b61204d846323b872dd60e01b858585604051602401611feb93929190613e1f565b604051602081830303815290604052907bffffffffffffffffffffffffffffffffffffffffffffffffffffffff19166020820180517bffffffffffffffffffffffffffffffffffffffffffffffffffffffff83818316178352505050506128b1565b50505050565b600073ffffffffffffffffffffffffffffffffffffffff168273ffffffffffffffffffffffffffffffffffffffff16036120c2576040517f08c379a00000000000000000000000000000000000000000000000000000000081526004016120b990613ea2565b60405180910390fd5b6120ce60008383612978565b80603560008282546120e09190613492565b9250508190555080603360008473ffffffffffffffffffffffffffffffffffffffff1673ffffffffffffffffffffffffffffffffffffffff16815260200190815260200160002060008282546121369190613492565b925050819055508173ffffffffffffffffffffffffffffffffffffffff16600073ffffffffffffffffffffffffffffffffffffffff167fddf252ad1be2c89b69c2b068fc378daa952ba7f163c4a11628f55a4df523b3ef8360405161219b9190612e9c565b60405180910390a36121af6000838361297d565b5050565b60006121bf8484611c04565b90507fffffffffffffffffffffffffffffffffffffffffffffffffffffffffffffffff8114612239578181101561222b576040517f08c379a000000000000000000000000000000000000000000000000000000000815260040161222290613f0e565b60405180910390fd5b6122388484848403611db8565b5b50505050565b600073ffffffffffffffffffffffffffffffffffffffff168373ffffffffffffffffffffffffffffffffffffffff16036122ae576040517f08c379a00000000000000000000000000000000000000000000000000000000081526004016122a590613fa0565b60405180910390fd5b600073ffffffffffffffffffffffffffffffffffffffff168273ffffffffffffffffffffffffffffffffffffffff160361231d576040517f08c379a000000000000000000000000000000000000000000000000000000000815260040161231490614032565b60405180910390fd5b612328838383612978565b6000603360008573ffffffffffffffffffffffffffffffffffffffff1673ffffffffffffffffffffffffffffffffffffffff168152602001908152602001600020549050818110156123af576040517f08c379a00000000000000000000000000000000000000000000000000000000081526004016123a6906140c4565b60405180910390fd5b818103603360008673ffffffffffffffffffffffffffffffffffffffff1673ffffffffffffffffffffffffffffffffffffffff1681526020019081526020016000208190555081603360008573ffffffffffffffffffffffffffffffffffffffff1673ffffffffffffffffffffffffffffffffffffffff16815260200190815260200160002060008282546124449190613492565b925050819055508273ffffffffffffffffffffffffffffffffffffffff168473ffffffffffffffffffffffffffffffffffffffff167fddf252ad1be2c89b69c2b068fc378daa952ba7f163c4a11628f55a4df523b3ef846040516124a89190612e9c565b60405180910390a36124bb84848461297d565b50505050565b6000808273ffffffffffffffffffffffffffffffffffffffff163b119050919050565b600060019054906101000a900460ff16612533576040517f08c379a000000000000000000000000000000000000000000000000000000000815260040161252a90614156565b60405180910390fd5b80606560006101000a81548173ffffffffffffffffffffffffffffffffffffffff021916908373ffffffffffffffffffffffffffffffffffffffff16021790555050565b600060019054906101000a900460ff166125c6576040517f08c379a00000000000000000000000000000000000000000000000000000000081526004016125bd90614156565b60405180910390fd5b6125d08282612982565b5050565b83831115612617576040517f08c379a000000000000000000000000000000000000000000000000000000000815260040161260e906141e8565b60405180910390fd5b670de0b6b3a7640000821115612662576040517f08c379a00000000000000000000000000000000000000000000000000000000081526004016126599061427a565b60405180910390fd5b83609860008773ffffffffffffffffffffffffffffffffffffffff1673ffffffffffffffffffffffffffffffffffffffff1681526020019081526020016000206002015410156126f45783609860008773ffffffffffffffffffffffffffffffffffffffff1673ffffffffffffffffffffffffffffffffffffffff168152602001908152602001600020600201819055505b82609860008773ffffffffffffffffffffffffffffffffffffffff1673ffffffffffffffffffffffffffffffffffffffff1681526020019081526020016000206001015410156127865782609860008773ffffffffffffffffffffffffffffffffffffffff1673ffffffffffffffffffffffffffffffffffffffff168152602001908152602001600020600101819055505b81609860008773ffffffffffffffffffffffffffffffffffffffff1673ffffffffffffffffffffffffffffffffffffffff1681526020019081526020016000206003015411156128185781609860008773ffffffffffffffffffffffffffffffffffffffff1673ffffffffffffffffffffffffffffffffffffffff168152602001908152602001600020600301819055505b80609860008773ffffffffffffffffffffffffffffffffffffffff1673ffffffffffffffffffffffffffffffffffffffff1681526020019081526020016000206004015410156128aa5780609860008773ffffffffffffffffffffffffffffffffffffffff1673ffffffffffffffffffffffffffffffffffffffff168152602001908152602001600020600401819055505b5050505050565b6000612913826040518060400160405280602081526020017f5361666545524332303a206c6f772d6c6576656c2063616c6c206661696c65648152508573ffffffffffffffffffffffffffffffffffffffff166129f59092919063ffffffff16565b9050600081511115612973578080602001905181019061293391906132fe565b612972576040517f08c379a00000000000000000000000000000000000000000000000000000000081526004016129699061430c565b60405180910390fd5b5b505050565b505050565b505050565b600060019054906101000a900460ff166129d1576040517f08c379a00000000000000000000000000000000000000000000000000000000081526004016129c890614156565b60405180910390fd5b81603690816129e091906144ce565b5080603790816129f091906144ce565b505050565b6060612a048484600085612a0d565b90509392505050565b606082471015612a52576040517f08c379a0000000000000000000000000000000000000000000000000000000008152600401612a4990614612565b60405180910390fd5b612a5b856124c1565b612a9a576040517f08c379a0000000000000000000000000000000000000000000000000000000008152600401612a919061467e565b60405180910390fd5b6000808673ffffffffffffffffffffffffffffffffffffffff168587604051612ac391906146e5565b60006040518083038185875af1925050503d8060008114612b00576040519150601f19603f3d011682016040523d82523d6000602084013e612b05565b606091505b5091509150612b15828286612b21565b92505050949350505050565b60608315612b3157829050612b81565b600083511115612b445782518084602001fd5b816040517f08c379a0000000000000000000000000000000000000000000000000000000008152600401612b789190612d8a565b60405180910390fd5b9392505050565b6000604051905090565b600080fd5b600080fd5b60007fffffffff0000000000000000000000000000000000000000000000000000000082169050919050565b612bd181612b9c565b8114612bdc57600080fd5b50565b600081359050612bee81612bc8565b92915050565b600060208284031215612c0a57612c09612b92565b5b6000612c1884828501612bdf565b91505092915050565b60008115159050919050565b612c3681612c21565b82525050565b6000602082019050612c516000830184612c2d565b92915050565b600073ffffffffffffffffffffffffffffffffffffffff82169050919050565b6000819050919050565b6000612c9c612c97612c9284612c57565b612c77565b612c57565b9050919050565b6000612cae82612c81565b9050919050565b6000612cc082612ca3565b9050919050565b612cd081612cb5565b82525050565b6000602082019050612ceb6000830184612cc7565b92915050565b600081519050919050565b600082825260208201905092915050565b60005b83811015612d2b578082015181840152602081019050612d10565b83811115612d3a576000848401525b50505050565b6000601f19601f8301169050919050565b6000612d5c82612cf1565b612d668185612cfc565b9350612d76818560208601612d0d565b612d7f81612d40565b840191505092915050565b60006020820190508181036000830152612da48184612d51565b905092915050565b6000612db782612c57565b9050919050565b612dc781612dac565b8114612dd257600080fd5b50565b600081359050612de481612dbe565b92915050565b600060208284031215612e0057612dff612b92565b5b6000612e0e84828501612dd5565b91505092915050565b6000819050919050565b612e2a81612e17565b8114612e3557600080fd5b50565b600081359050612e4781612e21565b92915050565b60008060408385031215612e6457612e63612b92565b5b6000612e7285828601612dd5565b9250506020612e8385828601612e38565b9150509250929050565b612e9681612e17565b82525050565b6000602082019050612eb16000830184612e8d565b92915050565b600080600060608486031215612ed057612ecf612b92565b5b6000612ede86828701612dd5565b9350506020612eef86828701612dd5565b9250506040612f0086828701612e38565b9150509250925092565b6000819050919050565b612f1d81612f0a565b8114612f2857600080fd5b50565b600081359050612f3a81612f14565b92915050565b600060208284031215612f5657612f55612b92565b5b6000612f6484828501612f2b565b91505092915050565b612f7681612f0a565b82525050565b6000602082019050612f916000830184612f6d565b92915050565b600060ff82169050919050565b612fad81612f97565b82525050565b6000602082019050612fc86000830184612fa4565b92915050565b6000612fd982612dac565b9050919050565b612fe981612fce565b8114612ff457600080fd5b50565b60008135905061300681612fe0565b92915050565b6000806040838503121561302357613022612b92565b5b600061303185828601612dd5565b925050602061304285828601612ff7565b9150509250929050565b600061305782612ca3565b9050919050565b6130678161304c565b82525050565b6000602082019050613082600083018461305e565b92915050565b60006020828403121561309e5761309d612b92565b5b60006130ac84828501612ff7565b91505092915050565b600080604083850312156130cc576130cb612b92565b5b60006130da85828601612f2b565b92505060206130eb85828601612dd5565b9150509250929050565b600063ffffffff82169050919050565b61310e816130f5565b811461311957600080fd5b50565b60008135905061312b81613105565b92915050565b60006020828403121561314757613146612b92565b5b60006131558482850161311c565b91505092915050565b60008060008060008060c0878903121561317b5761317a612b92565b5b600061318989828a01612dd5565b965050602061319a89828a01612e38565b95505060406131ab89828a01612e38565b94505060606131bc89828a01612e38565b93505060806131cd89828a01612e38565b92505060a06131de89828a01612e38565b9150509295509295509295565b6131f4816130f5565b82525050565b600060208201905061320f60008301846131eb565b92915050565b6000806040838503121561322c5761322b612b92565b5b600061323a85828601612dd5565b925050602061324b85828601612dd5565b9150509250929050565b600060a08201905061326a6000830188612e8d565b6132776020830187612e8d565b6132846040830186612e8d565b6132916060830185612e8d565b61329e6080830184612e8d565b9695505050505050565b6132b181612b9c565b82525050565b60006020820190506132cc60008301846132a8565b92915050565b6132db81612c21565b81146132e657600080fd5b50565b6000815190506132f8816132d2565b92915050565b60006020828403121561331457613313612b92565b5b6000613322848285016132e9565b91505092915050565b7f4e487b7100000000000000000000000000000000000000000000000000000000600052602260045260246000fd5b6000600282049050600182168061337257607f821691505b6020821081036133855761338461332b565b5b50919050565b7f696e76616c69642061646d696e20616464726573730000000000000000000000600082015250565b60006133c1601583612cfc565b91506133cc8261338b565b602082019050919050565b600060208201905081810360008301526133f0816133b4565b9050919050565b7f6e6f7468696e6720746f20646f6e617465000000000000000000000000000000600082015250565b600061342d601183612cfc565b9150613438826133f7565b602082019050919050565b6000602082019050818103600083015261345c81613420565b9050919050565b7f4e487b7100000000000000000000000000000000000000000000000000000000600052601160045260246000fd5b600061349d82612e17565b91506134a883612e17565b9250827fffffffffffffffffffffffffffffffffffffffffffffffffffffffffffffffff038211156134dd576134dc613463565b5b828201905092915050565b60006134f382612e17565b91506134fe83612e17565b9250817fffffffffffffffffffffffffffffffffffffffffffffffffffffffffffffffff048311821515161561353757613536613463565b5b828202905092915050565b7f4e487b7100000000000000000000000000000000000000000000000000000000600052601260045260246000fd5b600061357c82612e17565b915061358783612e17565b92508261359757613596613542565b5b828204905092915050565b60006135ad82612e17565b91506135b883612e17565b9250828210156135cb576135ca613463565b5b828203905092915050565b6000815190506135e581612f14565b92915050565b60006020828403121561360157613600612b92565b5b600061360f848285016135d6565b91505092915050565b7f496e697469616c697a61626c653a20636f6e747261637420697320616c72656160008201527f647920696e697469616c697a6564000000000000000000000000000000000000602082015250565b6000613674602e83612cfc565b915061367f82613618565b604082019050919050565b600060208201905081810360008301526136a381613667565b9050919050565b600080fd5b600080fd5b7f4e487b7100000000000000000000000000000000000000000000000000000000600052604160045260246000fd5b6136ec82612d40565b810181811067ffffffffffffffff8211171561370b5761370a6136b4565b5b80604052505050565b600061371e612b88565b905061372a82826136e3565b919050565b600067ffffffffffffffff82111561374a576137496136b4565b5b61375382612d40565b9050602081019050919050565b600061377361376e8461372f565b613714565b90508281526020810184848401111561378f5761378e6136af565b5b61379a848285612d0d565b509392505050565b600082601f8301126137b7576137b66136aa565b5b81516137c7848260208601613760565b91505092915050565b6000602082840312156137e6576137e5612b92565b5b600082015167ffffffffffffffff81111561380457613803612b97565b5b613810848285016137a2565b91505092915050565b7f76657374656420657363726f7720000000000000000000000000000000000000815250565b600081905092915050565b600061385582612cf1565b61385f818561383f565b935061386f818560208601612d0d565b80840191505092915050565b600061388682613819565b600e82019150613896828461384a565b915081905092915050565b7f7665000000000000000000000000000000000000000000000000000000000000815250565b60006138d2826138a1565b6002820191506138e2828461384a565b915081905092915050565b6000819050919050565b600061391261390d613908846138ed565b612c77565b612f97565b9050919050565b613922816138f7565b82525050565b600060208201905061393d6000830184613919565b92915050565b7f43616e277420636c61696d203020746f6b656e73000000000000000000000000600082015250565b6000613979601483612cfc565b915061398482613943565b602082019050919050565b600060208201905081810360008301526139a88161396c565b9050919050565b6139b881612dac565b82525050565b60006020820190506139d360008301846139af565b92915050565b6000815190506139e881612e21565b92915050565b600060208284031215613a0457613a03612b92565b5b6000613a12848285016139d9565b91505092915050565b6000604082019050613a306000830185612f6d565b613a3d60208301846139af565b9392505050565b7f4f6e6c79526f6c654572726f7200000000000000000000000000000000000000600082015250565b6000613a7a600d83612cfc565b9150613a8582613a44565b602082019050919050565b60006020820190508181036000830152613aa981613a6d565b9050919050565b7f4e6f20616c6c6f77656420746f20726573637565207468697320746f6b656e00600082015250565b6000613ae6601f83612cfc565b9150613af182613ab0565b602082019050919050565b60006020820190508181036000830152613b1581613ad9565b9050919050565b7f766545524332303a2054474520646174652063616e277420626520696e20746860008201527f6520706173740000000000000000000000000000000000000000000000000000602082015250565b6000613b78602683612cfc565b9150613b8382613b1c565b604082019050919050565b60006020820190508181036000830152613ba781613b6b565b9050919050565b7f766545524332303a206e6577205447452064617465206973206265796f6e642060008201527f6c696d6974000000000000000000000000000000000000000000000000000000602082015250565b6000613c0a602583612cfc565b9150613c1582613bae565b604082019050919050565b60006020820190508181036000830152613c3981613bfd565b9050919050565b7f45524332303a2064656372656173656420616c6c6f77616e63652062656c6f7760008201527f207a65726f000000000000000000000000000000000000000000000000000000602082015250565b6000613c9c602583612cfc565b9150613ca782613c40565b604082019050919050565b60006020820190508181036000830152613ccb81613c8f565b9050919050565b6000604082019050613ce760008301856139af565b613cf46020830184612e8d565b9392505050565b7f45524332303a20617070726f76652066726f6d20746865207a65726f2061646460008201527f7265737300000000000000000000000000000000000000000000000000000000602082015250565b6000613d57602483612cfc565b9150613d6282613cfb565b604082019050919050565b60006020820190508181036000830152613d8681613d4a565b9050919050565b7f45524332303a20617070726f766520746f20746865207a65726f20616464726560008201527f7373000000000000000000000000000000000000000000000000000000000000602082015250565b6000613de9602283612cfc565b9150613df482613d8d565b604082019050919050565b60006020820190508181036000830152613e1881613ddc565b9050919050565b6000606082019050613e3460008301866139af565b613e4160208301856139af565b613e4e6040830184612e8d565b949350505050565b7f45524332303a206d696e7420746f20746865207a65726f206164647265737300600082015250565b6000613e8c601f83612cfc565b9150613e9782613e56565b602082019050919050565b60006020820190508181036000830152613ebb81613e7f565b9050919050565b7f45524332303a20696e73756666696369656e7420616c6c6f77616e6365000000600082015250565b6000613ef8601d83612cfc565b9150613f0382613ec2565b602082019050919050565b60006020820190508181036000830152613f2781613eeb565b9050919050565b7f45524332303a207472616e736665722066726f6d20746865207a65726f20616460008201527f6472657373000000000000000000000000000000000000000000000000000000602082015250565b6000613f8a602583612cfc565b9150613f9582613f2e565b604082019050919050565b60006020820190508181036000830152613fb981613f7d565b9050919050565b7f45524332303a207472616e7366657220746f20746865207a65726f206164647260008201527f6573730000000000000000000000000000000000000000000000000000000000602082015250565b600061401c602383612cfc565b915061402782613fc0565b604082019050919050565b6000602082019050818103600083015261404b8161400f565b9050919050565b7f45524332303a207472616e7366657220616d6f756e742065786365656473206260008201527f616c616e63650000000000000000000000000000000000000000000000000000602082015250565b60006140ae602683612cfc565b91506140b982614052565b604082019050919050565b600060208201905081810360008301526140dd816140a1565b9050919050565b7f496e697469616c697a61626c653a20636f6e7472616374206973206e6f74206960008201527f6e697469616c697a696e67000000000000000000000000000000000000000000602082015250565b6000614140602b83612cfc565b915061414b826140e4565b604082019050919050565b6000602082019050818103600083015261416f81614133565b9050919050565b7f636c69666654696d652073686f756c64206265206c657373207468656e20766560008201527f7374696e6754696d650000000000000000000000000000000000000000000000602082015250565b60006141d2602983612cfc565b91506141dd82614176565b604082019050919050565b60006020820190508181036000830152614201816141c5565b9050919050565b7f746765556e6c6f636b526174696f2073686f756c64206265206c65737320746860008201527f616e203100000000000000000000000000000000000000000000000000000000602082015250565b6000614264602483612cfc565b915061426f82614208565b604082019050919050565b6000602082019050818103600083015261429381614257565b9050919050565b7f5361666545524332303a204552433230206f7065726174696f6e20646964206e60008201527f6f74207375636365656400000000000000000000000000000000000000000000602082015250565b60006142f6602a83612cfc565b91506143018261429a565b604082019050919050565b60006020820190508181036000830152614325816142e9565b9050919050565b60008190508160005260206000209050919050565b60006020601f8301049050919050565b600082821b905092915050565b60006008830261438e7fffffffffffffffffffffffffffffffffffffffffffffffffffffffffffffffff82614351565b6143988683614351565b95508019841693508086168417925050509392505050565b60006143cb6143c66143c184612e17565b612c77565b612e17565b9050919050565b6000819050919050565b6143e5836143b0565b6143f96143f1826143d2565b84845461435e565b825550505050565b600090565b61440e614401565b6144198184846143dc565b505050565b5b8181101561443d57614432600082614406565b60018101905061441f565b5050565b601f821115614482576144538161432c565b61445c84614341565b8101602085101561446b578190505b61447f61447785614341565b83018261441e565b50505b505050565b600082821c905092915050565b60006144a560001984600802614487565b1980831691505092915050565b60006144be8383614494565b9150826002028217905092915050565b6144d782612cf1565b67ffffffffffffffff8111156144f0576144ef6136b4565b5b6144fa825461335a565b614505828285614441565b600060209050601f8311600181146145385760008415614526578287015190505b61453085826144b2565b865550614598565b601f1984166145468661432c565b60005b8281101561456e57848901518255600182019150602085019450602081019050614549565b8683101561458b5784890151614587601f891682614494565b8355505b6001600288020188555050505b505050505050565b7f416464726573733a20696e73756666696369656e742062616c616e636520666f60008201527f722063616c6c0000000000000000000000000000000000000000000000000000602082015250565b60006145fc602683612cfc565b9150614607826145a0565b604082019050919050565b6000602082019050818103600083015261462b816145ef565b9050919050565b7f416464726573733a2063616c6c20746f206e6f6e2d636f6e7472616374000000600082015250565b6000614668601d83612cfc565b915061467382614632565b602082019050919050565b600060208201905081810360008301526146978161465b565b9050919050565b600081519050919050565b600081905092915050565b60006146bf8261469e565b6146c981856146a9565b93506146d9818560208601612d0d565b80840191505092915050565b60006146f182846146b4565b91508190509291505056fea26469706673582212200e3876c443d4a72319f26b79906199526b291f4d9b50e9be02dc93966be3625b64736f6c634300080f0033",
  "devdoc": {
    "kind": "dev",
    "methods": {
      "addBalance(address,uint256)": {
        "params": {
          "account": "Beneficiary of the vesting account.",
          "amount": "Amount of token to be send to user under vesting, which will be deducted from msg.sender."
        }
      },
      "allowance(address,address)": {
        "details": "See {IERC20-allowance}."
      },
      "approve(address,uint256)": {
        "details": "See {IERC20-approve}. NOTE: If `amount` is the maximum `uint256`, the allowance is not updated on `transferFrom`. This is semantically equivalent to an infinite approval. Requirements: - `spender` cannot be the zero address."
      },
      "availableToClaim(address)": {
        "returns": {
          "_0": "Returns amount of tokens the users can withdraw right now."
        }
      },
      "balanceOf(address)": {
        "details": "See {IERC20-balanceOf}."
      },
      "decimals()": {
        "details": "Returns the number of decimals used to get its user representation. For example, if `decimals` equals `2`, a balance of `505` tokens should be displayed to a user as `5.05` (`505 / 10 ** 2`). Tokens usually opt for a value of 18, imitating the relationship between Ether and Wei. This is the value {ERC20} uses, unless this function is overridden; NOTE: This information is only used for _display_ purposes: it in no way affects any of the arithmetic of the contract, including {IERC20-balanceOf} and {IERC20-transfer}."
      },
      "decreaseAllowance(address,uint256)": {
        "details": "Atomically decreases the allowance granted to `spender` by the caller. This is an alternative to {approve} that can be used as a mitigation for problems described in {IERC20-approve}. Emits an {Approval} event indicating the updated allowance. Requirements: - `spender` cannot be the zero address. - `spender` must have allowance for the caller of at least `subtractedValue`."
      },
      "increaseAllowance(address,uint256)": {
        "details": "Atomically increases the allowance granted to `spender` by the caller. This is an alternative to {approve} that can be used as a mitigation for problems described in {IERC20-approve}. Emits an {Approval} event indicating the updated allowance. Requirements: - `spender` cannot be the zero address."
      },
      "lockUnderVesting(address,uint256,uint256,uint256,uint256,uint256)": {
        "params": {
          "account": "Beneficiary of the vesting account.",
          "amount": "Amount of tokens to be send, which will be deducted from msg.sender.",
          "cliffSeconds": "Amount of seconds while tokens would be completely locked.",
          "tgeUnlockRatio1e18": "ratio/1e18  [0..1] that indicates how many tokens are going to be unlocked during TGE",
          "vestingFrequencySeconds": "how frequently token are going to be unlocked after the cliff.",
          "vestingSeconds": "Amount of seconds when linear vesting would be over. Starts from cliff."
        }
      },
      "name()": {
        "details": "Returns the name of the token."
      },
      "symbol()": {
        "details": "Returns the symbol of the token, usually a shorter version of the name."
      },
      "totalSupply()": {
        "details": "See {IERC20-totalSupply}."
      },
      "transfer(address,uint256)": {
        "details": "See {IERC20-transfer}. Requirements: - `to` cannot be the zero address. - the caller must have a balance of at least `amount`."
      },
      "transferFrom(address,address,uint256)": {
        "details": "See {IERC20-transferFrom}. Emits an {Approval} event indicating the updated allowance. This is not required by the EIP. See the note at the beginning of {ERC20}. NOTE: Does not update the allowance if the current allowance is the maximum `uint256`. Requirements: - `from` and `to` cannot be the zero address. - `from` must have a balance of at least `amount`. - the caller must have allowance for ``from``'s tokens of at least `amount`."
      }
    },
    "stateVariables": {
      "__gap": {
        "details": "This empty reserved space is put in place to allow future versions to add new variables without shifting down storage in the inheritance chain. See https://docs.openzeppelin.com/contracts/4.x/upgradeable#storage_gaps"
      }
    },
    "version": 1
  },
  "userdoc": {
    "kind": "user",
    "methods": {
      "addBalance(address,uint256)": {
        "notice": "Adds more tokens to the existing (possibly zero) vesting account. Doesn't change vesting period!"
      },
      "availableToClaim(address)": {
        "notice": "Checks amount of vested tokens minus already withdrawn."
      },
      "claim()": {
        "notice": "User can claim their vested tokens."
      },
      "donateTokens(address)": {
        "notice": "User can donate tokens under vesting to DAO or other admin contract as us treasury."
      },
      "lockUnderVesting(address,uint256,uint256,uint256,uint256,uint256)": {
        "notice": "Creates an account with time-vesting for the user and withdraws these tokens from msg.sender."
      },
      "rescue(address)": {
        "notice": "The owner of the contact can take away tokens accidentally sent to the contract."
      },
      "totalClaimed(address)": {
        "notice": "Total amount of token user had claimed."
      },
      "totalDeposited(address)": {
        "notice": "Total amount of token was deposited under vesting on behalf of the user."
      },
      "updateTgeTimestamp(uint32)": {
        "notice": "owner of the contract can set up TGE date within set limits."
      }
    },
    "version": 1
  },
  "storageLayout": {
    "storage": [
      {
        "astId": 497,
        "contract": "contracts/vested-escrow/veERC20.sol:VeERC20",
        "label": "_initialized",
        "offset": 0,
        "slot": "0",
        "type": "t_uint8"
      },
      {
        "astId": 500,
        "contract": "contracts/vested-escrow/veERC20.sol:VeERC20",
        "label": "_initializing",
        "offset": 1,
        "slot": "0",
        "type": "t_bool"
      },
      {
        "astId": 2868,
        "contract": "contracts/vested-escrow/veERC20.sol:VeERC20",
        "label": "__gap",
        "offset": 0,
        "slot": "1",
        "type": "t_array(t_uint256)50_storage"
      },
      {
        "astId": 660,
        "contract": "contracts/vested-escrow/veERC20.sol:VeERC20",
        "label": "_balances",
        "offset": 0,
        "slot": "51",
        "type": "t_mapping(t_address,t_uint256)"
      },
      {
        "astId": 666,
        "contract": "contracts/vested-escrow/veERC20.sol:VeERC20",
        "label": "_allowances",
        "offset": 0,
        "slot": "52",
        "type": "t_mapping(t_address,t_mapping(t_address,t_uint256))"
      },
      {
        "astId": 668,
        "contract": "contracts/vested-escrow/veERC20.sol:VeERC20",
        "label": "_totalSupply",
        "offset": 0,
        "slot": "53",
        "type": "t_uint256"
      },
      {
        "astId": 670,
        "contract": "contracts/vested-escrow/veERC20.sol:VeERC20",
        "label": "_name",
        "offset": 0,
        "slot": "54",
        "type": "t_string_storage"
      },
      {
        "astId": 672,
        "contract": "contracts/vested-escrow/veERC20.sol:VeERC20",
        "label": "_symbol",
        "offset": 0,
        "slot": "55",
        "type": "t_string_storage"
      },
      {
        "astId": 1251,
        "contract": "contracts/vested-escrow/veERC20.sol:VeERC20",
        "label": "__gap",
        "offset": 0,
        "slot": "56",
        "type": "t_array(t_uint256)45_storage"
      },
      {
        "astId": 10494,
        "contract": "contracts/vested-escrow/veERC20.sol:VeERC20",
        "label": "ACCESS_CONTROL_SINGLETON",
        "offset": 0,
        "slot": "101",
        "type": "t_contract(ISuAccessControl)11645"
      },
      {
        "astId": 10578,
        "contract": "contracts/vested-escrow/veERC20.sol:VeERC20",
        "label": "__gap",
        "offset": 0,
        "slot": "102",
        "type": "t_array(t_uint256)49_storage"
      },
      {
        "astId": 11906,
        "contract": "contracts/vested-escrow/veERC20.sol:VeERC20",
        "label": "LOCKED_TOKEN",
        "offset": 0,
        "slot": "151",
        "type": "t_contract(ERC20Upgradeable)1252"
      },
      {
        "astId": 11908,
        "contract": "contracts/vested-escrow/veERC20.sol:VeERC20",
        "label": "TGE_MAX_TIMESTAMP",
        "offset": 20,
        "slot": "151",
        "type": "t_uint32"
      },
      {
        "astId": 11910,
        "contract": "contracts/vested-escrow/veERC20.sol:VeERC20",
        "label": "tgeTimestamp",
        "offset": 24,
        "slot": "151",
        "type": "t_uint32"
      },
      {
        "astId": 11926,
        "contract": "contracts/vested-escrow/veERC20.sol:VeERC20",
        "label": "vestingInfo",
        "offset": 0,
        "slot": "152",
        "type": "t_mapping(t_address,t_struct(VestingInfo)11921_storage)"
      },
      {
        "astId": 12492,
        "contract": "contracts/vested-escrow/veERC20.sol:VeERC20",
        "label": "__gap",
        "offset": 0,
        "slot": "153",
        "type": "t_array(t_uint256)49_storage"
      }
    ],
    "types": {
      "t_address": {
        "encoding": "inplace",
        "label": "address",
        "numberOfBytes": "20"
      },
      "t_array(t_uint256)45_storage": {
        "base": "t_uint256",
        "encoding": "inplace",
        "label": "uint256[45]",
        "numberOfBytes": "1440"
      },
      "t_array(t_uint256)49_storage": {
        "base": "t_uint256",
        "encoding": "inplace",
        "label": "uint256[49]",
        "numberOfBytes": "1568"
      },
      "t_array(t_uint256)50_storage": {
        "base": "t_uint256",
        "encoding": "inplace",
        "label": "uint256[50]",
        "numberOfBytes": "1600"
      },
      "t_bool": {
        "encoding": "inplace",
        "label": "bool",
        "numberOfBytes": "1"
      },
      "t_contract(ERC20Upgradeable)1252": {
        "encoding": "inplace",
        "label": "contract ERC20Upgradeable",
        "numberOfBytes": "20"
      },
      "t_contract(ISuAccessControl)11645": {
        "encoding": "inplace",
        "label": "contract ISuAccessControl",
        "numberOfBytes": "20"
      },
      "t_mapping(t_address,t_mapping(t_address,t_uint256))": {
        "encoding": "mapping",
        "key": "t_address",
        "label": "mapping(address => mapping(address => uint256))",
        "numberOfBytes": "32",
        "value": "t_mapping(t_address,t_uint256)"
      },
      "t_mapping(t_address,t_struct(VestingInfo)11921_storage)": {
        "encoding": "mapping",
        "key": "t_address",
        "label": "mapping(address => struct VeERC20.VestingInfo)",
        "numberOfBytes": "32",
        "value": "t_struct(VestingInfo)11921_storage"
      },
      "t_mapping(t_address,t_uint256)": {
        "encoding": "mapping",
        "key": "t_address",
        "label": "mapping(address => uint256)",
        "numberOfBytes": "32",
        "value": "t_uint256"
      },
      "t_string_storage": {
        "encoding": "bytes",
        "label": "string",
        "numberOfBytes": "32"
      },
      "t_struct(VestingInfo)11921_storage": {
        "encoding": "inplace",
        "label": "struct VeERC20.VestingInfo",
        "members": [
          {
            "astId": 11912,
            "contract": "contracts/vested-escrow/veERC20.sol:VeERC20",
            "label": "amountAlreadyWithdrawn",
            "offset": 0,
            "slot": "0",
            "type": "t_uint256"
          },
          {
            "astId": 11914,
            "contract": "contracts/vested-escrow/veERC20.sol:VeERC20",
            "label": "cliffSeconds",
            "offset": 0,
            "slot": "1",
            "type": "t_uint256"
          },
          {
            "astId": 11916,
            "contract": "contracts/vested-escrow/veERC20.sol:VeERC20",
            "label": "vestingSeconds",
            "offset": 0,
            "slot": "2",
            "type": "t_uint256"
          },
          {
            "astId": 11918,
            "contract": "contracts/vested-escrow/veERC20.sol:VeERC20",
            "label": "tgeUnlockRatio1e18",
            "offset": 0,
            "slot": "3",
            "type": "t_uint256"
          },
          {
            "astId": 11920,
            "contract": "contracts/vested-escrow/veERC20.sol:VeERC20",
            "label": "vestingFrequencySeconds",
            "offset": 0,
            "slot": "4",
            "type": "t_uint256"
          }
        ],
        "numberOfBytes": "160"
      },
      "t_uint256": {
        "encoding": "inplace",
        "label": "uint256",
        "numberOfBytes": "32"
      },
      "t_uint32": {
        "encoding": "inplace",
        "label": "uint32",
        "numberOfBytes": "4"
      },
      "t_uint8": {
        "encoding": "inplace",
        "label": "uint8",
        "numberOfBytes": "1"
      }
    }
  }
}