{
  "address": "0x666666679eb68ffef7244859a2016B0D28664998",
  "abi": [
    {
      "inputs": [
        {
          "internalType": "address",
          "name": "dao",
          "type": "address"
        }
      ],
      "name": "BadDAOAddress",
      "type": "error"
    },
    {
      "inputs": [],
      "name": "BadUnlockRatio",
      "type": "error"
    },
    {
      "inputs": [],
      "name": "BadVestingTimestamps",
      "type": "error"
    },
    {
      "inputs": [],
      "name": "ClaimZeroError",
      "type": "error"
    },
    {
      "inputs": [],
      "name": "NoBalance",
      "type": "error"
    },
    {
      "inputs": [
        {
          "internalType": "bytes32",
          "name": "role",
          "type": "bytes32"
        },
        {
          "internalType": "address",
          "name": "msgSender",
          "type": "address"
        }
      ],
      "name": "OnlyRoleError",
      "type": "error"
    },
    {
      "inputs": [],
      "name": "TGEInPastError",
      "type": "error"
    },
    {
      "inputs": [
        {
          "internalType": "address",
          "name": "",
          "type": "address"
        }
      ],
      "name": "UnableToTransfer",
      "type": "error"
    },
    {
      "inputs": [],
      "name": "UnavailableFunctionalityError",
      "type": "error"
    },
    {
      "anonymous": false,
      "inputs": [
        {
          "indexed": true,
          "internalType": "address",
          "name": "owner",
          "type": "address"
        },
        {
          "indexed": true,
          "internalType": "address",
          "name": "spender",
          "type": "address"
        },
        {
          "indexed": false,
          "internalType": "uint256",
          "name": "value",
          "type": "uint256"
        }
      ],
      "name": "Approval",
      "type": "event"
    },
    {
      "anonymous": false,
      "inputs": [
        {
          "indexed": false,
          "internalType": "address",
          "name": "account",
          "type": "address"
        },
        {
          "indexed": false,
          "internalType": "uint256",
          "name": "claimAmount",
          "type": "uint256"
        }
      ],
      "name": "Claimed",
      "type": "event"
    },
    {
      "anonymous": false,
      "inputs": [
        {
          "indexed": true,
          "internalType": "address",
          "name": "delegator",
          "type": "address"
        },
        {
          "indexed": true,
          "internalType": "address",
          "name": "fromDelegate",
          "type": "address"
        },
        {
          "indexed": true,
          "internalType": "address",
          "name": "toDelegate",
          "type": "address"
        }
      ],
      "name": "DelegateChanged",
      "type": "event"
    },
    {
      "anonymous": false,
      "inputs": [
        {
          "indexed": true,
          "internalType": "address",
          "name": "delegate",
          "type": "address"
        },
        {
          "indexed": false,
          "internalType": "uint256",
          "name": "previousBalance",
          "type": "uint256"
        },
        {
          "indexed": false,
          "internalType": "uint256",
          "name": "newBalance",
          "type": "uint256"
        }
      ],
      "name": "DelegateVotesChanged",
      "type": "event"
    },
    {
      "anonymous": false,
      "inputs": [],
      "name": "EIP712DomainChanged",
      "type": "event"
    },
    {
      "anonymous": false,
      "inputs": [
        {
          "indexed": false,
          "internalType": "uint8",
          "name": "version",
          "type": "uint8"
        }
      ],
      "name": "Initialized",
      "type": "event"
    },
    {
      "anonymous": false,
      "inputs": [
        {
          "indexed": true,
          "internalType": "address",
          "name": "from",
          "type": "address"
        },
        {
          "indexed": true,
          "internalType": "address",
          "name": "to",
          "type": "address"
        },
        {
          "indexed": false,
          "internalType": "uint256",
          "name": "value",
          "type": "uint256"
        }
      ],
      "name": "Transfer",
      "type": "event"
    },
    {
      "inputs": [],
      "name": "ACCESS_CONTROL_SINGLETON",
      "outputs": [
        {
          "internalType": "contract ISuAccessControl",
          "name": "",
          "type": "address"
        }
      ],
      "stateMutability": "view",
      "type": "function"
    },
    {
      "inputs": [],
      "name": "ADMIN_ROLE",
      "outputs": [
        {
          "internalType": "bytes32",
          "name": "",
          "type": "bytes32"
        }
      ],
      "stateMutability": "view",
      "type": "function"
    },
    {
      "inputs": [],
      "name": "CLOCK_MODE",
      "outputs": [
        {
          "internalType": "string",
          "name": "",
          "type": "string"
        }
      ],
      "stateMutability": "view",
      "type": "function"
    },
    {
      "inputs": [],
      "name": "DAO_ROLE",
      "outputs": [
        {
          "internalType": "bytes32",
          "name": "",
          "type": "bytes32"
        }
      ],
      "stateMutability": "view",
      "type": "function"
    },
    {
      "inputs": [],
      "name": "DEFAULT_ADMIN_ROLE",
      "outputs": [
        {
          "internalType": "bytes32",
          "name": "",
          "type": "bytes32"
        }
      ],
      "stateMutability": "view",
      "type": "function"
    },
    {
      "inputs": [],
      "name": "DOMAIN_SEPARATOR",
      "outputs": [
        {
          "internalType": "bytes32",
          "name": "",
          "type": "bytes32"
        }
      ],
      "stateMutability": "view",
      "type": "function"
    },
    {
      "inputs": [],
      "name": "LOCKED_TOKEN",
      "outputs": [
        {
          "internalType": "contract ERC20BurnableUpgradeable",
          "name": "",
          "type": "address"
        }
      ],
      "stateMutability": "view",
      "type": "function"
    },
    {
      "inputs": [],
      "name": "SYSTEM_ROLE",
      "outputs": [
        {
          "internalType": "bytes32",
          "name": "",
          "type": "bytes32"
        }
      ],
      "stateMutability": "view",
      "type": "function"
    },
    {
      "inputs": [
        {
          "internalType": "address",
          "name": "_accessControlSingleton",
          "type": "address"
        },
        {
          "internalType": "string",
          "name": "_name",
          "type": "string"
        }
      ],
      "name": "__SuVoteToken__init",
      "outputs": [],
      "stateMutability": "nonpayable",
      "type": "function"
    },
    {
      "inputs": [
        {
          "internalType": "address",
          "name": "account",
          "type": "address"
        },
        {
          "internalType": "bool",
          "name": "_isTransferable",
          "type": "bool"
        }
      ],
      "name": "adminTransferUnlock",
      "outputs": [],
      "stateMutability": "nonpayable",
      "type": "function"
    },
    {
      "inputs": [
        {
          "internalType": "address",
          "name": "owner",
          "type": "address"
        },
        {
          "internalType": "address",
          "name": "spender",
          "type": "address"
        }
      ],
      "name": "allowance",
      "outputs": [
        {
          "internalType": "uint256",
          "name": "",
          "type": "uint256"
        }
      ],
      "stateMutability": "view",
      "type": "function"
    },
    {
      "inputs": [
        {
          "internalType": "address",
          "name": "",
          "type": "address"
        }
      ],
      "name": "alreadyWithdrawn",
      "outputs": [
        {
          "internalType": "uint256",
          "name": "",
          "type": "uint256"
        }
      ],
      "stateMutability": "view",
      "type": "function"
    },
    {
      "inputs": [
        {
          "internalType": "address",
          "name": "spender",
          "type": "address"
        },
        {
          "internalType": "uint256",
          "name": "amount",
          "type": "uint256"
        }
      ],
      "name": "approve",
      "outputs": [
        {
          "internalType": "bool",
          "name": "",
          "type": "bool"
        }
      ],
      "stateMutability": "nonpayable",
      "type": "function"
    },
    {
      "inputs": [
        {
          "internalType": "address",
          "name": "account",
          "type": "address"
        }
      ],
      "name": "availableToClaim",
      "outputs": [
        {
          "internalType": "uint256",
          "name": "",
          "type": "uint256"
        }
      ],
      "stateMutability": "view",
      "type": "function"
    },
    {
      "inputs": [
        {
          "internalType": "address",
          "name": "account",
          "type": "address"
        }
      ],
      "name": "balanceOf",
      "outputs": [
        {
          "internalType": "uint256",
          "name": "",
          "type": "uint256"
        }
      ],
      "stateMutability": "view",
      "type": "function"
    },
    {
      "inputs": [
        {
          "internalType": "uint256",
          "name": "amount",
          "type": "uint256"
        }
      ],
      "name": "burn",
      "outputs": [],
      "stateMutability": "nonpayable",
      "type": "function"
    },
    {
      "inputs": [],
      "name": "claim",
      "outputs": [],
      "stateMutability": "nonpayable",
      "type": "function"
    },
    {
      "inputs": [],
      "name": "cliffSeconds",
      "outputs": [
        {
          "internalType": "uint32",
          "name": "",
          "type": "uint32"
        }
      ],
      "stateMutability": "view",
      "type": "function"
    },
    {
      "inputs": [],
      "name": "clock",
      "outputs": [
        {
          "internalType": "uint48",
          "name": "",
          "type": "uint48"
        }
      ],
      "stateMutability": "view",
      "type": "function"
    },
    {
      "inputs": [],
      "name": "decimals",
      "outputs": [
        {
          "internalType": "uint8",
          "name": "",
          "type": "uint8"
        }
      ],
      "stateMutability": "view",
      "type": "function"
    },
    {
      "inputs": [
        {
          "internalType": "address",
          "name": "spender",
          "type": "address"
        },
        {
          "internalType": "uint256",
          "name": "subtractedValue",
          "type": "uint256"
        }
      ],
      "name": "decreaseAllowance",
      "outputs": [
        {
          "internalType": "bool",
          "name": "",
          "type": "bool"
        }
      ],
      "stateMutability": "nonpayable",
      "type": "function"
    },
    {
      "inputs": [
        {
          "internalType": "address",
          "name": "",
          "type": "address"
        }
      ],
      "name": "delegate",
      "outputs": [],
      "stateMutability": "nonpayable",
      "type": "function"
    },
    {
      "inputs": [
        {
          "internalType": "address",
          "name": "delegatee",
          "type": "address"
        },
        {
          "internalType": "uint256",
          "name": "nonce",
          "type": "uint256"
        },
        {
          "internalType": "uint256",
          "name": "expiry",
          "type": "uint256"
        },
        {
          "internalType": "uint8",
          "name": "v",
          "type": "uint8"
        },
        {
          "internalType": "bytes32",
          "name": "r",
          "type": "bytes32"
        },
        {
          "internalType": "bytes32",
          "name": "s",
          "type": "bytes32"
        }
      ],
      "name": "delegateBySig",
      "outputs": [],
      "stateMutability": "nonpayable",
      "type": "function"
    },
    {
      "inputs": [
        {
          "internalType": "address",
          "name": "account",
          "type": "address"
        },
        {
          "internalType": "address",
          "name": "delegatee",
          "type": "address"
        }
      ],
      "name": "delegateOnBehalf",
      "outputs": [],
      "stateMutability": "nonpayable",
      "type": "function"
    },
    {
      "inputs": [
        {
          "internalType": "address",
          "name": "account",
          "type": "address"
        }
      ],
      "name": "delegates",
      "outputs": [
        {
          "internalType": "address",
          "name": "",
          "type": "address"
        }
      ],
      "stateMutability": "view",
      "type": "function"
    },
    {
      "inputs": [],
      "name": "eip712Domain",
      "outputs": [
        {
          "internalType": "bytes1",
          "name": "fields",
          "type": "bytes1"
        },
        {
          "internalType": "string",
          "name": "name",
          "type": "string"
        },
        {
          "internalType": "string",
          "name": "version",
          "type": "string"
        },
        {
          "internalType": "uint256",
          "name": "chainId",
          "type": "uint256"
        },
        {
          "internalType": "address",
          "name": "verifyingContract",
          "type": "address"
        },
        {
          "internalType": "bytes32",
          "name": "salt",
          "type": "bytes32"
        },
        {
          "internalType": "uint256[]",
          "name": "extensions",
          "type": "uint256[]"
        }
      ],
      "stateMutability": "view",
      "type": "function"
    },
    {
      "inputs": [
        {
          "internalType": "uint256",
          "name": "timepoint",
          "type": "uint256"
        }
      ],
      "name": "getPastTotalSupply",
      "outputs": [
        {
          "internalType": "uint256",
          "name": "",
          "type": "uint256"
        }
      ],
      "stateMutability": "view",
      "type": "function"
    },
    {
      "inputs": [
        {
          "internalType": "address",
          "name": "account",
          "type": "address"
        },
        {
          "internalType": "uint256",
          "name": "timepoint",
          "type": "uint256"
        }
      ],
      "name": "getPastVotes",
      "outputs": [
        {
          "internalType": "uint256",
          "name": "",
          "type": "uint256"
        }
      ],
      "stateMutability": "view",
      "type": "function"
    },
    {
      "inputs": [
        {
          "internalType": "bytes32",
          "name": "role",
          "type": "bytes32"
        }
      ],
      "name": "getRoleAdmin",
      "outputs": [
        {
          "internalType": "bytes32",
          "name": "",
          "type": "bytes32"
        }
      ],
      "stateMutability": "view",
      "type": "function"
    },
    {
      "inputs": [],
      "name": "getTotalSupply",
      "outputs": [
        {
          "internalType": "uint256",
          "name": "",
          "type": "uint256"
        }
      ],
      "stateMutability": "view",
      "type": "function"
    },
    {
      "inputs": [
        {
          "internalType": "address",
          "name": "account",
          "type": "address"
        }
      ],
      "name": "getVotes",
      "outputs": [
        {
          "internalType": "uint256",
          "name": "",
          "type": "uint256"
        }
      ],
      "stateMutability": "view",
      "type": "function"
    },
    {
      "inputs": [
        {
          "internalType": "bytes32",
          "name": "role",
          "type": "bytes32"
        },
        {
          "internalType": "address",
          "name": "account",
          "type": "address"
        }
      ],
      "name": "hasRole",
      "outputs": [
        {
          "internalType": "bool",
          "name": "",
          "type": "bool"
        }
      ],
      "stateMutability": "view",
      "type": "function"
    },
    {
      "inputs": [
        {
          "internalType": "address",
          "name": "spender",
          "type": "address"
        },
        {
          "internalType": "uint256",
          "name": "addedValue",
          "type": "uint256"
        }
      ],
      "name": "increaseAllowance",
      "outputs": [
        {
          "internalType": "bool",
          "name": "",
          "type": "bool"
        }
      ],
      "stateMutability": "nonpayable",
      "type": "function"
    },
    {
      "inputs": [
        {
          "internalType": "address",
          "name": "_accessControlSingleton",
          "type": "address"
        },
        {
          "internalType": "contract ERC20BurnableUpgradeable",
          "name": "_lockedToken",
          "type": "address"
        },
        {
          "internalType": "uint32",
          "name": "_maxTgeTimestamp",
          "type": "uint32"
        }
      ],
      "name": "initialize",
      "outputs": [],
      "stateMutability": "nonpayable",
      "type": "function"
    },
    {
      "inputs": [
        {
          "internalType": "address",
          "name": "",
          "type": "address"
        }
      ],
      "name": "isTransferable",
      "outputs": [
        {
          "internalType": "bool",
          "name": "",
          "type": "bool"
        }
      ],
      "stateMutability": "view",
      "type": "function"
    },
    {
      "inputs": [
        {
          "internalType": "address",
          "name": "account",
          "type": "address"
        },
        {
          "internalType": "uint256",
          "name": "amount",
          "type": "uint256"
        }
      ],
      "name": "lockUnderVesting",
      "outputs": [],
      "stateMutability": "nonpayable",
      "type": "function"
    },
    {
      "inputs": [],
      "name": "name",
      "outputs": [
        {
          "internalType": "string",
          "name": "",
          "type": "string"
        }
      ],
      "stateMutability": "view",
      "type": "function"
    },
    {
      "inputs": [
        {
          "internalType": "address",
          "name": "owner",
          "type": "address"
        }
      ],
      "name": "nonces",
      "outputs": [
        {
          "internalType": "uint256",
          "name": "",
          "type": "uint256"
        }
      ],
      "stateMutability": "view",
      "type": "function"
    },
    {
      "inputs": [
        {
          "internalType": "contract ERC20Upgradeable",
          "name": "token",
          "type": "address"
        }
      ],
      "name": "rescue",
      "outputs": [],
      "stateMutability": "nonpayable",
      "type": "function"
    },
    {
      "inputs": [
        {
          "internalType": "bytes4",
          "name": "interfaceId",
          "type": "bytes4"
        }
      ],
      "name": "supportsInterface",
      "outputs": [
        {
          "internalType": "bool",
          "name": "",
          "type": "bool"
        }
      ],
      "stateMutability": "view",
      "type": "function"
    },
    {
      "inputs": [],
      "name": "symbol",
      "outputs": [
        {
          "internalType": "string",
          "name": "",
          "type": "string"
        }
      ],
      "stateMutability": "view",
      "type": "function"
    },
    {
      "inputs": [],
      "name": "tgeTimestamp",
      "outputs": [
        {
          "internalType": "uint32",
          "name": "",
          "type": "uint32"
        }
      ],
      "stateMutability": "view",
      "type": "function"
    },
    {
      "inputs": [],
      "name": "tgeUnlockRatio1e18",
      "outputs": [
        {
          "internalType": "uint64",
          "name": "",
          "type": "uint64"
        }
      ],
      "stateMutability": "view",
      "type": "function"
    },
    {
      "inputs": [
        {
          "internalType": "address",
          "name": "user",
          "type": "address"
        }
      ],
      "name": "totalClaimed",
      "outputs": [
        {
          "internalType": "uint256",
          "name": "",
          "type": "uint256"
        }
      ],
      "stateMutability": "view",
      "type": "function"
    },
    {
      "inputs": [
        {
          "internalType": "address",
          "name": "user",
          "type": "address"
        }
      ],
      "name": "totalDeposited",
      "outputs": [
        {
          "internalType": "uint256",
          "name": "",
          "type": "uint256"
        }
      ],
      "stateMutability": "view",
      "type": "function"
    },
    {
      "inputs": [],
      "name": "totalSupply",
      "outputs": [
        {
          "internalType": "uint256",
          "name": "",
          "type": "uint256"
        }
      ],
      "stateMutability": "view",
      "type": "function"
    },
    {
      "inputs": [
        {
          "internalType": "address",
          "name": "to",
          "type": "address"
        },
        {
          "internalType": "uint256",
          "name": "amount",
          "type": "uint256"
        }
      ],
      "name": "transfer",
      "outputs": [
        {
          "internalType": "bool",
          "name": "",
          "type": "bool"
        }
      ],
      "stateMutability": "nonpayable",
      "type": "function"
    },
    {
      "inputs": [
        {
          "internalType": "address",
          "name": "from",
          "type": "address"
        },
        {
          "internalType": "address",
          "name": "to",
          "type": "address"
        },
        {
          "internalType": "uint256",
          "name": "amount",
          "type": "uint256"
        }
      ],
      "name": "transferFrom",
      "outputs": [
        {
          "internalType": "bool",
          "name": "",
          "type": "bool"
        }
      ],
      "stateMutability": "nonpayable",
      "type": "function"
    },
    {
      "inputs": [
        {
          "internalType": "uint32",
          "name": "newTgeTimestamp",
          "type": "uint32"
        },
        {
          "internalType": "uint32",
          "name": "newCliffSeconds",
          "type": "uint32"
        },
        {
          "internalType": "uint32",
          "name": "newVestingSeconds",
          "type": "uint32"
        },
        {
          "internalType": "uint64",
          "name": "newTgeUnlockRatio",
          "type": "uint64"
        },
        {
          "internalType": "uint32",
          "name": "newVestingFrequencySeconds",
          "type": "uint32"
        }
      ],
      "name": "updateTimestamps",
      "outputs": [],
      "stateMutability": "nonpayable",
      "type": "function"
    },
    {
      "inputs": [],
      "name": "vestingFrequencySeconds",
      "outputs": [
        {
          "internalType": "uint32",
          "name": "",
          "type": "uint32"
        }
      ],
      "stateMutability": "view",
      "type": "function"
    },
    {
      "inputs": [],
      "name": "vestingSeconds",
      "outputs": [
        {
          "internalType": "uint32",
          "name": "",
          "type": "uint32"
        }
      ],
      "stateMutability": "view",
      "type": "function"
    },
    {
      "stateMutability": "payable",
      "type": "receive"
    }
  ],
  "numDeployments": 1,
  "solcInputHash": "d773e9a5bddc4ec9c0311e536215e947",
  "bytecode": "0x608060405234801561001057600080fd5b50613a5b806100206000396000f3fe6080604052600436106102485760003560e01c806301ffc9a71461025457806302b42b861461028957806303ee9f22146102ab57806306fdde03146102d8578063095ea7b3146102fa5780630afcdef51461031a5780630da45188146103535780630e408e3b1461038157806318160ddd146103a1578063195055f1146103b657806323b872dd146103e7578063248a9ca314610407578063313ce567146104275780633644e5151461044357806339509351146104585780633a46b1a8146104785780633c14516d1461049857806342966c68146104b85780634bf5d7e9146104d85780634e71d92d146104ed5780635305548114610502578063587cde1e146105225780635c19a95c146105425780635e10448b1461056257806369287862146105a15780636ecf2b22146105c157806370a08231146105e157806375071d2a1461060157806375b238fc146106235780637ecebe00146106455780638341ee7214610665578063839006f21461068257806384b0196e146106a25780638e539e8c146106ca57806391d14854146106ea57806391ddadf41461070a57806395d89b41146107365780639aa2e39e1461074b5780639ab24eb014610778578063a217fddf14610798578063a4317ef4146107ad578063a457c2d7146107d1578063a9059cbb146107f1578063b1956af514610811578063c3cda52014610835578063c4e41b2214610855578063d216617a1461086a578063dc4e78cd1461088a578063dd62ed3e146108aa578063e9c2651814610798578063ef5d9ae8146108ca57600080fd5b3661024f57005b600080fd5b34801561026057600080fd5b5061027461026f366004613004565b610900565b60405190151581526020015b60405180910390f35b34801561029557600080fd5b506102a96102a4366004613051565b61092b565b005b3480156102b757600080fd5b506033546102cb906001600160a01b031681565b604051610280919061308a565b3480156102e457600080fd5b506102ed61099b565b60405161028091906130f6565b34801561030657600080fd5b50610274610315366004613109565b610a2d565b34801561032657600080fd5b5060fe5461033e90600160401b900463ffffffff1681565b60405163ffffffff9091168152602001610280565b34801561035f57600080fd5b5061037361036e366004613135565b610a45565b604051908152602001610280565b34801561038d57600080fd5b506102a961039c366004613152565b610c18565b3480156103ad57600080fd5b5060cd54610373565b3480156103c257600080fd5b506102746103d1366004613135565b6101006020526000908152604090205460ff1681565b3480156103f357600080fd5b50610274610402366004613180565b610c61565b34801561041357600080fd5b506103736104223660046131c1565b610c85565b34801561043357600080fd5b5060405160128152602001610280565b34801561044f57600080fd5b50610373610cf3565b34801561046457600080fd5b50610274610473366004613109565b610d02565b34801561048457600080fd5b50610373610493366004613109565b610d24565b3480156104a457600080fd5b506102a96104b3366004613109565b610d8e565b3480156104c457600080fd5b506102a96104d33660046131c1565b610e19565b3480156104e457600080fd5b506102ed610e90565b3480156104f957600080fd5b506102a9610f23565b34801561050e57600080fd5b5061037361051d366004613135565b610fe8565b34801561052e57600080fd5b506102cb61053d366004613135565b611014565b34801561054e57600080fd5b506102a961055d366004613135565b611032565b34801561056e57600080fd5b5060fd5461058990600160c01b90046001600160401b031681565b6040516001600160401b039091168152602001610280565b3480156105ad57600080fd5b5060fd546102cb906001600160a01b031681565b3480156105cd57600080fd5b506102a96105dc3660046131f3565b61104b565b3480156105ed57600080fd5b506103736105fc366004613135565b611282565b34801561060d57600080fd5b5061037360008051602061398683398151915281565b34801561062f57600080fd5b506103736000805160206139e683398151915281565b34801561065157600080fd5b50610373610660366004613135565b61129d565b34801561067157600080fd5b5060fe5461033e9063ffffffff1681565b34801561068e57600080fd5b506102a961069d366004613135565b6112bb565b3480156106ae57600080fd5b506106b76113a8565b604051610280979695949392919061323a565b3480156106d657600080fd5b506103736106e53660046131c1565b611446565b3480156106f657600080fd5b506102746107053660046132d0565b611499565b34801561071657600080fd5b5061071f611514565b60405165ffffffffffff9091168152602001610280565b34801561074257600080fd5b506102ed61151f565b34801561075757600080fd5b50610373610766366004613135565b60ff6020526000908152604090205481565b34801561078457600080fd5b50610373610793366004613135565b61152e565b3480156107a457600080fd5b50610373600081565b3480156107b957600080fd5b5060fd5461033e90600160a01b900463ffffffff1681565b3480156107dd57600080fd5b506102746107ec366004613109565b61154f565b3480156107fd57600080fd5b5061027461080c366004613109565b6115ca565b34801561081d57600080fd5b5060fe5461033e90600160201b900463ffffffff1681565b34801561084157600080fd5b506102a96108503660046132f5565b611646565b34801561086157600080fd5b5061037361176e565b34801561087657600080fd5b506102a96108853660046133c4565b611778565b34801561089657600080fd5b506102a96108a5366004613456565b61185c565b3480156108b657600080fd5b506103736108c5366004613152565b6119ed565b3480156108d657600080fd5b506103736108e5366004613135565b6001600160a01b0316600090815260ff602052604090205490565b60006001600160e01b0319821663caa4951960e01b1480610925575061092582611a18565b92915050565b6000805160206139e68339815191526109448133611499565b61096e5780336040516337c2e34360e01b81526004016109659291906134c9565b60405180910390fd5b506001600160a01b0391909116600090815261010060205260409020805460ff1916911515919091179055565b606060ce80546109aa906134e0565b80601f01602080910402602001604051908101604052809291908181526020018280546109d6906134e0565b8015610a235780601f106109f857610100808354040283529160200191610a23565b820191906000526020600020905b815481529060010190602001808311610a0657829003601f168201915b5050505050905090565b600033610a3b818585611a3d565b5060019392505050565b60fd546000904290600160a01b900463ffffffff16811015610a6a5750600092915050565b6000610a7584610fe8565b60fd54909150600090670de0b6b3a764000090610aa290600160c01b90046001600160401b03168461352a565b610aac919061355f565b60fe5460fd54919250610ad09163ffffffff91821691600160a01b90910416613573565b63ffffffff168310610bc45760fe5460fd54849163ffffffff600160201b8204811692610b0892821691600160a01b90910416613573565b610b129190613573565b63ffffffff161015610b25575080610bc4565b60fe5460fd54600091610b499163ffffffff91821691600160a01b90910416613573565b610b599063ffffffff168561359b565b60fe54909150600090600160401b900463ffffffff16610b79818461355f565b610b83919061352a565b60fe54909150600160201b900463ffffffff1681610ba1858761359b565b610bab919061352a565b610bb5919061355f565b610bbf90846135b2565b925050505b6001600160a01b038516600090815260ff6020526040902054811115610c0c576001600160a01b038516600090815260ff6020526040902054610c07908261359b565b610c0f565b60005b95945050505050565b600080516020613986833981519152610c318133611499565b610c525780336040516337c2e34360e01b81526004016109659291906134c9565b610c5c8383611b61565b505050565b600033610c6f858285611bdc565b610c7a858585611c50565b506001949350505050565b60335460405163248a9ca360e01b8152600481018390526000916001600160a01b03169063248a9ca390602401602060405180830381865afa158015610ccf573d6000803e3d6000fd5b505050506040513d601f19601f8201168201806040525081019061092591906135ca565b6000610cfd611de9565b905090565b600033610a3b818585610d1583836119ed565b610d1f91906135b2565b611a3d565b6000610d2e611514565b65ffffffffffff168210610d545760405162461bcd60e51b8152600401610965906135e3565b610d7e610d6083611df3565b6001600160a01b0385166000908152609a6020526040902090611e5c565b6001600160e01b03169392505050565b6000805160206139e6833981519152610da78133611499565b610dc85780336040516337c2e34360e01b81526004016109659291906134c9565b60fd54610de0906001600160a01b0316333085611f10565b610dea8383611f7b565b610df66000848461202a565b6000610e0184611014565b6001600160a01b031603610c5c57610c5c8384611b61565b610e23338261208e565b610e2f3360008361202a565b60fd54604051630852cd8d60e31b8152600481018390526001600160a01b03909116906342966c6890602401600060405180830381600087803b158015610e7557600080fd5b505af1158015610e89573d6000803e3d6000fd5b5050505050565b606043610e9b611514565b65ffffffffffff1614610eeb5760405162461bcd60e51b8152602060048201526018602482015277566f7465733a2062726f6b656e20636c6f636b206d6f646560401b6044820152606401610965565b5060408051808201909152601d81527f6d6f64653d626c6f636b6e756d6265722666726f6d3d64656661756c74000000602082015290565b6000610f2e33610a45565b905080600003610f5157604051639e335bd560e01b815260040160405180910390fd5b33600090815260ff6020526040902054610f6c9082906135b2565b33600081815260ff6020526040902091909155610f89908261208e565b610f953360008361202a565b60fd54610fac906001600160a01b031633836121b0565b7fd8138f8a3f377c5259ca548e70e4c2de94f129f5a11036a15b69513cba2b426a3382604051610fdd929190613611565b60405180910390a150565b6001600160a01b038116600090815260ff602052604081205461100a83611282565b61092591906135b2565b6001600160a01b039081166000908152609960205260409020541690565b604051634358d6cf60e11b815260040160405180910390fd5b600054610100900460ff161580801561106b5750600054600160ff909116105b8061108c575061107a306121cf565b15801561108c575060005460ff166001145b6110a85760405162461bcd60e51b81526004016109659061362a565b6000805460ff1916600117905580156110cb576000805461ff0019166101001790555b6000836001600160a01b03166395d89b416040518163ffffffff1660e01b8152600401600060405180830381865afa15801561110b573d6000803e3d6000fd5b505050506040513d6000823e601f3d908101601f191682016040526111339190810190613678565b60405160200161114391906136e5565b604051602081830303815290604052905061115e8582611778565b6111ec846001600160a01b03166306fdde036040518163ffffffff1660e01b8152600401600060405180830381865afa15801561119f573d6000803e3d6000fd5b505050506040513d6000823e601f3d908101601f191682016040526111c79190810190613678565b6040516020016111d7919061370f565b604051602081830303815290604052826121de565b5060fd805460fe80546001600160601b0319166aed4e0003b5380000ed4e001790556001600160a01b0385166001600160c01b031990911617600160a01b63ffffffff851602176001600160c01b031664b1a2bc2ec560d11b179055801561127c576000805461ff0019169055604051600181526000805160206139a68339815191529060200160405180910390a15b50505050565b6001600160a01b0316600090815260cb602052604090205490565b6001600160a01b0381166000908152609c6020526040812054610925565b60006112c78133611499565b6112e85780336040516337c2e34360e01b81526004016109659291906134c9565b6001600160a01b0382166113225760405133904780156108fc02916000818181858888f19350505050158015610c5c573d6000803e3d6000fd5b6113a433836001600160a01b03166370a08231306040518263ffffffff1660e01b8152600401611352919061308a565b602060405180830381865afa15801561136f573d6000803e3d6000fd5b505050506040513d601f19601f8201168201806040525081019061139391906135ca565b6001600160a01b03851691906121b0565b5050565b6000606080600080600060606065546000801b1480156113c85750606654155b61140c5760405162461bcd60e51b81526020600482015260156024820152741152540dcc4c8e88155b9a5b9a5d1a585b1a5e9959605a1b6044820152606401610965565b61141461220f565b61141c61221e565b60408051600080825260208201909252600f60f81b9b939a50919850469750309650945092509050565b6000611450611514565b65ffffffffffff1682106114765760405162461bcd60e51b8152600401610965906135e3565b61148a61148283611df3565b609b90611e5c565b6001600160e01b031692915050565b603354604051632474521560e21b81526000916001600160a01b0316906391d14854906114cc90869086906004016134c9565b602060405180830381865afa1580156114e9573d6000803e3d6000fd5b505050506040513d601f19601f8201168201806040525081019061150d9190613745565b9392505050565b6000610cfd4361222d565b606060cf80546109aa906134e0565b6001600160a01b0381166000908152609a6020526040812061148a90612294565b6000338161155d82866119ed565b9050838110156115bd5760405162461bcd60e51b815260206004820152602560248201527f45524332303a2064656372656173656420616c6c6f77616e63652062656c6f77604482015264207a65726f60d81b6064820152608401610965565b610c7a8286868403611a3d565b336000908152610100602052604081205460ff168061160257506001600160a01b0383166000908152610100602052604090205460ff165b1561162257611612338484611c50565b61161d33848461202a565b61163d565b33604051631439782360e31b8152600401610965919061308a565b50600192915050565b834211156116915760405162461bcd60e51b8152602060048201526018602482015277159bdd195cce881cda59db985d1d5c9948195e1c1a5c995960421b6044820152606401610965565b604080517fe48329057bfd03d55e49b547132e39cffd9c1820ad7b9d4c5307691425d15adf60208201526001600160a01b03881691810191909152606081018690526080810185905260009061170b906117039060a001604051602081830303815290604052805190602001206122cd565b8585856122fa565b905061171681612324565b861461175b5760405162461bcd60e51b8152602060048201526014602482015273566f7465733a20696e76616c6964206e6f6e636560601b6044820152606401610965565b6117658188611b61565b50505050505050565b6000610cfd61234c565b600054610100900460ff16158080156117985750600054600160ff909116105b806117b957506117a7306121cf565b1580156117b9575060005460ff166001145b6117d55760405162461bcd60e51b81526004016109659061362a565b6000805460ff1916600117905580156117f8576000805461ff0019166101001790555b61180183612366565b61182482604051806040016040528060018152602001603160f81b8152506123af565b8015610c5c576000805461ff0019169055604051600181526000805160206139a68339815191529060200160405180910390a1505050565b6000805160206139e68339815191526118758133611499565b6118965780336040516337c2e34360e01b81526004016109659291906134c9565b4263ffffffff168663ffffffff1610156118c3576040516353bd8e2560e01b815260040160405180910390fd5b670de0b6b3a7640000836001600160401b031611156118f55760405163df5be7f960e01b815260040160405180910390fd5b8363ffffffff1660000361191c5760405163b5039cfb60e01b815260040160405180910390fd5b63ffffffff8416158061194f575063ffffffff84168261193c8187613762565b6119469190613785565b63ffffffff1614155b1561196d5760405163b5039cfb60e01b815260040160405180910390fd5b5060fd805460fe80546001600160401b03909516600160c01b026001600160c01b0363ffffffff998a16600160a01b02166001600160a01b039093169290921791909117909155908516600160401b0263ffffffff60401b19938616600160201b026001600160401b031990931694909516939093171716919091179055565b6001600160a01b03918216600090815260cc6020908152604080832093909416825291909152205490565b60006001600160e01b03198216637487d9fb60e11b14806109255750610925826123e0565b6001600160a01b038316611a9f5760405162461bcd60e51b8152602060048201526024808201527f45524332303a20617070726f76652066726f6d20746865207a65726f206164646044820152637265737360e01b6064820152608401610965565b6001600160a01b038216611b005760405162461bcd60e51b815260206004820152602260248201527f45524332303a20617070726f766520746f20746865207a65726f206164647265604482015261737360f01b6064820152608401610965565b6001600160a01b03838116600081815260cc602090815260408083209487168084529482529182902085905590518481527f8c5be1e5ebec7d5bd14f71427d1e84f3dd0314c0f7b2291e5b200ac8c7c3b925910160405180910390a3505050565b6000611b6c83611014565b6001600160a01b0384811660008181526099602052604080822080546001600160a01b031916888616908117909155905194955093928516927f3134e8a2e6d97e929a7e54011ea5485d7d196dd5f0ba4d4ef95803e8e3fc257f9190a4610c5c8183611bd786612457565b612462565b6000611be884846119ed565b9050600019811461127c5781811015611c435760405162461bcd60e51b815260206004820152601d60248201527f45524332303a20696e73756666696369656e7420616c6c6f77616e63650000006044820152606401610965565b61127c8484848403611a3d565b6001600160a01b038316611cb45760405162461bcd60e51b815260206004820152602560248201527f45524332303a207472616e736665722066726f6d20746865207a65726f206164604482015264647265737360d81b6064820152608401610965565b6001600160a01b038216611d165760405162461bcd60e51b815260206004820152602360248201527f45524332303a207472616e7366657220746f20746865207a65726f206164647260448201526265737360e81b6064820152608401610965565b6001600160a01b038316600090815260cb602052604090205481811015611d8e5760405162461bcd60e51b815260206004820152602660248201527f45524332303a207472616e7366657220616d6f756e7420657863656564732062604482015265616c616e636560d01b6064820152608401610965565b6001600160a01b03808516600081815260cb602052604080822086860390559286168082529083902080548601905591516000805160206139c683398151915290611ddc9086815260200190565b60405180910390a361127c565b6000610cfd6125a5565b600063ffffffff821115611e585760405162461bcd60e51b815260206004820152602660248201527f53616665436173743a2076616c756520646f65736e27742066697420696e203360448201526532206269747360d01b6064820152608401610965565b5090565b815460009081816005811115611eb9576000611e7784612619565b611e81908561359b565b60008881526020902090915081015463ffffffff9081169087161015611ea957809150611eb7565b611eb48160016135b2565b92505b505b6000611ec787878585612701565b90508015611f0257611eec87611ede60018461359b565b600091825260209091200190565b54600160201b90046001600160e01b0316611f05565b60005b979650505050505050565b6040516001600160a01b038085166024830152831660448201526064810182905261127c9085906323b872dd60e01b906084015b60408051601f198184030181529190526020810180516001600160e01b03166001600160e01b03199093169290921790915261275f565b6001600160a01b038216611fd15760405162461bcd60e51b815260206004820152601f60248201527f45524332303a206d696e7420746f20746865207a65726f2061646472657373006044820152606401610965565b8060cd6000828254611fe391906135b2565b90915550506001600160a01b038216600081815260cb60209081526040808320805486019055518481526000805160206139c6833981519152910160405180910390a35050565b6001600160a01b0383166120515761204e609b61283461204984612840565b6128a9565b50505b6001600160a01b03821661207357612070609b6128f261204984612840565b50505b610c5c61207f84611014565b61208884611014565b83612462565b6001600160a01b0382166120ee5760405162461bcd60e51b815260206004820152602160248201527f45524332303a206275726e2066726f6d20746865207a65726f206164647265736044820152607360f81b6064820152608401610965565b6001600160a01b038216600090815260cb6020526040902054818110156121625760405162461bcd60e51b815260206004820152602260248201527f45524332303a206275726e20616d6f756e7420657863656564732062616c616e604482015261636560f01b6064820152608401610965565b6001600160a01b038316600081815260cb60209081526040808320868603905560cd80548790039055518581529192916000805160206139c6833981519152910160405180910390a3505050565b610c5c8363a9059cbb60e01b8484604051602401611f44929190613611565b6001600160a01b03163b151590565b600054610100900460ff166122055760405162461bcd60e51b8152600401610965906137b1565b6113a482826128fe565b6060606780546109aa906134e0565b6060606880546109aa906134e0565b600065ffffffffffff821115611e585760405162461bcd60e51b815260206004820152602660248201527f53616665436173743a2076616c756520646f65736e27742066697420696e203460448201526538206269747360d01b6064820152608401610965565b805460009080156122c4576122ae83611ede60018461359b565b54600160201b90046001600160e01b031661150d565b60009392505050565b60006109256122da611de9565b8360405161190160f01b8152600281019290925260228201526042902090565b600080600061230b8787878761293e565b91509150612318816129f8565b5090505b949350505050565b6001600160a01b0381166000908152609c602052604090208054600181018255905b50919050565b6000612358609b612294565b6001600160e01b0316905090565b600054610100900460ff1661238d5760405162461bcd60e51b8152600401610965906137b1565b603380546001600160a01b0319166001600160a01b0392909216919091179055565b600054610100900460ff166123d65760405162461bcd60e51b8152600401610965906137b1565b6113a48282612b40565b6033546040516301ffc9a760e01b81526001600160e01b0319831660048201526000916001600160a01b0316906301ffc9a790602401602060405180830381865afa158015612433573d6000803e3d6000fd5b505050506040513d601f19601f820116820180604052508101906109259190613745565b600061092582611282565b816001600160a01b0316836001600160a01b0316141580156124845750600081115b15610c5c576001600160a01b03831615612515576001600160a01b0383166000908152609a6020526040812081906124c2906128f261204986612840565b6001600160e01b031691506001600160e01b03169150846001600160a01b0316600080516020613a06833981519152838360405161250a929190918252602082015260400190565b60405180910390a250505b6001600160a01b03821615610c5c576001600160a01b0382166000908152609a60205260408120819061254e9061283461204986612840565b6001600160e01b031691506001600160e01b03169150836001600160a01b0316600080516020613a068339815191528383604051612596929190918252602082015260400190565b60405180910390a25050505050565b60007f8b73c3c69bb8fe3d512ecc4cf759cc79239f7b179b0ffacaa9a75d522b39400f6125d0612b8f565b6125d8612be8565b60408051602081019490945283019190915260608201524660808201523060a082015260c00160405160208183030381529060405280519060200120905090565b60008160000361262b57506000919050565b6000600161263884612c19565b901c6001901b9050600181848161265157612651613549565b048201901c9050600181848161266957612669613549565b048201901c9050600181848161268157612681613549565b048201901c9050600181848161269957612699613549565b048201901c905060018184816126b1576126b1613549565b048201901c905060018184816126c9576126c9613549565b048201901c905060018184816126e1576126e1613549565b048201901c905061150d818285816126fb576126fb613549565b04612cad565b60005b818310156127575760006127188484612cc3565b60008781526020902090915063ffffffff86169082015463ffffffff16111561274357809250612751565b61274e8160016135b2565b93505b50612704565b509392505050565b60006127b4826040518060400160405280602081526020017f5361666545524332303a206c6f772d6c6576656c2063616c6c206661696c6564815250856001600160a01b0316612cde9092919063ffffffff16565b90508051600014806127d55750808060200190518101906127d59190613745565b610c5c5760405162461bcd60e51b815260206004820152602a60248201527f5361666545524332303a204552433230206f7065726174696f6e20646964206e6044820152691bdd081cdd58d8d9595960b21b6064820152608401610965565b600061150d82846137fc565b60006001600160e01b03821115611e585760405162461bcd60e51b815260206004820152602760248201527f53616665436173743a2076616c756520646f65736e27742066697420696e20326044820152663234206269747360c81b6064820152608401610965565b6000806128e56128c76128ba611514565b65ffffffffffff16611df3565b6128dd6128d388612294565b868863ffffffff16565b879190612ced565b915091505b935093915050565b600061150d828461381e565b600054610100900460ff166129255760405162461bcd60e51b8152600401610965906137b1565b60ce6129318382613894565b5060cf610c5c8282613894565b6000806fa2a8918ca85bafe22016d0b997e4df60600160ff1b0383111561296b57506000905060036129ef565b6040805160008082526020820180845289905260ff881692820192909252606081018690526080810185905260019060a0016020604051602081039080840390855afa1580156129bf573d6000803e3d6000fd5b5050604051601f1901519150506001600160a01b0381166129e8576000600192509250506129ef565b9150600090505b94509492505050565b6000816004811115612a0c57612a0c613953565b03612a145750565b6001816004811115612a2857612a28613953565b03612a705760405162461bcd60e51b815260206004820152601860248201527745434453413a20696e76616c6964207369676e617475726560401b6044820152606401610965565b6002816004811115612a8457612a84613953565b03612ad15760405162461bcd60e51b815260206004820152601f60248201527f45434453413a20696e76616c6964207369676e6174757265206c656e677468006044820152606401610965565b6003816004811115612ae557612ae5613953565b03612b3d5760405162461bcd60e51b815260206004820152602260248201527f45434453413a20696e76616c6964207369676e6174757265202773272076616c604482015261756560f01b6064820152608401610965565b50565b600054610100900460ff16612b675760405162461bcd60e51b8152600401610965906137b1565b6067612b738382613894565b506068612b808282613894565b50506000606581905560665550565b600080612b9a61220f565b805190915015612bb1578051602090910120919050565b6065548015612bc05792915050565b7fc5d2460186f7233c927e7db2dcc703c0e500b653ca82273b7bfad8045d85a4709250505090565b600080612bf361221e565b805190915015612c0a578051602090910120919050565b6066548015612bc05792915050565b600080608083901c15612c2e57608092831c92015b604083901c15612c4057604092831c92015b602083901c15612c5257602092831c92015b601083901c15612c6457601092831c92015b600883901c15612c7657600892831c92015b600483901c15612c8857600492831c92015b600283901c15612c9a57600292831c92015b600183901c156109255760010192915050565b6000818310612cbc578161150d565b5090919050565b6000612cd2600284841861355f565b61150d908484166135b2565b606061231c8484600085612cfb565b6000806128e5858585612dcb565b606082471015612d5c5760405162461bcd60e51b815260206004820152602660248201527f416464726573733a20696e73756666696369656e742062616c616e636520666f6044820152651c8818d85b1b60d21b6064820152608401610965565b600080866001600160a01b03168587604051612d789190613969565b60006040518083038185875af1925050503d8060008114612db5576040519150601f19603f3d011682016040523d82523d6000602084013e612dba565b606091505b5091509150611f0587838387612f68565b825460009081908015612f0f576000612de987611ede60018561359b565b60408051808201909152905463ffffffff808216808452600160201b9092046001600160e01b031660208401529192509087161015612e685760405162461bcd60e51b815260206004820152601b60248201527a436865636b706f696e743a2064656372656173696e67206b65797360281b6044820152606401610965565b805163ffffffff808816911603612eb05784612e8988611ede60018661359b565b80546001600160e01b0392909216600160201b0263ffffffff909216919091179055612eff565b6040805180820190915263ffffffff80881682526001600160e01b0380881660208085019182528b54600181018d5560008d81529190912094519151909216600160201b029216919091179101555b6020015192508391506128ea9050565b50506040805180820190915263ffffffff80851682526001600160e01b0380851660208085019182528854600181018a5560008a815291822095519251909316600160201b0291909316179201919091559050816128ea565b60608315612fd5578251600003612fce57612f82856121cf565b612fce5760405162461bcd60e51b815260206004820152601d60248201527f416464726573733a2063616c6c20746f206e6f6e2d636f6e74726163740000006044820152606401610965565b508161231c565b61231c8383815115612fea5781518083602001fd5b8060405162461bcd60e51b815260040161096591906130f6565b60006020828403121561301657600080fd5b81356001600160e01b03198116811461150d57600080fd5b6001600160a01b0381168114612b3d57600080fd5b8015158114612b3d57600080fd5b6000806040838503121561306457600080fd5b823561306f8161302e565b9150602083013561307f81613043565b809150509250929050565b6001600160a01b0391909116815260200190565b60005b838110156130b95781810151838201526020016130a1565b8381111561127c5750506000910152565b600081518084526130e281602086016020860161309e565b601f01601f19169290920160200192915050565b60208152600061150d60208301846130ca565b6000806040838503121561311c57600080fd5b82356131278161302e565b946020939093013593505050565b60006020828403121561314757600080fd5b813561150d8161302e565b6000806040838503121561316557600080fd5b82356131708161302e565b9150602083013561307f8161302e565b60008060006060848603121561319557600080fd5b83356131a08161302e565b925060208401356131b08161302e565b929592945050506040919091013590565b6000602082840312156131d357600080fd5b5035919050565b803563ffffffff811681146131ee57600080fd5b919050565b60008060006060848603121561320857600080fd5b83356132138161302e565b925060208401356132238161302e565b9150613231604085016131da565b90509250925092565b60ff60f81b881681526000602060e08184015261325a60e084018a6130ca565b838103604085015261326c818a6130ca565b606085018990526001600160a01b038816608086015260a0850187905284810360c0860152855180825283870192509083019060005b818110156132be578351835292840192918401916001016132a2565b50909c9b505050505050505050505050565b600080604083850312156132e357600080fd5b82359150602083013561307f8161302e565b60008060008060008060c0878903121561330e57600080fd5b86356133198161302e565b95506020870135945060408701359350606087013560ff8116811461333d57600080fd5b9598949750929560808101359460a0909101359350915050565b634e487b7160e01b600052604160045260246000fd5b604051601f8201601f191681016001600160401b038111828210171561339557613395613357565b604052919050565b60006001600160401b038211156133b6576133b6613357565b50601f01601f191660200190565b600080604083850312156133d757600080fd5b82356133e28161302e565b915060208301356001600160401b038111156133fd57600080fd5b8301601f8101851361340e57600080fd5b803561342161341c8261339d565b61336d565b81815286602083850101111561343657600080fd5b816020840160208301376000602083830101528093505050509250929050565b600080600080600060a0868803121561346e57600080fd5b613477866131da565b9450613485602087016131da565b9350613493604087016131da565b925060608601356001600160401b03811681146134af57600080fd5b91506134bd608087016131da565b90509295509295909350565b9182526001600160a01b0316602082015260400190565b600181811c908216806134f457607f821691505b60208210810361234657634e487b7160e01b600052602260045260246000fd5b634e487b7160e01b600052601160045260246000fd5b600081600019048311821515161561354457613544613514565b500290565b634e487b7160e01b600052601260045260246000fd5b60008261356e5761356e613549565b500490565b600063ffffffff80831681851680830382111561359257613592613514565b01949350505050565b6000828210156135ad576135ad613514565b500390565b600082198211156135c5576135c5613514565b500190565b6000602082840312156135dc57600080fd5b5051919050565b6020808252601490820152730566f7465733a20667574757265206c6f6f6b75760641b604082015260600190565b6001600160a01b03929092168252602082015260400190565b6020808252602e908201527f496e697469616c697a61626c653a20636f6e747261637420697320616c72656160408201526d191e481a5b9a5d1a585b1a5e995960921b606082015260800190565b60006020828403121561368a57600080fd5b81516001600160401b038111156136a057600080fd5b8201601f810184136136b157600080fd5b80516136bf61341c8261339d565b8181528560208385010111156136d457600080fd5b610c0f82602083016020860161309e565b61766560f01b81526000825161370281600285016020870161309e565b9190910160020192915050565b6d03b32b9ba32b21032b9b1b937bb960951b81526000825161373881600e85016020870161309e565b91909101600e0192915050565b60006020828403121561375757600080fd5b815161150d81613043565b600063ffffffff8084168061377957613779613549565b92169190910492915050565b600063ffffffff808316818516818304811182151516156137a8576137a8613514565b02949350505050565b6020808252602b908201527f496e697469616c697a61626c653a20636f6e7472616374206973206e6f74206960408201526a6e697469616c697a696e6760a81b606082015260800190565b60006001600160e01b0382811684821680830382111561359257613592613514565b60006001600160e01b038381169083168181101561383e5761383e613514565b039392505050565b601f821115610c5c57600081815260208120601f850160051c8101602086101561386d5750805b601f850160051c820191505b8181101561388c57828155600101613879565b505050505050565b81516001600160401b038111156138ad576138ad613357565b6138c1816138bb84546134e0565b84613846565b602080601f8311600181146138f657600084156138de5750858301515b600019600386901b1c1916600185901b17855561388c565b600085815260208120601f198616915b8281101561392557888601518255948401946001909101908401613906565b50858210156139435787850151600019600388901b60f8161c191681555b5050505050600190811b01905550565b634e487b7160e01b600052602160045260246000fd5b6000825161397b81846020870161309e565b919091019291505056fe5719df9ef2c4678b547f89e4f5ae410dbf400fc51cf3ded434c55f6adea2c43f7f26b83ff96e1f2b6a682f133852f6798a09c465da95921460cefb3847402498ddf252ad1be2c89b69c2b068fc378daa952ba7f163c4a11628f55a4df523b3efa49807205ce4d355092ef5a8a18f56e8913cf4a201fbe287825b095693c21775dec2bacdd2f05b59de34da9b523dff8be42e5e38e818c82fdb0bae774387a724a2646970667358221220f914e3dc89fd19001f52e9a356c0b99241e1b9ed68394faf40a7136ddf9edbbf64736f6c634300080f0033",
  "devdoc": {
    "kind": "dev",
    "methods": {
      "CLOCK_MODE()": {
        "details": "Machine-readable description of the clock as specified in EIP-6372."
      },
      "DOMAIN_SEPARATOR()": {
        "details": "Returns the contract's {EIP712} domain separator."
      },
      "allowance(address,address)": {
        "details": "See {IERC20-allowance}."
      },
      "approve(address,uint256)": {
        "details": "See {IERC20-approve}. NOTE: If `amount` is the maximum `uint256`, the allowance is not updated on `transferFrom`. This is semantically equivalent to an infinite approval. Requirements: - `spender` cannot be the zero address."
      },
      "balanceOf(address)": {
        "details": "See {IERC20-balanceOf}."
      },
      "burn(uint256)": {
        "details": "it's possible to burn veERC20 token, but the underlying token should be burn as well. Statistics, such is amount of already withdrawn stay the same"
      },
      "clock()": {
        "details": "Clock used for flagging checkpoints. Can be overridden to implement timestamp based checkpoints (and voting), in which case {CLOCK_MODE} should be overridden as well to match."
      },
      "decimals()": {
        "details": "Returns the number of decimals used to get its user representation. For example, if `decimals` equals `2`, a balance of `505` tokens should be displayed to a user as `5.05` (`505 / 10 ** 2`). Tokens usually opt for a value of 18, imitating the relationship between Ether and Wei. This is the default value returned by this function, unless it's overridden. NOTE: This information is only used for _display_ purposes: it in no way affects any of the arithmetic of the contract, including {IERC20-balanceOf} and {IERC20-transfer}."
      },
      "decreaseAllowance(address,uint256)": {
        "details": "Atomically decreases the allowance granted to `spender` by the caller. This is an alternative to {approve} that can be used as a mitigation for problems described in {IERC20-approve}. Emits an {Approval} event indicating the updated allowance. Requirements: - `spender` cannot be the zero address. - `spender` must have allowance for the caller of at least `subtractedValue`."
      },
      "delegate(address)": {
        "details": "Delegates votes from the sender to `delegatee`. It's DEPRECATED. Only contracts with SYSTEM_ROLE can call delegateOnBehalf(). (like VotingPower that has complex logic to work with SuVoteToken-like tokens)"
      },
      "delegateBySig(address,uint256,uint256,uint8,bytes32,bytes32)": {
        "details": "Delegates votes from signer to `delegatee`."
      },
      "delegateOnBehalf(address,address)": {
        "details": "Delegates votes from the account to `delegatee`."
      },
      "delegates(address)": {
        "details": "Returns the delegate that `account` has chosen."
      },
      "eip712Domain()": {
        "details": "See {EIP-5267}. _Available since v4.9._"
      },
      "getPastTotalSupply(uint256)": {
        "details": "Returns the total supply of votes available at a specific moment in the past. If the `clock()` is configured to use block numbers, this will return the value at the end of the corresponding block. NOTE: This value is the sum of all available votes, which is not necessarily the sum of all delegated votes. Votes that have not been delegated are still part of total supply, even though they would not participate in a vote. Requirements: - `timepoint` must be in the past. If operating using block numbers, the block must be already mined."
      },
      "getPastVotes(address,uint256)": {
        "details": "Returns the amount of votes that `account` had at a specific moment in the past. If the `clock()` is configured to use block numbers, this will return the value at the end of the corresponding block. Requirements: - `timepoint` must be in the past. If operating using block numbers, the block must be already mined."
      },
      "getVotes(address)": {
        "details": "Returns the current amount of votes that `account` has."
      },
      "increaseAllowance(address,uint256)": {
        "details": "Atomically increases the allowance granted to `spender` by the caller. This is an alternative to {approve} that can be used as a mitigation for problems described in {IERC20-approve}. Emits an {Approval} event indicating the updated allowance. Requirements: - `spender` cannot be the zero address."
      },
      "lockUnderVesting(address,uint256)": {
        "params": {
          "account": "Beneficiary of the vesting account.",
          "amount": "Amount of tokens to be send, which will be deducted from msg.sender."
        }
      },
      "name()": {
        "details": "Returns the name of the token."
      },
      "nonces(address)": {
        "details": "Returns an address nonce."
      },
      "symbol()": {
        "details": "Returns the symbol of the token, usually a shorter version of the name."
      },
      "totalSupply()": {
        "details": "See {IERC20-totalSupply}."
      },
      "transfer(address,uint256)": {
        "details": "See {IERC20-transfer}. Requirements: - `to` cannot be the zero address. - the caller must have a balance of at least `amount`."
      },
      "transferFrom(address,address,uint256)": {
        "details": "See {IERC20-transferFrom}. Emits an {Approval} event indicating the updated allowance. This is not required by the EIP. See the note at the beginning of {ERC20}. NOTE: Does not update the allowance if the current allowance is the maximum `uint256`. Requirements: - `from` and `to` cannot be the zero address. - `from` must have a balance of at least `amount`. - the caller must have allowance for ``from``'s tokens of at least `amount`."
      }
    },
    "stateVariables": {
      "__gap": {
        "details": "This empty reserved space is put in place to allow future versions to add new variables without shifting down storage in the inheritance chain. See https://docs.openzeppelin.com/contracts/4.x/upgradeable#storage_gaps"
      }
    },
    "version": 1
  },
  "userdoc": {
    "kind": "user",
    "methods": {
      "lockUnderVesting(address,uint256)": {
        "notice": "Creates an account with time-vesting for the user and withdraws these tokens from msg.sender."
      }
    },
    "version": 1
  },
  "storageLayout": {
    "storage": [
      {
        "astId": 1248,
        "contract": "contracts/vested-escrow/VeERC20v2.sol:VeERC20v2",
        "label": "_initialized",
        "offset": 0,
        "slot": "0",
        "type": "t_uint8"
      },
      {
        "astId": 1251,
        "contract": "contracts/vested-escrow/VeERC20v2.sol:VeERC20v2",
        "label": "_initializing",
        "offset": 1,
        "slot": "0",
        "type": "t_bool"
      },
      {
        "astId": 6976,
        "contract": "contracts/vested-escrow/VeERC20v2.sol:VeERC20v2",
        "label": "__gap",
        "offset": 0,
        "slot": "1",
        "type": "t_array(t_uint256)50_storage"
      },
      {
        "astId": 28900,
        "contract": "contracts/vested-escrow/VeERC20v2.sol:VeERC20v2",
        "label": "ACCESS_CONTROL_SINGLETON",
        "offset": 0,
        "slot": "51",
        "type": "t_contract(ISuAccessControl)30579"
      },
      {
        "astId": 28987,
        "contract": "contracts/vested-escrow/VeERC20v2.sol:VeERC20v2",
        "label": "__gap",
        "offset": 0,
        "slot": "52",
        "type": "t_array(t_uint256)49_storage"
      },
      {
        "astId": 7664,
        "contract": "contracts/vested-escrow/VeERC20v2.sol:VeERC20v2",
        "label": "_hashedName",
        "offset": 0,
        "slot": "101",
        "type": "t_bytes32"
      },
      {
        "astId": 7667,
        "contract": "contracts/vested-escrow/VeERC20v2.sol:VeERC20v2",
        "label": "_hashedVersion",
        "offset": 0,
        "slot": "102",
        "type": "t_bytes32"
      },
      {
        "astId": 7669,
        "contract": "contracts/vested-escrow/VeERC20v2.sol:VeERC20v2",
        "label": "_name",
        "offset": 0,
        "slot": "103",
        "type": "t_string_storage"
      },
      {
        "astId": 7671,
        "contract": "contracts/vested-escrow/VeERC20v2.sol:VeERC20v2",
        "label": "_version",
        "offset": 0,
        "slot": "104",
        "type": "t_string_storage"
      },
      {
        "astId": 7929,
        "contract": "contracts/vested-escrow/VeERC20v2.sol:VeERC20v2",
        "label": "__gap",
        "offset": 0,
        "slot": "105",
        "type": "t_array(t_uint256)48_storage"
      },
      {
        "astId": 664,
        "contract": "contracts/vested-escrow/VeERC20v2.sol:VeERC20v2",
        "label": "_delegation",
        "offset": 0,
        "slot": "153",
        "type": "t_mapping(t_address,t_address)"
      },
      {
        "astId": 670,
        "contract": "contracts/vested-escrow/VeERC20v2.sol:VeERC20v2",
        "label": "_delegateCheckpoints",
        "offset": 0,
        "slot": "154",
        "type": "t_mapping(t_address,t_struct(Trace224)5935_storage)"
      },
      {
        "astId": 674,
        "contract": "contracts/vested-escrow/VeERC20v2.sol:VeERC20v2",
        "label": "_totalCheckpoints",
        "offset": 0,
        "slot": "155",
        "type": "t_struct(Trace224)5935_storage"
      },
      {
        "astId": 679,
        "contract": "contracts/vested-escrow/VeERC20v2.sol:VeERC20v2",
        "label": "_nonces",
        "offset": 0,
        "slot": "156",
        "type": "t_mapping(t_address,t_struct(Counter)6983_storage)"
      },
      {
        "astId": 1188,
        "contract": "contracts/vested-escrow/VeERC20v2.sol:VeERC20v2",
        "label": "__gap",
        "offset": 0,
        "slot": "157",
        "type": "t_array(t_uint256)46_storage"
      },
      {
        "astId": 1429,
        "contract": "contracts/vested-escrow/VeERC20v2.sol:VeERC20v2",
        "label": "_balances",
        "offset": 0,
        "slot": "203",
        "type": "t_mapping(t_address,t_uint256)"
      },
      {
        "astId": 1435,
        "contract": "contracts/vested-escrow/VeERC20v2.sol:VeERC20v2",
        "label": "_allowances",
        "offset": 0,
        "slot": "204",
        "type": "t_mapping(t_address,t_mapping(t_address,t_uint256))"
      },
      {
        "astId": 1437,
        "contract": "contracts/vested-escrow/VeERC20v2.sol:VeERC20v2",
        "label": "_totalSupply",
        "offset": 0,
        "slot": "205",
        "type": "t_uint256"
      },
      {
        "astId": 1439,
        "contract": "contracts/vested-escrow/VeERC20v2.sol:VeERC20v2",
        "label": "_name",
        "offset": 0,
        "slot": "206",
        "type": "t_string_storage"
      },
      {
        "astId": 1441,
        "contract": "contracts/vested-escrow/VeERC20v2.sol:VeERC20v2",
        "label": "_symbol",
        "offset": 0,
        "slot": "207",
        "type": "t_string_storage"
      },
      {
        "astId": 2021,
        "contract": "contracts/vested-escrow/VeERC20v2.sol:VeERC20v2",
        "label": "__gap",
        "offset": 0,
        "slot": "208",
        "type": "t_array(t_uint256)45_storage"
      },
      {
        "astId": 32189,
        "contract": "contracts/vested-escrow/VeERC20v2.sol:VeERC20v2",
        "label": "LOCKED_TOKEN",
        "offset": 0,
        "slot": "253",
        "type": "t_contract(ERC20BurnableUpgradeable)2164"
      },
      {
        "astId": 32191,
        "contract": "contracts/vested-escrow/VeERC20v2.sol:VeERC20v2",
        "label": "tgeTimestamp",
        "offset": 20,
        "slot": "253",
        "type": "t_uint32"
      },
      {
        "astId": 32193,
        "contract": "contracts/vested-escrow/VeERC20v2.sol:VeERC20v2",
        "label": "tgeUnlockRatio1e18",
        "offset": 24,
        "slot": "253",
        "type": "t_uint64"
      },
      {
        "astId": 32195,
        "contract": "contracts/vested-escrow/VeERC20v2.sol:VeERC20v2",
        "label": "cliffSeconds",
        "offset": 0,
        "slot": "254",
        "type": "t_uint32"
      },
      {
        "astId": 32197,
        "contract": "contracts/vested-escrow/VeERC20v2.sol:VeERC20v2",
        "label": "vestingSeconds",
        "offset": 4,
        "slot": "254",
        "type": "t_uint32"
      },
      {
        "astId": 32199,
        "contract": "contracts/vested-escrow/VeERC20v2.sol:VeERC20v2",
        "label": "vestingFrequencySeconds",
        "offset": 8,
        "slot": "254",
        "type": "t_uint32"
      },
      {
        "astId": 32203,
        "contract": "contracts/vested-escrow/VeERC20v2.sol:VeERC20v2",
        "label": "alreadyWithdrawn",
        "offset": 0,
        "slot": "255",
        "type": "t_mapping(t_address,t_uint256)"
      },
      {
        "astId": 32207,
        "contract": "contracts/vested-escrow/VeERC20v2.sol:VeERC20v2",
        "label": "isTransferable",
        "offset": 0,
        "slot": "256",
        "type": "t_mapping(t_address,t_bool)"
      },
      {
        "astId": 32785,
        "contract": "contracts/vested-escrow/VeERC20v2.sol:VeERC20v2",
        "label": "__gap",
        "offset": 0,
        "slot": "257",
        "type": "t_array(t_uint256)49_storage"
      }
    ],
    "types": {
      "t_address": {
        "encoding": "inplace",
        "label": "address",
        "numberOfBytes": "20"
      },
      "t_array(t_struct(Checkpoint224)5940_storage)dyn_storage": {
        "base": "t_struct(Checkpoint224)5940_storage",
        "encoding": "dynamic_array",
        "label": "struct CheckpointsUpgradeable.Checkpoint224[]",
        "numberOfBytes": "32"
      },
      "t_array(t_uint256)45_storage": {
        "base": "t_uint256",
        "encoding": "inplace",
        "label": "uint256[45]",
        "numberOfBytes": "1440"
      },
      "t_array(t_uint256)46_storage": {
        "base": "t_uint256",
        "encoding": "inplace",
        "label": "uint256[46]",
        "numberOfBytes": "1472"
      },
      "t_array(t_uint256)48_storage": {
        "base": "t_uint256",
        "encoding": "inplace",
        "label": "uint256[48]",
        "numberOfBytes": "1536"
      },
      "t_array(t_uint256)49_storage": {
        "base": "t_uint256",
        "encoding": "inplace",
        "label": "uint256[49]",
        "numberOfBytes": "1568"
      },
      "t_array(t_uint256)50_storage": {
        "base": "t_uint256",
        "encoding": "inplace",
        "label": "uint256[50]",
        "numberOfBytes": "1600"
      },
      "t_bool": {
        "encoding": "inplace",
        "label": "bool",
        "numberOfBytes": "1"
      },
      "t_bytes32": {
        "encoding": "inplace",
        "label": "bytes32",
        "numberOfBytes": "32"
      },
      "t_contract(ERC20BurnableUpgradeable)2164": {
        "encoding": "inplace",
        "label": "contract ERC20BurnableUpgradeable",
        "numberOfBytes": "20"
      },
      "t_contract(ISuAccessControl)30579": {
        "encoding": "inplace",
        "label": "contract ISuAccessControl",
        "numberOfBytes": "20"
      },
      "t_mapping(t_address,t_address)": {
        "encoding": "mapping",
        "key": "t_address",
        "label": "mapping(address => address)",
        "numberOfBytes": "32",
        "value": "t_address"
      },
      "t_mapping(t_address,t_bool)": {
        "encoding": "mapping",
        "key": "t_address",
        "label": "mapping(address => bool)",
        "numberOfBytes": "32",
        "value": "t_bool"
      },
      "t_mapping(t_address,t_mapping(t_address,t_uint256))": {
        "encoding": "mapping",
        "key": "t_address",
        "label": "mapping(address => mapping(address => uint256))",
        "numberOfBytes": "32",
        "value": "t_mapping(t_address,t_uint256)"
      },
      "t_mapping(t_address,t_struct(Counter)6983_storage)": {
        "encoding": "mapping",
        "key": "t_address",
        "label": "mapping(address => struct CountersUpgradeable.Counter)",
        "numberOfBytes": "32",
        "value": "t_struct(Counter)6983_storage"
      },
      "t_mapping(t_address,t_struct(Trace224)5935_storage)": {
        "encoding": "mapping",
        "key": "t_address",
        "label": "mapping(address => struct CheckpointsUpgradeable.Trace224)",
        "numberOfBytes": "32",
        "value": "t_struct(Trace224)5935_storage"
      },
      "t_mapping(t_address,t_uint256)": {
        "encoding": "mapping",
        "key": "t_address",
        "label": "mapping(address => uint256)",
        "numberOfBytes": "32",
        "value": "t_uint256"
      },
      "t_string_storage": {
        "encoding": "bytes",
        "label": "string",
        "numberOfBytes": "32"
      },
      "t_struct(Checkpoint224)5940_storage": {
        "encoding": "inplace",
        "label": "struct CheckpointsUpgradeable.Checkpoint224",
        "members": [
          {
            "astId": 5937,
            "contract": "contracts/vested-escrow/VeERC20v2.sol:VeERC20v2",
            "label": "_key",
            "offset": 0,
            "slot": "0",
            "type": "t_uint32"
          },
          {
            "astId": 5939,
            "contract": "contracts/vested-escrow/VeERC20v2.sol:VeERC20v2",
            "label": "_value",
            "offset": 4,
            "slot": "0",
            "type": "t_uint224"
          }
        ],
        "numberOfBytes": "32"
      },
      "t_struct(Counter)6983_storage": {
        "encoding": "inplace",
        "label": "struct CountersUpgradeable.Counter",
        "members": [
          {
            "astId": 6982,
            "contract": "contracts/vested-escrow/VeERC20v2.sol:VeERC20v2",
            "label": "_value",
            "offset": 0,
            "slot": "0",
            "type": "t_uint256"
          }
        ],
        "numberOfBytes": "32"
      },
      "t_struct(Trace224)5935_storage": {
        "encoding": "inplace",
        "label": "struct CheckpointsUpgradeable.Trace224",
        "members": [
          {
            "astId": 5934,
            "contract": "contracts/vested-escrow/VeERC20v2.sol:VeERC20v2",
            "label": "_checkpoints",
            "offset": 0,
            "slot": "0",
            "type": "t_array(t_struct(Checkpoint224)5940_storage)dyn_storage"
          }
        ],
        "numberOfBytes": "32"
      },
      "t_uint224": {
        "encoding": "inplace",
        "label": "uint224",
        "numberOfBytes": "28"
      },
      "t_uint256": {
        "encoding": "inplace",
        "label": "uint256",
        "numberOfBytes": "32"
      },
      "t_uint32": {
        "encoding": "inplace",
        "label": "uint32",
        "numberOfBytes": "4"
      },
      "t_uint64": {
        "encoding": "inplace",
        "label": "uint64",
        "numberOfBytes": "8"
      },
      "t_uint8": {
        "encoding": "inplace",
        "label": "uint8",
        "numberOfBytes": "1"
      }
    }
  }
}