{
  "address": "0xeC66789E1705e64fcd8f0c1072f474b2a1ea579e",
  "abi": [
    {
      "inputs": [
        {
          "internalType": "bytes32",
          "name": "role",
          "type": "bytes32"
        },
        {
          "internalType": "address",
          "name": "msgSender",
          "type": "address"
        }
      ],
      "name": "OnlyRoleError",
      "type": "error"
    },
    {
      "anonymous": false,
      "inputs": [
        {
          "indexed": true,
          "internalType": "address",
          "name": "owner",
          "type": "address"
        },
        {
          "indexed": true,
          "internalType": "address",
          "name": "spender",
          "type": "address"
        },
        {
          "indexed": false,
          "internalType": "uint256",
          "name": "value",
          "type": "uint256"
        }
      ],
      "name": "Approval",
      "type": "event"
    },
    {
      "anonymous": false,
      "inputs": [
        {
          "indexed": false,
          "internalType": "uint8",
          "name": "version",
          "type": "uint8"
        }
      ],
      "name": "Initialized",
      "type": "event"
    },
    {
      "anonymous": false,
      "inputs": [
        {
          "indexed": true,
          "internalType": "address",
          "name": "from",
          "type": "address"
        },
        {
          "indexed": true,
          "internalType": "address",
          "name": "to",
          "type": "address"
        },
        {
          "indexed": false,
          "internalType": "uint256",
          "name": "value",
          "type": "uint256"
        }
      ],
      "name": "Transfer",
      "type": "event"
    },
    {
      "inputs": [],
      "name": "ACCESS_CONTROL_SINGLETON",
      "outputs": [
        {
          "internalType": "contract ISuAccessControl",
          "name": "",
          "type": "address"
        }
      ],
      "stateMutability": "view",
      "type": "function"
    },
    {
      "inputs": [],
      "name": "ADMIN_ROLE",
      "outputs": [
        {
          "internalType": "bytes32",
          "name": "",
          "type": "bytes32"
        }
      ],
      "stateMutability": "view",
      "type": "function"
    },
    {
      "inputs": [],
      "name": "COMMUNITY_ADMIN_ROLE",
      "outputs": [
        {
          "internalType": "bytes32",
          "name": "",
          "type": "bytes32"
        }
      ],
      "stateMutability": "view",
      "type": "function"
    },
    {
      "inputs": [],
      "name": "DAO_ROLE",
      "outputs": [
        {
          "internalType": "bytes32",
          "name": "",
          "type": "bytes32"
        }
      ],
      "stateMutability": "view",
      "type": "function"
    },
    {
      "inputs": [],
      "name": "DEFAULT_ADMIN_ROLE",
      "outputs": [
        {
          "internalType": "bytes32",
          "name": "",
          "type": "bytes32"
        }
      ],
      "stateMutability": "view",
      "type": "function"
    },
    {
      "inputs": [],
      "name": "LOCKED_TOKEN",
      "outputs": [
        {
          "internalType": "contract ERC20Upgradeable",
          "name": "",
          "type": "address"
        }
      ],
      "stateMutability": "view",
      "type": "function"
    },
    {
      "inputs": [],
      "name": "TGE_MAX_TIMESTAMP",
      "outputs": [
        {
          "internalType": "uint32",
          "name": "",
          "type": "uint32"
        }
      ],
      "stateMutability": "view",
      "type": "function"
    },
    {
      "inputs": [
        {
          "internalType": "address",
          "name": "account",
          "type": "address"
        },
        {
          "internalType": "uint256",
          "name": "amount",
          "type": "uint256"
        }
      ],
      "name": "addBalance",
      "outputs": [],
      "stateMutability": "nonpayable",
      "type": "function"
    },
    {
      "inputs": [
        {
          "internalType": "address",
          "name": "owner",
          "type": "address"
        },
        {
          "internalType": "address",
          "name": "spender",
          "type": "address"
        }
      ],
      "name": "allowance",
      "outputs": [
        {
          "internalType": "uint256",
          "name": "",
          "type": "uint256"
        }
      ],
      "stateMutability": "view",
      "type": "function"
    },
    {
      "inputs": [
        {
          "internalType": "address",
          "name": "spender",
          "type": "address"
        },
        {
          "internalType": "uint256",
          "name": "amount",
          "type": "uint256"
        }
      ],
      "name": "approve",
      "outputs": [
        {
          "internalType": "bool",
          "name": "",
          "type": "bool"
        }
      ],
      "stateMutability": "nonpayable",
      "type": "function"
    },
    {
      "inputs": [
        {
          "internalType": "address",
          "name": "user",
          "type": "address"
        }
      ],
      "name": "availableToClaim",
      "outputs": [
        {
          "internalType": "uint256",
          "name": "",
          "type": "uint256"
        }
      ],
      "stateMutability": "view",
      "type": "function"
    },
    {
      "inputs": [
        {
          "internalType": "address",
          "name": "account",
          "type": "address"
        }
      ],
      "name": "balanceOf",
      "outputs": [
        {
          "internalType": "uint256",
          "name": "",
          "type": "uint256"
        }
      ],
      "stateMutability": "view",
      "type": "function"
    },
    {
      "inputs": [
        {
          "internalType": "uint256",
          "name": "amount",
          "type": "uint256"
        }
      ],
      "name": "burn",
      "outputs": [],
      "stateMutability": "nonpayable",
      "type": "function"
    },
    {
      "inputs": [],
      "name": "burnAll",
      "outputs": [],
      "stateMutability": "nonpayable",
      "type": "function"
    },
    {
      "inputs": [
        {
          "internalType": "address",
          "name": "account",
          "type": "address"
        },
        {
          "internalType": "uint256",
          "name": "amount",
          "type": "uint256"
        }
      ],
      "name": "burnFrom",
      "outputs": [],
      "stateMutability": "nonpayable",
      "type": "function"
    },
    {
      "inputs": [],
      "name": "claim",
      "outputs": [],
      "stateMutability": "nonpayable",
      "type": "function"
    },
    {
      "inputs": [],
      "name": "decimals",
      "outputs": [
        {
          "internalType": "uint8",
          "name": "",
          "type": "uint8"
        }
      ],
      "stateMutability": "view",
      "type": "function"
    },
    {
      "inputs": [
        {
          "internalType": "address",
          "name": "spender",
          "type": "address"
        },
        {
          "internalType": "uint256",
          "name": "subtractedValue",
          "type": "uint256"
        }
      ],
      "name": "decreaseAllowance",
      "outputs": [
        {
          "internalType": "bool",
          "name": "",
          "type": "bool"
        }
      ],
      "stateMutability": "nonpayable",
      "type": "function"
    },
    {
      "inputs": [
        {
          "internalType": "address",
          "name": "toDAO",
          "type": "address"
        }
      ],
      "name": "donateTokens",
      "outputs": [],
      "stateMutability": "nonpayable",
      "type": "function"
    },
    {
      "inputs": [
        {
          "internalType": "bytes32",
          "name": "role",
          "type": "bytes32"
        }
      ],
      "name": "getRoleAdmin",
      "outputs": [
        {
          "internalType": "bytes32",
          "name": "",
          "type": "bytes32"
        }
      ],
      "stateMutability": "view",
      "type": "function"
    },
    {
      "inputs": [
        {
          "internalType": "bytes32",
          "name": "role",
          "type": "bytes32"
        },
        {
          "internalType": "address",
          "name": "account",
          "type": "address"
        }
      ],
      "name": "hasRole",
      "outputs": [
        {
          "internalType": "bool",
          "name": "",
          "type": "bool"
        }
      ],
      "stateMutability": "view",
      "type": "function"
    },
    {
      "inputs": [
        {
          "internalType": "address",
          "name": "spender",
          "type": "address"
        },
        {
          "internalType": "uint256",
          "name": "addedValue",
          "type": "uint256"
        }
      ],
      "name": "increaseAllowance",
      "outputs": [
        {
          "internalType": "bool",
          "name": "",
          "type": "bool"
        }
      ],
      "stateMutability": "nonpayable",
      "type": "function"
    },
    {
      "inputs": [
        {
          "internalType": "address",
          "name": "_accessControlSingleton",
          "type": "address"
        },
        {
          "internalType": "contract ERC20Upgradeable",
          "name": "_lockedToken",
          "type": "address"
        }
      ],
      "name": "initialize",
      "outputs": [],
      "stateMutability": "nonpayable",
      "type": "function"
    },
    {
      "inputs": [
        {
          "internalType": "address",
          "name": "account",
          "type": "address"
        },
        {
          "internalType": "uint256",
          "name": "amount",
          "type": "uint256"
        },
        {
          "internalType": "uint256",
          "name": "vestingSeconds",
          "type": "uint256"
        },
        {
          "internalType": "uint256",
          "name": "cliffSeconds",
          "type": "uint256"
        },
        {
          "internalType": "uint256",
          "name": "tgeUnlockRatio1e18",
          "type": "uint256"
        },
        {
          "internalType": "uint256",
          "name": "vestingFrequencySeconds",
          "type": "uint256"
        }
      ],
      "name": "lockUnderVesting",
      "outputs": [],
      "stateMutability": "nonpayable",
      "type": "function"
    },
    {
      "inputs": [],
      "name": "name",
      "outputs": [
        {
          "internalType": "string",
          "name": "",
          "type": "string"
        }
      ],
      "stateMutability": "view",
      "type": "function"
    },
    {
      "inputs": [
        {
          "internalType": "contract ERC20Upgradeable",
          "name": "token",
          "type": "address"
        }
      ],
      "name": "rescue",
      "outputs": [],
      "stateMutability": "nonpayable",
      "type": "function"
    },
    {
      "inputs": [
        {
          "internalType": "bytes4",
          "name": "interfaceId",
          "type": "bytes4"
        }
      ],
      "name": "supportsInterface",
      "outputs": [
        {
          "internalType": "bool",
          "name": "",
          "type": "bool"
        }
      ],
      "stateMutability": "view",
      "type": "function"
    },
    {
      "inputs": [],
      "name": "symbol",
      "outputs": [
        {
          "internalType": "string",
          "name": "",
          "type": "string"
        }
      ],
      "stateMutability": "view",
      "type": "function"
    },
    {
      "inputs": [],
      "name": "tgeTimestamp",
      "outputs": [
        {
          "internalType": "uint32",
          "name": "",
          "type": "uint32"
        }
      ],
      "stateMutability": "view",
      "type": "function"
    },
    {
      "inputs": [
        {
          "internalType": "address",
          "name": "user",
          "type": "address"
        }
      ],
      "name": "totalClaimed",
      "outputs": [
        {
          "internalType": "uint256",
          "name": "",
          "type": "uint256"
        }
      ],
      "stateMutability": "view",
      "type": "function"
    },
    {
      "inputs": [
        {
          "internalType": "address",
          "name": "user",
          "type": "address"
        }
      ],
      "name": "totalDeposited",
      "outputs": [
        {
          "internalType": "uint256",
          "name": "",
          "type": "uint256"
        }
      ],
      "stateMutability": "view",
      "type": "function"
    },
    {
      "inputs": [],
      "name": "totalSupply",
      "outputs": [
        {
          "internalType": "uint256",
          "name": "",
          "type": "uint256"
        }
      ],
      "stateMutability": "view",
      "type": "function"
    },
    {
      "inputs": [
        {
          "internalType": "address",
          "name": "",
          "type": "address"
        },
        {
          "internalType": "uint256",
          "name": "",
          "type": "uint256"
        }
      ],
      "name": "transfer",
      "outputs": [
        {
          "internalType": "bool",
          "name": "",
          "type": "bool"
        }
      ],
      "stateMutability": "nonpayable",
      "type": "function"
    },
    {
      "inputs": [
        {
          "internalType": "address",
          "name": "from",
          "type": "address"
        },
        {
          "internalType": "address",
          "name": "to",
          "type": "address"
        },
        {
          "internalType": "uint256",
          "name": "amount",
          "type": "uint256"
        }
      ],
      "name": "transferFrom",
      "outputs": [
        {
          "internalType": "bool",
          "name": "",
          "type": "bool"
        }
      ],
      "stateMutability": "nonpayable",
      "type": "function"
    },
    {
      "inputs": [
        {
          "internalType": "uint32",
          "name": "newTgeTimestamp",
          "type": "uint32"
        }
      ],
      "name": "updateTgeTimestamp",
      "outputs": [],
      "stateMutability": "nonpayable",
      "type": "function"
    },
    {
      "inputs": [
        {
          "internalType": "address",
          "name": "",
          "type": "address"
        }
      ],
      "name": "vestingInfo",
      "outputs": [
        {
          "internalType": "uint256",
          "name": "amountAlreadyWithdrawn",
          "type": "uint256"
        },
        {
          "internalType": "uint256",
          "name": "cliffSeconds",
          "type": "uint256"
        },
        {
          "internalType": "uint256",
          "name": "vestingSeconds",
          "type": "uint256"
        },
        {
          "internalType": "uint256",
          "name": "tgeUnlockRatio1e18",
          "type": "uint256"
        },
        {
          "internalType": "uint256",
          "name": "vestingFrequencySeconds",
          "type": "uint256"
        }
      ],
      "stateMutability": "view",
      "type": "function"
    },
    {
      "stateMutability": "payable",
      "type": "receive"
    }
  ],
  "numDeployments": 1,
  "solcInputHash": "f758b7a0534974279b090d6789581c7e",
  "bytecode": "0x608060405234801561001057600080fd5b506149aa806100206000396000f3fe6080604052600436106102135760003560e01c806375b238fc11610118578063a217fddf116100a0578063dd62ed3e1161006f578063dd62ed3e146107e2578063e9c265181461081f578063ea9e9a811461084a578063ef5d9ae814610875578063f78e633d146108b25761021a565b8063a217fddf14610712578063a4317ef41461073d578063a457c2d714610768578063a9059cbb146107a55761021a565b8063925bf5d4116100e7578063925bf5d41461065357806393a56edc1461067c57806395367f89146106a557806395d89b41146106d05780639975038c146106fb5761021a565b806375b238fc1461059957806379cc6790146105c4578063839006f2146105ed57806391d14854146106165761021a565b8063248a9ca31161019b578063485cc9551161016a578063485cc955146104b45780634e71d92d146104dd57806353055481146104f4578063692878621461053157806370a082311461055c5761021a565b8063248a9ca3146103e6578063313ce56714610423578063395093511461044e57806342966c681461048b5761021a565b8063095ea7b3116101e2578063095ea7b3146102db5780630da451881461031857806318160ddd1461035557806321e5383a1461038057806323b872dd146103a95761021a565b806301ffc9a71461021f57806303ee9f221461025c57806306fdde031461028757806308614362146102b25761021a565b3661021a57005b600080fd5b34801561022b57600080fd5b5061024660048036038101906102419190612cf5565b6108f3565b6040516102539190612d3d565b60405180910390f35b34801561026857600080fd5b50610271610998565b60405161027e9190612dd7565b60405180910390f35b34801561029357600080fd5b5061029c6109be565b6040516102a99190612e8b565b60405180910390f35b3480156102be57600080fd5b506102d960048036038101906102d49190612eeb565b610a50565b005b3480156102e757600080fd5b5061030260048036038101906102fd9190612f4e565b610bec565b60405161030f9190612d3d565b60405180910390f35b34801561032457600080fd5b5061033f600480360381019061033a9190612eeb565b610c0f565b60405161034c9190612f9d565b60405180910390f35b34801561036157600080fd5b5061036a610e15565b6040516103779190612f9d565b60405180910390f35b34801561038c57600080fd5b506103a760048036038101906103a29190612f4e565b610e1f565b005b3480156103b557600080fd5b506103d060048036038101906103cb9190612fb8565b610e7c565b6040516103dd9190612d3d565b60405180910390f35b3480156103f257600080fd5b5061040d60048036038101906104089190613041565b610eab565b60405161041a919061307d565b60405180910390f35b34801561042f57600080fd5b50610438610f50565b60405161044591906130b4565b60405180910390f35b34801561045a57600080fd5b5061047560048036038101906104709190612f4e565b610f59565b6040516104829190612d3d565b60405180910390f35b34801561049757600080fd5b506104b260048036038101906104ad91906130cf565b610f90565b005b3480156104c057600080fd5b506104db60048036038101906104d6919061313a565b610fa4565b005b3480156104e957600080fd5b506104f26112ac565b005b34801561050057600080fd5b5061051b60048036038101906105169190612eeb565b6113ea565b6040516105289190612f9d565b60405180910390f35b34801561053d57600080fd5b50610546611449565b604051610553919061319b565b60405180910390f35b34801561056857600080fd5b50610583600480360381019061057e9190612eeb565b61146f565b6040516105909190612f9d565b60405180910390f35b3480156105a557600080fd5b506105ae6114b8565b6040516105bb919061307d565b60405180910390f35b3480156105d057600080fd5b506105eb60048036038101906105e69190612f4e565b6114dc565b005b3480156105f957600080fd5b50610614600480360381019061060f91906131b6565b6114fc565b005b34801561062257600080fd5b5061063d600480360381019061063891906131e3565b611706565b60405161064a9190612d3d565b60405180910390f35b34801561065f57600080fd5b5061067a6004803603810190610675919061325f565b6117ae565b005b34801561068857600080fd5b506106a3600480360381019061069e919061328c565b6118f1565b005b3480156106b157600080fd5b506106ba61197f565b6040516106c7919061307d565b60405180910390f35b3480156106dc57600080fd5b506106e56119a3565b6040516106f29190612e8b565b60405180910390f35b34801561070757600080fd5b50610710611a35565b005b34801561071e57600080fd5b50610727611a97565b604051610734919061307d565b60405180910390f35b34801561074957600080fd5b50610752611a9e565b60405161075f9190613328565b60405180910390f35b34801561077457600080fd5b5061078f600480360381019061078a9190612f4e565b611ab4565b60405161079c9190612d3d565b60405180910390f35b3480156107b157600080fd5b506107cc60048036038101906107c79190612f4e565b611b2b565b6040516107d99190612d3d565b60405180910390f35b3480156107ee57600080fd5b5061080960048036038101906108049190613343565b611b68565b6040516108169190612f9d565b60405180910390f35b34801561082b57600080fd5b50610834611bef565b604051610841919061307d565b60405180910390f35b34801561085657600080fd5b5061085f611bf6565b60405161086c9190613328565b60405180910390f35b34801561088157600080fd5b5061089c60048036038101906108979190612eeb565b611c0c565b6040516108a99190612f9d565b60405180910390f35b3480156108be57600080fd5b506108d960048036038101906108d49190612eeb565b611c58565b6040516108ea959493929190613383565b60405180910390f35b6000609760009054906101000a900473ffffffffffffffffffffffffffffffffffffffff1673ffffffffffffffffffffffffffffffffffffffff166301ffc9a7836040518263ffffffff1660e01b815260040161095091906133e5565b602060405180830381865afa15801561096d573d6000803e3d6000fd5b505050506040513d601f19601f82011682018060405250810190610991919061342c565b9050919050565b609760009054906101000a900473ffffffffffffffffffffffffffffffffffffffff1681565b6060603680546109cd90613488565b80601f01602080910402602001604051908101604052809291908181526020018280546109f990613488565b8015610a465780601f10610a1b57610100808354040283529160200191610a46565b820191906000526020600020905b815481529060010190602001808311610a2957829003601f168201915b5050505050905090565b60011515610a616000801b83611706565b151514610aa3576040517f08c379a0000000000000000000000000000000000000000000000000000000008152600401610a9a90613505565b60405180910390fd5b6000610aae3361146f565b905060008111610af3576040517f08c379a0000000000000000000000000000000000000000000000000000000008152600401610aea90613571565b60405180910390fd5b8067ffffffffffffffff1660ca60003373ffffffffffffffffffffffffffffffffffffffff1673ffffffffffffffffffffffffffffffffffffffff16815260200190815260200160002060000154610b4b91906135c0565b60ca60003373ffffffffffffffffffffffffffffffffffffffff1673ffffffffffffffffffffffffffffffffffffffff16815260200190815260200160002060000181905550610b9b3382611c8e565b610be8828260c960009054906101000a900473ffffffffffffffffffffffffffffffffffffffff1673ffffffffffffffffffffffffffffffffffffffff16611c9c9092919063ffffffff16565b5050565b600080610bf7611d22565b9050610c04818585611d2a565b600191505092915050565b60008060ca60008473ffffffffffffffffffffffffffffffffffffffff1673ffffffffffffffffffffffffffffffffffffffff1681526020019081526020016000206040518060a0016040529081600082015481526020016001820154815260200160028201548152602001600382015481526020016004820154815250509050600042905060c960189054906101000a900463ffffffff1663ffffffff16811015610cc057600092505050610e10565b6000670de0b6b3a76400008360600151610cd9876113ea565b610ce39190613616565b610ced919061369f565b9050826020015160c960189054906101000a900463ffffffff1663ffffffff16610d1791906135c0565b8210610dfa5781836040015160c960189054906101000a900463ffffffff1663ffffffff16610d4691906135c0565b1015610d5c57610d55856113ea565b9050610df9565b6000610d67866113ea565b90506000846020015160c960189054906101000a900463ffffffff1663ffffffff16610d9391906135c0565b84610d9e91906136d0565b9050600085602001518660400151610db691906136d0565b905060008660800151876080015184610dcf919061369f565b610dd99190613616565b9050818185610de89190613616565b610df2919061369f565b9450505050505b5b826000015181610e0a91906136d0565b93505050505b919050565b6000603554905090565b610e6e33308360c960009054906101000a900473ffffffffffffffffffffffffffffffffffffffff1673ffffffffffffffffffffffffffffffffffffffff16611ef3909392919063ffffffff16565b610e788282611f7c565b5050565b600080610e87611d22565b9050610e948582856120dc565b610e9f858585612168565b60019150509392505050565b6000609760009054906101000a900473ffffffffffffffffffffffffffffffffffffffff1673ffffffffffffffffffffffffffffffffffffffff1663248a9ca3836040518263ffffffff1660e01b8152600401610f08919061307d565b602060405180830381865afa158015610f25573d6000803e3d6000fd5b505050506040513d601f19601f82011682018060405250810190610f499190613719565b9050919050565b60006012905090565b600080610f64611d22565b9050610f85818585610f768589611b68565b610f8091906135c0565b611d2a565b600191505092915050565b610fa1610f9b611d22565b82611c8e565b50565b60008060019054906101000a900460ff16159050808015610fd55750600160008054906101000a900460ff1660ff16105b806110025750610fe4306123ea565b1580156110015750600160008054906101000a900460ff1660ff16145b5b611041576040517f08c379a0000000000000000000000000000000000000000000000000000000008152600401611038906137b8565b60405180910390fd5b60016000806101000a81548160ff021916908360ff160217905550801561107e576001600060016101000a81548160ff0219169083151502179055505b6110878361240d565b6111b58273ffffffffffffffffffffffffffffffffffffffff166306fdde036040518163ffffffff1660e01b8152600401600060405180830381865afa1580156110d5573d6000803e3d6000fd5b505050506040513d6000823e3d601f19601f820116820180604052508101906110fe91906138fe565b60405160200161110e91906139a9565b6040516020818303038152906040528373ffffffffffffffffffffffffffffffffffffffff166395d89b416040518163ffffffff1660e01b8152600401600060405180830381865afa158015611168573d6000803e3d6000fd5b505050506040513d6000823e3d601f19601f8201168201806040525081019061119191906138fe565b6040516020016111a191906139f5565b6040516020818303038152906040526124a0565b8160c960006101000a81548173ffffffffffffffffffffffffffffffffffffffff021916908373ffffffffffffffffffffffffffffffffffffffff160217905550636477df8060c960146101000a81548163ffffffff021916908363ffffffff16021790555060c960149054906101000a900463ffffffff1660c960186101000a81548163ffffffff021916908363ffffffff16021790555080156112a75760008060016101000a81548160ff0219169083151502179055507f7f26b83ff96e1f2b6a682f133852f6798a09c465da95921460cefb3847402498600160405161129e9190613a56565b60405180910390a15b505050565b60006112b733610c0f565b9050600081116112fc576040517f08c379a00000000000000000000000000000000000000000000000000000000081526004016112f390613abd565b60405180910390fd5b8060ca60003373ffffffffffffffffffffffffffffffffffffffff1673ffffffffffffffffffffffffffffffffffffffff1681526020019081526020016000206000015461134a91906135c0565b60ca60003373ffffffffffffffffffffffffffffffffffffffff1673ffffffffffffffffffffffffffffffffffffffff1681526020019081526020016000206000018190555061139a3382611c8e565b6113e7338260c960009054906101000a900473ffffffffffffffffffffffffffffffffffffffff1673ffffffffffffffffffffffffffffffffffffffff16611c9c9092919063ffffffff16565b50565b600060ca60008373ffffffffffffffffffffffffffffffffffffffff1673ffffffffffffffffffffffffffffffffffffffff168152602001908152602001600020600001546114388361146f565b61144291906135c0565b9050919050565b60c960009054906101000a900473ffffffffffffffffffffffffffffffffffffffff1681565b6000603360008373ffffffffffffffffffffffffffffffffffffffff1673ffffffffffffffffffffffffffffffffffffffff168152602001908152602001600020549050919050565b7fa49807205ce4d355092ef5a8a18f56e8913cf4a201fbe287825b095693c2177581565b6114ee826114e8611d22565b836120dc565b6114f88282611c8e565b5050565b6000801b61150a8133611706565b61154d5780336040517f37c2e343000000000000000000000000000000000000000000000000000000008152600401611544929190613aec565b60405180910390fd5b60c960009054906101000a900473ffffffffffffffffffffffffffffffffffffffff1673ffffffffffffffffffffffffffffffffffffffff168273ffffffffffffffffffffffffffffffffffffffff16036115dd576040517f08c379a00000000000000000000000000000000000000000000000000000000081526004016115d490613b61565b60405180910390fd5b600073ffffffffffffffffffffffffffffffffffffffff168273ffffffffffffffffffffffffffffffffffffffff160361165d573373ffffffffffffffffffffffffffffffffffffffff166108fc479081150290604051600060405180830381858888f19350505050158015611657573d6000803e3d6000fd5b50611702565b611701338373ffffffffffffffffffffffffffffffffffffffff166370a08231306040518263ffffffff1660e01b815260040161169a9190613b81565b602060405180830381865afa1580156116b7573d6000803e3d6000fd5b505050506040513d601f19601f820116820180604052508101906116db9190613bb1565b8473ffffffffffffffffffffffffffffffffffffffff16611c9c9092919063ffffffff16565b5b5050565b6000609760009054906101000a900473ffffffffffffffffffffffffffffffffffffffff1673ffffffffffffffffffffffffffffffffffffffff166391d1485484846040518363ffffffff1660e01b8152600401611765929190613aec565b602060405180830381865afa158015611782573d6000803e3d6000fd5b505050506040513d601f19601f820116820180604052508101906117a6919061342c565b905092915050565b7fa49807205ce4d355092ef5a8a18f56e8913cf4a201fbe287825b095693c217756117d98133611706565b61181c5780336040517f37c2e343000000000000000000000000000000000000000000000000000000008152600401611813929190613aec565b60405180910390fd5b8163ffffffff164263ffffffff16111561186b576040517f08c379a000000000000000000000000000000000000000000000000000000000815260040161186290613c50565b60405180910390fd5b60c960149054906101000a900463ffffffff1663ffffffff168263ffffffff1611156118cc576040517f08c379a00000000000000000000000000000000000000000000000000000000081526004016118c390613ce2565b60405180910390fd5b8160c960186101000a81548163ffffffff021916908363ffffffff1602179055505050565b7fa49807205ce4d355092ef5a8a18f56e8913cf4a201fbe287825b095693c2177561191c8133611706565b61195f5780336040517f37c2e343000000000000000000000000000000000000000000000000000000008152600401611956929190613aec565b60405180910390fd5b61196c87868686866124fd565b6119768787610e1f565b50505050505050565b7f0a7cc066f24e107ff77c42c8a1bdaf1a5f775fa4a74e45530aaf9c866368f65381565b6060603780546119b290613488565b80601f01602080910402602001604051908101604052809291908181526020018280546119de90613488565b8015611a2b5780601f10611a0057610100808354040283529160200191611a2b565b820191906000526020600020905b815481529060010190602001808311611a0e57829003601f168201915b5050505050905090565b6000611a403361146f565b9050611a4c33826127da565b600060ca60003373ffffffffffffffffffffffffffffffffffffffff1673ffffffffffffffffffffffffffffffffffffffff1681526020019081526020016000206000018190555050565b6000801b81565b60c960189054906101000a900463ffffffff1681565b600080611abf611d22565b90506000611acd8286611b68565b905083811015611b12576040517f08c379a0000000000000000000000000000000000000000000000000000000008152600401611b0990613d74565b60405180910390fd5b611b1f8286868403611d2a565b60019250505092915050565b60006040517f08c379a0000000000000000000000000000000000000000000000000000000008152600401611b5f90613e06565b60405180910390fd5b6000603460008473ffffffffffffffffffffffffffffffffffffffff1673ffffffffffffffffffffffffffffffffffffffff16815260200190815260200160002060008373ffffffffffffffffffffffffffffffffffffffff1673ffffffffffffffffffffffffffffffffffffffff16815260200190815260200160002054905092915050565b6000801b81565b60c960149054906101000a900463ffffffff1681565b600060ca60008373ffffffffffffffffffffffffffffffffffffffff1673ffffffffffffffffffffffffffffffffffffffff168152602001908152602001600020600001549050919050565b60ca6020528060005260406000206000915090508060000154908060010154908060020154908060030154908060040154905085565b611c9882826127da565b5050565b611d1d8363a9059cbb60e01b8484604051602401611cbb929190613e26565b604051602081830303815290604052907bffffffffffffffffffffffffffffffffffffffffffffffffffffffff19166020820180517bffffffffffffffffffffffffffffffffffffffffffffffffffffffff83818316178352505050506129b2565b505050565b600033905090565b600073ffffffffffffffffffffffffffffffffffffffff168373ffffffffffffffffffffffffffffffffffffffff1603611d99576040517f08c379a0000000000000000000000000000000000000000000000000000000008152600401611d9090613ec1565b60405180910390fd5b600073ffffffffffffffffffffffffffffffffffffffff168273ffffffffffffffffffffffffffffffffffffffff1603611e08576040517f08c379a0000000000000000000000000000000000000000000000000000000008152600401611dff90613f53565b60405180910390fd5b80603460008573ffffffffffffffffffffffffffffffffffffffff1673ffffffffffffffffffffffffffffffffffffffff16815260200190815260200160002060008473ffffffffffffffffffffffffffffffffffffffff1673ffffffffffffffffffffffffffffffffffffffff168152602001908152602001600020819055508173ffffffffffffffffffffffffffffffffffffffff168373ffffffffffffffffffffffffffffffffffffffff167f8c5be1e5ebec7d5bd14f71427d1e84f3dd0314c0f7b2291e5b200ac8c7c3b92583604051611ee69190612f9d565b60405180910390a3505050565b611f76846323b872dd60e01b858585604051602401611f1493929190613f73565b604051602081830303815290604052907bffffffffffffffffffffffffffffffffffffffffffffffffffffffff19166020820180517bffffffffffffffffffffffffffffffffffffffffffffffffffffffff83818316178352505050506129b2565b50505050565b600073ffffffffffffffffffffffffffffffffffffffff168273ffffffffffffffffffffffffffffffffffffffff1603611feb576040517f08c379a0000000000000000000000000000000000000000000000000000000008152600401611fe290613ff6565b60405180910390fd5b611ff760008383612a79565b806035600082825461200991906135c0565b9250508190555080603360008473ffffffffffffffffffffffffffffffffffffffff1673ffffffffffffffffffffffffffffffffffffffff168152602001908152602001600020600082825461205f91906135c0565b925050819055508173ffffffffffffffffffffffffffffffffffffffff16600073ffffffffffffffffffffffffffffffffffffffff167fddf252ad1be2c89b69c2b068fc378daa952ba7f163c4a11628f55a4df523b3ef836040516120c49190612f9d565b60405180910390a36120d860008383612a7e565b5050565b60006120e88484611b68565b90507fffffffffffffffffffffffffffffffffffffffffffffffffffffffffffffffff81146121625781811015612154576040517f08c379a000000000000000000000000000000000000000000000000000000000815260040161214b90614062565b60405180910390fd5b6121618484848403611d2a565b5b50505050565b600073ffffffffffffffffffffffffffffffffffffffff168373ffffffffffffffffffffffffffffffffffffffff16036121d7576040517f08c379a00000000000000000000000000000000000000000000000000000000081526004016121ce906140f4565b60405180910390fd5b600073ffffffffffffffffffffffffffffffffffffffff168273ffffffffffffffffffffffffffffffffffffffff1603612246576040517f08c379a000000000000000000000000000000000000000000000000000000000815260040161223d90614186565b60405180910390fd5b612251838383612a79565b6000603360008573ffffffffffffffffffffffffffffffffffffffff1673ffffffffffffffffffffffffffffffffffffffff168152602001908152602001600020549050818110156122d8576040517f08c379a00000000000000000000000000000000000000000000000000000000081526004016122cf90614218565b60405180910390fd5b818103603360008673ffffffffffffffffffffffffffffffffffffffff1673ffffffffffffffffffffffffffffffffffffffff1681526020019081526020016000208190555081603360008573ffffffffffffffffffffffffffffffffffffffff1673ffffffffffffffffffffffffffffffffffffffff168152602001908152602001600020600082825461236d91906135c0565b925050819055508273ffffffffffffffffffffffffffffffffffffffff168473ffffffffffffffffffffffffffffffffffffffff167fddf252ad1be2c89b69c2b068fc378daa952ba7f163c4a11628f55a4df523b3ef846040516123d19190612f9d565b60405180910390a36123e4848484612a7e565b50505050565b6000808273ffffffffffffffffffffffffffffffffffffffff163b119050919050565b600060019054906101000a900460ff1661245c576040517f08c379a0000000000000000000000000000000000000000000000000000000008152600401612453906142aa565b60405180910390fd5b80609760006101000a81548173ffffffffffffffffffffffffffffffffffffffff021916908373ffffffffffffffffffffffffffffffffffffffff16021790555050565b600060019054906101000a900460ff166124ef576040517f08c379a00000000000000000000000000000000000000000000000000000000081526004016124e6906142aa565b60405180910390fd5b6124f98282612a83565b5050565b83831115612540576040517f08c379a00000000000000000000000000000000000000000000000000000000081526004016125379061433c565b60405180910390fd5b670de0b6b3a764000082111561258b576040517f08c379a0000000000000000000000000000000000000000000000000000000008152600401612582906143ce565b60405180910390fd5b8360ca60008773ffffffffffffffffffffffffffffffffffffffff1673ffffffffffffffffffffffffffffffffffffffff16815260200190815260200160002060020154101561261d578360ca60008773ffffffffffffffffffffffffffffffffffffffff1673ffffffffffffffffffffffffffffffffffffffff168152602001908152602001600020600201819055505b8260ca60008773ffffffffffffffffffffffffffffffffffffffff1673ffffffffffffffffffffffffffffffffffffffff1681526020019081526020016000206001015410156126af578260ca60008773ffffffffffffffffffffffffffffffffffffffff1673ffffffffffffffffffffffffffffffffffffffff168152602001908152602001600020600101819055505b8160ca60008773ffffffffffffffffffffffffffffffffffffffff1673ffffffffffffffffffffffffffffffffffffffff168152602001908152602001600020600301541115612741578160ca60008773ffffffffffffffffffffffffffffffffffffffff1673ffffffffffffffffffffffffffffffffffffffff168152602001908152602001600020600301819055505b8060ca60008773ffffffffffffffffffffffffffffffffffffffff1673ffffffffffffffffffffffffffffffffffffffff1681526020019081526020016000206004015410156127d3578060ca60008773ffffffffffffffffffffffffffffffffffffffff1673ffffffffffffffffffffffffffffffffffffffff168152602001908152602001600020600401819055505b5050505050565b600073ffffffffffffffffffffffffffffffffffffffff168273ffffffffffffffffffffffffffffffffffffffff1603612849576040517f08c379a000000000000000000000000000000000000000000000000000000000815260040161284090614460565b60405180910390fd5b61285582600083612a79565b6000603360008473ffffffffffffffffffffffffffffffffffffffff1673ffffffffffffffffffffffffffffffffffffffff168152602001908152602001600020549050818110156128dc576040517f08c379a00000000000000000000000000000000000000000000000000000000081526004016128d3906144f2565b60405180910390fd5b818103603360008573ffffffffffffffffffffffffffffffffffffffff1673ffffffffffffffffffffffffffffffffffffffff16815260200190815260200160002081905550816035600082825461293491906136d0565b92505081905550600073ffffffffffffffffffffffffffffffffffffffff168373ffffffffffffffffffffffffffffffffffffffff167fddf252ad1be2c89b69c2b068fc378daa952ba7f163c4a11628f55a4df523b3ef846040516129999190612f9d565b60405180910390a36129ad83600084612a7e565b505050565b6000612a14826040518060400160405280602081526020017f5361666545524332303a206c6f772d6c6576656c2063616c6c206661696c65648152508573ffffffffffffffffffffffffffffffffffffffff16612af69092919063ffffffff16565b9050600081511115612a745780806020019051810190612a34919061342c565b612a73576040517f08c379a0000000000000000000000000000000000000000000000000000000008152600401612a6a90614584565b60405180910390fd5b5b505050565b505050565b505050565b600060019054906101000a900460ff16612ad2576040517f08c379a0000000000000000000000000000000000000000000000000000000008152600401612ac9906142aa565b60405180910390fd5b8160369081612ae19190614746565b508060379081612af19190614746565b505050565b6060612b058484600085612b0e565b90509392505050565b606082471015612b53576040517f08c379a0000000000000000000000000000000000000000000000000000000008152600401612b4a9061488a565b60405180910390fd5b612b5c856123ea565b612b9b576040517f08c379a0000000000000000000000000000000000000000000000000000000008152600401612b92906148f6565b60405180910390fd5b6000808673ffffffffffffffffffffffffffffffffffffffff168587604051612bc4919061495d565b60006040518083038185875af1925050503d8060008114612c01576040519150601f19603f3d011682016040523d82523d6000602084013e612c06565b606091505b5091509150612c16828286612c22565b92505050949350505050565b60608315612c3257829050612c82565b600083511115612c455782518084602001fd5b816040517f08c379a0000000000000000000000000000000000000000000000000000000008152600401612c799190612e8b565b60405180910390fd5b9392505050565b6000604051905090565b600080fd5b600080fd5b60007fffffffff0000000000000000000000000000000000000000000000000000000082169050919050565b612cd281612c9d565b8114612cdd57600080fd5b50565b600081359050612cef81612cc9565b92915050565b600060208284031215612d0b57612d0a612c93565b5b6000612d1984828501612ce0565b91505092915050565b60008115159050919050565b612d3781612d22565b82525050565b6000602082019050612d526000830184612d2e565b92915050565b600073ffffffffffffffffffffffffffffffffffffffff82169050919050565b6000819050919050565b6000612d9d612d98612d9384612d58565b612d78565b612d58565b9050919050565b6000612daf82612d82565b9050919050565b6000612dc182612da4565b9050919050565b612dd181612db6565b82525050565b6000602082019050612dec6000830184612dc8565b92915050565b600081519050919050565b600082825260208201905092915050565b60005b83811015612e2c578082015181840152602081019050612e11565b83811115612e3b576000848401525b50505050565b6000601f19601f8301169050919050565b6000612e5d82612df2565b612e678185612dfd565b9350612e77818560208601612e0e565b612e8081612e41565b840191505092915050565b60006020820190508181036000830152612ea58184612e52565b905092915050565b6000612eb882612d58565b9050919050565b612ec881612ead565b8114612ed357600080fd5b50565b600081359050612ee581612ebf565b92915050565b600060208284031215612f0157612f00612c93565b5b6000612f0f84828501612ed6565b91505092915050565b6000819050919050565b612f2b81612f18565b8114612f3657600080fd5b50565b600081359050612f4881612f22565b92915050565b60008060408385031215612f6557612f64612c93565b5b6000612f7385828601612ed6565b9250506020612f8485828601612f39565b9150509250929050565b612f9781612f18565b82525050565b6000602082019050612fb26000830184612f8e565b92915050565b600080600060608486031215612fd157612fd0612c93565b5b6000612fdf86828701612ed6565b9350506020612ff086828701612ed6565b925050604061300186828701612f39565b9150509250925092565b6000819050919050565b61301e8161300b565b811461302957600080fd5b50565b60008135905061303b81613015565b92915050565b60006020828403121561305757613056612c93565b5b60006130658482850161302c565b91505092915050565b6130778161300b565b82525050565b6000602082019050613092600083018461306e565b92915050565b600060ff82169050919050565b6130ae81613098565b82525050565b60006020820190506130c960008301846130a5565b92915050565b6000602082840312156130e5576130e4612c93565b5b60006130f384828501612f39565b91505092915050565b600061310782612ead565b9050919050565b613117816130fc565b811461312257600080fd5b50565b6000813590506131348161310e565b92915050565b6000806040838503121561315157613150612c93565b5b600061315f85828601612ed6565b925050602061317085828601613125565b9150509250929050565b600061318582612da4565b9050919050565b6131958161317a565b82525050565b60006020820190506131b0600083018461318c565b92915050565b6000602082840312156131cc576131cb612c93565b5b60006131da84828501613125565b91505092915050565b600080604083850312156131fa576131f9612c93565b5b60006132088582860161302c565b925050602061321985828601612ed6565b9150509250929050565b600063ffffffff82169050919050565b61323c81613223565b811461324757600080fd5b50565b60008135905061325981613233565b92915050565b60006020828403121561327557613274612c93565b5b60006132838482850161324a565b91505092915050565b60008060008060008060c087890312156132a9576132a8612c93565b5b60006132b789828a01612ed6565b96505060206132c889828a01612f39565b95505060406132d989828a01612f39565b94505060606132ea89828a01612f39565b93505060806132fb89828a01612f39565b92505060a061330c89828a01612f39565b9150509295509295509295565b61332281613223565b82525050565b600060208201905061333d6000830184613319565b92915050565b6000806040838503121561335a57613359612c93565b5b600061336885828601612ed6565b925050602061337985828601612ed6565b9150509250929050565b600060a0820190506133986000830188612f8e565b6133a56020830187612f8e565b6133b26040830186612f8e565b6133bf6060830185612f8e565b6133cc6080830184612f8e565b9695505050505050565b6133df81612c9d565b82525050565b60006020820190506133fa60008301846133d6565b92915050565b61340981612d22565b811461341457600080fd5b50565b60008151905061342681613400565b92915050565b60006020828403121561344257613441612c93565b5b600061345084828501613417565b91505092915050565b7f4e487b7100000000000000000000000000000000000000000000000000000000600052602260045260246000fd5b600060028204905060018216806134a057607f821691505b6020821081036134b3576134b2613459565b5b50919050565b7f696e76616c69642044414f206164647265737300000000000000000000000000600082015250565b60006134ef601383612dfd565b91506134fa826134b9565b602082019050919050565b6000602082019050818103600083015261351e816134e2565b9050919050565b7f6e6f7468696e6720746f20646f6e617465000000000000000000000000000000600082015250565b600061355b601183612dfd565b915061356682613525565b602082019050919050565b6000602082019050818103600083015261358a8161354e565b9050919050565b7f4e487b7100000000000000000000000000000000000000000000000000000000600052601160045260246000fd5b60006135cb82612f18565b91506135d683612f18565b9250827fffffffffffffffffffffffffffffffffffffffffffffffffffffffffffffffff0382111561360b5761360a613591565b5b828201905092915050565b600061362182612f18565b915061362c83612f18565b9250817fffffffffffffffffffffffffffffffffffffffffffffffffffffffffffffffff048311821515161561366557613664613591565b5b828202905092915050565b7f4e487b7100000000000000000000000000000000000000000000000000000000600052601260045260246000fd5b60006136aa82612f18565b91506136b583612f18565b9250826136c5576136c4613670565b5b828204905092915050565b60006136db82612f18565b91506136e683612f18565b9250828210156136f9576136f8613591565b5b828203905092915050565b60008151905061371381613015565b92915050565b60006020828403121561372f5761372e612c93565b5b600061373d84828501613704565b91505092915050565b7f496e697469616c697a61626c653a20636f6e747261637420697320616c72656160008201527f647920696e697469616c697a6564000000000000000000000000000000000000602082015250565b60006137a2602e83612dfd565b91506137ad82613746565b604082019050919050565b600060208201905081810360008301526137d181613795565b9050919050565b600080fd5b600080fd5b7f4e487b7100000000000000000000000000000000000000000000000000000000600052604160045260246000fd5b61381a82612e41565b810181811067ffffffffffffffff82111715613839576138386137e2565b5b80604052505050565b600061384c612c89565b90506138588282613811565b919050565b600067ffffffffffffffff821115613878576138776137e2565b5b61388182612e41565b9050602081019050919050565b60006138a161389c8461385d565b613842565b9050828152602081018484840111156138bd576138bc6137dd565b5b6138c8848285612e0e565b509392505050565b600082601f8301126138e5576138e46137d8565b5b81516138f584826020860161388e565b91505092915050565b60006020828403121561391457613913612c93565b5b600082015167ffffffffffffffff81111561393257613931612c98565b5b61393e848285016138d0565b91505092915050565b7f76657374656420657363726f7720000000000000000000000000000000000000815250565b600081905092915050565b600061398382612df2565b61398d818561396d565b935061399d818560208601612e0e565b80840191505092915050565b60006139b482613947565b600e820191506139c48284613978565b915081905092915050565b7f7665000000000000000000000000000000000000000000000000000000000000815250565b6000613a00826139cf565b600282019150613a108284613978565b915081905092915050565b6000819050919050565b6000613a40613a3b613a3684613a1b565b612d78565b613098565b9050919050565b613a5081613a25565b82525050565b6000602082019050613a6b6000830184613a47565b92915050565b7f43616e277420636c61696d203020746f6b656e73000000000000000000000000600082015250565b6000613aa7601483612dfd565b9150613ab282613a71565b602082019050919050565b60006020820190508181036000830152613ad681613a9a565b9050919050565b613ae681612ead565b82525050565b6000604082019050613b01600083018561306e565b613b0e6020830184613add565b9392505050565b7f4e6f20616c6c6f77656420746f20726573637565207468697320746f6b656e00600082015250565b6000613b4b601f83612dfd565b9150613b5682613b15565b602082019050919050565b60006020820190508181036000830152613b7a81613b3e565b9050919050565b6000602082019050613b966000830184613add565b92915050565b600081519050613bab81612f22565b92915050565b600060208284031215613bc757613bc6612c93565b5b6000613bd584828501613b9c565b91505092915050565b7f766545524332303a2054474520646174652063616e277420626520696e20746860008201527f6520706173740000000000000000000000000000000000000000000000000000602082015250565b6000613c3a602683612dfd565b9150613c4582613bde565b604082019050919050565b60006020820190508181036000830152613c6981613c2d565b9050919050565b7f766545524332303a206e6577205447452064617465206973206265796f6e642060008201527f6c696d6974000000000000000000000000000000000000000000000000000000602082015250565b6000613ccc602583612dfd565b9150613cd782613c70565b604082019050919050565b60006020820190508181036000830152613cfb81613cbf565b9050919050565b7f45524332303a2064656372656173656420616c6c6f77616e63652062656c6f7760008201527f207a65726f000000000000000000000000000000000000000000000000000000602082015250565b6000613d5e602583612dfd565b9150613d6982613d02565b604082019050919050565b60006020820190508181036000830152613d8d81613d51565b9050919050565b7f6e6f7420706f737369626c6520746f207472616e73666572207665737465642060008201527f746f6b656e000000000000000000000000000000000000000000000000000000602082015250565b6000613df0602583612dfd565b9150613dfb82613d94565b604082019050919050565b60006020820190508181036000830152613e1f81613de3565b9050919050565b6000604082019050613e3b6000830185613add565b613e486020830184612f8e565b9392505050565b7f45524332303a20617070726f76652066726f6d20746865207a65726f2061646460008201527f7265737300000000000000000000000000000000000000000000000000000000602082015250565b6000613eab602483612dfd565b9150613eb682613e4f565b604082019050919050565b60006020820190508181036000830152613eda81613e9e565b9050919050565b7f45524332303a20617070726f766520746f20746865207a65726f20616464726560008201527f7373000000000000000000000000000000000000000000000000000000000000602082015250565b6000613f3d602283612dfd565b9150613f4882613ee1565b604082019050919050565b60006020820190508181036000830152613f6c81613f30565b9050919050565b6000606082019050613f886000830186613add565b613f956020830185613add565b613fa26040830184612f8e565b949350505050565b7f45524332303a206d696e7420746f20746865207a65726f206164647265737300600082015250565b6000613fe0601f83612dfd565b9150613feb82613faa565b602082019050919050565b6000602082019050818103600083015261400f81613fd3565b9050919050565b7f45524332303a20696e73756666696369656e7420616c6c6f77616e6365000000600082015250565b600061404c601d83612dfd565b915061405782614016565b602082019050919050565b6000602082019050818103600083015261407b8161403f565b9050919050565b7f45524332303a207472616e736665722066726f6d20746865207a65726f20616460008201527f6472657373000000000000000000000000000000000000000000000000000000602082015250565b60006140de602583612dfd565b91506140e982614082565b604082019050919050565b6000602082019050818103600083015261410d816140d1565b9050919050565b7f45524332303a207472616e7366657220746f20746865207a65726f206164647260008201527f6573730000000000000000000000000000000000000000000000000000000000602082015250565b6000614170602383612dfd565b915061417b82614114565b604082019050919050565b6000602082019050818103600083015261419f81614163565b9050919050565b7f45524332303a207472616e7366657220616d6f756e742065786365656473206260008201527f616c616e63650000000000000000000000000000000000000000000000000000602082015250565b6000614202602683612dfd565b915061420d826141a6565b604082019050919050565b60006020820190508181036000830152614231816141f5565b9050919050565b7f496e697469616c697a61626c653a20636f6e7472616374206973206e6f74206960008201527f6e697469616c697a696e67000000000000000000000000000000000000000000602082015250565b6000614294602b83612dfd565b915061429f82614238565b604082019050919050565b600060208201905081810360008301526142c381614287565b9050919050565b7f636c69666654696d652073686f756c64206265206c657373207468656e20766560008201527f7374696e6754696d650000000000000000000000000000000000000000000000602082015250565b6000614326602983612dfd565b9150614331826142ca565b604082019050919050565b6000602082019050818103600083015261435581614319565b9050919050565b7f746765556e6c6f636b526174696f2073686f756c64206265206c65737320746860008201527f616e203100000000000000000000000000000000000000000000000000000000602082015250565b60006143b8602483612dfd565b91506143c38261435c565b604082019050919050565b600060208201905081810360008301526143e7816143ab565b9050919050565b7f45524332303a206275726e2066726f6d20746865207a65726f2061646472657360008201527f7300000000000000000000000000000000000000000000000000000000000000602082015250565b600061444a602183612dfd565b9150614455826143ee565b604082019050919050565b600060208201905081810360008301526144798161443d565b9050919050565b7f45524332303a206275726e20616d6f756e7420657863656564732062616c616e60008201527f6365000000000000000000000000000000000000000000000000000000000000602082015250565b60006144dc602283612dfd565b91506144e782614480565b604082019050919050565b6000602082019050818103600083015261450b816144cf565b9050919050565b7f5361666545524332303a204552433230206f7065726174696f6e20646964206e60008201527f6f74207375636365656400000000000000000000000000000000000000000000602082015250565b600061456e602a83612dfd565b915061457982614512565b604082019050919050565b6000602082019050818103600083015261459d81614561565b9050919050565b60008190508160005260206000209050919050565b60006020601f8301049050919050565b600082821b905092915050565b6000600883026146067fffffffffffffffffffffffffffffffffffffffffffffffffffffffffffffffff826145c9565b61461086836145c9565b95508019841693508086168417925050509392505050565b600061464361463e61463984612f18565b612d78565b612f18565b9050919050565b6000819050919050565b61465d83614628565b6146716146698261464a565b8484546145d6565b825550505050565b600090565b614686614679565b614691818484614654565b505050565b5b818110156146b5576146aa60008261467e565b600181019050614697565b5050565b601f8211156146fa576146cb816145a4565b6146d4846145b9565b810160208510156146e3578190505b6146f76146ef856145b9565b830182614696565b50505b505050565b600082821c905092915050565b600061471d600019846008026146ff565b1980831691505092915050565b6000614736838361470c565b9150826002028217905092915050565b61474f82612df2565b67ffffffffffffffff811115614768576147676137e2565b5b6147728254613488565b61477d8282856146b9565b600060209050601f8311600181146147b0576000841561479e578287015190505b6147a8858261472a565b865550614810565b601f1984166147be866145a4565b60005b828110156147e6578489015182556001820191506020850194506020810190506147c1565b8683101561480357848901516147ff601f89168261470c565b8355505b6001600288020188555050505b505050505050565b7f416464726573733a20696e73756666696369656e742062616c616e636520666f60008201527f722063616c6c0000000000000000000000000000000000000000000000000000602082015250565b6000614874602683612dfd565b915061487f82614818565b604082019050919050565b600060208201905081810360008301526148a381614867565b9050919050565b7f416464726573733a2063616c6c20746f206e6f6e2d636f6e7472616374000000600082015250565b60006148e0601d83612dfd565b91506148eb826148aa565b602082019050919050565b6000602082019050818103600083015261490f816148d3565b9050919050565b600081519050919050565b600081905092915050565b600061493782614916565b6149418185614921565b9350614951818560208601612e0e565b80840191505092915050565b6000614969828461492c565b91508190509291505056fea264697066735822122042d70fdbb3349aa8e025bd9fb8736f8a38c53657fe9b295b419ebb078c2aaa1564736f6c634300080f0033",
  "devdoc": {
    "kind": "dev",
    "methods": {
      "addBalance(address,uint256)": {
        "params": {
          "account": "Beneficiary of the vesting account.",
          "amount": "Amount of token to be send to user under vesting, which will be deducted from msg.sender."
        }
      },
      "allowance(address,address)": {
        "details": "See {IERC20-allowance}."
      },
      "approve(address,uint256)": {
        "details": "See {IERC20-approve}. NOTE: If `amount` is the maximum `uint256`, the allowance is not updated on `transferFrom`. This is semantically equivalent to an infinite approval. Requirements: - `spender` cannot be the zero address."
      },
      "availableToClaim(address)": {
        "returns": {
          "_0": "Returns amount of tokens the users can withdraw right now."
        }
      },
      "balanceOf(address)": {
        "details": "See {IERC20-balanceOf}."
      },
      "burn(uint256)": {
        "details": "Destroys `amount` tokens from the caller. See {ERC20-_burn}."
      },
      "burnFrom(address,uint256)": {
        "details": "Destroys `amount` tokens from `account`, deducting from the caller's allowance. See {ERC20-_burn} and {ERC20-allowance}. Requirements: - the caller must have allowance for ``accounts``'s tokens of at least `amount`."
      },
      "decimals()": {
        "details": "Returns the number of decimals used to get its user representation. For example, if `decimals` equals `2`, a balance of `505` tokens should be displayed to a user as `5.05` (`505 / 10 ** 2`). Tokens usually opt for a value of 18, imitating the relationship between Ether and Wei. This is the value {ERC20} uses, unless this function is overridden; NOTE: This information is only used for _display_ purposes: it in no way affects any of the arithmetic of the contract, including {IERC20-balanceOf} and {IERC20-transfer}."
      },
      "decreaseAllowance(address,uint256)": {
        "details": "Atomically decreases the allowance granted to `spender` by the caller. This is an alternative to {approve} that can be used as a mitigation for problems described in {IERC20-approve}. Emits an {Approval} event indicating the updated allowance. Requirements: - `spender` cannot be the zero address. - `spender` must have allowance for the caller of at least `subtractedValue`."
      },
      "increaseAllowance(address,uint256)": {
        "details": "Atomically increases the allowance granted to `spender` by the caller. This is an alternative to {approve} that can be used as a mitigation for problems described in {IERC20-approve}. Emits an {Approval} event indicating the updated allowance. Requirements: - `spender` cannot be the zero address."
      },
      "lockUnderVesting(address,uint256,uint256,uint256,uint256,uint256)": {
        "params": {
          "account": "Beneficiary of the vesting account.",
          "amount": "Amount of tokens to be send, which will be deducted from msg.sender.",
          "cliffSeconds": "Amount of seconds while tokens would be completely locked.",
          "tgeUnlockRatio1e18": "ratio/1e18  [0..1] that indicates how many tokens are going to be unlocked during TGE",
          "vestingFrequencySeconds": "how frequently token are going to be unlocked after the cliff.",
          "vestingSeconds": "Amount of seconds when linear vesting would be over. Starts from cliff."
        }
      },
      "name()": {
        "details": "Returns the name of the token."
      },
      "symbol()": {
        "details": "Returns the symbol of the token, usually a shorter version of the name."
      },
      "totalSupply()": {
        "details": "See {IERC20-totalSupply}."
      },
      "transferFrom(address,address,uint256)": {
        "details": "See {IERC20-transferFrom}. Emits an {Approval} event indicating the updated allowance. This is not required by the EIP. See the note at the beginning of {ERC20}. NOTE: Does not update the allowance if the current allowance is the maximum `uint256`. Requirements: - `from` and `to` cannot be the zero address. - `from` must have a balance of at least `amount`. - the caller must have allowance for ``from``'s tokens of at least `amount`."
      }
    },
    "stateVariables": {
      "__gap": {
        "details": "This empty reserved space is put in place to allow future versions to add new variables without shifting down storage in the inheritance chain. See https://docs.openzeppelin.com/contracts/4.x/upgradeable#storage_gaps"
      }
    },
    "version": 1
  },
  "userdoc": {
    "kind": "user",
    "methods": {
      "addBalance(address,uint256)": {
        "notice": "Adds more tokens to the existing (possibly zero) vesting account. Doesn't change vesting period!"
      },
      "availableToClaim(address)": {
        "notice": "Checks amount of vested tokens minus already withdrawn."
      },
      "claim()": {
        "notice": "User can claim their vested tokens."
      },
      "donateTokens(address)": {
        "notice": "User can donate tokens under vesting to DAO or other admin contract as us treasury."
      },
      "lockUnderVesting(address,uint256,uint256,uint256,uint256,uint256)": {
        "notice": "Creates an account with time-vesting for the user and withdraws these tokens from msg.sender."
      },
      "rescue(address)": {
        "notice": "The DAO can take away tokens accidentally sent to the contract."
      },
      "totalClaimed(address)": {
        "notice": "Total amount of token user had claimed."
      },
      "totalDeposited(address)": {
        "notice": "Total amount of token was deposited under vesting on behalf of the user."
      },
      "updateTgeTimestamp(uint32)": {
        "notice": "owner of the contract can set up TGE date within set limits."
      }
    },
    "version": 1
  },
  "storageLayout": {
    "storage": [
      {
        "astId": 497,
        "contract": "contracts/vested-escrow/VeERC20.sol:VeERC20",
        "label": "_initialized",
        "offset": 0,
        "slot": "0",
        "type": "t_uint8"
      },
      {
        "astId": 500,
        "contract": "contracts/vested-escrow/VeERC20.sol:VeERC20",
        "label": "_initializing",
        "offset": 1,
        "slot": "0",
        "type": "t_bool"
      },
      {
        "astId": 4310,
        "contract": "contracts/vested-escrow/VeERC20.sol:VeERC20",
        "label": "__gap",
        "offset": 0,
        "slot": "1",
        "type": "t_array(t_uint256)50_storage"
      },
      {
        "astId": 660,
        "contract": "contracts/vested-escrow/VeERC20.sol:VeERC20",
        "label": "_balances",
        "offset": 0,
        "slot": "51",
        "type": "t_mapping(t_address,t_uint256)"
      },
      {
        "astId": 666,
        "contract": "contracts/vested-escrow/VeERC20.sol:VeERC20",
        "label": "_allowances",
        "offset": 0,
        "slot": "52",
        "type": "t_mapping(t_address,t_mapping(t_address,t_uint256))"
      },
      {
        "astId": 668,
        "contract": "contracts/vested-escrow/VeERC20.sol:VeERC20",
        "label": "_totalSupply",
        "offset": 0,
        "slot": "53",
        "type": "t_uint256"
      },
      {
        "astId": 670,
        "contract": "contracts/vested-escrow/VeERC20.sol:VeERC20",
        "label": "_name",
        "offset": 0,
        "slot": "54",
        "type": "t_string_storage"
      },
      {
        "astId": 672,
        "contract": "contracts/vested-escrow/VeERC20.sol:VeERC20",
        "label": "_symbol",
        "offset": 0,
        "slot": "55",
        "type": "t_string_storage"
      },
      {
        "astId": 1251,
        "contract": "contracts/vested-escrow/VeERC20.sol:VeERC20",
        "label": "__gap",
        "offset": 0,
        "slot": "56",
        "type": "t_array(t_uint256)45_storage"
      },
      {
        "astId": 1393,
        "contract": "contracts/vested-escrow/VeERC20.sol:VeERC20",
        "label": "__gap",
        "offset": 0,
        "slot": "101",
        "type": "t_array(t_uint256)50_storage"
      },
      {
        "astId": 13374,
        "contract": "contracts/vested-escrow/VeERC20.sol:VeERC20",
        "label": "ACCESS_CONTROL_SINGLETON",
        "offset": 0,
        "slot": "151",
        "type": "t_contract(ISuAccessControl)14743"
      },
      {
        "astId": 13461,
        "contract": "contracts/vested-escrow/VeERC20.sol:VeERC20",
        "label": "__gap",
        "offset": 0,
        "slot": "152",
        "type": "t_array(t_uint256)49_storage"
      },
      {
        "astId": 15171,
        "contract": "contracts/vested-escrow/VeERC20.sol:VeERC20",
        "label": "LOCKED_TOKEN",
        "offset": 0,
        "slot": "201",
        "type": "t_contract(ERC20Upgradeable)1252"
      },
      {
        "astId": 15173,
        "contract": "contracts/vested-escrow/VeERC20.sol:VeERC20",
        "label": "TGE_MAX_TIMESTAMP",
        "offset": 20,
        "slot": "201",
        "type": "t_uint32"
      },
      {
        "astId": 15175,
        "contract": "contracts/vested-escrow/VeERC20.sol:VeERC20",
        "label": "tgeTimestamp",
        "offset": 24,
        "slot": "201",
        "type": "t_uint32"
      },
      {
        "astId": 15191,
        "contract": "contracts/vested-escrow/VeERC20.sol:VeERC20",
        "label": "vestingInfo",
        "offset": 0,
        "slot": "202",
        "type": "t_mapping(t_address,t_struct(VestingInfo)15186_storage)"
      },
      {
        "astId": 15810,
        "contract": "contracts/vested-escrow/VeERC20.sol:VeERC20",
        "label": "__gap",
        "offset": 0,
        "slot": "203",
        "type": "t_array(t_uint256)49_storage"
      }
    ],
    "types": {
      "t_address": {
        "encoding": "inplace",
        "label": "address",
        "numberOfBytes": "20"
      },
      "t_array(t_uint256)45_storage": {
        "base": "t_uint256",
        "encoding": "inplace",
        "label": "uint256[45]",
        "numberOfBytes": "1440"
      },
      "t_array(t_uint256)49_storage": {
        "base": "t_uint256",
        "encoding": "inplace",
        "label": "uint256[49]",
        "numberOfBytes": "1568"
      },
      "t_array(t_uint256)50_storage": {
        "base": "t_uint256",
        "encoding": "inplace",
        "label": "uint256[50]",
        "numberOfBytes": "1600"
      },
      "t_bool": {
        "encoding": "inplace",
        "label": "bool",
        "numberOfBytes": "1"
      },
      "t_contract(ERC20Upgradeable)1252": {
        "encoding": "inplace",
        "label": "contract ERC20Upgradeable",
        "numberOfBytes": "20"
      },
      "t_contract(ISuAccessControl)14743": {
        "encoding": "inplace",
        "label": "contract ISuAccessControl",
        "numberOfBytes": "20"
      },
      "t_mapping(t_address,t_mapping(t_address,t_uint256))": {
        "encoding": "mapping",
        "key": "t_address",
        "label": "mapping(address => mapping(address => uint256))",
        "numberOfBytes": "32",
        "value": "t_mapping(t_address,t_uint256)"
      },
      "t_mapping(t_address,t_struct(VestingInfo)15186_storage)": {
        "encoding": "mapping",
        "key": "t_address",
        "label": "mapping(address => struct VeERC20.VestingInfo)",
        "numberOfBytes": "32",
        "value": "t_struct(VestingInfo)15186_storage"
      },
      "t_mapping(t_address,t_uint256)": {
        "encoding": "mapping",
        "key": "t_address",
        "label": "mapping(address => uint256)",
        "numberOfBytes": "32",
        "value": "t_uint256"
      },
      "t_string_storage": {
        "encoding": "bytes",
        "label": "string",
        "numberOfBytes": "32"
      },
      "t_struct(VestingInfo)15186_storage": {
        "encoding": "inplace",
        "label": "struct VeERC20.VestingInfo",
        "members": [
          {
            "astId": 15177,
            "contract": "contracts/vested-escrow/VeERC20.sol:VeERC20",
            "label": "amountAlreadyWithdrawn",
            "offset": 0,
            "slot": "0",
            "type": "t_uint256"
          },
          {
            "astId": 15179,
            "contract": "contracts/vested-escrow/VeERC20.sol:VeERC20",
            "label": "cliffSeconds",
            "offset": 0,
            "slot": "1",
            "type": "t_uint256"
          },
          {
            "astId": 15181,
            "contract": "contracts/vested-escrow/VeERC20.sol:VeERC20",
            "label": "vestingSeconds",
            "offset": 0,
            "slot": "2",
            "type": "t_uint256"
          },
          {
            "astId": 15183,
            "contract": "contracts/vested-escrow/VeERC20.sol:VeERC20",
            "label": "tgeUnlockRatio1e18",
            "offset": 0,
            "slot": "3",
            "type": "t_uint256"
          },
          {
            "astId": 15185,
            "contract": "contracts/vested-escrow/VeERC20.sol:VeERC20",
            "label": "vestingFrequencySeconds",
            "offset": 0,
            "slot": "4",
            "type": "t_uint256"
          }
        ],
        "numberOfBytes": "160"
      },
      "t_uint256": {
        "encoding": "inplace",
        "label": "uint256",
        "numberOfBytes": "32"
      },
      "t_uint32": {
        "encoding": "inplace",
        "label": "uint32",
        "numberOfBytes": "4"
      },
      "t_uint8": {
        "encoding": "inplace",
        "label": "uint8",
        "numberOfBytes": "1"
      }
    }
  }
}