{
  "address": "0x69A6B54E9Ff6791Bbc9882b729ef864bbBf614A3",
  "abi": [
    {
      "inputs": [
        {
          "internalType": "bytes32",
          "name": "role",
          "type": "bytes32"
        },
        {
          "internalType": "address",
          "name": "msgSender",
          "type": "address"
        }
      ],
      "name": "OnlyRoleError",
      "type": "error"
    },
    {
      "anonymous": false,
      "inputs": [
        {
          "indexed": true,
          "internalType": "address",
          "name": "owner",
          "type": "address"
        },
        {
          "indexed": true,
          "internalType": "address",
          "name": "spender",
          "type": "address"
        },
        {
          "indexed": false,
          "internalType": "uint256",
          "name": "value",
          "type": "uint256"
        }
      ],
      "name": "Approval",
      "type": "event"
    },
    {
      "anonymous": false,
      "inputs": [
        {
          "indexed": false,
          "internalType": "uint8",
          "name": "version",
          "type": "uint8"
        }
      ],
      "name": "Initialized",
      "type": "event"
    },
    {
      "anonymous": false,
      "inputs": [
        {
          "indexed": true,
          "internalType": "bytes32",
          "name": "role",
          "type": "bytes32"
        },
        {
          "indexed": true,
          "internalType": "bytes32",
          "name": "previousAdminRole",
          "type": "bytes32"
        },
        {
          "indexed": true,
          "internalType": "bytes32",
          "name": "newAdminRole",
          "type": "bytes32"
        }
      ],
      "name": "RoleAdminChanged",
      "type": "event"
    },
    {
      "anonymous": false,
      "inputs": [
        {
          "indexed": true,
          "internalType": "bytes32",
          "name": "role",
          "type": "bytes32"
        },
        {
          "indexed": true,
          "internalType": "address",
          "name": "account",
          "type": "address"
        },
        {
          "indexed": true,
          "internalType": "address",
          "name": "sender",
          "type": "address"
        }
      ],
      "name": "RoleGranted",
      "type": "event"
    },
    {
      "anonymous": false,
      "inputs": [
        {
          "indexed": true,
          "internalType": "bytes32",
          "name": "role",
          "type": "bytes32"
        },
        {
          "indexed": true,
          "internalType": "address",
          "name": "account",
          "type": "address"
        },
        {
          "indexed": true,
          "internalType": "address",
          "name": "sender",
          "type": "address"
        }
      ],
      "name": "RoleRevoked",
      "type": "event"
    },
    {
      "anonymous": false,
      "inputs": [
        {
          "indexed": true,
          "internalType": "address",
          "name": "from",
          "type": "address"
        },
        {
          "indexed": true,
          "internalType": "address",
          "name": "to",
          "type": "address"
        },
        {
          "indexed": false,
          "internalType": "uint256",
          "name": "value",
          "type": "uint256"
        }
      ],
      "name": "Transfer",
      "type": "event"
    },
    {
      "inputs": [],
      "name": "ACCESS_CONTROL_SINGLETON",
      "outputs": [
        {
          "internalType": "contract IAccessControlUpgradeable",
          "name": "",
          "type": "address"
        }
      ],
      "stateMutability": "view",
      "type": "function"
    },
    {
      "inputs": [],
      "name": "ADMIN_ROLE",
      "outputs": [
        {
          "internalType": "bytes32",
          "name": "",
          "type": "bytes32"
        }
      ],
      "stateMutability": "view",
      "type": "function"
    },
    {
      "inputs": [],
      "name": "COMMUNITY_ADMIN_ROLE",
      "outputs": [
        {
          "internalType": "bytes32",
          "name": "",
          "type": "bytes32"
        }
      ],
      "stateMutability": "view",
      "type": "function"
    },
    {
      "inputs": [],
      "name": "DAO_ROLE",
      "outputs": [
        {
          "internalType": "bytes32",
          "name": "",
          "type": "bytes32"
        }
      ],
      "stateMutability": "view",
      "type": "function"
    },
    {
      "inputs": [],
      "name": "DEFAULT_ADMIN_ROLE",
      "outputs": [
        {
          "internalType": "bytes32",
          "name": "",
          "type": "bytes32"
        }
      ],
      "stateMutability": "view",
      "type": "function"
    },
    {
      "inputs": [],
      "name": "LOCKED_TOKEN",
      "outputs": [
        {
          "internalType": "contract ERC20Upgradeable",
          "name": "",
          "type": "address"
        }
      ],
      "stateMutability": "view",
      "type": "function"
    },
    {
      "inputs": [],
      "name": "TGE_MAX_TIMESTAMP",
      "outputs": [
        {
          "internalType": "uint32",
          "name": "",
          "type": "uint32"
        }
      ],
      "stateMutability": "view",
      "type": "function"
    },
    {
      "inputs": [
        {
          "internalType": "address",
          "name": "account",
          "type": "address"
        },
        {
          "internalType": "uint256",
          "name": "amount",
          "type": "uint256"
        }
      ],
      "name": "addBalance",
      "outputs": [],
      "stateMutability": "nonpayable",
      "type": "function"
    },
    {
      "inputs": [
        {
          "internalType": "address",
          "name": "owner",
          "type": "address"
        },
        {
          "internalType": "address",
          "name": "spender",
          "type": "address"
        }
      ],
      "name": "allowance",
      "outputs": [
        {
          "internalType": "uint256",
          "name": "",
          "type": "uint256"
        }
      ],
      "stateMutability": "view",
      "type": "function"
    },
    {
      "inputs": [
        {
          "internalType": "address",
          "name": "spender",
          "type": "address"
        },
        {
          "internalType": "uint256",
          "name": "amount",
          "type": "uint256"
        }
      ],
      "name": "approve",
      "outputs": [
        {
          "internalType": "bool",
          "name": "",
          "type": "bool"
        }
      ],
      "stateMutability": "nonpayable",
      "type": "function"
    },
    {
      "inputs": [
        {
          "internalType": "address",
          "name": "user",
          "type": "address"
        }
      ],
      "name": "availableToClaim",
      "outputs": [
        {
          "internalType": "uint256",
          "name": "",
          "type": "uint256"
        }
      ],
      "stateMutability": "view",
      "type": "function"
    },
    {
      "inputs": [
        {
          "internalType": "address",
          "name": "account",
          "type": "address"
        }
      ],
      "name": "balanceOf",
      "outputs": [
        {
          "internalType": "uint256",
          "name": "",
          "type": "uint256"
        }
      ],
      "stateMutability": "view",
      "type": "function"
    },
    {
      "inputs": [],
      "name": "claim",
      "outputs": [],
      "stateMutability": "nonpayable",
      "type": "function"
    },
    {
      "inputs": [],
      "name": "decimals",
      "outputs": [
        {
          "internalType": "uint8",
          "name": "",
          "type": "uint8"
        }
      ],
      "stateMutability": "view",
      "type": "function"
    },
    {
      "inputs": [
        {
          "internalType": "address",
          "name": "spender",
          "type": "address"
        },
        {
          "internalType": "uint256",
          "name": "subtractedValue",
          "type": "uint256"
        }
      ],
      "name": "decreaseAllowance",
      "outputs": [
        {
          "internalType": "bool",
          "name": "",
          "type": "bool"
        }
      ],
      "stateMutability": "nonpayable",
      "type": "function"
    },
    {
      "inputs": [
        {
          "internalType": "address",
          "name": "toAdmin",
          "type": "address"
        }
      ],
      "name": "donateTokens",
      "outputs": [],
      "stateMutability": "nonpayable",
      "type": "function"
    },
    {
      "inputs": [
        {
          "internalType": "bytes32",
          "name": "role",
          "type": "bytes32"
        }
      ],
      "name": "getRoleAdmin",
      "outputs": [
        {
          "internalType": "bytes32",
          "name": "",
          "type": "bytes32"
        }
      ],
      "stateMutability": "view",
      "type": "function"
    },
    {
      "inputs": [
        {
          "internalType": "bytes32",
          "name": "role",
          "type": "bytes32"
        },
        {
          "internalType": "address",
          "name": "account",
          "type": "address"
        }
      ],
      "name": "grantRole",
      "outputs": [],
      "stateMutability": "nonpayable",
      "type": "function"
    },
    {
      "inputs": [
        {
          "internalType": "bytes32",
          "name": "role",
          "type": "bytes32"
        },
        {
          "internalType": "address",
          "name": "account",
          "type": "address"
        }
      ],
      "name": "hasRole",
      "outputs": [
        {
          "internalType": "bool",
          "name": "",
          "type": "bool"
        }
      ],
      "stateMutability": "view",
      "type": "function"
    },
    {
      "inputs": [
        {
          "internalType": "address",
          "name": "spender",
          "type": "address"
        },
        {
          "internalType": "uint256",
          "name": "addedValue",
          "type": "uint256"
        }
      ],
      "name": "increaseAllowance",
      "outputs": [
        {
          "internalType": "bool",
          "name": "",
          "type": "bool"
        }
      ],
      "stateMutability": "nonpayable",
      "type": "function"
    },
    {
      "inputs": [
        {
          "internalType": "address",
          "name": "_accessControlSingleton",
          "type": "address"
        },
        {
          "internalType": "contract ERC20Upgradeable",
          "name": "_lockedToken",
          "type": "address"
        }
      ],
      "name": "initialize",
      "outputs": [],
      "stateMutability": "nonpayable",
      "type": "function"
    },
    {
      "inputs": [
        {
          "internalType": "address",
          "name": "account",
          "type": "address"
        },
        {
          "internalType": "uint256",
          "name": "amount",
          "type": "uint256"
        },
        {
          "internalType": "uint256",
          "name": "vestingSeconds",
          "type": "uint256"
        },
        {
          "internalType": "uint256",
          "name": "cliffSeconds",
          "type": "uint256"
        },
        {
          "internalType": "uint256",
          "name": "tgeUnlockRatio1e18",
          "type": "uint256"
        },
        {
          "internalType": "uint256",
          "name": "vestingFrequencySeconds",
          "type": "uint256"
        }
      ],
      "name": "lockUnderVesting",
      "outputs": [],
      "stateMutability": "nonpayable",
      "type": "function"
    },
    {
      "inputs": [],
      "name": "name",
      "outputs": [
        {
          "internalType": "string",
          "name": "",
          "type": "string"
        }
      ],
      "stateMutability": "view",
      "type": "function"
    },
    {
      "inputs": [
        {
          "internalType": "bytes32",
          "name": "role",
          "type": "bytes32"
        },
        {
          "internalType": "address",
          "name": "account",
          "type": "address"
        }
      ],
      "name": "renounceRole",
      "outputs": [],
      "stateMutability": "nonpayable",
      "type": "function"
    },
    {
      "inputs": [
        {
          "internalType": "contract ERC20Upgradeable",
          "name": "token",
          "type": "address"
        }
      ],
      "name": "rescue",
      "outputs": [],
      "stateMutability": "nonpayable",
      "type": "function"
    },
    {
      "inputs": [
        {
          "internalType": "bytes32",
          "name": "role",
          "type": "bytes32"
        },
        {
          "internalType": "address",
          "name": "account",
          "type": "address"
        }
      ],
      "name": "revokeRole",
      "outputs": [],
      "stateMutability": "nonpayable",
      "type": "function"
    },
    {
      "inputs": [
        {
          "internalType": "bytes4",
          "name": "interfaceId",
          "type": "bytes4"
        }
      ],
      "name": "supportsInterface",
      "outputs": [
        {
          "internalType": "bool",
          "name": "",
          "type": "bool"
        }
      ],
      "stateMutability": "view",
      "type": "function"
    },
    {
      "inputs": [],
      "name": "symbol",
      "outputs": [
        {
          "internalType": "string",
          "name": "",
          "type": "string"
        }
      ],
      "stateMutability": "view",
      "type": "function"
    },
    {
      "inputs": [],
      "name": "tgeTimestamp",
      "outputs": [
        {
          "internalType": "uint32",
          "name": "",
          "type": "uint32"
        }
      ],
      "stateMutability": "view",
      "type": "function"
    },
    {
      "inputs": [
        {
          "internalType": "address",
          "name": "user",
          "type": "address"
        }
      ],
      "name": "totalClaimed",
      "outputs": [
        {
          "internalType": "uint256",
          "name": "",
          "type": "uint256"
        }
      ],
      "stateMutability": "view",
      "type": "function"
    },
    {
      "inputs": [
        {
          "internalType": "address",
          "name": "user",
          "type": "address"
        }
      ],
      "name": "totalDeposited",
      "outputs": [
        {
          "internalType": "uint256",
          "name": "",
          "type": "uint256"
        }
      ],
      "stateMutability": "view",
      "type": "function"
    },
    {
      "inputs": [],
      "name": "totalSupply",
      "outputs": [
        {
          "internalType": "uint256",
          "name": "",
          "type": "uint256"
        }
      ],
      "stateMutability": "view",
      "type": "function"
    },
    {
      "inputs": [
        {
          "internalType": "address",
          "name": "to",
          "type": "address"
        },
        {
          "internalType": "uint256",
          "name": "amount",
          "type": "uint256"
        }
      ],
      "name": "transfer",
      "outputs": [
        {
          "internalType": "bool",
          "name": "",
          "type": "bool"
        }
      ],
      "stateMutability": "nonpayable",
      "type": "function"
    },
    {
      "inputs": [
        {
          "internalType": "address",
          "name": "from",
          "type": "address"
        },
        {
          "internalType": "address",
          "name": "to",
          "type": "address"
        },
        {
          "internalType": "uint256",
          "name": "amount",
          "type": "uint256"
        }
      ],
      "name": "transferFrom",
      "outputs": [
        {
          "internalType": "bool",
          "name": "",
          "type": "bool"
        }
      ],
      "stateMutability": "nonpayable",
      "type": "function"
    },
    {
      "inputs": [
        {
          "internalType": "address",
          "name": "newOwner",
          "type": "address"
        }
      ],
      "name": "transferOwnership",
      "outputs": [],
      "stateMutability": "nonpayable",
      "type": "function"
    },
    {
      "inputs": [
        {
          "internalType": "uint32",
          "name": "newTgeTimestamp",
          "type": "uint32"
        }
      ],
      "name": "updateTgeTimestamp",
      "outputs": [],
      "stateMutability": "nonpayable",
      "type": "function"
    },
    {
      "inputs": [
        {
          "internalType": "address",
          "name": "",
          "type": "address"
        }
      ],
      "name": "vestingInfo",
      "outputs": [
        {
          "internalType": "uint256",
          "name": "amountAlreadyWithdrawn",
          "type": "uint256"
        },
        {
          "internalType": "uint256",
          "name": "cliffSeconds",
          "type": "uint256"
        },
        {
          "internalType": "uint256",
          "name": "vestingSeconds",
          "type": "uint256"
        },
        {
          "internalType": "uint256",
          "name": "tgeUnlockRatio1e18",
          "type": "uint256"
        },
        {
          "internalType": "uint256",
          "name": "vestingFrequencySeconds",
          "type": "uint256"
        }
      ],
      "stateMutability": "view",
      "type": "function"
    },
    {
      "stateMutability": "payable",
      "type": "receive"
    }
  ],
  "numDeployments": 1,
  "solcInputHash": "174296126c5a96b07cac11a4ec4f4089",
  "bytecode": "0x608060405234801561001057600080fd5b50614ac6806100206000396000f3fe60806040526004361061021e5760003560e01c806370a0823111610123578063a4317ef4116100ab578063e9c265181161006f578063e9c265181461083c578063ea9e9a8114610867578063ef5d9ae814610892578063f2fde38b146108cf578063f78e633d146108f857610225565b8063a4317ef414610731578063a457c2d71461075c578063a9059cbb14610799578063d547741f146107d6578063dd62ed3e146107ff57610225565b8063925bf5d4116100f2578063925bf5d41461065e57806393a56edc1461068757806395367f89146106b057806395d89b41146106db578063a217fddf1461070657610225565b806370a082311461059057806375b238fc146105cd578063839006f2146105f857806391d148541461062157610225565b8063248a9ca3116101a6578063395093511161017557806339509351146104ab578063485cc955146104e85780634e71d92d146105115780635305548114610528578063692878621461056557610225565b8063248a9ca3146103f15780632f2ff15d1461042e578063313ce5671461045757806336568abe1461048257610225565b8063095ea7b3116101ed578063095ea7b3146102e65780630da451881461032357806318160ddd1461036057806321e5383a1461038b57806323b872dd146103b457610225565b806301ffc9a71461022a57806303ee9f221461026757806306fdde031461029257806308614362146102bd57610225565b3661022557005b600080fd5b34801561023657600080fd5b50610251600480360381019061024c9190612f20565b610939565b60405161025e9190612f68565b60405180910390f35b34801561027357600080fd5b5061027c6109a3565b6040516102899190613002565b60405180910390f35b34801561029e57600080fd5b506102a76109c9565b6040516102b491906130b6565b60405180910390f35b3480156102c957600080fd5b506102e460048036038101906102df9190613116565b610a5b565b005b3480156102f257600080fd5b5061030d60048036038101906103089190613179565b610c0a565b60405161031a9190612f68565b60405180910390f35b34801561032f57600080fd5b5061034a60048036038101906103459190613116565b610c2d565b60405161035791906131c8565b60405180910390f35b34801561036c57600080fd5b50610375610e33565b60405161038291906131c8565b60405180910390f35b34801561039757600080fd5b506103b260048036038101906103ad9190613179565b610e3d565b005b3480156103c057600080fd5b506103db60048036038101906103d691906131e3565b610e9a565b6040516103e89190612f68565b60405180910390f35b3480156103fd57600080fd5b506104186004803603810190610413919061326c565b610ec9565b60405161042591906132a8565b60405180910390f35b34801561043a57600080fd5b50610455600480360381019061045091906132c3565b610f6e565b005b34801561046357600080fd5b5061046c611058565b604051610479919061331f565b60405180910390f35b34801561048e57600080fd5b506104a960048036038101906104a491906132c3565b611061565b005b3480156104b757600080fd5b506104d260048036038101906104cd9190613179565b6110f4565b6040516104df9190612f68565b60405180910390f35b3480156104f457600080fd5b5061050f600480360381019061050a9190613378565b61112b565b005b34801561051d57600080fd5b50610526611433565b005b34801561053457600080fd5b5061054f600480360381019061054a9190613116565b611567565b60405161055c91906131c8565b60405180910390f35b34801561057157600080fd5b5061057a6115ea565b60405161058791906133d9565b60405180910390f35b34801561059c57600080fd5b506105b760048036038101906105b29190613116565b611610565b6040516105c491906131c8565b60405180910390f35b3480156105d957600080fd5b506105e261166f565b6040516105ef91906132a8565b60405180910390f35b34801561060457600080fd5b5061061f600480360381019061061a91906133f4565b611693565b005b34801561062d57600080fd5b50610648600480360381019061064391906132c3565b61189d565b6040516106559190612f68565b60405180910390f35b34801561066a57600080fd5b506106856004803603810190610680919061345d565b611945565b005b34801561069357600080fd5b506106ae60048036038101906106a9919061348a565b611a6b565b005b3480156106bc57600080fd5b506106c5611af9565b6040516106d291906132a8565b60405180910390f35b3480156106e757600080fd5b506106f0611b1d565b6040516106fd91906130b6565b60405180910390f35b34801561071257600080fd5b5061071b611baf565b60405161072891906132a8565b60405180910390f35b34801561073d57600080fd5b50610746611bb6565b6040516107539190613526565b60405180910390f35b34801561076857600080fd5b50610783600480360381019061077e9190613179565b611bcc565b6040516107909190612f68565b60405180910390f35b3480156107a557600080fd5b506107c060048036038101906107bb9190613179565b611c43565b6040516107cd9190612f68565b60405180910390f35b3480156107e257600080fd5b506107fd60048036038101906107f891906132c3565b611c66565b005b34801561080b57600080fd5b5061082660048036038101906108219190613541565b611d50565b60405161083391906131c8565b60405180910390f35b34801561084857600080fd5b50610851611dd7565b60405161085e91906132a8565b60405180910390f35b34801561087357600080fd5b5061087c611dde565b6040516108899190613526565b60405180910390f35b34801561089e57600080fd5b506108b960048036038101906108b49190613116565b611df4565b6040516108c691906131c8565b60405180910390f35b3480156108db57600080fd5b506108f660048036038101906108f19190613116565b611e40565b005b34801561090457600080fd5b5061091f600480360381019061091a9190613116565b612020565b604051610930959493929190613581565b60405180910390f35b60007f7965db0b000000000000000000000000000000000000000000000000000000007bffffffffffffffffffffffffffffffffffffffffffffffffffffffff1916827bffffffffffffffffffffffffffffffffffffffffffffffffffffffff1916149050919050565b606560009054906101000a900473ffffffffffffffffffffffffffffffffffffffff1681565b6060603680546109d890613603565b80601f0160208091040260200160405190810160405280929190818152602001828054610a0490613603565b8015610a515780601f10610a2657610100808354040283529160200191610a51565b820191906000526020600020905b815481529060010190602001808311610a3457829003601f168201915b5050505050905090565b60011515610a897fa49807205ce4d355092ef5a8a18f56e8913cf4a201fbe287825b095693c217758361189d565b151514610acb576040517f08c379a0000000000000000000000000000000000000000000000000000000008152600401610ac290613680565b60405180910390fd5b6000610ad633611610565b905060008111610b1b576040517f08c379a0000000000000000000000000000000000000000000000000000000008152600401610b12906136ec565b60405180910390fd5b8067ffffffffffffffff16609860003373ffffffffffffffffffffffffffffffffffffffff1673ffffffffffffffffffffffffffffffffffffffff16815260200190815260200160002060000154610b73919061373b565b609860003373ffffffffffffffffffffffffffffffffffffffff1673ffffffffffffffffffffffffffffffffffffffff16815260200190815260200160002060000181905550610c068282609760009054906101000a900473ffffffffffffffffffffffffffffffffffffffff1673ffffffffffffffffffffffffffffffffffffffff166120569092919063ffffffff16565b5050565b600080610c156120dc565b9050610c228185856120e4565b600191505092915050565b600080609860008473ffffffffffffffffffffffffffffffffffffffff1673ffffffffffffffffffffffffffffffffffffffff1681526020019081526020016000206040518060a00160405290816000820154815260200160018201548152602001600282015481526020016003820154815260200160048201548152505090506000429050609760189054906101000a900463ffffffff1663ffffffff16811015610cde57600092505050610e2e565b6000670de0b6b3a76400008360600151610cf7876122ad565b610d019190613791565b610d0b919061381a565b90508260200151609760189054906101000a900463ffffffff1663ffffffff16610d35919061373b565b8210610e1857818360400151609760189054906101000a900463ffffffff1663ffffffff16610d64919061373b565b1015610d7a57610d73856122ad565b9050610e17565b6000610d85866122ad565b905060008460200151609760189054906101000a900463ffffffff1663ffffffff16610db1919061373b565b84610dbc919061384b565b9050600085602001518660400151610dd4919061384b565b905060008660800151876080015184610ded919061381a565b610df79190613791565b9050818185610e069190613791565b610e10919061381a565b9450505050505b5b826000015181610e28919061384b565b93505050505b919050565b6000603554905090565b610e8c333083609760009054906101000a900473ffffffffffffffffffffffffffffffffffffffff1673ffffffffffffffffffffffffffffffffffffffff166122f6909392919063ffffffff16565b610e96828261237f565b5050565b600080610ea56120dc565b9050610eb28582856124df565b610ebd85858561256b565b60019150509392505050565b6000606560009054906101000a900473ffffffffffffffffffffffffffffffffffffffff1673ffffffffffffffffffffffffffffffffffffffff1663248a9ca3836040518263ffffffff1660e01b8152600401610f2691906132a8565b602060405180830381865afa158015610f43573d6000803e3d6000fd5b505050506040513d601f19601f82011682018060405250810190610f679190613894565b9050919050565b610f7782610ec9565b610f81813361189d565b610fc45780336040517f37c2e343000000000000000000000000000000000000000000000000000000008152600401610fbb9291906138d0565b60405180910390fd5b606560009054906101000a900473ffffffffffffffffffffffffffffffffffffffff1673ffffffffffffffffffffffffffffffffffffffff16632f2ff15d84846040518363ffffffff1660e01b81526004016110219291906138d0565b600060405180830381600087803b15801561103b57600080fd5b505af115801561104f573d6000803e3d6000fd5b50505050505050565b60006012905090565b606560009054906101000a900473ffffffffffffffffffffffffffffffffffffffff1673ffffffffffffffffffffffffffffffffffffffff166336568abe83836040518363ffffffff1660e01b81526004016110be9291906138d0565b600060405180830381600087803b1580156110d857600080fd5b505af11580156110ec573d6000803e3d6000fd5b505050505050565b6000806110ff6120dc565b90506111208185856111118589611d50565b61111b919061373b565b6120e4565b600191505092915050565b60008060019054906101000a900460ff1615905080801561115c5750600160008054906101000a900460ff1660ff16105b80611189575061116b306127ed565b1580156111885750600160008054906101000a900460ff1660ff16145b5b6111c8576040517f08c379a00000000000000000000000000000000000000000000000000000000081526004016111bf9061396b565b60405180910390fd5b60016000806101000a81548160ff021916908360ff1602179055508015611205576001600060016101000a81548160ff0219169083151502179055505b61120e83612810565b61133c8273ffffffffffffffffffffffffffffffffffffffff166306fdde036040518163ffffffff1660e01b8152600401600060405180830381865afa15801561125c573d6000803e3d6000fd5b505050506040513d6000823e3d601f19601f820116820180604052508101906112859190613ab1565b6040516020016112959190613b5c565b6040516020818303038152906040528373ffffffffffffffffffffffffffffffffffffffff166395d89b416040518163ffffffff1660e01b8152600401600060405180830381865afa1580156112ef573d6000803e3d6000fd5b505050506040513d6000823e3d601f19601f820116820180604052508101906113189190613ab1565b6040516020016113289190613ba8565b6040516020818303038152906040526128a3565b81609760006101000a81548173ffffffffffffffffffffffffffffffffffffffff021916908373ffffffffffffffffffffffffffffffffffffffff160217905550636477df80609760146101000a81548163ffffffff021916908363ffffffff160217905550609760149054906101000a900463ffffffff16609760186101000a81548163ffffffff021916908363ffffffff160217905550801561142e5760008060016101000a81548160ff0219169083151502179055507f7f26b83ff96e1f2b6a682f133852f6798a09c465da95921460cefb384740249860016040516114259190613c09565b60405180910390a15b505050565b600061143e33610c2d565b905060008111611483576040517f08c379a000000000000000000000000000000000000000000000000000000000815260040161147a90613c70565b60405180910390fd5b80609860003373ffffffffffffffffffffffffffffffffffffffff1673ffffffffffffffffffffffffffffffffffffffff168152602001908152602001600020600001546114d1919061373b565b609860003373ffffffffffffffffffffffffffffffffffffffff1673ffffffffffffffffffffffffffffffffffffffff168152602001908152602001600020600001819055506115643382609760009054906101000a900473ffffffffffffffffffffffffffffffffffffffff1673ffffffffffffffffffffffffffffffffffffffff166120569092919063ffffffff16565b50565b60003073ffffffffffffffffffffffffffffffffffffffff166370a08231836040518263ffffffff1660e01b81526004016115a29190613c90565b602060405180830381865afa1580156115bf573d6000803e3d6000fd5b505050506040513d601f19601f820116820180604052508101906115e39190613cc0565b9050919050565b609760009054906101000a900473ffffffffffffffffffffffffffffffffffffffff1681565b6000609860008373ffffffffffffffffffffffffffffffffffffffff1673ffffffffffffffffffffffffffffffffffffffff1681526020019081526020016000206000015461165e836122ad565b611668919061384b565b9050919050565b7fa49807205ce4d355092ef5a8a18f56e8913cf4a201fbe287825b095693c2177581565b6000801b6116a1813361189d565b6116e45780336040517f37c2e3430000000000000000000000000000000000000000000000000000000081526004016116db9291906138d0565b60405180910390fd5b609760009054906101000a900473ffffffffffffffffffffffffffffffffffffffff1673ffffffffffffffffffffffffffffffffffffffff168273ffffffffffffffffffffffffffffffffffffffff1603611774576040517f08c379a000000000000000000000000000000000000000000000000000000000815260040161176b90613d39565b60405180910390fd5b600073ffffffffffffffffffffffffffffffffffffffff168273ffffffffffffffffffffffffffffffffffffffff16036117f4573373ffffffffffffffffffffffffffffffffffffffff166108fc479081150290604051600060405180830381858888f193505050501580156117ee573d6000803e3d6000fd5b50611899565b611898338373ffffffffffffffffffffffffffffffffffffffff166370a08231306040518263ffffffff1660e01b81526004016118319190613c90565b602060405180830381865afa15801561184e573d6000803e3d6000fd5b505050506040513d601f19601f820116820180604052508101906118729190613cc0565b8473ffffffffffffffffffffffffffffffffffffffff166120569092919063ffffffff16565b5b5050565b6000606560009054906101000a900473ffffffffffffffffffffffffffffffffffffffff1673ffffffffffffffffffffffffffffffffffffffff166391d1485484846040518363ffffffff1660e01b81526004016118fc9291906138d0565b602060405180830381865afa158015611919573d6000803e3d6000fd5b505050506040513d601f19601f8201168201806040525081019061193d9190613d85565b905092915050565b6000801b611953813361189d565b6119965780336040517f37c2e34300000000000000000000000000000000000000000000000000000000815260040161198d9291906138d0565b60405180910390fd5b8163ffffffff164263ffffffff1611156119e5576040517f08c379a00000000000000000000000000000000000000000000000000000000081526004016119dc90613e24565b60405180910390fd5b609760149054906101000a900463ffffffff1663ffffffff168263ffffffff161115611a46576040517f08c379a0000000000000000000000000000000000000000000000000000000008152600401611a3d90613eb6565b60405180910390fd5b81609760186101000a81548163ffffffff021916908363ffffffff1602179055505050565b7fa49807205ce4d355092ef5a8a18f56e8913cf4a201fbe287825b095693c21775611a96813361189d565b611ad95780336040517f37c2e343000000000000000000000000000000000000000000000000000000008152600401611ad09291906138d0565b60405180910390fd5b611ae68786868686612900565b611af08787610e3d565b50505050505050565b7f0a7cc066f24e107ff77c42c8a1bdaf1a5f775fa4a74e45530aaf9c866368f65381565b606060378054611b2c90613603565b80601f0160208091040260200160405190810160405280929190818152602001828054611b5890613603565b8015611ba55780601f10611b7a57610100808354040283529160200191611ba5565b820191906000526020600020905b815481529060010190602001808311611b8857829003601f168201915b5050505050905090565b6000801b81565b609760189054906101000a900463ffffffff1681565b600080611bd76120dc565b90506000611be58286611d50565b905083811015611c2a576040517f08c379a0000000000000000000000000000000000000000000000000000000008152600401611c2190613f48565b60405180910390fd5b611c3782868684036120e4565b60019250505092915050565b600080611c4e6120dc565b9050611c5b81858561256b565b600191505092915050565b611c6f82610ec9565b611c79813361189d565b611cbc5780336040517f37c2e343000000000000000000000000000000000000000000000000000000008152600401611cb39291906138d0565b60405180910390fd5b606560009054906101000a900473ffffffffffffffffffffffffffffffffffffffff1673ffffffffffffffffffffffffffffffffffffffff1663d547741f84846040518363ffffffff1660e01b8152600401611d199291906138d0565b600060405180830381600087803b158015611d3357600080fd5b505af1158015611d47573d6000803e3d6000fd5b50505050505050565b6000603460008473ffffffffffffffffffffffffffffffffffffffff1673ffffffffffffffffffffffffffffffffffffffff16815260200190815260200160002060008373ffffffffffffffffffffffffffffffffffffffff1673ffffffffffffffffffffffffffffffffffffffff16815260200190815260200160002054905092915050565b6000801b81565b609760149054906101000a900463ffffffff1681565b6000609860008373ffffffffffffffffffffffffffffffffffffffff1673ffffffffffffffffffffffffffffffffffffffff168152602001908152602001600020600001549050919050565b600073ffffffffffffffffffffffffffffffffffffffff168173ffffffffffffffffffffffffffffffffffffffff1603611eaf576040517f08c379a0000000000000000000000000000000000000000000000000000000008152600401611ea690613fda565b60405180910390fd5b611ebc6000801b3361189d565b611efb576040517f08c379a0000000000000000000000000000000000000000000000000000000008152600401611ef290614046565b60405180910390fd5b611f257fa49807205ce4d355092ef5a8a18f56e8913cf4a201fbe287825b095693c217753361189d565b15611f7f57611f547fa49807205ce4d355092ef5a8a18f56e8913cf4a201fbe287825b095693c2177582610f6e565b611f7e7fa49807205ce4d355092ef5a8a18f56e8913cf4a201fbe287825b095693c2177533611c66565b5b611fa97f0a7cc066f24e107ff77c42c8a1bdaf1a5f775fa4a74e45530aaf9c866368f6533361189d565b1561200357611fd87f0a7cc066f24e107ff77c42c8a1bdaf1a5f775fa4a74e45530aaf9c866368f65382610f6e565b6120027f0a7cc066f24e107ff77c42c8a1bdaf1a5f775fa4a74e45530aaf9c866368f65333611c66565b5b6120106000801b82610f6e565b61201d6000801b33611c66565b50565b60986020528060005260406000206000915090508060000154908060010154908060020154908060030154908060040154905085565b6120d78363a9059cbb60e01b8484604051602401612075929190614066565b604051602081830303815290604052907bffffffffffffffffffffffffffffffffffffffffffffffffffffffff19166020820180517bffffffffffffffffffffffffffffffffffffffffffffffffffffffff8381831617835250505050612bdd565b505050565b600033905090565b600073ffffffffffffffffffffffffffffffffffffffff168373ffffffffffffffffffffffffffffffffffffffff1603612153576040517f08c379a000000000000000000000000000000000000000000000000000000000815260040161214a90614101565b60405180910390fd5b600073ffffffffffffffffffffffffffffffffffffffff168273ffffffffffffffffffffffffffffffffffffffff16036121c2576040517f08c379a00000000000000000000000000000000000000000000000000000000081526004016121b990614193565b60405180910390fd5b80603460008573ffffffffffffffffffffffffffffffffffffffff1673ffffffffffffffffffffffffffffffffffffffff16815260200190815260200160002060008473ffffffffffffffffffffffffffffffffffffffff1673ffffffffffffffffffffffffffffffffffffffff168152602001908152602001600020819055508173ffffffffffffffffffffffffffffffffffffffff168373ffffffffffffffffffffffffffffffffffffffff167f8c5be1e5ebec7d5bd14f71427d1e84f3dd0314c0f7b2291e5b200ac8c7c3b925836040516122a091906131c8565b60405180910390a3505050565b6000603360008373ffffffffffffffffffffffffffffffffffffffff1673ffffffffffffffffffffffffffffffffffffffff168152602001908152602001600020549050919050565b612379846323b872dd60e01b858585604051602401612317939291906141b3565b604051602081830303815290604052907bffffffffffffffffffffffffffffffffffffffffffffffffffffffff19166020820180517bffffffffffffffffffffffffffffffffffffffffffffffffffffffff8381831617835250505050612bdd565b50505050565b600073ffffffffffffffffffffffffffffffffffffffff168273ffffffffffffffffffffffffffffffffffffffff16036123ee576040517f08c379a00000000000000000000000000000000000000000000000000000000081526004016123e590614236565b60405180910390fd5b6123fa60008383612ca4565b806035600082825461240c919061373b565b9250508190555080603360008473ffffffffffffffffffffffffffffffffffffffff1673ffffffffffffffffffffffffffffffffffffffff1681526020019081526020016000206000828254612462919061373b565b925050819055508173ffffffffffffffffffffffffffffffffffffffff16600073ffffffffffffffffffffffffffffffffffffffff167fddf252ad1be2c89b69c2b068fc378daa952ba7f163c4a11628f55a4df523b3ef836040516124c791906131c8565b60405180910390a36124db60008383612ca9565b5050565b60006124eb8484611d50565b90507fffffffffffffffffffffffffffffffffffffffffffffffffffffffffffffffff81146125655781811015612557576040517f08c379a000000000000000000000000000000000000000000000000000000000815260040161254e906142a2565b60405180910390fd5b61256484848484036120e4565b5b50505050565b600073ffffffffffffffffffffffffffffffffffffffff168373ffffffffffffffffffffffffffffffffffffffff16036125da576040517f08c379a00000000000000000000000000000000000000000000000000000000081526004016125d190614334565b60405180910390fd5b600073ffffffffffffffffffffffffffffffffffffffff168273ffffffffffffffffffffffffffffffffffffffff1603612649576040517f08c379a0000000000000000000000000000000000000000000000000000000008152600401612640906143c6565b60405180910390fd5b612654838383612ca4565b6000603360008573ffffffffffffffffffffffffffffffffffffffff1673ffffffffffffffffffffffffffffffffffffffff168152602001908152602001600020549050818110156126db576040517f08c379a00000000000000000000000000000000000000000000000000000000081526004016126d290614458565b60405180910390fd5b818103603360008673ffffffffffffffffffffffffffffffffffffffff1673ffffffffffffffffffffffffffffffffffffffff1681526020019081526020016000208190555081603360008573ffffffffffffffffffffffffffffffffffffffff1673ffffffffffffffffffffffffffffffffffffffff1681526020019081526020016000206000828254612770919061373b565b925050819055508273ffffffffffffffffffffffffffffffffffffffff168473ffffffffffffffffffffffffffffffffffffffff167fddf252ad1be2c89b69c2b068fc378daa952ba7f163c4a11628f55a4df523b3ef846040516127d491906131c8565b60405180910390a36127e7848484612ca9565b50505050565b6000808273ffffffffffffffffffffffffffffffffffffffff163b119050919050565b600060019054906101000a900460ff1661285f576040517f08c379a0000000000000000000000000000000000000000000000000000000008152600401612856906144ea565b60405180910390fd5b80606560006101000a81548173ffffffffffffffffffffffffffffffffffffffff021916908373ffffffffffffffffffffffffffffffffffffffff16021790555050565b600060019054906101000a900460ff166128f2576040517f08c379a00000000000000000000000000000000000000000000000000000000081526004016128e9906144ea565b60405180910390fd5b6128fc8282612cae565b5050565b83831115612943576040517f08c379a000000000000000000000000000000000000000000000000000000000815260040161293a9061457c565b60405180910390fd5b670de0b6b3a764000082111561298e576040517f08c379a00000000000000000000000000000000000000000000000000000000081526004016129859061460e565b60405180910390fd5b83609860008773ffffffffffffffffffffffffffffffffffffffff1673ffffffffffffffffffffffffffffffffffffffff168152602001908152602001600020600201541015612a205783609860008773ffffffffffffffffffffffffffffffffffffffff1673ffffffffffffffffffffffffffffffffffffffff168152602001908152602001600020600201819055505b82609860008773ffffffffffffffffffffffffffffffffffffffff1673ffffffffffffffffffffffffffffffffffffffff168152602001908152602001600020600101541015612ab25782609860008773ffffffffffffffffffffffffffffffffffffffff1673ffffffffffffffffffffffffffffffffffffffff168152602001908152602001600020600101819055505b81609860008773ffffffffffffffffffffffffffffffffffffffff1673ffffffffffffffffffffffffffffffffffffffff168152602001908152602001600020600301541115612b445781609860008773ffffffffffffffffffffffffffffffffffffffff1673ffffffffffffffffffffffffffffffffffffffff168152602001908152602001600020600301819055505b80609860008773ffffffffffffffffffffffffffffffffffffffff1673ffffffffffffffffffffffffffffffffffffffff168152602001908152602001600020600401541015612bd65780609860008773ffffffffffffffffffffffffffffffffffffffff1673ffffffffffffffffffffffffffffffffffffffff168152602001908152602001600020600401819055505b5050505050565b6000612c3f826040518060400160405280602081526020017f5361666545524332303a206c6f772d6c6576656c2063616c6c206661696c65648152508573ffffffffffffffffffffffffffffffffffffffff16612d219092919063ffffffff16565b9050600081511115612c9f5780806020019051810190612c5f9190613d85565b612c9e576040517f08c379a0000000000000000000000000000000000000000000000000000000008152600401612c95906146a0565b60405180910390fd5b5b505050565b505050565b505050565b600060019054906101000a900460ff16612cfd576040517f08c379a0000000000000000000000000000000000000000000000000000000008152600401612cf4906144ea565b60405180910390fd5b8160369081612d0c9190614862565b508060379081612d1c9190614862565b505050565b6060612d308484600085612d39565b90509392505050565b606082471015612d7e576040517f08c379a0000000000000000000000000000000000000000000000000000000008152600401612d75906149a6565b60405180910390fd5b612d87856127ed565b612dc6576040517f08c379a0000000000000000000000000000000000000000000000000000000008152600401612dbd90614a12565b60405180910390fd5b6000808673ffffffffffffffffffffffffffffffffffffffff168587604051612def9190614a79565b60006040518083038185875af1925050503d8060008114612e2c576040519150601f19603f3d011682016040523d82523d6000602084013e612e31565b606091505b5091509150612e41828286612e4d565b92505050949350505050565b60608315612e5d57829050612ead565b600083511115612e705782518084602001fd5b816040517f08c379a0000000000000000000000000000000000000000000000000000000008152600401612ea491906130b6565b60405180910390fd5b9392505050565b6000604051905090565b600080fd5b600080fd5b60007fffffffff0000000000000000000000000000000000000000000000000000000082169050919050565b612efd81612ec8565b8114612f0857600080fd5b50565b600081359050612f1a81612ef4565b92915050565b600060208284031215612f3657612f35612ebe565b5b6000612f4484828501612f0b565b91505092915050565b60008115159050919050565b612f6281612f4d565b82525050565b6000602082019050612f7d6000830184612f59565b92915050565b600073ffffffffffffffffffffffffffffffffffffffff82169050919050565b6000819050919050565b6000612fc8612fc3612fbe84612f83565b612fa3565b612f83565b9050919050565b6000612fda82612fad565b9050919050565b6000612fec82612fcf565b9050919050565b612ffc81612fe1565b82525050565b60006020820190506130176000830184612ff3565b92915050565b600081519050919050565b600082825260208201905092915050565b60005b8381101561305757808201518184015260208101905061303c565b83811115613066576000848401525b50505050565b6000601f19601f8301169050919050565b60006130888261301d565b6130928185613028565b93506130a2818560208601613039565b6130ab8161306c565b840191505092915050565b600060208201905081810360008301526130d0818461307d565b905092915050565b60006130e382612f83565b9050919050565b6130f3816130d8565b81146130fe57600080fd5b50565b600081359050613110816130ea565b92915050565b60006020828403121561312c5761312b612ebe565b5b600061313a84828501613101565b91505092915050565b6000819050919050565b61315681613143565b811461316157600080fd5b50565b6000813590506131738161314d565b92915050565b600080604083850312156131905761318f612ebe565b5b600061319e85828601613101565b92505060206131af85828601613164565b9150509250929050565b6131c281613143565b82525050565b60006020820190506131dd60008301846131b9565b92915050565b6000806000606084860312156131fc576131fb612ebe565b5b600061320a86828701613101565b935050602061321b86828701613101565b925050604061322c86828701613164565b9150509250925092565b6000819050919050565b61324981613236565b811461325457600080fd5b50565b60008135905061326681613240565b92915050565b60006020828403121561328257613281612ebe565b5b600061329084828501613257565b91505092915050565b6132a281613236565b82525050565b60006020820190506132bd6000830184613299565b92915050565b600080604083850312156132da576132d9612ebe565b5b60006132e885828601613257565b92505060206132f985828601613101565b9150509250929050565b600060ff82169050919050565b61331981613303565b82525050565b60006020820190506133346000830184613310565b92915050565b6000613345826130d8565b9050919050565b6133558161333a565b811461336057600080fd5b50565b6000813590506133728161334c565b92915050565b6000806040838503121561338f5761338e612ebe565b5b600061339d85828601613101565b92505060206133ae85828601613363565b9150509250929050565b60006133c382612fcf565b9050919050565b6133d3816133b8565b82525050565b60006020820190506133ee60008301846133ca565b92915050565b60006020828403121561340a57613409612ebe565b5b600061341884828501613363565b91505092915050565b600063ffffffff82169050919050565b61343a81613421565b811461344557600080fd5b50565b60008135905061345781613431565b92915050565b60006020828403121561347357613472612ebe565b5b600061348184828501613448565b91505092915050565b60008060008060008060c087890312156134a7576134a6612ebe565b5b60006134b589828a01613101565b96505060206134c689828a01613164565b95505060406134d789828a01613164565b94505060606134e889828a01613164565b93505060806134f989828a01613164565b92505060a061350a89828a01613164565b9150509295509295509295565b61352081613421565b82525050565b600060208201905061353b6000830184613517565b92915050565b6000806040838503121561355857613557612ebe565b5b600061356685828601613101565b925050602061357785828601613101565b9150509250929050565b600060a08201905061359660008301886131b9565b6135a360208301876131b9565b6135b060408301866131b9565b6135bd60608301856131b9565b6135ca60808301846131b9565b9695505050505050565b7f4e487b7100000000000000000000000000000000000000000000000000000000600052602260045260246000fd5b6000600282049050600182168061361b57607f821691505b60208210810361362e5761362d6135d4565b5b50919050565b7f696e76616c69642061646d696e20616464726573730000000000000000000000600082015250565b600061366a601583613028565b915061367582613634565b602082019050919050565b600060208201905081810360008301526136998161365d565b9050919050565b7f6e6f7468696e6720746f20646f6e617465000000000000000000000000000000600082015250565b60006136d6601183613028565b91506136e1826136a0565b602082019050919050565b60006020820190508181036000830152613705816136c9565b9050919050565b7f4e487b7100000000000000000000000000000000000000000000000000000000600052601160045260246000fd5b600061374682613143565b915061375183613143565b9250827fffffffffffffffffffffffffffffffffffffffffffffffffffffffffffffffff038211156137865761378561370c565b5b828201905092915050565b600061379c82613143565b91506137a783613143565b9250817fffffffffffffffffffffffffffffffffffffffffffffffffffffffffffffffff04831182151516156137e0576137df61370c565b5b828202905092915050565b7f4e487b7100000000000000000000000000000000000000000000000000000000600052601260045260246000fd5b600061382582613143565b915061383083613143565b9250826138405761383f6137eb565b5b828204905092915050565b600061385682613143565b915061386183613143565b9250828210156138745761387361370c565b5b828203905092915050565b60008151905061388e81613240565b92915050565b6000602082840312156138aa576138a9612ebe565b5b60006138b88482850161387f565b91505092915050565b6138ca816130d8565b82525050565b60006040820190506138e56000830185613299565b6138f260208301846138c1565b9392505050565b7f496e697469616c697a61626c653a20636f6e747261637420697320616c72656160008201527f647920696e697469616c697a6564000000000000000000000000000000000000602082015250565b6000613955602e83613028565b9150613960826138f9565b604082019050919050565b6000602082019050818103600083015261398481613948565b9050919050565b600080fd5b600080fd5b7f4e487b7100000000000000000000000000000000000000000000000000000000600052604160045260246000fd5b6139cd8261306c565b810181811067ffffffffffffffff821117156139ec576139eb613995565b5b80604052505050565b60006139ff612eb4565b9050613a0b82826139c4565b919050565b600067ffffffffffffffff821115613a2b57613a2a613995565b5b613a348261306c565b9050602081019050919050565b6000613a54613a4f84613a10565b6139f5565b905082815260208101848484011115613a7057613a6f613990565b5b613a7b848285613039565b509392505050565b600082601f830112613a9857613a9761398b565b5b8151613aa8848260208601613a41565b91505092915050565b600060208284031215613ac757613ac6612ebe565b5b600082015167ffffffffffffffff811115613ae557613ae4612ec3565b5b613af184828501613a83565b91505092915050565b7f76657374656420657363726f7720000000000000000000000000000000000000815250565b600081905092915050565b6000613b368261301d565b613b408185613b20565b9350613b50818560208601613039565b80840191505092915050565b6000613b6782613afa565b600e82019150613b778284613b2b565b915081905092915050565b7f7665000000000000000000000000000000000000000000000000000000000000815250565b6000613bb382613b82565b600282019150613bc38284613b2b565b915081905092915050565b6000819050919050565b6000613bf3613bee613be984613bce565b612fa3565b613303565b9050919050565b613c0381613bd8565b82525050565b6000602082019050613c1e6000830184613bfa565b92915050565b7f43616e277420636c61696d203020746f6b656e73000000000000000000000000600082015250565b6000613c5a601483613028565b9150613c6582613c24565b602082019050919050565b60006020820190508181036000830152613c8981613c4d565b9050919050565b6000602082019050613ca560008301846138c1565b92915050565b600081519050613cba8161314d565b92915050565b600060208284031215613cd657613cd5612ebe565b5b6000613ce484828501613cab565b91505092915050565b7f4e6f20616c6c6f77656420746f20726573637565207468697320746f6b656e00600082015250565b6000613d23601f83613028565b9150613d2e82613ced565b602082019050919050565b60006020820190508181036000830152613d5281613d16565b9050919050565b613d6281612f4d565b8114613d6d57600080fd5b50565b600081519050613d7f81613d59565b92915050565b600060208284031215613d9b57613d9a612ebe565b5b6000613da984828501613d70565b91505092915050565b7f766545524332303a2054474520646174652063616e277420626520696e20746860008201527f6520706173740000000000000000000000000000000000000000000000000000602082015250565b6000613e0e602683613028565b9150613e1982613db2565b604082019050919050565b60006020820190508181036000830152613e3d81613e01565b9050919050565b7f766545524332303a206e6577205447452064617465206973206265796f6e642060008201527f6c696d6974000000000000000000000000000000000000000000000000000000602082015250565b6000613ea0602583613028565b9150613eab82613e44565b604082019050919050565b60006020820190508181036000830152613ecf81613e93565b9050919050565b7f45524332303a2064656372656173656420616c6c6f77616e63652062656c6f7760008201527f207a65726f000000000000000000000000000000000000000000000000000000602082015250565b6000613f32602583613028565b9150613f3d82613ed6565b604082019050919050565b60006020820190508181036000830152613f6181613f25565b9050919050565b7f4f776e61626c653a206e6577206f776e657220697320746865207a65726f206160008201527f6464726573730000000000000000000000000000000000000000000000000000602082015250565b6000613fc4602683613028565b9150613fcf82613f68565b604082019050919050565b60006020820190508181036000830152613ff381613fb7565b9050919050565b7f4f776e61626c653a2063616c6c6572206973206e6f7420746865206f776e6572600082015250565b6000614030602083613028565b915061403b82613ffa565b602082019050919050565b6000602082019050818103600083015261405f81614023565b9050919050565b600060408201905061407b60008301856138c1565b61408860208301846131b9565b9392505050565b7f45524332303a20617070726f76652066726f6d20746865207a65726f2061646460008201527f7265737300000000000000000000000000000000000000000000000000000000602082015250565b60006140eb602483613028565b91506140f68261408f565b604082019050919050565b6000602082019050818103600083015261411a816140de565b9050919050565b7f45524332303a20617070726f766520746f20746865207a65726f20616464726560008201527f7373000000000000000000000000000000000000000000000000000000000000602082015250565b600061417d602283613028565b915061418882614121565b604082019050919050565b600060208201905081810360008301526141ac81614170565b9050919050565b60006060820190506141c860008301866138c1565b6141d560208301856138c1565b6141e260408301846131b9565b949350505050565b7f45524332303a206d696e7420746f20746865207a65726f206164647265737300600082015250565b6000614220601f83613028565b915061422b826141ea565b602082019050919050565b6000602082019050818103600083015261424f81614213565b9050919050565b7f45524332303a20696e73756666696369656e7420616c6c6f77616e6365000000600082015250565b600061428c601d83613028565b915061429782614256565b602082019050919050565b600060208201905081810360008301526142bb8161427f565b9050919050565b7f45524332303a207472616e736665722066726f6d20746865207a65726f20616460008201527f6472657373000000000000000000000000000000000000000000000000000000602082015250565b600061431e602583613028565b9150614329826142c2565b604082019050919050565b6000602082019050818103600083015261434d81614311565b9050919050565b7f45524332303a207472616e7366657220746f20746865207a65726f206164647260008201527f6573730000000000000000000000000000000000000000000000000000000000602082015250565b60006143b0602383613028565b91506143bb82614354565b604082019050919050565b600060208201905081810360008301526143df816143a3565b9050919050565b7f45524332303a207472616e7366657220616d6f756e742065786365656473206260008201527f616c616e63650000000000000000000000000000000000000000000000000000602082015250565b6000614442602683613028565b915061444d826143e6565b604082019050919050565b6000602082019050818103600083015261447181614435565b9050919050565b7f496e697469616c697a61626c653a20636f6e7472616374206973206e6f74206960008201527f6e697469616c697a696e67000000000000000000000000000000000000000000602082015250565b60006144d4602b83613028565b91506144df82614478565b604082019050919050565b60006020820190508181036000830152614503816144c7565b9050919050565b7f636c69666654696d652073686f756c64206265206c657373207468656e20766560008201527f7374696e6754696d650000000000000000000000000000000000000000000000602082015250565b6000614566602983613028565b91506145718261450a565b604082019050919050565b6000602082019050818103600083015261459581614559565b9050919050565b7f746765556e6c6f636b526174696f2073686f756c64206265206c65737320746860008201527f616e203100000000000000000000000000000000000000000000000000000000602082015250565b60006145f8602483613028565b91506146038261459c565b604082019050919050565b60006020820190508181036000830152614627816145eb565b9050919050565b7f5361666545524332303a204552433230206f7065726174696f6e20646964206e60008201527f6f74207375636365656400000000000000000000000000000000000000000000602082015250565b600061468a602a83613028565b91506146958261462e565b604082019050919050565b600060208201905081810360008301526146b98161467d565b9050919050565b60008190508160005260206000209050919050565b60006020601f8301049050919050565b600082821b905092915050565b6000600883026147227fffffffffffffffffffffffffffffffffffffffffffffffffffffffffffffffff826146e5565b61472c86836146e5565b95508019841693508086168417925050509392505050565b600061475f61475a61475584613143565b612fa3565b613143565b9050919050565b6000819050919050565b61477983614744565b61478d61478582614766565b8484546146f2565b825550505050565b600090565b6147a2614795565b6147ad818484614770565b505050565b5b818110156147d1576147c660008261479a565b6001810190506147b3565b5050565b601f821115614816576147e7816146c0565b6147f0846146d5565b810160208510156147ff578190505b61481361480b856146d5565b8301826147b2565b50505b505050565b600082821c905092915050565b60006148396000198460080261481b565b1980831691505092915050565b60006148528383614828565b9150826002028217905092915050565b61486b8261301d565b67ffffffffffffffff81111561488457614883613995565b5b61488e8254613603565b6148998282856147d5565b600060209050601f8311600181146148cc57600084156148ba578287015190505b6148c48582614846565b86555061492c565b601f1984166148da866146c0565b60005b82811015614902578489015182556001820191506020850194506020810190506148dd565b8683101561491f578489015161491b601f891682614828565b8355505b6001600288020188555050505b505050505050565b7f416464726573733a20696e73756666696369656e742062616c616e636520666f60008201527f722063616c6c0000000000000000000000000000000000000000000000000000602082015250565b6000614990602683613028565b915061499b82614934565b604082019050919050565b600060208201905081810360008301526149bf81614983565b9050919050565b7f416464726573733a2063616c6c20746f206e6f6e2d636f6e7472616374000000600082015250565b60006149fc601d83613028565b9150614a07826149c6565b602082019050919050565b60006020820190508181036000830152614a2b816149ef565b9050919050565b600081519050919050565b600081905092915050565b6000614a5382614a32565b614a5d8185614a3d565b9350614a6d818560208601613039565b80840191505092915050565b6000614a858284614a48565b91508190509291505056fea2646970667358221220893a16c2f0499018c970d14cacbf24b28a1d667de67eb748b32b9f6cdf68015c64736f6c634300080f0033",
  "devdoc": {
    "kind": "dev",
    "methods": {
      "addBalance(address,uint256)": {
        "params": {
          "account": "Beneficiary of the vesting account.",
          "amount": "Amount of token to be send to user under vesting, which will be deducted from msg.sender."
        }
      },
      "allowance(address,address)": {
        "details": "See {IERC20-allowance}."
      },
      "approve(address,uint256)": {
        "details": "See {IERC20-approve}. NOTE: If `amount` is the maximum `uint256`, the allowance is not updated on `transferFrom`. This is semantically equivalent to an infinite approval. Requirements: - `spender` cannot be the zero address."
      },
      "availableToClaim(address)": {
        "returns": {
          "_0": "Returns amount of tokens the users can withdraw right now."
        }
      },
      "balanceOf(address)": {
        "details": "See {IERC20-balanceOf}."
      },
      "decimals()": {
        "details": "Returns the number of decimals used to get its user representation. For example, if `decimals` equals `2`, a balance of `505` tokens should be displayed to a user as `5.05` (`505 / 10 ** 2`). Tokens usually opt for a value of 18, imitating the relationship between Ether and Wei. This is the value {ERC20} uses, unless this function is overridden; NOTE: This information is only used for _display_ purposes: it in no way affects any of the arithmetic of the contract, including {IERC20-balanceOf} and {IERC20-transfer}."
      },
      "decreaseAllowance(address,uint256)": {
        "details": "Atomically decreases the allowance granted to `spender` by the caller. This is an alternative to {approve} that can be used as a mitigation for problems described in {IERC20-approve}. Emits an {Approval} event indicating the updated allowance. Requirements: - `spender` cannot be the zero address. - `spender` must have allowance for the caller of at least `subtractedValue`."
      },
      "getRoleAdmin(bytes32)": {
        "details": "Returns the admin role that controls `role`. See {grantRole} and {revokeRole}. To change a role's admin, use {AccessControl-_setRoleAdmin}."
      },
      "grantRole(bytes32,address)": {
        "details": "Grants `role` to `account`. If `account` had not been already granted `role`, emits a {RoleGranted} event. Requirements: - the caller must have ``role``'s admin role."
      },
      "hasRole(bytes32,address)": {
        "details": "Returns `true` if `account` has been granted `role`."
      },
      "increaseAllowance(address,uint256)": {
        "details": "Atomically increases the allowance granted to `spender` by the caller. This is an alternative to {approve} that can be used as a mitigation for problems described in {IERC20-approve}. Emits an {Approval} event indicating the updated allowance. Requirements: - `spender` cannot be the zero address."
      },
      "lockUnderVesting(address,uint256,uint256,uint256,uint256,uint256)": {
        "params": {
          "account": "Beneficiary of the vesting account.",
          "amount": "Amount of tokens to be send, which will be deducted from msg.sender.",
          "cliffSeconds": "Amount of seconds while tokens would be completely locked.",
          "tgeUnlockRatio1e18": "ratio/1e18  [0..1] that indicates how many tokens are going to be unlocked during TGE",
          "vestingFrequencySeconds": "how frequently token are going to be unlocked after the cliff.",
          "vestingSeconds": "Amount of seconds when linear vesting would be over. Starts from cliff."
        }
      },
      "name()": {
        "details": "Returns the name of the token."
      },
      "renounceRole(bytes32,address)": {
        "details": "Revokes `role` from the calling account. Roles are often managed via {grantRole} and {revokeRole}: this function's purpose is to provide a mechanism for accounts to lose their privileges if they are compromised (such as when a trusted device is misplaced). If the calling account had been granted `role`, emits a {RoleRevoked} event. Requirements: - the caller must be `account`."
      },
      "revokeRole(bytes32,address)": {
        "details": "Revokes `role` from `account`. If `account` had been granted `role`, emits a {RoleRevoked} event. Requirements: - the caller must have ``role``'s admin role."
      },
      "supportsInterface(bytes4)": {
        "details": "Returns true if this contract implements the interface defined by `interfaceId`. See the corresponding https://eips.ethereum.org/EIPS/eip-165#how-interfaces-are-identified[EIP section] to learn more about how these ids are created. This function call must use less than 30 000 gas."
      },
      "symbol()": {
        "details": "Returns the symbol of the token, usually a shorter version of the name."
      },
      "totalSupply()": {
        "details": "See {IERC20-totalSupply}."
      },
      "transfer(address,uint256)": {
        "details": "See {IERC20-transfer}. Requirements: - `to` cannot be the zero address. - the caller must have a balance of at least `amount`."
      },
      "transferFrom(address,address,uint256)": {
        "details": "See {IERC20-transferFrom}. Emits an {Approval} event indicating the updated allowance. This is not required by the EIP. See the note at the beginning of {ERC20}. NOTE: Does not update the allowance if the current allowance is the maximum `uint256`. Requirements: - `from` and `to` cannot be the zero address. - `from` must have a balance of at least `amount`. - the caller must have allowance for ``from``'s tokens of at least `amount`."
      },
      "transferOwnership(address)": {
        "details": "Transfers ownership of the contract to a new account (`newOwner`). Can only be called by the current owner."
      }
    },
    "stateVariables": {
      "__gap": {
        "details": "This empty reserved space is put in place to allow future versions to add new variables without shifting down storage in the inheritance chain. See https://docs.openzeppelin.com/contracts/4.x/upgradeable#storage_gaps"
      }
    },
    "version": 1
  },
  "userdoc": {
    "kind": "user",
    "methods": {
      "addBalance(address,uint256)": {
        "notice": "Adds more tokens to the existing (possibly zero) vesting account. Doesn't change vesting period!"
      },
      "availableToClaim(address)": {
        "notice": "Checks amount of vested tokens minus already withdrawn."
      },
      "claim()": {
        "notice": "User can claim their vested tokens."
      },
      "donateTokens(address)": {
        "notice": "User can donate tokens under vesting to DAO or other admin contract as us treasury."
      },
      "lockUnderVesting(address,uint256,uint256,uint256,uint256,uint256)": {
        "notice": "Creates an account with time-vesting for the user and withdraws these tokens from msg.sender."
      },
      "rescue(address)": {
        "notice": "The owner of the contact can take away tokens accidentally sent to the contract."
      },
      "totalClaimed(address)": {
        "notice": "Total amount of token user had claimed."
      },
      "totalDeposited(address)": {
        "notice": "Total amount of token was deposited under vesting on behalf of the user."
      },
      "updateTgeTimestamp(uint32)": {
        "notice": "owner of the contract can set up TGE date within set limits."
      }
    },
    "version": 1
  },
  "storageLayout": {
    "storage": [
      {
        "astId": 157,
        "contract": "contracts/vested-escrow/veERC20.sol:veERC20",
        "label": "_initialized",
        "offset": 0,
        "slot": "0",
        "type": "t_uint8"
      },
      {
        "astId": 160,
        "contract": "contracts/vested-escrow/veERC20.sol:veERC20",
        "label": "_initializing",
        "offset": 1,
        "slot": "0",
        "type": "t_bool"
      },
      {
        "astId": 2528,
        "contract": "contracts/vested-escrow/veERC20.sol:veERC20",
        "label": "__gap",
        "offset": 0,
        "slot": "1",
        "type": "t_array(t_uint256)50_storage"
      },
      {
        "astId": 320,
        "contract": "contracts/vested-escrow/veERC20.sol:veERC20",
        "label": "_balances",
        "offset": 0,
        "slot": "51",
        "type": "t_mapping(t_address,t_uint256)"
      },
      {
        "astId": 326,
        "contract": "contracts/vested-escrow/veERC20.sol:veERC20",
        "label": "_allowances",
        "offset": 0,
        "slot": "52",
        "type": "t_mapping(t_address,t_mapping(t_address,t_uint256))"
      },
      {
        "astId": 328,
        "contract": "contracts/vested-escrow/veERC20.sol:veERC20",
        "label": "_totalSupply",
        "offset": 0,
        "slot": "53",
        "type": "t_uint256"
      },
      {
        "astId": 330,
        "contract": "contracts/vested-escrow/veERC20.sol:veERC20",
        "label": "_name",
        "offset": 0,
        "slot": "54",
        "type": "t_string_storage"
      },
      {
        "astId": 332,
        "contract": "contracts/vested-escrow/veERC20.sol:veERC20",
        "label": "_symbol",
        "offset": 0,
        "slot": "55",
        "type": "t_string_storage"
      },
      {
        "astId": 911,
        "contract": "contracts/vested-escrow/veERC20.sol:veERC20",
        "label": "__gap",
        "offset": 0,
        "slot": "56",
        "type": "t_array(t_uint256)45_storage"
      },
      {
        "astId": 8840,
        "contract": "contracts/vested-escrow/veERC20.sol:veERC20",
        "label": "ACCESS_CONTROL_SINGLETON",
        "offset": 0,
        "slot": "101",
        "type": "t_contract(IAccessControlUpgradeable)72"
      },
      {
        "astId": 9063,
        "contract": "contracts/vested-escrow/veERC20.sol:veERC20",
        "label": "__gap",
        "offset": 0,
        "slot": "102",
        "type": "t_array(t_uint256)49_storage"
      },
      {
        "astId": 10231,
        "contract": "contracts/vested-escrow/veERC20.sol:veERC20",
        "label": "LOCKED_TOKEN",
        "offset": 0,
        "slot": "151",
        "type": "t_contract(ERC20Upgradeable)912"
      },
      {
        "astId": 10233,
        "contract": "contracts/vested-escrow/veERC20.sol:veERC20",
        "label": "TGE_MAX_TIMESTAMP",
        "offset": 20,
        "slot": "151",
        "type": "t_uint32"
      },
      {
        "astId": 10235,
        "contract": "contracts/vested-escrow/veERC20.sol:veERC20",
        "label": "tgeTimestamp",
        "offset": 24,
        "slot": "151",
        "type": "t_uint32"
      },
      {
        "astId": 10251,
        "contract": "contracts/vested-escrow/veERC20.sol:veERC20",
        "label": "vestingInfo",
        "offset": 0,
        "slot": "152",
        "type": "t_mapping(t_address,t_struct(VestingInfo)10246_storage)"
      },
      {
        "astId": 10817,
        "contract": "contracts/vested-escrow/veERC20.sol:veERC20",
        "label": "__gap",
        "offset": 0,
        "slot": "153",
        "type": "t_array(t_uint256)49_storage"
      }
    ],
    "types": {
      "t_address": {
        "encoding": "inplace",
        "label": "address",
        "numberOfBytes": "20"
      },
      "t_array(t_uint256)45_storage": {
        "base": "t_uint256",
        "encoding": "inplace",
        "label": "uint256[45]",
        "numberOfBytes": "1440"
      },
      "t_array(t_uint256)49_storage": {
        "base": "t_uint256",
        "encoding": "inplace",
        "label": "uint256[49]",
        "numberOfBytes": "1568"
      },
      "t_array(t_uint256)50_storage": {
        "base": "t_uint256",
        "encoding": "inplace",
        "label": "uint256[50]",
        "numberOfBytes": "1600"
      },
      "t_bool": {
        "encoding": "inplace",
        "label": "bool",
        "numberOfBytes": "1"
      },
      "t_contract(ERC20Upgradeable)912": {
        "encoding": "inplace",
        "label": "contract ERC20Upgradeable",
        "numberOfBytes": "20"
      },
      "t_contract(IAccessControlUpgradeable)72": {
        "encoding": "inplace",
        "label": "contract IAccessControlUpgradeable",
        "numberOfBytes": "20"
      },
      "t_mapping(t_address,t_mapping(t_address,t_uint256))": {
        "encoding": "mapping",
        "key": "t_address",
        "label": "mapping(address => mapping(address => uint256))",
        "numberOfBytes": "32",
        "value": "t_mapping(t_address,t_uint256)"
      },
      "t_mapping(t_address,t_struct(VestingInfo)10246_storage)": {
        "encoding": "mapping",
        "key": "t_address",
        "label": "mapping(address => struct veERC20.VestingInfo)",
        "numberOfBytes": "32",
        "value": "t_struct(VestingInfo)10246_storage"
      },
      "t_mapping(t_address,t_uint256)": {
        "encoding": "mapping",
        "key": "t_address",
        "label": "mapping(address => uint256)",
        "numberOfBytes": "32",
        "value": "t_uint256"
      },
      "t_string_storage": {
        "encoding": "bytes",
        "label": "string",
        "numberOfBytes": "32"
      },
      "t_struct(VestingInfo)10246_storage": {
        "encoding": "inplace",
        "label": "struct veERC20.VestingInfo",
        "members": [
          {
            "astId": 10237,
            "contract": "contracts/vested-escrow/veERC20.sol:veERC20",
            "label": "amountAlreadyWithdrawn",
            "offset": 0,
            "slot": "0",
            "type": "t_uint256"
          },
          {
            "astId": 10239,
            "contract": "contracts/vested-escrow/veERC20.sol:veERC20",
            "label": "cliffSeconds",
            "offset": 0,
            "slot": "1",
            "type": "t_uint256"
          },
          {
            "astId": 10241,
            "contract": "contracts/vested-escrow/veERC20.sol:veERC20",
            "label": "vestingSeconds",
            "offset": 0,
            "slot": "2",
            "type": "t_uint256"
          },
          {
            "astId": 10243,
            "contract": "contracts/vested-escrow/veERC20.sol:veERC20",
            "label": "tgeUnlockRatio1e18",
            "offset": 0,
            "slot": "3",
            "type": "t_uint256"
          },
          {
            "astId": 10245,
            "contract": "contracts/vested-escrow/veERC20.sol:veERC20",
            "label": "vestingFrequencySeconds",
            "offset": 0,
            "slot": "4",
            "type": "t_uint256"
          }
        ],
        "numberOfBytes": "160"
      },
      "t_uint256": {
        "encoding": "inplace",
        "label": "uint256",
        "numberOfBytes": "32"
      },
      "t_uint32": {
        "encoding": "inplace",
        "label": "uint32",
        "numberOfBytes": "4"
      },
      "t_uint8": {
        "encoding": "inplace",
        "label": "uint8",
        "numberOfBytes": "1"
      }
    }
  }
}