{
  "address": "0x9a0d679EB96b774DC1ada8c5382631E107BE879d",
  "abi": [
    {
      "inputs": [
        {
          "internalType": "address",
          "name": "dao",
          "type": "address"
        }
      ],
      "name": "BadDAOAddress",
      "type": "error"
    },
    {
      "inputs": [],
      "name": "BadUnlockRatio",
      "type": "error"
    },
    {
      "inputs": [],
      "name": "BadVestingTimestamps",
      "type": "error"
    },
    {
      "inputs": [],
      "name": "ClaimZeroError",
      "type": "error"
    },
    {
      "inputs": [],
      "name": "NoBalance",
      "type": "error"
    },
    {
      "inputs": [
        {
          "internalType": "bytes32",
          "name": "role",
          "type": "bytes32"
        },
        {
          "internalType": "address",
          "name": "msgSender",
          "type": "address"
        }
      ],
      "name": "OnlyRoleError",
      "type": "error"
    },
    {
      "inputs": [],
      "name": "TGEInPastError",
      "type": "error"
    },
    {
      "inputs": [
        {
          "internalType": "address",
          "name": "",
          "type": "address"
        }
      ],
      "name": "UnableToTransfer",
      "type": "error"
    },
    {
      "inputs": [],
      "name": "UnavailableFunctionalityError",
      "type": "error"
    },
    {
      "anonymous": false,
      "inputs": [
        {
          "indexed": true,
          "internalType": "address",
          "name": "owner",
          "type": "address"
        },
        {
          "indexed": true,
          "internalType": "address",
          "name": "spender",
          "type": "address"
        },
        {
          "indexed": false,
          "internalType": "uint256",
          "name": "value",
          "type": "uint256"
        }
      ],
      "name": "Approval",
      "type": "event"
    },
    {
      "anonymous": false,
      "inputs": [
        {
          "indexed": false,
          "internalType": "address",
          "name": "account",
          "type": "address"
        },
        {
          "indexed": false,
          "internalType": "uint256",
          "name": "claimAmount",
          "type": "uint256"
        }
      ],
      "name": "Claimed",
      "type": "event"
    },
    {
      "anonymous": false,
      "inputs": [
        {
          "indexed": true,
          "internalType": "address",
          "name": "delegator",
          "type": "address"
        },
        {
          "indexed": true,
          "internalType": "address",
          "name": "fromDelegate",
          "type": "address"
        },
        {
          "indexed": true,
          "internalType": "address",
          "name": "toDelegate",
          "type": "address"
        }
      ],
      "name": "DelegateChanged",
      "type": "event"
    },
    {
      "anonymous": false,
      "inputs": [
        {
          "indexed": true,
          "internalType": "address",
          "name": "delegate",
          "type": "address"
        },
        {
          "indexed": false,
          "internalType": "uint256",
          "name": "previousBalance",
          "type": "uint256"
        },
        {
          "indexed": false,
          "internalType": "uint256",
          "name": "newBalance",
          "type": "uint256"
        }
      ],
      "name": "DelegateVotesChanged",
      "type": "event"
    },
    {
      "anonymous": false,
      "inputs": [
        {
          "indexed": false,
          "internalType": "uint8",
          "name": "version",
          "type": "uint8"
        }
      ],
      "name": "Initialized",
      "type": "event"
    },
    {
      "anonymous": false,
      "inputs": [
        {
          "indexed": true,
          "internalType": "address",
          "name": "from",
          "type": "address"
        },
        {
          "indexed": true,
          "internalType": "address",
          "name": "to",
          "type": "address"
        },
        {
          "indexed": false,
          "internalType": "uint256",
          "name": "value",
          "type": "uint256"
        }
      ],
      "name": "Transfer",
      "type": "event"
    },
    {
      "inputs": [],
      "name": "ACCESS_CONTROL_SINGLETON",
      "outputs": [
        {
          "internalType": "contract ISuAccessControl",
          "name": "",
          "type": "address"
        }
      ],
      "stateMutability": "view",
      "type": "function"
    },
    {
      "inputs": [],
      "name": "ADMIN_ROLE",
      "outputs": [
        {
          "internalType": "bytes32",
          "name": "",
          "type": "bytes32"
        }
      ],
      "stateMutability": "view",
      "type": "function"
    },
    {
      "inputs": [],
      "name": "DAO_ROLE",
      "outputs": [
        {
          "internalType": "bytes32",
          "name": "",
          "type": "bytes32"
        }
      ],
      "stateMutability": "view",
      "type": "function"
    },
    {
      "inputs": [],
      "name": "DEFAULT_ADMIN_ROLE",
      "outputs": [
        {
          "internalType": "bytes32",
          "name": "",
          "type": "bytes32"
        }
      ],
      "stateMutability": "view",
      "type": "function"
    },
    {
      "inputs": [],
      "name": "DOMAIN_SEPARATOR",
      "outputs": [
        {
          "internalType": "bytes32",
          "name": "",
          "type": "bytes32"
        }
      ],
      "stateMutability": "view",
      "type": "function"
    },
    {
      "inputs": [],
      "name": "LOCKED_TOKEN",
      "outputs": [
        {
          "internalType": "contract ERC20BurnableUpgradeable",
          "name": "",
          "type": "address"
        }
      ],
      "stateMutability": "view",
      "type": "function"
    },
    {
      "inputs": [],
      "name": "SYSTEM_ROLE",
      "outputs": [
        {
          "internalType": "bytes32",
          "name": "",
          "type": "bytes32"
        }
      ],
      "stateMutability": "view",
      "type": "function"
    },
    {
      "inputs": [
        {
          "internalType": "address",
          "name": "_accessControlSingleton",
          "type": "address"
        },
        {
          "internalType": "string",
          "name": "_name",
          "type": "string"
        }
      ],
      "name": "__SuVoteToken__init",
      "outputs": [],
      "stateMutability": "nonpayable",
      "type": "function"
    },
    {
      "inputs": [
        {
          "internalType": "address",
          "name": "account",
          "type": "address"
        },
        {
          "internalType": "bool",
          "name": "_isTransferable",
          "type": "bool"
        }
      ],
      "name": "adminTransferUnlock",
      "outputs": [],
      "stateMutability": "nonpayable",
      "type": "function"
    },
    {
      "inputs": [
        {
          "internalType": "address",
          "name": "owner",
          "type": "address"
        },
        {
          "internalType": "address",
          "name": "spender",
          "type": "address"
        }
      ],
      "name": "allowance",
      "outputs": [
        {
          "internalType": "uint256",
          "name": "",
          "type": "uint256"
        }
      ],
      "stateMutability": "view",
      "type": "function"
    },
    {
      "inputs": [
        {
          "internalType": "address",
          "name": "",
          "type": "address"
        }
      ],
      "name": "alreadyWithdrawn",
      "outputs": [
        {
          "internalType": "uint256",
          "name": "",
          "type": "uint256"
        }
      ],
      "stateMutability": "view",
      "type": "function"
    },
    {
      "inputs": [
        {
          "internalType": "address",
          "name": "spender",
          "type": "address"
        },
        {
          "internalType": "uint256",
          "name": "amount",
          "type": "uint256"
        }
      ],
      "name": "approve",
      "outputs": [
        {
          "internalType": "bool",
          "name": "",
          "type": "bool"
        }
      ],
      "stateMutability": "nonpayable",
      "type": "function"
    },
    {
      "inputs": [
        {
          "internalType": "address",
          "name": "account",
          "type": "address"
        }
      ],
      "name": "availableToClaim",
      "outputs": [
        {
          "internalType": "uint256",
          "name": "",
          "type": "uint256"
        }
      ],
      "stateMutability": "view",
      "type": "function"
    },
    {
      "inputs": [
        {
          "internalType": "address",
          "name": "account",
          "type": "address"
        }
      ],
      "name": "balanceOf",
      "outputs": [
        {
          "internalType": "uint256",
          "name": "",
          "type": "uint256"
        }
      ],
      "stateMutability": "view",
      "type": "function"
    },
    {
      "inputs": [
        {
          "internalType": "uint256",
          "name": "amount",
          "type": "uint256"
        }
      ],
      "name": "burn",
      "outputs": [],
      "stateMutability": "nonpayable",
      "type": "function"
    },
    {
      "inputs": [],
      "name": "claim",
      "outputs": [],
      "stateMutability": "nonpayable",
      "type": "function"
    },
    {
      "inputs": [],
      "name": "cliffSeconds",
      "outputs": [
        {
          "internalType": "uint32",
          "name": "",
          "type": "uint32"
        }
      ],
      "stateMutability": "view",
      "type": "function"
    },
    {
      "inputs": [],
      "name": "decimals",
      "outputs": [
        {
          "internalType": "uint8",
          "name": "",
          "type": "uint8"
        }
      ],
      "stateMutability": "view",
      "type": "function"
    },
    {
      "inputs": [
        {
          "internalType": "address",
          "name": "spender",
          "type": "address"
        },
        {
          "internalType": "uint256",
          "name": "subtractedValue",
          "type": "uint256"
        }
      ],
      "name": "decreaseAllowance",
      "outputs": [
        {
          "internalType": "bool",
          "name": "",
          "type": "bool"
        }
      ],
      "stateMutability": "nonpayable",
      "type": "function"
    },
    {
      "inputs": [
        {
          "internalType": "address",
          "name": "",
          "type": "address"
        }
      ],
      "name": "delegate",
      "outputs": [],
      "stateMutability": "nonpayable",
      "type": "function"
    },
    {
      "inputs": [
        {
          "internalType": "address",
          "name": "delegatee",
          "type": "address"
        },
        {
          "internalType": "uint256",
          "name": "nonce",
          "type": "uint256"
        },
        {
          "internalType": "uint256",
          "name": "expiry",
          "type": "uint256"
        },
        {
          "internalType": "uint8",
          "name": "v",
          "type": "uint8"
        },
        {
          "internalType": "bytes32",
          "name": "r",
          "type": "bytes32"
        },
        {
          "internalType": "bytes32",
          "name": "s",
          "type": "bytes32"
        }
      ],
      "name": "delegateBySig",
      "outputs": [],
      "stateMutability": "nonpayable",
      "type": "function"
    },
    {
      "inputs": [
        {
          "internalType": "address",
          "name": "account",
          "type": "address"
        },
        {
          "internalType": "address",
          "name": "delegatee",
          "type": "address"
        }
      ],
      "name": "delegateOnBehalf",
      "outputs": [],
      "stateMutability": "nonpayable",
      "type": "function"
    },
    {
      "inputs": [
        {
          "internalType": "address",
          "name": "account",
          "type": "address"
        }
      ],
      "name": "delegates",
      "outputs": [
        {
          "internalType": "address",
          "name": "",
          "type": "address"
        }
      ],
      "stateMutability": "view",
      "type": "function"
    },
    {
      "inputs": [
        {
          "internalType": "uint256",
          "name": "blockNumber",
          "type": "uint256"
        }
      ],
      "name": "getPastTotalSupply",
      "outputs": [
        {
          "internalType": "uint256",
          "name": "",
          "type": "uint256"
        }
      ],
      "stateMutability": "view",
      "type": "function"
    },
    {
      "inputs": [
        {
          "internalType": "address",
          "name": "account",
          "type": "address"
        },
        {
          "internalType": "uint256",
          "name": "blockNumber",
          "type": "uint256"
        }
      ],
      "name": "getPastVotes",
      "outputs": [
        {
          "internalType": "uint256",
          "name": "",
          "type": "uint256"
        }
      ],
      "stateMutability": "view",
      "type": "function"
    },
    {
      "inputs": [
        {
          "internalType": "bytes32",
          "name": "role",
          "type": "bytes32"
        }
      ],
      "name": "getRoleAdmin",
      "outputs": [
        {
          "internalType": "bytes32",
          "name": "",
          "type": "bytes32"
        }
      ],
      "stateMutability": "view",
      "type": "function"
    },
    {
      "inputs": [],
      "name": "getTotalSupply",
      "outputs": [
        {
          "internalType": "uint256",
          "name": "",
          "type": "uint256"
        }
      ],
      "stateMutability": "view",
      "type": "function"
    },
    {
      "inputs": [
        {
          "internalType": "address",
          "name": "account",
          "type": "address"
        }
      ],
      "name": "getVotes",
      "outputs": [
        {
          "internalType": "uint256",
          "name": "",
          "type": "uint256"
        }
      ],
      "stateMutability": "view",
      "type": "function"
    },
    {
      "inputs": [
        {
          "internalType": "bytes32",
          "name": "role",
          "type": "bytes32"
        },
        {
          "internalType": "address",
          "name": "account",
          "type": "address"
        }
      ],
      "name": "hasRole",
      "outputs": [
        {
          "internalType": "bool",
          "name": "",
          "type": "bool"
        }
      ],
      "stateMutability": "view",
      "type": "function"
    },
    {
      "inputs": [
        {
          "internalType": "address",
          "name": "spender",
          "type": "address"
        },
        {
          "internalType": "uint256",
          "name": "addedValue",
          "type": "uint256"
        }
      ],
      "name": "increaseAllowance",
      "outputs": [
        {
          "internalType": "bool",
          "name": "",
          "type": "bool"
        }
      ],
      "stateMutability": "nonpayable",
      "type": "function"
    },
    {
      "inputs": [
        {
          "internalType": "address",
          "name": "_accessControlSingleton",
          "type": "address"
        },
        {
          "internalType": "contract ERC20BurnableUpgradeable",
          "name": "_lockedToken",
          "type": "address"
        },
        {
          "internalType": "uint32",
          "name": "_maxTgeTimestamp",
          "type": "uint32"
        }
      ],
      "name": "initialize",
      "outputs": [],
      "stateMutability": "nonpayable",
      "type": "function"
    },
    {
      "inputs": [
        {
          "internalType": "address",
          "name": "",
          "type": "address"
        }
      ],
      "name": "isTransferable",
      "outputs": [
        {
          "internalType": "bool",
          "name": "",
          "type": "bool"
        }
      ],
      "stateMutability": "view",
      "type": "function"
    },
    {
      "inputs": [
        {
          "internalType": "address",
          "name": "account",
          "type": "address"
        },
        {
          "internalType": "uint256",
          "name": "amount",
          "type": "uint256"
        }
      ],
      "name": "lockUnderVesting",
      "outputs": [],
      "stateMutability": "nonpayable",
      "type": "function"
    },
    {
      "inputs": [],
      "name": "name",
      "outputs": [
        {
          "internalType": "string",
          "name": "",
          "type": "string"
        }
      ],
      "stateMutability": "view",
      "type": "function"
    },
    {
      "inputs": [
        {
          "internalType": "address",
          "name": "owner",
          "type": "address"
        }
      ],
      "name": "nonces",
      "outputs": [
        {
          "internalType": "uint256",
          "name": "",
          "type": "uint256"
        }
      ],
      "stateMutability": "view",
      "type": "function"
    },
    {
      "inputs": [
        {
          "internalType": "contract ERC20Upgradeable",
          "name": "token",
          "type": "address"
        }
      ],
      "name": "rescue",
      "outputs": [],
      "stateMutability": "nonpayable",
      "type": "function"
    },
    {
      "inputs": [
        {
          "internalType": "bytes4",
          "name": "interfaceId",
          "type": "bytes4"
        }
      ],
      "name": "supportsInterface",
      "outputs": [
        {
          "internalType": "bool",
          "name": "",
          "type": "bool"
        }
      ],
      "stateMutability": "view",
      "type": "function"
    },
    {
      "inputs": [],
      "name": "symbol",
      "outputs": [
        {
          "internalType": "string",
          "name": "",
          "type": "string"
        }
      ],
      "stateMutability": "view",
      "type": "function"
    },
    {
      "inputs": [],
      "name": "tgeTimestamp",
      "outputs": [
        {
          "internalType": "uint32",
          "name": "",
          "type": "uint32"
        }
      ],
      "stateMutability": "view",
      "type": "function"
    },
    {
      "inputs": [],
      "name": "tgeUnlockRatio1e18",
      "outputs": [
        {
          "internalType": "uint64",
          "name": "",
          "type": "uint64"
        }
      ],
      "stateMutability": "view",
      "type": "function"
    },
    {
      "inputs": [
        {
          "internalType": "address",
          "name": "user",
          "type": "address"
        }
      ],
      "name": "totalClaimed",
      "outputs": [
        {
          "internalType": "uint256",
          "name": "",
          "type": "uint256"
        }
      ],
      "stateMutability": "view",
      "type": "function"
    },
    {
      "inputs": [
        {
          "internalType": "address",
          "name": "user",
          "type": "address"
        }
      ],
      "name": "totalDeposited",
      "outputs": [
        {
          "internalType": "uint256",
          "name": "",
          "type": "uint256"
        }
      ],
      "stateMutability": "view",
      "type": "function"
    },
    {
      "inputs": [],
      "name": "totalSupply",
      "outputs": [
        {
          "internalType": "uint256",
          "name": "",
          "type": "uint256"
        }
      ],
      "stateMutability": "view",
      "type": "function"
    },
    {
      "inputs": [
        {
          "internalType": "address",
          "name": "to",
          "type": "address"
        },
        {
          "internalType": "uint256",
          "name": "amount",
          "type": "uint256"
        }
      ],
      "name": "transfer",
      "outputs": [
        {
          "internalType": "bool",
          "name": "",
          "type": "bool"
        }
      ],
      "stateMutability": "nonpayable",
      "type": "function"
    },
    {
      "inputs": [
        {
          "internalType": "address",
          "name": "from",
          "type": "address"
        },
        {
          "internalType": "address",
          "name": "to",
          "type": "address"
        },
        {
          "internalType": "uint256",
          "name": "amount",
          "type": "uint256"
        }
      ],
      "name": "transferFrom",
      "outputs": [
        {
          "internalType": "bool",
          "name": "",
          "type": "bool"
        }
      ],
      "stateMutability": "nonpayable",
      "type": "function"
    },
    {
      "inputs": [
        {
          "internalType": "uint32",
          "name": "newTgeTimestamp",
          "type": "uint32"
        },
        {
          "internalType": "uint32",
          "name": "newCliffSeconds",
          "type": "uint32"
        },
        {
          "internalType": "uint32",
          "name": "newVestingSeconds",
          "type": "uint32"
        },
        {
          "internalType": "uint64",
          "name": "newTgeUnlockRatio",
          "type": "uint64"
        },
        {
          "internalType": "uint32",
          "name": "newVestingFrequencySeconds",
          "type": "uint32"
        }
      ],
      "name": "updateTimestamps",
      "outputs": [],
      "stateMutability": "nonpayable",
      "type": "function"
    },
    {
      "inputs": [],
      "name": "vestingFrequencySeconds",
      "outputs": [
        {
          "internalType": "uint32",
          "name": "",
          "type": "uint32"
        }
      ],
      "stateMutability": "view",
      "type": "function"
    },
    {
      "inputs": [],
      "name": "vestingSeconds",
      "outputs": [
        {
          "internalType": "uint32",
          "name": "",
          "type": "uint32"
        }
      ],
      "stateMutability": "view",
      "type": "function"
    },
    {
      "stateMutability": "payable",
      "type": "receive"
    }
  ],
  "numDeployments": 1,
  "solcInputHash": "681b3f41ca0160b856386fa3e1aab09c",
  "bytecode": "0x608060405234801561001057600080fd5b50613670806100206000396000f3fe6080604052600436106102275760003560e01c806301ffc9a71461023357806302b42b861461026857806303ee9f221461028a57806306fdde03146102b7578063095ea7b3146102d95780630afcdef5146102f95780630da45188146103325780630e408e3b1461036057806318160ddd14610380578063195055f11461039557806323b872dd146103c6578063248a9ca3146103e6578063313ce567146104065780633644e5151461042257806339509351146104375780633a46b1a8146104575780633c14516d1461047757806342966c68146104975780634e71d92d146104b757806353055481146104cc578063587cde1e146104ec5780635c19a95c1461050c5780635e10448b1461052c578063692878621461056b5780636ecf2b221461058b57806370a08231146105ab57806375071d2a146105cb57806375b238fc146105ed5780637ecebe001461060f5780638341ee721461062f578063839006f21461064c5780638e539e8c1461066c57806391d148541461068c57806395d89b41146106ac5780639aa2e39e146106c15780639ab24eb0146106ee578063a217fddf1461070e578063a4317ef414610723578063a457c2d714610747578063a9059cbb14610767578063b1956af514610787578063c3cda520146107ab578063c4e41b22146107cb578063d216617a146107e0578063dc4e78cd14610800578063dd62ed3e14610820578063e9c265181461070e578063ef5d9ae81461084057600080fd5b3661022e57005b600080fd5b34801561023f57600080fd5b5061025361024e366004612d33565b610876565b60405190151581526020015b60405180910390f35b34801561027457600080fd5b50610288610283366004612d80565b6108a1565b005b34801561029657600080fd5b506033546102aa906001600160a01b031681565b60405161025f9190612db9565b3480156102c357600080fd5b506102cc610911565b60405161025f9190612df9565b3480156102e557600080fd5b506102536102f4366004612e2c565b6109a3565b34801561030557600080fd5b5060fe5461031d90600160401b900463ffffffff1681565b60405163ffffffff909116815260200161025f565b34801561033e57600080fd5b5061035261034d366004612e58565b6109bb565b60405190815260200161025f565b34801561036c57600080fd5b5061028861037b366004612e75565b610b8e565b34801561038c57600080fd5b5060cd54610352565b3480156103a157600080fd5b506102536103b0366004612e58565b6101006020526000908152604090205460ff1681565b3480156103d257600080fd5b506102536103e1366004612ea3565b610bd7565b3480156103f257600080fd5b50610352610401366004612ee4565b610bfb565b34801561041257600080fd5b506040516012815260200161025f565b34801561042e57600080fd5b50610352610c69565b34801561044357600080fd5b50610253610452366004612e2c565b610c78565b34801561046357600080fd5b50610352610472366004612e2c565b610c9a565b34801561048357600080fd5b50610288610492366004612e2c565b610cc3565b3480156104a357600080fd5b506102886104b2366004612ee4565b610d4e565b3480156104c357600080fd5b50610288610dc5565b3480156104d857600080fd5b506103526104e7366004612e58565b610e8a565b3480156104f857600080fd5b506102aa610507366004612e58565b610eb6565b34801561051857600080fd5b50610288610527366004612e58565b610ed4565b34801561053857600080fd5b5060fd5461055390600160c01b90046001600160401b031681565b6040516001600160401b03909116815260200161025f565b34801561057757600080fd5b5060fd546102aa906001600160a01b031681565b34801561059757600080fd5b506102886105a6366004612f16565b610eed565b3480156105b757600080fd5b506103526105c6366004612e58565b611124565b3480156105d757600080fd5b5061035260008051602061359b83398151915281565b3480156105f957600080fd5b506103526000805160206135fb83398151915281565b34801561061b57600080fd5b5061035261062a366004612e58565b61113f565b34801561063b57600080fd5b5060fe5461031d9063ffffffff1681565b34801561065857600080fd5b50610288610667366004612e58565b61115d565b34801561067857600080fd5b50610352610687366004612ee4565b61124a565b34801561069857600080fd5b506102536106a7366004612f5d565b6112a3565b3480156106b857600080fd5b506102cc611317565b3480156106cd57600080fd5b506103526106dc366004612e58565b60ff6020526000908152604090205481565b3480156106fa57600080fd5b50610352610709366004612e58565b611326565b34801561071a57600080fd5b50610352600081565b34801561072f57600080fd5b5060fd5461031d90600160a01b900463ffffffff1681565b34801561075357600080fd5b50610253610762366004612e2c565b611356565b34801561077357600080fd5b50610253610782366004612e2c565b6113d1565b34801561079357600080fd5b5060fe5461031d90600160201b900463ffffffff1681565b3480156107b757600080fd5b506102886107c6366004612f82565b611429565b3480156107d757600080fd5b50610352611551565b3480156107ec57600080fd5b506102886107fb366004613051565b61155b565b34801561080c57600080fd5b5061028861081b3660046130e3565b61163f565b34801561082c57600080fd5b5061035261083b366004612e75565b6117d0565b34801561084c57600080fd5b5061035261085b366004612e58565b6001600160a01b0316600090815260ff602052604090205490565b60006001600160e01b0319821663caa4951960e01b148061089b575061089b826117fb565b92915050565b6000805160206135fb8339815191526108ba81336112a3565b6108e45780336040516337c2e34360e01b81526004016108db929190613156565b60405180910390fd5b506001600160a01b0391909116600090815261010060205260409020805460ff1916911515919091179055565b606060ce80546109209061316d565b80601f016020809104026020016040519081016040528092919081815260200182805461094c9061316d565b80156109995780601f1061096e57610100808354040283529160200191610999565b820191906000526020600020905b81548152906001019060200180831161097c57829003601f168201915b5050505050905090565b6000336109b1818585611820565b5060019392505050565b60fd546000904290600160a01b900463ffffffff168110156109e05750600092915050565b60006109eb84610e8a565b60fd54909150600090670de0b6b3a764000090610a1890600160c01b90046001600160401b0316846131b7565b610a2291906131ec565b60fe5460fd54919250610a469163ffffffff91821691600160a01b90910416613200565b63ffffffff168310610b3a5760fe5460fd54849163ffffffff600160201b8204811692610a7e92821691600160a01b90910416613200565b610a889190613200565b63ffffffff161015610a9b575080610b3a565b60fe5460fd54600091610abf9163ffffffff91821691600160a01b90910416613200565b610acf9063ffffffff1685613228565b60fe54909150600090600160401b900463ffffffff16610aef81846131ec565b610af991906131b7565b60fe54909150600160201b900463ffffffff1681610b178587613228565b610b2191906131b7565b610b2b91906131ec565b610b35908461323f565b925050505b6001600160a01b038516600090815260ff6020526040902054811115610b82576001600160a01b038516600090815260ff6020526040902054610b7d9082613228565b610b85565b60005b95945050505050565b60008051602061359b833981519152610ba781336112a3565b610bc85780336040516337c2e34360e01b81526004016108db929190613156565b610bd28383611944565b505050565b600033610be58582856119bf565b610bf0858585611a33565b506001949350505050565b60335460405163248a9ca360e01b8152600481018390526000916001600160a01b03169063248a9ca390602401602060405180830381865afa158015610c45573d6000803e3d6000fd5b505050506040513d601f19601f8201168201806040525081019061089b9190613257565b6000610c73611bcc565b905090565b6000336109b1818585610c8b83836117d0565b610c95919061323f565b611820565b6001600160a01b0382166000908152609a60205260408120610cbc9083611c47565b9392505050565b6000805160206135fb833981519152610cdc81336112a3565b610cfd5780336040516337c2e34360e01b81526004016108db929190613156565b60fd54610d15906001600160a01b0316333085611d62565b610d1f8383611dcd565b610d2b60008484611e7c565b6000610d3684610eb6565b6001600160a01b031603610bd257610bd28384611944565b610d5a33600083611e7c565b610d643382611ed5565b60fd54604051630852cd8d60e31b8152600481018390526001600160a01b03909116906342966c6890602401600060405180830381600087803b158015610daa57600080fd5b505af1158015610dbe573d6000803e3d6000fd5b5050505050565b6000610dd0336109bb565b905080600003610df357604051639e335bd560e01b815260040160405180910390fd5b33600090815260ff6020526040902054610e0e90829061323f565b33600081815260ff6020526040902091909155610e2b9082611ed5565b610e3733600083611e7c565b60fd54610e4e906001600160a01b03163383611ff7565b7fd8138f8a3f377c5259ca548e70e4c2de94f129f5a11036a15b69513cba2b426a3382604051610e7f929190613270565b60405180910390a150565b6001600160a01b038116600090815260ff6020526040812054610eac83611124565b61089b919061323f565b6001600160a01b039081166000908152609960205260409020541690565b604051634358d6cf60e11b815260040160405180910390fd5b600054610100900460ff1615808015610f0d5750600054600160ff909116105b80610f2e5750610f1c30612016565b158015610f2e575060005460ff166001145b610f4a5760405162461bcd60e51b81526004016108db90613289565b6000805460ff191660011790558015610f6d576000805461ff0019166101001790555b6000836001600160a01b03166395d89b416040518163ffffffff1660e01b8152600401600060405180830381865afa158015610fad573d6000803e3d6000fd5b505050506040513d6000823e601f3d908101601f19168201604052610fd591908101906132d7565b604051602001610fe59190613344565b6040516020818303038152906040529050611000858261155b565b61108e846001600160a01b03166306fdde036040518163ffffffff1660e01b8152600401600060405180830381865afa158015611041573d6000803e3d6000fd5b505050506040513d6000823e601f3d908101601f1916820160405261106991908101906132d7565b604051602001611079919061336e565b60405160208183030381529060405282612025565b5060fd805460fe80546001600160601b0319166aed4e0003b5380000ed4e001790556001600160a01b0385166001600160c01b031990911617600160a01b63ffffffff851602176001600160c01b031664b1a2bc2ec560d11b179055801561111e576000805461ff0019169055604051600181526000805160206135bb8339815191529060200160405180910390a15b50505050565b6001600160a01b0316600090815260cb602052604090205490565b6001600160a01b0381166000908152609c602052604081205461089b565b600061116981336112a3565b61118a5780336040516337c2e34360e01b81526004016108db929190613156565b6001600160a01b0382166111c45760405133904780156108fc02916000818181858888f19350505050158015610bd2573d6000803e3d6000fd5b61124633836001600160a01b03166370a08231306040518263ffffffff1660e01b81526004016111f49190612db9565b602060405180830381865afa158015611211573d6000803e3d6000fd5b505050506040513d601f19601f820116820180604052508101906112359190613257565b6001600160a01b0385169190611ff7565b5050565b60004382106112985760405162461bcd60e51b815260206004820152601a602482015279159bdd195cce88189b1bd8dac81b9bdd081e595d081b5a5b995960321b60448201526064016108db565b61089b609b83611c47565b603354604051632474521560e21b81526000916001600160a01b0316906391d14854906112d69086908690600401613156565b602060405180830381865afa1580156112f3573d6000803e3d6000fd5b505050506040513d601f19601f82011682018060405250810190610cbc91906133a4565b606060cf80546109209061316d565b6001600160a01b0381166000908152609a6020526040812061134790612056565b6001600160e01b031692915050565b6000338161136482866117d0565b9050838110156113c45760405162461bcd60e51b815260206004820152602560248201527f45524332303a2064656372656173656420616c6c6f77616e63652062656c6f77604482015264207a65726f60d81b60648201526084016108db565b610bf08286868403611820565b336000908152610100602052604081205460ff1615611405576113f5338484611e7c565b611400338484611a33565b611420565b33604051631439782360e31b81526004016108db9190612db9565b50600192915050565b834211156114745760405162461bcd60e51b8152602060048201526018602482015277159bdd195cce881cda59db985d1d5c9948195e1c1a5c995960421b60448201526064016108db565b604080517fe48329057bfd03d55e49b547132e39cffd9c1820ad7b9d4c5307691425d15adf60208201526001600160a01b0388169181019190915260608101869052608081018590526000906114ee906114e69060a0016040516020818303038152906040528051906020012061208f565b8585856120dd565b90506114f981612107565b861461153e5760405162461bcd60e51b8152602060048201526014602482015273566f7465733a20696e76616c6964206e6f6e636560601b60448201526064016108db565b6115488188611944565b50505050505050565b6000610c7361212f565b600054610100900460ff161580801561157b5750600054600160ff909116105b8061159c575061158a30612016565b15801561159c575060005460ff166001145b6115b85760405162461bcd60e51b81526004016108db90613289565b6000805460ff1916600117905580156115db576000805461ff0019166101001790555b6115e483612149565b61160782604051806040016040528060018152602001603160f81b815250612192565b8015610bd2576000805461ff0019169055604051600181526000805160206135bb8339815191529060200160405180910390a1505050565b6000805160206135fb83398151915261165881336112a3565b6116795780336040516337c2e34360e01b81526004016108db929190613156565b4263ffffffff168663ffffffff1610156116a6576040516353bd8e2560e01b815260040160405180910390fd5b670de0b6b3a7640000836001600160401b031611156116d85760405163df5be7f960e01b815260040160405180910390fd5b8363ffffffff166000036116ff5760405163b5039cfb60e01b815260040160405180910390fd5b63ffffffff84161580611732575063ffffffff84168261171f81876133c1565b61172991906133e4565b63ffffffff1614155b156117505760405163b5039cfb60e01b815260040160405180910390fd5b5060fd805460fe80546001600160401b03909516600160c01b026001600160c01b0363ffffffff998a16600160a01b02166001600160a01b039093169290921791909117909155908516600160401b0263ffffffff60401b19938616600160201b026001600160401b031990931694909516939093171716919091179055565b6001600160a01b03918216600090815260cc6020908152604080832093909416825291909152205490565b60006001600160e01b03198216637487d9fb60e11b148061089b575061089b826121c3565b6001600160a01b0383166118825760405162461bcd60e51b8152602060048201526024808201527f45524332303a20617070726f76652066726f6d20746865207a65726f206164646044820152637265737360e01b60648201526084016108db565b6001600160a01b0382166118e35760405162461bcd60e51b815260206004820152602260248201527f45524332303a20617070726f766520746f20746865207a65726f206164647265604482015261737360f01b60648201526084016108db565b6001600160a01b03838116600081815260cc602090815260408083209487168084529482529182902085905590518481527f8c5be1e5ebec7d5bd14f71427d1e84f3dd0314c0f7b2291e5b200ac8c7c3b925910160405180910390a3505050565b600061194f83610eb6565b6001600160a01b0384811660008181526099602052604080822080546001600160a01b031916888616908117909155905194955093928516927f3134e8a2e6d97e929a7e54011ea5485d7d196dd5f0ba4d4ef95803e8e3fc257f9190a4610bd281836119ba8661223a565b612245565b60006119cb84846117d0565b9050600019811461111e5781811015611a265760405162461bcd60e51b815260206004820152601d60248201527f45524332303a20696e73756666696369656e7420616c6c6f77616e636500000060448201526064016108db565b61111e8484848403611820565b6001600160a01b038316611a975760405162461bcd60e51b815260206004820152602560248201527f45524332303a207472616e736665722066726f6d20746865207a65726f206164604482015264647265737360d81b60648201526084016108db565b6001600160a01b038216611af95760405162461bcd60e51b815260206004820152602360248201527f45524332303a207472616e7366657220746f20746865207a65726f206164647260448201526265737360e81b60648201526084016108db565b6001600160a01b038316600090815260cb602052604090205481811015611b715760405162461bcd60e51b815260206004820152602660248201527f45524332303a207472616e7366657220616d6f756e7420657863656564732062604482015265616c616e636560d01b60648201526084016108db565b6001600160a01b03808516600081815260cb602052604080822086860390559286168082529083902080548601905591516000805160206135db83398151915290611bbf9086815260200190565b60405180910390a361111e565b6000610c737f8b73c3c69bb8fe3d512ecc4cf759cc79239f7b179b0ffacaa9a75d522b39400f611bfb60655490565b6066546040805160208101859052908101839052606081018290524660808201523060a082015260009060c0016040516020818303038152906040528051906020012090509392505050565b6000438210611c985760405162461bcd60e51b815260206004820181905260248201527f436865636b706f696e74733a20626c6f636b206e6f7420796574206d696e656460448201526064016108db565b6000611ca38361235e565b84549091506000816005811115611d01576000611cbf846123c7565b611cc99085613228565b60008981526020902090915081015463ffffffff9081169086161015611cf157809150611cff565b611cfc81600161323f565b92505b505b6000611d0f888685856124af565b90508015611d4a57611d3488611d26600184613228565b600091825260209091200190565b54600160201b90046001600160e01b0316611d4d565b60005b6001600160e01b031698975050505050505050565b6040516001600160a01b038085166024830152831660448201526064810182905261111e9085906323b872dd60e01b906084015b60408051601f198184030181529190526020810180516001600160e01b03166001600160e01b03199093169290921790915261250d565b6001600160a01b038216611e235760405162461bcd60e51b815260206004820152601f60248201527f45524332303a206d696e7420746f20746865207a65726f20616464726573730060448201526064016108db565b8060cd6000828254611e35919061323f565b90915550506001600160a01b038216600081815260cb60209081526040808320805486019055518481526000805160206135db833981519152910160405180910390a35050565b6001600160a01b038316611e9b57611e98609b6125df836125eb565b50505b6001600160a01b038216611eba57611eb7609b612623836125eb565b50505b610bd2611ec684610eb6565b611ecf84610eb6565b83612245565b6001600160a01b038216611f355760405162461bcd60e51b815260206004820152602160248201527f45524332303a206275726e2066726f6d20746865207a65726f206164647265736044820152607360f81b60648201526084016108db565b6001600160a01b038216600090815260cb602052604090205481811015611fa95760405162461bcd60e51b815260206004820152602260248201527f45524332303a206275726e20616d6f756e7420657863656564732062616c616e604482015261636560f01b60648201526084016108db565b6001600160a01b038316600081815260cb60209081526040808320868603905560cd80548790039055518581529192916000805160206135db833981519152910160405180910390a3505050565b610bd28363a9059cbb60e01b8484604051602401611d96929190613270565b6001600160a01b03163b151590565b600054610100900460ff1661204c5760405162461bcd60e51b81526004016108db90613410565b611246828261262f565b805460009080156120865761207083611d26600184613228565b54600160201b90046001600160e01b0316610cbc565b60009392505050565b600061089b61209c611bcc565b8360405161190160f01b6020820152602281018390526042810182905260009060620160405160208183030381529060405280519060200120905092915050565b60008060006120ee8787878761266f565b915091506120fb81612729565b5090505b949350505050565b6001600160a01b0381166000908152609c602052604090208054600181018255905b50919050565b600061213b609b612056565b6001600160e01b0316905090565b600054610100900460ff166121705760405162461bcd60e51b81526004016108db90613410565b603380546001600160a01b0319166001600160a01b0392909216919091179055565b600054610100900460ff166121b95760405162461bcd60e51b81526004016108db90613410565b6112468282612871565b6033546040516301ffc9a760e01b81526001600160e01b0319831660048201526000916001600160a01b0316906301ffc9a790602401602060405180830381865afa158015612216573d6000803e3d6000fd5b505050506040513d601f19601f8201168201806040525081019061089b91906133a4565b600061089b82611124565b816001600160a01b0316836001600160a01b0316141580156122675750600081115b15610bd2576001600160a01b038316156122e3576001600160a01b0383166000908152609a6020526040812081906122a290612623856125eb565b91509150846001600160a01b031660008051602061361b83398151915283836040516122d8929190918252602082015260400190565b60405180910390a250505b6001600160a01b03821615610bd2576001600160a01b0382166000908152609a602052604081208190612319906125df856125eb565b91509150836001600160a01b031660008051602061361b833981519152838360405161234f929190918252602082015260400190565b60405180910390a25050505050565b600063ffffffff8211156123c35760405162461bcd60e51b815260206004820152602660248201527f53616665436173743a2076616c756520646f65736e27742066697420696e203360448201526532206269747360d01b60648201526084016108db565b5090565b6000816000036123d957506000919050565b600060016123e6846128b2565b901c6001901b905060018184816123ff576123ff6131d6565b048201901c90506001818481612417576124176131d6565b048201901c9050600181848161242f5761242f6131d6565b048201901c90506001818481612447576124476131d6565b048201901c9050600181848161245f5761245f6131d6565b048201901c90506001818481612477576124776131d6565b048201901c9050600181848161248f5761248f6131d6565b048201901c9050610cbc818285816124a9576124a96131d6565b04612946565b60005b818310156125055760006124c6848461295c565b60008781526020902090915063ffffffff86169082015463ffffffff1611156124f1578092506124ff565b6124fc81600161323f565b93505b506124b2565b509392505050565b6000612562826040518060400160405280602081526020017f5361666545524332303a206c6f772d6c6576656c2063616c6c206661696c6564815250856001600160a01b03166129779092919063ffffffff16565b805190915015610bd2578080602001905181019061258091906133a4565b610bd25760405162461bcd60e51b815260206004820152602a60248201527f5361666545524332303a204552433230206f7065726174696f6e20646964206e6044820152691bdd081cdd58d8d9595960b21b60648201526084016108db565b6000610cbc828461323f565b600080612616856126116125fe88612056565b6001600160e01b0316868863ffffffff16565b612986565b915091505b935093915050565b6000610cbc8284613228565b600054610100900460ff166126565760405162461bcd60e51b81526004016108db90613410565b60ce61266283826134a9565b5060cf610bd282826134a9565b6000806fa2a8918ca85bafe22016d0b997e4df60600160ff1b0383111561269c5750600090506003612720565b6040805160008082526020820180845289905260ff881692820192909252606081018690526080810185905260019060a0016020604051602081039080840390855afa1580156126f0573d6000803e3d6000fd5b5050604051601f1901519150506001600160a01b03811661271957600060019250925050612720565b9150600090505b94509492505050565b600081600481111561273d5761273d613568565b036127455750565b600181600481111561275957612759613568565b036127a15760405162461bcd60e51b815260206004820152601860248201527745434453413a20696e76616c6964207369676e617475726560401b60448201526064016108db565b60028160048111156127b5576127b5613568565b036128025760405162461bcd60e51b815260206004820152601f60248201527f45434453413a20696e76616c6964207369676e6174757265206c656e6774680060448201526064016108db565b600381600481111561281657612816613568565b0361286e5760405162461bcd60e51b815260206004820152602260248201527f45434453413a20696e76616c6964207369676e6174757265202773272076616c604482015261756560f01b60648201526084016108db565b50565b600054610100900460ff166128985760405162461bcd60e51b81526004016108db90613410565b815160209283012081519190920120606591909155606655565b600080608083901c156128c757608092831c92015b604083901c156128d957604092831c92015b602083901c156128eb57602092831c92015b601083901c156128fd57601092831c92015b600883901c1561290f57600892831c92015b600483901c1561292157600492831c92015b600283901c1561293357600292831c92015b600183901c1561089b5760010192915050565b60008183106129555781610cbc565b5090919050565b600061296b60028484186131ec565b610cbc9084841661323f565b60606120ff84846000856129ba565b6000806129a4846129964361235e565b61299f86612a95565b612afe565b6001600160e01b03918216969116945092505050565b606082471015612a1b5760405162461bcd60e51b815260206004820152602660248201527f416464726573733a20696e73756666696369656e742062616c616e636520666f6044820152651c8818d85b1b60d21b60648201526084016108db565b600080866001600160a01b03168587604051612a37919061357e565b60006040518083038185875af1925050503d8060008114612a74576040519150601f19603f3d011682016040523d82523d6000602084013e612a79565b606091505b5091509150612a8a87838387612c97565b979650505050505050565b60006001600160e01b038211156123c35760405162461bcd60e51b815260206004820152602760248201527f53616665436173743a2076616c756520646f65736e27742066697420696e20326044820152663234206269747360c81b60648201526084016108db565b825460009081908015612c3e576000612b1c87611d26600185613228565b60408051808201909152905463ffffffff808216808452600160201b9092046001600160e01b031660208401529192509087161015612b975760405162461bcd60e51b8152602060048201526017602482015276436865636b706f696e743a20696e76616c6964206b657960481b60448201526064016108db565b805163ffffffff808816911603612bdf5784612bb888611d26600186613228565b80546001600160e01b0392909216600160201b0263ffffffff909216919091179055612c2e565b6040805180820190915263ffffffff80881682526001600160e01b0380881660208085019182528b54600181018d5560008d81529190912094519151909216600160201b029216919091179101555b60200151925083915061261b9050565b50506040805180820190915263ffffffff80851682526001600160e01b0380851660208085019182528854600181018a5560008a815291822095519251909316600160201b02919093161792019190915590508161261b565b60608315612d04578251600003612cfd57612cb185612016565b612cfd5760405162461bcd60e51b815260206004820152601d60248201527f416464726573733a2063616c6c20746f206e6f6e2d636f6e747261637400000060448201526064016108db565b50816120ff565b6120ff8383815115612d195781518083602001fd5b8060405162461bcd60e51b81526004016108db9190612df9565b600060208284031215612d4557600080fd5b81356001600160e01b031981168114610cbc57600080fd5b6001600160a01b038116811461286e57600080fd5b801515811461286e57600080fd5b60008060408385031215612d9357600080fd5b8235612d9e81612d5d565b91506020830135612dae81612d72565b809150509250929050565b6001600160a01b0391909116815260200190565b60005b83811015612de8578181015183820152602001612dd0565b8381111561111e5750506000910152565b6020815260008251806020840152612e18816040850160208701612dcd565b601f01601f19169190910160400192915050565b60008060408385031215612e3f57600080fd5b8235612e4a81612d5d565b946020939093013593505050565b600060208284031215612e6a57600080fd5b8135610cbc81612d5d565b60008060408385031215612e8857600080fd5b8235612e9381612d5d565b91506020830135612dae81612d5d565b600080600060608486031215612eb857600080fd5b8335612ec381612d5d565b92506020840135612ed381612d5d565b929592945050506040919091013590565b600060208284031215612ef657600080fd5b5035919050565b803563ffffffff81168114612f1157600080fd5b919050565b600080600060608486031215612f2b57600080fd5b8335612f3681612d5d565b92506020840135612f4681612d5d565b9150612f5460408501612efd565b90509250925092565b60008060408385031215612f7057600080fd5b823591506020830135612dae81612d5d565b60008060008060008060c08789031215612f9b57600080fd5b8635612fa681612d5d565b95506020870135945060408701359350606087013560ff81168114612fca57600080fd5b9598949750929560808101359460a0909101359350915050565b634e487b7160e01b600052604160045260246000fd5b604051601f8201601f191681016001600160401b038111828210171561302257613022612fe4565b604052919050565b60006001600160401b0382111561304357613043612fe4565b50601f01601f191660200190565b6000806040838503121561306457600080fd5b823561306f81612d5d565b915060208301356001600160401b0381111561308a57600080fd5b8301601f8101851361309b57600080fd5b80356130ae6130a98261302a565b612ffa565b8181528660208385010111156130c357600080fd5b816020840160208301376000602083830101528093505050509250929050565b600080600080600060a086880312156130fb57600080fd5b61310486612efd565b945061311260208701612efd565b935061312060408701612efd565b925060608601356001600160401b038116811461313c57600080fd5b915061314a60808701612efd565b90509295509295909350565b9182526001600160a01b0316602082015260400190565b600181811c9082168061318157607f821691505b60208210810361212957634e487b7160e01b600052602260045260246000fd5b634e487b7160e01b600052601160045260246000fd5b60008160001904831182151516156131d1576131d16131a1565b500290565b634e487b7160e01b600052601260045260246000fd5b6000826131fb576131fb6131d6565b500490565b600063ffffffff80831681851680830382111561321f5761321f6131a1565b01949350505050565b60008282101561323a5761323a6131a1565b500390565b60008219821115613252576132526131a1565b500190565b60006020828403121561326957600080fd5b5051919050565b6001600160a01b03929092168252602082015260400190565b6020808252602e908201527f496e697469616c697a61626c653a20636f6e747261637420697320616c72656160408201526d191e481a5b9a5d1a585b1a5e995960921b606082015260800190565b6000602082840312156132e957600080fd5b81516001600160401b038111156132ff57600080fd5b8201601f8101841361331057600080fd5b805161331e6130a98261302a565b81815285602083850101111561333357600080fd5b610b85826020830160208601612dcd565b61766560f01b815260008251613361816002850160208701612dcd565b9190910160020192915050565b6d03b32b9ba32b21032b9b1b937bb960951b81526000825161339781600e850160208701612dcd565b91909101600e0192915050565b6000602082840312156133b657600080fd5b8151610cbc81612d72565b600063ffffffff808416806133d8576133d86131d6565b92169190910492915050565b600063ffffffff80831681851681830481118215151615613407576134076131a1565b02949350505050565b6020808252602b908201527f496e697469616c697a61626c653a20636f6e7472616374206973206e6f74206960408201526a6e697469616c697a696e6760a81b606082015260800190565b601f821115610bd257600081815260208120601f850160051c810160208610156134825750805b601f850160051c820191505b818110156134a15782815560010161348e565b505050505050565b81516001600160401b038111156134c2576134c2612fe4565b6134d6816134d0845461316d565b8461345b565b602080601f83116001811461350b57600084156134f35750858301515b600019600386901b1c1916600185901b1785556134a1565b600085815260208120601f198616915b8281101561353a5788860151825594840194600190910190840161351b565b50858210156135585787850151600019600388901b60f8161c191681555b5050505050600190811b01905550565b634e487b7160e01b600052602160045260246000fd5b60008251613590818460208701612dcd565b919091019291505056fe5719df9ef2c4678b547f89e4f5ae410dbf400fc51cf3ded434c55f6adea2c43f7f26b83ff96e1f2b6a682f133852f6798a09c465da95921460cefb3847402498ddf252ad1be2c89b69c2b068fc378daa952ba7f163c4a11628f55a4df523b3efa49807205ce4d355092ef5a8a18f56e8913cf4a201fbe287825b095693c21775dec2bacdd2f05b59de34da9b523dff8be42e5e38e818c82fdb0bae774387a724a2646970667358221220fd451073cd9646a937930f55d880467421bbccf020d7fbc5a4e6bcde4a430b8864736f6c634300080f0033",
  "devdoc": {
    "kind": "dev",
    "methods": {
      "DOMAIN_SEPARATOR()": {
        "details": "Returns the contract's {EIP712} domain separator."
      },
      "allowance(address,address)": {
        "details": "See {IERC20-allowance}."
      },
      "approve(address,uint256)": {
        "details": "See {IERC20-approve}. NOTE: If `amount` is the maximum `uint256`, the allowance is not updated on `transferFrom`. This is semantically equivalent to an infinite approval. Requirements: - `spender` cannot be the zero address."
      },
      "balanceOf(address)": {
        "details": "See {IERC20-balanceOf}."
      },
      "burn(uint256)": {
        "details": "it's possible to burn veERC20 token, but the underlying token should be burn as well. Statistics, such is amount of already withdrawn stay the same"
      },
      "decimals()": {
        "details": "Returns the number of decimals used to get its user representation. For example, if `decimals` equals `2`, a balance of `505` tokens should be displayed to a user as `5.05` (`505 / 10 ** 2`). Tokens usually opt for a value of 18, imitating the relationship between Ether and Wei. This is the value {ERC20} uses, unless this function is overridden; NOTE: This information is only used for _display_ purposes: it in no way affects any of the arithmetic of the contract, including {IERC20-balanceOf} and {IERC20-transfer}."
      },
      "decreaseAllowance(address,uint256)": {
        "details": "Atomically decreases the allowance granted to `spender` by the caller. This is an alternative to {approve} that can be used as a mitigation for problems described in {IERC20-approve}. Emits an {Approval} event indicating the updated allowance. Requirements: - `spender` cannot be the zero address. - `spender` must have allowance for the caller of at least `subtractedValue`."
      },
      "delegate(address)": {
        "details": "Delegates votes from the sender to `delegatee`. It's DEPRECATED. Only contracts with SYSTEM_ROLE can call delegateOnBehalf(). (like VotingPower that has complex logic to work with SuVoteToken-like tokens)"
      },
      "delegateBySig(address,uint256,uint256,uint8,bytes32,bytes32)": {
        "details": "Delegates votes from signer to `delegatee`."
      },
      "delegateOnBehalf(address,address)": {
        "details": "Delegates votes from the account to `delegatee`."
      },
      "delegates(address)": {
        "details": "Returns the delegate that `account` has chosen."
      },
      "getPastTotalSupply(uint256)": {
        "details": "Returns the total supply of votes available at the end of a past block (`blockNumber`). NOTE: This value is the sum of all available votes, which is not necessarily the sum of all delegated votes. Votes that have not been delegated are still part of total supply, even though they would not participate in a vote. Requirements: - `blockNumber` must have been already mined"
      },
      "getPastVotes(address,uint256)": {
        "details": "Returns the amount of votes that `account` had at the end of a past block (`blockNumber`). Requirements: - `blockNumber` must have been already mined"
      },
      "getVotes(address)": {
        "details": "Returns the current amount of votes that `account` has."
      },
      "increaseAllowance(address,uint256)": {
        "details": "Atomically increases the allowance granted to `spender` by the caller. This is an alternative to {approve} that can be used as a mitigation for problems described in {IERC20-approve}. Emits an {Approval} event indicating the updated allowance. Requirements: - `spender` cannot be the zero address."
      },
      "lockUnderVesting(address,uint256)": {
        "params": {
          "account": "Beneficiary of the vesting account.",
          "amount": "Amount of tokens to be send, which will be deducted from msg.sender."
        }
      },
      "name()": {
        "details": "Returns the name of the token."
      },
      "nonces(address)": {
        "details": "Returns an address nonce."
      },
      "symbol()": {
        "details": "Returns the symbol of the token, usually a shorter version of the name."
      },
      "totalSupply()": {
        "details": "See {IERC20-totalSupply}."
      },
      "transfer(address,uint256)": {
        "details": "See {IERC20-transfer}. Requirements: - `to` cannot be the zero address. - the caller must have a balance of at least `amount`."
      },
      "transferFrom(address,address,uint256)": {
        "details": "See {IERC20-transferFrom}. Emits an {Approval} event indicating the updated allowance. This is not required by the EIP. See the note at the beginning of {ERC20}. NOTE: Does not update the allowance if the current allowance is the maximum `uint256`. Requirements: - `from` and `to` cannot be the zero address. - `from` must have a balance of at least `amount`. - the caller must have allowance for ``from``'s tokens of at least `amount`."
      }
    },
    "stateVariables": {
      "__gap": {
        "details": "This empty reserved space is put in place to allow future versions to add new variables without shifting down storage in the inheritance chain. See https://docs.openzeppelin.com/contracts/4.x/upgradeable#storage_gaps"
      }
    },
    "version": 1
  },
  "userdoc": {
    "kind": "user",
    "methods": {
      "lockUnderVesting(address,uint256)": {
        "notice": "Creates an account with time-vesting for the user and withdraws these tokens from msg.sender."
      }
    },
    "version": 1
  },
  "storageLayout": {
    "storage": [
      {
        "astId": 1102,
        "contract": "contracts/vested-escrow/VeERC20v2.sol:VeERC20v2",
        "label": "_initialized",
        "offset": 0,
        "slot": "0",
        "type": "t_uint8"
      },
      {
        "astId": 1105,
        "contract": "contracts/vested-escrow/VeERC20v2.sol:VeERC20v2",
        "label": "_initializing",
        "offset": 1,
        "slot": "0",
        "type": "t_bool"
      },
      {
        "astId": 6497,
        "contract": "contracts/vested-escrow/VeERC20v2.sol:VeERC20v2",
        "label": "__gap",
        "offset": 0,
        "slot": "1",
        "type": "t_array(t_uint256)50_storage"
      },
      {
        "astId": 24060,
        "contract": "contracts/vested-escrow/VeERC20v2.sol:VeERC20v2",
        "label": "ACCESS_CONTROL_SINGLETON",
        "offset": 0,
        "slot": "51",
        "type": "t_contract(ISuAccessControl)25627"
      },
      {
        "astId": 24147,
        "contract": "contracts/vested-escrow/VeERC20v2.sol:VeERC20v2",
        "label": "__gap",
        "offset": 0,
        "slot": "52",
        "type": "t_array(t_uint256)49_storage"
      },
      {
        "astId": 7117,
        "contract": "contracts/vested-escrow/VeERC20v2.sol:VeERC20v2",
        "label": "_HASHED_NAME",
        "offset": 0,
        "slot": "101",
        "type": "t_bytes32"
      },
      {
        "astId": 7119,
        "contract": "contracts/vested-escrow/VeERC20v2.sol:VeERC20v2",
        "label": "_HASHED_VERSION",
        "offset": 0,
        "slot": "102",
        "type": "t_bytes32"
      },
      {
        "astId": 7257,
        "contract": "contracts/vested-escrow/VeERC20v2.sol:VeERC20v2",
        "label": "__gap",
        "offset": 0,
        "slot": "103",
        "type": "t_array(t_uint256)50_storage"
      },
      {
        "astId": 664,
        "contract": "contracts/vested-escrow/VeERC20v2.sol:VeERC20v2",
        "label": "_delegation",
        "offset": 0,
        "slot": "153",
        "type": "t_mapping(t_address,t_address)"
      },
      {
        "astId": 669,
        "contract": "contracts/vested-escrow/VeERC20v2.sol:VeERC20v2",
        "label": "_delegateCheckpoints",
        "offset": 0,
        "slot": "154",
        "type": "t_mapping(t_address,t_struct(History)5098_storage)"
      },
      {
        "astId": 672,
        "contract": "contracts/vested-escrow/VeERC20v2.sol:VeERC20v2",
        "label": "_totalCheckpoints",
        "offset": 0,
        "slot": "155",
        "type": "t_struct(History)5098_storage"
      },
      {
        "astId": 677,
        "contract": "contracts/vested-escrow/VeERC20v2.sol:VeERC20v2",
        "label": "_nonces",
        "offset": 0,
        "slot": "156",
        "type": "t_mapping(t_address,t_struct(Counter)6504_storage)"
      },
      {
        "astId": 1091,
        "contract": "contracts/vested-escrow/VeERC20v2.sol:VeERC20v2",
        "label": "__gap",
        "offset": 0,
        "slot": "157",
        "type": "t_array(t_uint256)46_storage"
      },
      {
        "astId": 1283,
        "contract": "contracts/vested-escrow/VeERC20v2.sol:VeERC20v2",
        "label": "_balances",
        "offset": 0,
        "slot": "203",
        "type": "t_mapping(t_address,t_uint256)"
      },
      {
        "astId": 1289,
        "contract": "contracts/vested-escrow/VeERC20v2.sol:VeERC20v2",
        "label": "_allowances",
        "offset": 0,
        "slot": "204",
        "type": "t_mapping(t_address,t_mapping(t_address,t_uint256))"
      },
      {
        "astId": 1291,
        "contract": "contracts/vested-escrow/VeERC20v2.sol:VeERC20v2",
        "label": "_totalSupply",
        "offset": 0,
        "slot": "205",
        "type": "t_uint256"
      },
      {
        "astId": 1293,
        "contract": "contracts/vested-escrow/VeERC20v2.sol:VeERC20v2",
        "label": "_name",
        "offset": 0,
        "slot": "206",
        "type": "t_string_storage"
      },
      {
        "astId": 1295,
        "contract": "contracts/vested-escrow/VeERC20v2.sol:VeERC20v2",
        "label": "_symbol",
        "offset": 0,
        "slot": "207",
        "type": "t_string_storage"
      },
      {
        "astId": 1875,
        "contract": "contracts/vested-escrow/VeERC20v2.sol:VeERC20v2",
        "label": "__gap",
        "offset": 0,
        "slot": "208",
        "type": "t_array(t_uint256)45_storage"
      },
      {
        "astId": 27237,
        "contract": "contracts/vested-escrow/VeERC20v2.sol:VeERC20v2",
        "label": "LOCKED_TOKEN",
        "offset": 0,
        "slot": "253",
        "type": "t_contract(ERC20BurnableUpgradeable)2018"
      },
      {
        "astId": 27239,
        "contract": "contracts/vested-escrow/VeERC20v2.sol:VeERC20v2",
        "label": "tgeTimestamp",
        "offset": 20,
        "slot": "253",
        "type": "t_uint32"
      },
      {
        "astId": 27241,
        "contract": "contracts/vested-escrow/VeERC20v2.sol:VeERC20v2",
        "label": "tgeUnlockRatio1e18",
        "offset": 24,
        "slot": "253",
        "type": "t_uint64"
      },
      {
        "astId": 27243,
        "contract": "contracts/vested-escrow/VeERC20v2.sol:VeERC20v2",
        "label": "cliffSeconds",
        "offset": 0,
        "slot": "254",
        "type": "t_uint32"
      },
      {
        "astId": 27245,
        "contract": "contracts/vested-escrow/VeERC20v2.sol:VeERC20v2",
        "label": "vestingSeconds",
        "offset": 4,
        "slot": "254",
        "type": "t_uint32"
      },
      {
        "astId": 27247,
        "contract": "contracts/vested-escrow/VeERC20v2.sol:VeERC20v2",
        "label": "vestingFrequencySeconds",
        "offset": 8,
        "slot": "254",
        "type": "t_uint32"
      },
      {
        "astId": 27251,
        "contract": "contracts/vested-escrow/VeERC20v2.sol:VeERC20v2",
        "label": "alreadyWithdrawn",
        "offset": 0,
        "slot": "255",
        "type": "t_mapping(t_address,t_uint256)"
      },
      {
        "astId": 27255,
        "contract": "contracts/vested-escrow/VeERC20v2.sol:VeERC20v2",
        "label": "isTransferable",
        "offset": 0,
        "slot": "256",
        "type": "t_mapping(t_address,t_bool)"
      },
      {
        "astId": 27829,
        "contract": "contracts/vested-escrow/VeERC20v2.sol:VeERC20v2",
        "label": "__gap",
        "offset": 0,
        "slot": "257",
        "type": "t_array(t_uint256)49_storage"
      }
    ],
    "types": {
      "t_address": {
        "encoding": "inplace",
        "label": "address",
        "numberOfBytes": "20"
      },
      "t_array(t_struct(Checkpoint)5103_storage)dyn_storage": {
        "base": "t_struct(Checkpoint)5103_storage",
        "encoding": "dynamic_array",
        "label": "struct CheckpointsUpgradeable.Checkpoint[]",
        "numberOfBytes": "32"
      },
      "t_array(t_uint256)45_storage": {
        "base": "t_uint256",
        "encoding": "inplace",
        "label": "uint256[45]",
        "numberOfBytes": "1440"
      },
      "t_array(t_uint256)46_storage": {
        "base": "t_uint256",
        "encoding": "inplace",
        "label": "uint256[46]",
        "numberOfBytes": "1472"
      },
      "t_array(t_uint256)49_storage": {
        "base": "t_uint256",
        "encoding": "inplace",
        "label": "uint256[49]",
        "numberOfBytes": "1568"
      },
      "t_array(t_uint256)50_storage": {
        "base": "t_uint256",
        "encoding": "inplace",
        "label": "uint256[50]",
        "numberOfBytes": "1600"
      },
      "t_bool": {
        "encoding": "inplace",
        "label": "bool",
        "numberOfBytes": "1"
      },
      "t_bytes32": {
        "encoding": "inplace",
        "label": "bytes32",
        "numberOfBytes": "32"
      },
      "t_contract(ERC20BurnableUpgradeable)2018": {
        "encoding": "inplace",
        "label": "contract ERC20BurnableUpgradeable",
        "numberOfBytes": "20"
      },
      "t_contract(ISuAccessControl)25627": {
        "encoding": "inplace",
        "label": "contract ISuAccessControl",
        "numberOfBytes": "20"
      },
      "t_mapping(t_address,t_address)": {
        "encoding": "mapping",
        "key": "t_address",
        "label": "mapping(address => address)",
        "numberOfBytes": "32",
        "value": "t_address"
      },
      "t_mapping(t_address,t_bool)": {
        "encoding": "mapping",
        "key": "t_address",
        "label": "mapping(address => bool)",
        "numberOfBytes": "32",
        "value": "t_bool"
      },
      "t_mapping(t_address,t_mapping(t_address,t_uint256))": {
        "encoding": "mapping",
        "key": "t_address",
        "label": "mapping(address => mapping(address => uint256))",
        "numberOfBytes": "32",
        "value": "t_mapping(t_address,t_uint256)"
      },
      "t_mapping(t_address,t_struct(Counter)6504_storage)": {
        "encoding": "mapping",
        "key": "t_address",
        "label": "mapping(address => struct CountersUpgradeable.Counter)",
        "numberOfBytes": "32",
        "value": "t_struct(Counter)6504_storage"
      },
      "t_mapping(t_address,t_struct(History)5098_storage)": {
        "encoding": "mapping",
        "key": "t_address",
        "label": "mapping(address => struct CheckpointsUpgradeable.History)",
        "numberOfBytes": "32",
        "value": "t_struct(History)5098_storage"
      },
      "t_mapping(t_address,t_uint256)": {
        "encoding": "mapping",
        "key": "t_address",
        "label": "mapping(address => uint256)",
        "numberOfBytes": "32",
        "value": "t_uint256"
      },
      "t_string_storage": {
        "encoding": "bytes",
        "label": "string",
        "numberOfBytes": "32"
      },
      "t_struct(Checkpoint)5103_storage": {
        "encoding": "inplace",
        "label": "struct CheckpointsUpgradeable.Checkpoint",
        "members": [
          {
            "astId": 5100,
            "contract": "contracts/vested-escrow/VeERC20v2.sol:VeERC20v2",
            "label": "_blockNumber",
            "offset": 0,
            "slot": "0",
            "type": "t_uint32"
          },
          {
            "astId": 5102,
            "contract": "contracts/vested-escrow/VeERC20v2.sol:VeERC20v2",
            "label": "_value",
            "offset": 4,
            "slot": "0",
            "type": "t_uint224"
          }
        ],
        "numberOfBytes": "32"
      },
      "t_struct(Counter)6504_storage": {
        "encoding": "inplace",
        "label": "struct CountersUpgradeable.Counter",
        "members": [
          {
            "astId": 6503,
            "contract": "contracts/vested-escrow/VeERC20v2.sol:VeERC20v2",
            "label": "_value",
            "offset": 0,
            "slot": "0",
            "type": "t_uint256"
          }
        ],
        "numberOfBytes": "32"
      },
      "t_struct(History)5098_storage": {
        "encoding": "inplace",
        "label": "struct CheckpointsUpgradeable.History",
        "members": [
          {
            "astId": 5097,
            "contract": "contracts/vested-escrow/VeERC20v2.sol:VeERC20v2",
            "label": "_checkpoints",
            "offset": 0,
            "slot": "0",
            "type": "t_array(t_struct(Checkpoint)5103_storage)dyn_storage"
          }
        ],
        "numberOfBytes": "32"
      },
      "t_uint224": {
        "encoding": "inplace",
        "label": "uint224",
        "numberOfBytes": "28"
      },
      "t_uint256": {
        "encoding": "inplace",
        "label": "uint256",
        "numberOfBytes": "32"
      },
      "t_uint32": {
        "encoding": "inplace",
        "label": "uint32",
        "numberOfBytes": "4"
      },
      "t_uint64": {
        "encoding": "inplace",
        "label": "uint64",
        "numberOfBytes": "8"
      },
      "t_uint8": {
        "encoding": "inplace",
        "label": "uint8",
        "numberOfBytes": "1"
      }
    }
  }
}