{
  "address": "0xade0666299b24147b9498780ca581faaeB5Cd72D",
  "abi": [
    {
      "inputs": [
        {
          "internalType": "bytes32",
          "name": "role",
          "type": "bytes32"
        },
        {
          "internalType": "address",
          "name": "msgSender",
          "type": "address"
        }
      ],
      "name": "OnlyRoleError",
      "type": "error"
    },
    {
      "anonymous": false,
      "inputs": [
        {
          "indexed": true,
          "internalType": "address",
          "name": "owner",
          "type": "address"
        },
        {
          "indexed": true,
          "internalType": "address",
          "name": "spender",
          "type": "address"
        },
        {
          "indexed": false,
          "internalType": "uint256",
          "name": "value",
          "type": "uint256"
        }
      ],
      "name": "Approval",
      "type": "event"
    },
    {
      "anonymous": false,
      "inputs": [
        {
          "indexed": false,
          "internalType": "uint8",
          "name": "version",
          "type": "uint8"
        }
      ],
      "name": "Initialized",
      "type": "event"
    },
    {
      "anonymous": false,
      "inputs": [
        {
          "indexed": true,
          "internalType": "address",
          "name": "from",
          "type": "address"
        },
        {
          "indexed": true,
          "internalType": "address",
          "name": "to",
          "type": "address"
        },
        {
          "indexed": false,
          "internalType": "uint256",
          "name": "value",
          "type": "uint256"
        }
      ],
      "name": "Transfer",
      "type": "event"
    },
    {
      "inputs": [],
      "name": "ACCESS_CONTROL_SINGLETON",
      "outputs": [
        {
          "internalType": "contract ISuAccessControl",
          "name": "",
          "type": "address"
        }
      ],
      "stateMutability": "view",
      "type": "function"
    },
    {
      "inputs": [],
      "name": "ADMIN_ROLE",
      "outputs": [
        {
          "internalType": "bytes32",
          "name": "",
          "type": "bytes32"
        }
      ],
      "stateMutability": "view",
      "type": "function"
    },
    {
      "inputs": [],
      "name": "COMMUNITY_ADMIN_ROLE",
      "outputs": [
        {
          "internalType": "bytes32",
          "name": "",
          "type": "bytes32"
        }
      ],
      "stateMutability": "view",
      "type": "function"
    },
    {
      "inputs": [],
      "name": "DAO_ROLE",
      "outputs": [
        {
          "internalType": "bytes32",
          "name": "",
          "type": "bytes32"
        }
      ],
      "stateMutability": "view",
      "type": "function"
    },
    {
      "inputs": [],
      "name": "DEFAULT_ADMIN_ROLE",
      "outputs": [
        {
          "internalType": "bytes32",
          "name": "",
          "type": "bytes32"
        }
      ],
      "stateMutability": "view",
      "type": "function"
    },
    {
      "inputs": [],
      "name": "LOCKED_TOKEN",
      "outputs": [
        {
          "internalType": "contract ERC20Upgradeable",
          "name": "",
          "type": "address"
        }
      ],
      "stateMutability": "view",
      "type": "function"
    },
    {
      "inputs": [],
      "name": "TGE_MAX_TIMESTAMP",
      "outputs": [
        {
          "internalType": "uint32",
          "name": "",
          "type": "uint32"
        }
      ],
      "stateMutability": "view",
      "type": "function"
    },
    {
      "inputs": [
        {
          "internalType": "address",
          "name": "account",
          "type": "address"
        },
        {
          "internalType": "uint256",
          "name": "amount",
          "type": "uint256"
        }
      ],
      "name": "addBalance",
      "outputs": [],
      "stateMutability": "nonpayable",
      "type": "function"
    },
    {
      "inputs": [
        {
          "internalType": "address",
          "name": "owner",
          "type": "address"
        },
        {
          "internalType": "address",
          "name": "spender",
          "type": "address"
        }
      ],
      "name": "allowance",
      "outputs": [
        {
          "internalType": "uint256",
          "name": "",
          "type": "uint256"
        }
      ],
      "stateMutability": "view",
      "type": "function"
    },
    {
      "inputs": [
        {
          "internalType": "address",
          "name": "spender",
          "type": "address"
        },
        {
          "internalType": "uint256",
          "name": "amount",
          "type": "uint256"
        }
      ],
      "name": "approve",
      "outputs": [
        {
          "internalType": "bool",
          "name": "",
          "type": "bool"
        }
      ],
      "stateMutability": "nonpayable",
      "type": "function"
    },
    {
      "inputs": [
        {
          "internalType": "address",
          "name": "user",
          "type": "address"
        }
      ],
      "name": "availableToClaim",
      "outputs": [
        {
          "internalType": "uint256",
          "name": "",
          "type": "uint256"
        }
      ],
      "stateMutability": "view",
      "type": "function"
    },
    {
      "inputs": [
        {
          "internalType": "address",
          "name": "account",
          "type": "address"
        }
      ],
      "name": "balanceOf",
      "outputs": [
        {
          "internalType": "uint256",
          "name": "",
          "type": "uint256"
        }
      ],
      "stateMutability": "view",
      "type": "function"
    },
    {
      "inputs": [
        {
          "internalType": "uint256",
          "name": "amount",
          "type": "uint256"
        }
      ],
      "name": "burn",
      "outputs": [],
      "stateMutability": "nonpayable",
      "type": "function"
    },
    {
      "inputs": [],
      "name": "burnAll",
      "outputs": [],
      "stateMutability": "nonpayable",
      "type": "function"
    },
    {
      "inputs": [
        {
          "internalType": "address",
          "name": "account",
          "type": "address"
        },
        {
          "internalType": "uint256",
          "name": "amount",
          "type": "uint256"
        }
      ],
      "name": "burnFrom",
      "outputs": [],
      "stateMutability": "nonpayable",
      "type": "function"
    },
    {
      "inputs": [],
      "name": "claim",
      "outputs": [],
      "stateMutability": "nonpayable",
      "type": "function"
    },
    {
      "inputs": [],
      "name": "decimals",
      "outputs": [
        {
          "internalType": "uint8",
          "name": "",
          "type": "uint8"
        }
      ],
      "stateMutability": "view",
      "type": "function"
    },
    {
      "inputs": [
        {
          "internalType": "address",
          "name": "spender",
          "type": "address"
        },
        {
          "internalType": "uint256",
          "name": "subtractedValue",
          "type": "uint256"
        }
      ],
      "name": "decreaseAllowance",
      "outputs": [
        {
          "internalType": "bool",
          "name": "",
          "type": "bool"
        }
      ],
      "stateMutability": "nonpayable",
      "type": "function"
    },
    {
      "inputs": [
        {
          "internalType": "address",
          "name": "toAdmin",
          "type": "address"
        }
      ],
      "name": "donateTokens",
      "outputs": [],
      "stateMutability": "nonpayable",
      "type": "function"
    },
    {
      "inputs": [
        {
          "internalType": "bytes32",
          "name": "role",
          "type": "bytes32"
        }
      ],
      "name": "getRoleAdmin",
      "outputs": [
        {
          "internalType": "bytes32",
          "name": "",
          "type": "bytes32"
        }
      ],
      "stateMutability": "view",
      "type": "function"
    },
    {
      "inputs": [
        {
          "internalType": "bytes32",
          "name": "role",
          "type": "bytes32"
        },
        {
          "internalType": "address",
          "name": "account",
          "type": "address"
        }
      ],
      "name": "hasRole",
      "outputs": [
        {
          "internalType": "bool",
          "name": "",
          "type": "bool"
        }
      ],
      "stateMutability": "view",
      "type": "function"
    },
    {
      "inputs": [
        {
          "internalType": "address",
          "name": "spender",
          "type": "address"
        },
        {
          "internalType": "uint256",
          "name": "addedValue",
          "type": "uint256"
        }
      ],
      "name": "increaseAllowance",
      "outputs": [
        {
          "internalType": "bool",
          "name": "",
          "type": "bool"
        }
      ],
      "stateMutability": "nonpayable",
      "type": "function"
    },
    {
      "inputs": [
        {
          "internalType": "address",
          "name": "_accessControlSingleton",
          "type": "address"
        },
        {
          "internalType": "contract ERC20Upgradeable",
          "name": "_lockedToken",
          "type": "address"
        }
      ],
      "name": "initialize",
      "outputs": [],
      "stateMutability": "nonpayable",
      "type": "function"
    },
    {
      "inputs": [
        {
          "internalType": "address",
          "name": "account",
          "type": "address"
        },
        {
          "internalType": "uint256",
          "name": "amount",
          "type": "uint256"
        },
        {
          "internalType": "uint256",
          "name": "vestingSeconds",
          "type": "uint256"
        },
        {
          "internalType": "uint256",
          "name": "cliffSeconds",
          "type": "uint256"
        },
        {
          "internalType": "uint256",
          "name": "tgeUnlockRatio1e18",
          "type": "uint256"
        },
        {
          "internalType": "uint256",
          "name": "vestingFrequencySeconds",
          "type": "uint256"
        }
      ],
      "name": "lockUnderVesting",
      "outputs": [],
      "stateMutability": "nonpayable",
      "type": "function"
    },
    {
      "inputs": [],
      "name": "name",
      "outputs": [
        {
          "internalType": "string",
          "name": "",
          "type": "string"
        }
      ],
      "stateMutability": "view",
      "type": "function"
    },
    {
      "inputs": [
        {
          "internalType": "contract ERC20Upgradeable",
          "name": "token",
          "type": "address"
        }
      ],
      "name": "rescue",
      "outputs": [],
      "stateMutability": "nonpayable",
      "type": "function"
    },
    {
      "inputs": [
        {
          "internalType": "bytes4",
          "name": "interfaceId",
          "type": "bytes4"
        }
      ],
      "name": "supportsInterface",
      "outputs": [
        {
          "internalType": "bool",
          "name": "",
          "type": "bool"
        }
      ],
      "stateMutability": "view",
      "type": "function"
    },
    {
      "inputs": [],
      "name": "symbol",
      "outputs": [
        {
          "internalType": "string",
          "name": "",
          "type": "string"
        }
      ],
      "stateMutability": "view",
      "type": "function"
    },
    {
      "inputs": [],
      "name": "tgeTimestamp",
      "outputs": [
        {
          "internalType": "uint32",
          "name": "",
          "type": "uint32"
        }
      ],
      "stateMutability": "view",
      "type": "function"
    },
    {
      "inputs": [
        {
          "internalType": "address",
          "name": "user",
          "type": "address"
        }
      ],
      "name": "totalClaimed",
      "outputs": [
        {
          "internalType": "uint256",
          "name": "",
          "type": "uint256"
        }
      ],
      "stateMutability": "view",
      "type": "function"
    },
    {
      "inputs": [
        {
          "internalType": "address",
          "name": "user",
          "type": "address"
        }
      ],
      "name": "totalDeposited",
      "outputs": [
        {
          "internalType": "uint256",
          "name": "",
          "type": "uint256"
        }
      ],
      "stateMutability": "view",
      "type": "function"
    },
    {
      "inputs": [],
      "name": "totalSupply",
      "outputs": [
        {
          "internalType": "uint256",
          "name": "",
          "type": "uint256"
        }
      ],
      "stateMutability": "view",
      "type": "function"
    },
    {
      "inputs": [
        {
          "internalType": "address",
          "name": "",
          "type": "address"
        },
        {
          "internalType": "uint256",
          "name": "",
          "type": "uint256"
        }
      ],
      "name": "transfer",
      "outputs": [
        {
          "internalType": "bool",
          "name": "",
          "type": "bool"
        }
      ],
      "stateMutability": "nonpayable",
      "type": "function"
    },
    {
      "inputs": [
        {
          "internalType": "address",
          "name": "from",
          "type": "address"
        },
        {
          "internalType": "address",
          "name": "to",
          "type": "address"
        },
        {
          "internalType": "uint256",
          "name": "amount",
          "type": "uint256"
        }
      ],
      "name": "transferFrom",
      "outputs": [
        {
          "internalType": "bool",
          "name": "",
          "type": "bool"
        }
      ],
      "stateMutability": "nonpayable",
      "type": "function"
    },
    {
      "inputs": [
        {
          "internalType": "uint32",
          "name": "newTgeTimestamp",
          "type": "uint32"
        }
      ],
      "name": "updateTgeTimestamp",
      "outputs": [],
      "stateMutability": "nonpayable",
      "type": "function"
    },
    {
      "inputs": [
        {
          "internalType": "address",
          "name": "",
          "type": "address"
        }
      ],
      "name": "vestingInfo",
      "outputs": [
        {
          "internalType": "uint256",
          "name": "amountAlreadyWithdrawn",
          "type": "uint256"
        },
        {
          "internalType": "uint256",
          "name": "cliffSeconds",
          "type": "uint256"
        },
        {
          "internalType": "uint256",
          "name": "vestingSeconds",
          "type": "uint256"
        },
        {
          "internalType": "uint256",
          "name": "tgeUnlockRatio1e18",
          "type": "uint256"
        },
        {
          "internalType": "uint256",
          "name": "vestingFrequencySeconds",
          "type": "uint256"
        }
      ],
      "stateMutability": "view",
      "type": "function"
    },
    {
      "stateMutability": "payable",
      "type": "receive"
    }
  ],
  "numDeployments": 1,
  "solcInputHash": "e97f2c5d2d398fefa9f938d534248610",
  "bytecode": "0x608060405234801561001057600080fd5b50614a19806100206000396000f3fe6080604052600436106102135760003560e01c806375b238fc11610118578063a217fddf116100a0578063dd62ed3e1161006f578063dd62ed3e146107e2578063e9c265181461081f578063ea9e9a811461084a578063ef5d9ae814610875578063f78e633d146108b25761021a565b8063a217fddf14610712578063a4317ef41461073d578063a457c2d714610768578063a9059cbb146107a55761021a565b8063925bf5d4116100e7578063925bf5d41461065357806393a56edc1461067c57806395367f89146106a557806395d89b41146106d05780639975038c146106fb5761021a565b806375b238fc1461059957806379cc6790146105c4578063839006f2146105ed57806391d14854146106165761021a565b8063248a9ca31161019b578063485cc9551161016a578063485cc955146104b45780634e71d92d146104dd57806353055481146104f4578063692878621461053157806370a082311461055c5761021a565b8063248a9ca3146103e6578063313ce56714610423578063395093511461044e57806342966c681461048b5761021a565b8063095ea7b3116101e2578063095ea7b3146102db5780630da451881461031857806318160ddd1461035557806321e5383a1461038057806323b872dd146103a95761021a565b806301ffc9a71461021f57806303ee9f221461025c57806306fdde031461028757806308614362146102b25761021a565b3661021a57005b600080fd5b34801561022b57600080fd5b5061024660048036038101906102419190612d64565b6108f3565b6040516102539190612dac565b60405180910390f35b34801561026857600080fd5b50610271610998565b60405161027e9190612e46565b60405180910390f35b34801561029357600080fd5b5061029c6109be565b6040516102a99190612efa565b60405180910390f35b3480156102be57600080fd5b506102d960048036038101906102d49190612f5a565b610a50565b005b3480156102e757600080fd5b5061030260048036038101906102fd9190612fbd565b610bff565b60405161030f9190612dac565b60405180910390f35b34801561032457600080fd5b5061033f600480360381019061033a9190612f5a565b610c22565b60405161034c919061300c565b60405180910390f35b34801561036157600080fd5b5061036a610e28565b604051610377919061300c565b60405180910390f35b34801561038c57600080fd5b506103a760048036038101906103a29190612fbd565b610e32565b005b3480156103b557600080fd5b506103d060048036038101906103cb9190613027565b610e8f565b6040516103dd9190612dac565b60405180910390f35b3480156103f257600080fd5b5061040d600480360381019061040891906130b0565b610ebe565b60405161041a91906130ec565b60405180910390f35b34801561042f57600080fd5b50610438610f63565b6040516104459190613123565b60405180910390f35b34801561045a57600080fd5b5061047560048036038101906104709190612fbd565b610f6c565b6040516104829190612dac565b60405180910390f35b34801561049757600080fd5b506104b260048036038101906104ad919061313e565b610fa3565b005b3480156104c057600080fd5b506104db60048036038101906104d691906131a9565b610fb7565b005b3480156104e957600080fd5b506104f26112bf565b005b34801561050057600080fd5b5061051b60048036038101906105169190612f5a565b6113f3565b604051610528919061300c565b60405180910390f35b34801561053d57600080fd5b50610546611476565b604051610553919061320a565b60405180910390f35b34801561056857600080fd5b50610583600480360381019061057e9190612f5a565b61149c565b604051610590919061300c565b60405180910390f35b3480156105a557600080fd5b506105ae6114fb565b6040516105bb91906130ec565b60405180910390f35b3480156105d057600080fd5b506105eb60048036038101906105e69190612fbd565b61151f565b005b3480156105f957600080fd5b50610614600480360381019061060f9190613225565b61153f565b005b34801561062257600080fd5b5061063d60048036038101906106389190613252565b611749565b60405161064a9190612dac565b60405180910390f35b34801561065f57600080fd5b5061067a600480360381019061067591906132ce565b6117f1565b005b34801561068857600080fd5b506106a3600480360381019061069e91906132fb565b611917565b005b3480156106b157600080fd5b506106ba6119a5565b6040516106c791906130ec565b60405180910390f35b3480156106dc57600080fd5b506106e56119c9565b6040516106f29190612efa565b60405180910390f35b34801561070757600080fd5b50610710611a5b565b005b34801561071e57600080fd5b50610727611abd565b60405161073491906130ec565b60405180910390f35b34801561074957600080fd5b50610752611ac4565b60405161075f9190613397565b60405180910390f35b34801561077457600080fd5b5061078f600480360381019061078a9190612fbd565b611ada565b60405161079c9190612dac565b60405180910390f35b3480156107b157600080fd5b506107cc60048036038101906107c79190612fbd565b611b51565b6040516107d99190612dac565b60405180910390f35b3480156107ee57600080fd5b50610809600480360381019061080491906133b2565b611b8e565b604051610816919061300c565b60405180910390f35b34801561082b57600080fd5b50610834611c15565b60405161084191906130ec565b60405180910390f35b34801561085657600080fd5b5061085f611c1c565b60405161086c9190613397565b60405180910390f35b34801561088157600080fd5b5061089c60048036038101906108979190612f5a565b611c32565b6040516108a9919061300c565b60405180910390f35b3480156108be57600080fd5b506108d960048036038101906108d49190612f5a565b611c7e565b6040516108ea9594939291906133f2565b60405180910390f35b6000609760009054906101000a900473ffffffffffffffffffffffffffffffffffffffff1673ffffffffffffffffffffffffffffffffffffffff166301ffc9a7836040518263ffffffff1660e01b81526004016109509190613454565b602060405180830381865afa15801561096d573d6000803e3d6000fd5b505050506040513d601f19601f82011682018060405250810190610991919061349b565b9050919050565b609760009054906101000a900473ffffffffffffffffffffffffffffffffffffffff1681565b6060603680546109cd906134f7565b80601f01602080910402602001604051908101604052809291908181526020018280546109f9906134f7565b8015610a465780601f10610a1b57610100808354040283529160200191610a46565b820191906000526020600020905b815481529060010190602001808311610a2957829003601f168201915b5050505050905090565b60011515610a7e7fa49807205ce4d355092ef5a8a18f56e8913cf4a201fbe287825b095693c2177583611749565b151514610ac0576040517f08c379a0000000000000000000000000000000000000000000000000000000008152600401610ab790613574565b60405180910390fd5b6000610acb3361149c565b905060008111610b10576040517f08c379a0000000000000000000000000000000000000000000000000000000008152600401610b07906135e0565b60405180910390fd5b8067ffffffffffffffff1660ca60003373ffffffffffffffffffffffffffffffffffffffff1673ffffffffffffffffffffffffffffffffffffffff16815260200190815260200160002060000154610b68919061362f565b60ca60003373ffffffffffffffffffffffffffffffffffffffff1673ffffffffffffffffffffffffffffffffffffffff16815260200190815260200160002060000181905550610bfb828260c960009054906101000a900473ffffffffffffffffffffffffffffffffffffffff1673ffffffffffffffffffffffffffffffffffffffff16611cb49092919063ffffffff16565b5050565b600080610c0a611d3a565b9050610c17818585611d42565b600191505092915050565b60008060ca60008473ffffffffffffffffffffffffffffffffffffffff1673ffffffffffffffffffffffffffffffffffffffff1681526020019081526020016000206040518060a0016040529081600082015481526020016001820154815260200160028201548152602001600382015481526020016004820154815250509050600042905060c960189054906101000a900463ffffffff1663ffffffff16811015610cd357600092505050610e23565b6000670de0b6b3a76400008360600151610cec87611f0b565b610cf69190613685565b610d00919061370e565b9050826020015160c960189054906101000a900463ffffffff1663ffffffff16610d2a919061362f565b8210610e0d5781836040015160c960189054906101000a900463ffffffff1663ffffffff16610d59919061362f565b1015610d6f57610d6885611f0b565b9050610e0c565b6000610d7a86611f0b565b90506000846020015160c960189054906101000a900463ffffffff1663ffffffff16610da6919061362f565b84610db1919061373f565b9050600085602001518660400151610dc9919061373f565b905060008660800151876080015184610de2919061370e565b610dec9190613685565b9050818185610dfb9190613685565b610e05919061370e565b9450505050505b5b826000015181610e1d919061373f565b93505050505b919050565b6000603554905090565b610e8133308360c960009054906101000a900473ffffffffffffffffffffffffffffffffffffffff1673ffffffffffffffffffffffffffffffffffffffff16611f54909392919063ffffffff16565b610e8b8282611fdd565b5050565b600080610e9a611d3a565b9050610ea785828561213d565b610eb28585856121c9565b60019150509392505050565b6000609760009054906101000a900473ffffffffffffffffffffffffffffffffffffffff1673ffffffffffffffffffffffffffffffffffffffff1663248a9ca3836040518263ffffffff1660e01b8152600401610f1b91906130ec565b602060405180830381865afa158015610f38573d6000803e3d6000fd5b505050506040513d601f19601f82011682018060405250810190610f5c9190613788565b9050919050565b60006012905090565b600080610f77611d3a565b9050610f98818585610f898589611b8e565b610f93919061362f565b611d42565b600191505092915050565b610fb4610fae611d3a565b8261244b565b50565b60008060019054906101000a900460ff16159050808015610fe85750600160008054906101000a900460ff1660ff16105b806110155750610ff730612459565b1580156110145750600160008054906101000a900460ff1660ff16145b5b611054576040517f08c379a000000000000000000000000000000000000000000000000000000000815260040161104b90613827565b60405180910390fd5b60016000806101000a81548160ff021916908360ff1602179055508015611091576001600060016101000a81548160ff0219169083151502179055505b61109a8361247c565b6111c88273ffffffffffffffffffffffffffffffffffffffff166306fdde036040518163ffffffff1660e01b8152600401600060405180830381865afa1580156110e8573d6000803e3d6000fd5b505050506040513d6000823e3d601f19601f82011682018060405250810190611111919061396d565b6040516020016111219190613a18565b6040516020818303038152906040528373ffffffffffffffffffffffffffffffffffffffff166395d89b416040518163ffffffff1660e01b8152600401600060405180830381865afa15801561117b573d6000803e3d6000fd5b505050506040513d6000823e3d601f19601f820116820180604052508101906111a4919061396d565b6040516020016111b49190613a64565b60405160208183030381529060405261250f565b8160c960006101000a81548173ffffffffffffffffffffffffffffffffffffffff021916908373ffffffffffffffffffffffffffffffffffffffff160217905550636477df8060c960146101000a81548163ffffffff021916908363ffffffff16021790555060c960149054906101000a900463ffffffff1660c960186101000a81548163ffffffff021916908363ffffffff16021790555080156112ba5760008060016101000a81548160ff0219169083151502179055507f7f26b83ff96e1f2b6a682f133852f6798a09c465da95921460cefb384740249860016040516112b19190613ac5565b60405180910390a15b505050565b60006112ca33610c22565b90506000811161130f576040517f08c379a000000000000000000000000000000000000000000000000000000000815260040161130690613b2c565b60405180910390fd5b8060ca60003373ffffffffffffffffffffffffffffffffffffffff1673ffffffffffffffffffffffffffffffffffffffff1681526020019081526020016000206000015461135d919061362f565b60ca60003373ffffffffffffffffffffffffffffffffffffffff1673ffffffffffffffffffffffffffffffffffffffff168152602001908152602001600020600001819055506113f0338260c960009054906101000a900473ffffffffffffffffffffffffffffffffffffffff1673ffffffffffffffffffffffffffffffffffffffff16611cb49092919063ffffffff16565b50565b60003073ffffffffffffffffffffffffffffffffffffffff166370a08231836040518263ffffffff1660e01b815260040161142e9190613b5b565b602060405180830381865afa15801561144b573d6000803e3d6000fd5b505050506040513d601f19601f8201168201806040525081019061146f9190613b8b565b9050919050565b60c960009054906101000a900473ffffffffffffffffffffffffffffffffffffffff1681565b600060ca60008373ffffffffffffffffffffffffffffffffffffffff1673ffffffffffffffffffffffffffffffffffffffff168152602001908152602001600020600001546114ea83611f0b565b6114f4919061373f565b9050919050565b7fa49807205ce4d355092ef5a8a18f56e8913cf4a201fbe287825b095693c2177581565b6115318261152b611d3a565b8361213d565b61153b828261244b565b5050565b6000801b61154d8133611749565b6115905780336040517f37c2e343000000000000000000000000000000000000000000000000000000008152600401611587929190613bb8565b60405180910390fd5b60c960009054906101000a900473ffffffffffffffffffffffffffffffffffffffff1673ffffffffffffffffffffffffffffffffffffffff168273ffffffffffffffffffffffffffffffffffffffff1603611620576040517f08c379a000000000000000000000000000000000000000000000000000000000815260040161161790613c2d565b60405180910390fd5b600073ffffffffffffffffffffffffffffffffffffffff168273ffffffffffffffffffffffffffffffffffffffff16036116a0573373ffffffffffffffffffffffffffffffffffffffff166108fc479081150290604051600060405180830381858888f1935050505015801561169a573d6000803e3d6000fd5b50611745565b611744338373ffffffffffffffffffffffffffffffffffffffff166370a08231306040518263ffffffff1660e01b81526004016116dd9190613b5b565b602060405180830381865afa1580156116fa573d6000803e3d6000fd5b505050506040513d601f19601f8201168201806040525081019061171e9190613b8b565b8473ffffffffffffffffffffffffffffffffffffffff16611cb49092919063ffffffff16565b5b5050565b6000609760009054906101000a900473ffffffffffffffffffffffffffffffffffffffff1673ffffffffffffffffffffffffffffffffffffffff166391d1485484846040518363ffffffff1660e01b81526004016117a8929190613bb8565b602060405180830381865afa1580156117c5573d6000803e3d6000fd5b505050506040513d601f19601f820116820180604052508101906117e9919061349b565b905092915050565b6000801b6117ff8133611749565b6118425780336040517f37c2e343000000000000000000000000000000000000000000000000000000008152600401611839929190613bb8565b60405180910390fd5b8163ffffffff164263ffffffff161115611891576040517f08c379a000000000000000000000000000000000000000000000000000000000815260040161188890613cbf565b60405180910390fd5b60c960149054906101000a900463ffffffff1663ffffffff168263ffffffff1611156118f2576040517f08c379a00000000000000000000000000000000000000000000000000000000081526004016118e990613d51565b60405180910390fd5b8160c960186101000a81548163ffffffff021916908363ffffffff1602179055505050565b7fa49807205ce4d355092ef5a8a18f56e8913cf4a201fbe287825b095693c217756119428133611749565b6119855780336040517f37c2e34300000000000000000000000000000000000000000000000000000000815260040161197c929190613bb8565b60405180910390fd5b611992878686868661256c565b61199c8787610e32565b50505050505050565b7f0a7cc066f24e107ff77c42c8a1bdaf1a5f775fa4a74e45530aaf9c866368f65381565b6060603780546119d8906134f7565b80601f0160208091040260200160405190810160405280929190818152602001828054611a04906134f7565b8015611a515780601f10611a2657610100808354040283529160200191611a51565b820191906000526020600020905b815481529060010190602001808311611a3457829003601f168201915b5050505050905090565b6000611a6633611f0b565b9050611a723382612849565b600060ca60003373ffffffffffffffffffffffffffffffffffffffff1673ffffffffffffffffffffffffffffffffffffffff1681526020019081526020016000206000018190555050565b6000801b81565b60c960189054906101000a900463ffffffff1681565b600080611ae5611d3a565b90506000611af38286611b8e565b905083811015611b38576040517f08c379a0000000000000000000000000000000000000000000000000000000008152600401611b2f90613de3565b60405180910390fd5b611b458286868403611d42565b60019250505092915050565b60006040517f08c379a0000000000000000000000000000000000000000000000000000000008152600401611b8590613e75565b60405180910390fd5b6000603460008473ffffffffffffffffffffffffffffffffffffffff1673ffffffffffffffffffffffffffffffffffffffff16815260200190815260200160002060008373ffffffffffffffffffffffffffffffffffffffff1673ffffffffffffffffffffffffffffffffffffffff16815260200190815260200160002054905092915050565b6000801b81565b60c960149054906101000a900463ffffffff1681565b600060ca60008373ffffffffffffffffffffffffffffffffffffffff1673ffffffffffffffffffffffffffffffffffffffff168152602001908152602001600020600001549050919050565b60ca6020528060005260406000206000915090508060000154908060010154908060020154908060030154908060040154905085565b611d358363a9059cbb60e01b8484604051602401611cd3929190613e95565b604051602081830303815290604052907bffffffffffffffffffffffffffffffffffffffffffffffffffffffff19166020820180517bffffffffffffffffffffffffffffffffffffffffffffffffffffffff8381831617835250505050612a21565b505050565b600033905090565b600073ffffffffffffffffffffffffffffffffffffffff168373ffffffffffffffffffffffffffffffffffffffff1603611db1576040517f08c379a0000000000000000000000000000000000000000000000000000000008152600401611da890613f30565b60405180910390fd5b600073ffffffffffffffffffffffffffffffffffffffff168273ffffffffffffffffffffffffffffffffffffffff1603611e20576040517f08c379a0000000000000000000000000000000000000000000000000000000008152600401611e1790613fc2565b60405180910390fd5b80603460008573ffffffffffffffffffffffffffffffffffffffff1673ffffffffffffffffffffffffffffffffffffffff16815260200190815260200160002060008473ffffffffffffffffffffffffffffffffffffffff1673ffffffffffffffffffffffffffffffffffffffff168152602001908152602001600020819055508173ffffffffffffffffffffffffffffffffffffffff168373ffffffffffffffffffffffffffffffffffffffff167f8c5be1e5ebec7d5bd14f71427d1e84f3dd0314c0f7b2291e5b200ac8c7c3b92583604051611efe919061300c565b60405180910390a3505050565b6000603360008373ffffffffffffffffffffffffffffffffffffffff1673ffffffffffffffffffffffffffffffffffffffff168152602001908152602001600020549050919050565b611fd7846323b872dd60e01b858585604051602401611f7593929190613fe2565b604051602081830303815290604052907bffffffffffffffffffffffffffffffffffffffffffffffffffffffff19166020820180517bffffffffffffffffffffffffffffffffffffffffffffffffffffffff8381831617835250505050612a21565b50505050565b600073ffffffffffffffffffffffffffffffffffffffff168273ffffffffffffffffffffffffffffffffffffffff160361204c576040517f08c379a000000000000000000000000000000000000000000000000000000000815260040161204390614065565b60405180910390fd5b61205860008383612ae8565b806035600082825461206a919061362f565b9250508190555080603360008473ffffffffffffffffffffffffffffffffffffffff1673ffffffffffffffffffffffffffffffffffffffff16815260200190815260200160002060008282546120c0919061362f565b925050819055508173ffffffffffffffffffffffffffffffffffffffff16600073ffffffffffffffffffffffffffffffffffffffff167fddf252ad1be2c89b69c2b068fc378daa952ba7f163c4a11628f55a4df523b3ef83604051612125919061300c565b60405180910390a361213960008383612aed565b5050565b60006121498484611b8e565b90507fffffffffffffffffffffffffffffffffffffffffffffffffffffffffffffffff81146121c357818110156121b5576040517f08c379a00000000000000000000000000000000000000000000000000000000081526004016121ac906140d1565b60405180910390fd5b6121c28484848403611d42565b5b50505050565b600073ffffffffffffffffffffffffffffffffffffffff168373ffffffffffffffffffffffffffffffffffffffff1603612238576040517f08c379a000000000000000000000000000000000000000000000000000000000815260040161222f90614163565b60405180910390fd5b600073ffffffffffffffffffffffffffffffffffffffff168273ffffffffffffffffffffffffffffffffffffffff16036122a7576040517f08c379a000000000000000000000000000000000000000000000000000000000815260040161229e906141f5565b60405180910390fd5b6122b2838383612ae8565b6000603360008573ffffffffffffffffffffffffffffffffffffffff1673ffffffffffffffffffffffffffffffffffffffff16815260200190815260200160002054905081811015612339576040517f08c379a000000000000000000000000000000000000000000000000000000000815260040161233090614287565b60405180910390fd5b818103603360008673ffffffffffffffffffffffffffffffffffffffff1673ffffffffffffffffffffffffffffffffffffffff1681526020019081526020016000208190555081603360008573ffffffffffffffffffffffffffffffffffffffff1673ffffffffffffffffffffffffffffffffffffffff16815260200190815260200160002060008282546123ce919061362f565b925050819055508273ffffffffffffffffffffffffffffffffffffffff168473ffffffffffffffffffffffffffffffffffffffff167fddf252ad1be2c89b69c2b068fc378daa952ba7f163c4a11628f55a4df523b3ef84604051612432919061300c565b60405180910390a3612445848484612aed565b50505050565b6124558282612849565b5050565b6000808273ffffffffffffffffffffffffffffffffffffffff163b119050919050565b600060019054906101000a900460ff166124cb576040517f08c379a00000000000000000000000000000000000000000000000000000000081526004016124c290614319565b60405180910390fd5b80609760006101000a81548173ffffffffffffffffffffffffffffffffffffffff021916908373ffffffffffffffffffffffffffffffffffffffff16021790555050565b600060019054906101000a900460ff1661255e576040517f08c379a000000000000000000000000000000000000000000000000000000000815260040161255590614319565b60405180910390fd5b6125688282612af2565b5050565b838311156125af576040517f08c379a00000000000000000000000000000000000000000000000000000000081526004016125a6906143ab565b60405180910390fd5b670de0b6b3a76400008211156125fa576040517f08c379a00000000000000000000000000000000000000000000000000000000081526004016125f19061443d565b60405180910390fd5b8360ca60008773ffffffffffffffffffffffffffffffffffffffff1673ffffffffffffffffffffffffffffffffffffffff16815260200190815260200160002060020154101561268c578360ca60008773ffffffffffffffffffffffffffffffffffffffff1673ffffffffffffffffffffffffffffffffffffffff168152602001908152602001600020600201819055505b8260ca60008773ffffffffffffffffffffffffffffffffffffffff1673ffffffffffffffffffffffffffffffffffffffff16815260200190815260200160002060010154101561271e578260ca60008773ffffffffffffffffffffffffffffffffffffffff1673ffffffffffffffffffffffffffffffffffffffff168152602001908152602001600020600101819055505b8160ca60008773ffffffffffffffffffffffffffffffffffffffff1673ffffffffffffffffffffffffffffffffffffffff1681526020019081526020016000206003015411156127b0578160ca60008773ffffffffffffffffffffffffffffffffffffffff1673ffffffffffffffffffffffffffffffffffffffff168152602001908152602001600020600301819055505b8060ca60008773ffffffffffffffffffffffffffffffffffffffff1673ffffffffffffffffffffffffffffffffffffffff168152602001908152602001600020600401541015612842578060ca60008773ffffffffffffffffffffffffffffffffffffffff1673ffffffffffffffffffffffffffffffffffffffff168152602001908152602001600020600401819055505b5050505050565b600073ffffffffffffffffffffffffffffffffffffffff168273ffffffffffffffffffffffffffffffffffffffff16036128b8576040517f08c379a00000000000000000000000000000000000000000000000000000000081526004016128af906144cf565b60405180910390fd5b6128c482600083612ae8565b6000603360008473ffffffffffffffffffffffffffffffffffffffff1673ffffffffffffffffffffffffffffffffffffffff1681526020019081526020016000205490508181101561294b576040517f08c379a000000000000000000000000000000000000000000000000000000000815260040161294290614561565b60405180910390fd5b818103603360008573ffffffffffffffffffffffffffffffffffffffff1673ffffffffffffffffffffffffffffffffffffffff1681526020019081526020016000208190555081603560008282546129a3919061373f565b92505081905550600073ffffffffffffffffffffffffffffffffffffffff168373ffffffffffffffffffffffffffffffffffffffff167fddf252ad1be2c89b69c2b068fc378daa952ba7f163c4a11628f55a4df523b3ef84604051612a08919061300c565b60405180910390a3612a1c83600084612aed565b505050565b6000612a83826040518060400160405280602081526020017f5361666545524332303a206c6f772d6c6576656c2063616c6c206661696c65648152508573ffffffffffffffffffffffffffffffffffffffff16612b659092919063ffffffff16565b9050600081511115612ae35780806020019051810190612aa3919061349b565b612ae2576040517f08c379a0000000000000000000000000000000000000000000000000000000008152600401612ad9906145f3565b60405180910390fd5b5b505050565b505050565b505050565b600060019054906101000a900460ff16612b41576040517f08c379a0000000000000000000000000000000000000000000000000000000008152600401612b3890614319565b60405180910390fd5b8160369081612b5091906147b5565b508060379081612b6091906147b5565b505050565b6060612b748484600085612b7d565b90509392505050565b606082471015612bc2576040517f08c379a0000000000000000000000000000000000000000000000000000000008152600401612bb9906148f9565b60405180910390fd5b612bcb85612459565b612c0a576040517f08c379a0000000000000000000000000000000000000000000000000000000008152600401612c0190614965565b60405180910390fd5b6000808673ffffffffffffffffffffffffffffffffffffffff168587604051612c3391906149cc565b60006040518083038185875af1925050503d8060008114612c70576040519150601f19603f3d011682016040523d82523d6000602084013e612c75565b606091505b5091509150612c85828286612c91565b92505050949350505050565b60608315612ca157829050612cf1565b600083511115612cb45782518084602001fd5b816040517f08c379a0000000000000000000000000000000000000000000000000000000008152600401612ce89190612efa565b60405180910390fd5b9392505050565b6000604051905090565b600080fd5b600080fd5b60007fffffffff0000000000000000000000000000000000000000000000000000000082169050919050565b612d4181612d0c565b8114612d4c57600080fd5b50565b600081359050612d5e81612d38565b92915050565b600060208284031215612d7a57612d79612d02565b5b6000612d8884828501612d4f565b91505092915050565b60008115159050919050565b612da681612d91565b82525050565b6000602082019050612dc16000830184612d9d565b92915050565b600073ffffffffffffffffffffffffffffffffffffffff82169050919050565b6000819050919050565b6000612e0c612e07612e0284612dc7565b612de7565b612dc7565b9050919050565b6000612e1e82612df1565b9050919050565b6000612e3082612e13565b9050919050565b612e4081612e25565b82525050565b6000602082019050612e5b6000830184612e37565b92915050565b600081519050919050565b600082825260208201905092915050565b60005b83811015612e9b578082015181840152602081019050612e80565b83811115612eaa576000848401525b50505050565b6000601f19601f8301169050919050565b6000612ecc82612e61565b612ed68185612e6c565b9350612ee6818560208601612e7d565b612eef81612eb0565b840191505092915050565b60006020820190508181036000830152612f148184612ec1565b905092915050565b6000612f2782612dc7565b9050919050565b612f3781612f1c565b8114612f4257600080fd5b50565b600081359050612f5481612f2e565b92915050565b600060208284031215612f7057612f6f612d02565b5b6000612f7e84828501612f45565b91505092915050565b6000819050919050565b612f9a81612f87565b8114612fa557600080fd5b50565b600081359050612fb781612f91565b92915050565b60008060408385031215612fd457612fd3612d02565b5b6000612fe285828601612f45565b9250506020612ff385828601612fa8565b9150509250929050565b61300681612f87565b82525050565b60006020820190506130216000830184612ffd565b92915050565b6000806000606084860312156130405761303f612d02565b5b600061304e86828701612f45565b935050602061305f86828701612f45565b925050604061307086828701612fa8565b9150509250925092565b6000819050919050565b61308d8161307a565b811461309857600080fd5b50565b6000813590506130aa81613084565b92915050565b6000602082840312156130c6576130c5612d02565b5b60006130d48482850161309b565b91505092915050565b6130e68161307a565b82525050565b600060208201905061310160008301846130dd565b92915050565b600060ff82169050919050565b61311d81613107565b82525050565b60006020820190506131386000830184613114565b92915050565b60006020828403121561315457613153612d02565b5b600061316284828501612fa8565b91505092915050565b600061317682612f1c565b9050919050565b6131868161316b565b811461319157600080fd5b50565b6000813590506131a38161317d565b92915050565b600080604083850312156131c0576131bf612d02565b5b60006131ce85828601612f45565b92505060206131df85828601613194565b9150509250929050565b60006131f482612e13565b9050919050565b613204816131e9565b82525050565b600060208201905061321f60008301846131fb565b92915050565b60006020828403121561323b5761323a612d02565b5b600061324984828501613194565b91505092915050565b6000806040838503121561326957613268612d02565b5b60006132778582860161309b565b925050602061328885828601612f45565b9150509250929050565b600063ffffffff82169050919050565b6132ab81613292565b81146132b657600080fd5b50565b6000813590506132c8816132a2565b92915050565b6000602082840312156132e4576132e3612d02565b5b60006132f2848285016132b9565b91505092915050565b60008060008060008060c0878903121561331857613317612d02565b5b600061332689828a01612f45565b965050602061333789828a01612fa8565b955050604061334889828a01612fa8565b945050606061335989828a01612fa8565b935050608061336a89828a01612fa8565b92505060a061337b89828a01612fa8565b9150509295509295509295565b61339181613292565b82525050565b60006020820190506133ac6000830184613388565b92915050565b600080604083850312156133c9576133c8612d02565b5b60006133d785828601612f45565b92505060206133e885828601612f45565b9150509250929050565b600060a0820190506134076000830188612ffd565b6134146020830187612ffd565b6134216040830186612ffd565b61342e6060830185612ffd565b61343b6080830184612ffd565b9695505050505050565b61344e81612d0c565b82525050565b60006020820190506134696000830184613445565b92915050565b61347881612d91565b811461348357600080fd5b50565b6000815190506134958161346f565b92915050565b6000602082840312156134b1576134b0612d02565b5b60006134bf84828501613486565b91505092915050565b7f4e487b7100000000000000000000000000000000000000000000000000000000600052602260045260246000fd5b6000600282049050600182168061350f57607f821691505b602082108103613522576135216134c8565b5b50919050565b7f696e76616c69642061646d696e20616464726573730000000000000000000000600082015250565b600061355e601583612e6c565b915061356982613528565b602082019050919050565b6000602082019050818103600083015261358d81613551565b9050919050565b7f6e6f7468696e6720746f20646f6e617465000000000000000000000000000000600082015250565b60006135ca601183612e6c565b91506135d582613594565b602082019050919050565b600060208201905081810360008301526135f9816135bd565b9050919050565b7f4e487b7100000000000000000000000000000000000000000000000000000000600052601160045260246000fd5b600061363a82612f87565b915061364583612f87565b9250827fffffffffffffffffffffffffffffffffffffffffffffffffffffffffffffffff0382111561367a57613679613600565b5b828201905092915050565b600061369082612f87565b915061369b83612f87565b9250817fffffffffffffffffffffffffffffffffffffffffffffffffffffffffffffffff04831182151516156136d4576136d3613600565b5b828202905092915050565b7f4e487b7100000000000000000000000000000000000000000000000000000000600052601260045260246000fd5b600061371982612f87565b915061372483612f87565b925082613734576137336136df565b5b828204905092915050565b600061374a82612f87565b915061375583612f87565b92508282101561376857613767613600565b5b828203905092915050565b60008151905061378281613084565b92915050565b60006020828403121561379e5761379d612d02565b5b60006137ac84828501613773565b91505092915050565b7f496e697469616c697a61626c653a20636f6e747261637420697320616c72656160008201527f647920696e697469616c697a6564000000000000000000000000000000000000602082015250565b6000613811602e83612e6c565b915061381c826137b5565b604082019050919050565b6000602082019050818103600083015261384081613804565b9050919050565b600080fd5b600080fd5b7f4e487b7100000000000000000000000000000000000000000000000000000000600052604160045260246000fd5b61388982612eb0565b810181811067ffffffffffffffff821117156138a8576138a7613851565b5b80604052505050565b60006138bb612cf8565b90506138c78282613880565b919050565b600067ffffffffffffffff8211156138e7576138e6613851565b5b6138f082612eb0565b9050602081019050919050565b600061391061390b846138cc565b6138b1565b90508281526020810184848401111561392c5761392b61384c565b5b613937848285612e7d565b509392505050565b600082601f83011261395457613953613847565b5b81516139648482602086016138fd565b91505092915050565b60006020828403121561398357613982612d02565b5b600082015167ffffffffffffffff8111156139a1576139a0612d07565b5b6139ad8482850161393f565b91505092915050565b7f76657374656420657363726f7720000000000000000000000000000000000000815250565b600081905092915050565b60006139f282612e61565b6139fc81856139dc565b9350613a0c818560208601612e7d565b80840191505092915050565b6000613a23826139b6565b600e82019150613a3382846139e7565b915081905092915050565b7f7665000000000000000000000000000000000000000000000000000000000000815250565b6000613a6f82613a3e565b600282019150613a7f82846139e7565b915081905092915050565b6000819050919050565b6000613aaf613aaa613aa584613a8a565b612de7565b613107565b9050919050565b613abf81613a94565b82525050565b6000602082019050613ada6000830184613ab6565b92915050565b7f43616e277420636c61696d203020746f6b656e73000000000000000000000000600082015250565b6000613b16601483612e6c565b9150613b2182613ae0565b602082019050919050565b60006020820190508181036000830152613b4581613b09565b9050919050565b613b5581612f1c565b82525050565b6000602082019050613b706000830184613b4c565b92915050565b600081519050613b8581612f91565b92915050565b600060208284031215613ba157613ba0612d02565b5b6000613baf84828501613b76565b91505092915050565b6000604082019050613bcd60008301856130dd565b613bda6020830184613b4c565b9392505050565b7f4e6f20616c6c6f77656420746f20726573637565207468697320746f6b656e00600082015250565b6000613c17601f83612e6c565b9150613c2282613be1565b602082019050919050565b60006020820190508181036000830152613c4681613c0a565b9050919050565b7f766545524332303a2054474520646174652063616e277420626520696e20746860008201527f6520706173740000000000000000000000000000000000000000000000000000602082015250565b6000613ca9602683612e6c565b9150613cb482613c4d565b604082019050919050565b60006020820190508181036000830152613cd881613c9c565b9050919050565b7f766545524332303a206e6577205447452064617465206973206265796f6e642060008201527f6c696d6974000000000000000000000000000000000000000000000000000000602082015250565b6000613d3b602583612e6c565b9150613d4682613cdf565b604082019050919050565b60006020820190508181036000830152613d6a81613d2e565b9050919050565b7f45524332303a2064656372656173656420616c6c6f77616e63652062656c6f7760008201527f207a65726f000000000000000000000000000000000000000000000000000000602082015250565b6000613dcd602583612e6c565b9150613dd882613d71565b604082019050919050565b60006020820190508181036000830152613dfc81613dc0565b9050919050565b7f6e6f7420706f737369626c6520746f207472616e73666572207665737465642060008201527f746f6b656e000000000000000000000000000000000000000000000000000000602082015250565b6000613e5f602583612e6c565b9150613e6a82613e03565b604082019050919050565b60006020820190508181036000830152613e8e81613e52565b9050919050565b6000604082019050613eaa6000830185613b4c565b613eb76020830184612ffd565b9392505050565b7f45524332303a20617070726f76652066726f6d20746865207a65726f2061646460008201527f7265737300000000000000000000000000000000000000000000000000000000602082015250565b6000613f1a602483612e6c565b9150613f2582613ebe565b604082019050919050565b60006020820190508181036000830152613f4981613f0d565b9050919050565b7f45524332303a20617070726f766520746f20746865207a65726f20616464726560008201527f7373000000000000000000000000000000000000000000000000000000000000602082015250565b6000613fac602283612e6c565b9150613fb782613f50565b604082019050919050565b60006020820190508181036000830152613fdb81613f9f565b9050919050565b6000606082019050613ff76000830186613b4c565b6140046020830185613b4c565b6140116040830184612ffd565b949350505050565b7f45524332303a206d696e7420746f20746865207a65726f206164647265737300600082015250565b600061404f601f83612e6c565b915061405a82614019565b602082019050919050565b6000602082019050818103600083015261407e81614042565b9050919050565b7f45524332303a20696e73756666696369656e7420616c6c6f77616e6365000000600082015250565b60006140bb601d83612e6c565b91506140c682614085565b602082019050919050565b600060208201905081810360008301526140ea816140ae565b9050919050565b7f45524332303a207472616e736665722066726f6d20746865207a65726f20616460008201527f6472657373000000000000000000000000000000000000000000000000000000602082015250565b600061414d602583612e6c565b9150614158826140f1565b604082019050919050565b6000602082019050818103600083015261417c81614140565b9050919050565b7f45524332303a207472616e7366657220746f20746865207a65726f206164647260008201527f6573730000000000000000000000000000000000000000000000000000000000602082015250565b60006141df602383612e6c565b91506141ea82614183565b604082019050919050565b6000602082019050818103600083015261420e816141d2565b9050919050565b7f45524332303a207472616e7366657220616d6f756e742065786365656473206260008201527f616c616e63650000000000000000000000000000000000000000000000000000602082015250565b6000614271602683612e6c565b915061427c82614215565b604082019050919050565b600060208201905081810360008301526142a081614264565b9050919050565b7f496e697469616c697a61626c653a20636f6e7472616374206973206e6f74206960008201527f6e697469616c697a696e67000000000000000000000000000000000000000000602082015250565b6000614303602b83612e6c565b915061430e826142a7565b604082019050919050565b60006020820190508181036000830152614332816142f6565b9050919050565b7f636c69666654696d652073686f756c64206265206c657373207468656e20766560008201527f7374696e6754696d650000000000000000000000000000000000000000000000602082015250565b6000614395602983612e6c565b91506143a082614339565b604082019050919050565b600060208201905081810360008301526143c481614388565b9050919050565b7f746765556e6c6f636b526174696f2073686f756c64206265206c65737320746860008201527f616e203100000000000000000000000000000000000000000000000000000000602082015250565b6000614427602483612e6c565b9150614432826143cb565b604082019050919050565b600060208201905081810360008301526144568161441a565b9050919050565b7f45524332303a206275726e2066726f6d20746865207a65726f2061646472657360008201527f7300000000000000000000000000000000000000000000000000000000000000602082015250565b60006144b9602183612e6c565b91506144c48261445d565b604082019050919050565b600060208201905081810360008301526144e8816144ac565b9050919050565b7f45524332303a206275726e20616d6f756e7420657863656564732062616c616e60008201527f6365000000000000000000000000000000000000000000000000000000000000602082015250565b600061454b602283612e6c565b9150614556826144ef565b604082019050919050565b6000602082019050818103600083015261457a8161453e565b9050919050565b7f5361666545524332303a204552433230206f7065726174696f6e20646964206e60008201527f6f74207375636365656400000000000000000000000000000000000000000000602082015250565b60006145dd602a83612e6c565b91506145e882614581565b604082019050919050565b6000602082019050818103600083015261460c816145d0565b9050919050565b60008190508160005260206000209050919050565b60006020601f8301049050919050565b600082821b905092915050565b6000600883026146757fffffffffffffffffffffffffffffffffffffffffffffffffffffffffffffffff82614638565b61467f8683614638565b95508019841693508086168417925050509392505050565b60006146b26146ad6146a884612f87565b612de7565b612f87565b9050919050565b6000819050919050565b6146cc83614697565b6146e06146d8826146b9565b848454614645565b825550505050565b600090565b6146f56146e8565b6147008184846146c3565b505050565b5b81811015614724576147196000826146ed565b600181019050614706565b5050565b601f8211156147695761473a81614613565b61474384614628565b81016020851015614752578190505b61476661475e85614628565b830182614705565b50505b505050565b600082821c905092915050565b600061478c6000198460080261476e565b1980831691505092915050565b60006147a5838361477b565b9150826002028217905092915050565b6147be82612e61565b67ffffffffffffffff8111156147d7576147d6613851565b5b6147e182546134f7565b6147ec828285614728565b600060209050601f83116001811461481f576000841561480d578287015190505b6148178582614799565b86555061487f565b601f19841661482d86614613565b60005b8281101561485557848901518255600182019150602085019450602081019050614830565b86831015614872578489015161486e601f89168261477b565b8355505b6001600288020188555050505b505050505050565b7f416464726573733a20696e73756666696369656e742062616c616e636520666f60008201527f722063616c6c0000000000000000000000000000000000000000000000000000602082015250565b60006148e3602683612e6c565b91506148ee82614887565b604082019050919050565b60006020820190508181036000830152614912816148d6565b9050919050565b7f416464726573733a2063616c6c20746f206e6f6e2d636f6e7472616374000000600082015250565b600061494f601d83612e6c565b915061495a82614919565b602082019050919050565b6000602082019050818103600083015261497e81614942565b9050919050565b600081519050919050565b600081905092915050565b60006149a682614985565b6149b08185614990565b93506149c0818560208601612e7d565b80840191505092915050565b60006149d8828461499b565b91508190509291505056fea2646970667358221220a5a8e45d0eb48db1b630517ff5bcb099779016d7a5e2dee1812b5c07edf18f5e64736f6c634300080f0033",
  "devdoc": {
    "kind": "dev",
    "methods": {
      "addBalance(address,uint256)": {
        "params": {
          "account": "Beneficiary of the vesting account.",
          "amount": "Amount of token to be send to user under vesting, which will be deducted from msg.sender."
        }
      },
      "allowance(address,address)": {
        "details": "See {IERC20-allowance}."
      },
      "approve(address,uint256)": {
        "details": "See {IERC20-approve}. NOTE: If `amount` is the maximum `uint256`, the allowance is not updated on `transferFrom`. This is semantically equivalent to an infinite approval. Requirements: - `spender` cannot be the zero address."
      },
      "availableToClaim(address)": {
        "returns": {
          "_0": "Returns amount of tokens the users can withdraw right now."
        }
      },
      "balanceOf(address)": {
        "details": "See {IERC20-balanceOf}."
      },
      "burn(uint256)": {
        "details": "Destroys `amount` tokens from the caller. See {ERC20-_burn}."
      },
      "burnFrom(address,uint256)": {
        "details": "Destroys `amount` tokens from `account`, deducting from the caller's allowance. See {ERC20-_burn} and {ERC20-allowance}. Requirements: - the caller must have allowance for ``accounts``'s tokens of at least `amount`."
      },
      "decimals()": {
        "details": "Returns the number of decimals used to get its user representation. For example, if `decimals` equals `2`, a balance of `505` tokens should be displayed to a user as `5.05` (`505 / 10 ** 2`). Tokens usually opt for a value of 18, imitating the relationship between Ether and Wei. This is the value {ERC20} uses, unless this function is overridden; NOTE: This information is only used for _display_ purposes: it in no way affects any of the arithmetic of the contract, including {IERC20-balanceOf} and {IERC20-transfer}."
      },
      "decreaseAllowance(address,uint256)": {
        "details": "Atomically decreases the allowance granted to `spender` by the caller. This is an alternative to {approve} that can be used as a mitigation for problems described in {IERC20-approve}. Emits an {Approval} event indicating the updated allowance. Requirements: - `spender` cannot be the zero address. - `spender` must have allowance for the caller of at least `subtractedValue`."
      },
      "increaseAllowance(address,uint256)": {
        "details": "Atomically increases the allowance granted to `spender` by the caller. This is an alternative to {approve} that can be used as a mitigation for problems described in {IERC20-approve}. Emits an {Approval} event indicating the updated allowance. Requirements: - `spender` cannot be the zero address."
      },
      "lockUnderVesting(address,uint256,uint256,uint256,uint256,uint256)": {
        "params": {
          "account": "Beneficiary of the vesting account.",
          "amount": "Amount of tokens to be send, which will be deducted from msg.sender.",
          "cliffSeconds": "Amount of seconds while tokens would be completely locked.",
          "tgeUnlockRatio1e18": "ratio/1e18  [0..1] that indicates how many tokens are going to be unlocked during TGE",
          "vestingFrequencySeconds": "how frequently token are going to be unlocked after the cliff.",
          "vestingSeconds": "Amount of seconds when linear vesting would be over. Starts from cliff."
        }
      },
      "name()": {
        "details": "Returns the name of the token."
      },
      "symbol()": {
        "details": "Returns the symbol of the token, usually a shorter version of the name."
      },
      "totalSupply()": {
        "details": "See {IERC20-totalSupply}."
      },
      "transferFrom(address,address,uint256)": {
        "details": "See {IERC20-transferFrom}. Emits an {Approval} event indicating the updated allowance. This is not required by the EIP. See the note at the beginning of {ERC20}. NOTE: Does not update the allowance if the current allowance is the maximum `uint256`. Requirements: - `from` and `to` cannot be the zero address. - `from` must have a balance of at least `amount`. - the caller must have allowance for ``from``'s tokens of at least `amount`."
      }
    },
    "stateVariables": {
      "__gap": {
        "details": "This empty reserved space is put in place to allow future versions to add new variables without shifting down storage in the inheritance chain. See https://docs.openzeppelin.com/contracts/4.x/upgradeable#storage_gaps"
      }
    },
    "version": 1
  },
  "userdoc": {
    "kind": "user",
    "methods": {
      "addBalance(address,uint256)": {
        "notice": "Adds more tokens to the existing (possibly zero) vesting account. Doesn't change vesting period!"
      },
      "availableToClaim(address)": {
        "notice": "Checks amount of vested tokens minus already withdrawn."
      },
      "claim()": {
        "notice": "User can claim their vested tokens."
      },
      "donateTokens(address)": {
        "notice": "User can donate tokens under vesting to DAO or other admin contract as us treasury."
      },
      "lockUnderVesting(address,uint256,uint256,uint256,uint256,uint256)": {
        "notice": "Creates an account with time-vesting for the user and withdraws these tokens from msg.sender."
      },
      "rescue(address)": {
        "notice": "The owner of the contact can take away tokens accidentally sent to the contract."
      },
      "totalClaimed(address)": {
        "notice": "Total amount of token user had claimed."
      },
      "totalDeposited(address)": {
        "notice": "Total amount of token was deposited under vesting on behalf of the user."
      },
      "updateTgeTimestamp(uint32)": {
        "notice": "owner of the contract can set up TGE date within set limits."
      }
    },
    "version": 1
  },
  "storageLayout": {
    "storage": [
      {
        "astId": 497,
        "contract": "contracts/vested-escrow/VeERC20.sol:VeERC20",
        "label": "_initialized",
        "offset": 0,
        "slot": "0",
        "type": "t_uint8"
      },
      {
        "astId": 500,
        "contract": "contracts/vested-escrow/VeERC20.sol:VeERC20",
        "label": "_initializing",
        "offset": 1,
        "slot": "0",
        "type": "t_bool"
      },
      {
        "astId": 4310,
        "contract": "contracts/vested-escrow/VeERC20.sol:VeERC20",
        "label": "__gap",
        "offset": 0,
        "slot": "1",
        "type": "t_array(t_uint256)50_storage"
      },
      {
        "astId": 660,
        "contract": "contracts/vested-escrow/VeERC20.sol:VeERC20",
        "label": "_balances",
        "offset": 0,
        "slot": "51",
        "type": "t_mapping(t_address,t_uint256)"
      },
      {
        "astId": 666,
        "contract": "contracts/vested-escrow/VeERC20.sol:VeERC20",
        "label": "_allowances",
        "offset": 0,
        "slot": "52",
        "type": "t_mapping(t_address,t_mapping(t_address,t_uint256))"
      },
      {
        "astId": 668,
        "contract": "contracts/vested-escrow/VeERC20.sol:VeERC20",
        "label": "_totalSupply",
        "offset": 0,
        "slot": "53",
        "type": "t_uint256"
      },
      {
        "astId": 670,
        "contract": "contracts/vested-escrow/VeERC20.sol:VeERC20",
        "label": "_name",
        "offset": 0,
        "slot": "54",
        "type": "t_string_storage"
      },
      {
        "astId": 672,
        "contract": "contracts/vested-escrow/VeERC20.sol:VeERC20",
        "label": "_symbol",
        "offset": 0,
        "slot": "55",
        "type": "t_string_storage"
      },
      {
        "astId": 1251,
        "contract": "contracts/vested-escrow/VeERC20.sol:VeERC20",
        "label": "__gap",
        "offset": 0,
        "slot": "56",
        "type": "t_array(t_uint256)45_storage"
      },
      {
        "astId": 1393,
        "contract": "contracts/vested-escrow/VeERC20.sol:VeERC20",
        "label": "__gap",
        "offset": 0,
        "slot": "101",
        "type": "t_array(t_uint256)50_storage"
      },
      {
        "astId": 11612,
        "contract": "contracts/vested-escrow/VeERC20.sol:VeERC20",
        "label": "ACCESS_CONTROL_SINGLETON",
        "offset": 0,
        "slot": "151",
        "type": "t_contract(ISuAccessControl)12922"
      },
      {
        "astId": 11699,
        "contract": "contracts/vested-escrow/VeERC20.sol:VeERC20",
        "label": "__gap",
        "offset": 0,
        "slot": "152",
        "type": "t_array(t_uint256)49_storage"
      },
      {
        "astId": 13200,
        "contract": "contracts/vested-escrow/VeERC20.sol:VeERC20",
        "label": "LOCKED_TOKEN",
        "offset": 0,
        "slot": "201",
        "type": "t_contract(ERC20Upgradeable)1252"
      },
      {
        "astId": 13202,
        "contract": "contracts/vested-escrow/VeERC20.sol:VeERC20",
        "label": "TGE_MAX_TIMESTAMP",
        "offset": 20,
        "slot": "201",
        "type": "t_uint32"
      },
      {
        "astId": 13204,
        "contract": "contracts/vested-escrow/VeERC20.sol:VeERC20",
        "label": "tgeTimestamp",
        "offset": 24,
        "slot": "201",
        "type": "t_uint32"
      },
      {
        "astId": 13220,
        "contract": "contracts/vested-escrow/VeERC20.sol:VeERC20",
        "label": "vestingInfo",
        "offset": 0,
        "slot": "202",
        "type": "t_mapping(t_address,t_struct(VestingInfo)13215_storage)"
      },
      {
        "astId": 13845,
        "contract": "contracts/vested-escrow/VeERC20.sol:VeERC20",
        "label": "__gap",
        "offset": 0,
        "slot": "203",
        "type": "t_array(t_uint256)49_storage"
      }
    ],
    "types": {
      "t_address": {
        "encoding": "inplace",
        "label": "address",
        "numberOfBytes": "20"
      },
      "t_array(t_uint256)45_storage": {
        "base": "t_uint256",
        "encoding": "inplace",
        "label": "uint256[45]",
        "numberOfBytes": "1440"
      },
      "t_array(t_uint256)49_storage": {
        "base": "t_uint256",
        "encoding": "inplace",
        "label": "uint256[49]",
        "numberOfBytes": "1568"
      },
      "t_array(t_uint256)50_storage": {
        "base": "t_uint256",
        "encoding": "inplace",
        "label": "uint256[50]",
        "numberOfBytes": "1600"
      },
      "t_bool": {
        "encoding": "inplace",
        "label": "bool",
        "numberOfBytes": "1"
      },
      "t_contract(ERC20Upgradeable)1252": {
        "encoding": "inplace",
        "label": "contract ERC20Upgradeable",
        "numberOfBytes": "20"
      },
      "t_contract(ISuAccessControl)12922": {
        "encoding": "inplace",
        "label": "contract ISuAccessControl",
        "numberOfBytes": "20"
      },
      "t_mapping(t_address,t_mapping(t_address,t_uint256))": {
        "encoding": "mapping",
        "key": "t_address",
        "label": "mapping(address => mapping(address => uint256))",
        "numberOfBytes": "32",
        "value": "t_mapping(t_address,t_uint256)"
      },
      "t_mapping(t_address,t_struct(VestingInfo)13215_storage)": {
        "encoding": "mapping",
        "key": "t_address",
        "label": "mapping(address => struct VeERC20.VestingInfo)",
        "numberOfBytes": "32",
        "value": "t_struct(VestingInfo)13215_storage"
      },
      "t_mapping(t_address,t_uint256)": {
        "encoding": "mapping",
        "key": "t_address",
        "label": "mapping(address => uint256)",
        "numberOfBytes": "32",
        "value": "t_uint256"
      },
      "t_string_storage": {
        "encoding": "bytes",
        "label": "string",
        "numberOfBytes": "32"
      },
      "t_struct(VestingInfo)13215_storage": {
        "encoding": "inplace",
        "label": "struct VeERC20.VestingInfo",
        "members": [
          {
            "astId": 13206,
            "contract": "contracts/vested-escrow/VeERC20.sol:VeERC20",
            "label": "amountAlreadyWithdrawn",
            "offset": 0,
            "slot": "0",
            "type": "t_uint256"
          },
          {
            "astId": 13208,
            "contract": "contracts/vested-escrow/VeERC20.sol:VeERC20",
            "label": "cliffSeconds",
            "offset": 0,
            "slot": "1",
            "type": "t_uint256"
          },
          {
            "astId": 13210,
            "contract": "contracts/vested-escrow/VeERC20.sol:VeERC20",
            "label": "vestingSeconds",
            "offset": 0,
            "slot": "2",
            "type": "t_uint256"
          },
          {
            "astId": 13212,
            "contract": "contracts/vested-escrow/VeERC20.sol:VeERC20",
            "label": "tgeUnlockRatio1e18",
            "offset": 0,
            "slot": "3",
            "type": "t_uint256"
          },
          {
            "astId": 13214,
            "contract": "contracts/vested-escrow/VeERC20.sol:VeERC20",
            "label": "vestingFrequencySeconds",
            "offset": 0,
            "slot": "4",
            "type": "t_uint256"
          }
        ],
        "numberOfBytes": "160"
      },
      "t_uint256": {
        "encoding": "inplace",
        "label": "uint256",
        "numberOfBytes": "32"
      },
      "t_uint32": {
        "encoding": "inplace",
        "label": "uint32",
        "numberOfBytes": "4"
      },
      "t_uint8": {
        "encoding": "inplace",
        "label": "uint8",
        "numberOfBytes": "1"
      }
    }
  }
}