{
  "address": "0x1674F9fef547ebE387ecBA232831200cAee840B6",
  "abi": [
    {
      "inputs": [
        {
          "internalType": "bytes32",
          "name": "role",
          "type": "bytes32"
        },
        {
          "internalType": "address",
          "name": "msgSender",
          "type": "address"
        }
      ],
      "name": "OnlyRoleError",
      "type": "error"
    },
    {
      "anonymous": false,
      "inputs": [
        {
          "indexed": true,
          "internalType": "address",
          "name": "owner",
          "type": "address"
        },
        {
          "indexed": true,
          "internalType": "address",
          "name": "spender",
          "type": "address"
        },
        {
          "indexed": false,
          "internalType": "uint256",
          "name": "value",
          "type": "uint256"
        }
      ],
      "name": "Approval",
      "type": "event"
    },
    {
      "anonymous": false,
      "inputs": [
        {
          "indexed": false,
          "internalType": "uint8",
          "name": "version",
          "type": "uint8"
        }
      ],
      "name": "Initialized",
      "type": "event"
    },
    {
      "anonymous": false,
      "inputs": [
        {
          "indexed": true,
          "internalType": "address",
          "name": "from",
          "type": "address"
        },
        {
          "indexed": true,
          "internalType": "address",
          "name": "to",
          "type": "address"
        },
        {
          "indexed": false,
          "internalType": "uint256",
          "name": "value",
          "type": "uint256"
        }
      ],
      "name": "Transfer",
      "type": "event"
    },
    {
      "inputs": [],
      "name": "ACCESS_CONTROL_SINGLETON",
      "outputs": [
        {
          "internalType": "contract ISuAccessControl",
          "name": "",
          "type": "address"
        }
      ],
      "stateMutability": "view",
      "type": "function"
    },
    {
      "inputs": [],
      "name": "ADMIN_ROLE",
      "outputs": [
        {
          "internalType": "bytes32",
          "name": "",
          "type": "bytes32"
        }
      ],
      "stateMutability": "view",
      "type": "function"
    },
    {
      "inputs": [],
      "name": "COMMUNITY_ADMIN_ROLE",
      "outputs": [
        {
          "internalType": "bytes32",
          "name": "",
          "type": "bytes32"
        }
      ],
      "stateMutability": "view",
      "type": "function"
    },
    {
      "inputs": [],
      "name": "DAO_ROLE",
      "outputs": [
        {
          "internalType": "bytes32",
          "name": "",
          "type": "bytes32"
        }
      ],
      "stateMutability": "view",
      "type": "function"
    },
    {
      "inputs": [],
      "name": "DEFAULT_ADMIN_ROLE",
      "outputs": [
        {
          "internalType": "bytes32",
          "name": "",
          "type": "bytes32"
        }
      ],
      "stateMutability": "view",
      "type": "function"
    },
    {
      "inputs": [],
      "name": "LOCKED_TOKEN",
      "outputs": [
        {
          "internalType": "contract ERC20Upgradeable",
          "name": "",
          "type": "address"
        }
      ],
      "stateMutability": "view",
      "type": "function"
    },
    {
      "inputs": [],
      "name": "TGE_MAX_TIMESTAMP",
      "outputs": [
        {
          "internalType": "uint32",
          "name": "",
          "type": "uint32"
        }
      ],
      "stateMutability": "view",
      "type": "function"
    },
    {
      "inputs": [
        {
          "internalType": "address",
          "name": "account",
          "type": "address"
        },
        {
          "internalType": "uint256",
          "name": "amount",
          "type": "uint256"
        }
      ],
      "name": "addBalance",
      "outputs": [],
      "stateMutability": "nonpayable",
      "type": "function"
    },
    {
      "inputs": [
        {
          "internalType": "address",
          "name": "owner",
          "type": "address"
        },
        {
          "internalType": "address",
          "name": "spender",
          "type": "address"
        }
      ],
      "name": "allowance",
      "outputs": [
        {
          "internalType": "uint256",
          "name": "",
          "type": "uint256"
        }
      ],
      "stateMutability": "view",
      "type": "function"
    },
    {
      "inputs": [
        {
          "internalType": "address",
          "name": "spender",
          "type": "address"
        },
        {
          "internalType": "uint256",
          "name": "amount",
          "type": "uint256"
        }
      ],
      "name": "approve",
      "outputs": [
        {
          "internalType": "bool",
          "name": "",
          "type": "bool"
        }
      ],
      "stateMutability": "nonpayable",
      "type": "function"
    },
    {
      "inputs": [
        {
          "internalType": "address",
          "name": "user",
          "type": "address"
        }
      ],
      "name": "availableToClaim",
      "outputs": [
        {
          "internalType": "uint256",
          "name": "",
          "type": "uint256"
        }
      ],
      "stateMutability": "view",
      "type": "function"
    },
    {
      "inputs": [
        {
          "internalType": "address",
          "name": "account",
          "type": "address"
        }
      ],
      "name": "balanceOf",
      "outputs": [
        {
          "internalType": "uint256",
          "name": "",
          "type": "uint256"
        }
      ],
      "stateMutability": "view",
      "type": "function"
    },
    {
      "inputs": [],
      "name": "claim",
      "outputs": [],
      "stateMutability": "nonpayable",
      "type": "function"
    },
    {
      "inputs": [],
      "name": "decimals",
      "outputs": [
        {
          "internalType": "uint8",
          "name": "",
          "type": "uint8"
        }
      ],
      "stateMutability": "view",
      "type": "function"
    },
    {
      "inputs": [
        {
          "internalType": "address",
          "name": "spender",
          "type": "address"
        },
        {
          "internalType": "uint256",
          "name": "subtractedValue",
          "type": "uint256"
        }
      ],
      "name": "decreaseAllowance",
      "outputs": [
        {
          "internalType": "bool",
          "name": "",
          "type": "bool"
        }
      ],
      "stateMutability": "nonpayable",
      "type": "function"
    },
    {
      "inputs": [
        {
          "internalType": "address",
          "name": "toAdmin",
          "type": "address"
        }
      ],
      "name": "donateTokens",
      "outputs": [],
      "stateMutability": "nonpayable",
      "type": "function"
    },
    {
      "inputs": [
        {
          "internalType": "bytes32",
          "name": "role",
          "type": "bytes32"
        }
      ],
      "name": "getRoleAdmin",
      "outputs": [
        {
          "internalType": "bytes32",
          "name": "",
          "type": "bytes32"
        }
      ],
      "stateMutability": "view",
      "type": "function"
    },
    {
      "inputs": [
        {
          "internalType": "bytes32",
          "name": "role",
          "type": "bytes32"
        },
        {
          "internalType": "address",
          "name": "account",
          "type": "address"
        }
      ],
      "name": "hasRole",
      "outputs": [
        {
          "internalType": "bool",
          "name": "",
          "type": "bool"
        }
      ],
      "stateMutability": "view",
      "type": "function"
    },
    {
      "inputs": [
        {
          "internalType": "address",
          "name": "spender",
          "type": "address"
        },
        {
          "internalType": "uint256",
          "name": "addedValue",
          "type": "uint256"
        }
      ],
      "name": "increaseAllowance",
      "outputs": [
        {
          "internalType": "bool",
          "name": "",
          "type": "bool"
        }
      ],
      "stateMutability": "nonpayable",
      "type": "function"
    },
    {
      "inputs": [
        {
          "internalType": "address",
          "name": "_accessControlSingleton",
          "type": "address"
        },
        {
          "internalType": "contract ERC20Upgradeable",
          "name": "_lockedToken",
          "type": "address"
        }
      ],
      "name": "initialize",
      "outputs": [],
      "stateMutability": "nonpayable",
      "type": "function"
    },
    {
      "inputs": [
        {
          "internalType": "address",
          "name": "account",
          "type": "address"
        },
        {
          "internalType": "uint256",
          "name": "amount",
          "type": "uint256"
        },
        {
          "internalType": "uint256",
          "name": "vestingSeconds",
          "type": "uint256"
        },
        {
          "internalType": "uint256",
          "name": "cliffSeconds",
          "type": "uint256"
        },
        {
          "internalType": "uint256",
          "name": "tgeUnlockRatio1e18",
          "type": "uint256"
        },
        {
          "internalType": "uint256",
          "name": "vestingFrequencySeconds",
          "type": "uint256"
        }
      ],
      "name": "lockUnderVesting",
      "outputs": [],
      "stateMutability": "nonpayable",
      "type": "function"
    },
    {
      "inputs": [],
      "name": "name",
      "outputs": [
        {
          "internalType": "string",
          "name": "",
          "type": "string"
        }
      ],
      "stateMutability": "view",
      "type": "function"
    },
    {
      "inputs": [
        {
          "internalType": "contract ERC20Upgradeable",
          "name": "token",
          "type": "address"
        }
      ],
      "name": "rescue",
      "outputs": [],
      "stateMutability": "nonpayable",
      "type": "function"
    },
    {
      "inputs": [
        {
          "internalType": "bytes4",
          "name": "interfaceId",
          "type": "bytes4"
        }
      ],
      "name": "supportsInterface",
      "outputs": [
        {
          "internalType": "bool",
          "name": "",
          "type": "bool"
        }
      ],
      "stateMutability": "view",
      "type": "function"
    },
    {
      "inputs": [],
      "name": "symbol",
      "outputs": [
        {
          "internalType": "string",
          "name": "",
          "type": "string"
        }
      ],
      "stateMutability": "view",
      "type": "function"
    },
    {
      "inputs": [],
      "name": "tgeTimestamp",
      "outputs": [
        {
          "internalType": "uint32",
          "name": "",
          "type": "uint32"
        }
      ],
      "stateMutability": "view",
      "type": "function"
    },
    {
      "inputs": [
        {
          "internalType": "address",
          "name": "user",
          "type": "address"
        }
      ],
      "name": "totalClaimed",
      "outputs": [
        {
          "internalType": "uint256",
          "name": "",
          "type": "uint256"
        }
      ],
      "stateMutability": "view",
      "type": "function"
    },
    {
      "inputs": [
        {
          "internalType": "address",
          "name": "user",
          "type": "address"
        }
      ],
      "name": "totalDeposited",
      "outputs": [
        {
          "internalType": "uint256",
          "name": "",
          "type": "uint256"
        }
      ],
      "stateMutability": "view",
      "type": "function"
    },
    {
      "inputs": [],
      "name": "totalSupply",
      "outputs": [
        {
          "internalType": "uint256",
          "name": "",
          "type": "uint256"
        }
      ],
      "stateMutability": "view",
      "type": "function"
    },
    {
      "inputs": [
        {
          "internalType": "address",
          "name": "to",
          "type": "address"
        },
        {
          "internalType": "uint256",
          "name": "amount",
          "type": "uint256"
        }
      ],
      "name": "transfer",
      "outputs": [
        {
          "internalType": "bool",
          "name": "",
          "type": "bool"
        }
      ],
      "stateMutability": "nonpayable",
      "type": "function"
    },
    {
      "inputs": [
        {
          "internalType": "address",
          "name": "from",
          "type": "address"
        },
        {
          "internalType": "address",
          "name": "to",
          "type": "address"
        },
        {
          "internalType": "uint256",
          "name": "amount",
          "type": "uint256"
        }
      ],
      "name": "transferFrom",
      "outputs": [
        {
          "internalType": "bool",
          "name": "",
          "type": "bool"
        }
      ],
      "stateMutability": "nonpayable",
      "type": "function"
    },
    {
      "inputs": [
        {
          "internalType": "uint32",
          "name": "newTgeTimestamp",
          "type": "uint32"
        }
      ],
      "name": "updateTgeTimestamp",
      "outputs": [],
      "stateMutability": "nonpayable",
      "type": "function"
    },
    {
      "inputs": [
        {
          "internalType": "address",
          "name": "",
          "type": "address"
        }
      ],
      "name": "vestingInfo",
      "outputs": [
        {
          "internalType": "uint256",
          "name": "amountAlreadyWithdrawn",
          "type": "uint256"
        },
        {
          "internalType": "uint256",
          "name": "cliffSeconds",
          "type": "uint256"
        },
        {
          "internalType": "uint256",
          "name": "vestingSeconds",
          "type": "uint256"
        },
        {
          "internalType": "uint256",
          "name": "tgeUnlockRatio1e18",
          "type": "uint256"
        },
        {
          "internalType": "uint256",
          "name": "vestingFrequencySeconds",
          "type": "uint256"
        }
      ],
      "stateMutability": "view",
      "type": "function"
    },
    {
      "stateMutability": "payable",
      "type": "receive"
    }
  ],
  "numDeployments": 1,
  "solcInputHash": "2f5cafe94f7820e257db8b8525424f74",
  "bytecode": "0x608060405234801561001057600080fd5b50614516806100206000396000f3fe6080604052600436106101f25760003560e01c806370a082311161010d578063a217fddf116100a0578063dd62ed3e1161006f578063dd62ed3e14610758578063e9c2651814610795578063ea9e9a81146107c0578063ef5d9ae8146107eb578063f78e633d14610828576101f9565b8063a217fddf14610688578063a4317ef4146106b3578063a457c2d7146106de578063a9059cbb1461071b576101f9565b8063925bf5d4116100dc578063925bf5d4146105e057806393a56edc1461060957806395367f891461063257806395d89b411461065d576101f9565b806370a082311461051257806375b238fc1461054f578063839006f21461057a57806391d14854146105a3576101f9565b806323b872dd11610185578063485cc95511610154578063485cc9551461046a5780634e71d92d1461049357806353055481146104aa57806369287862146104e7576101f9565b806323b872dd14610388578063248a9ca3146103c5578063313ce56714610402578063395093511461042d576101f9565b8063095ea7b3116101c1578063095ea7b3146102ba5780630da45188146102f757806318160ddd1461033457806321e5383a1461035f576101f9565b806301ffc9a7146101fe57806303ee9f221461023b57806306fdde03146102665780630861436214610291576101f9565b366101f957005b600080fd5b34801561020a57600080fd5b5061022560048036038101906102209190612a44565b610869565b6040516102329190612a8c565b60405180910390f35b34801561024757600080fd5b5061025061090e565b60405161025d9190612b26565b60405180910390f35b34801561027257600080fd5b5061027b610934565b6040516102889190612bda565b60405180910390f35b34801561029d57600080fd5b506102b860048036038101906102b39190612c3a565b6109c6565b005b3480156102c657600080fd5b506102e160048036038101906102dc9190612c9d565b610b75565b6040516102ee9190612a8c565b60405180910390f35b34801561030357600080fd5b5061031e60048036038101906103199190612c3a565b610b98565b60405161032b9190612cec565b60405180910390f35b34801561034057600080fd5b50610349610d9e565b6040516103569190612cec565b60405180910390f35b34801561036b57600080fd5b5061038660048036038101906103819190612c9d565b610da8565b005b34801561039457600080fd5b506103af60048036038101906103aa9190612d07565b610e05565b6040516103bc9190612a8c565b60405180910390f35b3480156103d157600080fd5b506103ec60048036038101906103e79190612d90565b610e34565b6040516103f99190612dcc565b60405180910390f35b34801561040e57600080fd5b50610417610ed9565b6040516104249190612e03565b60405180910390f35b34801561043957600080fd5b50610454600480360381019061044f9190612c9d565b610ee2565b6040516104619190612a8c565b60405180910390f35b34801561047657600080fd5b50610491600480360381019061048c9190612e5c565b610f19565b005b34801561049f57600080fd5b506104a8611221565b005b3480156104b657600080fd5b506104d160048036038101906104cc9190612c3a565b611355565b6040516104de9190612cec565b60405180910390f35b3480156104f357600080fd5b506104fc6113d8565b6040516105099190612ebd565b60405180910390f35b34801561051e57600080fd5b5061053960048036038101906105349190612c3a565b6113fe565b6040516105469190612cec565b60405180910390f35b34801561055b57600080fd5b5061056461145d565b6040516105719190612dcc565b60405180910390f35b34801561058657600080fd5b506105a1600480360381019061059c9190612ed8565b611481565b005b3480156105af57600080fd5b506105ca60048036038101906105c59190612f05565b61168b565b6040516105d79190612a8c565b60405180910390f35b3480156105ec57600080fd5b5061060760048036038101906106029190612f81565b611733565b005b34801561061557600080fd5b50610630600480360381019061062b9190612fae565b611859565b005b34801561063e57600080fd5b506106476118e7565b6040516106549190612dcc565b60405180910390f35b34801561066957600080fd5b5061067261190b565b60405161067f9190612bda565b60405180910390f35b34801561069457600080fd5b5061069d61199d565b6040516106aa9190612dcc565b60405180910390f35b3480156106bf57600080fd5b506106c86119a4565b6040516106d5919061304a565b60405180910390f35b3480156106ea57600080fd5b5061070560048036038101906107009190612c9d565b6119ba565b6040516107129190612a8c565b60405180910390f35b34801561072757600080fd5b50610742600480360381019061073d9190612c9d565b611a31565b60405161074f9190612a8c565b60405180910390f35b34801561076457600080fd5b5061077f600480360381019061077a9190613065565b611a54565b60405161078c9190612cec565b60405180910390f35b3480156107a157600080fd5b506107aa611adb565b6040516107b79190612dcc565b60405180910390f35b3480156107cc57600080fd5b506107d5611ae2565b6040516107e2919061304a565b60405180910390f35b3480156107f757600080fd5b50610812600480360381019061080d9190612c3a565b611af8565b60405161081f9190612cec565b60405180910390f35b34801561083457600080fd5b5061084f600480360381019061084a9190612c3a565b611b44565b6040516108609594939291906130a5565b60405180910390f35b6000606560009054906101000a900473ffffffffffffffffffffffffffffffffffffffff1673ffffffffffffffffffffffffffffffffffffffff166301ffc9a7836040518263ffffffff1660e01b81526004016108c69190613107565b602060405180830381865afa1580156108e3573d6000803e3d6000fd5b505050506040513d601f19601f82011682018060405250810190610907919061314e565b9050919050565b606560009054906101000a900473ffffffffffffffffffffffffffffffffffffffff1681565b606060368054610943906131aa565b80601f016020809104026020016040519081016040528092919081815260200182805461096f906131aa565b80156109bc5780601f10610991576101008083540402835291602001916109bc565b820191906000526020600020905b81548152906001019060200180831161099f57829003601f168201915b5050505050905090565b600115156109f47fa49807205ce4d355092ef5a8a18f56e8913cf4a201fbe287825b095693c217758361168b565b151514610a36576040517f08c379a0000000000000000000000000000000000000000000000000000000008152600401610a2d90613227565b60405180910390fd5b6000610a41336113fe565b905060008111610a86576040517f08c379a0000000000000000000000000000000000000000000000000000000008152600401610a7d90613293565b60405180910390fd5b8067ffffffffffffffff16609860003373ffffffffffffffffffffffffffffffffffffffff1673ffffffffffffffffffffffffffffffffffffffff16815260200190815260200160002060000154610ade91906132e2565b609860003373ffffffffffffffffffffffffffffffffffffffff1673ffffffffffffffffffffffffffffffffffffffff16815260200190815260200160002060000181905550610b718282609760009054906101000a900473ffffffffffffffffffffffffffffffffffffffff1673ffffffffffffffffffffffffffffffffffffffff16611b7a9092919063ffffffff16565b5050565b600080610b80611c00565b9050610b8d818585611c08565b600191505092915050565b600080609860008473ffffffffffffffffffffffffffffffffffffffff1673ffffffffffffffffffffffffffffffffffffffff1681526020019081526020016000206040518060a00160405290816000820154815260200160018201548152602001600282015481526020016003820154815260200160048201548152505090506000429050609760189054906101000a900463ffffffff1663ffffffff16811015610c4957600092505050610d99565b6000670de0b6b3a76400008360600151610c6287611dd1565b610c6c9190613338565b610c7691906133c1565b90508260200151609760189054906101000a900463ffffffff1663ffffffff16610ca091906132e2565b8210610d8357818360400151609760189054906101000a900463ffffffff1663ffffffff16610ccf91906132e2565b1015610ce557610cde85611dd1565b9050610d82565b6000610cf086611dd1565b905060008460200151609760189054906101000a900463ffffffff1663ffffffff16610d1c91906132e2565b84610d2791906133f2565b9050600085602001518660400151610d3f91906133f2565b905060008660800151876080015184610d5891906133c1565b610d629190613338565b9050818185610d719190613338565b610d7b91906133c1565b9450505050505b5b826000015181610d9391906133f2565b93505050505b919050565b6000603554905090565b610df7333083609760009054906101000a900473ffffffffffffffffffffffffffffffffffffffff1673ffffffffffffffffffffffffffffffffffffffff16611e1a909392919063ffffffff16565b610e018282611ea3565b5050565b600080610e10611c00565b9050610e1d858285612003565b610e2885858561208f565b60019150509392505050565b6000606560009054906101000a900473ffffffffffffffffffffffffffffffffffffffff1673ffffffffffffffffffffffffffffffffffffffff1663248a9ca3836040518263ffffffff1660e01b8152600401610e919190612dcc565b602060405180830381865afa158015610eae573d6000803e3d6000fd5b505050506040513d601f19601f82011682018060405250810190610ed2919061343b565b9050919050565b60006012905090565b600080610eed611c00565b9050610f0e818585610eff8589611a54565b610f0991906132e2565b611c08565b600191505092915050565b60008060019054906101000a900460ff16159050808015610f4a5750600160008054906101000a900460ff1660ff16105b80610f775750610f5930612311565b158015610f765750600160008054906101000a900460ff1660ff16145b5b610fb6576040517f08c379a0000000000000000000000000000000000000000000000000000000008152600401610fad906134da565b60405180910390fd5b60016000806101000a81548160ff021916908360ff1602179055508015610ff3576001600060016101000a81548160ff0219169083151502179055505b610ffc83612334565b61112a8273ffffffffffffffffffffffffffffffffffffffff166306fdde036040518163ffffffff1660e01b8152600401600060405180830381865afa15801561104a573d6000803e3d6000fd5b505050506040513d6000823e3d601f19601f820116820180604052508101906110739190613620565b60405160200161108391906136cb565b6040516020818303038152906040528373ffffffffffffffffffffffffffffffffffffffff166395d89b416040518163ffffffff1660e01b8152600401600060405180830381865afa1580156110dd573d6000803e3d6000fd5b505050506040513d6000823e3d601f19601f820116820180604052508101906111069190613620565b6040516020016111169190613717565b6040516020818303038152906040526123c7565b81609760006101000a81548173ffffffffffffffffffffffffffffffffffffffff021916908373ffffffffffffffffffffffffffffffffffffffff160217905550636477df80609760146101000a81548163ffffffff021916908363ffffffff160217905550609760149054906101000a900463ffffffff16609760186101000a81548163ffffffff021916908363ffffffff160217905550801561121c5760008060016101000a81548160ff0219169083151502179055507f7f26b83ff96e1f2b6a682f133852f6798a09c465da95921460cefb384740249860016040516112139190613778565b60405180910390a15b505050565b600061122c33610b98565b905060008111611271576040517f08c379a0000000000000000000000000000000000000000000000000000000008152600401611268906137df565b60405180910390fd5b80609860003373ffffffffffffffffffffffffffffffffffffffff1673ffffffffffffffffffffffffffffffffffffffff168152602001908152602001600020600001546112bf91906132e2565b609860003373ffffffffffffffffffffffffffffffffffffffff1673ffffffffffffffffffffffffffffffffffffffff168152602001908152602001600020600001819055506113523382609760009054906101000a900473ffffffffffffffffffffffffffffffffffffffff1673ffffffffffffffffffffffffffffffffffffffff16611b7a9092919063ffffffff16565b50565b60003073ffffffffffffffffffffffffffffffffffffffff166370a08231836040518263ffffffff1660e01b8152600401611390919061380e565b602060405180830381865afa1580156113ad573d6000803e3d6000fd5b505050506040513d601f19601f820116820180604052508101906113d1919061383e565b9050919050565b609760009054906101000a900473ffffffffffffffffffffffffffffffffffffffff1681565b6000609860008373ffffffffffffffffffffffffffffffffffffffff1673ffffffffffffffffffffffffffffffffffffffff1681526020019081526020016000206000015461144c83611dd1565b61145691906133f2565b9050919050565b7fa49807205ce4d355092ef5a8a18f56e8913cf4a201fbe287825b095693c2177581565b6000801b61148f813361168b565b6114d25780336040517f37c2e3430000000000000000000000000000000000000000000000000000000081526004016114c992919061386b565b60405180910390fd5b609760009054906101000a900473ffffffffffffffffffffffffffffffffffffffff1673ffffffffffffffffffffffffffffffffffffffff168273ffffffffffffffffffffffffffffffffffffffff1603611562576040517f08c379a0000000000000000000000000000000000000000000000000000000008152600401611559906138e0565b60405180910390fd5b600073ffffffffffffffffffffffffffffffffffffffff168273ffffffffffffffffffffffffffffffffffffffff16036115e2573373ffffffffffffffffffffffffffffffffffffffff166108fc479081150290604051600060405180830381858888f193505050501580156115dc573d6000803e3d6000fd5b50611687565b611686338373ffffffffffffffffffffffffffffffffffffffff166370a08231306040518263ffffffff1660e01b815260040161161f919061380e565b602060405180830381865afa15801561163c573d6000803e3d6000fd5b505050506040513d601f19601f82011682018060405250810190611660919061383e565b8473ffffffffffffffffffffffffffffffffffffffff16611b7a9092919063ffffffff16565b5b5050565b6000606560009054906101000a900473ffffffffffffffffffffffffffffffffffffffff1673ffffffffffffffffffffffffffffffffffffffff166391d1485484846040518363ffffffff1660e01b81526004016116ea92919061386b565b602060405180830381865afa158015611707573d6000803e3d6000fd5b505050506040513d601f19601f8201168201806040525081019061172b919061314e565b905092915050565b6000801b611741813361168b565b6117845780336040517f37c2e34300000000000000000000000000000000000000000000000000000000815260040161177b92919061386b565b60405180910390fd5b8163ffffffff164263ffffffff1611156117d3576040517f08c379a00000000000000000000000000000000000000000000000000000000081526004016117ca90613972565b60405180910390fd5b609760149054906101000a900463ffffffff1663ffffffff168263ffffffff161115611834576040517f08c379a000000000000000000000000000000000000000000000000000000000815260040161182b90613a04565b60405180910390fd5b81609760186101000a81548163ffffffff021916908363ffffffff1602179055505050565b7fa49807205ce4d355092ef5a8a18f56e8913cf4a201fbe287825b095693c21775611884813361168b565b6118c75780336040517f37c2e3430000000000000000000000000000000000000000000000000000000081526004016118be92919061386b565b60405180910390fd5b6118d48786868686612424565b6118de8787610da8565b50505050505050565b7f0a7cc066f24e107ff77c42c8a1bdaf1a5f775fa4a74e45530aaf9c866368f65381565b60606037805461191a906131aa565b80601f0160208091040260200160405190810160405280929190818152602001828054611946906131aa565b80156119935780601f1061196857610100808354040283529160200191611993565b820191906000526020600020905b81548152906001019060200180831161197657829003601f168201915b5050505050905090565b6000801b81565b609760189054906101000a900463ffffffff1681565b6000806119c5611c00565b905060006119d38286611a54565b905083811015611a18576040517f08c379a0000000000000000000000000000000000000000000000000000000008152600401611a0f90613a96565b60405180910390fd5b611a258286868403611c08565b60019250505092915050565b600080611a3c611c00565b9050611a4981858561208f565b600191505092915050565b6000603460008473ffffffffffffffffffffffffffffffffffffffff1673ffffffffffffffffffffffffffffffffffffffff16815260200190815260200160002060008373ffffffffffffffffffffffffffffffffffffffff1673ffffffffffffffffffffffffffffffffffffffff16815260200190815260200160002054905092915050565b6000801b81565b609760149054906101000a900463ffffffff1681565b6000609860008373ffffffffffffffffffffffffffffffffffffffff1673ffffffffffffffffffffffffffffffffffffffff168152602001908152602001600020600001549050919050565b60986020528060005260406000206000915090508060000154908060010154908060020154908060030154908060040154905085565b611bfb8363a9059cbb60e01b8484604051602401611b99929190613ab6565b604051602081830303815290604052907bffffffffffffffffffffffffffffffffffffffffffffffffffffffff19166020820180517bffffffffffffffffffffffffffffffffffffffffffffffffffffffff8381831617835250505050612701565b505050565b600033905090565b600073ffffffffffffffffffffffffffffffffffffffff168373ffffffffffffffffffffffffffffffffffffffff1603611c77576040517f08c379a0000000000000000000000000000000000000000000000000000000008152600401611c6e90613b51565b60405180910390fd5b600073ffffffffffffffffffffffffffffffffffffffff168273ffffffffffffffffffffffffffffffffffffffff1603611ce6576040517f08c379a0000000000000000000000000000000000000000000000000000000008152600401611cdd90613be3565b60405180910390fd5b80603460008573ffffffffffffffffffffffffffffffffffffffff1673ffffffffffffffffffffffffffffffffffffffff16815260200190815260200160002060008473ffffffffffffffffffffffffffffffffffffffff1673ffffffffffffffffffffffffffffffffffffffff168152602001908152602001600020819055508173ffffffffffffffffffffffffffffffffffffffff168373ffffffffffffffffffffffffffffffffffffffff167f8c5be1e5ebec7d5bd14f71427d1e84f3dd0314c0f7b2291e5b200ac8c7c3b92583604051611dc49190612cec565b60405180910390a3505050565b6000603360008373ffffffffffffffffffffffffffffffffffffffff1673ffffffffffffffffffffffffffffffffffffffff168152602001908152602001600020549050919050565b611e9d846323b872dd60e01b858585604051602401611e3b93929190613c03565b604051602081830303815290604052907bffffffffffffffffffffffffffffffffffffffffffffffffffffffff19166020820180517bffffffffffffffffffffffffffffffffffffffffffffffffffffffff8381831617835250505050612701565b50505050565b600073ffffffffffffffffffffffffffffffffffffffff168273ffffffffffffffffffffffffffffffffffffffff1603611f12576040517f08c379a0000000000000000000000000000000000000000000000000000000008152600401611f0990613c86565b60405180910390fd5b611f1e600083836127c8565b8060356000828254611f3091906132e2565b9250508190555080603360008473ffffffffffffffffffffffffffffffffffffffff1673ffffffffffffffffffffffffffffffffffffffff1681526020019081526020016000206000828254611f8691906132e2565b925050819055508173ffffffffffffffffffffffffffffffffffffffff16600073ffffffffffffffffffffffffffffffffffffffff167fddf252ad1be2c89b69c2b068fc378daa952ba7f163c4a11628f55a4df523b3ef83604051611feb9190612cec565b60405180910390a3611fff600083836127cd565b5050565b600061200f8484611a54565b90507fffffffffffffffffffffffffffffffffffffffffffffffffffffffffffffffff8114612089578181101561207b576040517f08c379a000000000000000000000000000000000000000000000000000000000815260040161207290613cf2565b60405180910390fd5b6120888484848403611c08565b5b50505050565b600073ffffffffffffffffffffffffffffffffffffffff168373ffffffffffffffffffffffffffffffffffffffff16036120fe576040517f08c379a00000000000000000000000000000000000000000000000000000000081526004016120f590613d84565b60405180910390fd5b600073ffffffffffffffffffffffffffffffffffffffff168273ffffffffffffffffffffffffffffffffffffffff160361216d576040517f08c379a000000000000000000000000000000000000000000000000000000000815260040161216490613e16565b60405180910390fd5b6121788383836127c8565b6000603360008573ffffffffffffffffffffffffffffffffffffffff1673ffffffffffffffffffffffffffffffffffffffff168152602001908152602001600020549050818110156121ff576040517f08c379a00000000000000000000000000000000000000000000000000000000081526004016121f690613ea8565b60405180910390fd5b818103603360008673ffffffffffffffffffffffffffffffffffffffff1673ffffffffffffffffffffffffffffffffffffffff1681526020019081526020016000208190555081603360008573ffffffffffffffffffffffffffffffffffffffff1673ffffffffffffffffffffffffffffffffffffffff168152602001908152602001600020600082825461229491906132e2565b925050819055508273ffffffffffffffffffffffffffffffffffffffff168473ffffffffffffffffffffffffffffffffffffffff167fddf252ad1be2c89b69c2b068fc378daa952ba7f163c4a11628f55a4df523b3ef846040516122f89190612cec565b60405180910390a361230b8484846127cd565b50505050565b6000808273ffffffffffffffffffffffffffffffffffffffff163b119050919050565b600060019054906101000a900460ff16612383576040517f08c379a000000000000000000000000000000000000000000000000000000000815260040161237a90613f3a565b60405180910390fd5b80606560006101000a81548173ffffffffffffffffffffffffffffffffffffffff021916908373ffffffffffffffffffffffffffffffffffffffff16021790555050565b600060019054906101000a900460ff16612416576040517f08c379a000000000000000000000000000000000000000000000000000000000815260040161240d90613f3a565b60405180910390fd5b61242082826127d2565b5050565b83831115612467576040517f08c379a000000000000000000000000000000000000000000000000000000000815260040161245e90613fcc565b60405180910390fd5b670de0b6b3a76400008211156124b2576040517f08c379a00000000000000000000000000000000000000000000000000000000081526004016124a99061405e565b60405180910390fd5b83609860008773ffffffffffffffffffffffffffffffffffffffff1673ffffffffffffffffffffffffffffffffffffffff1681526020019081526020016000206002015410156125445783609860008773ffffffffffffffffffffffffffffffffffffffff1673ffffffffffffffffffffffffffffffffffffffff168152602001908152602001600020600201819055505b82609860008773ffffffffffffffffffffffffffffffffffffffff1673ffffffffffffffffffffffffffffffffffffffff1681526020019081526020016000206001015410156125d65782609860008773ffffffffffffffffffffffffffffffffffffffff1673ffffffffffffffffffffffffffffffffffffffff168152602001908152602001600020600101819055505b81609860008773ffffffffffffffffffffffffffffffffffffffff1673ffffffffffffffffffffffffffffffffffffffff1681526020019081526020016000206003015411156126685781609860008773ffffffffffffffffffffffffffffffffffffffff1673ffffffffffffffffffffffffffffffffffffffff168152602001908152602001600020600301819055505b80609860008773ffffffffffffffffffffffffffffffffffffffff1673ffffffffffffffffffffffffffffffffffffffff1681526020019081526020016000206004015410156126fa5780609860008773ffffffffffffffffffffffffffffffffffffffff1673ffffffffffffffffffffffffffffffffffffffff168152602001908152602001600020600401819055505b5050505050565b6000612763826040518060400160405280602081526020017f5361666545524332303a206c6f772d6c6576656c2063616c6c206661696c65648152508573ffffffffffffffffffffffffffffffffffffffff166128459092919063ffffffff16565b90506000815111156127c35780806020019051810190612783919061314e565b6127c2576040517f08c379a00000000000000000000000000000000000000000000000000000000081526004016127b9906140f0565b60405180910390fd5b5b505050565b505050565b505050565b600060019054906101000a900460ff16612821576040517f08c379a000000000000000000000000000000000000000000000000000000000815260040161281890613f3a565b60405180910390fd5b816036908161283091906142b2565b50806037908161284091906142b2565b505050565b6060612854848460008561285d565b90509392505050565b6060824710156128a2576040517f08c379a0000000000000000000000000000000000000000000000000000000008152600401612899906143f6565b60405180910390fd5b6128ab85612311565b6128ea576040517f08c379a00000000000000000000000000000000000000000000000000000000081526004016128e190614462565b60405180910390fd5b6000808673ffffffffffffffffffffffffffffffffffffffff16858760405161291391906144c9565b60006040518083038185875af1925050503d8060008114612950576040519150601f19603f3d011682016040523d82523d6000602084013e612955565b606091505b5091509150612965828286612971565b92505050949350505050565b60608315612981578290506129d1565b6000835111156129945782518084602001fd5b816040517f08c379a00000000000000000000000000000000000000000000000000000000081526004016129c89190612bda565b60405180910390fd5b9392505050565b6000604051905090565b600080fd5b600080fd5b60007fffffffff0000000000000000000000000000000000000000000000000000000082169050919050565b612a21816129ec565b8114612a2c57600080fd5b50565b600081359050612a3e81612a18565b92915050565b600060208284031215612a5a57612a596129e2565b5b6000612a6884828501612a2f565b91505092915050565b60008115159050919050565b612a8681612a71565b82525050565b6000602082019050612aa16000830184612a7d565b92915050565b600073ffffffffffffffffffffffffffffffffffffffff82169050919050565b6000819050919050565b6000612aec612ae7612ae284612aa7565b612ac7565b612aa7565b9050919050565b6000612afe82612ad1565b9050919050565b6000612b1082612af3565b9050919050565b612b2081612b05565b82525050565b6000602082019050612b3b6000830184612b17565b92915050565b600081519050919050565b600082825260208201905092915050565b60005b83811015612b7b578082015181840152602081019050612b60565b83811115612b8a576000848401525b50505050565b6000601f19601f8301169050919050565b6000612bac82612b41565b612bb68185612b4c565b9350612bc6818560208601612b5d565b612bcf81612b90565b840191505092915050565b60006020820190508181036000830152612bf48184612ba1565b905092915050565b6000612c0782612aa7565b9050919050565b612c1781612bfc565b8114612c2257600080fd5b50565b600081359050612c3481612c0e565b92915050565b600060208284031215612c5057612c4f6129e2565b5b6000612c5e84828501612c25565b91505092915050565b6000819050919050565b612c7a81612c67565b8114612c8557600080fd5b50565b600081359050612c9781612c71565b92915050565b60008060408385031215612cb457612cb36129e2565b5b6000612cc285828601612c25565b9250506020612cd385828601612c88565b9150509250929050565b612ce681612c67565b82525050565b6000602082019050612d016000830184612cdd565b92915050565b600080600060608486031215612d2057612d1f6129e2565b5b6000612d2e86828701612c25565b9350506020612d3f86828701612c25565b9250506040612d5086828701612c88565b9150509250925092565b6000819050919050565b612d6d81612d5a565b8114612d7857600080fd5b50565b600081359050612d8a81612d64565b92915050565b600060208284031215612da657612da56129e2565b5b6000612db484828501612d7b565b91505092915050565b612dc681612d5a565b82525050565b6000602082019050612de16000830184612dbd565b92915050565b600060ff82169050919050565b612dfd81612de7565b82525050565b6000602082019050612e186000830184612df4565b92915050565b6000612e2982612bfc565b9050919050565b612e3981612e1e565b8114612e4457600080fd5b50565b600081359050612e5681612e30565b92915050565b60008060408385031215612e7357612e726129e2565b5b6000612e8185828601612c25565b9250506020612e9285828601612e47565b9150509250929050565b6000612ea782612af3565b9050919050565b612eb781612e9c565b82525050565b6000602082019050612ed26000830184612eae565b92915050565b600060208284031215612eee57612eed6129e2565b5b6000612efc84828501612e47565b91505092915050565b60008060408385031215612f1c57612f1b6129e2565b5b6000612f2a85828601612d7b565b9250506020612f3b85828601612c25565b9150509250929050565b600063ffffffff82169050919050565b612f5e81612f45565b8114612f6957600080fd5b50565b600081359050612f7b81612f55565b92915050565b600060208284031215612f9757612f966129e2565b5b6000612fa584828501612f6c565b91505092915050565b60008060008060008060c08789031215612fcb57612fca6129e2565b5b6000612fd989828a01612c25565b9650506020612fea89828a01612c88565b9550506040612ffb89828a01612c88565b945050606061300c89828a01612c88565b935050608061301d89828a01612c88565b92505060a061302e89828a01612c88565b9150509295509295509295565b61304481612f45565b82525050565b600060208201905061305f600083018461303b565b92915050565b6000806040838503121561307c5761307b6129e2565b5b600061308a85828601612c25565b925050602061309b85828601612c25565b9150509250929050565b600060a0820190506130ba6000830188612cdd565b6130c76020830187612cdd565b6130d46040830186612cdd565b6130e16060830185612cdd565b6130ee6080830184612cdd565b9695505050505050565b613101816129ec565b82525050565b600060208201905061311c60008301846130f8565b92915050565b61312b81612a71565b811461313657600080fd5b50565b60008151905061314881613122565b92915050565b600060208284031215613164576131636129e2565b5b600061317284828501613139565b91505092915050565b7f4e487b7100000000000000000000000000000000000000000000000000000000600052602260045260246000fd5b600060028204905060018216806131c257607f821691505b6020821081036131d5576131d461317b565b5b50919050565b7f696e76616c69642061646d696e20616464726573730000000000000000000000600082015250565b6000613211601583612b4c565b915061321c826131db565b602082019050919050565b6000602082019050818103600083015261324081613204565b9050919050565b7f6e6f7468696e6720746f20646f6e617465000000000000000000000000000000600082015250565b600061327d601183612b4c565b915061328882613247565b602082019050919050565b600060208201905081810360008301526132ac81613270565b9050919050565b7f4e487b7100000000000000000000000000000000000000000000000000000000600052601160045260246000fd5b60006132ed82612c67565b91506132f883612c67565b9250827fffffffffffffffffffffffffffffffffffffffffffffffffffffffffffffffff0382111561332d5761332c6132b3565b5b828201905092915050565b600061334382612c67565b915061334e83612c67565b9250817fffffffffffffffffffffffffffffffffffffffffffffffffffffffffffffffff0483118215151615613387576133866132b3565b5b828202905092915050565b7f4e487b7100000000000000000000000000000000000000000000000000000000600052601260045260246000fd5b60006133cc82612c67565b91506133d783612c67565b9250826133e7576133e6613392565b5b828204905092915050565b60006133fd82612c67565b915061340883612c67565b92508282101561341b5761341a6132b3565b5b828203905092915050565b60008151905061343581612d64565b92915050565b600060208284031215613451576134506129e2565b5b600061345f84828501613426565b91505092915050565b7f496e697469616c697a61626c653a20636f6e747261637420697320616c72656160008201527f647920696e697469616c697a6564000000000000000000000000000000000000602082015250565b60006134c4602e83612b4c565b91506134cf82613468565b604082019050919050565b600060208201905081810360008301526134f3816134b7565b9050919050565b600080fd5b600080fd5b7f4e487b7100000000000000000000000000000000000000000000000000000000600052604160045260246000fd5b61353c82612b90565b810181811067ffffffffffffffff8211171561355b5761355a613504565b5b80604052505050565b600061356e6129d8565b905061357a8282613533565b919050565b600067ffffffffffffffff82111561359a57613599613504565b5b6135a382612b90565b9050602081019050919050565b60006135c36135be8461357f565b613564565b9050828152602081018484840111156135df576135de6134ff565b5b6135ea848285612b5d565b509392505050565b600082601f830112613607576136066134fa565b5b81516136178482602086016135b0565b91505092915050565b600060208284031215613636576136356129e2565b5b600082015167ffffffffffffffff811115613654576136536129e7565b5b613660848285016135f2565b91505092915050565b7f76657374656420657363726f7720000000000000000000000000000000000000815250565b600081905092915050565b60006136a582612b41565b6136af818561368f565b93506136bf818560208601612b5d565b80840191505092915050565b60006136d682613669565b600e820191506136e6828461369a565b915081905092915050565b7f7665000000000000000000000000000000000000000000000000000000000000815250565b6000613722826136f1565b600282019150613732828461369a565b915081905092915050565b6000819050919050565b600061376261375d6137588461373d565b612ac7565b612de7565b9050919050565b61377281613747565b82525050565b600060208201905061378d6000830184613769565b92915050565b7f43616e277420636c61696d203020746f6b656e73000000000000000000000000600082015250565b60006137c9601483612b4c565b91506137d482613793565b602082019050919050565b600060208201905081810360008301526137f8816137bc565b9050919050565b61380881612bfc565b82525050565b600060208201905061382360008301846137ff565b92915050565b60008151905061383881612c71565b92915050565b600060208284031215613854576138536129e2565b5b600061386284828501613829565b91505092915050565b60006040820190506138806000830185612dbd565b61388d60208301846137ff565b9392505050565b7f4e6f20616c6c6f77656420746f20726573637565207468697320746f6b656e00600082015250565b60006138ca601f83612b4c565b91506138d582613894565b602082019050919050565b600060208201905081810360008301526138f9816138bd565b9050919050565b7f766545524332303a2054474520646174652063616e277420626520696e20746860008201527f6520706173740000000000000000000000000000000000000000000000000000602082015250565b600061395c602683612b4c565b915061396782613900565b604082019050919050565b6000602082019050818103600083015261398b8161394f565b9050919050565b7f766545524332303a206e6577205447452064617465206973206265796f6e642060008201527f6c696d6974000000000000000000000000000000000000000000000000000000602082015250565b60006139ee602583612b4c565b91506139f982613992565b604082019050919050565b60006020820190508181036000830152613a1d816139e1565b9050919050565b7f45524332303a2064656372656173656420616c6c6f77616e63652062656c6f7760008201527f207a65726f000000000000000000000000000000000000000000000000000000602082015250565b6000613a80602583612b4c565b9150613a8b82613a24565b604082019050919050565b60006020820190508181036000830152613aaf81613a73565b9050919050565b6000604082019050613acb60008301856137ff565b613ad86020830184612cdd565b9392505050565b7f45524332303a20617070726f76652066726f6d20746865207a65726f2061646460008201527f7265737300000000000000000000000000000000000000000000000000000000602082015250565b6000613b3b602483612b4c565b9150613b4682613adf565b604082019050919050565b60006020820190508181036000830152613b6a81613b2e565b9050919050565b7f45524332303a20617070726f766520746f20746865207a65726f20616464726560008201527f7373000000000000000000000000000000000000000000000000000000000000602082015250565b6000613bcd602283612b4c565b9150613bd882613b71565b604082019050919050565b60006020820190508181036000830152613bfc81613bc0565b9050919050565b6000606082019050613c1860008301866137ff565b613c2560208301856137ff565b613c326040830184612cdd565b949350505050565b7f45524332303a206d696e7420746f20746865207a65726f206164647265737300600082015250565b6000613c70601f83612b4c565b9150613c7b82613c3a565b602082019050919050565b60006020820190508181036000830152613c9f81613c63565b9050919050565b7f45524332303a20696e73756666696369656e7420616c6c6f77616e6365000000600082015250565b6000613cdc601d83612b4c565b9150613ce782613ca6565b602082019050919050565b60006020820190508181036000830152613d0b81613ccf565b9050919050565b7f45524332303a207472616e736665722066726f6d20746865207a65726f20616460008201527f6472657373000000000000000000000000000000000000000000000000000000602082015250565b6000613d6e602583612b4c565b9150613d7982613d12565b604082019050919050565b60006020820190508181036000830152613d9d81613d61565b9050919050565b7f45524332303a207472616e7366657220746f20746865207a65726f206164647260008201527f6573730000000000000000000000000000000000000000000000000000000000602082015250565b6000613e00602383612b4c565b9150613e0b82613da4565b604082019050919050565b60006020820190508181036000830152613e2f81613df3565b9050919050565b7f45524332303a207472616e7366657220616d6f756e742065786365656473206260008201527f616c616e63650000000000000000000000000000000000000000000000000000602082015250565b6000613e92602683612b4c565b9150613e9d82613e36565b604082019050919050565b60006020820190508181036000830152613ec181613e85565b9050919050565b7f496e697469616c697a61626c653a20636f6e7472616374206973206e6f74206960008201527f6e697469616c697a696e67000000000000000000000000000000000000000000602082015250565b6000613f24602b83612b4c565b9150613f2f82613ec8565b604082019050919050565b60006020820190508181036000830152613f5381613f17565b9050919050565b7f636c69666654696d652073686f756c64206265206c657373207468656e20766560008201527f7374696e6754696d650000000000000000000000000000000000000000000000602082015250565b6000613fb6602983612b4c565b9150613fc182613f5a565b604082019050919050565b60006020820190508181036000830152613fe581613fa9565b9050919050565b7f746765556e6c6f636b526174696f2073686f756c64206265206c65737320746860008201527f616e203100000000000000000000000000000000000000000000000000000000602082015250565b6000614048602483612b4c565b915061405382613fec565b604082019050919050565b600060208201905081810360008301526140778161403b565b9050919050565b7f5361666545524332303a204552433230206f7065726174696f6e20646964206e60008201527f6f74207375636365656400000000000000000000000000000000000000000000602082015250565b60006140da602a83612b4c565b91506140e58261407e565b604082019050919050565b60006020820190508181036000830152614109816140cd565b9050919050565b60008190508160005260206000209050919050565b60006020601f8301049050919050565b600082821b905092915050565b6000600883026141727fffffffffffffffffffffffffffffffffffffffffffffffffffffffffffffffff82614135565b61417c8683614135565b95508019841693508086168417925050509392505050565b60006141af6141aa6141a584612c67565b612ac7565b612c67565b9050919050565b6000819050919050565b6141c983614194565b6141dd6141d5826141b6565b848454614142565b825550505050565b600090565b6141f26141e5565b6141fd8184846141c0565b505050565b5b81811015614221576142166000826141ea565b600181019050614203565b5050565b601f8211156142665761423781614110565b61424084614125565b8101602085101561424f578190505b61426361425b85614125565b830182614202565b50505b505050565b600082821c905092915050565b60006142896000198460080261426b565b1980831691505092915050565b60006142a28383614278565b9150826002028217905092915050565b6142bb82612b41565b67ffffffffffffffff8111156142d4576142d3613504565b5b6142de82546131aa565b6142e9828285614225565b600060209050601f83116001811461431c576000841561430a578287015190505b6143148582614296565b86555061437c565b601f19841661432a86614110565b60005b828110156143525784890151825560018201915060208501945060208101905061432d565b8683101561436f578489015161436b601f891682614278565b8355505b6001600288020188555050505b505050505050565b7f416464726573733a20696e73756666696369656e742062616c616e636520666f60008201527f722063616c6c0000000000000000000000000000000000000000000000000000602082015250565b60006143e0602683612b4c565b91506143eb82614384565b604082019050919050565b6000602082019050818103600083015261440f816143d3565b9050919050565b7f416464726573733a2063616c6c20746f206e6f6e2d636f6e7472616374000000600082015250565b600061444c601d83612b4c565b915061445782614416565b602082019050919050565b6000602082019050818103600083015261447b8161443f565b9050919050565b600081519050919050565b600081905092915050565b60006144a382614482565b6144ad818561448d565b93506144bd818560208601612b5d565b80840191505092915050565b60006144d58284614498565b91508190509291505056fea264697066735822122095c84817425bfd084ee90196c6a1e0385293befc5b47a061c7eccfad35f1301064736f6c634300080f0033",
  "devdoc": {
    "kind": "dev",
    "methods": {
      "addBalance(address,uint256)": {
        "params": {
          "account": "Beneficiary of the vesting account.",
          "amount": "Amount of token to be send to user under vesting, which will be deducted from msg.sender."
        }
      },
      "allowance(address,address)": {
        "details": "See {IERC20-allowance}."
      },
      "approve(address,uint256)": {
        "details": "See {IERC20-approve}. NOTE: If `amount` is the maximum `uint256`, the allowance is not updated on `transferFrom`. This is semantically equivalent to an infinite approval. Requirements: - `spender` cannot be the zero address."
      },
      "availableToClaim(address)": {
        "returns": {
          "_0": "Returns amount of tokens the users can withdraw right now."
        }
      },
      "balanceOf(address)": {
        "details": "See {IERC20-balanceOf}."
      },
      "decimals()": {
        "details": "Returns the number of decimals used to get its user representation. For example, if `decimals` equals `2`, a balance of `505` tokens should be displayed to a user as `5.05` (`505 / 10 ** 2`). Tokens usually opt for a value of 18, imitating the relationship between Ether and Wei. This is the value {ERC20} uses, unless this function is overridden; NOTE: This information is only used for _display_ purposes: it in no way affects any of the arithmetic of the contract, including {IERC20-balanceOf} and {IERC20-transfer}."
      },
      "decreaseAllowance(address,uint256)": {
        "details": "Atomically decreases the allowance granted to `spender` by the caller. This is an alternative to {approve} that can be used as a mitigation for problems described in {IERC20-approve}. Emits an {Approval} event indicating the updated allowance. Requirements: - `spender` cannot be the zero address. - `spender` must have allowance for the caller of at least `subtractedValue`."
      },
      "increaseAllowance(address,uint256)": {
        "details": "Atomically increases the allowance granted to `spender` by the caller. This is an alternative to {approve} that can be used as a mitigation for problems described in {IERC20-approve}. Emits an {Approval} event indicating the updated allowance. Requirements: - `spender` cannot be the zero address."
      },
      "lockUnderVesting(address,uint256,uint256,uint256,uint256,uint256)": {
        "params": {
          "account": "Beneficiary of the vesting account.",
          "amount": "Amount of tokens to be send, which will be deducted from msg.sender.",
          "cliffSeconds": "Amount of seconds while tokens would be completely locked.",
          "tgeUnlockRatio1e18": "ratio/1e18  [0..1] that indicates how many tokens are going to be unlocked during TGE",
          "vestingFrequencySeconds": "how frequently token are going to be unlocked after the cliff.",
          "vestingSeconds": "Amount of seconds when linear vesting would be over. Starts from cliff."
        }
      },
      "name()": {
        "details": "Returns the name of the token."
      },
      "symbol()": {
        "details": "Returns the symbol of the token, usually a shorter version of the name."
      },
      "totalSupply()": {
        "details": "See {IERC20-totalSupply}."
      },
      "transfer(address,uint256)": {
        "details": "See {IERC20-transfer}. Requirements: - `to` cannot be the zero address. - the caller must have a balance of at least `amount`."
      },
      "transferFrom(address,address,uint256)": {
        "details": "See {IERC20-transferFrom}. Emits an {Approval} event indicating the updated allowance. This is not required by the EIP. See the note at the beginning of {ERC20}. NOTE: Does not update the allowance if the current allowance is the maximum `uint256`. Requirements: - `from` and `to` cannot be the zero address. - `from` must have a balance of at least `amount`. - the caller must have allowance for ``from``'s tokens of at least `amount`."
      }
    },
    "stateVariables": {
      "__gap": {
        "details": "This empty reserved space is put in place to allow future versions to add new variables without shifting down storage in the inheritance chain. See https://docs.openzeppelin.com/contracts/4.x/upgradeable#storage_gaps"
      }
    },
    "version": 1
  },
  "userdoc": {
    "kind": "user",
    "methods": {
      "addBalance(address,uint256)": {
        "notice": "Adds more tokens to the existing (possibly zero) vesting account. Doesn't change vesting period!"
      },
      "availableToClaim(address)": {
        "notice": "Checks amount of vested tokens minus already withdrawn."
      },
      "claim()": {
        "notice": "User can claim their vested tokens."
      },
      "donateTokens(address)": {
        "notice": "User can donate tokens under vesting to DAO or other admin contract as us treasury."
      },
      "lockUnderVesting(address,uint256,uint256,uint256,uint256,uint256)": {
        "notice": "Creates an account with time-vesting for the user and withdraws these tokens from msg.sender."
      },
      "rescue(address)": {
        "notice": "The owner of the contact can take away tokens accidentally sent to the contract."
      },
      "totalClaimed(address)": {
        "notice": "Total amount of token user had claimed."
      },
      "totalDeposited(address)": {
        "notice": "Total amount of token was deposited under vesting on behalf of the user."
      },
      "updateTgeTimestamp(uint32)": {
        "notice": "owner of the contract can set up TGE date within set limits."
      }
    },
    "version": 1
  },
  "storageLayout": {
    "storage": [
      {
        "astId": 497,
        "contract": "contracts/vested-escrow/veERC20.sol:VeERC20",
        "label": "_initialized",
        "offset": 0,
        "slot": "0",
        "type": "t_uint8"
      },
      {
        "astId": 500,
        "contract": "contracts/vested-escrow/veERC20.sol:VeERC20",
        "label": "_initializing",
        "offset": 1,
        "slot": "0",
        "type": "t_bool"
      },
      {
        "astId": 4310,
        "contract": "contracts/vested-escrow/veERC20.sol:VeERC20",
        "label": "__gap",
        "offset": 0,
        "slot": "1",
        "type": "t_array(t_uint256)50_storage"
      },
      {
        "astId": 660,
        "contract": "contracts/vested-escrow/veERC20.sol:VeERC20",
        "label": "_balances",
        "offset": 0,
        "slot": "51",
        "type": "t_mapping(t_address,t_uint256)"
      },
      {
        "astId": 666,
        "contract": "contracts/vested-escrow/veERC20.sol:VeERC20",
        "label": "_allowances",
        "offset": 0,
        "slot": "52",
        "type": "t_mapping(t_address,t_mapping(t_address,t_uint256))"
      },
      {
        "astId": 668,
        "contract": "contracts/vested-escrow/veERC20.sol:VeERC20",
        "label": "_totalSupply",
        "offset": 0,
        "slot": "53",
        "type": "t_uint256"
      },
      {
        "astId": 670,
        "contract": "contracts/vested-escrow/veERC20.sol:VeERC20",
        "label": "_name",
        "offset": 0,
        "slot": "54",
        "type": "t_string_storage"
      },
      {
        "astId": 672,
        "contract": "contracts/vested-escrow/veERC20.sol:VeERC20",
        "label": "_symbol",
        "offset": 0,
        "slot": "55",
        "type": "t_string_storage"
      },
      {
        "astId": 1251,
        "contract": "contracts/vested-escrow/veERC20.sol:VeERC20",
        "label": "__gap",
        "offset": 0,
        "slot": "56",
        "type": "t_array(t_uint256)45_storage"
      },
      {
        "astId": 11595,
        "contract": "contracts/vested-escrow/veERC20.sol:VeERC20",
        "label": "ACCESS_CONTROL_SINGLETON",
        "offset": 0,
        "slot": "101",
        "type": "t_contract(ISuAccessControl)12807"
      },
      {
        "astId": 11682,
        "contract": "contracts/vested-escrow/veERC20.sol:VeERC20",
        "label": "__gap",
        "offset": 0,
        "slot": "102",
        "type": "t_array(t_uint256)49_storage"
      },
      {
        "astId": 13084,
        "contract": "contracts/vested-escrow/veERC20.sol:VeERC20",
        "label": "LOCKED_TOKEN",
        "offset": 0,
        "slot": "151",
        "type": "t_contract(ERC20Upgradeable)1252"
      },
      {
        "astId": 13086,
        "contract": "contracts/vested-escrow/veERC20.sol:VeERC20",
        "label": "TGE_MAX_TIMESTAMP",
        "offset": 20,
        "slot": "151",
        "type": "t_uint32"
      },
      {
        "astId": 13088,
        "contract": "contracts/vested-escrow/veERC20.sol:VeERC20",
        "label": "tgeTimestamp",
        "offset": 24,
        "slot": "151",
        "type": "t_uint32"
      },
      {
        "astId": 13104,
        "contract": "contracts/vested-escrow/veERC20.sol:VeERC20",
        "label": "vestingInfo",
        "offset": 0,
        "slot": "152",
        "type": "t_mapping(t_address,t_struct(VestingInfo)13099_storage)"
      },
      {
        "astId": 13670,
        "contract": "contracts/vested-escrow/veERC20.sol:VeERC20",
        "label": "__gap",
        "offset": 0,
        "slot": "153",
        "type": "t_array(t_uint256)49_storage"
      }
    ],
    "types": {
      "t_address": {
        "encoding": "inplace",
        "label": "address",
        "numberOfBytes": "20"
      },
      "t_array(t_uint256)45_storage": {
        "base": "t_uint256",
        "encoding": "inplace",
        "label": "uint256[45]",
        "numberOfBytes": "1440"
      },
      "t_array(t_uint256)49_storage": {
        "base": "t_uint256",
        "encoding": "inplace",
        "label": "uint256[49]",
        "numberOfBytes": "1568"
      },
      "t_array(t_uint256)50_storage": {
        "base": "t_uint256",
        "encoding": "inplace",
        "label": "uint256[50]",
        "numberOfBytes": "1600"
      },
      "t_bool": {
        "encoding": "inplace",
        "label": "bool",
        "numberOfBytes": "1"
      },
      "t_contract(ERC20Upgradeable)1252": {
        "encoding": "inplace",
        "label": "contract ERC20Upgradeable",
        "numberOfBytes": "20"
      },
      "t_contract(ISuAccessControl)12807": {
        "encoding": "inplace",
        "label": "contract ISuAccessControl",
        "numberOfBytes": "20"
      },
      "t_mapping(t_address,t_mapping(t_address,t_uint256))": {
        "encoding": "mapping",
        "key": "t_address",
        "label": "mapping(address => mapping(address => uint256))",
        "numberOfBytes": "32",
        "value": "t_mapping(t_address,t_uint256)"
      },
      "t_mapping(t_address,t_struct(VestingInfo)13099_storage)": {
        "encoding": "mapping",
        "key": "t_address",
        "label": "mapping(address => struct VeERC20.VestingInfo)",
        "numberOfBytes": "32",
        "value": "t_struct(VestingInfo)13099_storage"
      },
      "t_mapping(t_address,t_uint256)": {
        "encoding": "mapping",
        "key": "t_address",
        "label": "mapping(address => uint256)",
        "numberOfBytes": "32",
        "value": "t_uint256"
      },
      "t_string_storage": {
        "encoding": "bytes",
        "label": "string",
        "numberOfBytes": "32"
      },
      "t_struct(VestingInfo)13099_storage": {
        "encoding": "inplace",
        "label": "struct VeERC20.VestingInfo",
        "members": [
          {
            "astId": 13090,
            "contract": "contracts/vested-escrow/veERC20.sol:VeERC20",
            "label": "amountAlreadyWithdrawn",
            "offset": 0,
            "slot": "0",
            "type": "t_uint256"
          },
          {
            "astId": 13092,
            "contract": "contracts/vested-escrow/veERC20.sol:VeERC20",
            "label": "cliffSeconds",
            "offset": 0,
            "slot": "1",
            "type": "t_uint256"
          },
          {
            "astId": 13094,
            "contract": "contracts/vested-escrow/veERC20.sol:VeERC20",
            "label": "vestingSeconds",
            "offset": 0,
            "slot": "2",
            "type": "t_uint256"
          },
          {
            "astId": 13096,
            "contract": "contracts/vested-escrow/veERC20.sol:VeERC20",
            "label": "tgeUnlockRatio1e18",
            "offset": 0,
            "slot": "3",
            "type": "t_uint256"
          },
          {
            "astId": 13098,
            "contract": "contracts/vested-escrow/veERC20.sol:VeERC20",
            "label": "vestingFrequencySeconds",
            "offset": 0,
            "slot": "4",
            "type": "t_uint256"
          }
        ],
        "numberOfBytes": "160"
      },
      "t_uint256": {
        "encoding": "inplace",
        "label": "uint256",
        "numberOfBytes": "32"
      },
      "t_uint32": {
        "encoding": "inplace",
        "label": "uint32",
        "numberOfBytes": "4"
      },
      "t_uint8": {
        "encoding": "inplace",
        "label": "uint8",
        "numberOfBytes": "1"
      }
    }
  }
}