{
  "address": "0xB2D2638705F88d25872a879eFe7f807bF610A4b7",
  "abi": [
    {
      "inputs": [
        {
          "internalType": "address",
          "name": "_accessControlSingleton",
          "type": "address"
        },
        {
          "internalType": "contract ERC20",
          "name": "_lockedToken",
          "type": "address"
        }
      ],
      "stateMutability": "nonpayable",
      "type": "constructor"
    },
    {
      "inputs": [
        {
          "internalType": "bytes32",
          "name": "role",
          "type": "bytes32"
        },
        {
          "internalType": "address",
          "name": "msgSender",
          "type": "address"
        }
      ],
      "name": "OnlyRoleError",
      "type": "error"
    },
    {
      "anonymous": false,
      "inputs": [
        {
          "indexed": true,
          "internalType": "address",
          "name": "owner",
          "type": "address"
        },
        {
          "indexed": true,
          "internalType": "address",
          "name": "spender",
          "type": "address"
        },
        {
          "indexed": false,
          "internalType": "uint256",
          "name": "value",
          "type": "uint256"
        }
      ],
      "name": "Approval",
      "type": "event"
    },
    {
      "anonymous": false,
      "inputs": [
        {
          "indexed": true,
          "internalType": "address",
          "name": "from",
          "type": "address"
        },
        {
          "indexed": true,
          "internalType": "address",
          "name": "to",
          "type": "address"
        },
        {
          "indexed": false,
          "internalType": "uint256",
          "name": "value",
          "type": "uint256"
        }
      ],
      "name": "Transfer",
      "type": "event"
    },
    {
      "inputs": [],
      "name": "ACCESS_CONTROL_SINGLETON",
      "outputs": [
        {
          "internalType": "contract ISuAccessControl",
          "name": "",
          "type": "address"
        }
      ],
      "stateMutability": "view",
      "type": "function"
    },
    {
      "inputs": [],
      "name": "ADMIN_ROLE",
      "outputs": [
        {
          "internalType": "bytes32",
          "name": "",
          "type": "bytes32"
        }
      ],
      "stateMutability": "view",
      "type": "function"
    },
    {
      "inputs": [],
      "name": "COMMUNITY_ADMIN_ROLE",
      "outputs": [
        {
          "internalType": "bytes32",
          "name": "",
          "type": "bytes32"
        }
      ],
      "stateMutability": "view",
      "type": "function"
    },
    {
      "inputs": [],
      "name": "DAO_ROLE",
      "outputs": [
        {
          "internalType": "bytes32",
          "name": "",
          "type": "bytes32"
        }
      ],
      "stateMutability": "view",
      "type": "function"
    },
    {
      "inputs": [],
      "name": "DEFAULT_ADMIN_ROLE",
      "outputs": [
        {
          "internalType": "bytes32",
          "name": "",
          "type": "bytes32"
        }
      ],
      "stateMutability": "view",
      "type": "function"
    },
    {
      "inputs": [],
      "name": "LOCKED_TOKEN",
      "outputs": [
        {
          "internalType": "contract ERC20",
          "name": "",
          "type": "address"
        }
      ],
      "stateMutability": "view",
      "type": "function"
    },
    {
      "inputs": [],
      "name": "TGE_MAX_TIMESTAMP",
      "outputs": [
        {
          "internalType": "uint32",
          "name": "",
          "type": "uint32"
        }
      ],
      "stateMutability": "view",
      "type": "function"
    },
    {
      "inputs": [
        {
          "internalType": "address",
          "name": "account",
          "type": "address"
        },
        {
          "internalType": "uint256",
          "name": "amount",
          "type": "uint256"
        }
      ],
      "name": "addBalance",
      "outputs": [],
      "stateMutability": "nonpayable",
      "type": "function"
    },
    {
      "inputs": [
        {
          "internalType": "address",
          "name": "owner",
          "type": "address"
        },
        {
          "internalType": "address",
          "name": "spender",
          "type": "address"
        }
      ],
      "name": "allowance",
      "outputs": [
        {
          "internalType": "uint256",
          "name": "",
          "type": "uint256"
        }
      ],
      "stateMutability": "view",
      "type": "function"
    },
    {
      "inputs": [
        {
          "internalType": "address",
          "name": "spender",
          "type": "address"
        },
        {
          "internalType": "uint256",
          "name": "amount",
          "type": "uint256"
        }
      ],
      "name": "approve",
      "outputs": [
        {
          "internalType": "bool",
          "name": "",
          "type": "bool"
        }
      ],
      "stateMutability": "nonpayable",
      "type": "function"
    },
    {
      "inputs": [
        {
          "internalType": "address",
          "name": "user",
          "type": "address"
        }
      ],
      "name": "availableToClaim",
      "outputs": [
        {
          "internalType": "uint256",
          "name": "",
          "type": "uint256"
        }
      ],
      "stateMutability": "view",
      "type": "function"
    },
    {
      "inputs": [
        {
          "internalType": "address",
          "name": "account",
          "type": "address"
        }
      ],
      "name": "balanceOf",
      "outputs": [
        {
          "internalType": "uint256",
          "name": "",
          "type": "uint256"
        }
      ],
      "stateMutability": "view",
      "type": "function"
    },
    {
      "inputs": [
        {
          "internalType": "uint256",
          "name": "amount",
          "type": "uint256"
        }
      ],
      "name": "burn",
      "outputs": [],
      "stateMutability": "nonpayable",
      "type": "function"
    },
    {
      "inputs": [],
      "name": "burnAll",
      "outputs": [],
      "stateMutability": "nonpayable",
      "type": "function"
    },
    {
      "inputs": [
        {
          "internalType": "address",
          "name": "account",
          "type": "address"
        },
        {
          "internalType": "uint256",
          "name": "amount",
          "type": "uint256"
        }
      ],
      "name": "burnFrom",
      "outputs": [],
      "stateMutability": "nonpayable",
      "type": "function"
    },
    {
      "inputs": [],
      "name": "claim",
      "outputs": [],
      "stateMutability": "nonpayable",
      "type": "function"
    },
    {
      "inputs": [],
      "name": "decimals",
      "outputs": [
        {
          "internalType": "uint8",
          "name": "",
          "type": "uint8"
        }
      ],
      "stateMutability": "view",
      "type": "function"
    },
    {
      "inputs": [
        {
          "internalType": "address",
          "name": "spender",
          "type": "address"
        },
        {
          "internalType": "uint256",
          "name": "subtractedValue",
          "type": "uint256"
        }
      ],
      "name": "decreaseAllowance",
      "outputs": [
        {
          "internalType": "bool",
          "name": "",
          "type": "bool"
        }
      ],
      "stateMutability": "nonpayable",
      "type": "function"
    },
    {
      "inputs": [
        {
          "internalType": "address",
          "name": "toAdmin",
          "type": "address"
        }
      ],
      "name": "donateTokens",
      "outputs": [],
      "stateMutability": "nonpayable",
      "type": "function"
    },
    {
      "inputs": [
        {
          "internalType": "bytes32",
          "name": "role",
          "type": "bytes32"
        }
      ],
      "name": "getRoleAdmin",
      "outputs": [
        {
          "internalType": "bytes32",
          "name": "",
          "type": "bytes32"
        }
      ],
      "stateMutability": "view",
      "type": "function"
    },
    {
      "inputs": [
        {
          "internalType": "bytes32",
          "name": "role",
          "type": "bytes32"
        },
        {
          "internalType": "address",
          "name": "account",
          "type": "address"
        }
      ],
      "name": "hasRole",
      "outputs": [
        {
          "internalType": "bool",
          "name": "",
          "type": "bool"
        }
      ],
      "stateMutability": "view",
      "type": "function"
    },
    {
      "inputs": [
        {
          "internalType": "address",
          "name": "spender",
          "type": "address"
        },
        {
          "internalType": "uint256",
          "name": "addedValue",
          "type": "uint256"
        }
      ],
      "name": "increaseAllowance",
      "outputs": [
        {
          "internalType": "bool",
          "name": "",
          "type": "bool"
        }
      ],
      "stateMutability": "nonpayable",
      "type": "function"
    },
    {
      "inputs": [
        {
          "internalType": "address",
          "name": "account",
          "type": "address"
        },
        {
          "internalType": "uint256",
          "name": "amount",
          "type": "uint256"
        },
        {
          "internalType": "uint256",
          "name": "vestingSeconds",
          "type": "uint256"
        },
        {
          "internalType": "uint256",
          "name": "cliffSeconds",
          "type": "uint256"
        },
        {
          "internalType": "uint256",
          "name": "tgeUnlockRatio1e18",
          "type": "uint256"
        },
        {
          "internalType": "uint256",
          "name": "vestingFrequencySeconds",
          "type": "uint256"
        }
      ],
      "name": "lockUnderVesting",
      "outputs": [],
      "stateMutability": "nonpayable",
      "type": "function"
    },
    {
      "inputs": [],
      "name": "name",
      "outputs": [
        {
          "internalType": "string",
          "name": "",
          "type": "string"
        }
      ],
      "stateMutability": "view",
      "type": "function"
    },
    {
      "inputs": [
        {
          "internalType": "contract ERC20",
          "name": "token",
          "type": "address"
        }
      ],
      "name": "rescue",
      "outputs": [],
      "stateMutability": "nonpayable",
      "type": "function"
    },
    {
      "inputs": [
        {
          "internalType": "bytes4",
          "name": "interfaceId",
          "type": "bytes4"
        }
      ],
      "name": "supportsInterface",
      "outputs": [
        {
          "internalType": "bool",
          "name": "",
          "type": "bool"
        }
      ],
      "stateMutability": "view",
      "type": "function"
    },
    {
      "inputs": [],
      "name": "symbol",
      "outputs": [
        {
          "internalType": "string",
          "name": "",
          "type": "string"
        }
      ],
      "stateMutability": "view",
      "type": "function"
    },
    {
      "inputs": [],
      "name": "tgeTimestamp",
      "outputs": [
        {
          "internalType": "uint32",
          "name": "",
          "type": "uint32"
        }
      ],
      "stateMutability": "view",
      "type": "function"
    },
    {
      "inputs": [
        {
          "internalType": "address",
          "name": "user",
          "type": "address"
        }
      ],
      "name": "totalClaimed",
      "outputs": [
        {
          "internalType": "uint256",
          "name": "",
          "type": "uint256"
        }
      ],
      "stateMutability": "view",
      "type": "function"
    },
    {
      "inputs": [
        {
          "internalType": "address",
          "name": "user",
          "type": "address"
        }
      ],
      "name": "totalDeposited",
      "outputs": [
        {
          "internalType": "uint256",
          "name": "",
          "type": "uint256"
        }
      ],
      "stateMutability": "view",
      "type": "function"
    },
    {
      "inputs": [],
      "name": "totalSupply",
      "outputs": [
        {
          "internalType": "uint256",
          "name": "",
          "type": "uint256"
        }
      ],
      "stateMutability": "view",
      "type": "function"
    },
    {
      "inputs": [
        {
          "internalType": "address",
          "name": "",
          "type": "address"
        },
        {
          "internalType": "uint256",
          "name": "",
          "type": "uint256"
        }
      ],
      "name": "transfer",
      "outputs": [
        {
          "internalType": "bool",
          "name": "",
          "type": "bool"
        }
      ],
      "stateMutability": "nonpayable",
      "type": "function"
    },
    {
      "inputs": [
        {
          "internalType": "address",
          "name": "sender",
          "type": "address"
        },
        {
          "internalType": "address",
          "name": "recipient",
          "type": "address"
        },
        {
          "internalType": "uint256",
          "name": "amount",
          "type": "uint256"
        }
      ],
      "name": "transferFrom",
      "outputs": [
        {
          "internalType": "bool",
          "name": "",
          "type": "bool"
        }
      ],
      "stateMutability": "nonpayable",
      "type": "function"
    },
    {
      "inputs": [
        {
          "internalType": "uint32",
          "name": "newTgeTimestamp",
          "type": "uint32"
        }
      ],
      "name": "updateTgeTimestamp",
      "outputs": [],
      "stateMutability": "nonpayable",
      "type": "function"
    },
    {
      "inputs": [
        {
          "internalType": "address",
          "name": "",
          "type": "address"
        }
      ],
      "name": "vestingInfo",
      "outputs": [
        {
          "internalType": "uint256",
          "name": "amountAlreadyWithdrawn",
          "type": "uint256"
        },
        {
          "internalType": "uint256",
          "name": "cliffSeconds",
          "type": "uint256"
        },
        {
          "internalType": "uint256",
          "name": "vestingSeconds",
          "type": "uint256"
        },
        {
          "internalType": "uint256",
          "name": "tgeUnlockRatio1e18",
          "type": "uint256"
        },
        {
          "internalType": "uint256",
          "name": "vestingFrequencySeconds",
          "type": "uint256"
        }
      ],
      "stateMutability": "view",
      "type": "function"
    },
    {
      "stateMutability": "payable",
      "type": "receive"
    }
  ],
  "transactionHash": "0x0e6ca6dfc91ad2a5b30c2ff647e3d9b8fe1d8524dbde64485b3f07cb2a9378b7",
  "args": [
    "0x657c358D196d4009CC81b722a489DeaF52214119",
    "0x4B1F15600f21B8863C8642608559144986212C43"
  ],
  "numDeployments": 1,
  "solcInputHash": "d20c42d9e30e37c98bc070f359fc13a6",
  "bytecode": "0x60a0604052636477df8063ffffffff1660809063ffffffff168152503480156200002857600080fd5b5060405162004a9c38038062004a9c83398181016040528101906200004e919062000311565b818173ffffffffffffffffffffffffffffffffffffffff166306fdde036040518163ffffffff1660e01b8152600401600060405180830381865afa1580156200009b573d6000803e3d6000fd5b505050506040513d6000823e3d601f19601f82011682018060405250810190620000c69190620004e1565b604051602001620000d89190620005a5565b6040516020818303038152906040528273ffffffffffffffffffffffffffffffffffffffff166395d89b416040518163ffffffff1660e01b8152600401600060405180830381865afa15801562000133573d6000803e3d6000fd5b505050506040513d6000823e3d601f19601f820116820180604052508101906200015e9190620004e1565b604051602001620001709190620005f5565b60405160208183030381529060405281600390816200019091906200085f565b508060049081620001a291906200085f565b50505080600560006101000a81548173ffffffffffffffffffffffffffffffffffffffff021916908373ffffffffffffffffffffffffffffffffffffffff1602179055505080600660006101000a81548173ffffffffffffffffffffffffffffffffffffffff021916908373ffffffffffffffffffffffffffffffffffffffff160217905550608051600660146101000a81548163ffffffff021916908363ffffffff160217905550505062000946565b6000604051905090565b600080fd5b600080fd5b600073ffffffffffffffffffffffffffffffffffffffff82169050919050565b6000620002948262000267565b9050919050565b620002a68162000287565b8114620002b257600080fd5b50565b600081519050620002c6816200029b565b92915050565b6000620002d98262000287565b9050919050565b620002eb81620002cc565b8114620002f757600080fd5b50565b6000815190506200030b81620002e0565b92915050565b600080604083850312156200032b576200032a6200025d565b5b60006200033b85828601620002b5565b92505060206200034e85828601620002fa565b9150509250929050565b600080fd5b600080fd5b6000601f19601f8301169050919050565b7f4e487b7100000000000000000000000000000000000000000000000000000000600052604160045260246000fd5b620003ad8262000362565b810181811067ffffffffffffffff82111715620003cf57620003ce62000373565b5b80604052505050565b6000620003e462000253565b9050620003f28282620003a2565b919050565b600067ffffffffffffffff82111562000415576200041462000373565b5b620004208262000362565b9050602081019050919050565b60005b838110156200044d57808201518184015260208101905062000430565b838111156200045d576000848401525b50505050565b60006200047a6200047484620003f7565b620003d8565b9050828152602081018484840111156200049957620004986200035d565b5b620004a68482856200042d565b509392505050565b600082601f830112620004c657620004c562000358565b5b8151620004d884826020860162000463565b91505092915050565b600060208284031215620004fa57620004f96200025d565b5b600082015167ffffffffffffffff8111156200051b576200051a62000262565b5b6200052984828501620004ae565b91505092915050565b7f76657374656420657363726f7720000000000000000000000000000000000000815250565b600081519050919050565b600081905092915050565b60006200057b8262000558565b62000587818562000563565b9350620005998185602086016200042d565b80840191505092915050565b6000620005b28262000532565b600e82019150620005c482846200056e565b915081905092915050565b7f7665000000000000000000000000000000000000000000000000000000000000815250565b60006200060282620005cf565b6002820191506200061482846200056e565b915081905092915050565b7f4e487b7100000000000000000000000000000000000000000000000000000000600052602260045260246000fd5b600060028204905060018216806200066757607f821691505b6020821081036200067d576200067c6200061f565b5b50919050565b60008190508160005260206000209050919050565b60006020601f8301049050919050565b600082821b905092915050565b600060088302620006e77fffffffffffffffffffffffffffffffffffffffffffffffffffffffffffffffff82620006a8565b620006f38683620006a8565b95508019841693508086168417925050509392505050565b6000819050919050565b6000819050919050565b6000620007406200073a62000734846200070b565b62000715565b6200070b565b9050919050565b6000819050919050565b6200075c836200071f565b620007746200076b8262000747565b848454620006b5565b825550505050565b600090565b6200078b6200077c565b6200079881848462000751565b505050565b5b81811015620007c057620007b460008262000781565b6001810190506200079e565b5050565b601f8211156200080f57620007d98162000683565b620007e48462000698565b81016020851015620007f4578190505b6200080c620008038562000698565b8301826200079d565b50505b505050565b600082821c905092915050565b6000620008346000198460080262000814565b1980831691505092915050565b60006200084f838362000821565b9150826002028217905092915050565b6200086a8262000558565b67ffffffffffffffff81111562000886576200088562000373565b5b6200089282546200064e565b6200089f828285620007c4565b600060209050601f831160018114620008d75760008415620008c2578287015190505b620008ce858262000841565b8655506200093e565b601f198416620008e78662000683565b60005b828110156200091157848901518255600182019150602085019450602081019050620008ea565b868310156200093157848901516200092d601f89168262000821565b8355505b6001600288020188555050505b505050505050565b60805161413362000969600039600081816116eb0152611af801526141336000f3fe6080604052600436106102085760003560e01c806375b238fc11610118578063a217fddf116100a0578063dd62ed3e1161006f578063dd62ed3e146107ae578063e9c26518146107eb578063ea9e9a8114610816578063ef5d9ae814610841578063f78e633d1461087e5761020f565b8063a217fddf146106de578063a4317ef414610709578063a457c2d714610734578063a9059cbb146107715761020f565b8063925bf5d4116100e7578063925bf5d41461061f57806393a56edc1461064857806395367f891461067157806395d89b411461069c5780639975038c146106c75761020f565b806375b238fc1461056557806379cc679014610590578063839006f2146105b957806391d14854146105e25761020f565b806323b872dd1161019b57806342966c681161016a57806342966c68146104805780634e71d92d146104a957806353055481146104c057806369287862146104fd57806370a08231146105285761020f565b806323b872dd1461039e578063248a9ca3146103db578063313ce5671461041857806339509351146104435761020f565b8063095ea7b3116101d7578063095ea7b3146102d05780630da451881461030d57806318160ddd1461034a57806321e5383a146103755761020f565b806301ffc9a71461021457806303ee9f221461025157806306fdde031461027c57806308614362146102a75761020f565b3661020f57005b600080fd5b34801561022057600080fd5b5061023b60048036038101906102369190612a37565b6108bf565b6040516102489190612a7f565b60405180910390f35b34801561025d57600080fd5b50610266610964565b6040516102739190612b19565b60405180910390f35b34801561028857600080fd5b5061029161098a565b60405161029e9190612bcd565b60405180910390f35b3480156102b357600080fd5b506102ce60048036038101906102c99190612c2d565b610a1c565b005b3480156102dc57600080fd5b506102f760048036038101906102f29190612c90565b610bcb565b6040516103049190612a7f565b60405180910390f35b34801561031957600080fd5b50610334600480360381019061032f9190612c2d565b610be9565b6040516103419190612cdf565b60405180910390f35b34801561035657600080fd5b5061035f610def565b60405161036c9190612cdf565b60405180910390f35b34801561038157600080fd5b5061039c60048036038101906103979190612c90565b610df9565b005b3480156103aa57600080fd5b506103c560048036038101906103c09190612cfa565b610e56565b6040516103d29190612a7f565b60405180910390f35b3480156103e757600080fd5b5061040260048036038101906103fd9190612d83565b610f4e565b60405161040f9190612dbf565b60405180910390f35b34801561042457600080fd5b5061042d610ff3565b60405161043a9190612df6565b60405180910390f35b34801561044f57600080fd5b5061046a60048036038101906104659190612c90565b610ffc565b6040516104779190612a7f565b60405180910390f35b34801561048c57600080fd5b506104a760048036038101906104a29190612e11565b6110a8565b005b3480156104b557600080fd5b506104be6110bc565b005b3480156104cc57600080fd5b506104e760048036038101906104e29190612c2d565b6111f0565b6040516104f49190612cdf565b60405180910390f35b34801561050957600080fd5b50610512611273565b60405161051f9190612e5f565b60405180910390f35b34801561053457600080fd5b5061054f600480360381019061054a9190612c2d565b611299565b60405161055c9190612cdf565b60405180910390f35b34801561057157600080fd5b5061057a6112f8565b6040516105879190612dbf565b60405180910390f35b34801561059c57600080fd5b506105b760048036038101906105b29190612c90565b61131c565b005b3480156105c557600080fd5b506105e060048036038101906105db9190612eb8565b611397565b005b3480156105ee57600080fd5b5061060960048036038101906106049190612ee5565b6115a1565b6040516106169190612a7f565b60405180910390f35b34801561062b57600080fd5b5061064660048036038101906106419190612f61565b611649565b005b34801561065457600080fd5b5061066f600480360381019061066a9190612f8e565b61177d565b005b34801561067d57600080fd5b5061068661180b565b6040516106939190612dbf565b60405180910390f35b3480156106a857600080fd5b506106b161182f565b6040516106be9190612bcd565b60405180910390f35b3480156106d357600080fd5b506106dc6118c1565b005b3480156106ea57600080fd5b506106f3611923565b6040516107009190612dbf565b60405180910390f35b34801561071557600080fd5b5061071e61192a565b60405161072b919061302a565b60405180910390f35b34801561074057600080fd5b5061075b60048036038101906107569190612c90565b611940565b6040516107689190612a7f565b60405180910390f35b34801561077d57600080fd5b5061079860048036038101906107939190612c90565b611a2b565b6040516107a59190612a7f565b60405180910390f35b3480156107ba57600080fd5b506107d560048036038101906107d09190613045565b611a68565b6040516107e29190612cdf565b60405180910390f35b3480156107f757600080fd5b50610800611aef565b60405161080d9190612dbf565b60405180910390f35b34801561082257600080fd5b5061082b611af6565b604051610838919061302a565b60405180910390f35b34801561084d57600080fd5b5061086860048036038101906108639190612c2d565b611b1a565b6040516108759190612cdf565b60405180910390f35b34801561088a57600080fd5b506108a560048036038101906108a09190612c2d565b611b66565b6040516108b6959493929190613085565b60405180910390f35b6000600560009054906101000a900473ffffffffffffffffffffffffffffffffffffffff1673ffffffffffffffffffffffffffffffffffffffff166301ffc9a7836040518263ffffffff1660e01b815260040161091c91906130e7565b602060405180830381865afa158015610939573d6000803e3d6000fd5b505050506040513d601f19601f8201168201806040525081019061095d919061312e565b9050919050565b600560009054906101000a900473ffffffffffffffffffffffffffffffffffffffff1681565b6060600380546109999061318a565b80601f01602080910402602001604051908101604052809291908181526020018280546109c59061318a565b8015610a125780601f106109e757610100808354040283529160200191610a12565b820191906000526020600020905b8154815290600101906020018083116109f557829003601f168201915b5050505050905090565b60011515610a4a7fa49807205ce4d355092ef5a8a18f56e8913cf4a201fbe287825b095693c21775836115a1565b151514610a8c576040517f08c379a0000000000000000000000000000000000000000000000000000000008152600401610a8390613207565b60405180910390fd5b6000610a9733611299565b905060008111610adc576040517f08c379a0000000000000000000000000000000000000000000000000000000008152600401610ad390613273565b60405180910390fd5b8067ffffffffffffffff16600760003373ffffffffffffffffffffffffffffffffffffffff1673ffffffffffffffffffffffffffffffffffffffff16815260200190815260200160002060000154610b3491906132c2565b600760003373ffffffffffffffffffffffffffffffffffffffff1673ffffffffffffffffffffffffffffffffffffffff16815260200190815260200160002060000181905550610bc78282600660009054906101000a900473ffffffffffffffffffffffffffffffffffffffff1673ffffffffffffffffffffffffffffffffffffffff16611b9c9092919063ffffffff16565b5050565b6000610bdf610bd8611c22565b8484611c2a565b6001905092915050565b600080600760008473ffffffffffffffffffffffffffffffffffffffff1673ffffffffffffffffffffffffffffffffffffffff1681526020019081526020016000206040518060a00160405290816000820154815260200160018201548152602001600282015481526020016003820154815260200160048201548152505090506000429050600660149054906101000a900463ffffffff1663ffffffff16811015610c9a57600092505050610dea565b6000670de0b6b3a76400008360600151610cb387611df3565b610cbd9190613318565b610cc791906133a1565b90508260200151600660149054906101000a900463ffffffff1663ffffffff16610cf191906132c2565b8210610dd457818360400151600660149054906101000a900463ffffffff1663ffffffff16610d2091906132c2565b1015610d3657610d2f85611df3565b9050610dd3565b6000610d4186611df3565b905060008460200151600660149054906101000a900463ffffffff1663ffffffff16610d6d91906132c2565b84610d7891906133d2565b9050600085602001518660400151610d9091906133d2565b905060008660800151876080015184610da991906133a1565b610db39190613318565b9050818185610dc29190613318565b610dcc91906133a1565b9450505050505b5b826000015181610de491906133d2565b93505050505b919050565b6000600254905090565b610e48333083600660009054906101000a900473ffffffffffffffffffffffffffffffffffffffff1673ffffffffffffffffffffffffffffffffffffffff16611e3b909392919063ffffffff16565b610e528282611ec4565b5050565b6000610e63848484612023565b6000600160008673ffffffffffffffffffffffffffffffffffffffff1673ffffffffffffffffffffffffffffffffffffffff1681526020019081526020016000206000610eae611c22565b73ffffffffffffffffffffffffffffffffffffffff1673ffffffffffffffffffffffffffffffffffffffff16815260200190815260200160002054905082811015610f2e576040517f08c379a0000000000000000000000000000000000000000000000000000000008152600401610f2590613478565b60405180910390fd5b610f4285610f3a611c22565b858403611c2a565b60019150509392505050565b6000600560009054906101000a900473ffffffffffffffffffffffffffffffffffffffff1673ffffffffffffffffffffffffffffffffffffffff1663248a9ca3836040518263ffffffff1660e01b8152600401610fab9190612dbf565b602060405180830381865afa158015610fc8573d6000803e3d6000fd5b505050506040513d601f19601f82011682018060405250810190610fec91906134ad565b9050919050565b60006012905090565b600061109e611009611c22565b848460016000611017611c22565b73ffffffffffffffffffffffffffffffffffffffff1673ffffffffffffffffffffffffffffffffffffffff16815260200190815260200160002060008873ffffffffffffffffffffffffffffffffffffffff1673ffffffffffffffffffffffffffffffffffffffff1681526020019081526020016000205461109991906132c2565b611c2a565b6001905092915050565b6110b96110b3611c22565b826122a2565b50565b60006110c733610be9565b90506000811161110c576040517f08c379a000000000000000000000000000000000000000000000000000000000815260040161110390613526565b60405180910390fd5b80600760003373ffffffffffffffffffffffffffffffffffffffff1673ffffffffffffffffffffffffffffffffffffffff1681526020019081526020016000206000015461115a91906132c2565b600760003373ffffffffffffffffffffffffffffffffffffffff1673ffffffffffffffffffffffffffffffffffffffff168152602001908152602001600020600001819055506111ed3382600660009054906101000a900473ffffffffffffffffffffffffffffffffffffffff1673ffffffffffffffffffffffffffffffffffffffff16611b9c9092919063ffffffff16565b50565b60003073ffffffffffffffffffffffffffffffffffffffff166370a08231836040518263ffffffff1660e01b815260040161122b9190613555565b602060405180830381865afa158015611248573d6000803e3d6000fd5b505050506040513d601f19601f8201168201806040525081019061126c9190613585565b9050919050565b600660009054906101000a900473ffffffffffffffffffffffffffffffffffffffff1681565b6000600760008373ffffffffffffffffffffffffffffffffffffffff1673ffffffffffffffffffffffffffffffffffffffff168152602001908152602001600020600001546112e783611df3565b6112f191906133d2565b9050919050565b7fa49807205ce4d355092ef5a8a18f56e8913cf4a201fbe287825b095693c2177581565b600061132f8361132a611c22565b611a68565b905081811015611374576040517f08c379a000000000000000000000000000000000000000000000000000000000815260040161136b90613624565b60405180910390fd5b61138883611380611c22565b848403611c2a565b61139283836122a2565b505050565b6000801b6113a581336115a1565b6113e85780336040517f37c2e3430000000000000000000000000000000000000000000000000000000081526004016113df929190613644565b60405180910390fd5b600660009054906101000a900473ffffffffffffffffffffffffffffffffffffffff1673ffffffffffffffffffffffffffffffffffffffff168273ffffffffffffffffffffffffffffffffffffffff1603611478576040517f08c379a000000000000000000000000000000000000000000000000000000000815260040161146f906136b9565b60405180910390fd5b600073ffffffffffffffffffffffffffffffffffffffff168273ffffffffffffffffffffffffffffffffffffffff16036114f8573373ffffffffffffffffffffffffffffffffffffffff166108fc479081150290604051600060405180830381858888f193505050501580156114f2573d6000803e3d6000fd5b5061159d565b61159c338373ffffffffffffffffffffffffffffffffffffffff166370a08231306040518263ffffffff1660e01b81526004016115359190613555565b602060405180830381865afa158015611552573d6000803e3d6000fd5b505050506040513d601f19601f820116820180604052508101906115769190613585565b8473ffffffffffffffffffffffffffffffffffffffff16611b9c9092919063ffffffff16565b5b5050565b6000600560009054906101000a900473ffffffffffffffffffffffffffffffffffffffff1673ffffffffffffffffffffffffffffffffffffffff166391d1485484846040518363ffffffff1660e01b8152600401611600929190613644565b602060405180830381865afa15801561161d573d6000803e3d6000fd5b505050506040513d601f19601f82011682018060405250810190611641919061312e565b905092915050565b6000801b61165781336115a1565b61169a5780336040517f37c2e343000000000000000000000000000000000000000000000000000000008152600401611691929190613644565b60405180910390fd5b8163ffffffff164263ffffffff1611156116e9576040517f08c379a00000000000000000000000000000000000000000000000000000000081526004016116e09061374b565b60405180910390fd5b7f000000000000000000000000000000000000000000000000000000000000000063ffffffff168263ffffffff161115611758576040517f08c379a000000000000000000000000000000000000000000000000000000000815260040161174f906137dd565b60405180910390fd5b81600660146101000a81548163ffffffff021916908363ffffffff1602179055505050565b7fa49807205ce4d355092ef5a8a18f56e8913cf4a201fbe287825b095693c217756117a881336115a1565b6117eb5780336040517f37c2e3430000000000000000000000000000000000000000000000000000000081526004016117e2929190613644565b60405180910390fd5b6117f887868686866122b0565b6118028787610df9565b50505050505050565b7f0a7cc066f24e107ff77c42c8a1bdaf1a5f775fa4a74e45530aaf9c866368f65381565b60606004805461183e9061318a565b80601f016020809104026020016040519081016040528092919081815260200182805461186a9061318a565b80156118b75780601f1061188c576101008083540402835291602001916118b7565b820191906000526020600020905b81548152906001019060200180831161189a57829003601f168201915b5050505050905090565b60006118cc33611df3565b90506118d8338261258d565b6000600760003373ffffffffffffffffffffffffffffffffffffffff1673ffffffffffffffffffffffffffffffffffffffff1681526020019081526020016000206000018190555050565b6000801b81565b600660149054906101000a900463ffffffff1681565b6000806001600061194f611c22565b73ffffffffffffffffffffffffffffffffffffffff1673ffffffffffffffffffffffffffffffffffffffff16815260200190815260200160002060008573ffffffffffffffffffffffffffffffffffffffff1673ffffffffffffffffffffffffffffffffffffffff16815260200190815260200160002054905082811015611a0c576040517f08c379a0000000000000000000000000000000000000000000000000000000008152600401611a039061386f565b60405180910390fd5b611a20611a17611c22565b85858403611c2a565b600191505092915050565b60006040517f08c379a0000000000000000000000000000000000000000000000000000000008152600401611a5f90613901565b60405180910390fd5b6000600160008473ffffffffffffffffffffffffffffffffffffffff1673ffffffffffffffffffffffffffffffffffffffff16815260200190815260200160002060008373ffffffffffffffffffffffffffffffffffffffff1673ffffffffffffffffffffffffffffffffffffffff16815260200190815260200160002054905092915050565b6000801b81565b7f000000000000000000000000000000000000000000000000000000000000000081565b6000600760008373ffffffffffffffffffffffffffffffffffffffff1673ffffffffffffffffffffffffffffffffffffffff168152602001908152602001600020600001549050919050565b60076020528060005260406000206000915090508060000154908060010154908060020154908060030154908060040154905085565b611c1d8363a9059cbb60e01b8484604051602401611bbb929190613921565b604051602081830303815290604052907bffffffffffffffffffffffffffffffffffffffffffffffffffffffff19166020820180517bffffffffffffffffffffffffffffffffffffffffffffffffffffffff8381831617835250505050612763565b505050565b600033905090565b600073ffffffffffffffffffffffffffffffffffffffff168373ffffffffffffffffffffffffffffffffffffffff1603611c99576040517f08c379a0000000000000000000000000000000000000000000000000000000008152600401611c90906139bc565b60405180910390fd5b600073ffffffffffffffffffffffffffffffffffffffff168273ffffffffffffffffffffffffffffffffffffffff1603611d08576040517f08c379a0000000000000000000000000000000000000000000000000000000008152600401611cff90613a4e565b60405180910390fd5b80600160008573ffffffffffffffffffffffffffffffffffffffff1673ffffffffffffffffffffffffffffffffffffffff16815260200190815260200160002060008473ffffffffffffffffffffffffffffffffffffffff1673ffffffffffffffffffffffffffffffffffffffff168152602001908152602001600020819055508173ffffffffffffffffffffffffffffffffffffffff168373ffffffffffffffffffffffffffffffffffffffff167f8c5be1e5ebec7d5bd14f71427d1e84f3dd0314c0f7b2291e5b200ac8c7c3b92583604051611de69190612cdf565b60405180910390a3505050565b60008060008373ffffffffffffffffffffffffffffffffffffffff1673ffffffffffffffffffffffffffffffffffffffff168152602001908152602001600020549050919050565b611ebe846323b872dd60e01b858585604051602401611e5c93929190613a6e565b604051602081830303815290604052907bffffffffffffffffffffffffffffffffffffffffffffffffffffffff19166020820180517bffffffffffffffffffffffffffffffffffffffffffffffffffffffff8381831617835250505050612763565b50505050565b600073ffffffffffffffffffffffffffffffffffffffff168273ffffffffffffffffffffffffffffffffffffffff1603611f33576040517f08c379a0000000000000000000000000000000000000000000000000000000008152600401611f2a90613af1565b60405180910390fd5b611f3f6000838361282a565b8060026000828254611f5191906132c2565b92505081905550806000808473ffffffffffffffffffffffffffffffffffffffff1673ffffffffffffffffffffffffffffffffffffffff1681526020019081526020016000206000828254611fa691906132c2565b925050819055508173ffffffffffffffffffffffffffffffffffffffff16600073ffffffffffffffffffffffffffffffffffffffff167fddf252ad1be2c89b69c2b068fc378daa952ba7f163c4a11628f55a4df523b3ef8360405161200b9190612cdf565b60405180910390a361201f6000838361282f565b5050565b600073ffffffffffffffffffffffffffffffffffffffff168373ffffffffffffffffffffffffffffffffffffffff1603612092576040517f08c379a000000000000000000000000000000000000000000000000000000000815260040161208990613b83565b60405180910390fd5b600073ffffffffffffffffffffffffffffffffffffffff168273ffffffffffffffffffffffffffffffffffffffff1603612101576040517f08c379a00000000000000000000000000000000000000000000000000000000081526004016120f890613c15565b60405180910390fd5b61210c83838361282a565b60008060008573ffffffffffffffffffffffffffffffffffffffff1673ffffffffffffffffffffffffffffffffffffffff16815260200190815260200160002054905081811015612192576040517f08c379a000000000000000000000000000000000000000000000000000000000815260040161218990613ca7565b60405180910390fd5b8181036000808673ffffffffffffffffffffffffffffffffffffffff1673ffffffffffffffffffffffffffffffffffffffff16815260200190815260200160002081905550816000808573ffffffffffffffffffffffffffffffffffffffff1673ffffffffffffffffffffffffffffffffffffffff168152602001908152602001600020600082825461222591906132c2565b925050819055508273ffffffffffffffffffffffffffffffffffffffff168473ffffffffffffffffffffffffffffffffffffffff167fddf252ad1be2c89b69c2b068fc378daa952ba7f163c4a11628f55a4df523b3ef846040516122899190612cdf565b60405180910390a361229c84848461282f565b50505050565b6122ac828261258d565b5050565b838311156122f3576040517f08c379a00000000000000000000000000000000000000000000000000000000081526004016122ea90613d39565b60405180910390fd5b670de0b6b3a764000082111561233e576040517f08c379a000000000000000000000000000000000000000000000000000000000815260040161233590613dcb565b60405180910390fd5b83600760008773ffffffffffffffffffffffffffffffffffffffff1673ffffffffffffffffffffffffffffffffffffffff1681526020019081526020016000206002015410156123d05783600760008773ffffffffffffffffffffffffffffffffffffffff1673ffffffffffffffffffffffffffffffffffffffff168152602001908152602001600020600201819055505b82600760008773ffffffffffffffffffffffffffffffffffffffff1673ffffffffffffffffffffffffffffffffffffffff1681526020019081526020016000206001015410156124625782600760008773ffffffffffffffffffffffffffffffffffffffff1673ffffffffffffffffffffffffffffffffffffffff168152602001908152602001600020600101819055505b81600760008773ffffffffffffffffffffffffffffffffffffffff1673ffffffffffffffffffffffffffffffffffffffff1681526020019081526020016000206003015411156124f45781600760008773ffffffffffffffffffffffffffffffffffffffff1673ffffffffffffffffffffffffffffffffffffffff168152602001908152602001600020600301819055505b80600760008773ffffffffffffffffffffffffffffffffffffffff1673ffffffffffffffffffffffffffffffffffffffff1681526020019081526020016000206004015410156125865780600760008773ffffffffffffffffffffffffffffffffffffffff1673ffffffffffffffffffffffffffffffffffffffff168152602001908152602001600020600401819055505b5050505050565b600073ffffffffffffffffffffffffffffffffffffffff168273ffffffffffffffffffffffffffffffffffffffff16036125fc576040517f08c379a00000000000000000000000000000000000000000000000000000000081526004016125f390613e5d565b60405180910390fd5b6126088260008361282a565b60008060008473ffffffffffffffffffffffffffffffffffffffff1673ffffffffffffffffffffffffffffffffffffffff1681526020019081526020016000205490508181101561268e576040517f08c379a000000000000000000000000000000000000000000000000000000000815260040161268590613eef565b60405180910390fd5b8181036000808573ffffffffffffffffffffffffffffffffffffffff1673ffffffffffffffffffffffffffffffffffffffff1681526020019081526020016000208190555081600260008282546126e591906133d2565b92505081905550600073ffffffffffffffffffffffffffffffffffffffff168373ffffffffffffffffffffffffffffffffffffffff167fddf252ad1be2c89b69c2b068fc378daa952ba7f163c4a11628f55a4df523b3ef8460405161274a9190612cdf565b60405180910390a361275e8360008461282f565b505050565b60006127c5826040518060400160405280602081526020017f5361666545524332303a206c6f772d6c6576656c2063616c6c206661696c65648152508573ffffffffffffffffffffffffffffffffffffffff166128349092919063ffffffff16565b905060008151111561282557808060200190518101906127e5919061312e565b612824576040517f08c379a000000000000000000000000000000000000000000000000000000000815260040161281b90613f81565b60405180910390fd5b5b505050565b505050565b505050565b6060612843848460008561284c565b90509392505050565b606082471015612891576040517f08c379a000000000000000000000000000000000000000000000000000000000815260040161288890614013565b60405180910390fd5b61289a85612960565b6128d9576040517f08c379a00000000000000000000000000000000000000000000000000000000081526004016128d09061407f565b60405180910390fd5b6000808673ffffffffffffffffffffffffffffffffffffffff16858760405161290291906140e6565b60006040518083038185875af1925050503d806000811461293f576040519150601f19603f3d011682016040523d82523d6000602084013e612944565b606091505b5091509150612954828286612973565b92505050949350505050565b600080823b905060008111915050919050565b60608315612983578290506129d3565b6000835111156129965782518084602001fd5b816040517f08c379a00000000000000000000000000000000000000000000000000000000081526004016129ca9190612bcd565b60405180910390fd5b9392505050565b600080fd5b60007fffffffff0000000000000000000000000000000000000000000000000000000082169050919050565b612a14816129df565b8114612a1f57600080fd5b50565b600081359050612a3181612a0b565b92915050565b600060208284031215612a4d57612a4c6129da565b5b6000612a5b84828501612a22565b91505092915050565b60008115159050919050565b612a7981612a64565b82525050565b6000602082019050612a946000830184612a70565b92915050565b600073ffffffffffffffffffffffffffffffffffffffff82169050919050565b6000819050919050565b6000612adf612ada612ad584612a9a565b612aba565b612a9a565b9050919050565b6000612af182612ac4565b9050919050565b6000612b0382612ae6565b9050919050565b612b1381612af8565b82525050565b6000602082019050612b2e6000830184612b0a565b92915050565b600081519050919050565b600082825260208201905092915050565b60005b83811015612b6e578082015181840152602081019050612b53565b83811115612b7d576000848401525b50505050565b6000601f19601f8301169050919050565b6000612b9f82612b34565b612ba98185612b3f565b9350612bb9818560208601612b50565b612bc281612b83565b840191505092915050565b60006020820190508181036000830152612be78184612b94565b905092915050565b6000612bfa82612a9a565b9050919050565b612c0a81612bef565b8114612c1557600080fd5b50565b600081359050612c2781612c01565b92915050565b600060208284031215612c4357612c426129da565b5b6000612c5184828501612c18565b91505092915050565b6000819050919050565b612c6d81612c5a565b8114612c7857600080fd5b50565b600081359050612c8a81612c64565b92915050565b60008060408385031215612ca757612ca66129da565b5b6000612cb585828601612c18565b9250506020612cc685828601612c7b565b9150509250929050565b612cd981612c5a565b82525050565b6000602082019050612cf46000830184612cd0565b92915050565b600080600060608486031215612d1357612d126129da565b5b6000612d2186828701612c18565b9350506020612d3286828701612c18565b9250506040612d4386828701612c7b565b9150509250925092565b6000819050919050565b612d6081612d4d565b8114612d6b57600080fd5b50565b600081359050612d7d81612d57565b92915050565b600060208284031215612d9957612d986129da565b5b6000612da784828501612d6e565b91505092915050565b612db981612d4d565b82525050565b6000602082019050612dd46000830184612db0565b92915050565b600060ff82169050919050565b612df081612dda565b82525050565b6000602082019050612e0b6000830184612de7565b92915050565b600060208284031215612e2757612e266129da565b5b6000612e3584828501612c7b565b91505092915050565b6000612e4982612ae6565b9050919050565b612e5981612e3e565b82525050565b6000602082019050612e746000830184612e50565b92915050565b6000612e8582612bef565b9050919050565b612e9581612e7a565b8114612ea057600080fd5b50565b600081359050612eb281612e8c565b92915050565b600060208284031215612ece57612ecd6129da565b5b6000612edc84828501612ea3565b91505092915050565b60008060408385031215612efc57612efb6129da565b5b6000612f0a85828601612d6e565b9250506020612f1b85828601612c18565b9150509250929050565b600063ffffffff82169050919050565b612f3e81612f25565b8114612f4957600080fd5b50565b600081359050612f5b81612f35565b92915050565b600060208284031215612f7757612f766129da565b5b6000612f8584828501612f4c565b91505092915050565b60008060008060008060c08789031215612fab57612faa6129da565b5b6000612fb989828a01612c18565b9650506020612fca89828a01612c7b565b9550506040612fdb89828a01612c7b565b9450506060612fec89828a01612c7b565b9350506080612ffd89828a01612c7b565b92505060a061300e89828a01612c7b565b9150509295509295509295565b61302481612f25565b82525050565b600060208201905061303f600083018461301b565b92915050565b6000806040838503121561305c5761305b6129da565b5b600061306a85828601612c18565b925050602061307b85828601612c18565b9150509250929050565b600060a08201905061309a6000830188612cd0565b6130a76020830187612cd0565b6130b46040830186612cd0565b6130c16060830185612cd0565b6130ce6080830184612cd0565b9695505050505050565b6130e1816129df565b82525050565b60006020820190506130fc60008301846130d8565b92915050565b61310b81612a64565b811461311657600080fd5b50565b60008151905061312881613102565b92915050565b600060208284031215613144576131436129da565b5b600061315284828501613119565b91505092915050565b7f4e487b7100000000000000000000000000000000000000000000000000000000600052602260045260246000fd5b600060028204905060018216806131a257607f821691505b6020821081036131b5576131b461315b565b5b50919050565b7f696e76616c69642061646d696e20616464726573730000000000000000000000600082015250565b60006131f1601583612b3f565b91506131fc826131bb565b602082019050919050565b60006020820190508181036000830152613220816131e4565b9050919050565b7f6e6f7468696e6720746f20646f6e617465000000000000000000000000000000600082015250565b600061325d601183612b3f565b915061326882613227565b602082019050919050565b6000602082019050818103600083015261328c81613250565b9050919050565b7f4e487b7100000000000000000000000000000000000000000000000000000000600052601160045260246000fd5b60006132cd82612c5a565b91506132d883612c5a565b9250827fffffffffffffffffffffffffffffffffffffffffffffffffffffffffffffffff0382111561330d5761330c613293565b5b828201905092915050565b600061332382612c5a565b915061332e83612c5a565b9250817fffffffffffffffffffffffffffffffffffffffffffffffffffffffffffffffff048311821515161561336757613366613293565b5b828202905092915050565b7f4e487b7100000000000000000000000000000000000000000000000000000000600052601260045260246000fd5b60006133ac82612c5a565b91506133b783612c5a565b9250826133c7576133c6613372565b5b828204905092915050565b60006133dd82612c5a565b91506133e883612c5a565b9250828210156133fb576133fa613293565b5b828203905092915050565b7f45524332303a207472616e7366657220616d6f756e742065786365656473206160008201527f6c6c6f77616e6365000000000000000000000000000000000000000000000000602082015250565b6000613462602883612b3f565b915061346d82613406565b604082019050919050565b6000602082019050818103600083015261349181613455565b9050919050565b6000815190506134a781612d57565b92915050565b6000602082840312156134c3576134c26129da565b5b60006134d184828501613498565b91505092915050565b7f43616e277420636c61696d203020746f6b656e73000000000000000000000000600082015250565b6000613510601483612b3f565b915061351b826134da565b602082019050919050565b6000602082019050818103600083015261353f81613503565b9050919050565b61354f81612bef565b82525050565b600060208201905061356a6000830184613546565b92915050565b60008151905061357f81612c64565b92915050565b60006020828403121561359b5761359a6129da565b5b60006135a984828501613570565b91505092915050565b7f45524332303a206275726e20616d6f756e74206578636565647320616c6c6f7760008201527f616e636500000000000000000000000000000000000000000000000000000000602082015250565b600061360e602483612b3f565b9150613619826135b2565b604082019050919050565b6000602082019050818103600083015261363d81613601565b9050919050565b60006040820190506136596000830185612db0565b6136666020830184613546565b9392505050565b7f4e6f20616c6c6f77656420746f20726573637565207468697320746f6b656e00600082015250565b60006136a3601f83612b3f565b91506136ae8261366d565b602082019050919050565b600060208201905081810360008301526136d281613696565b9050919050565b7f766545524332303a2054474520646174652063616e277420626520696e20746860008201527f6520706173740000000000000000000000000000000000000000000000000000602082015250565b6000613735602683612b3f565b9150613740826136d9565b604082019050919050565b6000602082019050818103600083015261376481613728565b9050919050565b7f766545524332303a206e6577205447452064617465206973206265796f6e642060008201527f6c696d6974000000000000000000000000000000000000000000000000000000602082015250565b60006137c7602583612b3f565b91506137d28261376b565b604082019050919050565b600060208201905081810360008301526137f6816137ba565b9050919050565b7f45524332303a2064656372656173656420616c6c6f77616e63652062656c6f7760008201527f207a65726f000000000000000000000000000000000000000000000000000000602082015250565b6000613859602583612b3f565b9150613864826137fd565b604082019050919050565b600060208201905081810360008301526138888161384c565b9050919050565b7f6e6f7420706f737369626c6520746f207472616e73666572207665737465642060008201527f746f6b656e000000000000000000000000000000000000000000000000000000602082015250565b60006138eb602583612b3f565b91506138f68261388f565b604082019050919050565b6000602082019050818103600083015261391a816138de565b9050919050565b60006040820190506139366000830185613546565b6139436020830184612cd0565b9392505050565b7f45524332303a20617070726f76652066726f6d20746865207a65726f2061646460008201527f7265737300000000000000000000000000000000000000000000000000000000602082015250565b60006139a6602483612b3f565b91506139b18261394a565b604082019050919050565b600060208201905081810360008301526139d581613999565b9050919050565b7f45524332303a20617070726f766520746f20746865207a65726f20616464726560008201527f7373000000000000000000000000000000000000000000000000000000000000602082015250565b6000613a38602283612b3f565b9150613a43826139dc565b604082019050919050565b60006020820190508181036000830152613a6781613a2b565b9050919050565b6000606082019050613a836000830186613546565b613a906020830185613546565b613a9d6040830184612cd0565b949350505050565b7f45524332303a206d696e7420746f20746865207a65726f206164647265737300600082015250565b6000613adb601f83612b3f565b9150613ae682613aa5565b602082019050919050565b60006020820190508181036000830152613b0a81613ace565b9050919050565b7f45524332303a207472616e736665722066726f6d20746865207a65726f20616460008201527f6472657373000000000000000000000000000000000000000000000000000000602082015250565b6000613b6d602583612b3f565b9150613b7882613b11565b604082019050919050565b60006020820190508181036000830152613b9c81613b60565b9050919050565b7f45524332303a207472616e7366657220746f20746865207a65726f206164647260008201527f6573730000000000000000000000000000000000000000000000000000000000602082015250565b6000613bff602383612b3f565b9150613c0a82613ba3565b604082019050919050565b60006020820190508181036000830152613c2e81613bf2565b9050919050565b7f45524332303a207472616e7366657220616d6f756e742065786365656473206260008201527f616c616e63650000000000000000000000000000000000000000000000000000602082015250565b6000613c91602683612b3f565b9150613c9c82613c35565b604082019050919050565b60006020820190508181036000830152613cc081613c84565b9050919050565b7f636c69666654696d652073686f756c64206265206c657373207468656e20766560008201527f7374696e6754696d650000000000000000000000000000000000000000000000602082015250565b6000613d23602983612b3f565b9150613d2e82613cc7565b604082019050919050565b60006020820190508181036000830152613d5281613d16565b9050919050565b7f746765556e6c6f636b526174696f2073686f756c64206265206c65737320746860008201527f616e203100000000000000000000000000000000000000000000000000000000602082015250565b6000613db5602483612b3f565b9150613dc082613d59565b604082019050919050565b60006020820190508181036000830152613de481613da8565b9050919050565b7f45524332303a206275726e2066726f6d20746865207a65726f2061646472657360008201527f7300000000000000000000000000000000000000000000000000000000000000602082015250565b6000613e47602183612b3f565b9150613e5282613deb565b604082019050919050565b60006020820190508181036000830152613e7681613e3a565b9050919050565b7f45524332303a206275726e20616d6f756e7420657863656564732062616c616e60008201527f6365000000000000000000000000000000000000000000000000000000000000602082015250565b6000613ed9602283612b3f565b9150613ee482613e7d565b604082019050919050565b60006020820190508181036000830152613f0881613ecc565b9050919050565b7f5361666545524332303a204552433230206f7065726174696f6e20646964206e60008201527f6f74207375636365656400000000000000000000000000000000000000000000602082015250565b6000613f6b602a83612b3f565b9150613f7682613f0f565b604082019050919050565b60006020820190508181036000830152613f9a81613f5e565b9050919050565b7f416464726573733a20696e73756666696369656e742062616c616e636520666f60008201527f722063616c6c0000000000000000000000000000000000000000000000000000602082015250565b6000613ffd602683612b3f565b915061400882613fa1565b604082019050919050565b6000602082019050818103600083015261402c81613ff0565b9050919050565b7f416464726573733a2063616c6c20746f206e6f6e2d636f6e7472616374000000600082015250565b6000614069601d83612b3f565b915061407482614033565b602082019050919050565b600060208201905081810360008301526140988161405c565b9050919050565b600081519050919050565b600081905092915050565b60006140c08261409f565b6140ca81856140aa565b93506140da818560208601612b50565b80840191505092915050565b60006140f282846140b5565b91508190509291505056fea26469706673582212200954532f1617ab555c4fb11137754fbfb17ed61a4519a5cd177852be5d42210364736f6c634300080f0033",
  "devdoc": {
    "kind": "dev",
    "methods": {
      "addBalance(address,uint256)": {
        "params": {
          "account": "Beneficiary of the vesting account.",
          "amount": "Amount of token to be send to user under vesting, which will be deducted from msg.sender."
        }
      },
      "allowance(address,address)": {
        "details": "See {IERC20-allowance}."
      },
      "approve(address,uint256)": {
        "details": "See {IERC20-approve}. Requirements: - `spender` cannot be the zero address."
      },
      "availableToClaim(address)": {
        "returns": {
          "_0": "Returns amount of tokens the users can withdraw right now."
        }
      },
      "balanceOf(address)": {
        "details": "See {IERC20-balanceOf}."
      },
      "burn(uint256)": {
        "details": "Destroys `amount` tokens from the caller. See {ERC20-_burn}."
      },
      "burnFrom(address,uint256)": {
        "details": "Destroys `amount` tokens from `account`, deducting from the caller's allowance. See {ERC20-_burn} and {ERC20-allowance}. Requirements: - the caller must have allowance for ``accounts``'s tokens of at least `amount`."
      },
      "decimals()": {
        "details": "Returns the number of decimals used to get its user representation. For example, if `decimals` equals `2`, a balance of `505` tokens should be displayed to a user as `5.05` (`505 / 10 ** 2`). Tokens usually opt for a value of 18, imitating the relationship between Ether and Wei. This is the value {ERC20} uses, unless this function is overridden; NOTE: This information is only used for _display_ purposes: it in no way affects any of the arithmetic of the contract, including {IERC20-balanceOf} and {IERC20-transfer}."
      },
      "decreaseAllowance(address,uint256)": {
        "details": "Atomically decreases the allowance granted to `spender` by the caller. This is an alternative to {approve} that can be used as a mitigation for problems described in {IERC20-approve}. Emits an {Approval} event indicating the updated allowance. Requirements: - `spender` cannot be the zero address. - `spender` must have allowance for the caller of at least `subtractedValue`."
      },
      "increaseAllowance(address,uint256)": {
        "details": "Atomically increases the allowance granted to `spender` by the caller. This is an alternative to {approve} that can be used as a mitigation for problems described in {IERC20-approve}. Emits an {Approval} event indicating the updated allowance. Requirements: - `spender` cannot be the zero address."
      },
      "lockUnderVesting(address,uint256,uint256,uint256,uint256,uint256)": {
        "params": {
          "account": "Beneficiary of the vesting account.",
          "amount": "Amount of tokens to be send, which will be deducted from msg.sender.",
          "cliffSeconds": "Amount of seconds while tokens would be completely locked.",
          "tgeUnlockRatio1e18": "ratio/1e18  [0..1] that indicates how many tokens are going to be unlocked during TGE",
          "vestingFrequencySeconds": "how frequently token are going to be unlocked after the cliff.",
          "vestingSeconds": "Amount of seconds when linear vesting would be over. Starts from cliff."
        }
      },
      "name()": {
        "details": "Returns the name of the token."
      },
      "symbol()": {
        "details": "Returns the symbol of the token, usually a shorter version of the name."
      },
      "totalSupply()": {
        "details": "See {IERC20-totalSupply}."
      },
      "transferFrom(address,address,uint256)": {
        "details": "See {IERC20-transferFrom}. Emits an {Approval} event indicating the updated allowance. This is not required by the EIP. See the note at the beginning of {ERC20}. Requirements: - `sender` and `recipient` cannot be the zero address. - `sender` must have a balance of at least `amount`. - the caller must have allowance for ``sender``'s tokens of at least `amount`."
      }
    },
    "version": 1
  },
  "userdoc": {
    "kind": "user",
    "methods": {
      "addBalance(address,uint256)": {
        "notice": "Adds more tokens to the existing (possibly zero) vesting account. Doesn't change vesting period!"
      },
      "availableToClaim(address)": {
        "notice": "Checks amount of vested tokens minus already withdrawn."
      },
      "claim()": {
        "notice": "User can claim their vested tokens."
      },
      "donateTokens(address)": {
        "notice": "User can donate tokens under vesting to DAO or other admin contract as us treasury."
      },
      "lockUnderVesting(address,uint256,uint256,uint256,uint256,uint256)": {
        "notice": "Creates an account with time-vesting for the user and withdraws these tokens from msg.sender."
      },
      "rescue(address)": {
        "notice": "The owner of the contact can take away tokens accidentally sent to the contract."
      },
      "totalClaimed(address)": {
        "notice": "Total amount of token user had claimed."
      },
      "totalDeposited(address)": {
        "notice": "Total amount of token was deposited under vesting on behalf of the user."
      },
      "updateTgeTimestamp(uint32)": {
        "notice": "owner of the contract can set up TGE date within set limits."
      }
    },
    "version": 1
  },
  "storageLayout": {
    "storage": [
      {
        "astId": 8060,
        "contract": "contracts/vested-escrow/VeERC20.sol:VeERC20",
        "label": "_balances",
        "offset": 0,
        "slot": "0",
        "type": "t_mapping(t_address,t_uint256)"
      },
      {
        "astId": 8066,
        "contract": "contracts/vested-escrow/VeERC20.sol:VeERC20",
        "label": "_allowances",
        "offset": 0,
        "slot": "1",
        "type": "t_mapping(t_address,t_mapping(t_address,t_uint256))"
      },
      {
        "astId": 8068,
        "contract": "contracts/vested-escrow/VeERC20.sol:VeERC20",
        "label": "_totalSupply",
        "offset": 0,
        "slot": "2",
        "type": "t_uint256"
      },
      {
        "astId": 8070,
        "contract": "contracts/vested-escrow/VeERC20.sol:VeERC20",
        "label": "_name",
        "offset": 0,
        "slot": "3",
        "type": "t_string_storage"
      },
      {
        "astId": 8072,
        "contract": "contracts/vested-escrow/VeERC20.sol:VeERC20",
        "label": "_symbol",
        "offset": 0,
        "slot": "4",
        "type": "t_string_storage"
      },
      {
        "astId": 14213,
        "contract": "contracts/vested-escrow/VeERC20.sol:VeERC20",
        "label": "ACCESS_CONTROL_SINGLETON",
        "offset": 0,
        "slot": "5",
        "type": "t_contract(ISuAccessControl)15657"
      },
      {
        "astId": 15934,
        "contract": "contracts/vested-escrow/VeERC20.sol:VeERC20",
        "label": "LOCKED_TOKEN",
        "offset": 0,
        "slot": "6",
        "type": "t_contract(ERC20)8590"
      },
      {
        "astId": 15939,
        "contract": "contracts/vested-escrow/VeERC20.sol:VeERC20",
        "label": "tgeTimestamp",
        "offset": 20,
        "slot": "6",
        "type": "t_uint32"
      },
      {
        "astId": 15955,
        "contract": "contracts/vested-escrow/VeERC20.sol:VeERC20",
        "label": "vestingInfo",
        "offset": 0,
        "slot": "7",
        "type": "t_mapping(t_address,t_struct(VestingInfo)15950_storage)"
      }
    ],
    "types": {
      "t_address": {
        "encoding": "inplace",
        "label": "address",
        "numberOfBytes": "20"
      },
      "t_contract(ERC20)8590": {
        "encoding": "inplace",
        "label": "contract ERC20",
        "numberOfBytes": "20"
      },
      "t_contract(ISuAccessControl)15657": {
        "encoding": "inplace",
        "label": "contract ISuAccessControl",
        "numberOfBytes": "20"
      },
      "t_mapping(t_address,t_mapping(t_address,t_uint256))": {
        "encoding": "mapping",
        "key": "t_address",
        "label": "mapping(address => mapping(address => uint256))",
        "numberOfBytes": "32",
        "value": "t_mapping(t_address,t_uint256)"
      },
      "t_mapping(t_address,t_struct(VestingInfo)15950_storage)": {
        "encoding": "mapping",
        "key": "t_address",
        "label": "mapping(address => struct VeERC20.VestingInfo)",
        "numberOfBytes": "32",
        "value": "t_struct(VestingInfo)15950_storage"
      },
      "t_mapping(t_address,t_uint256)": {
        "encoding": "mapping",
        "key": "t_address",
        "label": "mapping(address => uint256)",
        "numberOfBytes": "32",
        "value": "t_uint256"
      },
      "t_string_storage": {
        "encoding": "bytes",
        "label": "string",
        "numberOfBytes": "32"
      },
      "t_struct(VestingInfo)15950_storage": {
        "encoding": "inplace",
        "label": "struct VeERC20.VestingInfo",
        "members": [
          {
            "astId": 15941,
            "contract": "contracts/vested-escrow/VeERC20.sol:VeERC20",
            "label": "amountAlreadyWithdrawn",
            "offset": 0,
            "slot": "0",
            "type": "t_uint256"
          },
          {
            "astId": 15943,
            "contract": "contracts/vested-escrow/VeERC20.sol:VeERC20",
            "label": "cliffSeconds",
            "offset": 0,
            "slot": "1",
            "type": "t_uint256"
          },
          {
            "astId": 15945,
            "contract": "contracts/vested-escrow/VeERC20.sol:VeERC20",
            "label": "vestingSeconds",
            "offset": 0,
            "slot": "2",
            "type": "t_uint256"
          },
          {
            "astId": 15947,
            "contract": "contracts/vested-escrow/VeERC20.sol:VeERC20",
            "label": "tgeUnlockRatio1e18",
            "offset": 0,
            "slot": "3",
            "type": "t_uint256"
          },
          {
            "astId": 15949,
            "contract": "contracts/vested-escrow/VeERC20.sol:VeERC20",
            "label": "vestingFrequencySeconds",
            "offset": 0,
            "slot": "4",
            "type": "t_uint256"
          }
        ],
        "numberOfBytes": "160"
      },
      "t_uint256": {
        "encoding": "inplace",
        "label": "uint256",
        "numberOfBytes": "32"
      },
      "t_uint32": {
        "encoding": "inplace",
        "label": "uint32",
        "numberOfBytes": "4"
      }
    }
  }
}