{
  "address": "0xDF2e747Ae22Ea80B5f6C8f8BA8FDC2FAAC996762",
  "abi": [
    {
      "inputs": [
        {
          "internalType": "bytes32",
          "name": "role",
          "type": "bytes32"
        },
        {
          "internalType": "address",
          "name": "msgSender",
          "type": "address"
        }
      ],
      "name": "OnlyRoleError",
      "type": "error"
    },
    {
      "anonymous": false,
      "inputs": [
        {
          "indexed": true,
          "internalType": "address",
          "name": "owner",
          "type": "address"
        },
        {
          "indexed": true,
          "internalType": "address",
          "name": "spender",
          "type": "address"
        },
        {
          "indexed": false,
          "internalType": "uint256",
          "name": "value",
          "type": "uint256"
        }
      ],
      "name": "Approval",
      "type": "event"
    },
    {
      "anonymous": false,
      "inputs": [
        {
          "indexed": true,
          "internalType": "address",
          "name": "delegator",
          "type": "address"
        },
        {
          "indexed": true,
          "internalType": "address",
          "name": "fromDelegate",
          "type": "address"
        },
        {
          "indexed": true,
          "internalType": "address",
          "name": "toDelegate",
          "type": "address"
        }
      ],
      "name": "DelegateChanged",
      "type": "event"
    },
    {
      "anonymous": false,
      "inputs": [
        {
          "indexed": true,
          "internalType": "address",
          "name": "delegate",
          "type": "address"
        },
        {
          "indexed": false,
          "internalType": "uint256",
          "name": "previousBalance",
          "type": "uint256"
        },
        {
          "indexed": false,
          "internalType": "uint256",
          "name": "newBalance",
          "type": "uint256"
        }
      ],
      "name": "DelegateVotesChanged",
      "type": "event"
    },
    {
      "anonymous": false,
      "inputs": [
        {
          "indexed": false,
          "internalType": "uint8",
          "name": "version",
          "type": "uint8"
        }
      ],
      "name": "Initialized",
      "type": "event"
    },
    {
      "anonymous": false,
      "inputs": [
        {
          "indexed": false,
          "internalType": "uint16",
          "name": "_srcChainId",
          "type": "uint16"
        },
        {
          "indexed": false,
          "internalType": "bytes",
          "name": "_srcAddress",
          "type": "bytes"
        },
        {
          "indexed": false,
          "internalType": "uint64",
          "name": "_nonce",
          "type": "uint64"
        },
        {
          "indexed": false,
          "internalType": "bytes",
          "name": "_payload",
          "type": "bytes"
        },
        {
          "indexed": false,
          "internalType": "bytes",
          "name": "_reason",
          "type": "bytes"
        }
      ],
      "name": "MessageFailed",
      "type": "event"
    },
    {
      "anonymous": false,
      "inputs": [
        {
          "indexed": true,
          "internalType": "address",
          "name": "previousOwner",
          "type": "address"
        },
        {
          "indexed": true,
          "internalType": "address",
          "name": "newOwner",
          "type": "address"
        }
      ],
      "name": "OwnershipTransferred",
      "type": "event"
    },
    {
      "anonymous": false,
      "inputs": [
        {
          "indexed": false,
          "internalType": "uint16",
          "name": "_srcChainId",
          "type": "uint16"
        },
        {
          "indexed": false,
          "internalType": "bytes",
          "name": "_srcAddress",
          "type": "bytes"
        },
        {
          "indexed": false,
          "internalType": "uint64",
          "name": "_nonce",
          "type": "uint64"
        },
        {
          "indexed": false,
          "internalType": "bytes32",
          "name": "_payloadHash",
          "type": "bytes32"
        }
      ],
      "name": "RetryMessageSuccess",
      "type": "event"
    },
    {
      "anonymous": false,
      "inputs": [
        {
          "indexed": false,
          "internalType": "uint16",
          "name": "_dstChainId",
          "type": "uint16"
        },
        {
          "indexed": false,
          "internalType": "uint16",
          "name": "_type",
          "type": "uint16"
        },
        {
          "indexed": false,
          "internalType": "uint256",
          "name": "_minDstGas",
          "type": "uint256"
        }
      ],
      "name": "SetMinDstGas",
      "type": "event"
    },
    {
      "anonymous": false,
      "inputs": [
        {
          "indexed": false,
          "internalType": "address",
          "name": "precrime",
          "type": "address"
        }
      ],
      "name": "SetPrecrime",
      "type": "event"
    },
    {
      "anonymous": false,
      "inputs": [
        {
          "indexed": false,
          "internalType": "uint16",
          "name": "_remoteChainId",
          "type": "uint16"
        },
        {
          "indexed": false,
          "internalType": "bytes",
          "name": "_path",
          "type": "bytes"
        }
      ],
      "name": "SetTrustedRemote",
      "type": "event"
    },
    {
      "anonymous": false,
      "inputs": [
        {
          "indexed": false,
          "internalType": "uint16",
          "name": "_remoteChainId",
          "type": "uint16"
        },
        {
          "indexed": false,
          "internalType": "bytes",
          "name": "_remoteAddress",
          "type": "bytes"
        }
      ],
      "name": "SetTrustedRemoteAddress",
      "type": "event"
    },
    {
      "anonymous": false,
      "inputs": [
        {
          "indexed": true,
          "internalType": "address",
          "name": "from",
          "type": "address"
        },
        {
          "indexed": true,
          "internalType": "address",
          "name": "to",
          "type": "address"
        },
        {
          "indexed": false,
          "internalType": "uint256",
          "name": "value",
          "type": "uint256"
        }
      ],
      "name": "Transfer",
      "type": "event"
    },
    {
      "inputs": [],
      "name": "ACCESS_CONTROL_SINGLETON",
      "outputs": [
        {
          "internalType": "contract ISuAccessControl",
          "name": "",
          "type": "address"
        }
      ],
      "stateMutability": "view",
      "type": "function"
    },
    {
      "inputs": [],
      "name": "ADMIN_ROLE",
      "outputs": [
        {
          "internalType": "bytes32",
          "name": "",
          "type": "bytes32"
        }
      ],
      "stateMutability": "view",
      "type": "function"
    },
    {
      "inputs": [],
      "name": "DAO_ROLE",
      "outputs": [
        {
          "internalType": "bytes32",
          "name": "",
          "type": "bytes32"
        }
      ],
      "stateMutability": "view",
      "type": "function"
    },
    {
      "inputs": [],
      "name": "DEFAULT_ADMIN_ROLE",
      "outputs": [
        {
          "internalType": "bytes32",
          "name": "",
          "type": "bytes32"
        }
      ],
      "stateMutability": "view",
      "type": "function"
    },
    {
      "inputs": [],
      "name": "DEFAULT_PAYLOAD_SIZE_LIMIT",
      "outputs": [
        {
          "internalType": "uint256",
          "name": "",
          "type": "uint256"
        }
      ],
      "stateMutability": "view",
      "type": "function"
    },
    {
      "inputs": [],
      "name": "DOMAIN_SEPARATOR",
      "outputs": [
        {
          "internalType": "bytes32",
          "name": "",
          "type": "bytes32"
        }
      ],
      "stateMutability": "view",
      "type": "function"
    },
    {
      "inputs": [],
      "name": "MAX_SUPPLY",
      "outputs": [
        {
          "internalType": "uint256",
          "name": "",
          "type": "uint256"
        }
      ],
      "stateMutability": "view",
      "type": "function"
    },
    {
      "inputs": [],
      "name": "SYSTEM_ROLE",
      "outputs": [
        {
          "internalType": "bytes32",
          "name": "",
          "type": "bytes32"
        }
      ],
      "stateMutability": "view",
      "type": "function"
    },
    {
      "inputs": [
        {
          "internalType": "address",
          "name": "owner",
          "type": "address"
        },
        {
          "internalType": "address",
          "name": "spender",
          "type": "address"
        }
      ],
      "name": "allowance",
      "outputs": [
        {
          "internalType": "uint256",
          "name": "",
          "type": "uint256"
        }
      ],
      "stateMutability": "view",
      "type": "function"
    },
    {
      "inputs": [
        {
          "internalType": "address",
          "name": "spender",
          "type": "address"
        },
        {
          "internalType": "uint256",
          "name": "amount",
          "type": "uint256"
        }
      ],
      "name": "approve",
      "outputs": [
        {
          "internalType": "bool",
          "name": "",
          "type": "bool"
        }
      ],
      "stateMutability": "nonpayable",
      "type": "function"
    },
    {
      "inputs": [
        {
          "internalType": "address",
          "name": "account",
          "type": "address"
        }
      ],
      "name": "balanceOf",
      "outputs": [
        {
          "internalType": "uint256",
          "name": "",
          "type": "uint256"
        }
      ],
      "stateMutability": "view",
      "type": "function"
    },
    {
      "inputs": [
        {
          "internalType": "uint256",
          "name": "_amount",
          "type": "uint256"
        }
      ],
      "name": "bridge",
      "outputs": [],
      "stateMutability": "payable",
      "type": "function"
    },
    {
      "inputs": [
        {
          "internalType": "uint256",
          "name": "amount",
          "type": "uint256"
        }
      ],
      "name": "burn",
      "outputs": [],
      "stateMutability": "nonpayable",
      "type": "function"
    },
    {
      "inputs": [
        {
          "internalType": "address",
          "name": "account",
          "type": "address"
        },
        {
          "internalType": "uint256",
          "name": "amount",
          "type": "uint256"
        }
      ],
      "name": "burnFrom",
      "outputs": [],
      "stateMutability": "nonpayable",
      "type": "function"
    },
    {
      "inputs": [
        {
          "internalType": "address",
          "name": "account",
          "type": "address"
        },
        {
          "internalType": "uint32",
          "name": "pos",
          "type": "uint32"
        }
      ],
      "name": "checkpoints",
      "outputs": [
        {
          "components": [
            {
              "internalType": "uint32",
              "name": "fromBlock",
              "type": "uint32"
            },
            {
              "internalType": "uint224",
              "name": "votes",
              "type": "uint224"
            }
          ],
          "internalType": "struct ERC20VotesUpgradeable.Checkpoint",
          "name": "",
          "type": "tuple"
        }
      ],
      "stateMutability": "view",
      "type": "function"
    },
    {
      "inputs": [],
      "name": "decimals",
      "outputs": [
        {
          "internalType": "uint8",
          "name": "",
          "type": "uint8"
        }
      ],
      "stateMutability": "view",
      "type": "function"
    },
    {
      "inputs": [
        {
          "internalType": "address",
          "name": "spender",
          "type": "address"
        },
        {
          "internalType": "uint256",
          "name": "subtractedValue",
          "type": "uint256"
        }
      ],
      "name": "decreaseAllowance",
      "outputs": [
        {
          "internalType": "bool",
          "name": "",
          "type": "bool"
        }
      ],
      "stateMutability": "nonpayable",
      "type": "function"
    },
    {
      "inputs": [
        {
          "internalType": "address",
          "name": "delegatee",
          "type": "address"
        }
      ],
      "name": "delegate",
      "outputs": [],
      "stateMutability": "nonpayable",
      "type": "function"
    },
    {
      "inputs": [
        {
          "internalType": "address",
          "name": "delegatee",
          "type": "address"
        },
        {
          "internalType": "uint256",
          "name": "nonce",
          "type": "uint256"
        },
        {
          "internalType": "uint256",
          "name": "expiry",
          "type": "uint256"
        },
        {
          "internalType": "uint8",
          "name": "v",
          "type": "uint8"
        },
        {
          "internalType": "bytes32",
          "name": "r",
          "type": "bytes32"
        },
        {
          "internalType": "bytes32",
          "name": "s",
          "type": "bytes32"
        }
      ],
      "name": "delegateBySig",
      "outputs": [],
      "stateMutability": "nonpayable",
      "type": "function"
    },
    {
      "inputs": [
        {
          "internalType": "address",
          "name": "account",
          "type": "address"
        }
      ],
      "name": "delegates",
      "outputs": [
        {
          "internalType": "address",
          "name": "",
          "type": "address"
        }
      ],
      "stateMutability": "view",
      "type": "function"
    },
    {
      "inputs": [],
      "name": "destChainId",
      "outputs": [
        {
          "internalType": "uint16",
          "name": "",
          "type": "uint16"
        }
      ],
      "stateMutability": "view",
      "type": "function"
    },
    {
      "inputs": [
        {
          "internalType": "uint16",
          "name": "",
          "type": "uint16"
        },
        {
          "internalType": "bytes",
          "name": "",
          "type": "bytes"
        },
        {
          "internalType": "uint64",
          "name": "",
          "type": "uint64"
        }
      ],
      "name": "failedMessages",
      "outputs": [
        {
          "internalType": "bytes32",
          "name": "",
          "type": "bytes32"
        }
      ],
      "stateMutability": "view",
      "type": "function"
    },
    {
      "inputs": [
        {
          "internalType": "uint16",
          "name": "_srcChainId",
          "type": "uint16"
        },
        {
          "internalType": "bytes",
          "name": "_srcAddress",
          "type": "bytes"
        }
      ],
      "name": "forceResumeReceive",
      "outputs": [],
      "stateMutability": "nonpayable",
      "type": "function"
    },
    {
      "inputs": [
        {
          "internalType": "uint16",
          "name": "_version",
          "type": "uint16"
        },
        {
          "internalType": "uint16",
          "name": "_chainId",
          "type": "uint16"
        },
        {
          "internalType": "address",
          "name": "",
          "type": "address"
        },
        {
          "internalType": "uint256",
          "name": "_configType",
          "type": "uint256"
        }
      ],
      "name": "getConfig",
      "outputs": [
        {
          "internalType": "bytes",
          "name": "",
          "type": "bytes"
        }
      ],
      "stateMutability": "view",
      "type": "function"
    },
    {
      "inputs": [
        {
          "internalType": "uint256",
          "name": "blockNumber",
          "type": "uint256"
        }
      ],
      "name": "getPastTotalSupply",
      "outputs": [
        {
          "internalType": "uint256",
          "name": "",
          "type": "uint256"
        }
      ],
      "stateMutability": "view",
      "type": "function"
    },
    {
      "inputs": [
        {
          "internalType": "address",
          "name": "account",
          "type": "address"
        },
        {
          "internalType": "uint256",
          "name": "blockNumber",
          "type": "uint256"
        }
      ],
      "name": "getPastVotes",
      "outputs": [
        {
          "internalType": "uint256",
          "name": "",
          "type": "uint256"
        }
      ],
      "stateMutability": "view",
      "type": "function"
    },
    {
      "inputs": [
        {
          "internalType": "bytes32",
          "name": "role",
          "type": "bytes32"
        }
      ],
      "name": "getRoleAdmin",
      "outputs": [
        {
          "internalType": "bytes32",
          "name": "",
          "type": "bytes32"
        }
      ],
      "stateMutability": "view",
      "type": "function"
    },
    {
      "inputs": [
        {
          "internalType": "uint16",
          "name": "_remoteChainId",
          "type": "uint16"
        }
      ],
      "name": "getTrustedRemoteAddress",
      "outputs": [
        {
          "internalType": "bytes",
          "name": "",
          "type": "bytes"
        }
      ],
      "stateMutability": "view",
      "type": "function"
    },
    {
      "inputs": [
        {
          "internalType": "address",
          "name": "account",
          "type": "address"
        }
      ],
      "name": "getVotes",
      "outputs": [
        {
          "internalType": "uint256",
          "name": "",
          "type": "uint256"
        }
      ],
      "stateMutability": "view",
      "type": "function"
    },
    {
      "inputs": [
        {
          "internalType": "bytes32",
          "name": "role",
          "type": "bytes32"
        },
        {
          "internalType": "address",
          "name": "account",
          "type": "address"
        }
      ],
      "name": "hasRole",
      "outputs": [
        {
          "internalType": "bool",
          "name": "",
          "type": "bool"
        }
      ],
      "stateMutability": "view",
      "type": "function"
    },
    {
      "inputs": [
        {
          "internalType": "address",
          "name": "spender",
          "type": "address"
        },
        {
          "internalType": "uint256",
          "name": "addedValue",
          "type": "uint256"
        }
      ],
      "name": "increaseAllowance",
      "outputs": [
        {
          "internalType": "bool",
          "name": "",
          "type": "bool"
        }
      ],
      "stateMutability": "nonpayable",
      "type": "function"
    },
    {
      "inputs": [
        {
          "internalType": "address",
          "name": "_accessControlSingleton",
          "type": "address"
        },
        {
          "internalType": "address",
          "name": "_lzEndpoint",
          "type": "address"
        }
      ],
      "name": "initialize",
      "outputs": [],
      "stateMutability": "nonpayable",
      "type": "function"
    },
    {
      "inputs": [
        {
          "internalType": "uint16",
          "name": "_srcChainId",
          "type": "uint16"
        },
        {
          "internalType": "bytes",
          "name": "_srcAddress",
          "type": "bytes"
        }
      ],
      "name": "isTrustedRemote",
      "outputs": [
        {
          "internalType": "bool",
          "name": "",
          "type": "bool"
        }
      ],
      "stateMutability": "view",
      "type": "function"
    },
    {
      "inputs": [],
      "name": "lzEndpoint",
      "outputs": [
        {
          "internalType": "contract ILayerZeroEndpointUpgradeable",
          "name": "",
          "type": "address"
        }
      ],
      "stateMutability": "view",
      "type": "function"
    },
    {
      "inputs": [
        {
          "internalType": "uint16",
          "name": "_srcChainId",
          "type": "uint16"
        },
        {
          "internalType": "bytes",
          "name": "_srcAddress",
          "type": "bytes"
        },
        {
          "internalType": "uint64",
          "name": "_nonce",
          "type": "uint64"
        },
        {
          "internalType": "bytes",
          "name": "_payload",
          "type": "bytes"
        }
      ],
      "name": "lzReceive",
      "outputs": [],
      "stateMutability": "nonpayable",
      "type": "function"
    },
    {
      "inputs": [
        {
          "internalType": "uint16",
          "name": "",
          "type": "uint16"
        },
        {
          "internalType": "uint16",
          "name": "",
          "type": "uint16"
        }
      ],
      "name": "minDstGasLookup",
      "outputs": [
        {
          "internalType": "uint256",
          "name": "",
          "type": "uint256"
        }
      ],
      "stateMutability": "view",
      "type": "function"
    },
    {
      "inputs": [
        {
          "internalType": "address",
          "name": "account",
          "type": "address"
        },
        {
          "internalType": "uint256",
          "name": "amount",
          "type": "uint256"
        }
      ],
      "name": "mint",
      "outputs": [],
      "stateMutability": "nonpayable",
      "type": "function"
    },
    {
      "inputs": [],
      "name": "name",
      "outputs": [
        {
          "internalType": "string",
          "name": "",
          "type": "string"
        }
      ],
      "stateMutability": "view",
      "type": "function"
    },
    {
      "inputs": [
        {
          "internalType": "uint16",
          "name": "_srcChainId",
          "type": "uint16"
        },
        {
          "internalType": "bytes",
          "name": "_srcAddress",
          "type": "bytes"
        },
        {
          "internalType": "uint64",
          "name": "_nonce",
          "type": "uint64"
        },
        {
          "internalType": "bytes",
          "name": "_payload",
          "type": "bytes"
        }
      ],
      "name": "nonblockingLzReceive",
      "outputs": [],
      "stateMutability": "nonpayable",
      "type": "function"
    },
    {
      "inputs": [
        {
          "internalType": "address",
          "name": "owner",
          "type": "address"
        }
      ],
      "name": "nonces",
      "outputs": [
        {
          "internalType": "uint256",
          "name": "",
          "type": "uint256"
        }
      ],
      "stateMutability": "view",
      "type": "function"
    },
    {
      "inputs": [
        {
          "internalType": "address",
          "name": "account",
          "type": "address"
        }
      ],
      "name": "numCheckpoints",
      "outputs": [
        {
          "internalType": "uint32",
          "name": "",
          "type": "uint32"
        }
      ],
      "stateMutability": "view",
      "type": "function"
    },
    {
      "inputs": [],
      "name": "owner",
      "outputs": [
        {
          "internalType": "address",
          "name": "",
          "type": "address"
        }
      ],
      "stateMutability": "view",
      "type": "function"
    },
    {
      "inputs": [
        {
          "internalType": "uint16",
          "name": "",
          "type": "uint16"
        }
      ],
      "name": "payloadSizeLimitLookup",
      "outputs": [
        {
          "internalType": "uint256",
          "name": "",
          "type": "uint256"
        }
      ],
      "stateMutability": "view",
      "type": "function"
    },
    {
      "inputs": [
        {
          "internalType": "address",
          "name": "owner",
          "type": "address"
        },
        {
          "internalType": "address",
          "name": "spender",
          "type": "address"
        },
        {
          "internalType": "uint256",
          "name": "value",
          "type": "uint256"
        },
        {
          "internalType": "uint256",
          "name": "deadline",
          "type": "uint256"
        },
        {
          "internalType": "uint8",
          "name": "v",
          "type": "uint8"
        },
        {
          "internalType": "bytes32",
          "name": "r",
          "type": "bytes32"
        },
        {
          "internalType": "bytes32",
          "name": "s",
          "type": "bytes32"
        }
      ],
      "name": "permit",
      "outputs": [],
      "stateMutability": "nonpayable",
      "type": "function"
    },
    {
      "inputs": [],
      "name": "precrime",
      "outputs": [
        {
          "internalType": "address",
          "name": "",
          "type": "address"
        }
      ],
      "stateMutability": "view",
      "type": "function"
    },
    {
      "inputs": [],
      "name": "renounceOwnership",
      "outputs": [],
      "stateMutability": "nonpayable",
      "type": "function"
    },
    {
      "inputs": [
        {
          "internalType": "contract ERC20Upgradeable",
          "name": "token",
          "type": "address"
        }
      ],
      "name": "rescueTokens",
      "outputs": [],
      "stateMutability": "nonpayable",
      "type": "function"
    },
    {
      "inputs": [
        {
          "internalType": "uint16",
          "name": "_srcChainId",
          "type": "uint16"
        },
        {
          "internalType": "bytes",
          "name": "_srcAddress",
          "type": "bytes"
        },
        {
          "internalType": "uint64",
          "name": "_nonce",
          "type": "uint64"
        },
        {
          "internalType": "bytes",
          "name": "_payload",
          "type": "bytes"
        }
      ],
      "name": "retryMessage",
      "outputs": [],
      "stateMutability": "payable",
      "type": "function"
    },
    {
      "inputs": [
        {
          "internalType": "uint16",
          "name": "_version",
          "type": "uint16"
        },
        {
          "internalType": "uint16",
          "name": "_chainId",
          "type": "uint16"
        },
        {
          "internalType": "uint256",
          "name": "_configType",
          "type": "uint256"
        },
        {
          "internalType": "bytes",
          "name": "_config",
          "type": "bytes"
        }
      ],
      "name": "setConfig",
      "outputs": [],
      "stateMutability": "nonpayable",
      "type": "function"
    },
    {
      "inputs": [
        {
          "internalType": "uint16",
          "name": "_dstChainId",
          "type": "uint16"
        },
        {
          "internalType": "uint16",
          "name": "_packetType",
          "type": "uint16"
        },
        {
          "internalType": "uint256",
          "name": "_minGas",
          "type": "uint256"
        }
      ],
      "name": "setMinDstGas",
      "outputs": [],
      "stateMutability": "nonpayable",
      "type": "function"
    },
    {
      "inputs": [
        {
          "internalType": "uint16",
          "name": "_dstChainId",
          "type": "uint16"
        },
        {
          "internalType": "uint256",
          "name": "_size",
          "type": "uint256"
        }
      ],
      "name": "setPayloadSizeLimit",
      "outputs": [],
      "stateMutability": "nonpayable",
      "type": "function"
    },
    {
      "inputs": [
        {
          "internalType": "address",
          "name": "_precrime",
          "type": "address"
        }
      ],
      "name": "setPrecrime",
      "outputs": [],
      "stateMutability": "nonpayable",
      "type": "function"
    },
    {
      "inputs": [
        {
          "internalType": "uint16",
          "name": "_version",
          "type": "uint16"
        }
      ],
      "name": "setReceiveVersion",
      "outputs": [],
      "stateMutability": "nonpayable",
      "type": "function"
    },
    {
      "inputs": [
        {
          "internalType": "uint16",
          "name": "_version",
          "type": "uint16"
        }
      ],
      "name": "setSendVersion",
      "outputs": [],
      "stateMutability": "nonpayable",
      "type": "function"
    },
    {
      "inputs": [
        {
          "internalType": "uint16",
          "name": "_srcChainId",
          "type": "uint16"
        },
        {
          "internalType": "bytes",
          "name": "_path",
          "type": "bytes"
        }
      ],
      "name": "setTrustedRemote",
      "outputs": [],
      "stateMutability": "nonpayable",
      "type": "function"
    },
    {
      "inputs": [
        {
          "internalType": "uint16",
          "name": "_remoteChainId",
          "type": "uint16"
        },
        {
          "internalType": "bytes",
          "name": "_remoteAddress",
          "type": "bytes"
        }
      ],
      "name": "setTrustedRemoteAddress",
      "outputs": [],
      "stateMutability": "nonpayable",
      "type": "function"
    },
    {
      "inputs": [
        {
          "internalType": "bytes4",
          "name": "interfaceId",
          "type": "bytes4"
        }
      ],
      "name": "supportsInterface",
      "outputs": [
        {
          "internalType": "bool",
          "name": "",
          "type": "bool"
        }
      ],
      "stateMutability": "view",
      "type": "function"
    },
    {
      "inputs": [],
      "name": "symbol",
      "outputs": [
        {
          "internalType": "string",
          "name": "",
          "type": "string"
        }
      ],
      "stateMutability": "view",
      "type": "function"
    },
    {
      "inputs": [],
      "name": "totalSupply",
      "outputs": [
        {
          "internalType": "uint256",
          "name": "",
          "type": "uint256"
        }
      ],
      "stateMutability": "view",
      "type": "function"
    },
    {
      "inputs": [
        {
          "internalType": "address",
          "name": "to",
          "type": "address"
        },
        {
          "internalType": "uint256",
          "name": "amount",
          "type": "uint256"
        }
      ],
      "name": "transfer",
      "outputs": [
        {
          "internalType": "bool",
          "name": "",
          "type": "bool"
        }
      ],
      "stateMutability": "nonpayable",
      "type": "function"
    },
    {
      "inputs": [
        {
          "internalType": "address",
          "name": "from",
          "type": "address"
        },
        {
          "internalType": "address",
          "name": "to",
          "type": "address"
        },
        {
          "internalType": "uint256",
          "name": "amount",
          "type": "uint256"
        }
      ],
      "name": "transferFrom",
      "outputs": [
        {
          "internalType": "bool",
          "name": "",
          "type": "bool"
        }
      ],
      "stateMutability": "nonpayable",
      "type": "function"
    },
    {
      "inputs": [
        {
          "internalType": "address",
          "name": "newOwner",
          "type": "address"
        }
      ],
      "name": "transferOwnership",
      "outputs": [],
      "stateMutability": "nonpayable",
      "type": "function"
    },
    {
      "inputs": [
        {
          "internalType": "address",
          "name": "_otherContract",
          "type": "address"
        }
      ],
      "name": "trustAddress",
      "outputs": [],
      "stateMutability": "nonpayable",
      "type": "function"
    },
    {
      "inputs": [
        {
          "internalType": "uint16",
          "name": "",
          "type": "uint16"
        }
      ],
      "name": "trustedRemoteLookup",
      "outputs": [
        {
          "internalType": "bytes",
          "name": "",
          "type": "bytes"
        }
      ],
      "stateMutability": "view",
      "type": "function"
    },
    {
      "stateMutability": "payable",
      "type": "receive"
    }
  ],
  "numDeployments": 1,
  "solcInputHash": "d46cb772f32aa40c7b26ee5739b2195a",
  "bytecode": "0x608060405234801561001057600080fd5b50614a3d806100206000396000f3fe6080604052600436106102d55760003560e01c80621d3567146102e1578062ae3bf81461030357806301ffc9a71461032357806303ee9f221461035857806306fdde031461038657806307e0db17146103a8578063095ea7b3146103c85780630df37483146103e857806310ddb1371461040857806318160ddd1461042857806323b872dd14610447578063248a9ca314610467578063313ce5671461048757806332cb6b0c146104a35780633644e515146104c257806339509351146104d75780633a46b1a8146104f75780633d8b38f6146105175780633f1f4fa41461053757806340c10f191461056457806342966c681461058457806342d65a8d146105a4578063485cc955146105c4578063587cde1e146105e45780635b8c41e6146106045780635c19a95c146106535780635cdf16491461067357806366ad5c8a146106935780636fcfff45146106b357806370a08231146106e8578063715018a61461070857806375071d2a1461071d5780637533d7881461075157806375b238fc1461077157806379cc6790146107a55780637ecebe00146107c55780638cfd8f5c146107e55780638da5cb5b1461081d5780638e539e8c1461083257806390fd50b31461085257806391d1485414610865578063950c8a741461088557806395d89b41146108a55780639ab24eb0146108ba5780639f38369a146108da578063a217fddf146108fa578063a457c2d71461090f578063a6c3d1651461092f578063a9059cbb1461094f578063b353aaa71461096f578063baf3292d1461098f578063c3cda520146109af578063c4461834146109cf578063c4af1c0b146109e5578063cbed8b9c14610a14578063d1deba1f14610a34578063d505accf14610a47578063dd62ed3e14610a67578063df2a5b3b14610a87578063e9c26518146108fa578063eb8d72b714610aa7578063f1127ed814610ac7578063f2fde38b14610b11578063f5ecbdbc14610b3157600080fd5b366102dc57005b600080fd5b3480156102ed57600080fd5b506103016102fc366004613d6a565b610b51565b005b34801561030f57600080fd5b5061030161031e366004613e12565b610d6d565b34801561032f57600080fd5b5061034361033e366004613e2f565b610e5f565b60405190151581526020015b60405180910390f35b34801561036457600080fd5b5061019454610379906001600160a01b031681565b60405161034f9190613e59565b34801561039257600080fd5b5061039b610edd565b60405161034f9190613ec5565b3480156103b457600080fd5b506103016103c3366004613ed8565b610f6f565b3480156103d457600080fd5b506103436103e3366004613ef3565b610fdc565b3480156103f457600080fd5b50610301610403366004613f1f565b610ff4565b34801561041457600080fd5b50610301610423366004613ed8565b611013565b34801561043457600080fd5b5060cb545b60405190815260200161034f565b34801561045357600080fd5b50610343610462366004613f3b565b61104f565b34801561047357600080fd5b50610439610482366004613f7c565b611073565b34801561049357600080fd5b506040516012815260200161034f565b3480156104af57600080fd5b506104396a115eec47f6cf7e3500000081565b3480156104ce57600080fd5b506104396110e2565b3480156104e357600080fd5b506103436104f2366004613ef3565b6110f1565b34801561050357600080fd5b50610439610512366004613ef3565b611113565b34801561052357600080fd5b50610343610532366004613f95565b61115e565b34801561054357600080fd5b50610439610552366004613ed8565b60686020526000908152604090205481565b34801561057057600080fd5b5061030161057f366004613ef3565b61122a565b34801561059057600080fd5b5061030161059f366004613f7c565b6112c8565b3480156105b057600080fd5b506103016105bf366004613f95565b6112d5565b3480156105d057600080fd5b506103016105df366004613fe7565b61133f565b3480156105f057600080fd5b506103796105ff366004613e12565b6114ae565b34801561061057600080fd5b5061043961061f36600461408d565b6097602090815260009384526040808520845180860184018051928152908401958401959095209452929052825290205481565b34801561065f57600080fd5b5061030161066e366004613e12565b6114cd565b34801561067f57600080fd5b5061030161068e366004613e12565b6114d7565b34801561069f57600080fd5b506103016106ae366004613d6a565b611531565b3480156106bf57600080fd5b506106d36106ce366004613e12565b61160d565b60405163ffffffff909116815260200161034f565b3480156106f457600080fd5b50610439610703366004613e12565b611630565b34801561071457600080fd5b5061030161164b565b34801561072957600080fd5b506104397f5719df9ef2c4678b547f89e4f5ae410dbf400fc51cf3ded434c55f6adea2c43f81565b34801561075d57600080fd5b5061039b61076c366004613ed8565b61165f565b34801561077d57600080fd5b506104397fa49807205ce4d355092ef5a8a18f56e8913cf4a201fbe287825b095693c2177581565b3480156107b157600080fd5b506103016107c0366004613ef3565b6116f9565b3480156107d157600080fd5b506104396107e0366004613e12565b61170e565b3480156107f157600080fd5b5061043961080036600461412d565b606760209081526000928352604080842090915290825290205481565b34801561082957600080fd5b5061037961172d565b34801561083e57600080fd5b5061043961084d366004613f7c565b61173c565b610301610860366004613f7c565b611769565b34801561087157600080fd5b50610343610880366004614160565b6117bd565b34801561089157600080fd5b50606954610379906001600160a01b031681565b3480156108b157600080fd5b5061039b611832565b3480156108c657600080fd5b506104396108d5366004613e12565b611841565b3480156108e657600080fd5b5061039b6108f5366004613ed8565b6118c9565b34801561090657600080fd5b50610439600081565b34801561091b57600080fd5b5061034361092a366004613ef3565b6119d8565b34801561093b57600080fd5b5061030161094a366004613f95565b611a53565b34801561095b57600080fd5b5061034361096a366004613ef3565b611acf565b34801561097b57600080fd5b50606554610379906001600160a01b031681565b34801561099b57600080fd5b506103016109aa366004613e12565b611add565b3480156109bb57600080fd5b506103016109ca366004614196565b611b3b565b3480156109db57600080fd5b5061043961271081565b3480156109f157600080fd5b506101f854610a019061ffff1681565b60405161ffff909116815260200161034f565b348015610a2057600080fd5b50610301610a2f3660046141f0565b611c64565b610301610a42366004613d6a565b611cdd565b348015610a5357600080fd5b50610301610a6236600461425e565b611ef3565b348015610a7357600080fd5b50610439610a82366004613fe7565b612057565b348015610a9357600080fd5b50610301610aa23660046142cc565b612082565b348015610ab357600080fd5b50610301610ac2366004613f95565b612134565b348015610ad357600080fd5b50610ae7610ae2366004614308565b61218e565b60408051825163ffffffff1681526020928301516001600160e01b0316928101929092520161034f565b348015610b1d57600080fd5b50610301610b2c366004613e12565b612212565b348015610b3d57600080fd5b5061039b610b4c36600461433f565b612288565b6065546001600160a01b0316336001600160a01b031614610bb95760405162461bcd60e51b815260206004820152601e60248201527f4c7a4170703a20696e76616c696420656e64706f696e742063616c6c6572000060448201526064015b60405180910390fd5b61ffff861660009081526066602052604081208054610bd79061438c565b80601f0160208091040260200160405190810160405280929190818152602001828054610c039061438c565b8015610c505780601f10610c2557610100808354040283529160200191610c50565b820191906000526020600020905b815481529060010190602001808311610c3357829003601f168201915b50505050509050805186869050148015610c6b575060008151115b8015610c93575080516020820120604051610c8990889088906143c0565b6040518091039020145b610cee5760405162461bcd60e51b815260206004820152602660248201527f4c7a4170703a20696e76616c696420736f757263652073656e64696e6720636f6044820152651b9d1c9858dd60d21b6064820152608401610bb0565b610d648787878080601f01602080910402602001604051908101604052809392919081815260200183838082843760009201919091525050604080516020601f8a018190048102820181019092528881528a93509150889088908190840183828082843760009201919091525061231d92505050565b50505050505050565b6000610d7981336117bd565b610d9a5780336040516337c2e34360e01b8152600401610bb09291906143d0565b6001600160a01b038216610dd95760405133904780156108fc02916000818181858888f19350505050158015610dd4573d6000803e3d6000fd5b505050565b610e5b33836001600160a01b03166370a08231306040518263ffffffff1660e01b8152600401610e099190613e59565b602060405180830381865afa158015610e26573d6000803e3d6000fd5b505050506040513d601f19601f82011682018060405250810190610e4a91906143e7565b6001600160a01b0385169190612396565b5050565b610194546040516301ffc9a760e01b81526001600160e01b0319831660048201526000916001600160a01b0316906301ffc9a790602401602060405180830381865afa158015610eb3573d6000803e3d6000fd5b505050506040513d601f19601f82011682018060405250810190610ed79190614400565b92915050565b606060cc8054610eec9061438c565b80601f0160208091040260200160405190810160405280929190818152602001828054610f189061438c565b8015610f655780601f10610f3a57610100808354040283529160200191610f65565b820191906000526020600020905b815481529060010190602001808311610f4857829003601f168201915b5050505050905090565b610f776123ec565b6065546040516307e0db1760e01b815261ffff831660048201526001600160a01b03909116906307e0db17906024015b600060405180830381600087803b158015610fc157600080fd5b505af1158015610fd5573d6000803e3d6000fd5b5050505050565b600033610fea81858561244b565b5060019392505050565b610ffc6123ec565b61ffff909116600090815260686020526040902055565b61101b6123ec565b6065546040516310ddb13760e01b815261ffff831660048201526001600160a01b03909116906310ddb13790602401610fa7565b60003361105d85828561256f565b6110688585856125e9565b506001949350505050565b6101945460405163248a9ca360e01b8152600481018390526000916001600160a01b03169063248a9ca390602401602060405180830381865afa1580156110be573d6000803e3d6000fd5b505050506040513d601f19601f82011682018060405250810190610ed791906143e7565b60006110ec612788565b905090565b600033610fea8185856111048383612057565b61110e9190614438565b61244b565b60004382106111345760405162461bcd60e51b8152600401610bb090614450565b6001600160a01b0383166000908152610163602052604090206111579083612803565b9392505050565b61ffff83166000908152606660205260408120805482919061117f9061438c565b80601f01602080910402602001604051908101604052809291908181526020018280546111ab9061438c565b80156111f85780601f106111cd576101008083540402835291602001916111f8565b820191906000526020600020905b8154815290600101906020018083116111db57829003601f168201915b50505050509050838360405161120f9291906143c0565b60405180910390208180519060200120149150509392505050565b600061123681336117bd565b6112575780336040516337c2e34360e01b8152600401610bb09291906143d0565b6a115eec47f6cf7e350000008261126d60cb5490565b6112779190614438565b11156112be5760405162461bcd60e51b81526020600482015260166024820152751b585e081cdd5c1c1b1e481a5cc8195e18d95959195960521b6044820152606401610bb0565b610dd483836128f9565b6112d23382612903565b50565b6112dd6123ec565b6065546040516342d65a8d60e01b81526001600160a01b03909116906342d65a8d90611311908690869086906004016144b0565b600060405180830381600087803b15801561132b57600080fd5b505af1158015610d64573d6000803e3d6000fd5b600054610100900460ff161580801561135f5750600054600160ff909116105b80611380575061136e3061290d565b158015611380575060005460ff166001145b6113e35760405162461bcd60e51b815260206004820152602e60248201527f496e697469616c697a61626c653a20636f6e747261637420697320616c72656160448201526d191e481a5b9a5d1a585b1a5e995960921b6064820152608401610bb0565b6000805460ff191660011790558015611406576000805461ff0019166101001790555b61140f8361291c565b6114636040518060400160405280600d81526020016c536f6d65546f6b656e2044414f60981b8152506040518060400160405280600c81526020016b536f6d65546f6b656e44414f60a01b81525084612966565b8015610dd4576000805461ff0019169055604051600181527f7f26b83ff96e1f2b6a682f133852f6798a09c465da95921460cefb3847402498906020015b60405180910390a1505050565b6001600160a01b03908116600090815261016260205260409020541690565b6112d23382612a0a565b6114df6123ec565b6040516001600160601b0319606083811b8216602084015230901b16603482015260480160408051601f198184030181529181526101f85461ffff16600090815260666020522090610e5b9082614529565b33301461158f5760405162461bcd60e51b815260206004820152602660248201527f4e6f6e626c6f636b696e674c7a4170703a2063616c6c6572206d7573742062656044820152650204c7a4170760d41b6064820152608401610bb0565b6116058686868080601f01602080910402602001604051908101604052809392919081815260200183838082843760009201919091525050604080516020601f890181900481028201810190925287815289935091508790879081908401838280828437600092019190915250612a8b92505050565b505050505050565b6001600160a01b03811660009081526101636020526040812054610ed790612ab0565b6001600160a01b0316600090815260c9602052604090205490565b6116536123ec565b61165d6000612b19565b565b606660205260009081526040902080546116789061438c565b80601f01602080910402602001604051908101604052809291908181526020018280546116a49061438c565b80156116f15780601f106116c6576101008083540402835291602001916116f1565b820191906000526020600020905b8154815290600101906020018083116116d457829003601f168201915b505050505081565b61170482338361256f565b610e5b8282612903565b6001600160a01b038116600090815261012f6020526040812054610ed7565b6033546001600160a01b031690565b600043821061175d5760405162461bcd60e51b8152600401610bb090614450565b610ed761016483612803565b6117733382612903565b600033826040516020016117889291906145e2565b60408051601f198184030181526101f854602084019092526000808452909350610e5b9261ffff909216918491339134612b6b565b61019454604051632474521560e21b81526000916001600160a01b0316906391d14854906117f190869086906004016143d0565b602060405180830381865afa15801561180e573d6000803e3d6000fd5b505050506040513d601f19601f820116820180604052508101906111579190614400565b606060cd8054610eec9061438c565b6001600160a01b0381166000908152610163602052604081205480156118b6576001600160a01b0383166000908152610163602052604090206118856001836145fb565b8154811061189557611895614612565b600091825260209091200154600160201b90046001600160e01b03166118b9565b60005b6001600160e01b03169392505050565b61ffff81166000908152606660205260408120805460609291906118ec9061438c565b80601f01602080910402602001604051908101604052809291908181526020018280546119189061438c565b80156119655780601f1061193a57610100808354040283529160200191611965565b820191906000526020600020905b81548152906001019060200180831161194857829003601f168201915b5050505050905080516000036119bd5760405162461bcd60e51b815260206004820152601d60248201527f4c7a4170703a206e6f20747275737465642070617468207265636f72640000006044820152606401610bb0565b6111576000601483516119d091906145fb565b839190612cf4565b600033816119e68286612057565b905083811015611a465760405162461bcd60e51b815260206004820152602560248201527f45524332303a2064656372656173656420616c6c6f77616e63652062656c6f77604482015264207a65726f60d81b6064820152608401610bb0565b611068828686840361244b565b611a5b6123ec565b818130604051602001611a7093929190614628565b60408051601f1981840301815291815261ffff8516600090815260666020522090611a9b9082614529565b507f8c0400cfe2d1199b1a725c78960bcc2a344d869b80590d0f2bd005db15a572ce8383836040516114a1939291906144b0565b600033610fea8185856125e9565b611ae56123ec565b606980546001600160a01b0319166001600160a01b0383161790556040517f5db758e995a17ec1ad84bdef7e8c3293a0bd6179bcce400dff5d4c3d87db726b90611b30908390613e59565b60405180910390a150565b83421115611b8b5760405162461bcd60e51b815260206004820152601d60248201527f4552433230566f7465733a207369676e617475726520657870697265640000006044820152606401610bb0565b604080517fe48329057bfd03d55e49b547132e39cffd9c1820ad7b9d4c5307691425d15adf60208201526001600160a01b038816918101919091526060810186905260808101859052600090611c0590611bfd9060a00160405160208183030381529060405280519060200120612e01565b858585612e4f565b9050611c1081612e77565b8614611c5a5760405162461bcd60e51b81526020600482015260196024820152784552433230566f7465733a20696e76616c6964206e6f6e636560381b6044820152606401610bb0565b610d648188612a0a565b611c6c6123ec565b6065546040516332fb62e760e21b81526001600160a01b039091169063cbed8b9c90611ca49088908890889088908890600401614649565b600060405180830381600087803b158015611cbe57600080fd5b505af1158015611cd2573d6000803e3d6000fd5b505050505050505050565b61ffff86166000908152609760205260408082209051611d0090889088906143c0565b90815260408051602092819003830190206001600160401b03871660009081529252902054905080611d805760405162461bcd60e51b815260206004820152602360248201527f4e6f6e626c6f636b696e674c7a4170703a206e6f2073746f726564206d65737360448201526261676560e81b6064820152608401610bb0565b808383604051611d919291906143c0565b604051809103902014611df05760405162461bcd60e51b815260206004820152602160248201527f4e6f6e626c6f636b696e674c7a4170703a20696e76616c6964207061796c6f616044820152601960fa1b6064820152608401610bb0565b61ffff87166000908152609760205260408082209051611e1390899089906143c0565b90815260408051602092819003830181206001600160401b038916600090815290845282902093909355601f88018290048202830182019052868252611eab918991899089908190840183828082843760009201919091525050604080516020601f8a018190048102820181019092528881528a935091508890889081908401838280828437600092019190915250612a8b92505050565b7fc264d91f3adc5588250e1551f547752ca0cfa8f6b530d243b9f9f4cab10ea8e58787878785604051611ee2959493929190614677565b60405180910390a150505050505050565b83421115611f435760405162461bcd60e51b815260206004820152601d60248201527f45524332305065726d69743a206578706972656420646561646c696e650000006044820152606401610bb0565b60007f6e71edae12b1b97f4d1f60370fef10105fa2faae0126114a169c64845d6126c9888888611f728c612e77565b6040805160208101969096526001600160a01b0394851690860152929091166060840152608083015260a082015260c0810186905260e0016040516020818303038152906040528051906020012090506000611fcd82612e01565b90506000611fdd82878787612e4f565b9050896001600160a01b0316816001600160a01b0316146120405760405162461bcd60e51b815260206004820152601e60248201527f45524332305065726d69743a20696e76616c6964207369676e617475726500006044820152606401610bb0565b61204b8a8a8a61244b565b50505050505050505050565b6001600160a01b03918216600090815260ca6020908152604080832093909416825291909152205490565b61208a6123ec565b600081116120d25760405162461bcd60e51b81526020600482015260156024820152744c7a4170703a20696e76616c6964206d696e47617360581b6044820152606401610bb0565b61ffff83811660008181526067602090815260408083209487168084529482529182902085905581519283528201929092529081018290527f9d5c7c0b934da8fefa9c7760c98383778a12dfbfc0c3b3106518f43fb9508ac0906060016114a1565b61213c6123ec565b61ffff8316600090815260666020526040902061215a8284836146b2565b507ffa41487ad5d6728f0b19276fa1eddc16558578f5109fc39d2dc33c3230470dab8383836040516114a1939291906144b0565b60408051808201909152600080825260208201526001600160a01b038316600090815261016360205260409020805463ffffffff84169081106121d3576121d3614612565b60009182526020918290206040805180820190915291015463ffffffff81168252600160201b90046001600160e01b0316918101919091529392505050565b61221a6123ec565b6001600160a01b03811661227f5760405162461bcd60e51b815260206004820152602660248201527f4f776e61626c653a206e6577206f776e657220697320746865207a65726f206160448201526564647265737360d01b6064820152608401610bb0565b6112d281612b19565b606554604051633d7b2f6f60e21b815261ffff808716600483015285166024820152306044820152606481018390526060916001600160a01b03169063f5ecbdbc90608401600060405180830381865afa1580156122ea573d6000803e3d6000fd5b505050506040513d6000823e601f3d908101601f19168201604052612312919081019061476b565b90505b949350505050565b6000806123805a60966366ad5c8a60e01b8989898960405160240161234594939291906147e1565b60408051601f198184030181529190526020810180516001600160e01b03166001600160e01b03199093169290921790915230929190612ea0565b9150915081611605576116058686868685612f2c565b610dd48363a9059cbb60e01b84846040516024016123b59291906145e2565b60408051601f198184030181529190526020810180516001600160e01b03166001600160e01b031990931692909217909152612fc9565b336123f561172d565b6001600160a01b03161461165d5760405162461bcd60e51b815260206004820181905260248201527f4f776e61626c653a2063616c6c6572206973206e6f7420746865206f776e65726044820152606401610bb0565b6001600160a01b0383166124ad5760405162461bcd60e51b8152602060048201526024808201527f45524332303a20617070726f76652066726f6d20746865207a65726f206164646044820152637265737360e01b6064820152608401610bb0565b6001600160a01b03821661250e5760405162461bcd60e51b815260206004820152602260248201527f45524332303a20617070726f766520746f20746865207a65726f206164647265604482015261737360f01b6064820152608401610bb0565b6001600160a01b03838116600081815260ca602090815260408083209487168084529482529182902085905590518481527f8c5be1e5ebec7d5bd14f71427d1e84f3dd0314c0f7b2291e5b200ac8c7c3b925910160405180910390a3505050565b600061257b8484612057565b905060001981146125e357818110156125d65760405162461bcd60e51b815260206004820152601d60248201527f45524332303a20696e73756666696369656e7420616c6c6f77616e63650000006044820152606401610bb0565b6125e3848484840361244b565b50505050565b6001600160a01b03831661264d5760405162461bcd60e51b815260206004820152602560248201527f45524332303a207472616e736665722066726f6d20746865207a65726f206164604482015264647265737360d81b6064820152608401610bb0565b6001600160a01b0382166126af5760405162461bcd60e51b815260206004820152602360248201527f45524332303a207472616e7366657220746f20746865207a65726f206164647260448201526265737360e81b6064820152608401610bb0565b6001600160a01b038316600090815260c96020526040902054818110156127275760405162461bcd60e51b815260206004820152602660248201527f45524332303a207472616e7366657220616d6f756e7420657863656564732062604482015265616c616e636560d01b6064820152608401610bb0565b6001600160a01b03808516600081815260c9602052604080822086860390559286168082529083902080548601905591516000805160206149c8833981519152906127759086815260200190565b60405180910390a36125e384848461309b565b60006110ec7f8b73c3c69bb8fe3d512ecc4cf759cc79239f7b179b0ffacaa9a75d522b39400f6127b760fb5490565b60fc546040805160208101859052908101839052606081018290524660808201523060a082015260009060c0016040516020818303038152906040528051906020012090509392505050565b81546000908181600581111561285d57600061281e846130a6565b61282890856145fb565b600088815260209020909150869082015463ffffffff16111561284d5780915061285b565b612858816001614438565b92505b505b808210156128aa576000612871838361318e565b600088815260209020909150869082015463ffffffff161115612896578091506128a4565b6128a1816001614438565b92505b5061285d565b80156128e3576128cd866128bf6001846145fb565b600091825260209091200190565b54600160201b90046001600160e01b03166128e6565b60005b6001600160e01b03169695505050505050565b610e5b82826131a9565b610e5b8282613234565b6001600160a01b03163b151590565b600054610100900460ff166129435760405162461bcd60e51b8152600401610bb09061481f565b61019480546001600160a01b0319166001600160a01b0392909216919091179055565b600054610100900460ff1661298d5760405162461bcd60e51b8152600401610bb09061481f565b6001600160a01b03811673f69186dfba60ddb133e91e9a4b5673624293d8f8036129c2576101f8805461ffff19166127891790555b6001600160a01b03811673bfd2135bffbb0b5378b56643c2df8a87552bfa23036129f7576101f8805461ffff191661277d1790555b612a01838361324d565b610dd48161327e565b6000612a15836114ae565b90506000612a2284611630565b6001600160a01b038581166000818152610162602052604080822080546001600160a01b031916898616908117909155905194955093928616927f3134e8a2e6d97e929a7e54011ea5485d7d196dd5f0ba4d4ef95803e8e3fc257f9190a46125e38284836132b6565b60008082806020019051810190612aa2919061486a565b9150915061160582826128f9565b600063ffffffff821115612b155760405162461bcd60e51b815260206004820152602660248201527f53616665436173743a2076616c756520646f65736e27742066697420696e203360448201526532206269747360d01b6064820152608401610bb0565b5090565b603380546001600160a01b038381166001600160a01b0319831681179093556040519116919082907f8be0079c531659141344cd1fd0a4f28419497f9722a3daafe3b4186f6b6457e090600090a35050565b61ffff861660009081526066602052604081208054612b899061438c565b80601f0160208091040260200160405190810160405280929190818152602001828054612bb59061438c565b8015612c025780601f10612bd757610100808354040283529160200191612c02565b820191906000526020600020905b815481529060010190602001808311612be557829003601f168201915b505050505090508051600003612c735760405162461bcd60e51b815260206004820152603060248201527f4c7a4170703a2064657374696e6174696f6e20636861696e206973206e6f742060448201526f61207472757374656420736f7572636560801b6064820152608401610bb0565b612c7e8787516133d1565b60655460405162c5803160e81b81526001600160a01b039091169063c5803100908490612cb9908b9086908c908c908c908c90600401614898565b6000604051808303818588803b158015612cd257600080fd5b505af1158015612ce6573d6000803e3d6000fd5b505050505050505050505050565b606081612d0281601f614438565b1015612d415760405162461bcd60e51b815260206004820152600e60248201526d736c6963655f6f766572666c6f7760901b6044820152606401610bb0565b612d4b8284614438565b84511015612d8f5760405162461bcd60e51b8152602060048201526011602482015270736c6963655f6f75744f66426f756e647360781b6044820152606401610bb0565b606082158015612dae5760405191506000825260208201604052612df8565b6040519150601f8416801560200281840101858101878315602002848b0101015b81831015612de7578051835260209283019201612dcf565b5050858452601f01601f1916604052505b50949350505050565b6000610ed7612e0e612788565b8360405161190160f01b6020820152602281018390526042810182905260009060620160405160208183030381529060405280519060200120905092915050565b6000806000612e6087878787613442565b91509150612e6d816134f9565b5095945050505050565b6001600160a01b038116600090815261012f602052604090208054600181018255905b50919050565b6000606060008060008661ffff166001600160401b03811115612ec557612ec5614020565b6040519080825280601f01601f191660200182016040528015612eef576020820181803683370190505b50905060008087516020890160008d8df191503d925086831115612f11578692505b828152826000602083013e9093509150505b94509492505050565b8180519060200120609760008761ffff1661ffff16815260200190815260200160002085604051612f5d91906148ff565b9081526040805191829003602090810183206001600160401b0388166000908152915220919091557fe183f33de2837795525b4792ca4cd60535bd77c53b7e7030060bfcf5734d6b0c90612fba908790879087908790879061491b565b60405180910390a15050505050565b600061301e826040518060400160405280602081526020017f5361666545524332303a206c6f772d6c6576656c2063616c6c206661696c6564815250856001600160a01b031661363e9092919063ffffffff16565b805190915015610dd4578080602001905181019061303c9190614400565b610dd45760405162461bcd60e51b815260206004820152602a60248201527f5361666545524332303a204552433230206f7065726174696f6e20646964206e6044820152691bdd081cdd58d8d9595960b21b6064820152608401610bb0565b610dd483838361364d565b6000816000036130b857506000919050565b600060016130c584613668565b901c6001901b905060018184816130de576130de614979565b048201901c905060018184816130f6576130f6614979565b048201901c9050600181848161310e5761310e614979565b048201901c9050600181848161312657613126614979565b048201901c9050600181848161313e5761313e614979565b048201901c9050600181848161315657613156614979565b048201901c9050600181848161316e5761316e614979565b048201901c90506111578182858161318857613188614979565b046136fc565b600061319d600284841861498f565b61115790848416614438565b6131b38282613712565b60cb546001600160e01b0310156132255760405162461bcd60e51b815260206004820152603060248201527f4552433230566f7465733a20746f74616c20737570706c79207269736b73206f60448201526f766572666c6f77696e6720766f74657360801b6064820152608401610bb0565b6125e36101646137c9836137d5565b61323e8282613926565b6125e3610164613a4f836137d5565b600054610100900460ff166132745760405162461bcd60e51b8152600401610bb09061481f565b610e5b8282613a5b565b600054610100900460ff166132a55760405162461bcd60e51b8152600401610bb09061481f565b6132ad613a9b565b6112d281613acb565b816001600160a01b0316836001600160a01b0316141580156132d85750600081115b15610dd4576001600160a01b03831615613355576001600160a01b038316600090815261016360205260408120819061331490613a4f856137d5565b91509150846001600160a01b03166000805160206149e8833981519152838360405161334a929190918252602082015260400190565b60405180910390a250505b6001600160a01b03821615610dd4576001600160a01b038216600090815261016360205260408120819061338c906137c9856137d5565b91509150836001600160a01b03166000805160206149e883398151915283836040516133c2929190918252602082015260400190565b60405180910390a25050505050565b61ffff8216600090815260686020526040812054908190036133f257506127105b80821115610dd45760405162461bcd60e51b815260206004820181905260248201527f4c7a4170703a207061796c6f61642073697a6520697320746f6f206c617267656044820152606401610bb0565b6000806fa2a8918ca85bafe22016d0b997e4df60600160ff1b0383111561346f5750600090506003612f23565b6040805160008082526020820180845289905260ff881692820192909252606081018690526080810185905260019060a0016020604051602081039080840390855afa1580156134c3573d6000803e3d6000fd5b5050604051601f1901519150506001600160a01b0381166134ec57600060019250925050612f23565b9660009650945050505050565b600081600481111561350d5761350d6149b1565b036135155750565b6001816004811115613529576135296149b1565b036135715760405162461bcd60e51b815260206004820152601860248201527745434453413a20696e76616c6964207369676e617475726560401b6044820152606401610bb0565b6002816004811115613585576135856149b1565b036135d25760405162461bcd60e51b815260206004820152601f60248201527f45434453413a20696e76616c6964207369676e6174757265206c656e677468006044820152606401610bb0565b60038160048111156135e6576135e66149b1565b036112d25760405162461bcd60e51b815260206004820152602260248201527f45434453413a20696e76616c6964207369676e6174757265202773272076616c604482015261756560f01b6064820152608401610bb0565b60606123158484600085613b14565b610dd4613659846114ae565b613662846114ae565b836132b6565b600080608083901c1561367d57608092831c92015b604083901c1561368f57604092831c92015b602083901c156136a157602092831c92015b601083901c156136b357601092831c92015b600883901c156136c557600892831c92015b600483901c156136d757600492831c92015b600283901c156136e957600292831c92015b600183901c15610ed75760010192915050565b600081831061370b5781611157565b5090919050565b6001600160a01b0382166137685760405162461bcd60e51b815260206004820152601f60248201527f45524332303a206d696e7420746f20746865207a65726f2061646472657373006044820152606401610bb0565b8060cb600082825461377a9190614438565b90915550506001600160a01b038216600081815260c960209081526040808320805486019055518481526000805160206149c8833981519152910160405180910390a3610e5b6000838361309b565b60006111578284614438565b82546000908190818115613821576137f2876128bf6001856145fb565b60408051808201909152905463ffffffff81168252600160201b90046001600160e01b03166020820152613836565b60408051808201909152600080825260208201525b905080602001516001600160e01b0316935061385684868863ffffffff16565b925060008211801561386e5750805163ffffffff1643145b156138b25761387c83613bef565b61388b886128bf6001866145fb565b80546001600160e01b0392909216600160201b0263ffffffff90921691909117905561391c565b8660405180604001604052806138c743612ab0565b63ffffffff1681526020016138db86613bef565b6001600160e01b039081169091528254600181018455600093845260209384902083519490930151909116600160201b0263ffffffff909316929092179101555b5050935093915050565b6001600160a01b0382166139865760405162461bcd60e51b815260206004820152602160248201527f45524332303a206275726e2066726f6d20746865207a65726f206164647265736044820152607360f81b6064820152608401610bb0565b6001600160a01b038216600090815260c96020526040902054818110156139fa5760405162461bcd60e51b815260206004820152602260248201527f45524332303a206275726e20616d6f756e7420657863656564732062616c616e604482015261636560f01b6064820152608401610bb0565b6001600160a01b038316600081815260c960209081526040808320868603905560cb80548790039055518581529192916000805160206149c8833981519152910160405180910390a3610dd48360008461309b565b600061115782846145fb565b600054610100900460ff16613a825760405162461bcd60e51b8152600401610bb09061481f565b60cc613a8e8382614529565b5060cd610dd48282614529565b600054610100900460ff16613ac25760405162461bcd60e51b8152600401610bb09061481f565b61165d33612b19565b600054610100900460ff16613af25760405162461bcd60e51b8152600401610bb09061481f565b606580546001600160a01b0319166001600160a01b0392909216919091179055565b606082471015613b755760405162461bcd60e51b815260206004820152602660248201527f416464726573733a20696e73756666696369656e742062616c616e636520666f6044820152651c8818d85b1b60d21b6064820152608401610bb0565b600080866001600160a01b03168587604051613b9191906148ff565b60006040518083038185875af1925050503d8060008114613bce576040519150601f19603f3d011682016040523d82523d6000602084013e613bd3565b606091505b5091509150613be487838387613c58565b979650505050505050565b60006001600160e01b03821115612b155760405162461bcd60e51b815260206004820152602760248201527f53616665436173743a2076616c756520646f65736e27742066697420696e20326044820152663234206269747360c81b6064820152608401610bb0565b60608315613cc5578251600003613cbe57613c728561290d565b613cbe5760405162461bcd60e51b815260206004820152601d60248201527f416464726573733a2063616c6c20746f206e6f6e2d636f6e74726163740000006044820152606401610bb0565b5081612315565b6123158383815115613cda5781518083602001fd5b8060405162461bcd60e51b8152600401610bb09190613ec5565b803561ffff81168114613d0657600080fd5b919050565b60008083601f840112613d1d57600080fd5b5081356001600160401b03811115613d3457600080fd5b602083019150836020828501011115613d4c57600080fd5b9250929050565b80356001600160401b0381168114613d0657600080fd5b60008060008060008060808789031215613d8357600080fd5b613d8c87613cf4565b955060208701356001600160401b0380821115613da857600080fd5b613db48a838b01613d0b565b9097509550859150613dc860408a01613d53565b94506060890135915080821115613dde57600080fd5b50613deb89828a01613d0b565b979a9699509497509295939492505050565b6001600160a01b03811681146112d257600080fd5b600060208284031215613e2457600080fd5b813561115781613dfd565b600060208284031215613e4157600080fd5b81356001600160e01b03198116811461115757600080fd5b6001600160a01b0391909116815260200190565b60005b83811015613e88578181015183820152602001613e70565b838111156125e35750506000910152565b60008151808452613eb1816020860160208601613e6d565b601f01601f19169290920160200192915050565b6020815260006111576020830184613e99565b600060208284031215613eea57600080fd5b61115782613cf4565b60008060408385031215613f0657600080fd5b8235613f1181613dfd565b946020939093013593505050565b60008060408385031215613f3257600080fd5b613f1183613cf4565b600080600060608486031215613f5057600080fd5b8335613f5b81613dfd565b92506020840135613f6b81613dfd565b929592945050506040919091013590565b600060208284031215613f8e57600080fd5b5035919050565b600080600060408486031215613faa57600080fd5b613fb384613cf4565b925060208401356001600160401b03811115613fce57600080fd5b613fda86828701613d0b565b9497909650939450505050565b60008060408385031215613ffa57600080fd5b823561400581613dfd565b9150602083013561401581613dfd565b809150509250929050565b634e487b7160e01b600052604160045260246000fd5b604051601f8201601f191681016001600160401b038111828210171561405e5761405e614020565b604052919050565b60006001600160401b0382111561407f5761407f614020565b50601f01601f191660200190565b6000806000606084860312156140a257600080fd5b6140ab84613cf4565b925060208401356001600160401b038111156140c657600080fd5b8401601f810186136140d757600080fd5b80356140ea6140e582614066565b614036565b8181528760208385010111156140ff57600080fd5b8160208401602083013760006020838301015280945050505061412460408501613d53565b90509250925092565b6000806040838503121561414057600080fd5b61414983613cf4565b915061415760208401613cf4565b90509250929050565b6000806040838503121561417357600080fd5b82359150602083013561401581613dfd565b803560ff81168114613d0657600080fd5b60008060008060008060c087890312156141af57600080fd5b86356141ba81613dfd565b955060208701359450604087013593506141d660608801614185565b92506080870135915060a087013590509295509295509295565b60008060008060006080868803121561420857600080fd5b61421186613cf4565b945061421f60208701613cf4565b93506040860135925060608601356001600160401b0381111561424157600080fd5b61424d88828901613d0b565b969995985093965092949392505050565b600080600080600080600060e0888a03121561427957600080fd5b873561428481613dfd565b9650602088013561429481613dfd565b955060408801359450606088013593506142b060808901614185565b925060a0880135915060c0880135905092959891949750929550565b6000806000606084860312156142e157600080fd5b6142ea84613cf4565b92506142f860208501613cf4565b9150604084013590509250925092565b6000806040838503121561431b57600080fd5b823561432681613dfd565b9150602083013563ffffffff8116811461401557600080fd5b6000806000806080858703121561435557600080fd5b61435e85613cf4565b935061436c60208601613cf4565b9250604085013561437c81613dfd565b9396929550929360600135925050565b600181811c908216806143a057607f821691505b602082108103612e9a57634e487b7160e01b600052602260045260246000fd5b8183823760009101908152919050565b9182526001600160a01b0316602082015260400190565b6000602082840312156143f957600080fd5b5051919050565b60006020828403121561441257600080fd5b8151801515811461115757600080fd5b634e487b7160e01b600052601160045260246000fd5b6000821982111561444b5761444b614422565b500190565b6020808252601f908201527f4552433230566f7465733a20626c6f636b206e6f7420796574206d696e656400604082015260600190565b81835281816020850137506000828201602090810191909152601f909101601f19169091010190565b61ffff84168152604060208201526000612312604083018486614487565b601f821115610dd457600081815260208120601f850160051c810160208610156144f55750805b601f850160051c820191505b8181101561160557828155600101614501565b600019600383901b1c191660019190911b1790565b81516001600160401b0381111561454257614542614020565b61455681614550845461438c565b846144ce565b602080601f83116001811461458557600084156145735750858301515b61457d8582614514565b865550611605565b600085815260208120601f198616915b828110156145b457888601518255948401946001909101908401614595565b50858210156145d25787850151600019600388901b60f8161c191681555b5050505050600190811b01905550565b6001600160a01b03929092168252602082015260400190565b60008282101561460d5761460d614422565b500390565b634e487b7160e01b600052603260045260246000fd5b8284823760609190911b6001600160601b0319169101908152601401919050565b600061ffff808816835280871660208401525084604083015260806060830152613be4608083018486614487565b61ffff86168152608060208201526000614695608083018688614487565b6001600160401b0394909416604083015250606001529392505050565b6001600160401b038311156146c9576146c9614020565b6146dd836146d7835461438c565b836144ce565b6000601f84116001811461470b57600085156146f95750838201355b6147038682614514565b845550610fd5565b600083815260209020601f19861690835b8281101561473c578685013582556020948501946001909201910161471c565b50868210156147595760001960f88860031b161c19848701351681555b505060018560011b0183555050505050565b60006020828403121561477d57600080fd5b81516001600160401b0381111561479357600080fd5b8201601f810184136147a457600080fd5b80516147b26140e582614066565b8181528560208385010111156147c757600080fd5b6147d8826020830160208601613e6d565b95945050505050565b61ffff851681526080602082015260006147fe6080830186613e99565b6001600160401b03851660408401528281036060840152613be48185613e99565b6020808252602b908201527f496e697469616c697a61626c653a20636f6e7472616374206973206e6f74206960408201526a6e697469616c697a696e6760a81b606082015260800190565b6000806040838503121561487d57600080fd5b825161488881613dfd565b6020939093015192949293505050565b61ffff8716815260c0602082015260006148b560c0830188613e99565b82810360408401526148c78188613e99565b6001600160a01b0387811660608601528616608085015283810360a085015290506148f28185613e99565b9998505050505050505050565b60008251614911818460208701613e6d565b9190910192915050565b61ffff8616815260a06020820152600061493860a0830187613e99565b6001600160401b038616604084015282810360608401526149598186613e99565b9050828103608084015261496d8185613e99565b98975050505050505050565b634e487b7160e01b600052601260045260246000fd5b6000826149ac57634e487b7160e01b600052601260045260246000fd5b500490565b634e487b7160e01b600052602160045260246000fdfeddf252ad1be2c89b69c2b068fc378daa952ba7f163c4a11628f55a4df523b3efdec2bacdd2f05b59de34da9b523dff8be42e5e38e818c82fdb0bae774387a724a26469706673582212207228c81b551bd2b5ef1cca1f346b5f5e58274b3b0761fa63bea8b686d927822b64736f6c634300080f0033",
  "devdoc": {
    "kind": "dev",
    "methods": {
      "DOMAIN_SEPARATOR()": {
        "details": "See {IERC20Permit-DOMAIN_SEPARATOR}."
      },
      "allowance(address,address)": {
        "details": "See {IERC20-allowance}."
      },
      "approve(address,uint256)": {
        "details": "See {IERC20-approve}. NOTE: If `amount` is the maximum `uint256`, the allowance is not updated on `transferFrom`. This is semantically equivalent to an infinite approval. Requirements: - `spender` cannot be the zero address."
      },
      "balanceOf(address)": {
        "details": "See {IERC20-balanceOf}."
      },
      "burn(uint256)": {
        "details": "Destroys `amount` tokens from the caller. See {ERC20-_burn}."
      },
      "burnFrom(address,uint256)": {
        "details": "Destroys `amount` tokens from `account`, deducting from the caller's allowance. See {ERC20-_burn} and {ERC20-allowance}. Requirements: - the caller must have allowance for ``accounts``'s tokens of at least `amount`."
      },
      "checkpoints(address,uint32)": {
        "details": "Get the `pos`-th checkpoint for `account`."
      },
      "decimals()": {
        "details": "Returns the number of decimals used to get its user representation. For example, if `decimals` equals `2`, a balance of `505` tokens should be displayed to a user as `5.05` (`505 / 10 ** 2`). Tokens usually opt for a value of 18, imitating the relationship between Ether and Wei. This is the value {ERC20} uses, unless this function is overridden; NOTE: This information is only used for _display_ purposes: it in no way affects any of the arithmetic of the contract, including {IERC20-balanceOf} and {IERC20-transfer}."
      },
      "decreaseAllowance(address,uint256)": {
        "details": "Atomically decreases the allowance granted to `spender` by the caller. This is an alternative to {approve} that can be used as a mitigation for problems described in {IERC20-approve}. Emits an {Approval} event indicating the updated allowance. Requirements: - `spender` cannot be the zero address. - `spender` must have allowance for the caller of at least `subtractedValue`."
      },
      "delegate(address)": {
        "details": "Delegate votes from the sender to `delegatee`."
      },
      "delegateBySig(address,uint256,uint256,uint8,bytes32,bytes32)": {
        "details": "Delegates votes from signer to `delegatee`"
      },
      "delegates(address)": {
        "details": "Get the address `account` is currently delegating to."
      },
      "getPastTotalSupply(uint256)": {
        "details": "Retrieve the `totalSupply` at the end of `blockNumber`. Note, this value is the sum of all balances. It is but NOT the sum of all the delegated votes! Requirements: - `blockNumber` must have been already mined"
      },
      "getPastVotes(address,uint256)": {
        "details": "Retrieve the number of votes for `account` at the end of `blockNumber`. Requirements: - `blockNumber` must have been already mined"
      },
      "getVotes(address)": {
        "details": "Gets the current votes balance for `account`"
      },
      "increaseAllowance(address,uint256)": {
        "details": "Atomically increases the allowance granted to `spender` by the caller. This is an alternative to {approve} that can be used as a mitigation for problems described in {IERC20-approve}. Emits an {Approval} event indicating the updated allowance. Requirements: - `spender` cannot be the zero address."
      },
      "name()": {
        "details": "Returns the name of the token."
      },
      "nonces(address)": {
        "details": "See {IERC20Permit-nonces}."
      },
      "numCheckpoints(address)": {
        "details": "Get number of checkpoints for `account`."
      },
      "owner()": {
        "details": "Returns the address of the current owner."
      },
      "permit(address,address,uint256,uint256,uint8,bytes32,bytes32)": {
        "details": "See {IERC20Permit-permit}."
      },
      "renounceOwnership()": {
        "details": "Leaves the contract without owner. It will not be possible to call `onlyOwner` functions anymore. Can only be called by the current owner. NOTE: Renouncing ownership will leave the contract without an owner, thereby removing any functionality that is only available to the owner."
      },
      "symbol()": {
        "details": "Returns the symbol of the token, usually a shorter version of the name."
      },
      "totalSupply()": {
        "details": "See {IERC20-totalSupply}."
      },
      "transfer(address,uint256)": {
        "details": "See {IERC20-transfer}. Requirements: - `to` cannot be the zero address. - the caller must have a balance of at least `amount`."
      },
      "transferFrom(address,address,uint256)": {
        "details": "See {IERC20-transferFrom}. Emits an {Approval} event indicating the updated allowance. This is not required by the EIP. See the note at the beginning of {ERC20}. NOTE: Does not update the allowance if the current allowance is the maximum `uint256`. Requirements: - `from` and `to` cannot be the zero address. - `from` must have a balance of at least `amount`. - the caller must have allowance for ``from``'s tokens of at least `amount`."
      },
      "transferOwnership(address)": {
        "details": "Transfers ownership of the contract to a new account (`newOwner`). Can only be called by the current owner."
      }
    },
    "stateVariables": {
      "__gap": {
        "details": "This empty reserved space is put in place to allow future versions to add new variables without shifting down storage in the inheritance chain. See https://docs.openzeppelin.com/contracts/4.x/upgradeable#storage_gaps"
      }
    },
    "title": "Governance token",
    "version": 1
  },
  "userdoc": {
    "kind": "user",
    "methods": {
      "rescueTokens(address)": {
        "notice": "The DAO can take away tokens accidentally sent to the contract."
      }
    },
    "version": 1
  },
  "storageLayout": {
    "storage": [
      {
        "astId": 216,
        "contract": "contracts/SomeTokenDAO.sol:SomeTokenDAO",
        "label": "_initialized",
        "offset": 0,
        "slot": "0",
        "type": "t_uint8"
      },
      {
        "astId": 219,
        "contract": "contracts/SomeTokenDAO.sol:SomeTokenDAO",
        "label": "_initializing",
        "offset": 1,
        "slot": "0",
        "type": "t_bool"
      },
      {
        "astId": 2707,
        "contract": "contracts/SomeTokenDAO.sol:SomeTokenDAO",
        "label": "__gap",
        "offset": 0,
        "slot": "1",
        "type": "t_array(t_uint256)50_storage"
      },
      {
        "astId": 10,
        "contract": "contracts/SomeTokenDAO.sol:SomeTokenDAO",
        "label": "_owner",
        "offset": 0,
        "slot": "51",
        "type": "t_address"
      },
      {
        "astId": 130,
        "contract": "contracts/SomeTokenDAO.sol:SomeTokenDAO",
        "label": "__gap",
        "offset": 0,
        "slot": "52",
        "type": "t_array(t_uint256)49_storage"
      },
      {
        "astId": 6800,
        "contract": "contracts/SomeTokenDAO.sol:SomeTokenDAO",
        "label": "lzEndpoint",
        "offset": 0,
        "slot": "101",
        "type": "t_contract(ILayerZeroEndpointUpgradeable)6731"
      },
      {
        "astId": 6804,
        "contract": "contracts/SomeTokenDAO.sol:SomeTokenDAO",
        "label": "trustedRemoteLookup",
        "offset": 0,
        "slot": "102",
        "type": "t_mapping(t_uint16,t_bytes_storage)"
      },
      {
        "astId": 6810,
        "contract": "contracts/SomeTokenDAO.sol:SomeTokenDAO",
        "label": "minDstGasLookup",
        "offset": 0,
        "slot": "103",
        "type": "t_mapping(t_uint16,t_mapping(t_uint16,t_uint256))"
      },
      {
        "astId": 6814,
        "contract": "contracts/SomeTokenDAO.sol:SomeTokenDAO",
        "label": "payloadSizeLimitLookup",
        "offset": 0,
        "slot": "104",
        "type": "t_mapping(t_uint16,t_uint256)"
      },
      {
        "astId": 6816,
        "contract": "contracts/SomeTokenDAO.sol:SomeTokenDAO",
        "label": "precrime",
        "offset": 0,
        "slot": "105",
        "type": "t_address"
      },
      {
        "astId": 7348,
        "contract": "contracts/SomeTokenDAO.sol:SomeTokenDAO",
        "label": "__gap",
        "offset": 0,
        "slot": "106",
        "type": "t_array(t_uint256)45_storage"
      },
      {
        "astId": 7391,
        "contract": "contracts/SomeTokenDAO.sol:SomeTokenDAO",
        "label": "failedMessages",
        "offset": 0,
        "slot": "151",
        "type": "t_mapping(t_uint16,t_mapping(t_bytes_memory_ptr,t_mapping(t_uint64,t_bytes32)))"
      },
      {
        "astId": 7610,
        "contract": "contracts/SomeTokenDAO.sol:SomeTokenDAO",
        "label": "__gap",
        "offset": 0,
        "slot": "152",
        "type": "t_array(t_uint256)49_storage"
      },
      {
        "astId": 397,
        "contract": "contracts/SomeTokenDAO.sol:SomeTokenDAO",
        "label": "_balances",
        "offset": 0,
        "slot": "201",
        "type": "t_mapping(t_address,t_uint256)"
      },
      {
        "astId": 403,
        "contract": "contracts/SomeTokenDAO.sol:SomeTokenDAO",
        "label": "_allowances",
        "offset": 0,
        "slot": "202",
        "type": "t_mapping(t_address,t_mapping(t_address,t_uint256))"
      },
      {
        "astId": 405,
        "contract": "contracts/SomeTokenDAO.sol:SomeTokenDAO",
        "label": "_totalSupply",
        "offset": 0,
        "slot": "203",
        "type": "t_uint256"
      },
      {
        "astId": 407,
        "contract": "contracts/SomeTokenDAO.sol:SomeTokenDAO",
        "label": "_name",
        "offset": 0,
        "slot": "204",
        "type": "t_string_storage"
      },
      {
        "astId": 409,
        "contract": "contracts/SomeTokenDAO.sol:SomeTokenDAO",
        "label": "_symbol",
        "offset": 0,
        "slot": "205",
        "type": "t_string_storage"
      },
      {
        "astId": 989,
        "contract": "contracts/SomeTokenDAO.sol:SomeTokenDAO",
        "label": "__gap",
        "offset": 0,
        "slot": "206",
        "type": "t_array(t_uint256)45_storage"
      },
      {
        "astId": 3327,
        "contract": "contracts/SomeTokenDAO.sol:SomeTokenDAO",
        "label": "_HASHED_NAME",
        "offset": 0,
        "slot": "251",
        "type": "t_bytes32"
      },
      {
        "astId": 3329,
        "contract": "contracts/SomeTokenDAO.sol:SomeTokenDAO",
        "label": "_HASHED_VERSION",
        "offset": 0,
        "slot": "252",
        "type": "t_bytes32"
      },
      {
        "astId": 3467,
        "contract": "contracts/SomeTokenDAO.sol:SomeTokenDAO",
        "label": "__gap",
        "offset": 0,
        "slot": "253",
        "type": "t_array(t_uint256)50_storage"
      },
      {
        "astId": 1900,
        "contract": "contracts/SomeTokenDAO.sol:SomeTokenDAO",
        "label": "_nonces",
        "offset": 0,
        "slot": "303",
        "type": "t_mapping(t_address,t_struct(Counter)2714_storage)"
      },
      {
        "astId": 1908,
        "contract": "contracts/SomeTokenDAO.sol:SomeTokenDAO",
        "label": "_PERMIT_TYPEHASH_DEPRECATED_SLOT",
        "offset": 0,
        "slot": "304",
        "type": "t_bytes32"
      },
      {
        "astId": 2064,
        "contract": "contracts/SomeTokenDAO.sol:SomeTokenDAO",
        "label": "__gap",
        "offset": 0,
        "slot": "305",
        "type": "t_array(t_uint256)49_storage"
      },
      {
        "astId": 1173,
        "contract": "contracts/SomeTokenDAO.sol:SomeTokenDAO",
        "label": "_delegates",
        "offset": 0,
        "slot": "354",
        "type": "t_mapping(t_address,t_address)"
      },
      {
        "astId": 1179,
        "contract": "contracts/SomeTokenDAO.sol:SomeTokenDAO",
        "label": "_checkpoints",
        "offset": 0,
        "slot": "355",
        "type": "t_mapping(t_address,t_array(t_struct(Checkpoint)1164_storage)dyn_storage)"
      },
      {
        "astId": 1183,
        "contract": "contracts/SomeTokenDAO.sol:SomeTokenDAO",
        "label": "_totalSupplyCheckpoints",
        "offset": 0,
        "slot": "356",
        "type": "t_array(t_struct(Checkpoint)1164_storage)dyn_storage"
      },
      {
        "astId": 1848,
        "contract": "contracts/SomeTokenDAO.sol:SomeTokenDAO",
        "label": "__gap",
        "offset": 0,
        "slot": "357",
        "type": "t_array(t_uint256)47_storage"
      },
      {
        "astId": 8263,
        "contract": "contracts/SomeTokenDAO.sol:SomeTokenDAO",
        "label": "ACCESS_CONTROL_SINGLETON",
        "offset": 0,
        "slot": "404",
        "type": "t_contract(ISuAccessControl)8522"
      },
      {
        "astId": 8350,
        "contract": "contracts/SomeTokenDAO.sol:SomeTokenDAO",
        "label": "__gap",
        "offset": 0,
        "slot": "405",
        "type": "t_array(t_uint256)49_storage"
      },
      {
        "astId": 1131,
        "contract": "contracts/SomeTokenDAO.sol:SomeTokenDAO",
        "label": "__gap",
        "offset": 0,
        "slot": "454",
        "type": "t_array(t_uint256)50_storage"
      },
      {
        "astId": 8362,
        "contract": "contracts/SomeTokenDAO.sol:SomeTokenDAO",
        "label": "destChainId",
        "offset": 0,
        "slot": "504",
        "type": "t_uint16"
      },
      {
        "astId": 8230,
        "contract": "contracts/SomeTokenDAO.sol:SomeTokenDAO",
        "label": "__gap",
        "offset": 0,
        "slot": "505",
        "type": "t_array(t_uint256)49_storage"
      }
    ],
    "types": {
      "t_address": {
        "encoding": "inplace",
        "label": "address",
        "numberOfBytes": "20"
      },
      "t_array(t_struct(Checkpoint)1164_storage)dyn_storage": {
        "base": "t_struct(Checkpoint)1164_storage",
        "encoding": "dynamic_array",
        "label": "struct ERC20VotesUpgradeable.Checkpoint[]",
        "numberOfBytes": "32"
      },
      "t_array(t_uint256)45_storage": {
        "base": "t_uint256",
        "encoding": "inplace",
        "label": "uint256[45]",
        "numberOfBytes": "1440"
      },
      "t_array(t_uint256)47_storage": {
        "base": "t_uint256",
        "encoding": "inplace",
        "label": "uint256[47]",
        "numberOfBytes": "1504"
      },
      "t_array(t_uint256)49_storage": {
        "base": "t_uint256",
        "encoding": "inplace",
        "label": "uint256[49]",
        "numberOfBytes": "1568"
      },
      "t_array(t_uint256)50_storage": {
        "base": "t_uint256",
        "encoding": "inplace",
        "label": "uint256[50]",
        "numberOfBytes": "1600"
      },
      "t_bool": {
        "encoding": "inplace",
        "label": "bool",
        "numberOfBytes": "1"
      },
      "t_bytes32": {
        "encoding": "inplace",
        "label": "bytes32",
        "numberOfBytes": "32"
      },
      "t_bytes_memory_ptr": {
        "encoding": "bytes",
        "label": "bytes",
        "numberOfBytes": "32"
      },
      "t_bytes_storage": {
        "encoding": "bytes",
        "label": "bytes",
        "numberOfBytes": "32"
      },
      "t_contract(ILayerZeroEndpointUpgradeable)6731": {
        "encoding": "inplace",
        "label": "contract ILayerZeroEndpointUpgradeable",
        "numberOfBytes": "20"
      },
      "t_contract(ISuAccessControl)8522": {
        "encoding": "inplace",
        "label": "contract ISuAccessControl",
        "numberOfBytes": "20"
      },
      "t_mapping(t_address,t_address)": {
        "encoding": "mapping",
        "key": "t_address",
        "label": "mapping(address => address)",
        "numberOfBytes": "32",
        "value": "t_address"
      },
      "t_mapping(t_address,t_array(t_struct(Checkpoint)1164_storage)dyn_storage)": {
        "encoding": "mapping",
        "key": "t_address",
        "label": "mapping(address => struct ERC20VotesUpgradeable.Checkpoint[])",
        "numberOfBytes": "32",
        "value": "t_array(t_struct(Checkpoint)1164_storage)dyn_storage"
      },
      "t_mapping(t_address,t_mapping(t_address,t_uint256))": {
        "encoding": "mapping",
        "key": "t_address",
        "label": "mapping(address => mapping(address => uint256))",
        "numberOfBytes": "32",
        "value": "t_mapping(t_address,t_uint256)"
      },
      "t_mapping(t_address,t_struct(Counter)2714_storage)": {
        "encoding": "mapping",
        "key": "t_address",
        "label": "mapping(address => struct CountersUpgradeable.Counter)",
        "numberOfBytes": "32",
        "value": "t_struct(Counter)2714_storage"
      },
      "t_mapping(t_address,t_uint256)": {
        "encoding": "mapping",
        "key": "t_address",
        "label": "mapping(address => uint256)",
        "numberOfBytes": "32",
        "value": "t_uint256"
      },
      "t_mapping(t_bytes_memory_ptr,t_mapping(t_uint64,t_bytes32))": {
        "encoding": "mapping",
        "key": "t_bytes_memory_ptr",
        "label": "mapping(bytes => mapping(uint64 => bytes32))",
        "numberOfBytes": "32",
        "value": "t_mapping(t_uint64,t_bytes32)"
      },
      "t_mapping(t_uint16,t_bytes_storage)": {
        "encoding": "mapping",
        "key": "t_uint16",
        "label": "mapping(uint16 => bytes)",
        "numberOfBytes": "32",
        "value": "t_bytes_storage"
      },
      "t_mapping(t_uint16,t_mapping(t_bytes_memory_ptr,t_mapping(t_uint64,t_bytes32)))": {
        "encoding": "mapping",
        "key": "t_uint16",
        "label": "mapping(uint16 => mapping(bytes => mapping(uint64 => bytes32)))",
        "numberOfBytes": "32",
        "value": "t_mapping(t_bytes_memory_ptr,t_mapping(t_uint64,t_bytes32))"
      },
      "t_mapping(t_uint16,t_mapping(t_uint16,t_uint256))": {
        "encoding": "mapping",
        "key": "t_uint16",
        "label": "mapping(uint16 => mapping(uint16 => uint256))",
        "numberOfBytes": "32",
        "value": "t_mapping(t_uint16,t_uint256)"
      },
      "t_mapping(t_uint16,t_uint256)": {
        "encoding": "mapping",
        "key": "t_uint16",
        "label": "mapping(uint16 => uint256)",
        "numberOfBytes": "32",
        "value": "t_uint256"
      },
      "t_mapping(t_uint64,t_bytes32)": {
        "encoding": "mapping",
        "key": "t_uint64",
        "label": "mapping(uint64 => bytes32)",
        "numberOfBytes": "32",
        "value": "t_bytes32"
      },
      "t_string_storage": {
        "encoding": "bytes",
        "label": "string",
        "numberOfBytes": "32"
      },
      "t_struct(Checkpoint)1164_storage": {
        "encoding": "inplace",
        "label": "struct ERC20VotesUpgradeable.Checkpoint",
        "members": [
          {
            "astId": 1161,
            "contract": "contracts/SomeTokenDAO.sol:SomeTokenDAO",
            "label": "fromBlock",
            "offset": 0,
            "slot": "0",
            "type": "t_uint32"
          },
          {
            "astId": 1163,
            "contract": "contracts/SomeTokenDAO.sol:SomeTokenDAO",
            "label": "votes",
            "offset": 4,
            "slot": "0",
            "type": "t_uint224"
          }
        ],
        "numberOfBytes": "32"
      },
      "t_struct(Counter)2714_storage": {
        "encoding": "inplace",
        "label": "struct CountersUpgradeable.Counter",
        "members": [
          {
            "astId": 2713,
            "contract": "contracts/SomeTokenDAO.sol:SomeTokenDAO",
            "label": "_value",
            "offset": 0,
            "slot": "0",
            "type": "t_uint256"
          }
        ],
        "numberOfBytes": "32"
      },
      "t_uint16": {
        "encoding": "inplace",
        "label": "uint16",
        "numberOfBytes": "2"
      },
      "t_uint224": {
        "encoding": "inplace",
        "label": "uint224",
        "numberOfBytes": "28"
      },
      "t_uint256": {
        "encoding": "inplace",
        "label": "uint256",
        "numberOfBytes": "32"
      },
      "t_uint32": {
        "encoding": "inplace",
        "label": "uint32",
        "numberOfBytes": "4"
      },
      "t_uint64": {
        "encoding": "inplace",
        "label": "uint64",
        "numberOfBytes": "8"
      },
      "t_uint8": {
        "encoding": "inplace",
        "label": "uint8",
        "numberOfBytes": "1"
      }
    }
  }
}