{
  "address": "0x4274163619a3E4EA3C310a93C4B2f827F07FC5a4",
  "abi": [
    {
      "inputs": [
        {
          "internalType": "address",
          "name": "_layerZeroEndpoint",
          "type": "address"
        },
        {
          "internalType": "uint256",
          "name": "_startMintId",
          "type": "uint256"
        },
        {
          "internalType": "uint256",
          "name": "_endMintId",
          "type": "uint256"
        }
      ],
      "stateMutability": "nonpayable",
      "type": "constructor"
    },
    {
      "anonymous": false,
      "inputs": [
        {
          "indexed": true,
          "internalType": "address",
          "name": "owner",
          "type": "address"
        },
        {
          "indexed": true,
          "internalType": "address",
          "name": "approved",
          "type": "address"
        },
        {
          "indexed": true,
          "internalType": "uint256",
          "name": "tokenId",
          "type": "uint256"
        }
      ],
      "name": "Approval",
      "type": "event"
    },
    {
      "anonymous": false,
      "inputs": [
        {
          "indexed": true,
          "internalType": "address",
          "name": "owner",
          "type": "address"
        },
        {
          "indexed": true,
          "internalType": "address",
          "name": "operator",
          "type": "address"
        },
        {
          "indexed": false,
          "internalType": "bool",
          "name": "approved",
          "type": "bool"
        }
      ],
      "name": "ApprovalForAll",
      "type": "event"
    },
    {
      "anonymous": false,
      "inputs": [
        {
          "indexed": false,
          "internalType": "bytes32",
          "name": "_hashedPayload",
          "type": "bytes32"
        }
      ],
      "name": "CreditCleared",
      "type": "event"
    },
    {
      "anonymous": false,
      "inputs": [
        {
          "indexed": false,
          "internalType": "bytes32",
          "name": "_hashedPayload",
          "type": "bytes32"
        },
        {
          "indexed": false,
          "internalType": "bytes",
          "name": "_payload",
          "type": "bytes"
        }
      ],
      "name": "CreditStored",
      "type": "event"
    },
    {
      "anonymous": false,
      "inputs": [
        {
          "indexed": false,
          "internalType": "uint16",
          "name": "_srcChainId",
          "type": "uint16"
        },
        {
          "indexed": false,
          "internalType": "bytes",
          "name": "_srcAddress",
          "type": "bytes"
        },
        {
          "indexed": false,
          "internalType": "uint64",
          "name": "_nonce",
          "type": "uint64"
        },
        {
          "indexed": false,
          "internalType": "bytes",
          "name": "_payload",
          "type": "bytes"
        },
        {
          "indexed": false,
          "internalType": "bytes",
          "name": "_reason",
          "type": "bytes"
        }
      ],
      "name": "MessageFailed",
      "type": "event"
    },
    {
      "anonymous": false,
      "inputs": [
        {
          "indexed": true,
          "internalType": "address",
          "name": "previousOwner",
          "type": "address"
        },
        {
          "indexed": true,
          "internalType": "address",
          "name": "newOwner",
          "type": "address"
        }
      ],
      "name": "OwnershipTransferred",
      "type": "event"
    },
    {
      "anonymous": false,
      "inputs": [
        {
          "indexed": true,
          "internalType": "uint16",
          "name": "_srcChainId",
          "type": "uint16"
        },
        {
          "indexed": true,
          "internalType": "bytes",
          "name": "_srcAddress",
          "type": "bytes"
        },
        {
          "indexed": true,
          "internalType": "address",
          "name": "_toAddress",
          "type": "address"
        },
        {
          "indexed": false,
          "internalType": "uint256[]",
          "name": "_tokenIds",
          "type": "uint256[]"
        }
      ],
      "name": "ReceiveFromChain",
      "type": "event"
    },
    {
      "anonymous": false,
      "inputs": [
        {
          "indexed": false,
          "internalType": "uint16",
          "name": "_srcChainId",
          "type": "uint16"
        },
        {
          "indexed": false,
          "internalType": "bytes",
          "name": "_srcAddress",
          "type": "bytes"
        },
        {
          "indexed": false,
          "internalType": "uint64",
          "name": "_nonce",
          "type": "uint64"
        },
        {
          "indexed": false,
          "internalType": "bytes32",
          "name": "_payloadHash",
          "type": "bytes32"
        }
      ],
      "name": "RetryMessageSuccess",
      "type": "event"
    },
    {
      "anonymous": false,
      "inputs": [
        {
          "indexed": true,
          "internalType": "uint16",
          "name": "_dstChainId",
          "type": "uint16"
        },
        {
          "indexed": true,
          "internalType": "address",
          "name": "_from",
          "type": "address"
        },
        {
          "indexed": true,
          "internalType": "bytes",
          "name": "_toAddress",
          "type": "bytes"
        },
        {
          "indexed": false,
          "internalType": "uint256[]",
          "name": "_tokenIds",
          "type": "uint256[]"
        }
      ],
      "name": "SendToChain",
      "type": "event"
    },
    {
      "anonymous": false,
      "inputs": [
        {
          "indexed": false,
          "internalType": "uint16",
          "name": "_dstChainId",
          "type": "uint16"
        },
        {
          "indexed": false,
          "internalType": "uint256",
          "name": "_dstChainIdToBatchLimit",
          "type": "uint256"
        }
      ],
      "name": "SetDstChainIdToBatchLimit",
      "type": "event"
    },
    {
      "anonymous": false,
      "inputs": [
        {
          "indexed": false,
          "internalType": "uint16",
          "name": "_dstChainId",
          "type": "uint16"
        },
        {
          "indexed": false,
          "internalType": "uint256",
          "name": "_dstChainIdToTransferGas",
          "type": "uint256"
        }
      ],
      "name": "SetDstChainIdToTransferGas",
      "type": "event"
    },
    {
      "anonymous": false,
      "inputs": [
        {
          "indexed": false,
          "internalType": "uint16",
          "name": "_dstChainId",
          "type": "uint16"
        },
        {
          "indexed": false,
          "internalType": "uint16",
          "name": "_type",
          "type": "uint16"
        },
        {
          "indexed": false,
          "internalType": "uint256",
          "name": "_minDstGas",
          "type": "uint256"
        }
      ],
      "name": "SetMinDstGas",
      "type": "event"
    },
    {
      "anonymous": false,
      "inputs": [
        {
          "indexed": false,
          "internalType": "uint256",
          "name": "_minGasToTransferAndStore",
          "type": "uint256"
        }
      ],
      "name": "SetMinGasToTransferAndStore",
      "type": "event"
    },
    {
      "anonymous": false,
      "inputs": [
        {
          "indexed": false,
          "internalType": "address",
          "name": "precrime",
          "type": "address"
        }
      ],
      "name": "SetPrecrime",
      "type": "event"
    },
    {
      "anonymous": false,
      "inputs": [
        {
          "indexed": false,
          "internalType": "uint16",
          "name": "_remoteChainId",
          "type": "uint16"
        },
        {
          "indexed": false,
          "internalType": "bytes",
          "name": "_path",
          "type": "bytes"
        }
      ],
      "name": "SetTrustedRemote",
      "type": "event"
    },
    {
      "anonymous": false,
      "inputs": [
        {
          "indexed": false,
          "internalType": "uint16",
          "name": "_remoteChainId",
          "type": "uint16"
        },
        {
          "indexed": false,
          "internalType": "bytes",
          "name": "_remoteAddress",
          "type": "bytes"
        }
      ],
      "name": "SetTrustedRemoteAddress",
      "type": "event"
    },
    {
      "anonymous": false,
      "inputs": [
        {
          "indexed": true,
          "internalType": "address",
          "name": "from",
          "type": "address"
        },
        {
          "indexed": true,
          "internalType": "address",
          "name": "to",
          "type": "address"
        },
        {
          "indexed": true,
          "internalType": "uint256",
          "name": "tokenId",
          "type": "uint256"
        }
      ],
      "name": "Transfer",
      "type": "event"
    },
    {
      "inputs": [],
      "name": "DEFAULT_PAYLOAD_SIZE_LIMIT",
      "outputs": [
        {
          "internalType": "uint256",
          "name": "",
          "type": "uint256"
        }
      ],
      "stateMutability": "view",
      "type": "function"
    },
    {
      "inputs": [],
      "name": "FUNCTION_TYPE_SEND",
      "outputs": [
        {
          "internalType": "uint16",
          "name": "",
          "type": "uint16"
        }
      ],
      "stateMutability": "view",
      "type": "function"
    },
    {
      "inputs": [
        {
          "internalType": "address",
          "name": "to",
          "type": "address"
        },
        {
          "internalType": "uint256",
          "name": "tokenId",
          "type": "uint256"
        }
      ],
      "name": "approve",
      "outputs": [],
      "stateMutability": "nonpayable",
      "type": "function"
    },
    {
      "inputs": [
        {
          "internalType": "address",
          "name": "owner",
          "type": "address"
        }
      ],
      "name": "balanceOf",
      "outputs": [
        {
          "internalType": "uint256",
          "name": "",
          "type": "uint256"
        }
      ],
      "stateMutability": "view",
      "type": "function"
    },
    {
      "inputs": [
        {
          "internalType": "bytes",
          "name": "_payload",
          "type": "bytes"
        }
      ],
      "name": "clearCredits",
      "outputs": [],
      "stateMutability": "nonpayable",
      "type": "function"
    },
    {
      "inputs": [
        {
          "internalType": "uint16",
          "name": "",
          "type": "uint16"
        }
      ],
      "name": "dstChainIdToBatchLimit",
      "outputs": [
        {
          "internalType": "uint256",
          "name": "",
          "type": "uint256"
        }
      ],
      "stateMutability": "view",
      "type": "function"
    },
    {
      "inputs": [
        {
          "internalType": "uint16",
          "name": "",
          "type": "uint16"
        }
      ],
      "name": "dstChainIdToTransferGas",
      "outputs": [
        {
          "internalType": "uint256",
          "name": "",
          "type": "uint256"
        }
      ],
      "stateMutability": "view",
      "type": "function"
    },
    {
      "inputs": [
        {
          "internalType": "uint16",
          "name": "_dstChainId",
          "type": "uint16"
        },
        {
          "internalType": "bytes",
          "name": "_toAddress",
          "type": "bytes"
        },
        {
          "internalType": "uint256[]",
          "name": "_tokenIds",
          "type": "uint256[]"
        },
        {
          "internalType": "bool",
          "name": "_useZro",
          "type": "bool"
        },
        {
          "internalType": "bytes",
          "name": "_adapterParams",
          "type": "bytes"
        }
      ],
      "name": "estimateSendBatchFee",
      "outputs": [
        {
          "internalType": "uint256",
          "name": "nativeFee",
          "type": "uint256"
        },
        {
          "internalType": "uint256",
          "name": "zroFee",
          "type": "uint256"
        }
      ],
      "stateMutability": "view",
      "type": "function"
    },
    {
      "inputs": [
        {
          "internalType": "uint16",
          "name": "_dstChainId",
          "type": "uint16"
        },
        {
          "internalType": "bytes",
          "name": "_toAddress",
          "type": "bytes"
        },
        {
          "internalType": "uint256",
          "name": "_tokenId",
          "type": "uint256"
        },
        {
          "internalType": "bool",
          "name": "_useZro",
          "type": "bool"
        },
        {
          "internalType": "bytes",
          "name": "_adapterParams",
          "type": "bytes"
        }
      ],
      "name": "estimateSendFee",
      "outputs": [
        {
          "internalType": "uint256",
          "name": "nativeFee",
          "type": "uint256"
        },
        {
          "internalType": "uint256",
          "name": "zroFee",
          "type": "uint256"
        }
      ],
      "stateMutability": "view",
      "type": "function"
    },
    {
      "inputs": [
        {
          "internalType": "uint16",
          "name": "",
          "type": "uint16"
        },
        {
          "internalType": "bytes",
          "name": "",
          "type": "bytes"
        },
        {
          "internalType": "uint64",
          "name": "",
          "type": "uint64"
        }
      ],
      "name": "failedMessages",
      "outputs": [
        {
          "internalType": "bytes32",
          "name": "",
          "type": "bytes32"
        }
      ],
      "stateMutability": "view",
      "type": "function"
    },
    {
      "inputs": [
        {
          "internalType": "uint16",
          "name": "_srcChainId",
          "type": "uint16"
        },
        {
          "internalType": "bytes",
          "name": "_srcAddress",
          "type": "bytes"
        }
      ],
      "name": "forceResumeReceive",
      "outputs": [],
      "stateMutability": "nonpayable",
      "type": "function"
    },
    {
      "inputs": [
        {
          "internalType": "uint256",
          "name": "tokenId",
          "type": "uint256"
        }
      ],
      "name": "getApproved",
      "outputs": [
        {
          "internalType": "address",
          "name": "",
          "type": "address"
        }
      ],
      "stateMutability": "view",
      "type": "function"
    },
    {
      "inputs": [
        {
          "internalType": "uint16",
          "name": "_version",
          "type": "uint16"
        },
        {
          "internalType": "uint16",
          "name": "_chainId",
          "type": "uint16"
        },
        {
          "internalType": "address",
          "name": "",
          "type": "address"
        },
        {
          "internalType": "uint256",
          "name": "_configType",
          "type": "uint256"
        }
      ],
      "name": "getConfig",
      "outputs": [
        {
          "internalType": "bytes",
          "name": "",
          "type": "bytes"
        }
      ],
      "stateMutability": "view",
      "type": "function"
    },
    {
      "inputs": [
        {
          "internalType": "uint16",
          "name": "_remoteChainId",
          "type": "uint16"
        }
      ],
      "name": "getTrustedRemoteAddress",
      "outputs": [
        {
          "internalType": "bytes",
          "name": "",
          "type": "bytes"
        }
      ],
      "stateMutability": "view",
      "type": "function"
    },
    {
      "inputs": [
        {
          "internalType": "address",
          "name": "owner",
          "type": "address"
        },
        {
          "internalType": "address",
          "name": "operator",
          "type": "address"
        }
      ],
      "name": "isApprovedForAll",
      "outputs": [
        {
          "internalType": "bool",
          "name": "",
          "type": "bool"
        }
      ],
      "stateMutability": "view",
      "type": "function"
    },
    {
      "inputs": [
        {
          "internalType": "uint16",
          "name": "_srcChainId",
          "type": "uint16"
        },
        {
          "internalType": "bytes",
          "name": "_srcAddress",
          "type": "bytes"
        }
      ],
      "name": "isTrustedRemote",
      "outputs": [
        {
          "internalType": "bool",
          "name": "",
          "type": "bool"
        }
      ],
      "stateMutability": "view",
      "type": "function"
    },
    {
      "inputs": [],
      "name": "lzEndpoint",
      "outputs": [
        {
          "internalType": "contract ILayerZeroEndpoint",
          "name": "",
          "type": "address"
        }
      ],
      "stateMutability": "view",
      "type": "function"
    },
    {
      "inputs": [
        {
          "internalType": "uint16",
          "name": "_srcChainId",
          "type": "uint16"
        },
        {
          "internalType": "bytes",
          "name": "_srcAddress",
          "type": "bytes"
        },
        {
          "internalType": "uint64",
          "name": "_nonce",
          "type": "uint64"
        },
        {
          "internalType": "bytes",
          "name": "_payload",
          "type": "bytes"
        }
      ],
      "name": "lzReceive",
      "outputs": [],
      "stateMutability": "nonpayable",
      "type": "function"
    },
    {
      "inputs": [],
      "name": "maxMintId",
      "outputs": [
        {
          "internalType": "uint256",
          "name": "",
          "type": "uint256"
        }
      ],
      "stateMutability": "view",
      "type": "function"
    },
    {
      "inputs": [
        {
          "internalType": "uint16",
          "name": "",
          "type": "uint16"
        },
        {
          "internalType": "uint16",
          "name": "",
          "type": "uint16"
        }
      ],
      "name": "minDstGasLookup",
      "outputs": [
        {
          "internalType": "uint256",
          "name": "",
          "type": "uint256"
        }
      ],
      "stateMutability": "view",
      "type": "function"
    },
    {
      "inputs": [],
      "name": "minGasToTransferAndStore",
      "outputs": [
        {
          "internalType": "uint256",
          "name": "",
          "type": "uint256"
        }
      ],
      "stateMutability": "view",
      "type": "function"
    },
    {
      "inputs": [],
      "name": "mint",
      "outputs": [],
      "stateMutability": "payable",
      "type": "function"
    },
    {
      "inputs": [],
      "name": "name",
      "outputs": [
        {
          "internalType": "string",
          "name": "",
          "type": "string"
        }
      ],
      "stateMutability": "view",
      "type": "function"
    },
    {
      "inputs": [],
      "name": "nextMintId",
      "outputs": [
        {
          "internalType": "uint256",
          "name": "",
          "type": "uint256"
        }
      ],
      "stateMutability": "view",
      "type": "function"
    },
    {
      "inputs": [
        {
          "internalType": "uint16",
          "name": "_srcChainId",
          "type": "uint16"
        },
        {
          "internalType": "bytes",
          "name": "_srcAddress",
          "type": "bytes"
        },
        {
          "internalType": "uint64",
          "name": "_nonce",
          "type": "uint64"
        },
        {
          "internalType": "bytes",
          "name": "_payload",
          "type": "bytes"
        }
      ],
      "name": "nonblockingLzReceive",
      "outputs": [],
      "stateMutability": "nonpayable",
      "type": "function"
    },
    {
      "inputs": [],
      "name": "owner",
      "outputs": [
        {
          "internalType": "address",
          "name": "",
          "type": "address"
        }
      ],
      "stateMutability": "view",
      "type": "function"
    },
    {
      "inputs": [
        {
          "internalType": "uint256",
          "name": "tokenId",
          "type": "uint256"
        }
      ],
      "name": "ownerOf",
      "outputs": [
        {
          "internalType": "address",
          "name": "",
          "type": "address"
        }
      ],
      "stateMutability": "view",
      "type": "function"
    },
    {
      "inputs": [
        {
          "internalType": "uint16",
          "name": "",
          "type": "uint16"
        }
      ],
      "name": "payloadSizeLimitLookup",
      "outputs": [
        {
          "internalType": "uint256",
          "name": "",
          "type": "uint256"
        }
      ],
      "stateMutability": "view",
      "type": "function"
    },
    {
      "inputs": [],
      "name": "precrime",
      "outputs": [
        {
          "internalType": "address",
          "name": "",
          "type": "address"
        }
      ],
      "stateMutability": "view",
      "type": "function"
    },
    {
      "inputs": [],
      "name": "renounceOwnership",
      "outputs": [],
      "stateMutability": "nonpayable",
      "type": "function"
    },
    {
      "inputs": [
        {
          "internalType": "uint16",
          "name": "_srcChainId",
          "type": "uint16"
        },
        {
          "internalType": "bytes",
          "name": "_srcAddress",
          "type": "bytes"
        },
        {
          "internalType": "uint64",
          "name": "_nonce",
          "type": "uint64"
        },
        {
          "internalType": "bytes",
          "name": "_payload",
          "type": "bytes"
        }
      ],
      "name": "retryMessage",
      "outputs": [],
      "stateMutability": "payable",
      "type": "function"
    },
    {
      "inputs": [
        {
          "internalType": "address",
          "name": "from",
          "type": "address"
        },
        {
          "internalType": "address",
          "name": "to",
          "type": "address"
        },
        {
          "internalType": "uint256",
          "name": "tokenId",
          "type": "uint256"
        }
      ],
      "name": "safeTransferFrom",
      "outputs": [],
      "stateMutability": "nonpayable",
      "type": "function"
    },
    {
      "inputs": [
        {
          "internalType": "address",
          "name": "from",
          "type": "address"
        },
        {
          "internalType": "address",
          "name": "to",
          "type": "address"
        },
        {
          "internalType": "uint256",
          "name": "tokenId",
          "type": "uint256"
        },
        {
          "internalType": "bytes",
          "name": "data",
          "type": "bytes"
        }
      ],
      "name": "safeTransferFrom",
      "outputs": [],
      "stateMutability": "nonpayable",
      "type": "function"
    },
    {
      "inputs": [
        {
          "internalType": "address",
          "name": "_from",
          "type": "address"
        },
        {
          "internalType": "uint16",
          "name": "_dstChainId",
          "type": "uint16"
        },
        {
          "internalType": "bytes",
          "name": "_toAddress",
          "type": "bytes"
        },
        {
          "internalType": "uint256[]",
          "name": "_tokenIds",
          "type": "uint256[]"
        },
        {
          "internalType": "address payable",
          "name": "_refundAddress",
          "type": "address"
        },
        {
          "internalType": "address",
          "name": "_zroPaymentAddress",
          "type": "address"
        },
        {
          "internalType": "bytes",
          "name": "_adapterParams",
          "type": "bytes"
        }
      ],
      "name": "sendBatchFrom",
      "outputs": [],
      "stateMutability": "payable",
      "type": "function"
    },
    {
      "inputs": [
        {
          "internalType": "address",
          "name": "_from",
          "type": "address"
        },
        {
          "internalType": "uint16",
          "name": "_dstChainId",
          "type": "uint16"
        },
        {
          "internalType": "bytes",
          "name": "_toAddress",
          "type": "bytes"
        },
        {
          "internalType": "uint256",
          "name": "_tokenId",
          "type": "uint256"
        },
        {
          "internalType": "address payable",
          "name": "_refundAddress",
          "type": "address"
        },
        {
          "internalType": "address",
          "name": "_zroPaymentAddress",
          "type": "address"
        },
        {
          "internalType": "bytes",
          "name": "_adapterParams",
          "type": "bytes"
        }
      ],
      "name": "sendFrom",
      "outputs": [],
      "stateMutability": "payable",
      "type": "function"
    },
    {
      "inputs": [
        {
          "internalType": "address",
          "name": "operator",
          "type": "address"
        },
        {
          "internalType": "bool",
          "name": "approved",
          "type": "bool"
        }
      ],
      "name": "setApprovalForAll",
      "outputs": [],
      "stateMutability": "nonpayable",
      "type": "function"
    },
    {
      "inputs": [
        {
          "internalType": "uint16",
          "name": "_version",
          "type": "uint16"
        },
        {
          "internalType": "uint16",
          "name": "_chainId",
          "type": "uint16"
        },
        {
          "internalType": "uint256",
          "name": "_configType",
          "type": "uint256"
        },
        {
          "internalType": "bytes",
          "name": "_config",
          "type": "bytes"
        }
      ],
      "name": "setConfig",
      "outputs": [],
      "stateMutability": "nonpayable",
      "type": "function"
    },
    {
      "inputs": [
        {
          "internalType": "uint16",
          "name": "_dstChainId",
          "type": "uint16"
        },
        {
          "internalType": "uint256",
          "name": "_dstChainIdToBatchLimit",
          "type": "uint256"
        }
      ],
      "name": "setDstChainIdToBatchLimit",
      "outputs": [],
      "stateMutability": "nonpayable",
      "type": "function"
    },
    {
      "inputs": [
        {
          "internalType": "uint16",
          "name": "_dstChainId",
          "type": "uint16"
        },
        {
          "internalType": "uint256",
          "name": "_dstChainIdToTransferGas",
          "type": "uint256"
        }
      ],
      "name": "setDstChainIdToTransferGas",
      "outputs": [],
      "stateMutability": "nonpayable",
      "type": "function"
    },
    {
      "inputs": [
        {
          "internalType": "uint16",
          "name": "_dstChainId",
          "type": "uint16"
        },
        {
          "internalType": "uint16",
          "name": "_packetType",
          "type": "uint16"
        },
        {
          "internalType": "uint256",
          "name": "_minGas",
          "type": "uint256"
        }
      ],
      "name": "setMinDstGas",
      "outputs": [],
      "stateMutability": "nonpayable",
      "type": "function"
    },
    {
      "inputs": [
        {
          "internalType": "uint256",
          "name": "_minGasToTransferAndStore",
          "type": "uint256"
        }
      ],
      "name": "setMinGasToTransferAndStore",
      "outputs": [],
      "stateMutability": "nonpayable",
      "type": "function"
    },
    {
      "inputs": [
        {
          "internalType": "uint16",
          "name": "_dstChainId",
          "type": "uint16"
        },
        {
          "internalType": "uint256",
          "name": "_size",
          "type": "uint256"
        }
      ],
      "name": "setPayloadSizeLimit",
      "outputs": [],
      "stateMutability": "nonpayable",
      "type": "function"
    },
    {
      "inputs": [
        {
          "internalType": "address",
          "name": "_precrime",
          "type": "address"
        }
      ],
      "name": "setPrecrime",
      "outputs": [],
      "stateMutability": "nonpayable",
      "type": "function"
    },
    {
      "inputs": [
        {
          "internalType": "uint16",
          "name": "_version",
          "type": "uint16"
        }
      ],
      "name": "setReceiveVersion",
      "outputs": [],
      "stateMutability": "nonpayable",
      "type": "function"
    },
    {
      "inputs": [
        {
          "internalType": "uint16",
          "name": "_version",
          "type": "uint16"
        }
      ],
      "name": "setSendVersion",
      "outputs": [],
      "stateMutability": "nonpayable",
      "type": "function"
    },
    {
      "inputs": [
        {
          "internalType": "uint16",
          "name": "_remoteChainId",
          "type": "uint16"
        },
        {
          "internalType": "bytes",
          "name": "_path",
          "type": "bytes"
        }
      ],
      "name": "setTrustedRemote",
      "outputs": [],
      "stateMutability": "nonpayable",
      "type": "function"
    },
    {
      "inputs": [
        {
          "internalType": "uint16",
          "name": "_remoteChainId",
          "type": "uint16"
        },
        {
          "internalType": "bytes",
          "name": "_remoteAddress",
          "type": "bytes"
        }
      ],
      "name": "setTrustedRemoteAddress",
      "outputs": [],
      "stateMutability": "nonpayable",
      "type": "function"
    },
    {
      "inputs": [
        {
          "internalType": "bytes32",
          "name": "",
          "type": "bytes32"
        }
      ],
      "name": "storedCredits",
      "outputs": [
        {
          "internalType": "uint16",
          "name": "srcChainId",
          "type": "uint16"
        },
        {
          "internalType": "address",
          "name": "toAddress",
          "type": "address"
        },
        {
          "internalType": "uint256",
          "name": "index",
          "type": "uint256"
        },
        {
          "internalType": "bool",
          "name": "creditsRemain",
          "type": "bool"
        }
      ],
      "stateMutability": "view",
      "type": "function"
    },
    {
      "inputs": [
        {
          "internalType": "bytes4",
          "name": "interfaceId",
          "type": "bytes4"
        }
      ],
      "name": "supportsInterface",
      "outputs": [
        {
          "internalType": "bool",
          "name": "",
          "type": "bool"
        }
      ],
      "stateMutability": "view",
      "type": "function"
    },
    {
      "inputs": [],
      "name": "symbol",
      "outputs": [
        {
          "internalType": "string",
          "name": "",
          "type": "string"
        }
      ],
      "stateMutability": "view",
      "type": "function"
    },
    {
      "inputs": [
        {
          "internalType": "uint256",
          "name": "tokenId",
          "type": "uint256"
        }
      ],
      "name": "tokenURI",
      "outputs": [
        {
          "internalType": "string",
          "name": "",
          "type": "string"
        }
      ],
      "stateMutability": "view",
      "type": "function"
    },
    {
      "inputs": [
        {
          "internalType": "address",
          "name": "from",
          "type": "address"
        },
        {
          "internalType": "address",
          "name": "to",
          "type": "address"
        },
        {
          "internalType": "uint256",
          "name": "tokenId",
          "type": "uint256"
        }
      ],
      "name": "transferFrom",
      "outputs": [],
      "stateMutability": "nonpayable",
      "type": "function"
    },
    {
      "inputs": [
        {
          "internalType": "address",
          "name": "newOwner",
          "type": "address"
        }
      ],
      "name": "transferOwnership",
      "outputs": [],
      "stateMutability": "nonpayable",
      "type": "function"
    },
    {
      "inputs": [
        {
          "internalType": "uint16",
          "name": "",
          "type": "uint16"
        }
      ],
      "name": "trustedRemoteLookup",
      "outputs": [
        {
          "internalType": "bytes",
          "name": "",
          "type": "bytes"
        }
      ],
      "stateMutability": "view",
      "type": "function"
    }
  ],
  "transactionHash": "0xeaeeebb014113b1ad76e92dbb01d8efc4ffc86de07b1ca40c9011f65072259a8",
  "args": [
    "0xae92d5aD7583AD66E49A0c67BAd18F6ba52dDDc1",
    200,
    299
  ],
  "numDeployments": 1,
  "solcInputHash": "a74e30bb844720d1485a32b7747b45a7",
  "bytecode": "0x60a06040523480156200001157600080fd5b5060405162004968380380620049688339810160408190526200003491620001f3565b6040518060400160405280601f81526020017f537461626c65556e6974204d6f636b45726337323143726f7373436861696e008152506040518060400160405280601481526020017f4d6f636b45726337323143726f7373436861696e000000000000000000000000815250600185858585858585838383838080620000c9620000c36200019f60201b60201c565b620001a3565b6001600160a01b03166080525081620001345760405162461bcd60e51b8152602060048201526024808201527f6d696e476173546f5472616e73666572416e6453746f7265206d7573742062656044820152630203e20360e41b606482015260840160405180910390fd5b50600655600a620001468382620002dd565b50600b620001558282620002dd565b50505060109590955550505060115550506040805160608101909152603680825290935091506200493290506020830139601290620001959082620002dd565b50505050620003a9565b3390565b600080546001600160a01b038381166001600160a01b0319831681178455604051919092169283917f8be0079c531659141344cd1fd0a4f28419497f9722a3daafe3b4186f6b6457e09190a35050565b6000806000606084860312156200020957600080fd5b83516001600160a01b03811681146200022157600080fd5b602085015160409095015190969495509392505050565b634e487b7160e01b600052604160045260246000fd5b600181811c908216806200026357607f821691505b6020821081036200028457634e487b7160e01b600052602260045260246000fd5b50919050565b601f821115620002d857600081815260208120601f850160051c81016020861015620002b35750805b601f850160051c820191505b81811015620002d457828155600101620002bf565b5050505b505050565b81516001600160401b03811115620002f957620002f962000238565b62000311816200030a84546200024e565b846200028a565b602080601f831160018114620003495760008415620003305750858301515b600019600386901b1c1916600185901b178555620002d4565b600085815260208120601f198616915b828110156200037a5788860151825594840194600190910190840162000359565b5085821015620003995787850151600019600388901b60f8161c191681555b5050505050600190811b01905550565b608051614535620003fd600039600081816107e9015281816109da01528181610cde01528181610f620152818161118001528181611a4a01528181611eff015281816120320152612efa01526145356000f3fe6080604052600436106102645760003560e01c80621d35671461026957806301ffc9a71461028b57806306fdde03146102c057806307e0db17146102e2578063081812fc14610302578063095ea7b31461032f5780630b4cad4c1461034f5780630df374831461036f57806310ddb1371461038f5780631249c58b146103af57806322a3ecf9146103b757806323b872dd1461043a5780632a205e3d1461045a5780633d8b38f61461048f5780633f1f4fa4146104af57806342842e0e146104ea57806342d65a8d1461050a578063482881901461052a5780634ac3f4ff14610540578063519056361461056d5780635b8c41e6146105805780636352211e146105cf57806366ad5c8a146105ef5780636aa99da31461060f57806370a0823114610625578063715018a6146106455780637533d7881461065a5780638cfd8f5c1461067a5780638da5cb5b146106b25780638ffa1f2a146106c7578063950c8a74146106e757806395d89b41146107075780639ea5d6b11461071c5780639f38369a1461073c578063a22cb4651461075c578063a6c3d1651461077c578063ab3ffb931461079c578063af3fb21c146107af578063b353aaa7146107d7578063b88d4fde1461080b578063baf3292d1461082b578063c44618341461084b578063c87b56dd14610861578063cbed8b9c14610881578063d12473a5146108a1578063d1deba1f146108c1578063df2a5b3b146108d4578063e1d4c870146108f4578063e985e9c51461090a578063eb8d72b71461092a578063f23536411461094a578063f2fde38b1461096a578063f5ecbdbc1461098a578063fa25f9b6146109aa575b600080fd5b34801561027557600080fd5b50610289610284366004613311565b6109d7565b005b34801561029757600080fd5b506102ab6102a63660046133ba565b610c08565b60405190151581526020015b60405180910390f35b3480156102cc57600080fd5b506102d5610c2b565b6040516102b79190613427565b3480156102ee57600080fd5b506102896102fd36600461343a565b610cbd565b34801561030e57600080fd5b5061032261031d366004613455565b610d46565b6040516102b7919061346e565b34801561033b57600080fd5b5061028961034a3660046134a2565b610d6d565b34801561035b57600080fd5b5061028961036a366004613455565b610e82565b34801561037b57600080fd5b5061028961038a3660046134ce565b610f22565b34801561039b57600080fd5b506102896103aa36600461343a565b610f41565b610289610f99565b3480156103c357600080fd5b5061040b6103d2366004613455565b60096020526000908152604090208054600182015460029092015461ffff821692620100009092046001600160a01b0316919060ff1684565b6040805161ffff90951685526001600160a01b03909316602085015291830152151560608201526080016102b7565b34801561044657600080fd5b506102896104553660046134ea565b611022565b34801561046657600080fd5b5061047a6104753660046135fe565b611054565b604080519283526020830191909152016102b7565b34801561049b57600080fd5b506102ab6104aa36600461368c565b61107a565b3480156104bb57600080fd5b506104dc6104ca36600461343a565b60036020526000908152604090205481565b6040519081526020016102b7565b3480156104f657600080fd5b506102896105053660046134ea565b611146565b34801561051657600080fd5b5061028961052536600461368c565b611161565b34801561053657600080fd5b506104dc60065481565b34801561054c57600080fd5b506104dc61055b36600461343a565b60076020526000908152604090205481565b61028961057b3660046136de565b6111e7565b34801561058c57600080fd5b506104dc61059b366004613797565b6005602090815260009384526040808520845180860184018051928152908401958401959095209452929052825290205481565b3480156105db57600080fd5b506103226105ea366004613455565b6111fe565b3480156105fb57600080fd5b5061028961060a366004613311565b611232565b34801561061b57600080fd5b506104dc60105481565b34801561063157600080fd5b506104dc6106403660046137f4565b61130e565b34801561065157600080fd5b50610289611394565b34801561066657600080fd5b506102d561067536600461343a565b6113a8565b34801561068657600080fd5b506104dc610695366004613811565b600260209081526000928352604080842090915290825290205481565b3480156106be57600080fd5b50610322611442565b3480156106d357600080fd5b506102896106e2366004613844565b611451565b3480156106f357600080fd5b50600454610322906001600160a01b031681565b34801561071357600080fd5b506102d561168a565b34801561072857600080fd5b506102896107373660046134ce565b611699565b34801561074857600080fd5b506102d561075736600461343a565b611750565b34801561076857600080fd5b50610289610777366004613878565b611866565b34801561078857600080fd5b5061028961079736600461368c565b611875565b6102896107aa36600461392d565b6118fe565b3480156107bb57600080fd5b506107c4600181565b60405161ffff90911681526020016102b7565b3480156107e357600080fd5b506103227f000000000000000000000000000000000000000000000000000000000000000081565b34801561081757600080fd5b506102896108263660046139e2565b61190d565b34801561083757600080fd5b506102896108463660046137f4565b61193f565b34801561085757600080fd5b506104dc61271081565b34801561086d57600080fd5b506102d561087c366004613455565b611992565b34801561088d57600080fd5b5061028961089c366004613a4d565b611a2b565b3480156108ad57600080fd5b506102896108bc3660046134ce565b611ac0565b6102896108cf366004613311565b611b70565b3480156108e057600080fd5b506102896108ef366004613abb565b611d86565b34801561090057600080fd5b506104dc60115481565b34801561091657600080fd5b506102ab610925366004613af7565b611e38565b34801561093657600080fd5b5061028961094536600461368c565b611e66565b34801561095657600080fd5b5061047a610965366004613b30565b611ec0565b34801561097657600080fd5b506102896109853660046137f4565b611f8b565b34801561099657600080fd5b506102d56109a5366004613ba9565b612001565b3480156109b657600080fd5b506104dc6109c536600461343a565b60086020526000908152604090205481565b337f00000000000000000000000000000000000000000000000000000000000000006001600160a01b031614610a545760405162461bcd60e51b815260206004820152601e60248201527f4c7a4170703a20696e76616c696420656e64706f696e742063616c6c6572000060448201526064015b60405180910390fd5b61ffff861660009081526001602052604081208054610a7290613bf6565b80601f0160208091040260200160405190810160405280929190818152602001828054610a9e90613bf6565b8015610aeb5780601f10610ac057610100808354040283529160200191610aeb565b820191906000526020600020905b815481529060010190602001808311610ace57829003601f168201915b50505050509050805186869050148015610b06575060008151115b8015610b2e575080516020820120604051610b249088908890613c30565b6040518091039020145b610b895760405162461bcd60e51b815260206004820152602660248201527f4c7a4170703a20696e76616c696420736f757263652073656e64696e6720636f6044820152651b9d1c9858dd60d21b6064820152608401610a4b565b610bff8787878080601f01602080910402602001604051908101604052809392919081815260200183838082843760009201919091525050604080516020601f8a018190048102820181019092528881528a9350915088908890819084018382808284376000920191909152506120b492505050565b50505050505050565b60006001600160e01b031982161580610c255750610c258261212d565b92915050565b6060600a8054610c3a90613bf6565b80601f0160208091040260200160405190810160405280929190818152602001828054610c6690613bf6565b8015610cb35780601f10610c8857610100808354040283529160200191610cb3565b820191906000526020600020905b815481529060010190602001808311610c9657829003601f168201915b5050505050905090565b610cc561216d565b6040516307e0db1760e01b815261ffff821660048201527f00000000000000000000000000000000000000000000000000000000000000006001600160a01b0316906307e0db17906024015b600060405180830381600087803b158015610d2b57600080fd5b505af1158015610d3f573d6000803e3d6000fd5b5050505050565b6000610d51826121cc565b506000908152600e60205260409020546001600160a01b031690565b6000610d78826111fe565b9050806001600160a01b0316836001600160a01b031603610de55760405162461bcd60e51b815260206004820152602160248201527f4552433732313a20617070726f76616c20746f2063757272656e74206f776e656044820152603960f91b6064820152608401610a4b565b336001600160a01b0382161480610e015750610e018133611e38565b610e735760405162461bcd60e51b815260206004820152603d60248201527f4552433732313a20617070726f76652063616c6c6572206973206e6f7420746f60448201527f6b656e206f776e6572206f7220617070726f76656420666f7220616c6c0000006064820152608401610a4b565b610e7d83836121f1565b505050565b610e8a61216d565b60008111610ee65760405162461bcd60e51b8152602060048201526024808201527f6d696e476173546f5472616e73666572416e6453746f7265206d7573742062656044820152630203e20360e41b6064820152608401610a4b565b60068190556040518181527ffebbc4f8bb9ec2313950c718d43123124b15778efda4c1f1d529de2995b4f34d906020015b60405180910390a150565b610f2a61216d565b61ffff909116600090815260036020526040902055565b610f4961216d565b6040516310ddb13760e01b815261ffff821660048201527f00000000000000000000000000000000000000000000000000000000000000006001600160a01b0316906310ddb13790602401610d11565b6011546010541115610ffe5760405162461bcd60e51b815260206004820152602860248201527f556e6976657273616c4f4e46543732313a206d6178206d696e74206c696d6974604482015267081c995858da195960c21b6064820152608401610a4b565b60108054908190600061101083613c56565b919050555061101f338261225f565b50565b61102d335b82612279565b6110495760405162461bcd60e51b8152600401610a4b90613c6f565b610e7d8383836122d7565b60008061106c878761106588612429565b8787611ec0565b915091509550959350505050565b61ffff83166000908152600160205260408120805482919061109b90613bf6565b80601f01602080910402602001604051908101604052809291908181526020018280546110c790613bf6565b80156111145780601f106110e957610100808354040283529160200191611114565b820191906000526020600020905b8154815290600101906020018083116110f757829003601f168201915b50505050509050838360405161112b929190613c30565b60405180910390208180519060200120149150509392505050565b610e7d8383836040518060200160405280600081525061190d565b61116961216d565b6040516342d65a8d60e01b81526001600160a01b037f000000000000000000000000000000000000000000000000000000000000000016906342d65a8d906111b990869086908690600401613ce5565b600060405180830381600087803b1580156111d357600080fd5b505af1158015610bff573d6000803e3d6000fd5b610bff8787876111f688612429565b878787612474565b60008061120a83612648565b90506001600160a01b038116610c255760405162461bcd60e51b8152600401610a4b90613d03565b3330146112905760405162461bcd60e51b815260206004820152602660248201527f4e6f6e626c6f636b696e674c7a4170703a2063616c6c6572206d7573742062656044820152650204c7a4170760d41b6064820152608401610a4b565b6113068686868080601f01602080910402602001604051908101604052809392919081815260200183838082843760009201919091525050604080516020601f89018190048102820181019092528781528993509150879087908190840183828082843760009201919091525061266392505050565b505050505050565b60006001600160a01b0382166113785760405162461bcd60e51b815260206004820152602960248201527f4552433732313a2061646472657373207a65726f206973206e6f7420612076616044820152683634b21037bbb732b960b91b6064820152608401610a4b565b506001600160a01b03166000908152600d602052604090205490565b61139c61216d565b6113a660006127ba565b565b600160205260009081526040902080546113c190613bf6565b80601f01602080910402602001604051908101604052809291908181526020018280546113ed90613bf6565b801561143a5780601f1061140f5761010080835404028352916020019161143a565b820191906000526020600020905b81548152906001019060200180831161141d57829003601f168201915b505050505081565b6000546001600160a01b031690565b80516020808301919091206000818152600990925260409091206002015460ff166114b25760405162461bcd60e51b81526020600482015260116024820152701b9bc818dc99591a5d1cc81cdd1bdc9959607a1b6044820152606401610a4b565b6000828060200190518101906114c89190613d7a565b600084815260096020526040812080546001909101549294509092506115049161ffff8216916201000090046001600160a01b0316908561280a565b60008481526009602052604090206001015490915081116115795760405162461bcd60e51b815260206004820152602960248201527f6e6f7420656e6f7567682067617320746f2070726f6365737320637265646974604482015268103a3930b739b332b960b91b6064820152608401610a4b565b815181036115f05760008381526009602052604080822080546001600160b01b031916815560018101929092556002909101805460ff19169055517fd7be02b8dd0d27bd0517a9cb4d7469ce27df4313821ae5ec1ff69acc594ba233906115e39085815260200190565b60405180910390a1611684565b60408051608081018252600085815260096020818152848320805461ffff80821687526001600160a01b03620100008084048216868a019081529989018b8152600160608b01818152998f90529790965297519851169096026001600160b01b03199091169690951695909517939093178455915191830191909155516002909101805491151560ff199092169190911790555b50505050565b6060600b8054610c3a90613bf6565b6116a161216d565b600081116116fc5760405162461bcd60e51b815260206004820152602260248201527f647374436861696e4964546f42617463684c696d6974206d757374206265203e604482015261020360f41b6064820152608401610a4b565b61ffff8216600081815260076020908152604091829020849055815192835282018390527f7315f7654d594ead24a30160ed9ba2d23247f543016b918343591e93d7afdb6d91015b60405180910390a15050565b61ffff811660009081526001602052604081208054606092919061177390613bf6565b80601f016020809104026020016040519081016040528092919081815260200182805461179f90613bf6565b80156117ec5780601f106117c1576101008083540402835291602001916117ec565b820191906000526020600020905b8154815290600101906020018083116117cf57829003601f168201915b5050505050905080516000036118445760405162461bcd60e51b815260206004820152601d60248201527f4c7a4170703a206e6f20747275737465642070617468207265636f72640000006044820152606401610a4b565b61185f6000601483516118579190613e34565b839190612856565b9392505050565b611871338383612963565b5050565b61187d61216d565b81813060405160200161189293929190613e47565b60408051601f1981840301815291815261ffff85166000908152600160205220906118bd9082613ec3565b507f8c0400cfe2d1199b1a725c78960bcc2a344d869b80590d0f2bd005db15a572ce8383836040516118f193929190613ce5565b60405180910390a1505050565b610bff87878787878787612474565b6119173383612279565b6119335760405162461bcd60e51b8152600401610a4b90613c6f565b61168484848484612a2d565b61194761216d565b600480546001600160a01b0319166001600160a01b0383161790556040517f5db758e995a17ec1ad84bdef7e8c3293a0bd6179bcce400dff5d4c3d87db726b90610f1790839061346e565b606061199d82612a60565b611a015760405162461bcd60e51b815260206004820152602f60248201527f4552433732314d657461646174613a2055524920717565727920666f72206e6f60448201526e3732bc34b9ba32b73a103a37b5b2b760891b6064820152608401610a4b565b601282604051602001611a15929190613f7c565b6040516020818303038152906040529050919050565b611a3361216d565b6040516332fb62e760e21b81526001600160a01b037f0000000000000000000000000000000000000000000000000000000000000000169063cbed8b9c90611a879088908890889088908890600401613ff7565b600060405180830381600087803b158015611aa157600080fd5b505af1158015611ab5573d6000803e3d6000fd5b505050505050505050565b611ac861216d565b60008111611b245760405162461bcd60e51b815260206004820152602360248201527f647374436861696e4964546f5472616e73666572476173206d7573742062652060448201526203e20360ec1b6064820152608401610a4b565b61ffff8216600081815260086020908152604091829020849055815192835282018390527fc46df2983228ac2d9754e94a0d565e6671665dc8ad38602bc8e544f0685a29fb9101611744565b61ffff86166000908152600560205260408082209051611b939088908890613c30565b90815260408051602092819003830190206001600160401b03871660009081529252902054905080611c135760405162461bcd60e51b815260206004820152602360248201527f4e6f6e626c6f636b696e674c7a4170703a206e6f2073746f726564206d65737360448201526261676560e81b6064820152608401610a4b565b808383604051611c24929190613c30565b604051809103902014611c835760405162461bcd60e51b815260206004820152602160248201527f4e6f6e626c6f636b696e674c7a4170703a20696e76616c6964207061796c6f616044820152601960fa1b6064820152608401610a4b565b61ffff87166000908152600560205260408082209051611ca69089908990613c30565b90815260408051602092819003830181206001600160401b038916600090815290845282902093909355601f88018290048202830182019052868252611d3e918991899089908190840183828082843760009201919091525050604080516020601f8a018190048102820181019092528881528a93509150889088908190840183828082843760009201919091525061266392505050565b7fc264d91f3adc5588250e1551f547752ca0cfa8f6b530d243b9f9f4cab10ea8e58787878785604051611d75959493929190614030565b60405180910390a150505050505050565b611d8e61216d565b60008111611dd65760405162461bcd60e51b81526020600482015260156024820152744c7a4170703a20696e76616c6964206d696e47617360581b6044820152606401610a4b565b61ffff83811660008181526002602090815260408083209487168084529482529182902085905581519283528201929092529081018290527f9d5c7c0b934da8fefa9c7760c98383778a12dfbfc0c3b3106518f43fb9508ac0906060016118f1565b6001600160a01b039182166000908152600f6020908152604080832093909416825291909152205460ff1690565b611e6e61216d565b61ffff83166000908152600160205260409020611e8c82848361406b565b507ffa41487ad5d6728f0b19276fa1eddc16558578f5109fc39d2dc33c3230470dab8383836040516118f193929190613ce5565b60008060008686604051602001611ed892919061415f565b60408051601f198184030181529082905263040a7bb160e41b825291506001600160a01b037f000000000000000000000000000000000000000000000000000000000000000016906340a7bb1090611f3c908b90309086908b908b9060040161418d565b6040805180830381865afa158015611f58573d6000803e3d6000fd5b505050506040513d601f19601f82011682018060405250810190611f7c91906141e1565b92509250509550959350505050565b611f9361216d565b6001600160a01b038116611ff85760405162461bcd60e51b815260206004820152602660248201527f4f776e61626c653a206e6577206f776e657220697320746865207a65726f206160448201526564647265737360d01b6064820152608401610a4b565b61101f816127ba565b604051633d7b2f6f60e21b815261ffff808616600483015284166024820152306044820152606481018290526060907f00000000000000000000000000000000000000000000000000000000000000006001600160a01b03169063f5ecbdbc90608401600060405180830381865afa158015612081573d6000803e3d6000fd5b505050506040513d6000823e601f3d908101601f191682016040526120a99190810190614205565b90505b949350505050565b6000806121175a60966366ad5c8a60e01b898989896040516024016120dc9493929190614239565b60408051601f198184030181529190526020810180516001600160e01b03166001600160e01b03199093169290921790915230929190612a7d565b9150915081611306576113068686868685612b07565b60006001600160e01b031982166380ac58cd60e01b148061215e57506001600160e01b03198216635b5e139f60e01b145b80610c255750610c2582612ba4565b33612176611442565b6001600160a01b0316146113a65760405162461bcd60e51b815260206004820181905260248201527f4f776e61626c653a2063616c6c6572206973206e6f7420746865206f776e65726044820152606401610a4b565b6121d581612a60565b61101f5760405162461bcd60e51b8152600401610a4b90613d03565b6000818152600e6020526040902080546001600160a01b0319166001600160a01b0384169081179091558190612226826111fe565b6001600160a01b03167f8c5be1e5ebec7d5bd14f71427d1e84f3dd0314c0f7b2291e5b200ac8c7c3b92560405160405180910390a45050565b611871828260405180602001604052806000815250612bd9565b600080612285836111fe565b9050806001600160a01b0316846001600160a01b031614806122ac57506122ac8185611e38565b806120ac5750836001600160a01b03166122c584610d46565b6001600160a01b031614949350505050565b826001600160a01b03166122ea826111fe565b6001600160a01b0316146123105760405162461bcd60e51b8152600401610a4b90614277565b6001600160a01b0382166123725760405162461bcd60e51b8152602060048201526024808201527f4552433732313a207472616e7366657220746f20746865207a65726f206164646044820152637265737360e01b6064820152608401610a4b565b826001600160a01b0316612385826111fe565b6001600160a01b0316146123ab5760405162461bcd60e51b8152600401610a4b90614277565b6000818152600e6020908152604080832080546001600160a01b03199081169091556001600160a01b03878116808652600d8552838620805460001901905590871680865283862080546001019055868652600c90945282852080549092168417909155905184936000805160206144e083398151915291a4505050565b60408051600180825281830190925260609160009190602080830190803683370190505090508281600081518110612463576124636142bc565b602090810291909101015292915050565b60008451116124bb5760405162461bcd60e51b8152602060048201526013602482015272746f6b656e4964735b5d20697320656d70747960681b6044820152606401610a4b565b8351600114806124df575061ffff8616600090815260076020526040902054845111155b6125365760405162461bcd60e51b815260206004820152602260248201527f62617463682073697a65206578636565647320647374206261746368206c696d6044820152611a5d60f21b6064820152608401610a4b565b60005b84518110156125795761256788888888858151811061255a5761255a6142bc565b6020026020010151612c0c565b8061257181613c56565b915050612539565b506000858560405160200161258f92919061415f565b60405160208183030381529060405290506125d4876001848851600860008d61ffff1661ffff168152602001908152602001600020546125cf91906142d2565b612cf7565b6125e2878286868634612dd1565b856040516125f091906142e9565b6040518091039020886001600160a01b03168861ffff167fe1b87c47fdeb4f9cbadbca9df3af7aba453bb6e501075d0440d88125b711522a886040516126369190614305565b60405180910390a45050505050505050565b6000908152600c60205260409020546001600160a01b031690565b6000808280602001905181019061267a9190613d7a565b6014820151919350915060006126928883838661280a565b905082518110156127665784516020808701919091206040805160808101825261ffff808d1682526001600160a01b0380881683870190815283850188815260016060860181815260008981526009909a529887902095518654935190941662010000026001600160b01b03199093169390941692909217178355519082015592516002909301805493151560ff199094169390931790925590517f10e0b70d256bccc84b7027506978bd8b68984a870788b93b479def144c839ad79061275c9083908990614318565b60405180910390a1505b816001600160a01b03168760405161277e91906142e9565b60405180910390208961ffff167f5b821db8a46f8ecbe1941ba2f51cfeea9643268b56631f70d45e2a745d990265866040516126369190614305565b600080546001600160a01b038381166001600160a01b0319831681178455604051919092169283917f8be0079c531659141344cd1fd0a4f28419497f9722a3daafe3b4186f6b6457e09190a35050565b6000825b82518110156120a9576006545a106120a9576128448686858481518110612837576128376142bc565b6020026020010151612f76565b8061284e81613c56565b91505061280e565b60608161286481601f614331565b10156128a35760405162461bcd60e51b815260206004820152600e60248201526d736c6963655f6f766572666c6f7760901b6044820152606401610a4b565b6128ad8284614331565b845110156128f15760405162461bcd60e51b8152602060048201526011602482015270736c6963655f6f75744f66426f756e647360781b6044820152606401610a4b565b606082158015612910576040519150600082526020820160405261295a565b6040519150601f8416801560200281840101858101878315602002848b0101015b81831015612949578051835260209283019201612931565b5050858452601f01601f1916604052505b50949350505050565b816001600160a01b0316836001600160a01b0316036129c05760405162461bcd60e51b815260206004820152601960248201527822a9219b99189d1030b8383937bb32903a379031b0b63632b960391b6044820152606401610a4b565b6001600160a01b038381166000818152600f6020908152604080832094871680845294825291829020805460ff191686151590811790915591519182527f17307eab39ab6107e8899845ad3d59bd9653f200f220920489ca2b5937696c31910160405180910390a3505050565b612a388484846122d7565b612a4484848484612fd6565b6116845760405162461bcd60e51b8152600401610a4b90614344565b600080612a6c83612648565b6001600160a01b0316141592915050565b6000606060008060008661ffff166001600160401b03811115612aa257612aa261352b565b6040519080825280601f01601f191660200182016040528015612acc576020820181803683370190505b50905060008087516020890160008d8df191503d925086831115612aee578692505b828152826000602083013e909890975095505050505050565b8180519060200120600560008761ffff1661ffff16815260200190815260200160002085604051612b3891906142e9565b9081526040805191829003602090810183206001600160401b0388166000908152915220919091557fe183f33de2837795525b4792ca4cd60535bd77c53b7e7030060bfcf5734d6b0c90612b959087908790879087908790614396565b60405180910390a15050505050565b60006001600160e01b031982166322bac5d960e01b1480610c2557506301ffc9a760e01b6001600160e01b0319831614610c25565b612be383836130d4565b612bf06000848484612fd6565b610e7d5760405162461bcd60e51b8152600401610a4b90614344565b612c1533611027565b612c785760405162461bcd60e51b815260206004820152602e60248201527f4f4e46543732313a2073656e642063616c6c6572206973206e6f74206f776e6560448201526d1c881b9bdc88185c1c1c9bdd995960921b6064820152608401610a4b565b836001600160a01b0316612c8b826111fe565b6001600160a01b031614612cec5760405162461bcd60e51b815260206004820152602260248201527f4f4e46543732313a2073656e642066726f6d20696e636f7272656374206f776e60448201526132b960f11b6064820152608401610a4b565b6116848430836122d7565b6000612d02836131cf565b61ffff808716600090815260026020908152604080832093891683529290529081205491925090612d34908490614331565b905060008111612d835760405162461bcd60e51b815260206004820152601a602482015279131e905c1c0e881b5a5b91d85cd31a5b5a5d081b9bdd081cd95d60321b6044820152606401610a4b565b808210156113065760405162461bcd60e51b815260206004820152601b60248201527a4c7a4170703a20676173206c696d697420697320746f6f206c6f7760281b6044820152606401610a4b565b61ffff861660009081526001602052604081208054612def90613bf6565b80601f0160208091040260200160405190810160405280929190818152602001828054612e1b90613bf6565b8015612e685780601f10612e3d57610100808354040283529160200191612e68565b820191906000526020600020905b815481529060010190602001808311612e4b57829003601f168201915b505050505090508051600003612ed95760405162461bcd60e51b815260206004820152603060248201527f4c7a4170703a2064657374696e6174696f6e20636861696e206973206e6f742060448201526f61207472757374656420736f7572636560801b6064820152608401610a4b565b612ee487875161322a565b60405162c5803160e81b81526001600160a01b037f0000000000000000000000000000000000000000000000000000000000000000169063c5803100908490612f3b908b9086908c908c908c908c906004016143e8565b6000604051808303818588803b158015612f5457600080fd5b505af1158015612f68573d6000803e3d6000fd5b505050505050505050505050565b612f7f81612a60565b1580612fab5750612f8f81612a60565b8015612fab575030612fa0826111fe565b6001600160a01b0316145b612fb457600080fd5b612fbd81612a60565b612fcb57610e7d828261225f565b610e7d3083836122d7565b60006001600160a01b0384163b156130cc57604051630a85bd0160e11b81526001600160a01b0385169063150b7a029061301a90339089908890889060040161444f565b6020604051808303816000875af1925050508015613055575060408051601f3d908101601f191682019092526130529181019061448c565b60015b6130b2573d808015613083576040519150601f19603f3d011682016040523d82523d6000602084013e613088565b606091505b5080516000036130aa5760405162461bcd60e51b8152600401610a4b90614344565b805181602001fd5b6001600160e01b031916630a85bd0160e11b1490506120ac565b5060016120ac565b6001600160a01b03821661312a5760405162461bcd60e51b815260206004820181905260248201527f4552433732313a206d696e7420746f20746865207a65726f20616464726573736044820152606401610a4b565b61313381612a60565b156131505760405162461bcd60e51b8152600401610a4b906144a9565b61315981612a60565b156131765760405162461bcd60e51b8152600401610a4b906144a9565b6001600160a01b0382166000818152600d6020908152604080832080546001019055848352600c90915280822080546001600160a01b0319168417905551839291906000805160206144e0833981519152908290a45050565b60006022825110156132225760405162461bcd60e51b815260206004820152601c60248201527b4c7a4170703a20696e76616c69642061646170746572506172616d7360201b6044820152606401610a4b565b506022015190565b61ffff82166000908152600360205260408120549081900361324b57506127105b80821115610e7d5760405162461bcd60e51b815260206004820181905260248201527f4c7a4170703a207061796c6f61642073697a6520697320746f6f206c617267656044820152606401610a4b565b803561ffff811681146132ad57600080fd5b919050565b60008083601f8401126132c457600080fd5b5081356001600160401b038111156132db57600080fd5b6020830191508360208285010111156132f357600080fd5b9250929050565b80356001600160401b03811681146132ad57600080fd5b6000806000806000806080878903121561332a57600080fd5b6133338761329b565b955060208701356001600160401b038082111561334f57600080fd5b61335b8a838b016132b2565b909750955085915061336f60408a016132fa565b9450606089013591508082111561338557600080fd5b5061339289828a016132b2565b979a9699509497509295939492505050565b6001600160e01b03198116811461101f57600080fd5b6000602082840312156133cc57600080fd5b813561185f816133a4565b60005b838110156133f25781810151838201526020016133da565b50506000910152565b600081518084526134138160208601602086016133d7565b601f01601f19169290920160200192915050565b60208152600061185f60208301846133fb565b60006020828403121561344c57600080fd5b61185f8261329b565b60006020828403121561346757600080fd5b5035919050565b6001600160a01b0391909116815260200190565b6001600160a01b038116811461101f57600080fd5b80356132ad81613482565b600080604083850312156134b557600080fd5b82356134c081613482565b946020939093013593505050565b600080604083850312156134e157600080fd5b6134c08361329b565b6000806000606084860312156134ff57600080fd5b833561350a81613482565b9250602084013561351a81613482565b929592945050506040919091013590565b634e487b7160e01b600052604160045260246000fd5b604051601f8201601f191681016001600160401b03811182821017156135695761356961352b565b604052919050565b60006001600160401b0382111561358a5761358a61352b565b50601f01601f191660200190565b600082601f8301126135a957600080fd5b81356135bc6135b782613571565b613541565b8181528460208386010111156135d157600080fd5b816020850160208301376000918101602001919091529392505050565b803580151581146132ad57600080fd5b600080600080600060a0868803121561361657600080fd5b61361f8661329b565b945060208601356001600160401b038082111561363b57600080fd5b61364789838a01613598565b95506040880135945061365c606089016135ee565b9350608088013591508082111561367257600080fd5b5061367f88828901613598565b9150509295509295909350565b6000806000604084860312156136a157600080fd5b6136aa8461329b565b925060208401356001600160401b038111156136c557600080fd5b6136d1868287016132b2565b9497909650939450505050565b600080600080600080600060e0888a0312156136f957600080fd5b873561370481613482565b96506137126020890161329b565b955060408801356001600160401b038082111561372e57600080fd5b61373a8b838c01613598565b965060608a0135955060808a0135915061375382613482565b90935060a08901359061376582613482565b90925060c0890135908082111561377b57600080fd5b506137888a828b01613598565b91505092959891949750929550565b6000806000606084860312156137ac57600080fd5b6137b58461329b565b925060208401356001600160401b038111156137d057600080fd5b6137dc86828701613598565b9250506137eb604085016132fa565b90509250925092565b60006020828403121561380657600080fd5b813561185f81613482565b6000806040838503121561382457600080fd5b61382d8361329b565b915061383b6020840161329b565b90509250929050565b60006020828403121561385657600080fd5b81356001600160401b0381111561386c57600080fd5b6120ac84828501613598565b6000806040838503121561388b57600080fd5b823561389681613482565b915061383b602084016135ee565b60006001600160401b038211156138bd576138bd61352b565b5060051b60200190565b600082601f8301126138d857600080fd5b813560206138e86135b7836138a4565b82815260059290921b8401810191818101908684111561390757600080fd5b8286015b84811015613922578035835291830191830161390b565b509695505050505050565b600080600080600080600060e0888a03121561394857600080fd5b873561395381613482565b96506139616020890161329b565b955060408801356001600160401b038082111561397d57600080fd5b6139898b838c01613598565b965060608a013591508082111561399f57600080fd5b6139ab8b838c016138c7565b955060808a013591506139bd82613482565b8194506139cc60a08b01613497565b935060c08a013591508082111561377b57600080fd5b600080600080608085870312156139f857600080fd5b8435613a0381613482565b93506020850135613a1381613482565b92506040850135915060608501356001600160401b03811115613a3557600080fd5b613a4187828801613598565b91505092959194509250565b600080600080600060808688031215613a6557600080fd5b613a6e8661329b565b9450613a7c6020870161329b565b93506040860135925060608601356001600160401b03811115613a9e57600080fd5b613aaa888289016132b2565b969995985093965092949392505050565b600080600060608486031215613ad057600080fd5b613ad98461329b565b9250613ae76020850161329b565b9150604084013590509250925092565b60008060408385031215613b0a57600080fd5b8235613b1581613482565b91506020830135613b2581613482565b809150509250929050565b600080600080600060a08688031215613b4857600080fd5b613b518661329b565b945060208601356001600160401b0380821115613b6d57600080fd5b613b7989838a01613598565b95506040880135915080821115613b8f57600080fd5b613b9b89838a016138c7565b945061365c606089016135ee565b60008060008060808587031215613bbf57600080fd5b613bc88561329b565b9350613bd66020860161329b565b92506040850135613be681613482565b9396929550929360600135925050565b600181811c90821680613c0a57607f821691505b602082108103613c2a57634e487b7160e01b600052602260045260246000fd5b50919050565b8183823760009101908152919050565b634e487b7160e01b600052601160045260246000fd5b600060018201613c6857613c68613c40565b5060010190565b6020808252602d908201527f4552433732313a2063616c6c6572206973206e6f7420746f6b656e206f776e6560408201526c1c881bdc88185c1c1c9bdd9959609a1b606082015260800190565b81835281816020850137506000828201602090810191909152601f909101601f19169091010190565b61ffff841681526040602082015260006120a9604083018486613cbc565b602080825260189082015277115490cdcc8c4e881a5b9d985b1a59081d1bdad95b88125160421b604082015260600190565b600082601f830112613d4657600080fd5b8151613d546135b782613571565b818152846020838601011115613d6957600080fd5b6120ac8260208301602087016133d7565b60008060408385031215613d8d57600080fd5b82516001600160401b0380821115613da457600080fd5b613db086838701613d35565b9350602091508185015181811115613dc757600080fd5b85019050601f81018613613dda57600080fd5b8051613de86135b7826138a4565b81815260059190911b82018301908381019088831115613e0757600080fd5b928401925b82841015613e2557835182529284019290840190613e0c565b80955050505050509250929050565b81810381811115610c2557610c25613c40565b8284823760609190911b6001600160601b0319169101908152601401919050565b601f821115610e7d57600081815260208120601f850160051c81016020861015613e8f5750805b601f850160051c820191505b8181101561130657828155600101613e9b565b600019600383901b1c191660019190911b1790565b81516001600160401b03811115613edc57613edc61352b565b613ef081613eea8454613bf6565b84613e68565b602080601f831160018114613f1f5760008415613f0d5750858301515b613f178582613eae565b865550611306565b600085815260208120601f198616915b82811015613f4e57888601518255948401946001909101908401613f2f565b5085821015613f6c5787850151600019600388901b60f8161c191681555b5050505050600190811b01905550565b6000808454613f8a81613bf6565b60018281168015613fa25760018114613fb757613fe6565b60ff1984168752821515830287019450613fe6565b8860005260208060002060005b85811015613fdd5781548a820152908401908201613fc4565b50505082870194505b505050938152602001949350505050565b600061ffff808816835280871660208401525084604083015260806060830152614025608083018486613cbc565b979650505050505050565b61ffff8616815260806020820152600061404e608083018688613cbc565b6001600160401b0394909416604083015250606001529392505050565b6001600160401b038311156140825761408261352b565b614096836140908354613bf6565b83613e68565b6000601f8411600181146140c457600085156140b25750838201355b6140bc8682613eae565b845550610d3f565b600083815260209020601f19861690835b828110156140f557868501358255602094850194600190920191016140d5565b50868210156141125760001960f88860031b161c19848701351681555b505060018560011b0183555050505050565b600081518084526020808501945080840160005b8381101561415457815187529582019590820190600101614138565b509495945050505050565b60408152600061417260408301856133fb565b82810360208401526141848185614124565b95945050505050565b61ffff861681526001600160a01b038516602082015260a0604082018190526000906141bb908301866133fb565b841515606084015282810360808401526141d581856133fb565b98975050505050505050565b600080604083850312156141f457600080fd5b505080516020909101519092909150565b60006020828403121561421757600080fd5b81516001600160401b0381111561422d57600080fd5b6120ac84828501613d35565b61ffff8516815260806020820152600061425660808301866133fb565b6001600160401b0385166040840152828103606084015261402581856133fb565b60208082526025908201527f4552433732313a207472616e736665722066726f6d20696e636f72726563742060408201526437bbb732b960d91b606082015260800190565b634e487b7160e01b600052603260045260246000fd5b8082028115828204841417610c2557610c25613c40565b600082516142fb8184602087016133d7565b9190910192915050565b60208152600061185f6020830184614124565b8281526040602082015260006120ac60408301846133fb565b80820180821115610c2557610c25613c40565b60208082526032908201527f4552433732313a207472616e7366657220746f206e6f6e20455243373231526560408201527131b2b4bb32b91034b6b83632b6b2b73a32b960711b606082015260800190565b61ffff8616815260a0602082015260006143b360a08301876133fb565b6001600160401b038616604084015282810360608401526143d481866133fb565b905082810360808401526141d581856133fb565b61ffff8716815260c06020820152600061440560c08301886133fb565b828103604084015261441781886133fb565b6001600160a01b0387811660608601528616608085015283810360a0850152905061444281856133fb565b9998505050505050505050565b6001600160a01b0385811682528416602082015260408101839052608060608201819052600090614482908301846133fb565b9695505050505050565b60006020828403121561449e57600080fd5b815161185f816133a4565b6020808252601c908201527b115490cdcc8c4e881d1bdad95b88185b1c9958591e481b5a5b9d195960221b60408201526060019056feddf252ad1be2c89b69c2b068fc378daa952ba7f163c4a11628f55a4df523b3efa2646970667358221220f4f5bd6c8255775cf0ab67837236e5634d62a44d823759ba52b5b94573e5972464736f6c63430008110033697066733a2f2f516d65536a53696e4870506e6d586d73704d6a776958794e367a533445397a63636172694752336a7863615774712f",
  "devdoc": {
    "kind": "dev",
    "methods": {
      "approve(address,uint256)": {
        "details": "See {IERC721-approve}."
      },
      "balanceOf(address)": {
        "details": "See {IERC721-balanceOf}."
      },
      "estimateSendBatchFee(uint16,bytes,uint256[],bool,bytes)": {
        "details": "estimate send token `_tokenId` to (`_dstChainId`, `_toAddress`) _dstChainId - L0 defined chain id to send tokens too _toAddress - dynamic bytes array which contains the address to whom you are sending tokens to on the dstChain _tokenIds[] - token Ids to transfer _useZro - indicates to use zro to pay L0 fees _adapterParams - flexible bytes array to indicate messaging adapter services in L0"
      },
      "estimateSendFee(uint16,bytes,uint256,bool,bytes)": {
        "details": "estimate send token `_tokenId` to (`_dstChainId`, `_toAddress`) _dstChainId - L0 defined chain id to send tokens too _toAddress - dynamic bytes array which contains the address to whom you are sending tokens to on the dstChain _tokenId - token Id to transfer _useZro - indicates to use zro to pay L0 fees _adapterParams - flexible bytes array to indicate messaging adapter services in L0"
      },
      "getApproved(uint256)": {
        "details": "See {IERC721-getApproved}."
      },
      "isApprovedForAll(address,address)": {
        "details": "See {IERC721-isApprovedForAll}."
      },
      "name()": {
        "details": "See {IERC721Metadata-name}."
      },
      "owner()": {
        "details": "Returns the address of the current owner."
      },
      "ownerOf(uint256)": {
        "details": "See {IERC721-ownerOf}."
      },
      "renounceOwnership()": {
        "details": "Leaves the contract without owner. It will not be possible to call `onlyOwner` functions. Can only be called by the current owner. NOTE: Renouncing ownership will leave the contract without an owner, thereby disabling any functionality that is only available to the owner."
      },
      "safeTransferFrom(address,address,uint256)": {
        "details": "See {IERC721-safeTransferFrom}."
      },
      "safeTransferFrom(address,address,uint256,bytes)": {
        "details": "See {IERC721-safeTransferFrom}."
      },
      "sendBatchFrom(address,uint16,bytes,uint256[],address,address,bytes)": {
        "details": "send tokens `_tokenIds[]` to (`_dstChainId`, `_toAddress`) from `_from` `_toAddress` can be any size depending on the `dstChainId`. `_zroPaymentAddress` set to address(0x0) if not paying in ZRO (LayerZero Token) `_adapterParams` is a flexible bytes array to indicate messaging adapter services"
      },
      "sendFrom(address,uint16,bytes,uint256,address,address,bytes)": {
        "details": "send token `_tokenId` to (`_dstChainId`, `_toAddress`) from `_from` `_toAddress` can be any size depending on the `dstChainId`. `_zroPaymentAddress` set to address(0x0) if not paying in ZRO (LayerZero Token) `_adapterParams` is a flexible bytes array to indicate messaging adapter services"
      },
      "setApprovalForAll(address,bool)": {
        "details": "See {IERC721-setApprovalForAll}."
      },
      "symbol()": {
        "details": "See {IERC721Metadata-symbol}."
      },
      "tokenURI(uint256)": {
        "details": "See {IERC721Metadata-tokenURI}."
      },
      "transferFrom(address,address,uint256)": {
        "details": "See {IERC721-transferFrom}."
      },
      "transferOwnership(address)": {
        "details": "Transfers ownership of the contract to a new account (`newOwner`). Can only be called by the current owner."
      }
    },
    "version": 1
  },
  "userdoc": {
    "kind": "user",
    "methods": {
      "mint()": {
        "notice": "Mint your ONFT"
      }
    },
    "notice": "Ethereum chainId: 101 endpoint: 0x66A71Dcef29A0fFBDBE3c6a460a3B5BC225Cd675 BNB Chain chainId: 102 endpoint: 0x3c2269811836af69497E5F486A85D7316753cf62 Polygon chainId: 109 endpoint: 0x3c2269811836af69497E5F486A85D7316753cf62 Goerli (Ethereum Testnet) chainId: 10121 endpoint: 0xbfD2135BFfbb0B5378b56643c2Df8a87552Bfa23 BNB Chain (Testnet) chainId: 10102 endpoint: 0x6Fcb97553D41516Cb228ac03FdC8B9a0a9df04A1 Mumbai (Polygon Testnet) chainId: 10109 endpoint: 0xf69186dfBa60DdB133E91E9A4B5673624293d8F8",
    "version": 1
  },
  "storageLayout": {
    "storage": [
      {
        "astId": 12185,
        "contract": "contracts/mocks/MockErc721CrossChain.sol:MockErc721CrossChain",
        "label": "_owner",
        "offset": 0,
        "slot": "0",
        "type": "t_address"
      },
      {
        "astId": 37221,
        "contract": "contracts/mocks/MockErc721CrossChain.sol:MockErc721CrossChain",
        "label": "trustedRemoteLookup",
        "offset": 0,
        "slot": "1",
        "type": "t_mapping(t_uint16,t_bytes_storage)"
      },
      {
        "astId": 37227,
        "contract": "contracts/mocks/MockErc721CrossChain.sol:MockErc721CrossChain",
        "label": "minDstGasLookup",
        "offset": 0,
        "slot": "2",
        "type": "t_mapping(t_uint16,t_mapping(t_uint16,t_uint256))"
      },
      {
        "astId": 37231,
        "contract": "contracts/mocks/MockErc721CrossChain.sol:MockErc721CrossChain",
        "label": "payloadSizeLimitLookup",
        "offset": 0,
        "slot": "3",
        "type": "t_mapping(t_uint16,t_uint256)"
      },
      {
        "astId": 37233,
        "contract": "contracts/mocks/MockErc721CrossChain.sol:MockErc721CrossChain",
        "label": "precrime",
        "offset": 0,
        "slot": "4",
        "type": "t_address"
      },
      {
        "astId": 37770,
        "contract": "contracts/mocks/MockErc721CrossChain.sol:MockErc721CrossChain",
        "label": "failedMessages",
        "offset": 0,
        "slot": "5",
        "type": "t_mapping(t_uint16,t_mapping(t_bytes_memory_ptr,t_mapping(t_uint64,t_bytes32)))"
      },
      {
        "astId": 46766,
        "contract": "contracts/mocks/MockErc721CrossChain.sol:MockErc721CrossChain",
        "label": "minGasToTransferAndStore",
        "offset": 0,
        "slot": "6",
        "type": "t_uint256"
      },
      {
        "astId": 46770,
        "contract": "contracts/mocks/MockErc721CrossChain.sol:MockErc721CrossChain",
        "label": "dstChainIdToBatchLimit",
        "offset": 0,
        "slot": "7",
        "type": "t_mapping(t_uint16,t_uint256)"
      },
      {
        "astId": 46774,
        "contract": "contracts/mocks/MockErc721CrossChain.sol:MockErc721CrossChain",
        "label": "dstChainIdToTransferGas",
        "offset": 0,
        "slot": "8",
        "type": "t_mapping(t_uint16,t_uint256)"
      },
      {
        "astId": 46779,
        "contract": "contracts/mocks/MockErc721CrossChain.sol:MockErc721CrossChain",
        "label": "storedCredits",
        "offset": 0,
        "slot": "9",
        "type": "t_mapping(t_bytes32,t_struct(StoredCredit)46764_storage)"
      },
      {
        "astId": 16134,
        "contract": "contracts/mocks/MockErc721CrossChain.sol:MockErc721CrossChain",
        "label": "_name",
        "offset": 0,
        "slot": "10",
        "type": "t_string_storage"
      },
      {
        "astId": 16136,
        "contract": "contracts/mocks/MockErc721CrossChain.sol:MockErc721CrossChain",
        "label": "_symbol",
        "offset": 0,
        "slot": "11",
        "type": "t_string_storage"
      },
      {
        "astId": 16140,
        "contract": "contracts/mocks/MockErc721CrossChain.sol:MockErc721CrossChain",
        "label": "_owners",
        "offset": 0,
        "slot": "12",
        "type": "t_mapping(t_uint256,t_address)"
      },
      {
        "astId": 16144,
        "contract": "contracts/mocks/MockErc721CrossChain.sol:MockErc721CrossChain",
        "label": "_balances",
        "offset": 0,
        "slot": "13",
        "type": "t_mapping(t_address,t_uint256)"
      },
      {
        "astId": 16148,
        "contract": "contracts/mocks/MockErc721CrossChain.sol:MockErc721CrossChain",
        "label": "_tokenApprovals",
        "offset": 0,
        "slot": "14",
        "type": "t_mapping(t_uint256,t_address)"
      },
      {
        "astId": 16154,
        "contract": "contracts/mocks/MockErc721CrossChain.sol:MockErc721CrossChain",
        "label": "_operatorApprovals",
        "offset": 0,
        "slot": "15",
        "type": "t_mapping(t_address,t_mapping(t_address,t_bool))"
      },
      {
        "astId": 49034,
        "contract": "contracts/mocks/MockErc721CrossChain.sol:MockErc721CrossChain",
        "label": "nextMintId",
        "offset": 0,
        "slot": "16",
        "type": "t_uint256"
      },
      {
        "astId": 49036,
        "contract": "contracts/mocks/MockErc721CrossChain.sol:MockErc721CrossChain",
        "label": "maxMintId",
        "offset": 0,
        "slot": "17",
        "type": "t_uint256"
      },
      {
        "astId": 53747,
        "contract": "contracts/mocks/MockErc721CrossChain.sol:MockErc721CrossChain",
        "label": "baseURI",
        "offset": 0,
        "slot": "18",
        "type": "t_string_storage"
      }
    ],
    "types": {
      "t_address": {
        "encoding": "inplace",
        "label": "address",
        "numberOfBytes": "20"
      },
      "t_bool": {
        "encoding": "inplace",
        "label": "bool",
        "numberOfBytes": "1"
      },
      "t_bytes32": {
        "encoding": "inplace",
        "label": "bytes32",
        "numberOfBytes": "32"
      },
      "t_bytes_memory_ptr": {
        "encoding": "bytes",
        "label": "bytes",
        "numberOfBytes": "32"
      },
      "t_bytes_storage": {
        "encoding": "bytes",
        "label": "bytes",
        "numberOfBytes": "32"
      },
      "t_mapping(t_address,t_bool)": {
        "encoding": "mapping",
        "key": "t_address",
        "label": "mapping(address => bool)",
        "numberOfBytes": "32",
        "value": "t_bool"
      },
      "t_mapping(t_address,t_mapping(t_address,t_bool))": {
        "encoding": "mapping",
        "key": "t_address",
        "label": "mapping(address => mapping(address => bool))",
        "numberOfBytes": "32",
        "value": "t_mapping(t_address,t_bool)"
      },
      "t_mapping(t_address,t_uint256)": {
        "encoding": "mapping",
        "key": "t_address",
        "label": "mapping(address => uint256)",
        "numberOfBytes": "32",
        "value": "t_uint256"
      },
      "t_mapping(t_bytes32,t_struct(StoredCredit)46764_storage)": {
        "encoding": "mapping",
        "key": "t_bytes32",
        "label": "mapping(bytes32 => struct ONFT721Core.StoredCredit)",
        "numberOfBytes": "32",
        "value": "t_struct(StoredCredit)46764_storage"
      },
      "t_mapping(t_bytes_memory_ptr,t_mapping(t_uint64,t_bytes32))": {
        "encoding": "mapping",
        "key": "t_bytes_memory_ptr",
        "label": "mapping(bytes => mapping(uint64 => bytes32))",
        "numberOfBytes": "32",
        "value": "t_mapping(t_uint64,t_bytes32)"
      },
      "t_mapping(t_uint16,t_bytes_storage)": {
        "encoding": "mapping",
        "key": "t_uint16",
        "label": "mapping(uint16 => bytes)",
        "numberOfBytes": "32",
        "value": "t_bytes_storage"
      },
      "t_mapping(t_uint16,t_mapping(t_bytes_memory_ptr,t_mapping(t_uint64,t_bytes32)))": {
        "encoding": "mapping",
        "key": "t_uint16",
        "label": "mapping(uint16 => mapping(bytes => mapping(uint64 => bytes32)))",
        "numberOfBytes": "32",
        "value": "t_mapping(t_bytes_memory_ptr,t_mapping(t_uint64,t_bytes32))"
      },
      "t_mapping(t_uint16,t_mapping(t_uint16,t_uint256))": {
        "encoding": "mapping",
        "key": "t_uint16",
        "label": "mapping(uint16 => mapping(uint16 => uint256))",
        "numberOfBytes": "32",
        "value": "t_mapping(t_uint16,t_uint256)"
      },
      "t_mapping(t_uint16,t_uint256)": {
        "encoding": "mapping",
        "key": "t_uint16",
        "label": "mapping(uint16 => uint256)",
        "numberOfBytes": "32",
        "value": "t_uint256"
      },
      "t_mapping(t_uint256,t_address)": {
        "encoding": "mapping",
        "key": "t_uint256",
        "label": "mapping(uint256 => address)",
        "numberOfBytes": "32",
        "value": "t_address"
      },
      "t_mapping(t_uint64,t_bytes32)": {
        "encoding": "mapping",
        "key": "t_uint64",
        "label": "mapping(uint64 => bytes32)",
        "numberOfBytes": "32",
        "value": "t_bytes32"
      },
      "t_string_storage": {
        "encoding": "bytes",
        "label": "string",
        "numberOfBytes": "32"
      },
      "t_struct(StoredCredit)46764_storage": {
        "encoding": "inplace",
        "label": "struct ONFT721Core.StoredCredit",
        "members": [
          {
            "astId": 46757,
            "contract": "contracts/mocks/MockErc721CrossChain.sol:MockErc721CrossChain",
            "label": "srcChainId",
            "offset": 0,
            "slot": "0",
            "type": "t_uint16"
          },
          {
            "astId": 46759,
            "contract": "contracts/mocks/MockErc721CrossChain.sol:MockErc721CrossChain",
            "label": "toAddress",
            "offset": 2,
            "slot": "0",
            "type": "t_address"
          },
          {
            "astId": 46761,
            "contract": "contracts/mocks/MockErc721CrossChain.sol:MockErc721CrossChain",
            "label": "index",
            "offset": 0,
            "slot": "1",
            "type": "t_uint256"
          },
          {
            "astId": 46763,
            "contract": "contracts/mocks/MockErc721CrossChain.sol:MockErc721CrossChain",
            "label": "creditsRemain",
            "offset": 0,
            "slot": "2",
            "type": "t_bool"
          }
        ],
        "numberOfBytes": "96"
      },
      "t_uint16": {
        "encoding": "inplace",
        "label": "uint16",
        "numberOfBytes": "2"
      },
      "t_uint256": {
        "encoding": "inplace",
        "label": "uint256",
        "numberOfBytes": "32"
      },
      "t_uint64": {
        "encoding": "inplace",
        "label": "uint64",
        "numberOfBytes": "8"
      }
    }
  }
}