{
  "address": "0x1c229165Ba6B07eB19662b66345D90389e323E2B",
  "abi": [
    {
      "inputs": [],
      "name": "AlreadyMinted",
      "type": "error"
    },
    {
      "inputs": [],
      "name": "BadAccessControlSingleton",
      "type": "error"
    },
    {
      "inputs": [],
      "name": "FutureSignature",
      "type": "error"
    },
    {
      "inputs": [],
      "name": "InvalidSignature",
      "type": "error"
    },
    {
      "inputs": [],
      "name": "InvalidSignatureLength",
      "type": "error"
    },
    {
      "inputs": [],
      "name": "LzAppDestinationChainIsNotTrusted",
      "type": "error"
    },
    {
      "inputs": [],
      "name": "LzAppGasLimitIsTooLow",
      "type": "error"
    },
    {
      "inputs": [],
      "name": "LzAppInvalidAdapterParams",
      "type": "error"
    },
    {
      "inputs": [],
      "name": "LzAppInvalidEndpointCaller",
      "type": "error"
    },
    {
      "inputs": [],
      "name": "LzAppInvalidMinGas",
      "type": "error"
    },
    {
      "inputs": [],
      "name": "LzAppInvalidSourceSendingContract",
      "type": "error"
    },
    {
      "inputs": [],
      "name": "LzAppMinGasLimitNotSet",
      "type": "error"
    },
    {
      "inputs": [],
      "name": "LzAppNoTrustedPathRecord",
      "type": "error"
    },
    {
      "inputs": [],
      "name": "LzAppPayloadTooLarge",
      "type": "error"
    },
    {
      "inputs": [],
      "name": "MaxMintLimit",
      "type": "error"
    },
    {
      "inputs": [],
      "name": "NonPositiveDstChainIdToBatchLimit",
      "type": "error"
    },
    {
      "inputs": [],
      "name": "NonPositiveDstChainIdToTransferGas",
      "type": "error"
    },
    {
      "inputs": [],
      "name": "NonPositiveMinGasToTransferAndStore",
      "type": "error"
    },
    {
      "inputs": [],
      "name": "NonblockingLzAppCallerMustBeLzApp",
      "type": "error"
    },
    {
      "inputs": [],
      "name": "NonblockingLzAppInvalidPayload",
      "type": "error"
    },
    {
      "inputs": [],
      "name": "NonblockingLzAppNoStoredMessage",
      "type": "error"
    },
    {
      "inputs": [],
      "name": "ONFTBatchSizeLimit",
      "type": "error"
    },
    {
      "inputs": [],
      "name": "ONFTNoCreditsStored",
      "type": "error"
    },
    {
      "inputs": [],
      "name": "ONFTNotEnoughGas",
      "type": "error"
    },
    {
      "inputs": [],
      "name": "ONFTNotOwnerOrApproved",
      "type": "error"
    },
    {
      "inputs": [],
      "name": "ONFTSendFromIncorrectOwner",
      "type": "error"
    },
    {
      "inputs": [],
      "name": "OldSignature",
      "type": "error"
    },
    {
      "inputs": [],
      "name": "OnlyAdminError",
      "type": "error"
    },
    {
      "inputs": [],
      "name": "OnlyAlerterError",
      "type": "error"
    },
    {
      "inputs": [],
      "name": "OnlyDAOError",
      "type": "error"
    },
    {
      "inputs": [],
      "name": "OnlyLiquidationAccessError",
      "type": "error"
    },
    {
      "inputs": [],
      "name": "OnlyMintAccessError",
      "type": "error"
    },
    {
      "inputs": [],
      "name": "OnlyRewardAccessError",
      "type": "error"
    },
    {
      "inputs": [],
      "name": "OnlyRoleError",
      "type": "error"
    },
    {
      "inputs": [],
      "name": "OnlyVaultAccessError",
      "type": "error"
    },
    {
      "inputs": [],
      "name": "TokenIdsIsEmpty",
      "type": "error"
    },
    {
      "inputs": [],
      "name": "UnavailableFunctionalityError",
      "type": "error"
    },
    {
      "anonymous": false,
      "inputs": [
        {
          "indexed": true,
          "internalType": "address",
          "name": "owner",
          "type": "address"
        },
        {
          "indexed": true,
          "internalType": "address",
          "name": "approved",
          "type": "address"
        },
        {
          "indexed": true,
          "internalType": "uint256",
          "name": "tokenId",
          "type": "uint256"
        }
      ],
      "name": "Approval",
      "type": "event"
    },
    {
      "anonymous": false,
      "inputs": [
        {
          "indexed": true,
          "internalType": "address",
          "name": "owner",
          "type": "address"
        },
        {
          "indexed": true,
          "internalType": "address",
          "name": "operator",
          "type": "address"
        },
        {
          "indexed": false,
          "internalType": "bool",
          "name": "approved",
          "type": "bool"
        }
      ],
      "name": "ApprovalForAll",
      "type": "event"
    },
    {
      "anonymous": false,
      "inputs": [
        {
          "indexed": false,
          "internalType": "bytes32",
          "name": "_hashedPayload",
          "type": "bytes32"
        }
      ],
      "name": "CreditCleared",
      "type": "event"
    },
    {
      "anonymous": false,
      "inputs": [
        {
          "indexed": false,
          "internalType": "bytes32",
          "name": "_hashedPayload",
          "type": "bytes32"
        },
        {
          "indexed": false,
          "internalType": "bytes",
          "name": "_payload",
          "type": "bytes"
        }
      ],
      "name": "CreditStored",
      "type": "event"
    },
    {
      "anonymous": false,
      "inputs": [
        {
          "indexed": true,
          "internalType": "address",
          "name": "delegator",
          "type": "address"
        },
        {
          "indexed": true,
          "internalType": "address",
          "name": "fromDelegate",
          "type": "address"
        },
        {
          "indexed": true,
          "internalType": "address",
          "name": "toDelegate",
          "type": "address"
        }
      ],
      "name": "DelegateChanged",
      "type": "event"
    },
    {
      "anonymous": false,
      "inputs": [
        {
          "indexed": true,
          "internalType": "address",
          "name": "delegate",
          "type": "address"
        },
        {
          "indexed": false,
          "internalType": "uint256",
          "name": "previousBalance",
          "type": "uint256"
        },
        {
          "indexed": false,
          "internalType": "uint256",
          "name": "newBalance",
          "type": "uint256"
        }
      ],
      "name": "DelegateVotesChanged",
      "type": "event"
    },
    {
      "anonymous": false,
      "inputs": [],
      "name": "EIP712DomainChanged",
      "type": "event"
    },
    {
      "anonymous": false,
      "inputs": [
        {
          "indexed": false,
          "internalType": "uint8",
          "name": "version",
          "type": "uint8"
        }
      ],
      "name": "Initialized",
      "type": "event"
    },
    {
      "anonymous": false,
      "inputs": [
        {
          "indexed": false,
          "internalType": "uint16",
          "name": "_srcChainId",
          "type": "uint16"
        },
        {
          "indexed": false,
          "internalType": "bytes",
          "name": "_srcAddress",
          "type": "bytes"
        },
        {
          "indexed": false,
          "internalType": "uint64",
          "name": "_nonce",
          "type": "uint64"
        },
        {
          "indexed": false,
          "internalType": "bytes",
          "name": "_payload",
          "type": "bytes"
        },
        {
          "indexed": false,
          "internalType": "bytes",
          "name": "_reason",
          "type": "bytes"
        }
      ],
      "name": "MessageFailed",
      "type": "event"
    },
    {
      "anonymous": false,
      "inputs": [
        {
          "indexed": true,
          "internalType": "address",
          "name": "previousOwner",
          "type": "address"
        },
        {
          "indexed": true,
          "internalType": "address",
          "name": "newOwner",
          "type": "address"
        }
      ],
      "name": "OwnershipTransferred",
      "type": "event"
    },
    {
      "anonymous": false,
      "inputs": [
        {
          "indexed": true,
          "internalType": "uint16",
          "name": "_srcChainId",
          "type": "uint16"
        },
        {
          "indexed": true,
          "internalType": "bytes",
          "name": "_srcAddress",
          "type": "bytes"
        },
        {
          "indexed": true,
          "internalType": "address",
          "name": "_toAddress",
          "type": "address"
        },
        {
          "indexed": false,
          "internalType": "uint256[]",
          "name": "_tokenIds",
          "type": "uint256[]"
        }
      ],
      "name": "ReceiveFromChain",
      "type": "event"
    },
    {
      "anonymous": false,
      "inputs": [
        {
          "indexed": false,
          "internalType": "uint16",
          "name": "_srcChainId",
          "type": "uint16"
        },
        {
          "indexed": false,
          "internalType": "bytes",
          "name": "_srcAddress",
          "type": "bytes"
        },
        {
          "indexed": false,
          "internalType": "uint64",
          "name": "_nonce",
          "type": "uint64"
        },
        {
          "indexed": false,
          "internalType": "bytes32",
          "name": "_payloadHash",
          "type": "bytes32"
        }
      ],
      "name": "RetryMessageSuccess",
      "type": "event"
    },
    {
      "anonymous": false,
      "inputs": [
        {
          "indexed": true,
          "internalType": "uint16",
          "name": "_dstChainId",
          "type": "uint16"
        },
        {
          "indexed": true,
          "internalType": "address",
          "name": "_from",
          "type": "address"
        },
        {
          "indexed": true,
          "internalType": "bytes",
          "name": "_toAddress",
          "type": "bytes"
        },
        {
          "indexed": false,
          "internalType": "uint256[]",
          "name": "_tokenIds",
          "type": "uint256[]"
        }
      ],
      "name": "SendToChain",
      "type": "event"
    },
    {
      "anonymous": false,
      "inputs": [
        {
          "indexed": false,
          "internalType": "uint16",
          "name": "_dstChainId",
          "type": "uint16"
        },
        {
          "indexed": false,
          "internalType": "uint16",
          "name": "_type",
          "type": "uint16"
        },
        {
          "indexed": false,
          "internalType": "uint256",
          "name": "_minDstGas",
          "type": "uint256"
        }
      ],
      "name": "SetMinDstGas",
      "type": "event"
    },
    {
      "anonymous": false,
      "inputs": [
        {
          "indexed": false,
          "internalType": "address",
          "name": "precrime",
          "type": "address"
        }
      ],
      "name": "SetPrecrime",
      "type": "event"
    },
    {
      "anonymous": false,
      "inputs": [
        {
          "indexed": false,
          "internalType": "uint16",
          "name": "_remoteChainId",
          "type": "uint16"
        },
        {
          "indexed": false,
          "internalType": "bytes",
          "name": "_path",
          "type": "bytes"
        }
      ],
      "name": "SetTrustedRemote",
      "type": "event"
    },
    {
      "anonymous": false,
      "inputs": [
        {
          "indexed": false,
          "internalType": "uint16",
          "name": "_remoteChainId",
          "type": "uint16"
        },
        {
          "indexed": false,
          "internalType": "bytes",
          "name": "_remoteAddress",
          "type": "bytes"
        }
      ],
      "name": "SetTrustedRemoteAddress",
      "type": "event"
    },
    {
      "anonymous": false,
      "inputs": [
        {
          "indexed": true,
          "internalType": "address",
          "name": "from",
          "type": "address"
        },
        {
          "indexed": true,
          "internalType": "address",
          "name": "to",
          "type": "address"
        },
        {
          "indexed": true,
          "internalType": "uint256",
          "name": "tokenId",
          "type": "uint256"
        }
      ],
      "name": "Transfer",
      "type": "event"
    },
    {
      "inputs": [],
      "name": "ACCESS_CONTROL_SINGLETON",
      "outputs": [
        {
          "internalType": "contract ISuAccessControl",
          "name": "",
          "type": "address"
        }
      ],
      "stateMutability": "view",
      "type": "function"
    },
    {
      "inputs": [],
      "name": "ADMIN_ROLE",
      "outputs": [
        {
          "internalType": "bytes32",
          "name": "",
          "type": "bytes32"
        }
      ],
      "stateMutability": "view",
      "type": "function"
    },
    {
      "inputs": [],
      "name": "ALERTER_ROLE",
      "outputs": [
        {
          "internalType": "bytes32",
          "name": "",
          "type": "bytes32"
        }
      ],
      "stateMutability": "view",
      "type": "function"
    },
    {
      "inputs": [],
      "name": "CLOCK_MODE",
      "outputs": [
        {
          "internalType": "string",
          "name": "",
          "type": "string"
        }
      ],
      "stateMutability": "view",
      "type": "function"
    },
    {
      "inputs": [],
      "name": "DAO_ROLE",
      "outputs": [
        {
          "internalType": "bytes32",
          "name": "",
          "type": "bytes32"
        }
      ],
      "stateMutability": "view",
      "type": "function"
    },
    {
      "inputs": [],
      "name": "DEFAULT_PAYLOAD_SIZE_LIMIT",
      "outputs": [
        {
          "internalType": "uint256",
          "name": "",
          "type": "uint256"
        }
      ],
      "stateMutability": "view",
      "type": "function"
    },
    {
      "inputs": [],
      "name": "DOMAIN_SEPARATOR",
      "outputs": [
        {
          "internalType": "bytes32",
          "name": "",
          "type": "bytes32"
        }
      ],
      "stateMutability": "view",
      "type": "function"
    },
    {
      "inputs": [],
      "name": "FUNCTION_TYPE_SEND",
      "outputs": [
        {
          "internalType": "uint16",
          "name": "",
          "type": "uint16"
        }
      ],
      "stateMutability": "view",
      "type": "function"
    },
    {
      "inputs": [],
      "name": "LIQUIDATION_ACCESS_ROLE",
      "outputs": [
        {
          "internalType": "bytes32",
          "name": "",
          "type": "bytes32"
        }
      ],
      "stateMutability": "view",
      "type": "function"
    },
    {
      "inputs": [],
      "name": "MINT_ACCESS_ROLE",
      "outputs": [
        {
          "internalType": "bytes32",
          "name": "",
          "type": "bytes32"
        }
      ],
      "stateMutability": "view",
      "type": "function"
    },
    {
      "inputs": [],
      "name": "REWARD_ACCESS_ROLE",
      "outputs": [
        {
          "internalType": "bytes32",
          "name": "",
          "type": "bytes32"
        }
      ],
      "stateMutability": "view",
      "type": "function"
    },
    {
      "inputs": [],
      "name": "SYSTEM_ROLE",
      "outputs": [
        {
          "internalType": "bytes32",
          "name": "",
          "type": "bytes32"
        }
      ],
      "stateMutability": "view",
      "type": "function"
    },
    {
      "inputs": [],
      "name": "VAULT_ACCESS_ROLE",
      "outputs": [
        {
          "internalType": "bytes32",
          "name": "",
          "type": "bytes32"
        }
      ],
      "stateMutability": "view",
      "type": "function"
    },
    {
      "inputs": [
        {
          "internalType": "address",
          "name": "to",
          "type": "address"
        },
        {
          "internalType": "uint256",
          "name": "tokenId",
          "type": "uint256"
        }
      ],
      "name": "approve",
      "outputs": [],
      "stateMutability": "nonpayable",
      "type": "function"
    },
    {
      "inputs": [
        {
          "internalType": "address",
          "name": "owner",
          "type": "address"
        }
      ],
      "name": "balanceOf",
      "outputs": [
        {
          "internalType": "uint256",
          "name": "",
          "type": "uint256"
        }
      ],
      "stateMutability": "view",
      "type": "function"
    },
    {
      "inputs": [
        {
          "internalType": "address",
          "name": "newBackendSigner",
          "type": "address"
        }
      ],
      "name": "changeBackendSigner",
      "outputs": [],
      "stateMutability": "nonpayable",
      "type": "function"
    },
    {
      "inputs": [
        {
          "internalType": "bytes",
          "name": "_payload",
          "type": "bytes"
        }
      ],
      "name": "clearCredits",
      "outputs": [],
      "stateMutability": "nonpayable",
      "type": "function"
    },
    {
      "inputs": [],
      "name": "clock",
      "outputs": [
        {
          "internalType": "uint48",
          "name": "",
          "type": "uint48"
        }
      ],
      "stateMutability": "view",
      "type": "function"
    },
    {
      "inputs": [
        {
          "internalType": "address",
          "name": "",
          "type": "address"
        }
      ],
      "name": "delegate",
      "outputs": [],
      "stateMutability": "nonpayable",
      "type": "function"
    },
    {
      "inputs": [
        {
          "internalType": "address",
          "name": "delegatee",
          "type": "address"
        },
        {
          "internalType": "uint256",
          "name": "nonce",
          "type": "uint256"
        },
        {
          "internalType": "uint256",
          "name": "expiry",
          "type": "uint256"
        },
        {
          "internalType": "uint8",
          "name": "v",
          "type": "uint8"
        },
        {
          "internalType": "bytes32",
          "name": "r",
          "type": "bytes32"
        },
        {
          "internalType": "bytes32",
          "name": "s",
          "type": "bytes32"
        }
      ],
      "name": "delegateBySig",
      "outputs": [],
      "stateMutability": "nonpayable",
      "type": "function"
    },
    {
      "inputs": [
        {
          "internalType": "address",
          "name": "account",
          "type": "address"
        },
        {
          "internalType": "address",
          "name": "delegatee",
          "type": "address"
        }
      ],
      "name": "delegateOnBehalf",
      "outputs": [],
      "stateMutability": "nonpayable",
      "type": "function"
    },
    {
      "inputs": [
        {
          "internalType": "address",
          "name": "account",
          "type": "address"
        }
      ],
      "name": "delegates",
      "outputs": [
        {
          "internalType": "address",
          "name": "",
          "type": "address"
        }
      ],
      "stateMutability": "view",
      "type": "function"
    },
    {
      "inputs": [
        {
          "internalType": "uint16",
          "name": "",
          "type": "uint16"
        }
      ],
      "name": "dstChainIdToBatchLimit",
      "outputs": [
        {
          "internalType": "uint256",
          "name": "",
          "type": "uint256"
        }
      ],
      "stateMutability": "view",
      "type": "function"
    },
    {
      "inputs": [
        {
          "internalType": "uint16",
          "name": "",
          "type": "uint16"
        }
      ],
      "name": "dstChainIdToTransferGas",
      "outputs": [
        {
          "internalType": "uint256",
          "name": "",
          "type": "uint256"
        }
      ],
      "stateMutability": "view",
      "type": "function"
    },
    {
      "inputs": [],
      "name": "eip712Domain",
      "outputs": [
        {
          "internalType": "bytes1",
          "name": "fields",
          "type": "bytes1"
        },
        {
          "internalType": "string",
          "name": "name",
          "type": "string"
        },
        {
          "internalType": "string",
          "name": "version",
          "type": "string"
        },
        {
          "internalType": "uint256",
          "name": "chainId",
          "type": "uint256"
        },
        {
          "internalType": "address",
          "name": "verifyingContract",
          "type": "address"
        },
        {
          "internalType": "bytes32",
          "name": "salt",
          "type": "bytes32"
        },
        {
          "internalType": "uint256[]",
          "name": "extensions",
          "type": "uint256[]"
        }
      ],
      "stateMutability": "view",
      "type": "function"
    },
    {
      "inputs": [
        {
          "internalType": "uint16",
          "name": "_dstChainId",
          "type": "uint16"
        },
        {
          "internalType": "bytes",
          "name": "_toAddress",
          "type": "bytes"
        },
        {
          "internalType": "uint256[]",
          "name": "_tokenIds",
          "type": "uint256[]"
        },
        {
          "internalType": "bool",
          "name": "_useZro",
          "type": "bool"
        },
        {
          "internalType": "bytes",
          "name": "_adapterParams",
          "type": "bytes"
        }
      ],
      "name": "estimateSendBatchFee",
      "outputs": [
        {
          "internalType": "uint256",
          "name": "nativeFee",
          "type": "uint256"
        },
        {
          "internalType": "uint256",
          "name": "zroFee",
          "type": "uint256"
        }
      ],
      "stateMutability": "view",
      "type": "function"
    },
    {
      "inputs": [
        {
          "internalType": "uint16",
          "name": "_dstChainId",
          "type": "uint16"
        },
        {
          "internalType": "bytes",
          "name": "_toAddress",
          "type": "bytes"
        },
        {
          "internalType": "uint256",
          "name": "_tokenId",
          "type": "uint256"
        },
        {
          "internalType": "bool",
          "name": "_useZro",
          "type": "bool"
        },
        {
          "internalType": "bytes",
          "name": "_adapterParams",
          "type": "bytes"
        }
      ],
      "name": "estimateSendFee",
      "outputs": [
        {
          "internalType": "uint256",
          "name": "nativeFee",
          "type": "uint256"
        },
        {
          "internalType": "uint256",
          "name": "zroFee",
          "type": "uint256"
        }
      ],
      "stateMutability": "view",
      "type": "function"
    },
    {
      "inputs": [
        {
          "internalType": "uint16",
          "name": "",
          "type": "uint16"
        },
        {
          "internalType": "bytes",
          "name": "",
          "type": "bytes"
        },
        {
          "internalType": "uint64",
          "name": "",
          "type": "uint64"
        }
      ],
      "name": "failedMessages",
      "outputs": [
        {
          "internalType": "bytes32",
          "name": "",
          "type": "bytes32"
        }
      ],
      "stateMutability": "view",
      "type": "function"
    },
    {
      "inputs": [
        {
          "internalType": "uint16",
          "name": "_srcChainId",
          "type": "uint16"
        },
        {
          "internalType": "bytes",
          "name": "_srcAddress",
          "type": "bytes"
        }
      ],
      "name": "forceResumeReceive",
      "outputs": [],
      "stateMutability": "nonpayable",
      "type": "function"
    },
    {
      "inputs": [
        {
          "internalType": "uint256",
          "name": "tokenId",
          "type": "uint256"
        }
      ],
      "name": "getApproved",
      "outputs": [
        {
          "internalType": "address",
          "name": "",
          "type": "address"
        }
      ],
      "stateMutability": "view",
      "type": "function"
    },
    {
      "inputs": [
        {
          "internalType": "uint16",
          "name": "_version",
          "type": "uint16"
        },
        {
          "internalType": "uint16",
          "name": "_chainId",
          "type": "uint16"
        },
        {
          "internalType": "address",
          "name": "",
          "type": "address"
        },
        {
          "internalType": "uint256",
          "name": "_configType",
          "type": "uint256"
        }
      ],
      "name": "getConfig",
      "outputs": [
        {
          "internalType": "bytes",
          "name": "",
          "type": "bytes"
        }
      ],
      "stateMutability": "view",
      "type": "function"
    },
    {
      "inputs": [
        {
          "internalType": "uint256",
          "name": "timepoint",
          "type": "uint256"
        }
      ],
      "name": "getPastTotalSupply",
      "outputs": [
        {
          "internalType": "uint256",
          "name": "",
          "type": "uint256"
        }
      ],
      "stateMutability": "view",
      "type": "function"
    },
    {
      "inputs": [
        {
          "internalType": "address",
          "name": "account",
          "type": "address"
        },
        {
          "internalType": "uint256",
          "name": "timepoint",
          "type": "uint256"
        }
      ],
      "name": "getPastVotes",
      "outputs": [
        {
          "internalType": "uint256",
          "name": "",
          "type": "uint256"
        }
      ],
      "stateMutability": "view",
      "type": "function"
    },
    {
      "inputs": [
        {
          "internalType": "uint16",
          "name": "_remoteChainId",
          "type": "uint16"
        }
      ],
      "name": "getTrustedRemoteAddress",
      "outputs": [
        {
          "internalType": "bytes",
          "name": "",
          "type": "bytes"
        }
      ],
      "stateMutability": "view",
      "type": "function"
    },
    {
      "inputs": [
        {
          "internalType": "address",
          "name": "account",
          "type": "address"
        }
      ],
      "name": "getVotes",
      "outputs": [
        {
          "internalType": "uint256",
          "name": "",
          "type": "uint256"
        }
      ],
      "stateMutability": "view",
      "type": "function"
    },
    {
      "inputs": [
        {
          "internalType": "address",
          "name": "",
          "type": "address"
        }
      ],
      "name": "hasMinted",
      "outputs": [
        {
          "internalType": "bool",
          "name": "",
          "type": "bool"
        }
      ],
      "stateMutability": "view",
      "type": "function"
    },
    {
      "inputs": [
        {
          "internalType": "address",
          "name": "_accessControlSingleton",
          "type": "address"
        },
        {
          "internalType": "address",
          "name": "_layerZeroEndpoint",
          "type": "address"
        },
        {
          "internalType": "uint256",
          "name": "_startMintId",
          "type": "uint256"
        },
        {
          "internalType": "uint256",
          "name": "_endMintId",
          "type": "uint256"
        }
      ],
      "name": "initialize",
      "outputs": [],
      "stateMutability": "nonpayable",
      "type": "function"
    },
    {
      "inputs": [
        {
          "internalType": "address",
          "name": "owner",
          "type": "address"
        },
        {
          "internalType": "address",
          "name": "operator",
          "type": "address"
        }
      ],
      "name": "isApprovedForAll",
      "outputs": [
        {
          "internalType": "bool",
          "name": "",
          "type": "bool"
        }
      ],
      "stateMutability": "view",
      "type": "function"
    },
    {
      "inputs": [
        {
          "internalType": "uint16",
          "name": "_srcChainId",
          "type": "uint16"
        },
        {
          "internalType": "bytes",
          "name": "_srcAddress",
          "type": "bytes"
        }
      ],
      "name": "isTrustedRemote",
      "outputs": [
        {
          "internalType": "bool",
          "name": "",
          "type": "bool"
        }
      ],
      "stateMutability": "view",
      "type": "function"
    },
    {
      "inputs": [],
      "name": "lzEndpoint",
      "outputs": [
        {
          "internalType": "contract ILayerZeroEndpointUpgradeable",
          "name": "",
          "type": "address"
        }
      ],
      "stateMutability": "view",
      "type": "function"
    },
    {
      "inputs": [
        {
          "internalType": "uint16",
          "name": "_srcChainId",
          "type": "uint16"
        },
        {
          "internalType": "bytes",
          "name": "_srcAddress",
          "type": "bytes"
        },
        {
          "internalType": "uint64",
          "name": "_nonce",
          "type": "uint64"
        },
        {
          "internalType": "bytes",
          "name": "_payload",
          "type": "bytes"
        }
      ],
      "name": "lzReceive",
      "outputs": [],
      "stateMutability": "nonpayable",
      "type": "function"
    },
    {
      "inputs": [],
      "name": "maxMintId",
      "outputs": [
        {
          "internalType": "uint256",
          "name": "",
          "type": "uint256"
        }
      ],
      "stateMutability": "view",
      "type": "function"
    },
    {
      "inputs": [
        {
          "internalType": "uint16",
          "name": "",
          "type": "uint16"
        },
        {
          "internalType": "uint16",
          "name": "",
          "type": "uint16"
        }
      ],
      "name": "minDstGasLookup",
      "outputs": [
        {
          "internalType": "uint256",
          "name": "",
          "type": "uint256"
        }
      ],
      "stateMutability": "view",
      "type": "function"
    },
    {
      "inputs": [],
      "name": "minGasToTransferAndStore",
      "outputs": [
        {
          "internalType": "uint256",
          "name": "",
          "type": "uint256"
        }
      ],
      "stateMutability": "view",
      "type": "function"
    },
    {
      "inputs": [
        {
          "internalType": "bytes",
          "name": "signature",
          "type": "bytes"
        },
        {
          "internalType": "uint256",
          "name": "timestamp",
          "type": "uint256"
        }
      ],
      "name": "mint",
      "outputs": [],
      "stateMutability": "payable",
      "type": "function"
    },
    {
      "inputs": [],
      "name": "name",
      "outputs": [
        {
          "internalType": "string",
          "name": "",
          "type": "string"
        }
      ],
      "stateMutability": "view",
      "type": "function"
    },
    {
      "inputs": [],
      "name": "nextMintId",
      "outputs": [
        {
          "internalType": "uint256",
          "name": "",
          "type": "uint256"
        }
      ],
      "stateMutability": "view",
      "type": "function"
    },
    {
      "inputs": [
        {
          "internalType": "uint16",
          "name": "_srcChainId",
          "type": "uint16"
        },
        {
          "internalType": "bytes",
          "name": "_srcAddress",
          "type": "bytes"
        },
        {
          "internalType": "uint64",
          "name": "_nonce",
          "type": "uint64"
        },
        {
          "internalType": "bytes",
          "name": "_payload",
          "type": "bytes"
        }
      ],
      "name": "nonblockingLzReceive",
      "outputs": [],
      "stateMutability": "nonpayable",
      "type": "function"
    },
    {
      "inputs": [
        {
          "internalType": "address",
          "name": "owner",
          "type": "address"
        }
      ],
      "name": "nonces",
      "outputs": [
        {
          "internalType": "uint256",
          "name": "",
          "type": "uint256"
        }
      ],
      "stateMutability": "view",
      "type": "function"
    },
    {
      "inputs": [],
      "name": "owner",
      "outputs": [
        {
          "internalType": "address",
          "name": "",
          "type": "address"
        }
      ],
      "stateMutability": "view",
      "type": "function"
    },
    {
      "inputs": [
        {
          "internalType": "uint256",
          "name": "tokenId",
          "type": "uint256"
        }
      ],
      "name": "ownerOf",
      "outputs": [
        {
          "internalType": "address",
          "name": "",
          "type": "address"
        }
      ],
      "stateMutability": "view",
      "type": "function"
    },
    {
      "inputs": [
        {
          "internalType": "uint16",
          "name": "",
          "type": "uint16"
        }
      ],
      "name": "payloadSizeLimitLookup",
      "outputs": [
        {
          "internalType": "uint256",
          "name": "",
          "type": "uint256"
        }
      ],
      "stateMutability": "view",
      "type": "function"
    },
    {
      "inputs": [],
      "name": "precrime",
      "outputs": [
        {
          "internalType": "address",
          "name": "",
          "type": "address"
        }
      ],
      "stateMutability": "view",
      "type": "function"
    },
    {
      "inputs": [],
      "name": "renounceOwnership",
      "outputs": [],
      "stateMutability": "nonpayable",
      "type": "function"
    },
    {
      "inputs": [
        {
          "internalType": "uint16",
          "name": "_srcChainId",
          "type": "uint16"
        },
        {
          "internalType": "bytes",
          "name": "_srcAddress",
          "type": "bytes"
        },
        {
          "internalType": "uint64",
          "name": "_nonce",
          "type": "uint64"
        },
        {
          "internalType": "bytes",
          "name": "_payload",
          "type": "bytes"
        }
      ],
      "name": "retryMessage",
      "outputs": [],
      "stateMutability": "payable",
      "type": "function"
    },
    {
      "inputs": [
        {
          "internalType": "address",
          "name": "from",
          "type": "address"
        },
        {
          "internalType": "address",
          "name": "to",
          "type": "address"
        },
        {
          "internalType": "uint256",
          "name": "tokenId",
          "type": "uint256"
        }
      ],
      "name": "safeTransferFrom",
      "outputs": [],
      "stateMutability": "nonpayable",
      "type": "function"
    },
    {
      "inputs": [
        {
          "internalType": "address",
          "name": "from",
          "type": "address"
        },
        {
          "internalType": "address",
          "name": "to",
          "type": "address"
        },
        {
          "internalType": "uint256",
          "name": "tokenId",
          "type": "uint256"
        },
        {
          "internalType": "bytes",
          "name": "data",
          "type": "bytes"
        }
      ],
      "name": "safeTransferFrom",
      "outputs": [],
      "stateMutability": "nonpayable",
      "type": "function"
    },
    {
      "inputs": [
        {
          "internalType": "address",
          "name": "_from",
          "type": "address"
        },
        {
          "internalType": "uint16",
          "name": "_dstChainId",
          "type": "uint16"
        },
        {
          "internalType": "bytes",
          "name": "_toAddress",
          "type": "bytes"
        },
        {
          "internalType": "uint256[]",
          "name": "_tokenIds",
          "type": "uint256[]"
        },
        {
          "internalType": "address payable",
          "name": "_refundAddress",
          "type": "address"
        },
        {
          "internalType": "address",
          "name": "_zroPaymentAddress",
          "type": "address"
        },
        {
          "internalType": "bytes",
          "name": "_adapterParams",
          "type": "bytes"
        }
      ],
      "name": "sendBatchFrom",
      "outputs": [],
      "stateMutability": "payable",
      "type": "function"
    },
    {
      "inputs": [
        {
          "internalType": "address",
          "name": "_from",
          "type": "address"
        },
        {
          "internalType": "uint16",
          "name": "_dstChainId",
          "type": "uint16"
        },
        {
          "internalType": "bytes",
          "name": "_toAddress",
          "type": "bytes"
        },
        {
          "internalType": "uint256",
          "name": "_tokenId",
          "type": "uint256"
        },
        {
          "internalType": "address payable",
          "name": "_refundAddress",
          "type": "address"
        },
        {
          "internalType": "address",
          "name": "_zroPaymentAddress",
          "type": "address"
        },
        {
          "internalType": "bytes",
          "name": "_adapterParams",
          "type": "bytes"
        }
      ],
      "name": "sendFrom",
      "outputs": [],
      "stateMutability": "payable",
      "type": "function"
    },
    {
      "inputs": [
        {
          "internalType": "address",
          "name": "operator",
          "type": "address"
        },
        {
          "internalType": "bool",
          "name": "approved",
          "type": "bool"
        }
      ],
      "name": "setApprovalForAll",
      "outputs": [],
      "stateMutability": "nonpayable",
      "type": "function"
    },
    {
      "inputs": [
        {
          "internalType": "string",
          "name": "uri",
          "type": "string"
        }
      ],
      "name": "setBaseURI",
      "outputs": [],
      "stateMutability": "nonpayable",
      "type": "function"
    },
    {
      "inputs": [
        {
          "internalType": "uint16",
          "name": "_version",
          "type": "uint16"
        },
        {
          "internalType": "uint16",
          "name": "_chainId",
          "type": "uint16"
        },
        {
          "internalType": "uint256",
          "name": "_configType",
          "type": "uint256"
        },
        {
          "internalType": "bytes",
          "name": "_config",
          "type": "bytes"
        }
      ],
      "name": "setConfig",
      "outputs": [],
      "stateMutability": "nonpayable",
      "type": "function"
    },
    {
      "inputs": [
        {
          "internalType": "uint16",
          "name": "_dstChainId",
          "type": "uint16"
        },
        {
          "internalType": "uint256",
          "name": "_dstChainIdToBatchLimit",
          "type": "uint256"
        }
      ],
      "name": "setDstChainIdToBatchLimit",
      "outputs": [],
      "stateMutability": "nonpayable",
      "type": "function"
    },
    {
      "inputs": [
        {
          "internalType": "uint16",
          "name": "_dstChainId",
          "type": "uint16"
        },
        {
          "internalType": "uint256",
          "name": "_dstChainIdToTransferGas",
          "type": "uint256"
        }
      ],
      "name": "setDstChainIdToTransferGas",
      "outputs": [],
      "stateMutability": "nonpayable",
      "type": "function"
    },
    {
      "inputs": [
        {
          "internalType": "uint16",
          "name": "_dstChainId",
          "type": "uint16"
        },
        {
          "internalType": "uint16",
          "name": "_packetType",
          "type": "uint16"
        },
        {
          "internalType": "uint256",
          "name": "_minGas",
          "type": "uint256"
        }
      ],
      "name": "setMinDstGas",
      "outputs": [],
      "stateMutability": "nonpayable",
      "type": "function"
    },
    {
      "inputs": [
        {
          "internalType": "uint256",
          "name": "_minGasToTransferAndStore",
          "type": "uint256"
        }
      ],
      "name": "setMinGasToTransferAndStore",
      "outputs": [],
      "stateMutability": "nonpayable",
      "type": "function"
    },
    {
      "inputs": [
        {
          "internalType": "uint16",
          "name": "_dstChainId",
          "type": "uint16"
        },
        {
          "internalType": "uint256",
          "name": "_size",
          "type": "uint256"
        }
      ],
      "name": "setPayloadSizeLimit",
      "outputs": [],
      "stateMutability": "nonpayable",
      "type": "function"
    },
    {
      "inputs": [
        {
          "internalType": "address",
          "name": "_precrime",
          "type": "address"
        }
      ],
      "name": "setPrecrime",
      "outputs": [],
      "stateMutability": "nonpayable",
      "type": "function"
    },
    {
      "inputs": [
        {
          "internalType": "uint16",
          "name": "_version",
          "type": "uint16"
        }
      ],
      "name": "setReceiveVersion",
      "outputs": [],
      "stateMutability": "nonpayable",
      "type": "function"
    },
    {
      "inputs": [
        {
          "internalType": "uint16",
          "name": "_version",
          "type": "uint16"
        }
      ],
      "name": "setSendVersion",
      "outputs": [],
      "stateMutability": "nonpayable",
      "type": "function"
    },
    {
      "inputs": [
        {
          "internalType": "uint16",
          "name": "_srcChainId",
          "type": "uint16"
        },
        {
          "internalType": "bytes",
          "name": "_path",
          "type": "bytes"
        }
      ],
      "name": "setTrustedRemote",
      "outputs": [],
      "stateMutability": "nonpayable",
      "type": "function"
    },
    {
      "inputs": [
        {
          "internalType": "uint16",
          "name": "_remoteChainId",
          "type": "uint16"
        },
        {
          "internalType": "bytes",
          "name": "_remoteAddress",
          "type": "bytes"
        }
      ],
      "name": "setTrustedRemoteAddress",
      "outputs": [],
      "stateMutability": "nonpayable",
      "type": "function"
    },
    {
      "inputs": [
        {
          "internalType": "bytes32",
          "name": "",
          "type": "bytes32"
        }
      ],
      "name": "storedCredits",
      "outputs": [
        {
          "internalType": "uint16",
          "name": "srcChainId",
          "type": "uint16"
        },
        {
          "internalType": "address",
          "name": "toAddress",
          "type": "address"
        },
        {
          "internalType": "uint256",
          "name": "index",
          "type": "uint256"
        },
        {
          "internalType": "bool",
          "name": "creditsRemain",
          "type": "bool"
        }
      ],
      "stateMutability": "view",
      "type": "function"
    },
    {
      "inputs": [
        {
          "internalType": "bytes4",
          "name": "interfaceId",
          "type": "bytes4"
        }
      ],
      "name": "supportsInterface",
      "outputs": [
        {
          "internalType": "bool",
          "name": "",
          "type": "bool"
        }
      ],
      "stateMutability": "view",
      "type": "function"
    },
    {
      "inputs": [],
      "name": "symbol",
      "outputs": [
        {
          "internalType": "string",
          "name": "",
          "type": "string"
        }
      ],
      "stateMutability": "view",
      "type": "function"
    },
    {
      "inputs": [
        {
          "internalType": "uint256",
          "name": "tokenId",
          "type": "uint256"
        }
      ],
      "name": "tokenURI",
      "outputs": [
        {
          "internalType": "string",
          "name": "",
          "type": "string"
        }
      ],
      "stateMutability": "view",
      "type": "function"
    },
    {
      "inputs": [
        {
          "internalType": "address",
          "name": "from",
          "type": "address"
        },
        {
          "internalType": "address",
          "name": "to",
          "type": "address"
        },
        {
          "internalType": "uint256",
          "name": "tokenId",
          "type": "uint256"
        }
      ],
      "name": "transferFrom",
      "outputs": [],
      "stateMutability": "nonpayable",
      "type": "function"
    },
    {
      "inputs": [
        {
          "internalType": "address",
          "name": "newOwner",
          "type": "address"
        }
      ],
      "name": "transferOwnership",
      "outputs": [],
      "stateMutability": "nonpayable",
      "type": "function"
    },
    {
      "inputs": [
        {
          "internalType": "uint16",
          "name": "",
          "type": "uint16"
        }
      ],
      "name": "trustedRemoteLookup",
      "outputs": [
        {
          "internalType": "bytes",
          "name": "",
          "type": "bytes"
        }
      ],
      "stateMutability": "view",
      "type": "function"
    }
  ],
  "numDeployments": 1,
  "solcInputHash": "7da44fe7f209ab2c1644ec9e638b6c6b",
  "bytecode": "0x608060405234801561001057600080fd5b50615feb80620000216000396000f3fe6080604052600436106103765760003560e01c80621d35671461037b5780622576121461039d57806301ffc9a7146103b057806303ee9f22146103e557806306fdde031461041257806307e0db1714610434578063081812fc14610454578063095ea7b3146104745780630b4cad4c146104945780630df37483146104b45780630e408e3b146104d457806310ddb137146104f457806314c376dc1461051457806322a3ecf91461055657806323b872dd146105da5780632a205e3d146105fa5780633644e5151461062f57806338e21cce146106445780633a46b1a8146106755780633d8b38f6146106955780633f1f4fa4146106b557806342842e0e146106e257806342d65a8d14610702578063438280dd1461072257806348288190146107565780634ac3f4ff1461076c5780634bf5d7e91461079957806351905636146107ae57806355f804b3146107c1578063587cde1e146107e15780635b8c41e6146108015780635c19a95c146108505780636352211e1461087057806366ad5c8a146108905780636aa99da3146108b057806370a08231146108c7578063715018a6146108e757806371d0fb41146108fc57806375071d2a146109305780637533d7881461095257806375b238fc146109725780637ecebe001461098757806384b0196e146109a75780638cfd8f5c146109cf5780638da5cb5b14610a075780638e5313e014610a1c5780638e539e8c14610a505780638ffa1f2a14610a7057806391ddadf414610a90578063950c8a7414610abc57806395d89b4114610adc5780639ab24eb014610af15780639ea5d6b114610b115780639f38369a14610b31578063a22cb46514610b51578063a6c3d16514610b71578063ab3ffb9314610b91578063af3fb21c14610ba4578063b353aaa714610bcc578063b88d4fde14610bec578063baf3292d14610c0c578063c3cda52014610c2c578063c446183414610c4c578063c87b56dd14610c62578063cbed8b9c14610c82578063d12473a514610ca2578063d1deba1f14610cc2578063dc97e84e14610cd5578063df2a5b3b14610d09578063e1d4c87014610d29578063e985e9c514610d40578063e9c2651814610d60578063eb8d72b714610d94578063eb990c5914610db4578063ec052a3814610dd4578063f235364114610df4578063f2fde38b14610e14578063f5ecbdbc14610e34578063fa25f9b614610e54575b600080fd5b34801561038757600080fd5b5061039b610396366004614a9b565b610e81565b005b61039b6103ab366004614b2e565b61102b565b3480156103bc57600080fd5b506103d06103cb366004614b8f565b61113d565b60405190151581526020015b60405180910390f35b3480156103f157600080fd5b5060c954610405906001600160a01b031681565b6040516103dc9190614bac565b34801561041e57600080fd5b50610427611168565b6040516103dc9190614c10565b34801561044057600080fd5b5061039b61044f366004614c23565b6111fb565b34801561046057600080fd5b5061040561046f366004614c3e565b611268565b34801561048057600080fd5b5061039b61048f366004614c77565b611290565b3480156104a057600080fd5b5061039b6104af366004614c3e565b6113aa565b3480156104c057600080fd5b5061039b6104cf366004614ca3565b6113d8565b3480156104e057600080fd5b5061039b6104ef366004614cbf565b6113f7565b34801561050057600080fd5b5061039b61050f366004614c23565b61149f565b34801561052057600080fd5b506105487fe965846df3dd5b1dfa65f58e31477079e90140e0908b6dd31b5aead5a57cf36581565b6040519081526020016103dc565b34801561056257600080fd5b506105ab610571366004614c3e565b60ff6020819052600091825260409091208054600182015460029092015461ffff821693620100009092046001600160a01b031692911684565b6040805161ffff90951685526001600160a01b03909316602085015291830152151560608201526080016103dc565b3480156105e657600080fd5b5061039b6105f5366004614cf8565b6114db565b34801561060657600080fd5b5061061a610615366004614e0a565b61150d565b604080519283526020830191909152016103dc565b34801561063b57600080fd5b50610548611533565b34801561065057600080fd5b506103d061065f366004614e9c565b61022a6020526000908152604090205460ff1681565b34801561068157600080fd5b50610548610690366004614c77565b611542565b3480156106a157600080fd5b506103d06106b0366004614eb9565b6115ad565b3480156106c157600080fd5b506105486106d0366004614c23565b60686020526000908152604090205481565b3480156106ee57600080fd5b5061039b6106fd366004614cf8565b611679565b34801561070e57600080fd5b5061039b61071d366004614eb9565b611694565b34801561072e57600080fd5b506105487f39f61ca2a1a28fee144218173ec637b649a353e4026b2738c673800e5bf1437b81565b34801561076257600080fd5b5061054860fc5481565b34801561077857600080fd5b50610548610787366004614c23565b60fd6020526000908152604090205481565b3480156107a557600080fd5b506104276116fe565b61039b6107bc366004614f0b565b611791565b3480156107cd57600080fd5b5061039b6107dc366004614fc4565b6117a8565b3480156107ed57600080fd5b506104056107fc366004614e9c565b6117b6565b34801561080d57600080fd5b5061054861081c366004615005565b6097602090815260009384526040808520845180860184018051928152908401958401959095209452929052825290205481565b34801561085c57600080fd5b5061039b61086b366004614e9c565b6117d5565b34801561087c57600080fd5b5061040561088b366004614c3e565b6117ee565b34801561089c57600080fd5b5061039b6108ab366004614a9b565b611822565b3480156108bc57600080fd5b5061054861022c5481565b3480156108d357600080fd5b506105486108e2366004614e9c565b6118c0565b3480156108f357600080fd5b5061039b611947565b34801561090857600080fd5b506105487f880a91047114272656e533301261260c75e4d11543ac7303d6fe4204579ec72781565b34801561093c57600080fd5b50610548600080516020615f2083398151915281565b34801561095e57600080fd5b5061042761096d366004614c23565b61195b565b34801561097e57600080fd5b50610548600081565b34801561099357600080fd5b506105486109a2366004614e9c565b6119f5565b3480156109b357600080fd5b506109bc611a14565b6040516103dc979695949392919061509e565b3480156109db57600080fd5b506105486109ea36600461510e565b606760209081526000928352604080842090915290825290205481565b348015610a1357600080fd5b50610405611ab4565b348015610a2857600080fd5b506105487fe453bacb314e78dcd5192e6b1a2b1f0e7c76e92f6b7e429a6a90f04e39db3b7681565b348015610a5c57600080fd5b50610548610a6b366004614c3e565b611ac3565b348015610a7c57600080fd5b5061039b610a8b366004615141565b611b17565b348015610a9c57600080fd5b50610aa5611cec565b60405165ffffffffffff90911681526020016103dc565b348015610ac857600080fd5b50606954610405906001600160a01b031681565b348015610ae857600080fd5b50610427611cf7565b348015610afd57600080fd5b50610548610b0c366004614e9c565b611d07565b348015610b1d57600080fd5b5061039b610b2c366004614ca3565b611d29565b348015610b3d57600080fd5b50610427610b4c366004614c23565b611d69565b348015610b5d57600080fd5b5061039b610b6c366004615175565b611e50565b348015610b7d57600080fd5b5061039b610b8c366004614eb9565b611e5f565b61039b610b9f366004615230565b611ee8565b348015610bb057600080fd5b50610bb9600181565b60405161ffff90911681526020016103dc565b348015610bd857600080fd5b50606554610405906001600160a01b031681565b348015610bf857600080fd5b5061039b610c073660046152e5565b611ef7565b348015610c1857600080fd5b5061039b610c27366004614e9c565b611f29565b348015610c3857600080fd5b5061039b610c47366004615350565b611f87565b348015610c5857600080fd5b5061054861271081565b348015610c6e57600080fd5b50610427610c7d366004614c3e565b6120a6565b348015610c8e57600080fd5b5061039b610c9d3660046153b2565b61210c565b348015610cae57600080fd5b5061039b610cbd366004614ca3565b612185565b61039b610cd0366004614a9b565b6121c5565b348015610ce157600080fd5b506105487f9a9aef7c1247d5fc769b0185c052913e39673da29a880317dfd20ebf86f26a4981565b348015610d1557600080fd5b5061039b610d24366004615420565b612367565b348015610d3557600080fd5b5061054861022d5481565b348015610d4c57600080fd5b506103d0610d5b366004614cbf565b6123f2565b348015610d6c57600080fd5b506105487f3b5d4cc60d3ec3516ee8ae083bd60934f6eb2a6c54b1229985c41bfb092b260381565b348015610da057600080fd5b5061039b610daf366004614eb9565b612421565b348015610dc057600080fd5b5061039b610dcf36600461545c565b61247b565b348015610de057600080fd5b5061039b610def366004614e9c565b61264d565b348015610e0057600080fd5b5061061a610e0f3660046154a2565b612701565b348015610e2057600080fd5b5061039b610e2f366004614e9c565b6127af565b348015610e4057600080fd5b50610427610e4f36600461551f565b612828565b348015610e6057600080fd5b50610548610e6f366004614c23565b60fe6020526000908152604090205481565b6065546001600160a01b0316336001600160a01b031614610eb5576040516320ae752d60e21b815260040160405180910390fd5b61ffff861660009081526066602052604081208054610ed39061556c565b80601f0160208091040260200160405190810160405280929190818152602001828054610eff9061556c565b8015610f4c5780601f10610f2157610100808354040283529160200191610f4c565b820191906000526020600020905b815481529060010190602001808311610f2f57829003601f168201915b50505050509050805186869050148015610f67575060008151115b8015610f8f575080516020820120604051610f8590889088906155a0565b6040518091039020145b610fac57604051636646f45360e01b815260040160405180910390fd5b6110228787878080601f01602080910402602001604051908101604052809392919081815260200183838082843760009201919091525050604080516020601f8a018190048102820181019092528881528a9350915088908890819084018382808284376000920191909152506128bd92505050565b50505050505050565b33600090815261022a602052604090205460ff161561105d57604051631bbdf5c560e31b815260040160405180910390fd5b61022d5461022c5411156110845760405163038df00b60e31b815260040160405180910390fd5b60006110c7338386868080601f01602080910402602001604051908101604052809392919081815260200183838082843760009201919091525061293692505050565b61022e549091506001600160a01b038083169116146110f957604051638baa579f60e01b815260040160405180910390fd5b61022c8054908190600061110c836155c6565b919050555061111b3382612a91565b505033600090815261022a60205260409020805460ff19166001179055505050565b60006001600160e01b03198216637487d9fb60e11b1480611162575061116282612aab565b92915050565b606061012e80546111789061556c565b80601f01602080910402602001604051908101604052809291908181526020018280546111a49061556c565b80156111f15780601f106111c6576101008083540402835291602001916111f1565b820191906000526020600020905b8154815290600101906020018083116111d457829003601f168201915b5050505050905090565b611203612ac8565b6065546040516307e0db1760e01b815261ffff831660048201526001600160a01b03909116906307e0db17906024015b600060405180830381600087803b15801561124d57600080fd5b505af1158015611261573d6000803e3d6000fd5b5050505050565b600061127382612b27565b50600090815261013260205260409020546001600160a01b031690565b600061129b826117ee565b9050806001600160a01b0316836001600160a01b03160361130d5760405162461bcd60e51b815260206004820152602160248201527f4552433732313a20617070726f76616c20746f2063757272656e74206f776e656044820152603960f91b60648201526084015b60405180910390fd5b336001600160a01b0382161480611329575061132981336123f2565b61139b5760405162461bcd60e51b815260206004820152603d60248201527f4552433732313a20617070726f76652063616c6c6572206973206e6f7420746f60448201527f6b656e206f776e6572206f7220617070726f76656420666f7220616c6c0000006064820152608401611304565b6113a58383612b4c565b505050565b6113b2612ac8565b806000036113d3576040516335755d8360e21b815260040160405180910390fd5b60fc55565b6113e0612ac8565b61ffff909116600090815260686020526040902055565b60c954604051632474521560e21b8152600080516020615f20833981519152916001600160a01b0316906391d148549061143790849033906004016155df565b602060405180830381865afa158015611454573d6000803e3d6000fd5b505050506040513d601f19601f8201168201806040525081019061147891906155f6565b61149557604051632f33a5b560e01b815260040160405180910390fd5b6113a58383612bbb565b6114a7612ac8565b6065546040516310ddb13760e01b815261ffff831660048201526001600160a01b03909116906310ddb13790602401611233565b6114e6335b82612c37565b6115025760405162461bcd60e51b815260040161130490615613565b6113a5838383612c95565b600080611525878761151e88612df2565b8787612701565b915091509550959350505050565b600061153d612e3d565b905090565b600061154c611cec565b65ffffffffffff1682106115725760405162461bcd60e51b815260040161130490615660565b61159d61157e83612e47565b6001600160a01b03851660009081526101c76020526040902090612eb0565b6001600160e01b03169392505050565b61ffff8316600090815260666020526040812080548291906115ce9061556c565b80601f01602080910402602001604051908101604052809291908181526020018280546115fa9061556c565b80156116475780601f1061161c57610100808354040283529160200191611647565b820191906000526020600020905b81548152906001019060200180831161162a57829003601f168201915b50505050509050838360405161165e9291906155a0565b60405180910390208180519060200120149150509392505050565b6113a583838360405180602001604052806000815250611ef7565b61169c612ac8565b6065546040516342d65a8d60e01b81526001600160a01b03909116906342d65a8d906116d0908690869086906004016156b7565b600060405180830381600087803b1580156116ea57600080fd5b505af1158015611022573d6000803e3d6000fd5b606043611709611cec565b65ffffffffffff16146117595760405162461bcd60e51b8152602060048201526018602482015277566f7465733a2062726f6b656e20636c6f636b206d6f646560401b6044820152606401611304565b5060408051808201909152601d81527f6d6f64653d626c6f636b6e756d6265722666726f6d3d64656661756c74000000602082015290565b6110228787876117a088612df2565b878787612f64565b61022b6113a5828483615732565b6001600160a01b0390811660009081526101c660205260409020541690565b604051634358d6cf60e11b815260040160405180910390fd5b6000806117fa836130cf565b90506001600160a01b0381166111625760405162461bcd60e51b8152600401611304906157eb565b33301461184257604051638969343960e01b815260040160405180910390fd5b6118b88686868080601f01602080910402602001604051908101604052809392919081815260200183838082843760009201919091525050604080516020601f8901819004810282018101909252878152899350915087908790819084018382808284376000920191909152506130eb92505050565b505050505050565b60006001600160a01b03821661192a5760405162461bcd60e51b815260206004820152602960248201527f4552433732313a2061646472657373207a65726f206973206e6f7420612076616044820152683634b21037bbb732b960b91b6064820152608401611304565b506001600160a01b03166000908152610131602052604090205490565b61194f612ac8565b6119596000613242565b565b606660205260009081526040902080546119749061556c565b80601f01602080910402602001604051908101604052809291908181526020018280546119a09061556c565b80156119ed5780601f106119c2576101008083540402835291602001916119ed565b820191906000526020600020905b8154815290600101906020018083116119d057829003601f168201915b505050505081565b6001600160a01b03811660009081526101c96020526040812054611162565b600060608060008060006060610192546000801b148015611a36575061019354155b611a7a5760405162461bcd60e51b81526020600482015260156024820152741152540dcc4c8e88155b9a5b9a5d1a585b1a5e9959605a1b6044820152606401611304565b611a82613294565b611a8a6132a4565b60408051600080825260208201909252600f60f81b9b939a50919850469750309650945092509050565b6033546001600160a01b031690565b6000611acd611cec565b65ffffffffffff168210611af35760405162461bcd60e51b815260040161130490615660565b611b08611aff83612e47565b6101c890612eb0565b6001600160e01b031692915050565b8051602080830191909120600081815260ff928390526040902060020154909116611b5557604051630b78bca360e11b815260040160405180910390fd5b600082806020019051810190611b6b9190615862565b600084815260ff602052604081208054600190910154929450909250611ba79161ffff8216916201000090046001600160a01b031690856132b4565b600084815260ff60205260409020600101549091508111611bdb5760405163033f6ab560e51b815260040160405180910390fd5b81518103611c5257600083815260ff602052604080822080546001600160b01b031916815560018101929092556002909101805460ff19169055517fd7be02b8dd0d27bd0517a9cb4d7469ce27df4313821ae5ec1ff69acc594ba23390611c459085815260200190565b60405180910390a1611ce6565b60408051608081018252600085815260ff6020818152848320805461ffff80821687526001600160a01b03620100008084048216868a019081529989018b8152600160608b01818152998f90529790965297519851169096026001600160b01b03199091169690951695909517939093178455915191830191909155516002909101805491151560ff199092169190911790555b50505050565b600061153d43613300565b606061012f80546111789061556c565b6001600160a01b03811660009081526101c760205260408120611b0890613367565b611d31612ac8565b80600003611d525760405163302c4a1f60e21b815260040160405180910390fd5b61ffff909116600090815260fd6020526040902055565b61ffff8116600090815260666020526040812080546060929190611d8c9061556c565b80601f0160208091040260200160405190810160405280929190818152602001828054611db89061556c565b8015611e055780601f10611dda57610100808354040283529160200191611e05565b820191906000526020600020905b815481529060010190602001808311611de857829003601f168201915b505050505090508051600003611e2e5760405163638210b160e01b815260040160405180910390fd5b611e49600060148351611e41919061591c565b8391906133a0565b9392505050565b611e5b3383836134ad565b5050565b611e67612ac8565b818130604051602001611e7c9392919061592f565b60408051601f1981840301815291815261ffff8516600090815260666020522090611ea79082615950565b507f8c0400cfe2d1199b1a725c78960bcc2a344d869b80590d0f2bd005db15a572ce838383604051611edb939291906156b7565b60405180910390a1505050565b61102287878787878787612f64565b611f013383612c37565b611f1d5760405162461bcd60e51b815260040161130490615613565b611ce684848484613578565b611f31612ac8565b606980546001600160a01b0319166001600160a01b0383161790556040517f5db758e995a17ec1ad84bdef7e8c3293a0bd6179bcce400dff5d4c3d87db726b90611f7c908390614bac565b60405180910390a150565b83421115611fd25760405162461bcd60e51b8152602060048201526018602482015277159bdd195cce881cda59db985d1d5c9948195e1c1a5c995960421b6044820152606401611304565b604080517fe48329057bfd03d55e49b547132e39cffd9c1820ad7b9d4c5307691425d15adf60208201526001600160a01b03881691810191909152606081018690526080810185905260009061204c906120449060a001604051602081830303815290604052805190602001206135ab565b8585856135d8565b905061205781613600565b861461209c5760405162461bcd60e51b8152602060048201526014602482015273566f7465733a20696e76616c6964206e6f6e636560601b6044820152606401611304565b6110228188612bbb565b60606120b182612b27565b60006120bb613629565b905060008151116120db5760405180602001604052806000815250611e49565b806120e584613639565b6040516020016120f6929190615a09565b6040516020818303038152906040529392505050565b612114612ac8565b6065546040516332fb62e760e21b81526001600160a01b039091169063cbed8b9c9061214c9088908890889088908890600401615a38565b600060405180830381600087803b15801561216657600080fd5b505af115801561217a573d6000803e3d6000fd5b505050505050505050565b61218d612ac8565b806000036121ae57604051639e9c39f360e01b815260040160405180910390fd5b61ffff909116600090815260fe6020526040902055565b61ffff861660009081526097602052604080822090516121e890889088906155a0565b90815260408051602092819003830190206001600160401b0387166000908152925290205490508061222d576040516316ca9eb960e31b815260040160405180910390fd5b80838360405161223e9291906155a0565b60405180910390201461226457604051630d95a7cd60e31b815260040160405180910390fd5b61ffff8716600090815260976020526040808220905161228790899089906155a0565b90815260408051602092819003830181206001600160401b038916600090815290845282902093909355601f8801829004820283018201905286825261231f918991899089908190840183828082843760009201919091525050604080516020601f8a018190048102820181019092528881528a9350915088908890819084018382808284376000920191909152506130eb92505050565b7fc264d91f3adc5588250e1551f547752ca0cfa8f6b530d243b9f9f4cab10ea8e58787878785604051612356959493929190615a66565b60405180910390a150505050505050565b61236f612ac8565b8060000361239057604051634016588d60e01b815260040160405180910390fd5b61ffff83811660008181526067602090815260408083209487168084529482529182902085905581519283528201929092529081018290527f9d5c7c0b934da8fefa9c7760c98383778a12dfbfc0c3b3106518f43fb9508ac090606001611edb565b6001600160a01b0391821660009081526101336020908152604080832093909416825291909152205460ff1690565b612429612ac8565b61ffff83166000908152606660205260409020612447828483615732565b507ffa41487ad5d6728f0b19276fa1eddc16558578f5109fc39d2dc33c3230470dab838383604051611edb939291906156b7565b600054610100900460ff161580801561249b5750600054600160ff909116105b806124bc57506124aa306136cb565b1580156124bc575060005460ff166001145b61251f5760405162461bcd60e51b815260206004820152602e60248201527f496e697469616c697a61626c653a20636f6e747261637420697320616c72656160448201526d191e481a5b9a5d1a585b1a5e995960921b6064820152608401611304565b6000805460ff191660011790558015612542576000805461ff0019166101001790555b6125b06040518060400160405280601f81526020017f537461626c65556e6974204d6f636b45726337323143726f7373436861696e008152506040518060400160405280601481526020017326b7b1b5a2b9319b9918a1b937b9b9a1b430b4b760611b8152506001876136da565b6125b985613725565b604051806060016040528060368152602001615f406036913961022b906125e09082615950565b5061022e80546001600160a01b0319163317905561022c83905561022d8290558015611261576000805461ff0019169055604051600181527f7f26b83ff96e1f2b6a682f133852f6798a09c465da95921460cefb3847402498906020015b60405180910390a15050505050565b60c954604051632474521560e21b81526001600160a01b03909116906391d14854906126809060009033906004016155df565b602060405180830381865afa15801561269d573d6000803e3d6000fd5b505050506040513d601f19601f820116820180604052508101906126c191906155f6565b6126de57604051631886ea7d60e11b815260040160405180910390fd5b61022e80546001600160a01b0319166001600160a01b0392909216919091179055565b60008060008686604051602001612719929190615aa1565b60408051601f198184030181529082905260655463040a7bb160e41b83529092506001600160a01b0316906340a7bb1090612760908b90309086908b908b90600401615acf565b6040805180830381865afa15801561277c573d6000803e3d6000fd5b505050506040513d601f19601f820116820180604052508101906127a09190615b23565b92509250509550959350505050565b6127b7612ac8565b6001600160a01b03811661281c5760405162461bcd60e51b815260206004820152602660248201527f4f776e61626c653a206e6577206f776e657220697320746865207a65726f206160448201526564647265737360d01b6064820152608401611304565b61282581613242565b50565b606554604051633d7b2f6f60e21b815261ffff808716600483015285166024820152306044820152606481018390526060916001600160a01b03169063f5ecbdbc90608401600060405180830381865afa15801561288a573d6000803e3d6000fd5b505050506040513d6000823e601f3d908101601f191682016040526128b29190810190615b47565b90505b949350505050565b6000806129205a60966366ad5c8a60e01b898989896040516024016128e59493929190615b7b565b60408051601f198184030181529190526020810180516001600160e01b03166001600160e01b03199093169290921790915230929190613802565b91509150816118b8576118b8868686868561388e565b600061294483610258615bb9565b42111561296457604051632cd9301160e21b815260040160405180910390fd5b6129706103848461591c565b4210156129905760405163156a2e2960e01b815260040160405180910390fd5b6040516001600160601b0319606086901b16602082015260348101849052466054820152600090607401604051602081830303815290604052805190602001209050600081604051602001612a0891907314da59db995908189e4814dd18589b19555b9a5d60621b8152601481019190915260340190565b6040516020818303038152906040528051906020012090506000806000612a2e8761391c565b92509250925060018482858560405160008152602001604052604051612a579493929190615bcc565b6020604051602081039080840390855afa158015612a79573d6000803e3d6000fd5b5050604051601f1901519a9950505050505050505050565b611e5b82826040518060200160405280600081525061395f565b60006001600160e01b031982161580611162575061116282613992565b33612ad1611ab4565b6001600160a01b0316146119595760405162461bcd60e51b815260206004820181905260248201527f4f776e61626c653a2063616c6c6572206973206e6f7420746865206f776e65726044820152606401611304565b612b30816139d2565b6128255760405162461bcd60e51b8152600401611304906157eb565b60008181526101326020526040902080546001600160a01b0319166001600160a01b0384169081179091558190612b82826117ee565b6001600160a01b03167f8c5be1e5ebec7d5bd14f71427d1e84f3dd0314c0f7b2291e5b200ac8c7c3b92560405160405180910390a45050565b6000612bc6836117b6565b6001600160a01b0384811660008181526101c6602052604080822080546001600160a01b031916888616908117909155905194955093928516927f3134e8a2e6d97e929a7e54011ea5485d7d196dd5f0ba4d4ef95803e8e3fc257f9190a46113a58183612c32866139ef565b6139fa565b600080612c43836117ee565b9050806001600160a01b0316846001600160a01b03161480612c6a5750612c6a81856123f2565b806128b55750836001600160a01b0316612c8384611268565b6001600160a01b031614949350505050565b826001600160a01b0316612ca8826117ee565b6001600160a01b031614612cce5760405162461bcd60e51b815260040161130490615bea565b6001600160a01b038216612d305760405162461bcd60e51b8152602060048201526024808201527f4552433732313a207472616e7366657220746f20746865207a65726f206164646044820152637265737360e01b6064820152608401611304565b826001600160a01b0316612d43826117ee565b6001600160a01b031614612d695760405162461bcd60e51b815260040161130490615bea565b60008181526101326020908152604080832080546001600160a01b03199081169091556001600160a01b0387811680865261013185528386208054600019019055908716808652838620805460010190558686526101309094528285208054909216841790915590518493600080516020615f7683398151915291a46113a58383836001613b44565b60408051600180825281830190925260609160009190602080830190803683370190505090508281600081518110612e2c57612e2c615c2f565b602090810291909101015292915050565b600061153d613b50565b600063ffffffff821115612eac5760405162461bcd60e51b815260206004820152602660248201527f53616665436173743a2076616c756520646f65736e27742066697420696e203360448201526532206269747360d01b6064820152608401611304565b5090565b815460009081816005811115612f0d576000612ecb84613bc4565b612ed5908561591c565b60008881526020902090915081015463ffffffff9081169087161015612efd57809150612f0b565b612f08816001615bb9565b92505b505b6000612f1b87878585613cac565b90508015612f5657612f4087612f3260018461591c565b600091825260209091200190565b54600160201b90046001600160e01b0316612f59565b60005b979650505050505050565b8351600003612f865760405163ee39705b60e01b815260040160405180910390fd5b835160011480612faa575061ffff8616600090815260fd6020526040902054845111155b612fc7576040516322b3d67560e21b815260040160405180910390fd5b60005b845181101561300057612ff8888888888581518110612feb57612feb615c2f565b6020026020010151613d0a565b600101612fca565b5060008585604051602001613016929190615aa1565b604051602081830303815290604052905061305b87600184885160fe60008d61ffff1661ffff168152602001908152602001600020546130569190615c45565b613d75565b613069878286868634613df6565b856040516130779190615c5c565b6040518091039020886001600160a01b03168861ffff167fe1b87c47fdeb4f9cbadbca9df3af7aba453bb6e501075d0440d88125b711522a886040516130bd9190615c78565b60405180910390a45050505050505050565b600090815261013060205260409020546001600160a01b031690565b600080828060200190518101906131029190615862565b60148201519193509150600061311a888383866132b4565b905082518110156131ee5784516020808701919091206040805160808101825261ffff808d1682526001600160a01b03808816838701908152838501888152600160608601818152600089815260ff909a529887902095518654935190941662010000026001600160b01b03199093169390941692909217178355519082015592516002909301805493151560ff199094169390931790925590517f10e0b70d256bccc84b7027506978bd8b68984a870788b93b479def144c839ad7906131e49083908990615c8b565b60405180910390a1505b816001600160a01b0316876040516132069190615c5c565b60405180910390208961ffff167f5b821db8a46f8ecbe1941ba2f51cfeea9643268b56631f70d45e2a745d990265866040516130bd9190615c78565b603380546001600160a01b038381166001600160a01b0319831681179093556040519116919082907f8be0079c531659141344cd1fd0a4f28419497f9722a3daafe3b4186f6b6457e090600090a35050565b606061019480546111789061556c565b606061019580546111789061556c565b6000825b82518110156128b25760fc545a106128b2576132ee86868584815181106132e1576132e1615c2f565b6020026020010151613f37565b806132f8816155c6565b9150506132b8565b600065ffffffffffff821115612eac5760405162461bcd60e51b815260206004820152602660248201527f53616665436173743a2076616c756520646f65736e27742066697420696e203460448201526538206269747360d01b6064820152608401611304565b805460009080156133975761338183612f3260018461591c565b54600160201b90046001600160e01b0316611e49565b60009392505050565b6060816133ae81601f615bb9565b10156133ed5760405162461bcd60e51b815260206004820152600e60248201526d736c6963655f6f766572666c6f7760901b6044820152606401611304565b6133f78284615bb9565b8451101561343b5760405162461bcd60e51b8152602060048201526011602482015270736c6963655f6f75744f66426f756e647360781b6044820152606401611304565b60608215801561345a57604051915060008252602082016040526134a4565b6040519150601f8416801560200281840101858101878315602002848b0101015b8183101561349357805183526020928301920161347b565b5050858452601f01601f1916604052505b50949350505050565b816001600160a01b0316836001600160a01b03160361350a5760405162461bcd60e51b815260206004820152601960248201527822a9219b99189d1030b8383937bb32903a379031b0b63632b960391b6044820152606401611304565b6001600160a01b0383811660008181526101336020908152604080832094871680845294825291829020805460ff191686151590811790915591519182527f17307eab39ab6107e8899845ad3d59bd9653f200f220920489ca2b5937696c31910160405180910390a3505050565b613583848484612c95565b61358f84848484613f97565b611ce65760405162461bcd60e51b815260040161130490615ca4565b60006111626135b8612e3d565b8360405161190160f01b8152600281019290925260228201526042902090565b60008060006135e98787878761409c565b915091506135f681614146565b5095945050505050565b6001600160a01b03811660009081526101c9602052604090208054600181018255905b50919050565b606061022b80546111789061556c565b606060006136468361428b565b60010190506000816001600160401b0381111561366557613665614d39565b6040519080825280601f01601f19166020018201604052801561368f576020820181803683370190505b5090508181016020015b600019016f181899199a1a9b1b9c1cb0b131b232b360811b600a86061a8153600a850494508461369957509392505050565b6001600160a01b03163b151590565b600054610100900460ff166137015760405162461bcd60e51b815260040161130490615d0c565b61370b8484614361565b6137136143a3565b61371c816143d3565b611ce68261441c565b600054610100900460ff1661374c5760405162461bcd60e51b815260040161130490615d0c565b60c980546001600160a01b0319166001600160a01b038316908117909155158015906137e457506040516301ffc9a760e01b8152637965db0b60e01b60048201526001600160a01b038216906301ffc9a790602401602060405180830381865afa1580156137be573d6000803e3d6000fd5b505050506040513d601f19601f820116820180604052508101906137e291906155f6565b155b15612825576040516384d942fd60e01b815260040160405180910390fd5b6000606060008060008661ffff166001600160401b0381111561382757613827614d39565b6040519080825280601f01601f191660200182016040528015613851576020820181803683370190505b50905060008087516020890160008d8df191503d925086831115613873578692505b828152826000602083013e9093509150505b94509492505050565b8180519060200120609760008761ffff1661ffff168152602001908152602001600020856040516138bf9190615c5c565b9081526040805191829003602090810183206001600160401b0388166000908152915220919091557fe183f33de2837795525b4792ca4cd60535bd77c53b7e7030060bfcf5734d6b0c9061263e9087908790879087908790615d57565b6000806000835160411461394357604051634be6321b60e01b815260040160405180910390fd5b50505060208101516040820151606083015160001a9193909250565b6139698383614443565b6139766000848484613f97565b6113a55760405162461bcd60e51b815260040161130490615ca4565b60006001600160e01b031982166380ac58cd60e01b14806139c357506001600160e01b03198216635b5e139f60e01b145b8061116257506111628261454a565b6000806139de836130cf565b6001600160a01b0316141592915050565b6000611162826118c0565b816001600160a01b0316836001600160a01b031614158015613a1c5750600081115b156113a5576001600160a01b03831615613ab3576001600160a01b03831660009081526101c7602052604081208190613a609061457f613a5b8661458b565b6145f4565b6001600160e01b031691506001600160e01b03169150846001600160a01b0316600080516020615f968339815191528383604051613aa8929190918252602082015260400190565b60405180910390a250505b6001600160a01b038216156113a5576001600160a01b03821660009081526101c7602052604081208190613aed9061463d613a5b8661458b565b6001600160e01b031691506001600160e01b03169150836001600160a01b0316600080516020615f968339815191528383604051613b35929190918252602082015260400190565b60405180910390a25050505050565b611ce684848484614649565b60007f8b73c3c69bb8fe3d512ecc4cf759cc79239f7b179b0ffacaa9a75d522b39400f613b7b614659565b613b836146b3565b60408051602081019490945283019190915260608201524660808201523060a082015260c00160405160208183030381529060405280519060200120905090565b600081600003613bd657506000919050565b60006001613be3846146e5565b901c6001901b90506001818481613bfc57613bfc615cf6565b048201901c90506001818481613c1457613c14615cf6565b048201901c90506001818481613c2c57613c2c615cf6565b048201901c90506001818481613c4457613c44615cf6565b048201901c90506001818481613c5c57613c5c615cf6565b048201901c90506001818481613c7457613c74615cf6565b048201901c90506001818481613c8c57613c8c615cf6565b048201901c9050611e4981828581613ca657613ca6615cf6565b04614779565b60005b81831015613d02576000613cc3848461478f565b60008781526020902090915063ffffffff86169082015463ffffffff161115613cee57809250613cfc565b613cf9816001615bb9565b93505b50613caf565b509392505050565b613d13336114e0565b613d3057604051632fde13f960e01b815260040160405180910390fd5b836001600160a01b0316613d43826117ee565b6001600160a01b031614613d6a576040516399c305d960e01b815260040160405180910390fd5b611ce6843083612c95565b6000613d80836147aa565b61ffff808716600090815260676020908152604080832093891683529290529081205491925090613db2908490615bb9565b905080600003613dd55760405163a25b429560e01b815260040160405180910390fd5b808210156118b8576040516348a712f560e01b815260040160405180910390fd5b61ffff861660009081526066602052604081208054613e149061556c565b80601f0160208091040260200160405190810160405280929190818152602001828054613e409061556c565b8015613e8d5780601f10613e6257610100808354040283529160200191613e8d565b820191906000526020600020905b815481529060010190602001808311613e7057829003601f168201915b505050505090508051600003613eb6576040516301d1fb0360e01b815260040160405180910390fd5b613ec18787516147d7565b60655460405162c5803160e81b81526001600160a01b039091169063c5803100908490613efc908b9086908c908c908c908c90600401615da9565b6000604051808303818588803b158015613f1557600080fd5b505af1158015613f29573d6000803e3d6000fd5b505050505050505050505050565b613f40816139d2565b1580613f6c5750613f50816139d2565b8015613f6c575030613f61826117ee565b6001600160a01b0316145b613f7557600080fd5b613f7e816139d2565b613f8c576113a58282612a91565b6113a5308383612c95565b6000613fab846001600160a01b03166136cb565b1561409457604051630a85bd0160e11b81526001600160a01b0385169063150b7a0290613fe2903390899088908890600401615e10565b6020604051808303816000875af192505050801561401d575060408051601f3d908101601f1916820190925261401a91810190615e4d565b60015b61407a573d80801561404b576040519150601f19603f3d011682016040523d82523d6000602084013e614050565b606091505b5080516000036140725760405162461bcd60e51b815260040161130490615ca4565b805181602001fd5b6001600160e01b031916630a85bd0160e11b1490506128b5565b5060016128b5565b6000806fa2a8918ca85bafe22016d0b997e4df60600160ff1b038311156140c95750600090506003613885565b6000600187878787604051600081526020016040526040516140ee9493929190615bcc565b6020604051602081039080840390855afa158015614110573d6000803e3d6000fd5b5050604051601f1901519150506001600160a01b03811661413957600060019250925050613885565b9660009650945050505050565b600081600481111561415a5761415a615e6a565b036141625750565b600181600481111561417657614176615e6a565b036141be5760405162461bcd60e51b815260206004820152601860248201527745434453413a20696e76616c6964207369676e617475726560401b6044820152606401611304565b60028160048111156141d2576141d2615e6a565b0361421f5760405162461bcd60e51b815260206004820152601f60248201527f45434453413a20696e76616c6964207369676e6174757265206c656e677468006044820152606401611304565b600381600481111561423357614233615e6a565b036128255760405162461bcd60e51b815260206004820152602260248201527f45434453413a20696e76616c6964207369676e6174757265202773272076616c604482015261756560f01b6064820152608401611304565b60008072184f03e93ff9f4daa797ed6e38ed64bf6a1f0160401b83106142ca5772184f03e93ff9f4daa797ed6e38ed64bf6a1f0160401b830492506040015b6904ee2d6d415b85acef8160201b83106142f4576904ee2d6d415b85acef8160201b830492506020015b662386f26fc10000831061431257662386f26fc10000830492506010015b6305f5e100831061432a576305f5e100830492506008015b612710831061433e57612710830492506004015b60648310614350576064830492506002015b600a83106111625760010192915050565b600054610100900460ff166143885760405162461bcd60e51b815260040161130490615d0c565b61012e6143958382615950565b5061012f6113a58282615950565b600054610100900460ff166143ca5760405162461bcd60e51b815260040161130490615d0c565b61195933613242565b600054610100900460ff166143fa5760405162461bcd60e51b815260040161130490615d0c565b606580546001600160a01b0319166001600160a01b0392909216919091179055565b600054610100900460ff166113b25760405162461bcd60e51b815260040161130490615d0c565b6001600160a01b0382166144995760405162461bcd60e51b815260206004820181905260248201527f4552433732313a206d696e7420746f20746865207a65726f20616464726573736044820152606401611304565b6144a2816139d2565b156144bf5760405162461bcd60e51b815260040161130490615e80565b6144c8816139d2565b156144e55760405162461bcd60e51b815260040161130490615e80565b6001600160a01b0382166000818152610131602090815260408083208054600101905584835261013090915280822080546001600160a01b031916841790555183929190600080516020615f76833981519152908290a4611e5b600083836001613b44565b60006001600160e01b031982166322bac5d960e01b148061116257506301ffc9a760e01b6001600160e01b0319831614611162565b6000611e498284615eb6565b60006001600160e01b03821115612eac5760405162461bcd60e51b815260206004820152602760248201527f53616665436173743a2076616c756520646f65736e27742066697420696e20326044820152663234206269747360c81b6064820152608401611304565b600080614630614612614605611cec565b65ffffffffffff16612e47565b61462861461e88613367565b868863ffffffff16565b879190614819565b915091505b935093915050565b6000611e498284615edd565b614654848483614827565b611ce6565b600080614664613294565b80519091501561467b578051602090910120919050565b61019254801561468b5792915050565b7fc5d2460186f7233c927e7db2dcc703c0e500b653ca82273b7bfad8045d85a4709250505090565b6000806146be6132a4565b8051909150156146d5578051602090910120919050565b61019354801561468b5792915050565b600080608083901c156146fa57608092831c92015b604083901c1561470c57604092831c92015b602083901c1561471e57602092831c92015b601083901c1561473057601092831c92015b600883901c1561474257600892831c92015b600483901c1561475457600492831c92015b600283901c1561476657600292831c92015b600183901c156111625760010192915050565b60008183106147885781611e49565b5090919050565b600061479e6002848418615efd565b611e4990848416615bb9565b60006022825110156147cf576040516363c7624560e01b815260040160405180910390fd5b506022015190565b61ffff8216600090815260686020526040812054908190036147f857506127105b808211156113a557604051634152331560e01b815260040160405180910390fd5b600080614630858585614888565b6001600160a01b03831661484a576148476101c861463d613a5b8461458b565b50505b6001600160a01b03821661486d5761486a6101c861457f613a5b8461458b565b50505b6113a5614879846117b6565b614882846117b6565b836139fa565b8254600090819080156149cc5760006148a687612f3260018561591c565b60408051808201909152905463ffffffff808216808452600160201b9092046001600160e01b0316602084015291925090871610156149255760405162461bcd60e51b815260206004820152601b60248201527a436865636b706f696e743a2064656372656173696e67206b65797360281b6044820152606401611304565b805163ffffffff80881691160361496d578461494688612f3260018661591c565b80546001600160e01b0392909216600160201b0263ffffffff9092169190911790556149bc565b6040805180820190915263ffffffff80881682526001600160e01b0380881660208085019182528b54600181018d5560008d81529190912094519151909216600160201b029216919091179101555b6020015192508391506146359050565b50506040805180820190915263ffffffff80851682526001600160e01b0380851660208085019182528854600181018a5560008a815291822095519251909316600160201b029190931617920191909155905081614635565b803561ffff81168114614a3757600080fd5b919050565b60008083601f840112614a4e57600080fd5b5081356001600160401b03811115614a6557600080fd5b602083019150836020828501011115614a7d57600080fd5b9250929050565b80356001600160401b0381168114614a3757600080fd5b60008060008060008060808789031215614ab457600080fd5b614abd87614a25565b955060208701356001600160401b0380821115614ad957600080fd5b614ae58a838b01614a3c565b9097509550859150614af960408a01614a84565b94506060890135915080821115614b0f57600080fd5b50614b1c89828a01614a3c565b979a9699509497509295939492505050565b600080600060408486031215614b4357600080fd5b83356001600160401b03811115614b5957600080fd5b614b6586828701614a3c565b909790965060209590950135949350505050565b6001600160e01b03198116811461282557600080fd5b600060208284031215614ba157600080fd5b8135611e4981614b79565b6001600160a01b0391909116815260200190565b60005b83811015614bdb578181015183820152602001614bc3565b50506000910152565b60008151808452614bfc816020860160208601614bc0565b601f01601f19169290920160200192915050565b602081526000611e496020830184614be4565b600060208284031215614c3557600080fd5b611e4982614a25565b600060208284031215614c5057600080fd5b5035919050565b6001600160a01b038116811461282557600080fd5b8035614a3781614c57565b60008060408385031215614c8a57600080fd5b8235614c9581614c57565b946020939093013593505050565b60008060408385031215614cb657600080fd5b614c9583614a25565b60008060408385031215614cd257600080fd5b8235614cdd81614c57565b91506020830135614ced81614c57565b809150509250929050565b600080600060608486031215614d0d57600080fd5b8335614d1881614c57565b92506020840135614d2881614c57565b929592945050506040919091013590565b634e487b7160e01b600052604160045260246000fd5b604051601f8201601f191681016001600160401b0381118282101715614d7757614d77614d39565b604052919050565b60006001600160401b03821115614d9857614d98614d39565b50601f01601f191660200190565b600082601f830112614db757600080fd5b8135614dca614dc582614d7f565b614d4f565b818152846020838601011115614ddf57600080fd5b816020850160208301376000918101602001919091529392505050565b801515811461282557600080fd5b600080600080600060a08688031215614e2257600080fd5b614e2b86614a25565b945060208601356001600160401b0380821115614e4757600080fd5b614e5389838a01614da6565b95506040880135945060608801359150614e6c82614dfc565b90925060808701359080821115614e8257600080fd5b50614e8f88828901614da6565b9150509295509295909350565b600060208284031215614eae57600080fd5b8135611e4981614c57565b600080600060408486031215614ece57600080fd5b614ed784614a25565b925060208401356001600160401b03811115614ef257600080fd5b614efe86828701614a3c565b9497909650939450505050565b600080600080600080600060e0888a031215614f2657600080fd5b8735614f3181614c57565b9650614f3f60208901614a25565b955060408801356001600160401b0380821115614f5b57600080fd5b614f678b838c01614da6565b965060608a0135955060808a01359150614f8082614c57565b90935060a089013590614f9282614c57565b90925060c08901359080821115614fa857600080fd5b50614fb58a828b01614da6565b91505092959891949750929550565b60008060208385031215614fd757600080fd5b82356001600160401b03811115614fed57600080fd5b614ff985828601614a3c565b90969095509350505050565b60008060006060848603121561501a57600080fd5b61502384614a25565b925060208401356001600160401b0381111561503e57600080fd5b61504a86828701614da6565b92505061505960408501614a84565b90509250925092565b60008151808452602080850194506020840160005b8381101561509357815187529582019590820190600101615077565b509495945050505050565b60ff60f81b8816815260e0602082015260006150bd60e0830189614be4565b82810360408401526150cf8189614be4565b606084018890526001600160a01b038716608085015260a0840186905283810360c085015290506151008185615062565b9a9950505050505050505050565b6000806040838503121561512157600080fd5b61512a83614a25565b915061513860208401614a25565b90509250929050565b60006020828403121561515357600080fd5b81356001600160401b0381111561516957600080fd5b6128b584828501614da6565b6000806040838503121561518857600080fd5b823561519381614c57565b91506020830135614ced81614dfc565b60006001600160401b038211156151bc576151bc614d39565b5060051b60200190565b600082601f8301126151d757600080fd5b813560206151e7614dc5836151a3565b8083825260208201915060208460051b87010193508684111561520957600080fd5b602086015b84811015615225578035835291830191830161520e565b509695505050505050565b600080600080600080600060e0888a03121561524b57600080fd5b873561525681614c57565b965061526460208901614a25565b955060408801356001600160401b038082111561528057600080fd5b61528c8b838c01614da6565b965060608a01359150808211156152a257600080fd5b6152ae8b838c016151c6565b955060808a013591506152c082614c57565b8194506152cf60a08b01614c6c565b935060c08a0135915080821115614fa857600080fd5b600080600080608085870312156152fb57600080fd5b843561530681614c57565b9350602085013561531681614c57565b92506040850135915060608501356001600160401b0381111561533857600080fd5b61534487828801614da6565b91505092959194509250565b60008060008060008060c0878903121561536957600080fd5b863561537481614c57565b95506020870135945060408701359350606087013560ff8116811461539857600080fd5b9598949750929560808101359460a0909101359350915050565b6000806000806000608086880312156153ca57600080fd5b6153d386614a25565b94506153e160208701614a25565b93506040860135925060608601356001600160401b0381111561540357600080fd5b61540f88828901614a3c565b969995985093965092949392505050565b60008060006060848603121561543557600080fd5b61543e84614a25565b925061544c60208501614a25565b9150604084013590509250925092565b6000806000806080858703121561547257600080fd5b843561547d81614c57565b9350602085013561548d81614c57565b93969395505050506040820135916060013590565b600080600080600060a086880312156154ba57600080fd5b6154c386614a25565b945060208601356001600160401b03808211156154df57600080fd5b6154eb89838a01614da6565b9550604088013591508082111561550157600080fd5b61550d89838a016151c6565b945060608801359150614e6c82614dfc565b6000806000806080858703121561553557600080fd5b61553e85614a25565b935061554c60208601614a25565b9250604085013561555c81614c57565b9396929550929360600135925050565b600181811c9082168061558057607f821691505b60208210810361362357634e487b7160e01b600052602260045260246000fd5b8183823760009101908152919050565b634e487b7160e01b600052601160045260246000fd5b6000600182016155d8576155d86155b0565b5060010190565b9182526001600160a01b0316602082015260400190565b60006020828403121561560857600080fd5b8151611e4981614dfc565b6020808252602d908201527f4552433732313a2063616c6c6572206973206e6f7420746f6b656e206f776e6560408201526c1c881bdc88185c1c1c9bdd9959609a1b606082015260800190565b6020808252601490820152730566f7465733a20667574757265206c6f6f6b75760641b604082015260600190565b81835281816020850137506000828201602090810191909152601f909101601f19169091010190565b61ffff841681526040602082015260006128b260408301848661568e565b601f8211156113a5576000816000526020600020601f850160051c810160208610156156fe5750805b601f850160051c820191505b818110156118b85782815560010161570a565b600019600383901b1c191660019190911b1790565b6001600160401b0383111561574957615749614d39565b61575d83615757835461556c565b836156d5565b6000601f84116001811461578b57600085156157795750838201355b615783868261571d565b845550611261565b600083815260209020601f19861690835b828110156157bc578685013582556020948501946001909201910161579c565b50868210156157d95760001960f88860031b161c19848701351681555b505060018560011b0183555050505050565b602080825260189082015277115490cdcc8c4e881a5b9d985b1a59081d1bdad95b88125160421b604082015260600190565b600082601f83011261582e57600080fd5b815161583c614dc582614d7f565b81815284602083860101111561585157600080fd5b6128b5826020830160208701614bc0565b6000806040838503121561587557600080fd5b82516001600160401b038082111561588c57600080fd5b6158988683870161581d565b93506020915081850151818111156158af57600080fd5b85019050601f810186136158c257600080fd5b80516158d0614dc5826151a3565b81815260059190911b820183019083810190888311156158ef57600080fd5b928401925b8284101561590d578351825292840192908401906158f4565b80955050505050509250929050565b81810381811115611162576111626155b0565b8284823760609190911b6001600160601b0319169101908152601401919050565b81516001600160401b0381111561596957615969614d39565b61597d81615977845461556c565b846156d5565b602080601f8311600181146159ac576000841561599a5750858301515b6159a4858261571d565b8655506118b8565b600085815260208120601f198616915b828110156159db578886015182559484019460019091019084016159bc565b50858210156159f95787850151600019600388901b60f8161c191681555b5050505050600190811b01905550565b60008351615a1b818460208801614bc0565b835190830190615a2f818360208801614bc0565b01949350505050565b600061ffff808816835280871660208401525084604083015260806060830152612f5960808301848661568e565b61ffff86168152608060208201526000615a8460808301868861568e565b6001600160401b0394909416604083015250606001529392505050565b604081526000615ab46040830185614be4565b8281036020840152615ac68185615062565b95945050505050565b61ffff861681526001600160a01b038516602082015260a060408201819052600090615afd90830186614be4565b84151560608401528281036080840152615b178185614be4565b98975050505050505050565b60008060408385031215615b3657600080fd5b505080516020909101519092909150565b600060208284031215615b5957600080fd5b81516001600160401b03811115615b6f57600080fd5b6128b58482850161581d565b61ffff85168152608060208201526000615b986080830186614be4565b6001600160401b03851660408401528281036060840152612f598185614be4565b80820180821115611162576111626155b0565b93845260ff9290921660208401526040830152606082015260800190565b60208082526025908201527f4552433732313a207472616e736665722066726f6d20696e636f72726563742060408201526437bbb732b960d91b606082015260800190565b634e487b7160e01b600052603260045260246000fd5b8082028115828204841417611162576111626155b0565b60008251615c6e818460208701614bc0565b9190910192915050565b602081526000611e496020830184615062565b8281526040602082015260006128b56040830184614be4565b60208082526032908201527f4552433732313a207472616e7366657220746f206e6f6e20455243373231526560408201527131b2b4bb32b91034b6b83632b6b2b73a32b960711b606082015260800190565b634e487b7160e01b600052601260045260246000fd5b6020808252602b908201527f496e697469616c697a61626c653a20636f6e7472616374206973206e6f74206960408201526a6e697469616c697a696e6760a81b606082015260800190565b61ffff8616815260a060208201526000615d7460a0830187614be4565b6001600160401b03861660408401528281036060840152615d958186614be4565b90508281036080840152615b178185614be4565b61ffff8716815260c060208201526000615dc660c0830188614be4565b8281036040840152615dd88188614be4565b6001600160a01b0387811660608601528616608085015283810360a08501529050615e038185614be4565b9998505050505050505050565b6001600160a01b0385811682528416602082015260408101839052608060608201819052600090615e4390830184614be4565b9695505050505050565b600060208284031215615e5f57600080fd5b8151611e4981614b79565b634e487b7160e01b600052602160045260246000fd5b6020808252601c908201527b115490cdcc8c4e881d1bdad95b88185b1c9958591e481b5a5b9d195960221b604082015260600190565b6001600160e01b03828116828216039080821115615ed657615ed66155b0565b5092915050565b6001600160e01b03818116838216019080821115615ed657615ed66155b0565b600082615f1a57634e487b7160e01b600052601260045260246000fd5b50049056fe5719df9ef2c4678b547f89e4f5ae410dbf400fc51cf3ded434c55f6adea2c43f697066733a2f2f516d65536a53696e4870506e6d586d73704d6a776958794e367a533445397a63636172694752336a7863615774712fddf252ad1be2c89b69c2b068fc378daa952ba7f163c4a11628f55a4df523b3efdec2bacdd2f05b59de34da9b523dff8be42e5e38e818c82fdb0bae774387a724a2646970667358221220b49cb4cb950d26d3a804e190b714b67a0b46cb514591a3df00a6e79833966c0564736f6c63430008170033",
  "devdoc": {
    "events": {
      "Approval(address,address,uint256)": {
        "details": "Emitted when `owner` enables `approved` to manage the `tokenId` token."
      },
      "ApprovalForAll(address,address,bool)": {
        "details": "Emitted when `owner` enables or disables (`approved`) `operator` to manage all of its assets."
      },
      "CreditCleared(bytes32)": {
        "details": "Emitted when `_hashedPayload` has been completely delivered"
      },
      "CreditStored(bytes32,bytes)": {
        "details": "Emitted when `_payload` was received from lz, but not enough gas to deliver all tokenIds"
      },
      "DelegateChanged(address,address,address)": {
        "details": "Emitted when an account changes their delegate."
      },
      "DelegateVotesChanged(address,uint256,uint256)": {
        "details": "Emitted when a token transfer or delegate change results in changes to a delegate's number of votes."
      },
      "EIP712DomainChanged()": {
        "details": "MAY be emitted to signal that the domain could have changed."
      },
      "Initialized(uint8)": {
        "details": "Triggered when the contract has been initialized or reinitialized."
      },
      "SendToChain(uint16,address,bytes,uint256[])": {
        "details": "Emitted when `_tokenIds[]` are moved from the `_sender` to (`_dstChainId`, `_toAddress`) `_nonce` is the outbound nonce from"
      },
      "Transfer(address,address,uint256)": {
        "details": "Emitted when `tokenId` token is transferred from `from` to `to`."
      }
    },
    "kind": "dev",
    "methods": {
      "CLOCK_MODE()": {
        "details": "Machine-readable description of the clock as specified in EIP-6372."
      },
      "DOMAIN_SEPARATOR()": {
        "details": "Returns the contract's {EIP712} domain separator."
      },
      "approve(address,uint256)": {
        "details": "See {IERC721-approve}."
      },
      "balanceOf(address)": {
        "details": "See {IERC721-balanceOf}."
      },
      "clock()": {
        "details": "Clock used for flagging checkpoints. Can be overridden to implement timestamp based checkpoints (and voting), in which case {CLOCK_MODE} should be overridden as well to match."
      },
      "delegate(address)": {
        "details": "Delegates votes from the sender to `delegatee`. It's DEPRECATED. Only contracts with SYSTEM_ROLE can call delegateOnBehalf(). (like VotingPower that has complex logic to work with SuVoteToken-like tokens)"
      },
      "delegateBySig(address,uint256,uint256,uint8,bytes32,bytes32)": {
        "details": "Delegates votes from signer to `delegatee`."
      },
      "delegateOnBehalf(address,address)": {
        "details": "Delegates votes from the account to `delegatee`."
      },
      "delegates(address)": {
        "details": "Returns the delegate that `account` has chosen."
      },
      "eip712Domain()": {
        "details": "See {EIP-5267}. _Available since v4.9._"
      },
      "estimateSendBatchFee(uint16,bytes,uint256[],bool,bytes)": {
        "details": "estimate send token `_tokenId` to (`_dstChainId`, `_toAddress`) _dstChainId - L0 defined chain id to send tokens too _toAddress - dynamic bytes array which contains the address to whom you are sending tokens to on the dstChain _tokenIds[] - token Ids to transfer _useZro - indicates to use zro to pay L0 fees _adapterParams - flexible bytes array to indicate messaging adapter services in L0"
      },
      "estimateSendFee(uint16,bytes,uint256,bool,bytes)": {
        "details": "estimate send token `_tokenId` to (`_dstChainId`, `_toAddress`) _dstChainId - L0 defined chain id to send tokens too _toAddress - dynamic bytes array which contains the address to whom you are sending tokens to on the dstChain _tokenId - token Id to transfer _useZro - indicates to use zro to pay L0 fees _adapterParams - flexible bytes array to indicate messaging adapter services in L0"
      },
      "getApproved(uint256)": {
        "details": "See {IERC721-getApproved}."
      },
      "getPastTotalSupply(uint256)": {
        "details": "Returns the total supply of votes available at a specific moment in the past. If the `clock()` is configured to use block numbers, this will return the value at the end of the corresponding block. NOTE: This value is the sum of all available votes, which is not necessarily the sum of all delegated votes. Votes that have not been delegated are still part of total supply, even though they would not participate in a vote. Requirements: - `timepoint` must be in the past. If operating using block numbers, the block must be already mined."
      },
      "getPastVotes(address,uint256)": {
        "details": "Returns the amount of votes that `account` had at a specific moment in the past. If the `clock()` is configured to use block numbers, this will return the value at the end of the corresponding block. Requirements: - `timepoint` must be in the past. If operating using block numbers, the block must be already mined."
      },
      "getVotes(address)": {
        "details": "Returns the current amount of votes that `account` has."
      },
      "isApprovedForAll(address,address)": {
        "details": "See {IERC721-isApprovedForAll}."
      },
      "name()": {
        "details": "See {IERC721Metadata-name}."
      },
      "nonces(address)": {
        "details": "Returns an address nonce."
      },
      "owner()": {
        "details": "Returns the address of the current owner."
      },
      "ownerOf(uint256)": {
        "details": "See {IERC721-ownerOf}."
      },
      "renounceOwnership()": {
        "details": "Leaves the contract without owner. It will not be possible to call `onlyOwner` functions. Can only be called by the current owner. NOTE: Renouncing ownership will leave the contract without an owner, thereby disabling any functionality that is only available to the owner."
      },
      "safeTransferFrom(address,address,uint256)": {
        "details": "See {IERC721-safeTransferFrom}."
      },
      "safeTransferFrom(address,address,uint256,bytes)": {
        "details": "See {IERC721-safeTransferFrom}."
      },
      "sendBatchFrom(address,uint16,bytes,uint256[],address,address,bytes)": {
        "details": "send tokens `_tokenIds[]` to (`_dstChainId`, `_toAddress`) from `_from` `_toAddress` can be any size depending on the `dstChainId`. `_zroPaymentAddress` set to address(0x0) if not paying in ZRO (LayerZero Token) `_adapterParams` is a flexible bytes array to indicate messaging adapter services"
      },
      "sendFrom(address,uint16,bytes,uint256,address,address,bytes)": {
        "details": "send token `_tokenId` to (`_dstChainId`, `_toAddress`) from `_from` `_toAddress` can be any size depending on the `dstChainId`. `_zroPaymentAddress` set to address(0x0) if not paying in ZRO (LayerZero Token) `_adapterParams` is a flexible bytes array to indicate messaging adapter services"
      },
      "setApprovalForAll(address,bool)": {
        "details": "See {IERC721-setApprovalForAll}."
      },
      "symbol()": {
        "details": "See {IERC721Metadata-symbol}."
      },
      "tokenURI(uint256)": {
        "details": "See {IERC721Metadata-tokenURI}."
      },
      "transferFrom(address,address,uint256)": {
        "details": "See {IERC721-transferFrom}."
      },
      "transferOwnership(address)": {
        "details": "Transfers ownership of the contract to a new account (`newOwner`). Can only be called by the current owner."
      }
    },
    "stateVariables": {
      "__gap": {
        "details": "This empty reserved space is put in place to allow future versions to add new variables without shifting down storage in the inheritance chain. See https://docs.openzeppelin.com/contracts/4.x/upgradeable#storage_gaps"
      }
    },
    "version": 1
  },
  "userdoc": {
    "kind": "user",
    "methods": {},
    "version": 1
  },
  "storageLayout": {
    "storage": [
      {
        "astId": 909,
        "contract": "contracts/mocks/MockErc721CrossChainV2.sol:MockErc721CrossChainV2",
        "label": "_initialized",
        "offset": 0,
        "slot": "0",
        "type": "t_uint8"
      },
      {
        "astId": 912,
        "contract": "contracts/mocks/MockErc721CrossChainV2.sol:MockErc721CrossChainV2",
        "label": "_initializing",
        "offset": 1,
        "slot": "0",
        "type": "t_bool"
      },
      {
        "astId": 4169,
        "contract": "contracts/mocks/MockErc721CrossChainV2.sol:MockErc721CrossChainV2",
        "label": "__gap",
        "offset": 0,
        "slot": "1",
        "type": "t_array(t_uint256)50_storage"
      },
      {
        "astId": 83,
        "contract": "contracts/mocks/MockErc721CrossChainV2.sol:MockErc721CrossChainV2",
        "label": "_owner",
        "offset": 0,
        "slot": "51",
        "type": "t_address"
      },
      {
        "astId": 203,
        "contract": "contracts/mocks/MockErc721CrossChainV2.sol:MockErc721CrossChainV2",
        "label": "__gap",
        "offset": 0,
        "slot": "52",
        "type": "t_array(t_uint256)49_storage"
      },
      {
        "astId": 7968,
        "contract": "contracts/mocks/MockErc721CrossChainV2.sol:MockErc721CrossChainV2",
        "label": "lzEndpoint",
        "offset": 0,
        "slot": "101",
        "type": "t_contract(ILayerZeroEndpointUpgradeable)7881"
      },
      {
        "astId": 7972,
        "contract": "contracts/mocks/MockErc721CrossChainV2.sol:MockErc721CrossChainV2",
        "label": "trustedRemoteLookup",
        "offset": 0,
        "slot": "102",
        "type": "t_mapping(t_uint16,t_bytes_storage)"
      },
      {
        "astId": 7978,
        "contract": "contracts/mocks/MockErc721CrossChainV2.sol:MockErc721CrossChainV2",
        "label": "minDstGasLookup",
        "offset": 0,
        "slot": "103",
        "type": "t_mapping(t_uint16,t_mapping(t_uint16,t_uint256))"
      },
      {
        "astId": 7982,
        "contract": "contracts/mocks/MockErc721CrossChainV2.sol:MockErc721CrossChainV2",
        "label": "payloadSizeLimitLookup",
        "offset": 0,
        "slot": "104",
        "type": "t_mapping(t_uint16,t_uint256)"
      },
      {
        "astId": 7984,
        "contract": "contracts/mocks/MockErc721CrossChainV2.sol:MockErc721CrossChainV2",
        "label": "precrime",
        "offset": 0,
        "slot": "105",
        "type": "t_address"
      },
      {
        "astId": 8518,
        "contract": "contracts/mocks/MockErc721CrossChainV2.sol:MockErc721CrossChainV2",
        "label": "__gap",
        "offset": 0,
        "slot": "106",
        "type": "t_array(t_uint256)45_storage"
      },
      {
        "astId": 8567,
        "contract": "contracts/mocks/MockErc721CrossChainV2.sol:MockErc721CrossChainV2",
        "label": "failedMessages",
        "offset": 0,
        "slot": "151",
        "type": "t_mapping(t_uint16,t_mapping(t_bytes_memory_ptr,t_mapping(t_uint64,t_bytes32)))"
      },
      {
        "astId": 8786,
        "contract": "contracts/mocks/MockErc721CrossChainV2.sol:MockErc721CrossChainV2",
        "label": "__gap",
        "offset": 0,
        "slot": "152",
        "type": "t_array(t_uint256)49_storage"
      },
      {
        "astId": 10621,
        "contract": "contracts/mocks/MockErc721CrossChainV2.sol:MockErc721CrossChainV2",
        "label": "ACCESS_CONTROL_SINGLETON",
        "offset": 0,
        "slot": "201",
        "type": "t_contract(ISuAccessControl)10831"
      },
      {
        "astId": 5166,
        "contract": "contracts/mocks/MockErc721CrossChainV2.sol:MockErc721CrossChainV2",
        "label": "__gap",
        "offset": 0,
        "slot": "202",
        "type": "t_array(t_uint256)50_storage"
      },
      {
        "astId": 8954,
        "contract": "contracts/mocks/MockErc721CrossChainV2.sol:MockErc721CrossChainV2",
        "label": "minGasToTransferAndStore",
        "offset": 0,
        "slot": "252",
        "type": "t_uint256"
      },
      {
        "astId": 8958,
        "contract": "contracts/mocks/MockErc721CrossChainV2.sol:MockErc721CrossChainV2",
        "label": "dstChainIdToBatchLimit",
        "offset": 0,
        "slot": "253",
        "type": "t_mapping(t_uint16,t_uint256)"
      },
      {
        "astId": 8962,
        "contract": "contracts/mocks/MockErc721CrossChainV2.sol:MockErc721CrossChainV2",
        "label": "dstChainIdToTransferGas",
        "offset": 0,
        "slot": "254",
        "type": "t_mapping(t_uint16,t_uint256)"
      },
      {
        "astId": 8967,
        "contract": "contracts/mocks/MockErc721CrossChainV2.sol:MockErc721CrossChainV2",
        "label": "storedCredits",
        "offset": 0,
        "slot": "255",
        "type": "t_mapping(t_bytes32,t_struct(StoredCredit)8952_storage)"
      },
      {
        "astId": 9600,
        "contract": "contracts/mocks/MockErc721CrossChainV2.sol:MockErc721CrossChainV2",
        "label": "__gap",
        "offset": 0,
        "slot": "256",
        "type": "t_array(t_uint256)46_storage"
      },
      {
        "astId": 1100,
        "contract": "contracts/mocks/MockErc721CrossChainV2.sol:MockErc721CrossChainV2",
        "label": "_name",
        "offset": 0,
        "slot": "302",
        "type": "t_string_storage"
      },
      {
        "astId": 1102,
        "contract": "contracts/mocks/MockErc721CrossChainV2.sol:MockErc721CrossChainV2",
        "label": "_symbol",
        "offset": 0,
        "slot": "303",
        "type": "t_string_storage"
      },
      {
        "astId": 1106,
        "contract": "contracts/mocks/MockErc721CrossChainV2.sol:MockErc721CrossChainV2",
        "label": "_owners",
        "offset": 0,
        "slot": "304",
        "type": "t_mapping(t_uint256,t_address)"
      },
      {
        "astId": 1110,
        "contract": "contracts/mocks/MockErc721CrossChainV2.sol:MockErc721CrossChainV2",
        "label": "_balances",
        "offset": 0,
        "slot": "305",
        "type": "t_mapping(t_address,t_uint256)"
      },
      {
        "astId": 1114,
        "contract": "contracts/mocks/MockErc721CrossChainV2.sol:MockErc721CrossChainV2",
        "label": "_tokenApprovals",
        "offset": 0,
        "slot": "306",
        "type": "t_mapping(t_uint256,t_address)"
      },
      {
        "astId": 1120,
        "contract": "contracts/mocks/MockErc721CrossChainV2.sol:MockErc721CrossChainV2",
        "label": "_operatorApprovals",
        "offset": 0,
        "slot": "307",
        "type": "t_mapping(t_address,t_mapping(t_address,t_bool))"
      },
      {
        "astId": 2022,
        "contract": "contracts/mocks/MockErc721CrossChainV2.sol:MockErc721CrossChainV2",
        "label": "__gap",
        "offset": 0,
        "slot": "308",
        "type": "t_array(t_uint256)44_storage"
      },
      {
        "astId": 9779,
        "contract": "contracts/mocks/MockErc721CrossChainV2.sol:MockErc721CrossChainV2",
        "label": "__gap",
        "offset": 0,
        "slot": "352",
        "type": "t_array(t_uint256)50_storage"
      },
      {
        "astId": 4857,
        "contract": "contracts/mocks/MockErc721CrossChainV2.sol:MockErc721CrossChainV2",
        "label": "_hashedName",
        "offset": 0,
        "slot": "402",
        "type": "t_bytes32"
      },
      {
        "astId": 4860,
        "contract": "contracts/mocks/MockErc721CrossChainV2.sol:MockErc721CrossChainV2",
        "label": "_hashedVersion",
        "offset": 0,
        "slot": "403",
        "type": "t_bytes32"
      },
      {
        "astId": 4862,
        "contract": "contracts/mocks/MockErc721CrossChainV2.sol:MockErc721CrossChainV2",
        "label": "_name",
        "offset": 0,
        "slot": "404",
        "type": "t_string_storage"
      },
      {
        "astId": 4864,
        "contract": "contracts/mocks/MockErc721CrossChainV2.sol:MockErc721CrossChainV2",
        "label": "_version",
        "offset": 0,
        "slot": "405",
        "type": "t_string_storage"
      },
      {
        "astId": 5122,
        "contract": "contracts/mocks/MockErc721CrossChainV2.sol:MockErc721CrossChainV2",
        "label": "__gap",
        "offset": 0,
        "slot": "406",
        "type": "t_array(t_uint256)48_storage"
      },
      {
        "astId": 328,
        "contract": "contracts/mocks/MockErc721CrossChainV2.sol:MockErc721CrossChainV2",
        "label": "_delegation",
        "offset": 0,
        "slot": "454",
        "type": "t_mapping(t_address,t_address)"
      },
      {
        "astId": 334,
        "contract": "contracts/mocks/MockErc721CrossChainV2.sol:MockErc721CrossChainV2",
        "label": "_delegateCheckpoints",
        "offset": 0,
        "slot": "455",
        "type": "t_mapping(t_address,t_struct(Trace224)3128_storage)"
      },
      {
        "astId": 338,
        "contract": "contracts/mocks/MockErc721CrossChainV2.sol:MockErc721CrossChainV2",
        "label": "_totalCheckpoints",
        "offset": 0,
        "slot": "456",
        "type": "t_struct(Trace224)3128_storage"
      },
      {
        "astId": 343,
        "contract": "contracts/mocks/MockErc721CrossChainV2.sol:MockErc721CrossChainV2",
        "label": "_nonces",
        "offset": 0,
        "slot": "457",
        "type": "t_mapping(t_address,t_struct(Counter)4176_storage)"
      },
      {
        "astId": 852,
        "contract": "contracts/mocks/MockErc721CrossChainV2.sol:MockErc721CrossChainV2",
        "label": "__gap",
        "offset": 0,
        "slot": "458",
        "type": "t_array(t_uint256)46_storage"
      },
      {
        "astId": 2229,
        "contract": "contracts/mocks/MockErc721CrossChainV2.sol:MockErc721CrossChainV2",
        "label": "__gap",
        "offset": 0,
        "slot": "504",
        "type": "t_array(t_uint256)50_storage"
      },
      {
        "astId": 10226,
        "contract": "contracts/mocks/MockErc721CrossChainV2.sol:MockErc721CrossChainV2",
        "label": "hasMinted",
        "offset": 0,
        "slot": "554",
        "type": "t_mapping(t_address,t_bool)"
      },
      {
        "astId": 10228,
        "contract": "contracts/mocks/MockErc721CrossChainV2.sol:MockErc721CrossChainV2",
        "label": "baseURI",
        "offset": 0,
        "slot": "555",
        "type": "t_string_storage"
      },
      {
        "astId": 10230,
        "contract": "contracts/mocks/MockErc721CrossChainV2.sol:MockErc721CrossChainV2",
        "label": "nextMintId",
        "offset": 0,
        "slot": "556",
        "type": "t_uint256"
      },
      {
        "astId": 10232,
        "contract": "contracts/mocks/MockErc721CrossChainV2.sol:MockErc721CrossChainV2",
        "label": "maxMintId",
        "offset": 0,
        "slot": "557",
        "type": "t_uint256"
      },
      {
        "astId": 10234,
        "contract": "contracts/mocks/MockErc721CrossChainV2.sol:MockErc721CrossChainV2",
        "label": "backendSigner",
        "offset": 0,
        "slot": "558",
        "type": "t_address"
      },
      {
        "astId": 10456,
        "contract": "contracts/mocks/MockErc721CrossChainV2.sol:MockErc721CrossChainV2",
        "label": "__gap",
        "offset": 0,
        "slot": "559",
        "type": "t_array(t_uint256)50_storage"
      }
    ],
    "types": {
      "t_address": {
        "encoding": "inplace",
        "label": "address",
        "numberOfBytes": "20"
      },
      "t_array(t_struct(Checkpoint224)3133_storage)dyn_storage": {
        "base": "t_struct(Checkpoint224)3133_storage",
        "encoding": "dynamic_array",
        "label": "struct CheckpointsUpgradeable.Checkpoint224[]",
        "numberOfBytes": "32"
      },
      "t_array(t_uint256)44_storage": {
        "base": "t_uint256",
        "encoding": "inplace",
        "label": "uint256[44]",
        "numberOfBytes": "1408"
      },
      "t_array(t_uint256)45_storage": {
        "base": "t_uint256",
        "encoding": "inplace",
        "label": "uint256[45]",
        "numberOfBytes": "1440"
      },
      "t_array(t_uint256)46_storage": {
        "base": "t_uint256",
        "encoding": "inplace",
        "label": "uint256[46]",
        "numberOfBytes": "1472"
      },
      "t_array(t_uint256)48_storage": {
        "base": "t_uint256",
        "encoding": "inplace",
        "label": "uint256[48]",
        "numberOfBytes": "1536"
      },
      "t_array(t_uint256)49_storage": {
        "base": "t_uint256",
        "encoding": "inplace",
        "label": "uint256[49]",
        "numberOfBytes": "1568"
      },
      "t_array(t_uint256)50_storage": {
        "base": "t_uint256",
        "encoding": "inplace",
        "label": "uint256[50]",
        "numberOfBytes": "1600"
      },
      "t_bool": {
        "encoding": "inplace",
        "label": "bool",
        "numberOfBytes": "1"
      },
      "t_bytes32": {
        "encoding": "inplace",
        "label": "bytes32",
        "numberOfBytes": "32"
      },
      "t_bytes_memory_ptr": {
        "encoding": "bytes",
        "label": "bytes",
        "numberOfBytes": "32"
      },
      "t_bytes_storage": {
        "encoding": "bytes",
        "label": "bytes",
        "numberOfBytes": "32"
      },
      "t_contract(ILayerZeroEndpointUpgradeable)7881": {
        "encoding": "inplace",
        "label": "contract ILayerZeroEndpointUpgradeable",
        "numberOfBytes": "20"
      },
      "t_contract(ISuAccessControl)10831": {
        "encoding": "inplace",
        "label": "contract ISuAccessControl",
        "numberOfBytes": "20"
      },
      "t_mapping(t_address,t_address)": {
        "encoding": "mapping",
        "key": "t_address",
        "label": "mapping(address => address)",
        "numberOfBytes": "32",
        "value": "t_address"
      },
      "t_mapping(t_address,t_bool)": {
        "encoding": "mapping",
        "key": "t_address",
        "label": "mapping(address => bool)",
        "numberOfBytes": "32",
        "value": "t_bool"
      },
      "t_mapping(t_address,t_mapping(t_address,t_bool))": {
        "encoding": "mapping",
        "key": "t_address",
        "label": "mapping(address => mapping(address => bool))",
        "numberOfBytes": "32",
        "value": "t_mapping(t_address,t_bool)"
      },
      "t_mapping(t_address,t_struct(Counter)4176_storage)": {
        "encoding": "mapping",
        "key": "t_address",
        "label": "mapping(address => struct CountersUpgradeable.Counter)",
        "numberOfBytes": "32",
        "value": "t_struct(Counter)4176_storage"
      },
      "t_mapping(t_address,t_struct(Trace224)3128_storage)": {
        "encoding": "mapping",
        "key": "t_address",
        "label": "mapping(address => struct CheckpointsUpgradeable.Trace224)",
        "numberOfBytes": "32",
        "value": "t_struct(Trace224)3128_storage"
      },
      "t_mapping(t_address,t_uint256)": {
        "encoding": "mapping",
        "key": "t_address",
        "label": "mapping(address => uint256)",
        "numberOfBytes": "32",
        "value": "t_uint256"
      },
      "t_mapping(t_bytes32,t_struct(StoredCredit)8952_storage)": {
        "encoding": "mapping",
        "key": "t_bytes32",
        "label": "mapping(bytes32 => struct ONFT721CoreUpgradeable.StoredCredit)",
        "numberOfBytes": "32",
        "value": "t_struct(StoredCredit)8952_storage"
      },
      "t_mapping(t_bytes_memory_ptr,t_mapping(t_uint64,t_bytes32))": {
        "encoding": "mapping",
        "key": "t_bytes_memory_ptr",
        "label": "mapping(bytes => mapping(uint64 => bytes32))",
        "numberOfBytes": "32",
        "value": "t_mapping(t_uint64,t_bytes32)"
      },
      "t_mapping(t_uint16,t_bytes_storage)": {
        "encoding": "mapping",
        "key": "t_uint16",
        "label": "mapping(uint16 => bytes)",
        "numberOfBytes": "32",
        "value": "t_bytes_storage"
      },
      "t_mapping(t_uint16,t_mapping(t_bytes_memory_ptr,t_mapping(t_uint64,t_bytes32)))": {
        "encoding": "mapping",
        "key": "t_uint16",
        "label": "mapping(uint16 => mapping(bytes => mapping(uint64 => bytes32)))",
        "numberOfBytes": "32",
        "value": "t_mapping(t_bytes_memory_ptr,t_mapping(t_uint64,t_bytes32))"
      },
      "t_mapping(t_uint16,t_mapping(t_uint16,t_uint256))": {
        "encoding": "mapping",
        "key": "t_uint16",
        "label": "mapping(uint16 => mapping(uint16 => uint256))",
        "numberOfBytes": "32",
        "value": "t_mapping(t_uint16,t_uint256)"
      },
      "t_mapping(t_uint16,t_uint256)": {
        "encoding": "mapping",
        "key": "t_uint16",
        "label": "mapping(uint16 => uint256)",
        "numberOfBytes": "32",
        "value": "t_uint256"
      },
      "t_mapping(t_uint256,t_address)": {
        "encoding": "mapping",
        "key": "t_uint256",
        "label": "mapping(uint256 => address)",
        "numberOfBytes": "32",
        "value": "t_address"
      },
      "t_mapping(t_uint64,t_bytes32)": {
        "encoding": "mapping",
        "key": "t_uint64",
        "label": "mapping(uint64 => bytes32)",
        "numberOfBytes": "32",
        "value": "t_bytes32"
      },
      "t_string_storage": {
        "encoding": "bytes",
        "label": "string",
        "numberOfBytes": "32"
      },
      "t_struct(Checkpoint224)3133_storage": {
        "encoding": "inplace",
        "label": "struct CheckpointsUpgradeable.Checkpoint224",
        "members": [
          {
            "astId": 3130,
            "contract": "contracts/mocks/MockErc721CrossChainV2.sol:MockErc721CrossChainV2",
            "label": "_key",
            "offset": 0,
            "slot": "0",
            "type": "t_uint32"
          },
          {
            "astId": 3132,
            "contract": "contracts/mocks/MockErc721CrossChainV2.sol:MockErc721CrossChainV2",
            "label": "_value",
            "offset": 4,
            "slot": "0",
            "type": "t_uint224"
          }
        ],
        "numberOfBytes": "32"
      },
      "t_struct(Counter)4176_storage": {
        "encoding": "inplace",
        "label": "struct CountersUpgradeable.Counter",
        "members": [
          {
            "astId": 4175,
            "contract": "contracts/mocks/MockErc721CrossChainV2.sol:MockErc721CrossChainV2",
            "label": "_value",
            "offset": 0,
            "slot": "0",
            "type": "t_uint256"
          }
        ],
        "numberOfBytes": "32"
      },
      "t_struct(StoredCredit)8952_storage": {
        "encoding": "inplace",
        "label": "struct ONFT721CoreUpgradeable.StoredCredit",
        "members": [
          {
            "astId": 8945,
            "contract": "contracts/mocks/MockErc721CrossChainV2.sol:MockErc721CrossChainV2",
            "label": "srcChainId",
            "offset": 0,
            "slot": "0",
            "type": "t_uint16"
          },
          {
            "astId": 8947,
            "contract": "contracts/mocks/MockErc721CrossChainV2.sol:MockErc721CrossChainV2",
            "label": "toAddress",
            "offset": 2,
            "slot": "0",
            "type": "t_address"
          },
          {
            "astId": 8949,
            "contract": "contracts/mocks/MockErc721CrossChainV2.sol:MockErc721CrossChainV2",
            "label": "index",
            "offset": 0,
            "slot": "1",
            "type": "t_uint256"
          },
          {
            "astId": 8951,
            "contract": "contracts/mocks/MockErc721CrossChainV2.sol:MockErc721CrossChainV2",
            "label": "creditsRemain",
            "offset": 0,
            "slot": "2",
            "type": "t_bool"
          }
        ],
        "numberOfBytes": "96"
      },
      "t_struct(Trace224)3128_storage": {
        "encoding": "inplace",
        "label": "struct CheckpointsUpgradeable.Trace224",
        "members": [
          {
            "astId": 3127,
            "contract": "contracts/mocks/MockErc721CrossChainV2.sol:MockErc721CrossChainV2",
            "label": "_checkpoints",
            "offset": 0,
            "slot": "0",
            "type": "t_array(t_struct(Checkpoint224)3133_storage)dyn_storage"
          }
        ],
        "numberOfBytes": "32"
      },
      "t_uint16": {
        "encoding": "inplace",
        "label": "uint16",
        "numberOfBytes": "2"
      },
      "t_uint224": {
        "encoding": "inplace",
        "label": "uint224",
        "numberOfBytes": "28"
      },
      "t_uint256": {
        "encoding": "inplace",
        "label": "uint256",
        "numberOfBytes": "32"
      },
      "t_uint32": {
        "encoding": "inplace",
        "label": "uint32",
        "numberOfBytes": "4"
      },
      "t_uint64": {
        "encoding": "inplace",
        "label": "uint64",
        "numberOfBytes": "8"
      },
      "t_uint8": {
        "encoding": "inplace",
        "label": "uint8",
        "numberOfBytes": "1"
      }
    }
  }
}