{
  "address": "0x0288BD8496254515Ec19845AfC19DC6996Dbdff9",
  "abi": [
    {
      "inputs": [],
      "name": "BadAccessControlSingleton",
      "type": "error"
    },
    {
      "inputs": [],
      "name": "NoContractRewardLeft",
      "type": "error"
    },
    {
      "inputs": [],
      "name": "OnlyAdminError",
      "type": "error"
    },
    {
      "inputs": [],
      "name": "OnlyAlerterError",
      "type": "error"
    },
    {
      "inputs": [],
      "name": "OnlyDAOError",
      "type": "error"
    },
    {
      "inputs": [],
      "name": "OnlyLiquidationAccessError",
      "type": "error"
    },
    {
      "inputs": [],
      "name": "OnlyMintAccessError",
      "type": "error"
    },
    {
      "inputs": [],
      "name": "OnlyRewardAccessError",
      "type": "error"
    },
    {
      "inputs": [],
      "name": "OnlyRoleError",
      "type": "error"
    },
    {
      "inputs": [],
      "name": "OnlyVaultAccessError",
      "type": "error"
    },
    {
      "anonymous": false,
      "inputs": [
        {
          "indexed": false,
          "internalType": "uint8",
          "name": "version",
          "type": "uint8"
        }
      ],
      "name": "Initialized",
      "type": "event"
    },
    {
      "anonymous": false,
      "inputs": [
        {
          "indexed": false,
          "internalType": "address",
          "name": "account",
          "type": "address"
        },
        {
          "indexed": false,
          "internalType": "uint256",
          "name": "donationAmount",
          "type": "uint256"
        }
      ],
      "name": "Participated",
      "type": "event"
    },
    {
      "inputs": [],
      "name": "ACCESS_CONTROL_SINGLETON",
      "outputs": [
        {
          "internalType": "contract ISuAccessControl",
          "name": "",
          "type": "address"
        }
      ],
      "stateMutability": "view",
      "type": "function"
    },
    {
      "inputs": [],
      "name": "ADMIN_ROLE",
      "outputs": [
        {
          "internalType": "bytes32",
          "name": "",
          "type": "bytes32"
        }
      ],
      "stateMutability": "view",
      "type": "function"
    },
    {
      "inputs": [],
      "name": "ALERTER_ROLE",
      "outputs": [
        {
          "internalType": "bytes32",
          "name": "",
          "type": "bytes32"
        }
      ],
      "stateMutability": "view",
      "type": "function"
    },
    {
      "inputs": [],
      "name": "DAO_ROLE",
      "outputs": [
        {
          "internalType": "bytes32",
          "name": "",
          "type": "bytes32"
        }
      ],
      "stateMutability": "view",
      "type": "function"
    },
    {
      "inputs": [],
      "name": "LIQUIDATION_ACCESS_ROLE",
      "outputs": [
        {
          "internalType": "bytes32",
          "name": "",
          "type": "bytes32"
        }
      ],
      "stateMutability": "view",
      "type": "function"
    },
    {
      "inputs": [],
      "name": "MINT_ACCESS_ROLE",
      "outputs": [
        {
          "internalType": "bytes32",
          "name": "",
          "type": "bytes32"
        }
      ],
      "stateMutability": "view",
      "type": "function"
    },
    {
      "inputs": [],
      "name": "REWARD_ACCESS_ROLE",
      "outputs": [
        {
          "internalType": "bytes32",
          "name": "",
          "type": "bytes32"
        }
      ],
      "stateMutability": "view",
      "type": "function"
    },
    {
      "inputs": [],
      "name": "SU_DAO",
      "outputs": [
        {
          "internalType": "contract IERC20Upgradeable",
          "name": "",
          "type": "address"
        }
      ],
      "stateMutability": "view",
      "type": "function"
    },
    {
      "inputs": [],
      "name": "SU_DAO_LEGACY",
      "outputs": [
        {
          "internalType": "contract IERC20Upgradeable",
          "name": "",
          "type": "address"
        }
      ],
      "stateMutability": "view",
      "type": "function"
    },
    {
      "inputs": [],
      "name": "SYSTEM_ROLE",
      "outputs": [
        {
          "internalType": "bytes32",
          "name": "",
          "type": "bytes32"
        }
      ],
      "stateMutability": "view",
      "type": "function"
    },
    {
      "inputs": [],
      "name": "VAULT_ACCESS_ROLE",
      "outputs": [
        {
          "internalType": "bytes32",
          "name": "",
          "type": "bytes32"
        }
      ],
      "stateMutability": "view",
      "type": "function"
    },
    {
      "inputs": [],
      "name": "VE_ERC_20",
      "outputs": [
        {
          "internalType": "contract IveERC20v2",
          "name": "",
          "type": "address"
        }
      ],
      "stateMutability": "view",
      "type": "function"
    },
    {
      "inputs": [
        {
          "internalType": "contract IERC20Upgradeable",
          "name": "token",
          "type": "address"
        }
      ],
      "name": "adminWithdraw",
      "outputs": [],
      "stateMutability": "nonpayable",
      "type": "function"
    },
    {
      "inputs": [
        {
          "internalType": "address",
          "name": "_accessControlSingleton",
          "type": "address"
        },
        {
          "internalType": "address",
          "name": "_suDaoOld",
          "type": "address"
        },
        {
          "internalType": "address",
          "name": "_suDaoNew",
          "type": "address"
        },
        {
          "internalType": "address",
          "name": "_veErc20",
          "type": "address"
        }
      ],
      "name": "initialize",
      "outputs": [],
      "stateMutability": "nonpayable",
      "type": "function"
    },
    {
      "inputs": [
        {
          "internalType": "uint256",
          "name": "donationAmount",
          "type": "uint256"
        }
      ],
      "name": "participate",
      "outputs": [],
      "stateMutability": "payable",
      "type": "function"
    },
    {
      "inputs": [
        {
          "internalType": "bytes4",
          "name": "interfaceId",
          "type": "bytes4"
        }
      ],
      "name": "supportsInterface",
      "outputs": [
        {
          "internalType": "bool",
          "name": "",
          "type": "bool"
        }
      ],
      "stateMutability": "view",
      "type": "function"
    },
    {
      "stateMutability": "payable",
      "type": "receive"
    }
  ],
  "numDeployments": 1,
  "solcInputHash": "a74e30bb844720d1485a32b7747b45a7",
  "bytecode": "0x608060405234801561001057600080fd5b50610f0a806100206000396000f3fe6080604052600436106100c75760003560e01c806301ffc9a7146100d357806303ee9f221461010857806314c376dc1461013b5780632dc12e381461017d578063438280dd1461019d57806371d0fb41146101d157806375071d2a1461020557806375b238fc14610239578063845c93061461024e5780638e5313e014610263578063a28835b614610297578063b5b8a68a146102b7578063dc4eff7e146102d7578063dc97e84e146102f7578063e9c265181461032b578063f8c8765e1461035f57600080fd5b366100ce57005b600080fd5b3480156100df57600080fd5b506100f36100ee366004610cc5565b61037f565b60405190151581526020015b60405180910390f35b34801561011457600080fd5b5060005461012e906201000090046001600160a01b031681565b6040516100ff9190610cf6565b34801561014757600080fd5b5061016f7fe965846df3dd5b1dfa65f58e31477079e90140e0908b6dd31b5aead5a57cf36581565b6040519081526020016100ff565b34801561018957600080fd5b5060035461012e906001600160a01b031681565b3480156101a957600080fd5b5061016f7f39f61ca2a1a28fee144218173ec637b649a353e4026b2738c673800e5bf1437b81565b3480156101dd57600080fd5b5061016f7f880a91047114272656e533301261260c75e4d11543ac7303d6fe4204579ec72781565b34801561021157600080fd5b5061016f7f5719df9ef2c4678b547f89e4f5ae410dbf400fc51cf3ded434c55f6adea2c43f81565b34801561024557600080fd5b5061016f600081565b61026161025c366004610d0a565b6103fc565b005b34801561026f57600080fd5b5061016f7fe453bacb314e78dcd5192e6b1a2b1f0e7c76e92f6b7e429a6a90f04e39db3b7681565b3480156102a357600080fd5b506102616102b2366004610d38565b61056b565b3480156102c357600080fd5b5060015461012e906001600160a01b031681565b3480156102e357600080fd5b5060025461012e906001600160a01b031681565b34801561030357600080fd5b5061016f7f9a9aef7c1247d5fc769b0185c052913e39673da29a880317dfd20ebf86f26a4981565b34801561033757600080fd5b5061016f7f3b5d4cc60d3ec3516ee8ae083bd60934f6eb2a6c54b1229985c41bfb092b260381565b34801561036b57600080fd5b5061026161037a366004610d55565b6106c6565b600080546040516301ffc9a760e01b8152620100009091046001600160a01b0316906301ffc9a7906103b5908590600401610db1565b602060405180830381865afa1580156103d2573d6000803e3d6000fd5b505050506040513d601f19601f820116820180604052508101906103f69190610dc6565b92915050565b6000601561040b836064610de8565b610416906010610de8565b6104209190610e0d565b60035490915061043b906001600160a01b0316333085610890565b6002546040516370a0823160e01b815282916001600160a01b0316906370a082319061046b903090600401610cf6565b602060405180830381865afa158015610488573d6000803e3d6000fd5b505050506040513d601f19601f820116820180604052508101906104ac9190610e2f565b10156104ca57604051620da27160e61b815260040160405180910390fd5b600154604051633c14516d60e01b81526001600160a01b0390911690633c14516d906104fc9033908590600401610e48565b600060405180830381600087803b15801561051657600080fd5b505af115801561052a573d6000803e3d6000fd5b505050507fb198f199c43cc078ad46e5a5fabe03eba401f7417816c86af0bd2e7345c99506338360405161055f929190610e48565b60405180910390a15050565b60008054604051632474521560e21b815260048101839052336024820152620100009091046001600160a01b0316906391d1485490604401602060405180830381865afa1580156105c0573d6000803e3d6000fd5b505050506040513d601f19601f820116820180604052508101906105e49190610dc6565b61060157604051632f33a5b560e01b815260040160405180910390fd5b6001600160a01b0382166106405760405133904780156108fc02916000818181858888f1935050505015801561063b573d6000803e3d6000fd5b505050565b6106c233836001600160a01b03166370a08231306040518263ffffffff1660e01b81526004016106709190610cf6565b602060405180830381865afa15801561068d573d6000803e3d6000fd5b505050506040513d601f19601f820116820180604052508101906106b19190610e2f565b6001600160a01b0385169190610901565b5050565b600054610100900460ff16158080156106e65750600054600160ff909116105b8061070757506106f530610920565b158015610707575060005460ff166001145b61076f5760405162461bcd60e51b815260206004820152602e60248201527f496e697469616c697a61626c653a20636f6e747261637420697320616c72656160448201526d191e481a5b9a5d1a585b1a5e995960921b60648201526084015b60405180910390fd5b6000805460ff191660011790558015610792576000805461ff0019166101001790555b61079b8561092f565b600380546001600160a01b038087166001600160a01b031992831617909255600280548684169083168117909155600180549386169390921692909217905560405163095ea7b360e01b815263095ea7b3906107ff90859060001990600401610e48565b6020604051808303816000875af115801561081e573d6000803e3d6000fd5b505050506040513d601f19601f820116820180604052508101906108429190610dc6565b508015610889576000805461ff0019169055604051600181527f7f26b83ff96e1f2b6a682f133852f6798a09c465da95921460cefb38474024989060200160405180910390a15b5050505050565b6040516001600160a01b03808516602483015283166044820152606481018290526108fb9085906323b872dd60e01b906084015b60408051601f198184030181529190526020810180516001600160e01b03166001600160e01b031990931692909217909152610a62565b50505050565b61063b8363a9059cbb60e01b84846040516024016108c4929190610e48565b6001600160a01b03163b151590565b600054610100900460ff1661099a5760405162461bcd60e51b815260206004820152602b60248201527f496e697469616c697a61626c653a20636f6e7472616374206973206e6f74206960448201526a6e697469616c697a696e6760a81b6064820152608401610766565b6000805462010000600160b01b031916620100006001600160a01b0384169081029190911790915515801590610a4157506040516301ffc9a760e01b81526001600160a01b038216906301ffc9a7906109fe90637965db0b60e01b90600401610db1565b602060405180830381865afa158015610a1b573d6000803e3d6000fd5b505050506040513d601f19601f82011682018060405250810190610a3f9190610dc6565b155b15610a5f576040516384d942fd60e01b815260040160405180910390fd5b50565b6000610ab7826040518060400160405280602081526020017f5361666545524332303a206c6f772d6c6576656c2063616c6c206661696c6564815250856001600160a01b0316610b379092919063ffffffff16565b9050805160001480610ad8575080806020019051810190610ad89190610dc6565b61063b5760405162461bcd60e51b815260206004820152602a60248201527f5361666545524332303a204552433230206f7065726174696f6e20646964206e6044820152691bdd081cdd58d8d9595960b21b6064820152608401610766565b6060610b468484600085610b4e565b949350505050565b606082471015610baf5760405162461bcd60e51b815260206004820152602660248201527f416464726573733a20696e73756666696369656e742062616c616e636520666f6044820152651c8818d85b1b60d21b6064820152608401610766565b600080866001600160a01b03168587604051610bcb9190610e85565b60006040518083038185875af1925050503d8060008114610c08576040519150601f19603f3d011682016040523d82523d6000602084013e610c0d565b606091505b5091509150610c1e87838387610c29565b979650505050505050565b60608315610c96578251600003610c8f57610c4385610920565b610c8f5760405162461bcd60e51b815260206004820152601d60248201527f416464726573733a2063616c6c20746f206e6f6e2d636f6e74726163740000006044820152606401610766565b5081610b46565b610b468383815115610cab5781518083602001fd5b8060405162461bcd60e51b81526004016107669190610ea1565b600060208284031215610cd757600080fd5b81356001600160e01b031981168114610cef57600080fd5b9392505050565b6001600160a01b0391909116815260200190565b600060208284031215610d1c57600080fd5b5035919050565b6001600160a01b0381168114610a5f57600080fd5b600060208284031215610d4a57600080fd5b8135610cef81610d23565b60008060008060808587031215610d6b57600080fd5b8435610d7681610d23565b93506020850135610d8681610d23565b92506040850135610d9681610d23565b91506060850135610da681610d23565b939692955090935050565b6001600160e01b031991909116815260200190565b600060208284031215610dd857600080fd5b81518015158114610cef57600080fd5b80820281158282048414176103f657634e487b7160e01b600052601160045260246000fd5b600082610e2a57634e487b7160e01b600052601260045260246000fd5b500490565b600060208284031215610e4157600080fd5b5051919050565b6001600160a01b03929092168252602082015260400190565b60005b83811015610e7c578181015183820152602001610e64565b50506000910152565b60008251610e97818460208701610e61565b9190910192915050565b6020815260008251806020840152610ec0816040850160208701610e61565b601f01601f1916919091016040019291505056fea2646970667358221220a48285af735664b2e423b85c69e5f30dbba43188e80ecbc859aeb2a66429611264736f6c63430008110033",
  "devdoc": {
    "kind": "dev",
    "methods": {
      "adminWithdraw(address)": {
        "details": "The owner can't take away SuDAO token already distributed to users, because they are stored on timelockVault"
      },
      "participate(uint256)": {
        "params": {
          "donationAmount": "The amount of SU_DAO tokens"
        }
      },
      "supportsInterface(bytes4)": {
        "details": "Returns true if this contract implements the interface defined by `interfaceId`. See the corresponding https://eips.ethereum.org/EIPS/eip-165#how-interfaces-are-identified[EIP section] to learn more about how these ids are created. This function call must use less than 30 000 gas."
      }
    },
    "title": "The contract that distribute suDAO tokens for community based on NFT membership",
    "version": 1
  },
  "userdoc": {
    "kind": "user",
    "methods": {
      "adminWithdraw(address)": {
        "notice": "The owner of the contact can take away tokens sent to the contract."
      },
      "participate(uint256)": {
        "notice": "Allows to participate for users with required NFT"
      }
    },
    "version": 1
  },
  "storageLayout": {
    "storage": [
      {
        "astId": 1504,
        "contract": "contracts/distributions/SuDAOUpgrader.sol:SuDAOUpgrader",
        "label": "_initialized",
        "offset": 0,
        "slot": "0",
        "type": "t_uint8"
      },
      {
        "astId": 1507,
        "contract": "contracts/distributions/SuDAOUpgrader.sol:SuDAOUpgrader",
        "label": "_initializing",
        "offset": 1,
        "slot": "0",
        "type": "t_bool"
      },
      {
        "astId": 54219,
        "contract": "contracts/distributions/SuDAOUpgrader.sol:SuDAOUpgrader",
        "label": "ACCESS_CONTROL_SINGLETON",
        "offset": 2,
        "slot": "0",
        "type": "t_contract(ISuAccessControl)58034"
      },
      {
        "astId": 51844,
        "contract": "contracts/distributions/SuDAOUpgrader.sol:SuDAOUpgrader",
        "label": "VE_ERC_20",
        "offset": 0,
        "slot": "1",
        "type": "t_contract(IveERC20v2)53564"
      },
      {
        "astId": 51847,
        "contract": "contracts/distributions/SuDAOUpgrader.sol:SuDAOUpgrader",
        "label": "SU_DAO",
        "offset": 0,
        "slot": "2",
        "type": "t_contract(IERC20Upgradeable)3779"
      },
      {
        "astId": 51850,
        "contract": "contracts/distributions/SuDAOUpgrader.sol:SuDAOUpgrader",
        "label": "SU_DAO_LEGACY",
        "offset": 0,
        "slot": "3",
        "type": "t_contract(IERC20Upgradeable)3779"
      },
      {
        "astId": 52013,
        "contract": "contracts/distributions/SuDAOUpgrader.sol:SuDAOUpgrader",
        "label": "__gap",
        "offset": 0,
        "slot": "4",
        "type": "t_array(t_uint256)48_storage"
      }
    ],
    "types": {
      "t_array(t_uint256)48_storage": {
        "base": "t_uint256",
        "encoding": "inplace",
        "label": "uint256[48]",
        "numberOfBytes": "1536"
      },
      "t_bool": {
        "encoding": "inplace",
        "label": "bool",
        "numberOfBytes": "1"
      },
      "t_contract(IERC20Upgradeable)3779": {
        "encoding": "inplace",
        "label": "contract IERC20Upgradeable",
        "numberOfBytes": "20"
      },
      "t_contract(ISuAccessControl)58034": {
        "encoding": "inplace",
        "label": "contract ISuAccessControl",
        "numberOfBytes": "20"
      },
      "t_contract(IveERC20v2)53564": {
        "encoding": "inplace",
        "label": "contract IveERC20v2",
        "numberOfBytes": "20"
      },
      "t_uint256": {
        "encoding": "inplace",
        "label": "uint256",
        "numberOfBytes": "32"
      },
      "t_uint8": {
        "encoding": "inplace",
        "label": "uint8",
        "numberOfBytes": "1"
      }
    }
  }
}