{
  "address": "0x7c0A3C89600A7ABB600A12AfE15dc27c5ebB35e8",
  "abi": [
    {
      "inputs": [],
      "name": "AlreadyMinted",
      "type": "error"
    },
    {
      "inputs": [],
      "name": "BadAccessControlSingleton",
      "type": "error"
    },
    {
      "inputs": [],
      "name": "FutureSignature",
      "type": "error"
    },
    {
      "inputs": [],
      "name": "InvalidSignature",
      "type": "error"
    },
    {
      "inputs": [],
      "name": "InvalidSignatureLength",
      "type": "error"
    },
    {
      "inputs": [],
      "name": "LzAppDestinationChainIsNotTrusted",
      "type": "error"
    },
    {
      "inputs": [],
      "name": "LzAppGasLimitIsTooLow",
      "type": "error"
    },
    {
      "inputs": [],
      "name": "LzAppInvalidAdapterParams",
      "type": "error"
    },
    {
      "inputs": [],
      "name": "LzAppInvalidEndpointCaller",
      "type": "error"
    },
    {
      "inputs": [],
      "name": "LzAppInvalidMinGas",
      "type": "error"
    },
    {
      "inputs": [],
      "name": "LzAppInvalidSourceSendingContract",
      "type": "error"
    },
    {
      "inputs": [],
      "name": "LzAppMinGasLimitNotSet",
      "type": "error"
    },
    {
      "inputs": [],
      "name": "LzAppNoTrustedPathRecord",
      "type": "error"
    },
    {
      "inputs": [],
      "name": "LzAppPayloadTooLarge",
      "type": "error"
    },
    {
      "inputs": [],
      "name": "MaxMintLimit",
      "type": "error"
    },
    {
      "inputs": [],
      "name": "NonPositiveDstChainIdToBatchLimit",
      "type": "error"
    },
    {
      "inputs": [],
      "name": "NonPositiveDstChainIdToTransferGas",
      "type": "error"
    },
    {
      "inputs": [],
      "name": "NonPositiveMinGasToTransferAndStore",
      "type": "error"
    },
    {
      "inputs": [],
      "name": "NonblockingLzAppCallerMustBeLzApp",
      "type": "error"
    },
    {
      "inputs": [],
      "name": "NonblockingLzAppInvalidPayload",
      "type": "error"
    },
    {
      "inputs": [],
      "name": "NonblockingLzAppNoStoredMessage",
      "type": "error"
    },
    {
      "inputs": [],
      "name": "ONFTBatchSizeLimit",
      "type": "error"
    },
    {
      "inputs": [],
      "name": "ONFTNoCreditsStored",
      "type": "error"
    },
    {
      "inputs": [],
      "name": "ONFTNotEnoughGas",
      "type": "error"
    },
    {
      "inputs": [],
      "name": "ONFTNotOwnerOrApproved",
      "type": "error"
    },
    {
      "inputs": [],
      "name": "ONFTSendFromIncorrectOwner",
      "type": "error"
    },
    {
      "inputs": [],
      "name": "OldSignature",
      "type": "error"
    },
    {
      "inputs": [],
      "name": "OnlyAdminError",
      "type": "error"
    },
    {
      "inputs": [],
      "name": "OnlyAlerterError",
      "type": "error"
    },
    {
      "inputs": [],
      "name": "OnlyDAOError",
      "type": "error"
    },
    {
      "inputs": [],
      "name": "OnlyLiquidationAccessError",
      "type": "error"
    },
    {
      "inputs": [],
      "name": "OnlyMintAccessError",
      "type": "error"
    },
    {
      "inputs": [],
      "name": "OnlyRewardAccessError",
      "type": "error"
    },
    {
      "inputs": [],
      "name": "OnlyRoleError",
      "type": "error"
    },
    {
      "inputs": [],
      "name": "OnlyVaultAccessError",
      "type": "error"
    },
    {
      "inputs": [],
      "name": "TokenIdsIsEmpty",
      "type": "error"
    },
    {
      "inputs": [],
      "name": "UnavailableFunctionalityError",
      "type": "error"
    },
    {
      "anonymous": false,
      "inputs": [
        {
          "indexed": true,
          "internalType": "address",
          "name": "owner",
          "type": "address"
        },
        {
          "indexed": true,
          "internalType": "address",
          "name": "approved",
          "type": "address"
        },
        {
          "indexed": true,
          "internalType": "uint256",
          "name": "tokenId",
          "type": "uint256"
        }
      ],
      "name": "Approval",
      "type": "event"
    },
    {
      "anonymous": false,
      "inputs": [
        {
          "indexed": true,
          "internalType": "address",
          "name": "owner",
          "type": "address"
        },
        {
          "indexed": true,
          "internalType": "address",
          "name": "operator",
          "type": "address"
        },
        {
          "indexed": false,
          "internalType": "bool",
          "name": "approved",
          "type": "bool"
        }
      ],
      "name": "ApprovalForAll",
      "type": "event"
    },
    {
      "anonymous": false,
      "inputs": [
        {
          "indexed": false,
          "internalType": "bytes32",
          "name": "_hashedPayload",
          "type": "bytes32"
        }
      ],
      "name": "CreditCleared",
      "type": "event"
    },
    {
      "anonymous": false,
      "inputs": [
        {
          "indexed": false,
          "internalType": "bytes32",
          "name": "_hashedPayload",
          "type": "bytes32"
        },
        {
          "indexed": false,
          "internalType": "bytes",
          "name": "_payload",
          "type": "bytes"
        }
      ],
      "name": "CreditStored",
      "type": "event"
    },
    {
      "anonymous": false,
      "inputs": [
        {
          "indexed": true,
          "internalType": "address",
          "name": "delegator",
          "type": "address"
        },
        {
          "indexed": true,
          "internalType": "address",
          "name": "fromDelegate",
          "type": "address"
        },
        {
          "indexed": true,
          "internalType": "address",
          "name": "toDelegate",
          "type": "address"
        }
      ],
      "name": "DelegateChanged",
      "type": "event"
    },
    {
      "anonymous": false,
      "inputs": [
        {
          "indexed": true,
          "internalType": "address",
          "name": "delegate",
          "type": "address"
        },
        {
          "indexed": false,
          "internalType": "uint256",
          "name": "previousBalance",
          "type": "uint256"
        },
        {
          "indexed": false,
          "internalType": "uint256",
          "name": "newBalance",
          "type": "uint256"
        }
      ],
      "name": "DelegateVotesChanged",
      "type": "event"
    },
    {
      "anonymous": false,
      "inputs": [],
      "name": "EIP712DomainChanged",
      "type": "event"
    },
    {
      "anonymous": false,
      "inputs": [
        {
          "indexed": false,
          "internalType": "uint8",
          "name": "version",
          "type": "uint8"
        }
      ],
      "name": "Initialized",
      "type": "event"
    },
    {
      "anonymous": false,
      "inputs": [
        {
          "indexed": false,
          "internalType": "uint16",
          "name": "_srcChainId",
          "type": "uint16"
        },
        {
          "indexed": false,
          "internalType": "bytes",
          "name": "_srcAddress",
          "type": "bytes"
        },
        {
          "indexed": false,
          "internalType": "uint64",
          "name": "_nonce",
          "type": "uint64"
        },
        {
          "indexed": false,
          "internalType": "bytes",
          "name": "_payload",
          "type": "bytes"
        },
        {
          "indexed": false,
          "internalType": "bytes",
          "name": "_reason",
          "type": "bytes"
        }
      ],
      "name": "MessageFailed",
      "type": "event"
    },
    {
      "anonymous": false,
      "inputs": [
        {
          "indexed": true,
          "internalType": "address",
          "name": "previousOwner",
          "type": "address"
        },
        {
          "indexed": true,
          "internalType": "address",
          "name": "newOwner",
          "type": "address"
        }
      ],
      "name": "OwnershipTransferred",
      "type": "event"
    },
    {
      "anonymous": false,
      "inputs": [
        {
          "indexed": true,
          "internalType": "uint16",
          "name": "_srcChainId",
          "type": "uint16"
        },
        {
          "indexed": true,
          "internalType": "bytes",
          "name": "_srcAddress",
          "type": "bytes"
        },
        {
          "indexed": true,
          "internalType": "address",
          "name": "_toAddress",
          "type": "address"
        },
        {
          "indexed": false,
          "internalType": "uint256[]",
          "name": "_tokenIds",
          "type": "uint256[]"
        }
      ],
      "name": "ReceiveFromChain",
      "type": "event"
    },
    {
      "anonymous": false,
      "inputs": [
        {
          "indexed": false,
          "internalType": "uint16",
          "name": "_srcChainId",
          "type": "uint16"
        },
        {
          "indexed": false,
          "internalType": "bytes",
          "name": "_srcAddress",
          "type": "bytes"
        },
        {
          "indexed": false,
          "internalType": "uint64",
          "name": "_nonce",
          "type": "uint64"
        },
        {
          "indexed": false,
          "internalType": "bytes32",
          "name": "_payloadHash",
          "type": "bytes32"
        }
      ],
      "name": "RetryMessageSuccess",
      "type": "event"
    },
    {
      "anonymous": false,
      "inputs": [
        {
          "indexed": true,
          "internalType": "uint16",
          "name": "_dstChainId",
          "type": "uint16"
        },
        {
          "indexed": true,
          "internalType": "address",
          "name": "_from",
          "type": "address"
        },
        {
          "indexed": true,
          "internalType": "bytes",
          "name": "_toAddress",
          "type": "bytes"
        },
        {
          "indexed": false,
          "internalType": "uint256[]",
          "name": "_tokenIds",
          "type": "uint256[]"
        }
      ],
      "name": "SendToChain",
      "type": "event"
    },
    {
      "anonymous": false,
      "inputs": [
        {
          "indexed": false,
          "internalType": "uint16",
          "name": "_dstChainId",
          "type": "uint16"
        },
        {
          "indexed": false,
          "internalType": "uint16",
          "name": "_type",
          "type": "uint16"
        },
        {
          "indexed": false,
          "internalType": "uint256",
          "name": "_minDstGas",
          "type": "uint256"
        }
      ],
      "name": "SetMinDstGas",
      "type": "event"
    },
    {
      "anonymous": false,
      "inputs": [
        {
          "indexed": false,
          "internalType": "address",
          "name": "precrime",
          "type": "address"
        }
      ],
      "name": "SetPrecrime",
      "type": "event"
    },
    {
      "anonymous": false,
      "inputs": [
        {
          "indexed": false,
          "internalType": "uint16",
          "name": "_remoteChainId",
          "type": "uint16"
        },
        {
          "indexed": false,
          "internalType": "bytes",
          "name": "_path",
          "type": "bytes"
        }
      ],
      "name": "SetTrustedRemote",
      "type": "event"
    },
    {
      "anonymous": false,
      "inputs": [
        {
          "indexed": false,
          "internalType": "uint16",
          "name": "_remoteChainId",
          "type": "uint16"
        },
        {
          "indexed": false,
          "internalType": "bytes",
          "name": "_remoteAddress",
          "type": "bytes"
        }
      ],
      "name": "SetTrustedRemoteAddress",
      "type": "event"
    },
    {
      "anonymous": false,
      "inputs": [
        {
          "indexed": true,
          "internalType": "address",
          "name": "from",
          "type": "address"
        },
        {
          "indexed": true,
          "internalType": "address",
          "name": "to",
          "type": "address"
        },
        {
          "indexed": true,
          "internalType": "uint256",
          "name": "tokenId",
          "type": "uint256"
        }
      ],
      "name": "Transfer",
      "type": "event"
    },
    {
      "inputs": [],
      "name": "ACCESS_CONTROL_SINGLETON",
      "outputs": [
        {
          "internalType": "contract ISuAccessControl",
          "name": "",
          "type": "address"
        }
      ],
      "stateMutability": "view",
      "type": "function"
    },
    {
      "inputs": [],
      "name": "ADMIN_ROLE",
      "outputs": [
        {
          "internalType": "bytes32",
          "name": "",
          "type": "bytes32"
        }
      ],
      "stateMutability": "view",
      "type": "function"
    },
    {
      "inputs": [],
      "name": "ALERTER_ROLE",
      "outputs": [
        {
          "internalType": "bytes32",
          "name": "",
          "type": "bytes32"
        }
      ],
      "stateMutability": "view",
      "type": "function"
    },
    {
      "inputs": [],
      "name": "CLOCK_MODE",
      "outputs": [
        {
          "internalType": "string",
          "name": "",
          "type": "string"
        }
      ],
      "stateMutability": "view",
      "type": "function"
    },
    {
      "inputs": [],
      "name": "DAO_ROLE",
      "outputs": [
        {
          "internalType": "bytes32",
          "name": "",
          "type": "bytes32"
        }
      ],
      "stateMutability": "view",
      "type": "function"
    },
    {
      "inputs": [],
      "name": "DEFAULT_PAYLOAD_SIZE_LIMIT",
      "outputs": [
        {
          "internalType": "uint256",
          "name": "",
          "type": "uint256"
        }
      ],
      "stateMutability": "view",
      "type": "function"
    },
    {
      "inputs": [],
      "name": "DOMAIN_SEPARATOR",
      "outputs": [
        {
          "internalType": "bytes32",
          "name": "",
          "type": "bytes32"
        }
      ],
      "stateMutability": "view",
      "type": "function"
    },
    {
      "inputs": [],
      "name": "FUNCTION_TYPE_SEND",
      "outputs": [
        {
          "internalType": "uint16",
          "name": "",
          "type": "uint16"
        }
      ],
      "stateMutability": "view",
      "type": "function"
    },
    {
      "inputs": [],
      "name": "LIQUIDATION_ACCESS_ROLE",
      "outputs": [
        {
          "internalType": "bytes32",
          "name": "",
          "type": "bytes32"
        }
      ],
      "stateMutability": "view",
      "type": "function"
    },
    {
      "inputs": [],
      "name": "MINT_ACCESS_ROLE",
      "outputs": [
        {
          "internalType": "bytes32",
          "name": "",
          "type": "bytes32"
        }
      ],
      "stateMutability": "view",
      "type": "function"
    },
    {
      "inputs": [],
      "name": "REWARD_ACCESS_ROLE",
      "outputs": [
        {
          "internalType": "bytes32",
          "name": "",
          "type": "bytes32"
        }
      ],
      "stateMutability": "view",
      "type": "function"
    },
    {
      "inputs": [],
      "name": "SYSTEM_ROLE",
      "outputs": [
        {
          "internalType": "bytes32",
          "name": "",
          "type": "bytes32"
        }
      ],
      "stateMutability": "view",
      "type": "function"
    },
    {
      "inputs": [],
      "name": "VAULT_ACCESS_ROLE",
      "outputs": [
        {
          "internalType": "bytes32",
          "name": "",
          "type": "bytes32"
        }
      ],
      "stateMutability": "view",
      "type": "function"
    },
    {
      "inputs": [
        {
          "internalType": "address",
          "name": "to",
          "type": "address"
        },
        {
          "internalType": "uint256",
          "name": "tokenId",
          "type": "uint256"
        }
      ],
      "name": "approve",
      "outputs": [],
      "stateMutability": "nonpayable",
      "type": "function"
    },
    {
      "inputs": [
        {
          "internalType": "address",
          "name": "owner",
          "type": "address"
        }
      ],
      "name": "balanceOf",
      "outputs": [
        {
          "internalType": "uint256",
          "name": "",
          "type": "uint256"
        }
      ],
      "stateMutability": "view",
      "type": "function"
    },
    {
      "inputs": [
        {
          "internalType": "address",
          "name": "newBackendSigner",
          "type": "address"
        }
      ],
      "name": "changeBackendSigner",
      "outputs": [],
      "stateMutability": "nonpayable",
      "type": "function"
    },
    {
      "inputs": [
        {
          "internalType": "bytes",
          "name": "_payload",
          "type": "bytes"
        }
      ],
      "name": "clearCredits",
      "outputs": [],
      "stateMutability": "nonpayable",
      "type": "function"
    },
    {
      "inputs": [],
      "name": "clock",
      "outputs": [
        {
          "internalType": "uint48",
          "name": "",
          "type": "uint48"
        }
      ],
      "stateMutability": "view",
      "type": "function"
    },
    {
      "inputs": [
        {
          "internalType": "address",
          "name": "",
          "type": "address"
        }
      ],
      "name": "delegate",
      "outputs": [],
      "stateMutability": "nonpayable",
      "type": "function"
    },
    {
      "inputs": [
        {
          "internalType": "address",
          "name": "delegatee",
          "type": "address"
        },
        {
          "internalType": "uint256",
          "name": "nonce",
          "type": "uint256"
        },
        {
          "internalType": "uint256",
          "name": "expiry",
          "type": "uint256"
        },
        {
          "internalType": "uint8",
          "name": "v",
          "type": "uint8"
        },
        {
          "internalType": "bytes32",
          "name": "r",
          "type": "bytes32"
        },
        {
          "internalType": "bytes32",
          "name": "s",
          "type": "bytes32"
        }
      ],
      "name": "delegateBySig",
      "outputs": [],
      "stateMutability": "nonpayable",
      "type": "function"
    },
    {
      "inputs": [
        {
          "internalType": "address",
          "name": "account",
          "type": "address"
        },
        {
          "internalType": "address",
          "name": "delegatee",
          "type": "address"
        }
      ],
      "name": "delegateOnBehalf",
      "outputs": [],
      "stateMutability": "nonpayable",
      "type": "function"
    },
    {
      "inputs": [
        {
          "internalType": "address",
          "name": "account",
          "type": "address"
        }
      ],
      "name": "delegates",
      "outputs": [
        {
          "internalType": "address",
          "name": "",
          "type": "address"
        }
      ],
      "stateMutability": "view",
      "type": "function"
    },
    {
      "inputs": [
        {
          "internalType": "uint16",
          "name": "",
          "type": "uint16"
        }
      ],
      "name": "dstChainIdToBatchLimit",
      "outputs": [
        {
          "internalType": "uint256",
          "name": "",
          "type": "uint256"
        }
      ],
      "stateMutability": "view",
      "type": "function"
    },
    {
      "inputs": [
        {
          "internalType": "uint16",
          "name": "",
          "type": "uint16"
        }
      ],
      "name": "dstChainIdToTransferGas",
      "outputs": [
        {
          "internalType": "uint256",
          "name": "",
          "type": "uint256"
        }
      ],
      "stateMutability": "view",
      "type": "function"
    },
    {
      "inputs": [],
      "name": "eip712Domain",
      "outputs": [
        {
          "internalType": "bytes1",
          "name": "fields",
          "type": "bytes1"
        },
        {
          "internalType": "string",
          "name": "name",
          "type": "string"
        },
        {
          "internalType": "string",
          "name": "version",
          "type": "string"
        },
        {
          "internalType": "uint256",
          "name": "chainId",
          "type": "uint256"
        },
        {
          "internalType": "address",
          "name": "verifyingContract",
          "type": "address"
        },
        {
          "internalType": "bytes32",
          "name": "salt",
          "type": "bytes32"
        },
        {
          "internalType": "uint256[]",
          "name": "extensions",
          "type": "uint256[]"
        }
      ],
      "stateMutability": "view",
      "type": "function"
    },
    {
      "inputs": [
        {
          "internalType": "uint16",
          "name": "_dstChainId",
          "type": "uint16"
        },
        {
          "internalType": "bytes",
          "name": "_toAddress",
          "type": "bytes"
        },
        {
          "internalType": "uint256[]",
          "name": "_tokenIds",
          "type": "uint256[]"
        },
        {
          "internalType": "bool",
          "name": "_useZro",
          "type": "bool"
        },
        {
          "internalType": "bytes",
          "name": "_adapterParams",
          "type": "bytes"
        }
      ],
      "name": "estimateSendBatchFee",
      "outputs": [
        {
          "internalType": "uint256",
          "name": "nativeFee",
          "type": "uint256"
        },
        {
          "internalType": "uint256",
          "name": "zroFee",
          "type": "uint256"
        }
      ],
      "stateMutability": "view",
      "type": "function"
    },
    {
      "inputs": [
        {
          "internalType": "uint16",
          "name": "_dstChainId",
          "type": "uint16"
        },
        {
          "internalType": "bytes",
          "name": "_toAddress",
          "type": "bytes"
        },
        {
          "internalType": "uint256",
          "name": "_tokenId",
          "type": "uint256"
        },
        {
          "internalType": "bool",
          "name": "_useZro",
          "type": "bool"
        },
        {
          "internalType": "bytes",
          "name": "_adapterParams",
          "type": "bytes"
        }
      ],
      "name": "estimateSendFee",
      "outputs": [
        {
          "internalType": "uint256",
          "name": "nativeFee",
          "type": "uint256"
        },
        {
          "internalType": "uint256",
          "name": "zroFee",
          "type": "uint256"
        }
      ],
      "stateMutability": "view",
      "type": "function"
    },
    {
      "inputs": [
        {
          "internalType": "uint16",
          "name": "",
          "type": "uint16"
        },
        {
          "internalType": "bytes",
          "name": "",
          "type": "bytes"
        },
        {
          "internalType": "uint64",
          "name": "",
          "type": "uint64"
        }
      ],
      "name": "failedMessages",
      "outputs": [
        {
          "internalType": "bytes32",
          "name": "",
          "type": "bytes32"
        }
      ],
      "stateMutability": "view",
      "type": "function"
    },
    {
      "inputs": [
        {
          "internalType": "uint16",
          "name": "_srcChainId",
          "type": "uint16"
        },
        {
          "internalType": "bytes",
          "name": "_srcAddress",
          "type": "bytes"
        }
      ],
      "name": "forceResumeReceive",
      "outputs": [],
      "stateMutability": "nonpayable",
      "type": "function"
    },
    {
      "inputs": [
        {
          "internalType": "uint256",
          "name": "tokenId",
          "type": "uint256"
        }
      ],
      "name": "getApproved",
      "outputs": [
        {
          "internalType": "address",
          "name": "",
          "type": "address"
        }
      ],
      "stateMutability": "view",
      "type": "function"
    },
    {
      "inputs": [
        {
          "internalType": "uint16",
          "name": "_version",
          "type": "uint16"
        },
        {
          "internalType": "uint16",
          "name": "_chainId",
          "type": "uint16"
        },
        {
          "internalType": "address",
          "name": "",
          "type": "address"
        },
        {
          "internalType": "uint256",
          "name": "_configType",
          "type": "uint256"
        }
      ],
      "name": "getConfig",
      "outputs": [
        {
          "internalType": "bytes",
          "name": "",
          "type": "bytes"
        }
      ],
      "stateMutability": "view",
      "type": "function"
    },
    {
      "inputs": [
        {
          "internalType": "uint256",
          "name": "timepoint",
          "type": "uint256"
        }
      ],
      "name": "getPastTotalSupply",
      "outputs": [
        {
          "internalType": "uint256",
          "name": "",
          "type": "uint256"
        }
      ],
      "stateMutability": "view",
      "type": "function"
    },
    {
      "inputs": [
        {
          "internalType": "address",
          "name": "account",
          "type": "address"
        },
        {
          "internalType": "uint256",
          "name": "timepoint",
          "type": "uint256"
        }
      ],
      "name": "getPastVotes",
      "outputs": [
        {
          "internalType": "uint256",
          "name": "",
          "type": "uint256"
        }
      ],
      "stateMutability": "view",
      "type": "function"
    },
    {
      "inputs": [
        {
          "internalType": "uint16",
          "name": "_remoteChainId",
          "type": "uint16"
        }
      ],
      "name": "getTrustedRemoteAddress",
      "outputs": [
        {
          "internalType": "bytes",
          "name": "",
          "type": "bytes"
        }
      ],
      "stateMutability": "view",
      "type": "function"
    },
    {
      "inputs": [
        {
          "internalType": "address",
          "name": "account",
          "type": "address"
        }
      ],
      "name": "getVotes",
      "outputs": [
        {
          "internalType": "uint256",
          "name": "",
          "type": "uint256"
        }
      ],
      "stateMutability": "view",
      "type": "function"
    },
    {
      "inputs": [
        {
          "internalType": "address",
          "name": "",
          "type": "address"
        }
      ],
      "name": "hasMinted",
      "outputs": [
        {
          "internalType": "bool",
          "name": "",
          "type": "bool"
        }
      ],
      "stateMutability": "view",
      "type": "function"
    },
    {
      "inputs": [
        {
          "internalType": "address",
          "name": "_accessControlSingleton",
          "type": "address"
        },
        {
          "internalType": "address",
          "name": "_layerZeroEndpoint",
          "type": "address"
        },
        {
          "internalType": "uint256",
          "name": "_chainNumber",
          "type": "uint256"
        }
      ],
      "name": "initialize",
      "outputs": [],
      "stateMutability": "nonpayable",
      "type": "function"
    },
    {
      "inputs": [
        {
          "internalType": "address",
          "name": "owner",
          "type": "address"
        },
        {
          "internalType": "address",
          "name": "operator",
          "type": "address"
        }
      ],
      "name": "isApprovedForAll",
      "outputs": [
        {
          "internalType": "bool",
          "name": "",
          "type": "bool"
        }
      ],
      "stateMutability": "view",
      "type": "function"
    },
    {
      "inputs": [
        {
          "internalType": "uint16",
          "name": "_srcChainId",
          "type": "uint16"
        },
        {
          "internalType": "bytes",
          "name": "_srcAddress",
          "type": "bytes"
        }
      ],
      "name": "isTrustedRemote",
      "outputs": [
        {
          "internalType": "bool",
          "name": "",
          "type": "bool"
        }
      ],
      "stateMutability": "view",
      "type": "function"
    },
    {
      "inputs": [],
      "name": "lzEndpoint",
      "outputs": [
        {
          "internalType": "contract ILayerZeroEndpointUpgradeable",
          "name": "",
          "type": "address"
        }
      ],
      "stateMutability": "view",
      "type": "function"
    },
    {
      "inputs": [
        {
          "internalType": "uint16",
          "name": "_srcChainId",
          "type": "uint16"
        },
        {
          "internalType": "bytes",
          "name": "_srcAddress",
          "type": "bytes"
        },
        {
          "internalType": "uint64",
          "name": "_nonce",
          "type": "uint64"
        },
        {
          "internalType": "bytes",
          "name": "_payload",
          "type": "bytes"
        }
      ],
      "name": "lzReceive",
      "outputs": [],
      "stateMutability": "nonpayable",
      "type": "function"
    },
    {
      "inputs": [
        {
          "internalType": "uint16",
          "name": "",
          "type": "uint16"
        },
        {
          "internalType": "uint16",
          "name": "",
          "type": "uint16"
        }
      ],
      "name": "minDstGasLookup",
      "outputs": [
        {
          "internalType": "uint256",
          "name": "",
          "type": "uint256"
        }
      ],
      "stateMutability": "view",
      "type": "function"
    },
    {
      "inputs": [],
      "name": "minGasToTransferAndStore",
      "outputs": [
        {
          "internalType": "uint256",
          "name": "",
          "type": "uint256"
        }
      ],
      "stateMutability": "view",
      "type": "function"
    },
    {
      "inputs": [
        {
          "internalType": "bytes",
          "name": "signature",
          "type": "bytes"
        },
        {
          "internalType": "uint256",
          "name": "timestamp",
          "type": "uint256"
        }
      ],
      "name": "mint",
      "outputs": [],
      "stateMutability": "payable",
      "type": "function"
    },
    {
      "inputs": [],
      "name": "name",
      "outputs": [
        {
          "internalType": "string",
          "name": "",
          "type": "string"
        }
      ],
      "stateMutability": "view",
      "type": "function"
    },
    {
      "inputs": [],
      "name": "nextMintId",
      "outputs": [
        {
          "internalType": "uint256",
          "name": "",
          "type": "uint256"
        }
      ],
      "stateMutability": "view",
      "type": "function"
    },
    {
      "inputs": [
        {
          "internalType": "uint16",
          "name": "_srcChainId",
          "type": "uint16"
        },
        {
          "internalType": "bytes",
          "name": "_srcAddress",
          "type": "bytes"
        },
        {
          "internalType": "uint64",
          "name": "_nonce",
          "type": "uint64"
        },
        {
          "internalType": "bytes",
          "name": "_payload",
          "type": "bytes"
        }
      ],
      "name": "nonblockingLzReceive",
      "outputs": [],
      "stateMutability": "nonpayable",
      "type": "function"
    },
    {
      "inputs": [
        {
          "internalType": "address",
          "name": "owner",
          "type": "address"
        }
      ],
      "name": "nonces",
      "outputs": [
        {
          "internalType": "uint256",
          "name": "",
          "type": "uint256"
        }
      ],
      "stateMutability": "view",
      "type": "function"
    },
    {
      "inputs": [],
      "name": "owner",
      "outputs": [
        {
          "internalType": "address",
          "name": "",
          "type": "address"
        }
      ],
      "stateMutability": "view",
      "type": "function"
    },
    {
      "inputs": [
        {
          "internalType": "uint256",
          "name": "tokenId",
          "type": "uint256"
        }
      ],
      "name": "ownerOf",
      "outputs": [
        {
          "internalType": "address",
          "name": "",
          "type": "address"
        }
      ],
      "stateMutability": "view",
      "type": "function"
    },
    {
      "inputs": [
        {
          "internalType": "uint16",
          "name": "",
          "type": "uint16"
        }
      ],
      "name": "payloadSizeLimitLookup",
      "outputs": [
        {
          "internalType": "uint256",
          "name": "",
          "type": "uint256"
        }
      ],
      "stateMutability": "view",
      "type": "function"
    },
    {
      "inputs": [],
      "name": "precrime",
      "outputs": [
        {
          "internalType": "address",
          "name": "",
          "type": "address"
        }
      ],
      "stateMutability": "view",
      "type": "function"
    },
    {
      "inputs": [],
      "name": "renounceOwnership",
      "outputs": [],
      "stateMutability": "nonpayable",
      "type": "function"
    },
    {
      "inputs": [
        {
          "internalType": "uint16",
          "name": "_srcChainId",
          "type": "uint16"
        },
        {
          "internalType": "bytes",
          "name": "_srcAddress",
          "type": "bytes"
        },
        {
          "internalType": "uint64",
          "name": "_nonce",
          "type": "uint64"
        },
        {
          "internalType": "bytes",
          "name": "_payload",
          "type": "bytes"
        }
      ],
      "name": "retryMessage",
      "outputs": [],
      "stateMutability": "payable",
      "type": "function"
    },
    {
      "inputs": [
        {
          "internalType": "address",
          "name": "from",
          "type": "address"
        },
        {
          "internalType": "address",
          "name": "to",
          "type": "address"
        },
        {
          "internalType": "uint256",
          "name": "tokenId",
          "type": "uint256"
        }
      ],
      "name": "safeTransferFrom",
      "outputs": [],
      "stateMutability": "nonpayable",
      "type": "function"
    },
    {
      "inputs": [
        {
          "internalType": "address",
          "name": "from",
          "type": "address"
        },
        {
          "internalType": "address",
          "name": "to",
          "type": "address"
        },
        {
          "internalType": "uint256",
          "name": "tokenId",
          "type": "uint256"
        },
        {
          "internalType": "bytes",
          "name": "data",
          "type": "bytes"
        }
      ],
      "name": "safeTransferFrom",
      "outputs": [],
      "stateMutability": "nonpayable",
      "type": "function"
    },
    {
      "inputs": [
        {
          "internalType": "address",
          "name": "_from",
          "type": "address"
        },
        {
          "internalType": "uint16",
          "name": "_dstChainId",
          "type": "uint16"
        },
        {
          "internalType": "bytes",
          "name": "_toAddress",
          "type": "bytes"
        },
        {
          "internalType": "uint256[]",
          "name": "_tokenIds",
          "type": "uint256[]"
        },
        {
          "internalType": "address payable",
          "name": "_refundAddress",
          "type": "address"
        },
        {
          "internalType": "address",
          "name": "_zroPaymentAddress",
          "type": "address"
        },
        {
          "internalType": "bytes",
          "name": "_adapterParams",
          "type": "bytes"
        }
      ],
      "name": "sendBatchFrom",
      "outputs": [],
      "stateMutability": "payable",
      "type": "function"
    },
    {
      "inputs": [
        {
          "internalType": "address",
          "name": "_from",
          "type": "address"
        },
        {
          "internalType": "uint16",
          "name": "_dstChainId",
          "type": "uint16"
        },
        {
          "internalType": "bytes",
          "name": "_toAddress",
          "type": "bytes"
        },
        {
          "internalType": "uint256",
          "name": "_tokenId",
          "type": "uint256"
        },
        {
          "internalType": "address payable",
          "name": "_refundAddress",
          "type": "address"
        },
        {
          "internalType": "address",
          "name": "_zroPaymentAddress",
          "type": "address"
        },
        {
          "internalType": "bytes",
          "name": "_adapterParams",
          "type": "bytes"
        }
      ],
      "name": "sendFrom",
      "outputs": [],
      "stateMutability": "payable",
      "type": "function"
    },
    {
      "inputs": [
        {
          "internalType": "address",
          "name": "operator",
          "type": "address"
        },
        {
          "internalType": "bool",
          "name": "approved",
          "type": "bool"
        }
      ],
      "name": "setApprovalForAll",
      "outputs": [],
      "stateMutability": "nonpayable",
      "type": "function"
    },
    {
      "inputs": [
        {
          "internalType": "string",
          "name": "uri",
          "type": "string"
        }
      ],
      "name": "setBaseURI",
      "outputs": [],
      "stateMutability": "nonpayable",
      "type": "function"
    },
    {
      "inputs": [
        {
          "internalType": "uint16",
          "name": "_version",
          "type": "uint16"
        },
        {
          "internalType": "uint16",
          "name": "_chainId",
          "type": "uint16"
        },
        {
          "internalType": "uint256",
          "name": "_configType",
          "type": "uint256"
        },
        {
          "internalType": "bytes",
          "name": "_config",
          "type": "bytes"
        }
      ],
      "name": "setConfig",
      "outputs": [],
      "stateMutability": "nonpayable",
      "type": "function"
    },
    {
      "inputs": [
        {
          "internalType": "uint16",
          "name": "_dstChainId",
          "type": "uint16"
        },
        {
          "internalType": "uint256",
          "name": "_dstChainIdToBatchLimit",
          "type": "uint256"
        }
      ],
      "name": "setDstChainIdToBatchLimit",
      "outputs": [],
      "stateMutability": "nonpayable",
      "type": "function"
    },
    {
      "inputs": [
        {
          "internalType": "uint16",
          "name": "_dstChainId",
          "type": "uint16"
        },
        {
          "internalType": "uint256",
          "name": "_dstChainIdToTransferGas",
          "type": "uint256"
        }
      ],
      "name": "setDstChainIdToTransferGas",
      "outputs": [],
      "stateMutability": "nonpayable",
      "type": "function"
    },
    {
      "inputs": [
        {
          "internalType": "uint16",
          "name": "_dstChainId",
          "type": "uint16"
        },
        {
          "internalType": "uint16",
          "name": "_packetType",
          "type": "uint16"
        },
        {
          "internalType": "uint256",
          "name": "_minGas",
          "type": "uint256"
        }
      ],
      "name": "setMinDstGas",
      "outputs": [],
      "stateMutability": "nonpayable",
      "type": "function"
    },
    {
      "inputs": [
        {
          "internalType": "uint256",
          "name": "_minGasToTransferAndStore",
          "type": "uint256"
        }
      ],
      "name": "setMinGasToTransferAndStore",
      "outputs": [],
      "stateMutability": "nonpayable",
      "type": "function"
    },
    {
      "inputs": [
        {
          "internalType": "uint16",
          "name": "_dstChainId",
          "type": "uint16"
        },
        {
          "internalType": "uint256",
          "name": "_size",
          "type": "uint256"
        }
      ],
      "name": "setPayloadSizeLimit",
      "outputs": [],
      "stateMutability": "nonpayable",
      "type": "function"
    },
    {
      "inputs": [
        {
          "internalType": "address",
          "name": "_precrime",
          "type": "address"
        }
      ],
      "name": "setPrecrime",
      "outputs": [],
      "stateMutability": "nonpayable",
      "type": "function"
    },
    {
      "inputs": [
        {
          "internalType": "uint16",
          "name": "_version",
          "type": "uint16"
        }
      ],
      "name": "setReceiveVersion",
      "outputs": [],
      "stateMutability": "nonpayable",
      "type": "function"
    },
    {
      "inputs": [
        {
          "internalType": "uint16",
          "name": "_version",
          "type": "uint16"
        }
      ],
      "name": "setSendVersion",
      "outputs": [],
      "stateMutability": "nonpayable",
      "type": "function"
    },
    {
      "inputs": [
        {
          "internalType": "uint16",
          "name": "_srcChainId",
          "type": "uint16"
        },
        {
          "internalType": "bytes",
          "name": "_path",
          "type": "bytes"
        }
      ],
      "name": "setTrustedRemote",
      "outputs": [],
      "stateMutability": "nonpayable",
      "type": "function"
    },
    {
      "inputs": [
        {
          "internalType": "uint16",
          "name": "_remoteChainId",
          "type": "uint16"
        },
        {
          "internalType": "bytes",
          "name": "_remoteAddress",
          "type": "bytes"
        }
      ],
      "name": "setTrustedRemoteAddress",
      "outputs": [],
      "stateMutability": "nonpayable",
      "type": "function"
    },
    {
      "inputs": [
        {
          "internalType": "bytes32",
          "name": "",
          "type": "bytes32"
        }
      ],
      "name": "storedCredits",
      "outputs": [
        {
          "internalType": "uint16",
          "name": "srcChainId",
          "type": "uint16"
        },
        {
          "internalType": "address",
          "name": "toAddress",
          "type": "address"
        },
        {
          "internalType": "uint256",
          "name": "index",
          "type": "uint256"
        },
        {
          "internalType": "bool",
          "name": "creditsRemain",
          "type": "bool"
        }
      ],
      "stateMutability": "view",
      "type": "function"
    },
    {
      "inputs": [
        {
          "internalType": "bytes4",
          "name": "interfaceId",
          "type": "bytes4"
        }
      ],
      "name": "supportsInterface",
      "outputs": [
        {
          "internalType": "bool",
          "name": "",
          "type": "bool"
        }
      ],
      "stateMutability": "view",
      "type": "function"
    },
    {
      "inputs": [],
      "name": "symbol",
      "outputs": [
        {
          "internalType": "string",
          "name": "",
          "type": "string"
        }
      ],
      "stateMutability": "view",
      "type": "function"
    },
    {
      "inputs": [
        {
          "internalType": "uint256",
          "name": "tokenId",
          "type": "uint256"
        }
      ],
      "name": "tokenURI",
      "outputs": [
        {
          "internalType": "string",
          "name": "",
          "type": "string"
        }
      ],
      "stateMutability": "view",
      "type": "function"
    },
    {
      "inputs": [
        {
          "internalType": "address",
          "name": "from",
          "type": "address"
        },
        {
          "internalType": "address",
          "name": "to",
          "type": "address"
        },
        {
          "internalType": "uint256",
          "name": "tokenId",
          "type": "uint256"
        }
      ],
      "name": "transferFrom",
      "outputs": [],
      "stateMutability": "nonpayable",
      "type": "function"
    },
    {
      "inputs": [
        {
          "internalType": "address",
          "name": "newOwner",
          "type": "address"
        }
      ],
      "name": "transferOwnership",
      "outputs": [],
      "stateMutability": "nonpayable",
      "type": "function"
    },
    {
      "inputs": [
        {
          "internalType": "uint16",
          "name": "",
          "type": "uint16"
        }
      ],
      "name": "trustedRemoteLookup",
      "outputs": [
        {
          "internalType": "bytes",
          "name": "",
          "type": "bytes"
        }
      ],
      "stateMutability": "view",
      "type": "function"
    }
  ],
  "numDeployments": 1,
  "solcInputHash": "8aa75610e4c93a65be1c0fd8bf4d951a",
  "bytecode": "0x608060405234801561001057600080fd5b50615fbe80620000216000396000f3fe60806040526004361061036b5760003560e01c80621d3567146103705780622576121461039257806301ffc9a7146103a557806303ee9f22146103da57806306fdde031461040757806307e0db1714610429578063081812fc14610449578063095ea7b3146104695780630b4cad4c146104895780630df37483146104a95780630e408e3b146104c957806310ddb137146104e957806314c376dc146105095780631794bb3c1461054b57806322a3ecf91461056b57806323b872dd146105ef5780632a205e3d1461060f5780633644e5151461064457806338e21cce146106595780633a46b1a81461068a5780633d8b38f6146106aa5780633f1f4fa4146106ca57806342842e0e146106f757806342d65a8d14610717578063438280dd14610737578063482881901461076b5780634ac3f4ff146107815780634bf5d7e9146107ae57806351905636146107c357806355f804b3146107d6578063587cde1e146107f65780635b8c41e6146108165780635c19a95c146108655780636352211e1461088557806366ad5c8a146108a55780636aa99da3146108c557806370a08231146108dc578063715018a6146108fc57806371d0fb411461091157806375071d2a146109455780637533d7881461096757806375b238fc146109875780637ecebe001461099c57806384b0196e146109bc5780638cfd8f5c146109e45780638da5cb5b14610a1c5780638e5313e014610a315780638e539e8c14610a655780638ffa1f2a14610a8557806391ddadf414610aa5578063950c8a7414610ad157806395d89b4114610af15780639ab24eb014610b065780639ea5d6b114610b265780639f38369a14610b46578063a22cb46514610b66578063a6c3d16514610b86578063ab3ffb9314610ba6578063af3fb21c14610bb9578063b353aaa714610be1578063b88d4fde14610c01578063baf3292d14610c21578063c3cda52014610c41578063c446183414610c61578063c87b56dd14610c77578063cbed8b9c14610c97578063d12473a514610cb7578063d1deba1f14610cd7578063dc97e84e14610cea578063df2a5b3b14610d1e578063e985e9c514610d3e578063e9c2651814610d5e578063eb8d72b714610d92578063ec052a3814610db2578063f235364114610dd2578063f2fde38b14610df2578063f5ecbdbc14610e12578063fa25f9b614610e32575b600080fd5b34801561037c57600080fd5b5061039061038b366004614a98565b610e5f565b005b6103906103a0366004614b2b565b611009565b3480156103b157600080fd5b506103c56103c0366004614b8c565b61111b565b60405190151581526020015b60405180910390f35b3480156103e657600080fd5b5060c9546103fa906001600160a01b031681565b6040516103d19190614ba9565b34801561041357600080fd5b5061041c611146565b6040516103d19190614c0d565b34801561043557600080fd5b50610390610444366004614c20565b6111d9565b34801561045557600080fd5b506103fa610464366004614c3b565b611246565b34801561047557600080fd5b50610390610484366004614c74565b61126e565b34801561049557600080fd5b506103906104a4366004614c3b565b611388565b3480156104b557600080fd5b506103906104c4366004614ca0565b6113b6565b3480156104d557600080fd5b506103906104e4366004614cbc565b6113d5565b3480156104f557600080fd5b50610390610504366004614c20565b61147d565b34801561051557600080fd5b5061053d7fe965846df3dd5b1dfa65f58e31477079e90140e0908b6dd31b5aead5a57cf36581565b6040519081526020016103d1565b34801561055757600080fd5b50610390610566366004614cf5565b6114b9565b34801561057757600080fd5b506105c0610586366004614c3b565b60ff6020819052600091825260409091208054600182015460029092015461ffff821693620100009092046001600160a01b031692911684565b6040805161ffff90951685526001600160a01b03909316602085015291830152151560608201526080016103d1565b3480156105fb57600080fd5b5061039061060a366004614cf5565b61169f565b34801561061b57600080fd5b5061062f61062a366004614e07565b6116d1565b604080519283526020830191909152016103d1565b34801561065057600080fd5b5061053d6116f7565b34801561066557600080fd5b506103c5610674366004614e99565b61022a6020526000908152604090205460ff1681565b34801561069657600080fd5b5061053d6106a5366004614c74565b611706565b3480156106b657600080fd5b506103c56106c5366004614eb6565b611771565b3480156106d657600080fd5b5061053d6106e5366004614c20565b60686020526000908152604090205481565b34801561070357600080fd5b50610390610712366004614cf5565b61183d565b34801561072357600080fd5b50610390610732366004614eb6565b611858565b34801561074357600080fd5b5061053d7f39f61ca2a1a28fee144218173ec637b649a353e4026b2738c673800e5bf1437b81565b34801561077757600080fd5b5061053d60fc5481565b34801561078d57600080fd5b5061053d61079c366004614c20565b60fd6020526000908152604090205481565b3480156107ba57600080fd5b5061041c6118c2565b6103906107d1366004614f08565b611955565b3480156107e257600080fd5b506103906107f1366004614fc1565b61196c565b34801561080257600080fd5b506103fa610811366004614e99565b61197a565b34801561082257600080fd5b5061053d610831366004615002565b6097602090815260009384526040808520845180860184018051928152908401958401959095209452929052825290205481565b34801561087157600080fd5b50610390610880366004614e99565b611999565b34801561089157600080fd5b506103fa6108a0366004614c3b565b6119b2565b3480156108b157600080fd5b506103906108c0366004614a98565b6119e6565b3480156108d157600080fd5b5061053d61022c5481565b3480156108e857600080fd5b5061053d6108f7366004614e99565b611a84565b34801561090857600080fd5b50610390611b0b565b34801561091d57600080fd5b5061053d7f880a91047114272656e533301261260c75e4d11543ac7303d6fe4204579ec72781565b34801561095157600080fd5b5061053d600080516020615f2983398151915281565b34801561097357600080fd5b5061041c610982366004614c20565b611b1f565b34801561099357600080fd5b5061053d600081565b3480156109a857600080fd5b5061053d6109b7366004614e99565b611bb9565b3480156109c857600080fd5b506109d1611bd8565b6040516103d1979695949392919061509b565b3480156109f057600080fd5b5061053d6109ff36600461510b565b606760209081526000928352604080842090915290825290205481565b348015610a2857600080fd5b506103fa611c78565b348015610a3d57600080fd5b5061053d7fe453bacb314e78dcd5192e6b1a2b1f0e7c76e92f6b7e429a6a90f04e39db3b7681565b348015610a7157600080fd5b5061053d610a80366004614c3b565b611c87565b348015610a9157600080fd5b50610390610aa036600461513e565b611cdb565b348015610ab157600080fd5b50610aba611eac565b60405165ffffffffffff90911681526020016103d1565b348015610add57600080fd5b506069546103fa906001600160a01b031681565b348015610afd57600080fd5b5061041c611eb7565b348015610b1257600080fd5b5061053d610b21366004614e99565b611ec7565b348015610b3257600080fd5b50610390610b41366004614ca0565b611ee9565b348015610b5257600080fd5b5061041c610b61366004614c20565b611f29565b348015610b7257600080fd5b50610390610b81366004615172565b612010565b348015610b9257600080fd5b50610390610ba1366004614eb6565b61201f565b610390610bb436600461522d565b6120a8565b348015610bc557600080fd5b50610bce600181565b60405161ffff90911681526020016103d1565b348015610bed57600080fd5b506065546103fa906001600160a01b031681565b348015610c0d57600080fd5b50610390610c1c3660046152e2565b6120b7565b348015610c2d57600080fd5b50610390610c3c366004614e99565b6120e9565b348015610c4d57600080fd5b50610390610c5c36600461534d565b612147565b348015610c6d57600080fd5b5061053d61271081565b348015610c8357600080fd5b5061041c610c92366004614c3b565b612266565b348015610ca357600080fd5b50610390610cb23660046153af565b6122cc565b348015610cc357600080fd5b50610390610cd2366004614ca0565b612345565b610390610ce5366004614a98565b612385565b348015610cf657600080fd5b5061053d7f9a9aef7c1247d5fc769b0185c052913e39673da29a880317dfd20ebf86f26a4981565b348015610d2a57600080fd5b50610390610d3936600461541d565b612527565b348015610d4a57600080fd5b506103c5610d59366004614cbc565b6125b2565b348015610d6a57600080fd5b5061053d7f3b5d4cc60d3ec3516ee8ae083bd60934f6eb2a6c54b1229985c41bfb092b260381565b348015610d9e57600080fd5b50610390610dad366004614eb6565b6125e1565b348015610dbe57600080fd5b50610390610dcd366004614e99565b61263b565b348015610dde57600080fd5b5061062f610ded366004615459565b6126ef565b348015610dfe57600080fd5b50610390610e0d366004614e99565b61279d565b348015610e1e57600080fd5b5061041c610e2d3660046154d6565b612816565b348015610e3e57600080fd5b5061053d610e4d366004614c20565b60fe6020526000908152604090205481565b6065546001600160a01b0316336001600160a01b031614610e93576040516320ae752d60e21b815260040160405180910390fd5b61ffff861660009081526066602052604081208054610eb190615523565b80601f0160208091040260200160405190810160405280929190818152602001828054610edd90615523565b8015610f2a5780601f10610eff57610100808354040283529160200191610f2a565b820191906000526020600020905b815481529060010190602001808311610f0d57829003601f168201915b50505050509050805186869050148015610f45575060008151115b8015610f6d575080516020820120604051610f639088908890615557565b6040518091039020145b610f8a57604051636646f45360e01b815260040160405180910390fd5b6110008787878080601f01602080910402602001604051908101604052809392919081815260200183838082843760009201919091525050604080516020601f8a018190048102820181019092528881528a9350915088908890819084018382808284376000920191909152506128ab92505050565b50505050505050565b33600090815261022a602052604090205460ff161561103b57604051631bbdf5c560e31b815260040160405180910390fd5b61022d5461022c5411156110625760405163038df00b60e31b815260040160405180910390fd5b60006110a5338386868080601f01602080910402602001604051908101604052809392919081815260200183838082843760009201919091525061292492505050565b61022e549091506001600160a01b038083169116146110d757604051638baa579f60e01b815260040160405180910390fd5b61022c805490819060006110ea8361557d565b91905055506110f93382612a7f565b505033600090815261022a60205260409020805460ff19166001179055505050565b60006001600160e01b03198216637487d9fb60e11b1480611140575061114082612a99565b92915050565b606061012e805461115690615523565b80601f016020809104026020016040519081016040528092919081815260200182805461118290615523565b80156111cf5780601f106111a4576101008083540402835291602001916111cf565b820191906000526020600020905b8154815290600101906020018083116111b257829003601f168201915b5050505050905090565b6111e1612ab6565b6065546040516307e0db1760e01b815261ffff831660048201526001600160a01b03909116906307e0db17906024015b600060405180830381600087803b15801561122b57600080fd5b505af115801561123f573d6000803e3d6000fd5b5050505050565b600061125182612b15565b50600090815261013260205260409020546001600160a01b031690565b6000611279826119b2565b9050806001600160a01b0316836001600160a01b0316036112eb5760405162461bcd60e51b815260206004820152602160248201527f4552433732313a20617070726f76616c20746f2063757272656e74206f776e656044820152603960f91b60648201526084015b60405180910390fd5b336001600160a01b0382161480611307575061130781336125b2565b6113795760405162461bcd60e51b815260206004820152603d60248201527f4552433732313a20617070726f76652063616c6c6572206973206e6f7420746f60448201527f6b656e206f776e6572206f7220617070726f76656420666f7220616c6c00000060648201526084016112e2565b6113838383612b3a565b505050565b611390612ab6565b806000036113b1576040516335755d8360e21b815260040160405180910390fd5b60fc55565b6113be612ab6565b61ffff909116600090815260686020526040902055565b60c954604051632474521560e21b8152600080516020615f29833981519152916001600160a01b0316906391d14854906114159084903390600401615596565b602060405180830381865afa158015611432573d6000803e3d6000fd5b505050506040513d601f19601f8201168201806040525081019061145691906155ad565b61147357604051632f33a5b560e01b815260040160405180910390fd5b6113838383612ba9565b611485612ab6565b6065546040516310ddb13760e01b815261ffff831660048201526001600160a01b03909116906310ddb13790602401611211565b600054610100900460ff16158080156114d95750600054600160ff909116105b806114fa57506114e830612c25565b1580156114fa575060005460ff166001145b61155d5760405162461bcd60e51b815260206004820152602e60248201527f496e697469616c697a61626c653a20636f6e747261637420697320616c72656160448201526d191e481a5b9a5d1a585b1a5e995960921b60648201526084016112e2565b6000805460ff191660011790558015611580576000805461ff0019166101001790555b6115d76040518060400160405280601281526020017114dd18589b19555b9a5d08111053c813919560721b8152506040518060400160405280600881526020016714dd51185bd3919560c21b815250600186612c34565b6115e084612c7f565b604051806080016040528060528152602001615ed76052913961022b906116079082615627565b5061022e80546001600160a01b0319163317905561162882620f42406156e0565b61022c55600161163883826156f7565b61164590620f42406156e0565b61164f919061570a565b61022d558015611699576000805461ff0019169055604051600181527f7f26b83ff96e1f2b6a682f133852f6798a09c465da95921460cefb38474024989060200160405180910390a15b50505050565b6116aa335b82612d5c565b6116c65760405162461bcd60e51b81526004016112e29061571d565b611383838383612dba565b6000806116e987876116e288612f17565b87876126ef565b915091509550959350505050565b6000611701612f62565b905090565b6000611710611eac565b65ffffffffffff1682106117365760405162461bcd60e51b81526004016112e29061576a565b61176161174283612f6c565b6001600160a01b03851660009081526101c76020526040902090612fd5565b6001600160e01b03169392505050565b61ffff83166000908152606660205260408120805482919061179290615523565b80601f01602080910402602001604051908101604052809291908181526020018280546117be90615523565b801561180b5780601f106117e05761010080835404028352916020019161180b565b820191906000526020600020905b8154815290600101906020018083116117ee57829003601f168201915b505050505090508383604051611822929190615557565b60405180910390208180519060200120149150509392505050565b611383838383604051806020016040528060008152506120b7565b611860612ab6565b6065546040516342d65a8d60e01b81526001600160a01b03909116906342d65a8d90611894908690869086906004016157c1565b600060405180830381600087803b1580156118ae57600080fd5b505af1158015611000573d6000803e3d6000fd5b6060436118cd611eac565b65ffffffffffff161461191d5760405162461bcd60e51b8152602060048201526018602482015277566f7465733a2062726f6b656e20636c6f636b206d6f646560401b60448201526064016112e2565b5060408051808201909152601d81527f6d6f64653d626c6f636b6e756d6265722666726f6d3d64656661756c74000000602082015290565b61100087878761196488612f17565b878787613089565b61022b6113838284836157df565b6001600160a01b0390811660009081526101c660205260409020541690565b604051634358d6cf60e11b815260040160405180910390fd5b6000806119be836131f4565b90506001600160a01b0381166111405760405162461bcd60e51b81526004016112e290615898565b333014611a0657604051638969343960e01b815260040160405180910390fd5b611a7c8686868080601f01602080910402602001604051908101604052809392919081815260200183838082843760009201919091525050604080516020601f89018190048102820181019092528781528993509150879087908190840183828082843760009201919091525061321092505050565b505050505050565b60006001600160a01b038216611aee5760405162461bcd60e51b815260206004820152602960248201527f4552433732313a2061646472657373207a65726f206973206e6f7420612076616044820152683634b21037bbb732b960b91b60648201526084016112e2565b506001600160a01b03166000908152610131602052604090205490565b611b13612ab6565b611b1d6000613367565b565b60666020526000908152604090208054611b3890615523565b80601f0160208091040260200160405190810160405280929190818152602001828054611b6490615523565b8015611bb15780601f10611b8657610100808354040283529160200191611bb1565b820191906000526020600020905b815481529060010190602001808311611b9457829003601f168201915b505050505081565b6001600160a01b03811660009081526101c96020526040812054611140565b600060608060008060006060610192546000801b148015611bfa575061019354155b611c3e5760405162461bcd60e51b81526020600482015260156024820152741152540dcc4c8e88155b9a5b9a5d1a585b1a5e9959605a1b60448201526064016112e2565b611c466133b9565b611c4e6133c9565b60408051600080825260208201909252600f60f81b9b939a50919850469750309650945092509050565b6033546001600160a01b031690565b6000611c91611eac565b65ffffffffffff168210611cb75760405162461bcd60e51b81526004016112e29061576a565b611ccc611cc383612f6c565b6101c890612fd5565b6001600160e01b031692915050565b8051602080830191909120600081815260ff928390526040902060020154909116611d1957604051630b78bca360e11b815260040160405180910390fd5b600082806020019051810190611d2f919061590f565b600084815260ff602052604081208054600190910154929450909250611d6b9161ffff8216916201000090046001600160a01b031690856133d9565b600084815260ff60205260409020600101549091508111611d9f5760405163033f6ab560e51b815260040160405180910390fd5b81518103611e1657600083815260ff602052604080822080546001600160b01b031916815560018101929092556002909101805460ff19169055517fd7be02b8dd0d27bd0517a9cb4d7469ce27df4313821ae5ec1ff69acc594ba23390611e099085815260200190565b60405180910390a1611699565b60408051608081018252600085815260ff6020818152848320805461ffff8082168752620100008083046001600160a01b03908116868a019081529989019a8b52600160608a018181529d9098529590945295519651969095166001600160b01b031990951694909417949091160292909217815591519082015591516002909201805460ff1916921515929092179091555050565b600061170143613425565b606061012f805461115690615523565b6001600160a01b03811660009081526101c760205260408120611ccc9061348c565b611ef1612ab6565b80600003611f125760405163302c4a1f60e21b815260040160405180910390fd5b61ffff909116600090815260fd6020526040902055565b61ffff8116600090815260666020526040812080546060929190611f4c90615523565b80601f0160208091040260200160405190810160405280929190818152602001828054611f7890615523565b8015611fc55780601f10611f9a57610100808354040283529160200191611fc5565b820191906000526020600020905b815481529060010190602001808311611fa857829003601f168201915b505050505090508051600003611fee5760405163638210b160e01b815260040160405180910390fd5b612009600060148351612001919061570a565b8391906134c5565b9392505050565b61201b3383836135d2565b5050565b612027612ab6565b81813060405160200161203c939291906159c9565b60408051601f1981840301815291815261ffff85166000908152606660205220906120679082615627565b507f8c0400cfe2d1199b1a725c78960bcc2a344d869b80590d0f2bd005db15a572ce83838360405161209b939291906157c1565b60405180910390a1505050565b61100087878787878787613089565b6120c13383612d5c565b6120dd5760405162461bcd60e51b81526004016112e29061571d565b6116998484848461369d565b6120f1612ab6565b606980546001600160a01b0319166001600160a01b0383161790556040517f5db758e995a17ec1ad84bdef7e8c3293a0bd6179bcce400dff5d4c3d87db726b9061213c908390614ba9565b60405180910390a150565b834211156121925760405162461bcd60e51b8152602060048201526018602482015277159bdd195cce881cda59db985d1d5c9948195e1c1a5c995960421b60448201526064016112e2565b604080517fe48329057bfd03d55e49b547132e39cffd9c1820ad7b9d4c5307691425d15adf60208201526001600160a01b03881691810191909152606081018690526080810185905260009061220c906122049060a001604051602081830303815290604052805190602001206136d0565b8585856136fd565b905061221781613725565b861461225c5760405162461bcd60e51b8152602060048201526014602482015273566f7465733a20696e76616c6964206e6f6e636560601b60448201526064016112e2565b6110008188612ba9565b606061227182612b15565b600061227b61374e565b9050600081511161229b5760405180602001604052806000815250612009565b806122a58461375e565b6040516020016122b69291906159ea565b6040516020818303038152906040529392505050565b6122d4612ab6565b6065546040516332fb62e760e21b81526001600160a01b039091169063cbed8b9c9061230c9088908890889088908890600401615a19565b600060405180830381600087803b15801561232657600080fd5b505af115801561233a573d6000803e3d6000fd5b505050505050505050565b61234d612ab6565b8060000361236e57604051639e9c39f360e01b815260040160405180910390fd5b61ffff909116600090815260fe6020526040902055565b61ffff861660009081526097602052604080822090516123a89088908890615557565b90815260408051602092819003830190206001600160401b038716600090815292529020549050806123ed576040516316ca9eb960e31b815260040160405180910390fd5b8083836040516123fe929190615557565b60405180910390201461242457604051630d95a7cd60e31b815260040160405180910390fd5b61ffff871660009081526097602052604080822090516124479089908990615557565b90815260408051602092819003830181206001600160401b038916600090815290845282902093909355601f880182900482028301820190528682526124df918991899089908190840183828082843760009201919091525050604080516020601f8a018190048102820181019092528881528a93509150889088908190840183828082843760009201919091525061321092505050565b7fc264d91f3adc5588250e1551f547752ca0cfa8f6b530d243b9f9f4cab10ea8e58787878785604051612516959493929190615a47565b60405180910390a150505050505050565b61252f612ab6565b8060000361255057604051634016588d60e01b815260040160405180910390fd5b61ffff83811660008181526067602090815260408083209487168084529482529182902085905581519283528201929092529081018290527f9d5c7c0b934da8fefa9c7760c98383778a12dfbfc0c3b3106518f43fb9508ac09060600161209b565b6001600160a01b0391821660009081526101336020908152604080832093909416825291909152205460ff1690565b6125e9612ab6565b61ffff831660009081526066602052604090206126078284836157df565b507ffa41487ad5d6728f0b19276fa1eddc16558578f5109fc39d2dc33c3230470dab83838360405161209b939291906157c1565b60c954604051632474521560e21b81526001600160a01b03909116906391d148549061266e906000903390600401615596565b602060405180830381865afa15801561268b573d6000803e3d6000fd5b505050506040513d601f19601f820116820180604052508101906126af91906155ad565b6126cc57604051631886ea7d60e11b815260040160405180910390fd5b61022e80546001600160a01b0319166001600160a01b0392909216919091179055565b60008060008686604051602001612707929190615a82565b60408051601f198184030181529082905260655463040a7bb160e41b83529092506001600160a01b0316906340a7bb109061274e908b90309086908b908b90600401615ab0565b6040805180830381865afa15801561276a573d6000803e3d6000fd5b505050506040513d601f19601f8201168201806040525081019061278e9190615b04565b92509250509550959350505050565b6127a5612ab6565b6001600160a01b03811661280a5760405162461bcd60e51b815260206004820152602660248201527f4f776e61626c653a206e6577206f776e657220697320746865207a65726f206160448201526564647265737360d01b60648201526084016112e2565b61281381613367565b50565b606554604051633d7b2f6f60e21b815261ffff808716600483015285166024820152306044820152606481018390526060916001600160a01b03169063f5ecbdbc90608401600060405180830381865afa158015612878573d6000803e3d6000fd5b505050506040513d6000823e601f3d908101601f191682016040526128a09190810190615b28565b90505b949350505050565b60008061290e5a60966366ad5c8a60e01b898989896040516024016128d39493929190615b5c565b60408051601f198184030181529190526020810180516001600160e01b03166001600160e01b031990931692909217909152309291906137f0565b9150915081611a7c57611a7c868686868561387c565b6000612932836102586156f7565b42111561295257604051632cd9301160e21b815260040160405180910390fd5b61295e6103848461570a565b42101561297e5760405163156a2e2960e01b815260040160405180910390fd5b6040516001600160601b0319606086901b166020820152603481018490524660548201526000906074016040516020818303038152906040528051906020012090506000816040516020016129f691907314da59db995908189e4814dd18589b19555b9a5d60621b8152601481019190915260340190565b6040516020818303038152906040528051906020012090506000806000612a1c87613919565b92509250925060018482858560405160008152602001604052604051612a459493929190615b9a565b6020604051602081039080840390855afa158015612a67573d6000803e3d6000fd5b5050604051601f1901519a9950505050505050505050565b61201b82826040518060200160405280600081525061395c565b60006001600160e01b03198216158061114057506111408261398f565b33612abf611c78565b6001600160a01b031614611b1d5760405162461bcd60e51b815260206004820181905260248201527f4f776e61626c653a2063616c6c6572206973206e6f7420746865206f776e657260448201526064016112e2565b612b1e816139cf565b6128135760405162461bcd60e51b81526004016112e290615898565b60008181526101326020526040902080546001600160a01b0319166001600160a01b0384169081179091558190612b70826119b2565b6001600160a01b03167f8c5be1e5ebec7d5bd14f71427d1e84f3dd0314c0f7b2291e5b200ac8c7c3b92560405160405180910390a45050565b6000612bb48361197a565b6001600160a01b0384811660008181526101c6602052604080822080546001600160a01b031916888616908117909155905194955093928516927f3134e8a2e6d97e929a7e54011ea5485d7d196dd5f0ba4d4ef95803e8e3fc257f9190a46113838183612c20866139ec565b6139f7565b6001600160a01b03163b151590565b600054610100900460ff16612c5b5760405162461bcd60e51b81526004016112e290615bb8565b612c658484613b41565b612c6d613b83565b612c7681613bb3565b61169982613bfc565b600054610100900460ff16612ca65760405162461bcd60e51b81526004016112e290615bb8565b60c980546001600160a01b0319166001600160a01b03831690811790915515801590612d3e57506040516301ffc9a760e01b8152637965db0b60e01b60048201526001600160a01b038216906301ffc9a790602401602060405180830381865afa158015612d18573d6000803e3d6000fd5b505050506040513d601f19601f82011682018060405250810190612d3c91906155ad565b155b15612813576040516384d942fd60e01b815260040160405180910390fd5b600080612d68836119b2565b9050806001600160a01b0316846001600160a01b03161480612d8f5750612d8f81856125b2565b806128a35750836001600160a01b0316612da884611246565b6001600160a01b031614949350505050565b826001600160a01b0316612dcd826119b2565b6001600160a01b031614612df35760405162461bcd60e51b81526004016112e290615c03565b6001600160a01b038216612e555760405162461bcd60e51b8152602060048201526024808201527f4552433732313a207472616e7366657220746f20746865207a65726f206164646044820152637265737360e01b60648201526084016112e2565b826001600160a01b0316612e68826119b2565b6001600160a01b031614612e8e5760405162461bcd60e51b81526004016112e290615c03565b60008181526101326020908152604080832080546001600160a01b03199081169091556001600160a01b0387811680865261013185528386208054600019019055908716808652838620805460010190558686526101309094528285208054909216841790915590518493600080516020615f4983398151915291a46113838383836001613c23565b60408051600180825281830190925260609160009190602080830190803683370190505090508281600081518110612f5157612f51615c48565b602090810291909101015292915050565b6000611701613c2f565b600063ffffffff821115612fd15760405162461bcd60e51b815260206004820152602660248201527f53616665436173743a2076616c756520646f65736e27742066697420696e203360448201526532206269747360d01b60648201526084016112e2565b5090565b815460009081816005811115613032576000612ff084613ca3565b612ffa908561570a565b60008881526020902090915081015463ffffffff908116908716101561302257809150613030565b61302d8160016156f7565b92505b505b600061304087878585613d8b565b9050801561307b576130658761305760018461570a565b600091825260209091200190565b54600160201b90046001600160e01b031661307e565b60005b979650505050505050565b83516000036130ab5760405163ee39705b60e01b815260040160405180910390fd5b8351600114806130cf575061ffff8616600090815260fd6020526040902054845111155b6130ec576040516322b3d67560e21b815260040160405180910390fd5b60005b84518110156131255761311d88888888858151811061311057613110615c48565b6020026020010151613de9565b6001016130ef565b506000858560405160200161313b929190615a82565b604051602081830303815290604052905061318087600184885160fe60008d61ffff1661ffff1681526020019081526020016000205461317b91906156e0565b613e54565b61318e878286868634613ed5565b8560405161319c9190615c5e565b6040518091039020886001600160a01b03168861ffff167fe1b87c47fdeb4f9cbadbca9df3af7aba453bb6e501075d0440d88125b711522a886040516131e29190615c7a565b60405180910390a45050505050505050565b600090815261013060205260409020546001600160a01b031690565b60008082806020019051810190613227919061590f565b60148201519193509150600061323f888383866133d9565b905082518110156133135784516020808701919091206040805160808101825261ffff808d1682526001600160a01b03808816838701908152838501888152600160608601818152600089815260ff909a529887902095518654935190941662010000026001600160b01b03199093169390941692909217178355519082015592516002909301805493151560ff199094169390931790925590517f10e0b70d256bccc84b7027506978bd8b68984a870788b93b479def144c839ad7906133099083908990615c8d565b60405180910390a1505b816001600160a01b03168760405161332b9190615c5e565b60405180910390208961ffff167f5b821db8a46f8ecbe1941ba2f51cfeea9643268b56631f70d45e2a745d990265866040516131e29190615c7a565b603380546001600160a01b038381166001600160a01b0319831681179093556040519116919082907f8be0079c531659141344cd1fd0a4f28419497f9722a3daafe3b4186f6b6457e090600090a35050565b6060610194805461115690615523565b6060610195805461115690615523565b6000825b82518110156128a05760fc545a106128a057613413868685848151811061340657613406615c48565b6020026020010151614016565b8061341d8161557d565b9150506133dd565b600065ffffffffffff821115612fd15760405162461bcd60e51b815260206004820152602660248201527f53616665436173743a2076616c756520646f65736e27742066697420696e203460448201526538206269747360d01b60648201526084016112e2565b805460009080156134bc576134a68361305760018461570a565b54600160201b90046001600160e01b0316612009565b60009392505050565b6060816134d381601f6156f7565b10156135125760405162461bcd60e51b815260206004820152600e60248201526d736c6963655f6f766572666c6f7760901b60448201526064016112e2565b61351c82846156f7565b845110156135605760405162461bcd60e51b8152602060048201526011602482015270736c6963655f6f75744f66426f756e647360781b60448201526064016112e2565b60608215801561357f57604051915060008252602082016040526135c9565b6040519150601f8416801560200281840101858101878315602002848b0101015b818310156135b85780518352602092830192016135a0565b5050858452601f01601f1916604052505b50949350505050565b816001600160a01b0316836001600160a01b03160361362f5760405162461bcd60e51b815260206004820152601960248201527822a9219b99189d1030b8383937bb32903a379031b0b63632b960391b60448201526064016112e2565b6001600160a01b0383811660008181526101336020908152604080832094871680845294825291829020805460ff191686151590811790915591519182527f17307eab39ab6107e8899845ad3d59bd9653f200f220920489ca2b5937696c31910160405180910390a3505050565b6136a8848484612dba565b6136b484848484614076565b6116995760405162461bcd60e51b81526004016112e290615ca6565b60006111406136dd612f62565b8360405161190160f01b8152600281019290925260228201526042902090565b600080600061370e8787878761417b565b9150915061371b81614225565b5095945050505050565b6001600160a01b03811660009081526101c9602052604090208054600181018255905b50919050565b606061022b805461115690615523565b6060600061376b8361436a565b60010190506000816001600160401b0381111561378a5761378a614d36565b6040519080825280601f01601f1916602001820160405280156137b4576020820181803683370190505b5090508181016020015b600019016f181899199a1a9b1b9c1cb0b131b232b360811b600a86061a8153600a85049450846137be57509392505050565b6000606060008060008661ffff166001600160401b0381111561381557613815614d36565b6040519080825280601f01601f19166020018201604052801561383f576020820181803683370190505b50905060008087516020890160008d8df191503d925086831115613861578692505b828152826000602083013e9093509150505b94509492505050565b8180519060200120609760008761ffff1661ffff168152602001908152602001600020856040516138ad9190615c5e565b9081526040805191829003602090810183206001600160401b0388166000908152915220919091557fe183f33de2837795525b4792ca4cd60535bd77c53b7e7030060bfcf5734d6b0c9061390a9087908790879087908790615d0e565b60405180910390a15050505050565b6000806000835160411461394057604051634be6321b60e01b815260040160405180910390fd5b50505060208101516040820151606083015160001a9193909250565b6139668383614440565b6139736000848484614076565b6113835760405162461bcd60e51b81526004016112e290615ca6565b60006001600160e01b031982166380ac58cd60e01b14806139c057506001600160e01b03198216635b5e139f60e01b145b80611140575061114082614547565b6000806139db836131f4565b6001600160a01b0316141592915050565b600061114082611a84565b816001600160a01b0316836001600160a01b031614158015613a195750600081115b15611383576001600160a01b03831615613ab0576001600160a01b03831660009081526101c7602052604081208190613a5d9061457c613a5886614588565b6145f1565b6001600160e01b031691506001600160e01b03169150846001600160a01b0316600080516020615f698339815191528383604051613aa5929190918252602082015260400190565b60405180910390a250505b6001600160a01b03821615611383576001600160a01b03821660009081526101c7602052604081208190613aea9061463a613a5886614588565b6001600160e01b031691506001600160e01b03169150836001600160a01b0316600080516020615f698339815191528383604051613b32929190918252602082015260400190565b60405180910390a25050505050565b600054610100900460ff16613b685760405162461bcd60e51b81526004016112e290615bb8565b61012e613b758382615627565b5061012f6113838282615627565b600054610100900460ff16613baa5760405162461bcd60e51b81526004016112e290615bb8565b611b1d33613367565b600054610100900460ff16613bda5760405162461bcd60e51b81526004016112e290615bb8565b606580546001600160a01b0319166001600160a01b0392909216919091179055565b600054610100900460ff166113905760405162461bcd60e51b81526004016112e290615bb8565b61169984848484614646565b60007f8b73c3c69bb8fe3d512ecc4cf759cc79239f7b179b0ffacaa9a75d522b39400f613c5a614656565b613c626146b0565b60408051602081019490945283019190915260608201524660808201523060a082015260c00160405160208183030381529060405280519060200120905090565b600081600003613cb557506000919050565b60006001613cc2846146e2565b901c6001901b90506001818481613cdb57613cdb615cf8565b048201901c90506001818481613cf357613cf3615cf8565b048201901c90506001818481613d0b57613d0b615cf8565b048201901c90506001818481613d2357613d23615cf8565b048201901c90506001818481613d3b57613d3b615cf8565b048201901c90506001818481613d5357613d53615cf8565b048201901c90506001818481613d6b57613d6b615cf8565b048201901c905061200981828581613d8557613d85615cf8565b04614776565b60005b81831015613de1576000613da2848461478c565b60008781526020902090915063ffffffff86169082015463ffffffff161115613dcd57809250613ddb565b613dd88160016156f7565b93505b50613d8e565b509392505050565b613df2336116a4565b613e0f57604051632fde13f960e01b815260040160405180910390fd5b836001600160a01b0316613e22826119b2565b6001600160a01b031614613e49576040516399c305d960e01b815260040160405180910390fd5b611699843083612dba565b6000613e5f836147a7565b61ffff808716600090815260676020908152604080832093891683529290529081205491925090613e919084906156f7565b905080600003613eb45760405163a25b429560e01b815260040160405180910390fd5b80821015611a7c576040516348a712f560e01b815260040160405180910390fd5b61ffff861660009081526066602052604081208054613ef390615523565b80601f0160208091040260200160405190810160405280929190818152602001828054613f1f90615523565b8015613f6c5780601f10613f4157610100808354040283529160200191613f6c565b820191906000526020600020905b815481529060010190602001808311613f4f57829003601f168201915b505050505090508051600003613f95576040516301d1fb0360e01b815260040160405180910390fd5b613fa08787516147d4565b60655460405162c5803160e81b81526001600160a01b039091169063c5803100908490613fdb908b9086908c908c908c908c90600401615d60565b6000604051808303818588803b158015613ff457600080fd5b505af1158015614008573d6000803e3d6000fd5b505050505050505050505050565b61401f816139cf565b158061404b575061402f816139cf565b801561404b575030614040826119b2565b6001600160a01b0316145b61405457600080fd5b61405d816139cf565b61406b576113838282612a7f565b611383308383612dba565b600061408a846001600160a01b0316612c25565b1561417357604051630a85bd0160e11b81526001600160a01b0385169063150b7a02906140c1903390899088908890600401615dc7565b6020604051808303816000875af19250505080156140fc575060408051601f3d908101601f191682019092526140f991810190615e04565b60015b614159573d80801561412a576040519150601f19603f3d011682016040523d82523d6000602084013e61412f565b606091505b5080516000036141515760405162461bcd60e51b81526004016112e290615ca6565b805181602001fd5b6001600160e01b031916630a85bd0160e11b1490506128a3565b5060016128a3565b6000806fa2a8918ca85bafe22016d0b997e4df60600160ff1b038311156141a85750600090506003613873565b6000600187878787604051600081526020016040526040516141cd9493929190615b9a565b6020604051602081039080840390855afa1580156141ef573d6000803e3d6000fd5b5050604051601f1901519150506001600160a01b03811661421857600060019250925050613873565b9660009650945050505050565b600081600481111561423957614239615e21565b036142415750565b600181600481111561425557614255615e21565b0361429d5760405162461bcd60e51b815260206004820152601860248201527745434453413a20696e76616c6964207369676e617475726560401b60448201526064016112e2565b60028160048111156142b1576142b1615e21565b036142fe5760405162461bcd60e51b815260206004820152601f60248201527f45434453413a20696e76616c6964207369676e6174757265206c656e6774680060448201526064016112e2565b600381600481111561431257614312615e21565b036128135760405162461bcd60e51b815260206004820152602260248201527f45434453413a20696e76616c6964207369676e6174757265202773272076616c604482015261756560f01b60648201526084016112e2565b60008072184f03e93ff9f4daa797ed6e38ed64bf6a1f0160401b83106143a95772184f03e93ff9f4daa797ed6e38ed64bf6a1f0160401b830492506040015b6904ee2d6d415b85acef8160201b83106143d3576904ee2d6d415b85acef8160201b830492506020015b662386f26fc1000083106143f157662386f26fc10000830492506010015b6305f5e1008310614409576305f5e100830492506008015b612710831061441d57612710830492506004015b6064831061442f576064830492506002015b600a83106111405760010192915050565b6001600160a01b0382166144965760405162461bcd60e51b815260206004820181905260248201527f4552433732313a206d696e7420746f20746865207a65726f206164647265737360448201526064016112e2565b61449f816139cf565b156144bc5760405162461bcd60e51b81526004016112e290615e37565b6144c5816139cf565b156144e25760405162461bcd60e51b81526004016112e290615e37565b6001600160a01b0382166000818152610131602090815260408083208054600101905584835261013090915280822080546001600160a01b031916841790555183929190600080516020615f49833981519152908290a461201b600083836001613c23565b60006001600160e01b031982166322bac5d960e01b148061114057506301ffc9a760e01b6001600160e01b0319831614611140565b60006120098284615e6d565b60006001600160e01b03821115612fd15760405162461bcd60e51b815260206004820152602760248201527f53616665436173743a2076616c756520646f65736e27742066697420696e20326044820152663234206269747360c81b60648201526084016112e2565b60008061462d61460f614602611eac565b65ffffffffffff16612f6c565b61462561461b8861348c565b868863ffffffff16565b879190614816565b915091505b935093915050565b60006120098284615e94565b614651848483614824565b611699565b6000806146616133b9565b805190915015614678578051602090910120919050565b6101925480156146885792915050565b7fc5d2460186f7233c927e7db2dcc703c0e500b653ca82273b7bfad8045d85a4709250505090565b6000806146bb6133c9565b8051909150156146d2578051602090910120919050565b6101935480156146885792915050565b600080608083901c156146f757608092831c92015b604083901c1561470957604092831c92015b602083901c1561471b57602092831c92015b601083901c1561472d57601092831c92015b600883901c1561473f57600892831c92015b600483901c1561475157600492831c92015b600283901c1561476357600292831c92015b600183901c156111405760010192915050565b60008183106147855781612009565b5090919050565b600061479b6002848418615eb4565b612009908484166156f7565b60006022825110156147cc576040516363c7624560e01b815260040160405180910390fd5b506022015190565b61ffff8216600090815260686020526040812054908190036147f557506127105b8082111561138357604051634152331560e01b815260040160405180910390fd5b60008061462d858585614885565b6001600160a01b038316614847576148446101c861463a613a5884614588565b50505b6001600160a01b03821661486a576148676101c861457c613a5884614588565b50505b6113836148768461197a565b61487f8461197a565b836139f7565b8254600090819080156149c95760006148a38761305760018561570a565b60408051808201909152905463ffffffff808216808452600160201b9092046001600160e01b0316602084015291925090871610156149225760405162461bcd60e51b815260206004820152601b60248201527a436865636b706f696e743a2064656372656173696e67206b65797360281b60448201526064016112e2565b805163ffffffff80881691160361496a57846149438861305760018661570a565b80546001600160e01b0392909216600160201b0263ffffffff9092169190911790556149b9565b6040805180820190915263ffffffff80881682526001600160e01b0380881660208085019182528b54600181018d5560008d81529190912094519151909216600160201b029216919091179101555b6020015192508391506146329050565b50506040805180820190915263ffffffff80851682526001600160e01b0380851660208085019182528854600181018a5560008a815291822095519251909316600160201b029190931617920191909155905081614632565b803561ffff81168114614a3457600080fd5b919050565b60008083601f840112614a4b57600080fd5b5081356001600160401b03811115614a6257600080fd5b602083019150836020828501011115614a7a57600080fd5b9250929050565b80356001600160401b0381168114614a3457600080fd5b60008060008060008060808789031215614ab157600080fd5b614aba87614a22565b955060208701356001600160401b0380821115614ad657600080fd5b614ae28a838b01614a39565b9097509550859150614af660408a01614a81565b94506060890135915080821115614b0c57600080fd5b50614b1989828a01614a39565b979a9699509497509295939492505050565b600080600060408486031215614b4057600080fd5b83356001600160401b03811115614b5657600080fd5b614b6286828701614a39565b909790965060209590950135949350505050565b6001600160e01b03198116811461281357600080fd5b600060208284031215614b9e57600080fd5b813561200981614b76565b6001600160a01b0391909116815260200190565b60005b83811015614bd8578181015183820152602001614bc0565b50506000910152565b60008151808452614bf9816020860160208601614bbd565b601f01601f19169290920160200192915050565b6020815260006120096020830184614be1565b600060208284031215614c3257600080fd5b61200982614a22565b600060208284031215614c4d57600080fd5b5035919050565b6001600160a01b038116811461281357600080fd5b8035614a3481614c54565b60008060408385031215614c8757600080fd5b8235614c9281614c54565b946020939093013593505050565b60008060408385031215614cb357600080fd5b614c9283614a22565b60008060408385031215614ccf57600080fd5b8235614cda81614c54565b91506020830135614cea81614c54565b809150509250929050565b600080600060608486031215614d0a57600080fd5b8335614d1581614c54565b92506020840135614d2581614c54565b929592945050506040919091013590565b634e487b7160e01b600052604160045260246000fd5b604051601f8201601f191681016001600160401b0381118282101715614d7457614d74614d36565b604052919050565b60006001600160401b03821115614d9557614d95614d36565b50601f01601f191660200190565b600082601f830112614db457600080fd5b8135614dc7614dc282614d7c565b614d4c565b818152846020838601011115614ddc57600080fd5b816020850160208301376000918101602001919091529392505050565b801515811461281357600080fd5b600080600080600060a08688031215614e1f57600080fd5b614e2886614a22565b945060208601356001600160401b0380821115614e4457600080fd5b614e5089838a01614da3565b95506040880135945060608801359150614e6982614df9565b90925060808701359080821115614e7f57600080fd5b50614e8c88828901614da3565b9150509295509295909350565b600060208284031215614eab57600080fd5b813561200981614c54565b600080600060408486031215614ecb57600080fd5b614ed484614a22565b925060208401356001600160401b03811115614eef57600080fd5b614efb86828701614a39565b9497909650939450505050565b600080600080600080600060e0888a031215614f2357600080fd5b8735614f2e81614c54565b9650614f3c60208901614a22565b955060408801356001600160401b0380821115614f5857600080fd5b614f648b838c01614da3565b965060608a0135955060808a01359150614f7d82614c54565b90935060a089013590614f8f82614c54565b90925060c08901359080821115614fa557600080fd5b50614fb28a828b01614da3565b91505092959891949750929550565b60008060208385031215614fd457600080fd5b82356001600160401b03811115614fea57600080fd5b614ff685828601614a39565b90969095509350505050565b60008060006060848603121561501757600080fd5b61502084614a22565b925060208401356001600160401b0381111561503b57600080fd5b61504786828701614da3565b92505061505660408501614a81565b90509250925092565b60008151808452602080850194506020840160005b8381101561509057815187529582019590820190600101615074565b509495945050505050565b60ff60f81b8816815260e0602082015260006150ba60e0830189614be1565b82810360408401526150cc8189614be1565b606084018890526001600160a01b038716608085015260a0840186905283810360c085015290506150fd818561505f565b9a9950505050505050505050565b6000806040838503121561511e57600080fd5b61512783614a22565b915061513560208401614a22565b90509250929050565b60006020828403121561515057600080fd5b81356001600160401b0381111561516657600080fd5b6128a384828501614da3565b6000806040838503121561518557600080fd5b823561519081614c54565b91506020830135614cea81614df9565b60006001600160401b038211156151b9576151b9614d36565b5060051b60200190565b600082601f8301126151d457600080fd5b813560206151e4614dc2836151a0565b8083825260208201915060208460051b87010193508684111561520657600080fd5b602086015b84811015615222578035835291830191830161520b565b509695505050505050565b600080600080600080600060e0888a03121561524857600080fd5b873561525381614c54565b965061526160208901614a22565b955060408801356001600160401b038082111561527d57600080fd5b6152898b838c01614da3565b965060608a013591508082111561529f57600080fd5b6152ab8b838c016151c3565b955060808a013591506152bd82614c54565b8194506152cc60a08b01614c69565b935060c08a0135915080821115614fa557600080fd5b600080600080608085870312156152f857600080fd5b843561530381614c54565b9350602085013561531381614c54565b92506040850135915060608501356001600160401b0381111561533557600080fd5b61534187828801614da3565b91505092959194509250565b60008060008060008060c0878903121561536657600080fd5b863561537181614c54565b95506020870135945060408701359350606087013560ff8116811461539557600080fd5b9598949750929560808101359460a0909101359350915050565b6000806000806000608086880312156153c757600080fd5b6153d086614a22565b94506153de60208701614a22565b93506040860135925060608601356001600160401b0381111561540057600080fd5b61540c88828901614a39565b969995985093965092949392505050565b60008060006060848603121561543257600080fd5b61543b84614a22565b925061544960208501614a22565b9150604084013590509250925092565b600080600080600060a0868803121561547157600080fd5b61547a86614a22565b945060208601356001600160401b038082111561549657600080fd5b6154a289838a01614da3565b955060408801359150808211156154b857600080fd5b6154c489838a016151c3565b945060608801359150614e6982614df9565b600080600080608085870312156154ec57600080fd5b6154f585614a22565b935061550360208601614a22565b9250604085013561551381614c54565b9396929550929360600135925050565b600181811c9082168061553757607f821691505b60208210810361374857634e487b7160e01b600052602260045260246000fd5b8183823760009101908152919050565b634e487b7160e01b600052601160045260246000fd5b60006001820161558f5761558f615567565b5060010190565b9182526001600160a01b0316602082015260400190565b6000602082840312156155bf57600080fd5b815161200981614df9565b601f821115611383576000816000526020600020601f850160051c810160208610156155f35750805b601f850160051c820191505b81811015611a7c578281556001016155ff565b600019600383901b1c191660019190911b1790565b81516001600160401b0381111561564057615640614d36565b6156548161564e8454615523565b846155ca565b602080601f83116001811461568357600084156156715750858301515b61567b8582615612565b865550611a7c565b600085815260208120601f198616915b828110156156b257888601518255948401946001909101908401615693565b50858210156156d05787850151600019600388901b60f8161c191681555b5050505050600190811b01905550565b808202811582820484141761114057611140615567565b8082018082111561114057611140615567565b8181038181111561114057611140615567565b6020808252602d908201527f4552433732313a2063616c6c6572206973206e6f7420746f6b656e206f776e6560408201526c1c881bdc88185c1c1c9bdd9959609a1b606082015260800190565b6020808252601490820152730566f7465733a20667574757265206c6f6f6b75760641b604082015260600190565b81835281816020850137506000828201602090810191909152601f909101601f19169091010190565b61ffff841681526040602082015260006128a0604083018486615798565b6001600160401b038311156157f6576157f6614d36565b61580a836158048354615523565b836155ca565b6000601f84116001811461583857600085156158265750838201355b6158308682615612565b84555061123f565b600083815260209020601f19861690835b828110156158695786850135825560209485019460019092019101615849565b50868210156158865760001960f88860031b161c19848701351681555b505060018560011b0183555050505050565b602080825260189082015277115490cdcc8c4e881a5b9d985b1a59081d1bdad95b88125160421b604082015260600190565b600082601f8301126158db57600080fd5b81516158e9614dc282614d7c565b8181528460208386010111156158fe57600080fd5b6128a3826020830160208701614bbd565b6000806040838503121561592257600080fd5b82516001600160401b038082111561593957600080fd5b615945868387016158ca565b935060209150818501518181111561595c57600080fd5b85019050601f8101861361596f57600080fd5b805161597d614dc2826151a0565b81815260059190911b8201830190838101908883111561599c57600080fd5b928401925b828410156159ba578351825292840192908401906159a1565b80955050505050509250929050565b8284823760609190911b6001600160601b0319169101908152601401919050565b600083516159fc818460208801614bbd565b835190830190615a10818360208801614bbd565b01949350505050565b600061ffff80881683528087166020840152508460408301526080606083015261307e608083018486615798565b61ffff86168152608060208201526000615a65608083018688615798565b6001600160401b0394909416604083015250606001529392505050565b604081526000615a956040830185614be1565b8281036020840152615aa7818561505f565b95945050505050565b61ffff861681526001600160a01b038516602082015260a060408201819052600090615ade90830186614be1565b84151560608401528281036080840152615af88185614be1565b98975050505050505050565b60008060408385031215615b1757600080fd5b505080516020909101519092909150565b600060208284031215615b3a57600080fd5b81516001600160401b03811115615b5057600080fd5b6128a3848285016158ca565b61ffff85168152608060208201526000615b796080830186614be1565b6001600160401b0385166040840152828103606084015261307e8185614be1565b93845260ff9290921660208401526040830152606082015260800190565b6020808252602b908201527f496e697469616c697a61626c653a20636f6e7472616374206973206e6f74206960408201526a6e697469616c697a696e6760a81b606082015260800190565b60208082526025908201527f4552433732313a207472616e736665722066726f6d20696e636f72726563742060408201526437bbb732b960d91b606082015260800190565b634e487b7160e01b600052603260045260246000fd5b60008251615c70818460208701614bbd565b9190910192915050565b602081526000612009602083018461505f565b8281526040602082015260006128a36040830184614be1565b60208082526032908201527f4552433732313a207472616e7366657220746f206e6f6e20455243373231526560408201527131b2b4bb32b91034b6b83632b6b2b73a32b960711b606082015260800190565b634e487b7160e01b600052601260045260246000fd5b61ffff8616815260a060208201526000615d2b60a0830187614be1565b6001600160401b03861660408401528281036060840152615d4c8186614be1565b90508281036080840152615af88185614be1565b61ffff8716815260c060208201526000615d7d60c0830188614be1565b8281036040840152615d8f8188614be1565b6001600160a01b0387811660608601528616608085015283810360a08501529050615dba8185614be1565b9998505050505050505050565b6001600160a01b0385811682528416602082015260408101839052608060608201819052600090615dfa90830184614be1565b9695505050505050565b600060208284031215615e1657600080fd5b815161200981614b76565b634e487b7160e01b600052602160045260246000fd5b6020808252601c908201527b115490cdcc8c4e881d1bdad95b88185b1c9958591e481b5a5b9d195960221b604082015260600190565b6001600160e01b03828116828216039080821115615e8d57615e8d615567565b5092915050565b6001600160e01b03818116838216019080821115615e8d57615e8d615567565b600082615ed157634e487b7160e01b600052601260045260246000fd5b50049056fe68747470733a2f2f626166796265696174357a676c37776b326e713532646f33706b7970656d7a68787a647569716533367168373766747336773434707079336165752e697066732e7733732e6c696e6b2f5719df9ef2c4678b547f89e4f5ae410dbf400fc51cf3ded434c55f6adea2c43fddf252ad1be2c89b69c2b068fc378daa952ba7f163c4a11628f55a4df523b3efdec2bacdd2f05b59de34da9b523dff8be42e5e38e818c82fdb0bae774387a724a2646970667358221220a621cdb2130e2d1debc694b9b6b5cdd9eec40c7bba08975fc18677953dd3269964736f6c63430008170033",
  "devdoc": {
    "events": {
      "Approval(address,address,uint256)": {
        "details": "Emitted when `owner` enables `approved` to manage the `tokenId` token."
      },
      "ApprovalForAll(address,address,bool)": {
        "details": "Emitted when `owner` enables or disables (`approved`) `operator` to manage all of its assets."
      },
      "CreditCleared(bytes32)": {
        "details": "Emitted when `_hashedPayload` has been completely delivered"
      },
      "CreditStored(bytes32,bytes)": {
        "details": "Emitted when `_payload` was received from lz, but not enough gas to deliver all tokenIds"
      },
      "DelegateChanged(address,address,address)": {
        "details": "Emitted when an account changes their delegate."
      },
      "DelegateVotesChanged(address,uint256,uint256)": {
        "details": "Emitted when a token transfer or delegate change results in changes to a delegate's number of votes."
      },
      "EIP712DomainChanged()": {
        "details": "MAY be emitted to signal that the domain could have changed."
      },
      "Initialized(uint8)": {
        "details": "Triggered when the contract has been initialized or reinitialized."
      },
      "SendToChain(uint16,address,bytes,uint256[])": {
        "details": "Emitted when `_tokenIds[]` are moved from the `_sender` to (`_dstChainId`, `_toAddress`) `_nonce` is the outbound nonce from"
      },
      "Transfer(address,address,uint256)": {
        "details": "Emitted when `tokenId` token is transferred from `from` to `to`."
      }
    },
    "kind": "dev",
    "methods": {
      "CLOCK_MODE()": {
        "details": "Machine-readable description of the clock as specified in EIP-6372."
      },
      "DOMAIN_SEPARATOR()": {
        "details": "Returns the contract's {EIP712} domain separator."
      },
      "approve(address,uint256)": {
        "details": "See {IERC721-approve}."
      },
      "balanceOf(address)": {
        "details": "See {IERC721-balanceOf}."
      },
      "clock()": {
        "details": "Clock used for flagging checkpoints. Can be overridden to implement timestamp based checkpoints (and voting), in which case {CLOCK_MODE} should be overridden as well to match."
      },
      "delegate(address)": {
        "details": "Delegates votes from the sender to `delegatee`. It's DEPRECATED. Only contracts with SYSTEM_ROLE can call delegateOnBehalf(). (like VotingPower that has complex logic to work with SuVoteToken-like tokens)"
      },
      "delegateBySig(address,uint256,uint256,uint8,bytes32,bytes32)": {
        "details": "Delegates votes from signer to `delegatee`."
      },
      "delegateOnBehalf(address,address)": {
        "details": "Delegates votes from the account to `delegatee`."
      },
      "delegates(address)": {
        "details": "Returns the delegate that `account` has chosen."
      },
      "eip712Domain()": {
        "details": "See {EIP-5267}. _Available since v4.9._"
      },
      "estimateSendBatchFee(uint16,bytes,uint256[],bool,bytes)": {
        "details": "estimate send token `_tokenId` to (`_dstChainId`, `_toAddress`) _dstChainId - L0 defined chain id to send tokens too _toAddress - dynamic bytes array which contains the address to whom you are sending tokens to on the dstChain _tokenIds[] - token Ids to transfer _useZro - indicates to use zro to pay L0 fees _adapterParams - flexible bytes array to indicate messaging adapter services in L0"
      },
      "estimateSendFee(uint16,bytes,uint256,bool,bytes)": {
        "details": "estimate send token `_tokenId` to (`_dstChainId`, `_toAddress`) _dstChainId - L0 defined chain id to send tokens too _toAddress - dynamic bytes array which contains the address to whom you are sending tokens to on the dstChain _tokenId - token Id to transfer _useZro - indicates to use zro to pay L0 fees _adapterParams - flexible bytes array to indicate messaging adapter services in L0"
      },
      "getApproved(uint256)": {
        "details": "See {IERC721-getApproved}."
      },
      "getPastTotalSupply(uint256)": {
        "details": "Returns the total supply of votes available at a specific moment in the past. If the `clock()` is configured to use block numbers, this will return the value at the end of the corresponding block. NOTE: This value is the sum of all available votes, which is not necessarily the sum of all delegated votes. Votes that have not been delegated are still part of total supply, even though they would not participate in a vote. Requirements: - `timepoint` must be in the past. If operating using block numbers, the block must be already mined."
      },
      "getPastVotes(address,uint256)": {
        "details": "Returns the amount of votes that `account` had at a specific moment in the past. If the `clock()` is configured to use block numbers, this will return the value at the end of the corresponding block. Requirements: - `timepoint` must be in the past. If operating using block numbers, the block must be already mined."
      },
      "getVotes(address)": {
        "details": "Returns the current amount of votes that `account` has."
      },
      "isApprovedForAll(address,address)": {
        "details": "See {IERC721-isApprovedForAll}."
      },
      "name()": {
        "details": "See {IERC721Metadata-name}."
      },
      "nonces(address)": {
        "details": "Returns an address nonce."
      },
      "owner()": {
        "details": "Returns the address of the current owner."
      },
      "ownerOf(uint256)": {
        "details": "See {IERC721-ownerOf}."
      },
      "renounceOwnership()": {
        "details": "Leaves the contract without owner. It will not be possible to call `onlyOwner` functions. Can only be called by the current owner. NOTE: Renouncing ownership will leave the contract without an owner, thereby disabling any functionality that is only available to the owner."
      },
      "safeTransferFrom(address,address,uint256)": {
        "details": "See {IERC721-safeTransferFrom}."
      },
      "safeTransferFrom(address,address,uint256,bytes)": {
        "details": "See {IERC721-safeTransferFrom}."
      },
      "sendBatchFrom(address,uint16,bytes,uint256[],address,address,bytes)": {
        "details": "send tokens `_tokenIds[]` to (`_dstChainId`, `_toAddress`) from `_from` `_toAddress` can be any size depending on the `dstChainId`. `_zroPaymentAddress` set to address(0x0) if not paying in ZRO (LayerZero Token) `_adapterParams` is a flexible bytes array to indicate messaging adapter services"
      },
      "sendFrom(address,uint16,bytes,uint256,address,address,bytes)": {
        "details": "send token `_tokenId` to (`_dstChainId`, `_toAddress`) from `_from` `_toAddress` can be any size depending on the `dstChainId`. `_zroPaymentAddress` set to address(0x0) if not paying in ZRO (LayerZero Token) `_adapterParams` is a flexible bytes array to indicate messaging adapter services"
      },
      "setApprovalForAll(address,bool)": {
        "details": "See {IERC721-setApprovalForAll}."
      },
      "symbol()": {
        "details": "See {IERC721Metadata-symbol}."
      },
      "tokenURI(uint256)": {
        "details": "See {IERC721Metadata-tokenURI}."
      },
      "transferFrom(address,address,uint256)": {
        "details": "See {IERC721-transferFrom}."
      },
      "transferOwnership(address)": {
        "details": "Transfers ownership of the contract to a new account (`newOwner`). Can only be called by the current owner."
      }
    },
    "stateVariables": {
      "__gap": {
        "details": "This empty reserved space is put in place to allow future versions to add new variables without shifting down storage in the inheritance chain. See https://docs.openzeppelin.com/contracts/4.x/upgradeable#storage_gaps"
      }
    },
    "version": 1
  },
  "userdoc": {
    "kind": "user",
    "methods": {},
    "version": 1
  },
  "storageLayout": {
    "storage": [
      {
        "astId": 909,
        "contract": "contracts/SuDAONFT.sol:SuDAONFT",
        "label": "_initialized",
        "offset": 0,
        "slot": "0",
        "type": "t_uint8"
      },
      {
        "astId": 912,
        "contract": "contracts/SuDAONFT.sol:SuDAONFT",
        "label": "_initializing",
        "offset": 1,
        "slot": "0",
        "type": "t_bool"
      },
      {
        "astId": 4169,
        "contract": "contracts/SuDAONFT.sol:SuDAONFT",
        "label": "__gap",
        "offset": 0,
        "slot": "1",
        "type": "t_array(t_uint256)50_storage"
      },
      {
        "astId": 83,
        "contract": "contracts/SuDAONFT.sol:SuDAONFT",
        "label": "_owner",
        "offset": 0,
        "slot": "51",
        "type": "t_address"
      },
      {
        "astId": 203,
        "contract": "contracts/SuDAONFT.sol:SuDAONFT",
        "label": "__gap",
        "offset": 0,
        "slot": "52",
        "type": "t_array(t_uint256)49_storage"
      },
      {
        "astId": 7923,
        "contract": "contracts/SuDAONFT.sol:SuDAONFT",
        "label": "lzEndpoint",
        "offset": 0,
        "slot": "101",
        "type": "t_contract(ILayerZeroEndpointUpgradeable)7836"
      },
      {
        "astId": 7927,
        "contract": "contracts/SuDAONFT.sol:SuDAONFT",
        "label": "trustedRemoteLookup",
        "offset": 0,
        "slot": "102",
        "type": "t_mapping(t_uint16,t_bytes_storage)"
      },
      {
        "astId": 7933,
        "contract": "contracts/SuDAONFT.sol:SuDAONFT",
        "label": "minDstGasLookup",
        "offset": 0,
        "slot": "103",
        "type": "t_mapping(t_uint16,t_mapping(t_uint16,t_uint256))"
      },
      {
        "astId": 7937,
        "contract": "contracts/SuDAONFT.sol:SuDAONFT",
        "label": "payloadSizeLimitLookup",
        "offset": 0,
        "slot": "104",
        "type": "t_mapping(t_uint16,t_uint256)"
      },
      {
        "astId": 7939,
        "contract": "contracts/SuDAONFT.sol:SuDAONFT",
        "label": "precrime",
        "offset": 0,
        "slot": "105",
        "type": "t_address"
      },
      {
        "astId": 8473,
        "contract": "contracts/SuDAONFT.sol:SuDAONFT",
        "label": "__gap",
        "offset": 0,
        "slot": "106",
        "type": "t_array(t_uint256)45_storage"
      },
      {
        "astId": 8522,
        "contract": "contracts/SuDAONFT.sol:SuDAONFT",
        "label": "failedMessages",
        "offset": 0,
        "slot": "151",
        "type": "t_mapping(t_uint16,t_mapping(t_bytes_memory_ptr,t_mapping(t_uint64,t_bytes32)))"
      },
      {
        "astId": 8741,
        "contract": "contracts/SuDAONFT.sol:SuDAONFT",
        "label": "__gap",
        "offset": 0,
        "slot": "152",
        "type": "t_array(t_uint256)49_storage"
      },
      {
        "astId": 10837,
        "contract": "contracts/SuDAONFT.sol:SuDAONFT",
        "label": "ACCESS_CONTROL_SINGLETON",
        "offset": 0,
        "slot": "201",
        "type": "t_contract(ISuAccessControl)11047"
      },
      {
        "astId": 5166,
        "contract": "contracts/SuDAONFT.sol:SuDAONFT",
        "label": "__gap",
        "offset": 0,
        "slot": "202",
        "type": "t_array(t_uint256)50_storage"
      },
      {
        "astId": 8909,
        "contract": "contracts/SuDAONFT.sol:SuDAONFT",
        "label": "minGasToTransferAndStore",
        "offset": 0,
        "slot": "252",
        "type": "t_uint256"
      },
      {
        "astId": 8913,
        "contract": "contracts/SuDAONFT.sol:SuDAONFT",
        "label": "dstChainIdToBatchLimit",
        "offset": 0,
        "slot": "253",
        "type": "t_mapping(t_uint16,t_uint256)"
      },
      {
        "astId": 8917,
        "contract": "contracts/SuDAONFT.sol:SuDAONFT",
        "label": "dstChainIdToTransferGas",
        "offset": 0,
        "slot": "254",
        "type": "t_mapping(t_uint16,t_uint256)"
      },
      {
        "astId": 8922,
        "contract": "contracts/SuDAONFT.sol:SuDAONFT",
        "label": "storedCredits",
        "offset": 0,
        "slot": "255",
        "type": "t_mapping(t_bytes32,t_struct(StoredCredit)8907_storage)"
      },
      {
        "astId": 9555,
        "contract": "contracts/SuDAONFT.sol:SuDAONFT",
        "label": "__gap",
        "offset": 0,
        "slot": "256",
        "type": "t_array(t_uint256)46_storage"
      },
      {
        "astId": 1100,
        "contract": "contracts/SuDAONFT.sol:SuDAONFT",
        "label": "_name",
        "offset": 0,
        "slot": "302",
        "type": "t_string_storage"
      },
      {
        "astId": 1102,
        "contract": "contracts/SuDAONFT.sol:SuDAONFT",
        "label": "_symbol",
        "offset": 0,
        "slot": "303",
        "type": "t_string_storage"
      },
      {
        "astId": 1106,
        "contract": "contracts/SuDAONFT.sol:SuDAONFT",
        "label": "_owners",
        "offset": 0,
        "slot": "304",
        "type": "t_mapping(t_uint256,t_address)"
      },
      {
        "astId": 1110,
        "contract": "contracts/SuDAONFT.sol:SuDAONFT",
        "label": "_balances",
        "offset": 0,
        "slot": "305",
        "type": "t_mapping(t_address,t_uint256)"
      },
      {
        "astId": 1114,
        "contract": "contracts/SuDAONFT.sol:SuDAONFT",
        "label": "_tokenApprovals",
        "offset": 0,
        "slot": "306",
        "type": "t_mapping(t_uint256,t_address)"
      },
      {
        "astId": 1120,
        "contract": "contracts/SuDAONFT.sol:SuDAONFT",
        "label": "_operatorApprovals",
        "offset": 0,
        "slot": "307",
        "type": "t_mapping(t_address,t_mapping(t_address,t_bool))"
      },
      {
        "astId": 2022,
        "contract": "contracts/SuDAONFT.sol:SuDAONFT",
        "label": "__gap",
        "offset": 0,
        "slot": "308",
        "type": "t_array(t_uint256)44_storage"
      },
      {
        "astId": 9734,
        "contract": "contracts/SuDAONFT.sol:SuDAONFT",
        "label": "__gap",
        "offset": 0,
        "slot": "352",
        "type": "t_array(t_uint256)50_storage"
      },
      {
        "astId": 4857,
        "contract": "contracts/SuDAONFT.sol:SuDAONFT",
        "label": "_hashedName",
        "offset": 0,
        "slot": "402",
        "type": "t_bytes32"
      },
      {
        "astId": 4860,
        "contract": "contracts/SuDAONFT.sol:SuDAONFT",
        "label": "_hashedVersion",
        "offset": 0,
        "slot": "403",
        "type": "t_bytes32"
      },
      {
        "astId": 4862,
        "contract": "contracts/SuDAONFT.sol:SuDAONFT",
        "label": "_name",
        "offset": 0,
        "slot": "404",
        "type": "t_string_storage"
      },
      {
        "astId": 4864,
        "contract": "contracts/SuDAONFT.sol:SuDAONFT",
        "label": "_version",
        "offset": 0,
        "slot": "405",
        "type": "t_string_storage"
      },
      {
        "astId": 5122,
        "contract": "contracts/SuDAONFT.sol:SuDAONFT",
        "label": "__gap",
        "offset": 0,
        "slot": "406",
        "type": "t_array(t_uint256)48_storage"
      },
      {
        "astId": 328,
        "contract": "contracts/SuDAONFT.sol:SuDAONFT",
        "label": "_delegation",
        "offset": 0,
        "slot": "454",
        "type": "t_mapping(t_address,t_address)"
      },
      {
        "astId": 334,
        "contract": "contracts/SuDAONFT.sol:SuDAONFT",
        "label": "_delegateCheckpoints",
        "offset": 0,
        "slot": "455",
        "type": "t_mapping(t_address,t_struct(Trace224)3128_storage)"
      },
      {
        "astId": 338,
        "contract": "contracts/SuDAONFT.sol:SuDAONFT",
        "label": "_totalCheckpoints",
        "offset": 0,
        "slot": "456",
        "type": "t_struct(Trace224)3128_storage"
      },
      {
        "astId": 343,
        "contract": "contracts/SuDAONFT.sol:SuDAONFT",
        "label": "_nonces",
        "offset": 0,
        "slot": "457",
        "type": "t_mapping(t_address,t_struct(Counter)4176_storage)"
      },
      {
        "astId": 852,
        "contract": "contracts/SuDAONFT.sol:SuDAONFT",
        "label": "__gap",
        "offset": 0,
        "slot": "458",
        "type": "t_array(t_uint256)46_storage"
      },
      {
        "astId": 2229,
        "contract": "contracts/SuDAONFT.sol:SuDAONFT",
        "label": "__gap",
        "offset": 0,
        "slot": "504",
        "type": "t_array(t_uint256)50_storage"
      },
      {
        "astId": 10181,
        "contract": "contracts/SuDAONFT.sol:SuDAONFT",
        "label": "hasMinted",
        "offset": 0,
        "slot": "554",
        "type": "t_mapping(t_address,t_bool)"
      },
      {
        "astId": 10183,
        "contract": "contracts/SuDAONFT.sol:SuDAONFT",
        "label": "baseURI",
        "offset": 0,
        "slot": "555",
        "type": "t_string_storage"
      },
      {
        "astId": 10185,
        "contract": "contracts/SuDAONFT.sol:SuDAONFT",
        "label": "nextMintId",
        "offset": 0,
        "slot": "556",
        "type": "t_uint256"
      },
      {
        "astId": 10187,
        "contract": "contracts/SuDAONFT.sol:SuDAONFT",
        "label": "maxMintId",
        "offset": 0,
        "slot": "557",
        "type": "t_uint256"
      },
      {
        "astId": 10189,
        "contract": "contracts/SuDAONFT.sol:SuDAONFT",
        "label": "backendSigner",
        "offset": 0,
        "slot": "558",
        "type": "t_address"
      },
      {
        "astId": 10418,
        "contract": "contracts/SuDAONFT.sol:SuDAONFT",
        "label": "__gap",
        "offset": 0,
        "slot": "559",
        "type": "t_array(t_uint256)50_storage"
      }
    ],
    "types": {
      "t_address": {
        "encoding": "inplace",
        "label": "address",
        "numberOfBytes": "20"
      },
      "t_array(t_struct(Checkpoint224)3133_storage)dyn_storage": {
        "base": "t_struct(Checkpoint224)3133_storage",
        "encoding": "dynamic_array",
        "label": "struct CheckpointsUpgradeable.Checkpoint224[]",
        "numberOfBytes": "32"
      },
      "t_array(t_uint256)44_storage": {
        "base": "t_uint256",
        "encoding": "inplace",
        "label": "uint256[44]",
        "numberOfBytes": "1408"
      },
      "t_array(t_uint256)45_storage": {
        "base": "t_uint256",
        "encoding": "inplace",
        "label": "uint256[45]",
        "numberOfBytes": "1440"
      },
      "t_array(t_uint256)46_storage": {
        "base": "t_uint256",
        "encoding": "inplace",
        "label": "uint256[46]",
        "numberOfBytes": "1472"
      },
      "t_array(t_uint256)48_storage": {
        "base": "t_uint256",
        "encoding": "inplace",
        "label": "uint256[48]",
        "numberOfBytes": "1536"
      },
      "t_array(t_uint256)49_storage": {
        "base": "t_uint256",
        "encoding": "inplace",
        "label": "uint256[49]",
        "numberOfBytes": "1568"
      },
      "t_array(t_uint256)50_storage": {
        "base": "t_uint256",
        "encoding": "inplace",
        "label": "uint256[50]",
        "numberOfBytes": "1600"
      },
      "t_bool": {
        "encoding": "inplace",
        "label": "bool",
        "numberOfBytes": "1"
      },
      "t_bytes32": {
        "encoding": "inplace",
        "label": "bytes32",
        "numberOfBytes": "32"
      },
      "t_bytes_memory_ptr": {
        "encoding": "bytes",
        "label": "bytes",
        "numberOfBytes": "32"
      },
      "t_bytes_storage": {
        "encoding": "bytes",
        "label": "bytes",
        "numberOfBytes": "32"
      },
      "t_contract(ILayerZeroEndpointUpgradeable)7836": {
        "encoding": "inplace",
        "label": "contract ILayerZeroEndpointUpgradeable",
        "numberOfBytes": "20"
      },
      "t_contract(ISuAccessControl)11047": {
        "encoding": "inplace",
        "label": "contract ISuAccessControl",
        "numberOfBytes": "20"
      },
      "t_mapping(t_address,t_address)": {
        "encoding": "mapping",
        "key": "t_address",
        "label": "mapping(address => address)",
        "numberOfBytes": "32",
        "value": "t_address"
      },
      "t_mapping(t_address,t_bool)": {
        "encoding": "mapping",
        "key": "t_address",
        "label": "mapping(address => bool)",
        "numberOfBytes": "32",
        "value": "t_bool"
      },
      "t_mapping(t_address,t_mapping(t_address,t_bool))": {
        "encoding": "mapping",
        "key": "t_address",
        "label": "mapping(address => mapping(address => bool))",
        "numberOfBytes": "32",
        "value": "t_mapping(t_address,t_bool)"
      },
      "t_mapping(t_address,t_struct(Counter)4176_storage)": {
        "encoding": "mapping",
        "key": "t_address",
        "label": "mapping(address => struct CountersUpgradeable.Counter)",
        "numberOfBytes": "32",
        "value": "t_struct(Counter)4176_storage"
      },
      "t_mapping(t_address,t_struct(Trace224)3128_storage)": {
        "encoding": "mapping",
        "key": "t_address",
        "label": "mapping(address => struct CheckpointsUpgradeable.Trace224)",
        "numberOfBytes": "32",
        "value": "t_struct(Trace224)3128_storage"
      },
      "t_mapping(t_address,t_uint256)": {
        "encoding": "mapping",
        "key": "t_address",
        "label": "mapping(address => uint256)",
        "numberOfBytes": "32",
        "value": "t_uint256"
      },
      "t_mapping(t_bytes32,t_struct(StoredCredit)8907_storage)": {
        "encoding": "mapping",
        "key": "t_bytes32",
        "label": "mapping(bytes32 => struct ONFT721CoreUpgradeable.StoredCredit)",
        "numberOfBytes": "32",
        "value": "t_struct(StoredCredit)8907_storage"
      },
      "t_mapping(t_bytes_memory_ptr,t_mapping(t_uint64,t_bytes32))": {
        "encoding": "mapping",
        "key": "t_bytes_memory_ptr",
        "label": "mapping(bytes => mapping(uint64 => bytes32))",
        "numberOfBytes": "32",
        "value": "t_mapping(t_uint64,t_bytes32)"
      },
      "t_mapping(t_uint16,t_bytes_storage)": {
        "encoding": "mapping",
        "key": "t_uint16",
        "label": "mapping(uint16 => bytes)",
        "numberOfBytes": "32",
        "value": "t_bytes_storage"
      },
      "t_mapping(t_uint16,t_mapping(t_bytes_memory_ptr,t_mapping(t_uint64,t_bytes32)))": {
        "encoding": "mapping",
        "key": "t_uint16",
        "label": "mapping(uint16 => mapping(bytes => mapping(uint64 => bytes32)))",
        "numberOfBytes": "32",
        "value": "t_mapping(t_bytes_memory_ptr,t_mapping(t_uint64,t_bytes32))"
      },
      "t_mapping(t_uint16,t_mapping(t_uint16,t_uint256))": {
        "encoding": "mapping",
        "key": "t_uint16",
        "label": "mapping(uint16 => mapping(uint16 => uint256))",
        "numberOfBytes": "32",
        "value": "t_mapping(t_uint16,t_uint256)"
      },
      "t_mapping(t_uint16,t_uint256)": {
        "encoding": "mapping",
        "key": "t_uint16",
        "label": "mapping(uint16 => uint256)",
        "numberOfBytes": "32",
        "value": "t_uint256"
      },
      "t_mapping(t_uint256,t_address)": {
        "encoding": "mapping",
        "key": "t_uint256",
        "label": "mapping(uint256 => address)",
        "numberOfBytes": "32",
        "value": "t_address"
      },
      "t_mapping(t_uint64,t_bytes32)": {
        "encoding": "mapping",
        "key": "t_uint64",
        "label": "mapping(uint64 => bytes32)",
        "numberOfBytes": "32",
        "value": "t_bytes32"
      },
      "t_string_storage": {
        "encoding": "bytes",
        "label": "string",
        "numberOfBytes": "32"
      },
      "t_struct(Checkpoint224)3133_storage": {
        "encoding": "inplace",
        "label": "struct CheckpointsUpgradeable.Checkpoint224",
        "members": [
          {
            "astId": 3130,
            "contract": "contracts/SuDAONFT.sol:SuDAONFT",
            "label": "_key",
            "offset": 0,
            "slot": "0",
            "type": "t_uint32"
          },
          {
            "astId": 3132,
            "contract": "contracts/SuDAONFT.sol:SuDAONFT",
            "label": "_value",
            "offset": 4,
            "slot": "0",
            "type": "t_uint224"
          }
        ],
        "numberOfBytes": "32"
      },
      "t_struct(Counter)4176_storage": {
        "encoding": "inplace",
        "label": "struct CountersUpgradeable.Counter",
        "members": [
          {
            "astId": 4175,
            "contract": "contracts/SuDAONFT.sol:SuDAONFT",
            "label": "_value",
            "offset": 0,
            "slot": "0",
            "type": "t_uint256"
          }
        ],
        "numberOfBytes": "32"
      },
      "t_struct(StoredCredit)8907_storage": {
        "encoding": "inplace",
        "label": "struct ONFT721CoreUpgradeable.StoredCredit",
        "members": [
          {
            "astId": 8900,
            "contract": "contracts/SuDAONFT.sol:SuDAONFT",
            "label": "srcChainId",
            "offset": 0,
            "slot": "0",
            "type": "t_uint16"
          },
          {
            "astId": 8902,
            "contract": "contracts/SuDAONFT.sol:SuDAONFT",
            "label": "toAddress",
            "offset": 2,
            "slot": "0",
            "type": "t_address"
          },
          {
            "astId": 8904,
            "contract": "contracts/SuDAONFT.sol:SuDAONFT",
            "label": "index",
            "offset": 0,
            "slot": "1",
            "type": "t_uint256"
          },
          {
            "astId": 8906,
            "contract": "contracts/SuDAONFT.sol:SuDAONFT",
            "label": "creditsRemain",
            "offset": 0,
            "slot": "2",
            "type": "t_bool"
          }
        ],
        "numberOfBytes": "96"
      },
      "t_struct(Trace224)3128_storage": {
        "encoding": "inplace",
        "label": "struct CheckpointsUpgradeable.Trace224",
        "members": [
          {
            "astId": 3127,
            "contract": "contracts/SuDAONFT.sol:SuDAONFT",
            "label": "_checkpoints",
            "offset": 0,
            "slot": "0",
            "type": "t_array(t_struct(Checkpoint224)3133_storage)dyn_storage"
          }
        ],
        "numberOfBytes": "32"
      },
      "t_uint16": {
        "encoding": "inplace",
        "label": "uint16",
        "numberOfBytes": "2"
      },
      "t_uint224": {
        "encoding": "inplace",
        "label": "uint224",
        "numberOfBytes": "28"
      },
      "t_uint256": {
        "encoding": "inplace",
        "label": "uint256",
        "numberOfBytes": "32"
      },
      "t_uint32": {
        "encoding": "inplace",
        "label": "uint32",
        "numberOfBytes": "4"
      },
      "t_uint64": {
        "encoding": "inplace",
        "label": "uint64",
        "numberOfBytes": "8"
      },
      "t_uint8": {
        "encoding": "inplace",
        "label": "uint8",
        "numberOfBytes": "1"
      }
    }
  }
}