{
  "address": "0xa829c255b1f800180948F8051bb30ef524d61163",
  "abi": [
    {
      "inputs": [
        {
          "internalType": "address",
          "name": "accessNft",
          "type": "address"
        }
      ],
      "name": "AccessNftNotValidError",
      "type": "error"
    },
    {
      "inputs": [],
      "name": "BadAccessControlSingleton",
      "type": "error"
    },
    {
      "inputs": [],
      "name": "DistributionTimeframeError",
      "type": "error"
    },
    {
      "inputs": [],
      "name": "DonationAmountError",
      "type": "error"
    },
    {
      "inputs": [
        {
          "internalType": "uint256",
          "name": "minGaol",
          "type": "uint256"
        },
        {
          "internalType": "uint256",
          "name": "maxGoal",
          "type": "uint256"
        },
        {
          "internalType": "uint256",
          "name": "totalDonations",
          "type": "uint256"
        }
      ],
      "name": "DonationGoalError",
      "type": "error"
    },
    {
      "inputs": [],
      "name": "DonationTokenError",
      "type": "error"
    },
    {
      "inputs": [
        {
          "internalType": "uint256",
          "name": "x",
          "type": "uint256"
        }
      ],
      "name": "NegativeAntiderivative",
      "type": "error"
    },
    {
      "inputs": [
        {
          "internalType": "address",
          "name": "account",
          "type": "address"
        },
        {
          "internalType": "address",
          "name": "accessNft",
          "type": "address"
        }
      ],
      "name": "NoAccessNftError",
      "type": "error"
    },
    {
      "inputs": [],
      "name": "NoActiveDistributionError",
      "type": "error"
    },
    {
      "inputs": [
        {
          "internalType": "uint256",
          "name": "donationAmountUsd1e18",
          "type": "uint256"
        }
      ],
      "name": "NotEnoughRewardLeft",
      "type": "error"
    },
    {
      "inputs": [],
      "name": "OnlyAdminError",
      "type": "error"
    },
    {
      "inputs": [],
      "name": "OnlyAlerterError",
      "type": "error"
    },
    {
      "inputs": [],
      "name": "OnlyDAOError",
      "type": "error"
    },
    {
      "inputs": [],
      "name": "OnlyLiquidationAccessError",
      "type": "error"
    },
    {
      "inputs": [],
      "name": "OnlyMintAccessError",
      "type": "error"
    },
    {
      "inputs": [],
      "name": "OnlyRewardAccessError",
      "type": "error"
    },
    {
      "inputs": [],
      "name": "OnlyRoleError",
      "type": "error"
    },
    {
      "inputs": [],
      "name": "OnlyVaultAccessError",
      "type": "error"
    },
    {
      "inputs": [],
      "name": "VestingError",
      "type": "error"
    },
    {
      "anonymous": false,
      "inputs": [
        {
          "indexed": false,
          "internalType": "uint8",
          "name": "version",
          "type": "uint8"
        }
      ],
      "name": "Initialized",
      "type": "event"
    },
    {
      "anonymous": false,
      "inputs": [
        {
          "indexed": false,
          "internalType": "address",
          "name": "msg_sender",
          "type": "address"
        },
        {
          "indexed": false,
          "internalType": "uint256",
          "name": "donationAmount",
          "type": "uint256"
        }
      ],
      "name": "Participated",
      "type": "event"
    },
    {
      "inputs": [],
      "name": "ACCESS_CONTROL_SINGLETON",
      "outputs": [
        {
          "internalType": "contract ISuAccessControl",
          "name": "",
          "type": "address"
        }
      ],
      "stateMutability": "view",
      "type": "function"
    },
    {
      "inputs": [],
      "name": "ADMIN_ROLE",
      "outputs": [
        {
          "internalType": "bytes32",
          "name": "",
          "type": "bytes32"
        }
      ],
      "stateMutability": "view",
      "type": "function"
    },
    {
      "inputs": [],
      "name": "ALERTER_ROLE",
      "outputs": [
        {
          "internalType": "bytes32",
          "name": "",
          "type": "bytes32"
        }
      ],
      "stateMutability": "view",
      "type": "function"
    },
    {
      "inputs": [],
      "name": "BONUS_CONTRACT",
      "outputs": [
        {
          "internalType": "contract IBonus",
          "name": "",
          "type": "address"
        }
      ],
      "stateMutability": "view",
      "type": "function"
    },
    {
      "inputs": [],
      "name": "DAO_ROLE",
      "outputs": [
        {
          "internalType": "bytes32",
          "name": "",
          "type": "bytes32"
        }
      ],
      "stateMutability": "view",
      "type": "function"
    },
    {
      "inputs": [],
      "name": "LIQUIDATION_ACCESS_ROLE",
      "outputs": [
        {
          "internalType": "bytes32",
          "name": "",
          "type": "bytes32"
        }
      ],
      "stateMutability": "view",
      "type": "function"
    },
    {
      "inputs": [],
      "name": "MINT_ACCESS_ROLE",
      "outputs": [
        {
          "internalType": "bytes32",
          "name": "",
          "type": "bytes32"
        }
      ],
      "stateMutability": "view",
      "type": "function"
    },
    {
      "inputs": [],
      "name": "REWARD_ACCESS_ROLE",
      "outputs": [
        {
          "internalType": "bytes32",
          "name": "",
          "type": "bytes32"
        }
      ],
      "stateMutability": "view",
      "type": "function"
    },
    {
      "inputs": [],
      "name": "SU_DAO",
      "outputs": [
        {
          "internalType": "address",
          "name": "",
          "type": "address"
        }
      ],
      "stateMutability": "view",
      "type": "function"
    },
    {
      "inputs": [],
      "name": "SYSTEM_ROLE",
      "outputs": [
        {
          "internalType": "bytes32",
          "name": "",
          "type": "bytes32"
        }
      ],
      "stateMutability": "view",
      "type": "function"
    },
    {
      "inputs": [],
      "name": "VAULT_ACCESS_ROLE",
      "outputs": [
        {
          "internalType": "bytes32",
          "name": "",
          "type": "bytes32"
        }
      ],
      "stateMutability": "view",
      "type": "function"
    },
    {
      "inputs": [],
      "name": "VE_ERC_20",
      "outputs": [
        {
          "internalType": "address",
          "name": "",
          "type": "address"
        }
      ],
      "stateMutability": "view",
      "type": "function"
    },
    {
      "inputs": [
        {
          "internalType": "uint256",
          "name": "x",
          "type": "uint256"
        }
      ],
      "name": "antiderivativeOfBondingCurvePolynomial1e18At",
      "outputs": [
        {
          "internalType": "uint256",
          "name": "",
          "type": "uint256"
        }
      ],
      "stateMutability": "view",
      "type": "function"
    },
    {
      "inputs": [
        {
          "internalType": "uint256",
          "name": "",
          "type": "uint256"
        }
      ],
      "name": "bondingCurvePolynomial1e18",
      "outputs": [
        {
          "internalType": "int256",
          "name": "",
          "type": "int256"
        }
      ],
      "stateMutability": "view",
      "type": "function"
    },
    {
      "inputs": [
        {
          "internalType": "uint256",
          "name": "x",
          "type": "uint256"
        }
      ],
      "name": "bondingCurvePolynomial1e18At",
      "outputs": [
        {
          "internalType": "int256",
          "name": "",
          "type": "int256"
        }
      ],
      "stateMutability": "view",
      "type": "function"
    },
    {
      "inputs": [],
      "name": "bonusStats",
      "outputs": [
        {
          "internalType": "uint256",
          "name": "bonusRewarded",
          "type": "uint256"
        }
      ],
      "stateMutability": "view",
      "type": "function"
    },
    {
      "inputs": [],
      "name": "cliffSeconds",
      "outputs": [
        {
          "internalType": "uint64",
          "name": "",
          "type": "uint64"
        }
      ],
      "stateMutability": "view",
      "type": "function"
    },
    {
      "inputs": [
        {
          "internalType": "contract IERC20Upgradeable",
          "name": "token",
          "type": "address"
        },
        {
          "internalType": "address",
          "name": "to",
          "type": "address"
        },
        {
          "internalType": "uint256",
          "name": "amount",
          "type": "uint256"
        }
      ],
      "name": "daoWithdraw",
      "outputs": [],
      "stateMutability": "nonpayable",
      "type": "function"
    },
    {
      "inputs": [],
      "name": "deadlineTimestamp",
      "outputs": [
        {
          "internalType": "uint64",
          "name": "",
          "type": "uint64"
        }
      ],
      "stateMutability": "view",
      "type": "function"
    },
    {
      "inputs": [],
      "name": "donationGoalMax",
      "outputs": [
        {
          "internalType": "uint256",
          "name": "",
          "type": "uint256"
        }
      ],
      "stateMutability": "view",
      "type": "function"
    },
    {
      "inputs": [],
      "name": "donationGoalMin",
      "outputs": [
        {
          "internalType": "uint256",
          "name": "",
          "type": "uint256"
        }
      ],
      "stateMutability": "view",
      "type": "function"
    },
    {
      "inputs": [],
      "name": "donationToken",
      "outputs": [
        {
          "internalType": "address",
          "name": "",
          "type": "address"
        }
      ],
      "stateMutability": "view",
      "type": "function"
    },
    {
      "inputs": [],
      "name": "donationTokenToUSD1e18",
      "outputs": [
        {
          "internalType": "uint256",
          "name": "",
          "type": "uint256"
        }
      ],
      "stateMutability": "view",
      "type": "function"
    },
    {
      "inputs": [
        {
          "internalType": "address",
          "name": "",
          "type": "address"
        }
      ],
      "name": "donations",
      "outputs": [
        {
          "internalType": "uint256",
          "name": "",
          "type": "uint256"
        }
      ],
      "stateMutability": "view",
      "type": "function"
    },
    {
      "inputs": [],
      "name": "fullVestingSeconds",
      "outputs": [
        {
          "internalType": "uint64",
          "name": "",
          "type": "uint64"
        }
      ],
      "stateMutability": "view",
      "type": "function"
    },
    {
      "inputs": [],
      "name": "getAccessNfts",
      "outputs": [
        {
          "internalType": "address[]",
          "name": "",
          "type": "address[]"
        }
      ],
      "stateMutability": "view",
      "type": "function"
    },
    {
      "inputs": [
        {
          "internalType": "address",
          "name": "account",
          "type": "address"
        }
      ],
      "name": "getAccessNftsForUser",
      "outputs": [
        {
          "internalType": "address[]",
          "name": "",
          "type": "address[]"
        }
      ],
      "stateMutability": "view",
      "type": "function"
    },
    {
      "inputs": [
        {
          "internalType": "uint256",
          "name": "donationAmountUSD1e18",
          "type": "uint256"
        }
      ],
      "name": "getBondingCurveRewardAmountFromDonationUSD",
      "outputs": [
        {
          "internalType": "uint256",
          "name": "",
          "type": "uint256"
        }
      ],
      "stateMutability": "view",
      "type": "function"
    },
    {
      "inputs": [],
      "name": "getDistributorStaticData",
      "outputs": [
        {
          "internalType": "uint64",
          "name": "startTimestamp_",
          "type": "uint64"
        },
        {
          "internalType": "uint64",
          "name": "deadlineTimestamp_",
          "type": "uint64"
        },
        {
          "internalType": "uint256",
          "name": "minimumDonation_",
          "type": "uint256"
        },
        {
          "internalType": "uint256",
          "name": "maximumDonation_",
          "type": "uint256"
        },
        {
          "internalType": "uint256",
          "name": "donationGoalMin_",
          "type": "uint256"
        },
        {
          "internalType": "uint256",
          "name": "donationGoalMax_",
          "type": "uint256"
        },
        {
          "internalType": "address",
          "name": "donationToken_",
          "type": "address"
        },
        {
          "internalType": "uint64",
          "name": "fullVestingSeconds_",
          "type": "uint64"
        },
        {
          "internalType": "uint64",
          "name": "cliffSeconds_",
          "type": "uint64"
        },
        {
          "internalType": "uint64",
          "name": "tgeUnlockRatio1e18_",
          "type": "uint64"
        },
        {
          "internalType": "uint64",
          "name": "vestingFrequencySeconds_",
          "type": "uint64"
        }
      ],
      "stateMutability": "view",
      "type": "function"
    },
    {
      "inputs": [
        {
          "internalType": "address",
          "name": "user",
          "type": "address"
        },
        {
          "internalType": "address",
          "name": "accessNft",
          "type": "address"
        }
      ],
      "name": "getMaximumDonationAmount",
      "outputs": [
        {
          "internalType": "uint256",
          "name": "",
          "type": "uint256"
        }
      ],
      "stateMutability": "view",
      "type": "function"
    },
    {
      "inputs": [
        {
          "internalType": "address",
          "name": "_accessControlSingleton",
          "type": "address"
        },
        {
          "internalType": "address",
          "name": "_suDAO",
          "type": "address"
        },
        {
          "internalType": "address",
          "name": "_veErc20",
          "type": "address"
        },
        {
          "internalType": "address",
          "name": "_bonusContract",
          "type": "address"
        }
      ],
      "name": "initialize",
      "outputs": [],
      "stateMutability": "nonpayable",
      "type": "function"
    },
    {
      "inputs": [],
      "name": "maximumDonation",
      "outputs": [
        {
          "internalType": "uint256",
          "name": "",
          "type": "uint256"
        }
      ],
      "stateMutability": "view",
      "type": "function"
    },
    {
      "inputs": [],
      "name": "minimumDonation",
      "outputs": [
        {
          "internalType": "uint256",
          "name": "",
          "type": "uint256"
        }
      ],
      "stateMutability": "view",
      "type": "function"
    },
    {
      "inputs": [
        {
          "internalType": "uint256",
          "name": "donationAmount",
          "type": "uint256"
        },
        {
          "internalType": "address",
          "name": "accessNft",
          "type": "address"
        }
      ],
      "name": "participate",
      "outputs": [],
      "stateMutability": "payable",
      "type": "function"
    },
    {
      "inputs": [
        {
          "internalType": "int256[]",
          "name": "_bondingCurvePolynomial1e18",
          "type": "int256[]"
        }
      ],
      "name": "setBondingCurve",
      "outputs": [],
      "stateMutability": "nonpayable",
      "type": "function"
    },
    {
      "inputs": [
        {
          "internalType": "uint256",
          "name": "amountTreasuryUSD",
          "type": "uint256"
        }
      ],
      "name": "setCurrentTreasuryValue",
      "outputs": [],
      "stateMutability": "nonpayable",
      "type": "function"
    },
    {
      "inputs": [
        {
          "internalType": "uint64",
          "name": "_startTimestamp",
          "type": "uint64"
        },
        {
          "internalType": "uint64",
          "name": "_deadlineTimestamp",
          "type": "uint64"
        },
        {
          "internalType": "uint256",
          "name": "_donationGoalMin",
          "type": "uint256"
        },
        {
          "internalType": "uint256",
          "name": "_donationGoalMax",
          "type": "uint256"
        },
        {
          "internalType": "uint256",
          "name": "_minimumDonation",
          "type": "uint256"
        },
        {
          "internalType": "uint256",
          "name": "_maximumDonation",
          "type": "uint256"
        },
        {
          "internalType": "address",
          "name": "_donationToken",
          "type": "address"
        },
        {
          "internalType": "uint256",
          "name": "_donationTokenToUSD1e18",
          "type": "uint256"
        }
      ],
      "name": "setDistributionInfo",
      "outputs": [],
      "stateMutability": "nonpayable",
      "type": "function"
    },
    {
      "inputs": [
        {
          "internalType": "uint64",
          "name": "_fullVestingSeconds",
          "type": "uint64"
        },
        {
          "internalType": "uint64",
          "name": "_cliffSeconds",
          "type": "uint64"
        },
        {
          "internalType": "uint64",
          "name": "_tgeUnlockRatio1e18",
          "type": "uint64"
        },
        {
          "internalType": "uint64",
          "name": "_vestingFrequencySeconds",
          "type": "uint64"
        }
      ],
      "name": "setDistributionVesting",
      "outputs": [],
      "stateMutability": "nonpayable",
      "type": "function"
    },
    {
      "inputs": [
        {
          "internalType": "address",
          "name": "accessNft",
          "type": "address"
        },
        {
          "internalType": "bool",
          "name": "valid",
          "type": "bool"
        }
      ],
      "name": "setNftAccess",
      "outputs": [],
      "stateMutability": "nonpayable",
      "type": "function"
    },
    {
      "inputs": [],
      "name": "startTimestamp",
      "outputs": [
        {
          "internalType": "uint64",
          "name": "",
          "type": "uint64"
        }
      ],
      "stateMutability": "view",
      "type": "function"
    },
    {
      "inputs": [
        {
          "internalType": "bytes4",
          "name": "interfaceId",
          "type": "bytes4"
        }
      ],
      "name": "supportsInterface",
      "outputs": [
        {
          "internalType": "bool",
          "name": "",
          "type": "bool"
        }
      ],
      "stateMutability": "view",
      "type": "function"
    },
    {
      "inputs": [],
      "name": "takeDonationBack",
      "outputs": [],
      "stateMutability": "nonpayable",
      "type": "function"
    },
    {
      "inputs": [],
      "name": "tgeUnlockRatio1e18",
      "outputs": [
        {
          "internalType": "uint64",
          "name": "",
          "type": "uint64"
        }
      ],
      "stateMutability": "view",
      "type": "function"
    },
    {
      "inputs": [],
      "name": "totalDonations",
      "outputs": [
        {
          "internalType": "uint256",
          "name": "",
          "type": "uint256"
        }
      ],
      "stateMutability": "view",
      "type": "function"
    },
    {
      "inputs": [],
      "name": "vestingFrequencySeconds",
      "outputs": [
        {
          "internalType": "uint64",
          "name": "",
          "type": "uint64"
        }
      ],
      "stateMutability": "view",
      "type": "function"
    },
    {
      "stateMutability": "payable",
      "type": "receive"
    }
  ],
  "numDeployments": 1,
  "solcInputHash": "a74e30bb844720d1485a32b7747b45a7",
  "bytecode": "0x608060405234801561001057600080fd5b50612bf7806100206000396000f3fe6080604052600436106102065760003560e01c806301ffc9a71461021257806303ee9f22146102475780630afcdef51461027a5780630c277b96146102b95780630df72159146102db57806313b186401461030257806314c376dc1461031557806335864cdc14610357578063382ec24e146103775780634369994c14610397578063438280dd146103b9578063445c4c8d146103ed57806347b8ce3f1461040d5780634a591c6d1461042d5780635deb395b146104435780635e10448b146104f35780636c5a54281461051a57806371d0fb411461053a57806375071d2a1461056e57806375b238fc146105a2578063770d2b12146105b75780637b9fa8bd146105ce5780638341ee72146105e45780638821fd891461060b5780638e5313e01461062b57806396d8f4f31461065f5780639954a9bc146106755780639d0c6846146106955780639dbf7935146106b5578063b5104311146106d5578063b5b8a68a146106f5578063c7ad6fc514610715578063cc6cb19a1461072b578063d1deda6a14610758578063d2051aa314610778578063dc4eff7e14610798578063dc97e84e146107b8578063de2ed893146107ec578063e6fd48bc14610802578063e9c2651814610829578063efb8f4fd1461084b578063f365642a14610860578063f498446014610876578063f6d8414f14610896578063f8c8765e146108b657600080fd5b3661020d57005b600080fd5b34801561021e57600080fd5b5061023261022d36600461249d565b6108d6565b60405190151581526020015b60405180910390f35b34801561025357600080fd5b5060005461026d906201000090046001600160a01b031681565b60405161023e91906124c7565b34801561028657600080fd5b50600b546102a190600160c01b90046001600160401b031681565b6040516001600160401b03909116815260200161023e565b3480156102c557600080fd5b506102d96102d43660046124f1565b610953565b005b3480156102e757600080fd5b5060045461026d90600160401b90046001600160a01b031681565b6102d96103103660046125c3565b610a01565b34801561032157600080fd5b506103497fe965846df3dd5b1dfa65f58e31477079e90140e0908b6dd31b5aead5a57cf36581565b60405190815260200161023e565b34801561036357600080fd5b50600b546102a1906001600160401b031681565b34801561038357600080fd5b506102d96103923660046125f3565b610fb3565b3480156103a357600080fd5b506103ac611078565b60405161023e919061260c565b3480156103c557600080fd5b506103497f39f61ca2a1a28fee144218173ec637b649a353e4026b2738c673800e5bf1437b81565b3480156103f957600080fd5b5060035461026d906001600160a01b031681565b34801561041957600080fd5b506103496104283660046125f3565b611089565b34801561043957600080fd5b5061034960085481565b34801561044f57600080fd5b50600354600454600754600854600954600a54600b5460408051600160a01b9098046001600160401b03908116895280881660208a0152908801959095526060870193909352608086019190915260a0850152600160401b928390046001600160a01b031660c085015281811660e08501529182048116610100840152600160801b82048116610120840152600160c01b909104166101408201526101600161023e565b3480156104ff57600080fd5b50600b546102a190600160801b90046001600160401b031681565b34801561052657600080fd5b506103496105353660046125f3565b61112a565b34801561054657600080fd5b506103497f880a91047114272656e533301261260c75e4d11543ac7303d6fe4204579ec72781565b34801561057a57600080fd5b506103497f5719df9ef2c4678b547f89e4f5ae410dbf400fc51cf3ded434c55f6adea2c43f81565b3480156105ae57600080fd5b50610349600081565b3480156105c357600080fd5b50600e546103499081565b3480156105da57600080fd5b5061034960095481565b3480156105f057600080fd5b50600b546102a190600160401b90046001600160401b031681565b34801561061757600080fd5b506102d9610626366004612675565b61114b565b34801561063757600080fd5b506103497fe453bacb314e78dcd5192e6b1a2b1f0e7c76e92f6b7e429a6a90f04e39db3b7681565b34801561066b57600080fd5b5061034960075481565b34801561068157600080fd5b506102d96106903660046126d7565b6112ec565b3480156106a157600080fd5b506103496106b0366004612705565b6113a4565b3480156106c157600080fd5b506103ac6106d0366004612733565b611527565b3480156106e157600080fd5b506102d96106f0366004612750565b611681565b34801561070157600080fd5b5060015461026d906001600160a01b031681565b34801561072157600080fd5b5061034960055481565b34801561073757600080fd5b50610349610746366004612733565b600f6020526000908152604090205481565b34801561076457600080fd5b506102d9610773366004612791565b611796565b34801561078457600080fd5b506103496107933660046125f3565b61193e565b3480156107a457600080fd5b5060025461026d906001600160a01b031681565b3480156107c457600080fd5b506103497f9a9aef7c1247d5fc769b0185c052913e39673da29a880317dfd20ebf86f26a4981565b3480156107f857600080fd5b5061034960105481565b34801561080e57600080fd5b506003546102a190600160a01b90046001600160401b031681565b34801561083557600080fd5b50610349600080516020612ba283398151915281565b34801561085757600080fd5b506102d9611a3d565b34801561086c57600080fd5b50610349600a5481565b34801561088257600080fd5b506103496108913660046125f3565b611b70565b3480156108a257600080fd5b506004546102a1906001600160401b031681565b3480156108c257600080fd5b506102d96108d1366004612809565b611c2f565b600080546040516301ffc9a760e01b8152620100009091046001600160a01b0316906301ffc9a79061090c908590600401612865565b602060405180830381865afa158015610929573d6000803e3d6000fd5b505050506040513d601f19601f8201168201806040525081019061094d919061287a565b92915050565b60008054604051632474521560e21b8152620100009091046001600160a01b0316906391d148549061098b9084903390600401612897565b602060405180830381865afa1580156109a8573d6000803e3d6000fd5b505050506040513d601f19601f820116820180604052508101906109cc919061287a565b6109e957604051632f33a5b560e01b815260040160405180910390fd5b81516109fc906006906020850190612446565b505050565b600a54600003610a2457604051633b6cfa9760e11b815260040160405180910390fd5b600354600160a01b90046001600160401b0316421080610a505750600454426001600160401b03909116105b15610a6e5760405163d3af728360e01b815260040160405180910390fd5b610a79600c82611df0565b610aa15780604051631fcb862360e21b8152600401610a9891906124c7565b60405180910390fd5b6040516370a0823160e01b81526001600160a01b038216906370a0823190610acd9033906004016124c7565b602060405180830381865afa158015610aea573d6000803e3d6000fd5b505050506040513d601f19601f82011682018060405250810190610b0e91906128ae565b600003610b3f5760405163457d1cb560e11b81523360048201526001600160a01b0382166024820152604401610a98565b600754821015610b6257604051639e977e7b60e01b815260040160405180910390fd5b600354604051630e02292360e01b8152600091610c50916001600160a01b0390911690630e02292390610b999033906004016124c7565b602060405180830381865afa158015610bb6573d6000803e3d6000fd5b505050506040513d601f19601f82011682018060405250810190610bda91906128ae565b600354604051631bcd0a3f60e31b81526001600160a01b039091169063de6851f890610c0a9087906004016124c7565b602060405180830381865afa158015610c27573d6000803e3d6000fd5b505050506040513d601f19601f82011682018060405250810190610c4b91906128ae565b611e0c565b905060008115610c605781610c64565b6008545b336000908152600f60205260409020549091508190610c849086906128dd565b1115610ca357604051639e977e7b60e01b815260040160405180910390fd5b6000610cb66005548661079391906128f0565b600354604051633a740a6360e01b8152919250600091610d5f916001600160a01b031690633a740a6390610cee9033906004016124c7565b602060405180830381865afa158015610d0b573d6000803e3d6000fd5b505050506040513d601f19601f82011682018060405250810190610d2f91906128ae565b60035460405163dbcfb6bb60e01b81526001600160a01b039091169063dbcfb6bb90610c0a908a906004016124c7565b9050670de0b6b3a7640000610d7482846128f0565b610d7e919061291d565b600e54610d8b91906128dd565b600e55670de0b6b3a7640000610da182826128dd565b610dab90846128f0565b610db5919061291d565b600454909250610dd790600160401b90046001600160a01b0316333089611e22565b85601054610de591906128dd565b601055336000908152600f6020526040902054610e039087906128dd565b336000908152600f6020526040908190209190915560025490516370a0823160e01b815283916001600160a01b0316906370a0823190610e479030906004016124c7565b602060405180830381865afa158015610e64573d6000803e3d6000fd5b505050506040513d601f19601f82011682018060405250810190610e8891906128ae565b1015610ecf5760405162461bcd60e51b81526020600482015260166024820152751b9bdd08195b9bdd59da081c995dd85c99081b19599d60521b6044820152606401610a98565b600154600b546040516324e95bb760e21b8152336004820152602481018590526001600160401b038083166044830152600160401b830481166064830152600160801b830481166084830152600160c01b90920490911660a48201526001600160a01b03909116906393a56edc9060c401600060405180830381600087803b158015610f5a57600080fd5b505af1158015610f6e573d6000803e3d6000fd5b505050507fb198f199c43cc078ad46e5a5fabe03eba401f7417816c86af0bd2e7345c995063387604051610fa3929190612931565b60405180910390a1505050505050565b600054604051632474521560e21b8152600080516020612ba2833981519152916201000090046001600160a01b0316906391d1485490610ff99084903390600401612897565b602060405180830381865afa158015611016573d6000803e3d6000fd5b505050506040513d601f19601f8201168201806040525081019061103a919061287a565b61105757604051632f33a5b560e01b815260040160405180910390fd5b601054600554611067908461291d565b61107191906128dd565b6010555050565b6060611084600c611e8d565b905090565b60008061109583611e9a565b60065490915060016000805b83811015611120576110c36110be82670de0b6b3a7640000612a2e565b611e9a565b83600683815481106110d7576110d7612a3a565b90600052602060002001546110ec9190612a50565b6110f69190612a80565b6111009083612aae565b915061110c8584612a50565b92508061111881612ad6565b9150506110a1565b5095945050505050565b6006818154811061113a57600080fd5b600091825260209091200154905081565b60008054604051632474521560e21b8152620100009091046001600160a01b0316906391d14854906111839084903390600401612897565b602060405180830381865afa1580156111a0573d6000803e3d6000fd5b505050506040513d601f19601f820116820180604052508101906111c4919061287a565b6111e157604051632f33a5b560e01b815260040160405180910390fd5b846001600160401b0316846001600160401b0316111561121457604051633df8489160e21b815260040160405180910390fd5b670de0b6b3a7640000836001600160401b0316111561124657604051633df8489160e21b815260040160405180910390fd5b6001600160401b038216158061126d5750846001600160401b0316826001600160401b0316115b1561128b57604051633df8489160e21b815260040160405180910390fd5b50600b80546001600160401b039586166001600160801b031990911617600160401b94861694909402939093176001600160801b0316600160801b928516929092026001600160c01b031691909117600160c01b9190931602919091179055565b60008054604051632474521560e21b8152620100009091046001600160a01b0316906391d14854906113249084903390600401612897565b602060405180830381865afa158015611341573d6000803e3d6000fd5b505050506040513d601f19601f82011682018060405250810190611365919061287a565b61138257604051632f33a5b560e01b815260040160405180910390fd5b811561139957611393600c84611f08565b50505050565b611393600c84611f1d565b600080826001600160a01b03166370a08231856040518263ffffffff1660e01b81526004016113d391906124c7565b602060405180830381865afa1580156113f0573d6000803e3d6000fd5b505050506040513d601f19601f8201168201806040525081019061141491906128ae565b111561151e57600354604051630e02292360e01b81526000916114c2916001600160a01b0390911690630e022923906114519033906004016124c7565b602060405180830381865afa15801561146e573d6000803e3d6000fd5b505050506040513d601f19601f8201168201806040525081019061149291906128ae565b600354604051631bcd0a3f60e31b81526001600160a01b039091169063de6851f890610c0a9088906004016124c7565b9050600081156114d257816114d6565b6008545b6001600160a01b0386166000908152600f6020526040902054909150611515906115009083612aef565b601054600a546115109190612aef565b611f32565b9250505061094d565b50600092915050565b60606000611535600c611e8d565b80519091506000816001600160401b03811115611554576115546124db565b60405190808252806020026020018201604052801561157d578160200160208202803683370190505b50905060005b8281101561167857600084828151811061159f5761159f612a3a565b60200260200101516001600160a01b03166370a08231886040518263ffffffff1660e01b81526004016115d291906124c7565b602060405180830381865afa1580156115ef573d6000803e3d6000fd5b505050506040513d601f19601f8201168201806040525081019061161391906128ae565b11156116665783818151811061162b5761162b612a3a565b602002602001015182828151811061164557611645612a3a565b60200260200101906001600160a01b031690816001600160a01b0316815250505b8061167081612ad6565b915050611583565b50949350505050565b600054604051632474521560e21b8152600080516020612ba2833981519152916201000090046001600160a01b0316906391d14854906116c79084903390600401612897565b602060405180830381865afa1580156116e4573d6000803e3d6000fd5b505050506040513d601f19601f82011682018060405250810190611708919061287a565b61172557604051632f33a5b560e01b815260040160405180910390fd5b6004546001600160401b03164210156117515760405163d3af728360e01b815260040160405180910390fd5b600954601054101561178257600954600a546010546040516302dc173360e41b8152600401610a9893929190612b02565b6113936001600160a01b0385168484611f41565b60008054604051632474521560e21b8152620100009091046001600160a01b0316906391d14854906117ce9084903390600401612897565b602060405180830381865afa1580156117eb573d6000803e3d6000fd5b505050506040513d601f19601f8201168201806040525081019061180f919061287a565b61182c57604051632f33a5b560e01b815260040160405180910390fd5b876001600160401b0316896001600160401b03161061185e5760405163d3af728360e01b815260040160405180910390fd5b858711156118875786866010546040516302dc173360e41b8152600401610a9893929190612b02565b838511156118a857604051639e977e7b60e01b815260040160405180910390fd5b6001600160a01b0383166118cf5760405163e99064c360e01b815260040160405180910390fd5b50600380546001600160401b03998a16600160a01b02600160a01b600160e01b031990911617905560048054600997909755600a959095556007939093556008919091556001600160a01b0316600160401b026001600160e01b03199093169390941692909217179055600555565b600080611967670de0b6b3a764000060055460105461195d91906128f0565b610891919061291d565b90506000611992670de0b6b3a76400008560055460105461198891906128f0565b61195d91906128dd565b905060006119a08383612aef565b6002546040516370a0823160e01b81529192506001600160a01b0316906370a08231906119d19030906004016124c7565b602060405180830381865afa1580156119ee573d6000803e3d6000fd5b505050506040513d601f19601f82011682018060405250810190611a1291906128ae565b811115611a355760405163b766b56f60e01b815260048101869052602401610a98565b949350505050565b6004546001600160401b0316421015611a695760405163d3af728360e01b815260040160405180910390fd5b60095460105410611a9957600954600a546010546040516302dc173360e41b8152600401610a9893929190612b02565b6001546040516370a0823160e01b81526000916001600160a01b0316906370a0823190611aca9033906004016124c7565b602060405180830381865afa158015611ae7573d6000803e3d6000fd5b505050506040513d601f19601f82011682018060405250810190611b0b91906128ae565b1115611b2a57604051639e977e7b60e01b815260040160405180910390fd5b336000908152600f602052604081208054919055601054611b4c908290612aef565b601055600454611b6d90600160401b90046001600160a01b03163383611f41565b50565b600080611b7c83611e9a565b600654909150816000805b83811015611c0057611b9881611e9a565b611ba3906001612aae565b8360068381548110611bb757611bb7612a3a565b9060005260206000200154611bcc9190612a50565b611bd69190612a80565b611be09083612aae565b9150611bec8584612a50565b925080611bf881612ad6565b915050611b87565b506000811215611c26576040516368a6674560e01b815260048101879052602401610a98565b95945050505050565b600054610100900460ff1615808015611c4f5750600054600160ff909116105b80611c705750611c5e30611f60565b158015611c70575060005460ff166001145b611cd35760405162461bcd60e51b815260206004820152602e60248201527f496e697469616c697a61626c653a20636f6e747261637420697320616c72656160448201526d191e481a5b9a5d1a585b1a5e995960921b6064820152608401610a98565b6000805460ff191660011790558015611cf6576000805461ff0019166101001790555b611cff85611f6f565b600280546001600160a01b038087166001600160a01b0319928316811790935560018054878316908416179055600380549186169190921617905560405163095ea7b360e01b815263095ea7b390611d5f90869060001990600401612931565b6020604051808303816000875af1158015611d7e573d6000803e3d6000fd5b505050506040513d601f19601f82011682018060405250810190611da2919061287a565b508015611de9576000805461ff0019169055604051600181527f7f26b83ff96e1f2b6a682f133852f6798a09c465da95921460cefb38474024989060200160405180910390a15b5050505050565b6000611e05836001600160a01b03841661209f565b9392505050565b6000818311611e1b5781611e05565b5090919050565b6040516001600160a01b03808516602483015283166044820152606481018290526113939085906323b872dd60e01b906084015b60408051601f198184030181529190526020810180516001600160e01b03166001600160e01b0319909316929092179091526120b7565b60606000611e058361218c565b60006001600160ff1b03821115611f045760405162461bcd60e51b815260206004820152602860248201527f53616665436173743a2076616c756520646f65736e27742066697420696e2061604482015267371034b73a191a9b60c11b6064820152608401610a98565b5090565b6000611e05836001600160a01b0384166121e8565b6000611e05836001600160a01b038416612232565b6000818310611e1b5781611e05565b6109fc8363a9059cbb60e01b8484604051602401611e56929190612931565b6001600160a01b03163b151590565b600054610100900460ff16611fda5760405162461bcd60e51b815260206004820152602b60248201527f496e697469616c697a61626c653a20636f6e7472616374206973206e6f74206960448201526a6e697469616c697a696e6760a81b6064820152608401610a98565b6000805462010000600160b01b031916620100006001600160a01b038416908102919091179091551580159061208157506040516301ffc9a760e01b81526001600160a01b038216906301ffc9a79061203e90637965db0b60e01b90600401612865565b602060405180830381865afa15801561205b573d6000803e3d6000fd5b505050506040513d601f19601f8201168201806040525081019061207f919061287a565b155b15611b6d576040516384d942fd60e01b815260040160405180910390fd5b60009081526001919091016020526040902054151590565b600061210c826040518060400160405280602081526020017f5361666545524332303a206c6f772d6c6576656c2063616c6c206661696c6564815250856001600160a01b03166123259092919063ffffffff16565b905080516000148061212d57508080602001905181019061212d919061287a565b6109fc5760405162461bcd60e51b815260206004820152602a60248201527f5361666545524332303a204552433230206f7065726174696f6e20646964206e6044820152691bdd081cdd58d8d9595960b21b6064820152608401610a98565b6060816000018054806020026020016040519081016040528092919081815260200182805480156121dc57602002820191906000526020600020905b8154815260200190600101908083116121c8575b50505050509050919050565b60006121f4838361209f565b61222a5750815460018181018455600084815260208082209093018490558454848252828601909352604090209190915561094d565b50600061094d565b6000818152600183016020526040812054801561231b576000612256600183612aef565b855490915060009061226a90600190612aef565b90508181146122cf57600086600001828154811061228a5761228a612a3a565b90600052602060002001549050808760000184815481106122ad576122ad612a3a565b6000918252602080832090910192909255918252600188019052604090208390555b85548690806122e0576122e0612b18565b60019003818190600052602060002001600090559055856001016000868152602001908152602001600020600090556001935050505061094d565b600091505061094d565b6060611a35848460008585600080866001600160a01b0316858760405161234c9190612b52565b60006040518083038185875af1925050503d8060008114612389576040519150601f19603f3d011682016040523d82523d6000602084013e61238e565b606091505b509150915061239f878383876123aa565b979650505050505050565b60608315612417578251600003612410576123c485611f60565b6124105760405162461bcd60e51b815260206004820152601d60248201527f416464726573733a2063616c6c20746f206e6f6e2d636f6e74726163740000006044820152606401610a98565b5081611a35565b611a35838381511561242c5781518083602001fd5b8060405162461bcd60e51b8152600401610a989190612b6e565b828054828255906000526020600020908101928215612481579160200282015b82811115612481578251825591602001919060010190612466565b50611f049291505b80821115611f045760008155600101612489565b6000602082840312156124af57600080fd5b81356001600160e01b031981168114611e0557600080fd5b6001600160a01b0391909116815260200190565b634e487b7160e01b600052604160045260246000fd5b6000602080838503121561250457600080fd5b82356001600160401b038082111561251b57600080fd5b818501915085601f83011261252f57600080fd5b813581811115612541576125416124db565b8060051b604051601f19603f83011681018181108582111715612566576125666124db565b60405291825284820192508381018501918883111561258457600080fd5b938501935b828510156125a257843584529385019392850192612589565b98975050505050505050565b6001600160a01b0381168114611b6d57600080fd5b600080604083850312156125d657600080fd5b8235915060208301356125e8816125ae565b809150509250929050565b60006020828403121561260557600080fd5b5035919050565b6020808252825182820181905260009190848201906040850190845b8181101561264d5783516001600160a01b031683529284019291840191600101612628565b50909695505050505050565b80356001600160401b038116811461267057600080fd5b919050565b6000806000806080858703121561268b57600080fd5b61269485612659565b93506126a260208601612659565b92506126b060408601612659565b91506126be60608601612659565b905092959194509250565b8015158114611b6d57600080fd5b600080604083850312156126ea57600080fd5b82356126f5816125ae565b915060208301356125e8816126c9565b6000806040838503121561271857600080fd5b8235612723816125ae565b915060208301356125e8816125ae565b60006020828403121561274557600080fd5b8135611e05816125ae565b60008060006060848603121561276557600080fd5b8335612770816125ae565b92506020840135612780816125ae565b929592945050506040919091013590565b600080600080600080600080610100898b0312156127ae57600080fd5b6127b789612659565b97506127c560208a01612659565b965060408901359550606089013594506080890135935060a0890135925060c08901356127f1816125ae565b8092505060e089013590509295985092959890939650565b6000806000806080858703121561281f57600080fd5b843561282a816125ae565b9350602085013561283a816125ae565b9250604085013561284a816125ae565b9150606085013561285a816125ae565b939692955090935050565b6001600160e01b031991909116815260200190565b60006020828403121561288c57600080fd5b8151611e05816126c9565b9182526001600160a01b0316602082015260400190565b6000602082840312156128c057600080fd5b5051919050565b634e487b7160e01b600052601160045260246000fd5b8082018082111561094d5761094d6128c7565b808202811582820484141761094d5761094d6128c7565b634e487b7160e01b600052601260045260246000fd5b60008261292c5761292c612907565b500490565b6001600160a01b03929092168252602082015260400190565b600181815b8085111561298557816000190482111561296b5761296b6128c7565b8085161561297857918102915b93841c939080029061294f565b509250929050565b60008261299c5750600161094d565b816129a95750600061094d565b81600181146129bf57600281146129c9576129e5565b600191505061094d565b60ff8411156129da576129da6128c7565b50506001821b61094d565b5060208310610133831016604e8410600b8410161715612a08575081810a61094d565b612a12838361294a565b8060001904821115612a2657612a266128c7565b029392505050565b6000611e05838361298d565b634e487b7160e01b600052603260045260246000fd5b80820260008212600160ff1b84141615612a6c57612a6c6128c7565b818105831482151761094d5761094d6128c7565b600082612a8f57612a8f612907565b600160ff1b821460001984141615612aa957612aa96128c7565b500590565b8082018281126000831280158216821582161715612ace57612ace6128c7565b505092915050565b600060018201612ae857612ae86128c7565b5060010190565b8181038181111561094d5761094d6128c7565b9283526020830191909152604082015260600190565b634e487b7160e01b600052603160045260246000fd5b60005b83811015612b49578181015183820152602001612b31565b50506000910152565b60008251612b64818460208701612b2e565b9190910192915050565b6020815260008251806020840152612b8d816040850160208701612b2e565b601f01601f1916919091016040019291505056fe3b5d4cc60d3ec3516ee8ae083bd60934f6eb2a6c54b1229985c41bfb092b2603a2646970667358221220f561469bcc36c08e248c4ba9328dd977c15457f59d15f2f41d3399eab2e4629964736f6c63430008110033",
  "devdoc": {
    "kind": "dev",
    "methods": {
      "daoWithdraw(address,address,uint256)": {
        "details": "The DAO can't take away SuDAO token already distributed to users,      because they are stored on different contract"
      },
      "supportsInterface(bytes4)": {
        "details": "Returns true if this contract implements the interface defined by `interfaceId`. See the corresponding https://eips.ethereum.org/EIPS/eip-165#how-interfaces-are-identified[EIP section] to learn more about how these ids are created. This function call must use less than 30 000 gas."
      }
    },
    "stateVariables": {
      "__gap": {
        "details": "This empty reserved space is put in place to allow future versions to add new variables without shifting down storage in the inheritance chain. See https://docs.openzeppelin.com/contracts/4.x/upgradeable#storage_gaps"
      }
    },
    "title": "The contract that distribute suDAO tokens for community based on NFT membership",
    "version": 1
  },
  "userdoc": {
    "kind": "user",
    "methods": {
      "daoWithdraw(address,address,uint256)": {
        "notice": "The DAO can take away donations."
      },
      "getMaximumDonationAmount(address,address)": {
        "notice": "Get the max donation that user can do"
      },
      "participate(uint256,address)": {
        "notice": "notice Allows to participate for users with required NFT param donationAmount The amount of tokens specified in donationToken"
      },
      "setCurrentTreasuryValue(uint256)": {
        "notice": "Be sure you call it before donation campaign takes place"
      },
      "setDistributionInfo(uint64,uint64,uint256,uint256,uint256,uint256,address,uint256)": {
        "notice": "The owner can set new or edit existing token distribution with no restrictions"
      },
      "setDistributionVesting(uint64,uint64,uint64,uint64)": {
        "notice": "The DAO can set new or edit existing token vesting details"
      }
    },
    "version": 1
  },
  "storageLayout": {
    "storage": [
      {
        "astId": 1504,
        "contract": "contracts/distributions/TokenDistributorV4.sol:TokenDistributorV4",
        "label": "_initialized",
        "offset": 0,
        "slot": "0",
        "type": "t_uint8"
      },
      {
        "astId": 1507,
        "contract": "contracts/distributions/TokenDistributorV4.sol:TokenDistributorV4",
        "label": "_initializing",
        "offset": 1,
        "slot": "0",
        "type": "t_bool"
      },
      {
        "astId": 54219,
        "contract": "contracts/distributions/TokenDistributorV4.sol:TokenDistributorV4",
        "label": "ACCESS_CONTROL_SINGLETON",
        "offset": 2,
        "slot": "0",
        "type": "t_contract(ISuAccessControl)58034"
      },
      {
        "astId": 52043,
        "contract": "contracts/distributions/TokenDistributorV4.sol:TokenDistributorV4",
        "label": "VE_ERC_20",
        "offset": 0,
        "slot": "1",
        "type": "t_address"
      },
      {
        "astId": 52045,
        "contract": "contracts/distributions/TokenDistributorV4.sol:TokenDistributorV4",
        "label": "SU_DAO",
        "offset": 0,
        "slot": "2",
        "type": "t_address"
      },
      {
        "astId": 52048,
        "contract": "contracts/distributions/TokenDistributorV4.sol:TokenDistributorV4",
        "label": "BONUS_CONTRACT",
        "offset": 0,
        "slot": "3",
        "type": "t_contract(IBonus)53239"
      },
      {
        "astId": 52050,
        "contract": "contracts/distributions/TokenDistributorV4.sol:TokenDistributorV4",
        "label": "startTimestamp",
        "offset": 20,
        "slot": "3",
        "type": "t_uint64"
      },
      {
        "astId": 52052,
        "contract": "contracts/distributions/TokenDistributorV4.sol:TokenDistributorV4",
        "label": "deadlineTimestamp",
        "offset": 0,
        "slot": "4",
        "type": "t_uint64"
      },
      {
        "astId": 52054,
        "contract": "contracts/distributions/TokenDistributorV4.sol:TokenDistributorV4",
        "label": "donationToken",
        "offset": 8,
        "slot": "4",
        "type": "t_address"
      },
      {
        "astId": 52056,
        "contract": "contracts/distributions/TokenDistributorV4.sol:TokenDistributorV4",
        "label": "donationTokenToUSD1e18",
        "offset": 0,
        "slot": "5",
        "type": "t_uint256"
      },
      {
        "astId": 52059,
        "contract": "contracts/distributions/TokenDistributorV4.sol:TokenDistributorV4",
        "label": "bondingCurvePolynomial1e18",
        "offset": 0,
        "slot": "6",
        "type": "t_array(t_int256)dyn_storage"
      },
      {
        "astId": 52061,
        "contract": "contracts/distributions/TokenDistributorV4.sol:TokenDistributorV4",
        "label": "minimumDonation",
        "offset": 0,
        "slot": "7",
        "type": "t_uint256"
      },
      {
        "astId": 52063,
        "contract": "contracts/distributions/TokenDistributorV4.sol:TokenDistributorV4",
        "label": "maximumDonation",
        "offset": 0,
        "slot": "8",
        "type": "t_uint256"
      },
      {
        "astId": 52065,
        "contract": "contracts/distributions/TokenDistributorV4.sol:TokenDistributorV4",
        "label": "donationGoalMin",
        "offset": 0,
        "slot": "9",
        "type": "t_uint256"
      },
      {
        "astId": 52067,
        "contract": "contracts/distributions/TokenDistributorV4.sol:TokenDistributorV4",
        "label": "donationGoalMax",
        "offset": 0,
        "slot": "10",
        "type": "t_uint256"
      },
      {
        "astId": 52069,
        "contract": "contracts/distributions/TokenDistributorV4.sol:TokenDistributorV4",
        "label": "fullVestingSeconds",
        "offset": 0,
        "slot": "11",
        "type": "t_uint64"
      },
      {
        "astId": 52071,
        "contract": "contracts/distributions/TokenDistributorV4.sol:TokenDistributorV4",
        "label": "cliffSeconds",
        "offset": 8,
        "slot": "11",
        "type": "t_uint64"
      },
      {
        "astId": 52073,
        "contract": "contracts/distributions/TokenDistributorV4.sol:TokenDistributorV4",
        "label": "tgeUnlockRatio1e18",
        "offset": 16,
        "slot": "11",
        "type": "t_uint64"
      },
      {
        "astId": 52075,
        "contract": "contracts/distributions/TokenDistributorV4.sol:TokenDistributorV4",
        "label": "vestingFrequencySeconds",
        "offset": 24,
        "slot": "11",
        "type": "t_uint64"
      },
      {
        "astId": 52082,
        "contract": "contracts/distributions/TokenDistributorV4.sol:TokenDistributorV4",
        "label": "nftRequirement",
        "offset": 0,
        "slot": "12",
        "type": "t_struct(AddressSet)22512_storage"
      },
      {
        "astId": 52088,
        "contract": "contracts/distributions/TokenDistributorV4.sol:TokenDistributorV4",
        "label": "bonusStats",
        "offset": 0,
        "slot": "14",
        "type": "t_struct(BonusStats)52085_storage"
      },
      {
        "astId": 52092,
        "contract": "contracts/distributions/TokenDistributorV4.sol:TokenDistributorV4",
        "label": "donations",
        "offset": 0,
        "slot": "15",
        "type": "t_mapping(t_address,t_uint256)"
      },
      {
        "astId": 52094,
        "contract": "contracts/distributions/TokenDistributorV4.sol:TokenDistributorV4",
        "label": "totalDonations",
        "offset": 0,
        "slot": "16",
        "type": "t_uint256"
      },
      {
        "astId": 53118,
        "contract": "contracts/distributions/TokenDistributorV4.sol:TokenDistributorV4",
        "label": "__gap",
        "offset": 0,
        "slot": "17",
        "type": "t_array(t_uint256)48_storage"
      }
    ],
    "types": {
      "t_address": {
        "encoding": "inplace",
        "label": "address",
        "numberOfBytes": "20"
      },
      "t_array(t_bytes32)dyn_storage": {
        "base": "t_bytes32",
        "encoding": "dynamic_array",
        "label": "bytes32[]",
        "numberOfBytes": "32"
      },
      "t_array(t_int256)dyn_storage": {
        "base": "t_int256",
        "encoding": "dynamic_array",
        "label": "int256[]",
        "numberOfBytes": "32"
      },
      "t_array(t_uint256)48_storage": {
        "base": "t_uint256",
        "encoding": "inplace",
        "label": "uint256[48]",
        "numberOfBytes": "1536"
      },
      "t_bool": {
        "encoding": "inplace",
        "label": "bool",
        "numberOfBytes": "1"
      },
      "t_bytes32": {
        "encoding": "inplace",
        "label": "bytes32",
        "numberOfBytes": "32"
      },
      "t_contract(IBonus)53239": {
        "encoding": "inplace",
        "label": "contract IBonus",
        "numberOfBytes": "20"
      },
      "t_contract(ISuAccessControl)58034": {
        "encoding": "inplace",
        "label": "contract ISuAccessControl",
        "numberOfBytes": "20"
      },
      "t_int256": {
        "encoding": "inplace",
        "label": "int256",
        "numberOfBytes": "32"
      },
      "t_mapping(t_address,t_uint256)": {
        "encoding": "mapping",
        "key": "t_address",
        "label": "mapping(address => uint256)",
        "numberOfBytes": "32",
        "value": "t_uint256"
      },
      "t_mapping(t_bytes32,t_uint256)": {
        "encoding": "mapping",
        "key": "t_bytes32",
        "label": "mapping(bytes32 => uint256)",
        "numberOfBytes": "32",
        "value": "t_uint256"
      },
      "t_struct(AddressSet)22512_storage": {
        "encoding": "inplace",
        "label": "struct EnumerableSet.AddressSet",
        "members": [
          {
            "astId": 22511,
            "contract": "contracts/distributions/TokenDistributorV4.sol:TokenDistributorV4",
            "label": "_inner",
            "offset": 0,
            "slot": "0",
            "type": "t_struct(Set)22197_storage"
          }
        ],
        "numberOfBytes": "64"
      },
      "t_struct(BonusStats)52085_storage": {
        "encoding": "inplace",
        "label": "struct TokenDistributorV4.BonusStats",
        "members": [
          {
            "astId": 52084,
            "contract": "contracts/distributions/TokenDistributorV4.sol:TokenDistributorV4",
            "label": "bonusRewarded",
            "offset": 0,
            "slot": "0",
            "type": "t_uint256"
          }
        ],
        "numberOfBytes": "32"
      },
      "t_struct(Set)22197_storage": {
        "encoding": "inplace",
        "label": "struct EnumerableSet.Set",
        "members": [
          {
            "astId": 22192,
            "contract": "contracts/distributions/TokenDistributorV4.sol:TokenDistributorV4",
            "label": "_values",
            "offset": 0,
            "slot": "0",
            "type": "t_array(t_bytes32)dyn_storage"
          },
          {
            "astId": 22196,
            "contract": "contracts/distributions/TokenDistributorV4.sol:TokenDistributorV4",
            "label": "_indexes",
            "offset": 0,
            "slot": "1",
            "type": "t_mapping(t_bytes32,t_uint256)"
          }
        ],
        "numberOfBytes": "64"
      },
      "t_uint256": {
        "encoding": "inplace",
        "label": "uint256",
        "numberOfBytes": "32"
      },
      "t_uint64": {
        "encoding": "inplace",
        "label": "uint64",
        "numberOfBytes": "8"
      },
      "t_uint8": {
        "encoding": "inplace",
        "label": "uint8",
        "numberOfBytes": "1"
      }
    }
  }
}