{
  "address": "0x11F9724E795Ce0CD9E0366286eA45C1BC578E984",
  "abi": [
    {
      "inputs": [],
      "name": "BadAccessControlSingleton",
      "type": "error"
    },
    {
      "inputs": [
        {
          "internalType": "address",
          "name": "dao",
          "type": "address"
        }
      ],
      "name": "BadDAOAddress",
      "type": "error"
    },
    {
      "inputs": [],
      "name": "BadUnlockRatio",
      "type": "error"
    },
    {
      "inputs": [],
      "name": "BadVestingTimestamps",
      "type": "error"
    },
    {
      "inputs": [],
      "name": "ClaimZeroError",
      "type": "error"
    },
    {
      "inputs": [],
      "name": "NoBalance",
      "type": "error"
    },
    {
      "inputs": [],
      "name": "OnlyAdminError",
      "type": "error"
    },
    {
      "inputs": [],
      "name": "OnlyAlerterError",
      "type": "error"
    },
    {
      "inputs": [],
      "name": "OnlyDAOError",
      "type": "error"
    },
    {
      "inputs": [],
      "name": "OnlyLiquidationAccessError",
      "type": "error"
    },
    {
      "inputs": [],
      "name": "OnlyMintAccessError",
      "type": "error"
    },
    {
      "inputs": [],
      "name": "OnlyRewardAccessError",
      "type": "error"
    },
    {
      "inputs": [],
      "name": "OnlyRoleError",
      "type": "error"
    },
    {
      "inputs": [],
      "name": "OnlyVaultAccessError",
      "type": "error"
    },
    {
      "inputs": [],
      "name": "TGEInPastError",
      "type": "error"
    },
    {
      "inputs": [
        {
          "internalType": "address",
          "name": "",
          "type": "address"
        }
      ],
      "name": "UnableToTransfer",
      "type": "error"
    },
    {
      "inputs": [],
      "name": "UnavailableFunctionalityError",
      "type": "error"
    },
    {
      "anonymous": false,
      "inputs": [
        {
          "indexed": true,
          "internalType": "address",
          "name": "owner",
          "type": "address"
        },
        {
          "indexed": true,
          "internalType": "address",
          "name": "spender",
          "type": "address"
        },
        {
          "indexed": false,
          "internalType": "uint256",
          "name": "value",
          "type": "uint256"
        }
      ],
      "name": "Approval",
      "type": "event"
    },
    {
      "anonymous": false,
      "inputs": [
        {
          "indexed": false,
          "internalType": "address",
          "name": "account",
          "type": "address"
        },
        {
          "indexed": false,
          "internalType": "uint256",
          "name": "claimAmount",
          "type": "uint256"
        }
      ],
      "name": "Claimed",
      "type": "event"
    },
    {
      "anonymous": false,
      "inputs": [
        {
          "indexed": true,
          "internalType": "address",
          "name": "delegator",
          "type": "address"
        },
        {
          "indexed": true,
          "internalType": "address",
          "name": "fromDelegate",
          "type": "address"
        },
        {
          "indexed": true,
          "internalType": "address",
          "name": "toDelegate",
          "type": "address"
        }
      ],
      "name": "DelegateChanged",
      "type": "event"
    },
    {
      "anonymous": false,
      "inputs": [
        {
          "indexed": true,
          "internalType": "address",
          "name": "delegate",
          "type": "address"
        },
        {
          "indexed": false,
          "internalType": "uint256",
          "name": "previousBalance",
          "type": "uint256"
        },
        {
          "indexed": false,
          "internalType": "uint256",
          "name": "newBalance",
          "type": "uint256"
        }
      ],
      "name": "DelegateVotesChanged",
      "type": "event"
    },
    {
      "anonymous": false,
      "inputs": [],
      "name": "EIP712DomainChanged",
      "type": "event"
    },
    {
      "anonymous": false,
      "inputs": [
        {
          "indexed": false,
          "internalType": "uint8",
          "name": "version",
          "type": "uint8"
        }
      ],
      "name": "Initialized",
      "type": "event"
    },
    {
      "anonymous": false,
      "inputs": [
        {
          "indexed": true,
          "internalType": "address",
          "name": "from",
          "type": "address"
        },
        {
          "indexed": true,
          "internalType": "address",
          "name": "to",
          "type": "address"
        },
        {
          "indexed": false,
          "internalType": "uint256",
          "name": "value",
          "type": "uint256"
        }
      ],
      "name": "Transfer",
      "type": "event"
    },
    {
      "inputs": [],
      "name": "ACCESS_CONTROL_SINGLETON",
      "outputs": [
        {
          "internalType": "contract ISuAccessControl",
          "name": "",
          "type": "address"
        }
      ],
      "stateMutability": "view",
      "type": "function"
    },
    {
      "inputs": [],
      "name": "ADMIN_ROLE",
      "outputs": [
        {
          "internalType": "bytes32",
          "name": "",
          "type": "bytes32"
        }
      ],
      "stateMutability": "view",
      "type": "function"
    },
    {
      "inputs": [],
      "name": "ALERTER_ROLE",
      "outputs": [
        {
          "internalType": "bytes32",
          "name": "",
          "type": "bytes32"
        }
      ],
      "stateMutability": "view",
      "type": "function"
    },
    {
      "inputs": [],
      "name": "CLOCK_MODE",
      "outputs": [
        {
          "internalType": "string",
          "name": "",
          "type": "string"
        }
      ],
      "stateMutability": "view",
      "type": "function"
    },
    {
      "inputs": [],
      "name": "DAO_ROLE",
      "outputs": [
        {
          "internalType": "bytes32",
          "name": "",
          "type": "bytes32"
        }
      ],
      "stateMutability": "view",
      "type": "function"
    },
    {
      "inputs": [],
      "name": "DOMAIN_SEPARATOR",
      "outputs": [
        {
          "internalType": "bytes32",
          "name": "",
          "type": "bytes32"
        }
      ],
      "stateMutability": "view",
      "type": "function"
    },
    {
      "inputs": [],
      "name": "LIQUIDATION_ACCESS_ROLE",
      "outputs": [
        {
          "internalType": "bytes32",
          "name": "",
          "type": "bytes32"
        }
      ],
      "stateMutability": "view",
      "type": "function"
    },
    {
      "inputs": [],
      "name": "LOCKED_TOKEN",
      "outputs": [
        {
          "internalType": "contract ERC20BurnableUpgradeable",
          "name": "",
          "type": "address"
        }
      ],
      "stateMutability": "view",
      "type": "function"
    },
    {
      "inputs": [],
      "name": "MINT_ACCESS_ROLE",
      "outputs": [
        {
          "internalType": "bytes32",
          "name": "",
          "type": "bytes32"
        }
      ],
      "stateMutability": "view",
      "type": "function"
    },
    {
      "inputs": [],
      "name": "REWARD_ACCESS_ROLE",
      "outputs": [
        {
          "internalType": "bytes32",
          "name": "",
          "type": "bytes32"
        }
      ],
      "stateMutability": "view",
      "type": "function"
    },
    {
      "inputs": [],
      "name": "SYSTEM_ROLE",
      "outputs": [
        {
          "internalType": "bytes32",
          "name": "",
          "type": "bytes32"
        }
      ],
      "stateMutability": "view",
      "type": "function"
    },
    {
      "inputs": [],
      "name": "VAULT_ACCESS_ROLE",
      "outputs": [
        {
          "internalType": "bytes32",
          "name": "",
          "type": "bytes32"
        }
      ],
      "stateMutability": "view",
      "type": "function"
    },
    {
      "inputs": [
        {
          "internalType": "address",
          "name": "_accessControlSingleton",
          "type": "address"
        },
        {
          "internalType": "string",
          "name": "_name",
          "type": "string"
        }
      ],
      "name": "__SuVoteToken__init",
      "outputs": [],
      "stateMutability": "nonpayable",
      "type": "function"
    },
    {
      "inputs": [
        {
          "internalType": "address",
          "name": "account",
          "type": "address"
        },
        {
          "internalType": "bool",
          "name": "_isTransferable",
          "type": "bool"
        }
      ],
      "name": "adminTransferUnlock",
      "outputs": [],
      "stateMutability": "nonpayable",
      "type": "function"
    },
    {
      "inputs": [
        {
          "internalType": "address",
          "name": "owner",
          "type": "address"
        },
        {
          "internalType": "address",
          "name": "spender",
          "type": "address"
        }
      ],
      "name": "allowance",
      "outputs": [
        {
          "internalType": "uint256",
          "name": "",
          "type": "uint256"
        }
      ],
      "stateMutability": "view",
      "type": "function"
    },
    {
      "inputs": [
        {
          "internalType": "address",
          "name": "",
          "type": "address"
        }
      ],
      "name": "alreadyWithdrawn",
      "outputs": [
        {
          "internalType": "uint256",
          "name": "",
          "type": "uint256"
        }
      ],
      "stateMutability": "view",
      "type": "function"
    },
    {
      "inputs": [
        {
          "internalType": "address",
          "name": "spender",
          "type": "address"
        },
        {
          "internalType": "uint256",
          "name": "amount",
          "type": "uint256"
        }
      ],
      "name": "approve",
      "outputs": [
        {
          "internalType": "bool",
          "name": "",
          "type": "bool"
        }
      ],
      "stateMutability": "nonpayable",
      "type": "function"
    },
    {
      "inputs": [
        {
          "internalType": "address",
          "name": "account",
          "type": "address"
        }
      ],
      "name": "availableToClaim",
      "outputs": [
        {
          "internalType": "uint256",
          "name": "",
          "type": "uint256"
        }
      ],
      "stateMutability": "view",
      "type": "function"
    },
    {
      "inputs": [
        {
          "internalType": "address",
          "name": "account",
          "type": "address"
        }
      ],
      "name": "balanceOf",
      "outputs": [
        {
          "internalType": "uint256",
          "name": "",
          "type": "uint256"
        }
      ],
      "stateMutability": "view",
      "type": "function"
    },
    {
      "inputs": [
        {
          "internalType": "uint256",
          "name": "amount",
          "type": "uint256"
        }
      ],
      "name": "burn",
      "outputs": [],
      "stateMutability": "nonpayable",
      "type": "function"
    },
    {
      "inputs": [],
      "name": "claim",
      "outputs": [],
      "stateMutability": "nonpayable",
      "type": "function"
    },
    {
      "inputs": [],
      "name": "cliffSeconds",
      "outputs": [
        {
          "internalType": "uint32",
          "name": "",
          "type": "uint32"
        }
      ],
      "stateMutability": "view",
      "type": "function"
    },
    {
      "inputs": [],
      "name": "clock",
      "outputs": [
        {
          "internalType": "uint48",
          "name": "",
          "type": "uint48"
        }
      ],
      "stateMutability": "view",
      "type": "function"
    },
    {
      "inputs": [],
      "name": "decimals",
      "outputs": [
        {
          "internalType": "uint8",
          "name": "",
          "type": "uint8"
        }
      ],
      "stateMutability": "view",
      "type": "function"
    },
    {
      "inputs": [
        {
          "internalType": "address",
          "name": "spender",
          "type": "address"
        },
        {
          "internalType": "uint256",
          "name": "subtractedValue",
          "type": "uint256"
        }
      ],
      "name": "decreaseAllowance",
      "outputs": [
        {
          "internalType": "bool",
          "name": "",
          "type": "bool"
        }
      ],
      "stateMutability": "nonpayable",
      "type": "function"
    },
    {
      "inputs": [
        {
          "internalType": "address",
          "name": "",
          "type": "address"
        }
      ],
      "name": "delegate",
      "outputs": [],
      "stateMutability": "nonpayable",
      "type": "function"
    },
    {
      "inputs": [
        {
          "internalType": "address",
          "name": "delegatee",
          "type": "address"
        },
        {
          "internalType": "uint256",
          "name": "nonce",
          "type": "uint256"
        },
        {
          "internalType": "uint256",
          "name": "expiry",
          "type": "uint256"
        },
        {
          "internalType": "uint8",
          "name": "v",
          "type": "uint8"
        },
        {
          "internalType": "bytes32",
          "name": "r",
          "type": "bytes32"
        },
        {
          "internalType": "bytes32",
          "name": "s",
          "type": "bytes32"
        }
      ],
      "name": "delegateBySig",
      "outputs": [],
      "stateMutability": "nonpayable",
      "type": "function"
    },
    {
      "inputs": [
        {
          "internalType": "address",
          "name": "account",
          "type": "address"
        },
        {
          "internalType": "address",
          "name": "delegatee",
          "type": "address"
        }
      ],
      "name": "delegateOnBehalf",
      "outputs": [],
      "stateMutability": "nonpayable",
      "type": "function"
    },
    {
      "inputs": [
        {
          "internalType": "address",
          "name": "account",
          "type": "address"
        }
      ],
      "name": "delegates",
      "outputs": [
        {
          "internalType": "address",
          "name": "",
          "type": "address"
        }
      ],
      "stateMutability": "view",
      "type": "function"
    },
    {
      "inputs": [],
      "name": "eip712Domain",
      "outputs": [
        {
          "internalType": "bytes1",
          "name": "fields",
          "type": "bytes1"
        },
        {
          "internalType": "string",
          "name": "name",
          "type": "string"
        },
        {
          "internalType": "string",
          "name": "version",
          "type": "string"
        },
        {
          "internalType": "uint256",
          "name": "chainId",
          "type": "uint256"
        },
        {
          "internalType": "address",
          "name": "verifyingContract",
          "type": "address"
        },
        {
          "internalType": "bytes32",
          "name": "salt",
          "type": "bytes32"
        },
        {
          "internalType": "uint256[]",
          "name": "extensions",
          "type": "uint256[]"
        }
      ],
      "stateMutability": "view",
      "type": "function"
    },
    {
      "inputs": [
        {
          "internalType": "uint256",
          "name": "timepoint",
          "type": "uint256"
        }
      ],
      "name": "getPastTotalSupply",
      "outputs": [
        {
          "internalType": "uint256",
          "name": "",
          "type": "uint256"
        }
      ],
      "stateMutability": "view",
      "type": "function"
    },
    {
      "inputs": [
        {
          "internalType": "address",
          "name": "account",
          "type": "address"
        },
        {
          "internalType": "uint256",
          "name": "timepoint",
          "type": "uint256"
        }
      ],
      "name": "getPastVotes",
      "outputs": [
        {
          "internalType": "uint256",
          "name": "",
          "type": "uint256"
        }
      ],
      "stateMutability": "view",
      "type": "function"
    },
    {
      "inputs": [],
      "name": "getTotalSupply",
      "outputs": [
        {
          "internalType": "uint256",
          "name": "",
          "type": "uint256"
        }
      ],
      "stateMutability": "view",
      "type": "function"
    },
    {
      "inputs": [
        {
          "internalType": "address",
          "name": "account",
          "type": "address"
        }
      ],
      "name": "getVotes",
      "outputs": [
        {
          "internalType": "uint256",
          "name": "",
          "type": "uint256"
        }
      ],
      "stateMutability": "view",
      "type": "function"
    },
    {
      "inputs": [
        {
          "internalType": "address",
          "name": "spender",
          "type": "address"
        },
        {
          "internalType": "uint256",
          "name": "addedValue",
          "type": "uint256"
        }
      ],
      "name": "increaseAllowance",
      "outputs": [
        {
          "internalType": "bool",
          "name": "",
          "type": "bool"
        }
      ],
      "stateMutability": "nonpayable",
      "type": "function"
    },
    {
      "inputs": [
        {
          "internalType": "address",
          "name": "_accessControlSingleton",
          "type": "address"
        },
        {
          "internalType": "contract ERC20BurnableUpgradeable",
          "name": "_lockedToken",
          "type": "address"
        },
        {
          "internalType": "uint32",
          "name": "_maxTgeTimestamp",
          "type": "uint32"
        }
      ],
      "name": "initialize",
      "outputs": [],
      "stateMutability": "nonpayable",
      "type": "function"
    },
    {
      "inputs": [
        {
          "internalType": "address",
          "name": "",
          "type": "address"
        }
      ],
      "name": "isTransferable",
      "outputs": [
        {
          "internalType": "bool",
          "name": "",
          "type": "bool"
        }
      ],
      "stateMutability": "view",
      "type": "function"
    },
    {
      "inputs": [
        {
          "internalType": "address",
          "name": "account",
          "type": "address"
        },
        {
          "internalType": "uint256",
          "name": "amount",
          "type": "uint256"
        }
      ],
      "name": "lockUnderVesting",
      "outputs": [],
      "stateMutability": "nonpayable",
      "type": "function"
    },
    {
      "inputs": [],
      "name": "name",
      "outputs": [
        {
          "internalType": "string",
          "name": "",
          "type": "string"
        }
      ],
      "stateMutability": "view",
      "type": "function"
    },
    {
      "inputs": [
        {
          "internalType": "address",
          "name": "owner",
          "type": "address"
        }
      ],
      "name": "nonces",
      "outputs": [
        {
          "internalType": "uint256",
          "name": "",
          "type": "uint256"
        }
      ],
      "stateMutability": "view",
      "type": "function"
    },
    {
      "inputs": [
        {
          "internalType": "contract ERC20Upgradeable",
          "name": "token",
          "type": "address"
        }
      ],
      "name": "rescue",
      "outputs": [],
      "stateMutability": "nonpayable",
      "type": "function"
    },
    {
      "inputs": [
        {
          "internalType": "bytes4",
          "name": "interfaceId",
          "type": "bytes4"
        }
      ],
      "name": "supportsInterface",
      "outputs": [
        {
          "internalType": "bool",
          "name": "",
          "type": "bool"
        }
      ],
      "stateMutability": "view",
      "type": "function"
    },
    {
      "inputs": [],
      "name": "symbol",
      "outputs": [
        {
          "internalType": "string",
          "name": "",
          "type": "string"
        }
      ],
      "stateMutability": "view",
      "type": "function"
    },
    {
      "inputs": [],
      "name": "tgeTimestamp",
      "outputs": [
        {
          "internalType": "uint32",
          "name": "",
          "type": "uint32"
        }
      ],
      "stateMutability": "view",
      "type": "function"
    },
    {
      "inputs": [],
      "name": "tgeUnlockRatio1e18",
      "outputs": [
        {
          "internalType": "uint64",
          "name": "",
          "type": "uint64"
        }
      ],
      "stateMutability": "view",
      "type": "function"
    },
    {
      "inputs": [
        {
          "internalType": "address",
          "name": "user",
          "type": "address"
        }
      ],
      "name": "totalClaimed",
      "outputs": [
        {
          "internalType": "uint256",
          "name": "",
          "type": "uint256"
        }
      ],
      "stateMutability": "view",
      "type": "function"
    },
    {
      "inputs": [
        {
          "internalType": "address",
          "name": "user",
          "type": "address"
        }
      ],
      "name": "totalDeposited",
      "outputs": [
        {
          "internalType": "uint256",
          "name": "",
          "type": "uint256"
        }
      ],
      "stateMutability": "view",
      "type": "function"
    },
    {
      "inputs": [],
      "name": "totalSupply",
      "outputs": [
        {
          "internalType": "uint256",
          "name": "",
          "type": "uint256"
        }
      ],
      "stateMutability": "view",
      "type": "function"
    },
    {
      "inputs": [
        {
          "internalType": "address",
          "name": "to",
          "type": "address"
        },
        {
          "internalType": "uint256",
          "name": "amount",
          "type": "uint256"
        }
      ],
      "name": "transfer",
      "outputs": [
        {
          "internalType": "bool",
          "name": "",
          "type": "bool"
        }
      ],
      "stateMutability": "nonpayable",
      "type": "function"
    },
    {
      "inputs": [
        {
          "internalType": "address",
          "name": "from",
          "type": "address"
        },
        {
          "internalType": "address",
          "name": "to",
          "type": "address"
        },
        {
          "internalType": "uint256",
          "name": "amount",
          "type": "uint256"
        }
      ],
      "name": "transferFrom",
      "outputs": [
        {
          "internalType": "bool",
          "name": "",
          "type": "bool"
        }
      ],
      "stateMutability": "nonpayable",
      "type": "function"
    },
    {
      "inputs": [
        {
          "internalType": "uint32",
          "name": "newTgeTimestamp",
          "type": "uint32"
        },
        {
          "internalType": "uint32",
          "name": "newCliffSeconds",
          "type": "uint32"
        },
        {
          "internalType": "uint32",
          "name": "newVestingSeconds",
          "type": "uint32"
        },
        {
          "internalType": "uint64",
          "name": "newTgeUnlockRatio",
          "type": "uint64"
        },
        {
          "internalType": "uint32",
          "name": "newVestingFrequencySeconds",
          "type": "uint32"
        }
      ],
      "name": "updateTimestamps",
      "outputs": [],
      "stateMutability": "nonpayable",
      "type": "function"
    },
    {
      "inputs": [],
      "name": "vestingFrequencySeconds",
      "outputs": [
        {
          "internalType": "uint32",
          "name": "",
          "type": "uint32"
        }
      ],
      "stateMutability": "view",
      "type": "function"
    },
    {
      "inputs": [],
      "name": "vestingSeconds",
      "outputs": [
        {
          "internalType": "uint32",
          "name": "",
          "type": "uint32"
        }
      ],
      "stateMutability": "view",
      "type": "function"
    },
    {
      "stateMutability": "payable",
      "type": "receive"
    }
  ],
  "numDeployments": 1,
  "solcInputHash": "a74e30bb844720d1485a32b7747b45a7",
  "bytecode": "0x608060405234801561001057600080fd5b50613c7b806100206000396000f3fe60806040526004361061025e5760003560e01c806301ffc9a71461026a57806302b42b861461029f57806303ee9f22146102c157806306fdde03146102ee578063095ea7b3146103105780630afcdef5146103305780630da45188146103695780630e408e3b1461039757806314c376dc146103b757806318160ddd146103eb578063195055f11461040057806323b872dd14610430578063313ce567146104505780633644e5151461046c57806339509351146104815780633a46b1a8146104a15780633c14516d146104c157806342966c68146104e1578063438280dd146105015780634bf5d7e9146105355780634e71d92d1461054a578063530554811461055f578063587cde1e1461057f5780635c19a95c1461059f5780635e10448b146105bf57806369287862146105fe5780636ecf2b221461061e57806370a082311461063e57806371d0fb411461065e57806375071d2a1461069257806375b238fc146106b45780637ecebe00146106c95780638341ee72146106e9578063839006f21461070657806384b0196e146107265780638e5313e01461074e5780638e539e8c1461078257806391ddadf4146107a257806395d89b41146107ce5780639aa2e39e146107e35780639ab24eb014610810578063a4317ef414610830578063a457c2d714610854578063a9059cbb14610874578063b1956af514610894578063c3cda520146108b8578063c4e41b22146108d8578063d216617a146108ed578063dc4e78cd1461090d578063dc97e84e1461092d578063dd62ed3e14610961578063e9c2651814610981578063ef5d9ae8146109a357600080fd5b3661026557005b600080fd5b34801561027657600080fd5b5061028a610285366004613260565b6109d9565b60405190151581526020015b60405180910390f35b3480156102ab57600080fd5b506102bf6102ba3660046132ad565b610a04565b005b3480156102cd57600080fd5b506067546102e1906001600160a01b031681565b60405161029691906132e6565b3480156102fa57600080fd5b50610303610ac1565b604051610296919061334a565b34801561031c57600080fd5b5061028a61032b36600461335d565b610b53565b34801561033c57600080fd5b5060cd5461035490600160401b900463ffffffff1681565b60405163ffffffff9091168152602001610296565b34801561037557600080fd5b50610389610384366004613389565b610b6b565b604051908152602001610296565b3480156103a357600080fd5b506102bf6103b23660046133a6565b610d3e565b3480156103c357600080fd5b506103897fe965846df3dd5b1dfa65f58e31477079e90140e0908b6dd31b5aead5a57cf36581565b3480156103f757600080fd5b50609c54610389565b34801561040c57600080fd5b5061028a61041b366004613389565b60cf6020526000908152604090205460ff1681565b34801561043c57600080fd5b5061028a61044b3660046133d4565b610deb565b34801561045c57600080fd5b5060405160128152602001610296565b34801561047857600080fd5b50610389610e0f565b34801561048d57600080fd5b5061028a61049c36600461335d565b610e1e565b3480156104ad57600080fd5b506103896104bc36600461335d565b610e40565b3480156104cd57600080fd5b506102bf6104dc36600461335d565b610eb3565b3480156104ed57600080fd5b506102bf6104fc366004613415565b610f95565b34801561050d57600080fd5b506103897f39f61ca2a1a28fee144218173ec637b649a353e4026b2738c673800e5bf1437b81565b34801561054157600080fd5b5061030361100c565b34801561055657600080fd5b506102bf61109f565b34801561056b57600080fd5b5061038961057a366004613389565b611164565b34801561058b57600080fd5b506102e161059a366004613389565b611190565b3480156105ab57600080fd5b506102bf6105ba366004613389565b6111ae565b3480156105cb57600080fd5b5060cc546105e690600160c01b90046001600160401b031681565b6040516001600160401b039091168152602001610296565b34801561060a57600080fd5b5060cc546102e1906001600160a01b031681565b34801561062a57600080fd5b506102bf610639366004613447565b6111c7565b34801561064a57600080fd5b50610389610659366004613389565b6113fe565b34801561066a57600080fd5b506103897f880a91047114272656e533301261260c75e4d11543ac7303d6fe4204579ec72781565b34801561069e57600080fd5b50610389600080516020613bc683398151915281565b3480156106c057600080fd5b50610389600081565b3480156106d557600080fd5b506103896106e4366004613389565b611419565b3480156106f557600080fd5b5060cd546103549063ffffffff1681565b34801561071257600080fd5b506102bf610721366004613389565b611437565b34801561073257600080fd5b5061073b611595565b604051610296979695949392919061348e565b34801561075a57600080fd5b506103897fe453bacb314e78dcd5192e6b1a2b1f0e7c76e92f6b7e429a6a90f04e39db3b7681565b34801561078e57600080fd5b5061038961079d366004613415565b611633565b3480156107ae57600080fd5b506107b7611686565b60405165ffffffffffff9091168152602001610296565b3480156107da57600080fd5b50610303611691565b3480156107ef57600080fd5b506103896107fe366004613389565b60ce6020526000908152604090205481565b34801561081c57600080fd5b5061038961082b366004613389565b6116a0565b34801561083c57600080fd5b5060cc5461035490600160a01b900463ffffffff1681565b34801561086057600080fd5b5061028a61086f36600461335d565b6116c1565b34801561088057600080fd5b5061028a61088f36600461335d565b61173c565b3480156108a057600080fd5b5060cd5461035490600160201b900463ffffffff1681565b3480156108c457600080fd5b506102bf6108d3366004613524565b6117b6565b3480156108e457600080fd5b506103896118de565b3480156108f957600080fd5b506102bf6109083660046135f3565b6118e8565b34801561091957600080fd5b506102bf610928366004613685565b6119cc565b34801561093957600080fd5b506103897f9a9aef7c1247d5fc769b0185c052913e39673da29a880317dfd20ebf86f26a4981565b34801561096d57600080fd5b5061038961097c3660046133a6565b611bb4565b34801561098d57600080fd5b50610389600080516020613ba683398151915281565b3480156109af57600080fd5b506103896109be366004613389565b6001600160a01b0316600090815260ce602052604090205490565b60006001600160e01b0319821663caa4951960e01b14806109fe57506109fe82611bdf565b92915050565b606754604051632474521560e21b81526000916001600160a01b0316906391d1485490610a3790849033906004016136f8565b602060405180830381865afa158015610a54573d6000803e3d6000fd5b505050506040513d601f19601f82011682018060405250810190610a78919061370f565b610a9557604051632f33a5b560e01b815260040160405180910390fd5b506001600160a01b0391909116600090815260cf60205260409020805460ff1916911515919091179055565b6060609d8054610ad09061372c565b80601f0160208091040260200160405190810160405280929190818152602001828054610afc9061372c565b8015610b495780601f10610b1e57610100808354040283529160200191610b49565b820191906000526020600020905b815481529060010190602001808311610b2c57829003601f168201915b5050505050905090565b600033610b61818585611c04565b5060019392505050565b60cc546000904290600160a01b900463ffffffff16811015610b905750600092915050565b6000610b9b84611164565b60cc54909150600090670de0b6b3a764000090610bc890600160c01b90046001600160401b031684613776565b610bd291906137a3565b60cd5460cc54919250610bf69163ffffffff91821691600160a01b909104166137b7565b63ffffffff168310610cea5760cd5460cc54849163ffffffff600160201b8204811692610c2e92821691600160a01b909104166137b7565b610c3891906137b7565b63ffffffff161015610c4b575080610cea565b60cd5460cc54600091610c6f9163ffffffff91821691600160a01b909104166137b7565b610c7f9063ffffffff16856137db565b60cd54909150600090600160401b900463ffffffff16610c9f81846137a3565b610ca99190613776565b60cd54909150600160201b900463ffffffff1681610cc785876137db565b610cd19190613776565b610cdb91906137a3565b610ce590846137ee565b925050505b6001600160a01b038516600090815260ce6020526040902054811115610d32576001600160a01b038516600090815260ce6020526040902054610d2d90826137db565b610d35565b60005b95945050505050565b606754604051632474521560e21b8152600080516020613bc6833981519152916001600160a01b0316906391d1485490610d7e90849033906004016136f8565b602060405180830381865afa158015610d9b573d6000803e3d6000fd5b505050506040513d601f19601f82011682018060405250810190610dbf919061370f565b610ddc57604051632f33a5b560e01b815260040160405180910390fd5b610de68383611d28565b505050565b600033610df9858285611da3565b610e04858585611e17565b506001949350505050565b6000610e19611fb0565b905090565b600033610b61818585610e318383611bb4565b610e3b91906137ee565b611c04565b6000610e4a611686565b65ffffffffffff168210610e795760405162461bcd60e51b8152600401610e7090613801565b60405180910390fd5b610ea3610e8583611fba565b6001600160a01b038516600090815260696020526040902090612023565b6001600160e01b03169392505050565b606754604051632474521560e21b81526000916001600160a01b0316906391d1485490610ee690849033906004016136f8565b602060405180830381865afa158015610f03573d6000803e3d6000fd5b505050506040513d601f19601f82011682018060405250810190610f27919061370f565b610f4457604051632f33a5b560e01b815260040160405180910390fd5b60cc54610f5c906001600160a01b03163330856120d7565b610f668383612142565b610f72600084846121f1565b6000610f7d84611190565b6001600160a01b031603610de657610de68384611d28565b610f9f3382612255565b610fab336000836121f1565b60cc54604051630852cd8d60e31b8152600481018390526001600160a01b03909116906342966c6890602401600060405180830381600087803b158015610ff157600080fd5b505af1158015611005573d6000803e3d6000fd5b5050505050565b606043611017611686565b65ffffffffffff16146110675760405162461bcd60e51b8152602060048201526018602482015277566f7465733a2062726f6b656e20636c6f636b206d6f646560401b6044820152606401610e70565b5060408051808201909152601d81527f6d6f64653d626c6f636b6e756d6265722666726f6d3d64656661756c74000000602082015290565b60006110aa33610b6b565b9050806000036110cd57604051639e335bd560e01b815260040160405180910390fd5b33600090815260ce60205260409020546110e89082906137ee565b33600081815260ce60205260409020919091556111059082612255565b611111336000836121f1565b60cc54611128906001600160a01b03163383612377565b7fd8138f8a3f377c5259ca548e70e4c2de94f129f5a11036a15b69513cba2b426a338260405161115992919061382f565b60405180910390a150565b6001600160a01b038116600090815260ce6020526040812054611186836113fe565b6109fe91906137ee565b6001600160a01b039081166000908152606860205260409020541690565b604051634358d6cf60e11b815260040160405180910390fd5b600054610100900460ff16158080156111e75750600054600160ff909116105b8061120857506111f630612396565b158015611208575060005460ff166001145b6112245760405162461bcd60e51b8152600401610e7090613848565b6000805460ff191660011790558015611247576000805461ff0019166101001790555b6000836001600160a01b03166395d89b416040518163ffffffff1660e01b8152600401600060405180830381865afa158015611287573d6000803e3d6000fd5b505050506040513d6000823e601f3d908101601f191682016040526112af9190810190613896565b6040516020016112bf9190613903565b60405160208183030381529060405290506112da85826118e8565b611368846001600160a01b03166306fdde036040518163ffffffff1660e01b8152600401600060405180830381865afa15801561131b573d6000803e3d6000fd5b505050506040513d6000823e601f3d908101601f191682016040526113439190810190613896565b604051602001611353919061392d565b604051602081830303815290604052826123a5565b5060cc805460cd80546001600160601b0319166aed4e0003b5380000ed4e001790556001600160a01b0385166001600160c01b031990911617600160a01b63ffffffff851602176001600160c01b031664b1a2bc2ec560d11b17905580156113f8576000805461ff001916905560405160018152600080516020613be68339815191529060200160405180910390a15b50505050565b6001600160a01b03166000908152609a602052604090205490565b6001600160a01b0381166000908152606b60205260408120546109fe565b606754604051632474521560e21b8152600080516020613ba6833981519152916001600160a01b0316906391d148549061147790849033906004016136f8565b602060405180830381865afa158015611494573d6000803e3d6000fd5b505050506040513d601f19601f820116820180604052508101906114b8919061370f565b6114d557604051632f33a5b560e01b815260040160405180910390fd5b6001600160a01b03821661150f5760405133904780156108fc02916000818181858888f19350505050158015610de6573d6000803e3d6000fd5b61159133836001600160a01b03166370a08231306040518263ffffffff1660e01b815260040161153f91906132e6565b602060405180830381865afa15801561155c573d6000803e3d6000fd5b505050506040513d601f19601f820116820180604052508101906115809190613962565b6001600160a01b0385169190612377565b5050565b6000606080600080600060606033546000801b1480156115b55750603454155b6115f95760405162461bcd60e51b81526020600482015260156024820152741152540dcc4c8e88155b9a5b9a5d1a585b1a5e9959605a1b6044820152606401610e70565b6116016123d6565b6116096123e5565b60408051600080825260208201909252600f60f81b9b939a50919850469750309650945092509050565b600061163d611686565b65ffffffffffff1682106116635760405162461bcd60e51b8152600401610e7090613801565b61167761166f83611fba565b606a90612023565b6001600160e01b031692915050565b6000610e19436123f4565b6060609e8054610ad09061372c565b6001600160a01b03811660009081526069602052604081206116779061245b565b600033816116cf8286611bb4565b90508381101561172f5760405162461bcd60e51b815260206004820152602560248201527f45524332303a2064656372656173656420616c6c6f77616e63652062656c6f77604482015264207a65726f60d81b6064820152608401610e70565b610e048286868403611c04565b33600090815260cf602052604081205460ff168061177257506001600160a01b038316600090815260cf602052604090205460ff165b1561179257611782338484611e17565b61178d3384846121f1565b6117ad565b33604051631439782360e31b8152600401610e7091906132e6565b50600192915050565b834211156118015760405162461bcd60e51b8152602060048201526018602482015277159bdd195cce881cda59db985d1d5c9948195e1c1a5c995960421b6044820152606401610e70565b604080517fe48329057bfd03d55e49b547132e39cffd9c1820ad7b9d4c5307691425d15adf60208201526001600160a01b03881691810191909152606081018690526080810185905260009061187b906118739060a00160405160208183030381529060405280519060200120612495565b8585856124c2565b9050611886816124ec565b86146118cb5760405162461bcd60e51b8152602060048201526014602482015273566f7465733a20696e76616c6964206e6f6e636560601b6044820152606401610e70565b6118d58188611d28565b50505050505050565b6000610e19612514565b600054610100900460ff16158080156119085750600054600160ff909116105b80611929575061191730612396565b158015611929575060005460ff166001145b6119455760405162461bcd60e51b8152600401610e7090613848565b6000805460ff191660011790558015611968576000805461ff0019166101001790555b6119718361252e565b61199482604051806040016040528060018152602001603160f81b815250612613565b8015610de6576000805461ff001916905560405160018152600080516020613be68339815191529060200160405180910390a1505050565b606754604051632474521560e21b81526000916001600160a01b0316906391d14854906119ff90849033906004016136f8565b602060405180830381865afa158015611a1c573d6000803e3d6000fd5b505050506040513d601f19601f82011682018060405250810190611a40919061370f565b611a5d57604051632f33a5b560e01b815260040160405180910390fd5b4263ffffffff168663ffffffff161015611a8a576040516353bd8e2560e01b815260040160405180910390fd5b670de0b6b3a7640000836001600160401b03161115611abc5760405163df5be7f960e01b815260040160405180910390fd5b8363ffffffff16600003611ae35760405163b5039cfb60e01b815260040160405180910390fd5b63ffffffff84161580611b16575063ffffffff841682611b03818761397b565b611b0d919061399e565b63ffffffff1614155b15611b345760405163b5039cfb60e01b815260040160405180910390fd5b5060cc805460cd80546001600160401b03909516600160c01b026001600160c01b0363ffffffff998a16600160a01b02166001600160a01b039093169290921791909117909155908516600160401b0263ffffffff60401b19938616600160201b026001600160401b031990931694909516939093171716919091179055565b6001600160a01b039182166000908152609b6020908152604080832093909416825291909152205490565b60006001600160e01b03198216637487d9fb60e11b14806109fe57506109fe82612644565b6001600160a01b038316611c665760405162461bcd60e51b8152602060048201526024808201527f45524332303a20617070726f76652066726f6d20746865207a65726f206164646044820152637265737360e01b6064820152608401610e70565b6001600160a01b038216611cc75760405162461bcd60e51b815260206004820152602260248201527f45524332303a20617070726f766520746f20746865207a65726f206164647265604482015261737360f01b6064820152608401610e70565b6001600160a01b038381166000818152609b602090815260408083209487168084529482529182902085905590518481527f8c5be1e5ebec7d5bd14f71427d1e84f3dd0314c0f7b2291e5b200ac8c7c3b925910160405180910390a3505050565b6000611d3383611190565b6001600160a01b0384811660008181526068602052604080822080546001600160a01b031916888616908117909155905194955093928516927f3134e8a2e6d97e929a7e54011ea5485d7d196dd5f0ba4d4ef95803e8e3fc257f9190a4610de68183611d9e866126b6565b6126c1565b6000611daf8484611bb4565b905060001981146113f85781811015611e0a5760405162461bcd60e51b815260206004820152601d60248201527f45524332303a20696e73756666696369656e7420616c6c6f77616e63650000006044820152606401610e70565b6113f88484848403611c04565b6001600160a01b038316611e7b5760405162461bcd60e51b815260206004820152602560248201527f45524332303a207472616e736665722066726f6d20746865207a65726f206164604482015264647265737360d81b6064820152608401610e70565b6001600160a01b038216611edd5760405162461bcd60e51b815260206004820152602360248201527f45524332303a207472616e7366657220746f20746865207a65726f206164647260448201526265737360e81b6064820152608401610e70565b6001600160a01b0383166000908152609a602052604090205481811015611f555760405162461bcd60e51b815260206004820152602660248201527f45524332303a207472616e7366657220616d6f756e7420657863656564732062604482015265616c616e636560d01b6064820152608401610e70565b6001600160a01b038085166000818152609a60205260408082208686039055928616808252908390208054860190559151600080516020613c0683398151915290611fa39086815260200190565b60405180910390a36113f8565b6000610e19612804565b600063ffffffff82111561201f5760405162461bcd60e51b815260206004820152602660248201527f53616665436173743a2076616c756520646f65736e27742066697420696e203360448201526532206269747360d01b6064820152608401610e70565b5090565b81546000908181600581111561208057600061203e84612878565b61204890856137db565b60008881526020902090915081015463ffffffff90811690871610156120705780915061207e565b61207b8160016137ee565b92505b505b600061208e87878585612960565b905080156120c9576120b3876120a56001846137db565b600091825260209091200190565b54600160201b90046001600160e01b03166120cc565b60005b979650505050505050565b6040516001600160a01b03808516602483015283166044820152606481018290526113f89085906323b872dd60e01b906084015b60408051601f198184030181529190526020810180516001600160e01b03166001600160e01b0319909316929092179091526129be565b6001600160a01b0382166121985760405162461bcd60e51b815260206004820152601f60248201527f45524332303a206d696e7420746f20746865207a65726f2061646472657373006044820152606401610e70565b80609c60008282546121aa91906137ee565b90915550506001600160a01b0382166000818152609a6020908152604080832080548601905551848152600080516020613c06833981519152910160405180910390a35050565b6001600160a01b03831661221857612215606a612a9361221084612a9f565b612b08565b50505b6001600160a01b03821661223a57612237606a612b5161221084612a9f565b50505b610de661224684611190565b61224f84611190565b836126c1565b6001600160a01b0382166122b55760405162461bcd60e51b815260206004820152602160248201527f45524332303a206275726e2066726f6d20746865207a65726f206164647265736044820152607360f81b6064820152608401610e70565b6001600160a01b0382166000908152609a6020526040902054818110156123295760405162461bcd60e51b815260206004820152602260248201527f45524332303a206275726e20616d6f756e7420657863656564732062616c616e604482015261636560f01b6064820152608401610e70565b6001600160a01b0383166000818152609a602090815260408083208686039055609c8054879003905551858152919291600080516020613c06833981519152910160405180910390a3505050565b610de68363a9059cbb60e01b848460405160240161210b92919061382f565b6001600160a01b03163b151590565b600054610100900460ff166123cc5760405162461bcd60e51b8152600401610e70906139c6565b6115918282612b5d565b606060358054610ad09061372c565b606060368054610ad09061372c565b600065ffffffffffff82111561201f5760405162461bcd60e51b815260206004820152602660248201527f53616665436173743a2076616c756520646f65736e27742066697420696e203460448201526538206269747360d01b6064820152608401610e70565b8054600090801561248b57612475836120a56001846137db565b54600160201b90046001600160e01b031661248e565b60005b9392505050565b60006109fe6124a2611fb0565b8360405161190160f01b8152600281019290925260228201526042902090565b60008060006124d387878787612b9d565b915091506124e081612c57565b5090505b949350505050565b6001600160a01b0381166000908152606b602052604090208054600181018255905b50919050565b6000612520606a61245b565b6001600160e01b0316905090565b600054610100900460ff166125555760405162461bcd60e51b8152600401610e70906139c6565b606780546001600160a01b0319166001600160a01b038316908117909155158015906125f257506040516301ffc9a760e01b81526001600160a01b038216906301ffc9a7906125af90637965db0b60e01b90600401613a11565b602060405180830381865afa1580156125cc573d6000803e3d6000fd5b505050506040513d601f19601f820116820180604052508101906125f0919061370f565b155b15612610576040516384d942fd60e01b815260040160405180910390fd5b50565b600054610100900460ff1661263a5760405162461bcd60e51b8152600401610e70906139c6565b6115918282612d9c565b6067546040516301ffc9a760e01b81526000916001600160a01b0316906301ffc9a790612675908590600401613a11565b602060405180830381865afa158015612692573d6000803e3d6000fd5b505050506040513d601f19601f820116820180604052508101906109fe919061370f565b60006109fe826113fe565b816001600160a01b0316836001600160a01b0316141580156126e35750600081115b15610de6576001600160a01b03831615612774576001600160a01b0383166000908152606960205260408120819061272190612b5161221086612a9f565b6001600160e01b031691506001600160e01b03169150846001600160a01b0316600080516020613c268339815191528383604051612769929190918252602082015260400190565b60405180910390a250505b6001600160a01b03821615610de6576001600160a01b038216600090815260696020526040812081906127ad90612a9361221086612a9f565b6001600160e01b031691506001600160e01b03169150836001600160a01b0316600080516020613c2683398151915283836040516127f5929190918252602082015260400190565b60405180910390a25050505050565b60007f8b73c3c69bb8fe3d512ecc4cf759cc79239f7b179b0ffacaa9a75d522b39400f61282f612deb565b612837612e44565b60408051602081019490945283019190915260608201524660808201523060a082015260c00160405160208183030381529060405280519060200120905090565b60008160000361288a57506000919050565b6000600161289784612e75565b901c6001901b905060018184816128b0576128b061378d565b048201901c905060018184816128c8576128c861378d565b048201901c905060018184816128e0576128e061378d565b048201901c905060018184816128f8576128f861378d565b048201901c905060018184816129105761291061378d565b048201901c905060018184816129285761292861378d565b048201901c905060018184816129405761294061378d565b048201901c905061248e8182858161295a5761295a61378d565b04612f09565b60005b818310156129b65760006129778484612f1f565b60008781526020902090915063ffffffff86169082015463ffffffff1611156129a2578092506129b0565b6129ad8160016137ee565b93505b50612963565b509392505050565b6000612a13826040518060400160405280602081526020017f5361666545524332303a206c6f772d6c6576656c2063616c6c206661696c6564815250856001600160a01b0316612f3a9092919063ffffffff16565b9050805160001480612a34575080806020019051810190612a34919061370f565b610de65760405162461bcd60e51b815260206004820152602a60248201527f5361666545524332303a204552433230206f7065726174696f6e20646964206e6044820152691bdd081cdd58d8d9595960b21b6064820152608401610e70565b600061248e8284613a26565b60006001600160e01b0382111561201f5760405162461bcd60e51b815260206004820152602760248201527f53616665436173743a2076616c756520646f65736e27742066697420696e20326044820152663234206269747360c81b6064820152608401610e70565b600080612b44612b26612b19611686565b65ffffffffffff16611fba565b612b3c612b328861245b565b868863ffffffff16565b879190612f49565b915091505b935093915050565b600061248e8284613a46565b600054610100900460ff16612b845760405162461bcd60e51b8152600401610e70906139c6565b609d612b908382613ab4565b50609e610de68282613ab4565b6000806fa2a8918ca85bafe22016d0b997e4df60600160ff1b03831115612bca5750600090506003612c4e565b6040805160008082526020820180845289905260ff881692820192909252606081018690526080810185905260019060a0016020604051602081039080840390855afa158015612c1e573d6000803e3d6000fd5b5050604051601f1901519150506001600160a01b038116612c4757600060019250925050612c4e565b9150600090505b94509492505050565b6000816004811115612c6b57612c6b613b73565b03612c735750565b6001816004811115612c8757612c87613b73565b03612ccf5760405162461bcd60e51b815260206004820152601860248201527745434453413a20696e76616c6964207369676e617475726560401b6044820152606401610e70565b6002816004811115612ce357612ce3613b73565b03612d305760405162461bcd60e51b815260206004820152601f60248201527f45434453413a20696e76616c6964207369676e6174757265206c656e677468006044820152606401610e70565b6003816004811115612d4457612d44613b73565b036126105760405162461bcd60e51b815260206004820152602260248201527f45434453413a20696e76616c6964207369676e6174757265202773272076616c604482015261756560f01b6064820152608401610e70565b600054610100900460ff16612dc35760405162461bcd60e51b8152600401610e70906139c6565b6035612dcf8382613ab4565b506036612ddc8282613ab4565b50506000603381905560345550565b600080612df66123d6565b805190915015612e0d578051602090910120919050565b6033548015612e1c5792915050565b7fc5d2460186f7233c927e7db2dcc703c0e500b653ca82273b7bfad8045d85a4709250505090565b600080612e4f6123e5565b805190915015612e66578051602090910120919050565b6034548015612e1c5792915050565b600080608083901c15612e8a57608092831c92015b604083901c15612e9c57604092831c92015b602083901c15612eae57602092831c92015b601083901c15612ec057601092831c92015b600883901c15612ed257600892831c92015b600483901c15612ee457600492831c92015b600283901c15612ef657600292831c92015b600183901c156109fe5760010192915050565b6000818310612f18578161248e565b5090919050565b6000612f2e60028484186137a3565b61248e908484166137ee565b60606124e48484600085612f57565b600080612b44858585613027565b606082471015612fb85760405162461bcd60e51b815260206004820152602660248201527f416464726573733a20696e73756666696369656e742062616c616e636520666f6044820152651c8818d85b1b60d21b6064820152608401610e70565b600080866001600160a01b03168587604051612fd49190613b89565b60006040518083038185875af1925050503d8060008114613011576040519150601f19603f3d011682016040523d82523d6000602084013e613016565b606091505b50915091506120cc878383876131c4565b82546000908190801561316b576000613045876120a56001856137db565b60408051808201909152905463ffffffff808216808452600160201b9092046001600160e01b0316602084015291925090871610156130c45760405162461bcd60e51b815260206004820152601b60248201527a436865636b706f696e743a2064656372656173696e67206b65797360281b6044820152606401610e70565b805163ffffffff80881691160361310c57846130e5886120a56001866137db565b80546001600160e01b0392909216600160201b0263ffffffff90921691909117905561315b565b6040805180820190915263ffffffff80881682526001600160e01b0380881660208085019182528b54600181018d5560008d81529190912094519151909216600160201b029216919091179101555b602001519250839150612b499050565b50506040805180820190915263ffffffff80851682526001600160e01b0380851660208085019182528854600181018a5560008a815291822095519251909316600160201b029190931617920191909155905081612b49565b6060831561323157825160000361322a576131de85612396565b61322a5760405162461bcd60e51b815260206004820152601d60248201527f416464726573733a2063616c6c20746f206e6f6e2d636f6e74726163740000006044820152606401610e70565b50816124e4565b6124e483838151156132465781518083602001fd5b8060405162461bcd60e51b8152600401610e70919061334a565b60006020828403121561327257600080fd5b81356001600160e01b03198116811461248e57600080fd5b6001600160a01b038116811461261057600080fd5b801515811461261057600080fd5b600080604083850312156132c057600080fd5b82356132cb8161328a565b915060208301356132db8161329f565b809150509250929050565b6001600160a01b0391909116815260200190565b60005b838110156133155781810151838201526020016132fd565b50506000910152565b600081518084526133368160208601602086016132fa565b601f01601f19169290920160200192915050565b60208152600061248e602083018461331e565b6000806040838503121561337057600080fd5b823561337b8161328a565b946020939093013593505050565b60006020828403121561339b57600080fd5b813561248e8161328a565b600080604083850312156133b957600080fd5b82356133c48161328a565b915060208301356132db8161328a565b6000806000606084860312156133e957600080fd5b83356133f48161328a565b925060208401356134048161328a565b929592945050506040919091013590565b60006020828403121561342757600080fd5b5035919050565b803563ffffffff8116811461344257600080fd5b919050565b60008060006060848603121561345c57600080fd5b83356134678161328a565b925060208401356134778161328a565b91506134856040850161342e565b90509250925092565b60ff60f81b881681526000602060e0818401526134ae60e084018a61331e565b83810360408501526134c0818a61331e565b606085018990526001600160a01b038816608086015260a0850187905284810360c0860152855180825283870192509083019060005b81811015613512578351835292840192918401916001016134f6565b50909c9b505050505050505050505050565b60008060008060008060c0878903121561353d57600080fd5b86356135488161328a565b95506020870135945060408701359350606087013560ff8116811461356c57600080fd5b9598949750929560808101359460a0909101359350915050565b634e487b7160e01b600052604160045260246000fd5b604051601f8201601f191681016001600160401b03811182821017156135c4576135c4613586565b604052919050565b60006001600160401b038211156135e5576135e5613586565b50601f01601f191660200190565b6000806040838503121561360657600080fd5b82356136118161328a565b915060208301356001600160401b0381111561362c57600080fd5b8301601f8101851361363d57600080fd5b803561365061364b826135cc565b61359c565b81815286602083850101111561366557600080fd5b816020840160208301376000602083830101528093505050509250929050565b600080600080600060a0868803121561369d57600080fd5b6136a68661342e565b94506136b46020870161342e565b93506136c26040870161342e565b925060608601356001600160401b03811681146136de57600080fd5b91506136ec6080870161342e565b90509295509295909350565b9182526001600160a01b0316602082015260400190565b60006020828403121561372157600080fd5b815161248e8161329f565b600181811c9082168061374057607f821691505b60208210810361250e57634e487b7160e01b600052602260045260246000fd5b634e487b7160e01b600052601160045260246000fd5b80820281158282048414176109fe576109fe613760565b634e487b7160e01b600052601260045260246000fd5b6000826137b2576137b261378d565b500490565b63ffffffff8181168382160190808211156137d4576137d4613760565b5092915050565b818103818111156109fe576109fe613760565b808201808211156109fe576109fe613760565b6020808252601490820152730566f7465733a20667574757265206c6f6f6b75760641b604082015260600190565b6001600160a01b03929092168252602082015260400190565b6020808252602e908201527f496e697469616c697a61626c653a20636f6e747261637420697320616c72656160408201526d191e481a5b9a5d1a585b1a5e995960921b606082015260800190565b6000602082840312156138a857600080fd5b81516001600160401b038111156138be57600080fd5b8201601f810184136138cf57600080fd5b80516138dd61364b826135cc565b8181528560208385010111156138f257600080fd5b610d358260208301602086016132fa565b61766560f01b8152600082516139208160028501602087016132fa565b9190910160020192915050565b6c03b37ba32b21032b9b1b937bb9609d1b81526000825161395581600d8501602087016132fa565b91909101600d0192915050565b60006020828403121561397457600080fd5b5051919050565b600063ffffffff808416806139925761399261378d565b92169190910492915050565b63ffffffff8181168382160280821691908281146139be576139be613760565b505092915050565b6020808252602b908201527f496e697469616c697a61626c653a20636f6e7472616374206973206e6f74206960408201526a6e697469616c697a696e6760a81b606082015260800190565b6001600160e01b031991909116815260200190565b6001600160e01b038181168382160190808211156137d4576137d4613760565b6001600160e01b038281168282160390808211156137d4576137d4613760565b601f821115610de657600081815260208120601f850160051c81016020861015613a8d5750805b601f850160051c820191505b81811015613aac57828155600101613a99565b505050505050565b81516001600160401b03811115613acd57613acd613586565b613ae181613adb845461372c565b84613a66565b602080601f831160018114613b165760008415613afe5750858301515b600019600386901b1c1916600185901b178555613aac565b600085815260208120601f198616915b82811015613b4557888601518255948401946001909101908401613b26565b5085821015613b635787850151600019600388901b60f8161c191681555b5050505050600190811b01905550565b634e487b7160e01b600052602160045260246000fd5b60008251613b9b8184602087016132fa565b919091019291505056fe3b5d4cc60d3ec3516ee8ae083bd60934f6eb2a6c54b1229985c41bfb092b26035719df9ef2c4678b547f89e4f5ae410dbf400fc51cf3ded434c55f6adea2c43f7f26b83ff96e1f2b6a682f133852f6798a09c465da95921460cefb3847402498ddf252ad1be2c89b69c2b068fc378daa952ba7f163c4a11628f55a4df523b3efdec2bacdd2f05b59de34da9b523dff8be42e5e38e818c82fdb0bae774387a724a26469706673582212201a491a2f08d042a296d4c694bbaa6e0da043bd5739ef950d724f9cb12b7d9be964736f6c63430008110033",
  "devdoc": {
    "kind": "dev",
    "methods": {
      "CLOCK_MODE()": {
        "details": "Machine-readable description of the clock as specified in EIP-6372."
      },
      "DOMAIN_SEPARATOR()": {
        "details": "Returns the contract's {EIP712} domain separator."
      },
      "allowance(address,address)": {
        "details": "See {IERC20-allowance}."
      },
      "approve(address,uint256)": {
        "details": "See {IERC20-approve}. NOTE: If `amount` is the maximum `uint256`, the allowance is not updated on `transferFrom`. This is semantically equivalent to an infinite approval. Requirements: - `spender` cannot be the zero address."
      },
      "balanceOf(address)": {
        "details": "See {IERC20-balanceOf}."
      },
      "burn(uint256)": {
        "details": "it's possible to burn veERC20 token, but the underlying token should be burn as well. Statistics, such is amount of already withdrawn stay the same"
      },
      "clock()": {
        "details": "Clock used for flagging checkpoints. Can be overridden to implement timestamp based checkpoints (and voting), in which case {CLOCK_MODE} should be overridden as well to match."
      },
      "decimals()": {
        "details": "Returns the number of decimals used to get its user representation. For example, if `decimals` equals `2`, a balance of `505` tokens should be displayed to a user as `5.05` (`505 / 10 ** 2`). Tokens usually opt for a value of 18, imitating the relationship between Ether and Wei. This is the default value returned by this function, unless it's overridden. NOTE: This information is only used for _display_ purposes: it in no way affects any of the arithmetic of the contract, including {IERC20-balanceOf} and {IERC20-transfer}."
      },
      "decreaseAllowance(address,uint256)": {
        "details": "Atomically decreases the allowance granted to `spender` by the caller. This is an alternative to {approve} that can be used as a mitigation for problems described in {IERC20-approve}. Emits an {Approval} event indicating the updated allowance. Requirements: - `spender` cannot be the zero address. - `spender` must have allowance for the caller of at least `subtractedValue`."
      },
      "delegate(address)": {
        "details": "Delegates votes from the sender to `delegatee`. It's DEPRECATED. Only contracts with SYSTEM_ROLE can call delegateOnBehalf(). (like VotingPower that has complex logic to work with SuVoteToken-like tokens)"
      },
      "delegateBySig(address,uint256,uint256,uint8,bytes32,bytes32)": {
        "details": "Delegates votes from signer to `delegatee`."
      },
      "delegateOnBehalf(address,address)": {
        "details": "Delegates votes from the account to `delegatee`."
      },
      "delegates(address)": {
        "details": "Returns the delegate that `account` has chosen."
      },
      "eip712Domain()": {
        "details": "See {EIP-5267}. _Available since v4.9._"
      },
      "getPastTotalSupply(uint256)": {
        "details": "Returns the total supply of votes available at a specific moment in the past. If the `clock()` is configured to use block numbers, this will return the value at the end of the corresponding block. NOTE: This value is the sum of all available votes, which is not necessarily the sum of all delegated votes. Votes that have not been delegated are still part of total supply, even though they would not participate in a vote. Requirements: - `timepoint` must be in the past. If operating using block numbers, the block must be already mined."
      },
      "getPastVotes(address,uint256)": {
        "details": "Returns the amount of votes that `account` had at a specific moment in the past. If the `clock()` is configured to use block numbers, this will return the value at the end of the corresponding block. Requirements: - `timepoint` must be in the past. If operating using block numbers, the block must be already mined."
      },
      "getVotes(address)": {
        "details": "Returns the current amount of votes that `account` has."
      },
      "increaseAllowance(address,uint256)": {
        "details": "Atomically increases the allowance granted to `spender` by the caller. This is an alternative to {approve} that can be used as a mitigation for problems described in {IERC20-approve}. Emits an {Approval} event indicating the updated allowance. Requirements: - `spender` cannot be the zero address."
      },
      "lockUnderVesting(address,uint256)": {
        "params": {
          "account": "Beneficiary of the vesting account.",
          "amount": "Amount of tokens to be send, which will be deducted from msg.sender."
        }
      },
      "name()": {
        "details": "Returns the name of the token."
      },
      "nonces(address)": {
        "details": "Returns an address nonce."
      },
      "symbol()": {
        "details": "Returns the symbol of the token, usually a shorter version of the name."
      },
      "totalSupply()": {
        "details": "See {IERC20-totalSupply}."
      },
      "transfer(address,uint256)": {
        "details": "See {IERC20-transfer}. Requirements: - `to` cannot be the zero address. - the caller must have a balance of at least `amount`."
      },
      "transferFrom(address,address,uint256)": {
        "details": "See {IERC20-transferFrom}. Emits an {Approval} event indicating the updated allowance. This is not required by the EIP. See the note at the beginning of {ERC20}. NOTE: Does not update the allowance if the current allowance is the maximum `uint256`. Requirements: - `from` and `to` cannot be the zero address. - `from` must have a balance of at least `amount`. - the caller must have allowance for ``from``'s tokens of at least `amount`."
      }
    },
    "stateVariables": {
      "__gap": {
        "details": "This empty reserved space is put in place to allow future versions to add new variables without shifting down storage in the inheritance chain. See https://docs.openzeppelin.com/contracts/4.x/upgradeable#storage_gaps"
      }
    },
    "version": 1
  },
  "userdoc": {
    "kind": "user",
    "methods": {
      "lockUnderVesting(address,uint256)": {
        "notice": "Creates an account with time-vesting for the user and withdraws these tokens from msg.sender."
      }
    },
    "version": 1
  },
  "storageLayout": {
    "storage": [
      {
        "astId": 1504,
        "contract": "contracts/vested-escrow/VeERC20v2.sol:VeERC20v2",
        "label": "_initialized",
        "offset": 0,
        "slot": "0",
        "type": "t_uint8"
      },
      {
        "astId": 1507,
        "contract": "contracts/vested-escrow/VeERC20v2.sol:VeERC20v2",
        "label": "_initializing",
        "offset": 1,
        "slot": "0",
        "type": "t_bool"
      },
      {
        "astId": 8655,
        "contract": "contracts/vested-escrow/VeERC20v2.sol:VeERC20v2",
        "label": "__gap",
        "offset": 0,
        "slot": "1",
        "type": "t_array(t_uint256)50_storage"
      },
      {
        "astId": 9343,
        "contract": "contracts/vested-escrow/VeERC20v2.sol:VeERC20v2",
        "label": "_hashedName",
        "offset": 0,
        "slot": "51",
        "type": "t_bytes32"
      },
      {
        "astId": 9346,
        "contract": "contracts/vested-escrow/VeERC20v2.sol:VeERC20v2",
        "label": "_hashedVersion",
        "offset": 0,
        "slot": "52",
        "type": "t_bytes32"
      },
      {
        "astId": 9348,
        "contract": "contracts/vested-escrow/VeERC20v2.sol:VeERC20v2",
        "label": "_name",
        "offset": 0,
        "slot": "53",
        "type": "t_string_storage"
      },
      {
        "astId": 9350,
        "contract": "contracts/vested-escrow/VeERC20v2.sol:VeERC20v2",
        "label": "_version",
        "offset": 0,
        "slot": "54",
        "type": "t_string_storage"
      },
      {
        "astId": 9608,
        "contract": "contracts/vested-escrow/VeERC20v2.sol:VeERC20v2",
        "label": "__gap",
        "offset": 0,
        "slot": "55",
        "type": "t_array(t_uint256)48_storage"
      },
      {
        "astId": 54219,
        "contract": "contracts/vested-escrow/VeERC20v2.sol:VeERC20v2",
        "label": "ACCESS_CONTROL_SINGLETON",
        "offset": 0,
        "slot": "103",
        "type": "t_contract(ISuAccessControl)58034"
      },
      {
        "astId": 920,
        "contract": "contracts/vested-escrow/VeERC20v2.sol:VeERC20v2",
        "label": "_delegation",
        "offset": 0,
        "slot": "104",
        "type": "t_mapping(t_address,t_address)"
      },
      {
        "astId": 926,
        "contract": "contracts/vested-escrow/VeERC20v2.sol:VeERC20v2",
        "label": "_delegateCheckpoints",
        "offset": 0,
        "slot": "105",
        "type": "t_mapping(t_address,t_struct(Trace224)7614_storage)"
      },
      {
        "astId": 930,
        "contract": "contracts/vested-escrow/VeERC20v2.sol:VeERC20v2",
        "label": "_totalCheckpoints",
        "offset": 0,
        "slot": "106",
        "type": "t_struct(Trace224)7614_storage"
      },
      {
        "astId": 935,
        "contract": "contracts/vested-escrow/VeERC20v2.sol:VeERC20v2",
        "label": "_nonces",
        "offset": 0,
        "slot": "107",
        "type": "t_mapping(t_address,t_struct(Counter)8662_storage)"
      },
      {
        "astId": 1444,
        "contract": "contracts/vested-escrow/VeERC20v2.sol:VeERC20v2",
        "label": "__gap",
        "offset": 0,
        "slot": "108",
        "type": "t_array(t_uint256)46_storage"
      },
      {
        "astId": 3108,
        "contract": "contracts/vested-escrow/VeERC20v2.sol:VeERC20v2",
        "label": "_balances",
        "offset": 0,
        "slot": "154",
        "type": "t_mapping(t_address,t_uint256)"
      },
      {
        "astId": 3114,
        "contract": "contracts/vested-escrow/VeERC20v2.sol:VeERC20v2",
        "label": "_allowances",
        "offset": 0,
        "slot": "155",
        "type": "t_mapping(t_address,t_mapping(t_address,t_uint256))"
      },
      {
        "astId": 3116,
        "contract": "contracts/vested-escrow/VeERC20v2.sol:VeERC20v2",
        "label": "_totalSupply",
        "offset": 0,
        "slot": "156",
        "type": "t_uint256"
      },
      {
        "astId": 3118,
        "contract": "contracts/vested-escrow/VeERC20v2.sol:VeERC20v2",
        "label": "_name",
        "offset": 0,
        "slot": "157",
        "type": "t_string_storage"
      },
      {
        "astId": 3120,
        "contract": "contracts/vested-escrow/VeERC20v2.sol:VeERC20v2",
        "label": "_symbol",
        "offset": 0,
        "slot": "158",
        "type": "t_string_storage"
      },
      {
        "astId": 3700,
        "contract": "contracts/vested-escrow/VeERC20v2.sol:VeERC20v2",
        "label": "__gap",
        "offset": 0,
        "slot": "159",
        "type": "t_array(t_uint256)45_storage"
      },
      {
        "astId": 64258,
        "contract": "contracts/vested-escrow/VeERC20v2.sol:VeERC20v2",
        "label": "LOCKED_TOKEN",
        "offset": 0,
        "slot": "204",
        "type": "t_contract(ERC20BurnableUpgradeable)3843"
      },
      {
        "astId": 64260,
        "contract": "contracts/vested-escrow/VeERC20v2.sol:VeERC20v2",
        "label": "tgeTimestamp",
        "offset": 20,
        "slot": "204",
        "type": "t_uint32"
      },
      {
        "astId": 64262,
        "contract": "contracts/vested-escrow/VeERC20v2.sol:VeERC20v2",
        "label": "tgeUnlockRatio1e18",
        "offset": 24,
        "slot": "204",
        "type": "t_uint64"
      },
      {
        "astId": 64264,
        "contract": "contracts/vested-escrow/VeERC20v2.sol:VeERC20v2",
        "label": "cliffSeconds",
        "offset": 0,
        "slot": "205",
        "type": "t_uint32"
      },
      {
        "astId": 64266,
        "contract": "contracts/vested-escrow/VeERC20v2.sol:VeERC20v2",
        "label": "vestingSeconds",
        "offset": 4,
        "slot": "205",
        "type": "t_uint32"
      },
      {
        "astId": 64268,
        "contract": "contracts/vested-escrow/VeERC20v2.sol:VeERC20v2",
        "label": "vestingFrequencySeconds",
        "offset": 8,
        "slot": "205",
        "type": "t_uint32"
      },
      {
        "astId": 64272,
        "contract": "contracts/vested-escrow/VeERC20v2.sol:VeERC20v2",
        "label": "alreadyWithdrawn",
        "offset": 0,
        "slot": "206",
        "type": "t_mapping(t_address,t_uint256)"
      },
      {
        "astId": 64276,
        "contract": "contracts/vested-escrow/VeERC20v2.sol:VeERC20v2",
        "label": "isTransferable",
        "offset": 0,
        "slot": "207",
        "type": "t_mapping(t_address,t_bool)"
      },
      {
        "astId": 64855,
        "contract": "contracts/vested-escrow/VeERC20v2.sol:VeERC20v2",
        "label": "__gap",
        "offset": 0,
        "slot": "208",
        "type": "t_array(t_uint256)49_storage"
      }
    ],
    "types": {
      "t_address": {
        "encoding": "inplace",
        "label": "address",
        "numberOfBytes": "20"
      },
      "t_array(t_struct(Checkpoint224)7619_storage)dyn_storage": {
        "base": "t_struct(Checkpoint224)7619_storage",
        "encoding": "dynamic_array",
        "label": "struct CheckpointsUpgradeable.Checkpoint224[]",
        "numberOfBytes": "32"
      },
      "t_array(t_uint256)45_storage": {
        "base": "t_uint256",
        "encoding": "inplace",
        "label": "uint256[45]",
        "numberOfBytes": "1440"
      },
      "t_array(t_uint256)46_storage": {
        "base": "t_uint256",
        "encoding": "inplace",
        "label": "uint256[46]",
        "numberOfBytes": "1472"
      },
      "t_array(t_uint256)48_storage": {
        "base": "t_uint256",
        "encoding": "inplace",
        "label": "uint256[48]",
        "numberOfBytes": "1536"
      },
      "t_array(t_uint256)49_storage": {
        "base": "t_uint256",
        "encoding": "inplace",
        "label": "uint256[49]",
        "numberOfBytes": "1568"
      },
      "t_array(t_uint256)50_storage": {
        "base": "t_uint256",
        "encoding": "inplace",
        "label": "uint256[50]",
        "numberOfBytes": "1600"
      },
      "t_bool": {
        "encoding": "inplace",
        "label": "bool",
        "numberOfBytes": "1"
      },
      "t_bytes32": {
        "encoding": "inplace",
        "label": "bytes32",
        "numberOfBytes": "32"
      },
      "t_contract(ERC20BurnableUpgradeable)3843": {
        "encoding": "inplace",
        "label": "contract ERC20BurnableUpgradeable",
        "numberOfBytes": "20"
      },
      "t_contract(ISuAccessControl)58034": {
        "encoding": "inplace",
        "label": "contract ISuAccessControl",
        "numberOfBytes": "20"
      },
      "t_mapping(t_address,t_address)": {
        "encoding": "mapping",
        "key": "t_address",
        "label": "mapping(address => address)",
        "numberOfBytes": "32",
        "value": "t_address"
      },
      "t_mapping(t_address,t_bool)": {
        "encoding": "mapping",
        "key": "t_address",
        "label": "mapping(address => bool)",
        "numberOfBytes": "32",
        "value": "t_bool"
      },
      "t_mapping(t_address,t_mapping(t_address,t_uint256))": {
        "encoding": "mapping",
        "key": "t_address",
        "label": "mapping(address => mapping(address => uint256))",
        "numberOfBytes": "32",
        "value": "t_mapping(t_address,t_uint256)"
      },
      "t_mapping(t_address,t_struct(Counter)8662_storage)": {
        "encoding": "mapping",
        "key": "t_address",
        "label": "mapping(address => struct CountersUpgradeable.Counter)",
        "numberOfBytes": "32",
        "value": "t_struct(Counter)8662_storage"
      },
      "t_mapping(t_address,t_struct(Trace224)7614_storage)": {
        "encoding": "mapping",
        "key": "t_address",
        "label": "mapping(address => struct CheckpointsUpgradeable.Trace224)",
        "numberOfBytes": "32",
        "value": "t_struct(Trace224)7614_storage"
      },
      "t_mapping(t_address,t_uint256)": {
        "encoding": "mapping",
        "key": "t_address",
        "label": "mapping(address => uint256)",
        "numberOfBytes": "32",
        "value": "t_uint256"
      },
      "t_string_storage": {
        "encoding": "bytes",
        "label": "string",
        "numberOfBytes": "32"
      },
      "t_struct(Checkpoint224)7619_storage": {
        "encoding": "inplace",
        "label": "struct CheckpointsUpgradeable.Checkpoint224",
        "members": [
          {
            "astId": 7616,
            "contract": "contracts/vested-escrow/VeERC20v2.sol:VeERC20v2",
            "label": "_key",
            "offset": 0,
            "slot": "0",
            "type": "t_uint32"
          },
          {
            "astId": 7618,
            "contract": "contracts/vested-escrow/VeERC20v2.sol:VeERC20v2",
            "label": "_value",
            "offset": 4,
            "slot": "0",
            "type": "t_uint224"
          }
        ],
        "numberOfBytes": "32"
      },
      "t_struct(Counter)8662_storage": {
        "encoding": "inplace",
        "label": "struct CountersUpgradeable.Counter",
        "members": [
          {
            "astId": 8661,
            "contract": "contracts/vested-escrow/VeERC20v2.sol:VeERC20v2",
            "label": "_value",
            "offset": 0,
            "slot": "0",
            "type": "t_uint256"
          }
        ],
        "numberOfBytes": "32"
      },
      "t_struct(Trace224)7614_storage": {
        "encoding": "inplace",
        "label": "struct CheckpointsUpgradeable.Trace224",
        "members": [
          {
            "astId": 7613,
            "contract": "contracts/vested-escrow/VeERC20v2.sol:VeERC20v2",
            "label": "_checkpoints",
            "offset": 0,
            "slot": "0",
            "type": "t_array(t_struct(Checkpoint224)7619_storage)dyn_storage"
          }
        ],
        "numberOfBytes": "32"
      },
      "t_uint224": {
        "encoding": "inplace",
        "label": "uint224",
        "numberOfBytes": "28"
      },
      "t_uint256": {
        "encoding": "inplace",
        "label": "uint256",
        "numberOfBytes": "32"
      },
      "t_uint32": {
        "encoding": "inplace",
        "label": "uint32",
        "numberOfBytes": "4"
      },
      "t_uint64": {
        "encoding": "inplace",
        "label": "uint64",
        "numberOfBytes": "8"
      },
      "t_uint8": {
        "encoding": "inplace",
        "label": "uint8",
        "numberOfBytes": "1"
      }
    }
  }
}