{
  "address": "0x8339c0269171F9D1bDBfa61eA424F8d4a98f2Fd8",
  "abi": [
    {
      "inputs": [],
      "name": "BadAccessControlSingleton",
      "type": "error"
    },
    {
      "inputs": [],
      "name": "ClaimZeroError",
      "type": "error"
    },
    {
      "inputs": [],
      "name": "OnlyAdminError",
      "type": "error"
    },
    {
      "inputs": [],
      "name": "OnlyAlerterError",
      "type": "error"
    },
    {
      "inputs": [],
      "name": "OnlyDAOError",
      "type": "error"
    },
    {
      "inputs": [],
      "name": "OnlyLiquidationAccessError",
      "type": "error"
    },
    {
      "inputs": [],
      "name": "OnlyMintAccessError",
      "type": "error"
    },
    {
      "inputs": [],
      "name": "OnlyRewardAccessError",
      "type": "error"
    },
    {
      "inputs": [],
      "name": "OnlyRoleError",
      "type": "error"
    },
    {
      "inputs": [],
      "name": "OnlyVaultAccessError",
      "type": "error"
    },
    {
      "inputs": [],
      "name": "TGEBeyondLimitError",
      "type": "error"
    },
    {
      "inputs": [],
      "name": "TGEInPastError",
      "type": "error"
    },
    {
      "inputs": [],
      "name": "UnavailableFunctionalityError",
      "type": "error"
    },
    {
      "anonymous": false,
      "inputs": [
        {
          "indexed": true,
          "internalType": "address",
          "name": "owner",
          "type": "address"
        },
        {
          "indexed": true,
          "internalType": "address",
          "name": "spender",
          "type": "address"
        },
        {
          "indexed": false,
          "internalType": "uint256",
          "name": "value",
          "type": "uint256"
        }
      ],
      "name": "Approval",
      "type": "event"
    },
    {
      "anonymous": false,
      "inputs": [
        {
          "indexed": true,
          "internalType": "address",
          "name": "delegator",
          "type": "address"
        },
        {
          "indexed": true,
          "internalType": "address",
          "name": "fromDelegate",
          "type": "address"
        },
        {
          "indexed": true,
          "internalType": "address",
          "name": "toDelegate",
          "type": "address"
        }
      ],
      "name": "DelegateChanged",
      "type": "event"
    },
    {
      "anonymous": false,
      "inputs": [
        {
          "indexed": true,
          "internalType": "address",
          "name": "delegate",
          "type": "address"
        },
        {
          "indexed": false,
          "internalType": "uint256",
          "name": "previousBalance",
          "type": "uint256"
        },
        {
          "indexed": false,
          "internalType": "uint256",
          "name": "newBalance",
          "type": "uint256"
        }
      ],
      "name": "DelegateVotesChanged",
      "type": "event"
    },
    {
      "anonymous": false,
      "inputs": [],
      "name": "EIP712DomainChanged",
      "type": "event"
    },
    {
      "anonymous": false,
      "inputs": [
        {
          "indexed": false,
          "internalType": "uint8",
          "name": "version",
          "type": "uint8"
        }
      ],
      "name": "Initialized",
      "type": "event"
    },
    {
      "anonymous": false,
      "inputs": [
        {
          "indexed": true,
          "internalType": "address",
          "name": "from",
          "type": "address"
        },
        {
          "indexed": true,
          "internalType": "address",
          "name": "to",
          "type": "address"
        },
        {
          "indexed": false,
          "internalType": "uint256",
          "name": "value",
          "type": "uint256"
        }
      ],
      "name": "Transfer",
      "type": "event"
    },
    {
      "inputs": [],
      "name": "ACCESS_CONTROL_SINGLETON",
      "outputs": [
        {
          "internalType": "contract ISuAccessControl",
          "name": "",
          "type": "address"
        }
      ],
      "stateMutability": "view",
      "type": "function"
    },
    {
      "inputs": [],
      "name": "ADMIN_ROLE",
      "outputs": [
        {
          "internalType": "bytes32",
          "name": "",
          "type": "bytes32"
        }
      ],
      "stateMutability": "view",
      "type": "function"
    },
    {
      "inputs": [],
      "name": "ALERTER_ROLE",
      "outputs": [
        {
          "internalType": "bytes32",
          "name": "",
          "type": "bytes32"
        }
      ],
      "stateMutability": "view",
      "type": "function"
    },
    {
      "inputs": [],
      "name": "CLOCK_MODE",
      "outputs": [
        {
          "internalType": "string",
          "name": "",
          "type": "string"
        }
      ],
      "stateMutability": "view",
      "type": "function"
    },
    {
      "inputs": [],
      "name": "DAO_ROLE",
      "outputs": [
        {
          "internalType": "bytes32",
          "name": "",
          "type": "bytes32"
        }
      ],
      "stateMutability": "view",
      "type": "function"
    },
    {
      "inputs": [],
      "name": "DOMAIN_SEPARATOR",
      "outputs": [
        {
          "internalType": "bytes32",
          "name": "",
          "type": "bytes32"
        }
      ],
      "stateMutability": "view",
      "type": "function"
    },
    {
      "inputs": [],
      "name": "LIQUIDATION_ACCESS_ROLE",
      "outputs": [
        {
          "internalType": "bytes32",
          "name": "",
          "type": "bytes32"
        }
      ],
      "stateMutability": "view",
      "type": "function"
    },
    {
      "inputs": [],
      "name": "LOCKED_TOKEN",
      "outputs": [
        {
          "internalType": "contract ERC20Upgradeable",
          "name": "",
          "type": "address"
        }
      ],
      "stateMutability": "view",
      "type": "function"
    },
    {
      "inputs": [],
      "name": "MINT_ACCESS_ROLE",
      "outputs": [
        {
          "internalType": "bytes32",
          "name": "",
          "type": "bytes32"
        }
      ],
      "stateMutability": "view",
      "type": "function"
    },
    {
      "inputs": [],
      "name": "REWARD_ACCESS_ROLE",
      "outputs": [
        {
          "internalType": "bytes32",
          "name": "",
          "type": "bytes32"
        }
      ],
      "stateMutability": "view",
      "type": "function"
    },
    {
      "inputs": [],
      "name": "SYSTEM_ROLE",
      "outputs": [
        {
          "internalType": "bytes32",
          "name": "",
          "type": "bytes32"
        }
      ],
      "stateMutability": "view",
      "type": "function"
    },
    {
      "inputs": [],
      "name": "TGE_MAX_TIMESTAMP",
      "outputs": [
        {
          "internalType": "uint32",
          "name": "",
          "type": "uint32"
        }
      ],
      "stateMutability": "view",
      "type": "function"
    },
    {
      "inputs": [],
      "name": "VAULT_ACCESS_ROLE",
      "outputs": [
        {
          "internalType": "bytes32",
          "name": "",
          "type": "bytes32"
        }
      ],
      "stateMutability": "view",
      "type": "function"
    },
    {
      "inputs": [
        {
          "internalType": "address",
          "name": "_accessControlSingleton",
          "type": "address"
        },
        {
          "internalType": "string",
          "name": "_name",
          "type": "string"
        }
      ],
      "name": "__SuVoteToken__init",
      "outputs": [],
      "stateMutability": "nonpayable",
      "type": "function"
    },
    {
      "inputs": [
        {
          "internalType": "address",
          "name": "account",
          "type": "address"
        },
        {
          "internalType": "uint256",
          "name": "amount",
          "type": "uint256"
        }
      ],
      "name": "addBalance",
      "outputs": [],
      "stateMutability": "nonpayable",
      "type": "function"
    },
    {
      "inputs": [
        {
          "internalType": "address",
          "name": "owner",
          "type": "address"
        },
        {
          "internalType": "address",
          "name": "spender",
          "type": "address"
        }
      ],
      "name": "allowance",
      "outputs": [
        {
          "internalType": "uint256",
          "name": "",
          "type": "uint256"
        }
      ],
      "stateMutability": "view",
      "type": "function"
    },
    {
      "inputs": [
        {
          "internalType": "address",
          "name": "spender",
          "type": "address"
        },
        {
          "internalType": "uint256",
          "name": "amount",
          "type": "uint256"
        }
      ],
      "name": "approve",
      "outputs": [
        {
          "internalType": "bool",
          "name": "",
          "type": "bool"
        }
      ],
      "stateMutability": "nonpayable",
      "type": "function"
    },
    {
      "inputs": [
        {
          "internalType": "address",
          "name": "user",
          "type": "address"
        }
      ],
      "name": "availableToClaim",
      "outputs": [
        {
          "internalType": "uint256",
          "name": "",
          "type": "uint256"
        }
      ],
      "stateMutability": "view",
      "type": "function"
    },
    {
      "inputs": [
        {
          "internalType": "address",
          "name": "account",
          "type": "address"
        }
      ],
      "name": "balanceOf",
      "outputs": [
        {
          "internalType": "uint256",
          "name": "",
          "type": "uint256"
        }
      ],
      "stateMutability": "view",
      "type": "function"
    },
    {
      "inputs": [
        {
          "internalType": "uint256",
          "name": "amount",
          "type": "uint256"
        }
      ],
      "name": "burn",
      "outputs": [],
      "stateMutability": "nonpayable",
      "type": "function"
    },
    {
      "inputs": [],
      "name": "burnAll",
      "outputs": [],
      "stateMutability": "nonpayable",
      "type": "function"
    },
    {
      "inputs": [
        {
          "internalType": "address",
          "name": "account",
          "type": "address"
        },
        {
          "internalType": "uint256",
          "name": "amount",
          "type": "uint256"
        }
      ],
      "name": "burnFrom",
      "outputs": [],
      "stateMutability": "nonpayable",
      "type": "function"
    },
    {
      "inputs": [],
      "name": "claim",
      "outputs": [],
      "stateMutability": "nonpayable",
      "type": "function"
    },
    {
      "inputs": [],
      "name": "clock",
      "outputs": [
        {
          "internalType": "uint48",
          "name": "",
          "type": "uint48"
        }
      ],
      "stateMutability": "view",
      "type": "function"
    },
    {
      "inputs": [],
      "name": "decimals",
      "outputs": [
        {
          "internalType": "uint8",
          "name": "",
          "type": "uint8"
        }
      ],
      "stateMutability": "view",
      "type": "function"
    },
    {
      "inputs": [
        {
          "internalType": "address",
          "name": "spender",
          "type": "address"
        },
        {
          "internalType": "uint256",
          "name": "subtractedValue",
          "type": "uint256"
        }
      ],
      "name": "decreaseAllowance",
      "outputs": [
        {
          "internalType": "bool",
          "name": "",
          "type": "bool"
        }
      ],
      "stateMutability": "nonpayable",
      "type": "function"
    },
    {
      "inputs": [
        {
          "internalType": "address",
          "name": "",
          "type": "address"
        }
      ],
      "name": "delegate",
      "outputs": [],
      "stateMutability": "nonpayable",
      "type": "function"
    },
    {
      "inputs": [
        {
          "internalType": "address",
          "name": "delegatee",
          "type": "address"
        },
        {
          "internalType": "uint256",
          "name": "nonce",
          "type": "uint256"
        },
        {
          "internalType": "uint256",
          "name": "expiry",
          "type": "uint256"
        },
        {
          "internalType": "uint8",
          "name": "v",
          "type": "uint8"
        },
        {
          "internalType": "bytes32",
          "name": "r",
          "type": "bytes32"
        },
        {
          "internalType": "bytes32",
          "name": "s",
          "type": "bytes32"
        }
      ],
      "name": "delegateBySig",
      "outputs": [],
      "stateMutability": "nonpayable",
      "type": "function"
    },
    {
      "inputs": [
        {
          "internalType": "address",
          "name": "account",
          "type": "address"
        },
        {
          "internalType": "address",
          "name": "delegatee",
          "type": "address"
        }
      ],
      "name": "delegateOnBehalf",
      "outputs": [],
      "stateMutability": "nonpayable",
      "type": "function"
    },
    {
      "inputs": [
        {
          "internalType": "address",
          "name": "account",
          "type": "address"
        }
      ],
      "name": "delegates",
      "outputs": [
        {
          "internalType": "address",
          "name": "",
          "type": "address"
        }
      ],
      "stateMutability": "view",
      "type": "function"
    },
    {
      "inputs": [
        {
          "internalType": "address",
          "name": "toDAO",
          "type": "address"
        }
      ],
      "name": "donateTokens",
      "outputs": [],
      "stateMutability": "nonpayable",
      "type": "function"
    },
    {
      "inputs": [],
      "name": "eip712Domain",
      "outputs": [
        {
          "internalType": "bytes1",
          "name": "fields",
          "type": "bytes1"
        },
        {
          "internalType": "string",
          "name": "name",
          "type": "string"
        },
        {
          "internalType": "string",
          "name": "version",
          "type": "string"
        },
        {
          "internalType": "uint256",
          "name": "chainId",
          "type": "uint256"
        },
        {
          "internalType": "address",
          "name": "verifyingContract",
          "type": "address"
        },
        {
          "internalType": "bytes32",
          "name": "salt",
          "type": "bytes32"
        },
        {
          "internalType": "uint256[]",
          "name": "extensions",
          "type": "uint256[]"
        }
      ],
      "stateMutability": "view",
      "type": "function"
    },
    {
      "inputs": [
        {
          "internalType": "uint256",
          "name": "timepoint",
          "type": "uint256"
        }
      ],
      "name": "getPastTotalSupply",
      "outputs": [
        {
          "internalType": "uint256",
          "name": "",
          "type": "uint256"
        }
      ],
      "stateMutability": "view",
      "type": "function"
    },
    {
      "inputs": [
        {
          "internalType": "address",
          "name": "account",
          "type": "address"
        },
        {
          "internalType": "uint256",
          "name": "timepoint",
          "type": "uint256"
        }
      ],
      "name": "getPastVotes",
      "outputs": [
        {
          "internalType": "uint256",
          "name": "",
          "type": "uint256"
        }
      ],
      "stateMutability": "view",
      "type": "function"
    },
    {
      "inputs": [],
      "name": "getTotalSupply",
      "outputs": [
        {
          "internalType": "uint256",
          "name": "",
          "type": "uint256"
        }
      ],
      "stateMutability": "view",
      "type": "function"
    },
    {
      "inputs": [
        {
          "internalType": "address",
          "name": "account",
          "type": "address"
        }
      ],
      "name": "getVotes",
      "outputs": [
        {
          "internalType": "uint256",
          "name": "",
          "type": "uint256"
        }
      ],
      "stateMutability": "view",
      "type": "function"
    },
    {
      "inputs": [
        {
          "internalType": "address",
          "name": "spender",
          "type": "address"
        },
        {
          "internalType": "uint256",
          "name": "addedValue",
          "type": "uint256"
        }
      ],
      "name": "increaseAllowance",
      "outputs": [
        {
          "internalType": "bool",
          "name": "",
          "type": "bool"
        }
      ],
      "stateMutability": "nonpayable",
      "type": "function"
    },
    {
      "inputs": [
        {
          "internalType": "address",
          "name": "_accessControlSingleton",
          "type": "address"
        },
        {
          "internalType": "contract ERC20Upgradeable",
          "name": "_lockedToken",
          "type": "address"
        },
        {
          "internalType": "uint32",
          "name": "maxTgeTimestamp",
          "type": "uint32"
        }
      ],
      "name": "initialize",
      "outputs": [],
      "stateMutability": "nonpayable",
      "type": "function"
    },
    {
      "inputs": [
        {
          "internalType": "address",
          "name": "account",
          "type": "address"
        },
        {
          "internalType": "uint256",
          "name": "amount",
          "type": "uint256"
        },
        {
          "internalType": "uint256",
          "name": "vestingSeconds",
          "type": "uint256"
        },
        {
          "internalType": "uint256",
          "name": "cliffSeconds",
          "type": "uint256"
        },
        {
          "internalType": "uint256",
          "name": "tgeUnlockRatio1e18",
          "type": "uint256"
        },
        {
          "internalType": "uint256",
          "name": "vestingFrequencySeconds",
          "type": "uint256"
        }
      ],
      "name": "lockUnderVesting",
      "outputs": [],
      "stateMutability": "nonpayable",
      "type": "function"
    },
    {
      "inputs": [],
      "name": "name",
      "outputs": [
        {
          "internalType": "string",
          "name": "",
          "type": "string"
        }
      ],
      "stateMutability": "view",
      "type": "function"
    },
    {
      "inputs": [
        {
          "internalType": "address",
          "name": "owner",
          "type": "address"
        }
      ],
      "name": "nonces",
      "outputs": [
        {
          "internalType": "uint256",
          "name": "",
          "type": "uint256"
        }
      ],
      "stateMutability": "view",
      "type": "function"
    },
    {
      "inputs": [
        {
          "internalType": "contract ERC20Upgradeable",
          "name": "token",
          "type": "address"
        }
      ],
      "name": "rescue",
      "outputs": [],
      "stateMutability": "nonpayable",
      "type": "function"
    },
    {
      "inputs": [
        {
          "internalType": "bytes4",
          "name": "interfaceId",
          "type": "bytes4"
        }
      ],
      "name": "supportsInterface",
      "outputs": [
        {
          "internalType": "bool",
          "name": "",
          "type": "bool"
        }
      ],
      "stateMutability": "view",
      "type": "function"
    },
    {
      "inputs": [],
      "name": "symbol",
      "outputs": [
        {
          "internalType": "string",
          "name": "",
          "type": "string"
        }
      ],
      "stateMutability": "view",
      "type": "function"
    },
    {
      "inputs": [],
      "name": "tgeTimestamp",
      "outputs": [
        {
          "internalType": "uint32",
          "name": "",
          "type": "uint32"
        }
      ],
      "stateMutability": "view",
      "type": "function"
    },
    {
      "inputs": [
        {
          "internalType": "address",
          "name": "user",
          "type": "address"
        }
      ],
      "name": "totalClaimed",
      "outputs": [
        {
          "internalType": "uint256",
          "name": "",
          "type": "uint256"
        }
      ],
      "stateMutability": "view",
      "type": "function"
    },
    {
      "inputs": [
        {
          "internalType": "address",
          "name": "user",
          "type": "address"
        }
      ],
      "name": "totalDeposited",
      "outputs": [
        {
          "internalType": "uint256",
          "name": "",
          "type": "uint256"
        }
      ],
      "stateMutability": "view",
      "type": "function"
    },
    {
      "inputs": [],
      "name": "totalSupply",
      "outputs": [
        {
          "internalType": "uint256",
          "name": "",
          "type": "uint256"
        }
      ],
      "stateMutability": "view",
      "type": "function"
    },
    {
      "inputs": [
        {
          "internalType": "address",
          "name": "",
          "type": "address"
        },
        {
          "internalType": "uint256",
          "name": "",
          "type": "uint256"
        }
      ],
      "name": "transfer",
      "outputs": [
        {
          "internalType": "bool",
          "name": "",
          "type": "bool"
        }
      ],
      "stateMutability": "nonpayable",
      "type": "function"
    },
    {
      "inputs": [
        {
          "internalType": "address",
          "name": "from",
          "type": "address"
        },
        {
          "internalType": "address",
          "name": "to",
          "type": "address"
        },
        {
          "internalType": "uint256",
          "name": "amount",
          "type": "uint256"
        }
      ],
      "name": "transferFrom",
      "outputs": [
        {
          "internalType": "bool",
          "name": "",
          "type": "bool"
        }
      ],
      "stateMutability": "nonpayable",
      "type": "function"
    },
    {
      "inputs": [
        {
          "internalType": "uint32",
          "name": "newTgeTimestamp",
          "type": "uint32"
        }
      ],
      "name": "updateTgeTimestamp",
      "outputs": [],
      "stateMutability": "nonpayable",
      "type": "function"
    },
    {
      "inputs": [
        {
          "internalType": "address",
          "name": "",
          "type": "address"
        }
      ],
      "name": "vestingInfo",
      "outputs": [
        {
          "internalType": "uint256",
          "name": "amountAlreadyWithdrawn",
          "type": "uint256"
        },
        {
          "internalType": "uint256",
          "name": "cliffSeconds",
          "type": "uint256"
        },
        {
          "internalType": "uint256",
          "name": "vestingSeconds",
          "type": "uint256"
        },
        {
          "internalType": "uint256",
          "name": "tgeUnlockRatio1e18",
          "type": "uint256"
        },
        {
          "internalType": "uint256",
          "name": "vestingFrequencySeconds",
          "type": "uint256"
        }
      ],
      "stateMutability": "view",
      "type": "function"
    },
    {
      "stateMutability": "payable",
      "type": "receive"
    }
  ],
  "numDeployments": 1,
  "solcInputHash": "a74e30bb844720d1485a32b7747b45a7",
  "bytecode": "0x608060405234801561001057600080fd5b50613ce8806100206000396000f3fe6080604052600436106102535760003560e01c806301ffc9a71461025f57806303ee9f221461029457806306fdde03146102c157806308614362146102e3578063095ea7b3146103055780630da45188146103255780630e408e3b1461035357806314c376dc1461037357806318160ddd146103a757806321e5383a146103bc57806323b872dd146103dc578063313ce567146103fc5780633644e51514610418578063395093511461042d5780633a46b1a81461044d57806342966c681461046d578063438280dd1461048d5780634bf5d7e9146104c15780634e71d92d146104d657806353055481146104eb578063587cde1e1461050b5780635c19a95c1461052b578063692878621461054b5780636ecf2b221461056b57806370a082311461058b57806371d0fb41146105ab57806375071d2a146105df57806375b238fc1461060157806379cc6790146106165780637ecebe0014610636578063839006f21461065657806384b0196e146106765780638e5313e01461069e5780638e539e8c146106d257806391ddadf4146106f2578063925bf5d41461071e57806393a56edc1461073e57806395d89b411461075e5780639975038c146107735780639ab24eb014610788578063a4317ef4146107a8578063a457c2d7146107e1578063a9059cbb14610801578063c3cda52014610821578063c4e41b2214610841578063d216617a14610856578063dc97e84e14610876578063dd62ed3e146108aa578063e9c26518146108ca578063ea9e9a81146108ec578063ef5d9ae814610910578063f78e633d1461094657600080fd5b3661025a57005b600080fd5b34801561026b57600080fd5b5061027f61027a366004613382565b6109b8565b60405190151581526020015b60405180910390f35b3480156102a057600080fd5b506067546102b4906001600160a01b031681565b60405161028b91906133ac565b3480156102cd57600080fd5b506102d66109e3565b60405161028b9190613410565b3480156102ef57600080fd5b506103036102fe366004613438565b610a75565b005b34801561031157600080fd5b5061027f610320366004613455565b610bfb565b34801561033157600080fd5b50610345610340366004613438565b610c13565b60405190815260200161028b565b34801561035f57600080fd5b5061030361036e366004613481565b610db6565b34801561037f57600080fd5b506103457fe965846df3dd5b1dfa65f58e31477079e90140e0908b6dd31b5aead5a57cf36581565b3480156103b357600080fd5b50609c54610345565b3480156103c857600080fd5b506103036103d7366004613455565b610e63565b3480156103e857600080fd5b5061027f6103f73660046134ba565b610eb4565b34801561040857600080fd5b506040516012815260200161028b565b34801561042457600080fd5b50610345610ed8565b34801561043957600080fd5b5061027f610448366004613455565b610ee7565b34801561045957600080fd5b50610345610468366004613455565b610f09565b34801561047957600080fd5b506103036104883660046134fb565b610f73565b34801561049957600080fd5b506103457f39f61ca2a1a28fee144218173ec637b649a353e4026b2738c673800e5bf1437b81565b3480156104cd57600080fd5b506102d6610f80565b3480156104e257600080fd5b50610303611013565b3480156104f757600080fd5b50610345610506366004613438565b61109c565b34801561051757600080fd5b506102b4610526366004613438565b6110c8565b34801561053757600080fd5b50610303610546366004613438565b6110e6565b34801561055757600080fd5b5060fe546102b4906001600160a01b031681565b34801561057757600080fd5b5061030361058636600461352d565b6110ff565b34801561059757600080fd5b506103456105a6366004613438565b611324565b3480156105b757600080fd5b506103457f880a91047114272656e533301261260c75e4d11543ac7303d6fe4204579ec72781565b3480156105eb57600080fd5b50610345600080516020613c3383398151915281565b34801561060d57600080fd5b50610345600081565b34801561062257600080fd5b50610303610631366004613455565b61133f565b34801561064257600080fd5b50610345610651366004613438565b611354565b34801561066257600080fd5b50610303610671366004613438565b611372565b34801561068257600080fd5b5061068b61152a565b60405161028b9796959493929190613574565b3480156106aa57600080fd5b506103457fe453bacb314e78dcd5192e6b1a2b1f0e7c76e92f6b7e429a6a90f04e39db3b7681565b3480156106de57600080fd5b506103456106ed3660046134fb565b6115c8565b3480156106fe57600080fd5b5061070761161b565b60405165ffffffffffff909116815260200161028b565b34801561072a57600080fd5b5061030361073936600461360a565b611626565b34801561074a57600080fd5b50610303610759366004613625565b61173e565b34801561076a57600080fd5b506102d66117ef565b34801561077f57600080fd5b506103036117fe565b34801561079457600080fd5b506103456107a3366004613438565b611834565b3480156107b457600080fd5b5060fe546107cc90600160c01b900463ffffffff1681565b60405163ffffffff909116815260200161028b565b3480156107ed57600080fd5b5061027f6107fc366004613455565b611855565b34801561080d57600080fd5b5061027f61081c366004613455565b6118d0565b34801561082d57600080fd5b5061030361083c366004613671565b6118eb565b34801561084d57600080fd5b50610345611a0a565b34801561086257600080fd5b50610303610871366004613740565b611a14565b34801561088257600080fd5b506103457f9a9aef7c1247d5fc769b0185c052913e39673da29a880317dfd20ebf86f26a4981565b3480156108b657600080fd5b506103456108c5366004613481565b611af8565b3480156108d657600080fd5b50610345600080516020613c1383398151915281565b3480156108f857600080fd5b5060fe546107cc90600160a01b900463ffffffff1681565b34801561091c57600080fd5b5061034561092b366004613438565b6001600160a01b0316600090815260ff602052604090205490565b34801561095257600080fd5b50610990610961366004613438565b60ff60205260009081526040902080546001820154600283015460038401546004909401549293919290919085565b604080519586526020860194909452928401919091526060830152608082015260a00161028b565b60006001600160e01b0319821663caa4951960e01b14806109dd57506109dd82611b23565b92915050565b6060609d80546109f2906137d2565b80601f0160208091040260200160405190810160405280929190818152602001828054610a1e906137d2565b8015610a6b5780601f10610a4057610100808354040283529160200191610a6b565b820191906000526020600020905b815481529060010190602001808311610a4e57829003601f168201915b5050505050905090565b606754604051632474521560e21b81526001600160a01b03909116906391d1485490610ab590600080516020613c13833981519152908590600401613806565b602060405180830381865afa158015610ad2573d6000803e3d6000fd5b505050506040513d601f19601f82011682018060405250810190610af6919061381d565b1515600114610b425760405162461bcd60e51b8152602060048201526013602482015272696e76616c69642044414f206164647265737360681b60448201526064015b60405180910390fd5b6000610b4d33611324565b905060008111610b935760405162461bcd60e51b81526020600482015260116024820152706e6f7468696e6720746f20646f6e61746560781b6044820152606401610b39565b33600090815260ff6020526040902054610bb7906001600160401b03831690613855565b33600081815260ff6020526040902091909155610bd49082611b48565b610be033600083611c6a565b60fe54610bf7906001600160a01b03168383611cce565b5050565b600033610c09818585611d31565b5060019392505050565b6001600160a01b038116600090815260ff60209081526040808320815160a081018352815481526001820154938101939093526002810154918301919091526003810154606083015260040154608082015260fe544290600160c01b900463ffffffff16811015610c88575060009392505050565b6000670de0b6b3a76400008360600151610ca18761109c565b610cab9190613868565b610cb59190613895565b602084015160fe54919250610cd691600160c01b900463ffffffff16613855565b8210610da157604083015160fe548391610cfc91600160c01b900463ffffffff16613855565b1015610d1257610d0b8561109c565b9050610da1565b6000610d1d8661109c565b602085015160fe54919250600091610d429190600160c01b900463ffffffff16613855565b610d4c90856138b7565b9050600085602001518660400151610d6491906138b7565b6080870151909150600090610d798185613895565b610d839190613868565b905081610d908286613868565b610d9a9190613895565b9450505050505b8251610dad90826138b7565b95945050505050565b606754604051632474521560e21b8152600080516020613c33833981519152916001600160a01b0316906391d1485490610df69084903390600401613806565b602060405180830381865afa158015610e13573d6000803e3d6000fd5b505050506040513d601f19601f82011682018060405250810190610e37919061381d565b610e5457604051632f33a5b560e01b815260040160405180910390fd5b610e5e8383611e55565b505050565b60fe54610e7b906001600160a01b0316333084611ed0565b610e858282611f08565b610e9160008383611c6a565b6000610e9c836110c8565b6001600160a01b031603610bf757610bf78283611e55565b600033610ec2858285611fb7565b610ecd85858561202b565b506001949350505050565b6000610ee26121c4565b905090565b600033610c09818585610efa8383611af8565b610f049190613855565b611d31565b6000610f1361161b565b65ffffffffffff168210610f395760405162461bcd60e51b8152600401610b39906138ca565b610f63610f45836121ce565b6001600160a01b038516600090815260696020526040902090612237565b6001600160e01b03169392505050565b610f7d3382611b48565b50565b606043610f8b61161b565b65ffffffffffff1614610fdb5760405162461bcd60e51b8152602060048201526018602482015277566f7465733a2062726f6b656e20636c6f636b206d6f646560401b6044820152606401610b39565b5060408051808201909152601d81527f6d6f64653d626c6f636b6e756d6265722666726f6d3d64656661756c74000000602082015290565b600061101e33610c13565b90508060000361104157604051639e335bd560e01b815260040160405180910390fd5b33600090815260ff602052604090205461105c908290613855565b33600081815260ff60205260409020919091556110799082611b48565b61108533600083611c6a565b60fe54610f7d906001600160a01b03163383611cce565b6001600160a01b038116600090815260ff60205260408120546110be83611324565b6109dd9190613855565b6001600160a01b039081166000908152606860205260409020541690565b604051634358d6cf60e11b815260040160405180910390fd5b600054610100900460ff161580801561111f5750600054600160ff909116105b80611140575061112e306122eb565b158015611140575060005460ff166001145b61115c5760405162461bcd60e51b8152600401610b39906138f8565b6000805460ff19166001179055801561117f576000805461ff0019166101001790555b6000836001600160a01b03166395d89b416040518163ffffffff1660e01b8152600401600060405180830381865afa1580156111bf573d6000803e3d6000fd5b505050506040513d6000823e601f3d908101601f191682016040526111e79190810190613946565b6040516020016111f791906139b3565b60405160208183030381529060405290506112128582611a14565b6112a0846001600160a01b03166306fdde036040518163ffffffff1660e01b8152600401600060405180830381865afa158015611253573d6000803e3d6000fd5b505050506040513d6000823e601f3d908101601f1916820160405261127b9190810190613946565b60405160200161128b91906139dd565b604051602081830303815290604052826122fa565b5060fe8054600160c01b600160a01b63ffffffff80871682026001600160c01b03199094166001600160a01b03891617939093179081049092160263ffffffff60c01b19909116179055801561131e576000805461ff001916905560405160018152600080516020613c538339815191529060200160405180910390a15b50505050565b6001600160a01b03166000908152609a602052604090205490565b61134a823383611fb7565b610bf78282611b48565b6001600160a01b0381166000908152606b60205260408120546109dd565b606754604051632474521560e21b8152600080516020613c13833981519152916001600160a01b0316906391d14854906113b29084903390600401613806565b602060405180830381865afa1580156113cf573d6000803e3d6000fd5b505050506040513d601f19601f820116820180604052508101906113f3919061381d565b61141057604051632f33a5b560e01b815260040160405180910390fd5b60fe546001600160a01b039081169083160361146e5760405162461bcd60e51b815260206004820152601f60248201527f4e6f20616c6c6f77656420746f20726573637565207468697320746f6b656e006044820152606401610b39565b6001600160a01b0382166114a85760405133904780156108fc02916000818181858888f19350505050158015610e5e573d6000803e3d6000fd5b610bf733836001600160a01b03166370a08231306040518263ffffffff1660e01b81526004016114d891906133ac565b602060405180830381865afa1580156114f5573d6000803e3d6000fd5b505050506040513d601f19601f820116820180604052508101906115199190613a13565b6001600160a01b0385169190611cce565b6000606080600080600060606033546000801b14801561154a5750603454155b61158e5760405162461bcd60e51b81526020600482015260156024820152741152540dcc4c8e88155b9a5b9a5d1a585b1a5e9959605a1b6044820152606401610b39565b61159661232b565b61159e61233a565b60408051600080825260208201909252600f60f81b9b939a50919850469750309650945092509050565b60006115d261161b565b65ffffffffffff1682106115f85760405162461bcd60e51b8152600401610b39906138ca565b61160c611604836121ce565b606a90612237565b6001600160e01b031692915050565b6000610ee243612349565b606754604051632474521560e21b81526001600160a01b03909116906391d1485490611659906000903390600401613806565b602060405180830381865afa158015611676573d6000803e3d6000fd5b505050506040513d601f19601f8201168201806040525081019061169a919061381d565b6116b757604051631886ea7d60e11b815260040160405180910390fd5b4263ffffffff168163ffffffff1610156116e4576040516353bd8e2560e01b815260040160405180910390fd5b60fe5463ffffffff600160a01b90910481169082161115611718576040516353e3186d60e11b815260040160405180910390fd5b60fe805463ffffffff909216600160c01b0263ffffffff60c01b19909216919091179055565b606754604051632474521560e21b81526000916001600160a01b0316906391d14854906117719084903390600401613806565b602060405180830381865afa15801561178e573d6000803e3d6000fd5b505050506040513d601f19601f820116820180604052508101906117b2919061381d565b6117cf57604051632f33a5b560e01b815260040160405180910390fd5b6117dc87868686866123b0565b6117e68787610e63565b50505050505050565b6060609e80546109f2906137d2565b600061180933611324565b90506118153382611b48565b61182133600083611c6a565b5033600090815260ff6020526040812055565b6001600160a01b038116600090815260696020526040812061160c90612585565b600033816118638286611af8565b9050838110156118c35760405162461bcd60e51b815260206004820152602560248201527f45524332303a2064656372656173656420616c6c6f77616e63652062656c6f77604482015264207a65726f60d81b6064820152608401610b39565b610ecd8286868403611d31565b6000604051634358d6cf60e11b815260040160405180910390fd5b834211156119365760405162461bcd60e51b8152602060048201526018602482015277159bdd195cce881cda59db985d1d5c9948195e1c1a5c995960421b6044820152606401610b39565b604080517fe48329057bfd03d55e49b547132e39cffd9c1820ad7b9d4c5307691425d15adf60208201526001600160a01b0388169181019190915260608101869052608081018590526000906119b0906119a89060a001604051602081830303815290604052805190602001206125bf565b8585856125ec565b90506119bb81612616565b8614611a005760405162461bcd60e51b8152602060048201526014602482015273566f7465733a20696e76616c6964206e6f6e636560601b6044820152606401610b39565b6117e68188611e55565b6000610ee261263e565b600054610100900460ff1615808015611a345750600054600160ff909116105b80611a555750611a43306122eb565b158015611a55575060005460ff166001145b611a715760405162461bcd60e51b8152600401610b39906138f8565b6000805460ff191660011790558015611a94576000805461ff0019166101001790555b611a9d83612658565b611ac082604051806040016040528060018152602001603160f81b81525061273a565b8015610e5e576000805461ff001916905560405160018152600080516020613c538339815191529060200160405180910390a1505050565b6001600160a01b039182166000908152609b6020908152604080832093909416825291909152205490565b60006001600160e01b03198216637487d9fb60e11b14806109dd57506109dd8261276b565b6001600160a01b038216611ba85760405162461bcd60e51b815260206004820152602160248201527f45524332303a206275726e2066726f6d20746865207a65726f206164647265736044820152607360f81b6064820152608401610b39565b6001600160a01b0382166000908152609a602052604090205481811015611c1c5760405162461bcd60e51b815260206004820152602260248201527f45524332303a206275726e20616d6f756e7420657863656564732062616c616e604482015261636560f01b6064820152608401610b39565b6001600160a01b0383166000818152609a602090815260408083208686039055609c8054879003905551858152919291600080516020613c73833981519152910160405180910390a3505050565b6001600160a01b038316611c9157611c8e606a6127dd611c89846127e9565b612852565b50505b6001600160a01b038216611cb357611cb0606a61289b611c89846127e9565b50505b610e5e611cbf846110c8565b611cc8846110c8565b836128a7565b6040516001600160a01b038316602482015260448101829052610e5e90849063a9059cbb60e01b906064015b60408051601f198184030181529190526020810180516001600160e01b03166001600160e01b0319909316929092179091526129ea565b6001600160a01b038316611d935760405162461bcd60e51b8152602060048201526024808201527f45524332303a20617070726f76652066726f6d20746865207a65726f206164646044820152637265737360e01b6064820152608401610b39565b6001600160a01b038216611df45760405162461bcd60e51b815260206004820152602260248201527f45524332303a20617070726f766520746f20746865207a65726f206164647265604482015261737360f01b6064820152608401610b39565b6001600160a01b038381166000818152609b602090815260408083209487168084529482529182902085905590518481527f8c5be1e5ebec7d5bd14f71427d1e84f3dd0314c0f7b2291e5b200ac8c7c3b925910160405180910390a3505050565b6000611e60836110c8565b6001600160a01b0384811660008181526068602052604080822080546001600160a01b031916888616908117909155905194955093928516927f3134e8a2e6d97e929a7e54011ea5485d7d196dd5f0ba4d4ef95803e8e3fc257f9190a4610e5e8183611ecb86612abf565b6128a7565b6040516001600160a01b038085166024830152831660448201526064810182905261131e9085906323b872dd60e01b90608401611cfa565b6001600160a01b038216611f5e5760405162461bcd60e51b815260206004820152601f60248201527f45524332303a206d696e7420746f20746865207a65726f2061646472657373006044820152606401610b39565b80609c6000828254611f709190613855565b90915550506001600160a01b0382166000818152609a6020908152604080832080548601905551848152600080516020613c73833981519152910160405180910390a35050565b6000611fc38484611af8565b9050600019811461131e578181101561201e5760405162461bcd60e51b815260206004820152601d60248201527f45524332303a20696e73756666696369656e7420616c6c6f77616e63650000006044820152606401610b39565b61131e8484848403611d31565b6001600160a01b03831661208f5760405162461bcd60e51b815260206004820152602560248201527f45524332303a207472616e736665722066726f6d20746865207a65726f206164604482015264647265737360d81b6064820152608401610b39565b6001600160a01b0382166120f15760405162461bcd60e51b815260206004820152602360248201527f45524332303a207472616e7366657220746f20746865207a65726f206164647260448201526265737360e81b6064820152608401610b39565b6001600160a01b0383166000908152609a6020526040902054818110156121695760405162461bcd60e51b815260206004820152602660248201527f45524332303a207472616e7366657220616d6f756e7420657863656564732062604482015265616c616e636560d01b6064820152608401610b39565b6001600160a01b038085166000818152609a60205260408082208686039055928616808252908390208054860190559151600080516020613c73833981519152906121b79086815260200190565b60405180910390a361131e565b6000610ee2612aca565b600063ffffffff8211156122335760405162461bcd60e51b815260206004820152602660248201527f53616665436173743a2076616c756520646f65736e27742066697420696e203360448201526532206269747360d01b6064820152608401610b39565b5090565b81546000908181600581111561229457600061225284612b3e565b61225c90856138b7565b60008881526020902090915081015463ffffffff908116908716101561228457809150612292565b61228f816001613855565b92505b505b60006122a287878585612c26565b905080156122dd576122c7876122b96001846138b7565b600091825260209091200190565b54600160201b90046001600160e01b03166122e0565b60005b979650505050505050565b6001600160a01b03163b151590565b600054610100900460ff166123215760405162461bcd60e51b8152600401610b3990613a2c565b610bf78282612c84565b6060603580546109f2906137d2565b6060603680546109f2906137d2565b600065ffffffffffff8211156122335760405162461bcd60e51b815260206004820152602660248201527f53616665436173743a2076616c756520646f65736e27742066697420696e203460448201526538206269747360d01b6064820152608401610b39565b838311156124125760405162461bcd60e51b815260206004820152602960248201527f636c69666654696d652073686f756c64206265206c657373207468656e2076656044820152687374696e6754696d6560b81b6064820152608401610b39565b670de0b6b3a76400008211156124765760405162461bcd60e51b8152602060048201526024808201527f746765556e6c6f636b526174696f2073686f756c64206265206c657373207468604482015263616e203160e01b6064820152608401610b39565b6001600160a01b038516600090815260ff60205260409020600201548411156124b8576001600160a01b038516600090815260ff602052604090206002018490555b6001600160a01b038516600090815260ff60205260409020600101548311156124fa576001600160a01b038516600090815260ff602052604090206001018390555b6001600160a01b038516600090815260ff602052604090206003015482101561253c576001600160a01b038516600090815260ff602052604090206003018290555b6001600160a01b038516600090815260ff602052604090206004015481111561257e576001600160a01b038516600090815260ff602052604090206004018190555b5050505050565b805460009080156125b55761259f836122b96001846138b7565b54600160201b90046001600160e01b03166125b8565b60005b9392505050565b60006109dd6125cc6121c4565b8360405161190160f01b8152600281019290925260228201526042902090565b60008060006125fd87878787612cc4565b9150915061260a81612d7e565b5090505b949350505050565b6001600160a01b0381166000908152606b602052604090208054600181018255905b50919050565b600061264a606a612585565b6001600160e01b0316905090565b600054610100900460ff1661267f5760405162461bcd60e51b8152600401610b3990613a2c565b606780546001600160a01b0319166001600160a01b0383169081179091551580159061271c57506040516301ffc9a760e01b81526001600160a01b038216906301ffc9a7906126d990637965db0b60e01b90600401613a77565b602060405180830381865afa1580156126f6573d6000803e3d6000fd5b505050506040513d601f19601f8201168201806040525081019061271a919061381d565b155b15610f7d576040516384d942fd60e01b815260040160405180910390fd5b600054610100900460ff166127615760405162461bcd60e51b8152600401610b3990613a2c565b610bf78282612ec3565b6067546040516301ffc9a760e01b81526000916001600160a01b0316906301ffc9a79061279c908590600401613a77565b602060405180830381865afa1580156127b9573d6000803e3d6000fd5b505050506040513d601f19601f820116820180604052508101906109dd919061381d565b60006125b88284613a8c565b60006001600160e01b038211156122335760405162461bcd60e51b815260206004820152602760248201527f53616665436173743a2076616c756520646f65736e27742066697420696e20326044820152663234206269747360c81b6064820152608401610b39565b60008061288e61287061286361161b565b65ffffffffffff166121ce565b61288661287c88612585565b868863ffffffff16565b879190612f12565b915091505b935093915050565b60006125b88284613ab3565b816001600160a01b0316836001600160a01b0316141580156128c95750600081115b15610e5e576001600160a01b0383161561295a576001600160a01b038316600090815260696020526040812081906129079061289b611c89866127e9565b6001600160e01b031691506001600160e01b03169150846001600160a01b0316600080516020613c93833981519152838360405161294f929190918252602082015260400190565b60405180910390a250505b6001600160a01b03821615610e5e576001600160a01b03821660009081526069602052604081208190612993906127dd611c89866127e9565b6001600160e01b031691506001600160e01b03169150836001600160a01b0316600080516020613c9383398151915283836040516129db929190918252602082015260400190565b60405180910390a25050505050565b6000612a3f826040518060400160405280602081526020017f5361666545524332303a206c6f772d6c6576656c2063616c6c206661696c6564815250856001600160a01b0316612f209092919063ffffffff16565b9050805160001480612a60575080806020019051810190612a60919061381d565b610e5e5760405162461bcd60e51b815260206004820152602a60248201527f5361666545524332303a204552433230206f7065726174696f6e20646964206e6044820152691bdd081cdd58d8d9595960b21b6064820152608401610b39565b60006109dd82611324565b60007f8b73c3c69bb8fe3d512ecc4cf759cc79239f7b179b0ffacaa9a75d522b39400f612af5612f2f565b612afd612f88565b60408051602081019490945283019190915260608201524660808201523060a082015260c00160405160208183030381529060405280519060200120905090565b600081600003612b5057506000919050565b60006001612b5d84612fb9565b901c6001901b90506001818481612b7657612b7661387f565b048201901c90506001818481612b8e57612b8e61387f565b048201901c90506001818481612ba657612ba661387f565b048201901c90506001818481612bbe57612bbe61387f565b048201901c90506001818481612bd657612bd661387f565b048201901c90506001818481612bee57612bee61387f565b048201901c90506001818481612c0657612c0661387f565b048201901c90506125b881828581612c2057612c2061387f565b0461304d565b60005b81831015612c7c576000612c3d8484613063565b60008781526020902090915063ffffffff86169082015463ffffffff161115612c6857809250612c76565b612c73816001613855565b93505b50612c29565b509392505050565b600054610100900460ff16612cab5760405162461bcd60e51b8152600401610b3990613a2c565b609d612cb78382613b21565b50609e610e5e8282613b21565b6000806fa2a8918ca85bafe22016d0b997e4df60600160ff1b03831115612cf15750600090506003612d75565b6040805160008082526020820180845289905260ff881692820192909252606081018690526080810185905260019060a0016020604051602081039080840390855afa158015612d45573d6000803e3d6000fd5b5050604051601f1901519150506001600160a01b038116612d6e57600060019250925050612d75565b9150600090505b94509492505050565b6000816004811115612d9257612d92613be0565b03612d9a5750565b6001816004811115612dae57612dae613be0565b03612df65760405162461bcd60e51b815260206004820152601860248201527745434453413a20696e76616c6964207369676e617475726560401b6044820152606401610b39565b6002816004811115612e0a57612e0a613be0565b03612e575760405162461bcd60e51b815260206004820152601f60248201527f45434453413a20696e76616c6964207369676e6174757265206c656e677468006044820152606401610b39565b6003816004811115612e6b57612e6b613be0565b03610f7d5760405162461bcd60e51b815260206004820152602260248201527f45434453413a20696e76616c6964207369676e6174757265202773272076616c604482015261756560f01b6064820152608401610b39565b600054610100900460ff16612eea5760405162461bcd60e51b8152600401610b3990613a2c565b6035612ef68382613b21565b506036612f038282613b21565b50506000603381905560345550565b60008061288e85858561307e565b606061260e848460008561321b565b600080612f3a61232b565b805190915015612f51578051602090910120919050565b6033548015612f605792915050565b7fc5d2460186f7233c927e7db2dcc703c0e500b653ca82273b7bfad8045d85a4709250505090565b600080612f9361233a565b805190915015612faa578051602090910120919050565b6034548015612f605792915050565b600080608083901c15612fce57608092831c92015b604083901c15612fe057604092831c92015b602083901c15612ff257602092831c92015b601083901c1561300457601092831c92015b600883901c1561301657600892831c92015b600483901c1561302857600492831c92015b600283901c1561303a57600292831c92015b600183901c156109dd5760010192915050565b600081831061305c57816125b8565b5090919050565b60006130726002848418613895565b6125b890848416613855565b8254600090819080156131c257600061309c876122b96001856138b7565b60408051808201909152905463ffffffff808216808452600160201b9092046001600160e01b03166020840152919250908716101561311b5760405162461bcd60e51b815260206004820152601b60248201527a436865636b706f696e743a2064656372656173696e67206b65797360281b6044820152606401610b39565b805163ffffffff808816911603613163578461313c886122b96001866138b7565b80546001600160e01b0392909216600160201b0263ffffffff9092169190911790556131b2565b6040805180820190915263ffffffff80881682526001600160e01b0380881660208085019182528b54600181018d5560008d81529190912094519151909216600160201b029216919091179101555b6020015192508391506128939050565b50506040805180820190915263ffffffff80851682526001600160e01b0380851660208085019182528854600181018a5560008a815291822095519251909316600160201b029190931617920191909155905081612893565b60608247101561327c5760405162461bcd60e51b815260206004820152602660248201527f416464726573733a20696e73756666696369656e742062616c616e636520666f6044820152651c8818d85b1b60d21b6064820152608401610b39565b600080866001600160a01b031685876040516132989190613bf6565b60006040518083038185875af1925050503d80600081146132d5576040519150601f19603f3d011682016040523d82523d6000602084013e6132da565b606091505b50915091506122e0878383876060831561335357825160000361334c57613300856122eb565b61334c5760405162461bcd60e51b815260206004820152601d60248201527f416464726573733a2063616c6c20746f206e6f6e2d636f6e74726163740000006044820152606401610b39565b508161260e565b61260e83838151156133685781518083602001fd5b8060405162461bcd60e51b8152600401610b399190613410565b60006020828403121561339457600080fd5b81356001600160e01b0319811681146125b857600080fd5b6001600160a01b0391909116815260200190565b60005b838110156133db5781810151838201526020016133c3565b50506000910152565b600081518084526133fc8160208601602086016133c0565b601f01601f19169290920160200192915050565b6020815260006125b860208301846133e4565b6001600160a01b0381168114610f7d57600080fd5b60006020828403121561344a57600080fd5b81356125b881613423565b6000806040838503121561346857600080fd5b823561347381613423565b946020939093013593505050565b6000806040838503121561349457600080fd5b823561349f81613423565b915060208301356134af81613423565b809150509250929050565b6000806000606084860312156134cf57600080fd5b83356134da81613423565b925060208401356134ea81613423565b929592945050506040919091013590565b60006020828403121561350d57600080fd5b5035919050565b803563ffffffff8116811461352857600080fd5b919050565b60008060006060848603121561354257600080fd5b833561354d81613423565b9250602084013561355d81613423565b915061356b60408501613514565b90509250925092565b60ff60f81b881681526000602060e08184015261359460e084018a6133e4565b83810360408501526135a6818a6133e4565b606085018990526001600160a01b038816608086015260a0850187905284810360c0860152855180825283870192509083019060005b818110156135f8578351835292840192918401916001016135dc565b50909c9b505050505050505050505050565b60006020828403121561361c57600080fd5b6125b882613514565b60008060008060008060c0878903121561363e57600080fd5b863561364981613423565b9860208801359850604088013597606081013597506080810135965060a00135945092505050565b60008060008060008060c0878903121561368a57600080fd5b863561369581613423565b95506020870135945060408701359350606087013560ff811681146136b957600080fd5b9598949750929560808101359460a0909101359350915050565b634e487b7160e01b600052604160045260246000fd5b604051601f8201601f191681016001600160401b0381118282101715613711576137116136d3565b604052919050565b60006001600160401b03821115613732576137326136d3565b50601f01601f191660200190565b6000806040838503121561375357600080fd5b823561375e81613423565b915060208301356001600160401b0381111561377957600080fd5b8301601f8101851361378a57600080fd5b803561379d61379882613719565b6136e9565b8181528660208385010111156137b257600080fd5b816020840160208301376000602083830101528093505050509250929050565b600181811c908216806137e657607f821691505b60208210810361263857634e487b7160e01b600052602260045260246000fd5b9182526001600160a01b0316602082015260400190565b60006020828403121561382f57600080fd5b815180151581146125b857600080fd5b634e487b7160e01b600052601160045260246000fd5b808201808211156109dd576109dd61383f565b80820281158282048414176109dd576109dd61383f565b634e487b7160e01b600052601260045260246000fd5b6000826138b257634e487b7160e01b600052601260045260246000fd5b500490565b818103818111156109dd576109dd61383f565b6020808252601490820152730566f7465733a20667574757265206c6f6f6b75760641b604082015260600190565b6020808252602e908201527f496e697469616c697a61626c653a20636f6e747261637420697320616c72656160408201526d191e481a5b9a5d1a585b1a5e995960921b606082015260800190565b60006020828403121561395857600080fd5b81516001600160401b0381111561396e57600080fd5b8201601f8101841361397f57600080fd5b805161398d61379882613719565b8181528560208385010111156139a257600080fd5b610dad8260208301602086016133c0565b61766560f01b8152600082516139d08160028501602087016133c0565b9190910160020192915050565b6d03b32b9ba32b21032b9b1b937bb960951b815260008251613a0681600e8501602087016133c0565b91909101600e0192915050565b600060208284031215613a2557600080fd5b5051919050565b6020808252602b908201527f496e697469616c697a61626c653a20636f6e7472616374206973206e6f74206960408201526a6e697469616c697a696e6760a81b606082015260800190565b6001600160e01b031991909116815260200190565b6001600160e01b03818116838216019080821115613aac57613aac61383f565b5092915050565b6001600160e01b03828116828216039080821115613aac57613aac61383f565b601f821115610e5e57600081815260208120601f850160051c81016020861015613afa5750805b601f850160051c820191505b81811015613b1957828155600101613b06565b505050505050565b81516001600160401b03811115613b3a57613b3a6136d3565b613b4e81613b4884546137d2565b84613ad3565b602080601f831160018114613b835760008415613b6b5750858301515b600019600386901b1c1916600185901b178555613b19565b600085815260208120601f198616915b82811015613bb257888601518255948401946001909101908401613b93565b5085821015613bd05787850151600019600388901b60f8161c191681555b5050505050600190811b01905550565b634e487b7160e01b600052602160045260246000fd5b60008251613c088184602087016133c0565b919091019291505056fe3b5d4cc60d3ec3516ee8ae083bd60934f6eb2a6c54b1229985c41bfb092b26035719df9ef2c4678b547f89e4f5ae410dbf400fc51cf3ded434c55f6adea2c43f7f26b83ff96e1f2b6a682f133852f6798a09c465da95921460cefb3847402498ddf252ad1be2c89b69c2b068fc378daa952ba7f163c4a11628f55a4df523b3efdec2bacdd2f05b59de34da9b523dff8be42e5e38e818c82fdb0bae774387a724a264697066735822122020ec7feadfa2a70bf20d15c250a8b0fae9caf8d357235e12f40eecd2365aab5264736f6c63430008110033",
  "devdoc": {
    "kind": "dev",
    "methods": {
      "CLOCK_MODE()": {
        "details": "Machine-readable description of the clock as specified in EIP-6372."
      },
      "DOMAIN_SEPARATOR()": {
        "details": "Returns the contract's {EIP712} domain separator."
      },
      "addBalance(address,uint256)": {
        "params": {
          "account": "Beneficiary of the vesting account.",
          "amount": "Amount of token to be send to user under vesting, which will be deducted from msg.sender."
        }
      },
      "allowance(address,address)": {
        "details": "See {IERC20-allowance}."
      },
      "approve(address,uint256)": {
        "details": "See {IERC20-approve}. NOTE: If `amount` is the maximum `uint256`, the allowance is not updated on `transferFrom`. This is semantically equivalent to an infinite approval. Requirements: - `spender` cannot be the zero address."
      },
      "availableToClaim(address)": {
        "returns": {
          "_0": "Returns amount of tokens the users can withdraw right now."
        }
      },
      "balanceOf(address)": {
        "details": "See {IERC20-balanceOf}."
      },
      "burn(uint256)": {
        "details": "Destroys `amount` tokens from the caller. See {ERC20-_burn}."
      },
      "burnFrom(address,uint256)": {
        "details": "Destroys `amount` tokens from `account`, deducting from the caller's allowance. See {ERC20-_burn} and {ERC20-allowance}. Requirements: - the caller must have allowance for ``accounts``'s tokens of at least `amount`."
      },
      "clock()": {
        "details": "Clock used for flagging checkpoints. Can be overridden to implement timestamp based checkpoints (and voting), in which case {CLOCK_MODE} should be overridden as well to match."
      },
      "decimals()": {
        "details": "Returns the number of decimals used to get its user representation. For example, if `decimals` equals `2`, a balance of `505` tokens should be displayed to a user as `5.05` (`505 / 10 ** 2`). Tokens usually opt for a value of 18, imitating the relationship between Ether and Wei. This is the default value returned by this function, unless it's overridden. NOTE: This information is only used for _display_ purposes: it in no way affects any of the arithmetic of the contract, including {IERC20-balanceOf} and {IERC20-transfer}."
      },
      "decreaseAllowance(address,uint256)": {
        "details": "Atomically decreases the allowance granted to `spender` by the caller. This is an alternative to {approve} that can be used as a mitigation for problems described in {IERC20-approve}. Emits an {Approval} event indicating the updated allowance. Requirements: - `spender` cannot be the zero address. - `spender` must have allowance for the caller of at least `subtractedValue`."
      },
      "delegate(address)": {
        "details": "Delegates votes from the sender to `delegatee`. It's DEPRECATED. Only contracts with SYSTEM_ROLE can call delegateOnBehalf(). (like VotingPower that has complex logic to work with SuVoteToken-like tokens)"
      },
      "delegateBySig(address,uint256,uint256,uint8,bytes32,bytes32)": {
        "details": "Delegates votes from signer to `delegatee`."
      },
      "delegateOnBehalf(address,address)": {
        "details": "Delegates votes from the account to `delegatee`."
      },
      "delegates(address)": {
        "details": "Returns the delegate that `account` has chosen."
      },
      "eip712Domain()": {
        "details": "See {EIP-5267}. _Available since v4.9._"
      },
      "getPastTotalSupply(uint256)": {
        "details": "Returns the total supply of votes available at a specific moment in the past. If the `clock()` is configured to use block numbers, this will return the value at the end of the corresponding block. NOTE: This value is the sum of all available votes, which is not necessarily the sum of all delegated votes. Votes that have not been delegated are still part of total supply, even though they would not participate in a vote. Requirements: - `timepoint` must be in the past. If operating using block numbers, the block must be already mined."
      },
      "getPastVotes(address,uint256)": {
        "details": "Returns the amount of votes that `account` had at a specific moment in the past. If the `clock()` is configured to use block numbers, this will return the value at the end of the corresponding block. Requirements: - `timepoint` must be in the past. If operating using block numbers, the block must be already mined."
      },
      "getVotes(address)": {
        "details": "Returns the current amount of votes that `account` has."
      },
      "increaseAllowance(address,uint256)": {
        "details": "Atomically increases the allowance granted to `spender` by the caller. This is an alternative to {approve} that can be used as a mitigation for problems described in {IERC20-approve}. Emits an {Approval} event indicating the updated allowance. Requirements: - `spender` cannot be the zero address."
      },
      "lockUnderVesting(address,uint256,uint256,uint256,uint256,uint256)": {
        "params": {
          "account": "Beneficiary of the vesting account.",
          "amount": "Amount of tokens to be send, which will be deducted from msg.sender.",
          "cliffSeconds": "Amount of seconds while tokens would be completely locked.",
          "tgeUnlockRatio1e18": "ratio/1e18  [0..1] that indicates how many tokens are going to be unlocked during TGE",
          "vestingFrequencySeconds": "how frequently token are going to be unlocked after the cliff.",
          "vestingSeconds": "Amount of seconds when linear vesting would be over. Starts from cliff."
        }
      },
      "name()": {
        "details": "Returns the name of the token."
      },
      "nonces(address)": {
        "details": "Returns an address nonce."
      },
      "symbol()": {
        "details": "Returns the symbol of the token, usually a shorter version of the name."
      },
      "totalSupply()": {
        "details": "See {IERC20-totalSupply}."
      },
      "transferFrom(address,address,uint256)": {
        "details": "See {IERC20-transferFrom}. Emits an {Approval} event indicating the updated allowance. This is not required by the EIP. See the note at the beginning of {ERC20}. NOTE: Does not update the allowance if the current allowance is the maximum `uint256`. Requirements: - `from` and `to` cannot be the zero address. - `from` must have a balance of at least `amount`. - the caller must have allowance for ``from``'s tokens of at least `amount`."
      }
    },
    "stateVariables": {
      "__gap": {
        "details": "This empty reserved space is put in place to allow future versions to add new variables without shifting down storage in the inheritance chain. See https://docs.openzeppelin.com/contracts/4.x/upgradeable#storage_gaps"
      }
    },
    "version": 1
  },
  "userdoc": {
    "kind": "user",
    "methods": {
      "addBalance(address,uint256)": {
        "notice": "Adds more tokens to the existing (possibly zero) vesting account. Doesn't change vesting period!"
      },
      "availableToClaim(address)": {
        "notice": "Checks amount of vested tokens minus already withdrawn."
      },
      "claim()": {
        "notice": "User can claim their vested tokens."
      },
      "donateTokens(address)": {
        "notice": "User can donate tokens under vesting to DAO or other admin contract as us treasury."
      },
      "lockUnderVesting(address,uint256,uint256,uint256,uint256,uint256)": {
        "notice": "Creates an account with time-vesting for the user and withdraws these tokens from msg.sender."
      },
      "rescue(address)": {
        "notice": "The DAO can take away tokens accidentally sent to the contract."
      },
      "totalClaimed(address)": {
        "notice": "Total amount of token user had claimed."
      },
      "totalDeposited(address)": {
        "notice": "Total amount of token was deposited under vesting on behalf of the user."
      },
      "updateTgeTimestamp(uint32)": {
        "notice": "owner of the contract can set up TGE date within set limits."
      }
    },
    "version": 1
  },
  "storageLayout": {
    "storage": [
      {
        "astId": 1504,
        "contract": "contracts/vested-escrow/VeERC20.sol:VeERC20",
        "label": "_initialized",
        "offset": 0,
        "slot": "0",
        "type": "t_uint8"
      },
      {
        "astId": 1507,
        "contract": "contracts/vested-escrow/VeERC20.sol:VeERC20",
        "label": "_initializing",
        "offset": 1,
        "slot": "0",
        "type": "t_bool"
      },
      {
        "astId": 8655,
        "contract": "contracts/vested-escrow/VeERC20.sol:VeERC20",
        "label": "__gap",
        "offset": 0,
        "slot": "1",
        "type": "t_array(t_uint256)50_storage"
      },
      {
        "astId": 9343,
        "contract": "contracts/vested-escrow/VeERC20.sol:VeERC20",
        "label": "_hashedName",
        "offset": 0,
        "slot": "51",
        "type": "t_bytes32"
      },
      {
        "astId": 9346,
        "contract": "contracts/vested-escrow/VeERC20.sol:VeERC20",
        "label": "_hashedVersion",
        "offset": 0,
        "slot": "52",
        "type": "t_bytes32"
      },
      {
        "astId": 9348,
        "contract": "contracts/vested-escrow/VeERC20.sol:VeERC20",
        "label": "_name",
        "offset": 0,
        "slot": "53",
        "type": "t_string_storage"
      },
      {
        "astId": 9350,
        "contract": "contracts/vested-escrow/VeERC20.sol:VeERC20",
        "label": "_version",
        "offset": 0,
        "slot": "54",
        "type": "t_string_storage"
      },
      {
        "astId": 9608,
        "contract": "contracts/vested-escrow/VeERC20.sol:VeERC20",
        "label": "__gap",
        "offset": 0,
        "slot": "55",
        "type": "t_array(t_uint256)48_storage"
      },
      {
        "astId": 54219,
        "contract": "contracts/vested-escrow/VeERC20.sol:VeERC20",
        "label": "ACCESS_CONTROL_SINGLETON",
        "offset": 0,
        "slot": "103",
        "type": "t_contract(ISuAccessControl)58034"
      },
      {
        "astId": 920,
        "contract": "contracts/vested-escrow/VeERC20.sol:VeERC20",
        "label": "_delegation",
        "offset": 0,
        "slot": "104",
        "type": "t_mapping(t_address,t_address)"
      },
      {
        "astId": 926,
        "contract": "contracts/vested-escrow/VeERC20.sol:VeERC20",
        "label": "_delegateCheckpoints",
        "offset": 0,
        "slot": "105",
        "type": "t_mapping(t_address,t_struct(Trace224)7614_storage)"
      },
      {
        "astId": 930,
        "contract": "contracts/vested-escrow/VeERC20.sol:VeERC20",
        "label": "_totalCheckpoints",
        "offset": 0,
        "slot": "106",
        "type": "t_struct(Trace224)7614_storage"
      },
      {
        "astId": 935,
        "contract": "contracts/vested-escrow/VeERC20.sol:VeERC20",
        "label": "_nonces",
        "offset": 0,
        "slot": "107",
        "type": "t_mapping(t_address,t_struct(Counter)8662_storage)"
      },
      {
        "astId": 1444,
        "contract": "contracts/vested-escrow/VeERC20.sol:VeERC20",
        "label": "__gap",
        "offset": 0,
        "slot": "108",
        "type": "t_array(t_uint256)46_storage"
      },
      {
        "astId": 3108,
        "contract": "contracts/vested-escrow/VeERC20.sol:VeERC20",
        "label": "_balances",
        "offset": 0,
        "slot": "154",
        "type": "t_mapping(t_address,t_uint256)"
      },
      {
        "astId": 3114,
        "contract": "contracts/vested-escrow/VeERC20.sol:VeERC20",
        "label": "_allowances",
        "offset": 0,
        "slot": "155",
        "type": "t_mapping(t_address,t_mapping(t_address,t_uint256))"
      },
      {
        "astId": 3116,
        "contract": "contracts/vested-escrow/VeERC20.sol:VeERC20",
        "label": "_totalSupply",
        "offset": 0,
        "slot": "156",
        "type": "t_uint256"
      },
      {
        "astId": 3118,
        "contract": "contracts/vested-escrow/VeERC20.sol:VeERC20",
        "label": "_name",
        "offset": 0,
        "slot": "157",
        "type": "t_string_storage"
      },
      {
        "astId": 3120,
        "contract": "contracts/vested-escrow/VeERC20.sol:VeERC20",
        "label": "_symbol",
        "offset": 0,
        "slot": "158",
        "type": "t_string_storage"
      },
      {
        "astId": 3700,
        "contract": "contracts/vested-escrow/VeERC20.sol:VeERC20",
        "label": "__gap",
        "offset": 0,
        "slot": "159",
        "type": "t_array(t_uint256)45_storage"
      },
      {
        "astId": 3842,
        "contract": "contracts/vested-escrow/VeERC20.sol:VeERC20",
        "label": "__gap",
        "offset": 0,
        "slot": "204",
        "type": "t_array(t_uint256)50_storage"
      },
      {
        "astId": 63508,
        "contract": "contracts/vested-escrow/VeERC20.sol:VeERC20",
        "label": "LOCKED_TOKEN",
        "offset": 0,
        "slot": "254",
        "type": "t_contract(ERC20Upgradeable)3701"
      },
      {
        "astId": 63510,
        "contract": "contracts/vested-escrow/VeERC20.sol:VeERC20",
        "label": "TGE_MAX_TIMESTAMP",
        "offset": 20,
        "slot": "254",
        "type": "t_uint32"
      },
      {
        "astId": 63512,
        "contract": "contracts/vested-escrow/VeERC20.sol:VeERC20",
        "label": "tgeTimestamp",
        "offset": 24,
        "slot": "254",
        "type": "t_uint32"
      },
      {
        "astId": 63528,
        "contract": "contracts/vested-escrow/VeERC20.sol:VeERC20",
        "label": "vestingInfo",
        "offset": 0,
        "slot": "255",
        "type": "t_mapping(t_address,t_struct(VestingInfo)63523_storage)"
      },
      {
        "astId": 64232,
        "contract": "contracts/vested-escrow/VeERC20.sol:VeERC20",
        "label": "__gap",
        "offset": 0,
        "slot": "256",
        "type": "t_array(t_uint256)49_storage"
      }
    ],
    "types": {
      "t_address": {
        "encoding": "inplace",
        "label": "address",
        "numberOfBytes": "20"
      },
      "t_array(t_struct(Checkpoint224)7619_storage)dyn_storage": {
        "base": "t_struct(Checkpoint224)7619_storage",
        "encoding": "dynamic_array",
        "label": "struct CheckpointsUpgradeable.Checkpoint224[]",
        "numberOfBytes": "32"
      },
      "t_array(t_uint256)45_storage": {
        "base": "t_uint256",
        "encoding": "inplace",
        "label": "uint256[45]",
        "numberOfBytes": "1440"
      },
      "t_array(t_uint256)46_storage": {
        "base": "t_uint256",
        "encoding": "inplace",
        "label": "uint256[46]",
        "numberOfBytes": "1472"
      },
      "t_array(t_uint256)48_storage": {
        "base": "t_uint256",
        "encoding": "inplace",
        "label": "uint256[48]",
        "numberOfBytes": "1536"
      },
      "t_array(t_uint256)49_storage": {
        "base": "t_uint256",
        "encoding": "inplace",
        "label": "uint256[49]",
        "numberOfBytes": "1568"
      },
      "t_array(t_uint256)50_storage": {
        "base": "t_uint256",
        "encoding": "inplace",
        "label": "uint256[50]",
        "numberOfBytes": "1600"
      },
      "t_bool": {
        "encoding": "inplace",
        "label": "bool",
        "numberOfBytes": "1"
      },
      "t_bytes32": {
        "encoding": "inplace",
        "label": "bytes32",
        "numberOfBytes": "32"
      },
      "t_contract(ERC20Upgradeable)3701": {
        "encoding": "inplace",
        "label": "contract ERC20Upgradeable",
        "numberOfBytes": "20"
      },
      "t_contract(ISuAccessControl)58034": {
        "encoding": "inplace",
        "label": "contract ISuAccessControl",
        "numberOfBytes": "20"
      },
      "t_mapping(t_address,t_address)": {
        "encoding": "mapping",
        "key": "t_address",
        "label": "mapping(address => address)",
        "numberOfBytes": "32",
        "value": "t_address"
      },
      "t_mapping(t_address,t_mapping(t_address,t_uint256))": {
        "encoding": "mapping",
        "key": "t_address",
        "label": "mapping(address => mapping(address => uint256))",
        "numberOfBytes": "32",
        "value": "t_mapping(t_address,t_uint256)"
      },
      "t_mapping(t_address,t_struct(Counter)8662_storage)": {
        "encoding": "mapping",
        "key": "t_address",
        "label": "mapping(address => struct CountersUpgradeable.Counter)",
        "numberOfBytes": "32",
        "value": "t_struct(Counter)8662_storage"
      },
      "t_mapping(t_address,t_struct(Trace224)7614_storage)": {
        "encoding": "mapping",
        "key": "t_address",
        "label": "mapping(address => struct CheckpointsUpgradeable.Trace224)",
        "numberOfBytes": "32",
        "value": "t_struct(Trace224)7614_storage"
      },
      "t_mapping(t_address,t_struct(VestingInfo)63523_storage)": {
        "encoding": "mapping",
        "key": "t_address",
        "label": "mapping(address => struct VeERC20.VestingInfo)",
        "numberOfBytes": "32",
        "value": "t_struct(VestingInfo)63523_storage"
      },
      "t_mapping(t_address,t_uint256)": {
        "encoding": "mapping",
        "key": "t_address",
        "label": "mapping(address => uint256)",
        "numberOfBytes": "32",
        "value": "t_uint256"
      },
      "t_string_storage": {
        "encoding": "bytes",
        "label": "string",
        "numberOfBytes": "32"
      },
      "t_struct(Checkpoint224)7619_storage": {
        "encoding": "inplace",
        "label": "struct CheckpointsUpgradeable.Checkpoint224",
        "members": [
          {
            "astId": 7616,
            "contract": "contracts/vested-escrow/VeERC20.sol:VeERC20",
            "label": "_key",
            "offset": 0,
            "slot": "0",
            "type": "t_uint32"
          },
          {
            "astId": 7618,
            "contract": "contracts/vested-escrow/VeERC20.sol:VeERC20",
            "label": "_value",
            "offset": 4,
            "slot": "0",
            "type": "t_uint224"
          }
        ],
        "numberOfBytes": "32"
      },
      "t_struct(Counter)8662_storage": {
        "encoding": "inplace",
        "label": "struct CountersUpgradeable.Counter",
        "members": [
          {
            "astId": 8661,
            "contract": "contracts/vested-escrow/VeERC20.sol:VeERC20",
            "label": "_value",
            "offset": 0,
            "slot": "0",
            "type": "t_uint256"
          }
        ],
        "numberOfBytes": "32"
      },
      "t_struct(Trace224)7614_storage": {
        "encoding": "inplace",
        "label": "struct CheckpointsUpgradeable.Trace224",
        "members": [
          {
            "astId": 7613,
            "contract": "contracts/vested-escrow/VeERC20.sol:VeERC20",
            "label": "_checkpoints",
            "offset": 0,
            "slot": "0",
            "type": "t_array(t_struct(Checkpoint224)7619_storage)dyn_storage"
          }
        ],
        "numberOfBytes": "32"
      },
      "t_struct(VestingInfo)63523_storage": {
        "encoding": "inplace",
        "label": "struct VeERC20.VestingInfo",
        "members": [
          {
            "astId": 63514,
            "contract": "contracts/vested-escrow/VeERC20.sol:VeERC20",
            "label": "amountAlreadyWithdrawn",
            "offset": 0,
            "slot": "0",
            "type": "t_uint256"
          },
          {
            "astId": 63516,
            "contract": "contracts/vested-escrow/VeERC20.sol:VeERC20",
            "label": "cliffSeconds",
            "offset": 0,
            "slot": "1",
            "type": "t_uint256"
          },
          {
            "astId": 63518,
            "contract": "contracts/vested-escrow/VeERC20.sol:VeERC20",
            "label": "vestingSeconds",
            "offset": 0,
            "slot": "2",
            "type": "t_uint256"
          },
          {
            "astId": 63520,
            "contract": "contracts/vested-escrow/VeERC20.sol:VeERC20",
            "label": "tgeUnlockRatio1e18",
            "offset": 0,
            "slot": "3",
            "type": "t_uint256"
          },
          {
            "astId": 63522,
            "contract": "contracts/vested-escrow/VeERC20.sol:VeERC20",
            "label": "vestingFrequencySeconds",
            "offset": 0,
            "slot": "4",
            "type": "t_uint256"
          }
        ],
        "numberOfBytes": "160"
      },
      "t_uint224": {
        "encoding": "inplace",
        "label": "uint224",
        "numberOfBytes": "28"
      },
      "t_uint256": {
        "encoding": "inplace",
        "label": "uint256",
        "numberOfBytes": "32"
      },
      "t_uint32": {
        "encoding": "inplace",
        "label": "uint32",
        "numberOfBytes": "4"
      },
      "t_uint8": {
        "encoding": "inplace",
        "label": "uint8",
        "numberOfBytes": "1"
      }
    }
  }
}